{
	"CoinIdo.sol": {
		"CoinIdo": {
			"abi": [
				{
					"inputs": [
						{
							"internalType": "address",
							"name": "_address",
							"type": "address"
						},
						{
							"internalType": "address",
							"name": "_usdt",
							"type": "address"
						}
					],
					"stateMutability": "nonpayable",
					"type": "constructor"
				},
				{
					"anonymous": false,
					"inputs": [
						{
							"indexed": false,
							"internalType": "address[]",
							"name": "addressFrom",
							"type": "address[]"
						},
						{
							"indexed": false,
							"internalType": "address[]",
							"name": "addressTo",
							"type": "address[]"
						}
					],
					"name": "AddRelation",
					"type": "event"
				},
				{
					"anonymous": false,
					"inputs": [
						{
							"indexed": false,
							"internalType": "address",
							"name": "from",
							"type": "address"
						},
						{
							"indexed": false,
							"internalType": "uint256",
							"name": "value",
							"type": "uint256"
						}
					],
					"name": "IDOUsdt",
					"type": "event"
				},
				{
					"anonymous": false,
					"inputs": [
						{
							"indexed": false,
							"internalType": "address",
							"name": "previousOwner",
							"type": "address"
						},
						{
							"indexed": false,
							"internalType": "address",
							"name": "newOwner",
							"type": "address"
						}
					],
					"name": "OwnershipTransferred",
					"type": "event"
				},
				{
					"anonymous": false,
					"inputs": [
						{
							"indexed": false,
							"internalType": "address",
							"name": "_address",
							"type": "address"
						},
						{
							"indexed": false,
							"internalType": "uint256",
							"name": "time",
							"type": "uint256"
						}
					],
					"name": "SetEndTime",
					"type": "event"
				},
				{
					"anonymous": false,
					"inputs": [
						{
							"indexed": false,
							"internalType": "address",
							"name": "_address",
							"type": "address"
						},
						{
							"indexed": false,
							"internalType": "address",
							"name": "_manager",
							"type": "address"
						},
						{
							"indexed": false,
							"internalType": "bool",
							"name": "_flag",
							"type": "bool"
						}
					],
					"name": "SetManager",
					"type": "event"
				},
				{
					"anonymous": false,
					"inputs": [
						{
							"indexed": false,
							"internalType": "address",
							"name": "_address",
							"type": "address"
						},
						{
							"indexed": false,
							"internalType": "uint256",
							"name": "_amount",
							"type": "uint256"
						},
						{
							"indexed": false,
							"internalType": "uint256",
							"name": "_time",
							"type": "uint256"
						}
					],
					"name": "Withdraw",
					"type": "event"
				},
				{
					"inputs": [],
					"name": "IDOAddress",
					"outputs": [
						{
							"internalType": "address",
							"name": "",
							"type": "address"
						}
					],
					"stateMutability": "view",
					"type": "function"
				},
				{
					"inputs": [
						{
							"internalType": "uint256",
							"name": "value",
							"type": "uint256"
						}
					],
					"name": "_IDOUsdt",
					"outputs": [],
					"stateMutability": "nonpayable",
					"type": "function"
				},
				{
					"inputs": [
						{
							"internalType": "address[]",
							"name": "addressFrom",
							"type": "address[]"
						},
						{
							"internalType": "address[]",
							"name": "addressTo",
							"type": "address[]"
						}
					],
					"name": "_addRelation",
					"outputs": [],
					"stateMutability": "nonpayable",
					"type": "function"
				},
				{
					"inputs": [
						{
							"internalType": "address",
							"name": "_address",
							"type": "address"
						}
					],
					"name": "allowET",
					"outputs": [],
					"stateMutability": "nonpayable",
					"type": "function"
				},
				{
					"inputs": [
						{
							"internalType": "address",
							"name": "",
							"type": "address"
						}
					],
					"name": "awaitWithdraw",
					"outputs": [
						{
							"internalType": "uint256",
							"name": "",
							"type": "uint256"
						}
					],
					"stateMutability": "view",
					"type": "function"
				},
				{
					"inputs": [],
					"name": "endTime",
					"outputs": [
						{
							"internalType": "uint256",
							"name": "",
							"type": "uint256"
						}
					],
					"stateMutability": "view",
					"type": "function"
				},
				{
					"inputs": [],
					"name": "etCoin",
					"outputs": [
						{
							"internalType": "contract IERC20",
							"name": "",
							"type": "address"
						}
					],
					"stateMutability": "view",
					"type": "function"
				},
				{
					"inputs": [],
					"name": "etNft",
					"outputs": [
						{
							"internalType": "contract IETNFT",
							"name": "",
							"type": "address"
						}
					],
					"stateMutability": "view",
					"type": "function"
				},
				{
					"inputs": [],
					"name": "getWithDraw",
					"outputs": [
						{
							"internalType": "uint256",
							"name": "",
							"type": "uint256"
						}
					],
					"stateMutability": "view",
					"type": "function"
				},
				{
					"inputs": [
						{
							"internalType": "address",
							"name": "",
							"type": "address"
						}
					],
					"name": "isManager",
					"outputs": [
						{
							"internalType": "bool",
							"name": "",
							"type": "bool"
						}
					],
					"stateMutability": "view",
					"type": "function"
				},
				{
					"inputs": [],
					"name": "isOpenIdo",
					"outputs": [
						{
							"internalType": "bool",
							"name": "",
							"type": "bool"
						}
					],
					"stateMutability": "view",
					"type": "function"
				},
				{
					"inputs": [],
					"name": "isOpenOne",
					"outputs": [
						{
							"internalType": "bool",
							"name": "",
							"type": "bool"
						}
					],
					"stateMutability": "view",
					"type": "function"
				},
				{
					"inputs": [],
					"name": "isOpenTwo",
					"outputs": [
						{
							"internalType": "bool",
							"name": "",
							"type": "bool"
						}
					],
					"stateMutability": "view",
					"type": "function"
				},
				{
					"inputs": [
						{
							"internalType": "address",
							"name": "",
							"type": "address"
						},
						{
							"internalType": "uint256",
							"name": "",
							"type": "uint256"
						}
					],
					"name": "lb",
					"outputs": [
						{
							"internalType": "bool",
							"name": "",
							"type": "bool"
						}
					],
					"stateMutability": "view",
					"type": "function"
				},
				{
					"inputs": [],
					"name": "number",
					"outputs": [
						{
							"internalType": "uint256",
							"name": "",
							"type": "uint256"
						}
					],
					"stateMutability": "view",
					"type": "function"
				},
				{
					"inputs": [
						{
							"internalType": "bool",
							"name": "_flag",
							"type": "bool"
						}
					],
					"name": "openOpenIdo",
					"outputs": [],
					"stateMutability": "nonpayable",
					"type": "function"
				},
				{
					"inputs": [
						{
							"internalType": "bool",
							"name": "_flag",
							"type": "bool"
						}
					],
					"name": "openOpenOne",
					"outputs": [],
					"stateMutability": "nonpayable",
					"type": "function"
				},
				{
					"inputs": [
						{
							"internalType": "bool",
							"name": "_flag",
							"type": "bool"
						}
					],
					"name": "openOpenTwo",
					"outputs": [],
					"stateMutability": "nonpayable",
					"type": "function"
				},
				{
					"inputs": [],
					"name": "owner",
					"outputs": [
						{
							"internalType": "address",
							"name": "",
							"type": "address"
						}
					],
					"stateMutability": "view",
					"type": "function"
				},
				{
					"inputs": [
						{
							"internalType": "address",
							"name": "",
							"type": "address"
						}
					],
					"name": "relationAmount",
					"outputs": [
						{
							"internalType": "uint256",
							"name": "",
							"type": "uint256"
						}
					],
					"stateMutability": "view",
					"type": "function"
				},
				{
					"inputs": [
						{
							"internalType": "address",
							"name": "_address",
							"type": "address"
						}
					],
					"name": "setETCoin",
					"outputs": [],
					"stateMutability": "nonpayable",
					"type": "function"
				},
				{
					"inputs": [],
					"name": "setEndTime",
					"outputs": [],
					"stateMutability": "nonpayable",
					"type": "function"
				},
				{
					"inputs": [
						{
							"internalType": "address",
							"name": "_manager",
							"type": "address"
						},
						{
							"internalType": "bool",
							"name": "_flag",
							"type": "bool"
						}
					],
					"name": "setManager",
					"outputs": [],
					"stateMutability": "nonpayable",
					"type": "function"
				},
				{
					"inputs": [
						{
							"internalType": "address",
							"name": "_address",
							"type": "address"
						}
					],
					"name": "setNFT",
					"outputs": [],
					"stateMutability": "nonpayable",
					"type": "function"
				},
				{
					"inputs": [],
					"name": "totalSupply",
					"outputs": [
						{
							"internalType": "uint256",
							"name": "",
							"type": "uint256"
						}
					],
					"stateMutability": "view",
					"type": "function"
				},
				{
					"inputs": [
						{
							"internalType": "address",
							"name": "newOwner",
							"type": "address"
						}
					],
					"name": "transferOwnership",
					"outputs": [],
					"stateMutability": "nonpayable",
					"type": "function"
				},
				{
					"inputs": [],
					"name": "usdt",
					"outputs": [
						{
							"internalType": "contract IERC20",
							"name": "",
							"type": "address"
						}
					],
					"stateMutability": "view",
					"type": "function"
				},
				{
					"inputs": [
						{
							"internalType": "address",
							"name": "",
							"type": "address"
						}
					],
					"name": "userIDO",
					"outputs": [
						{
							"internalType": "uint256",
							"name": "",
							"type": "uint256"
						}
					],
					"stateMutability": "view",
					"type": "function"
				},
				{
					"inputs": [
						{
							"internalType": "address",
							"name": "",
							"type": "address"
						}
					],
					"name": "userRelation",
					"outputs": [
						{
							"internalType": "address",
							"name": "",
							"type": "address"
						}
					],
					"stateMutability": "view",
					"type": "function"
				},
				{
					"inputs": [],
					"name": "withdraw",
					"outputs": [],
					"stateMutability": "nonpayable",
					"type": "function"
				}
			],
			"devdoc": {
				"kind": "dev",
				"methods": {},
				"version": 1
			},
			"evm": {
				"assembly": "    /* \"CoinIdo.sol\":229:6879  contract CoinIdo{ \r... */\n  mstore(0x40, 0x80)\n    /* \"CoinIdo.sol\":929:935  10**18 */\n  0x0de0b6b3a7640000\n    /* \"CoinIdo.sol\":917:935  uint base = 10**18 */\n  0x0e\n  sstore\n    /* \"CoinIdo.sol\":970:1230  constructor(address _address,address _usdt){\r... */\n  callvalue\n  dup1\n  iszero\n  tag_1\n  jumpi\n  0x00\n  dup1\n  revert\ntag_1:\n  pop\n  mload(0x40)\n  sub(codesize, bytecodeSize)\n  dup1\n  bytecodeSize\n  dup4\n  codecopy\n  dup2\n  add\n  0x40\n  dup2\n  swap1\n  mstore\n  tag_2\n  swap2\n  tag_3\n  jump\t// in\ntag_2:\n    /* \"CoinIdo.sol\":1024:1033  isOpenOne */\n  0x00\n    /* \"CoinIdo.sol\":1024:1038  isOpenOne=true */\n  dup1\n  sload\n    /* \"CoinIdo.sol\":1074:1083  isOpenIdo */\n  0x0f\n    /* \"CoinIdo.sol\":1074:1091  isOpenIdo = false */\n  dup1\n  sload\n  not(0xff)\n  and\n  swap1\n  sstore\n    /* \"CoinIdo.sol\":1102:1112  IDOAddress */\n  0x05\n    /* \"CoinIdo.sol\":1102:1121  IDOAddress=_address */\n  dup1\n  sload\n  sub(shl(0xa0, 0x01), 0x01)\n  dup1\n  dup8\n  and\n  not(sub(shl(0xa0, 0x01), 0x01))\n  swap3\n  dup4\n  and\n  or\n  swap1\n  swap3\n  sstore\n    /* \"CoinIdo.sol\":1132:1136  usdt */\n  0x06\n    /* \"CoinIdo.sol\":1132:1152  usdt = IERC20(_usdt) */\n  dup1\n  sload\n  swap3\n  dup7\n  and\n  swap3\n  swap1\n  swap2\n  and\n  swap2\n  swap1\n  swap2\n  or\n  swap1\n  sstore\n    /* \"CoinIdo.sol\":1163:1181  _owner= msg.sender */\n  0x010000\n    /* \"CoinIdo.sol\":1171:1181  msg.sender */\n  caller\n    /* \"CoinIdo.sol\":1163:1181  _owner= msg.sender */\n  swap1\n  dup2\n  mul\n  not(sub(shl(0xb0, 0x01), 0x01))\n  swap1\n  swap3\n  and\n  swap2\n  swap1\n  swap2\n  or\n    /* \"CoinIdo.sol\":1049:1063  isOpenTwo=true */\n  0x0101\n    /* \"CoinIdo.sol\":1163:1181  _owner= msg.sender */\n  or\n  swap1\n  swap2\n  sstore\n    /* \"CoinIdo.sol\":1194:1222  setManager(msg.sender, true) */\n  tag_6\n  swap1\n    /* \"CoinIdo.sol\":1034:1038  true */\n  0x01\n    /* \"CoinIdo.sol\":1194:1204  setManager */\n  tag_7\n    /* \"CoinIdo.sol\":1194:1222  setManager(msg.sender, true) */\n  jump\t// in\ntag_6:\n    /* \"CoinIdo.sol\":970:1230  constructor(address _address,address _usdt){\r... */\n  pop\n  pop\n    /* \"CoinIdo.sol\":229:6879  contract CoinIdo{ \r... */\n  jump(tag_19)\n    /* \"CoinIdo.sol\":1522:1690  function setManager(address _manager, bool _flag) public onlyOwner {\r... */\ntag_7:\n    /* \"CoinIdo.sol\":1380:1390  msg.sender */\n  caller\n    /* \"CoinIdo.sol\":1369:1376  owner() */\n  tag_10\n    /* \"CoinIdo.sol\":1282:1289  address */\n  0x00\n    /* \"CoinIdo.sol\":1309:1315  _owner */\n  sload\n  0x010000\n  swap1\n  div\n  sub(shl(0xa0, 0x01), 0x01)\n  and\n  swap1\n    /* \"CoinIdo.sol\":1236:1323  function owner() public view virtual returns (address) {\r... */\n  jump\n    /* \"CoinIdo.sol\":1369:1376  owner() */\ntag_10:\n  sub(shl(0xa0, 0x01), 0x01)\n    /* \"CoinIdo.sol\":1369:1390  owner() == msg.sender */\n  and\n  eq\n    /* \"CoinIdo.sol\":1361:1427  require(owner() == msg.sender, \"Ownable: caller is not the owner\") */\n  tag_12\n  jumpi\n  mload(0x40)\n  shl(0xe5, 0x461bcd)\n  dup2\n  mstore\n    /* \"#utility.yul\":1096:1098   */\n  0x20\n    /* \"CoinIdo.sol\":1361:1427  require(owner() == msg.sender, \"Ownable: caller is not the owner\") */\n  0x04\n  dup3\n  add\n    /* \"#utility.yul\":1078:1099   */\n  dup2\n  swap1\n  mstore\n    /* \"#utility.yul\":1115:1133   */\n  0x24\n  dup3\n  add\n    /* \"#utility.yul\":1108:1138   */\n  mstore\n    /* \"#utility.yul\":1174:1208   */\n  0x4f776e61626c653a2063616c6c6572206973206e6f7420746865206f776e6572\n    /* \"#utility.yul\":1154:1172   */\n  0x44\n  dup3\n  add\n    /* \"#utility.yul\":1147:1209   */\n  mstore\n    /* \"#utility.yul\":1226:1244   */\n  0x64\n  add\n    /* \"CoinIdo.sol\":1361:1427  require(owner() == msg.sender, \"Ownable: caller is not the owner\") */\n  mload(0x40)\n  dup1\n  swap2\n  sub\n  swap1\n  revert\ntag_12:\n  sub(shl(0xa0, 0x01), 0x01)\n    /* \"CoinIdo.sol\":1600:1619  isManager[_manager] */\n  dup3\n  and\n  0x00\n  dup2\n  dup2\n  mstore\n    /* \"CoinIdo.sol\":1600:1609  isManager */\n  0x04\n    /* \"CoinIdo.sol\":1600:1619  isManager[_manager] */\n  0x20\n  swap1\n  dup2\n  mstore\n  0x40\n  swap2\n  dup3\n  swap1\n  keccak256\n    /* \"CoinIdo.sol\":1600:1627  isManager[_manager] = _flag */\n  dup1\n  sload\n  not(0xff)\n  and\n  dup6\n  iszero\n  iszero\n  swap1\n  dup2\n  or\n  swap1\n  swap2\n  sstore\n    /* \"CoinIdo.sol\":1643:1682  SetManager(msg.sender, _manager, _flag) */\n  dup3\n  mload\n    /* \"CoinIdo.sol\":1654:1664  msg.sender */\n  caller\n    /* \"#utility.yul\":738:772   */\n  dup2\n  mstore\n    /* \"#utility.yul\":788:806   */\n  swap2\n  dup3\n  add\n    /* \"#utility.yul\":781:824   */\n  swap4\n  swap1\n  swap4\n  mstore\n    /* \"#utility.yul\":840:858   */\n  swap1\n  dup2\n  add\n    /* \"#utility.yul\":833:883   */\n  swap2\n  swap1\n  swap2\n  mstore\n    /* \"CoinIdo.sol\":1643:1682  SetManager(msg.sender, _manager, _flag) */\n  0x2862b022f51ffee932517d924c5103b3267a9d5d1f21bec54356e328aac24c18\n  swap1\n    /* \"#utility.yul\":688:690   */\n  0x60\n    /* \"#utility.yul\":673:691   */\n  add\n    /* \"CoinIdo.sol\":1643:1682  SetManager(msg.sender, _manager, _flag) */\n  mload(0x40)\n  dup1\n  swap2\n  sub\n  swap1\n  log1\n    /* \"CoinIdo.sol\":1522:1690  function setManager(address _manager, bool _flag) public onlyOwner {\r... */\n  pop\n  pop\n  jump\t// out\n    /* \"#utility.yul\":14:191   */\ntag_20:\n    /* \"#utility.yul\":93:106   */\n  dup1\n  mload\n  sub(shl(0xa0, 0x01), 0x01)\n    /* \"#utility.yul\":135:166   */\n  dup2\n  and\n    /* \"#utility.yul\":125:167   */\n  dup2\n  eq\n    /* \"#utility.yul\":115:117   */\n  tag_22\n  jumpi\n    /* \"#utility.yul\":181:182   */\n  0x00\n    /* \"#utility.yul\":178:179   */\n  dup1\n    /* \"#utility.yul\":171:183   */\n  revert\n    /* \"#utility.yul\":115:117   */\ntag_22:\n    /* \"#utility.yul\":74:191   */\n  swap2\n  swap1\n  pop\n  jump\t// out\n    /* \"#utility.yul\":196:499   */\ntag_3:\n    /* \"#utility.yul\":275:281   */\n  0x00\n    /* \"#utility.yul\":283:289   */\n  dup1\n    /* \"#utility.yul\":336:338   */\n  0x40\n    /* \"#utility.yul\":324:333   */\n  dup4\n    /* \"#utility.yul\":315:322   */\n  dup6\n    /* \"#utility.yul\":311:334   */\n  sub\n    /* \"#utility.yul\":307:339   */\n  slt\n    /* \"#utility.yul\":304:306   */\n  iszero\n  tag_24\n  jumpi\n    /* \"#utility.yul\":357:363   */\n  dup2\n    /* \"#utility.yul\":349:355   */\n  dup3\n    /* \"#utility.yul\":342:364   */\n  revert\n    /* \"#utility.yul\":304:306   */\ntag_24:\n    /* \"#utility.yul\":385:425   */\n  tag_25\n    /* \"#utility.yul\":415:424   */\n  dup4\n    /* \"#utility.yul\":385:425   */\n  tag_20\n  jump\t// in\ntag_25:\n    /* \"#utility.yul\":375:425   */\n  swap2\n  pop\n    /* \"#utility.yul\":444:493   */\n  tag_26\n    /* \"#utility.yul\":489:491   */\n  0x20\n    /* \"#utility.yul\":478:487   */\n  dup5\n    /* \"#utility.yul\":474:492   */\n  add\n    /* \"#utility.yul\":444:493   */\n  tag_20\n  jump\t// in\ntag_26:\n    /* \"#utility.yul\":434:493   */\n  swap1\n  pop\n    /* \"#utility.yul\":294:499   */\n  swap3\n  pop\n  swap3\n  swap1\n  pop\n  jump\t// out\n    /* \"#utility.yul\":1068:1250   */\ntag_19:\n    /* \"CoinIdo.sol\":229:6879  contract CoinIdo{ \r... */\n  dataSize(sub_0)\n  dup1\n  dataOffset(sub_0)\n  0x00\n  codecopy\n  0x00\n  return\nstop\n\nsub_0: assembly {\n        /* \"CoinIdo.sol\":229:6879  contract CoinIdo{ \r... */\n      mstore(0x40, 0x80)\n      callvalue\n      dup1\n      iszero\n      tag_1\n      jumpi\n      0x00\n      dup1\n      revert\n    tag_1:\n      pop\n      jumpi(tag_2, lt(calldatasize, 0x04))\n      shr(0xe0, calldataload(0x00))\n      dup1\n      0x918a6283\n      gt\n      tag_33\n      jumpi\n      dup1\n      0xd3b91f7a\n      gt\n      tag_34\n      jumpi\n      dup1\n      0xf2fde38b\n      gt\n      tag_35\n      jumpi\n      dup1\n      0xf2fde38b\n      eq\n      tag_29\n      jumpi\n      dup1\n      0xf3ae2415\n      eq\n      tag_30\n      jumpi\n      dup1\n      0xf56e9c66\n      eq\n      tag_31\n      jumpi\n      dup1\n      0xfb066531\n      eq\n      tag_32\n      jumpi\n      0x00\n      dup1\n      revert\n    tag_35:\n      dup1\n      0xd3b91f7a\n      eq\n      tag_25\n      jumpi\n      dup1\n      0xe72ebdb7\n      eq\n      tag_26\n      jumpi\n      dup1\n      0xef7a47fa\n      eq\n      tag_27\n      jumpi\n      dup1\n      0xf06b41e3\n      eq\n      tag_28\n      jumpi\n      0x00\n      dup1\n      revert\n    tag_34:\n      dup1\n      0xa5e90eee\n      gt\n      tag_36\n      jumpi\n      dup1\n      0xa5e90eee\n      eq\n      tag_21\n      jumpi\n      dup1\n      0xc6b24c1c\n      eq\n      tag_22\n      jumpi\n      dup1\n      0xca5cc206\n      eq\n      tag_23\n      jumpi\n      dup1\n      0xce75710c\n      eq\n      tag_24\n      jumpi\n      0x00\n      dup1\n      revert\n    tag_36:\n      dup1\n      0x918a6283\n      eq\n      tag_18\n      jumpi\n      dup1\n      0x965ed465\n      eq\n      tag_19\n      jumpi\n      dup1\n      0xa3f82c2c\n      eq\n      tag_20\n      jumpi\n      0x00\n      dup1\n      revert\n    tag_33:\n      dup1\n      0x68da5e8e\n      gt\n      tag_37\n      jumpi\n      dup1\n      0x76be6af6\n      gt\n      tag_38\n      jumpi\n      dup1\n      0x76be6af6\n      eq\n      tag_14\n      jumpi\n      dup1\n      0x8381f58a\n      eq\n      tag_15\n      jumpi\n      dup1\n      0x8b9272b7\n      eq\n      tag_16\n      jumpi\n      dup1\n      0x8da5cb5b\n      eq\n      tag_17\n      jumpi\n      0x00\n      dup1\n      revert\n    tag_38:\n      dup1\n      0x68da5e8e\n      eq\n      tag_10\n      jumpi\n      dup1\n      0x6a15915a\n      eq\n      tag_11\n      jumpi\n      dup1\n      0x6a41d5d7\n      eq\n      tag_12\n      jumpi\n      dup1\n      0x6c68ec69\n      eq\n      tag_13\n      jumpi\n      0x00\n      dup1\n      revert\n    tag_37:\n      dup1\n      0x2f48ab7d\n      gt\n      tag_39\n      jumpi\n      dup1\n      0x2f48ab7d\n      eq\n      tag_6\n      jumpi\n      dup1\n      0x3197cbb6\n      eq\n      tag_7\n      jumpi\n      dup1\n      0x3ccfd60b\n      eq\n      tag_8\n      jumpi\n      dup1\n      0x5db98f2d\n      eq\n      tag_9\n      jumpi\n      0x00\n      dup1\n      revert\n    tag_39:\n      dup1\n      0x0e73d199\n      eq\n      tag_3\n      jumpi\n      dup1\n      0x18160ddd\n      eq\n      tag_4\n      jumpi\n      dup1\n      0x238c4c2f\n      eq\n      tag_5\n      jumpi\n    tag_2:\n      0x00\n      dup1\n      revert\n        /* \"CoinIdo.sol\":3475:4999  function _IDOUsdt(uint value)public { \r... */\n    tag_3:\n      tag_40\n      tag_41\n      calldatasize\n      0x04\n      tag_42\n      jump\t// in\n    tag_41:\n      tag_43\n      jump\t// in\n    tag_40:\n      stop\n        /* \"CoinIdo.sol\":386:412  uint256 public totalSupply */\n    tag_4:\n      tag_44\n      sload(0x02)\n      dup2\n      jump\n    tag_44:\n      mload(0x40)\n        /* \"#utility.yul\":11724:11749   */\n      swap1\n      dup2\n      mstore\n        /* \"#utility.yul\":11712:11714   */\n      0x20\n        /* \"#utility.yul\":11697:11715   */\n      add\n        /* \"CoinIdo.sol\":386:412  uint256 public totalSupply */\n    tag_46:\n      mload(0x40)\n      dup1\n      swap2\n      sub\n      swap1\n      return\n        /* \"CoinIdo.sol\":2938:3424  function _addRelation(address[]memory addressFrom,address[]memory addressTo)public onlyOwner{\r... */\n    tag_5:\n      tag_40\n      tag_49\n      calldatasize\n      0x04\n      tag_50\n      jump\t// in\n    tag_49:\n      tag_51\n      jump\t// in\n        /* \"CoinIdo.sol\":550:568  IERC20 public usdt */\n    tag_6:\n      sload(0x06)\n      tag_52\n      swap1\n      0xffffffffffffffffffffffffffffffffffffffff\n      and\n      dup2\n      jump\n    tag_52:\n      mload(0x40)\n        /* \"#utility.yul\":4026:4068   */\n      0xffffffffffffffffffffffffffffffffffffffff\n        /* \"#utility.yul\":4014:4069   */\n      swap1\n      swap2\n      and\n        /* \"#utility.yul\":3996:4070   */\n      dup2\n      mstore\n        /* \"#utility.yul\":3984:3986   */\n      0x20\n        /* \"#utility.yul\":3969:3987   */\n      add\n        /* \"CoinIdo.sol\":550:568  IERC20 public usdt */\n      tag_46\n        /* \"#utility.yul\":3951:4076   */\n      jump\n        /* \"CoinIdo.sol\":340:362  uint256 public endTime */\n    tag_7:\n      tag_44\n      sload(0x01)\n      dup2\n      jump\n        /* \"CoinIdo.sol\":5346:6212  function withdraw()public{\r... */\n    tag_8:\n      tag_40\n      tag_60\n      jump\t// in\n        /* \"CoinIdo.sol\":283:304  bool public isOpenTwo */\n    tag_9:\n      sload(0x00)\n      tag_61\n      swap1\n      0x0100\n      swap1\n      div\n      0xff\n      and\n      dup2\n      jump\n    tag_61:\n      mload(0x40)\n        /* \"#utility.yul\":6539:6553   */\n      swap1\n      iszero\n        /* \"#utility.yul\":6532:6554   */\n      iszero\n        /* \"#utility.yul\":6514:6555   */\n      dup2\n      mstore\n        /* \"#utility.yul\":6502:6504   */\n      0x20\n        /* \"#utility.yul\":6487:6505   */\n      add\n        /* \"CoinIdo.sol\":283:304  bool public isOpenTwo */\n      tag_46\n        /* \"#utility.yul\":6469:6561   */\n      jump\n        /* \"CoinIdo.sol\":575:594  IETNFT public etNft */\n    tag_10:\n      sload(0x07)\n      tag_52\n      swap1\n      0xffffffffffffffffffffffffffffffffffffffff\n      and\n      dup2\n      jump\n        /* \"CoinIdo.sol\":2547:2634  function openOpenIdo(bool _flag) public onlyManager{\r... */\n    tag_11:\n      tag_40\n      tag_70\n      calldatasize\n      0x04\n      tag_71\n      jump\t// in\n    tag_70:\n      tag_72\n      jump\t// in\n        /* \"CoinIdo.sol\":736:772  mapping(address=>uint)public userIDO */\n    tag_12:\n      tag_44\n      tag_74\n      calldatasize\n      0x04\n      tag_75\n      jump\t// in\n    tag_74:\n      mstore(0x20, 0x0b)\n      0x00\n      swap1\n      dup2\n      mstore\n      0x40\n      swap1\n      keccak256\n      sload\n      dup2\n      jump\n        /* \"CoinIdo.sol\":2365:2450  function openOpenOne(bool _flag) public onlyManager{\r... */\n    tag_13:\n      tag_40\n      tag_79\n      calldatasize\n      0x04\n      tag_71\n      jump\t// in\n    tag_79:\n      tag_80\n      jump\t// in\n        /* \"CoinIdo.sol\":2691:2865  function setEndTime() public onlyOwner{\r... */\n    tag_14:\n      tag_40\n      tag_82\n      jump\t// in\n        /* \"CoinIdo.sol\":427:448  uint256 public number */\n    tag_15:\n      tag_44\n      sload(0x03)\n      dup2\n      jump\n        /* \"CoinIdo.sol\":601:621  IERC20 public etCoin */\n    tag_16:\n      sload(0x08)\n      tag_52\n      swap1\n      0xffffffffffffffffffffffffffffffffffffffff\n      and\n      dup2\n      jump\n        /* \"CoinIdo.sol\":1236:1323  function owner() public view virtual returns (address) {\r... */\n    tag_17:\n        /* \"CoinIdo.sol\":1282:1289  address */\n      0x00\n        /* \"CoinIdo.sol\":1309:1315  _owner */\n      sload\n      0x010000\n      swap1\n      div\n      0xffffffffffffffffffffffffffffffffffffffff\n      and\n        /* \"CoinIdo.sol\":1236:1323  function owner() public view virtual returns (address) {\r... */\n      jump(tag_52)\n        /* \"CoinIdo.sol\":5005:5277  function allowET(address _address)public{\r... */\n    tag_18:\n      tag_40\n      tag_94\n      calldatasize\n      0x04\n      tag_75\n      jump\t// in\n    tag_94:\n      tag_95\n      jump\t// in\n        /* \"CoinIdo.sol\":2260:2359  function setETCoin(address _address) public onlyManager{\r... */\n    tag_19:\n      tag_40\n      tag_97\n      calldatasize\n      0x04\n      tag_75\n      jump\t// in\n    tag_97:\n      tag_98\n      jump\t// in\n        /* \"CoinIdo.sol\":868:910  mapping(address=>uint)public awaitWithdraw */\n    tag_20:\n      tag_44\n      tag_100\n      calldatasize\n      0x04\n      tag_75\n      jump\t// in\n    tag_100:\n      mstore(0x20, 0x0d)\n      0x00\n      swap1\n      dup2\n      mstore\n      0x40\n      swap1\n      keccak256\n      sload\n      dup2\n      jump\n        /* \"CoinIdo.sol\":1522:1690  function setManager(address _manager, bool _flag) public onlyOwner {\r... */\n    tag_21:\n      tag_40\n      tag_104\n      calldatasize\n      0x04\n      tag_105\n      jump\t// in\n    tag_104:\n      tag_106\n      jump\t// in\n        /* \"CoinIdo.sol\":518:543  address public IDOAddress */\n    tag_22:\n      sload(0x05)\n      tag_52\n      swap1\n      0xffffffffffffffffffffffffffffffffffffffff\n      and\n      dup2\n      jump\n        /* \"CoinIdo.sol\":2456:2541  function openOpenTwo(bool _flag) public onlyManager{\r... */\n    tag_23:\n      tag_40\n      tag_111\n      calldatasize\n      0x04\n      tag_71\n      jump\t// in\n    tag_111:\n      tag_112\n      jump\t// in\n        /* \"CoinIdo.sol\":942:963  bool public isOpenIdo */\n    tag_24:\n      sload(0x0f)\n      tag_61\n      swap1\n      0xff\n      and\n      dup2\n      jump\n        /* \"CoinIdo.sol\":628:662  mapping(address=>bool[]) public lb */\n    tag_25:\n      tag_61\n      tag_117\n      calldatasize\n      0x04\n      tag_118\n      jump\t// in\n    tag_117:\n      tag_119\n      jump\t// in\n        /* \"CoinIdo.sol\":669:713  mapping(address=>address)public userRelation */\n    tag_26:\n      tag_52\n      tag_122\n      calldatasize\n      0x04\n      tag_75\n      jump\t// in\n    tag_122:\n      mstore(0x20, 0x0a)\n      0x00\n      swap1\n      dup2\n      mstore\n      0x40\n      swap1\n      keccak256\n      sload\n      0xffffffffffffffffffffffffffffffffffffffff\n      and\n      dup2\n      jump\n        /* \"CoinIdo.sol\":6224:6876  function getWithDraw()public view returns(uint){\r... */\n    tag_27:\n      tag_44\n      tag_126\n      jump\t// in\n        /* \"CoinIdo.sol\":798:841  mapping(address=>uint)public relationAmount */\n    tag_28:\n      tag_44\n      tag_129\n      calldatasize\n      0x04\n      tag_75\n      jump\t// in\n    tag_129:\n      mstore(0x20, 0x0c)\n      0x00\n      swap1\n      dup2\n      mstore\n      0x40\n      swap1\n      keccak256\n      sload\n      dup2\n      jump\n        /* \"CoinIdo.sol\":1875:2149  function transferOwnership(address newOwner) public onlyOwner {\r... */\n    tag_29:\n      tag_40\n      tag_133\n      calldatasize\n      0x04\n      tag_75\n      jump\t// in\n    tag_133:\n      tag_134\n      jump\t// in\n        /* \"CoinIdo.sol\":467:508  mapping(address => bool) public isManager */\n    tag_30:\n      tag_61\n      tag_136\n      calldatasize\n      0x04\n      tag_75\n      jump\t// in\n    tag_136:\n      mstore(0x20, 0x04)\n      0x00\n      swap1\n      dup2\n      mstore\n      0x40\n      swap1\n      keccak256\n      sload\n      0xff\n      and\n      dup2\n      jump\n        /* \"CoinIdo.sol\":2159:2254  function setNFT(address _address) public onlyManager{\r... */\n    tag_31:\n      tag_40\n      tag_140\n      calldatasize\n      0x04\n      tag_75\n      jump\t// in\n    tag_140:\n      tag_141\n      jump\t// in\n        /* \"CoinIdo.sol\":255:276  bool public isOpenOne */\n    tag_32:\n      sload(0x00)\n      tag_61\n      swap1\n      0xff\n      and\n      dup2\n      jump\n        /* \"CoinIdo.sol\":3475:4999  function _IDOUsdt(uint value)public { \r... */\n    tag_43:\n        /* \"CoinIdo.sol\":3531:3540  isOpenIdo */\n      and(0xff, sload(0x0f))\n        /* \"CoinIdo.sol\":3523:3557  require(isOpenIdo,\"ido is closed\") */\n      tag_146\n      jumpi\n      mload(0x40)\n      0x08c379a000000000000000000000000000000000000000000000000000000000\n      dup2\n      mstore\n        /* \"#utility.yul\":11438:11440   */\n      0x20\n        /* \"CoinIdo.sol\":3523:3557  require(isOpenIdo,\"ido is closed\") */\n      0x04\n      dup3\n      add\n        /* \"#utility.yul\":11420:11441   */\n      mstore\n        /* \"#utility.yul\":11477:11479   */\n      0x0d\n        /* \"#utility.yul\":11457:11475   */\n      0x24\n      dup3\n      add\n        /* \"#utility.yul\":11450:11480   */\n      mstore\n        /* \"#utility.yul\":11516:11531   */\n      0x69646f20697320636c6f73656400000000000000000000000000000000000000\n        /* \"#utility.yul\":11496:11514   */\n      0x44\n      dup3\n      add\n        /* \"#utility.yul\":11489:11532   */\n      mstore\n        /* \"#utility.yul\":11549:11567   */\n      0x64\n      add\n        /* \"CoinIdo.sol\":3523:3557  require(isOpenIdo,\"ido is closed\") */\n    tag_147:\n      mload(0x40)\n      dup1\n      swap2\n      sub\n      swap1\n      revert\n    tag_146:\n        /* \"CoinIdo.sol\":3582:3583  0 */\n      0x00\n        /* \"CoinIdo.sol\":3576:3581  value */\n      dup2\n        /* \"CoinIdo.sol\":3576:3583  value>0 */\n      gt\n        /* \"CoinIdo.sol\":3568:3600  require(value>0,\"value is zero\") */\n      tag_149\n      jumpi\n      mload(0x40)\n      0x08c379a000000000000000000000000000000000000000000000000000000000\n      dup2\n      mstore\n        /* \"#utility.yul\":7259:7261   */\n      0x20\n        /* \"CoinIdo.sol\":3568:3600  require(value>0,\"value is zero\") */\n      0x04\n      dup3\n      add\n        /* \"#utility.yul\":7241:7262   */\n      mstore\n        /* \"#utility.yul\":7298:7300   */\n      0x0d\n        /* \"#utility.yul\":7278:7296   */\n      0x24\n      dup3\n      add\n        /* \"#utility.yul\":7271:7301   */\n      mstore\n        /* \"#utility.yul\":7337:7352   */\n      0x76616c7565206973207a65726f00000000000000000000000000000000000000\n        /* \"#utility.yul\":7317:7335   */\n      0x44\n      dup3\n      add\n        /* \"#utility.yul\":7310:7353   */\n      mstore\n        /* \"#utility.yul\":7370:7388   */\n      0x64\n      add\n        /* \"CoinIdo.sol\":3568:3600  require(value>0,\"value is zero\") */\n      tag_147\n        /* \"#utility.yul\":7231:7394   */\n      jump\n        /* \"CoinIdo.sol\":3568:3600  require(value>0,\"value is zero\") */\n    tag_149:\n        /* \"CoinIdo.sol\":3626:3636  msg.sender */\n      caller\n        /* \"CoinIdo.sol\":3611:3623  address from */\n      0x00\n        /* \"CoinIdo.sol\":3668:3681  userIDO[from] */\n      dup2\n      dup2\n      mstore\n        /* \"CoinIdo.sol\":3668:3675  userIDO */\n      0x0b\n        /* \"CoinIdo.sol\":3668:3681  userIDO[from] */\n      0x20\n      mstore\n      0x40\n      swap1\n      keccak256\n      sload\n        /* \"CoinIdo.sol\":3708:3712  base */\n      sload(0x0e)\n        /* \"CoinIdo.sol\":3703:3712  2000*base */\n      tag_152\n      swap1\n        /* \"CoinIdo.sol\":3703:3707  2000 */\n      0x07d0\n        /* \"CoinIdo.sol\":3703:3712  2000*base */\n      tag_153\n      jump\t// in\n    tag_152:\n        /* \"CoinIdo.sol\":3695:3701  amount */\n      dup2\n        /* \"CoinIdo.sol\":3695:3712  amount>=2000*base */\n      lt\n      iszero\n        /* \"CoinIdo.sol\":3695:3741  amount>=2000*base || amount + value>=2000*base */\n      dup1\n      tag_154\n      jumpi\n      pop\n        /* \"CoinIdo.sol\":3737:3741  base */\n      sload(0x0e)\n        /* \"CoinIdo.sol\":3732:3741  2000*base */\n      tag_155\n      swap1\n        /* \"CoinIdo.sol\":3732:3736  2000 */\n      0x07d0\n        /* \"CoinIdo.sol\":3732:3741  2000*base */\n      tag_153\n      jump\t// in\n    tag_155:\n        /* \"CoinIdo.sol\":3716:3730  amount + value */\n      tag_156\n        /* \"CoinIdo.sol\":3725:3730  value */\n      dup5\n        /* \"CoinIdo.sol\":3716:3722  amount */\n      dup4\n        /* \"CoinIdo.sol\":3716:3730  amount + value */\n      tag_157\n      jump\t// in\n    tag_156:\n        /* \"CoinIdo.sol\":3716:3741  amount + value>=2000*base */\n      lt\n      iszero\n        /* \"CoinIdo.sol\":3695:3741  amount>=2000*base || amount + value>=2000*base */\n    tag_154:\n        /* \"CoinIdo.sol\":3692:3809  if(amount>=2000*base || amount + value>=2000*base){\r... */\n      iszero\n      tag_159\n      jumpi\n        /* \"CoinIdo.sol\":3765:3774  isOpenTwo */\n      sload(0x00)\n      0x0100\n      swap1\n      div\n      0xff\n      and\n        /* \"CoinIdo.sol\":3757:3797  require(isOpenTwo,\"two thousand closed\") */\n      tag_159\n      jumpi\n      mload(0x40)\n      0x08c379a000000000000000000000000000000000000000000000000000000000\n      dup2\n      mstore\n        /* \"#utility.yul\":9027:9029   */\n      0x20\n        /* \"CoinIdo.sol\":3757:3797  require(isOpenTwo,\"two thousand closed\") */\n      0x04\n      dup3\n      add\n        /* \"#utility.yul\":9009:9030   */\n      mstore\n        /* \"#utility.yul\":9066:9068   */\n      0x13\n        /* \"#utility.yul\":9046:9064   */\n      0x24\n      dup3\n      add\n        /* \"#utility.yul\":9039:9069   */\n      mstore\n        /* \"#utility.yul\":9105:9126   */\n      0x74776f2074686f7573616e6420636c6f73656400000000000000000000000000\n        /* \"#utility.yul\":9085:9103   */\n      0x44\n      dup3\n      add\n        /* \"#utility.yul\":9078:9127   */\n      mstore\n        /* \"#utility.yul\":9144:9162   */\n      0x64\n      add\n        /* \"CoinIdo.sol\":3757:3797  require(isOpenTwo,\"two thousand closed\") */\n      tag_147\n        /* \"#utility.yul\":8999:9168   */\n      jump\n        /* \"CoinIdo.sol\":3757:3797  require(isOpenTwo,\"two thousand closed\") */\n    tag_159:\n        /* \"CoinIdo.sol\":3846:3850  base */\n      sload(0x0e)\n        /* \"CoinIdo.sol\":3841:3850  2000*base */\n      tag_162\n      swap1\n        /* \"CoinIdo.sol\":3841:3845  2000 */\n      0x07d0\n        /* \"CoinIdo.sol\":3841:3850  2000*base */\n      tag_153\n      jump\t// in\n    tag_162:\n        /* \"CoinIdo.sol\":3827:3839  amount+value */\n      tag_163\n        /* \"CoinIdo.sol\":3834:3839  value */\n      dup5\n        /* \"CoinIdo.sol\":3827:3833  amount */\n      dup4\n        /* \"CoinIdo.sol\":3827:3839  amount+value */\n      tag_157\n      jump\t// in\n    tag_163:\n        /* \"CoinIdo.sol\":3827:3850  amount+value<=2000*base */\n      gt\n      iszero\n        /* \"CoinIdo.sol\":3819:3861  require(amount+value<=2000*base,\"not IDO\") */\n      tag_164\n      jumpi\n      mload(0x40)\n      0x08c379a000000000000000000000000000000000000000000000000000000000\n      dup2\n      mstore\n        /* \"#utility.yul\":10759:10761   */\n      0x20\n        /* \"CoinIdo.sol\":3819:3861  require(amount+value<=2000*base,\"not IDO\") */\n      0x04\n      dup3\n      add\n        /* \"#utility.yul\":10741:10762   */\n      mstore\n        /* \"#utility.yul\":10798:10799   */\n      0x07\n        /* \"#utility.yul\":10778:10796   */\n      0x24\n      dup3\n      add\n        /* \"#utility.yul\":10771:10800   */\n      mstore\n        /* \"#utility.yul\":10836:10845   */\n      0x6e6f742049444f00000000000000000000000000000000000000000000000000\n        /* \"#utility.yul\":10816:10834   */\n      0x44\n      dup3\n      add\n        /* \"#utility.yul\":10809:10846   */\n      mstore\n        /* \"#utility.yul\":10863:10881   */\n      0x64\n      add\n        /* \"CoinIdo.sol\":3819:3861  require(amount+value<=2000*base,\"not IDO\") */\n      tag_147\n        /* \"#utility.yul\":10731:10887   */\n      jump\n        /* \"CoinIdo.sol\":3819:3861  require(amount+value<=2000*base,\"not IDO\") */\n    tag_164:\n        /* \"CoinIdo.sol\":3898:3916  userRelation[from] */\n      0xffffffffffffffffffffffffffffffffffffffff\n      dup1\n      dup4\n      and\n        /* \"CoinIdo.sol\":3872:3895  address lastLevelAddres */\n      0x00\n        /* \"CoinIdo.sol\":3898:3916  userRelation[from] */\n      swap1\n      dup2\n      mstore\n        /* \"CoinIdo.sol\":3898:3910  userRelation */\n      0x0a\n        /* \"CoinIdo.sol\":3898:3916  userRelation[from] */\n      0x20\n      mstore\n      0x40\n      swap1\n      keccak256\n      sload\n      and\n        /* \"CoinIdo.sol\":3930:3958  lastLevelAddres !=address(0) */\n      dup1\n      iszero\n        /* \"CoinIdo.sol\":3927:4449  if(lastLevelAddres !=address(0)){\r... */\n      tag_167\n      jumpi\n        /* \"CoinIdo.sol\":3977:4001  userIDO[lastLevelAddres] */\n      0xffffffffffffffffffffffffffffffffffffffff\n      dup2\n      and\n        /* \"CoinIdo.sol\":4002:4003  0 */\n      0x00\n        /* \"CoinIdo.sol\":3977:4001  userIDO[lastLevelAddres] */\n      swap1\n      dup2\n      mstore\n        /* \"CoinIdo.sol\":3977:3984  userIDO */\n      0x0b\n        /* \"CoinIdo.sol\":3977:4001  userIDO[lastLevelAddres] */\n      0x20\n      mstore\n      0x40\n      swap1\n      keccak256\n      sload\n        /* \"CoinIdo.sol\":3977:4003  userIDO[lastLevelAddres]>0 */\n      iszero\n        /* \"CoinIdo.sol\":3974:4281  if(userIDO[lastLevelAddres]>0){\r... */\n      tag_168\n      jumpi\n        /* \"CoinIdo.sol\":4023:4033  uint bonus */\n      0x00\n        /* \"CoinIdo.sol\":4046:4051  10000 */\n      0x2710\n        /* \"CoinIdo.sol\":4036:4045  value*500 */\n      tag_169\n        /* \"CoinIdo.sol\":4036:4041  value */\n      dup7\n        /* \"CoinIdo.sol\":4042:4045  500 */\n      0x01f4\n        /* \"CoinIdo.sol\":4036:4045  value*500 */\n      tag_153\n      jump\t// in\n    tag_169:\n        /* \"CoinIdo.sol\":4036:4051  value*500/10000 */\n      tag_170\n      swap2\n      swap1\n      tag_171\n      jump\t// in\n    tag_170:\n        /* \"CoinIdo.sol\":4070:4074  usdt */\n      sload(0x06)\n        /* \"CoinIdo.sol\":4070:4117  usdt.transferFrom(from, lastLevelAddres, bonus) */\n      mload(0x40)\n      0x23b872dd00000000000000000000000000000000000000000000000000000000\n      dup2\n      mstore\n        /* \"CoinIdo.sol\":4070:4074  usdt */\n      0xffffffffffffffffffffffffffffffffffffffff\n        /* \"#utility.yul\":5107:5122   */\n      dup8\n      dup2\n      and\n        /* \"CoinIdo.sol\":4070:4117  usdt.transferFrom(from, lastLevelAddres, bonus) */\n      0x04\n      dup4\n      add\n        /* \"#utility.yul\":5089:5123   */\n      mstore\n        /* \"#utility.yul\":5159:5174   */\n      dup6\n      dup2\n      and\n        /* \"#utility.yul\":5139:5157   */\n      0x24\n      dup4\n      add\n        /* \"#utility.yul\":5132:5175   */\n      mstore\n        /* \"#utility.yul\":5191:5209   */\n      0x44\n      dup3\n      add\n        /* \"#utility.yul\":5184:5218   */\n      dup5\n      swap1\n      mstore\n        /* \"CoinIdo.sol\":4023:4051  uint bonus = value*500/10000 */\n      swap3\n      swap4\n      pop\n        /* \"CoinIdo.sol\":4070:4074  usdt */\n      swap2\n      and\n      swap1\n        /* \"CoinIdo.sol\":4070:4087  usdt.transferFrom */\n      0x23b872dd\n      swap1\n        /* \"#utility.yul\":5001:5019   */\n      0x64\n      add\n        /* \"CoinIdo.sol\":4070:4117  usdt.transferFrom(from, lastLevelAddres, bonus) */\n      0x20\n      mload(0x40)\n      dup1\n      dup4\n      sub\n      dup2\n      0x00\n      dup8\n      dup1\n      extcodesize\n      iszero\n      dup1\n      iszero\n      tag_174\n      jumpi\n      0x00\n      dup1\n      revert\n    tag_174:\n      pop\n      gas\n      call\n      iszero\n      dup1\n      iszero\n      tag_176\n      jumpi\n      returndatasize\n      0x00\n      dup1\n      returndatacopy\n      revert(0x00, returndatasize)\n    tag_176:\n      pop\n      pop\n      pop\n      pop\n      mload(0x40)\n      returndatasize\n      not(0x1f)\n      0x1f\n      dup3\n      add\n      and\n      dup3\n      add\n      dup1\n      0x40\n      mstore\n      pop\n      dup2\n      add\n      swap1\n      tag_177\n      swap2\n      swap1\n      tag_178\n      jump\t// in\n    tag_177:\n      pop\n        /* \"CoinIdo.sol\":4136:4140  usdt */\n      sload(0x06)\n        /* \"CoinIdo.sol\":4160:4170  IDOAddress */\n      sload(0x05)\n        /* \"CoinIdo.sol\":4136:4140  usdt */\n      0xffffffffffffffffffffffffffffffffffffffff\n      swap2\n      dup3\n      and\n      swap2\n        /* \"CoinIdo.sol\":4136:4153  usdt.transferFrom */\n      0x23b872dd\n      swap2\n        /* \"CoinIdo.sol\":4154:4158  from */\n      dup8\n      swap2\n        /* \"CoinIdo.sol\":4160:4170  IDOAddress */\n      and\n        /* \"CoinIdo.sol\":4172:4183  value-bonus */\n      tag_179\n        /* \"CoinIdo.sol\":4178:4183  bonus */\n      dup6\n        /* \"CoinIdo.sol\":4172:4177  value */\n      dup11\n        /* \"CoinIdo.sol\":4172:4183  value-bonus */\n      tag_180\n      jump\t// in\n    tag_179:\n        /* \"CoinIdo.sol\":4136:4184  usdt.transferFrom(from, IDOAddress, value-bonus) */\n      mload(0x40)\n      0xffffffff00000000000000000000000000000000000000000000000000000000\n      0xe0\n      dup7\n      swap1\n      shl\n      and\n      dup2\n      mstore\n        /* \"#utility.yul\":5038:5080   */\n      0xffffffffffffffffffffffffffffffffffffffff\n        /* \"#utility.yul\":5107:5122   */\n      swap4\n      dup5\n      and\n        /* \"CoinIdo.sol\":4136:4184  usdt.transferFrom(from, IDOAddress, value-bonus) */\n      0x04\n      dup3\n      add\n        /* \"#utility.yul\":5089:5123   */\n      mstore\n        /* \"#utility.yul\":5159:5174   */\n      swap3\n      swap1\n      swap2\n      and\n        /* \"#utility.yul\":5139:5157   */\n      0x24\n      dup4\n      add\n        /* \"#utility.yul\":5132:5175   */\n      mstore\n        /* \"#utility.yul\":5191:5209   */\n      0x44\n      dup3\n      add\n        /* \"#utility.yul\":5184:5218   */\n      mstore\n        /* \"#utility.yul\":5001:5019   */\n      0x64\n      add\n        /* \"CoinIdo.sol\":4136:4184  usdt.transferFrom(from, IDOAddress, value-bonus) */\n      0x20\n      mload(0x40)\n      dup1\n      dup4\n      sub\n      dup2\n      0x00\n      dup8\n      dup1\n      extcodesize\n      iszero\n      dup1\n      iszero\n      tag_182\n      jumpi\n      0x00\n      dup1\n      revert\n    tag_182:\n      pop\n      gas\n      call\n      iszero\n      dup1\n      iszero\n      tag_184\n      jumpi\n      returndatasize\n      0x00\n      dup1\n      returndatacopy\n      revert(0x00, returndatasize)\n    tag_184:\n      pop\n      pop\n      pop\n      pop\n      mload(0x40)\n      returndatasize\n      not(0x1f)\n      0x1f\n      dup3\n      add\n      and\n      dup3\n      add\n      dup1\n      0x40\n      mstore\n      pop\n      dup2\n      add\n      swap1\n      tag_185\n      swap2\n      swap1\n      tag_178\n      jump\t// in\n    tag_185:\n      pop\n        /* \"CoinIdo.sol\":3974:4281  if(userIDO[lastLevelAddres]>0){\r... */\n      pop\n      jump(tag_186)\n    tag_168:\n        /* \"CoinIdo.sol\":4223:4227  usdt */\n      sload(0x06)\n        /* \"CoinIdo.sol\":4247:4257  IDOAddress */\n      sload(0x05)\n        /* \"CoinIdo.sol\":4223:4265  usdt.transferFrom(from, IDOAddress, value) */\n      mload(0x40)\n      0x23b872dd00000000000000000000000000000000000000000000000000000000\n      dup2\n      mstore\n        /* \"CoinIdo.sol\":4223:4227  usdt */\n      0xffffffffffffffffffffffffffffffffffffffff\n        /* \"#utility.yul\":5107:5122   */\n      dup7\n      dup2\n      and\n        /* \"CoinIdo.sol\":4223:4265  usdt.transferFrom(from, IDOAddress, value) */\n      0x04\n      dup4\n      add\n        /* \"#utility.yul\":5089:5123   */\n      mstore\n        /* \"CoinIdo.sol\":4247:4257  IDOAddress */\n      swap2\n      dup3\n      and\n        /* \"#utility.yul\":5139:5157   */\n      0x24\n      dup3\n      add\n        /* \"#utility.yul\":5132:5175   */\n      mstore\n        /* \"#utility.yul\":5191:5209   */\n      0x44\n      dup2\n      add\n        /* \"#utility.yul\":5184:5218   */\n      dup8\n      swap1\n      mstore\n        /* \"CoinIdo.sol\":4223:4227  usdt */\n      swap2\n      and\n      swap1\n        /* \"CoinIdo.sol\":4223:4240  usdt.transferFrom */\n      0x23b872dd\n      swap1\n        /* \"#utility.yul\":5001:5019   */\n      0x64\n      add\n        /* \"CoinIdo.sol\":4223:4265  usdt.transferFrom(from, IDOAddress, value) */\n      0x20\n      mload(0x40)\n      dup1\n      dup4\n      sub\n      dup2\n      0x00\n      dup8\n      dup1\n      extcodesize\n      iszero\n      dup1\n      iszero\n      tag_188\n      jumpi\n      0x00\n      dup1\n      revert\n    tag_188:\n      pop\n      gas\n      call\n      iszero\n      dup1\n      iszero\n      tag_190\n      jumpi\n      returndatasize\n      0x00\n      dup1\n      returndatacopy\n      revert(0x00, returndatasize)\n    tag_190:\n      pop\n      pop\n      pop\n      pop\n      mload(0x40)\n      returndatasize\n      not(0x1f)\n      0x1f\n      dup3\n      add\n      and\n      dup3\n      add\n      dup1\n      0x40\n      mstore\n      pop\n      dup2\n      add\n      swap1\n      tag_191\n      swap2\n      swap1\n      tag_178\n      jump\t// in\n    tag_191:\n      pop\n        /* \"CoinIdo.sol\":3974:4281  if(userIDO[lastLevelAddres]>0){\r... */\n    tag_186:\n        /* \"CoinIdo.sol\":4327:4358  relationAmount[lastLevelAddres] */\n      0xffffffffffffffffffffffffffffffffffffffff\n      dup2\n      and\n      0x00\n      swap1\n      dup2\n      mstore\n        /* \"CoinIdo.sol\":4327:4341  relationAmount */\n      0x0c\n        /* \"CoinIdo.sol\":4327:4358  relationAmount[lastLevelAddres] */\n      0x20\n      mstore\n      0x40\n      swap1\n      keccak256\n      sload\n        /* \"CoinIdo.sol\":4327:4364  relationAmount[lastLevelAddres]+value */\n      tag_192\n      swap1\n        /* \"CoinIdo.sol\":4359:4364  value */\n      dup6\n      swap1\n        /* \"CoinIdo.sol\":4327:4364  relationAmount[lastLevelAddres]+value */\n      tag_157\n      jump\t// in\n    tag_192:\n        /* \"CoinIdo.sol\":4295:4326  relationAmount[lastLevelAddres] */\n      0xffffffffffffffffffffffffffffffffffffffff\n      dup3\n      and\n      0x00\n      swap1\n      dup2\n      mstore\n        /* \"CoinIdo.sol\":4295:4309  relationAmount */\n      0x0c\n        /* \"CoinIdo.sol\":4295:4326  relationAmount[lastLevelAddres] */\n      0x20\n      mstore\n      0x40\n      swap1\n      keccak256\n        /* \"CoinIdo.sol\":4295:4364  relationAmount[lastLevelAddres]=relationAmount[lastLevelAddres]+value */\n      sstore\n        /* \"CoinIdo.sol\":3927:4449  if(lastLevelAddres !=address(0)){\r... */\n      jump(tag_193)\n    tag_167:\n        /* \"CoinIdo.sol\":4395:4399  usdt */\n      sload(0x06)\n        /* \"CoinIdo.sol\":4419:4429  IDOAddress */\n      sload(0x05)\n        /* \"CoinIdo.sol\":4395:4437  usdt.transferFrom(from, IDOAddress, value) */\n      mload(0x40)\n      0x23b872dd00000000000000000000000000000000000000000000000000000000\n      dup2\n      mstore\n        /* \"CoinIdo.sol\":4395:4399  usdt */\n      0xffffffffffffffffffffffffffffffffffffffff\n        /* \"#utility.yul\":5107:5122   */\n      dup7\n      dup2\n      and\n        /* \"CoinIdo.sol\":4395:4437  usdt.transferFrom(from, IDOAddress, value) */\n      0x04\n      dup4\n      add\n        /* \"#utility.yul\":5089:5123   */\n      mstore\n        /* \"CoinIdo.sol\":4419:4429  IDOAddress */\n      swap2\n      dup3\n      and\n        /* \"#utility.yul\":5139:5157   */\n      0x24\n      dup3\n      add\n        /* \"#utility.yul\":5132:5175   */\n      mstore\n        /* \"#utility.yul\":5191:5209   */\n      0x44\n      dup2\n      add\n        /* \"#utility.yul\":5184:5218   */\n      dup8\n      swap1\n      mstore\n        /* \"CoinIdo.sol\":4395:4399  usdt */\n      swap2\n      and\n      swap1\n        /* \"CoinIdo.sol\":4395:4412  usdt.transferFrom */\n      0x23b872dd\n      swap1\n        /* \"#utility.yul\":5001:5019   */\n      0x64\n      add\n        /* \"CoinIdo.sol\":4395:4437  usdt.transferFrom(from, IDOAddress, value) */\n      0x20\n      mload(0x40)\n      dup1\n      dup4\n      sub\n      dup2\n      0x00\n      dup8\n      dup1\n      extcodesize\n      iszero\n      dup1\n      iszero\n      tag_195\n      jumpi\n      0x00\n      dup1\n      revert\n    tag_195:\n      pop\n      gas\n      call\n      iszero\n      dup1\n      iszero\n      tag_197\n      jumpi\n      returndatasize\n      0x00\n      dup1\n      returndatacopy\n      revert(0x00, returndatasize)\n    tag_197:\n      pop\n      pop\n      pop\n      pop\n      mload(0x40)\n      returndatasize\n      not(0x1f)\n      0x1f\n      dup3\n      add\n      and\n      dup3\n      add\n      dup1\n      0x40\n      mstore\n      pop\n      dup2\n      add\n      swap1\n      tag_198\n      swap2\n      swap1\n      tag_178\n      jump\t// in\n    tag_198:\n      pop\n        /* \"CoinIdo.sol\":3927:4449  if(lastLevelAddres !=address(0)){\r... */\n    tag_193:\n        /* \"CoinIdo.sol\":4483:4496  amount +value */\n      tag_199\n        /* \"CoinIdo.sol\":4491:4496  value */\n      dup5\n        /* \"CoinIdo.sol\":4483:4489  amount */\n      dup4\n        /* \"CoinIdo.sol\":4483:4496  amount +value */\n      tag_157\n      jump\t// in\n    tag_199:\n        /* \"CoinIdo.sol\":4467:4480  userIDO[from] */\n      0xffffffffffffffffffffffffffffffffffffffff\n      dup5\n      and\n      0x00\n      swap1\n      dup2\n      mstore\n        /* \"CoinIdo.sol\":4467:4474  userIDO */\n      0x0b\n        /* \"CoinIdo.sol\":4467:4480  userIDO[from] */\n      0x20\n      mstore\n      0x40\n      swap1\n      keccak256\n        /* \"CoinIdo.sol\":4467:4496  userIDO[from] = amount +value */\n      sstore\n        /* \"CoinIdo.sol\":4521:4532  totalSupply */\n      sload(0x02)\n        /* \"CoinIdo.sol\":4521:4540  totalSupply + value */\n      tag_200\n      swap1\n        /* \"CoinIdo.sol\":4535:4540  value */\n      dup6\n      swap1\n        /* \"CoinIdo.sol\":4521:4540  totalSupply + value */\n      tag_157\n      jump\t// in\n    tag_200:\n        /* \"CoinIdo.sol\":4507:4518  totalSupply */\n      0x02\n        /* \"CoinIdo.sol\":4507:4540  totalSupply = totalSupply + value */\n      sstore\n        /* \"CoinIdo.sol\":4551:4557  number */\n      0x03\n        /* \"CoinIdo.sol\":4551:4559  number++ */\n      dup1\n      sload\n      swap1\n        /* \"CoinIdo.sol\":4551:4557  number */\n      0x00\n        /* \"CoinIdo.sol\":4551:4559  number++ */\n      tag_201\n      dup4\n      tag_202\n      jump\t// in\n    tag_201:\n      swap1\n      swap2\n      sstore\n      pop\n      pop\n        /* \"CoinIdo.sol\":4590:4603  userIDO[from] */\n      0xffffffffffffffffffffffffffffffffffffffff\n      dup4\n      and\n      0x00\n      swap1\n      dup2\n      mstore\n        /* \"CoinIdo.sol\":4590:4597  userIDO */\n      0x0b\n        /* \"CoinIdo.sol\":4590:4603  userIDO[from] */\n      0x20\n      mstore\n      0x40\n      swap1\n      keccak256\n      sload\n        /* \"CoinIdo.sol\":4609:4612  120 */\n      0x78\n      swap1\n        /* \"CoinIdo.sol\":4590:4608  userIDO[from]*2600 */\n      tag_203\n      swap1\n        /* \"CoinIdo.sol\":4604:4608  2600 */\n      0x0a28\n        /* \"CoinIdo.sol\":4590:4608  userIDO[from]*2600 */\n      tag_153\n      jump\t// in\n    tag_203:\n        /* \"CoinIdo.sol\":4590:4612  userIDO[from]*2600/120 */\n      tag_204\n      swap2\n      swap1\n      tag_171\n      jump\t// in\n    tag_204:\n        /* \"CoinIdo.sol\":4570:4589  awaitWithdraw[from] */\n      0xffffffffffffffffffffffffffffffffffffffff\n      dup5\n      and\n      0x00\n      swap1\n      dup2\n      mstore\n        /* \"CoinIdo.sol\":4570:4583  awaitWithdraw */\n      0x0d\n        /* \"CoinIdo.sol\":4570:4589  awaitWithdraw[from] */\n      0x20\n      mstore\n      0x40\n      swap1\n      keccak256\n        /* \"CoinIdo.sol\":4570:4612  awaitWithdraw[from]=userIDO[from]*2600/120 */\n      sstore\n        /* \"CoinIdo.sol\":4646:4650  base */\n      sload(0x0e)\n        /* \"CoinIdo.sol\":4641:4650  2000*base */\n      tag_205\n      swap1\n        /* \"CoinIdo.sol\":4641:4645  2000 */\n      0x07d0\n        /* \"CoinIdo.sol\":4641:4650  2000*base */\n      tag_153\n      jump\t// in\n    tag_205:\n        /* \"CoinIdo.sol\":4626:4639  userIDO[from] */\n      0xffffffffffffffffffffffffffffffffffffffff\n      dup5\n      and\n      0x00\n      swap1\n      dup2\n      mstore\n        /* \"CoinIdo.sol\":4626:4633  userIDO */\n      0x0b\n        /* \"CoinIdo.sol\":4626:4639  userIDO[from] */\n      0x20\n      mstore\n      0x40\n      swap1\n      keccak256\n      sload\n        /* \"CoinIdo.sol\":4626:4650  userIDO[from]>=2000*base */\n      lt\n        /* \"CoinIdo.sol\":4623:4698  if(userIDO[from]>=2000*base){\r... */\n      tag_206\n      jumpi\n        /* \"CoinIdo.sol\":4666:4671  etNft */\n      sload(0x07)\n        /* \"CoinIdo.sol\":4666:4686  etNft.safeMint(from) */\n      mload(0x40)\n      0x40d097c300000000000000000000000000000000000000000000000000000000\n      dup2\n      mstore\n        /* \"CoinIdo.sol\":4666:4671  etNft */\n      0xffffffffffffffffffffffffffffffffffffffff\n        /* \"#utility.yul\":4014:4069   */\n      dup6\n      dup2\n      and\n        /* \"CoinIdo.sol\":4666:4686  etNft.safeMint(from) */\n      0x04\n      dup4\n      add\n        /* \"#utility.yul\":3996:4070   */\n      mstore\n        /* \"CoinIdo.sol\":4666:4671  etNft */\n      swap1\n      swap2\n      and\n      swap1\n        /* \"CoinIdo.sol\":4666:4680  etNft.safeMint */\n      0x40d097c3\n      swap1\n        /* \"#utility.yul\":3969:3987   */\n      0x24\n      add\n        /* \"CoinIdo.sol\":4666:4686  etNft.safeMint(from) */\n      0x00\n      mload(0x40)\n      dup1\n      dup4\n      sub\n      dup2\n      0x00\n      dup8\n      dup1\n      extcodesize\n      iszero\n      dup1\n      iszero\n      tag_208\n      jumpi\n      0x00\n      dup1\n      revert\n    tag_208:\n      pop\n      gas\n      call\n      iszero\n      dup1\n      iszero\n      tag_210\n      jumpi\n      returndatasize\n      0x00\n      dup1\n      returndatacopy\n      revert(0x00, returndatasize)\n    tag_210:\n      pop\n      pop\n      pop\n      pop\n        /* \"CoinIdo.sol\":4623:4698  if(userIDO[from]>=2000*base){\r... */\n    tag_206:\n        /* \"CoinIdo.sol\":4774:4778  base */\n      sload(0x0e)\n        /* \"CoinIdo.sol\":4769:4778  3000*base */\n      tag_211\n      swap1\n        /* \"CoinIdo.sol\":4769:4773  3000 */\n      0x0bb8\n        /* \"CoinIdo.sol\":4769:4778  3000*base */\n      tag_153\n      jump\t// in\n    tag_211:\n        /* \"CoinIdo.sol\":4736:4767  relationAmount[lastLevelAddres] */\n      0xffffffffffffffffffffffffffffffffffffffff\n      dup3\n      and\n      0x00\n      swap1\n      dup2\n      mstore\n        /* \"CoinIdo.sol\":4736:4750  relationAmount */\n      0x0c\n        /* \"CoinIdo.sol\":4736:4767  relationAmount[lastLevelAddres] */\n      0x20\n      mstore\n      0x40\n      swap1\n      keccak256\n      sload\n        /* \"CoinIdo.sol\":4736:4778  relationAmount[lastLevelAddres]>=3000*base */\n      lt\n        /* \"CoinIdo.sol\":4733:4925  if(relationAmount[lastLevelAddres]>=3000*base){\r... */\n      tag_212\n      jumpi\n        /* \"CoinIdo.sol\":4794:4799  etNft */\n      sload(0x07)\n        /* \"CoinIdo.sol\":4794:4825  etNft.safeMint(lastLevelAddres) */\n      mload(0x40)\n      0x40d097c300000000000000000000000000000000000000000000000000000000\n      dup2\n      mstore\n        /* \"CoinIdo.sol\":4794:4799  etNft */\n      0xffffffffffffffffffffffffffffffffffffffff\n        /* \"#utility.yul\":4014:4069   */\n      dup4\n      dup2\n      and\n        /* \"CoinIdo.sol\":4794:4825  etNft.safeMint(lastLevelAddres) */\n      0x04\n      dup4\n      add\n        /* \"#utility.yul\":3996:4070   */\n      mstore\n        /* \"CoinIdo.sol\":4794:4799  etNft */\n      swap1\n      swap2\n      and\n      swap1\n        /* \"CoinIdo.sol\":4794:4808  etNft.safeMint */\n      0x40d097c3\n      swap1\n        /* \"#utility.yul\":3969:3987   */\n      0x24\n      add\n        /* \"CoinIdo.sol\":4794:4825  etNft.safeMint(lastLevelAddres) */\n      0x00\n      mload(0x40)\n      dup1\n      dup4\n      sub\n      dup2\n      0x00\n      dup8\n      dup1\n      extcodesize\n      iszero\n      dup1\n      iszero\n      tag_214\n      jumpi\n      0x00\n      dup1\n      revert\n    tag_214:\n      pop\n      gas\n      call\n      iszero\n      dup1\n      iszero\n      tag_216\n      jumpi\n      returndatasize\n      0x00\n      dup1\n      returndatacopy\n      revert(0x00, returndatasize)\n    tag_216:\n      pop\n      pop\n      pop\n      pop\n        /* \"CoinIdo.sol\":4909:4913  base */\n      sload(0x0e)\n        /* \"CoinIdo.sol\":4904:4908  3000 */\n      0x0bb8\n        /* \"CoinIdo.sol\":4904:4913  3000*base */\n      tag_217\n      swap2\n      swap1\n      tag_153\n      jump\t// in\n    tag_217:\n        /* \"CoinIdo.sol\":4872:4903  relationAmount[lastLevelAddres] */\n      0xffffffffffffffffffffffffffffffffffffffff\n      dup3\n      and\n      0x00\n      swap1\n      dup2\n      mstore\n        /* \"CoinIdo.sol\":4872:4886  relationAmount */\n      0x0c\n        /* \"CoinIdo.sol\":4872:4903  relationAmount[lastLevelAddres] */\n      0x20\n      mstore\n      0x40\n      swap1\n      keccak256\n      sload\n        /* \"CoinIdo.sol\":4872:4913  relationAmount[lastLevelAddres]-3000*base */\n      tag_218\n      swap2\n      swap1\n      tag_180\n      jump\t// in\n    tag_218:\n        /* \"CoinIdo.sol\":4840:4871  relationAmount[lastLevelAddres] */\n      0xffffffffffffffffffffffffffffffffffffffff\n      dup3\n      and\n      0x00\n      swap1\n      dup2\n      mstore\n        /* \"CoinIdo.sol\":4840:4854  relationAmount */\n      0x0c\n        /* \"CoinIdo.sol\":4840:4871  relationAmount[lastLevelAddres] */\n      0x20\n      mstore\n      0x40\n      swap1\n      keccak256\n        /* \"CoinIdo.sol\":4840:4913  relationAmount[lastLevelAddres]=relationAmount[lastLevelAddres]-3000*base */\n      sstore\n        /* \"CoinIdo.sol\":4733:4925  if(relationAmount[lastLevelAddres]>=3000*base){\r... */\n    tag_212:\n        /* \"CoinIdo.sol\":4943:4956  allowET(from) */\n      tag_219\n        /* \"CoinIdo.sol\":4951:4955  from */\n      dup4\n        /* \"CoinIdo.sol\":4943:4950  allowET */\n      tag_95\n        /* \"CoinIdo.sol\":4943:4956  allowET(from) */\n      jump\t// in\n    tag_219:\n        /* \"CoinIdo.sol\":4972:4991  IDOUsdt(from,value) */\n      0x40\n      dup1\n      mload\n        /* \"#utility.yul\":5433:5475   */\n      0xffffffffffffffffffffffffffffffffffffffff\n        /* \"#utility.yul\":5421:5476   */\n      dup6\n      and\n        /* \"#utility.yul\":5403:5477   */\n      dup2\n      mstore\n        /* \"#utility.yul\":5508:5510   */\n      0x20\n        /* \"#utility.yul\":5493:5511   */\n      dup2\n      add\n        /* \"#utility.yul\":5486:5520   */\n      dup7\n      swap1\n      mstore\n        /* \"CoinIdo.sol\":4972:4991  IDOUsdt(from,value) */\n      0x080bf12451b207525905f2fe9e47714fbcd5aa383b228f656b880136e66b288f\n      swap2\n        /* \"#utility.yul\":5376:5394   */\n      add\n        /* \"CoinIdo.sol\":4972:4991  IDOUsdt(from,value) */\n      mload(0x40)\n      dup1\n      swap2\n      sub\n      swap1\n      log1\n        /* \"CoinIdo.sol\":3475:4999  function _IDOUsdt(uint value)public { \r... */\n      pop\n      pop\n      pop\n      pop\n      jump\t// out\n        /* \"CoinIdo.sol\":2938:3424  function _addRelation(address[]memory addressFrom,address[]memory addressTo)public onlyOwner{\r... */\n    tag_51:\n        /* \"CoinIdo.sol\":1282:1289  address */\n      0x00\n        /* \"CoinIdo.sol\":1309:1315  _owner */\n      sload\n      0xffffffffffffffffffffffffffffffffffffffff\n      0x010000\n      swap1\n      swap2\n      div\n      and\n        /* \"CoinIdo.sol\":1380:1390  msg.sender */\n      caller\n        /* \"CoinIdo.sol\":1369:1390  owner() == msg.sender */\n      eq\n        /* \"CoinIdo.sol\":1361:1427  require(owner() == msg.sender, \"Ownable: caller is not the owner\") */\n      tag_224\n      jumpi\n      mload(0x40)\n      0x08c379a000000000000000000000000000000000000000000000000000000000\n      dup2\n      mstore\n        /* \"#utility.yul\":10398:10400   */\n      0x20\n        /* \"CoinIdo.sol\":1361:1427  require(owner() == msg.sender, \"Ownable: caller is not the owner\") */\n      0x04\n      dup3\n      add\n        /* \"#utility.yul\":10380:10401   */\n      dup2\n      swap1\n      mstore\n        /* \"#utility.yul\":10417:10435   */\n      0x24\n      dup3\n      add\n        /* \"#utility.yul\":10410:10440   */\n      mstore\n        /* \"#utility.yul\":10476:10510   */\n      0x4f776e61626c653a2063616c6c6572206973206e6f7420746865206f776e6572\n        /* \"#utility.yul\":10456:10474   */\n      0x44\n      dup3\n      add\n        /* \"#utility.yul\":10449:10511   */\n      mstore\n        /* \"#utility.yul\":10528:10546   */\n      0x64\n      add\n        /* \"CoinIdo.sol\":1361:1427  require(owner() == msg.sender, \"Ownable: caller is not the owner\") */\n      tag_147\n        /* \"#utility.yul\":10370:10552   */\n      jump\n        /* \"CoinIdo.sol\":1361:1427  require(owner() == msg.sender, \"Ownable: caller is not the owner\") */\n    tag_224:\n        /* \"CoinIdo.sol\":3069:3078  addressTo */\n      dup1\n        /* \"CoinIdo.sol\":3069:3085  addressTo.length */\n      mload\n        /* \"CoinIdo.sol\":3049:3060  addressFrom */\n      dup3\n        /* \"CoinIdo.sol\":3049:3067  addressFrom.length */\n      mload\n        /* \"CoinIdo.sol\":3049:3085  addressFrom.length==addressTo.length */\n      eq\n        /* \"CoinIdo.sol\":3041:3104  require(addressFrom.length==addressTo.length,\"length is wrong\") */\n      tag_228\n      jumpi\n      mload(0x40)\n      0x08c379a000000000000000000000000000000000000000000000000000000000\n      dup2\n      mstore\n        /* \"#utility.yul\":11094:11096   */\n      0x20\n        /* \"CoinIdo.sol\":3041:3104  require(addressFrom.length==addressTo.length,\"length is wrong\") */\n      0x04\n      dup3\n      add\n        /* \"#utility.yul\":11076:11097   */\n      mstore\n        /* \"#utility.yul\":11133:11135   */\n      0x0f\n        /* \"#utility.yul\":11113:11131   */\n      0x24\n      dup3\n      add\n        /* \"#utility.yul\":11106:11136   */\n      mstore\n        /* \"#utility.yul\":11172:11189   */\n      0x6c656e6774682069732077726f6e670000000000000000000000000000000000\n        /* \"#utility.yul\":11152:11170   */\n      0x44\n      dup3\n      add\n        /* \"#utility.yul\":11145:11190   */\n      mstore\n        /* \"#utility.yul\":11207:11225   */\n      0x64\n      add\n        /* \"CoinIdo.sol\":3041:3104  require(addressFrom.length==addressTo.length,\"length is wrong\") */\n      tag_147\n        /* \"#utility.yul\":11066:11231   */\n      jump\n        /* \"CoinIdo.sol\":3041:3104  require(addressFrom.length==addressTo.length,\"length is wrong\") */\n    tag_228:\n        /* \"CoinIdo.sol\":3119:3125  uint i */\n      0x00\n        /* \"CoinIdo.sol\":3115:3367  for(uint i=0; i<addressFrom.length; i++){\r... */\n    tag_231:\n        /* \"CoinIdo.sol\":3131:3142  addressFrom */\n      dup3\n        /* \"CoinIdo.sol\":3131:3149  addressFrom.length */\n      mload\n        /* \"CoinIdo.sol\":3129:3130  i */\n      dup2\n        /* \"CoinIdo.sol\":3129:3149  i<addressFrom.length */\n      lt\n        /* \"CoinIdo.sol\":3115:3367  for(uint i=0; i<addressFrom.length; i++){\r... */\n      iszero\n      tag_232\n      jumpi\n        /* \"CoinIdo.sol\":3203:3204  0 */\n      0x00\n        /* \"CoinIdo.sol\":3178:3205  addressFrom[i] !=address(0) */\n      0xffffffffffffffffffffffffffffffffffffffff\n      and\n        /* \"CoinIdo.sol\":3178:3189  addressFrom */\n      dup4\n        /* \"CoinIdo.sol\":3190:3191  i */\n      dup3\n        /* \"CoinIdo.sol\":3178:3192  addressFrom[i] */\n      dup2\n      mload\n      dup2\n      lt\n      tag_234\n      jumpi\n      mstore(0x00, 0x4e487b7100000000000000000000000000000000000000000000000000000000)\n      mstore(0x04, 0x32)\n      revert(0x00, 0x24)\n    tag_234:\n      0x20\n      mul\n      0x20\n      add\n      add\n      mload\n        /* \"CoinIdo.sol\":3178:3205  addressFrom[i] !=address(0) */\n      0xffffffffffffffffffffffffffffffffffffffff\n      and\n      eq\n      iszero\n        /* \"CoinIdo.sol\":3170:3225  require(addressFrom[i] !=address(0),\"address is wrong\") */\n      tag_235\n      jumpi\n      mload(0x40)\n      0x08c379a000000000000000000000000000000000000000000000000000000000\n      dup2\n      mstore\n        /* \"#utility.yul\":7601:7603   */\n      0x20\n        /* \"CoinIdo.sol\":3170:3225  require(addressFrom[i] !=address(0),\"address is wrong\") */\n      0x04\n      dup3\n      add\n        /* \"#utility.yul\":7583:7604   */\n      mstore\n        /* \"#utility.yul\":7640:7642   */\n      0x10\n        /* \"#utility.yul\":7620:7638   */\n      0x24\n      dup3\n      add\n        /* \"#utility.yul\":7613:7643   */\n      mstore\n        /* \"#utility.yul\":7679:7697   */\n      0x616464726573732069732077726f6e6700000000000000000000000000000000\n        /* \"#utility.yul\":7659:7677   */\n      0x44\n      dup3\n      add\n        /* \"#utility.yul\":7652:7698   */\n      mstore\n        /* \"#utility.yul\":7715:7733   */\n      0x64\n      add\n        /* \"CoinIdo.sol\":3170:3225  require(addressFrom[i] !=address(0),\"address is wrong\") */\n      tag_147\n        /* \"#utility.yul\":7573:7739   */\n      jump\n        /* \"CoinIdo.sol\":3170:3225  require(addressFrom[i] !=address(0),\"address is wrong\") */\n    tag_235:\n        /* \"CoinIdo.sol\":3266:3275  addressTo */\n      dup2\n        /* \"CoinIdo.sol\":3276:3277  i */\n      dup2\n        /* \"CoinIdo.sol\":3266:3278  addressTo[i] */\n      dup2\n      mload\n      dup2\n      lt\n      tag_238\n      jumpi\n      mstore(0x00, 0x4e487b7100000000000000000000000000000000000000000000000000000000)\n      mstore(0x04, 0x32)\n      revert(0x00, 0x24)\n    tag_238:\n      0x20\n      mul\n      0x20\n      add\n      add\n      mload\n        /* \"CoinIdo.sol\":3248:3278  addressFrom[i] != addressTo[i] */\n      0xffffffffffffffffffffffffffffffffffffffff\n      and\n        /* \"CoinIdo.sol\":3248:3259  addressFrom */\n      dup4\n        /* \"CoinIdo.sol\":3260:3261  i */\n      dup3\n        /* \"CoinIdo.sol\":3248:3262  addressFrom[i] */\n      dup2\n      mload\n      dup2\n      lt\n      tag_239\n      jumpi\n      mstore(0x00, 0x4e487b7100000000000000000000000000000000000000000000000000000000)\n      mstore(0x04, 0x32)\n      revert(0x00, 0x24)\n    tag_239:\n      0x20\n      mul\n      0x20\n      add\n      add\n      mload\n        /* \"CoinIdo.sol\":3248:3278  addressFrom[i] != addressTo[i] */\n      0xffffffffffffffffffffffffffffffffffffffff\n      and\n      eq\n      iszero\n        /* \"CoinIdo.sol\":3240:3297  require(addressFrom[i] != addressTo[i],\"addres is equal\") */\n      tag_240\n      jumpi\n      mload(0x40)\n      0x08c379a000000000000000000000000000000000000000000000000000000000\n      dup2\n      mstore\n        /* \"#utility.yul\":9717:9719   */\n      0x20\n        /* \"CoinIdo.sol\":3240:3297  require(addressFrom[i] != addressTo[i],\"addres is equal\") */\n      0x04\n      dup3\n      add\n        /* \"#utility.yul\":9699:9720   */\n      mstore\n        /* \"#utility.yul\":9756:9758   */\n      0x0f\n        /* \"#utility.yul\":9736:9754   */\n      0x24\n      dup3\n      add\n        /* \"#utility.yul\":9729:9759   */\n      mstore\n        /* \"#utility.yul\":9795:9812   */\n      0x61646472657320697320657175616c0000000000000000000000000000000000\n        /* \"#utility.yul\":9775:9793   */\n      0x44\n      dup3\n      add\n        /* \"#utility.yul\":9768:9813   */\n      mstore\n        /* \"#utility.yul\":9830:9848   */\n      0x64\n      add\n        /* \"CoinIdo.sol\":3240:3297  require(addressFrom[i] != addressTo[i],\"addres is equal\") */\n      tag_147\n        /* \"#utility.yul\":9689:9854   */\n      jump\n        /* \"CoinIdo.sol\":3240:3297  require(addressFrom[i] != addressTo[i],\"addres is equal\") */\n    tag_240:\n        /* \"CoinIdo.sol\":3343:3352  addressTo */\n      dup2\n        /* \"CoinIdo.sol\":3353:3354  i */\n      dup2\n        /* \"CoinIdo.sol\":3343:3355  addressTo[i] */\n      dup2\n      mload\n      dup2\n      lt\n      tag_243\n      jumpi\n      mstore(0x00, 0x4e487b7100000000000000000000000000000000000000000000000000000000)\n      mstore(0x04, 0x32)\n      revert(0x00, 0x24)\n    tag_243:\n      0x20\n      mul\n      0x20\n      add\n      add\n      mload\n        /* \"CoinIdo.sol\":3312:3324  userRelation */\n      0x0a\n        /* \"CoinIdo.sol\":3312:3340  userRelation[addressFrom[i]] */\n      0x00\n        /* \"CoinIdo.sol\":3325:3336  addressFrom */\n      dup6\n        /* \"CoinIdo.sol\":3337:3338  i */\n      dup5\n        /* \"CoinIdo.sol\":3325:3339  addressFrom[i] */\n      dup2\n      mload\n      dup2\n      lt\n      tag_244\n      jumpi\n      mstore(0x00, 0x4e487b7100000000000000000000000000000000000000000000000000000000)\n      mstore(0x04, 0x32)\n      revert(0x00, 0x24)\n    tag_244:\n      0x20\n      mul\n      0x20\n      add\n      add\n      mload\n        /* \"CoinIdo.sol\":3312:3340  userRelation[addressFrom[i]] */\n      0xffffffffffffffffffffffffffffffffffffffff\n      and\n      0xffffffffffffffffffffffffffffffffffffffff\n      and\n      dup2\n      mstore\n      0x20\n      add\n      swap1\n      dup2\n      mstore\n      0x20\n      add\n      0x00\n      keccak256\n      0x00\n        /* \"CoinIdo.sol\":3312:3355  userRelation[addressFrom[i]] = addressTo[i] */\n      0x0100\n      exp\n      dup2\n      sload\n      dup2\n      0xffffffffffffffffffffffffffffffffffffffff\n      mul\n      not\n      and\n      swap1\n      dup4\n      0xffffffffffffffffffffffffffffffffffffffff\n      and\n      mul\n      or\n      swap1\n      sstore\n      pop\n        /* \"CoinIdo.sol\":3151:3154  i++ */\n      dup1\n      dup1\n      tag_245\n      swap1\n      tag_202\n      jump\t// in\n    tag_245:\n      swap2\n      pop\n      pop\n        /* \"CoinIdo.sol\":3115:3367  for(uint i=0; i<addressFrom.length; i++){\r... */\n      jump(tag_231)\n    tag_232:\n      pop\n        /* \"CoinIdo.sol\":3382:3416  AddRelation(addressFrom,addressTo) */\n      0x1886f03d42b471bc8faf784e3878fce329e8e139473c601b8648de73b3380c02\n        /* \"CoinIdo.sol\":3394:3405  addressFrom */\n      dup3\n        /* \"CoinIdo.sol\":3406:3415  addressTo */\n      dup3\n        /* \"CoinIdo.sol\":3382:3416  AddRelation(addressFrom,addressTo) */\n      mload(0x40)\n      tag_246\n      swap3\n      swap2\n      swap1\n      tag_247\n      jump\t// in\n    tag_246:\n      mload(0x40)\n      dup1\n      swap2\n      sub\n      swap1\n      log1\n        /* \"CoinIdo.sol\":2938:3424  function _addRelation(address[]memory addressFrom,address[]memory addressTo)public onlyOwner{\r... */\n      pop\n      pop\n      jump\t// out\n        /* \"CoinIdo.sol\":5346:6212  function withdraw()public{\r... */\n    tag_60:\n        /* \"CoinIdo.sol\":5398:5408  msg.sender */\n      caller\n        /* \"CoinIdo.sol\":5410:5411  0 */\n      0x00\n        /* \"CoinIdo.sol\":5390:5409  userIDO[msg.sender] */\n      swap1\n      dup2\n      mstore\n        /* \"CoinIdo.sol\":5390:5397  userIDO */\n      0x0b\n        /* \"CoinIdo.sol\":5390:5409  userIDO[msg.sender] */\n      0x20\n      mstore\n      0x40\n      swap1\n      keccak256\n      sload\n        /* \"CoinIdo.sol\":5382:5424  require(userIDO[msg.sender]>0,\"not allow\") */\n      tag_249\n      jumpi\n      mload(0x40)\n      0x08c379a000000000000000000000000000000000000000000000000000000000\n      dup2\n      mstore\n        /* \"#utility.yul\":10061:10063   */\n      0x20\n        /* \"CoinIdo.sol\":5382:5424  require(userIDO[msg.sender]>0,\"not allow\") */\n      0x04\n      dup3\n      add\n        /* \"#utility.yul\":10043:10064   */\n      mstore\n        /* \"#utility.yul\":10100:10101   */\n      0x09\n        /* \"#utility.yul\":10080:10098   */\n      0x24\n      dup3\n      add\n        /* \"#utility.yul\":10073:10102   */\n      mstore\n        /* \"#utility.yul\":10138:10149   */\n      0x6e6f7420616c6c6f770000000000000000000000000000000000000000000000\n        /* \"#utility.yul\":10118:10136   */\n      0x44\n      dup3\n      add\n        /* \"#utility.yul\":10111:10150   */\n      mstore\n        /* \"#utility.yul\":10167:10185   */\n      0x64\n      add\n        /* \"CoinIdo.sol\":5382:5424  require(userIDO[msg.sender]>0,\"not allow\") */\n      tag_147\n        /* \"#utility.yul\":10033:10191   */\n      jump\n        /* \"CoinIdo.sol\":5382:5424  require(userIDO[msg.sender]>0,\"not allow\") */\n    tag_249:\n        /* \"CoinIdo.sol\":5451:5452  0 */\n      0x00\n        /* \"CoinIdo.sol\":5443:5450  endTime */\n      sload(0x01)\n        /* \"CoinIdo.sol\":5443:5452  endTime>0 */\n      gt\n        /* \"CoinIdo.sol\":5435:5462  require(endTime>0,\"not ET\") */\n      tag_252\n      jumpi\n      mload(0x40)\n      0x08c379a000000000000000000000000000000000000000000000000000000000\n      dup2\n      mstore\n        /* \"#utility.yul\":8693:8695   */\n      0x20\n        /* \"CoinIdo.sol\":5435:5462  require(endTime>0,\"not ET\") */\n      0x04\n      dup3\n      add\n        /* \"#utility.yul\":8675:8696   */\n      mstore\n        /* \"#utility.yul\":8732:8733   */\n      0x06\n        /* \"#utility.yul\":8712:8730   */\n      0x24\n      dup3\n      add\n        /* \"#utility.yul\":8705:8734   */\n      mstore\n        /* \"#utility.yul\":8770:8778   */\n      0x6e6f742045540000000000000000000000000000000000000000000000000000\n        /* \"#utility.yul\":8750:8768   */\n      0x44\n      dup3\n      add\n        /* \"#utility.yul\":8743:8779   */\n      mstore\n        /* \"#utility.yul\":8796:8814   */\n      0x64\n      add\n        /* \"CoinIdo.sol\":5435:5462  require(endTime>0,\"not ET\") */\n      tag_147\n        /* \"#utility.yul\":8665:8820   */\n      jump\n        /* \"CoinIdo.sol\":5435:5462  require(endTime>0,\"not ET\") */\n    tag_252:\n        /* \"CoinIdo.sol\":5473:5484  uint amount */\n      0x00\n        /* \"CoinIdo.sol\":5495:5512  uint intervalTime */\n      dup1\n        /* \"CoinIdo.sol\":5532:5539  endTime */\n      sload(0x01)\n        /* \"CoinIdo.sol\":5515:5530  block.timestamp */\n      timestamp\n        /* \"CoinIdo.sol\":5515:5539  block.timestamp -endTime */\n      tag_255\n      swap2\n      swap1\n      tag_180\n      jump\t// in\n    tag_255:\n        /* \"CoinIdo.sol\":5495:5539  uint intervalTime = block.timestamp -endTime */\n      swap1\n      pop\n        /* \"CoinIdo.sol\":5550:5558  uint day */\n      0x00\n        /* \"CoinIdo.sol\":5561:5579  intervalTime/86400 */\n      tag_256\n        /* \"CoinIdo.sol\":5574:5579  86400 */\n      0x015180\n        /* \"CoinIdo.sol\":5495:5539  uint intervalTime = block.timestamp -endTime */\n      dup4\n        /* \"CoinIdo.sol\":5561:5579  intervalTime/86400 */\n      tag_171\n      jump\t// in\n    tag_256:\n        /* \"CoinIdo.sol\":5611:5621  msg.sender */\n      caller\n        /* \"CoinIdo.sol\":5590:5600  uint allET */\n      0x00\n        /* \"CoinIdo.sol\":5603:5622  userIDO[msg.sender] */\n      swap1\n      dup2\n      mstore\n        /* \"CoinIdo.sol\":5603:5610  userIDO */\n      0x0b\n        /* \"CoinIdo.sol\":5603:5622  userIDO[msg.sender] */\n      0x20\n      mstore\n      0x40\n      dup2\n      keccak256\n      sload\n        /* \"CoinIdo.sol\":5550:5579  uint day = intervalTime/86400 */\n      swap2\n      swap3\n      pop\n        /* \"CoinIdo.sol\":5590:5600  uint allET */\n      swap1\n        /* \"CoinIdo.sol\":5628:5631  120 */\n      0x78\n      swap1\n        /* \"CoinIdo.sol\":5603:5627  userIDO[msg.sender]*2600 */\n      tag_257\n      swap1\n        /* \"CoinIdo.sol\":5623:5627  2600 */\n      0x0a28\n        /* \"CoinIdo.sol\":5603:5627  userIDO[msg.sender]*2600 */\n      tag_153\n      jump\t// in\n    tag_257:\n        /* \"CoinIdo.sol\":5603:5631  userIDO[msg.sender]*2600/120 */\n      tag_258\n      swap2\n      swap1\n      tag_171\n      jump\t// in\n    tag_258:\n        /* \"CoinIdo.sol\":5590:5631  uint allET = userIDO[msg.sender]*2600/120 */\n      swap1\n      pop\n        /* \"CoinIdo.sol\":5650:5651  1 */\n      0x01\n        /* \"CoinIdo.sol\":5645:5648  day */\n      dup3\n        /* \"CoinIdo.sol\":5645:5651  day>=1 */\n      lt\n      iszero\n        /* \"CoinIdo.sol\":5645:5673  day>=1 && !lb[msg.sender][0] */\n      dup1\n      iszero\n      tag_259\n      jumpi\n      pop\n        /* \"CoinIdo.sol\":5659:5669  msg.sender */\n      caller\n        /* \"CoinIdo.sol\":5656:5670  lb[msg.sender] */\n      0x00\n      swap1\n      dup2\n      mstore\n        /* \"CoinIdo.sol\":5656:5658  lb */\n      0x09\n        /* \"CoinIdo.sol\":5656:5670  lb[msg.sender] */\n      0x20\n      mstore\n      0x40\n      dup2\n      keccak256\n        /* \"CoinIdo.sol\":5656:5673  lb[msg.sender][0] */\n      dup1\n      sload\n        /* \"CoinIdo.sol\":5656:5670  lb[msg.sender] */\n      swap1\n      swap2\n      swap1\n        /* \"CoinIdo.sol\":5656:5673  lb[msg.sender][0] */\n      tag_260\n      jumpi\n      mstore(0x00, 0x4e487b7100000000000000000000000000000000000000000000000000000000)\n      mstore(0x04, 0x32)\n      revert(0x00, 0x24)\n    tag_260:\n      swap1\n      0x00\n      mstore\n      keccak256(0x00, 0x20)\n      swap1\n      0x20\n      swap2\n      dup3\n      dup3\n      div\n      add\n      swap2\n      swap1\n      mod\n      swap1\n      sload\n      swap1\n      0x0100\n      exp\n      swap1\n      div\n      0xff\n      and\n        /* \"CoinIdo.sol\":5655:5673  !lb[msg.sender][0] */\n      iszero\n        /* \"CoinIdo.sol\":5645:5673  day>=1 && !lb[msg.sender][0] */\n    tag_259:\n        /* \"CoinIdo.sol\":5642:5763  if(day>=1 && !lb[msg.sender][0]){\r... */\n      iszero\n      tag_262\n      jumpi\n        /* \"CoinIdo.sol\":5709:5714  10000 */\n      0x2710\n        /* \"CoinIdo.sol\":5698:5708  allET*1000 */\n      tag_263\n        /* \"CoinIdo.sol\":5698:5703  allET */\n      dup3\n        /* \"CoinIdo.sol\":5704:5708  1000 */\n      0x03e8\n        /* \"CoinIdo.sol\":5698:5708  allET*1000 */\n      tag_153\n      jump\t// in\n    tag_263:\n        /* \"CoinIdo.sol\":5698:5714  allET*1000/10000 */\n      tag_264\n      swap2\n      swap1\n      tag_171\n      jump\t// in\n    tag_264:\n        /* \"CoinIdo.sol\":5732:5742  msg.sender */\n      caller\n        /* \"CoinIdo.sol\":5729:5743  lb[msg.sender] */\n      0x00\n      swap1\n      dup2\n      mstore\n        /* \"CoinIdo.sol\":5729:5731  lb */\n      0x09\n        /* \"CoinIdo.sol\":5729:5743  lb[msg.sender] */\n      0x20\n      mstore\n      0x40\n      dup2\n      keccak256\n        /* \"CoinIdo.sol\":5729:5746  lb[msg.sender][0] */\n      dup1\n      sload\n        /* \"CoinIdo.sol\":5689:5714  amount = allET*1000/10000 */\n      swap3\n      swap7\n      pop\n        /* \"CoinIdo.sol\":5747:5751  true */\n      0x01\n      swap3\n        /* \"CoinIdo.sol\":5729:5743  lb[msg.sender] */\n      swap1\n      swap2\n      swap1\n        /* \"CoinIdo.sol\":5729:5746  lb[msg.sender][0] */\n      tag_265\n      jumpi\n      mstore(0x00, 0x4e487b7100000000000000000000000000000000000000000000000000000000)\n      mstore(0x04, 0x32)\n      revert(0x00, 0x24)\n    tag_265:\n      swap1\n      0x00\n      mstore\n      keccak256(0x00, 0x20)\n      swap1\n      0x20\n      swap2\n      dup3\n      dup3\n      div\n      add\n      swap2\n      swap1\n      mod\n        /* \"CoinIdo.sol\":5729:5751  lb[msg.sender][0]=true */\n      0x0100\n      exp\n      dup2\n      sload\n      dup2\n      0xff\n      mul\n      not\n      and\n      swap1\n      dup4\n      iszero\n      iszero\n      mul\n      or\n      swap1\n      sstore\n      pop\n        /* \"CoinIdo.sol\":5642:5763  if(day>=1 && !lb[msg.sender][0]){\r... */\n    tag_262:\n        /* \"CoinIdo.sol\":5773:5782  uint item */\n      0x00\n        /* \"CoinIdo.sol\":5793:5795  30 */\n      0x1e\n        /* \"CoinIdo.sol\":5786:5791  day-1 */\n      tag_267\n        /* \"CoinIdo.sol\":5790:5791  1 */\n      0x01\n        /* \"CoinIdo.sol\":5786:5789  day */\n      dup6\n        /* \"CoinIdo.sol\":5786:5791  day-1 */\n      tag_180\n      jump\t// in\n    tag_267:\n        /* \"CoinIdo.sol\":5785:5795  (day-1)/30 */\n      tag_268\n      swap2\n      swap1\n      tag_171\n      jump\t// in\n    tag_268:\n        /* \"CoinIdo.sol\":5773:5795  uint item = (day-1)/30 */\n      swap1\n      pop\n        /* \"CoinIdo.sol\":5816:5818  15 */\n      0x0f\n        /* \"CoinIdo.sol\":5811:5815  item */\n      dup2\n        /* \"CoinIdo.sol\":5811:5818  item>15 */\n      gt\n        /* \"CoinIdo.sol\":5811:5826  item>15?15:item */\n      tag_269\n      jumpi\n        /* \"CoinIdo.sol\":5822:5826  item */\n      dup1\n        /* \"CoinIdo.sol\":5811:5826  item>15?15:item */\n      jump(tag_270)\n    tag_269:\n        /* \"CoinIdo.sol\":5819:5821  15 */\n      0x0f\n        /* \"CoinIdo.sol\":5811:5826  item>15?15:item */\n    tag_270:\n        /* \"CoinIdo.sol\":5806:5826  item=item>15?15:item */\n      swap1\n      pop\n        /* \"CoinIdo.sol\":5856:5857  1 */\n      0x01\n        /* \"CoinIdo.sol\":5845:6030  for(uint i=1; i<=item; i++){\r... */\n    tag_271:\n        /* \"CoinIdo.sol\":5862:5866  item */\n      dup2\n        /* \"CoinIdo.sol\":5859:5860  i */\n      dup2\n        /* \"CoinIdo.sol\":5859:5866  i<=item */\n      gt\n        /* \"CoinIdo.sol\":5845:6030  for(uint i=1; i<=item; i++){\r... */\n      tag_272\n      jumpi\n        /* \"CoinIdo.sol\":5894:5904  msg.sender */\n      caller\n        /* \"CoinIdo.sol\":5891:5905  lb[msg.sender] */\n      0x00\n      swap1\n      dup2\n      mstore\n        /* \"CoinIdo.sol\":5891:5893  lb */\n      0x09\n        /* \"CoinIdo.sol\":5891:5905  lb[msg.sender] */\n      0x20\n      mstore\n      0x40\n      swap1\n      keccak256\n        /* \"CoinIdo.sol\":5891:5908  lb[msg.sender][i] */\n      dup1\n      sload\n        /* \"CoinIdo.sol\":5906:5907  i */\n      dup3\n      swap1\n        /* \"CoinIdo.sol\":5891:5908  lb[msg.sender][i] */\n      dup2\n      lt\n      tag_274\n      jumpi\n      mstore(0x00, 0x4e487b7100000000000000000000000000000000000000000000000000000000)\n      mstore(0x04, 0x32)\n      revert(0x00, 0x24)\n    tag_274:\n      swap1\n      0x00\n      mstore\n      keccak256(0x00, 0x20)\n      swap1\n      0x20\n      swap2\n      dup3\n      dup3\n      div\n      add\n      swap2\n      swap1\n      mod\n      swap1\n      sload\n      swap1\n      0x0100\n      exp\n      swap1\n      div\n      0xff\n      and\n        /* \"CoinIdo.sol\":5887:6019  if(!lb[msg.sender][i]){\r... */\n      tag_276\n      jumpi\n        /* \"CoinIdo.sol\":5956:5961  10000 */\n      0x2710\n        /* \"CoinIdo.sol\":5946:5955  allET*600 */\n      tag_277\n        /* \"CoinIdo.sol\":5946:5951  allET */\n      dup5\n        /* \"CoinIdo.sol\":5952:5955  600 */\n      0x0258\n        /* \"CoinIdo.sol\":5946:5955  allET*600 */\n      tag_153\n      jump\t// in\n    tag_277:\n        /* \"CoinIdo.sol\":5946:5961  allET*600/10000 */\n      tag_278\n      swap2\n      swap1\n      tag_171\n      jump\t// in\n    tag_278:\n        /* \"CoinIdo.sol\":5937:5961  amount + allET*600/10000 */\n      tag_279\n      swap1\n        /* \"CoinIdo.sol\":5937:5943  amount */\n      dup8\n        /* \"CoinIdo.sol\":5937:5961  amount + allET*600/10000 */\n      tag_157\n      jump\t// in\n    tag_279:\n        /* \"CoinIdo.sol\":5983:5993  msg.sender */\n      caller\n        /* \"CoinIdo.sol\":5980:5994  lb[msg.sender] */\n      0x00\n      swap1\n      dup2\n      mstore\n        /* \"CoinIdo.sol\":5980:5982  lb */\n      0x09\n        /* \"CoinIdo.sol\":5980:5994  lb[msg.sender] */\n      0x20\n      mstore\n      0x40\n      swap1\n      keccak256\n        /* \"CoinIdo.sol\":5980:5997  lb[msg.sender][i] */\n      dup1\n      sload\n        /* \"CoinIdo.sol\":5928:5961  amount = amount + allET*600/10000 */\n      swap2\n      swap8\n      pop\n        /* \"CoinIdo.sol\":5999:6003  true */\n      0x01\n      swap2\n        /* \"CoinIdo.sol\":5995:5996  i */\n      dup4\n      swap1\n        /* \"CoinIdo.sol\":5980:5997  lb[msg.sender][i] */\n      dup2\n      lt\n      tag_280\n      jumpi\n      mstore(0x00, 0x4e487b7100000000000000000000000000000000000000000000000000000000)\n      mstore(0x04, 0x32)\n      revert(0x00, 0x24)\n    tag_280:\n      swap1\n      0x00\n      mstore\n      keccak256(0x00, 0x20)\n      swap1\n      0x20\n      swap2\n      dup3\n      dup3\n      div\n      add\n      swap2\n      swap1\n      mod\n        /* \"CoinIdo.sol\":5980:6003  lb[msg.sender][i] =true */\n      0x0100\n      exp\n      dup2\n      sload\n      dup2\n      0xff\n      mul\n      not\n      and\n      swap1\n      dup4\n      iszero\n      iszero\n      mul\n      or\n      swap1\n      sstore\n      pop\n        /* \"CoinIdo.sol\":5887:6019  if(!lb[msg.sender][i]){\r... */\n    tag_276:\n        /* \"CoinIdo.sol\":5868:5871  i++ */\n      dup1\n      tag_282\n      dup2\n      tag_202\n      jump\t// in\n    tag_282:\n      swap2\n      pop\n      pop\n        /* \"CoinIdo.sol\":5845:6030  for(uint i=1; i<=item; i++){\r... */\n      jump(tag_271)\n    tag_272:\n      pop\n        /* \"CoinIdo.sol\":6080:6090  msg.sender */\n      caller\n        /* \"CoinIdo.sol\":6066:6091  awaitWithdraw[msg.sender] */\n      0x00\n      swap1\n      dup2\n      mstore\n        /* \"CoinIdo.sol\":6066:6079  awaitWithdraw */\n      0x0d\n        /* \"CoinIdo.sol\":6066:6091  awaitWithdraw[msg.sender] */\n      0x20\n      mstore\n      0x40\n      swap1\n      keccak256\n      sload\n        /* \"CoinIdo.sol\":6066:6098  awaitWithdraw[msg.sender]-amount */\n      tag_283\n      swap1\n        /* \"CoinIdo.sol\":6092:6098  amount */\n      dup7\n      swap1\n        /* \"CoinIdo.sol\":6066:6098  awaitWithdraw[msg.sender]-amount */\n      tag_180\n      jump\t// in\n    tag_283:\n        /* \"CoinIdo.sol\":6054:6064  msg.sender */\n      caller\n        /* \"CoinIdo.sol\":6040:6065  awaitWithdraw[msg.sender] */\n      0x00\n      dup2\n      dup2\n      mstore\n        /* \"CoinIdo.sol\":6040:6053  awaitWithdraw */\n      0x0d\n        /* \"CoinIdo.sol\":6040:6065  awaitWithdraw[msg.sender] */\n      0x20\n      mstore\n      0x40\n      swap1\n      dup2\n      swap1\n      keccak256\n        /* \"CoinIdo.sol\":6040:6098  awaitWithdraw[msg.sender]=awaitWithdraw[msg.sender]-amount */\n      swap3\n      swap1\n      swap3\n      sstore\n        /* \"CoinIdo.sol\":6109:6115  etCoin */\n      sload(0x08)\n        /* \"CoinIdo.sol\":6109:6144  etCoin.transfer(msg.sender, amount) */\n      swap2\n      mload\n      0xa9059cbb00000000000000000000000000000000000000000000000000000000\n      dup2\n      mstore\n      0x04\n      dup2\n      add\n        /* \"#utility.yul\":5403:5477   */\n      swap2\n      swap1\n      swap2\n      mstore\n        /* \"#utility.yul\":5493:5511   */\n      0x24\n      dup2\n      add\n        /* \"#utility.yul\":5486:5520   */\n      dup8\n      swap1\n      mstore\n        /* \"CoinIdo.sol\":6040:6065  awaitWithdraw[msg.sender] */\n      0xffffffffffffffffffffffffffffffffffffffff\n        /* \"CoinIdo.sol\":6109:6115  etCoin */\n      swap1\n      swap2\n      and\n      swap1\n        /* \"CoinIdo.sol\":6109:6124  etCoin.transfer */\n      0xa9059cbb\n      swap1\n        /* \"#utility.yul\":5376:5394   */\n      0x44\n      add\n        /* \"CoinIdo.sol\":6109:6144  etCoin.transfer(msg.sender, amount) */\n      0x20\n      mload(0x40)\n      dup1\n      dup4\n      sub\n      dup2\n      0x00\n      dup8\n      dup1\n      extcodesize\n      iszero\n      dup1\n      iszero\n      tag_285\n      jumpi\n      0x00\n      dup1\n      revert\n    tag_285:\n      pop\n      gas\n      call\n      iszero\n      dup1\n      iszero\n      tag_287\n      jumpi\n      returndatasize\n      0x00\n      dup1\n      returndatacopy\n      revert(0x00, returndatasize)\n    tag_287:\n      pop\n      pop\n      pop\n      pop\n      mload(0x40)\n      returndatasize\n      not(0x1f)\n      0x1f\n      dup3\n      add\n      and\n      dup3\n      add\n      dup1\n      0x40\n      mstore\n      pop\n      dup2\n      add\n      swap1\n      tag_288\n      swap2\n      swap1\n      tag_178\n      jump\t// in\n    tag_288:\n      pop\n        /* \"CoinIdo.sol\":6160:6204  Withdraw(msg.sender, amount,block.timestamp) */\n      0x40\n      dup1\n      mload\n        /* \"CoinIdo.sol\":6169:6179  msg.sender */\n      caller\n        /* \"#utility.yul\":5733:5807   */\n      dup2\n      mstore\n        /* \"#utility.yul\":5838:5840   */\n      0x20\n        /* \"#utility.yul\":5823:5841   */\n      dup2\n      add\n        /* \"#utility.yul\":5816:5850   */\n      dup8\n      swap1\n      mstore\n        /* \"CoinIdo.sol\":6188:6203  block.timestamp */\n      timestamp\n        /* \"#utility.yul\":5866:5884   */\n      dup2\n      dup4\n      add\n        /* \"#utility.yul\":5859:5893   */\n      mstore\n        /* \"CoinIdo.sol\":6160:6204  Withdraw(msg.sender, amount,block.timestamp) */\n      swap1\n      mload\n      0xf279e6a1f5e320cca91135676d9cb6e44ca8a08c0b88342bcdb1144f6511b568\n      swap2\n      dup2\n      swap1\n      sub\n        /* \"#utility.yul\":5721:5723   */\n      0x60\n        /* \"CoinIdo.sol\":6160:6204  Withdraw(msg.sender, amount,block.timestamp) */\n      add\n      swap1\n      log1\n        /* \"CoinIdo.sol\":5346:6212  function withdraw()public{\r... */\n      pop\n      pop\n      pop\n      pop\n      pop\n      jump\t// out\n        /* \"CoinIdo.sol\":2547:2634  function openOpenIdo(bool _flag) public onlyManager{\r... */\n    tag_72:\n        /* \"CoinIdo.sol\":1748:1758  msg.sender */\n      caller\n        /* \"CoinIdo.sol\":1738:1759  isManager[msg.sender] */\n      0x00\n      swap1\n      dup2\n      mstore\n        /* \"CoinIdo.sol\":1738:1747  isManager */\n      0x04\n        /* \"CoinIdo.sol\":1738:1759  isManager[msg.sender] */\n      0x20\n      mstore\n      0x40\n      swap1\n      keccak256\n      sload\n      0xff\n      and\n        /* \"CoinIdo.sol\":1730:1775  require(isManager[msg.sender], \"Not manager\") */\n      tag_292\n      jumpi\n      mload(0x40)\n      0x08c379a000000000000000000000000000000000000000000000000000000000\n      dup2\n      mstore\n        /* \"#utility.yul\":7946:7948   */\n      0x20\n        /* \"CoinIdo.sol\":1730:1775  require(isManager[msg.sender], \"Not manager\") */\n      0x04\n      dup3\n      add\n        /* \"#utility.yul\":7928:7949   */\n      mstore\n        /* \"#utility.yul\":7985:7987   */\n      0x0b\n        /* \"#utility.yul\":7965:7983   */\n      0x24\n      dup3\n      add\n        /* \"#utility.yul\":7958:7988   */\n      mstore\n        /* \"#utility.yul\":8024:8037   */\n      0x4e6f74206d616e61676572000000000000000000000000000000000000000000\n        /* \"#utility.yul\":8004:8022   */\n      0x44\n      dup3\n      add\n        /* \"#utility.yul\":7997:8038   */\n      mstore\n        /* \"#utility.yul\":8055:8073   */\n      0x64\n      add\n        /* \"CoinIdo.sol\":1730:1775  require(isManager[msg.sender], \"Not manager\") */\n      tag_147\n        /* \"#utility.yul\":7918:8079   */\n      jump\n        /* \"CoinIdo.sol\":1730:1775  require(isManager[msg.sender], \"Not manager\") */\n    tag_292:\n        /* \"CoinIdo.sol\":2609:2618  isOpenIdo */\n      0x0f\n        /* \"CoinIdo.sol\":2609:2626  isOpenIdo = _flag */\n      dup1\n      sload\n      0xffffffffffffffffffffffffffffffffffffffffffffffffffffffffffffff00\n      and\n      swap2\n      iszero\n      iszero\n      swap2\n      swap1\n      swap2\n      or\n      swap1\n      sstore\n        /* \"CoinIdo.sol\":2547:2634  function openOpenIdo(bool _flag) public onlyManager{\r... */\n      jump\t// out\n        /* \"CoinIdo.sol\":2365:2450  function openOpenOne(bool _flag) public onlyManager{\r... */\n    tag_80:\n        /* \"CoinIdo.sol\":1748:1758  msg.sender */\n      caller\n        /* \"CoinIdo.sol\":1738:1759  isManager[msg.sender] */\n      0x00\n      swap1\n      dup2\n      mstore\n        /* \"CoinIdo.sol\":1738:1747  isManager */\n      0x04\n        /* \"CoinIdo.sol\":1738:1759  isManager[msg.sender] */\n      0x20\n      mstore\n      0x40\n      swap1\n      keccak256\n      sload\n      0xff\n      and\n        /* \"CoinIdo.sol\":1730:1775  require(isManager[msg.sender], \"Not manager\") */\n      tag_297\n      jumpi\n      mload(0x40)\n      0x08c379a000000000000000000000000000000000000000000000000000000000\n      dup2\n      mstore\n        /* \"#utility.yul\":7946:7948   */\n      0x20\n        /* \"CoinIdo.sol\":1730:1775  require(isManager[msg.sender], \"Not manager\") */\n      0x04\n      dup3\n      add\n        /* \"#utility.yul\":7928:7949   */\n      mstore\n        /* \"#utility.yul\":7985:7987   */\n      0x0b\n        /* \"#utility.yul\":7965:7983   */\n      0x24\n      dup3\n      add\n        /* \"#utility.yul\":7958:7988   */\n      mstore\n        /* \"#utility.yul\":8024:8037   */\n      0x4e6f74206d616e61676572000000000000000000000000000000000000000000\n        /* \"#utility.yul\":8004:8022   */\n      0x44\n      dup3\n      add\n        /* \"#utility.yul\":7997:8038   */\n      mstore\n        /* \"#utility.yul\":8055:8073   */\n      0x64\n      add\n        /* \"CoinIdo.sol\":1730:1775  require(isManager[msg.sender], \"Not manager\") */\n      tag_147\n        /* \"#utility.yul\":7918:8079   */\n      jump\n        /* \"CoinIdo.sol\":1730:1775  require(isManager[msg.sender], \"Not manager\") */\n    tag_297:\n        /* \"CoinIdo.sol\":2427:2436  isOpenOne */\n      0x00\n        /* \"CoinIdo.sol\":2427:2442  isOpenOne=_flag */\n      dup1\n      sload\n      0xffffffffffffffffffffffffffffffffffffffffffffffffffffffffffffff00\n      and\n      swap2\n      iszero\n      iszero\n      swap2\n      swap1\n      swap2\n      or\n      swap1\n      sstore\n        /* \"CoinIdo.sol\":2365:2450  function openOpenOne(bool _flag) public onlyManager{\r... */\n      jump\t// out\n        /* \"CoinIdo.sol\":2691:2865  function setEndTime() public onlyOwner{\r... */\n    tag_82:\n        /* \"CoinIdo.sol\":1282:1289  address */\n      0x00\n        /* \"CoinIdo.sol\":1309:1315  _owner */\n      sload\n      0xffffffffffffffffffffffffffffffffffffffff\n      0x010000\n      swap1\n      swap2\n      div\n      and\n        /* \"CoinIdo.sol\":1380:1390  msg.sender */\n      caller\n        /* \"CoinIdo.sol\":1369:1390  owner() == msg.sender */\n      eq\n        /* \"CoinIdo.sol\":1361:1427  require(owner() == msg.sender, \"Ownable: caller is not the owner\") */\n      tag_302\n      jumpi\n      mload(0x40)\n      0x08c379a000000000000000000000000000000000000000000000000000000000\n      dup2\n      mstore\n        /* \"#utility.yul\":10398:10400   */\n      0x20\n        /* \"CoinIdo.sol\":1361:1427  require(owner() == msg.sender, \"Ownable: caller is not the owner\") */\n      0x04\n      dup3\n      add\n        /* \"#utility.yul\":10380:10401   */\n      dup2\n      swap1\n      mstore\n        /* \"#utility.yul\":10417:10435   */\n      0x24\n      dup3\n      add\n        /* \"#utility.yul\":10410:10440   */\n      mstore\n        /* \"#utility.yul\":10476:10510   */\n      0x4f776e61626c653a2063616c6c6572206973206e6f7420746865206f776e6572\n        /* \"#utility.yul\":10456:10474   */\n      0x44\n      dup3\n      add\n        /* \"#utility.yul\":10449:10511   */\n      mstore\n        /* \"#utility.yul\":10528:10546   */\n      0x64\n      add\n        /* \"CoinIdo.sol\":1361:1427  require(owner() == msg.sender, \"Ownable: caller is not the owner\") */\n      tag_147\n        /* \"#utility.yul\":10370:10552   */\n      jump\n        /* \"CoinIdo.sol\":1361:1427  require(owner() == msg.sender, \"Ownable: caller is not the owner\") */\n    tag_302:\n        /* \"CoinIdo.sol\":2748:2755  endTime */\n      sload(0x01)\n        /* \"CoinIdo.sol\":2748:2758  endTime==0 */\n      iszero\n        /* \"CoinIdo.sol\":2740:2775  require(endTime==0,\"time is exist\") */\n      tag_305\n      jumpi\n      mload(0x40)\n      0x08c379a000000000000000000000000000000000000000000000000000000000\n      dup2\n      mstore\n        /* \"#utility.yul\":9375:9377   */\n      0x20\n        /* \"CoinIdo.sol\":2740:2775  require(endTime==0,\"time is exist\") */\n      0x04\n      dup3\n      add\n        /* \"#utility.yul\":9357:9378   */\n      mstore\n        /* \"#utility.yul\":9414:9416   */\n      0x0d\n        /* \"#utility.yul\":9394:9412   */\n      0x24\n      dup3\n      add\n        /* \"#utility.yul\":9387:9417   */\n      mstore\n        /* \"#utility.yul\":9453:9468   */\n      0x74696d6520697320657869737400000000000000000000000000000000000000\n        /* \"#utility.yul\":9433:9451   */\n      0x44\n      dup3\n      add\n        /* \"#utility.yul\":9426:9469   */\n      mstore\n        /* \"#utility.yul\":9486:9504   */\n      0x64\n      add\n        /* \"CoinIdo.sol\":2740:2775  require(endTime==0,\"time is exist\") */\n      tag_147\n        /* \"#utility.yul\":9347:9510   */\n      jump\n        /* \"CoinIdo.sol\":2740:2775  require(endTime==0,\"time is exist\") */\n    tag_305:\n        /* \"CoinIdo.sol\":2796:2811  block.timestamp */\n      timestamp\n        /* \"CoinIdo.sol\":2786:2793  endTime */\n      0x01\n        /* \"CoinIdo.sol\":2786:2811  endTime = block.timestamp */\n      dup2\n      swap1\n      sstore\n        /* \"CoinIdo.sol\":2827:2857  SetEndTime(msg.sender,endTime) */\n      0x40\n      dup1\n      mload\n        /* \"CoinIdo.sol\":2838:2848  msg.sender */\n      caller\n        /* \"#utility.yul\":5403:5477   */\n      dup2\n      mstore\n        /* \"#utility.yul\":5508:5510   */\n      0x20\n        /* \"#utility.yul\":5493:5511   */\n      dup2\n      add\n        /* \"#utility.yul\":5486:5520   */\n      swap3\n      swap1\n      swap3\n      mstore\n        /* \"CoinIdo.sol\":2827:2857  SetEndTime(msg.sender,endTime) */\n      0x4100552e0c7d7733b482a8b5b352d5cf64221041a5cb5ad4f57474178741b69a\n      swap2\n        /* \"#utility.yul\":5376:5394   */\n      add\n        /* \"CoinIdo.sol\":2827:2857  SetEndTime(msg.sender,endTime) */\n      mload(0x40)\n      dup1\n      swap2\n      sub\n      swap1\n      log1\n        /* \"CoinIdo.sol\":2691:2865  function setEndTime() public onlyOwner{\r... */\n      jump\t// out\n        /* \"CoinIdo.sol\":5005:5277  function allowET(address _address)public{\r... */\n    tag_95:\n        /* \"CoinIdo.sol\":5059:5071  lb[_address] */\n      0xffffffffffffffffffffffffffffffffffffffff\n      dup2\n      and\n      0x00\n      swap1\n      dup2\n      mstore\n        /* \"CoinIdo.sol\":5059:5061  lb */\n      0x09\n        /* \"CoinIdo.sol\":5059:5071  lb[_address] */\n      0x20\n      mstore\n      0x40\n      swap1\n      keccak256\n        /* \"CoinIdo.sol\":5059:5078  lb[_address].length */\n      sload\n        /* \"CoinIdo.sol\":5056:5270  if(lb[_address].length==0){\r... */\n      tag_311\n      jumpi\n        /* \"CoinIdo.sol\":5117:5131  new bool[](16) */\n      0x40\n      dup1\n      mload\n        /* \"CoinIdo.sol\":5128:5130  16 */\n      0x10\n        /* \"CoinIdo.sol\":5117:5131  new bool[](16) */\n      dup1\n      dup3\n      mstore\n      0x0220\n      dup3\n      add\n      swap1\n      swap3\n      mstore\n        /* \"CoinIdo.sol\":5097:5114  bool[]memory islb */\n      0x00\n      swap2\n        /* \"CoinIdo.sol\":5117:5131  new bool[](16) */\n      0x20\n      dup3\n      add\n      0x0200\n      dup1\n      calldatasize\n      dup4\n      calldatacopy\n      add\n      swap1\n      pop\n      pop\n        /* \"CoinIdo.sol\":5097:5131  bool[]memory islb = new bool[](16) */\n      swap1\n      pop\n        /* \"CoinIdo.sol\":5150:5156  uint i */\n      0x00\n        /* \"CoinIdo.sol\":5146:5227  for(uint i=0; i<islb.length; i++){\r... */\n    tag_314:\n        /* \"CoinIdo.sol\":5162:5166  islb */\n      dup2\n        /* \"CoinIdo.sol\":5162:5173  islb.length */\n      mload\n        /* \"CoinIdo.sol\":5160:5161  i */\n      dup2\n        /* \"CoinIdo.sol\":5160:5173  i<islb.length */\n      lt\n        /* \"CoinIdo.sol\":5146:5227  for(uint i=0; i<islb.length; i++){\r... */\n      iszero\n      tag_315\n      jumpi\n        /* \"CoinIdo.sol\":5206:5211  false */\n      0x00\n        /* \"CoinIdo.sol\":5198:5202  islb */\n      dup3\n        /* \"CoinIdo.sol\":5203:5204  i */\n      dup3\n        /* \"CoinIdo.sol\":5198:5205  islb[i] */\n      dup2\n      mload\n      dup2\n      lt\n      tag_317\n      jumpi\n      mstore(0x00, 0x4e487b7100000000000000000000000000000000000000000000000000000000)\n      mstore(0x04, 0x32)\n      revert(0x00, 0x24)\n    tag_317:\n        /* \"CoinIdo.sol\":5198:5211  islb[i]=false */\n      swap2\n      iszero\n      iszero\n        /* \"CoinIdo.sol\":5198:5205  islb[i] */\n      0x20\n      swap3\n      dup4\n      mul\n      swap2\n      swap1\n      swap2\n      add\n      swap1\n      swap2\n      add\n        /* \"CoinIdo.sol\":5198:5211  islb[i]=false */\n      mstore\n        /* \"CoinIdo.sol\":5175:5178  i++ */\n      dup1\n      tag_318\n      dup2\n      tag_202\n      jump\t// in\n    tag_318:\n      swap2\n      pop\n      pop\n        /* \"CoinIdo.sol\":5146:5227  for(uint i=0; i<islb.length; i++){\r... */\n      jump(tag_314)\n    tag_315:\n      pop\n        /* \"CoinIdo.sol\":5241:5253  lb[_address] */\n      0xffffffffffffffffffffffffffffffffffffffff\n      dup3\n      and\n      0x00\n      swap1\n      dup2\n      mstore\n        /* \"CoinIdo.sol\":5241:5243  lb */\n      0x09\n        /* \"CoinIdo.sol\":5241:5253  lb[_address] */\n      0x20\n      swap1\n      dup2\n      mstore\n      0x40\n      swap1\n      swap2\n      keccak256\n        /* \"CoinIdo.sol\":5241:5258  lb[_address]=islb */\n      dup3\n      mload\n      tag_319\n      swap3\n      dup5\n      add\n      swap1\n      tag_320\n      jump\t// in\n    tag_319:\n      pop\n        /* \"CoinIdo.sol\":5056:5270  if(lb[_address].length==0){\r... */\n      pop\n    tag_311:\n        /* \"CoinIdo.sol\":5005:5277  function allowET(address _address)public{\r... */\n      pop\n      jump\t// out\n        /* \"CoinIdo.sol\":2260:2359  function setETCoin(address _address) public onlyManager{\r... */\n    tag_98:\n        /* \"CoinIdo.sol\":1748:1758  msg.sender */\n      caller\n        /* \"CoinIdo.sol\":1738:1759  isManager[msg.sender] */\n      0x00\n      swap1\n      dup2\n      mstore\n        /* \"CoinIdo.sol\":1738:1747  isManager */\n      0x04\n        /* \"CoinIdo.sol\":1738:1759  isManager[msg.sender] */\n      0x20\n      mstore\n      0x40\n      swap1\n      keccak256\n      sload\n      0xff\n      and\n        /* \"CoinIdo.sol\":1730:1775  require(isManager[msg.sender], \"Not manager\") */\n      tag_322\n      jumpi\n      mload(0x40)\n      0x08c379a000000000000000000000000000000000000000000000000000000000\n      dup2\n      mstore\n        /* \"#utility.yul\":7946:7948   */\n      0x20\n        /* \"CoinIdo.sol\":1730:1775  require(isManager[msg.sender], \"Not manager\") */\n      0x04\n      dup3\n      add\n        /* \"#utility.yul\":7928:7949   */\n      mstore\n        /* \"#utility.yul\":7985:7987   */\n      0x0b\n        /* \"#utility.yul\":7965:7983   */\n      0x24\n      dup3\n      add\n        /* \"#utility.yul\":7958:7988   */\n      mstore\n        /* \"#utility.yul\":8024:8037   */\n      0x4e6f74206d616e61676572000000000000000000000000000000000000000000\n        /* \"#utility.yul\":8004:8022   */\n      0x44\n      dup3\n      add\n        /* \"#utility.yul\":7997:8038   */\n      mstore\n        /* \"#utility.yul\":8055:8073   */\n      0x64\n      add\n        /* \"CoinIdo.sol\":1730:1775  require(isManager[msg.sender], \"Not manager\") */\n      tag_147\n        /* \"#utility.yul\":7918:8079   */\n      jump\n        /* \"CoinIdo.sol\":1730:1775  require(isManager[msg.sender], \"Not manager\") */\n    tag_322:\n        /* \"CoinIdo.sol\":2326:2332  etCoin */\n      0x08\n        /* \"CoinIdo.sol\":2326:2351  etCoin = IERC20(_address) */\n      dup1\n      sload\n      0xffffffffffffffffffffffff0000000000000000000000000000000000000000\n      and\n      0xffffffffffffffffffffffffffffffffffffffff\n      swap3\n      swap1\n      swap3\n      and\n      swap2\n      swap1\n      swap2\n      or\n      swap1\n      sstore\n        /* \"CoinIdo.sol\":2260:2359  function setETCoin(address _address) public onlyManager{\r... */\n      jump\t// out\n        /* \"CoinIdo.sol\":1522:1690  function setManager(address _manager, bool _flag) public onlyOwner {\r... */\n    tag_106:\n        /* \"CoinIdo.sol\":1282:1289  address */\n      0x00\n        /* \"CoinIdo.sol\":1309:1315  _owner */\n      sload\n      0xffffffffffffffffffffffffffffffffffffffff\n      0x010000\n      swap1\n      swap2\n      div\n      and\n        /* \"CoinIdo.sol\":1380:1390  msg.sender */\n      caller\n        /* \"CoinIdo.sol\":1369:1390  owner() == msg.sender */\n      eq\n        /* \"CoinIdo.sol\":1361:1427  require(owner() == msg.sender, \"Ownable: caller is not the owner\") */\n      tag_327\n      jumpi\n      mload(0x40)\n      0x08c379a000000000000000000000000000000000000000000000000000000000\n      dup2\n      mstore\n        /* \"#utility.yul\":10398:10400   */\n      0x20\n        /* \"CoinIdo.sol\":1361:1427  require(owner() == msg.sender, \"Ownable: caller is not the owner\") */\n      0x04\n      dup3\n      add\n        /* \"#utility.yul\":10380:10401   */\n      dup2\n      swap1\n      mstore\n        /* \"#utility.yul\":10417:10435   */\n      0x24\n      dup3\n      add\n        /* \"#utility.yul\":10410:10440   */\n      mstore\n        /* \"#utility.yul\":10476:10510   */\n      0x4f776e61626c653a2063616c6c6572206973206e6f7420746865206f776e6572\n        /* \"#utility.yul\":10456:10474   */\n      0x44\n      dup3\n      add\n        /* \"#utility.yul\":10449:10511   */\n      mstore\n        /* \"#utility.yul\":10528:10546   */\n      0x64\n      add\n        /* \"CoinIdo.sol\":1361:1427  require(owner() == msg.sender, \"Ownable: caller is not the owner\") */\n      tag_147\n        /* \"#utility.yul\":10370:10552   */\n      jump\n        /* \"CoinIdo.sol\":1361:1427  require(owner() == msg.sender, \"Ownable: caller is not the owner\") */\n    tag_327:\n        /* \"CoinIdo.sol\":1600:1619  isManager[_manager] */\n      0xffffffffffffffffffffffffffffffffffffffff\n      dup3\n      and\n      0x00\n      dup2\n      dup2\n      mstore\n        /* \"CoinIdo.sol\":1600:1609  isManager */\n      0x04\n        /* \"CoinIdo.sol\":1600:1619  isManager[_manager] */\n      0x20\n      swap1\n      dup2\n      mstore\n      0x40\n      swap2\n      dup3\n      swap1\n      keccak256\n        /* \"CoinIdo.sol\":1600:1627  isManager[_manager] = _flag */\n      dup1\n      sload\n      0xffffffffffffffffffffffffffffffffffffffffffffffffffffffffffffff00\n      and\n      dup6\n      iszero\n      iszero\n      swap1\n      dup2\n      or\n      swap1\n      swap2\n      sstore\n        /* \"CoinIdo.sol\":1643:1682  SetManager(msg.sender, _manager, _flag) */\n      dup3\n      mload\n        /* \"CoinIdo.sol\":1654:1664  msg.sender */\n      caller\n        /* \"#utility.yul\":4670:4704   */\n      dup2\n      mstore\n        /* \"#utility.yul\":4720:4738   */\n      swap2\n      dup3\n      add\n        /* \"#utility.yul\":4713:4756   */\n      swap4\n      swap1\n      swap4\n      mstore\n        /* \"#utility.yul\":4772:4790   */\n      swap1\n      dup2\n      add\n        /* \"#utility.yul\":4765:4815   */\n      swap2\n      swap1\n      swap2\n      mstore\n        /* \"CoinIdo.sol\":1643:1682  SetManager(msg.sender, _manager, _flag) */\n      0x2862b022f51ffee932517d924c5103b3267a9d5d1f21bec54356e328aac24c18\n      swap1\n        /* \"#utility.yul\":4597:4599   */\n      0x60\n        /* \"#utility.yul\":4582:4600   */\n      add\n        /* \"CoinIdo.sol\":1643:1682  SetManager(msg.sender, _manager, _flag) */\n      tag_246\n        /* \"#utility.yul\":4564:4821   */\n      jump\n        /* \"CoinIdo.sol\":2456:2541  function openOpenTwo(bool _flag) public onlyManager{\r... */\n    tag_112:\n        /* \"CoinIdo.sol\":1748:1758  msg.sender */\n      caller\n        /* \"CoinIdo.sol\":1738:1759  isManager[msg.sender] */\n      0x00\n      swap1\n      dup2\n      mstore\n        /* \"CoinIdo.sol\":1738:1747  isManager */\n      0x04\n        /* \"CoinIdo.sol\":1738:1759  isManager[msg.sender] */\n      0x20\n      mstore\n      0x40\n      swap1\n      keccak256\n      sload\n      0xff\n      and\n        /* \"CoinIdo.sol\":1730:1775  require(isManager[msg.sender], \"Not manager\") */\n      tag_333\n      jumpi\n      mload(0x40)\n      0x08c379a000000000000000000000000000000000000000000000000000000000\n      dup2\n      mstore\n        /* \"#utility.yul\":7946:7948   */\n      0x20\n        /* \"CoinIdo.sol\":1730:1775  require(isManager[msg.sender], \"Not manager\") */\n      0x04\n      dup3\n      add\n        /* \"#utility.yul\":7928:7949   */\n      mstore\n        /* \"#utility.yul\":7985:7987   */\n      0x0b\n        /* \"#utility.yul\":7965:7983   */\n      0x24\n      dup3\n      add\n        /* \"#utility.yul\":7958:7988   */\n      mstore\n        /* \"#utility.yul\":8024:8037   */\n      0x4e6f74206d616e61676572000000000000000000000000000000000000000000\n        /* \"#utility.yul\":8004:8022   */\n      0x44\n      dup3\n      add\n        /* \"#utility.yul\":7997:8038   */\n      mstore\n        /* \"#utility.yul\":8055:8073   */\n      0x64\n      add\n        /* \"CoinIdo.sol\":1730:1775  require(isManager[msg.sender], \"Not manager\") */\n      tag_147\n        /* \"#utility.yul\":7918:8079   */\n      jump\n        /* \"CoinIdo.sol\":1730:1775  require(isManager[msg.sender], \"Not manager\") */\n    tag_333:\n        /* \"CoinIdo.sol\":2518:2527  isOpenTwo */\n      0x00\n        /* \"CoinIdo.sol\":2518:2533  isOpenTwo=_flag */\n      dup1\n      sload\n      swap2\n      iszero\n      iszero\n      0x0100\n      mul\n      0xffffffffffffffffffffffffffffffffffffffffffffffffffffffffffff00ff\n      swap1\n      swap3\n      and\n      swap2\n      swap1\n      swap2\n      or\n      swap1\n      sstore\n        /* \"CoinIdo.sol\":2456:2541  function openOpenTwo(bool _flag) public onlyManager{\r... */\n      jump\t// out\n        /* \"CoinIdo.sol\":628:662  mapping(address=>bool[]) public lb */\n    tag_119:\n      mstore(0x20, 0x09)\n      dup2\n      0x00\n      mstore\n      keccak256(0x00, 0x40)\n      dup2\n      dup2\n      sload\n      dup2\n      lt\n      tag_336\n      jumpi\n      0x00\n      dup1\n      revert\n    tag_336:\n      swap1\n      0x00\n      mstore\n      keccak256(0x00, 0x20)\n      swap1\n      0x20\n      swap2\n      dup3\n      dup3\n      div\n      add\n      swap2\n      swap1\n      mod\n      swap2\n      pop\n      swap2\n      pop\n      swap1\n      sload\n      swap1\n      0x0100\n      exp\n      swap1\n      div\n      0xff\n      and\n      dup2\n      jump\t// out\n        /* \"CoinIdo.sol\":6224:6876  function getWithDraw()public view returns(uint){\r... */\n    tag_126:\n        /* \"CoinIdo.sol\":6293:6303  msg.sender */\n      caller\n        /* \"CoinIdo.sol\":6266:6270  uint */\n      0x00\n        /* \"CoinIdo.sol\":6285:6304  userIDO[msg.sender] */\n      swap1\n      dup2\n      mstore\n        /* \"CoinIdo.sol\":6285:6292  userIDO */\n      0x0b\n        /* \"CoinIdo.sol\":6285:6304  userIDO[msg.sender] */\n      0x20\n      mstore\n      0x40\n      dup2\n      keccak256\n      sload\n        /* \"CoinIdo.sol\":6282:6319  if(userIDO[msg.sender]<=0){return 0;} */\n      tag_339\n      jumpi\n      pop\n        /* \"CoinIdo.sol\":6316:6317  0 */\n      0x00\n      swap1\n        /* \"CoinIdo.sol\":6224:6876  function getWithDraw()public view returns(uint){\r... */\n      jump\t// out\n        /* \"CoinIdo.sol\":6282:6319  if(userIDO[msg.sender]<=0){return 0;} */\n    tag_339:\n        /* \"CoinIdo.sol\":6345:6346  0 */\n      0x00\n        /* \"CoinIdo.sol\":6337:6344  endTime */\n      sload(0x01)\n        /* \"CoinIdo.sol\":6337:6346  endTime>0 */\n      gt\n        /* \"CoinIdo.sol\":6329:6356  require(endTime>0,\"not ET\") */\n      tag_340\n      jumpi\n      mload(0x40)\n      0x08c379a000000000000000000000000000000000000000000000000000000000\n      dup2\n      mstore\n        /* \"#utility.yul\":8693:8695   */\n      0x20\n        /* \"CoinIdo.sol\":6329:6356  require(endTime>0,\"not ET\") */\n      0x04\n      dup3\n      add\n        /* \"#utility.yul\":8675:8696   */\n      mstore\n        /* \"#utility.yul\":8732:8733   */\n      0x06\n        /* \"#utility.yul\":8712:8730   */\n      0x24\n      dup3\n      add\n        /* \"#utility.yul\":8705:8734   */\n      mstore\n        /* \"#utility.yul\":8770:8778   */\n      0x6e6f742045540000000000000000000000000000000000000000000000000000\n        /* \"#utility.yul\":8750:8768   */\n      0x44\n      dup3\n      add\n        /* \"#utility.yul\":8743:8779   */\n      mstore\n        /* \"#utility.yul\":8796:8814   */\n      0x64\n      add\n        /* \"CoinIdo.sol\":6329:6356  require(endTime>0,\"not ET\") */\n      tag_147\n        /* \"#utility.yul\":8665:8820   */\n      jump\n        /* \"CoinIdo.sol\":6329:6356  require(endTime>0,\"not ET\") */\n    tag_340:\n        /* \"CoinIdo.sol\":6367:6378  uint amount */\n      0x00\n        /* \"CoinIdo.sol\":6389:6406  uint intervalTime */\n      dup1\n        /* \"CoinIdo.sol\":6426:6433  endTime */\n      sload(0x01)\n        /* \"CoinIdo.sol\":6409:6424  block.timestamp */\n      timestamp\n        /* \"CoinIdo.sol\":6409:6433  block.timestamp -endTime */\n      tag_342\n      swap2\n      swap1\n      tag_180\n      jump\t// in\n    tag_342:\n        /* \"CoinIdo.sol\":6389:6433  uint intervalTime = block.timestamp -endTime */\n      swap1\n      pop\n        /* \"CoinIdo.sol\":6444:6452  uint day */\n      0x00\n        /* \"CoinIdo.sol\":6455:6473  intervalTime/86400 */\n      tag_343\n        /* \"CoinIdo.sol\":6468:6473  86400 */\n      0x015180\n        /* \"CoinIdo.sol\":6389:6433  uint intervalTime = block.timestamp -endTime */\n      dup4\n        /* \"CoinIdo.sol\":6455:6473  intervalTime/86400 */\n      tag_171\n      jump\t// in\n    tag_343:\n        /* \"CoinIdo.sol\":6505:6515  msg.sender */\n      caller\n        /* \"CoinIdo.sol\":6484:6494  uint allET */\n      0x00\n        /* \"CoinIdo.sol\":6497:6516  userIDO[msg.sender] */\n      swap1\n      dup2\n      mstore\n        /* \"CoinIdo.sol\":6497:6504  userIDO */\n      0x0b\n        /* \"CoinIdo.sol\":6497:6516  userIDO[msg.sender] */\n      0x20\n      mstore\n      0x40\n      dup2\n      keccak256\n      sload\n        /* \"CoinIdo.sol\":6444:6473  uint day = intervalTime/86400 */\n      swap2\n      swap3\n      pop\n        /* \"CoinIdo.sol\":6484:6494  uint allET */\n      swap1\n        /* \"CoinIdo.sol\":6522:6525  120 */\n      0x78\n      swap1\n        /* \"CoinIdo.sol\":6497:6521  userIDO[msg.sender]*2600 */\n      tag_344\n      swap1\n        /* \"CoinIdo.sol\":6517:6521  2600 */\n      0x0a28\n        /* \"CoinIdo.sol\":6497:6521  userIDO[msg.sender]*2600 */\n      tag_153\n      jump\t// in\n    tag_344:\n        /* \"CoinIdo.sol\":6497:6525  userIDO[msg.sender]*2600/120 */\n      tag_345\n      swap2\n      swap1\n      tag_171\n      jump\t// in\n    tag_345:\n        /* \"CoinIdo.sol\":6484:6525  uint allET = userIDO[msg.sender]*2600/120 */\n      swap1\n      pop\n        /* \"CoinIdo.sol\":6544:6545  1 */\n      0x01\n        /* \"CoinIdo.sol\":6539:6542  day */\n      dup3\n        /* \"CoinIdo.sol\":6539:6545  day>=1 */\n      lt\n      iszero\n        /* \"CoinIdo.sol\":6539:6567  day>=1 && !lb[msg.sender][0] */\n      dup1\n      iszero\n      tag_346\n      jumpi\n      pop\n        /* \"CoinIdo.sol\":6553:6563  msg.sender */\n      caller\n        /* \"CoinIdo.sol\":6550:6564  lb[msg.sender] */\n      0x00\n      swap1\n      dup2\n      mstore\n        /* \"CoinIdo.sol\":6550:6552  lb */\n      0x09\n        /* \"CoinIdo.sol\":6550:6564  lb[msg.sender] */\n      0x20\n      mstore\n      0x40\n      dup2\n      keccak256\n        /* \"CoinIdo.sol\":6550:6567  lb[msg.sender][0] */\n      dup1\n      sload\n        /* \"CoinIdo.sol\":6550:6564  lb[msg.sender] */\n      swap1\n      swap2\n      swap1\n        /* \"CoinIdo.sol\":6550:6567  lb[msg.sender][0] */\n      tag_347\n      jumpi\n      mstore(0x00, 0x4e487b7100000000000000000000000000000000000000000000000000000000)\n      mstore(0x04, 0x32)\n      revert(0x00, 0x24)\n    tag_347:\n      swap1\n      0x00\n      mstore\n      keccak256(0x00, 0x20)\n      swap1\n      0x20\n      swap2\n      dup3\n      dup3\n      div\n      add\n      swap2\n      swap1\n      mod\n      swap1\n      sload\n      swap1\n      0x0100\n      exp\n      swap1\n      div\n      0xff\n      and\n        /* \"CoinIdo.sol\":6549:6567  !lb[msg.sender][0] */\n      iszero\n        /* \"CoinIdo.sol\":6539:6567  day>=1 && !lb[msg.sender][0] */\n    tag_346:\n        /* \"CoinIdo.sol\":6536:6620  if(day>=1 && !lb[msg.sender][0]){\r... */\n      iszero\n      tag_349\n      jumpi\n        /* \"CoinIdo.sol\":6603:6608  10000 */\n      0x2710\n        /* \"CoinIdo.sol\":6592:6602  allET*1000 */\n      tag_350\n        /* \"CoinIdo.sol\":6592:6597  allET */\n      dup3\n        /* \"CoinIdo.sol\":6598:6602  1000 */\n      0x03e8\n        /* \"CoinIdo.sol\":6592:6602  allET*1000 */\n      tag_153\n      jump\t// in\n    tag_350:\n        /* \"CoinIdo.sol\":6592:6608  allET*1000/10000 */\n      tag_351\n      swap2\n      swap1\n      tag_171\n      jump\t// in\n    tag_351:\n        /* \"CoinIdo.sol\":6583:6608  amount = allET*1000/10000 */\n      swap4\n      pop\n        /* \"CoinIdo.sol\":6536:6620  if(day>=1 && !lb[msg.sender][0]){\r... */\n    tag_349:\n        /* \"CoinIdo.sol\":6630:6639  uint item */\n      0x00\n        /* \"CoinIdo.sol\":6650:6652  30 */\n      0x1e\n        /* \"CoinIdo.sol\":6643:6648  day-1 */\n      tag_352\n        /* \"CoinIdo.sol\":6647:6648  1 */\n      0x01\n        /* \"CoinIdo.sol\":6643:6646  day */\n      dup6\n        /* \"CoinIdo.sol\":6643:6648  day-1 */\n      tag_180\n      jump\t// in\n    tag_352:\n        /* \"CoinIdo.sol\":6642:6652  (day-1)/30 */\n      tag_353\n      swap2\n      swap1\n      tag_171\n      jump\t// in\n    tag_353:\n        /* \"CoinIdo.sol\":6630:6652  uint item = (day-1)/30 */\n      swap1\n      pop\n        /* \"CoinIdo.sol\":6673:6675  15 */\n      0x0f\n        /* \"CoinIdo.sol\":6668:6672  item */\n      dup2\n        /* \"CoinIdo.sol\":6668:6675  item>15 */\n      gt\n        /* \"CoinIdo.sol\":6668:6683  item>15?15:item */\n      tag_354\n      jumpi\n        /* \"CoinIdo.sol\":6679:6683  item */\n      dup1\n        /* \"CoinIdo.sol\":6668:6683  item>15?15:item */\n      jump(tag_355)\n    tag_354:\n        /* \"CoinIdo.sol\":6676:6678  15 */\n      0x0f\n        /* \"CoinIdo.sol\":6668:6683  item>15?15:item */\n    tag_355:\n        /* \"CoinIdo.sol\":6663:6683  item=item>15?15:item */\n      swap1\n      pop\n        /* \"CoinIdo.sol\":6713:6714  1 */\n      0x01\n        /* \"CoinIdo.sol\":6702:6845  for(uint i=1; i<=item; i++){\r... */\n    tag_356:\n        /* \"CoinIdo.sol\":6719:6723  item */\n      dup2\n        /* \"CoinIdo.sol\":6716:6717  i */\n      dup2\n        /* \"CoinIdo.sol\":6716:6723  i<=item */\n      gt\n        /* \"CoinIdo.sol\":6702:6845  for(uint i=1; i<=item; i++){\r... */\n      tag_357\n      jumpi\n        /* \"CoinIdo.sol\":6751:6761  msg.sender */\n      caller\n        /* \"CoinIdo.sol\":6748:6762  lb[msg.sender] */\n      0x00\n      swap1\n      dup2\n      mstore\n        /* \"CoinIdo.sol\":6748:6750  lb */\n      0x09\n        /* \"CoinIdo.sol\":6748:6762  lb[msg.sender] */\n      0x20\n      mstore\n      0x40\n      swap1\n      keccak256\n        /* \"CoinIdo.sol\":6748:6765  lb[msg.sender][i] */\n      dup1\n      sload\n        /* \"CoinIdo.sol\":6763:6764  i */\n      dup3\n      swap1\n        /* \"CoinIdo.sol\":6748:6765  lb[msg.sender][i] */\n      dup2\n      lt\n      tag_359\n      jumpi\n      mstore(0x00, 0x4e487b7100000000000000000000000000000000000000000000000000000000)\n      mstore(0x04, 0x32)\n      revert(0x00, 0x24)\n    tag_359:\n      swap1\n      0x00\n      mstore\n      keccak256(0x00, 0x20)\n      swap1\n      0x20\n      swap2\n      dup3\n      dup3\n      div\n      add\n      swap2\n      swap1\n      mod\n      swap1\n      sload\n      swap1\n      0x0100\n      exp\n      swap1\n      div\n      0xff\n      and\n        /* \"CoinIdo.sol\":6744:6834  if(!lb[msg.sender][i]){\r... */\n      tag_361\n      jumpi\n        /* \"CoinIdo.sol\":6813:6818  10000 */\n      0x2710\n        /* \"CoinIdo.sol\":6803:6812  allET*600 */\n      tag_362\n        /* \"CoinIdo.sol\":6803:6808  allET */\n      dup5\n        /* \"CoinIdo.sol\":6809:6812  600 */\n      0x0258\n        /* \"CoinIdo.sol\":6803:6812  allET*600 */\n      tag_153\n      jump\t// in\n    tag_362:\n        /* \"CoinIdo.sol\":6803:6818  allET*600/10000 */\n      tag_363\n      swap2\n      swap1\n      tag_171\n      jump\t// in\n    tag_363:\n        /* \"CoinIdo.sol\":6794:6818  amount + allET*600/10000 */\n      tag_364\n      swap1\n        /* \"CoinIdo.sol\":6794:6800  amount */\n      dup8\n        /* \"CoinIdo.sol\":6794:6818  amount + allET*600/10000 */\n      tag_157\n      jump\t// in\n    tag_364:\n        /* \"CoinIdo.sol\":6785:6818  amount = amount + allET*600/10000 */\n      swap6\n      pop\n        /* \"CoinIdo.sol\":6744:6834  if(!lb[msg.sender][i]){\r... */\n    tag_361:\n        /* \"CoinIdo.sol\":6725:6728  i++ */\n      dup1\n      tag_365\n      dup2\n      tag_202\n      jump\t// in\n    tag_365:\n      swap2\n      pop\n      pop\n        /* \"CoinIdo.sol\":6702:6845  for(uint i=1; i<=item; i++){\r... */\n      jump(tag_356)\n    tag_357:\n      pop\n        /* \"CoinIdo.sol\":6862:6868  amount */\n      swap4\n      swap6\n        /* \"CoinIdo.sol\":6224:6876  function getWithDraw()public view returns(uint){\r... */\n      swap5\n      pop\n      pop\n      pop\n      pop\n      pop\n      jump\t// out\n        /* \"CoinIdo.sol\":1875:2149  function transferOwnership(address newOwner) public onlyOwner {\r... */\n    tag_134:\n        /* \"CoinIdo.sol\":1282:1289  address */\n      0x00\n        /* \"CoinIdo.sol\":1309:1315  _owner */\n      sload\n      0xffffffffffffffffffffffffffffffffffffffff\n      0x010000\n      swap1\n      swap2\n      div\n      and\n        /* \"CoinIdo.sol\":1380:1390  msg.sender */\n      caller\n        /* \"CoinIdo.sol\":1369:1390  owner() == msg.sender */\n      eq\n        /* \"CoinIdo.sol\":1361:1427  require(owner() == msg.sender, \"Ownable: caller is not the owner\") */\n      tag_368\n      jumpi\n      mload(0x40)\n      0x08c379a000000000000000000000000000000000000000000000000000000000\n      dup2\n      mstore\n        /* \"#utility.yul\":10398:10400   */\n      0x20\n        /* \"CoinIdo.sol\":1361:1427  require(owner() == msg.sender, \"Ownable: caller is not the owner\") */\n      0x04\n      dup3\n      add\n        /* \"#utility.yul\":10380:10401   */\n      dup2\n      swap1\n      mstore\n        /* \"#utility.yul\":10417:10435   */\n      0x24\n      dup3\n      add\n        /* \"#utility.yul\":10410:10440   */\n      mstore\n        /* \"#utility.yul\":10476:10510   */\n      0x4f776e61626c653a2063616c6c6572206973206e6f7420746865206f776e6572\n        /* \"#utility.yul\":10456:10474   */\n      0x44\n      dup3\n      add\n        /* \"#utility.yul\":10449:10511   */\n      mstore\n        /* \"#utility.yul\":10528:10546   */\n      0x64\n      add\n        /* \"CoinIdo.sol\":1361:1427  require(owner() == msg.sender, \"Ownable: caller is not the owner\") */\n      tag_147\n        /* \"#utility.yul\":10370:10552   */\n      jump\n        /* \"CoinIdo.sol\":1361:1427  require(owner() == msg.sender, \"Ownable: caller is not the owner\") */\n    tag_368:\n        /* \"CoinIdo.sol\":1956:1978  newOwner != address(0) */\n      0xffffffffffffffffffffffffffffffffffffffff\n      dup2\n      and\n        /* \"CoinIdo.sol\":1948:2021  require(newOwner != address(0), \"Ownable: new owner is the zero address\") */\n      tag_371\n      jumpi\n      mload(0x40)\n      0x08c379a000000000000000000000000000000000000000000000000000000000\n      dup2\n      mstore\n        /* \"#utility.yul\":8286:8288   */\n      0x20\n        /* \"CoinIdo.sol\":1948:2021  require(newOwner != address(0), \"Ownable: new owner is the zero address\") */\n      0x04\n      dup3\n      add\n        /* \"#utility.yul\":8268:8289   */\n      mstore\n        /* \"#utility.yul\":8325:8327   */\n      0x26\n        /* \"#utility.yul\":8305:8323   */\n      0x24\n      dup3\n      add\n        /* \"#utility.yul\":8298:8328   */\n      mstore\n        /* \"#utility.yul\":8364:8398   */\n      0x4f776e61626c653a206e6577206f776e657220697320746865207a65726f2061\n        /* \"#utility.yul\":8344:8362   */\n      0x44\n      dup3\n      add\n        /* \"#utility.yul\":8337:8399   */\n      mstore\n        /* \"#utility.yul\":8435:8443   */\n      0x6464726573730000000000000000000000000000000000000000000000000000\n        /* \"#utility.yul\":8415:8433   */\n      0x64\n      dup3\n      add\n        /* \"#utility.yul\":8408:8444   */\n      mstore\n        /* \"#utility.yul\":8461:8480   */\n      0x84\n      add\n        /* \"CoinIdo.sol\":1948:2021  require(newOwner != address(0), \"Ownable: new owner is the zero address\") */\n      tag_147\n        /* \"#utility.yul\":8258:8486   */\n      jump\n        /* \"CoinIdo.sol\":1948:2021  require(newOwner != address(0), \"Ownable: new owner is the zero address\") */\n    tag_371:\n        /* \"CoinIdo.sol\":2032:2048  address oldOwner */\n      0x00\n        /* \"CoinIdo.sol\":2051:2057  _owner */\n      dup1\n      sload\n      0xffffffffffffffffffffffffffffffffffffffff\n        /* \"CoinIdo.sol\":2068:2085  _owner = newOwner */\n      dup4\n      dup2\n      and\n        /* \"CoinIdo.sol\":2051:2057  _owner */\n      0x010000\n        /* \"CoinIdo.sol\":2068:2085  _owner = newOwner */\n      dup2\n      dup2\n      mul\n      0xffffffffffffffffffff0000000000000000000000000000000000000000ffff\n      dup6\n      and\n      or\n      swap1\n      swap5\n      sstore\n        /* \"CoinIdo.sol\":2101:2141  OwnershipTransferred(oldOwner, newOwner) */\n      0x40\n      dup1\n      mload\n        /* \"CoinIdo.sol\":2051:2057  _owner */\n      swap5\n      swap1\n      swap4\n      div\n      swap1\n      swap2\n      and\n        /* \"#utility.yul\":4316:4350   */\n      dup1\n      dup5\n      mstore\n        /* \"#utility.yul\":4381:4383   */\n      0x20\n        /* \"#utility.yul\":4366:4384   */\n      dup5\n      add\n        /* \"#utility.yul\":4359:4402   */\n      swap2\n      swap1\n      swap2\n      mstore\n        /* \"CoinIdo.sol\":2051:2057  _owner */\n      swap2\n        /* \"CoinIdo.sol\":2101:2141  OwnershipTransferred(oldOwner, newOwner) */\n      0x8be0079c531659141344cd1fd0a4f28419497f9722a3daafe3b4186f6b6457e0\n      swap2\n        /* \"#utility.yul\":4228:4246   */\n      add\n        /* \"CoinIdo.sol\":2101:2141  OwnershipTransferred(oldOwner, newOwner) */\n      tag_246\n        /* \"#utility.yul\":4210:4408   */\n      jump\n        /* \"CoinIdo.sol\":2159:2254  function setNFT(address _address) public onlyManager{\r... */\n    tag_141:\n        /* \"CoinIdo.sol\":1748:1758  msg.sender */\n      caller\n        /* \"CoinIdo.sol\":1738:1759  isManager[msg.sender] */\n      0x00\n      swap1\n      dup2\n      mstore\n        /* \"CoinIdo.sol\":1738:1747  isManager */\n      0x04\n        /* \"CoinIdo.sol\":1738:1759  isManager[msg.sender] */\n      0x20\n      mstore\n      0x40\n      swap1\n      keccak256\n      sload\n      0xff\n      and\n        /* \"CoinIdo.sol\":1730:1775  require(isManager[msg.sender], \"Not manager\") */\n      tag_377\n      jumpi\n      mload(0x40)\n      0x08c379a000000000000000000000000000000000000000000000000000000000\n      dup2\n      mstore\n        /* \"#utility.yul\":7946:7948   */\n      0x20\n        /* \"CoinIdo.sol\":1730:1775  require(isManager[msg.sender], \"Not manager\") */\n      0x04\n      dup3\n      add\n        /* \"#utility.yul\":7928:7949   */\n      mstore\n        /* \"#utility.yul\":7985:7987   */\n      0x0b\n        /* \"#utility.yul\":7965:7983   */\n      0x24\n      dup3\n      add\n        /* \"#utility.yul\":7958:7988   */\n      mstore\n        /* \"#utility.yul\":8024:8037   */\n      0x4e6f74206d616e61676572000000000000000000000000000000000000000000\n        /* \"#utility.yul\":8004:8022   */\n      0x44\n      dup3\n      add\n        /* \"#utility.yul\":7997:8038   */\n      mstore\n        /* \"#utility.yul\":8055:8073   */\n      0x64\n      add\n        /* \"CoinIdo.sol\":1730:1775  require(isManager[msg.sender], \"Not manager\") */\n      tag_147\n        /* \"#utility.yul\":7918:8079   */\n      jump\n        /* \"CoinIdo.sol\":1730:1775  require(isManager[msg.sender], \"Not manager\") */\n    tag_377:\n        /* \"CoinIdo.sol\":2222:2227  etNft */\n      0x07\n        /* \"CoinIdo.sol\":2222:2246  etNft = IETNFT(_address) */\n      dup1\n      sload\n      0xffffffffffffffffffffffff0000000000000000000000000000000000000000\n      and\n      0xffffffffffffffffffffffffffffffffffffffff\n      swap3\n      swap1\n      swap3\n      and\n      swap2\n      swap1\n      swap2\n      or\n      swap1\n      sstore\n        /* \"CoinIdo.sol\":2159:2254  function setNFT(address _address) public onlyManager{\r... */\n      jump\t// out\n    tag_320:\n      dup3\n      dup1\n      sload\n      dup3\n      dup3\n      sstore\n      swap1\n      0x00\n      mstore\n      keccak256(0x00, 0x20)\n      swap1\n      0x1f\n      add\n      0x20\n      swap1\n      div\n      dup2\n      add\n      swap3\n      dup3\n      iszero\n      tag_380\n      jumpi\n      swap2\n      0x20\n      mul\n      dup3\n      add\n      0x00\n    tag_381:\n      dup4\n      dup3\n      gt\n      iszero\n      tag_382\n      jumpi\n      dup4\n      mload\n      dup4\n      dup3\n      0x0100\n      exp\n      dup2\n      sload\n      dup2\n      0xff\n      mul\n      not\n      and\n      swap1\n      dup4\n      iszero\n      iszero\n      mul\n      or\n      swap1\n      sstore\n      pop\n      swap3\n      0x20\n      add\n      swap3\n      0x01\n      add\n      0x20\n      dup2\n      0x00\n      add\n      div\n      swap3\n      dup4\n      add\n      swap3\n      0x01\n      sub\n      mul\n      jump(tag_381)\n    tag_382:\n      dup1\n      iszero\n      tag_383\n      jumpi\n      dup3\n      dup2\n      0x0100\n      exp\n      dup2\n      sload\n      swap1\n      0xff\n      mul\n      not\n      and\n      swap1\n      sstore\n      0x01\n      add\n      0x20\n      dup2\n      0x00\n      add\n      div\n      swap3\n      dup4\n      add\n      swap3\n      0x01\n      sub\n      mul\n      jump(tag_382)\n    tag_383:\n      pop\n    tag_380:\n      pop\n      tag_384\n      swap3\n      swap2\n      pop\n      tag_385\n      jump\t// in\n    tag_384:\n      pop\n      swap1\n      jump\t// out\n    tag_385:\n    tag_386:\n      dup1\n      dup3\n      gt\n      iszero\n      tag_384\n      jumpi\n      0x00\n      dup2\n      sstore\n      0x01\n      add\n      jump(tag_386)\n        /* \"#utility.yul\":14:210   */\n    tag_389:\n        /* \"#utility.yul\":82:102   */\n      dup1\n      calldataload\n        /* \"#utility.yul\":142:184   */\n      0xffffffffffffffffffffffffffffffffffffffff\n        /* \"#utility.yul\":131:185   */\n      dup2\n      and\n        /* \"#utility.yul\":121:186   */\n      dup2\n      eq\n        /* \"#utility.yul\":111:113   */\n      tag_391\n      jumpi\n        /* \"#utility.yul\":200:201   */\n      0x00\n        /* \"#utility.yul\":197:198   */\n      dup1\n        /* \"#utility.yul\":190:202   */\n      revert\n        /* \"#utility.yul\":111:113   */\n    tag_391:\n        /* \"#utility.yul\":63:210   */\n      swap2\n      swap1\n      pop\n      jump\t// out\n        /* \"#utility.yul\":215:1213   */\n    tag_392:\n        /* \"#utility.yul\":269:274   */\n      0x00\n        /* \"#utility.yul\":322:325   */\n      dup3\n        /* \"#utility.yul\":315:319   */\n      0x1f\n        /* \"#utility.yul\":307:313   */\n      dup4\n        /* \"#utility.yul\":303:320   */\n      add\n        /* \"#utility.yul\":299:326   */\n      slt\n        /* \"#utility.yul\":289:291   */\n      tag_394\n      jumpi\n        /* \"#utility.yul\":344:349   */\n      dup1\n        /* \"#utility.yul\":337:342   */\n      dup2\n        /* \"#utility.yul\":330:350   */\n      revert\n        /* \"#utility.yul\":289:291   */\n    tag_394:\n        /* \"#utility.yul\":384:390   */\n      dup2\n        /* \"#utility.yul\":371:391   */\n      calldataload\n        /* \"#utility.yul\":410:414   */\n      0x20\n        /* \"#utility.yul\":433:451   */\n      0xffffffffffffffff\n        /* \"#utility.yul\":470:472   */\n      dup1\n        /* \"#utility.yul\":466:468   */\n      dup4\n        /* \"#utility.yul\":463:473   */\n      gt\n        /* \"#utility.yul\":460:462   */\n      iszero\n      tag_396\n      jumpi\n        /* \"#utility.yul\":476:494   */\n      tag_396\n      tag_397\n      jump\t// in\n    tag_396:\n        /* \"#utility.yul\":522:524   */\n      dup3\n        /* \"#utility.yul\":519:520   */\n      0x05\n        /* \"#utility.yul\":515:525   */\n      shl\n        /* \"#utility.yul\":554:556   */\n      0x40\n        /* \"#utility.yul\":548:557   */\n      mload\n        /* \"#utility.yul\":613:679   */\n      0xffffffffffffffffffffffffffffffffffffffffffffffffffffffffffffffe0\n        /* \"#utility.yul\":608:610   */\n      0x3f\n        /* \"#utility.yul\":604:606   */\n      dup4\n        /* \"#utility.yul\":600:611   */\n      add\n        /* \"#utility.yul\":596:680   */\n      and\n        /* \"#utility.yul\":588:594   */\n      dup2\n        /* \"#utility.yul\":584:681   */\n      add\n        /* \"#utility.yul\":731:737   */\n      dup2\n        /* \"#utility.yul\":719:729   */\n      dup2\n        /* \"#utility.yul\":716:738   */\n      lt\n        /* \"#utility.yul\":711:713   */\n      dup5\n        /* \"#utility.yul\":699:709   */\n      dup3\n        /* \"#utility.yul\":696:714   */\n      gt\n        /* \"#utility.yul\":693:739   */\n      or\n        /* \"#utility.yul\":690:692   */\n      iszero\n      tag_399\n      jumpi\n        /* \"#utility.yul\":742:760   */\n      tag_399\n      tag_397\n      jump\t// in\n    tag_399:\n        /* \"#utility.yul\":778:780   */\n      0x40\n        /* \"#utility.yul\":771:793   */\n      mstore\n        /* \"#utility.yul\":828:846   */\n      dup5\n      dup2\n      mstore\n        /* \"#utility.yul\":862:877   */\n      dup4\n      dup2\n      add\n      swap3\n      pop\n        /* \"#utility.yul\":897:912   */\n      dup7\n      dup5\n      add\n        /* \"#utility.yul\":931:946   */\n      dup3\n      dup9\n      add\n        /* \"#utility.yul\":927:951   */\n      dup6\n      add\n        /* \"#utility.yul\":924:957   */\n      dup10\n      lt\n        /* \"#utility.yul\":921:923   */\n      iszero\n      tag_400\n      jumpi\n        /* \"#utility.yul\":974:979   */\n      dup7\n        /* \"#utility.yul\":967:972   */\n      dup8\n        /* \"#utility.yul\":960:980   */\n      revert\n        /* \"#utility.yul\":921:923   */\n    tag_400:\n        /* \"#utility.yul\":1000:1005   */\n      dup7\n        /* \"#utility.yul\":991:1005   */\n      swap3\n      pop\n        /* \"#utility.yul\":1014:1183   */\n    tag_401:\n        /* \"#utility.yul\":1028:1030   */\n      dup6\n        /* \"#utility.yul\":1025:1026   */\n      dup4\n        /* \"#utility.yul\":1022:1031   */\n      lt\n        /* \"#utility.yul\":1014:1183   */\n      iszero\n      tag_403\n      jumpi\n        /* \"#utility.yul\":1085:1108   */\n      tag_404\n        /* \"#utility.yul\":1104:1107   */\n      dup2\n        /* \"#utility.yul\":1085:1108   */\n      tag_389\n      jump\t// in\n    tag_404:\n        /* \"#utility.yul\":1073:1109   */\n      dup5\n      mstore\n        /* \"#utility.yul\":1129:1141   */\n      swap3\n      dup5\n      add\n      swap3\n        /* \"#utility.yul\":1046:1047   */\n      0x01\n        /* \"#utility.yul\":1039:1048   */\n      swap3\n      swap1\n      swap3\n      add\n      swap2\n        /* \"#utility.yul\":1161:1173   */\n      dup5\n      add\n        /* \"#utility.yul\":1014:1183   */\n      jump(tag_401)\n    tag_403:\n      pop\n        /* \"#utility.yul\":1201:1207   */\n      swap8\n        /* \"#utility.yul\":279:1213   */\n      swap7\n      pop\n      pop\n      pop\n      pop\n      pop\n      pop\n      pop\n      jump\t// out\n        /* \"#utility.yul\":1218:1414   */\n    tag_75:\n        /* \"#utility.yul\":1277:1283   */\n      0x00\n        /* \"#utility.yul\":1330:1332   */\n      0x20\n        /* \"#utility.yul\":1318:1327   */\n      dup3\n        /* \"#utility.yul\":1309:1316   */\n      dup5\n        /* \"#utility.yul\":1305:1328   */\n      sub\n        /* \"#utility.yul\":1301:1333   */\n      slt\n        /* \"#utility.yul\":1298:1300   */\n      iszero\n      tag_406\n      jumpi\n        /* \"#utility.yul\":1351:1357   */\n      dup1\n        /* \"#utility.yul\":1343:1349   */\n      dup2\n        /* \"#utility.yul\":1336:1358   */\n      revert\n        /* \"#utility.yul\":1298:1300   */\n    tag_406:\n        /* \"#utility.yul\":1379:1408   */\n      tag_407\n        /* \"#utility.yul\":1398:1407   */\n      dup3\n        /* \"#utility.yul\":1379:1408   */\n      tag_389\n      jump\t// in\n    tag_407:\n        /* \"#utility.yul\":1369:1408   */\n      swap4\n        /* \"#utility.yul\":1288:1414   */\n      swap3\n      pop\n      pop\n      pop\n      jump\t// out\n        /* \"#utility.yul\":1419:1744   */\n    tag_105:\n        /* \"#utility.yul\":1484:1490   */\n      0x00\n        /* \"#utility.yul\":1492:1498   */\n      dup1\n        /* \"#utility.yul\":1545:1547   */\n      0x40\n        /* \"#utility.yul\":1533:1542   */\n      dup4\n        /* \"#utility.yul\":1524:1531   */\n      dup6\n        /* \"#utility.yul\":1520:1543   */\n      sub\n        /* \"#utility.yul\":1516:1548   */\n      slt\n        /* \"#utility.yul\":1513:1515   */\n      iszero\n      tag_409\n      jumpi\n        /* \"#utility.yul\":1566:1572   */\n      dup1\n        /* \"#utility.yul\":1558:1564   */\n      dup2\n        /* \"#utility.yul\":1551:1573   */\n      revert\n        /* \"#utility.yul\":1513:1515   */\n    tag_409:\n        /* \"#utility.yul\":1594:1623   */\n      tag_410\n        /* \"#utility.yul\":1613:1622   */\n      dup4\n        /* \"#utility.yul\":1594:1623   */\n      tag_389\n      jump\t// in\n    tag_410:\n        /* \"#utility.yul\":1584:1623   */\n      swap2\n      pop\n        /* \"#utility.yul\":1673:1675   */\n      0x20\n        /* \"#utility.yul\":1662:1671   */\n      dup4\n        /* \"#utility.yul\":1658:1676   */\n      add\n        /* \"#utility.yul\":1645:1677   */\n      calldataload\n        /* \"#utility.yul\":1686:1714   */\n      tag_411\n        /* \"#utility.yul\":1708:1713   */\n      dup2\n        /* \"#utility.yul\":1686:1714   */\n      tag_412\n      jump\t// in\n    tag_411:\n        /* \"#utility.yul\":1733:1738   */\n      dup1\n        /* \"#utility.yul\":1723:1738   */\n      swap2\n      pop\n      pop\n        /* \"#utility.yul\":1503:1744   */\n      swap3\n      pop\n      swap3\n      swap1\n      pop\n      jump\t// out\n        /* \"#utility.yul\":1749:2013   */\n    tag_118:\n        /* \"#utility.yul\":1817:1823   */\n      0x00\n        /* \"#utility.yul\":1825:1831   */\n      dup1\n        /* \"#utility.yul\":1878:1880   */\n      0x40\n        /* \"#utility.yul\":1866:1875   */\n      dup4\n        /* \"#utility.yul\":1857:1864   */\n      dup6\n        /* \"#utility.yul\":1853:1876   */\n      sub\n        /* \"#utility.yul\":1849:1881   */\n      slt\n        /* \"#utility.yul\":1846:1848   */\n      iszero\n      tag_414\n      jumpi\n        /* \"#utility.yul\":1899:1905   */\n      dup2\n        /* \"#utility.yul\":1891:1897   */\n      dup3\n        /* \"#utility.yul\":1884:1906   */\n      revert\n        /* \"#utility.yul\":1846:1848   */\n    tag_414:\n        /* \"#utility.yul\":1927:1956   */\n      tag_415\n        /* \"#utility.yul\":1946:1955   */\n      dup4\n        /* \"#utility.yul\":1927:1956   */\n      tag_389\n      jump\t// in\n    tag_415:\n        /* \"#utility.yul\":1917:1956   */\n      swap5\n        /* \"#utility.yul\":2003:2005   */\n      0x20\n        /* \"#utility.yul\":1988:2006   */\n      swap4\n      swap1\n      swap4\n      add\n        /* \"#utility.yul\":1975:2007   */\n      calldataload\n      swap4\n      pop\n      pop\n      pop\n        /* \"#utility.yul\":1836:2013   */\n      jump\t// out\n        /* \"#utility.yul\":2018:2643   */\n    tag_50:\n        /* \"#utility.yul\":2136:2142   */\n      0x00\n        /* \"#utility.yul\":2144:2150   */\n      dup1\n        /* \"#utility.yul\":2197:2199   */\n      0x40\n        /* \"#utility.yul\":2185:2194   */\n      dup4\n        /* \"#utility.yul\":2176:2183   */\n      dup6\n        /* \"#utility.yul\":2172:2195   */\n      sub\n        /* \"#utility.yul\":2168:2200   */\n      slt\n        /* \"#utility.yul\":2165:2167   */\n      iszero\n      tag_417\n      jumpi\n        /* \"#utility.yul\":2218:2224   */\n      dup2\n        /* \"#utility.yul\":2210:2216   */\n      dup3\n        /* \"#utility.yul\":2203:2225   */\n      revert\n        /* \"#utility.yul\":2165:2167   */\n    tag_417:\n        /* \"#utility.yul\":2263:2272   */\n      dup3\n        /* \"#utility.yul\":2250:2273   */\n      calldataload\n        /* \"#utility.yul\":2292:2310   */\n      0xffffffffffffffff\n        /* \"#utility.yul\":2333:2335   */\n      dup1\n        /* \"#utility.yul\":2325:2331   */\n      dup3\n        /* \"#utility.yul\":2322:2336   */\n      gt\n        /* \"#utility.yul\":2319:2321   */\n      iszero\n      tag_418\n      jumpi\n        /* \"#utility.yul\":2354:2360   */\n      dup4\n        /* \"#utility.yul\":2346:2352   */\n      dup5\n        /* \"#utility.yul\":2339:2361   */\n      revert\n        /* \"#utility.yul\":2319:2321   */\n    tag_418:\n        /* \"#utility.yul\":2382:2443   */\n      tag_419\n        /* \"#utility.yul\":2435:2442   */\n      dup7\n        /* \"#utility.yul\":2426:2432   */\n      dup4\n        /* \"#utility.yul\":2415:2424   */\n      dup8\n        /* \"#utility.yul\":2411:2433   */\n      add\n        /* \"#utility.yul\":2382:2443   */\n      tag_392\n      jump\t// in\n    tag_419:\n        /* \"#utility.yul\":2372:2443   */\n      swap4\n      pop\n        /* \"#utility.yul\":2496:2498   */\n      0x20\n        /* \"#utility.yul\":2485:2494   */\n      dup6\n        /* \"#utility.yul\":2481:2499   */\n      add\n        /* \"#utility.yul\":2468:2500   */\n      calldataload\n        /* \"#utility.yul\":2452:2500   */\n      swap2\n      pop\n        /* \"#utility.yul\":2525:2527   */\n      dup1\n        /* \"#utility.yul\":2515:2523   */\n      dup3\n        /* \"#utility.yul\":2512:2528   */\n      gt\n        /* \"#utility.yul\":2509:2511   */\n      iszero\n      tag_420\n      jumpi\n        /* \"#utility.yul\":2546:2552   */\n      dup3\n        /* \"#utility.yul\":2538:2544   */\n      dup4\n        /* \"#utility.yul\":2531:2553   */\n      revert\n        /* \"#utility.yul\":2509:2511   */\n    tag_420:\n      pop\n        /* \"#utility.yul\":2574:2637   */\n      tag_421\n        /* \"#utility.yul\":2629:2636   */\n      dup6\n        /* \"#utility.yul\":2618:2626   */\n      dup3\n        /* \"#utility.yul\":2607:2616   */\n      dup7\n        /* \"#utility.yul\":2603:2627   */\n      add\n        /* \"#utility.yul\":2574:2637   */\n      tag_392\n      jump\t// in\n    tag_421:\n        /* \"#utility.yul\":2564:2637   */\n      swap2\n      pop\n      pop\n        /* \"#utility.yul\":2155:2643   */\n      swap3\n      pop\n      swap3\n      swap1\n      pop\n      jump\t// out\n        /* \"#utility.yul\":2648:2899   */\n    tag_71:\n        /* \"#utility.yul\":2704:2710   */\n      0x00\n        /* \"#utility.yul\":2757:2759   */\n      0x20\n        /* \"#utility.yul\":2745:2754   */\n      dup3\n        /* \"#utility.yul\":2736:2743   */\n      dup5\n        /* \"#utility.yul\":2732:2755   */\n      sub\n        /* \"#utility.yul\":2728:2760   */\n      slt\n        /* \"#utility.yul\":2725:2727   */\n      iszero\n      tag_423\n      jumpi\n        /* \"#utility.yul\":2778:2784   */\n      dup1\n        /* \"#utility.yul\":2770:2776   */\n      dup2\n        /* \"#utility.yul\":2763:2785   */\n      revert\n        /* \"#utility.yul\":2725:2727   */\n    tag_423:\n        /* \"#utility.yul\":2822:2831   */\n      dup2\n        /* \"#utility.yul\":2809:2832   */\n      calldataload\n        /* \"#utility.yul\":2841:2869   */\n      tag_407\n        /* \"#utility.yul\":2863:2868   */\n      dup2\n        /* \"#utility.yul\":2841:2869   */\n      tag_412\n      jump\t// in\n        /* \"#utility.yul\":2904:3159   */\n    tag_178:\n        /* \"#utility.yul\":2971:2977   */\n      0x00\n        /* \"#utility.yul\":3024:3026   */\n      0x20\n        /* \"#utility.yul\":3012:3021   */\n      dup3\n        /* \"#utility.yul\":3003:3010   */\n      dup5\n        /* \"#utility.yul\":2999:3022   */\n      sub\n        /* \"#utility.yul\":2995:3027   */\n      slt\n        /* \"#utility.yul\":2992:2994   */\n      iszero\n      tag_426\n      jumpi\n        /* \"#utility.yul\":3045:3051   */\n      dup1\n        /* \"#utility.yul\":3037:3043   */\n      dup2\n        /* \"#utility.yul\":3030:3052   */\n      revert\n        /* \"#utility.yul\":2992:2994   */\n    tag_426:\n        /* \"#utility.yul\":3082:3091   */\n      dup2\n        /* \"#utility.yul\":3076:3092   */\n      mload\n        /* \"#utility.yul\":3101:3129   */\n      tag_407\n        /* \"#utility.yul\":3123:3128   */\n      dup2\n        /* \"#utility.yul\":3101:3129   */\n      tag_412\n      jump\t// in\n        /* \"#utility.yul\":3164:3354   */\n    tag_42:\n        /* \"#utility.yul\":3223:3229   */\n      0x00\n        /* \"#utility.yul\":3276:3278   */\n      0x20\n        /* \"#utility.yul\":3264:3273   */\n      dup3\n        /* \"#utility.yul\":3255:3262   */\n      dup5\n        /* \"#utility.yul\":3251:3274   */\n      sub\n        /* \"#utility.yul\":3247:3279   */\n      slt\n        /* \"#utility.yul\":3244:3246   */\n      iszero\n      tag_429\n      jumpi\n        /* \"#utility.yul\":3297:3303   */\n      dup1\n        /* \"#utility.yul\":3289:3295   */\n      dup2\n        /* \"#utility.yul\":3282:3304   */\n      revert\n        /* \"#utility.yul\":3244:3246   */\n    tag_429:\n      pop\n        /* \"#utility.yul\":3325:3348   */\n      calldataload\n      swap2\n        /* \"#utility.yul\":3234:3354   */\n      swap1\n      pop\n      jump\t// out\n        /* \"#utility.yul\":3359:3845   */\n    tag_430:\n        /* \"#utility.yul\":3412:3415   */\n      0x00\n        /* \"#utility.yul\":3450:3455   */\n      dup2\n        /* \"#utility.yul\":3444:3456   */\n      mload\n        /* \"#utility.yul\":3477:3483   */\n      dup1\n        /* \"#utility.yul\":3472:3475   */\n      dup5\n        /* \"#utility.yul\":3465:3484   */\n      mstore\n        /* \"#utility.yul\":3503:3507   */\n      0x20\n        /* \"#utility.yul\":3532:3534   */\n      dup1\n        /* \"#utility.yul\":3527:3530   */\n      dup6\n        /* \"#utility.yul\":3523:3535   */\n      add\n        /* \"#utility.yul\":3516:3535   */\n      swap5\n      pop\n        /* \"#utility.yul\":3569:3571   */\n      dup1\n        /* \"#utility.yul\":3562:3567   */\n      dup5\n        /* \"#utility.yul\":3558:3572   */\n      add\n        /* \"#utility.yul\":3590:3593   */\n      dup4\n        /* \"#utility.yul\":3602:3820   */\n    tag_432:\n        /* \"#utility.yul\":3616:3622   */\n      dup4\n        /* \"#utility.yul\":3613:3614   */\n      dup2\n        /* \"#utility.yul\":3610:3623   */\n      lt\n        /* \"#utility.yul\":3602:3820   */\n      iszero\n      tag_434\n      jumpi\n        /* \"#utility.yul\":3681:3694   */\n      dup2\n      mload\n        /* \"#utility.yul\":3696:3738   */\n      0xffffffffffffffffffffffffffffffffffffffff\n        /* \"#utility.yul\":3677:3739   */\n      and\n        /* \"#utility.yul\":3665:3740   */\n      dup8\n      mstore\n        /* \"#utility.yul\":3760:3772   */\n      swap6\n      dup3\n      add\n      swap6\n        /* \"#utility.yul\":3795:3810   */\n      swap1\n      dup3\n      add\n      swap1\n        /* \"#utility.yul\":3638:3639   */\n      0x01\n        /* \"#utility.yul\":3631:3640   */\n      add\n        /* \"#utility.yul\":3602:3820   */\n      jump(tag_432)\n    tag_434:\n      pop\n        /* \"#utility.yul\":3836:3839   */\n      swap5\n      swap6\n        /* \"#utility.yul\":3420:3845   */\n      swap5\n      pop\n      pop\n      pop\n      pop\n      pop\n      jump\t// out\n        /* \"#utility.yul\":5904:6369   */\n    tag_247:\n        /* \"#utility.yul\":6161:6163   */\n      0x40\n        /* \"#utility.yul\":6150:6159   */\n      dup2\n        /* \"#utility.yul\":6143:6164   */\n      mstore\n        /* \"#utility.yul\":6124:6128   */\n      0x00\n        /* \"#utility.yul\":6187:6243   */\n      tag_442\n        /* \"#utility.yul\":6239:6241   */\n      0x40\n        /* \"#utility.yul\":6228:6237   */\n      dup4\n        /* \"#utility.yul\":6224:6242   */\n      add\n        /* \"#utility.yul\":6216:6222   */\n      dup6\n        /* \"#utility.yul\":6187:6243   */\n      tag_430\n      jump\t// in\n    tag_442:\n        /* \"#utility.yul\":6291:6300   */\n      dup3\n        /* \"#utility.yul\":6283:6289   */\n      dup2\n        /* \"#utility.yul\":6279:6301   */\n      sub\n        /* \"#utility.yul\":6274:6276   */\n      0x20\n        /* \"#utility.yul\":6263:6272   */\n      dup5\n        /* \"#utility.yul\":6259:6277   */\n      add\n        /* \"#utility.yul\":6252:6302   */\n      mstore\n        /* \"#utility.yul\":6319:6363   */\n      tag_443\n        /* \"#utility.yul\":6356:6362   */\n      dup2\n        /* \"#utility.yul\":6348:6354   */\n      dup6\n        /* \"#utility.yul\":6319:6363   */\n      tag_430\n      jump\t// in\n    tag_443:\n        /* \"#utility.yul\":6311:6363   */\n      swap6\n        /* \"#utility.yul\":6133:6369   */\n      swap5\n      pop\n      pop\n      pop\n      pop\n      pop\n      jump\t// out\n        /* \"#utility.yul\":11760:11888   */\n    tag_157:\n        /* \"#utility.yul\":11800:11803   */\n      0x00\n        /* \"#utility.yul\":11831:11832   */\n      dup3\n        /* \"#utility.yul\":11827:11833   */\n      not\n        /* \"#utility.yul\":11824:11825   */\n      dup3\n        /* \"#utility.yul\":11821:11834   */\n      gt\n        /* \"#utility.yul\":11818:11820   */\n      iszero\n      tag_463\n      jumpi\n        /* \"#utility.yul\":11837:11855   */\n      tag_463\n      tag_464\n      jump\t// in\n    tag_463:\n      pop\n        /* \"#utility.yul\":11873:11882   */\n      add\n      swap1\n        /* \"#utility.yul\":11808:11888   */\n      jump\t// out\n        /* \"#utility.yul\":11893:12167   */\n    tag_171:\n        /* \"#utility.yul\":11933:11934   */\n      0x00\n        /* \"#utility.yul\":11959:11960   */\n      dup3\n        /* \"#utility.yul\":11949:11951   */\n      tag_466\n      jumpi\n        /* \"#utility.yul\":11994:12071   */\n      0x4e487b7100000000000000000000000000000000000000000000000000000000\n        /* \"#utility.yul\":11991:11992   */\n      dup2\n        /* \"#utility.yul\":11984:12072   */\n      mstore\n        /* \"#utility.yul\":12095:12099   */\n      0x12\n        /* \"#utility.yul\":12092:12093   */\n      0x04\n        /* \"#utility.yul\":12085:12100   */\n      mstore\n        /* \"#utility.yul\":12123:12127   */\n      0x24\n        /* \"#utility.yul\":12120:12121   */\n      dup2\n        /* \"#utility.yul\":12113:12128   */\n      revert\n        /* \"#utility.yul\":11949:11951   */\n    tag_466:\n      pop\n        /* \"#utility.yul\":12152:12161   */\n      div\n      swap1\n        /* \"#utility.yul\":11939:12167   */\n      jump\t// out\n        /* \"#utility.yul\":12172:12400   */\n    tag_153:\n        /* \"#utility.yul\":12212:12219   */\n      0x00\n        /* \"#utility.yul\":12338:12339   */\n      dup2\n        /* \"#utility.yul\":12270:12336   */\n      0xffffffffffffffffffffffffffffffffffffffffffffffffffffffffffffffff\n        /* \"#utility.yul\":12266:12340   */\n      div\n        /* \"#utility.yul\":12263:12264   */\n      dup4\n        /* \"#utility.yul\":12260:12341   */\n      gt\n        /* \"#utility.yul\":12255:12256   */\n      dup3\n        /* \"#utility.yul\":12248:12257   */\n      iszero\n        /* \"#utility.yul\":12241:12258   */\n      iszero\n        /* \"#utility.yul\":12237:12342   */\n      and\n        /* \"#utility.yul\":12234:12236   */\n      iszero\n      tag_469\n      jumpi\n        /* \"#utility.yul\":12345:12363   */\n      tag_469\n      tag_464\n      jump\t// in\n    tag_469:\n      pop\n        /* \"#utility.yul\":12385:12394   */\n      mul\n      swap1\n        /* \"#utility.yul\":12224:12400   */\n      jump\t// out\n        /* \"#utility.yul\":12405:12530   */\n    tag_180:\n        /* \"#utility.yul\":12445:12449   */\n      0x00\n        /* \"#utility.yul\":12473:12474   */\n      dup3\n        /* \"#utility.yul\":12470:12471   */\n      dup3\n        /* \"#utility.yul\":12467:12475   */\n      lt\n        /* \"#utility.yul\":12464:12466   */\n      iszero\n      tag_472\n      jumpi\n        /* \"#utility.yul\":12478:12496   */\n      tag_472\n      tag_464\n      jump\t// in\n    tag_472:\n      pop\n        /* \"#utility.yul\":12515:12524   */\n      sub\n      swap1\n        /* \"#utility.yul\":12454:12530   */\n      jump\t// out\n        /* \"#utility.yul\":12535:12730   */\n    tag_202:\n        /* \"#utility.yul\":12574:12577   */\n      0x00\n        /* \"#utility.yul\":12605:12671   */\n      0xffffffffffffffffffffffffffffffffffffffffffffffffffffffffffffffff\n        /* \"#utility.yul\":12598:12603   */\n      dup3\n        /* \"#utility.yul\":12595:12672   */\n      eq\n        /* \"#utility.yul\":12592:12594   */\n      iszero\n      tag_475\n      jumpi\n        /* \"#utility.yul\":12675:12693   */\n      tag_475\n      tag_464\n      jump\t// in\n    tag_475:\n      pop\n        /* \"#utility.yul\":12722:12723   */\n      0x01\n        /* \"#utility.yul\":12711:12724   */\n      add\n      swap1\n        /* \"#utility.yul\":12582:12730   */\n      jump\t// out\n        /* \"#utility.yul\":12735:12919   */\n    tag_464:\n        /* \"#utility.yul\":12787:12864   */\n      0x4e487b7100000000000000000000000000000000000000000000000000000000\n        /* \"#utility.yul\":12784:12785   */\n      0x00\n        /* \"#utility.yul\":12777:12865   */\n      mstore\n        /* \"#utility.yul\":12884:12888   */\n      0x11\n        /* \"#utility.yul\":12881:12882   */\n      0x04\n        /* \"#utility.yul\":12874:12889   */\n      mstore\n        /* \"#utility.yul\":12908:12912   */\n      0x24\n        /* \"#utility.yul\":12905:12906   */\n      0x00\n        /* \"#utility.yul\":12898:12913   */\n      revert\n        /* \"#utility.yul\":12924:13108   */\n    tag_397:\n        /* \"#utility.yul\":12976:13053   */\n      0x4e487b7100000000000000000000000000000000000000000000000000000000\n        /* \"#utility.yul\":12973:12974   */\n      0x00\n        /* \"#utility.yul\":12966:13054   */\n      mstore\n        /* \"#utility.yul\":13073:13077   */\n      0x41\n        /* \"#utility.yul\":13070:13071   */\n      0x04\n        /* \"#utility.yul\":13063:13078   */\n      mstore\n        /* \"#utility.yul\":13097:13101   */\n      0x24\n        /* \"#utility.yul\":13094:13095   */\n      0x00\n        /* \"#utility.yul\":13087:13102   */\n      revert\n        /* \"#utility.yul\":13113:13231   */\n    tag_412:\n        /* \"#utility.yul\":13199:13204   */\n      dup1\n        /* \"#utility.yul\":13192:13205   */\n      iszero\n        /* \"#utility.yul\":13185:13206   */\n      iszero\n        /* \"#utility.yul\":13178:13183   */\n      dup2\n        /* \"#utility.yul\":13175:13207   */\n      eq\n        /* \"#utility.yul\":13165:13167   */\n      tag_311\n      jumpi\n        /* \"#utility.yul\":13221:13222   */\n      0x00\n        /* \"#utility.yul\":13218:13219   */\n      dup1\n        /* \"#utility.yul\":13211:13223   */\n      revert\n\n    auxdata: 0xa264697066735822122047fae70d588f1c1cd485a39fffd411baa94b40f04de86fe9888db76ee031fa9e64736f6c63430008040033\n}\n",
				"bytecode": {
					"linkReferences": {},
					"object": "6080604052670de0b6b3a7640000600e553480156200001d57600080fd5b5060405162002875380380620028758339810160408190526200004091620001b3565b60008054600f805460ff19169055600580546001600160a01b038087166001600160a01b031992831617909255600680549286169290911691909117905562010000339081026001600160b01b03199092169190911761010117909155620000aa906001620000b2565b5050620001ea565b33620000cc6000546201000090046001600160a01b031690565b6001600160a01b031614620001275760405162461bcd60e51b815260206004820181905260248201527f4f776e61626c653a2063616c6c6572206973206e6f7420746865206f776e6572604482015260640160405180910390fd5b6001600160a01b038216600081815260046020908152604091829020805460ff1916851515908117909155825133815291820193909352908101919091527f2862b022f51ffee932517d924c5103b3267a9d5d1f21bec54356e328aac24c189060600160405180910390a15050565b80516001600160a01b0381168114620001ae57600080fd5b919050565b60008060408385031215620001c6578182fd5b620001d18362000196565b9150620001e16020840162000196565b90509250929050565b61267b80620001fa6000396000f3fe608060405234801561001057600080fd5b50600436106101da5760003560e01c8063918a628311610104578063d3b91f7a116100a2578063f2fde38b11610071578063f2fde38b14610460578063f3ae241514610473578063f56e9c6614610496578063fb066531146104a957600080fd5b8063d3b91f7a146103ef578063e72ebdb714610402578063ef7a47fa14610438578063f06b41e31461044057600080fd5b8063a5e90eee116100de578063a5e90eee1461039c578063c6b24c1c146103af578063ca5cc206146103cf578063ce75710c146103e257600080fd5b8063918a628314610356578063965ed46514610369578063a3f82c2c1461037c57600080fd5b806368da5e8e1161017c57806376be6af61161014b57806376be6af6146103015780638381f58a146103095780638b9272b7146103125780638da5cb5b1461033257600080fd5b806368da5e8e1461029b5780636a15915a146102bb5780636a41d5d7146102ce5780636c68ec69146102ee57600080fd5b80632f48ab7d116101b85780632f48ab7d146102235780633197cbb6146102685780633ccfd60b146102715780635db98f2d1461027957600080fd5b80630e73d199146101df57806318160ddd146101f4578063238c4c2f14610210575b600080fd5b6101f26101ed366004612465565b6104b6565b005b6101fd60025481565b6040519081526020015b60405180910390f35b6101f261021e3660046123cc565b610da7565b6006546102439073ffffffffffffffffffffffffffffffffffffffff1681565b60405173ffffffffffffffffffffffffffffffffffffffff9091168152602001610207565b6101fd60015481565b6101f26111e2565b60005461028b90610100900460ff1681565b6040519015158152602001610207565b6007546102439073ffffffffffffffffffffffffffffffffffffffff1681565b6101f26102c936600461242d565b611693565b6101fd6102dc36600461234c565b600b6020526000908152604090205481565b6101f26102fc36600461242d565b61173d565b6101f26117e7565b6101fd60035481565b6008546102439073ffffffffffffffffffffffffffffffffffffffff1681565b60005462010000900473ffffffffffffffffffffffffffffffffffffffff16610243565b6101f261036436600461234c565b61191b565b6101f261037736600461234c565b611a10565b6101fd61038a36600461234c565b600d6020526000908152604090205481565b6101f26103aa36600461236d565b611ad0565b6005546102439073ffffffffffffffffffffffffffffffffffffffff1681565b6101f26103dd36600461242d565b611beb565b600f5461028b9060ff1681565b61028b6103fd3660046123a3565b611c9b565b61024361041036600461234c565b600a6020526000908152604090205473ffffffffffffffffffffffffffffffffffffffff1681565b6101fd611cde565b6101fd61044e36600461234c565b600c6020526000908152604090205481565b6101f261046e36600461234c565b611f32565b61028b61048136600461234c565b60046020526000908152604090205460ff1681565b6101f26104a436600461234c565b6120e6565b60005461028b9060ff1681565b600f5460ff16610527576040517f08c379a000000000000000000000000000000000000000000000000000000000815260206004820152600d60248201527f69646f20697320636c6f7365640000000000000000000000000000000000000060448201526064015b60405180910390fd5b60008111610591576040517f08c379a000000000000000000000000000000000000000000000000000000000815260206004820152600d60248201527f76616c7565206973207a65726f00000000000000000000000000000000000000604482015260640161051e565b336000818152600b6020526040902054600e546105b0906107d061254c565b811015806105d55750600e546105c8906107d061254c565b6105d284836124fb565b10155b1561064b57600054610100900460ff1661064b576040517f08c379a000000000000000000000000000000000000000000000000000000000815260206004820152601360248201527f74776f2074686f7573616e6420636c6f73656400000000000000000000000000604482015260640161051e565b600e5461065a906107d061254c565b61066484836124fb565b11156106cc576040517f08c379a000000000000000000000000000000000000000000000000000000000815260206004820152600760248201527f6e6f742049444f00000000000000000000000000000000000000000000000000604482015260640161051e565b73ffffffffffffffffffffffffffffffffffffffff8083166000908152600a60205260409020541680156109f05773ffffffffffffffffffffffffffffffffffffffff81166000908152600b6020526040902054156108dc576000612710610736866101f461254c565b6107409190612513565b6006546040517f23b872dd00000000000000000000000000000000000000000000000000000000815273ffffffffffffffffffffffffffffffffffffffff87811660048301528581166024830152604482018490529293509116906323b872dd90606401602060405180830381600087803b1580156107be57600080fd5b505af11580156107d2573d6000803e3d6000fd5b505050506040513d601f19601f820116820180604052508101906107f69190612449565b5060065460055473ffffffffffffffffffffffffffffffffffffffff918216916323b872dd91879116610829858a612589565b6040517fffffffff0000000000000000000000000000000000000000000000000000000060e086901b16815273ffffffffffffffffffffffffffffffffffffffff93841660048201529290911660248301526044820152606401602060405180830381600087803b15801561089d57600080fd5b505af11580156108b1573d6000803e3d6000fd5b505050506040513d601f19601f820116820180604052508101906108d59190612449565b5050610994565b6006546005546040517f23b872dd00000000000000000000000000000000000000000000000000000000815273ffffffffffffffffffffffffffffffffffffffff86811660048301529182166024820152604481018790529116906323b872dd90606401602060405180830381600087803b15801561095a57600080fd5b505af115801561096e573d6000803e3d6000fd5b505050506040513d601f19601f820116820180604052508101906109929190612449565b505b73ffffffffffffffffffffffffffffffffffffffff81166000908152600c60205260409020546109c59085906124fb565b73ffffffffffffffffffffffffffffffffffffffff82166000908152600c6020526040902055610aa8565b6006546005546040517f23b872dd00000000000000000000000000000000000000000000000000000000815273ffffffffffffffffffffffffffffffffffffffff86811660048301529182166024820152604481018790529116906323b872dd90606401602060405180830381600087803b158015610a6e57600080fd5b505af1158015610a82573d6000803e3d6000fd5b505050506040513d601f19601f82011682018060405250810190610aa69190612449565b505b610ab284836124fb565b73ffffffffffffffffffffffffffffffffffffffff84166000908152600b6020526040902055600254610ae69085906124fb565b60025560038054906000610af9836125a0565b909155505073ffffffffffffffffffffffffffffffffffffffff83166000908152600b6020526040902054607890610b3390610a2861254c565b610b3d9190612513565b73ffffffffffffffffffffffffffffffffffffffff84166000908152600d6020526040902055600e54610b72906107d061254c565b73ffffffffffffffffffffffffffffffffffffffff84166000908152600b602052604090205410610c23576007546040517f40d097c300000000000000000000000000000000000000000000000000000000815273ffffffffffffffffffffffffffffffffffffffff8581166004830152909116906340d097c390602401600060405180830381600087803b158015610c0a57600080fd5b505af1158015610c1e573d6000803e3d6000fd5b505050505b600e54610c3290610bb861254c565b73ffffffffffffffffffffffffffffffffffffffff82166000908152600c602052604090205410610d49576007546040517f40d097c300000000000000000000000000000000000000000000000000000000815273ffffffffffffffffffffffffffffffffffffffff8381166004830152909116906340d097c390602401600060405180830381600087803b158015610cca57600080fd5b505af1158015610cde573d6000803e3d6000fd5b50505050600e54610bb8610cf2919061254c565b73ffffffffffffffffffffffffffffffffffffffff82166000908152600c6020526040902054610d229190612589565b73ffffffffffffffffffffffffffffffffffffffff82166000908152600c60205260409020555b610d528361191b565b6040805173ffffffffffffffffffffffffffffffffffffffff85168152602081018690527f080bf12451b207525905f2fe9e47714fbcd5aa383b228f656b880136e66b288f910160405180910390a150505050565b60005473ffffffffffffffffffffffffffffffffffffffff62010000909104163314610e2f576040517f08c379a000000000000000000000000000000000000000000000000000000000815260206004820181905260248201527f4f776e61626c653a2063616c6c6572206973206e6f7420746865206f776e6572604482015260640161051e565b8051825114610e9a576040517f08c379a000000000000000000000000000000000000000000000000000000000815260206004820152600f60248201527f6c656e6774682069732077726f6e670000000000000000000000000000000000604482015260640161051e565b60005b82518110156111a457600073ffffffffffffffffffffffffffffffffffffffff16838281518110610ef7577f4e487b7100000000000000000000000000000000000000000000000000000000600052603260045260246000fd5b602002602001015173ffffffffffffffffffffffffffffffffffffffff161415610f7d576040517f08c379a000000000000000000000000000000000000000000000000000000000815260206004820152601060248201527f616464726573732069732077726f6e6700000000000000000000000000000000604482015260640161051e565b818181518110610fb6577f4e487b7100000000000000000000000000000000000000000000000000000000600052603260045260246000fd5b602002602001015173ffffffffffffffffffffffffffffffffffffffff1683828151811061100d577f4e487b7100000000000000000000000000000000000000000000000000000000600052603260045260246000fd5b602002602001015173ffffffffffffffffffffffffffffffffffffffff161415611093576040517f08c379a000000000000000000000000000000000000000000000000000000000815260206004820152600f60248201527f61646472657320697320657175616c0000000000000000000000000000000000604482015260640161051e565b8181815181106110cc577f4e487b7100000000000000000000000000000000000000000000000000000000600052603260045260246000fd5b6020026020010151600a6000858481518110611111577f4e487b7100000000000000000000000000000000000000000000000000000000600052603260045260246000fd5b602002602001015173ffffffffffffffffffffffffffffffffffffffff1673ffffffffffffffffffffffffffffffffffffffff16815260200190815260200160002060006101000a81548173ffffffffffffffffffffffffffffffffffffffff021916908373ffffffffffffffffffffffffffffffffffffffff160217905550808061119c906125a0565b915050610e9d565b507f1886f03d42b471bc8faf784e3878fce329e8e139473c601b8648de73b3380c0282826040516111d69291906124cd565b60405180910390a15050565b336000908152600b6020526040902054611258576040517f08c379a000000000000000000000000000000000000000000000000000000000815260206004820152600960248201527f6e6f7420616c6c6f770000000000000000000000000000000000000000000000604482015260640161051e565b6000600154116112c4576040517f08c379a000000000000000000000000000000000000000000000000000000000815260206004820152600660248201527f6e6f742045540000000000000000000000000000000000000000000000000000604482015260640161051e565b600080600154426112d59190612589565b905060006112e66201518083612513565b336000908152600b60205260408120549192509060789061130990610a2861254c565b6113139190612513565b90506001821015801561138a57503360009081526009602052604081208054909190611368577f4e487b7100000000000000000000000000000000000000000000000000000000600052603260045260246000fd5b90600052602060002090602091828204019190069054906101000a900460ff16155b1561141f5761271061139e826103e861254c565b6113a89190612513565b33600090815260096020526040812080549296506001929091906113f5577f4e487b7100000000000000000000000000000000000000000000000000000000600052603260045260246000fd5b90600052602060002090602091828204019190066101000a81548160ff0219169083151502179055505b6000601e61142e600185612589565b6114389190612513565b9050600f8111611448578061144b565b600f5b905060015b8181116115705733600090815260096020526040902080548290811061149f577f4e487b7100000000000000000000000000000000000000000000000000000000600052603260045260246000fd5b90600052602060002090602091828204019190069054906101000a900460ff1661155e576127106114d28461025861254c565b6114dc9190612513565b6114e690876124fb565b336000908152600960205260409020805491975060019183908110611534577f4e487b7100000000000000000000000000000000000000000000000000000000600052603260045260246000fd5b90600052602060002090602091828204019190066101000a81548160ff0219169083151502179055505b80611568816125a0565b915050611450565b50336000908152600d602052604090205461158c908690612589565b336000818152600d6020526040908190209290925560085491517fa9059cbb00000000000000000000000000000000000000000000000000000000815260048101919091526024810187905273ffffffffffffffffffffffffffffffffffffffff9091169063a9059cbb90604401602060405180830381600087803b15801561161457600080fd5b505af1158015611628573d6000803e3d6000fd5b505050506040513d601f19601f8201168201806040525081019061164c9190612449565b506040805133815260208101879052428183015290517ff279e6a1f5e320cca91135676d9cb6e44ca8a08c0b88342bcdb1144f6511b5689181900360600190a15050505050565b3360009081526004602052604090205460ff1661170c576040517f08c379a000000000000000000000000000000000000000000000000000000000815260206004820152600b60248201527f4e6f74206d616e61676572000000000000000000000000000000000000000000604482015260640161051e565b600f80547fffffffffffffffffffffffffffffffffffffffffffffffffffffffffffffff0016911515919091179055565b3360009081526004602052604090205460ff166117b6576040517f08c379a000000000000000000000000000000000000000000000000000000000815260206004820152600b60248201527f4e6f74206d616e61676572000000000000000000000000000000000000000000604482015260640161051e565b600080547fffffffffffffffffffffffffffffffffffffffffffffffffffffffffffffff0016911515919091179055565b60005473ffffffffffffffffffffffffffffffffffffffff6201000090910416331461186f576040517f08c379a000000000000000000000000000000000000000000000000000000000815260206004820181905260248201527f4f776e61626c653a2063616c6c6572206973206e6f7420746865206f776e6572604482015260640161051e565b600154156118d9576040517f08c379a000000000000000000000000000000000000000000000000000000000815260206004820152600d60248201527f74696d6520697320657869737400000000000000000000000000000000000000604482015260640161051e565b4260018190556040805133815260208101929092527f4100552e0c7d7733b482a8b5b352d5cf64221041a5cb5ad4f57474178741b69a910160405180910390a1565b73ffffffffffffffffffffffffffffffffffffffff8116600090815260096020526040902054611a0d576040805160108082526102208201909252600091602082016102008036833701905050905060005b81518110156119d35760008282815181106119b1577f4e487b7100000000000000000000000000000000000000000000000000000000600052603260045260246000fd5b91151560209283029190910190910152806119cb816125a0565b91505061196d565b5073ffffffffffffffffffffffffffffffffffffffff821660009081526009602090815260409091208251611a0a928401906121a6565b50505b50565b3360009081526004602052604090205460ff16611a89576040517f08c379a000000000000000000000000000000000000000000000000000000000815260206004820152600b60248201527f4e6f74206d616e61676572000000000000000000000000000000000000000000604482015260640161051e565b600880547fffffffffffffffffffffffff00000000000000000000000000000000000000001673ffffffffffffffffffffffffffffffffffffffff92909216919091179055565b60005473ffffffffffffffffffffffffffffffffffffffff62010000909104163314611b58576040517f08c379a000000000000000000000000000000000000000000000000000000000815260206004820181905260248201527f4f776e61626c653a2063616c6c6572206973206e6f7420746865206f776e6572604482015260640161051e565b73ffffffffffffffffffffffffffffffffffffffff821660008181526004602090815260409182902080547fffffffffffffffffffffffffffffffffffffffffffffffffffffffffffffff0016851515908117909155825133815291820193909352908101919091527f2862b022f51ffee932517d924c5103b3267a9d5d1f21bec54356e328aac24c18906060016111d6565b3360009081526004602052604090205460ff16611c64576040517f08c379a000000000000000000000000000000000000000000000000000000000815260206004820152600b60248201527f4e6f74206d616e61676572000000000000000000000000000000000000000000604482015260640161051e565b60008054911515610100027fffffffffffffffffffffffffffffffffffffffffffffffffffffffffffff00ff909216919091179055565b60096020528160005260406000208181548110611cb757600080fd5b9060005260206000209060209182820401919006915091509054906101000a900460ff1681565b336000908152600b6020526040812054611cf85750600090565b600060015411611d64576040517f08c379a000000000000000000000000000000000000000000000000000000000815260206004820152600660248201527f6e6f742045540000000000000000000000000000000000000000000000000000604482015260640161051e565b60008060015442611d759190612589565b90506000611d866201518083612513565b336000908152600b602052604081205491925090607890611da990610a2861254c565b611db39190612513565b905060018210158015611e2a57503360009081526009602052604081208054909190611e08577f4e487b7100000000000000000000000000000000000000000000000000000000600052603260045260246000fd5b90600052602060002090602091828204019190069054906101000a900460ff16155b15611e4b57612710611e3e826103e861254c565b611e489190612513565b93505b6000601e611e5a600185612589565b611e649190612513565b9050600f8111611e745780611e77565b600f5b905060015b818111611f2757336000908152600960205260409020805482908110611ecb577f4e487b7100000000000000000000000000000000000000000000000000000000600052603260045260246000fd5b90600052602060002090602091828204019190069054906101000a900460ff16611f1557612710611efe8461025861254c565b611f089190612513565b611f1290876124fb565b95505b80611f1f816125a0565b915050611e7c565b509395945050505050565b60005473ffffffffffffffffffffffffffffffffffffffff62010000909104163314611fba576040517f08c379a000000000000000000000000000000000000000000000000000000000815260206004820181905260248201527f4f776e61626c653a2063616c6c6572206973206e6f7420746865206f776e6572604482015260640161051e565b73ffffffffffffffffffffffffffffffffffffffff811661205d576040517f08c379a000000000000000000000000000000000000000000000000000000000815260206004820152602660248201527f4f776e61626c653a206e6577206f776e657220697320746865207a65726f206160448201527f6464726573730000000000000000000000000000000000000000000000000000606482015260840161051e565b6000805473ffffffffffffffffffffffffffffffffffffffff838116620100008181027fffffffffffffffffffff0000000000000000000000000000000000000000ffff85161790945560408051949093049091168084526020840191909152917f8be0079c531659141344cd1fd0a4f28419497f9722a3daafe3b4186f6b6457e091016111d6565b3360009081526004602052604090205460ff1661215f576040517f08c379a000000000000000000000000000000000000000000000000000000000815260206004820152600b60248201527f4e6f74206d616e61676572000000000000000000000000000000000000000000604482015260640161051e565b600780547fffffffffffffffffffffffff00000000000000000000000000000000000000001673ffffffffffffffffffffffffffffffffffffffff92909216919091179055565b82805482825590600052602060002090601f0160209004810192821561223b5791602002820160005b8382111561220c57835183826101000a81548160ff02191690831515021790555092602001926001016020816000010492830192600103026121cf565b80156122395782816101000a81549060ff021916905560010160208160000104928301926001030261220c565b505b5061224792915061224b565b5090565b5b80821115612247576000815560010161224c565b803573ffffffffffffffffffffffffffffffffffffffff8116811461228457600080fd5b919050565b600082601f830112612299578081fd5b8135602067ffffffffffffffff808311156122b6576122b6612608565b8260051b6040517fffffffffffffffffffffffffffffffffffffffffffffffffffffffffffffffe0603f830116810181811084821117156122f9576122f9612608565b60405284815283810192508684018288018501891015612317578687fd5b8692505b858310156123405761232c81612260565b84529284019260019290920191840161231b565b50979650505050505050565b60006020828403121561235d578081fd5b61236682612260565b9392505050565b6000806040838503121561237f578081fd5b61238883612260565b9150602083013561239881612637565b809150509250929050565b600080604083850312156123b5578182fd5b6123be83612260565b946020939093013593505050565b600080604083850312156123de578182fd5b823567ffffffffffffffff808211156123f5578384fd5b61240186838701612289565b93506020850135915080821115612416578283fd5b5061242385828601612289565b9150509250929050565b60006020828403121561243e578081fd5b813561236681612637565b60006020828403121561245a578081fd5b815161236681612637565b600060208284031215612476578081fd5b5035919050565b6000815180845260208085019450808401835b838110156124c257815173ffffffffffffffffffffffffffffffffffffffff1687529582019590820190600101612490565b509495945050505050565b6040815260006124e0604083018561247d565b82810360208401526124f2818561247d565b95945050505050565b6000821982111561250e5761250e6125d9565b500190565b600082612547577f4e487b710000000000000000000000000000000000000000000000000000000081526012600452602481fd5b500490565b6000817fffffffffffffffffffffffffffffffffffffffffffffffffffffffffffffffff0483118215151615612584576125846125d9565b500290565b60008282101561259b5761259b6125d9565b500390565b60007fffffffffffffffffffffffffffffffffffffffffffffffffffffffffffffffff8214156125d2576125d26125d9565b5060010190565b7f4e487b7100000000000000000000000000000000000000000000000000000000600052601160045260246000fd5b7f4e487b7100000000000000000000000000000000000000000000000000000000600052604160045260246000fd5b8015158114611a0d57600080fdfea264697066735822122047fae70d588f1c1cd485a39fffd411baa94b40f04de86fe9888db76ee031fa9e64736f6c63430008040033",
					"opcodes": "PUSH1 0x80 PUSH1 0x40 MSTORE PUSH8 0xDE0B6B3A7640000 PUSH1 0xE SSTORE CALLVALUE DUP1 ISZERO PUSH3 0x1D JUMPI PUSH1 0x0 DUP1 REVERT JUMPDEST POP PUSH1 0x40 MLOAD PUSH3 0x2875 CODESIZE SUB DUP1 PUSH3 0x2875 DUP4 CODECOPY DUP2 ADD PUSH1 0x40 DUP2 SWAP1 MSTORE PUSH3 0x40 SWAP2 PUSH3 0x1B3 JUMP JUMPDEST PUSH1 0x0 DUP1 SLOAD PUSH1 0xF DUP1 SLOAD PUSH1 0xFF NOT AND SWAP1 SSTORE PUSH1 0x5 DUP1 SLOAD PUSH1 0x1 PUSH1 0x1 PUSH1 0xA0 SHL SUB DUP1 DUP8 AND PUSH1 0x1 PUSH1 0x1 PUSH1 0xA0 SHL SUB NOT SWAP3 DUP4 AND OR SWAP1 SWAP3 SSTORE PUSH1 0x6 DUP1 SLOAD SWAP3 DUP7 AND SWAP3 SWAP1 SWAP2 AND SWAP2 SWAP1 SWAP2 OR SWAP1 SSTORE PUSH3 0x10000 CALLER SWAP1 DUP2 MUL PUSH1 0x1 PUSH1 0x1 PUSH1 0xB0 SHL SUB NOT SWAP1 SWAP3 AND SWAP2 SWAP1 SWAP2 OR PUSH2 0x101 OR SWAP1 SWAP2 SSTORE PUSH3 0xAA SWAP1 PUSH1 0x1 PUSH3 0xB2 JUMP JUMPDEST POP POP PUSH3 0x1EA JUMP JUMPDEST CALLER PUSH3 0xCC PUSH1 0x0 SLOAD PUSH3 0x10000 SWAP1 DIV PUSH1 0x1 PUSH1 0x1 PUSH1 0xA0 SHL SUB AND SWAP1 JUMP JUMPDEST PUSH1 0x1 PUSH1 0x1 PUSH1 0xA0 SHL SUB AND EQ PUSH3 0x127 JUMPI PUSH1 0x40 MLOAD PUSH3 0x461BCD PUSH1 0xE5 SHL DUP2 MSTORE PUSH1 0x20 PUSH1 0x4 DUP3 ADD DUP2 SWAP1 MSTORE PUSH1 0x24 DUP3 ADD MSTORE PUSH32 0x4F776E61626C653A2063616C6C6572206973206E6F7420746865206F776E6572 PUSH1 0x44 DUP3 ADD MSTORE PUSH1 0x64 ADD PUSH1 0x40 MLOAD DUP1 SWAP2 SUB SWAP1 REVERT JUMPDEST PUSH1 0x1 PUSH1 0x1 PUSH1 0xA0 SHL SUB DUP3 AND PUSH1 0x0 DUP2 DUP2 MSTORE PUSH1 0x4 PUSH1 0x20 SWAP1 DUP2 MSTORE PUSH1 0x40 SWAP2 DUP3 SWAP1 KECCAK256 DUP1 SLOAD PUSH1 0xFF NOT AND DUP6 ISZERO ISZERO SWAP1 DUP2 OR SWAP1 SWAP2 SSTORE DUP3 MLOAD CALLER DUP2 MSTORE SWAP2 DUP3 ADD SWAP4 SWAP1 SWAP4 MSTORE SWAP1 DUP2 ADD SWAP2 SWAP1 SWAP2 MSTORE PUSH32 0x2862B022F51FFEE932517D924C5103B3267A9D5D1F21BEC54356E328AAC24C18 SWAP1 PUSH1 0x60 ADD PUSH1 0x40 MLOAD DUP1 SWAP2 SUB SWAP1 LOG1 POP POP JUMP JUMPDEST DUP1 MLOAD PUSH1 0x1 PUSH1 0x1 PUSH1 0xA0 SHL SUB DUP2 AND DUP2 EQ PUSH3 0x1AE JUMPI PUSH1 0x0 DUP1 REVERT JUMPDEST SWAP2 SWAP1 POP JUMP JUMPDEST PUSH1 0x0 DUP1 PUSH1 0x40 DUP4 DUP6 SUB SLT ISZERO PUSH3 0x1C6 JUMPI DUP2 DUP3 REVERT JUMPDEST PUSH3 0x1D1 DUP4 PUSH3 0x196 JUMP JUMPDEST SWAP2 POP PUSH3 0x1E1 PUSH1 0x20 DUP5 ADD PUSH3 0x196 JUMP JUMPDEST SWAP1 POP SWAP3 POP SWAP3 SWAP1 POP JUMP JUMPDEST PUSH2 0x267B DUP1 PUSH3 0x1FA PUSH1 0x0 CODECOPY PUSH1 0x0 RETURN INVALID PUSH1 0x80 PUSH1 0x40 MSTORE CALLVALUE DUP1 ISZERO PUSH2 0x10 JUMPI PUSH1 0x0 DUP1 REVERT JUMPDEST POP PUSH1 0x4 CALLDATASIZE LT PUSH2 0x1DA JUMPI PUSH1 0x0 CALLDATALOAD PUSH1 0xE0 SHR DUP1 PUSH4 0x918A6283 GT PUSH2 0x104 JUMPI DUP1 PUSH4 0xD3B91F7A GT PUSH2 0xA2 JUMPI DUP1 PUSH4 0xF2FDE38B GT PUSH2 0x71 JUMPI DUP1 PUSH4 0xF2FDE38B EQ PUSH2 0x460 JUMPI DUP1 PUSH4 0xF3AE2415 EQ PUSH2 0x473 JUMPI DUP1 PUSH4 0xF56E9C66 EQ PUSH2 0x496 JUMPI DUP1 PUSH4 0xFB066531 EQ PUSH2 0x4A9 JUMPI PUSH1 0x0 DUP1 REVERT JUMPDEST DUP1 PUSH4 0xD3B91F7A EQ PUSH2 0x3EF JUMPI DUP1 PUSH4 0xE72EBDB7 EQ PUSH2 0x402 JUMPI DUP1 PUSH4 0xEF7A47FA EQ PUSH2 0x438 JUMPI DUP1 PUSH4 0xF06B41E3 EQ PUSH2 0x440 JUMPI PUSH1 0x0 DUP1 REVERT JUMPDEST DUP1 PUSH4 0xA5E90EEE GT PUSH2 0xDE JUMPI DUP1 PUSH4 0xA5E90EEE EQ PUSH2 0x39C JUMPI DUP1 PUSH4 0xC6B24C1C EQ PUSH2 0x3AF JUMPI DUP1 PUSH4 0xCA5CC206 EQ PUSH2 0x3CF JUMPI DUP1 PUSH4 0xCE75710C EQ PUSH2 0x3E2 JUMPI PUSH1 0x0 DUP1 REVERT JUMPDEST DUP1 PUSH4 0x918A6283 EQ PUSH2 0x356 JUMPI DUP1 PUSH4 0x965ED465 EQ PUSH2 0x369 JUMPI DUP1 PUSH4 0xA3F82C2C EQ PUSH2 0x37C JUMPI PUSH1 0x0 DUP1 REVERT JUMPDEST DUP1 PUSH4 0x68DA5E8E GT PUSH2 0x17C JUMPI DUP1 PUSH4 0x76BE6AF6 GT PUSH2 0x14B JUMPI DUP1 PUSH4 0x76BE6AF6 EQ PUSH2 0x301 JUMPI DUP1 PUSH4 0x8381F58A EQ PUSH2 0x309 JUMPI DUP1 PUSH4 0x8B9272B7 EQ PUSH2 0x312 JUMPI DUP1 PUSH4 0x8DA5CB5B EQ PUSH2 0x332 JUMPI PUSH1 0x0 DUP1 REVERT JUMPDEST DUP1 PUSH4 0x68DA5E8E EQ PUSH2 0x29B JUMPI DUP1 PUSH4 0x6A15915A EQ PUSH2 0x2BB JUMPI DUP1 PUSH4 0x6A41D5D7 EQ PUSH2 0x2CE JUMPI DUP1 PUSH4 0x6C68EC69 EQ PUSH2 0x2EE JUMPI PUSH1 0x0 DUP1 REVERT JUMPDEST DUP1 PUSH4 0x2F48AB7D GT PUSH2 0x1B8 JUMPI DUP1 PUSH4 0x2F48AB7D EQ PUSH2 0x223 JUMPI DUP1 PUSH4 0x3197CBB6 EQ PUSH2 0x268 JUMPI DUP1 PUSH4 0x3CCFD60B EQ PUSH2 0x271 JUMPI DUP1 PUSH4 0x5DB98F2D EQ PUSH2 0x279 JUMPI PUSH1 0x0 DUP1 REVERT JUMPDEST DUP1 PUSH4 0xE73D199 EQ PUSH2 0x1DF JUMPI DUP1 PUSH4 0x18160DDD EQ PUSH2 0x1F4 JUMPI DUP1 PUSH4 0x238C4C2F EQ PUSH2 0x210 JUMPI JUMPDEST PUSH1 0x0 DUP1 REVERT JUMPDEST PUSH2 0x1F2 PUSH2 0x1ED CALLDATASIZE PUSH1 0x4 PUSH2 0x2465 JUMP JUMPDEST PUSH2 0x4B6 JUMP JUMPDEST STOP JUMPDEST PUSH2 0x1FD PUSH1 0x2 SLOAD DUP2 JUMP JUMPDEST PUSH1 0x40 MLOAD SWAP1 DUP2 MSTORE PUSH1 0x20 ADD JUMPDEST PUSH1 0x40 MLOAD DUP1 SWAP2 SUB SWAP1 RETURN JUMPDEST PUSH2 0x1F2 PUSH2 0x21E CALLDATASIZE PUSH1 0x4 PUSH2 0x23CC JUMP JUMPDEST PUSH2 0xDA7 JUMP JUMPDEST PUSH1 0x6 SLOAD PUSH2 0x243 SWAP1 PUSH20 0xFFFFFFFFFFFFFFFFFFFFFFFFFFFFFFFFFFFFFFFF AND DUP2 JUMP JUMPDEST PUSH1 0x40 MLOAD PUSH20 0xFFFFFFFFFFFFFFFFFFFFFFFFFFFFFFFFFFFFFFFF SWAP1 SWAP2 AND DUP2 MSTORE PUSH1 0x20 ADD PUSH2 0x207 JUMP JUMPDEST PUSH2 0x1FD PUSH1 0x1 SLOAD DUP2 JUMP JUMPDEST PUSH2 0x1F2 PUSH2 0x11E2 JUMP JUMPDEST PUSH1 0x0 SLOAD PUSH2 0x28B SWAP1 PUSH2 0x100 SWAP1 DIV PUSH1 0xFF AND DUP2 JUMP JUMPDEST PUSH1 0x40 MLOAD SWAP1 ISZERO ISZERO DUP2 MSTORE PUSH1 0x20 ADD PUSH2 0x207 JUMP JUMPDEST PUSH1 0x7 SLOAD PUSH2 0x243 SWAP1 PUSH20 0xFFFFFFFFFFFFFFFFFFFFFFFFFFFFFFFFFFFFFFFF AND DUP2 JUMP JUMPDEST PUSH2 0x1F2 PUSH2 0x2C9 CALLDATASIZE PUSH1 0x4 PUSH2 0x242D JUMP JUMPDEST PUSH2 0x1693 JUMP JUMPDEST PUSH2 0x1FD PUSH2 0x2DC CALLDATASIZE PUSH1 0x4 PUSH2 0x234C JUMP JUMPDEST PUSH1 0xB PUSH1 0x20 MSTORE PUSH1 0x0 SWAP1 DUP2 MSTORE PUSH1 0x40 SWAP1 KECCAK256 SLOAD DUP2 JUMP JUMPDEST PUSH2 0x1F2 PUSH2 0x2FC CALLDATASIZE PUSH1 0x4 PUSH2 0x242D JUMP JUMPDEST PUSH2 0x173D JUMP JUMPDEST PUSH2 0x1F2 PUSH2 0x17E7 JUMP JUMPDEST PUSH2 0x1FD PUSH1 0x3 SLOAD DUP2 JUMP JUMPDEST PUSH1 0x8 SLOAD PUSH2 0x243 SWAP1 PUSH20 0xFFFFFFFFFFFFFFFFFFFFFFFFFFFFFFFFFFFFFFFF AND DUP2 JUMP JUMPDEST PUSH1 0x0 SLOAD PUSH3 0x10000 SWAP1 DIV PUSH20 0xFFFFFFFFFFFFFFFFFFFFFFFFFFFFFFFFFFFFFFFF AND PUSH2 0x243 JUMP JUMPDEST PUSH2 0x1F2 PUSH2 0x364 CALLDATASIZE PUSH1 0x4 PUSH2 0x234C JUMP JUMPDEST PUSH2 0x191B JUMP JUMPDEST PUSH2 0x1F2 PUSH2 0x377 CALLDATASIZE PUSH1 0x4 PUSH2 0x234C JUMP JUMPDEST PUSH2 0x1A10 JUMP JUMPDEST PUSH2 0x1FD PUSH2 0x38A CALLDATASIZE PUSH1 0x4 PUSH2 0x234C JUMP JUMPDEST PUSH1 0xD PUSH1 0x20 MSTORE PUSH1 0x0 SWAP1 DUP2 MSTORE PUSH1 0x40 SWAP1 KECCAK256 SLOAD DUP2 JUMP JUMPDEST PUSH2 0x1F2 PUSH2 0x3AA CALLDATASIZE PUSH1 0x4 PUSH2 0x236D JUMP JUMPDEST PUSH2 0x1AD0 JUMP JUMPDEST PUSH1 0x5 SLOAD PUSH2 0x243 SWAP1 PUSH20 0xFFFFFFFFFFFFFFFFFFFFFFFFFFFFFFFFFFFFFFFF AND DUP2 JUMP JUMPDEST PUSH2 0x1F2 PUSH2 0x3DD CALLDATASIZE PUSH1 0x4 PUSH2 0x242D JUMP JUMPDEST PUSH2 0x1BEB JUMP JUMPDEST PUSH1 0xF SLOAD PUSH2 0x28B SWAP1 PUSH1 0xFF AND DUP2 JUMP JUMPDEST PUSH2 0x28B PUSH2 0x3FD CALLDATASIZE PUSH1 0x4 PUSH2 0x23A3 JUMP JUMPDEST PUSH2 0x1C9B JUMP JUMPDEST PUSH2 0x243 PUSH2 0x410 CALLDATASIZE PUSH1 0x4 PUSH2 0x234C JUMP JUMPDEST PUSH1 0xA PUSH1 0x20 MSTORE PUSH1 0x0 SWAP1 DUP2 MSTORE PUSH1 0x40 SWAP1 KECCAK256 SLOAD PUSH20 0xFFFFFFFFFFFFFFFFFFFFFFFFFFFFFFFFFFFFFFFF AND DUP2 JUMP JUMPDEST PUSH2 0x1FD PUSH2 0x1CDE JUMP JUMPDEST PUSH2 0x1FD PUSH2 0x44E CALLDATASIZE PUSH1 0x4 PUSH2 0x234C JUMP JUMPDEST PUSH1 0xC PUSH1 0x20 MSTORE PUSH1 0x0 SWAP1 DUP2 MSTORE PUSH1 0x40 SWAP1 KECCAK256 SLOAD DUP2 JUMP JUMPDEST PUSH2 0x1F2 PUSH2 0x46E CALLDATASIZE PUSH1 0x4 PUSH2 0x234C JUMP JUMPDEST PUSH2 0x1F32 JUMP JUMPDEST PUSH2 0x28B PUSH2 0x481 CALLDATASIZE PUSH1 0x4 PUSH2 0x234C JUMP JUMPDEST PUSH1 0x4 PUSH1 0x20 MSTORE PUSH1 0x0 SWAP1 DUP2 MSTORE PUSH1 0x40 SWAP1 KECCAK256 SLOAD PUSH1 0xFF AND DUP2 JUMP JUMPDEST PUSH2 0x1F2 PUSH2 0x4A4 CALLDATASIZE PUSH1 0x4 PUSH2 0x234C JUMP JUMPDEST PUSH2 0x20E6 JUMP JUMPDEST PUSH1 0x0 SLOAD PUSH2 0x28B SWAP1 PUSH1 0xFF AND DUP2 JUMP JUMPDEST PUSH1 0xF SLOAD PUSH1 0xFF AND PUSH2 0x527 JUMPI PUSH1 0x40 MLOAD PUSH32 0x8C379A000000000000000000000000000000000000000000000000000000000 DUP2 MSTORE PUSH1 0x20 PUSH1 0x4 DUP3 ADD MSTORE PUSH1 0xD PUSH1 0x24 DUP3 ADD MSTORE PUSH32 0x69646F20697320636C6F73656400000000000000000000000000000000000000 PUSH1 0x44 DUP3 ADD MSTORE PUSH1 0x64 ADD JUMPDEST PUSH1 0x40 MLOAD DUP1 SWAP2 SUB SWAP1 REVERT JUMPDEST PUSH1 0x0 DUP2 GT PUSH2 0x591 JUMPI PUSH1 0x40 MLOAD PUSH32 0x8C379A000000000000000000000000000000000000000000000000000000000 DUP2 MSTORE PUSH1 0x20 PUSH1 0x4 DUP3 ADD MSTORE PUSH1 0xD PUSH1 0x24 DUP3 ADD MSTORE PUSH32 0x76616C7565206973207A65726F00000000000000000000000000000000000000 PUSH1 0x44 DUP3 ADD MSTORE PUSH1 0x64 ADD PUSH2 0x51E JUMP JUMPDEST CALLER PUSH1 0x0 DUP2 DUP2 MSTORE PUSH1 0xB PUSH1 0x20 MSTORE PUSH1 0x40 SWAP1 KECCAK256 SLOAD PUSH1 0xE SLOAD PUSH2 0x5B0 SWAP1 PUSH2 0x7D0 PUSH2 0x254C JUMP JUMPDEST DUP2 LT ISZERO DUP1 PUSH2 0x5D5 JUMPI POP PUSH1 0xE SLOAD PUSH2 0x5C8 SWAP1 PUSH2 0x7D0 PUSH2 0x254C JUMP JUMPDEST PUSH2 0x5D2 DUP5 DUP4 PUSH2 0x24FB JUMP JUMPDEST LT ISZERO JUMPDEST ISZERO PUSH2 0x64B JUMPI PUSH1 0x0 SLOAD PUSH2 0x100 SWAP1 DIV PUSH1 0xFF AND PUSH2 0x64B JUMPI PUSH1 0x40 MLOAD PUSH32 0x8C379A000000000000000000000000000000000000000000000000000000000 DUP2 MSTORE PUSH1 0x20 PUSH1 0x4 DUP3 ADD MSTORE PUSH1 0x13 PUSH1 0x24 DUP3 ADD MSTORE PUSH32 0x74776F2074686F7573616E6420636C6F73656400000000000000000000000000 PUSH1 0x44 DUP3 ADD MSTORE PUSH1 0x64 ADD PUSH2 0x51E JUMP JUMPDEST PUSH1 0xE SLOAD PUSH2 0x65A SWAP1 PUSH2 0x7D0 PUSH2 0x254C JUMP JUMPDEST PUSH2 0x664 DUP5 DUP4 PUSH2 0x24FB JUMP JUMPDEST GT ISZERO PUSH2 0x6CC JUMPI PUSH1 0x40 MLOAD PUSH32 0x8C379A000000000000000000000000000000000000000000000000000000000 DUP2 MSTORE PUSH1 0x20 PUSH1 0x4 DUP3 ADD MSTORE PUSH1 0x7 PUSH1 0x24 DUP3 ADD MSTORE PUSH32 0x6E6F742049444F00000000000000000000000000000000000000000000000000 PUSH1 0x44 DUP3 ADD MSTORE PUSH1 0x64 ADD PUSH2 0x51E JUMP JUMPDEST PUSH20 0xFFFFFFFFFFFFFFFFFFFFFFFFFFFFFFFFFFFFFFFF DUP1 DUP4 AND PUSH1 0x0 SWAP1 DUP2 MSTORE PUSH1 0xA PUSH1 0x20 MSTORE PUSH1 0x40 SWAP1 KECCAK256 SLOAD AND DUP1 ISZERO PUSH2 0x9F0 JUMPI PUSH20 0xFFFFFFFFFFFFFFFFFFFFFFFFFFFFFFFFFFFFFFFF DUP2 AND PUSH1 0x0 SWAP1 DUP2 MSTORE PUSH1 0xB PUSH1 0x20 MSTORE PUSH1 0x40 SWAP1 KECCAK256 SLOAD ISZERO PUSH2 0x8DC JUMPI PUSH1 0x0 PUSH2 0x2710 PUSH2 0x736 DUP7 PUSH2 0x1F4 PUSH2 0x254C JUMP JUMPDEST PUSH2 0x740 SWAP2 SWAP1 PUSH2 0x2513 JUMP JUMPDEST PUSH1 0x6 SLOAD PUSH1 0x40 MLOAD PUSH32 0x23B872DD00000000000000000000000000000000000000000000000000000000 DUP2 MSTORE PUSH20 0xFFFFFFFFFFFFFFFFFFFFFFFFFFFFFFFFFFFFFFFF DUP8 DUP2 AND PUSH1 0x4 DUP4 ADD MSTORE DUP6 DUP2 AND PUSH1 0x24 DUP4 ADD MSTORE PUSH1 0x44 DUP3 ADD DUP5 SWAP1 MSTORE SWAP3 SWAP4 POP SWAP2 AND SWAP1 PUSH4 0x23B872DD SWAP1 PUSH1 0x64 ADD PUSH1 0x20 PUSH1 0x40 MLOAD DUP1 DUP4 SUB DUP2 PUSH1 0x0 DUP8 DUP1 EXTCODESIZE ISZERO DUP1 ISZERO PUSH2 0x7BE JUMPI PUSH1 0x0 DUP1 REVERT JUMPDEST POP GAS CALL ISZERO DUP1 ISZERO PUSH2 0x7D2 JUMPI RETURNDATASIZE PUSH1 0x0 DUP1 RETURNDATACOPY RETURNDATASIZE PUSH1 0x0 REVERT JUMPDEST POP POP POP POP PUSH1 0x40 MLOAD RETURNDATASIZE PUSH1 0x1F NOT PUSH1 0x1F DUP3 ADD AND DUP3 ADD DUP1 PUSH1 0x40 MSTORE POP DUP2 ADD SWAP1 PUSH2 0x7F6 SWAP2 SWAP1 PUSH2 0x2449 JUMP JUMPDEST POP PUSH1 0x6 SLOAD PUSH1 0x5 SLOAD PUSH20 0xFFFFFFFFFFFFFFFFFFFFFFFFFFFFFFFFFFFFFFFF SWAP2 DUP3 AND SWAP2 PUSH4 0x23B872DD SWAP2 DUP8 SWAP2 AND PUSH2 0x829 DUP6 DUP11 PUSH2 0x2589 JUMP JUMPDEST PUSH1 0x40 MLOAD PUSH32 0xFFFFFFFF00000000000000000000000000000000000000000000000000000000 PUSH1 0xE0 DUP7 SWAP1 SHL AND DUP2 MSTORE PUSH20 0xFFFFFFFFFFFFFFFFFFFFFFFFFFFFFFFFFFFFFFFF SWAP4 DUP5 AND PUSH1 0x4 DUP3 ADD MSTORE SWAP3 SWAP1 SWAP2 AND PUSH1 0x24 DUP4 ADD MSTORE PUSH1 0x44 DUP3 ADD MSTORE PUSH1 0x64 ADD PUSH1 0x20 PUSH1 0x40 MLOAD DUP1 DUP4 SUB DUP2 PUSH1 0x0 DUP8 DUP1 EXTCODESIZE ISZERO DUP1 ISZERO PUSH2 0x89D JUMPI PUSH1 0x0 DUP1 REVERT JUMPDEST POP GAS CALL ISZERO DUP1 ISZERO PUSH2 0x8B1 JUMPI RETURNDATASIZE PUSH1 0x0 DUP1 RETURNDATACOPY RETURNDATASIZE PUSH1 0x0 REVERT JUMPDEST POP POP POP POP PUSH1 0x40 MLOAD RETURNDATASIZE PUSH1 0x1F NOT PUSH1 0x1F DUP3 ADD AND DUP3 ADD DUP1 PUSH1 0x40 MSTORE POP DUP2 ADD SWAP1 PUSH2 0x8D5 SWAP2 SWAP1 PUSH2 0x2449 JUMP JUMPDEST POP POP PUSH2 0x994 JUMP JUMPDEST PUSH1 0x6 SLOAD PUSH1 0x5 SLOAD PUSH1 0x40 MLOAD PUSH32 0x23B872DD00000000000000000000000000000000000000000000000000000000 DUP2 MSTORE PUSH20 0xFFFFFFFFFFFFFFFFFFFFFFFFFFFFFFFFFFFFFFFF DUP7 DUP2 AND PUSH1 0x4 DUP4 ADD MSTORE SWAP2 DUP3 AND PUSH1 0x24 DUP3 ADD MSTORE PUSH1 0x44 DUP2 ADD DUP8 SWAP1 MSTORE SWAP2 AND SWAP1 PUSH4 0x23B872DD SWAP1 PUSH1 0x64 ADD PUSH1 0x20 PUSH1 0x40 MLOAD DUP1 DUP4 SUB DUP2 PUSH1 0x0 DUP8 DUP1 EXTCODESIZE ISZERO DUP1 ISZERO PUSH2 0x95A JUMPI PUSH1 0x0 DUP1 REVERT JUMPDEST POP GAS CALL ISZERO DUP1 ISZERO PUSH2 0x96E JUMPI RETURNDATASIZE PUSH1 0x0 DUP1 RETURNDATACOPY RETURNDATASIZE PUSH1 0x0 REVERT JUMPDEST POP POP POP POP PUSH1 0x40 MLOAD RETURNDATASIZE PUSH1 0x1F NOT PUSH1 0x1F DUP3 ADD AND DUP3 ADD DUP1 PUSH1 0x40 MSTORE POP DUP2 ADD SWAP1 PUSH2 0x992 SWAP2 SWAP1 PUSH2 0x2449 JUMP JUMPDEST POP JUMPDEST PUSH20 0xFFFFFFFFFFFFFFFFFFFFFFFFFFFFFFFFFFFFFFFF DUP2 AND PUSH1 0x0 SWAP1 DUP2 MSTORE PUSH1 0xC PUSH1 0x20 MSTORE PUSH1 0x40 SWAP1 KECCAK256 SLOAD PUSH2 0x9C5 SWAP1 DUP6 SWAP1 PUSH2 0x24FB JUMP JUMPDEST PUSH20 0xFFFFFFFFFFFFFFFFFFFFFFFFFFFFFFFFFFFFFFFF DUP3 AND PUSH1 0x0 SWAP1 DUP2 MSTORE PUSH1 0xC PUSH1 0x20 MSTORE PUSH1 0x40 SWAP1 KECCAK256 SSTORE PUSH2 0xAA8 JUMP JUMPDEST PUSH1 0x6 SLOAD PUSH1 0x5 SLOAD PUSH1 0x40 MLOAD PUSH32 0x23B872DD00000000000000000000000000000000000000000000000000000000 DUP2 MSTORE PUSH20 0xFFFFFFFFFFFFFFFFFFFFFFFFFFFFFFFFFFFFFFFF DUP7 DUP2 AND PUSH1 0x4 DUP4 ADD MSTORE SWAP2 DUP3 AND PUSH1 0x24 DUP3 ADD MSTORE PUSH1 0x44 DUP2 ADD DUP8 SWAP1 MSTORE SWAP2 AND SWAP1 PUSH4 0x23B872DD SWAP1 PUSH1 0x64 ADD PUSH1 0x20 PUSH1 0x40 MLOAD DUP1 DUP4 SUB DUP2 PUSH1 0x0 DUP8 DUP1 EXTCODESIZE ISZERO DUP1 ISZERO PUSH2 0xA6E JUMPI PUSH1 0x0 DUP1 REVERT JUMPDEST POP GAS CALL ISZERO DUP1 ISZERO PUSH2 0xA82 JUMPI RETURNDATASIZE PUSH1 0x0 DUP1 RETURNDATACOPY RETURNDATASIZE PUSH1 0x0 REVERT JUMPDEST POP POP POP POP PUSH1 0x40 MLOAD RETURNDATASIZE PUSH1 0x1F NOT PUSH1 0x1F DUP3 ADD AND DUP3 ADD DUP1 PUSH1 0x40 MSTORE POP DUP2 ADD SWAP1 PUSH2 0xAA6 SWAP2 SWAP1 PUSH2 0x2449 JUMP JUMPDEST POP JUMPDEST PUSH2 0xAB2 DUP5 DUP4 PUSH2 0x24FB JUMP JUMPDEST PUSH20 0xFFFFFFFFFFFFFFFFFFFFFFFFFFFFFFFFFFFFFFFF DUP5 AND PUSH1 0x0 SWAP1 DUP2 MSTORE PUSH1 0xB PUSH1 0x20 MSTORE PUSH1 0x40 SWAP1 KECCAK256 SSTORE PUSH1 0x2 SLOAD PUSH2 0xAE6 SWAP1 DUP6 SWAP1 PUSH2 0x24FB JUMP JUMPDEST PUSH1 0x2 SSTORE PUSH1 0x3 DUP1 SLOAD SWAP1 PUSH1 0x0 PUSH2 0xAF9 DUP4 PUSH2 0x25A0 JUMP JUMPDEST SWAP1 SWAP2 SSTORE POP POP PUSH20 0xFFFFFFFFFFFFFFFFFFFFFFFFFFFFFFFFFFFFFFFF DUP4 AND PUSH1 0x0 SWAP1 DUP2 MSTORE PUSH1 0xB PUSH1 0x20 MSTORE PUSH1 0x40 SWAP1 KECCAK256 SLOAD PUSH1 0x78 SWAP1 PUSH2 0xB33 SWAP1 PUSH2 0xA28 PUSH2 0x254C JUMP JUMPDEST PUSH2 0xB3D SWAP2 SWAP1 PUSH2 0x2513 JUMP JUMPDEST PUSH20 0xFFFFFFFFFFFFFFFFFFFFFFFFFFFFFFFFFFFFFFFF DUP5 AND PUSH1 0x0 SWAP1 DUP2 MSTORE PUSH1 0xD PUSH1 0x20 MSTORE PUSH1 0x40 SWAP1 KECCAK256 SSTORE PUSH1 0xE SLOAD PUSH2 0xB72 SWAP1 PUSH2 0x7D0 PUSH2 0x254C JUMP JUMPDEST PUSH20 0xFFFFFFFFFFFFFFFFFFFFFFFFFFFFFFFFFFFFFFFF DUP5 AND PUSH1 0x0 SWAP1 DUP2 MSTORE PUSH1 0xB PUSH1 0x20 MSTORE PUSH1 0x40 SWAP1 KECCAK256 SLOAD LT PUSH2 0xC23 JUMPI PUSH1 0x7 SLOAD PUSH1 0x40 MLOAD PUSH32 0x40D097C300000000000000000000000000000000000000000000000000000000 DUP2 MSTORE PUSH20 0xFFFFFFFFFFFFFFFFFFFFFFFFFFFFFFFFFFFFFFFF DUP6 DUP2 AND PUSH1 0x4 DUP4 ADD MSTORE SWAP1 SWAP2 AND SWAP1 PUSH4 0x40D097C3 SWAP1 PUSH1 0x24 ADD PUSH1 0x0 PUSH1 0x40 MLOAD DUP1 DUP4 SUB DUP2 PUSH1 0x0 DUP8 DUP1 EXTCODESIZE ISZERO DUP1 ISZERO PUSH2 0xC0A JUMPI PUSH1 0x0 DUP1 REVERT JUMPDEST POP GAS CALL ISZERO DUP1 ISZERO PUSH2 0xC1E JUMPI RETURNDATASIZE PUSH1 0x0 DUP1 RETURNDATACOPY RETURNDATASIZE PUSH1 0x0 REVERT JUMPDEST POP POP POP POP JUMPDEST PUSH1 0xE SLOAD PUSH2 0xC32 SWAP1 PUSH2 0xBB8 PUSH2 0x254C JUMP JUMPDEST PUSH20 0xFFFFFFFFFFFFFFFFFFFFFFFFFFFFFFFFFFFFFFFF DUP3 AND PUSH1 0x0 SWAP1 DUP2 MSTORE PUSH1 0xC PUSH1 0x20 MSTORE PUSH1 0x40 SWAP1 KECCAK256 SLOAD LT PUSH2 0xD49 JUMPI PUSH1 0x7 SLOAD PUSH1 0x40 MLOAD PUSH32 0x40D097C300000000000000000000000000000000000000000000000000000000 DUP2 MSTORE PUSH20 0xFFFFFFFFFFFFFFFFFFFFFFFFFFFFFFFFFFFFFFFF DUP4 DUP2 AND PUSH1 0x4 DUP4 ADD MSTORE SWAP1 SWAP2 AND SWAP1 PUSH4 0x40D097C3 SWAP1 PUSH1 0x24 ADD PUSH1 0x0 PUSH1 0x40 MLOAD DUP1 DUP4 SUB DUP2 PUSH1 0x0 DUP8 DUP1 EXTCODESIZE ISZERO DUP1 ISZERO PUSH2 0xCCA JUMPI PUSH1 0x0 DUP1 REVERT JUMPDEST POP GAS CALL ISZERO DUP1 ISZERO PUSH2 0xCDE JUMPI RETURNDATASIZE PUSH1 0x0 DUP1 RETURNDATACOPY RETURNDATASIZE PUSH1 0x0 REVERT JUMPDEST POP POP POP POP PUSH1 0xE SLOAD PUSH2 0xBB8 PUSH2 0xCF2 SWAP2 SWAP1 PUSH2 0x254C JUMP JUMPDEST PUSH20 0xFFFFFFFFFFFFFFFFFFFFFFFFFFFFFFFFFFFFFFFF DUP3 AND PUSH1 0x0 SWAP1 DUP2 MSTORE PUSH1 0xC PUSH1 0x20 MSTORE PUSH1 0x40 SWAP1 KECCAK256 SLOAD PUSH2 0xD22 SWAP2 SWAP1 PUSH2 0x2589 JUMP JUMPDEST PUSH20 0xFFFFFFFFFFFFFFFFFFFFFFFFFFFFFFFFFFFFFFFF DUP3 AND PUSH1 0x0 SWAP1 DUP2 MSTORE PUSH1 0xC PUSH1 0x20 MSTORE PUSH1 0x40 SWAP1 KECCAK256 SSTORE JUMPDEST PUSH2 0xD52 DUP4 PUSH2 0x191B JUMP JUMPDEST PUSH1 0x40 DUP1 MLOAD PUSH20 0xFFFFFFFFFFFFFFFFFFFFFFFFFFFFFFFFFFFFFFFF DUP6 AND DUP2 MSTORE PUSH1 0x20 DUP2 ADD DUP7 SWAP1 MSTORE PUSH32 0x80BF12451B207525905F2FE9E47714FBCD5AA383B228F656B880136E66B288F SWAP2 ADD PUSH1 0x40 MLOAD DUP1 SWAP2 SUB SWAP1 LOG1 POP POP POP POP JUMP JUMPDEST PUSH1 0x0 SLOAD PUSH20 0xFFFFFFFFFFFFFFFFFFFFFFFFFFFFFFFFFFFFFFFF PUSH3 0x10000 SWAP1 SWAP2 DIV AND CALLER EQ PUSH2 0xE2F JUMPI PUSH1 0x40 MLOAD PUSH32 0x8C379A000000000000000000000000000000000000000000000000000000000 DUP2 MSTORE PUSH1 0x20 PUSH1 0x4 DUP3 ADD DUP2 SWAP1 MSTORE PUSH1 0x24 DUP3 ADD MSTORE PUSH32 0x4F776E61626C653A2063616C6C6572206973206E6F7420746865206F776E6572 PUSH1 0x44 DUP3 ADD MSTORE PUSH1 0x64 ADD PUSH2 0x51E JUMP JUMPDEST DUP1 MLOAD DUP3 MLOAD EQ PUSH2 0xE9A JUMPI PUSH1 0x40 MLOAD PUSH32 0x8C379A000000000000000000000000000000000000000000000000000000000 DUP2 MSTORE PUSH1 0x20 PUSH1 0x4 DUP3 ADD MSTORE PUSH1 0xF PUSH1 0x24 DUP3 ADD MSTORE PUSH32 0x6C656E6774682069732077726F6E670000000000000000000000000000000000 PUSH1 0x44 DUP3 ADD MSTORE PUSH1 0x64 ADD PUSH2 0x51E JUMP JUMPDEST PUSH1 0x0 JUMPDEST DUP3 MLOAD DUP2 LT ISZERO PUSH2 0x11A4 JUMPI PUSH1 0x0 PUSH20 0xFFFFFFFFFFFFFFFFFFFFFFFFFFFFFFFFFFFFFFFF AND DUP4 DUP3 DUP2 MLOAD DUP2 LT PUSH2 0xEF7 JUMPI PUSH32 0x4E487B7100000000000000000000000000000000000000000000000000000000 PUSH1 0x0 MSTORE PUSH1 0x32 PUSH1 0x4 MSTORE PUSH1 0x24 PUSH1 0x0 REVERT JUMPDEST PUSH1 0x20 MUL PUSH1 0x20 ADD ADD MLOAD PUSH20 0xFFFFFFFFFFFFFFFFFFFFFFFFFFFFFFFFFFFFFFFF AND EQ ISZERO PUSH2 0xF7D JUMPI PUSH1 0x40 MLOAD PUSH32 0x8C379A000000000000000000000000000000000000000000000000000000000 DUP2 MSTORE PUSH1 0x20 PUSH1 0x4 DUP3 ADD MSTORE PUSH1 0x10 PUSH1 0x24 DUP3 ADD MSTORE PUSH32 0x616464726573732069732077726F6E6700000000000000000000000000000000 PUSH1 0x44 DUP3 ADD MSTORE PUSH1 0x64 ADD PUSH2 0x51E JUMP JUMPDEST DUP2 DUP2 DUP2 MLOAD DUP2 LT PUSH2 0xFB6 JUMPI PUSH32 0x4E487B7100000000000000000000000000000000000000000000000000000000 PUSH1 0x0 MSTORE PUSH1 0x32 PUSH1 0x4 MSTORE PUSH1 0x24 PUSH1 0x0 REVERT JUMPDEST PUSH1 0x20 MUL PUSH1 0x20 ADD ADD MLOAD PUSH20 0xFFFFFFFFFFFFFFFFFFFFFFFFFFFFFFFFFFFFFFFF AND DUP4 DUP3 DUP2 MLOAD DUP2 LT PUSH2 0x100D JUMPI PUSH32 0x4E487B7100000000000000000000000000000000000000000000000000000000 PUSH1 0x0 MSTORE PUSH1 0x32 PUSH1 0x4 MSTORE PUSH1 0x24 PUSH1 0x0 REVERT JUMPDEST PUSH1 0x20 MUL PUSH1 0x20 ADD ADD MLOAD PUSH20 0xFFFFFFFFFFFFFFFFFFFFFFFFFFFFFFFFFFFFFFFF AND EQ ISZERO PUSH2 0x1093 JUMPI PUSH1 0x40 MLOAD PUSH32 0x8C379A000000000000000000000000000000000000000000000000000000000 DUP2 MSTORE PUSH1 0x20 PUSH1 0x4 DUP3 ADD MSTORE PUSH1 0xF PUSH1 0x24 DUP3 ADD MSTORE PUSH32 0x61646472657320697320657175616C0000000000000000000000000000000000 PUSH1 0x44 DUP3 ADD MSTORE PUSH1 0x64 ADD PUSH2 0x51E JUMP JUMPDEST DUP2 DUP2 DUP2 MLOAD DUP2 LT PUSH2 0x10CC JUMPI PUSH32 0x4E487B7100000000000000000000000000000000000000000000000000000000 PUSH1 0x0 MSTORE PUSH1 0x32 PUSH1 0x4 MSTORE PUSH1 0x24 PUSH1 0x0 REVERT JUMPDEST PUSH1 0x20 MUL PUSH1 0x20 ADD ADD MLOAD PUSH1 0xA PUSH1 0x0 DUP6 DUP5 DUP2 MLOAD DUP2 LT PUSH2 0x1111 JUMPI PUSH32 0x4E487B7100000000000000000000000000000000000000000000000000000000 PUSH1 0x0 MSTORE PUSH1 0x32 PUSH1 0x4 MSTORE PUSH1 0x24 PUSH1 0x0 REVERT JUMPDEST PUSH1 0x20 MUL PUSH1 0x20 ADD ADD MLOAD PUSH20 0xFFFFFFFFFFFFFFFFFFFFFFFFFFFFFFFFFFFFFFFF AND PUSH20 0xFFFFFFFFFFFFFFFFFFFFFFFFFFFFFFFFFFFFFFFF AND DUP2 MSTORE PUSH1 0x20 ADD SWAP1 DUP2 MSTORE PUSH1 0x20 ADD PUSH1 0x0 KECCAK256 PUSH1 0x0 PUSH2 0x100 EXP DUP2 SLOAD DUP2 PUSH20 0xFFFFFFFFFFFFFFFFFFFFFFFFFFFFFFFFFFFFFFFF MUL NOT AND SWAP1 DUP4 PUSH20 0xFFFFFFFFFFFFFFFFFFFFFFFFFFFFFFFFFFFFFFFF AND MUL OR SWAP1 SSTORE POP DUP1 DUP1 PUSH2 0x119C SWAP1 PUSH2 0x25A0 JUMP JUMPDEST SWAP2 POP POP PUSH2 0xE9D JUMP JUMPDEST POP PUSH32 0x1886F03D42B471BC8FAF784E3878FCE329E8E139473C601B8648DE73B3380C02 DUP3 DUP3 PUSH1 0x40 MLOAD PUSH2 0x11D6 SWAP3 SWAP2 SWAP1 PUSH2 0x24CD JUMP JUMPDEST PUSH1 0x40 MLOAD DUP1 SWAP2 SUB SWAP1 LOG1 POP POP JUMP JUMPDEST CALLER PUSH1 0x0 SWAP1 DUP2 MSTORE PUSH1 0xB PUSH1 0x20 MSTORE PUSH1 0x40 SWAP1 KECCAK256 SLOAD PUSH2 0x1258 JUMPI PUSH1 0x40 MLOAD PUSH32 0x8C379A000000000000000000000000000000000000000000000000000000000 DUP2 MSTORE PUSH1 0x20 PUSH1 0x4 DUP3 ADD MSTORE PUSH1 0x9 PUSH1 0x24 DUP3 ADD MSTORE PUSH32 0x6E6F7420616C6C6F770000000000000000000000000000000000000000000000 PUSH1 0x44 DUP3 ADD MSTORE PUSH1 0x64 ADD PUSH2 0x51E JUMP JUMPDEST PUSH1 0x0 PUSH1 0x1 SLOAD GT PUSH2 0x12C4 JUMPI PUSH1 0x40 MLOAD PUSH32 0x8C379A000000000000000000000000000000000000000000000000000000000 DUP2 MSTORE PUSH1 0x20 PUSH1 0x4 DUP3 ADD MSTORE PUSH1 0x6 PUSH1 0x24 DUP3 ADD MSTORE PUSH32 0x6E6F742045540000000000000000000000000000000000000000000000000000 PUSH1 0x44 DUP3 ADD MSTORE PUSH1 0x64 ADD PUSH2 0x51E JUMP JUMPDEST PUSH1 0x0 DUP1 PUSH1 0x1 SLOAD TIMESTAMP PUSH2 0x12D5 SWAP2 SWAP1 PUSH2 0x2589 JUMP JUMPDEST SWAP1 POP PUSH1 0x0 PUSH2 0x12E6 PUSH3 0x15180 DUP4 PUSH2 0x2513 JUMP JUMPDEST CALLER PUSH1 0x0 SWAP1 DUP2 MSTORE PUSH1 0xB PUSH1 0x20 MSTORE PUSH1 0x40 DUP2 KECCAK256 SLOAD SWAP2 SWAP3 POP SWAP1 PUSH1 0x78 SWAP1 PUSH2 0x1309 SWAP1 PUSH2 0xA28 PUSH2 0x254C JUMP JUMPDEST PUSH2 0x1313 SWAP2 SWAP1 PUSH2 0x2513 JUMP JUMPDEST SWAP1 POP PUSH1 0x1 DUP3 LT ISZERO DUP1 ISZERO PUSH2 0x138A JUMPI POP CALLER PUSH1 0x0 SWAP1 DUP2 MSTORE PUSH1 0x9 PUSH1 0x20 MSTORE PUSH1 0x40 DUP2 KECCAK256 DUP1 SLOAD SWAP1 SWAP2 SWAP1 PUSH2 0x1368 JUMPI PUSH32 0x4E487B7100000000000000000000000000000000000000000000000000000000 PUSH1 0x0 MSTORE PUSH1 0x32 PUSH1 0x4 MSTORE PUSH1 0x24 PUSH1 0x0 REVERT JUMPDEST SWAP1 PUSH1 0x0 MSTORE PUSH1 0x20 PUSH1 0x0 KECCAK256 SWAP1 PUSH1 0x20 SWAP2 DUP3 DUP3 DIV ADD SWAP2 SWAP1 MOD SWAP1 SLOAD SWAP1 PUSH2 0x100 EXP SWAP1 DIV PUSH1 0xFF AND ISZERO JUMPDEST ISZERO PUSH2 0x141F JUMPI PUSH2 0x2710 PUSH2 0x139E DUP3 PUSH2 0x3E8 PUSH2 0x254C JUMP JUMPDEST PUSH2 0x13A8 SWAP2 SWAP1 PUSH2 0x2513 JUMP JUMPDEST CALLER PUSH1 0x0 SWAP1 DUP2 MSTORE PUSH1 0x9 PUSH1 0x20 MSTORE PUSH1 0x40 DUP2 KECCAK256 DUP1 SLOAD SWAP3 SWAP7 POP PUSH1 0x1 SWAP3 SWAP1 SWAP2 SWAP1 PUSH2 0x13F5 JUMPI PUSH32 0x4E487B7100000000000000000000000000000000000000000000000000000000 PUSH1 0x0 MSTORE PUSH1 0x32 PUSH1 0x4 MSTORE PUSH1 0x24 PUSH1 0x0 REVERT JUMPDEST SWAP1 PUSH1 0x0 MSTORE PUSH1 0x20 PUSH1 0x0 KECCAK256 SWAP1 PUSH1 0x20 SWAP2 DUP3 DUP3 DIV ADD SWAP2 SWAP1 MOD PUSH2 0x100 EXP DUP2 SLOAD DUP2 PUSH1 0xFF MUL NOT AND SWAP1 DUP4 ISZERO ISZERO MUL OR SWAP1 SSTORE POP JUMPDEST PUSH1 0x0 PUSH1 0x1E PUSH2 0x142E PUSH1 0x1 DUP6 PUSH2 0x2589 JUMP JUMPDEST PUSH2 0x1438 SWAP2 SWAP1 PUSH2 0x2513 JUMP JUMPDEST SWAP1 POP PUSH1 0xF DUP2 GT PUSH2 0x1448 JUMPI DUP1 PUSH2 0x144B JUMP JUMPDEST PUSH1 0xF JUMPDEST SWAP1 POP PUSH1 0x1 JUMPDEST DUP2 DUP2 GT PUSH2 0x1570 JUMPI CALLER PUSH1 0x0 SWAP1 DUP2 MSTORE PUSH1 0x9 PUSH1 0x20 MSTORE PUSH1 0x40 SWAP1 KECCAK256 DUP1 SLOAD DUP3 SWAP1 DUP2 LT PUSH2 0x149F JUMPI PUSH32 0x4E487B7100000000000000000000000000000000000000000000000000000000 PUSH1 0x0 MSTORE PUSH1 0x32 PUSH1 0x4 MSTORE PUSH1 0x24 PUSH1 0x0 REVERT JUMPDEST SWAP1 PUSH1 0x0 MSTORE PUSH1 0x20 PUSH1 0x0 KECCAK256 SWAP1 PUSH1 0x20 SWAP2 DUP3 DUP3 DIV ADD SWAP2 SWAP1 MOD SWAP1 SLOAD SWAP1 PUSH2 0x100 EXP SWAP1 DIV PUSH1 0xFF AND PUSH2 0x155E JUMPI PUSH2 0x2710 PUSH2 0x14D2 DUP5 PUSH2 0x258 PUSH2 0x254C JUMP JUMPDEST PUSH2 0x14DC SWAP2 SWAP1 PUSH2 0x2513 JUMP JUMPDEST PUSH2 0x14E6 SWAP1 DUP8 PUSH2 0x24FB JUMP JUMPDEST CALLER PUSH1 0x0 SWAP1 DUP2 MSTORE PUSH1 0x9 PUSH1 0x20 MSTORE PUSH1 0x40 SWAP1 KECCAK256 DUP1 SLOAD SWAP2 SWAP8 POP PUSH1 0x1 SWAP2 DUP4 SWAP1 DUP2 LT PUSH2 0x1534 JUMPI PUSH32 0x4E487B7100000000000000000000000000000000000000000000000000000000 PUSH1 0x0 MSTORE PUSH1 0x32 PUSH1 0x4 MSTORE PUSH1 0x24 PUSH1 0x0 REVERT JUMPDEST SWAP1 PUSH1 0x0 MSTORE PUSH1 0x20 PUSH1 0x0 KECCAK256 SWAP1 PUSH1 0x20 SWAP2 DUP3 DUP3 DIV ADD SWAP2 SWAP1 MOD PUSH2 0x100 EXP DUP2 SLOAD DUP2 PUSH1 0xFF MUL NOT AND SWAP1 DUP4 ISZERO ISZERO MUL OR SWAP1 SSTORE POP JUMPDEST DUP1 PUSH2 0x1568 DUP2 PUSH2 0x25A0 JUMP JUMPDEST SWAP2 POP POP PUSH2 0x1450 JUMP JUMPDEST POP CALLER PUSH1 0x0 SWAP1 DUP2 MSTORE PUSH1 0xD PUSH1 0x20 MSTORE PUSH1 0x40 SWAP1 KECCAK256 SLOAD PUSH2 0x158C SWAP1 DUP7 SWAP1 PUSH2 0x2589 JUMP JUMPDEST CALLER PUSH1 0x0 DUP2 DUP2 MSTORE PUSH1 0xD PUSH1 0x20 MSTORE PUSH1 0x40 SWAP1 DUP2 SWAP1 KECCAK256 SWAP3 SWAP1 SWAP3 SSTORE PUSH1 0x8 SLOAD SWAP2 MLOAD PUSH32 0xA9059CBB00000000000000000000000000000000000000000000000000000000 DUP2 MSTORE PUSH1 0x4 DUP2 ADD SWAP2 SWAP1 SWAP2 MSTORE PUSH1 0x24 DUP2 ADD DUP8 SWAP1 MSTORE PUSH20 0xFFFFFFFFFFFFFFFFFFFFFFFFFFFFFFFFFFFFFFFF SWAP1 SWAP2 AND SWAP1 PUSH4 0xA9059CBB SWAP1 PUSH1 0x44 ADD PUSH1 0x20 PUSH1 0x40 MLOAD DUP1 DUP4 SUB DUP2 PUSH1 0x0 DUP8 DUP1 EXTCODESIZE ISZERO DUP1 ISZERO PUSH2 0x1614 JUMPI PUSH1 0x0 DUP1 REVERT JUMPDEST POP GAS CALL ISZERO DUP1 ISZERO PUSH2 0x1628 JUMPI RETURNDATASIZE PUSH1 0x0 DUP1 RETURNDATACOPY RETURNDATASIZE PUSH1 0x0 REVERT JUMPDEST POP POP POP POP PUSH1 0x40 MLOAD RETURNDATASIZE PUSH1 0x1F NOT PUSH1 0x1F DUP3 ADD AND DUP3 ADD DUP1 PUSH1 0x40 MSTORE POP DUP2 ADD SWAP1 PUSH2 0x164C SWAP2 SWAP1 PUSH2 0x2449 JUMP JUMPDEST POP PUSH1 0x40 DUP1 MLOAD CALLER DUP2 MSTORE PUSH1 0x20 DUP2 ADD DUP8 SWAP1 MSTORE TIMESTAMP DUP2 DUP4 ADD MSTORE SWAP1 MLOAD PUSH32 0xF279E6A1F5E320CCA91135676D9CB6E44CA8A08C0B88342BCDB1144F6511B568 SWAP2 DUP2 SWAP1 SUB PUSH1 0x60 ADD SWAP1 LOG1 POP POP POP POP POP JUMP JUMPDEST CALLER PUSH1 0x0 SWAP1 DUP2 MSTORE PUSH1 0x4 PUSH1 0x20 MSTORE PUSH1 0x40 SWAP1 KECCAK256 SLOAD PUSH1 0xFF AND PUSH2 0x170C JUMPI PUSH1 0x40 MLOAD PUSH32 0x8C379A000000000000000000000000000000000000000000000000000000000 DUP2 MSTORE PUSH1 0x20 PUSH1 0x4 DUP3 ADD MSTORE PUSH1 0xB PUSH1 0x24 DUP3 ADD MSTORE PUSH32 0x4E6F74206D616E61676572000000000000000000000000000000000000000000 PUSH1 0x44 DUP3 ADD MSTORE PUSH1 0x64 ADD PUSH2 0x51E JUMP JUMPDEST PUSH1 0xF DUP1 SLOAD PUSH32 0xFFFFFFFFFFFFFFFFFFFFFFFFFFFFFFFFFFFFFFFFFFFFFFFFFFFFFFFFFFFFFF00 AND SWAP2 ISZERO ISZERO SWAP2 SWAP1 SWAP2 OR SWAP1 SSTORE JUMP JUMPDEST CALLER PUSH1 0x0 SWAP1 DUP2 MSTORE PUSH1 0x4 PUSH1 0x20 MSTORE PUSH1 0x40 SWAP1 KECCAK256 SLOAD PUSH1 0xFF AND PUSH2 0x17B6 JUMPI PUSH1 0x40 MLOAD PUSH32 0x8C379A000000000000000000000000000000000000000000000000000000000 DUP2 MSTORE PUSH1 0x20 PUSH1 0x4 DUP3 ADD MSTORE PUSH1 0xB PUSH1 0x24 DUP3 ADD MSTORE PUSH32 0x4E6F74206D616E61676572000000000000000000000000000000000000000000 PUSH1 0x44 DUP3 ADD MSTORE PUSH1 0x64 ADD PUSH2 0x51E JUMP JUMPDEST PUSH1 0x0 DUP1 SLOAD PUSH32 0xFFFFFFFFFFFFFFFFFFFFFFFFFFFFFFFFFFFFFFFFFFFFFFFFFFFFFFFFFFFFFF00 AND SWAP2 ISZERO ISZERO SWAP2 SWAP1 SWAP2 OR SWAP1 SSTORE JUMP JUMPDEST PUSH1 0x0 SLOAD PUSH20 0xFFFFFFFFFFFFFFFFFFFFFFFFFFFFFFFFFFFFFFFF PUSH3 0x10000 SWAP1 SWAP2 DIV AND CALLER EQ PUSH2 0x186F JUMPI PUSH1 0x40 MLOAD PUSH32 0x8C379A000000000000000000000000000000000000000000000000000000000 DUP2 MSTORE PUSH1 0x20 PUSH1 0x4 DUP3 ADD DUP2 SWAP1 MSTORE PUSH1 0x24 DUP3 ADD MSTORE PUSH32 0x4F776E61626C653A2063616C6C6572206973206E6F7420746865206F776E6572 PUSH1 0x44 DUP3 ADD MSTORE PUSH1 0x64 ADD PUSH2 0x51E JUMP JUMPDEST PUSH1 0x1 SLOAD ISZERO PUSH2 0x18D9 JUMPI PUSH1 0x40 MLOAD PUSH32 0x8C379A000000000000000000000000000000000000000000000000000000000 DUP2 MSTORE PUSH1 0x20 PUSH1 0x4 DUP3 ADD MSTORE PUSH1 0xD PUSH1 0x24 DUP3 ADD MSTORE PUSH32 0x74696D6520697320657869737400000000000000000000000000000000000000 PUSH1 0x44 DUP3 ADD MSTORE PUSH1 0x64 ADD PUSH2 0x51E JUMP JUMPDEST TIMESTAMP PUSH1 0x1 DUP2 SWAP1 SSTORE PUSH1 0x40 DUP1 MLOAD CALLER DUP2 MSTORE PUSH1 0x20 DUP2 ADD SWAP3 SWAP1 SWAP3 MSTORE PUSH32 0x4100552E0C7D7733B482A8B5B352D5CF64221041A5CB5AD4F57474178741B69A SWAP2 ADD PUSH1 0x40 MLOAD DUP1 SWAP2 SUB SWAP1 LOG1 JUMP JUMPDEST PUSH20 0xFFFFFFFFFFFFFFFFFFFFFFFFFFFFFFFFFFFFFFFF DUP2 AND PUSH1 0x0 SWAP1 DUP2 MSTORE PUSH1 0x9 PUSH1 0x20 MSTORE PUSH1 0x40 SWAP1 KECCAK256 SLOAD PUSH2 0x1A0D JUMPI PUSH1 0x40 DUP1 MLOAD PUSH1 0x10 DUP1 DUP3 MSTORE PUSH2 0x220 DUP3 ADD SWAP1 SWAP3 MSTORE PUSH1 0x0 SWAP2 PUSH1 0x20 DUP3 ADD PUSH2 0x200 DUP1 CALLDATASIZE DUP4 CALLDATACOPY ADD SWAP1 POP POP SWAP1 POP PUSH1 0x0 JUMPDEST DUP2 MLOAD DUP2 LT ISZERO PUSH2 0x19D3 JUMPI PUSH1 0x0 DUP3 DUP3 DUP2 MLOAD DUP2 LT PUSH2 0x19B1 JUMPI PUSH32 0x4E487B7100000000000000000000000000000000000000000000000000000000 PUSH1 0x0 MSTORE PUSH1 0x32 PUSH1 0x4 MSTORE PUSH1 0x24 PUSH1 0x0 REVERT JUMPDEST SWAP2 ISZERO ISZERO PUSH1 0x20 SWAP3 DUP4 MUL SWAP2 SWAP1 SWAP2 ADD SWAP1 SWAP2 ADD MSTORE DUP1 PUSH2 0x19CB DUP2 PUSH2 0x25A0 JUMP JUMPDEST SWAP2 POP POP PUSH2 0x196D JUMP JUMPDEST POP PUSH20 0xFFFFFFFFFFFFFFFFFFFFFFFFFFFFFFFFFFFFFFFF DUP3 AND PUSH1 0x0 SWAP1 DUP2 MSTORE PUSH1 0x9 PUSH1 0x20 SWAP1 DUP2 MSTORE PUSH1 0x40 SWAP1 SWAP2 KECCAK256 DUP3 MLOAD PUSH2 0x1A0A SWAP3 DUP5 ADD SWAP1 PUSH2 0x21A6 JUMP JUMPDEST POP POP JUMPDEST POP JUMP JUMPDEST CALLER PUSH1 0x0 SWAP1 DUP2 MSTORE PUSH1 0x4 PUSH1 0x20 MSTORE PUSH1 0x40 SWAP1 KECCAK256 SLOAD PUSH1 0xFF AND PUSH2 0x1A89 JUMPI PUSH1 0x40 MLOAD PUSH32 0x8C379A000000000000000000000000000000000000000000000000000000000 DUP2 MSTORE PUSH1 0x20 PUSH1 0x4 DUP3 ADD MSTORE PUSH1 0xB PUSH1 0x24 DUP3 ADD MSTORE PUSH32 0x4E6F74206D616E61676572000000000000000000000000000000000000000000 PUSH1 0x44 DUP3 ADD MSTORE PUSH1 0x64 ADD PUSH2 0x51E JUMP JUMPDEST PUSH1 0x8 DUP1 SLOAD PUSH32 0xFFFFFFFFFFFFFFFFFFFFFFFF0000000000000000000000000000000000000000 AND PUSH20 0xFFFFFFFFFFFFFFFFFFFFFFFFFFFFFFFFFFFFFFFF SWAP3 SWAP1 SWAP3 AND SWAP2 SWAP1 SWAP2 OR SWAP1 SSTORE JUMP JUMPDEST PUSH1 0x0 SLOAD PUSH20 0xFFFFFFFFFFFFFFFFFFFFFFFFFFFFFFFFFFFFFFFF PUSH3 0x10000 SWAP1 SWAP2 DIV AND CALLER EQ PUSH2 0x1B58 JUMPI PUSH1 0x40 MLOAD PUSH32 0x8C379A000000000000000000000000000000000000000000000000000000000 DUP2 MSTORE PUSH1 0x20 PUSH1 0x4 DUP3 ADD DUP2 SWAP1 MSTORE PUSH1 0x24 DUP3 ADD MSTORE PUSH32 0x4F776E61626C653A2063616C6C6572206973206E6F7420746865206F776E6572 PUSH1 0x44 DUP3 ADD MSTORE PUSH1 0x64 ADD PUSH2 0x51E JUMP JUMPDEST PUSH20 0xFFFFFFFFFFFFFFFFFFFFFFFFFFFFFFFFFFFFFFFF DUP3 AND PUSH1 0x0 DUP2 DUP2 MSTORE PUSH1 0x4 PUSH1 0x20 SWAP1 DUP2 MSTORE PUSH1 0x40 SWAP2 DUP3 SWAP1 KECCAK256 DUP1 SLOAD PUSH32 0xFFFFFFFFFFFFFFFFFFFFFFFFFFFFFFFFFFFFFFFFFFFFFFFFFFFFFFFFFFFFFF00 AND DUP6 ISZERO ISZERO SWAP1 DUP2 OR SWAP1 SWAP2 SSTORE DUP3 MLOAD CALLER DUP2 MSTORE SWAP2 DUP3 ADD SWAP4 SWAP1 SWAP4 MSTORE SWAP1 DUP2 ADD SWAP2 SWAP1 SWAP2 MSTORE PUSH32 0x2862B022F51FFEE932517D924C5103B3267A9D5D1F21BEC54356E328AAC24C18 SWAP1 PUSH1 0x60 ADD PUSH2 0x11D6 JUMP JUMPDEST CALLER PUSH1 0x0 SWAP1 DUP2 MSTORE PUSH1 0x4 PUSH1 0x20 MSTORE PUSH1 0x40 SWAP1 KECCAK256 SLOAD PUSH1 0xFF AND PUSH2 0x1C64 JUMPI PUSH1 0x40 MLOAD PUSH32 0x8C379A000000000000000000000000000000000000000000000000000000000 DUP2 MSTORE PUSH1 0x20 PUSH1 0x4 DUP3 ADD MSTORE PUSH1 0xB PUSH1 0x24 DUP3 ADD MSTORE PUSH32 0x4E6F74206D616E61676572000000000000000000000000000000000000000000 PUSH1 0x44 DUP3 ADD MSTORE PUSH1 0x64 ADD PUSH2 0x51E JUMP JUMPDEST PUSH1 0x0 DUP1 SLOAD SWAP2 ISZERO ISZERO PUSH2 0x100 MUL PUSH32 0xFFFFFFFFFFFFFFFFFFFFFFFFFFFFFFFFFFFFFFFFFFFFFFFFFFFFFFFFFFFF00FF SWAP1 SWAP3 AND SWAP2 SWAP1 SWAP2 OR SWAP1 SSTORE JUMP JUMPDEST PUSH1 0x9 PUSH1 0x20 MSTORE DUP2 PUSH1 0x0 MSTORE PUSH1 0x40 PUSH1 0x0 KECCAK256 DUP2 DUP2 SLOAD DUP2 LT PUSH2 0x1CB7 JUMPI PUSH1 0x0 DUP1 REVERT JUMPDEST SWAP1 PUSH1 0x0 MSTORE PUSH1 0x20 PUSH1 0x0 KECCAK256 SWAP1 PUSH1 0x20 SWAP2 DUP3 DUP3 DIV ADD SWAP2 SWAP1 MOD SWAP2 POP SWAP2 POP SWAP1 SLOAD SWAP1 PUSH2 0x100 EXP SWAP1 DIV PUSH1 0xFF AND DUP2 JUMP JUMPDEST CALLER PUSH1 0x0 SWAP1 DUP2 MSTORE PUSH1 0xB PUSH1 0x20 MSTORE PUSH1 0x40 DUP2 KECCAK256 SLOAD PUSH2 0x1CF8 JUMPI POP PUSH1 0x0 SWAP1 JUMP JUMPDEST PUSH1 0x0 PUSH1 0x1 SLOAD GT PUSH2 0x1D64 JUMPI PUSH1 0x40 MLOAD PUSH32 0x8C379A000000000000000000000000000000000000000000000000000000000 DUP2 MSTORE PUSH1 0x20 PUSH1 0x4 DUP3 ADD MSTORE PUSH1 0x6 PUSH1 0x24 DUP3 ADD MSTORE PUSH32 0x6E6F742045540000000000000000000000000000000000000000000000000000 PUSH1 0x44 DUP3 ADD MSTORE PUSH1 0x64 ADD PUSH2 0x51E JUMP JUMPDEST PUSH1 0x0 DUP1 PUSH1 0x1 SLOAD TIMESTAMP PUSH2 0x1D75 SWAP2 SWAP1 PUSH2 0x2589 JUMP JUMPDEST SWAP1 POP PUSH1 0x0 PUSH2 0x1D86 PUSH3 0x15180 DUP4 PUSH2 0x2513 JUMP JUMPDEST CALLER PUSH1 0x0 SWAP1 DUP2 MSTORE PUSH1 0xB PUSH1 0x20 MSTORE PUSH1 0x40 DUP2 KECCAK256 SLOAD SWAP2 SWAP3 POP SWAP1 PUSH1 0x78 SWAP1 PUSH2 0x1DA9 SWAP1 PUSH2 0xA28 PUSH2 0x254C JUMP JUMPDEST PUSH2 0x1DB3 SWAP2 SWAP1 PUSH2 0x2513 JUMP JUMPDEST SWAP1 POP PUSH1 0x1 DUP3 LT ISZERO DUP1 ISZERO PUSH2 0x1E2A JUMPI POP CALLER PUSH1 0x0 SWAP1 DUP2 MSTORE PUSH1 0x9 PUSH1 0x20 MSTORE PUSH1 0x40 DUP2 KECCAK256 DUP1 SLOAD SWAP1 SWAP2 SWAP1 PUSH2 0x1E08 JUMPI PUSH32 0x4E487B7100000000000000000000000000000000000000000000000000000000 PUSH1 0x0 MSTORE PUSH1 0x32 PUSH1 0x4 MSTORE PUSH1 0x24 PUSH1 0x0 REVERT JUMPDEST SWAP1 PUSH1 0x0 MSTORE PUSH1 0x20 PUSH1 0x0 KECCAK256 SWAP1 PUSH1 0x20 SWAP2 DUP3 DUP3 DIV ADD SWAP2 SWAP1 MOD SWAP1 SLOAD SWAP1 PUSH2 0x100 EXP SWAP1 DIV PUSH1 0xFF AND ISZERO JUMPDEST ISZERO PUSH2 0x1E4B JUMPI PUSH2 0x2710 PUSH2 0x1E3E DUP3 PUSH2 0x3E8 PUSH2 0x254C JUMP JUMPDEST PUSH2 0x1E48 SWAP2 SWAP1 PUSH2 0x2513 JUMP JUMPDEST SWAP4 POP JUMPDEST PUSH1 0x0 PUSH1 0x1E PUSH2 0x1E5A PUSH1 0x1 DUP6 PUSH2 0x2589 JUMP JUMPDEST PUSH2 0x1E64 SWAP2 SWAP1 PUSH2 0x2513 JUMP JUMPDEST SWAP1 POP PUSH1 0xF DUP2 GT PUSH2 0x1E74 JUMPI DUP1 PUSH2 0x1E77 JUMP JUMPDEST PUSH1 0xF JUMPDEST SWAP1 POP PUSH1 0x1 JUMPDEST DUP2 DUP2 GT PUSH2 0x1F27 JUMPI CALLER PUSH1 0x0 SWAP1 DUP2 MSTORE PUSH1 0x9 PUSH1 0x20 MSTORE PUSH1 0x40 SWAP1 KECCAK256 DUP1 SLOAD DUP3 SWAP1 DUP2 LT PUSH2 0x1ECB JUMPI PUSH32 0x4E487B7100000000000000000000000000000000000000000000000000000000 PUSH1 0x0 MSTORE PUSH1 0x32 PUSH1 0x4 MSTORE PUSH1 0x24 PUSH1 0x0 REVERT JUMPDEST SWAP1 PUSH1 0x0 MSTORE PUSH1 0x20 PUSH1 0x0 KECCAK256 SWAP1 PUSH1 0x20 SWAP2 DUP3 DUP3 DIV ADD SWAP2 SWAP1 MOD SWAP1 SLOAD SWAP1 PUSH2 0x100 EXP SWAP1 DIV PUSH1 0xFF AND PUSH2 0x1F15 JUMPI PUSH2 0x2710 PUSH2 0x1EFE DUP5 PUSH2 0x258 PUSH2 0x254C JUMP JUMPDEST PUSH2 0x1F08 SWAP2 SWAP1 PUSH2 0x2513 JUMP JUMPDEST PUSH2 0x1F12 SWAP1 DUP8 PUSH2 0x24FB JUMP JUMPDEST SWAP6 POP JUMPDEST DUP1 PUSH2 0x1F1F DUP2 PUSH2 0x25A0 JUMP JUMPDEST SWAP2 POP POP PUSH2 0x1E7C JUMP JUMPDEST POP SWAP4 SWAP6 SWAP5 POP POP POP POP POP JUMP JUMPDEST PUSH1 0x0 SLOAD PUSH20 0xFFFFFFFFFFFFFFFFFFFFFFFFFFFFFFFFFFFFFFFF PUSH3 0x10000 SWAP1 SWAP2 DIV AND CALLER EQ PUSH2 0x1FBA JUMPI PUSH1 0x40 MLOAD PUSH32 0x8C379A000000000000000000000000000000000000000000000000000000000 DUP2 MSTORE PUSH1 0x20 PUSH1 0x4 DUP3 ADD DUP2 SWAP1 MSTORE PUSH1 0x24 DUP3 ADD MSTORE PUSH32 0x4F776E61626C653A2063616C6C6572206973206E6F7420746865206F776E6572 PUSH1 0x44 DUP3 ADD MSTORE PUSH1 0x64 ADD PUSH2 0x51E JUMP JUMPDEST PUSH20 0xFFFFFFFFFFFFFFFFFFFFFFFFFFFFFFFFFFFFFFFF DUP2 AND PUSH2 0x205D JUMPI PUSH1 0x40 MLOAD PUSH32 0x8C379A000000000000000000000000000000000000000000000000000000000 DUP2 MSTORE PUSH1 0x20 PUSH1 0x4 DUP3 ADD MSTORE PUSH1 0x26 PUSH1 0x24 DUP3 ADD MSTORE PUSH32 0x4F776E61626C653A206E6577206F776E657220697320746865207A65726F2061 PUSH1 0x44 DUP3 ADD MSTORE PUSH32 0x6464726573730000000000000000000000000000000000000000000000000000 PUSH1 0x64 DUP3 ADD MSTORE PUSH1 0x84 ADD PUSH2 0x51E JUMP JUMPDEST PUSH1 0x0 DUP1 SLOAD PUSH20 0xFFFFFFFFFFFFFFFFFFFFFFFFFFFFFFFFFFFFFFFF DUP4 DUP2 AND PUSH3 0x10000 DUP2 DUP2 MUL PUSH32 0xFFFFFFFFFFFFFFFFFFFF0000000000000000000000000000000000000000FFFF DUP6 AND OR SWAP1 SWAP5 SSTORE PUSH1 0x40 DUP1 MLOAD SWAP5 SWAP1 SWAP4 DIV SWAP1 SWAP2 AND DUP1 DUP5 MSTORE PUSH1 0x20 DUP5 ADD SWAP2 SWAP1 SWAP2 MSTORE SWAP2 PUSH32 0x8BE0079C531659141344CD1FD0A4F28419497F9722A3DAAFE3B4186F6B6457E0 SWAP2 ADD PUSH2 0x11D6 JUMP JUMPDEST CALLER PUSH1 0x0 SWAP1 DUP2 MSTORE PUSH1 0x4 PUSH1 0x20 MSTORE PUSH1 0x40 SWAP1 KECCAK256 SLOAD PUSH1 0xFF AND PUSH2 0x215F JUMPI PUSH1 0x40 MLOAD PUSH32 0x8C379A000000000000000000000000000000000000000000000000000000000 DUP2 MSTORE PUSH1 0x20 PUSH1 0x4 DUP3 ADD MSTORE PUSH1 0xB PUSH1 0x24 DUP3 ADD MSTORE PUSH32 0x4E6F74206D616E61676572000000000000000000000000000000000000000000 PUSH1 0x44 DUP3 ADD MSTORE PUSH1 0x64 ADD PUSH2 0x51E JUMP JUMPDEST PUSH1 0x7 DUP1 SLOAD PUSH32 0xFFFFFFFFFFFFFFFFFFFFFFFF0000000000000000000000000000000000000000 AND PUSH20 0xFFFFFFFFFFFFFFFFFFFFFFFFFFFFFFFFFFFFFFFF SWAP3 SWAP1 SWAP3 AND SWAP2 SWAP1 SWAP2 OR SWAP1 SSTORE JUMP JUMPDEST DUP3 DUP1 SLOAD DUP3 DUP3 SSTORE SWAP1 PUSH1 0x0 MSTORE PUSH1 0x20 PUSH1 0x0 KECCAK256 SWAP1 PUSH1 0x1F ADD PUSH1 0x20 SWAP1 DIV DUP2 ADD SWAP3 DUP3 ISZERO PUSH2 0x223B JUMPI SWAP2 PUSH1 0x20 MUL DUP3 ADD PUSH1 0x0 JUMPDEST DUP4 DUP3 GT ISZERO PUSH2 0x220C JUMPI DUP4 MLOAD DUP4 DUP3 PUSH2 0x100 EXP DUP2 SLOAD DUP2 PUSH1 0xFF MUL NOT AND SWAP1 DUP4 ISZERO ISZERO MUL OR SWAP1 SSTORE POP SWAP3 PUSH1 0x20 ADD SWAP3 PUSH1 0x1 ADD PUSH1 0x20 DUP2 PUSH1 0x0 ADD DIV SWAP3 DUP4 ADD SWAP3 PUSH1 0x1 SUB MUL PUSH2 0x21CF JUMP JUMPDEST DUP1 ISZERO PUSH2 0x2239 JUMPI DUP3 DUP2 PUSH2 0x100 EXP DUP2 SLOAD SWAP1 PUSH1 0xFF MUL NOT AND SWAP1 SSTORE PUSH1 0x1 ADD PUSH1 0x20 DUP2 PUSH1 0x0 ADD DIV SWAP3 DUP4 ADD SWAP3 PUSH1 0x1 SUB MUL PUSH2 0x220C JUMP JUMPDEST POP JUMPDEST POP PUSH2 0x2247 SWAP3 SWAP2 POP PUSH2 0x224B JUMP JUMPDEST POP SWAP1 JUMP JUMPDEST JUMPDEST DUP1 DUP3 GT ISZERO PUSH2 0x2247 JUMPI PUSH1 0x0 DUP2 SSTORE PUSH1 0x1 ADD PUSH2 0x224C JUMP JUMPDEST DUP1 CALLDATALOAD PUSH20 0xFFFFFFFFFFFFFFFFFFFFFFFFFFFFFFFFFFFFFFFF DUP2 AND DUP2 EQ PUSH2 0x2284 JUMPI PUSH1 0x0 DUP1 REVERT JUMPDEST SWAP2 SWAP1 POP JUMP JUMPDEST PUSH1 0x0 DUP3 PUSH1 0x1F DUP4 ADD SLT PUSH2 0x2299 JUMPI DUP1 DUP2 REVERT JUMPDEST DUP2 CALLDATALOAD PUSH1 0x20 PUSH8 0xFFFFFFFFFFFFFFFF DUP1 DUP4 GT ISZERO PUSH2 0x22B6 JUMPI PUSH2 0x22B6 PUSH2 0x2608 JUMP JUMPDEST DUP3 PUSH1 0x5 SHL PUSH1 0x40 MLOAD PUSH32 0xFFFFFFFFFFFFFFFFFFFFFFFFFFFFFFFFFFFFFFFFFFFFFFFFFFFFFFFFFFFFFFE0 PUSH1 0x3F DUP4 ADD AND DUP2 ADD DUP2 DUP2 LT DUP5 DUP3 GT OR ISZERO PUSH2 0x22F9 JUMPI PUSH2 0x22F9 PUSH2 0x2608 JUMP JUMPDEST PUSH1 0x40 MSTORE DUP5 DUP2 MSTORE DUP4 DUP2 ADD SWAP3 POP DUP7 DUP5 ADD DUP3 DUP9 ADD DUP6 ADD DUP10 LT ISZERO PUSH2 0x2317 JUMPI DUP7 DUP8 REVERT JUMPDEST DUP7 SWAP3 POP JUMPDEST DUP6 DUP4 LT ISZERO PUSH2 0x2340 JUMPI PUSH2 0x232C DUP2 PUSH2 0x2260 JUMP JUMPDEST DUP5 MSTORE SWAP3 DUP5 ADD SWAP3 PUSH1 0x1 SWAP3 SWAP1 SWAP3 ADD SWAP2 DUP5 ADD PUSH2 0x231B JUMP JUMPDEST POP SWAP8 SWAP7 POP POP POP POP POP POP POP JUMP JUMPDEST PUSH1 0x0 PUSH1 0x20 DUP3 DUP5 SUB SLT ISZERO PUSH2 0x235D JUMPI DUP1 DUP2 REVERT JUMPDEST PUSH2 0x2366 DUP3 PUSH2 0x2260 JUMP JUMPDEST SWAP4 SWAP3 POP POP POP JUMP JUMPDEST PUSH1 0x0 DUP1 PUSH1 0x40 DUP4 DUP6 SUB SLT ISZERO PUSH2 0x237F JUMPI DUP1 DUP2 REVERT JUMPDEST PUSH2 0x2388 DUP4 PUSH2 0x2260 JUMP JUMPDEST SWAP2 POP PUSH1 0x20 DUP4 ADD CALLDATALOAD PUSH2 0x2398 DUP2 PUSH2 0x2637 JUMP JUMPDEST DUP1 SWAP2 POP POP SWAP3 POP SWAP3 SWAP1 POP JUMP JUMPDEST PUSH1 0x0 DUP1 PUSH1 0x40 DUP4 DUP6 SUB SLT ISZERO PUSH2 0x23B5 JUMPI DUP2 DUP3 REVERT JUMPDEST PUSH2 0x23BE DUP4 PUSH2 0x2260 JUMP JUMPDEST SWAP5 PUSH1 0x20 SWAP4 SWAP1 SWAP4 ADD CALLDATALOAD SWAP4 POP POP POP JUMP JUMPDEST PUSH1 0x0 DUP1 PUSH1 0x40 DUP4 DUP6 SUB SLT ISZERO PUSH2 0x23DE JUMPI DUP2 DUP3 REVERT JUMPDEST DUP3 CALLDATALOAD PUSH8 0xFFFFFFFFFFFFFFFF DUP1 DUP3 GT ISZERO PUSH2 0x23F5 JUMPI DUP4 DUP5 REVERT JUMPDEST PUSH2 0x2401 DUP7 DUP4 DUP8 ADD PUSH2 0x2289 JUMP JUMPDEST SWAP4 POP PUSH1 0x20 DUP6 ADD CALLDATALOAD SWAP2 POP DUP1 DUP3 GT ISZERO PUSH2 0x2416 JUMPI DUP3 DUP4 REVERT JUMPDEST POP PUSH2 0x2423 DUP6 DUP3 DUP7 ADD PUSH2 0x2289 JUMP JUMPDEST SWAP2 POP POP SWAP3 POP SWAP3 SWAP1 POP JUMP JUMPDEST PUSH1 0x0 PUSH1 0x20 DUP3 DUP5 SUB SLT ISZERO PUSH2 0x243E JUMPI DUP1 DUP2 REVERT JUMPDEST DUP2 CALLDATALOAD PUSH2 0x2366 DUP2 PUSH2 0x2637 JUMP JUMPDEST PUSH1 0x0 PUSH1 0x20 DUP3 DUP5 SUB SLT ISZERO PUSH2 0x245A JUMPI DUP1 DUP2 REVERT JUMPDEST DUP2 MLOAD PUSH2 0x2366 DUP2 PUSH2 0x2637 JUMP JUMPDEST PUSH1 0x0 PUSH1 0x20 DUP3 DUP5 SUB SLT ISZERO PUSH2 0x2476 JUMPI DUP1 DUP2 REVERT JUMPDEST POP CALLDATALOAD SWAP2 SWAP1 POP JUMP JUMPDEST PUSH1 0x0 DUP2 MLOAD DUP1 DUP5 MSTORE PUSH1 0x20 DUP1 DUP6 ADD SWAP5 POP DUP1 DUP5 ADD DUP4 JUMPDEST DUP4 DUP2 LT ISZERO PUSH2 0x24C2 JUMPI DUP2 MLOAD PUSH20 0xFFFFFFFFFFFFFFFFFFFFFFFFFFFFFFFFFFFFFFFF AND DUP8 MSTORE SWAP6 DUP3 ADD SWAP6 SWAP1 DUP3 ADD SWAP1 PUSH1 0x1 ADD PUSH2 0x2490 JUMP JUMPDEST POP SWAP5 SWAP6 SWAP5 POP POP POP POP POP JUMP JUMPDEST PUSH1 0x40 DUP2 MSTORE PUSH1 0x0 PUSH2 0x24E0 PUSH1 0x40 DUP4 ADD DUP6 PUSH2 0x247D JUMP JUMPDEST DUP3 DUP2 SUB PUSH1 0x20 DUP5 ADD MSTORE PUSH2 0x24F2 DUP2 DUP6 PUSH2 0x247D JUMP JUMPDEST SWAP6 SWAP5 POP POP POP POP POP JUMP JUMPDEST PUSH1 0x0 DUP3 NOT DUP3 GT ISZERO PUSH2 0x250E JUMPI PUSH2 0x250E PUSH2 0x25D9 JUMP JUMPDEST POP ADD SWAP1 JUMP JUMPDEST PUSH1 0x0 DUP3 PUSH2 0x2547 JUMPI PUSH32 0x4E487B7100000000000000000000000000000000000000000000000000000000 DUP2 MSTORE PUSH1 0x12 PUSH1 0x4 MSTORE PUSH1 0x24 DUP2 REVERT JUMPDEST POP DIV SWAP1 JUMP JUMPDEST PUSH1 0x0 DUP2 PUSH32 0xFFFFFFFFFFFFFFFFFFFFFFFFFFFFFFFFFFFFFFFFFFFFFFFFFFFFFFFFFFFFFFFF DIV DUP4 GT DUP3 ISZERO ISZERO AND ISZERO PUSH2 0x2584 JUMPI PUSH2 0x2584 PUSH2 0x25D9 JUMP JUMPDEST POP MUL SWAP1 JUMP JUMPDEST PUSH1 0x0 DUP3 DUP3 LT ISZERO PUSH2 0x259B JUMPI PUSH2 0x259B PUSH2 0x25D9 JUMP JUMPDEST POP SUB SWAP1 JUMP JUMPDEST PUSH1 0x0 PUSH32 0xFFFFFFFFFFFFFFFFFFFFFFFFFFFFFFFFFFFFFFFFFFFFFFFFFFFFFFFFFFFFFFFF DUP3 EQ ISZERO PUSH2 0x25D2 JUMPI PUSH2 0x25D2 PUSH2 0x25D9 JUMP JUMPDEST POP PUSH1 0x1 ADD SWAP1 JUMP JUMPDEST PUSH32 0x4E487B7100000000000000000000000000000000000000000000000000000000 PUSH1 0x0 MSTORE PUSH1 0x11 PUSH1 0x4 MSTORE PUSH1 0x24 PUSH1 0x0 REVERT JUMPDEST PUSH32 0x4E487B7100000000000000000000000000000000000000000000000000000000 PUSH1 0x0 MSTORE PUSH1 0x41 PUSH1 0x4 MSTORE PUSH1 0x24 PUSH1 0x0 REVERT JUMPDEST DUP1 ISZERO ISZERO DUP2 EQ PUSH2 0x1A0D JUMPI PUSH1 0x0 DUP1 REVERT INVALID LOG2 PUSH5 0x6970667358 0x22 SLT KECCAK256 SELFBALANCE STATICCALL 0xE7 0xD PC DUP16 SHR SHR 0xD4 DUP6 LOG3 SWAP16 SELFDESTRUCT 0xD4 GT 0xBA 0xA9 0x4B BLOCKHASH CREATE 0x4D 0xE8 PUSH16 0xE9888DB76EE031FA9E64736F6C634300 ADDMOD DIV STOP CALLER "
				},
				"gasEstimates": {
					"creation": {
						"codeDepositCost": "1970200",
						"executionCost": "infinite",
						"totalCost": "infinite"
					},
					"external": {
						"IDOAddress()": "1080",
						"_IDOUsdt(uint256)": "infinite",
						"_addRelation(address[],address[])": "infinite",
						"allowET(address)": "infinite",
						"awaitWithdraw(address)": "1286",
						"endTime()": "1052",
						"etCoin()": "1102",
						"etNft()": "1059",
						"getWithDraw()": "infinite",
						"isManager(address)": "1285",
						"isOpenIdo()": "1121",
						"isOpenOne()": "1120",
						"isOpenTwo()": "1133",
						"lb(address,uint256)": "3842",
						"number()": "1051",
						"openOpenIdo(bool)": "22079",
						"openOpenOne(bool)": "22123",
						"openOpenTwo(bool)": "22114",
						"owner()": "1129",
						"relationAmount(address)": "1307",
						"setETCoin(address)": "22091",
						"setEndTime()": "23198",
						"setManager(address,bool)": "23821",
						"setNFT(address)": "22111",
						"totalSupply()": "1053",
						"transferOwnership(address)": "23428",
						"usdt()": "1059",
						"userIDO(address)": "1286",
						"userRelation(address)": "1289",
						"withdraw()": "infinite"
					}
				},
				"methodIdentifiers": {
					"IDOAddress()": "c6b24c1c",
					"_IDOUsdt(uint256)": "0e73d199",
					"_addRelation(address[],address[])": "238c4c2f",
					"allowET(address)": "918a6283",
					"awaitWithdraw(address)": "a3f82c2c",
					"endTime()": "3197cbb6",
					"etCoin()": "8b9272b7",
					"etNft()": "68da5e8e",
					"getWithDraw()": "ef7a47fa",
					"isManager(address)": "f3ae2415",
					"isOpenIdo()": "ce75710c",
					"isOpenOne()": "fb066531",
					"isOpenTwo()": "5db98f2d",
					"lb(address,uint256)": "d3b91f7a",
					"number()": "8381f58a",
					"openOpenIdo(bool)": "6a15915a",
					"openOpenOne(bool)": "6c68ec69",
					"openOpenTwo(bool)": "ca5cc206",
					"owner()": "8da5cb5b",
					"relationAmount(address)": "f06b41e3",
					"setETCoin(address)": "965ed465",
					"setEndTime()": "76be6af6",
					"setManager(address,bool)": "a5e90eee",
					"setNFT(address)": "f56e9c66",
					"totalSupply()": "18160ddd",
					"transferOwnership(address)": "f2fde38b",
					"usdt()": "2f48ab7d",
					"userIDO(address)": "6a41d5d7",
					"userRelation(address)": "e72ebdb7",
					"withdraw()": "3ccfd60b"
				}
			},
			"storageLayout": {
				"storage": [
					{
						"astId": 610,
						"contract": "CoinIdo.sol:CoinIdo",
						"label": "isOpenOne",
						"offset": 0,
						"slot": "0",
						"type": "t_bool"
					},
					{
						"astId": 612,
						"contract": "CoinIdo.sol:CoinIdo",
						"label": "isOpenTwo",
						"offset": 1,
						"slot": "0",
						"type": "t_bool"
					},
					{
						"astId": 614,
						"contract": "CoinIdo.sol:CoinIdo",
						"label": "_owner",
						"offset": 2,
						"slot": "0",
						"type": "t_address"
					},
					{
						"astId": 616,
						"contract": "CoinIdo.sol:CoinIdo",
						"label": "endTime",
						"offset": 0,
						"slot": "1",
						"type": "t_uint256"
					},
					{
						"astId": 618,
						"contract": "CoinIdo.sol:CoinIdo",
						"label": "totalSupply",
						"offset": 0,
						"slot": "2",
						"type": "t_uint256"
					},
					{
						"astId": 620,
						"contract": "CoinIdo.sol:CoinIdo",
						"label": "number",
						"offset": 0,
						"slot": "3",
						"type": "t_uint256"
					},
					{
						"astId": 624,
						"contract": "CoinIdo.sol:CoinIdo",
						"label": "isManager",
						"offset": 0,
						"slot": "4",
						"type": "t_mapping(t_address,t_bool)"
					},
					{
						"astId": 626,
						"contract": "CoinIdo.sol:CoinIdo",
						"label": "IDOAddress",
						"offset": 0,
						"slot": "5",
						"type": "t_address"
					},
					{
						"astId": 629,
						"contract": "CoinIdo.sol:CoinIdo",
						"label": "usdt",
						"offset": 0,
						"slot": "6",
						"type": "t_contract(IERC20)1629"
					},
					{
						"astId": 632,
						"contract": "CoinIdo.sol:CoinIdo",
						"label": "etNft",
						"offset": 0,
						"slot": "7",
						"type": "t_contract(IETNFT)608"
					},
					{
						"astId": 635,
						"contract": "CoinIdo.sol:CoinIdo",
						"label": "etCoin",
						"offset": 0,
						"slot": "8",
						"type": "t_contract(IERC20)1629"
					},
					{
						"astId": 640,
						"contract": "CoinIdo.sol:CoinIdo",
						"label": "lb",
						"offset": 0,
						"slot": "9",
						"type": "t_mapping(t_address,t_array(t_bool)dyn_storage)"
					},
					{
						"astId": 644,
						"contract": "CoinIdo.sol:CoinIdo",
						"label": "userRelation",
						"offset": 0,
						"slot": "10",
						"type": "t_mapping(t_address,t_address)"
					},
					{
						"astId": 648,
						"contract": "CoinIdo.sol:CoinIdo",
						"label": "userIDO",
						"offset": 0,
						"slot": "11",
						"type": "t_mapping(t_address,t_uint256)"
					},
					{
						"astId": 652,
						"contract": "CoinIdo.sol:CoinIdo",
						"label": "relationAmount",
						"offset": 0,
						"slot": "12",
						"type": "t_mapping(t_address,t_uint256)"
					},
					{
						"astId": 656,
						"contract": "CoinIdo.sol:CoinIdo",
						"label": "awaitWithdraw",
						"offset": 0,
						"slot": "13",
						"type": "t_mapping(t_address,t_uint256)"
					},
					{
						"astId": 661,
						"contract": "CoinIdo.sol:CoinIdo",
						"label": "base",
						"offset": 0,
						"slot": "14",
						"type": "t_uint256"
					},
					{
						"astId": 663,
						"contract": "CoinIdo.sol:CoinIdo",
						"label": "isOpenIdo",
						"offset": 0,
						"slot": "15",
						"type": "t_bool"
					}
				],
				"types": {
					"t_address": {
						"encoding": "inplace",
						"label": "address",
						"numberOfBytes": "20"
					},
					"t_array(t_bool)dyn_storage": {
						"base": "t_bool",
						"encoding": "dynamic_array",
						"label": "bool[]",
						"numberOfBytes": "32"
					},
					"t_bool": {
						"encoding": "inplace",
						"label": "bool",
						"numberOfBytes": "1"
					},
					"t_contract(IERC20)1629": {
						"encoding": "inplace",
						"label": "contract IERC20",
						"numberOfBytes": "20"
					},
					"t_contract(IETNFT)608": {
						"encoding": "inplace",
						"label": "contract IETNFT",
						"numberOfBytes": "20"
					},
					"t_mapping(t_address,t_address)": {
						"encoding": "mapping",
						"key": "t_address",
						"label": "mapping(address => address)",
						"numberOfBytes": "32",
						"value": "t_address"
					},
					"t_mapping(t_address,t_array(t_bool)dyn_storage)": {
						"encoding": "mapping",
						"key": "t_address",
						"label": "mapping(address => bool[])",
						"numberOfBytes": "32",
						"value": "t_array(t_bool)dyn_storage"
					},
					"t_mapping(t_address,t_bool)": {
						"encoding": "mapping",
						"key": "t_address",
						"label": "mapping(address => bool)",
						"numberOfBytes": "32",
						"value": "t_bool"
					},
					"t_mapping(t_address,t_uint256)": {
						"encoding": "mapping",
						"key": "t_address",
						"label": "mapping(address => uint256)",
						"numberOfBytes": "32",
						"value": "t_uint256"
					},
					"t_uint256": {
						"encoding": "inplace",
						"label": "uint256",
						"numberOfBytes": "32"
					}
				}
			},
			"userdoc": {
				"kind": "user",
				"methods": {},
				"version": 1
			}
		}
	}
}