{
	"CoinIdo.sol": {
		"CoinIdo": {
			"abi": [
				{
					"inputs": [
						{
							"internalType": "address",
							"name": "_address",
							"type": "address"
						},
						{
							"internalType": "address",
							"name": "_usdt",
							"type": "address"
						}
					],
					"stateMutability": "nonpayable",
					"type": "constructor"
				},
				{
					"anonymous": false,
					"inputs": [
						{
							"indexed": false,
							"internalType": "address[]",
							"name": "addressFrom",
							"type": "address[]"
						},
						{
							"indexed": false,
							"internalType": "address[]",
							"name": "addressTo",
							"type": "address[]"
						}
					],
					"name": "AddRelation",
					"type": "event"
				},
				{
					"anonymous": false,
					"inputs": [
						{
							"indexed": false,
							"internalType": "address",
							"name": "from",
							"type": "address"
						},
						{
							"indexed": false,
							"internalType": "uint256",
							"name": "value",
							"type": "uint256"
						}
					],
					"name": "IDOUsdt",
					"type": "event"
				},
				{
					"anonymous": false,
					"inputs": [
						{
							"indexed": false,
							"internalType": "address",
							"name": "previousOwner",
							"type": "address"
						},
						{
							"indexed": false,
							"internalType": "address",
							"name": "newOwner",
							"type": "address"
						}
					],
					"name": "OwnershipTransferred",
					"type": "event"
				},
				{
					"anonymous": false,
					"inputs": [
						{
							"indexed": false,
							"internalType": "address",
							"name": "_address",
							"type": "address"
						},
						{
							"indexed": false,
							"internalType": "uint256",
							"name": "time",
							"type": "uint256"
						}
					],
					"name": "SetEndTime",
					"type": "event"
				},
				{
					"anonymous": false,
					"inputs": [
						{
							"indexed": false,
							"internalType": "address",
							"name": "_address",
							"type": "address"
						},
						{
							"indexed": false,
							"internalType": "address",
							"name": "_manager",
							"type": "address"
						},
						{
							"indexed": false,
							"internalType": "bool",
							"name": "_flag",
							"type": "bool"
						}
					],
					"name": "SetManager",
					"type": "event"
				},
				{
					"anonymous": false,
					"inputs": [
						{
							"indexed": false,
							"internalType": "address",
							"name": "_address",
							"type": "address"
						},
						{
							"indexed": false,
							"internalType": "uint256",
							"name": "_amount",
							"type": "uint256"
						},
						{
							"indexed": false,
							"internalType": "uint256",
							"name": "_time",
							"type": "uint256"
						}
					],
					"name": "Withdraw",
					"type": "event"
				},
				{
					"inputs": [],
					"name": "IDOAddress",
					"outputs": [
						{
							"internalType": "address",
							"name": "",
							"type": "address"
						}
					],
					"stateMutability": "view",
					"type": "function"
				},
				{
					"inputs": [
						{
							"internalType": "uint256",
							"name": "value",
							"type": "uint256"
						}
					],
					"name": "_IDOUsdt",
					"outputs": [],
					"stateMutability": "nonpayable",
					"type": "function"
				},
				{
					"inputs": [
						{
							"internalType": "address[]",
							"name": "addressFrom",
							"type": "address[]"
						},
						{
							"internalType": "address[]",
							"name": "addressTo",
							"type": "address[]"
						}
					],
					"name": "_addRelation",
					"outputs": [],
					"stateMutability": "nonpayable",
					"type": "function"
				},
				{
					"inputs": [
						{
							"internalType": "address",
							"name": "_address",
							"type": "address"
						}
					],
					"name": "allowET",
					"outputs": [],
					"stateMutability": "nonpayable",
					"type": "function"
				},
				{
					"inputs": [
						{
							"internalType": "address",
							"name": "",
							"type": "address"
						}
					],
					"name": "awaitWithdraw",
					"outputs": [
						{
							"internalType": "uint256",
							"name": "",
							"type": "uint256"
						}
					],
					"stateMutability": "view",
					"type": "function"
				},
				{
					"inputs": [],
					"name": "endTime",
					"outputs": [
						{
							"internalType": "uint256",
							"name": "",
							"type": "uint256"
						}
					],
					"stateMutability": "view",
					"type": "function"
				},
				{
					"inputs": [],
					"name": "etCoin",
					"outputs": [
						{
							"internalType": "contract IERC20",
							"name": "",
							"type": "address"
						}
					],
					"stateMutability": "view",
					"type": "function"
				},
				{
					"inputs": [],
					"name": "etNft",
					"outputs": [
						{
							"internalType": "contract IETNFT",
							"name": "",
							"type": "address"
						}
					],
					"stateMutability": "view",
					"type": "function"
				},
				{
					"inputs": [],
					"name": "getWithDraw",
					"outputs": [
						{
							"internalType": "uint256",
							"name": "",
							"type": "uint256"
						}
					],
					"stateMutability": "view",
					"type": "function"
				},
				{
					"inputs": [
						{
							"internalType": "address",
							"name": "",
							"type": "address"
						}
					],
					"name": "isManager",
					"outputs": [
						{
							"internalType": "bool",
							"name": "",
							"type": "bool"
						}
					],
					"stateMutability": "view",
					"type": "function"
				},
				{
					"inputs": [],
					"name": "isOpenIdo",
					"outputs": [
						{
							"internalType": "bool",
							"name": "",
							"type": "bool"
						}
					],
					"stateMutability": "view",
					"type": "function"
				},
				{
					"inputs": [],
					"name": "isOpenOne",
					"outputs": [
						{
							"internalType": "bool",
							"name": "",
							"type": "bool"
						}
					],
					"stateMutability": "view",
					"type": "function"
				},
				{
					"inputs": [],
					"name": "isOpenTwo",
					"outputs": [
						{
							"internalType": "bool",
							"name": "",
							"type": "bool"
						}
					],
					"stateMutability": "view",
					"type": "function"
				},
				{
					"inputs": [
						{
							"internalType": "address",
							"name": "",
							"type": "address"
						},
						{
							"internalType": "uint256",
							"name": "",
							"type": "uint256"
						}
					],
					"name": "lb",
					"outputs": [
						{
							"internalType": "bool",
							"name": "",
							"type": "bool"
						}
					],
					"stateMutability": "view",
					"type": "function"
				},
				{
					"inputs": [],
					"name": "number",
					"outputs": [
						{
							"internalType": "uint256",
							"name": "",
							"type": "uint256"
						}
					],
					"stateMutability": "view",
					"type": "function"
				},
				{
					"inputs": [
						{
							"internalType": "bool",
							"name": "_flag",
							"type": "bool"
						}
					],
					"name": "openOpenIdo",
					"outputs": [],
					"stateMutability": "nonpayable",
					"type": "function"
				},
				{
					"inputs": [
						{
							"internalType": "bool",
							"name": "_flag",
							"type": "bool"
						}
					],
					"name": "openOpenOne",
					"outputs": [],
					"stateMutability": "nonpayable",
					"type": "function"
				},
				{
					"inputs": [
						{
							"internalType": "bool",
							"name": "_flag",
							"type": "bool"
						}
					],
					"name": "openOpenTwo",
					"outputs": [],
					"stateMutability": "nonpayable",
					"type": "function"
				},
				{
					"inputs": [],
					"name": "owner",
					"outputs": [
						{
							"internalType": "address",
							"name": "",
							"type": "address"
						}
					],
					"stateMutability": "view",
					"type": "function"
				},
				{
					"inputs": [
						{
							"internalType": "address",
							"name": "",
							"type": "address"
						}
					],
					"name": "relationAmount",
					"outputs": [
						{
							"internalType": "uint256",
							"name": "",
							"type": "uint256"
						}
					],
					"stateMutability": "view",
					"type": "function"
				},
				{
					"inputs": [
						{
							"internalType": "address",
							"name": "_address",
							"type": "address"
						}
					],
					"name": "setETCoin",
					"outputs": [],
					"stateMutability": "nonpayable",
					"type": "function"
				},
				{
					"inputs": [],
					"name": "setEndTime",
					"outputs": [],
					"stateMutability": "nonpayable",
					"type": "function"
				},
				{
					"inputs": [
						{
							"internalType": "address",
							"name": "_manager",
							"type": "address"
						},
						{
							"internalType": "bool",
							"name": "_flag",
							"type": "bool"
						}
					],
					"name": "setManager",
					"outputs": [],
					"stateMutability": "nonpayable",
					"type": "function"
				},
				{
					"inputs": [
						{
							"internalType": "address",
							"name": "_address",
							"type": "address"
						}
					],
					"name": "setNFT",
					"outputs": [],
					"stateMutability": "nonpayable",
					"type": "function"
				},
				{
					"inputs": [
						{
							"internalType": "address",
							"name": "",
							"type": "address"
						}
					],
					"name": "teamAmount",
					"outputs": [
						{
							"internalType": "uint256",
							"name": "",
							"type": "uint256"
						}
					],
					"stateMutability": "view",
					"type": "function"
				},
				{
					"inputs": [],
					"name": "totalSupply",
					"outputs": [
						{
							"internalType": "uint256",
							"name": "",
							"type": "uint256"
						}
					],
					"stateMutability": "view",
					"type": "function"
				},
				{
					"inputs": [
						{
							"internalType": "address",
							"name": "newOwner",
							"type": "address"
						}
					],
					"name": "transferOwnership",
					"outputs": [],
					"stateMutability": "nonpayable",
					"type": "function"
				},
				{
					"inputs": [],
					"name": "usdt",
					"outputs": [
						{
							"internalType": "contract IERC20",
							"name": "",
							"type": "address"
						}
					],
					"stateMutability": "view",
					"type": "function"
				},
				{
					"inputs": [
						{
							"internalType": "address",
							"name": "",
							"type": "address"
						}
					],
					"name": "userIDO",
					"outputs": [
						{
							"internalType": "uint256",
							"name": "",
							"type": "uint256"
						}
					],
					"stateMutability": "view",
					"type": "function"
				},
				{
					"inputs": [
						{
							"internalType": "address",
							"name": "",
							"type": "address"
						}
					],
					"name": "userRelation",
					"outputs": [
						{
							"internalType": "address",
							"name": "",
							"type": "address"
						}
					],
					"stateMutability": "view",
					"type": "function"
				},
				{
					"inputs": [],
					"name": "withdraw",
					"outputs": [],
					"stateMutability": "nonpayable",
					"type": "function"
				}
			],
			"devdoc": {
				"kind": "dev",
				"methods": {},
				"version": 1
			},
			"evm": {
				"assembly": "    /* \"CoinIdo.sol\":229:7001  contract CoinIdo{ \r... */\n  mstore(0x40, 0x80)\n    /* \"CoinIdo.sol\":975:981  10**18 */\n  0x0de0b6b3a7640000\n    /* \"CoinIdo.sol\":963:981  uint base = 10**18 */\n  0x0f\n  sstore\n    /* \"CoinIdo.sol\":1016:1276  constructor(address _address,address _usdt){\r... */\n  callvalue\n  dup1\n  iszero\n  tag_1\n  jumpi\n  0x00\n  dup1\n  revert\ntag_1:\n  pop\n  mload(0x40)\n  sub(codesize, bytecodeSize)\n  dup1\n  bytecodeSize\n  dup4\n  codecopy\n  dup2\n  add\n  0x40\n  dup2\n  swap1\n  mstore\n  tag_2\n  swap2\n  tag_3\n  jump\t// in\ntag_2:\n    /* \"CoinIdo.sol\":1070:1079  isOpenOne */\n  0x00\n    /* \"CoinIdo.sol\":1070:1084  isOpenOne=true */\n  dup1\n  sload\n    /* \"CoinIdo.sol\":1120:1129  isOpenIdo */\n  0x10\n    /* \"CoinIdo.sol\":1120:1137  isOpenIdo = false */\n  dup1\n  sload\n  not(0xff)\n  and\n  swap1\n  sstore\n    /* \"CoinIdo.sol\":1148:1158  IDOAddress */\n  0x05\n    /* \"CoinIdo.sol\":1148:1167  IDOAddress=_address */\n  dup1\n  sload\n  sub(shl(0xa0, 0x01), 0x01)\n  dup1\n  dup8\n  and\n  not(sub(shl(0xa0, 0x01), 0x01))\n  swap3\n  dup4\n  and\n  or\n  swap1\n  swap3\n  sstore\n    /* \"CoinIdo.sol\":1178:1182  usdt */\n  0x06\n    /* \"CoinIdo.sol\":1178:1198  usdt = IERC20(_usdt) */\n  dup1\n  sload\n  swap3\n  dup7\n  and\n  swap3\n  swap1\n  swap2\n  and\n  swap2\n  swap1\n  swap2\n  or\n  swap1\n  sstore\n    /* \"CoinIdo.sol\":1209:1227  _owner= msg.sender */\n  0x010000\n    /* \"CoinIdo.sol\":1217:1227  msg.sender */\n  caller\n    /* \"CoinIdo.sol\":1209:1227  _owner= msg.sender */\n  swap1\n  dup2\n  mul\n  not(sub(shl(0xb0, 0x01), 0x01))\n  swap1\n  swap3\n  and\n  swap2\n  swap1\n  swap2\n  or\n    /* \"CoinIdo.sol\":1095:1109  isOpenTwo=true */\n  0x0101\n    /* \"CoinIdo.sol\":1209:1227  _owner= msg.sender */\n  or\n  swap1\n  swap2\n  sstore\n    /* \"CoinIdo.sol\":1240:1268  setManager(msg.sender, true) */\n  tag_6\n  swap1\n    /* \"CoinIdo.sol\":1080:1084  true */\n  0x01\n    /* \"CoinIdo.sol\":1240:1250  setManager */\n  tag_7\n    /* \"CoinIdo.sol\":1240:1268  setManager(msg.sender, true) */\n  jump\t// in\ntag_6:\n    /* \"CoinIdo.sol\":1016:1276  constructor(address _address,address _usdt){\r... */\n  pop\n  pop\n    /* \"CoinIdo.sol\":229:7001  contract CoinIdo{ \r... */\n  jump(tag_19)\n    /* \"CoinIdo.sol\":1568:1736  function setManager(address _manager, bool _flag) public onlyOwner {\r... */\ntag_7:\n    /* \"CoinIdo.sol\":1426:1436  msg.sender */\n  caller\n    /* \"CoinIdo.sol\":1415:1422  owner() */\n  tag_10\n    /* \"CoinIdo.sol\":1328:1335  address */\n  0x00\n    /* \"CoinIdo.sol\":1355:1361  _owner */\n  sload\n  0x010000\n  swap1\n  div\n  sub(shl(0xa0, 0x01), 0x01)\n  and\n  swap1\n    /* \"CoinIdo.sol\":1282:1369  function owner() public view virtual returns (address) {\r... */\n  jump\n    /* \"CoinIdo.sol\":1415:1422  owner() */\ntag_10:\n  sub(shl(0xa0, 0x01), 0x01)\n    /* \"CoinIdo.sol\":1415:1436  owner() == msg.sender */\n  and\n  eq\n    /* \"CoinIdo.sol\":1407:1473  require(owner() == msg.sender, \"Ownable: caller is not the owner\") */\n  tag_12\n  jumpi\n  mload(0x40)\n  shl(0xe5, 0x461bcd)\n  dup2\n  mstore\n    /* \"#utility.yul\":1096:1098   */\n  0x20\n    /* \"CoinIdo.sol\":1407:1473  require(owner() == msg.sender, \"Ownable: caller is not the owner\") */\n  0x04\n  dup3\n  add\n    /* \"#utility.yul\":1078:1099   */\n  dup2\n  swap1\n  mstore\n    /* \"#utility.yul\":1115:1133   */\n  0x24\n  dup3\n  add\n    /* \"#utility.yul\":1108:1138   */\n  mstore\n    /* \"#utility.yul\":1174:1208   */\n  0x4f776e61626c653a2063616c6c6572206973206e6f7420746865206f776e6572\n    /* \"#utility.yul\":1154:1172   */\n  0x44\n  dup3\n  add\n    /* \"#utility.yul\":1147:1209   */\n  mstore\n    /* \"#utility.yul\":1226:1244   */\n  0x64\n  add\n    /* \"CoinIdo.sol\":1407:1473  require(owner() == msg.sender, \"Ownable: caller is not the owner\") */\n  mload(0x40)\n  dup1\n  swap2\n  sub\n  swap1\n  revert\ntag_12:\n  sub(shl(0xa0, 0x01), 0x01)\n    /* \"CoinIdo.sol\":1646:1665  isManager[_manager] */\n  dup3\n  and\n  0x00\n  dup2\n  dup2\n  mstore\n    /* \"CoinIdo.sol\":1646:1655  isManager */\n  0x04\n    /* \"CoinIdo.sol\":1646:1665  isManager[_manager] */\n  0x20\n  swap1\n  dup2\n  mstore\n  0x40\n  swap2\n  dup3\n  swap1\n  keccak256\n    /* \"CoinIdo.sol\":1646:1673  isManager[_manager] = _flag */\n  dup1\n  sload\n  not(0xff)\n  and\n  dup6\n  iszero\n  iszero\n  swap1\n  dup2\n  or\n  swap1\n  swap2\n  sstore\n    /* \"CoinIdo.sol\":1689:1728  SetManager(msg.sender, _manager, _flag) */\n  dup3\n  mload\n    /* \"CoinIdo.sol\":1700:1710  msg.sender */\n  caller\n    /* \"#utility.yul\":738:772   */\n  dup2\n  mstore\n    /* \"#utility.yul\":788:806   */\n  swap2\n  dup3\n  add\n    /* \"#utility.yul\":781:824   */\n  swap4\n  swap1\n  swap4\n  mstore\n    /* \"#utility.yul\":840:858   */\n  swap1\n  dup2\n  add\n    /* \"#utility.yul\":833:883   */\n  swap2\n  swap1\n  swap2\n  mstore\n    /* \"CoinIdo.sol\":1689:1728  SetManager(msg.sender, _manager, _flag) */\n  0x2862b022f51ffee932517d924c5103b3267a9d5d1f21bec54356e328aac24c18\n  swap1\n    /* \"#utility.yul\":688:690   */\n  0x60\n    /* \"#utility.yul\":673:691   */\n  add\n    /* \"CoinIdo.sol\":1689:1728  SetManager(msg.sender, _manager, _flag) */\n  mload(0x40)\n  dup1\n  swap2\n  sub\n  swap1\n  log1\n    /* \"CoinIdo.sol\":1568:1736  function setManager(address _manager, bool _flag) public onlyOwner {\r... */\n  pop\n  pop\n  jump\t// out\n    /* \"#utility.yul\":14:191   */\ntag_20:\n    /* \"#utility.yul\":93:106   */\n  dup1\n  mload\n  sub(shl(0xa0, 0x01), 0x01)\n    /* \"#utility.yul\":135:166   */\n  dup2\n  and\n    /* \"#utility.yul\":125:167   */\n  dup2\n  eq\n    /* \"#utility.yul\":115:117   */\n  tag_22\n  jumpi\n    /* \"#utility.yul\":181:182   */\n  0x00\n    /* \"#utility.yul\":178:179   */\n  dup1\n    /* \"#utility.yul\":171:183   */\n  revert\n    /* \"#utility.yul\":115:117   */\ntag_22:\n    /* \"#utility.yul\":74:191   */\n  swap2\n  swap1\n  pop\n  jump\t// out\n    /* \"#utility.yul\":196:499   */\ntag_3:\n    /* \"#utility.yul\":275:281   */\n  0x00\n    /* \"#utility.yul\":283:289   */\n  dup1\n    /* \"#utility.yul\":336:338   */\n  0x40\n    /* \"#utility.yul\":324:333   */\n  dup4\n    /* \"#utility.yul\":315:322   */\n  dup6\n    /* \"#utility.yul\":311:334   */\n  sub\n    /* \"#utility.yul\":307:339   */\n  slt\n    /* \"#utility.yul\":304:306   */\n  iszero\n  tag_24\n  jumpi\n    /* \"#utility.yul\":357:363   */\n  dup2\n    /* \"#utility.yul\":349:355   */\n  dup3\n    /* \"#utility.yul\":342:364   */\n  revert\n    /* \"#utility.yul\":304:306   */\ntag_24:\n    /* \"#utility.yul\":385:425   */\n  tag_25\n    /* \"#utility.yul\":415:424   */\n  dup4\n    /* \"#utility.yul\":385:425   */\n  tag_20\n  jump\t// in\ntag_25:\n    /* \"#utility.yul\":375:425   */\n  swap2\n  pop\n    /* \"#utility.yul\":444:493   */\n  tag_26\n    /* \"#utility.yul\":489:491   */\n  0x20\n    /* \"#utility.yul\":478:487   */\n  dup5\n    /* \"#utility.yul\":474:492   */\n  add\n    /* \"#utility.yul\":444:493   */\n  tag_20\n  jump\t// in\ntag_26:\n    /* \"#utility.yul\":434:493   */\n  swap1\n  pop\n    /* \"#utility.yul\":294:499   */\n  swap3\n  pop\n  swap3\n  swap1\n  pop\n  jump\t// out\n    /* \"#utility.yul\":1068:1250   */\ntag_19:\n    /* \"CoinIdo.sol\":229:7001  contract CoinIdo{ \r... */\n  dataSize(sub_0)\n  dup1\n  dataOffset(sub_0)\n  0x00\n  codecopy\n  0x00\n  return\nstop\n\nsub_0: assembly {\n        /* \"CoinIdo.sol\":229:7001  contract CoinIdo{ \r... */\n      mstore(0x40, 0x80)\n      callvalue\n      dup1\n      iszero\n      tag_1\n      jumpi\n      0x00\n      dup1\n      revert\n    tag_1:\n      pop\n      jumpi(tag_2, lt(calldatasize, 0x04))\n      shr(0xe0, calldataload(0x00))\n      dup1\n      0x8da5cb5b\n      gt\n      tag_34\n      jumpi\n      dup1\n      0xd3b91f7a\n      gt\n      tag_35\n      jumpi\n      dup1\n      0xf2fde38b\n      gt\n      tag_36\n      jumpi\n      dup1\n      0xf2fde38b\n      eq\n      tag_30\n      jumpi\n      dup1\n      0xf3ae2415\n      eq\n      tag_31\n      jumpi\n      dup1\n      0xf56e9c66\n      eq\n      tag_32\n      jumpi\n      dup1\n      0xfb066531\n      eq\n      tag_33\n      jumpi\n      0x00\n      dup1\n      revert\n    tag_36:\n      dup1\n      0xd3b91f7a\n      eq\n      tag_26\n      jumpi\n      dup1\n      0xe72ebdb7\n      eq\n      tag_27\n      jumpi\n      dup1\n      0xef7a47fa\n      eq\n      tag_28\n      jumpi\n      dup1\n      0xf06b41e3\n      eq\n      tag_29\n      jumpi\n      0x00\n      dup1\n      revert\n    tag_35:\n      dup1\n      0xa5e90eee\n      gt\n      tag_37\n      jumpi\n      dup1\n      0xa5e90eee\n      eq\n      tag_22\n      jumpi\n      dup1\n      0xc6b24c1c\n      eq\n      tag_23\n      jumpi\n      dup1\n      0xca5cc206\n      eq\n      tag_24\n      jumpi\n      dup1\n      0xce75710c\n      eq\n      tag_25\n      jumpi\n      0x00\n      dup1\n      revert\n    tag_37:\n      dup1\n      0x8da5cb5b\n      eq\n      tag_18\n      jumpi\n      dup1\n      0x918a6283\n      eq\n      tag_19\n      jumpi\n      dup1\n      0x965ed465\n      eq\n      tag_20\n      jumpi\n      dup1\n      0xa3f82c2c\n      eq\n      tag_21\n      jumpi\n      0x00\n      dup1\n      revert\n    tag_34:\n      dup1\n      0x5db98f2d\n      gt\n      tag_38\n      jumpi\n      dup1\n      0x6c68ec69\n      gt\n      tag_39\n      jumpi\n      dup1\n      0x6c68ec69\n      eq\n      tag_14\n      jumpi\n      dup1\n      0x76be6af6\n      eq\n      tag_15\n      jumpi\n      dup1\n      0x8381f58a\n      eq\n      tag_16\n      jumpi\n      dup1\n      0x8b9272b7\n      eq\n      tag_17\n      jumpi\n      0x00\n      dup1\n      revert\n    tag_39:\n      dup1\n      0x5db98f2d\n      eq\n      tag_10\n      jumpi\n      dup1\n      0x68da5e8e\n      eq\n      tag_11\n      jumpi\n      dup1\n      0x6a15915a\n      eq\n      tag_12\n      jumpi\n      dup1\n      0x6a41d5d7\n      eq\n      tag_13\n      jumpi\n      0x00\n      dup1\n      revert\n    tag_38:\n      dup1\n      0x2f48ab7d\n      gt\n      tag_40\n      jumpi\n      dup1\n      0x2f48ab7d\n      eq\n      tag_6\n      jumpi\n      dup1\n      0x3197cbb6\n      eq\n      tag_7\n      jumpi\n      dup1\n      0x3ccfd60b\n      eq\n      tag_8\n      jumpi\n      dup1\n      0x4e876f5c\n      eq\n      tag_9\n      jumpi\n      0x00\n      dup1\n      revert\n    tag_40:\n      dup1\n      0x0e73d199\n      eq\n      tag_3\n      jumpi\n      dup1\n      0x18160ddd\n      eq\n      tag_4\n      jumpi\n      dup1\n      0x238c4c2f\n      eq\n      tag_5\n      jumpi\n    tag_2:\n      0x00\n      dup1\n      revert\n        /* \"CoinIdo.sol\":3521:5121  function _IDOUsdt(uint value)public { \r... */\n    tag_3:\n      tag_41\n      tag_42\n      calldatasize\n      0x04\n      tag_43\n      jump\t// in\n    tag_42:\n      tag_44\n      jump\t// in\n    tag_41:\n      stop\n        /* \"CoinIdo.sol\":386:412  uint256 public totalSupply */\n    tag_4:\n      tag_45\n      sload(0x02)\n      dup2\n      jump\n    tag_45:\n      mload(0x40)\n        /* \"#utility.yul\":11724:11749   */\n      swap1\n      dup2\n      mstore\n        /* \"#utility.yul\":11712:11714   */\n      0x20\n        /* \"#utility.yul\":11697:11715   */\n      add\n        /* \"CoinIdo.sol\":386:412  uint256 public totalSupply */\n    tag_47:\n      mload(0x40)\n      dup1\n      swap2\n      sub\n      swap1\n      return\n        /* \"CoinIdo.sol\":2984:3470  function _addRelation(address[]memory addressFrom,address[]memory addressTo)public onlyOwner{\r... */\n    tag_5:\n      tag_41\n      tag_50\n      calldatasize\n      0x04\n      tag_51\n      jump\t// in\n    tag_50:\n      tag_52\n      jump\t// in\n        /* \"CoinIdo.sol\":550:568  IERC20 public usdt */\n    tag_6:\n      sload(0x06)\n      tag_53\n      swap1\n      0xffffffffffffffffffffffffffffffffffffffff\n      and\n      dup2\n      jump\n    tag_53:\n      mload(0x40)\n        /* \"#utility.yul\":4026:4068   */\n      0xffffffffffffffffffffffffffffffffffffffff\n        /* \"#utility.yul\":4014:4069   */\n      swap1\n      swap2\n      and\n        /* \"#utility.yul\":3996:4070   */\n      dup2\n      mstore\n        /* \"#utility.yul\":3984:3986   */\n      0x20\n        /* \"#utility.yul\":3969:3987   */\n      add\n        /* \"CoinIdo.sol\":550:568  IERC20 public usdt */\n      tag_47\n        /* \"#utility.yul\":3951:4076   */\n      jump\n        /* \"CoinIdo.sol\":340:362  uint256 public endTime */\n    tag_7:\n      tag_45\n      sload(0x01)\n      dup2\n      jump\n        /* \"CoinIdo.sol\":5468:6334  function withdraw()public{\r... */\n    tag_8:\n      tag_41\n      tag_61\n      jump\t// in\n        /* \"CoinIdo.sol\":868:907  mapping(address=>uint)public teamAmount */\n    tag_9:\n      tag_45\n      tag_63\n      calldatasize\n      0x04\n      tag_64\n      jump\t// in\n    tag_63:\n      mstore(0x20, 0x0d)\n      0x00\n      swap1\n      dup2\n      mstore\n      0x40\n      swap1\n      keccak256\n      sload\n      dup2\n      jump\n        /* \"CoinIdo.sol\":283:304  bool public isOpenTwo */\n    tag_10:\n      sload(0x00)\n      tag_67\n      swap1\n      0x0100\n      swap1\n      div\n      0xff\n      and\n      dup2\n      jump\n    tag_67:\n      mload(0x40)\n        /* \"#utility.yul\":6539:6553   */\n      swap1\n      iszero\n        /* \"#utility.yul\":6532:6554   */\n      iszero\n        /* \"#utility.yul\":6514:6555   */\n      dup2\n      mstore\n        /* \"#utility.yul\":6502:6504   */\n      0x20\n        /* \"#utility.yul\":6487:6505   */\n      add\n        /* \"CoinIdo.sol\":283:304  bool public isOpenTwo */\n      tag_47\n        /* \"#utility.yul\":6469:6561   */\n      jump\n        /* \"CoinIdo.sol\":575:594  IETNFT public etNft */\n    tag_11:\n      sload(0x07)\n      tag_53\n      swap1\n      0xffffffffffffffffffffffffffffffffffffffff\n      and\n      dup2\n      jump\n        /* \"CoinIdo.sol\":2593:2680  function openOpenIdo(bool _flag) public onlyManager{\r... */\n    tag_12:\n      tag_41\n      tag_76\n      calldatasize\n      0x04\n      tag_77\n      jump\t// in\n    tag_76:\n      tag_78\n      jump\t// in\n        /* \"CoinIdo.sol\":736:772  mapping(address=>uint)public userIDO */\n    tag_13:\n      tag_45\n      tag_80\n      calldatasize\n      0x04\n      tag_64\n      jump\t// in\n    tag_80:\n      mstore(0x20, 0x0b)\n      0x00\n      swap1\n      dup2\n      mstore\n      0x40\n      swap1\n      keccak256\n      sload\n      dup2\n      jump\n        /* \"CoinIdo.sol\":2411:2496  function openOpenOne(bool _flag) public onlyManager{\r... */\n    tag_14:\n      tag_41\n      tag_84\n      calldatasize\n      0x04\n      tag_77\n      jump\t// in\n    tag_84:\n      tag_85\n      jump\t// in\n        /* \"CoinIdo.sol\":2737:2911  function setEndTime() public onlyOwner{\r... */\n    tag_15:\n      tag_41\n      tag_87\n      jump\t// in\n        /* \"CoinIdo.sol\":427:448  uint256 public number */\n    tag_16:\n      tag_45\n      sload(0x03)\n      dup2\n      jump\n        /* \"CoinIdo.sol\":601:621  IERC20 public etCoin */\n    tag_17:\n      sload(0x08)\n      tag_53\n      swap1\n      0xffffffffffffffffffffffffffffffffffffffff\n      and\n      dup2\n      jump\n        /* \"CoinIdo.sol\":1282:1369  function owner() public view virtual returns (address) {\r... */\n    tag_18:\n        /* \"CoinIdo.sol\":1328:1335  address */\n      0x00\n        /* \"CoinIdo.sol\":1355:1361  _owner */\n      sload\n      0x010000\n      swap1\n      div\n      0xffffffffffffffffffffffffffffffffffffffff\n      and\n        /* \"CoinIdo.sol\":1282:1369  function owner() public view virtual returns (address) {\r... */\n      jump(tag_53)\n        /* \"CoinIdo.sol\":5127:5399  function allowET(address _address)public{\r... */\n    tag_19:\n      tag_41\n      tag_99\n      calldatasize\n      0x04\n      tag_64\n      jump\t// in\n    tag_99:\n      tag_100\n      jump\t// in\n        /* \"CoinIdo.sol\":2306:2405  function setETCoin(address _address) public onlyManager{\r... */\n    tag_20:\n      tag_41\n      tag_102\n      calldatasize\n      0x04\n      tag_64\n      jump\t// in\n    tag_102:\n      tag_103\n      jump\t// in\n        /* \"CoinIdo.sol\":914:956  mapping(address=>uint)public awaitWithdraw */\n    tag_21:\n      tag_45\n      tag_105\n      calldatasize\n      0x04\n      tag_64\n      jump\t// in\n    tag_105:\n      mstore(0x20, 0x0e)\n      0x00\n      swap1\n      dup2\n      mstore\n      0x40\n      swap1\n      keccak256\n      sload\n      dup2\n      jump\n        /* \"CoinIdo.sol\":1568:1736  function setManager(address _manager, bool _flag) public onlyOwner {\r... */\n    tag_22:\n      tag_41\n      tag_109\n      calldatasize\n      0x04\n      tag_110\n      jump\t// in\n    tag_109:\n      tag_111\n      jump\t// in\n        /* \"CoinIdo.sol\":518:543  address public IDOAddress */\n    tag_23:\n      sload(0x05)\n      tag_53\n      swap1\n      0xffffffffffffffffffffffffffffffffffffffff\n      and\n      dup2\n      jump\n        /* \"CoinIdo.sol\":2502:2587  function openOpenTwo(bool _flag) public onlyManager{\r... */\n    tag_24:\n      tag_41\n      tag_116\n      calldatasize\n      0x04\n      tag_77\n      jump\t// in\n    tag_116:\n      tag_117\n      jump\t// in\n        /* \"CoinIdo.sol\":988:1009  bool public isOpenIdo */\n    tag_25:\n      sload(0x10)\n      tag_67\n      swap1\n      0xff\n      and\n      dup2\n      jump\n        /* \"CoinIdo.sol\":628:662  mapping(address=>bool[]) public lb */\n    tag_26:\n      tag_67\n      tag_122\n      calldatasize\n      0x04\n      tag_123\n      jump\t// in\n    tag_122:\n      tag_124\n      jump\t// in\n        /* \"CoinIdo.sol\":669:713  mapping(address=>address)public userRelation */\n    tag_27:\n      tag_53\n      tag_127\n      calldatasize\n      0x04\n      tag_64\n      jump\t// in\n    tag_127:\n      mstore(0x20, 0x0a)\n      0x00\n      swap1\n      dup2\n      mstore\n      0x40\n      swap1\n      keccak256\n      sload\n      0xffffffffffffffffffffffffffffffffffffffff\n      and\n      dup2\n      jump\n        /* \"CoinIdo.sol\":6346:6998  function getWithDraw()public view returns(uint){\r... */\n    tag_28:\n      tag_45\n      tag_131\n      jump\t// in\n        /* \"CoinIdo.sol\":798:841  mapping(address=>uint)public relationAmount */\n    tag_29:\n      tag_45\n      tag_134\n      calldatasize\n      0x04\n      tag_64\n      jump\t// in\n    tag_134:\n      mstore(0x20, 0x0c)\n      0x00\n      swap1\n      dup2\n      mstore\n      0x40\n      swap1\n      keccak256\n      sload\n      dup2\n      jump\n        /* \"CoinIdo.sol\":1921:2195  function transferOwnership(address newOwner) public onlyOwner {\r... */\n    tag_30:\n      tag_41\n      tag_138\n      calldatasize\n      0x04\n      tag_64\n      jump\t// in\n    tag_138:\n      tag_139\n      jump\t// in\n        /* \"CoinIdo.sol\":467:508  mapping(address => bool) public isManager */\n    tag_31:\n      tag_67\n      tag_141\n      calldatasize\n      0x04\n      tag_64\n      jump\t// in\n    tag_141:\n      mstore(0x20, 0x04)\n      0x00\n      swap1\n      dup2\n      mstore\n      0x40\n      swap1\n      keccak256\n      sload\n      0xff\n      and\n      dup2\n      jump\n        /* \"CoinIdo.sol\":2205:2300  function setNFT(address _address) public onlyManager{\r... */\n    tag_32:\n      tag_41\n      tag_145\n      calldatasize\n      0x04\n      tag_64\n      jump\t// in\n    tag_145:\n      tag_146\n      jump\t// in\n        /* \"CoinIdo.sol\":255:276  bool public isOpenOne */\n    tag_33:\n      sload(0x00)\n      tag_67\n      swap1\n      0xff\n      and\n      dup2\n      jump\n        /* \"CoinIdo.sol\":3521:5121  function _IDOUsdt(uint value)public { \r... */\n    tag_44:\n        /* \"CoinIdo.sol\":3577:3586  isOpenIdo */\n      and(0xff, sload(0x10))\n        /* \"CoinIdo.sol\":3569:3603  require(isOpenIdo,\"ido is closed\") */\n      tag_151\n      jumpi\n      mload(0x40)\n      0x08c379a000000000000000000000000000000000000000000000000000000000\n      dup2\n      mstore\n        /* \"#utility.yul\":11438:11440   */\n      0x20\n        /* \"CoinIdo.sol\":3569:3603  require(isOpenIdo,\"ido is closed\") */\n      0x04\n      dup3\n      add\n        /* \"#utility.yul\":11420:11441   */\n      mstore\n        /* \"#utility.yul\":11477:11479   */\n      0x0d\n        /* \"#utility.yul\":11457:11475   */\n      0x24\n      dup3\n      add\n        /* \"#utility.yul\":11450:11480   */\n      mstore\n        /* \"#utility.yul\":11516:11531   */\n      0x69646f20697320636c6f73656400000000000000000000000000000000000000\n        /* \"#utility.yul\":11496:11514   */\n      0x44\n      dup3\n      add\n        /* \"#utility.yul\":11489:11532   */\n      mstore\n        /* \"#utility.yul\":11549:11567   */\n      0x64\n      add\n        /* \"CoinIdo.sol\":3569:3603  require(isOpenIdo,\"ido is closed\") */\n    tag_152:\n      mload(0x40)\n      dup1\n      swap2\n      sub\n      swap1\n      revert\n    tag_151:\n        /* \"CoinIdo.sol\":3628:3629  0 */\n      0x00\n        /* \"CoinIdo.sol\":3622:3627  value */\n      dup2\n        /* \"CoinIdo.sol\":3622:3629  value>0 */\n      gt\n        /* \"CoinIdo.sol\":3614:3646  require(value>0,\"value is zero\") */\n      tag_154\n      jumpi\n      mload(0x40)\n      0x08c379a000000000000000000000000000000000000000000000000000000000\n      dup2\n      mstore\n        /* \"#utility.yul\":7259:7261   */\n      0x20\n        /* \"CoinIdo.sol\":3614:3646  require(value>0,\"value is zero\") */\n      0x04\n      dup3\n      add\n        /* \"#utility.yul\":7241:7262   */\n      mstore\n        /* \"#utility.yul\":7298:7300   */\n      0x0d\n        /* \"#utility.yul\":7278:7296   */\n      0x24\n      dup3\n      add\n        /* \"#utility.yul\":7271:7301   */\n      mstore\n        /* \"#utility.yul\":7337:7352   */\n      0x76616c7565206973207a65726f00000000000000000000000000000000000000\n        /* \"#utility.yul\":7317:7335   */\n      0x44\n      dup3\n      add\n        /* \"#utility.yul\":7310:7353   */\n      mstore\n        /* \"#utility.yul\":7370:7388   */\n      0x64\n      add\n        /* \"CoinIdo.sol\":3614:3646  require(value>0,\"value is zero\") */\n      tag_152\n        /* \"#utility.yul\":7231:7394   */\n      jump\n        /* \"CoinIdo.sol\":3614:3646  require(value>0,\"value is zero\") */\n    tag_154:\n        /* \"CoinIdo.sol\":3672:3682  msg.sender */\n      caller\n        /* \"CoinIdo.sol\":3657:3669  address from */\n      0x00\n        /* \"CoinIdo.sol\":3714:3727  userIDO[from] */\n      dup2\n      dup2\n      mstore\n        /* \"CoinIdo.sol\":3714:3721  userIDO */\n      0x0b\n        /* \"CoinIdo.sol\":3714:3727  userIDO[from] */\n      0x20\n      mstore\n      0x40\n      swap1\n      keccak256\n      sload\n        /* \"CoinIdo.sol\":3754:3758  base */\n      sload(0x0f)\n        /* \"CoinIdo.sol\":3749:3758  2000*base */\n      tag_157\n      swap1\n        /* \"CoinIdo.sol\":3749:3753  2000 */\n      0x07d0\n        /* \"CoinIdo.sol\":3749:3758  2000*base */\n      tag_158\n      jump\t// in\n    tag_157:\n        /* \"CoinIdo.sol\":3741:3747  amount */\n      dup2\n        /* \"CoinIdo.sol\":3741:3758  amount>=2000*base */\n      lt\n      iszero\n        /* \"CoinIdo.sol\":3741:3787  amount>=2000*base || amount + value>=2000*base */\n      dup1\n      tag_159\n      jumpi\n      pop\n        /* \"CoinIdo.sol\":3783:3787  base */\n      sload(0x0f)\n        /* \"CoinIdo.sol\":3778:3787  2000*base */\n      tag_160\n      swap1\n        /* \"CoinIdo.sol\":3778:3782  2000 */\n      0x07d0\n        /* \"CoinIdo.sol\":3778:3787  2000*base */\n      tag_158\n      jump\t// in\n    tag_160:\n        /* \"CoinIdo.sol\":3762:3776  amount + value */\n      tag_161\n        /* \"CoinIdo.sol\":3771:3776  value */\n      dup5\n        /* \"CoinIdo.sol\":3762:3768  amount */\n      dup4\n        /* \"CoinIdo.sol\":3762:3776  amount + value */\n      tag_162\n      jump\t// in\n    tag_161:\n        /* \"CoinIdo.sol\":3762:3787  amount + value>=2000*base */\n      lt\n      iszero\n        /* \"CoinIdo.sol\":3741:3787  amount>=2000*base || amount + value>=2000*base */\n    tag_159:\n        /* \"CoinIdo.sol\":3738:3855  if(amount>=2000*base || amount + value>=2000*base){\r... */\n      iszero\n      tag_164\n      jumpi\n        /* \"CoinIdo.sol\":3811:3820  isOpenTwo */\n      sload(0x00)\n      0x0100\n      swap1\n      div\n      0xff\n      and\n        /* \"CoinIdo.sol\":3803:3843  require(isOpenTwo,\"two thousand closed\") */\n      tag_164\n      jumpi\n      mload(0x40)\n      0x08c379a000000000000000000000000000000000000000000000000000000000\n      dup2\n      mstore\n        /* \"#utility.yul\":9027:9029   */\n      0x20\n        /* \"CoinIdo.sol\":3803:3843  require(isOpenTwo,\"two thousand closed\") */\n      0x04\n      dup3\n      add\n        /* \"#utility.yul\":9009:9030   */\n      mstore\n        /* \"#utility.yul\":9066:9068   */\n      0x13\n        /* \"#utility.yul\":9046:9064   */\n      0x24\n      dup3\n      add\n        /* \"#utility.yul\":9039:9069   */\n      mstore\n        /* \"#utility.yul\":9105:9126   */\n      0x74776f2074686f7573616e6420636c6f73656400000000000000000000000000\n        /* \"#utility.yul\":9085:9103   */\n      0x44\n      dup3\n      add\n        /* \"#utility.yul\":9078:9127   */\n      mstore\n        /* \"#utility.yul\":9144:9162   */\n      0x64\n      add\n        /* \"CoinIdo.sol\":3803:3843  require(isOpenTwo,\"two thousand closed\") */\n      tag_152\n        /* \"#utility.yul\":8999:9168   */\n      jump\n        /* \"CoinIdo.sol\":3803:3843  require(isOpenTwo,\"two thousand closed\") */\n    tag_164:\n        /* \"CoinIdo.sol\":3892:3896  base */\n      sload(0x0f)\n        /* \"CoinIdo.sol\":3887:3896  2000*base */\n      tag_167\n      swap1\n        /* \"CoinIdo.sol\":3887:3891  2000 */\n      0x07d0\n        /* \"CoinIdo.sol\":3887:3896  2000*base */\n      tag_158\n      jump\t// in\n    tag_167:\n        /* \"CoinIdo.sol\":3873:3885  amount+value */\n      tag_168\n        /* \"CoinIdo.sol\":3880:3885  value */\n      dup5\n        /* \"CoinIdo.sol\":3873:3879  amount */\n      dup4\n        /* \"CoinIdo.sol\":3873:3885  amount+value */\n      tag_162\n      jump\t// in\n    tag_168:\n        /* \"CoinIdo.sol\":3873:3896  amount+value<=2000*base */\n      gt\n      iszero\n        /* \"CoinIdo.sol\":3865:3907  require(amount+value<=2000*base,\"not IDO\") */\n      tag_169\n      jumpi\n      mload(0x40)\n      0x08c379a000000000000000000000000000000000000000000000000000000000\n      dup2\n      mstore\n        /* \"#utility.yul\":10759:10761   */\n      0x20\n        /* \"CoinIdo.sol\":3865:3907  require(amount+value<=2000*base,\"not IDO\") */\n      0x04\n      dup3\n      add\n        /* \"#utility.yul\":10741:10762   */\n      mstore\n        /* \"#utility.yul\":10798:10799   */\n      0x07\n        /* \"#utility.yul\":10778:10796   */\n      0x24\n      dup3\n      add\n        /* \"#utility.yul\":10771:10800   */\n      mstore\n        /* \"#utility.yul\":10836:10845   */\n      0x6e6f742049444f00000000000000000000000000000000000000000000000000\n        /* \"#utility.yul\":10816:10834   */\n      0x44\n      dup3\n      add\n        /* \"#utility.yul\":10809:10846   */\n      mstore\n        /* \"#utility.yul\":10863:10881   */\n      0x64\n      add\n        /* \"CoinIdo.sol\":3865:3907  require(amount+value<=2000*base,\"not IDO\") */\n      tag_152\n        /* \"#utility.yul\":10731:10887   */\n      jump\n        /* \"CoinIdo.sol\":3865:3907  require(amount+value<=2000*base,\"not IDO\") */\n    tag_169:\n        /* \"CoinIdo.sol\":3944:3962  userRelation[from] */\n      0xffffffffffffffffffffffffffffffffffffffff\n      dup1\n      dup4\n      and\n        /* \"CoinIdo.sol\":3918:3941  address lastLevelAddres */\n      0x00\n        /* \"CoinIdo.sol\":3944:3962  userRelation[from] */\n      swap1\n      dup2\n      mstore\n        /* \"CoinIdo.sol\":3944:3956  userRelation */\n      0x0a\n        /* \"CoinIdo.sol\":3944:3962  userRelation[from] */\n      0x20\n      mstore\n      0x40\n      swap1\n      keccak256\n      sload\n      and\n        /* \"CoinIdo.sol\":3976:4004  lastLevelAddres !=address(0) */\n      dup1\n      iszero\n        /* \"CoinIdo.sol\":3973:4571  if(lastLevelAddres !=address(0)){\r... */\n      tag_172\n      jumpi\n        /* \"CoinIdo.sol\":4023:4047  userIDO[lastLevelAddres] */\n      0xffffffffffffffffffffffffffffffffffffffff\n      dup2\n      and\n        /* \"CoinIdo.sol\":4048:4049  0 */\n      0x00\n        /* \"CoinIdo.sol\":4023:4047  userIDO[lastLevelAddres] */\n      swap1\n      dup2\n      mstore\n        /* \"CoinIdo.sol\":4023:4030  userIDO */\n      0x0b\n        /* \"CoinIdo.sol\":4023:4047  userIDO[lastLevelAddres] */\n      0x20\n      mstore\n      0x40\n      swap1\n      keccak256\n      sload\n        /* \"CoinIdo.sol\":4023:4049  userIDO[lastLevelAddres]>0 */\n      iszero\n        /* \"CoinIdo.sol\":4020:4327  if(userIDO[lastLevelAddres]>0){\r... */\n      tag_173\n      jumpi\n        /* \"CoinIdo.sol\":4069:4079  uint bonus */\n      0x00\n        /* \"CoinIdo.sol\":4092:4097  10000 */\n      0x2710\n        /* \"CoinIdo.sol\":4082:4091  value*500 */\n      tag_174\n        /* \"CoinIdo.sol\":4082:4087  value */\n      dup7\n        /* \"CoinIdo.sol\":4088:4091  500 */\n      0x01f4\n        /* \"CoinIdo.sol\":4082:4091  value*500 */\n      tag_158\n      jump\t// in\n    tag_174:\n        /* \"CoinIdo.sol\":4082:4097  value*500/10000 */\n      tag_175\n      swap2\n      swap1\n      tag_176\n      jump\t// in\n    tag_175:\n        /* \"CoinIdo.sol\":4116:4120  usdt */\n      sload(0x06)\n        /* \"CoinIdo.sol\":4116:4163  usdt.transferFrom(from, lastLevelAddres, bonus) */\n      mload(0x40)\n      0x23b872dd00000000000000000000000000000000000000000000000000000000\n      dup2\n      mstore\n        /* \"CoinIdo.sol\":4116:4120  usdt */\n      0xffffffffffffffffffffffffffffffffffffffff\n        /* \"#utility.yul\":5107:5122   */\n      dup8\n      dup2\n      and\n        /* \"CoinIdo.sol\":4116:4163  usdt.transferFrom(from, lastLevelAddres, bonus) */\n      0x04\n      dup4\n      add\n        /* \"#utility.yul\":5089:5123   */\n      mstore\n        /* \"#utility.yul\":5159:5174   */\n      dup6\n      dup2\n      and\n        /* \"#utility.yul\":5139:5157   */\n      0x24\n      dup4\n      add\n        /* \"#utility.yul\":5132:5175   */\n      mstore\n        /* \"#utility.yul\":5191:5209   */\n      0x44\n      dup3\n      add\n        /* \"#utility.yul\":5184:5218   */\n      dup5\n      swap1\n      mstore\n        /* \"CoinIdo.sol\":4069:4097  uint bonus = value*500/10000 */\n      swap3\n      swap4\n      pop\n        /* \"CoinIdo.sol\":4116:4120  usdt */\n      swap2\n      and\n      swap1\n        /* \"CoinIdo.sol\":4116:4133  usdt.transferFrom */\n      0x23b872dd\n      swap1\n        /* \"#utility.yul\":5001:5019   */\n      0x64\n      add\n        /* \"CoinIdo.sol\":4116:4163  usdt.transferFrom(from, lastLevelAddres, bonus) */\n      0x20\n      mload(0x40)\n      dup1\n      dup4\n      sub\n      dup2\n      0x00\n      dup8\n      dup1\n      extcodesize\n      iszero\n      dup1\n      iszero\n      tag_179\n      jumpi\n      0x00\n      dup1\n      revert\n    tag_179:\n      pop\n      gas\n      call\n      iszero\n      dup1\n      iszero\n      tag_181\n      jumpi\n      returndatasize\n      0x00\n      dup1\n      returndatacopy\n      revert(0x00, returndatasize)\n    tag_181:\n      pop\n      pop\n      pop\n      pop\n      mload(0x40)\n      returndatasize\n      not(0x1f)\n      0x1f\n      dup3\n      add\n      and\n      dup3\n      add\n      dup1\n      0x40\n      mstore\n      pop\n      dup2\n      add\n      swap1\n      tag_182\n      swap2\n      swap1\n      tag_183\n      jump\t// in\n    tag_182:\n      pop\n        /* \"CoinIdo.sol\":4182:4186  usdt */\n      sload(0x06)\n        /* \"CoinIdo.sol\":4206:4216  IDOAddress */\n      sload(0x05)\n        /* \"CoinIdo.sol\":4182:4186  usdt */\n      0xffffffffffffffffffffffffffffffffffffffff\n      swap2\n      dup3\n      and\n      swap2\n        /* \"CoinIdo.sol\":4182:4199  usdt.transferFrom */\n      0x23b872dd\n      swap2\n        /* \"CoinIdo.sol\":4200:4204  from */\n      dup8\n      swap2\n        /* \"CoinIdo.sol\":4206:4216  IDOAddress */\n      and\n        /* \"CoinIdo.sol\":4218:4229  value-bonus */\n      tag_184\n        /* \"CoinIdo.sol\":4224:4229  bonus */\n      dup6\n        /* \"CoinIdo.sol\":4218:4223  value */\n      dup11\n        /* \"CoinIdo.sol\":4218:4229  value-bonus */\n      tag_185\n      jump\t// in\n    tag_184:\n        /* \"CoinIdo.sol\":4182:4230  usdt.transferFrom(from, IDOAddress, value-bonus) */\n      mload(0x40)\n      0xffffffff00000000000000000000000000000000000000000000000000000000\n      0xe0\n      dup7\n      swap1\n      shl\n      and\n      dup2\n      mstore\n        /* \"#utility.yul\":5038:5080   */\n      0xffffffffffffffffffffffffffffffffffffffff\n        /* \"#utility.yul\":5107:5122   */\n      swap4\n      dup5\n      and\n        /* \"CoinIdo.sol\":4182:4230  usdt.transferFrom(from, IDOAddress, value-bonus) */\n      0x04\n      dup3\n      add\n        /* \"#utility.yul\":5089:5123   */\n      mstore\n        /* \"#utility.yul\":5159:5174   */\n      swap3\n      swap1\n      swap2\n      and\n        /* \"#utility.yul\":5139:5157   */\n      0x24\n      dup4\n      add\n        /* \"#utility.yul\":5132:5175   */\n      mstore\n        /* \"#utility.yul\":5191:5209   */\n      0x44\n      dup3\n      add\n        /* \"#utility.yul\":5184:5218   */\n      mstore\n        /* \"#utility.yul\":5001:5019   */\n      0x64\n      add\n        /* \"CoinIdo.sol\":4182:4230  usdt.transferFrom(from, IDOAddress, value-bonus) */\n      0x20\n      mload(0x40)\n      dup1\n      dup4\n      sub\n      dup2\n      0x00\n      dup8\n      dup1\n      extcodesize\n      iszero\n      dup1\n      iszero\n      tag_187\n      jumpi\n      0x00\n      dup1\n      revert\n    tag_187:\n      pop\n      gas\n      call\n      iszero\n      dup1\n      iszero\n      tag_189\n      jumpi\n      returndatasize\n      0x00\n      dup1\n      returndatacopy\n      revert(0x00, returndatasize)\n    tag_189:\n      pop\n      pop\n      pop\n      pop\n      mload(0x40)\n      returndatasize\n      not(0x1f)\n      0x1f\n      dup3\n      add\n      and\n      dup3\n      add\n      dup1\n      0x40\n      mstore\n      pop\n      dup2\n      add\n      swap1\n      tag_190\n      swap2\n      swap1\n      tag_183\n      jump\t// in\n    tag_190:\n      pop\n        /* \"CoinIdo.sol\":4020:4327  if(userIDO[lastLevelAddres]>0){\r... */\n      pop\n      jump(tag_191)\n    tag_173:\n        /* \"CoinIdo.sol\":4269:4273  usdt */\n      sload(0x06)\n        /* \"CoinIdo.sol\":4293:4303  IDOAddress */\n      sload(0x05)\n        /* \"CoinIdo.sol\":4269:4311  usdt.transferFrom(from, IDOAddress, value) */\n      mload(0x40)\n      0x23b872dd00000000000000000000000000000000000000000000000000000000\n      dup2\n      mstore\n        /* \"CoinIdo.sol\":4269:4273  usdt */\n      0xffffffffffffffffffffffffffffffffffffffff\n        /* \"#utility.yul\":5107:5122   */\n      dup7\n      dup2\n      and\n        /* \"CoinIdo.sol\":4269:4311  usdt.transferFrom(from, IDOAddress, value) */\n      0x04\n      dup4\n      add\n        /* \"#utility.yul\":5089:5123   */\n      mstore\n        /* \"CoinIdo.sol\":4293:4303  IDOAddress */\n      swap2\n      dup3\n      and\n        /* \"#utility.yul\":5139:5157   */\n      0x24\n      dup3\n      add\n        /* \"#utility.yul\":5132:5175   */\n      mstore\n        /* \"#utility.yul\":5191:5209   */\n      0x44\n      dup2\n      add\n        /* \"#utility.yul\":5184:5218   */\n      dup8\n      swap1\n      mstore\n        /* \"CoinIdo.sol\":4269:4273  usdt */\n      swap2\n      and\n      swap1\n        /* \"CoinIdo.sol\":4269:4286  usdt.transferFrom */\n      0x23b872dd\n      swap1\n        /* \"#utility.yul\":5001:5019   */\n      0x64\n      add\n        /* \"CoinIdo.sol\":4269:4311  usdt.transferFrom(from, IDOAddress, value) */\n      0x20\n      mload(0x40)\n      dup1\n      dup4\n      sub\n      dup2\n      0x00\n      dup8\n      dup1\n      extcodesize\n      iszero\n      dup1\n      iszero\n      tag_193\n      jumpi\n      0x00\n      dup1\n      revert\n    tag_193:\n      pop\n      gas\n      call\n      iszero\n      dup1\n      iszero\n      tag_195\n      jumpi\n      returndatasize\n      0x00\n      dup1\n      returndatacopy\n      revert(0x00, returndatasize)\n    tag_195:\n      pop\n      pop\n      pop\n      pop\n      mload(0x40)\n      returndatasize\n      not(0x1f)\n      0x1f\n      dup3\n      add\n      and\n      dup3\n      add\n      dup1\n      0x40\n      mstore\n      pop\n      dup2\n      add\n      swap1\n      tag_196\n      swap2\n      swap1\n      tag_183\n      jump\t// in\n    tag_196:\n      pop\n        /* \"CoinIdo.sol\":4020:4327  if(userIDO[lastLevelAddres]>0){\r... */\n    tag_191:\n        /* \"CoinIdo.sol\":4373:4404  relationAmount[lastLevelAddres] */\n      0xffffffffffffffffffffffffffffffffffffffff\n      dup2\n      and\n      0x00\n      swap1\n      dup2\n      mstore\n        /* \"CoinIdo.sol\":4373:4387  relationAmount */\n      0x0c\n        /* \"CoinIdo.sol\":4373:4404  relationAmount[lastLevelAddres] */\n      0x20\n      mstore\n      0x40\n      swap1\n      keccak256\n      sload\n        /* \"CoinIdo.sol\":4373:4410  relationAmount[lastLevelAddres]+value */\n      tag_197\n      swap1\n        /* \"CoinIdo.sol\":4405:4410  value */\n      dup6\n      swap1\n        /* \"CoinIdo.sol\":4373:4410  relationAmount[lastLevelAddres]+value */\n      tag_162\n      jump\t// in\n    tag_197:\n        /* \"CoinIdo.sol\":4341:4372  relationAmount[lastLevelAddres] */\n      0xffffffffffffffffffffffffffffffffffffffff\n      dup3\n      and\n      0x00\n      swap1\n      dup2\n      mstore\n        /* \"CoinIdo.sol\":4341:4355  relationAmount */\n      0x0c\n        /* \"CoinIdo.sol\":4341:4372  relationAmount[lastLevelAddres] */\n      0x20\n      swap1\n      dup2\n      mstore\n      0x40\n      dup1\n      dup4\n      keccak256\n        /* \"CoinIdo.sol\":4341:4410  relationAmount[lastLevelAddres]=relationAmount[lastLevelAddres]+value */\n      swap4\n      swap1\n      swap4\n      sstore\n        /* \"CoinIdo.sol\":4453:4463  teamAmount */\n      0x0d\n        /* \"CoinIdo.sol\":4453:4480  teamAmount[lastLevelAddres] */\n      swap1\n      mstore\n      keccak256\n      sload\n        /* \"CoinIdo.sol\":4453:4486  teamAmount[lastLevelAddres]+value */\n      tag_198\n      swap1\n        /* \"CoinIdo.sol\":4481:4486  value */\n      dup6\n      swap1\n        /* \"CoinIdo.sol\":4453:4486  teamAmount[lastLevelAddres]+value */\n      tag_162\n      jump\t// in\n    tag_198:\n        /* \"CoinIdo.sol\":4425:4452  teamAmount[lastLevelAddres] */\n      0xffffffffffffffffffffffffffffffffffffffff\n      dup3\n      and\n      0x00\n      swap1\n      dup2\n      mstore\n        /* \"CoinIdo.sol\":4425:4435  teamAmount */\n      0x0d\n        /* \"CoinIdo.sol\":4425:4452  teamAmount[lastLevelAddres] */\n      0x20\n      mstore\n      0x40\n      swap1\n      keccak256\n        /* \"CoinIdo.sol\":4425:4486  teamAmount[lastLevelAddres]=teamAmount[lastLevelAddres]+value */\n      sstore\n        /* \"CoinIdo.sol\":3973:4571  if(lastLevelAddres !=address(0)){\r... */\n      jump(tag_199)\n    tag_172:\n        /* \"CoinIdo.sol\":4517:4521  usdt */\n      sload(0x06)\n        /* \"CoinIdo.sol\":4541:4551  IDOAddress */\n      sload(0x05)\n        /* \"CoinIdo.sol\":4517:4559  usdt.transferFrom(from, IDOAddress, value) */\n      mload(0x40)\n      0x23b872dd00000000000000000000000000000000000000000000000000000000\n      dup2\n      mstore\n        /* \"CoinIdo.sol\":4517:4521  usdt */\n      0xffffffffffffffffffffffffffffffffffffffff\n        /* \"#utility.yul\":5107:5122   */\n      dup7\n      dup2\n      and\n        /* \"CoinIdo.sol\":4517:4559  usdt.transferFrom(from, IDOAddress, value) */\n      0x04\n      dup4\n      add\n        /* \"#utility.yul\":5089:5123   */\n      mstore\n        /* \"CoinIdo.sol\":4541:4551  IDOAddress */\n      swap2\n      dup3\n      and\n        /* \"#utility.yul\":5139:5157   */\n      0x24\n      dup3\n      add\n        /* \"#utility.yul\":5132:5175   */\n      mstore\n        /* \"#utility.yul\":5191:5209   */\n      0x44\n      dup2\n      add\n        /* \"#utility.yul\":5184:5218   */\n      dup8\n      swap1\n      mstore\n        /* \"CoinIdo.sol\":4517:4521  usdt */\n      swap2\n      and\n      swap1\n        /* \"CoinIdo.sol\":4517:4534  usdt.transferFrom */\n      0x23b872dd\n      swap1\n        /* \"#utility.yul\":5001:5019   */\n      0x64\n      add\n        /* \"CoinIdo.sol\":4517:4559  usdt.transferFrom(from, IDOAddress, value) */\n      0x20\n      mload(0x40)\n      dup1\n      dup4\n      sub\n      dup2\n      0x00\n      dup8\n      dup1\n      extcodesize\n      iszero\n      dup1\n      iszero\n      tag_201\n      jumpi\n      0x00\n      dup1\n      revert\n    tag_201:\n      pop\n      gas\n      call\n      iszero\n      dup1\n      iszero\n      tag_203\n      jumpi\n      returndatasize\n      0x00\n      dup1\n      returndatacopy\n      revert(0x00, returndatasize)\n    tag_203:\n      pop\n      pop\n      pop\n      pop\n      mload(0x40)\n      returndatasize\n      not(0x1f)\n      0x1f\n      dup3\n      add\n      and\n      dup3\n      add\n      dup1\n      0x40\n      mstore\n      pop\n      dup2\n      add\n      swap1\n      tag_204\n      swap2\n      swap1\n      tag_183\n      jump\t// in\n    tag_204:\n      pop\n        /* \"CoinIdo.sol\":3973:4571  if(lastLevelAddres !=address(0)){\r... */\n    tag_199:\n        /* \"CoinIdo.sol\":4605:4618  amount +value */\n      tag_205\n        /* \"CoinIdo.sol\":4613:4618  value */\n      dup5\n        /* \"CoinIdo.sol\":4605:4611  amount */\n      dup4\n        /* \"CoinIdo.sol\":4605:4618  amount +value */\n      tag_162\n      jump\t// in\n    tag_205:\n        /* \"CoinIdo.sol\":4589:4602  userIDO[from] */\n      0xffffffffffffffffffffffffffffffffffffffff\n      dup5\n      and\n      0x00\n      swap1\n      dup2\n      mstore\n        /* \"CoinIdo.sol\":4589:4596  userIDO */\n      0x0b\n        /* \"CoinIdo.sol\":4589:4602  userIDO[from] */\n      0x20\n      mstore\n      0x40\n      swap1\n      keccak256\n        /* \"CoinIdo.sol\":4589:4618  userIDO[from] = amount +value */\n      sstore\n        /* \"CoinIdo.sol\":4643:4654  totalSupply */\n      sload(0x02)\n        /* \"CoinIdo.sol\":4643:4662  totalSupply + value */\n      tag_206\n      swap1\n        /* \"CoinIdo.sol\":4657:4662  value */\n      dup6\n      swap1\n        /* \"CoinIdo.sol\":4643:4662  totalSupply + value */\n      tag_162\n      jump\t// in\n    tag_206:\n        /* \"CoinIdo.sol\":4629:4640  totalSupply */\n      0x02\n        /* \"CoinIdo.sol\":4629:4662  totalSupply = totalSupply + value */\n      sstore\n        /* \"CoinIdo.sol\":4673:4679  number */\n      0x03\n        /* \"CoinIdo.sol\":4673:4681  number++ */\n      dup1\n      sload\n      swap1\n        /* \"CoinIdo.sol\":4673:4679  number */\n      0x00\n        /* \"CoinIdo.sol\":4673:4681  number++ */\n      tag_207\n      dup4\n      tag_208\n      jump\t// in\n    tag_207:\n      swap1\n      swap2\n      sstore\n      pop\n      pop\n        /* \"CoinIdo.sol\":4712:4725  userIDO[from] */\n      0xffffffffffffffffffffffffffffffffffffffff\n      dup4\n      and\n      0x00\n      swap1\n      dup2\n      mstore\n        /* \"CoinIdo.sol\":4712:4719  userIDO */\n      0x0b\n        /* \"CoinIdo.sol\":4712:4725  userIDO[from] */\n      0x20\n      mstore\n      0x40\n      swap1\n      keccak256\n      sload\n        /* \"CoinIdo.sol\":4731:4734  120 */\n      0x78\n      swap1\n        /* \"CoinIdo.sol\":4712:4730  userIDO[from]*2600 */\n      tag_209\n      swap1\n        /* \"CoinIdo.sol\":4726:4730  2600 */\n      0x0a28\n        /* \"CoinIdo.sol\":4712:4730  userIDO[from]*2600 */\n      tag_158\n      jump\t// in\n    tag_209:\n        /* \"CoinIdo.sol\":4712:4734  userIDO[from]*2600/120 */\n      tag_210\n      swap2\n      swap1\n      tag_176\n      jump\t// in\n    tag_210:\n        /* \"CoinIdo.sol\":4692:4711  awaitWithdraw[from] */\n      0xffffffffffffffffffffffffffffffffffffffff\n      dup5\n      and\n      0x00\n      swap1\n      dup2\n      mstore\n        /* \"CoinIdo.sol\":4692:4705  awaitWithdraw */\n      0x0e\n        /* \"CoinIdo.sol\":4692:4711  awaitWithdraw[from] */\n      0x20\n      mstore\n      0x40\n      swap1\n      keccak256\n        /* \"CoinIdo.sol\":4692:4734  awaitWithdraw[from]=userIDO[from]*2600/120 */\n      sstore\n        /* \"CoinIdo.sol\":4768:4772  base */\n      sload(0x0f)\n        /* \"CoinIdo.sol\":4763:4772  2000*base */\n      tag_211\n      swap1\n        /* \"CoinIdo.sol\":4763:4767  2000 */\n      0x07d0\n        /* \"CoinIdo.sol\":4763:4772  2000*base */\n      tag_158\n      jump\t// in\n    tag_211:\n        /* \"CoinIdo.sol\":4748:4761  userIDO[from] */\n      0xffffffffffffffffffffffffffffffffffffffff\n      dup5\n      and\n      0x00\n      swap1\n      dup2\n      mstore\n        /* \"CoinIdo.sol\":4748:4755  userIDO */\n      0x0b\n        /* \"CoinIdo.sol\":4748:4761  userIDO[from] */\n      0x20\n      mstore\n      0x40\n      swap1\n      keccak256\n      sload\n        /* \"CoinIdo.sol\":4748:4772  userIDO[from]>=2000*base */\n      lt\n        /* \"CoinIdo.sol\":4745:4820  if(userIDO[from]>=2000*base){\r... */\n      tag_212\n      jumpi\n        /* \"CoinIdo.sol\":4788:4793  etNft */\n      sload(0x07)\n        /* \"CoinIdo.sol\":4788:4808  etNft.safeMint(from) */\n      mload(0x40)\n      0x40d097c300000000000000000000000000000000000000000000000000000000\n      dup2\n      mstore\n        /* \"CoinIdo.sol\":4788:4793  etNft */\n      0xffffffffffffffffffffffffffffffffffffffff\n        /* \"#utility.yul\":4014:4069   */\n      dup6\n      dup2\n      and\n        /* \"CoinIdo.sol\":4788:4808  etNft.safeMint(from) */\n      0x04\n      dup4\n      add\n        /* \"#utility.yul\":3996:4070   */\n      mstore\n        /* \"CoinIdo.sol\":4788:4793  etNft */\n      swap1\n      swap2\n      and\n      swap1\n        /* \"CoinIdo.sol\":4788:4802  etNft.safeMint */\n      0x40d097c3\n      swap1\n        /* \"#utility.yul\":3969:3987   */\n      0x24\n      add\n        /* \"CoinIdo.sol\":4788:4808  etNft.safeMint(from) */\n      0x00\n      mload(0x40)\n      dup1\n      dup4\n      sub\n      dup2\n      0x00\n      dup8\n      dup1\n      extcodesize\n      iszero\n      dup1\n      iszero\n      tag_214\n      jumpi\n      0x00\n      dup1\n      revert\n    tag_214:\n      pop\n      gas\n      call\n      iszero\n      dup1\n      iszero\n      tag_216\n      jumpi\n      returndatasize\n      0x00\n      dup1\n      returndatacopy\n      revert(0x00, returndatasize)\n    tag_216:\n      pop\n      pop\n      pop\n      pop\n        /* \"CoinIdo.sol\":4745:4820  if(userIDO[from]>=2000*base){\r... */\n    tag_212:\n        /* \"CoinIdo.sol\":4896:4900  base */\n      sload(0x0f)\n        /* \"CoinIdo.sol\":4891:4900  3000*base */\n      tag_217\n      swap1\n        /* \"CoinIdo.sol\":4891:4895  3000 */\n      0x0bb8\n        /* \"CoinIdo.sol\":4891:4900  3000*base */\n      tag_158\n      jump\t// in\n    tag_217:\n        /* \"CoinIdo.sol\":4858:4889  relationAmount[lastLevelAddres] */\n      0xffffffffffffffffffffffffffffffffffffffff\n      dup3\n      and\n      0x00\n      swap1\n      dup2\n      mstore\n        /* \"CoinIdo.sol\":4858:4872  relationAmount */\n      0x0c\n        /* \"CoinIdo.sol\":4858:4889  relationAmount[lastLevelAddres] */\n      0x20\n      mstore\n      0x40\n      swap1\n      keccak256\n      sload\n        /* \"CoinIdo.sol\":4858:4900  relationAmount[lastLevelAddres]>=3000*base */\n      lt\n        /* \"CoinIdo.sol\":4855:5047  if(relationAmount[lastLevelAddres]>=3000*base){\r... */\n      tag_218\n      jumpi\n        /* \"CoinIdo.sol\":4916:4921  etNft */\n      sload(0x07)\n        /* \"CoinIdo.sol\":4916:4947  etNft.safeMint(lastLevelAddres) */\n      mload(0x40)\n      0x40d097c300000000000000000000000000000000000000000000000000000000\n      dup2\n      mstore\n        /* \"CoinIdo.sol\":4916:4921  etNft */\n      0xffffffffffffffffffffffffffffffffffffffff\n        /* \"#utility.yul\":4014:4069   */\n      dup4\n      dup2\n      and\n        /* \"CoinIdo.sol\":4916:4947  etNft.safeMint(lastLevelAddres) */\n      0x04\n      dup4\n      add\n        /* \"#utility.yul\":3996:4070   */\n      mstore\n        /* \"CoinIdo.sol\":4916:4921  etNft */\n      swap1\n      swap2\n      and\n      swap1\n        /* \"CoinIdo.sol\":4916:4930  etNft.safeMint */\n      0x40d097c3\n      swap1\n        /* \"#utility.yul\":3969:3987   */\n      0x24\n      add\n        /* \"CoinIdo.sol\":4916:4947  etNft.safeMint(lastLevelAddres) */\n      0x00\n      mload(0x40)\n      dup1\n      dup4\n      sub\n      dup2\n      0x00\n      dup8\n      dup1\n      extcodesize\n      iszero\n      dup1\n      iszero\n      tag_220\n      jumpi\n      0x00\n      dup1\n      revert\n    tag_220:\n      pop\n      gas\n      call\n      iszero\n      dup1\n      iszero\n      tag_222\n      jumpi\n      returndatasize\n      0x00\n      dup1\n      returndatacopy\n      revert(0x00, returndatasize)\n    tag_222:\n      pop\n      pop\n      pop\n      pop\n        /* \"CoinIdo.sol\":5031:5035  base */\n      sload(0x0f)\n        /* \"CoinIdo.sol\":5026:5030  3000 */\n      0x0bb8\n        /* \"CoinIdo.sol\":5026:5035  3000*base */\n      tag_223\n      swap2\n      swap1\n      tag_158\n      jump\t// in\n    tag_223:\n        /* \"CoinIdo.sol\":4994:5025  relationAmount[lastLevelAddres] */\n      0xffffffffffffffffffffffffffffffffffffffff\n      dup3\n      and\n      0x00\n      swap1\n      dup2\n      mstore\n        /* \"CoinIdo.sol\":4994:5008  relationAmount */\n      0x0c\n        /* \"CoinIdo.sol\":4994:5025  relationAmount[lastLevelAddres] */\n      0x20\n      mstore\n      0x40\n      swap1\n      keccak256\n      sload\n        /* \"CoinIdo.sol\":4994:5035  relationAmount[lastLevelAddres]-3000*base */\n      tag_224\n      swap2\n      swap1\n      tag_185\n      jump\t// in\n    tag_224:\n        /* \"CoinIdo.sol\":4962:4993  relationAmount[lastLevelAddres] */\n      0xffffffffffffffffffffffffffffffffffffffff\n      dup3\n      and\n      0x00\n      swap1\n      dup2\n      mstore\n        /* \"CoinIdo.sol\":4962:4976  relationAmount */\n      0x0c\n        /* \"CoinIdo.sol\":4962:4993  relationAmount[lastLevelAddres] */\n      0x20\n      mstore\n      0x40\n      swap1\n      keccak256\n        /* \"CoinIdo.sol\":4962:5035  relationAmount[lastLevelAddres]=relationAmount[lastLevelAddres]-3000*base */\n      sstore\n        /* \"CoinIdo.sol\":4855:5047  if(relationAmount[lastLevelAddres]>=3000*base){\r... */\n    tag_218:\n        /* \"CoinIdo.sol\":5065:5078  allowET(from) */\n      tag_225\n        /* \"CoinIdo.sol\":5073:5077  from */\n      dup4\n        /* \"CoinIdo.sol\":5065:5072  allowET */\n      tag_100\n        /* \"CoinIdo.sol\":5065:5078  allowET(from) */\n      jump\t// in\n    tag_225:\n        /* \"CoinIdo.sol\":5094:5113  IDOUsdt(from,value) */\n      0x40\n      dup1\n      mload\n        /* \"#utility.yul\":5433:5475   */\n      0xffffffffffffffffffffffffffffffffffffffff\n        /* \"#utility.yul\":5421:5476   */\n      dup6\n      and\n        /* \"#utility.yul\":5403:5477   */\n      dup2\n      mstore\n        /* \"#utility.yul\":5508:5510   */\n      0x20\n        /* \"#utility.yul\":5493:5511   */\n      dup2\n      add\n        /* \"#utility.yul\":5486:5520   */\n      dup7\n      swap1\n      mstore\n        /* \"CoinIdo.sol\":5094:5113  IDOUsdt(from,value) */\n      0x080bf12451b207525905f2fe9e47714fbcd5aa383b228f656b880136e66b288f\n      swap2\n        /* \"#utility.yul\":5376:5394   */\n      add\n        /* \"CoinIdo.sol\":5094:5113  IDOUsdt(from,value) */\n      mload(0x40)\n      dup1\n      swap2\n      sub\n      swap1\n      log1\n        /* \"CoinIdo.sol\":3521:5121  function _IDOUsdt(uint value)public { \r... */\n      pop\n      pop\n      pop\n      pop\n      jump\t// out\n        /* \"CoinIdo.sol\":2984:3470  function _addRelation(address[]memory addressFrom,address[]memory addressTo)public onlyOwner{\r... */\n    tag_52:\n        /* \"CoinIdo.sol\":1328:1335  address */\n      0x00\n        /* \"CoinIdo.sol\":1355:1361  _owner */\n      sload\n      0xffffffffffffffffffffffffffffffffffffffff\n      0x010000\n      swap1\n      swap2\n      div\n      and\n        /* \"CoinIdo.sol\":1426:1436  msg.sender */\n      caller\n        /* \"CoinIdo.sol\":1415:1436  owner() == msg.sender */\n      eq\n        /* \"CoinIdo.sol\":1407:1473  require(owner() == msg.sender, \"Ownable: caller is not the owner\") */\n      tag_230\n      jumpi\n      mload(0x40)\n      0x08c379a000000000000000000000000000000000000000000000000000000000\n      dup2\n      mstore\n        /* \"#utility.yul\":10398:10400   */\n      0x20\n        /* \"CoinIdo.sol\":1407:1473  require(owner() == msg.sender, \"Ownable: caller is not the owner\") */\n      0x04\n      dup3\n      add\n        /* \"#utility.yul\":10380:10401   */\n      dup2\n      swap1\n      mstore\n        /* \"#utility.yul\":10417:10435   */\n      0x24\n      dup3\n      add\n        /* \"#utility.yul\":10410:10440   */\n      mstore\n        /* \"#utility.yul\":10476:10510   */\n      0x4f776e61626c653a2063616c6c6572206973206e6f7420746865206f776e6572\n        /* \"#utility.yul\":10456:10474   */\n      0x44\n      dup3\n      add\n        /* \"#utility.yul\":10449:10511   */\n      mstore\n        /* \"#utility.yul\":10528:10546   */\n      0x64\n      add\n        /* \"CoinIdo.sol\":1407:1473  require(owner() == msg.sender, \"Ownable: caller is not the owner\") */\n      tag_152\n        /* \"#utility.yul\":10370:10552   */\n      jump\n        /* \"CoinIdo.sol\":1407:1473  require(owner() == msg.sender, \"Ownable: caller is not the owner\") */\n    tag_230:\n        /* \"CoinIdo.sol\":3115:3124  addressTo */\n      dup1\n        /* \"CoinIdo.sol\":3115:3131  addressTo.length */\n      mload\n        /* \"CoinIdo.sol\":3095:3106  addressFrom */\n      dup3\n        /* \"CoinIdo.sol\":3095:3113  addressFrom.length */\n      mload\n        /* \"CoinIdo.sol\":3095:3131  addressFrom.length==addressTo.length */\n      eq\n        /* \"CoinIdo.sol\":3087:3150  require(addressFrom.length==addressTo.length,\"length is wrong\") */\n      tag_234\n      jumpi\n      mload(0x40)\n      0x08c379a000000000000000000000000000000000000000000000000000000000\n      dup2\n      mstore\n        /* \"#utility.yul\":11094:11096   */\n      0x20\n        /* \"CoinIdo.sol\":3087:3150  require(addressFrom.length==addressTo.length,\"length is wrong\") */\n      0x04\n      dup3\n      add\n        /* \"#utility.yul\":11076:11097   */\n      mstore\n        /* \"#utility.yul\":11133:11135   */\n      0x0f\n        /* \"#utility.yul\":11113:11131   */\n      0x24\n      dup3\n      add\n        /* \"#utility.yul\":11106:11136   */\n      mstore\n        /* \"#utility.yul\":11172:11189   */\n      0x6c656e6774682069732077726f6e670000000000000000000000000000000000\n        /* \"#utility.yul\":11152:11170   */\n      0x44\n      dup3\n      add\n        /* \"#utility.yul\":11145:11190   */\n      mstore\n        /* \"#utility.yul\":11207:11225   */\n      0x64\n      add\n        /* \"CoinIdo.sol\":3087:3150  require(addressFrom.length==addressTo.length,\"length is wrong\") */\n      tag_152\n        /* \"#utility.yul\":11066:11231   */\n      jump\n        /* \"CoinIdo.sol\":3087:3150  require(addressFrom.length==addressTo.length,\"length is wrong\") */\n    tag_234:\n        /* \"CoinIdo.sol\":3165:3171  uint i */\n      0x00\n        /* \"CoinIdo.sol\":3161:3413  for(uint i=0; i<addressFrom.length; i++){\r... */\n    tag_237:\n        /* \"CoinIdo.sol\":3177:3188  addressFrom */\n      dup3\n        /* \"CoinIdo.sol\":3177:3195  addressFrom.length */\n      mload\n        /* \"CoinIdo.sol\":3175:3176  i */\n      dup2\n        /* \"CoinIdo.sol\":3175:3195  i<addressFrom.length */\n      lt\n        /* \"CoinIdo.sol\":3161:3413  for(uint i=0; i<addressFrom.length; i++){\r... */\n      iszero\n      tag_238\n      jumpi\n        /* \"CoinIdo.sol\":3249:3250  0 */\n      0x00\n        /* \"CoinIdo.sol\":3224:3251  addressFrom[i] !=address(0) */\n      0xffffffffffffffffffffffffffffffffffffffff\n      and\n        /* \"CoinIdo.sol\":3224:3235  addressFrom */\n      dup4\n        /* \"CoinIdo.sol\":3236:3237  i */\n      dup3\n        /* \"CoinIdo.sol\":3224:3238  addressFrom[i] */\n      dup2\n      mload\n      dup2\n      lt\n      tag_240\n      jumpi\n      mstore(0x00, 0x4e487b7100000000000000000000000000000000000000000000000000000000)\n      mstore(0x04, 0x32)\n      revert(0x00, 0x24)\n    tag_240:\n      0x20\n      mul\n      0x20\n      add\n      add\n      mload\n        /* \"CoinIdo.sol\":3224:3251  addressFrom[i] !=address(0) */\n      0xffffffffffffffffffffffffffffffffffffffff\n      and\n      eq\n      iszero\n        /* \"CoinIdo.sol\":3216:3271  require(addressFrom[i] !=address(0),\"address is wrong\") */\n      tag_241\n      jumpi\n      mload(0x40)\n      0x08c379a000000000000000000000000000000000000000000000000000000000\n      dup2\n      mstore\n        /* \"#utility.yul\":7601:7603   */\n      0x20\n        /* \"CoinIdo.sol\":3216:3271  require(addressFrom[i] !=address(0),\"address is wrong\") */\n      0x04\n      dup3\n      add\n        /* \"#utility.yul\":7583:7604   */\n      mstore\n        /* \"#utility.yul\":7640:7642   */\n      0x10\n        /* \"#utility.yul\":7620:7638   */\n      0x24\n      dup3\n      add\n        /* \"#utility.yul\":7613:7643   */\n      mstore\n        /* \"#utility.yul\":7679:7697   */\n      0x616464726573732069732077726f6e6700000000000000000000000000000000\n        /* \"#utility.yul\":7659:7677   */\n      0x44\n      dup3\n      add\n        /* \"#utility.yul\":7652:7698   */\n      mstore\n        /* \"#utility.yul\":7715:7733   */\n      0x64\n      add\n        /* \"CoinIdo.sol\":3216:3271  require(addressFrom[i] !=address(0),\"address is wrong\") */\n      tag_152\n        /* \"#utility.yul\":7573:7739   */\n      jump\n        /* \"CoinIdo.sol\":3216:3271  require(addressFrom[i] !=address(0),\"address is wrong\") */\n    tag_241:\n        /* \"CoinIdo.sol\":3312:3321  addressTo */\n      dup2\n        /* \"CoinIdo.sol\":3322:3323  i */\n      dup2\n        /* \"CoinIdo.sol\":3312:3324  addressTo[i] */\n      dup2\n      mload\n      dup2\n      lt\n      tag_244\n      jumpi\n      mstore(0x00, 0x4e487b7100000000000000000000000000000000000000000000000000000000)\n      mstore(0x04, 0x32)\n      revert(0x00, 0x24)\n    tag_244:\n      0x20\n      mul\n      0x20\n      add\n      add\n      mload\n        /* \"CoinIdo.sol\":3294:3324  addressFrom[i] != addressTo[i] */\n      0xffffffffffffffffffffffffffffffffffffffff\n      and\n        /* \"CoinIdo.sol\":3294:3305  addressFrom */\n      dup4\n        /* \"CoinIdo.sol\":3306:3307  i */\n      dup3\n        /* \"CoinIdo.sol\":3294:3308  addressFrom[i] */\n      dup2\n      mload\n      dup2\n      lt\n      tag_245\n      jumpi\n      mstore(0x00, 0x4e487b7100000000000000000000000000000000000000000000000000000000)\n      mstore(0x04, 0x32)\n      revert(0x00, 0x24)\n    tag_245:\n      0x20\n      mul\n      0x20\n      add\n      add\n      mload\n        /* \"CoinIdo.sol\":3294:3324  addressFrom[i] != addressTo[i] */\n      0xffffffffffffffffffffffffffffffffffffffff\n      and\n      eq\n      iszero\n        /* \"CoinIdo.sol\":3286:3343  require(addressFrom[i] != addressTo[i],\"addres is equal\") */\n      tag_246\n      jumpi\n      mload(0x40)\n      0x08c379a000000000000000000000000000000000000000000000000000000000\n      dup2\n      mstore\n        /* \"#utility.yul\":9717:9719   */\n      0x20\n        /* \"CoinIdo.sol\":3286:3343  require(addressFrom[i] != addressTo[i],\"addres is equal\") */\n      0x04\n      dup3\n      add\n        /* \"#utility.yul\":9699:9720   */\n      mstore\n        /* \"#utility.yul\":9756:9758   */\n      0x0f\n        /* \"#utility.yul\":9736:9754   */\n      0x24\n      dup3\n      add\n        /* \"#utility.yul\":9729:9759   */\n      mstore\n        /* \"#utility.yul\":9795:9812   */\n      0x61646472657320697320657175616c0000000000000000000000000000000000\n        /* \"#utility.yul\":9775:9793   */\n      0x44\n      dup3\n      add\n        /* \"#utility.yul\":9768:9813   */\n      mstore\n        /* \"#utility.yul\":9830:9848   */\n      0x64\n      add\n        /* \"CoinIdo.sol\":3286:3343  require(addressFrom[i] != addressTo[i],\"addres is equal\") */\n      tag_152\n        /* \"#utility.yul\":9689:9854   */\n      jump\n        /* \"CoinIdo.sol\":3286:3343  require(addressFrom[i] != addressTo[i],\"addres is equal\") */\n    tag_246:\n        /* \"CoinIdo.sol\":3389:3398  addressTo */\n      dup2\n        /* \"CoinIdo.sol\":3399:3400  i */\n      dup2\n        /* \"CoinIdo.sol\":3389:3401  addressTo[i] */\n      dup2\n      mload\n      dup2\n      lt\n      tag_249\n      jumpi\n      mstore(0x00, 0x4e487b7100000000000000000000000000000000000000000000000000000000)\n      mstore(0x04, 0x32)\n      revert(0x00, 0x24)\n    tag_249:\n      0x20\n      mul\n      0x20\n      add\n      add\n      mload\n        /* \"CoinIdo.sol\":3358:3370  userRelation */\n      0x0a\n        /* \"CoinIdo.sol\":3358:3386  userRelation[addressFrom[i]] */\n      0x00\n        /* \"CoinIdo.sol\":3371:3382  addressFrom */\n      dup6\n        /* \"CoinIdo.sol\":3383:3384  i */\n      dup5\n        /* \"CoinIdo.sol\":3371:3385  addressFrom[i] */\n      dup2\n      mload\n      dup2\n      lt\n      tag_250\n      jumpi\n      mstore(0x00, 0x4e487b7100000000000000000000000000000000000000000000000000000000)\n      mstore(0x04, 0x32)\n      revert(0x00, 0x24)\n    tag_250:\n      0x20\n      mul\n      0x20\n      add\n      add\n      mload\n        /* \"CoinIdo.sol\":3358:3386  userRelation[addressFrom[i]] */\n      0xffffffffffffffffffffffffffffffffffffffff\n      and\n      0xffffffffffffffffffffffffffffffffffffffff\n      and\n      dup2\n      mstore\n      0x20\n      add\n      swap1\n      dup2\n      mstore\n      0x20\n      add\n      0x00\n      keccak256\n      0x00\n        /* \"CoinIdo.sol\":3358:3401  userRelation[addressFrom[i]] = addressTo[i] */\n      0x0100\n      exp\n      dup2\n      sload\n      dup2\n      0xffffffffffffffffffffffffffffffffffffffff\n      mul\n      not\n      and\n      swap1\n      dup4\n      0xffffffffffffffffffffffffffffffffffffffff\n      and\n      mul\n      or\n      swap1\n      sstore\n      pop\n        /* \"CoinIdo.sol\":3197:3200  i++ */\n      dup1\n      dup1\n      tag_251\n      swap1\n      tag_208\n      jump\t// in\n    tag_251:\n      swap2\n      pop\n      pop\n        /* \"CoinIdo.sol\":3161:3413  for(uint i=0; i<addressFrom.length; i++){\r... */\n      jump(tag_237)\n    tag_238:\n      pop\n        /* \"CoinIdo.sol\":3428:3462  AddRelation(addressFrom,addressTo) */\n      0x1886f03d42b471bc8faf784e3878fce329e8e139473c601b8648de73b3380c02\n        /* \"CoinIdo.sol\":3440:3451  addressFrom */\n      dup3\n        /* \"CoinIdo.sol\":3452:3461  addressTo */\n      dup3\n        /* \"CoinIdo.sol\":3428:3462  AddRelation(addressFrom,addressTo) */\n      mload(0x40)\n      tag_252\n      swap3\n      swap2\n      swap1\n      tag_253\n      jump\t// in\n    tag_252:\n      mload(0x40)\n      dup1\n      swap2\n      sub\n      swap1\n      log1\n        /* \"CoinIdo.sol\":2984:3470  function _addRelation(address[]memory addressFrom,address[]memory addressTo)public onlyOwner{\r... */\n      pop\n      pop\n      jump\t// out\n        /* \"CoinIdo.sol\":5468:6334  function withdraw()public{\r... */\n    tag_61:\n        /* \"CoinIdo.sol\":5520:5530  msg.sender */\n      caller\n        /* \"CoinIdo.sol\":5532:5533  0 */\n      0x00\n        /* \"CoinIdo.sol\":5512:5531  userIDO[msg.sender] */\n      swap1\n      dup2\n      mstore\n        /* \"CoinIdo.sol\":5512:5519  userIDO */\n      0x0b\n        /* \"CoinIdo.sol\":5512:5531  userIDO[msg.sender] */\n      0x20\n      mstore\n      0x40\n      swap1\n      keccak256\n      sload\n        /* \"CoinIdo.sol\":5504:5546  require(userIDO[msg.sender]>0,\"not allow\") */\n      tag_255\n      jumpi\n      mload(0x40)\n      0x08c379a000000000000000000000000000000000000000000000000000000000\n      dup2\n      mstore\n        /* \"#utility.yul\":10061:10063   */\n      0x20\n        /* \"CoinIdo.sol\":5504:5546  require(userIDO[msg.sender]>0,\"not allow\") */\n      0x04\n      dup3\n      add\n        /* \"#utility.yul\":10043:10064   */\n      mstore\n        /* \"#utility.yul\":10100:10101   */\n      0x09\n        /* \"#utility.yul\":10080:10098   */\n      0x24\n      dup3\n      add\n        /* \"#utility.yul\":10073:10102   */\n      mstore\n        /* \"#utility.yul\":10138:10149   */\n      0x6e6f7420616c6c6f770000000000000000000000000000000000000000000000\n        /* \"#utility.yul\":10118:10136   */\n      0x44\n      dup3\n      add\n        /* \"#utility.yul\":10111:10150   */\n      mstore\n        /* \"#utility.yul\":10167:10185   */\n      0x64\n      add\n        /* \"CoinIdo.sol\":5504:5546  require(userIDO[msg.sender]>0,\"not allow\") */\n      tag_152\n        /* \"#utility.yul\":10033:10191   */\n      jump\n        /* \"CoinIdo.sol\":5504:5546  require(userIDO[msg.sender]>0,\"not allow\") */\n    tag_255:\n        /* \"CoinIdo.sol\":5573:5574  0 */\n      0x00\n        /* \"CoinIdo.sol\":5565:5572  endTime */\n      sload(0x01)\n        /* \"CoinIdo.sol\":5565:5574  endTime>0 */\n      gt\n        /* \"CoinIdo.sol\":5557:5584  require(endTime>0,\"not ET\") */\n      tag_258\n      jumpi\n      mload(0x40)\n      0x08c379a000000000000000000000000000000000000000000000000000000000\n      dup2\n      mstore\n        /* \"#utility.yul\":8693:8695   */\n      0x20\n        /* \"CoinIdo.sol\":5557:5584  require(endTime>0,\"not ET\") */\n      0x04\n      dup3\n      add\n        /* \"#utility.yul\":8675:8696   */\n      mstore\n        /* \"#utility.yul\":8732:8733   */\n      0x06\n        /* \"#utility.yul\":8712:8730   */\n      0x24\n      dup3\n      add\n        /* \"#utility.yul\":8705:8734   */\n      mstore\n        /* \"#utility.yul\":8770:8778   */\n      0x6e6f742045540000000000000000000000000000000000000000000000000000\n        /* \"#utility.yul\":8750:8768   */\n      0x44\n      dup3\n      add\n        /* \"#utility.yul\":8743:8779   */\n      mstore\n        /* \"#utility.yul\":8796:8814   */\n      0x64\n      add\n        /* \"CoinIdo.sol\":5557:5584  require(endTime>0,\"not ET\") */\n      tag_152\n        /* \"#utility.yul\":8665:8820   */\n      jump\n        /* \"CoinIdo.sol\":5557:5584  require(endTime>0,\"not ET\") */\n    tag_258:\n        /* \"CoinIdo.sol\":5595:5606  uint amount */\n      0x00\n        /* \"CoinIdo.sol\":5617:5634  uint intervalTime */\n      dup1\n        /* \"CoinIdo.sol\":5654:5661  endTime */\n      sload(0x01)\n        /* \"CoinIdo.sol\":5637:5652  block.timestamp */\n      timestamp\n        /* \"CoinIdo.sol\":5637:5661  block.timestamp -endTime */\n      tag_261\n      swap2\n      swap1\n      tag_185\n      jump\t// in\n    tag_261:\n        /* \"CoinIdo.sol\":5617:5661  uint intervalTime = block.timestamp -endTime */\n      swap1\n      pop\n        /* \"CoinIdo.sol\":5672:5680  uint day */\n      0x00\n        /* \"CoinIdo.sol\":5683:5701  intervalTime/86400 */\n      tag_262\n        /* \"CoinIdo.sol\":5696:5701  86400 */\n      0x015180\n        /* \"CoinIdo.sol\":5617:5661  uint intervalTime = block.timestamp -endTime */\n      dup4\n        /* \"CoinIdo.sol\":5683:5701  intervalTime/86400 */\n      tag_176\n      jump\t// in\n    tag_262:\n        /* \"CoinIdo.sol\":5733:5743  msg.sender */\n      caller\n        /* \"CoinIdo.sol\":5712:5722  uint allET */\n      0x00\n        /* \"CoinIdo.sol\":5725:5744  userIDO[msg.sender] */\n      swap1\n      dup2\n      mstore\n        /* \"CoinIdo.sol\":5725:5732  userIDO */\n      0x0b\n        /* \"CoinIdo.sol\":5725:5744  userIDO[msg.sender] */\n      0x20\n      mstore\n      0x40\n      dup2\n      keccak256\n      sload\n        /* \"CoinIdo.sol\":5672:5701  uint day = intervalTime/86400 */\n      swap2\n      swap3\n      pop\n        /* \"CoinIdo.sol\":5712:5722  uint allET */\n      swap1\n        /* \"CoinIdo.sol\":5750:5753  120 */\n      0x78\n      swap1\n        /* \"CoinIdo.sol\":5725:5749  userIDO[msg.sender]*2600 */\n      tag_263\n      swap1\n        /* \"CoinIdo.sol\":5745:5749  2600 */\n      0x0a28\n        /* \"CoinIdo.sol\":5725:5749  userIDO[msg.sender]*2600 */\n      tag_158\n      jump\t// in\n    tag_263:\n        /* \"CoinIdo.sol\":5725:5753  userIDO[msg.sender]*2600/120 */\n      tag_264\n      swap2\n      swap1\n      tag_176\n      jump\t// in\n    tag_264:\n        /* \"CoinIdo.sol\":5712:5753  uint allET = userIDO[msg.sender]*2600/120 */\n      swap1\n      pop\n        /* \"CoinIdo.sol\":5772:5773  1 */\n      0x01\n        /* \"CoinIdo.sol\":5767:5770  day */\n      dup3\n        /* \"CoinIdo.sol\":5767:5773  day>=1 */\n      lt\n      iszero\n        /* \"CoinIdo.sol\":5767:5795  day>=1 && !lb[msg.sender][0] */\n      dup1\n      iszero\n      tag_265\n      jumpi\n      pop\n        /* \"CoinIdo.sol\":5781:5791  msg.sender */\n      caller\n        /* \"CoinIdo.sol\":5778:5792  lb[msg.sender] */\n      0x00\n      swap1\n      dup2\n      mstore\n        /* \"CoinIdo.sol\":5778:5780  lb */\n      0x09\n        /* \"CoinIdo.sol\":5778:5792  lb[msg.sender] */\n      0x20\n      mstore\n      0x40\n      dup2\n      keccak256\n        /* \"CoinIdo.sol\":5778:5795  lb[msg.sender][0] */\n      dup1\n      sload\n        /* \"CoinIdo.sol\":5778:5792  lb[msg.sender] */\n      swap1\n      swap2\n      swap1\n        /* \"CoinIdo.sol\":5778:5795  lb[msg.sender][0] */\n      tag_266\n      jumpi\n      mstore(0x00, 0x4e487b7100000000000000000000000000000000000000000000000000000000)\n      mstore(0x04, 0x32)\n      revert(0x00, 0x24)\n    tag_266:\n      swap1\n      0x00\n      mstore\n      keccak256(0x00, 0x20)\n      swap1\n      0x20\n      swap2\n      dup3\n      dup3\n      div\n      add\n      swap2\n      swap1\n      mod\n      swap1\n      sload\n      swap1\n      0x0100\n      exp\n      swap1\n      div\n      0xff\n      and\n        /* \"CoinIdo.sol\":5777:5795  !lb[msg.sender][0] */\n      iszero\n        /* \"CoinIdo.sol\":5767:5795  day>=1 && !lb[msg.sender][0] */\n    tag_265:\n        /* \"CoinIdo.sol\":5764:5885  if(day>=1 && !lb[msg.sender][0]){\r... */\n      iszero\n      tag_268\n      jumpi\n        /* \"CoinIdo.sol\":5831:5836  10000 */\n      0x2710\n        /* \"CoinIdo.sol\":5820:5830  allET*1000 */\n      tag_269\n        /* \"CoinIdo.sol\":5820:5825  allET */\n      dup3\n        /* \"CoinIdo.sol\":5826:5830  1000 */\n      0x03e8\n        /* \"CoinIdo.sol\":5820:5830  allET*1000 */\n      tag_158\n      jump\t// in\n    tag_269:\n        /* \"CoinIdo.sol\":5820:5836  allET*1000/10000 */\n      tag_270\n      swap2\n      swap1\n      tag_176\n      jump\t// in\n    tag_270:\n        /* \"CoinIdo.sol\":5854:5864  msg.sender */\n      caller\n        /* \"CoinIdo.sol\":5851:5865  lb[msg.sender] */\n      0x00\n      swap1\n      dup2\n      mstore\n        /* \"CoinIdo.sol\":5851:5853  lb */\n      0x09\n        /* \"CoinIdo.sol\":5851:5865  lb[msg.sender] */\n      0x20\n      mstore\n      0x40\n      dup2\n      keccak256\n        /* \"CoinIdo.sol\":5851:5868  lb[msg.sender][0] */\n      dup1\n      sload\n        /* \"CoinIdo.sol\":5811:5836  amount = allET*1000/10000 */\n      swap3\n      swap7\n      pop\n        /* \"CoinIdo.sol\":5869:5873  true */\n      0x01\n      swap3\n        /* \"CoinIdo.sol\":5851:5865  lb[msg.sender] */\n      swap1\n      swap2\n      swap1\n        /* \"CoinIdo.sol\":5851:5868  lb[msg.sender][0] */\n      tag_271\n      jumpi\n      mstore(0x00, 0x4e487b7100000000000000000000000000000000000000000000000000000000)\n      mstore(0x04, 0x32)\n      revert(0x00, 0x24)\n    tag_271:\n      swap1\n      0x00\n      mstore\n      keccak256(0x00, 0x20)\n      swap1\n      0x20\n      swap2\n      dup3\n      dup3\n      div\n      add\n      swap2\n      swap1\n      mod\n        /* \"CoinIdo.sol\":5851:5873  lb[msg.sender][0]=true */\n      0x0100\n      exp\n      dup2\n      sload\n      dup2\n      0xff\n      mul\n      not\n      and\n      swap1\n      dup4\n      iszero\n      iszero\n      mul\n      or\n      swap1\n      sstore\n      pop\n        /* \"CoinIdo.sol\":5764:5885  if(day>=1 && !lb[msg.sender][0]){\r... */\n    tag_268:\n        /* \"CoinIdo.sol\":5895:5904  uint item */\n      0x00\n        /* \"CoinIdo.sol\":5915:5917  30 */\n      0x1e\n        /* \"CoinIdo.sol\":5908:5913  day-1 */\n      tag_273\n        /* \"CoinIdo.sol\":5912:5913  1 */\n      0x01\n        /* \"CoinIdo.sol\":5908:5911  day */\n      dup6\n        /* \"CoinIdo.sol\":5908:5913  day-1 */\n      tag_185\n      jump\t// in\n    tag_273:\n        /* \"CoinIdo.sol\":5907:5917  (day-1)/30 */\n      tag_274\n      swap2\n      swap1\n      tag_176\n      jump\t// in\n    tag_274:\n        /* \"CoinIdo.sol\":5895:5917  uint item = (day-1)/30 */\n      swap1\n      pop\n        /* \"CoinIdo.sol\":5938:5940  15 */\n      0x0f\n        /* \"CoinIdo.sol\":5933:5937  item */\n      dup2\n        /* \"CoinIdo.sol\":5933:5940  item>15 */\n      gt\n        /* \"CoinIdo.sol\":5933:5948  item>15?15:item */\n      tag_275\n      jumpi\n        /* \"CoinIdo.sol\":5944:5948  item */\n      dup1\n        /* \"CoinIdo.sol\":5933:5948  item>15?15:item */\n      jump(tag_276)\n    tag_275:\n        /* \"CoinIdo.sol\":5941:5943  15 */\n      0x0f\n        /* \"CoinIdo.sol\":5933:5948  item>15?15:item */\n    tag_276:\n        /* \"CoinIdo.sol\":5928:5948  item=item>15?15:item */\n      swap1\n      pop\n        /* \"CoinIdo.sol\":5978:5979  1 */\n      0x01\n        /* \"CoinIdo.sol\":5967:6152  for(uint i=1; i<=item; i++){\r... */\n    tag_277:\n        /* \"CoinIdo.sol\":5984:5988  item */\n      dup2\n        /* \"CoinIdo.sol\":5981:5982  i */\n      dup2\n        /* \"CoinIdo.sol\":5981:5988  i<=item */\n      gt\n        /* \"CoinIdo.sol\":5967:6152  for(uint i=1; i<=item; i++){\r... */\n      tag_278\n      jumpi\n        /* \"CoinIdo.sol\":6016:6026  msg.sender */\n      caller\n        /* \"CoinIdo.sol\":6013:6027  lb[msg.sender] */\n      0x00\n      swap1\n      dup2\n      mstore\n        /* \"CoinIdo.sol\":6013:6015  lb */\n      0x09\n        /* \"CoinIdo.sol\":6013:6027  lb[msg.sender] */\n      0x20\n      mstore\n      0x40\n      swap1\n      keccak256\n        /* \"CoinIdo.sol\":6013:6030  lb[msg.sender][i] */\n      dup1\n      sload\n        /* \"CoinIdo.sol\":6028:6029  i */\n      dup3\n      swap1\n        /* \"CoinIdo.sol\":6013:6030  lb[msg.sender][i] */\n      dup2\n      lt\n      tag_280\n      jumpi\n      mstore(0x00, 0x4e487b7100000000000000000000000000000000000000000000000000000000)\n      mstore(0x04, 0x32)\n      revert(0x00, 0x24)\n    tag_280:\n      swap1\n      0x00\n      mstore\n      keccak256(0x00, 0x20)\n      swap1\n      0x20\n      swap2\n      dup3\n      dup3\n      div\n      add\n      swap2\n      swap1\n      mod\n      swap1\n      sload\n      swap1\n      0x0100\n      exp\n      swap1\n      div\n      0xff\n      and\n        /* \"CoinIdo.sol\":6009:6141  if(!lb[msg.sender][i]){\r... */\n      tag_282\n      jumpi\n        /* \"CoinIdo.sol\":6078:6083  10000 */\n      0x2710\n        /* \"CoinIdo.sol\":6068:6077  allET*600 */\n      tag_283\n        /* \"CoinIdo.sol\":6068:6073  allET */\n      dup5\n        /* \"CoinIdo.sol\":6074:6077  600 */\n      0x0258\n        /* \"CoinIdo.sol\":6068:6077  allET*600 */\n      tag_158\n      jump\t// in\n    tag_283:\n        /* \"CoinIdo.sol\":6068:6083  allET*600/10000 */\n      tag_284\n      swap2\n      swap1\n      tag_176\n      jump\t// in\n    tag_284:\n        /* \"CoinIdo.sol\":6059:6083  amount + allET*600/10000 */\n      tag_285\n      swap1\n        /* \"CoinIdo.sol\":6059:6065  amount */\n      dup8\n        /* \"CoinIdo.sol\":6059:6083  amount + allET*600/10000 */\n      tag_162\n      jump\t// in\n    tag_285:\n        /* \"CoinIdo.sol\":6105:6115  msg.sender */\n      caller\n        /* \"CoinIdo.sol\":6102:6116  lb[msg.sender] */\n      0x00\n      swap1\n      dup2\n      mstore\n        /* \"CoinIdo.sol\":6102:6104  lb */\n      0x09\n        /* \"CoinIdo.sol\":6102:6116  lb[msg.sender] */\n      0x20\n      mstore\n      0x40\n      swap1\n      keccak256\n        /* \"CoinIdo.sol\":6102:6119  lb[msg.sender][i] */\n      dup1\n      sload\n        /* \"CoinIdo.sol\":6050:6083  amount = amount + allET*600/10000 */\n      swap2\n      swap8\n      pop\n        /* \"CoinIdo.sol\":6121:6125  true */\n      0x01\n      swap2\n        /* \"CoinIdo.sol\":6117:6118  i */\n      dup4\n      swap1\n        /* \"CoinIdo.sol\":6102:6119  lb[msg.sender][i] */\n      dup2\n      lt\n      tag_286\n      jumpi\n      mstore(0x00, 0x4e487b7100000000000000000000000000000000000000000000000000000000)\n      mstore(0x04, 0x32)\n      revert(0x00, 0x24)\n    tag_286:\n      swap1\n      0x00\n      mstore\n      keccak256(0x00, 0x20)\n      swap1\n      0x20\n      swap2\n      dup3\n      dup3\n      div\n      add\n      swap2\n      swap1\n      mod\n        /* \"CoinIdo.sol\":6102:6125  lb[msg.sender][i] =true */\n      0x0100\n      exp\n      dup2\n      sload\n      dup2\n      0xff\n      mul\n      not\n      and\n      swap1\n      dup4\n      iszero\n      iszero\n      mul\n      or\n      swap1\n      sstore\n      pop\n        /* \"CoinIdo.sol\":6009:6141  if(!lb[msg.sender][i]){\r... */\n    tag_282:\n        /* \"CoinIdo.sol\":5990:5993  i++ */\n      dup1\n      tag_288\n      dup2\n      tag_208\n      jump\t// in\n    tag_288:\n      swap2\n      pop\n      pop\n        /* \"CoinIdo.sol\":5967:6152  for(uint i=1; i<=item; i++){\r... */\n      jump(tag_277)\n    tag_278:\n      pop\n        /* \"CoinIdo.sol\":6202:6212  msg.sender */\n      caller\n        /* \"CoinIdo.sol\":6188:6213  awaitWithdraw[msg.sender] */\n      0x00\n      swap1\n      dup2\n      mstore\n        /* \"CoinIdo.sol\":6188:6201  awaitWithdraw */\n      0x0e\n        /* \"CoinIdo.sol\":6188:6213  awaitWithdraw[msg.sender] */\n      0x20\n      mstore\n      0x40\n      swap1\n      keccak256\n      sload\n        /* \"CoinIdo.sol\":6188:6220  awaitWithdraw[msg.sender]-amount */\n      tag_289\n      swap1\n        /* \"CoinIdo.sol\":6214:6220  amount */\n      dup7\n      swap1\n        /* \"CoinIdo.sol\":6188:6220  awaitWithdraw[msg.sender]-amount */\n      tag_185\n      jump\t// in\n    tag_289:\n        /* \"CoinIdo.sol\":6176:6186  msg.sender */\n      caller\n        /* \"CoinIdo.sol\":6162:6187  awaitWithdraw[msg.sender] */\n      0x00\n      dup2\n      dup2\n      mstore\n        /* \"CoinIdo.sol\":6162:6175  awaitWithdraw */\n      0x0e\n        /* \"CoinIdo.sol\":6162:6187  awaitWithdraw[msg.sender] */\n      0x20\n      mstore\n      0x40\n      swap1\n      dup2\n      swap1\n      keccak256\n        /* \"CoinIdo.sol\":6162:6220  awaitWithdraw[msg.sender]=awaitWithdraw[msg.sender]-amount */\n      swap3\n      swap1\n      swap3\n      sstore\n        /* \"CoinIdo.sol\":6231:6237  etCoin */\n      sload(0x08)\n        /* \"CoinIdo.sol\":6231:6266  etCoin.transfer(msg.sender, amount) */\n      swap2\n      mload\n      0xa9059cbb00000000000000000000000000000000000000000000000000000000\n      dup2\n      mstore\n      0x04\n      dup2\n      add\n        /* \"#utility.yul\":5403:5477   */\n      swap2\n      swap1\n      swap2\n      mstore\n        /* \"#utility.yul\":5493:5511   */\n      0x24\n      dup2\n      add\n        /* \"#utility.yul\":5486:5520   */\n      dup8\n      swap1\n      mstore\n        /* \"CoinIdo.sol\":6162:6187  awaitWithdraw[msg.sender] */\n      0xffffffffffffffffffffffffffffffffffffffff\n        /* \"CoinIdo.sol\":6231:6237  etCoin */\n      swap1\n      swap2\n      and\n      swap1\n        /* \"CoinIdo.sol\":6231:6246  etCoin.transfer */\n      0xa9059cbb\n      swap1\n        /* \"#utility.yul\":5376:5394   */\n      0x44\n      add\n        /* \"CoinIdo.sol\":6231:6266  etCoin.transfer(msg.sender, amount) */\n      0x20\n      mload(0x40)\n      dup1\n      dup4\n      sub\n      dup2\n      0x00\n      dup8\n      dup1\n      extcodesize\n      iszero\n      dup1\n      iszero\n      tag_291\n      jumpi\n      0x00\n      dup1\n      revert\n    tag_291:\n      pop\n      gas\n      call\n      iszero\n      dup1\n      iszero\n      tag_293\n      jumpi\n      returndatasize\n      0x00\n      dup1\n      returndatacopy\n      revert(0x00, returndatasize)\n    tag_293:\n      pop\n      pop\n      pop\n      pop\n      mload(0x40)\n      returndatasize\n      not(0x1f)\n      0x1f\n      dup3\n      add\n      and\n      dup3\n      add\n      dup1\n      0x40\n      mstore\n      pop\n      dup2\n      add\n      swap1\n      tag_294\n      swap2\n      swap1\n      tag_183\n      jump\t// in\n    tag_294:\n      pop\n        /* \"CoinIdo.sol\":6282:6326  Withdraw(msg.sender, amount,block.timestamp) */\n      0x40\n      dup1\n      mload\n        /* \"CoinIdo.sol\":6291:6301  msg.sender */\n      caller\n        /* \"#utility.yul\":5733:5807   */\n      dup2\n      mstore\n        /* \"#utility.yul\":5838:5840   */\n      0x20\n        /* \"#utility.yul\":5823:5841   */\n      dup2\n      add\n        /* \"#utility.yul\":5816:5850   */\n      dup8\n      swap1\n      mstore\n        /* \"CoinIdo.sol\":6310:6325  block.timestamp */\n      timestamp\n        /* \"#utility.yul\":5866:5884   */\n      dup2\n      dup4\n      add\n        /* \"#utility.yul\":5859:5893   */\n      mstore\n        /* \"CoinIdo.sol\":6282:6326  Withdraw(msg.sender, amount,block.timestamp) */\n      swap1\n      mload\n      0xf279e6a1f5e320cca91135676d9cb6e44ca8a08c0b88342bcdb1144f6511b568\n      swap2\n      dup2\n      swap1\n      sub\n        /* \"#utility.yul\":5721:5723   */\n      0x60\n        /* \"CoinIdo.sol\":6282:6326  Withdraw(msg.sender, amount,block.timestamp) */\n      add\n      swap1\n      log1\n        /* \"CoinIdo.sol\":5468:6334  function withdraw()public{\r... */\n      pop\n      pop\n      pop\n      pop\n      pop\n      jump\t// out\n        /* \"CoinIdo.sol\":2593:2680  function openOpenIdo(bool _flag) public onlyManager{\r... */\n    tag_78:\n        /* \"CoinIdo.sol\":1794:1804  msg.sender */\n      caller\n        /* \"CoinIdo.sol\":1784:1805  isManager[msg.sender] */\n      0x00\n      swap1\n      dup2\n      mstore\n        /* \"CoinIdo.sol\":1784:1793  isManager */\n      0x04\n        /* \"CoinIdo.sol\":1784:1805  isManager[msg.sender] */\n      0x20\n      mstore\n      0x40\n      swap1\n      keccak256\n      sload\n      0xff\n      and\n        /* \"CoinIdo.sol\":1776:1821  require(isManager[msg.sender], \"Not manager\") */\n      tag_298\n      jumpi\n      mload(0x40)\n      0x08c379a000000000000000000000000000000000000000000000000000000000\n      dup2\n      mstore\n        /* \"#utility.yul\":7946:7948   */\n      0x20\n        /* \"CoinIdo.sol\":1776:1821  require(isManager[msg.sender], \"Not manager\") */\n      0x04\n      dup3\n      add\n        /* \"#utility.yul\":7928:7949   */\n      mstore\n        /* \"#utility.yul\":7985:7987   */\n      0x0b\n        /* \"#utility.yul\":7965:7983   */\n      0x24\n      dup3\n      add\n        /* \"#utility.yul\":7958:7988   */\n      mstore\n        /* \"#utility.yul\":8024:8037   */\n      0x4e6f74206d616e61676572000000000000000000000000000000000000000000\n        /* \"#utility.yul\":8004:8022   */\n      0x44\n      dup3\n      add\n        /* \"#utility.yul\":7997:8038   */\n      mstore\n        /* \"#utility.yul\":8055:8073   */\n      0x64\n      add\n        /* \"CoinIdo.sol\":1776:1821  require(isManager[msg.sender], \"Not manager\") */\n      tag_152\n        /* \"#utility.yul\":7918:8079   */\n      jump\n        /* \"CoinIdo.sol\":1776:1821  require(isManager[msg.sender], \"Not manager\") */\n    tag_298:\n        /* \"CoinIdo.sol\":2655:2664  isOpenIdo */\n      0x10\n        /* \"CoinIdo.sol\":2655:2672  isOpenIdo = _flag */\n      dup1\n      sload\n      0xffffffffffffffffffffffffffffffffffffffffffffffffffffffffffffff00\n      and\n      swap2\n      iszero\n      iszero\n      swap2\n      swap1\n      swap2\n      or\n      swap1\n      sstore\n        /* \"CoinIdo.sol\":2593:2680  function openOpenIdo(bool _flag) public onlyManager{\r... */\n      jump\t// out\n        /* \"CoinIdo.sol\":2411:2496  function openOpenOne(bool _flag) public onlyManager{\r... */\n    tag_85:\n        /* \"CoinIdo.sol\":1794:1804  msg.sender */\n      caller\n        /* \"CoinIdo.sol\":1784:1805  isManager[msg.sender] */\n      0x00\n      swap1\n      dup2\n      mstore\n        /* \"CoinIdo.sol\":1784:1793  isManager */\n      0x04\n        /* \"CoinIdo.sol\":1784:1805  isManager[msg.sender] */\n      0x20\n      mstore\n      0x40\n      swap1\n      keccak256\n      sload\n      0xff\n      and\n        /* \"CoinIdo.sol\":1776:1821  require(isManager[msg.sender], \"Not manager\") */\n      tag_303\n      jumpi\n      mload(0x40)\n      0x08c379a000000000000000000000000000000000000000000000000000000000\n      dup2\n      mstore\n        /* \"#utility.yul\":7946:7948   */\n      0x20\n        /* \"CoinIdo.sol\":1776:1821  require(isManager[msg.sender], \"Not manager\") */\n      0x04\n      dup3\n      add\n        /* \"#utility.yul\":7928:7949   */\n      mstore\n        /* \"#utility.yul\":7985:7987   */\n      0x0b\n        /* \"#utility.yul\":7965:7983   */\n      0x24\n      dup3\n      add\n        /* \"#utility.yul\":7958:7988   */\n      mstore\n        /* \"#utility.yul\":8024:8037   */\n      0x4e6f74206d616e61676572000000000000000000000000000000000000000000\n        /* \"#utility.yul\":8004:8022   */\n      0x44\n      dup3\n      add\n        /* \"#utility.yul\":7997:8038   */\n      mstore\n        /* \"#utility.yul\":8055:8073   */\n      0x64\n      add\n        /* \"CoinIdo.sol\":1776:1821  require(isManager[msg.sender], \"Not manager\") */\n      tag_152\n        /* \"#utility.yul\":7918:8079   */\n      jump\n        /* \"CoinIdo.sol\":1776:1821  require(isManager[msg.sender], \"Not manager\") */\n    tag_303:\n        /* \"CoinIdo.sol\":2473:2482  isOpenOne */\n      0x00\n        /* \"CoinIdo.sol\":2473:2488  isOpenOne=_flag */\n      dup1\n      sload\n      0xffffffffffffffffffffffffffffffffffffffffffffffffffffffffffffff00\n      and\n      swap2\n      iszero\n      iszero\n      swap2\n      swap1\n      swap2\n      or\n      swap1\n      sstore\n        /* \"CoinIdo.sol\":2411:2496  function openOpenOne(bool _flag) public onlyManager{\r... */\n      jump\t// out\n        /* \"CoinIdo.sol\":2737:2911  function setEndTime() public onlyOwner{\r... */\n    tag_87:\n        /* \"CoinIdo.sol\":1328:1335  address */\n      0x00\n        /* \"CoinIdo.sol\":1355:1361  _owner */\n      sload\n      0xffffffffffffffffffffffffffffffffffffffff\n      0x010000\n      swap1\n      swap2\n      div\n      and\n        /* \"CoinIdo.sol\":1426:1436  msg.sender */\n      caller\n        /* \"CoinIdo.sol\":1415:1436  owner() == msg.sender */\n      eq\n        /* \"CoinIdo.sol\":1407:1473  require(owner() == msg.sender, \"Ownable: caller is not the owner\") */\n      tag_308\n      jumpi\n      mload(0x40)\n      0x08c379a000000000000000000000000000000000000000000000000000000000\n      dup2\n      mstore\n        /* \"#utility.yul\":10398:10400   */\n      0x20\n        /* \"CoinIdo.sol\":1407:1473  require(owner() == msg.sender, \"Ownable: caller is not the owner\") */\n      0x04\n      dup3\n      add\n        /* \"#utility.yul\":10380:10401   */\n      dup2\n      swap1\n      mstore\n        /* \"#utility.yul\":10417:10435   */\n      0x24\n      dup3\n      add\n        /* \"#utility.yul\":10410:10440   */\n      mstore\n        /* \"#utility.yul\":10476:10510   */\n      0x4f776e61626c653a2063616c6c6572206973206e6f7420746865206f776e6572\n        /* \"#utility.yul\":10456:10474   */\n      0x44\n      dup3\n      add\n        /* \"#utility.yul\":10449:10511   */\n      mstore\n        /* \"#utility.yul\":10528:10546   */\n      0x64\n      add\n        /* \"CoinIdo.sol\":1407:1473  require(owner() == msg.sender, \"Ownable: caller is not the owner\") */\n      tag_152\n        /* \"#utility.yul\":10370:10552   */\n      jump\n        /* \"CoinIdo.sol\":1407:1473  require(owner() == msg.sender, \"Ownable: caller is not the owner\") */\n    tag_308:\n        /* \"CoinIdo.sol\":2794:2801  endTime */\n      sload(0x01)\n        /* \"CoinIdo.sol\":2794:2804  endTime==0 */\n      iszero\n        /* \"CoinIdo.sol\":2786:2821  require(endTime==0,\"time is exist\") */\n      tag_311\n      jumpi\n      mload(0x40)\n      0x08c379a000000000000000000000000000000000000000000000000000000000\n      dup2\n      mstore\n        /* \"#utility.yul\":9375:9377   */\n      0x20\n        /* \"CoinIdo.sol\":2786:2821  require(endTime==0,\"time is exist\") */\n      0x04\n      dup3\n      add\n        /* \"#utility.yul\":9357:9378   */\n      mstore\n        /* \"#utility.yul\":9414:9416   */\n      0x0d\n        /* \"#utility.yul\":9394:9412   */\n      0x24\n      dup3\n      add\n        /* \"#utility.yul\":9387:9417   */\n      mstore\n        /* \"#utility.yul\":9453:9468   */\n      0x74696d6520697320657869737400000000000000000000000000000000000000\n        /* \"#utility.yul\":9433:9451   */\n      0x44\n      dup3\n      add\n        /* \"#utility.yul\":9426:9469   */\n      mstore\n        /* \"#utility.yul\":9486:9504   */\n      0x64\n      add\n        /* \"CoinIdo.sol\":2786:2821  require(endTime==0,\"time is exist\") */\n      tag_152\n        /* \"#utility.yul\":9347:9510   */\n      jump\n        /* \"CoinIdo.sol\":2786:2821  require(endTime==0,\"time is exist\") */\n    tag_311:\n        /* \"CoinIdo.sol\":2842:2857  block.timestamp */\n      timestamp\n        /* \"CoinIdo.sol\":2832:2839  endTime */\n      0x01\n        /* \"CoinIdo.sol\":2832:2857  endTime = block.timestamp */\n      dup2\n      swap1\n      sstore\n        /* \"CoinIdo.sol\":2873:2903  SetEndTime(msg.sender,endTime) */\n      0x40\n      dup1\n      mload\n        /* \"CoinIdo.sol\":2884:2894  msg.sender */\n      caller\n        /* \"#utility.yul\":5403:5477   */\n      dup2\n      mstore\n        /* \"#utility.yul\":5508:5510   */\n      0x20\n        /* \"#utility.yul\":5493:5511   */\n      dup2\n      add\n        /* \"#utility.yul\":5486:5520   */\n      swap3\n      swap1\n      swap3\n      mstore\n        /* \"CoinIdo.sol\":2873:2903  SetEndTime(msg.sender,endTime) */\n      0x4100552e0c7d7733b482a8b5b352d5cf64221041a5cb5ad4f57474178741b69a\n      swap2\n        /* \"#utility.yul\":5376:5394   */\n      add\n        /* \"CoinIdo.sol\":2873:2903  SetEndTime(msg.sender,endTime) */\n      mload(0x40)\n      dup1\n      swap2\n      sub\n      swap1\n      log1\n        /* \"CoinIdo.sol\":2737:2911  function setEndTime() public onlyOwner{\r... */\n      jump\t// out\n        /* \"CoinIdo.sol\":5127:5399  function allowET(address _address)public{\r... */\n    tag_100:\n        /* \"CoinIdo.sol\":5181:5193  lb[_address] */\n      0xffffffffffffffffffffffffffffffffffffffff\n      dup2\n      and\n      0x00\n      swap1\n      dup2\n      mstore\n        /* \"CoinIdo.sol\":5181:5183  lb */\n      0x09\n        /* \"CoinIdo.sol\":5181:5193  lb[_address] */\n      0x20\n      mstore\n      0x40\n      swap1\n      keccak256\n        /* \"CoinIdo.sol\":5181:5200  lb[_address].length */\n      sload\n        /* \"CoinIdo.sol\":5178:5392  if(lb[_address].length==0){\r... */\n      tag_317\n      jumpi\n        /* \"CoinIdo.sol\":5239:5253  new bool[](16) */\n      0x40\n      dup1\n      mload\n        /* \"CoinIdo.sol\":5250:5252  16 */\n      0x10\n        /* \"CoinIdo.sol\":5239:5253  new bool[](16) */\n      dup1\n      dup3\n      mstore\n      0x0220\n      dup3\n      add\n      swap1\n      swap3\n      mstore\n        /* \"CoinIdo.sol\":5219:5236  bool[]memory islb */\n      0x00\n      swap2\n        /* \"CoinIdo.sol\":5239:5253  new bool[](16) */\n      0x20\n      dup3\n      add\n      0x0200\n      dup1\n      calldatasize\n      dup4\n      calldatacopy\n      add\n      swap1\n      pop\n      pop\n        /* \"CoinIdo.sol\":5219:5253  bool[]memory islb = new bool[](16) */\n      swap1\n      pop\n        /* \"CoinIdo.sol\":5272:5278  uint i */\n      0x00\n        /* \"CoinIdo.sol\":5268:5349  for(uint i=0; i<islb.length; i++){\r... */\n    tag_320:\n        /* \"CoinIdo.sol\":5284:5288  islb */\n      dup2\n        /* \"CoinIdo.sol\":5284:5295  islb.length */\n      mload\n        /* \"CoinIdo.sol\":5282:5283  i */\n      dup2\n        /* \"CoinIdo.sol\":5282:5295  i<islb.length */\n      lt\n        /* \"CoinIdo.sol\":5268:5349  for(uint i=0; i<islb.length; i++){\r... */\n      iszero\n      tag_321\n      jumpi\n        /* \"CoinIdo.sol\":5328:5333  false */\n      0x00\n        /* \"CoinIdo.sol\":5320:5324  islb */\n      dup3\n        /* \"CoinIdo.sol\":5325:5326  i */\n      dup3\n        /* \"CoinIdo.sol\":5320:5327  islb[i] */\n      dup2\n      mload\n      dup2\n      lt\n      tag_323\n      jumpi\n      mstore(0x00, 0x4e487b7100000000000000000000000000000000000000000000000000000000)\n      mstore(0x04, 0x32)\n      revert(0x00, 0x24)\n    tag_323:\n        /* \"CoinIdo.sol\":5320:5333  islb[i]=false */\n      swap2\n      iszero\n      iszero\n        /* \"CoinIdo.sol\":5320:5327  islb[i] */\n      0x20\n      swap3\n      dup4\n      mul\n      swap2\n      swap1\n      swap2\n      add\n      swap1\n      swap2\n      add\n        /* \"CoinIdo.sol\":5320:5333  islb[i]=false */\n      mstore\n        /* \"CoinIdo.sol\":5297:5300  i++ */\n      dup1\n      tag_324\n      dup2\n      tag_208\n      jump\t// in\n    tag_324:\n      swap2\n      pop\n      pop\n        /* \"CoinIdo.sol\":5268:5349  for(uint i=0; i<islb.length; i++){\r... */\n      jump(tag_320)\n    tag_321:\n      pop\n        /* \"CoinIdo.sol\":5363:5375  lb[_address] */\n      0xffffffffffffffffffffffffffffffffffffffff\n      dup3\n      and\n      0x00\n      swap1\n      dup2\n      mstore\n        /* \"CoinIdo.sol\":5363:5365  lb */\n      0x09\n        /* \"CoinIdo.sol\":5363:5375  lb[_address] */\n      0x20\n      swap1\n      dup2\n      mstore\n      0x40\n      swap1\n      swap2\n      keccak256\n        /* \"CoinIdo.sol\":5363:5380  lb[_address]=islb */\n      dup3\n      mload\n      tag_325\n      swap3\n      dup5\n      add\n      swap1\n      tag_326\n      jump\t// in\n    tag_325:\n      pop\n        /* \"CoinIdo.sol\":5178:5392  if(lb[_address].length==0){\r... */\n      pop\n    tag_317:\n        /* \"CoinIdo.sol\":5127:5399  function allowET(address _address)public{\r... */\n      pop\n      jump\t// out\n        /* \"CoinIdo.sol\":2306:2405  function setETCoin(address _address) public onlyManager{\r... */\n    tag_103:\n        /* \"CoinIdo.sol\":1794:1804  msg.sender */\n      caller\n        /* \"CoinIdo.sol\":1784:1805  isManager[msg.sender] */\n      0x00\n      swap1\n      dup2\n      mstore\n        /* \"CoinIdo.sol\":1784:1793  isManager */\n      0x04\n        /* \"CoinIdo.sol\":1784:1805  isManager[msg.sender] */\n      0x20\n      mstore\n      0x40\n      swap1\n      keccak256\n      sload\n      0xff\n      and\n        /* \"CoinIdo.sol\":1776:1821  require(isManager[msg.sender], \"Not manager\") */\n      tag_328\n      jumpi\n      mload(0x40)\n      0x08c379a000000000000000000000000000000000000000000000000000000000\n      dup2\n      mstore\n        /* \"#utility.yul\":7946:7948   */\n      0x20\n        /* \"CoinIdo.sol\":1776:1821  require(isManager[msg.sender], \"Not manager\") */\n      0x04\n      dup3\n      add\n        /* \"#utility.yul\":7928:7949   */\n      mstore\n        /* \"#utility.yul\":7985:7987   */\n      0x0b\n        /* \"#utility.yul\":7965:7983   */\n      0x24\n      dup3\n      add\n        /* \"#utility.yul\":7958:7988   */\n      mstore\n        /* \"#utility.yul\":8024:8037   */\n      0x4e6f74206d616e61676572000000000000000000000000000000000000000000\n        /* \"#utility.yul\":8004:8022   */\n      0x44\n      dup3\n      add\n        /* \"#utility.yul\":7997:8038   */\n      mstore\n        /* \"#utility.yul\":8055:8073   */\n      0x64\n      add\n        /* \"CoinIdo.sol\":1776:1821  require(isManager[msg.sender], \"Not manager\") */\n      tag_152\n        /* \"#utility.yul\":7918:8079   */\n      jump\n        /* \"CoinIdo.sol\":1776:1821  require(isManager[msg.sender], \"Not manager\") */\n    tag_328:\n        /* \"CoinIdo.sol\":2372:2378  etCoin */\n      0x08\n        /* \"CoinIdo.sol\":2372:2397  etCoin = IERC20(_address) */\n      dup1\n      sload\n      0xffffffffffffffffffffffff0000000000000000000000000000000000000000\n      and\n      0xffffffffffffffffffffffffffffffffffffffff\n      swap3\n      swap1\n      swap3\n      and\n      swap2\n      swap1\n      swap2\n      or\n      swap1\n      sstore\n        /* \"CoinIdo.sol\":2306:2405  function setETCoin(address _address) public onlyManager{\r... */\n      jump\t// out\n        /* \"CoinIdo.sol\":1568:1736  function setManager(address _manager, bool _flag) public onlyOwner {\r... */\n    tag_111:\n        /* \"CoinIdo.sol\":1328:1335  address */\n      0x00\n        /* \"CoinIdo.sol\":1355:1361  _owner */\n      sload\n      0xffffffffffffffffffffffffffffffffffffffff\n      0x010000\n      swap1\n      swap2\n      div\n      and\n        /* \"CoinIdo.sol\":1426:1436  msg.sender */\n      caller\n        /* \"CoinIdo.sol\":1415:1436  owner() == msg.sender */\n      eq\n        /* \"CoinIdo.sol\":1407:1473  require(owner() == msg.sender, \"Ownable: caller is not the owner\") */\n      tag_333\n      jumpi\n      mload(0x40)\n      0x08c379a000000000000000000000000000000000000000000000000000000000\n      dup2\n      mstore\n        /* \"#utility.yul\":10398:10400   */\n      0x20\n        /* \"CoinIdo.sol\":1407:1473  require(owner() == msg.sender, \"Ownable: caller is not the owner\") */\n      0x04\n      dup3\n      add\n        /* \"#utility.yul\":10380:10401   */\n      dup2\n      swap1\n      mstore\n        /* \"#utility.yul\":10417:10435   */\n      0x24\n      dup3\n      add\n        /* \"#utility.yul\":10410:10440   */\n      mstore\n        /* \"#utility.yul\":10476:10510   */\n      0x4f776e61626c653a2063616c6c6572206973206e6f7420746865206f776e6572\n        /* \"#utility.yul\":10456:10474   */\n      0x44\n      dup3\n      add\n        /* \"#utility.yul\":10449:10511   */\n      mstore\n        /* \"#utility.yul\":10528:10546   */\n      0x64\n      add\n        /* \"CoinIdo.sol\":1407:1473  require(owner() == msg.sender, \"Ownable: caller is not the owner\") */\n      tag_152\n        /* \"#utility.yul\":10370:10552   */\n      jump\n        /* \"CoinIdo.sol\":1407:1473  require(owner() == msg.sender, \"Ownable: caller is not the owner\") */\n    tag_333:\n        /* \"CoinIdo.sol\":1646:1665  isManager[_manager] */\n      0xffffffffffffffffffffffffffffffffffffffff\n      dup3\n      and\n      0x00\n      dup2\n      dup2\n      mstore\n        /* \"CoinIdo.sol\":1646:1655  isManager */\n      0x04\n        /* \"CoinIdo.sol\":1646:1665  isManager[_manager] */\n      0x20\n      swap1\n      dup2\n      mstore\n      0x40\n      swap2\n      dup3\n      swap1\n      keccak256\n        /* \"CoinIdo.sol\":1646:1673  isManager[_manager] = _flag */\n      dup1\n      sload\n      0xffffffffffffffffffffffffffffffffffffffffffffffffffffffffffffff00\n      and\n      dup6\n      iszero\n      iszero\n      swap1\n      dup2\n      or\n      swap1\n      swap2\n      sstore\n        /* \"CoinIdo.sol\":1689:1728  SetManager(msg.sender, _manager, _flag) */\n      dup3\n      mload\n        /* \"CoinIdo.sol\":1700:1710  msg.sender */\n      caller\n        /* \"#utility.yul\":4670:4704   */\n      dup2\n      mstore\n        /* \"#utility.yul\":4720:4738   */\n      swap2\n      dup3\n      add\n        /* \"#utility.yul\":4713:4756   */\n      swap4\n      swap1\n      swap4\n      mstore\n        /* \"#utility.yul\":4772:4790   */\n      swap1\n      dup2\n      add\n        /* \"#utility.yul\":4765:4815   */\n      swap2\n      swap1\n      swap2\n      mstore\n        /* \"CoinIdo.sol\":1689:1728  SetManager(msg.sender, _manager, _flag) */\n      0x2862b022f51ffee932517d924c5103b3267a9d5d1f21bec54356e328aac24c18\n      swap1\n        /* \"#utility.yul\":4597:4599   */\n      0x60\n        /* \"#utility.yul\":4582:4600   */\n      add\n        /* \"CoinIdo.sol\":1689:1728  SetManager(msg.sender, _manager, _flag) */\n      tag_252\n        /* \"#utility.yul\":4564:4821   */\n      jump\n        /* \"CoinIdo.sol\":2502:2587  function openOpenTwo(bool _flag) public onlyManager{\r... */\n    tag_117:\n        /* \"CoinIdo.sol\":1794:1804  msg.sender */\n      caller\n        /* \"CoinIdo.sol\":1784:1805  isManager[msg.sender] */\n      0x00\n      swap1\n      dup2\n      mstore\n        /* \"CoinIdo.sol\":1784:1793  isManager */\n      0x04\n        /* \"CoinIdo.sol\":1784:1805  isManager[msg.sender] */\n      0x20\n      mstore\n      0x40\n      swap1\n      keccak256\n      sload\n      0xff\n      and\n        /* \"CoinIdo.sol\":1776:1821  require(isManager[msg.sender], \"Not manager\") */\n      tag_339\n      jumpi\n      mload(0x40)\n      0x08c379a000000000000000000000000000000000000000000000000000000000\n      dup2\n      mstore\n        /* \"#utility.yul\":7946:7948   */\n      0x20\n        /* \"CoinIdo.sol\":1776:1821  require(isManager[msg.sender], \"Not manager\") */\n      0x04\n      dup3\n      add\n        /* \"#utility.yul\":7928:7949   */\n      mstore\n        /* \"#utility.yul\":7985:7987   */\n      0x0b\n        /* \"#utility.yul\":7965:7983   */\n      0x24\n      dup3\n      add\n        /* \"#utility.yul\":7958:7988   */\n      mstore\n        /* \"#utility.yul\":8024:8037   */\n      0x4e6f74206d616e61676572000000000000000000000000000000000000000000\n        /* \"#utility.yul\":8004:8022   */\n      0x44\n      dup3\n      add\n        /* \"#utility.yul\":7997:8038   */\n      mstore\n        /* \"#utility.yul\":8055:8073   */\n      0x64\n      add\n        /* \"CoinIdo.sol\":1776:1821  require(isManager[msg.sender], \"Not manager\") */\n      tag_152\n        /* \"#utility.yul\":7918:8079   */\n      jump\n        /* \"CoinIdo.sol\":1776:1821  require(isManager[msg.sender], \"Not manager\") */\n    tag_339:\n        /* \"CoinIdo.sol\":2564:2573  isOpenTwo */\n      0x00\n        /* \"CoinIdo.sol\":2564:2579  isOpenTwo=_flag */\n      dup1\n      sload\n      swap2\n      iszero\n      iszero\n      0x0100\n      mul\n      0xffffffffffffffffffffffffffffffffffffffffffffffffffffffffffff00ff\n      swap1\n      swap3\n      and\n      swap2\n      swap1\n      swap2\n      or\n      swap1\n      sstore\n        /* \"CoinIdo.sol\":2502:2587  function openOpenTwo(bool _flag) public onlyManager{\r... */\n      jump\t// out\n        /* \"CoinIdo.sol\":628:662  mapping(address=>bool[]) public lb */\n    tag_124:\n      mstore(0x20, 0x09)\n      dup2\n      0x00\n      mstore\n      keccak256(0x00, 0x40)\n      dup2\n      dup2\n      sload\n      dup2\n      lt\n      tag_342\n      jumpi\n      0x00\n      dup1\n      revert\n    tag_342:\n      swap1\n      0x00\n      mstore\n      keccak256(0x00, 0x20)\n      swap1\n      0x20\n      swap2\n      dup3\n      dup3\n      div\n      add\n      swap2\n      swap1\n      mod\n      swap2\n      pop\n      swap2\n      pop\n      swap1\n      sload\n      swap1\n      0x0100\n      exp\n      swap1\n      div\n      0xff\n      and\n      dup2\n      jump\t// out\n        /* \"CoinIdo.sol\":6346:6998  function getWithDraw()public view returns(uint){\r... */\n    tag_131:\n        /* \"CoinIdo.sol\":6415:6425  msg.sender */\n      caller\n        /* \"CoinIdo.sol\":6388:6392  uint */\n      0x00\n        /* \"CoinIdo.sol\":6407:6426  userIDO[msg.sender] */\n      swap1\n      dup2\n      mstore\n        /* \"CoinIdo.sol\":6407:6414  userIDO */\n      0x0b\n        /* \"CoinIdo.sol\":6407:6426  userIDO[msg.sender] */\n      0x20\n      mstore\n      0x40\n      dup2\n      keccak256\n      sload\n        /* \"CoinIdo.sol\":6404:6441  if(userIDO[msg.sender]<=0){return 0;} */\n      tag_345\n      jumpi\n      pop\n        /* \"CoinIdo.sol\":6438:6439  0 */\n      0x00\n      swap1\n        /* \"CoinIdo.sol\":6346:6998  function getWithDraw()public view returns(uint){\r... */\n      jump\t// out\n        /* \"CoinIdo.sol\":6404:6441  if(userIDO[msg.sender]<=0){return 0;} */\n    tag_345:\n        /* \"CoinIdo.sol\":6467:6468  0 */\n      0x00\n        /* \"CoinIdo.sol\":6459:6466  endTime */\n      sload(0x01)\n        /* \"CoinIdo.sol\":6459:6468  endTime>0 */\n      gt\n        /* \"CoinIdo.sol\":6451:6478  require(endTime>0,\"not ET\") */\n      tag_346\n      jumpi\n      mload(0x40)\n      0x08c379a000000000000000000000000000000000000000000000000000000000\n      dup2\n      mstore\n        /* \"#utility.yul\":8693:8695   */\n      0x20\n        /* \"CoinIdo.sol\":6451:6478  require(endTime>0,\"not ET\") */\n      0x04\n      dup3\n      add\n        /* \"#utility.yul\":8675:8696   */\n      mstore\n        /* \"#utility.yul\":8732:8733   */\n      0x06\n        /* \"#utility.yul\":8712:8730   */\n      0x24\n      dup3\n      add\n        /* \"#utility.yul\":8705:8734   */\n      mstore\n        /* \"#utility.yul\":8770:8778   */\n      0x6e6f742045540000000000000000000000000000000000000000000000000000\n        /* \"#utility.yul\":8750:8768   */\n      0x44\n      dup3\n      add\n        /* \"#utility.yul\":8743:8779   */\n      mstore\n        /* \"#utility.yul\":8796:8814   */\n      0x64\n      add\n        /* \"CoinIdo.sol\":6451:6478  require(endTime>0,\"not ET\") */\n      tag_152\n        /* \"#utility.yul\":8665:8820   */\n      jump\n        /* \"CoinIdo.sol\":6451:6478  require(endTime>0,\"not ET\") */\n    tag_346:\n        /* \"CoinIdo.sol\":6489:6500  uint amount */\n      0x00\n        /* \"CoinIdo.sol\":6511:6528  uint intervalTime */\n      dup1\n        /* \"CoinIdo.sol\":6548:6555  endTime */\n      sload(0x01)\n        /* \"CoinIdo.sol\":6531:6546  block.timestamp */\n      timestamp\n        /* \"CoinIdo.sol\":6531:6555  block.timestamp -endTime */\n      tag_348\n      swap2\n      swap1\n      tag_185\n      jump\t// in\n    tag_348:\n        /* \"CoinIdo.sol\":6511:6555  uint intervalTime = block.timestamp -endTime */\n      swap1\n      pop\n        /* \"CoinIdo.sol\":6566:6574  uint day */\n      0x00\n        /* \"CoinIdo.sol\":6577:6595  intervalTime/86400 */\n      tag_349\n        /* \"CoinIdo.sol\":6590:6595  86400 */\n      0x015180\n        /* \"CoinIdo.sol\":6511:6555  uint intervalTime = block.timestamp -endTime */\n      dup4\n        /* \"CoinIdo.sol\":6577:6595  intervalTime/86400 */\n      tag_176\n      jump\t// in\n    tag_349:\n        /* \"CoinIdo.sol\":6627:6637  msg.sender */\n      caller\n        /* \"CoinIdo.sol\":6606:6616  uint allET */\n      0x00\n        /* \"CoinIdo.sol\":6619:6638  userIDO[msg.sender] */\n      swap1\n      dup2\n      mstore\n        /* \"CoinIdo.sol\":6619:6626  userIDO */\n      0x0b\n        /* \"CoinIdo.sol\":6619:6638  userIDO[msg.sender] */\n      0x20\n      mstore\n      0x40\n      dup2\n      keccak256\n      sload\n        /* \"CoinIdo.sol\":6566:6595  uint day = intervalTime/86400 */\n      swap2\n      swap3\n      pop\n        /* \"CoinIdo.sol\":6606:6616  uint allET */\n      swap1\n        /* \"CoinIdo.sol\":6644:6647  120 */\n      0x78\n      swap1\n        /* \"CoinIdo.sol\":6619:6643  userIDO[msg.sender]*2600 */\n      tag_350\n      swap1\n        /* \"CoinIdo.sol\":6639:6643  2600 */\n      0x0a28\n        /* \"CoinIdo.sol\":6619:6643  userIDO[msg.sender]*2600 */\n      tag_158\n      jump\t// in\n    tag_350:\n        /* \"CoinIdo.sol\":6619:6647  userIDO[msg.sender]*2600/120 */\n      tag_351\n      swap2\n      swap1\n      tag_176\n      jump\t// in\n    tag_351:\n        /* \"CoinIdo.sol\":6606:6647  uint allET = userIDO[msg.sender]*2600/120 */\n      swap1\n      pop\n        /* \"CoinIdo.sol\":6666:6667  1 */\n      0x01\n        /* \"CoinIdo.sol\":6661:6664  day */\n      dup3\n        /* \"CoinIdo.sol\":6661:6667  day>=1 */\n      lt\n      iszero\n        /* \"CoinIdo.sol\":6661:6689  day>=1 && !lb[msg.sender][0] */\n      dup1\n      iszero\n      tag_352\n      jumpi\n      pop\n        /* \"CoinIdo.sol\":6675:6685  msg.sender */\n      caller\n        /* \"CoinIdo.sol\":6672:6686  lb[msg.sender] */\n      0x00\n      swap1\n      dup2\n      mstore\n        /* \"CoinIdo.sol\":6672:6674  lb */\n      0x09\n        /* \"CoinIdo.sol\":6672:6686  lb[msg.sender] */\n      0x20\n      mstore\n      0x40\n      dup2\n      keccak256\n        /* \"CoinIdo.sol\":6672:6689  lb[msg.sender][0] */\n      dup1\n      sload\n        /* \"CoinIdo.sol\":6672:6686  lb[msg.sender] */\n      swap1\n      swap2\n      swap1\n        /* \"CoinIdo.sol\":6672:6689  lb[msg.sender][0] */\n      tag_353\n      jumpi\n      mstore(0x00, 0x4e487b7100000000000000000000000000000000000000000000000000000000)\n      mstore(0x04, 0x32)\n      revert(0x00, 0x24)\n    tag_353:\n      swap1\n      0x00\n      mstore\n      keccak256(0x00, 0x20)\n      swap1\n      0x20\n      swap2\n      dup3\n      dup3\n      div\n      add\n      swap2\n      swap1\n      mod\n      swap1\n      sload\n      swap1\n      0x0100\n      exp\n      swap1\n      div\n      0xff\n      and\n        /* \"CoinIdo.sol\":6671:6689  !lb[msg.sender][0] */\n      iszero\n        /* \"CoinIdo.sol\":6661:6689  day>=1 && !lb[msg.sender][0] */\n    tag_352:\n        /* \"CoinIdo.sol\":6658:6742  if(day>=1 && !lb[msg.sender][0]){\r... */\n      iszero\n      tag_355\n      jumpi\n        /* \"CoinIdo.sol\":6725:6730  10000 */\n      0x2710\n        /* \"CoinIdo.sol\":6714:6724  allET*1000 */\n      tag_356\n        /* \"CoinIdo.sol\":6714:6719  allET */\n      dup3\n        /* \"CoinIdo.sol\":6720:6724  1000 */\n      0x03e8\n        /* \"CoinIdo.sol\":6714:6724  allET*1000 */\n      tag_158\n      jump\t// in\n    tag_356:\n        /* \"CoinIdo.sol\":6714:6730  allET*1000/10000 */\n      tag_357\n      swap2\n      swap1\n      tag_176\n      jump\t// in\n    tag_357:\n        /* \"CoinIdo.sol\":6705:6730  amount = allET*1000/10000 */\n      swap4\n      pop\n        /* \"CoinIdo.sol\":6658:6742  if(day>=1 && !lb[msg.sender][0]){\r... */\n    tag_355:\n        /* \"CoinIdo.sol\":6752:6761  uint item */\n      0x00\n        /* \"CoinIdo.sol\":6772:6774  30 */\n      0x1e\n        /* \"CoinIdo.sol\":6765:6770  day-1 */\n      tag_358\n        /* \"CoinIdo.sol\":6769:6770  1 */\n      0x01\n        /* \"CoinIdo.sol\":6765:6768  day */\n      dup6\n        /* \"CoinIdo.sol\":6765:6770  day-1 */\n      tag_185\n      jump\t// in\n    tag_358:\n        /* \"CoinIdo.sol\":6764:6774  (day-1)/30 */\n      tag_359\n      swap2\n      swap1\n      tag_176\n      jump\t// in\n    tag_359:\n        /* \"CoinIdo.sol\":6752:6774  uint item = (day-1)/30 */\n      swap1\n      pop\n        /* \"CoinIdo.sol\":6795:6797  15 */\n      0x0f\n        /* \"CoinIdo.sol\":6790:6794  item */\n      dup2\n        /* \"CoinIdo.sol\":6790:6797  item>15 */\n      gt\n        /* \"CoinIdo.sol\":6790:6805  item>15?15:item */\n      tag_360\n      jumpi\n        /* \"CoinIdo.sol\":6801:6805  item */\n      dup1\n        /* \"CoinIdo.sol\":6790:6805  item>15?15:item */\n      jump(tag_361)\n    tag_360:\n        /* \"CoinIdo.sol\":6798:6800  15 */\n      0x0f\n        /* \"CoinIdo.sol\":6790:6805  item>15?15:item */\n    tag_361:\n        /* \"CoinIdo.sol\":6785:6805  item=item>15?15:item */\n      swap1\n      pop\n        /* \"CoinIdo.sol\":6835:6836  1 */\n      0x01\n        /* \"CoinIdo.sol\":6824:6967  for(uint i=1; i<=item; i++){\r... */\n    tag_362:\n        /* \"CoinIdo.sol\":6841:6845  item */\n      dup2\n        /* \"CoinIdo.sol\":6838:6839  i */\n      dup2\n        /* \"CoinIdo.sol\":6838:6845  i<=item */\n      gt\n        /* \"CoinIdo.sol\":6824:6967  for(uint i=1; i<=item; i++){\r... */\n      tag_363\n      jumpi\n        /* \"CoinIdo.sol\":6873:6883  msg.sender */\n      caller\n        /* \"CoinIdo.sol\":6870:6884  lb[msg.sender] */\n      0x00\n      swap1\n      dup2\n      mstore\n        /* \"CoinIdo.sol\":6870:6872  lb */\n      0x09\n        /* \"CoinIdo.sol\":6870:6884  lb[msg.sender] */\n      0x20\n      mstore\n      0x40\n      swap1\n      keccak256\n        /* \"CoinIdo.sol\":6870:6887  lb[msg.sender][i] */\n      dup1\n      sload\n        /* \"CoinIdo.sol\":6885:6886  i */\n      dup3\n      swap1\n        /* \"CoinIdo.sol\":6870:6887  lb[msg.sender][i] */\n      dup2\n      lt\n      tag_365\n      jumpi\n      mstore(0x00, 0x4e487b7100000000000000000000000000000000000000000000000000000000)\n      mstore(0x04, 0x32)\n      revert(0x00, 0x24)\n    tag_365:\n      swap1\n      0x00\n      mstore\n      keccak256(0x00, 0x20)\n      swap1\n      0x20\n      swap2\n      dup3\n      dup3\n      div\n      add\n      swap2\n      swap1\n      mod\n      swap1\n      sload\n      swap1\n      0x0100\n      exp\n      swap1\n      div\n      0xff\n      and\n        /* \"CoinIdo.sol\":6866:6956  if(!lb[msg.sender][i]){\r... */\n      tag_367\n      jumpi\n        /* \"CoinIdo.sol\":6935:6940  10000 */\n      0x2710\n        /* \"CoinIdo.sol\":6925:6934  allET*600 */\n      tag_368\n        /* \"CoinIdo.sol\":6925:6930  allET */\n      dup5\n        /* \"CoinIdo.sol\":6931:6934  600 */\n      0x0258\n        /* \"CoinIdo.sol\":6925:6934  allET*600 */\n      tag_158\n      jump\t// in\n    tag_368:\n        /* \"CoinIdo.sol\":6925:6940  allET*600/10000 */\n      tag_369\n      swap2\n      swap1\n      tag_176\n      jump\t// in\n    tag_369:\n        /* \"CoinIdo.sol\":6916:6940  amount + allET*600/10000 */\n      tag_370\n      swap1\n        /* \"CoinIdo.sol\":6916:6922  amount */\n      dup8\n        /* \"CoinIdo.sol\":6916:6940  amount + allET*600/10000 */\n      tag_162\n      jump\t// in\n    tag_370:\n        /* \"CoinIdo.sol\":6907:6940  amount = amount + allET*600/10000 */\n      swap6\n      pop\n        /* \"CoinIdo.sol\":6866:6956  if(!lb[msg.sender][i]){\r... */\n    tag_367:\n        /* \"CoinIdo.sol\":6847:6850  i++ */\n      dup1\n      tag_371\n      dup2\n      tag_208\n      jump\t// in\n    tag_371:\n      swap2\n      pop\n      pop\n        /* \"CoinIdo.sol\":6824:6967  for(uint i=1; i<=item; i++){\r... */\n      jump(tag_362)\n    tag_363:\n      pop\n        /* \"CoinIdo.sol\":6984:6990  amount */\n      swap4\n      swap6\n        /* \"CoinIdo.sol\":6346:6998  function getWithDraw()public view returns(uint){\r... */\n      swap5\n      pop\n      pop\n      pop\n      pop\n      pop\n      jump\t// out\n        /* \"CoinIdo.sol\":1921:2195  function transferOwnership(address newOwner) public onlyOwner {\r... */\n    tag_139:\n        /* \"CoinIdo.sol\":1328:1335  address */\n      0x00\n        /* \"CoinIdo.sol\":1355:1361  _owner */\n      sload\n      0xffffffffffffffffffffffffffffffffffffffff\n      0x010000\n      swap1\n      swap2\n      div\n      and\n        /* \"CoinIdo.sol\":1426:1436  msg.sender */\n      caller\n        /* \"CoinIdo.sol\":1415:1436  owner() == msg.sender */\n      eq\n        /* \"CoinIdo.sol\":1407:1473  require(owner() == msg.sender, \"Ownable: caller is not the owner\") */\n      tag_374\n      jumpi\n      mload(0x40)\n      0x08c379a000000000000000000000000000000000000000000000000000000000\n      dup2\n      mstore\n        /* \"#utility.yul\":10398:10400   */\n      0x20\n        /* \"CoinIdo.sol\":1407:1473  require(owner() == msg.sender, \"Ownable: caller is not the owner\") */\n      0x04\n      dup3\n      add\n        /* \"#utility.yul\":10380:10401   */\n      dup2\n      swap1\n      mstore\n        /* \"#utility.yul\":10417:10435   */\n      0x24\n      dup3\n      add\n        /* \"#utility.yul\":10410:10440   */\n      mstore\n        /* \"#utility.yul\":10476:10510   */\n      0x4f776e61626c653a2063616c6c6572206973206e6f7420746865206f776e6572\n        /* \"#utility.yul\":10456:10474   */\n      0x44\n      dup3\n      add\n        /* \"#utility.yul\":10449:10511   */\n      mstore\n        /* \"#utility.yul\":10528:10546   */\n      0x64\n      add\n        /* \"CoinIdo.sol\":1407:1473  require(owner() == msg.sender, \"Ownable: caller is not the owner\") */\n      tag_152\n        /* \"#utility.yul\":10370:10552   */\n      jump\n        /* \"CoinIdo.sol\":1407:1473  require(owner() == msg.sender, \"Ownable: caller is not the owner\") */\n    tag_374:\n        /* \"CoinIdo.sol\":2002:2024  newOwner != address(0) */\n      0xffffffffffffffffffffffffffffffffffffffff\n      dup2\n      and\n        /* \"CoinIdo.sol\":1994:2067  require(newOwner != address(0), \"Ownable: new owner is the zero address\") */\n      tag_377\n      jumpi\n      mload(0x40)\n      0x08c379a000000000000000000000000000000000000000000000000000000000\n      dup2\n      mstore\n        /* \"#utility.yul\":8286:8288   */\n      0x20\n        /* \"CoinIdo.sol\":1994:2067  require(newOwner != address(0), \"Ownable: new owner is the zero address\") */\n      0x04\n      dup3\n      add\n        /* \"#utility.yul\":8268:8289   */\n      mstore\n        /* \"#utility.yul\":8325:8327   */\n      0x26\n        /* \"#utility.yul\":8305:8323   */\n      0x24\n      dup3\n      add\n        /* \"#utility.yul\":8298:8328   */\n      mstore\n        /* \"#utility.yul\":8364:8398   */\n      0x4f776e61626c653a206e6577206f776e657220697320746865207a65726f2061\n        /* \"#utility.yul\":8344:8362   */\n      0x44\n      dup3\n      add\n        /* \"#utility.yul\":8337:8399   */\n      mstore\n        /* \"#utility.yul\":8435:8443   */\n      0x6464726573730000000000000000000000000000000000000000000000000000\n        /* \"#utility.yul\":8415:8433   */\n      0x64\n      dup3\n      add\n        /* \"#utility.yul\":8408:8444   */\n      mstore\n        /* \"#utility.yul\":8461:8480   */\n      0x84\n      add\n        /* \"CoinIdo.sol\":1994:2067  require(newOwner != address(0), \"Ownable: new owner is the zero address\") */\n      tag_152\n        /* \"#utility.yul\":8258:8486   */\n      jump\n        /* \"CoinIdo.sol\":1994:2067  require(newOwner != address(0), \"Ownable: new owner is the zero address\") */\n    tag_377:\n        /* \"CoinIdo.sol\":2078:2094  address oldOwner */\n      0x00\n        /* \"CoinIdo.sol\":2097:2103  _owner */\n      dup1\n      sload\n      0xffffffffffffffffffffffffffffffffffffffff\n        /* \"CoinIdo.sol\":2114:2131  _owner = newOwner */\n      dup4\n      dup2\n      and\n        /* \"CoinIdo.sol\":2097:2103  _owner */\n      0x010000\n        /* \"CoinIdo.sol\":2114:2131  _owner = newOwner */\n      dup2\n      dup2\n      mul\n      0xffffffffffffffffffff0000000000000000000000000000000000000000ffff\n      dup6\n      and\n      or\n      swap1\n      swap5\n      sstore\n        /* \"CoinIdo.sol\":2147:2187  OwnershipTransferred(oldOwner, newOwner) */\n      0x40\n      dup1\n      mload\n        /* \"CoinIdo.sol\":2097:2103  _owner */\n      swap5\n      swap1\n      swap4\n      div\n      swap1\n      swap2\n      and\n        /* \"#utility.yul\":4316:4350   */\n      dup1\n      dup5\n      mstore\n        /* \"#utility.yul\":4381:4383   */\n      0x20\n        /* \"#utility.yul\":4366:4384   */\n      dup5\n      add\n        /* \"#utility.yul\":4359:4402   */\n      swap2\n      swap1\n      swap2\n      mstore\n        /* \"CoinIdo.sol\":2097:2103  _owner */\n      swap2\n        /* \"CoinIdo.sol\":2147:2187  OwnershipTransferred(oldOwner, newOwner) */\n      0x8be0079c531659141344cd1fd0a4f28419497f9722a3daafe3b4186f6b6457e0\n      swap2\n        /* \"#utility.yul\":4228:4246   */\n      add\n        /* \"CoinIdo.sol\":2147:2187  OwnershipTransferred(oldOwner, newOwner) */\n      tag_252\n        /* \"#utility.yul\":4210:4408   */\n      jump\n        /* \"CoinIdo.sol\":2205:2300  function setNFT(address _address) public onlyManager{\r... */\n    tag_146:\n        /* \"CoinIdo.sol\":1794:1804  msg.sender */\n      caller\n        /* \"CoinIdo.sol\":1784:1805  isManager[msg.sender] */\n      0x00\n      swap1\n      dup2\n      mstore\n        /* \"CoinIdo.sol\":1784:1793  isManager */\n      0x04\n        /* \"CoinIdo.sol\":1784:1805  isManager[msg.sender] */\n      0x20\n      mstore\n      0x40\n      swap1\n      keccak256\n      sload\n      0xff\n      and\n        /* \"CoinIdo.sol\":1776:1821  require(isManager[msg.sender], \"Not manager\") */\n      tag_383\n      jumpi\n      mload(0x40)\n      0x08c379a000000000000000000000000000000000000000000000000000000000\n      dup2\n      mstore\n        /* \"#utility.yul\":7946:7948   */\n      0x20\n        /* \"CoinIdo.sol\":1776:1821  require(isManager[msg.sender], \"Not manager\") */\n      0x04\n      dup3\n      add\n        /* \"#utility.yul\":7928:7949   */\n      mstore\n        /* \"#utility.yul\":7985:7987   */\n      0x0b\n        /* \"#utility.yul\":7965:7983   */\n      0x24\n      dup3\n      add\n        /* \"#utility.yul\":7958:7988   */\n      mstore\n        /* \"#utility.yul\":8024:8037   */\n      0x4e6f74206d616e61676572000000000000000000000000000000000000000000\n        /* \"#utility.yul\":8004:8022   */\n      0x44\n      dup3\n      add\n        /* \"#utility.yul\":7997:8038   */\n      mstore\n        /* \"#utility.yul\":8055:8073   */\n      0x64\n      add\n        /* \"CoinIdo.sol\":1776:1821  require(isManager[msg.sender], \"Not manager\") */\n      tag_152\n        /* \"#utility.yul\":7918:8079   */\n      jump\n        /* \"CoinIdo.sol\":1776:1821  require(isManager[msg.sender], \"Not manager\") */\n    tag_383:\n        /* \"CoinIdo.sol\":2268:2273  etNft */\n      0x07\n        /* \"CoinIdo.sol\":2268:2292  etNft = IETNFT(_address) */\n      dup1\n      sload\n      0xffffffffffffffffffffffff0000000000000000000000000000000000000000\n      and\n      0xffffffffffffffffffffffffffffffffffffffff\n      swap3\n      swap1\n      swap3\n      and\n      swap2\n      swap1\n      swap2\n      or\n      swap1\n      sstore\n        /* \"CoinIdo.sol\":2205:2300  function setNFT(address _address) public onlyManager{\r... */\n      jump\t// out\n    tag_326:\n      dup3\n      dup1\n      sload\n      dup3\n      dup3\n      sstore\n      swap1\n      0x00\n      mstore\n      keccak256(0x00, 0x20)\n      swap1\n      0x1f\n      add\n      0x20\n      swap1\n      div\n      dup2\n      add\n      swap3\n      dup3\n      iszero\n      tag_386\n      jumpi\n      swap2\n      0x20\n      mul\n      dup3\n      add\n      0x00\n    tag_387:\n      dup4\n      dup3\n      gt\n      iszero\n      tag_388\n      jumpi\n      dup4\n      mload\n      dup4\n      dup3\n      0x0100\n      exp\n      dup2\n      sload\n      dup2\n      0xff\n      mul\n      not\n      and\n      swap1\n      dup4\n      iszero\n      iszero\n      mul\n      or\n      swap1\n      sstore\n      pop\n      swap3\n      0x20\n      add\n      swap3\n      0x01\n      add\n      0x20\n      dup2\n      0x00\n      add\n      div\n      swap3\n      dup4\n      add\n      swap3\n      0x01\n      sub\n      mul\n      jump(tag_387)\n    tag_388:\n      dup1\n      iszero\n      tag_389\n      jumpi\n      dup3\n      dup2\n      0x0100\n      exp\n      dup2\n      sload\n      swap1\n      0xff\n      mul\n      not\n      and\n      swap1\n      sstore\n      0x01\n      add\n      0x20\n      dup2\n      0x00\n      add\n      div\n      swap3\n      dup4\n      add\n      swap3\n      0x01\n      sub\n      mul\n      jump(tag_388)\n    tag_389:\n      pop\n    tag_386:\n      pop\n      tag_390\n      swap3\n      swap2\n      pop\n      tag_391\n      jump\t// in\n    tag_390:\n      pop\n      swap1\n      jump\t// out\n    tag_391:\n    tag_392:\n      dup1\n      dup3\n      gt\n      iszero\n      tag_390\n      jumpi\n      0x00\n      dup2\n      sstore\n      0x01\n      add\n      jump(tag_392)\n        /* \"#utility.yul\":14:210   */\n    tag_395:\n        /* \"#utility.yul\":82:102   */\n      dup1\n      calldataload\n        /* \"#utility.yul\":142:184   */\n      0xffffffffffffffffffffffffffffffffffffffff\n        /* \"#utility.yul\":131:185   */\n      dup2\n      and\n        /* \"#utility.yul\":121:186   */\n      dup2\n      eq\n        /* \"#utility.yul\":111:113   */\n      tag_397\n      jumpi\n        /* \"#utility.yul\":200:201   */\n      0x00\n        /* \"#utility.yul\":197:198   */\n      dup1\n        /* \"#utility.yul\":190:202   */\n      revert\n        /* \"#utility.yul\":111:113   */\n    tag_397:\n        /* \"#utility.yul\":63:210   */\n      swap2\n      swap1\n      pop\n      jump\t// out\n        /* \"#utility.yul\":215:1213   */\n    tag_398:\n        /* \"#utility.yul\":269:274   */\n      0x00\n        /* \"#utility.yul\":322:325   */\n      dup3\n        /* \"#utility.yul\":315:319   */\n      0x1f\n        /* \"#utility.yul\":307:313   */\n      dup4\n        /* \"#utility.yul\":303:320   */\n      add\n        /* \"#utility.yul\":299:326   */\n      slt\n        /* \"#utility.yul\":289:291   */\n      tag_400\n      jumpi\n        /* \"#utility.yul\":344:349   */\n      dup1\n        /* \"#utility.yul\":337:342   */\n      dup2\n        /* \"#utility.yul\":330:350   */\n      revert\n        /* \"#utility.yul\":289:291   */\n    tag_400:\n        /* \"#utility.yul\":384:390   */\n      dup2\n        /* \"#utility.yul\":371:391   */\n      calldataload\n        /* \"#utility.yul\":410:414   */\n      0x20\n        /* \"#utility.yul\":433:451   */\n      0xffffffffffffffff\n        /* \"#utility.yul\":470:472   */\n      dup1\n        /* \"#utility.yul\":466:468   */\n      dup4\n        /* \"#utility.yul\":463:473   */\n      gt\n        /* \"#utility.yul\":460:462   */\n      iszero\n      tag_402\n      jumpi\n        /* \"#utility.yul\":476:494   */\n      tag_402\n      tag_403\n      jump\t// in\n    tag_402:\n        /* \"#utility.yul\":522:524   */\n      dup3\n        /* \"#utility.yul\":519:520   */\n      0x05\n        /* \"#utility.yul\":515:525   */\n      shl\n        /* \"#utility.yul\":554:556   */\n      0x40\n        /* \"#utility.yul\":548:557   */\n      mload\n        /* \"#utility.yul\":613:679   */\n      0xffffffffffffffffffffffffffffffffffffffffffffffffffffffffffffffe0\n        /* \"#utility.yul\":608:610   */\n      0x3f\n        /* \"#utility.yul\":604:606   */\n      dup4\n        /* \"#utility.yul\":600:611   */\n      add\n        /* \"#utility.yul\":596:680   */\n      and\n        /* \"#utility.yul\":588:594   */\n      dup2\n        /* \"#utility.yul\":584:681   */\n      add\n        /* \"#utility.yul\":731:737   */\n      dup2\n        /* \"#utility.yul\":719:729   */\n      dup2\n        /* \"#utility.yul\":716:738   */\n      lt\n        /* \"#utility.yul\":711:713   */\n      dup5\n        /* \"#utility.yul\":699:709   */\n      dup3\n        /* \"#utility.yul\":696:714   */\n      gt\n        /* \"#utility.yul\":693:739   */\n      or\n        /* \"#utility.yul\":690:692   */\n      iszero\n      tag_405\n      jumpi\n        /* \"#utility.yul\":742:760   */\n      tag_405\n      tag_403\n      jump\t// in\n    tag_405:\n        /* \"#utility.yul\":778:780   */\n      0x40\n        /* \"#utility.yul\":771:793   */\n      mstore\n        /* \"#utility.yul\":828:846   */\n      dup5\n      dup2\n      mstore\n        /* \"#utility.yul\":862:877   */\n      dup4\n      dup2\n      add\n      swap3\n      pop\n        /* \"#utility.yul\":897:912   */\n      dup7\n      dup5\n      add\n        /* \"#utility.yul\":931:946   */\n      dup3\n      dup9\n      add\n        /* \"#utility.yul\":927:951   */\n      dup6\n      add\n        /* \"#utility.yul\":924:957   */\n      dup10\n      lt\n        /* \"#utility.yul\":921:923   */\n      iszero\n      tag_406\n      jumpi\n        /* \"#utility.yul\":974:979   */\n      dup7\n        /* \"#utility.yul\":967:972   */\n      dup8\n        /* \"#utility.yul\":960:980   */\n      revert\n        /* \"#utility.yul\":921:923   */\n    tag_406:\n        /* \"#utility.yul\":1000:1005   */\n      dup7\n        /* \"#utility.yul\":991:1005   */\n      swap3\n      pop\n        /* \"#utility.yul\":1014:1183   */\n    tag_407:\n        /* \"#utility.yul\":1028:1030   */\n      dup6\n        /* \"#utility.yul\":1025:1026   */\n      dup4\n        /* \"#utility.yul\":1022:1031   */\n      lt\n        /* \"#utility.yul\":1014:1183   */\n      iszero\n      tag_409\n      jumpi\n        /* \"#utility.yul\":1085:1108   */\n      tag_410\n        /* \"#utility.yul\":1104:1107   */\n      dup2\n        /* \"#utility.yul\":1085:1108   */\n      tag_395\n      jump\t// in\n    tag_410:\n        /* \"#utility.yul\":1073:1109   */\n      dup5\n      mstore\n        /* \"#utility.yul\":1129:1141   */\n      swap3\n      dup5\n      add\n      swap3\n        /* \"#utility.yul\":1046:1047   */\n      0x01\n        /* \"#utility.yul\":1039:1048   */\n      swap3\n      swap1\n      swap3\n      add\n      swap2\n        /* \"#utility.yul\":1161:1173   */\n      dup5\n      add\n        /* \"#utility.yul\":1014:1183   */\n      jump(tag_407)\n    tag_409:\n      pop\n        /* \"#utility.yul\":1201:1207   */\n      swap8\n        /* \"#utility.yul\":279:1213   */\n      swap7\n      pop\n      pop\n      pop\n      pop\n      pop\n      pop\n      pop\n      jump\t// out\n        /* \"#utility.yul\":1218:1414   */\n    tag_64:\n        /* \"#utility.yul\":1277:1283   */\n      0x00\n        /* \"#utility.yul\":1330:1332   */\n      0x20\n        /* \"#utility.yul\":1318:1327   */\n      dup3\n        /* \"#utility.yul\":1309:1316   */\n      dup5\n        /* \"#utility.yul\":1305:1328   */\n      sub\n        /* \"#utility.yul\":1301:1333   */\n      slt\n        /* \"#utility.yul\":1298:1300   */\n      iszero\n      tag_412\n      jumpi\n        /* \"#utility.yul\":1351:1357   */\n      dup1\n        /* \"#utility.yul\":1343:1349   */\n      dup2\n        /* \"#utility.yul\":1336:1358   */\n      revert\n        /* \"#utility.yul\":1298:1300   */\n    tag_412:\n        /* \"#utility.yul\":1379:1408   */\n      tag_413\n        /* \"#utility.yul\":1398:1407   */\n      dup3\n        /* \"#utility.yul\":1379:1408   */\n      tag_395\n      jump\t// in\n    tag_413:\n        /* \"#utility.yul\":1369:1408   */\n      swap4\n        /* \"#utility.yul\":1288:1414   */\n      swap3\n      pop\n      pop\n      pop\n      jump\t// out\n        /* \"#utility.yul\":1419:1744   */\n    tag_110:\n        /* \"#utility.yul\":1484:1490   */\n      0x00\n        /* \"#utility.yul\":1492:1498   */\n      dup1\n        /* \"#utility.yul\":1545:1547   */\n      0x40\n        /* \"#utility.yul\":1533:1542   */\n      dup4\n        /* \"#utility.yul\":1524:1531   */\n      dup6\n        /* \"#utility.yul\":1520:1543   */\n      sub\n        /* \"#utility.yul\":1516:1548   */\n      slt\n        /* \"#utility.yul\":1513:1515   */\n      iszero\n      tag_415\n      jumpi\n        /* \"#utility.yul\":1566:1572   */\n      dup1\n        /* \"#utility.yul\":1558:1564   */\n      dup2\n        /* \"#utility.yul\":1551:1573   */\n      revert\n        /* \"#utility.yul\":1513:1515   */\n    tag_415:\n        /* \"#utility.yul\":1594:1623   */\n      tag_416\n        /* \"#utility.yul\":1613:1622   */\n      dup4\n        /* \"#utility.yul\":1594:1623   */\n      tag_395\n      jump\t// in\n    tag_416:\n        /* \"#utility.yul\":1584:1623   */\n      swap2\n      pop\n        /* \"#utility.yul\":1673:1675   */\n      0x20\n        /* \"#utility.yul\":1662:1671   */\n      dup4\n        /* \"#utility.yul\":1658:1676   */\n      add\n        /* \"#utility.yul\":1645:1677   */\n      calldataload\n        /* \"#utility.yul\":1686:1714   */\n      tag_417\n        /* \"#utility.yul\":1708:1713   */\n      dup2\n        /* \"#utility.yul\":1686:1714   */\n      tag_418\n      jump\t// in\n    tag_417:\n        /* \"#utility.yul\":1733:1738   */\n      dup1\n        /* \"#utility.yul\":1723:1738   */\n      swap2\n      pop\n      pop\n        /* \"#utility.yul\":1503:1744   */\n      swap3\n      pop\n      swap3\n      swap1\n      pop\n      jump\t// out\n        /* \"#utility.yul\":1749:2013   */\n    tag_123:\n        /* \"#utility.yul\":1817:1823   */\n      0x00\n        /* \"#utility.yul\":1825:1831   */\n      dup1\n        /* \"#utility.yul\":1878:1880   */\n      0x40\n        /* \"#utility.yul\":1866:1875   */\n      dup4\n        /* \"#utility.yul\":1857:1864   */\n      dup6\n        /* \"#utility.yul\":1853:1876   */\n      sub\n        /* \"#utility.yul\":1849:1881   */\n      slt\n        /* \"#utility.yul\":1846:1848   */\n      iszero\n      tag_420\n      jumpi\n        /* \"#utility.yul\":1899:1905   */\n      dup2\n        /* \"#utility.yul\":1891:1897   */\n      dup3\n        /* \"#utility.yul\":1884:1906   */\n      revert\n        /* \"#utility.yul\":1846:1848   */\n    tag_420:\n        /* \"#utility.yul\":1927:1956   */\n      tag_421\n        /* \"#utility.yul\":1946:1955   */\n      dup4\n        /* \"#utility.yul\":1927:1956   */\n      tag_395\n      jump\t// in\n    tag_421:\n        /* \"#utility.yul\":1917:1956   */\n      swap5\n        /* \"#utility.yul\":2003:2005   */\n      0x20\n        /* \"#utility.yul\":1988:2006   */\n      swap4\n      swap1\n      swap4\n      add\n        /* \"#utility.yul\":1975:2007   */\n      calldataload\n      swap4\n      pop\n      pop\n      pop\n        /* \"#utility.yul\":1836:2013   */\n      jump\t// out\n        /* \"#utility.yul\":2018:2643   */\n    tag_51:\n        /* \"#utility.yul\":2136:2142   */\n      0x00\n        /* \"#utility.yul\":2144:2150   */\n      dup1\n        /* \"#utility.yul\":2197:2199   */\n      0x40\n        /* \"#utility.yul\":2185:2194   */\n      dup4\n        /* \"#utility.yul\":2176:2183   */\n      dup6\n        /* \"#utility.yul\":2172:2195   */\n      sub\n        /* \"#utility.yul\":2168:2200   */\n      slt\n        /* \"#utility.yul\":2165:2167   */\n      iszero\n      tag_423\n      jumpi\n        /* \"#utility.yul\":2218:2224   */\n      dup2\n        /* \"#utility.yul\":2210:2216   */\n      dup3\n        /* \"#utility.yul\":2203:2225   */\n      revert\n        /* \"#utility.yul\":2165:2167   */\n    tag_423:\n        /* \"#utility.yul\":2263:2272   */\n      dup3\n        /* \"#utility.yul\":2250:2273   */\n      calldataload\n        /* \"#utility.yul\":2292:2310   */\n      0xffffffffffffffff\n        /* \"#utility.yul\":2333:2335   */\n      dup1\n        /* \"#utility.yul\":2325:2331   */\n      dup3\n        /* \"#utility.yul\":2322:2336   */\n      gt\n        /* \"#utility.yul\":2319:2321   */\n      iszero\n      tag_424\n      jumpi\n        /* \"#utility.yul\":2354:2360   */\n      dup4\n        /* \"#utility.yul\":2346:2352   */\n      dup5\n        /* \"#utility.yul\":2339:2361   */\n      revert\n        /* \"#utility.yul\":2319:2321   */\n    tag_424:\n        /* \"#utility.yul\":2382:2443   */\n      tag_425\n        /* \"#utility.yul\":2435:2442   */\n      dup7\n        /* \"#utility.yul\":2426:2432   */\n      dup4\n        /* \"#utility.yul\":2415:2424   */\n      dup8\n        /* \"#utility.yul\":2411:2433   */\n      add\n        /* \"#utility.yul\":2382:2443   */\n      tag_398\n      jump\t// in\n    tag_425:\n        /* \"#utility.yul\":2372:2443   */\n      swap4\n      pop\n        /* \"#utility.yul\":2496:2498   */\n      0x20\n        /* \"#utility.yul\":2485:2494   */\n      dup6\n        /* \"#utility.yul\":2481:2499   */\n      add\n        /* \"#utility.yul\":2468:2500   */\n      calldataload\n        /* \"#utility.yul\":2452:2500   */\n      swap2\n      pop\n        /* \"#utility.yul\":2525:2527   */\n      dup1\n        /* \"#utility.yul\":2515:2523   */\n      dup3\n        /* \"#utility.yul\":2512:2528   */\n      gt\n        /* \"#utility.yul\":2509:2511   */\n      iszero\n      tag_426\n      jumpi\n        /* \"#utility.yul\":2546:2552   */\n      dup3\n        /* \"#utility.yul\":2538:2544   */\n      dup4\n        /* \"#utility.yul\":2531:2553   */\n      revert\n        /* \"#utility.yul\":2509:2511   */\n    tag_426:\n      pop\n        /* \"#utility.yul\":2574:2637   */\n      tag_427\n        /* \"#utility.yul\":2629:2636   */\n      dup6\n        /* \"#utility.yul\":2618:2626   */\n      dup3\n        /* \"#utility.yul\":2607:2616   */\n      dup7\n        /* \"#utility.yul\":2603:2627   */\n      add\n        /* \"#utility.yul\":2574:2637   */\n      tag_398\n      jump\t// in\n    tag_427:\n        /* \"#utility.yul\":2564:2637   */\n      swap2\n      pop\n      pop\n        /* \"#utility.yul\":2155:2643   */\n      swap3\n      pop\n      swap3\n      swap1\n      pop\n      jump\t// out\n        /* \"#utility.yul\":2648:2899   */\n    tag_77:\n        /* \"#utility.yul\":2704:2710   */\n      0x00\n        /* \"#utility.yul\":2757:2759   */\n      0x20\n        /* \"#utility.yul\":2745:2754   */\n      dup3\n        /* \"#utility.yul\":2736:2743   */\n      dup5\n        /* \"#utility.yul\":2732:2755   */\n      sub\n        /* \"#utility.yul\":2728:2760   */\n      slt\n        /* \"#utility.yul\":2725:2727   */\n      iszero\n      tag_429\n      jumpi\n        /* \"#utility.yul\":2778:2784   */\n      dup1\n        /* \"#utility.yul\":2770:2776   */\n      dup2\n        /* \"#utility.yul\":2763:2785   */\n      revert\n        /* \"#utility.yul\":2725:2727   */\n    tag_429:\n        /* \"#utility.yul\":2822:2831   */\n      dup2\n        /* \"#utility.yul\":2809:2832   */\n      calldataload\n        /* \"#utility.yul\":2841:2869   */\n      tag_413\n        /* \"#utility.yul\":2863:2868   */\n      dup2\n        /* \"#utility.yul\":2841:2869   */\n      tag_418\n      jump\t// in\n        /* \"#utility.yul\":2904:3159   */\n    tag_183:\n        /* \"#utility.yul\":2971:2977   */\n      0x00\n        /* \"#utility.yul\":3024:3026   */\n      0x20\n        /* \"#utility.yul\":3012:3021   */\n      dup3\n        /* \"#utility.yul\":3003:3010   */\n      dup5\n        /* \"#utility.yul\":2999:3022   */\n      sub\n        /* \"#utility.yul\":2995:3027   */\n      slt\n        /* \"#utility.yul\":2992:2994   */\n      iszero\n      tag_432\n      jumpi\n        /* \"#utility.yul\":3045:3051   */\n      dup1\n        /* \"#utility.yul\":3037:3043   */\n      dup2\n        /* \"#utility.yul\":3030:3052   */\n      revert\n        /* \"#utility.yul\":2992:2994   */\n    tag_432:\n        /* \"#utility.yul\":3082:3091   */\n      dup2\n        /* \"#utility.yul\":3076:3092   */\n      mload\n        /* \"#utility.yul\":3101:3129   */\n      tag_413\n        /* \"#utility.yul\":3123:3128   */\n      dup2\n        /* \"#utility.yul\":3101:3129   */\n      tag_418\n      jump\t// in\n        /* \"#utility.yul\":3164:3354   */\n    tag_43:\n        /* \"#utility.yul\":3223:3229   */\n      0x00\n        /* \"#utility.yul\":3276:3278   */\n      0x20\n        /* \"#utility.yul\":3264:3273   */\n      dup3\n        /* \"#utility.yul\":3255:3262   */\n      dup5\n        /* \"#utility.yul\":3251:3274   */\n      sub\n        /* \"#utility.yul\":3247:3279   */\n      slt\n        /* \"#utility.yul\":3244:3246   */\n      iszero\n      tag_435\n      jumpi\n        /* \"#utility.yul\":3297:3303   */\n      dup1\n        /* \"#utility.yul\":3289:3295   */\n      dup2\n        /* \"#utility.yul\":3282:3304   */\n      revert\n        /* \"#utility.yul\":3244:3246   */\n    tag_435:\n      pop\n        /* \"#utility.yul\":3325:3348   */\n      calldataload\n      swap2\n        /* \"#utility.yul\":3234:3354   */\n      swap1\n      pop\n      jump\t// out\n        /* \"#utility.yul\":3359:3845   */\n    tag_436:\n        /* \"#utility.yul\":3412:3415   */\n      0x00\n        /* \"#utility.yul\":3450:3455   */\n      dup2\n        /* \"#utility.yul\":3444:3456   */\n      mload\n        /* \"#utility.yul\":3477:3483   */\n      dup1\n        /* \"#utility.yul\":3472:3475   */\n      dup5\n        /* \"#utility.yul\":3465:3484   */\n      mstore\n        /* \"#utility.yul\":3503:3507   */\n      0x20\n        /* \"#utility.yul\":3532:3534   */\n      dup1\n        /* \"#utility.yul\":3527:3530   */\n      dup6\n        /* \"#utility.yul\":3523:3535   */\n      add\n        /* \"#utility.yul\":3516:3535   */\n      swap5\n      pop\n        /* \"#utility.yul\":3569:3571   */\n      dup1\n        /* \"#utility.yul\":3562:3567   */\n      dup5\n        /* \"#utility.yul\":3558:3572   */\n      add\n        /* \"#utility.yul\":3590:3593   */\n      dup4\n        /* \"#utility.yul\":3602:3820   */\n    tag_438:\n        /* \"#utility.yul\":3616:3622   */\n      dup4\n        /* \"#utility.yul\":3613:3614   */\n      dup2\n        /* \"#utility.yul\":3610:3623   */\n      lt\n        /* \"#utility.yul\":3602:3820   */\n      iszero\n      tag_440\n      jumpi\n        /* \"#utility.yul\":3681:3694   */\n      dup2\n      mload\n        /* \"#utility.yul\":3696:3738   */\n      0xffffffffffffffffffffffffffffffffffffffff\n        /* \"#utility.yul\":3677:3739   */\n      and\n        /* \"#utility.yul\":3665:3740   */\n      dup8\n      mstore\n        /* \"#utility.yul\":3760:3772   */\n      swap6\n      dup3\n      add\n      swap6\n        /* \"#utility.yul\":3795:3810   */\n      swap1\n      dup3\n      add\n      swap1\n        /* \"#utility.yul\":3638:3639   */\n      0x01\n        /* \"#utility.yul\":3631:3640   */\n      add\n        /* \"#utility.yul\":3602:3820   */\n      jump(tag_438)\n    tag_440:\n      pop\n        /* \"#utility.yul\":3836:3839   */\n      swap5\n      swap6\n        /* \"#utility.yul\":3420:3845   */\n      swap5\n      pop\n      pop\n      pop\n      pop\n      pop\n      jump\t// out\n        /* \"#utility.yul\":5904:6369   */\n    tag_253:\n        /* \"#utility.yul\":6161:6163   */\n      0x40\n        /* \"#utility.yul\":6150:6159   */\n      dup2\n        /* \"#utility.yul\":6143:6164   */\n      mstore\n        /* \"#utility.yul\":6124:6128   */\n      0x00\n        /* \"#utility.yul\":6187:6243   */\n      tag_448\n        /* \"#utility.yul\":6239:6241   */\n      0x40\n        /* \"#utility.yul\":6228:6237   */\n      dup4\n        /* \"#utility.yul\":6224:6242   */\n      add\n        /* \"#utility.yul\":6216:6222   */\n      dup6\n        /* \"#utility.yul\":6187:6243   */\n      tag_436\n      jump\t// in\n    tag_448:\n        /* \"#utility.yul\":6291:6300   */\n      dup3\n        /* \"#utility.yul\":6283:6289   */\n      dup2\n        /* \"#utility.yul\":6279:6301   */\n      sub\n        /* \"#utility.yul\":6274:6276   */\n      0x20\n        /* \"#utility.yul\":6263:6272   */\n      dup5\n        /* \"#utility.yul\":6259:6277   */\n      add\n        /* \"#utility.yul\":6252:6302   */\n      mstore\n        /* \"#utility.yul\":6319:6363   */\n      tag_449\n        /* \"#utility.yul\":6356:6362   */\n      dup2\n        /* \"#utility.yul\":6348:6354   */\n      dup6\n        /* \"#utility.yul\":6319:6363   */\n      tag_436\n      jump\t// in\n    tag_449:\n        /* \"#utility.yul\":6311:6363   */\n      swap6\n        /* \"#utility.yul\":6133:6369   */\n      swap5\n      pop\n      pop\n      pop\n      pop\n      pop\n      jump\t// out\n        /* \"#utility.yul\":11760:11888   */\n    tag_162:\n        /* \"#utility.yul\":11800:11803   */\n      0x00\n        /* \"#utility.yul\":11831:11832   */\n      dup3\n        /* \"#utility.yul\":11827:11833   */\n      not\n        /* \"#utility.yul\":11824:11825   */\n      dup3\n        /* \"#utility.yul\":11821:11834   */\n      gt\n        /* \"#utility.yul\":11818:11820   */\n      iszero\n      tag_469\n      jumpi\n        /* \"#utility.yul\":11837:11855   */\n      tag_469\n      tag_470\n      jump\t// in\n    tag_469:\n      pop\n        /* \"#utility.yul\":11873:11882   */\n      add\n      swap1\n        /* \"#utility.yul\":11808:11888   */\n      jump\t// out\n        /* \"#utility.yul\":11893:12167   */\n    tag_176:\n        /* \"#utility.yul\":11933:11934   */\n      0x00\n        /* \"#utility.yul\":11959:11960   */\n      dup3\n        /* \"#utility.yul\":11949:11951   */\n      tag_472\n      jumpi\n        /* \"#utility.yul\":11994:12071   */\n      0x4e487b7100000000000000000000000000000000000000000000000000000000\n        /* \"#utility.yul\":11991:11992   */\n      dup2\n        /* \"#utility.yul\":11984:12072   */\n      mstore\n        /* \"#utility.yul\":12095:12099   */\n      0x12\n        /* \"#utility.yul\":12092:12093   */\n      0x04\n        /* \"#utility.yul\":12085:12100   */\n      mstore\n        /* \"#utility.yul\":12123:12127   */\n      0x24\n        /* \"#utility.yul\":12120:12121   */\n      dup2\n        /* \"#utility.yul\":12113:12128   */\n      revert\n        /* \"#utility.yul\":11949:11951   */\n    tag_472:\n      pop\n        /* \"#utility.yul\":12152:12161   */\n      div\n      swap1\n        /* \"#utility.yul\":11939:12167   */\n      jump\t// out\n        /* \"#utility.yul\":12172:12400   */\n    tag_158:\n        /* \"#utility.yul\":12212:12219   */\n      0x00\n        /* \"#utility.yul\":12338:12339   */\n      dup2\n        /* \"#utility.yul\":12270:12336   */\n      0xffffffffffffffffffffffffffffffffffffffffffffffffffffffffffffffff\n        /* \"#utility.yul\":12266:12340   */\n      div\n        /* \"#utility.yul\":12263:12264   */\n      dup4\n        /* \"#utility.yul\":12260:12341   */\n      gt\n        /* \"#utility.yul\":12255:12256   */\n      dup3\n        /* \"#utility.yul\":12248:12257   */\n      iszero\n        /* \"#utility.yul\":12241:12258   */\n      iszero\n        /* \"#utility.yul\":12237:12342   */\n      and\n        /* \"#utility.yul\":12234:12236   */\n      iszero\n      tag_475\n      jumpi\n        /* \"#utility.yul\":12345:12363   */\n      tag_475\n      tag_470\n      jump\t// in\n    tag_475:\n      pop\n        /* \"#utility.yul\":12385:12394   */\n      mul\n      swap1\n        /* \"#utility.yul\":12224:12400   */\n      jump\t// out\n        /* \"#utility.yul\":12405:12530   */\n    tag_185:\n        /* \"#utility.yul\":12445:12449   */\n      0x00\n        /* \"#utility.yul\":12473:12474   */\n      dup3\n        /* \"#utility.yul\":12470:12471   */\n      dup3\n        /* \"#utility.yul\":12467:12475   */\n      lt\n        /* \"#utility.yul\":12464:12466   */\n      iszero\n      tag_478\n      jumpi\n        /* \"#utility.yul\":12478:12496   */\n      tag_478\n      tag_470\n      jump\t// in\n    tag_478:\n      pop\n        /* \"#utility.yul\":12515:12524   */\n      sub\n      swap1\n        /* \"#utility.yul\":12454:12530   */\n      jump\t// out\n        /* \"#utility.yul\":12535:12730   */\n    tag_208:\n        /* \"#utility.yul\":12574:12577   */\n      0x00\n        /* \"#utility.yul\":12605:12671   */\n      0xffffffffffffffffffffffffffffffffffffffffffffffffffffffffffffffff\n        /* \"#utility.yul\":12598:12603   */\n      dup3\n        /* \"#utility.yul\":12595:12672   */\n      eq\n        /* \"#utility.yul\":12592:12594   */\n      iszero\n      tag_481\n      jumpi\n        /* \"#utility.yul\":12675:12693   */\n      tag_481\n      tag_470\n      jump\t// in\n    tag_481:\n      pop\n        /* \"#utility.yul\":12722:12723   */\n      0x01\n        /* \"#utility.yul\":12711:12724   */\n      add\n      swap1\n        /* \"#utility.yul\":12582:12730   */\n      jump\t// out\n        /* \"#utility.yul\":12735:12919   */\n    tag_470:\n        /* \"#utility.yul\":12787:12864   */\n      0x4e487b7100000000000000000000000000000000000000000000000000000000\n        /* \"#utility.yul\":12784:12785   */\n      0x00\n        /* \"#utility.yul\":12777:12865   */\n      mstore\n        /* \"#utility.yul\":12884:12888   */\n      0x11\n        /* \"#utility.yul\":12881:12882   */\n      0x04\n        /* \"#utility.yul\":12874:12889   */\n      mstore\n        /* \"#utility.yul\":12908:12912   */\n      0x24\n        /* \"#utility.yul\":12905:12906   */\n      0x00\n        /* \"#utility.yul\":12898:12913   */\n      revert\n        /* \"#utility.yul\":12924:13108   */\n    tag_403:\n        /* \"#utility.yul\":12976:13053   */\n      0x4e487b7100000000000000000000000000000000000000000000000000000000\n        /* \"#utility.yul\":12973:12974   */\n      0x00\n        /* \"#utility.yul\":12966:13054   */\n      mstore\n        /* \"#utility.yul\":13073:13077   */\n      0x41\n        /* \"#utility.yul\":13070:13071   */\n      0x04\n        /* \"#utility.yul\":13063:13078   */\n      mstore\n        /* \"#utility.yul\":13097:13101   */\n      0x24\n        /* \"#utility.yul\":13094:13095   */\n      0x00\n        /* \"#utility.yul\":13087:13102   */\n      revert\n        /* \"#utility.yul\":13113:13231   */\n    tag_418:\n        /* \"#utility.yul\":13199:13204   */\n      dup1\n        /* \"#utility.yul\":13192:13205   */\n      iszero\n        /* \"#utility.yul\":13185:13206   */\n      iszero\n        /* \"#utility.yul\":13178:13183   */\n      dup2\n        /* \"#utility.yul\":13175:13207   */\n      eq\n        /* \"#utility.yul\":13165:13167   */\n      tag_317\n      jumpi\n        /* \"#utility.yul\":13221:13222   */\n      0x00\n        /* \"#utility.yul\":13218:13219   */\n      dup1\n        /* \"#utility.yul\":13211:13223   */\n      revert\n\n    auxdata: 0xa2646970667358221220f360e671da4724189efd896f420421a90c575ff583cfb1de157fbf0cf105a33864736f6c63430008040033\n}\n",
				"bytecode": {
					"linkReferences": {},
					"object": "6080604052670de0b6b3a7640000600f553480156200001d57600080fd5b50604051620028dd380380620028dd8339810160408190526200004091620001b3565b600080546010805460ff19169055600580546001600160a01b038087166001600160a01b031992831617909255600680549286169290911691909117905562010000339081026001600160b01b03199092169190911761010117909155620000aa906001620000b2565b5050620001ea565b33620000cc6000546201000090046001600160a01b031690565b6001600160a01b031614620001275760405162461bcd60e51b815260206004820181905260248201527f4f776e61626c653a2063616c6c6572206973206e6f7420746865206f776e6572604482015260640160405180910390fd5b6001600160a01b038216600081815260046020908152604091829020805460ff1916851515908117909155825133815291820193909352908101919091527f2862b022f51ffee932517d924c5103b3267a9d5d1f21bec54356e328aac24c189060600160405180910390a15050565b80516001600160a01b0381168114620001ae57600080fd5b919050565b60008060408385031215620001c6578182fd5b620001d18362000196565b9150620001e16020840162000196565b90509250929050565b6126e380620001fa6000396000f3fe608060405234801561001057600080fd5b50600436106101e55760003560e01c80638da5cb5b1161010f578063d3b91f7a116100a2578063f2fde38b11610071578063f2fde38b1461048b578063f3ae24151461049e578063f56e9c66146104c1578063fb066531146104d457600080fd5b8063d3b91f7a1461041a578063e72ebdb71461042d578063ef7a47fa14610463578063f06b41e31461046b57600080fd5b8063a5e90eee116100de578063a5e90eee146103c7578063c6b24c1c146103da578063ca5cc206146103fa578063ce75710c1461040d57600080fd5b80638da5cb5b1461035d578063918a628314610381578063965ed46514610394578063a3f82c2c146103a757600080fd5b80635db98f2d116101875780636c68ec69116101565780636c68ec691461031957806376be6af61461032c5780638381f58a146103345780638b9272b71461033d57600080fd5b80635db98f2d146102a457806368da5e8e146102c65780636a15915a146102e65780636a41d5d7146102f957600080fd5b80632f48ab7d116101c35780632f48ab7d1461022e5780633197cbb6146102735780633ccfd60b1461027c5780634e876f5c1461028457600080fd5b80630e73d199146101ea57806318160ddd146101ff578063238c4c2f1461021b575b600080fd5b6101fd6101f83660046124cd565b6104e1565b005b61020860025481565b6040519081526020015b60405180910390f35b6101fd610229366004612434565b610e0f565b60065461024e9073ffffffffffffffffffffffffffffffffffffffff1681565b60405173ffffffffffffffffffffffffffffffffffffffff9091168152602001610212565b61020860015481565b6101fd61124a565b6102086102923660046123b4565b600d6020526000908152604090205481565b6000546102b690610100900460ff1681565b6040519015158152602001610212565b60075461024e9073ffffffffffffffffffffffffffffffffffffffff1681565b6101fd6102f4366004612495565b6116fb565b6102086103073660046123b4565b600b6020526000908152604090205481565b6101fd610327366004612495565b6117a5565b6101fd61184f565b61020860035481565b60085461024e9073ffffffffffffffffffffffffffffffffffffffff1681565b60005462010000900473ffffffffffffffffffffffffffffffffffffffff1661024e565b6101fd61038f3660046123b4565b611983565b6101fd6103a23660046123b4565b611a78565b6102086103b53660046123b4565b600e6020526000908152604090205481565b6101fd6103d53660046123d5565b611b38565b60055461024e9073ffffffffffffffffffffffffffffffffffffffff1681565b6101fd610408366004612495565b611c53565b6010546102b69060ff1681565b6102b661042836600461240b565b611d03565b61024e61043b3660046123b4565b600a6020526000908152604090205473ffffffffffffffffffffffffffffffffffffffff1681565b610208611d46565b6102086104793660046123b4565b600c6020526000908152604090205481565b6101fd6104993660046123b4565b611f9a565b6102b66104ac3660046123b4565b60046020526000908152604090205460ff1681565b6101fd6104cf3660046123b4565b61214e565b6000546102b69060ff1681565b60105460ff16610552576040517f08c379a000000000000000000000000000000000000000000000000000000000815260206004820152600d60248201527f69646f20697320636c6f7365640000000000000000000000000000000000000060448201526064015b60405180910390fd5b600081116105bc576040517f08c379a000000000000000000000000000000000000000000000000000000000815260206004820152600d60248201527f76616c7565206973207a65726f000000000000000000000000000000000000006044820152606401610549565b336000818152600b6020526040902054600f546105db906107d06125b4565b811015806106005750600f546105f3906107d06125b4565b6105fd8483612563565b10155b1561067657600054610100900460ff16610676576040517f08c379a000000000000000000000000000000000000000000000000000000000815260206004820152601360248201527f74776f2074686f7573616e6420636c6f736564000000000000000000000000006044820152606401610549565b600f54610685906107d06125b4565b61068f8483612563565b11156106f7576040517f08c379a000000000000000000000000000000000000000000000000000000000815260206004820152600760248201527f6e6f742049444f000000000000000000000000000000000000000000000000006044820152606401610549565b73ffffffffffffffffffffffffffffffffffffffff8083166000908152600a6020526040902054168015610a585773ffffffffffffffffffffffffffffffffffffffff81166000908152600b602052604090205415610907576000612710610761866101f46125b4565b61076b919061257b565b6006546040517f23b872dd00000000000000000000000000000000000000000000000000000000815273ffffffffffffffffffffffffffffffffffffffff87811660048301528581166024830152604482018490529293509116906323b872dd90606401602060405180830381600087803b1580156107e957600080fd5b505af11580156107fd573d6000803e3d6000fd5b505050506040513d601f19601f8201168201806040525081019061082191906124b1565b5060065460055473ffffffffffffffffffffffffffffffffffffffff918216916323b872dd91879116610854858a6125f1565b6040517fffffffff0000000000000000000000000000000000000000000000000000000060e086901b16815273ffffffffffffffffffffffffffffffffffffffff93841660048201529290911660248301526044820152606401602060405180830381600087803b1580156108c857600080fd5b505af11580156108dc573d6000803e3d6000fd5b505050506040513d601f19601f8201168201806040525081019061090091906124b1565b50506109bf565b6006546005546040517f23b872dd00000000000000000000000000000000000000000000000000000000815273ffffffffffffffffffffffffffffffffffffffff86811660048301529182166024820152604481018790529116906323b872dd90606401602060405180830381600087803b15801561098557600080fd5b505af1158015610999573d6000803e3d6000fd5b505050506040513d601f19601f820116820180604052508101906109bd91906124b1565b505b73ffffffffffffffffffffffffffffffffffffffff81166000908152600c60205260409020546109f0908590612563565b73ffffffffffffffffffffffffffffffffffffffff82166000908152600c6020908152604080832093909355600d90522054610a2d908590612563565b73ffffffffffffffffffffffffffffffffffffffff82166000908152600d6020526040902055610b10565b6006546005546040517f23b872dd00000000000000000000000000000000000000000000000000000000815273ffffffffffffffffffffffffffffffffffffffff86811660048301529182166024820152604481018790529116906323b872dd90606401602060405180830381600087803b158015610ad657600080fd5b505af1158015610aea573d6000803e3d6000fd5b505050506040513d601f19601f82011682018060405250810190610b0e91906124b1565b505b610b1a8483612563565b73ffffffffffffffffffffffffffffffffffffffff84166000908152600b6020526040902055600254610b4e908590612563565b60025560038054906000610b6183612608565b909155505073ffffffffffffffffffffffffffffffffffffffff83166000908152600b6020526040902054607890610b9b90610a286125b4565b610ba5919061257b565b73ffffffffffffffffffffffffffffffffffffffff84166000908152600e6020526040902055600f54610bda906107d06125b4565b73ffffffffffffffffffffffffffffffffffffffff84166000908152600b602052604090205410610c8b576007546040517f40d097c300000000000000000000000000000000000000000000000000000000815273ffffffffffffffffffffffffffffffffffffffff8581166004830152909116906340d097c390602401600060405180830381600087803b158015610c7257600080fd5b505af1158015610c86573d6000803e3d6000fd5b505050505b600f54610c9a90610bb86125b4565b73ffffffffffffffffffffffffffffffffffffffff82166000908152600c602052604090205410610db1576007546040517f40d097c300000000000000000000000000000000000000000000000000000000815273ffffffffffffffffffffffffffffffffffffffff8381166004830152909116906340d097c390602401600060405180830381600087803b158015610d3257600080fd5b505af1158015610d46573d6000803e3d6000fd5b50505050600f54610bb8610d5a91906125b4565b73ffffffffffffffffffffffffffffffffffffffff82166000908152600c6020526040902054610d8a91906125f1565b73ffffffffffffffffffffffffffffffffffffffff82166000908152600c60205260409020555b610dba83611983565b6040805173ffffffffffffffffffffffffffffffffffffffff85168152602081018690527f080bf12451b207525905f2fe9e47714fbcd5aa383b228f656b880136e66b288f910160405180910390a150505050565b60005473ffffffffffffffffffffffffffffffffffffffff62010000909104163314610e97576040517f08c379a000000000000000000000000000000000000000000000000000000000815260206004820181905260248201527f4f776e61626c653a2063616c6c6572206973206e6f7420746865206f776e65726044820152606401610549565b8051825114610f02576040517f08c379a000000000000000000000000000000000000000000000000000000000815260206004820152600f60248201527f6c656e6774682069732077726f6e6700000000000000000000000000000000006044820152606401610549565b60005b825181101561120c57600073ffffffffffffffffffffffffffffffffffffffff16838281518110610f5f577f4e487b7100000000000000000000000000000000000000000000000000000000600052603260045260246000fd5b602002602001015173ffffffffffffffffffffffffffffffffffffffff161415610fe5576040517f08c379a000000000000000000000000000000000000000000000000000000000815260206004820152601060248201527f616464726573732069732077726f6e67000000000000000000000000000000006044820152606401610549565b81818151811061101e577f4e487b7100000000000000000000000000000000000000000000000000000000600052603260045260246000fd5b602002602001015173ffffffffffffffffffffffffffffffffffffffff16838281518110611075577f4e487b7100000000000000000000000000000000000000000000000000000000600052603260045260246000fd5b602002602001015173ffffffffffffffffffffffffffffffffffffffff1614156110fb576040517f08c379a000000000000000000000000000000000000000000000000000000000815260206004820152600f60248201527f61646472657320697320657175616c00000000000000000000000000000000006044820152606401610549565b818181518110611134577f4e487b7100000000000000000000000000000000000000000000000000000000600052603260045260246000fd5b6020026020010151600a6000858481518110611179577f4e487b7100000000000000000000000000000000000000000000000000000000600052603260045260246000fd5b602002602001015173ffffffffffffffffffffffffffffffffffffffff1673ffffffffffffffffffffffffffffffffffffffff16815260200190815260200160002060006101000a81548173ffffffffffffffffffffffffffffffffffffffff021916908373ffffffffffffffffffffffffffffffffffffffff160217905550808061120490612608565b915050610f05565b507f1886f03d42b471bc8faf784e3878fce329e8e139473c601b8648de73b3380c02828260405161123e929190612535565b60405180910390a15050565b336000908152600b60205260409020546112c0576040517f08c379a000000000000000000000000000000000000000000000000000000000815260206004820152600960248201527f6e6f7420616c6c6f7700000000000000000000000000000000000000000000006044820152606401610549565b60006001541161132c576040517f08c379a000000000000000000000000000000000000000000000000000000000815260206004820152600660248201527f6e6f7420455400000000000000000000000000000000000000000000000000006044820152606401610549565b6000806001544261133d91906125f1565b9050600061134e620151808361257b565b336000908152600b60205260408120549192509060789061137190610a286125b4565b61137b919061257b565b9050600182101580156113f2575033600090815260096020526040812080549091906113d0577f4e487b7100000000000000000000000000000000000000000000000000000000600052603260045260246000fd5b90600052602060002090602091828204019190069054906101000a900460ff16155b1561148757612710611406826103e86125b4565b611410919061257b565b336000908152600960205260408120805492965060019290919061145d577f4e487b7100000000000000000000000000000000000000000000000000000000600052603260045260246000fd5b90600052602060002090602091828204019190066101000a81548160ff0219169083151502179055505b6000601e6114966001856125f1565b6114a0919061257b565b9050600f81116114b057806114b3565b600f5b905060015b8181116115d857336000908152600960205260409020805482908110611507577f4e487b7100000000000000000000000000000000000000000000000000000000600052603260045260246000fd5b90600052602060002090602091828204019190069054906101000a900460ff166115c65761271061153a846102586125b4565b611544919061257b565b61154e9087612563565b33600090815260096020526040902080549197506001918390811061159c577f4e487b7100000000000000000000000000000000000000000000000000000000600052603260045260246000fd5b90600052602060002090602091828204019190066101000a81548160ff0219169083151502179055505b806115d081612608565b9150506114b8565b50336000908152600e60205260409020546115f49086906125f1565b336000818152600e6020526040908190209290925560085491517fa9059cbb00000000000000000000000000000000000000000000000000000000815260048101919091526024810187905273ffffffffffffffffffffffffffffffffffffffff9091169063a9059cbb90604401602060405180830381600087803b15801561167c57600080fd5b505af1158015611690573d6000803e3d6000fd5b505050506040513d601f19601f820116820180604052508101906116b491906124b1565b506040805133815260208101879052428183015290517ff279e6a1f5e320cca91135676d9cb6e44ca8a08c0b88342bcdb1144f6511b5689181900360600190a15050505050565b3360009081526004602052604090205460ff16611774576040517f08c379a000000000000000000000000000000000000000000000000000000000815260206004820152600b60248201527f4e6f74206d616e616765720000000000000000000000000000000000000000006044820152606401610549565b601080547fffffffffffffffffffffffffffffffffffffffffffffffffffffffffffffff0016911515919091179055565b3360009081526004602052604090205460ff1661181e576040517f08c379a000000000000000000000000000000000000000000000000000000000815260206004820152600b60248201527f4e6f74206d616e616765720000000000000000000000000000000000000000006044820152606401610549565b600080547fffffffffffffffffffffffffffffffffffffffffffffffffffffffffffffff0016911515919091179055565b60005473ffffffffffffffffffffffffffffffffffffffff620100009091041633146118d7576040517f08c379a000000000000000000000000000000000000000000000000000000000815260206004820181905260248201527f4f776e61626c653a2063616c6c6572206973206e6f7420746865206f776e65726044820152606401610549565b60015415611941576040517f08c379a000000000000000000000000000000000000000000000000000000000815260206004820152600d60248201527f74696d65206973206578697374000000000000000000000000000000000000006044820152606401610549565b4260018190556040805133815260208101929092527f4100552e0c7d7733b482a8b5b352d5cf64221041a5cb5ad4f57474178741b69a910160405180910390a1565b73ffffffffffffffffffffffffffffffffffffffff8116600090815260096020526040902054611a75576040805160108082526102208201909252600091602082016102008036833701905050905060005b8151811015611a3b576000828281518110611a19577f4e487b7100000000000000000000000000000000000000000000000000000000600052603260045260246000fd5b9115156020928302919091019091015280611a3381612608565b9150506119d5565b5073ffffffffffffffffffffffffffffffffffffffff821660009081526009602090815260409091208251611a729284019061220e565b50505b50565b3360009081526004602052604090205460ff16611af1576040517f08c379a000000000000000000000000000000000000000000000000000000000815260206004820152600b60248201527f4e6f74206d616e616765720000000000000000000000000000000000000000006044820152606401610549565b600880547fffffffffffffffffffffffff00000000000000000000000000000000000000001673ffffffffffffffffffffffffffffffffffffffff92909216919091179055565b60005473ffffffffffffffffffffffffffffffffffffffff62010000909104163314611bc0576040517f08c379a000000000000000000000000000000000000000000000000000000000815260206004820181905260248201527f4f776e61626c653a2063616c6c6572206973206e6f7420746865206f776e65726044820152606401610549565b73ffffffffffffffffffffffffffffffffffffffff821660008181526004602090815260409182902080547fffffffffffffffffffffffffffffffffffffffffffffffffffffffffffffff0016851515908117909155825133815291820193909352908101919091527f2862b022f51ffee932517d924c5103b3267a9d5d1f21bec54356e328aac24c189060600161123e565b3360009081526004602052604090205460ff16611ccc576040517f08c379a000000000000000000000000000000000000000000000000000000000815260206004820152600b60248201527f4e6f74206d616e616765720000000000000000000000000000000000000000006044820152606401610549565b60008054911515610100027fffffffffffffffffffffffffffffffffffffffffffffffffffffffffffff00ff909216919091179055565b60096020528160005260406000208181548110611d1f57600080fd5b9060005260206000209060209182820401919006915091509054906101000a900460ff1681565b336000908152600b6020526040812054611d605750600090565b600060015411611dcc576040517f08c379a000000000000000000000000000000000000000000000000000000000815260206004820152600660248201527f6e6f7420455400000000000000000000000000000000000000000000000000006044820152606401610549565b60008060015442611ddd91906125f1565b90506000611dee620151808361257b565b336000908152600b602052604081205491925090607890611e1190610a286125b4565b611e1b919061257b565b905060018210158015611e9257503360009081526009602052604081208054909190611e70577f4e487b7100000000000000000000000000000000000000000000000000000000600052603260045260246000fd5b90600052602060002090602091828204019190069054906101000a900460ff16155b15611eb357612710611ea6826103e86125b4565b611eb0919061257b565b93505b6000601e611ec26001856125f1565b611ecc919061257b565b9050600f8111611edc5780611edf565b600f5b905060015b818111611f8f57336000908152600960205260409020805482908110611f33577f4e487b7100000000000000000000000000000000000000000000000000000000600052603260045260246000fd5b90600052602060002090602091828204019190069054906101000a900460ff16611f7d57612710611f66846102586125b4565b611f70919061257b565b611f7a9087612563565b95505b80611f8781612608565b915050611ee4565b509395945050505050565b60005473ffffffffffffffffffffffffffffffffffffffff62010000909104163314612022576040517f08c379a000000000000000000000000000000000000000000000000000000000815260206004820181905260248201527f4f776e61626c653a2063616c6c6572206973206e6f7420746865206f776e65726044820152606401610549565b73ffffffffffffffffffffffffffffffffffffffff81166120c5576040517f08c379a000000000000000000000000000000000000000000000000000000000815260206004820152602660248201527f4f776e61626c653a206e6577206f776e657220697320746865207a65726f206160448201527f64647265737300000000000000000000000000000000000000000000000000006064820152608401610549565b6000805473ffffffffffffffffffffffffffffffffffffffff838116620100008181027fffffffffffffffffffff0000000000000000000000000000000000000000ffff85161790945560408051949093049091168084526020840191909152917f8be0079c531659141344cd1fd0a4f28419497f9722a3daafe3b4186f6b6457e0910161123e565b3360009081526004602052604090205460ff166121c7576040517f08c379a000000000000000000000000000000000000000000000000000000000815260206004820152600b60248201527f4e6f74206d616e616765720000000000000000000000000000000000000000006044820152606401610549565b600780547fffffffffffffffffffffffff00000000000000000000000000000000000000001673ffffffffffffffffffffffffffffffffffffffff92909216919091179055565b82805482825590600052602060002090601f016020900481019282156122a35791602002820160005b8382111561227457835183826101000a81548160ff0219169083151502179055509260200192600101602081600001049283019260010302612237565b80156122a15782816101000a81549060ff0219169055600101602081600001049283019260010302612274565b505b506122af9291506122b3565b5090565b5b808211156122af57600081556001016122b4565b803573ffffffffffffffffffffffffffffffffffffffff811681146122ec57600080fd5b919050565b600082601f830112612301578081fd5b8135602067ffffffffffffffff8083111561231e5761231e612670565b8260051b6040517fffffffffffffffffffffffffffffffffffffffffffffffffffffffffffffffe0603f8301168101818110848211171561236157612361612670565b6040528481528381019250868401828801850189101561237f578687fd5b8692505b858310156123a857612394816122c8565b845292840192600192909201918401612383565b50979650505050505050565b6000602082840312156123c5578081fd5b6123ce826122c8565b9392505050565b600080604083850312156123e7578081fd5b6123f0836122c8565b915060208301356124008161269f565b809150509250929050565b6000806040838503121561241d578182fd5b612426836122c8565b946020939093013593505050565b60008060408385031215612446578182fd5b823567ffffffffffffffff8082111561245d578384fd5b612469868387016122f1565b9350602085013591508082111561247e578283fd5b5061248b858286016122f1565b9150509250929050565b6000602082840312156124a6578081fd5b81356123ce8161269f565b6000602082840312156124c2578081fd5b81516123ce8161269f565b6000602082840312156124de578081fd5b5035919050565b6000815180845260208085019450808401835b8381101561252a57815173ffffffffffffffffffffffffffffffffffffffff16875295820195908201906001016124f8565b509495945050505050565b60408152600061254860408301856124e5565b828103602084015261255a81856124e5565b95945050505050565b6000821982111561257657612576612641565b500190565b6000826125af577f4e487b710000000000000000000000000000000000000000000000000000000081526012600452602481fd5b500490565b6000817fffffffffffffffffffffffffffffffffffffffffffffffffffffffffffffffff04831182151516156125ec576125ec612641565b500290565b60008282101561260357612603612641565b500390565b60007fffffffffffffffffffffffffffffffffffffffffffffffffffffffffffffffff82141561263a5761263a612641565b5060010190565b7f4e487b7100000000000000000000000000000000000000000000000000000000600052601160045260246000fd5b7f4e487b7100000000000000000000000000000000000000000000000000000000600052604160045260246000fd5b8015158114611a7557600080fdfea2646970667358221220f360e671da4724189efd896f420421a90c575ff583cfb1de157fbf0cf105a33864736f6c63430008040033",
					"opcodes": "PUSH1 0x80 PUSH1 0x40 MSTORE PUSH8 0xDE0B6B3A7640000 PUSH1 0xF SSTORE CALLVALUE DUP1 ISZERO PUSH3 0x1D JUMPI PUSH1 0x0 DUP1 REVERT JUMPDEST POP PUSH1 0x40 MLOAD PUSH3 0x28DD CODESIZE SUB DUP1 PUSH3 0x28DD DUP4 CODECOPY DUP2 ADD PUSH1 0x40 DUP2 SWAP1 MSTORE PUSH3 0x40 SWAP2 PUSH3 0x1B3 JUMP JUMPDEST PUSH1 0x0 DUP1 SLOAD PUSH1 0x10 DUP1 SLOAD PUSH1 0xFF NOT AND SWAP1 SSTORE PUSH1 0x5 DUP1 SLOAD PUSH1 0x1 PUSH1 0x1 PUSH1 0xA0 SHL SUB DUP1 DUP8 AND PUSH1 0x1 PUSH1 0x1 PUSH1 0xA0 SHL SUB NOT SWAP3 DUP4 AND OR SWAP1 SWAP3 SSTORE PUSH1 0x6 DUP1 SLOAD SWAP3 DUP7 AND SWAP3 SWAP1 SWAP2 AND SWAP2 SWAP1 SWAP2 OR SWAP1 SSTORE PUSH3 0x10000 CALLER SWAP1 DUP2 MUL PUSH1 0x1 PUSH1 0x1 PUSH1 0xB0 SHL SUB NOT SWAP1 SWAP3 AND SWAP2 SWAP1 SWAP2 OR PUSH2 0x101 OR SWAP1 SWAP2 SSTORE PUSH3 0xAA SWAP1 PUSH1 0x1 PUSH3 0xB2 JUMP JUMPDEST POP POP PUSH3 0x1EA JUMP JUMPDEST CALLER PUSH3 0xCC PUSH1 0x0 SLOAD PUSH3 0x10000 SWAP1 DIV PUSH1 0x1 PUSH1 0x1 PUSH1 0xA0 SHL SUB AND SWAP1 JUMP JUMPDEST PUSH1 0x1 PUSH1 0x1 PUSH1 0xA0 SHL SUB AND EQ PUSH3 0x127 JUMPI PUSH1 0x40 MLOAD PUSH3 0x461BCD PUSH1 0xE5 SHL DUP2 MSTORE PUSH1 0x20 PUSH1 0x4 DUP3 ADD DUP2 SWAP1 MSTORE PUSH1 0x24 DUP3 ADD MSTORE PUSH32 0x4F776E61626C653A2063616C6C6572206973206E6F7420746865206F776E6572 PUSH1 0x44 DUP3 ADD MSTORE PUSH1 0x64 ADD PUSH1 0x40 MLOAD DUP1 SWAP2 SUB SWAP1 REVERT JUMPDEST PUSH1 0x1 PUSH1 0x1 PUSH1 0xA0 SHL SUB DUP3 AND PUSH1 0x0 DUP2 DUP2 MSTORE PUSH1 0x4 PUSH1 0x20 SWAP1 DUP2 MSTORE PUSH1 0x40 SWAP2 DUP3 SWAP1 KECCAK256 DUP1 SLOAD PUSH1 0xFF NOT AND DUP6 ISZERO ISZERO SWAP1 DUP2 OR SWAP1 SWAP2 SSTORE DUP3 MLOAD CALLER DUP2 MSTORE SWAP2 DUP3 ADD SWAP4 SWAP1 SWAP4 MSTORE SWAP1 DUP2 ADD SWAP2 SWAP1 SWAP2 MSTORE PUSH32 0x2862B022F51FFEE932517D924C5103B3267A9D5D1F21BEC54356E328AAC24C18 SWAP1 PUSH1 0x60 ADD PUSH1 0x40 MLOAD DUP1 SWAP2 SUB SWAP1 LOG1 POP POP JUMP JUMPDEST DUP1 MLOAD PUSH1 0x1 PUSH1 0x1 PUSH1 0xA0 SHL SUB DUP2 AND DUP2 EQ PUSH3 0x1AE JUMPI PUSH1 0x0 DUP1 REVERT JUMPDEST SWAP2 SWAP1 POP JUMP JUMPDEST PUSH1 0x0 DUP1 PUSH1 0x40 DUP4 DUP6 SUB SLT ISZERO PUSH3 0x1C6 JUMPI DUP2 DUP3 REVERT JUMPDEST PUSH3 0x1D1 DUP4 PUSH3 0x196 JUMP JUMPDEST SWAP2 POP PUSH3 0x1E1 PUSH1 0x20 DUP5 ADD PUSH3 0x196 JUMP JUMPDEST SWAP1 POP SWAP3 POP SWAP3 SWAP1 POP JUMP JUMPDEST PUSH2 0x26E3 DUP1 PUSH3 0x1FA PUSH1 0x0 CODECOPY PUSH1 0x0 RETURN INVALID PUSH1 0x80 PUSH1 0x40 MSTORE CALLVALUE DUP1 ISZERO PUSH2 0x10 JUMPI PUSH1 0x0 DUP1 REVERT JUMPDEST POP PUSH1 0x4 CALLDATASIZE LT PUSH2 0x1E5 JUMPI PUSH1 0x0 CALLDATALOAD PUSH1 0xE0 SHR DUP1 PUSH4 0x8DA5CB5B GT PUSH2 0x10F JUMPI DUP1 PUSH4 0xD3B91F7A GT PUSH2 0xA2 JUMPI DUP1 PUSH4 0xF2FDE38B GT PUSH2 0x71 JUMPI DUP1 PUSH4 0xF2FDE38B EQ PUSH2 0x48B JUMPI DUP1 PUSH4 0xF3AE2415 EQ PUSH2 0x49E JUMPI DUP1 PUSH4 0xF56E9C66 EQ PUSH2 0x4C1 JUMPI DUP1 PUSH4 0xFB066531 EQ PUSH2 0x4D4 JUMPI PUSH1 0x0 DUP1 REVERT JUMPDEST DUP1 PUSH4 0xD3B91F7A EQ PUSH2 0x41A JUMPI DUP1 PUSH4 0xE72EBDB7 EQ PUSH2 0x42D JUMPI DUP1 PUSH4 0xEF7A47FA EQ PUSH2 0x463 JUMPI DUP1 PUSH4 0xF06B41E3 EQ PUSH2 0x46B JUMPI PUSH1 0x0 DUP1 REVERT JUMPDEST DUP1 PUSH4 0xA5E90EEE GT PUSH2 0xDE JUMPI DUP1 PUSH4 0xA5E90EEE EQ PUSH2 0x3C7 JUMPI DUP1 PUSH4 0xC6B24C1C EQ PUSH2 0x3DA JUMPI DUP1 PUSH4 0xCA5CC206 EQ PUSH2 0x3FA JUMPI DUP1 PUSH4 0xCE75710C EQ PUSH2 0x40D JUMPI PUSH1 0x0 DUP1 REVERT JUMPDEST DUP1 PUSH4 0x8DA5CB5B EQ PUSH2 0x35D JUMPI DUP1 PUSH4 0x918A6283 EQ PUSH2 0x381 JUMPI DUP1 PUSH4 0x965ED465 EQ PUSH2 0x394 JUMPI DUP1 PUSH4 0xA3F82C2C EQ PUSH2 0x3A7 JUMPI PUSH1 0x0 DUP1 REVERT JUMPDEST DUP1 PUSH4 0x5DB98F2D GT PUSH2 0x187 JUMPI DUP1 PUSH4 0x6C68EC69 GT PUSH2 0x156 JUMPI DUP1 PUSH4 0x6C68EC69 EQ PUSH2 0x319 JUMPI DUP1 PUSH4 0x76BE6AF6 EQ PUSH2 0x32C JUMPI DUP1 PUSH4 0x8381F58A EQ PUSH2 0x334 JUMPI DUP1 PUSH4 0x8B9272B7 EQ PUSH2 0x33D JUMPI PUSH1 0x0 DUP1 REVERT JUMPDEST DUP1 PUSH4 0x5DB98F2D EQ PUSH2 0x2A4 JUMPI DUP1 PUSH4 0x68DA5E8E EQ PUSH2 0x2C6 JUMPI DUP1 PUSH4 0x6A15915A EQ PUSH2 0x2E6 JUMPI DUP1 PUSH4 0x6A41D5D7 EQ PUSH2 0x2F9 JUMPI PUSH1 0x0 DUP1 REVERT JUMPDEST DUP1 PUSH4 0x2F48AB7D GT PUSH2 0x1C3 JUMPI DUP1 PUSH4 0x2F48AB7D EQ PUSH2 0x22E JUMPI DUP1 PUSH4 0x3197CBB6 EQ PUSH2 0x273 JUMPI DUP1 PUSH4 0x3CCFD60B EQ PUSH2 0x27C JUMPI DUP1 PUSH4 0x4E876F5C EQ PUSH2 0x284 JUMPI PUSH1 0x0 DUP1 REVERT JUMPDEST DUP1 PUSH4 0xE73D199 EQ PUSH2 0x1EA JUMPI DUP1 PUSH4 0x18160DDD EQ PUSH2 0x1FF JUMPI DUP1 PUSH4 0x238C4C2F EQ PUSH2 0x21B JUMPI JUMPDEST PUSH1 0x0 DUP1 REVERT JUMPDEST PUSH2 0x1FD PUSH2 0x1F8 CALLDATASIZE PUSH1 0x4 PUSH2 0x24CD JUMP JUMPDEST PUSH2 0x4E1 JUMP JUMPDEST STOP JUMPDEST PUSH2 0x208 PUSH1 0x2 SLOAD DUP2 JUMP JUMPDEST PUSH1 0x40 MLOAD SWAP1 DUP2 MSTORE PUSH1 0x20 ADD JUMPDEST PUSH1 0x40 MLOAD DUP1 SWAP2 SUB SWAP1 RETURN JUMPDEST PUSH2 0x1FD PUSH2 0x229 CALLDATASIZE PUSH1 0x4 PUSH2 0x2434 JUMP JUMPDEST PUSH2 0xE0F JUMP JUMPDEST PUSH1 0x6 SLOAD PUSH2 0x24E SWAP1 PUSH20 0xFFFFFFFFFFFFFFFFFFFFFFFFFFFFFFFFFFFFFFFF AND DUP2 JUMP JUMPDEST PUSH1 0x40 MLOAD PUSH20 0xFFFFFFFFFFFFFFFFFFFFFFFFFFFFFFFFFFFFFFFF SWAP1 SWAP2 AND DUP2 MSTORE PUSH1 0x20 ADD PUSH2 0x212 JUMP JUMPDEST PUSH2 0x208 PUSH1 0x1 SLOAD DUP2 JUMP JUMPDEST PUSH2 0x1FD PUSH2 0x124A JUMP JUMPDEST PUSH2 0x208 PUSH2 0x292 CALLDATASIZE PUSH1 0x4 PUSH2 0x23B4 JUMP JUMPDEST PUSH1 0xD PUSH1 0x20 MSTORE PUSH1 0x0 SWAP1 DUP2 MSTORE PUSH1 0x40 SWAP1 KECCAK256 SLOAD DUP2 JUMP JUMPDEST PUSH1 0x0 SLOAD PUSH2 0x2B6 SWAP1 PUSH2 0x100 SWAP1 DIV PUSH1 0xFF AND DUP2 JUMP JUMPDEST PUSH1 0x40 MLOAD SWAP1 ISZERO ISZERO DUP2 MSTORE PUSH1 0x20 ADD PUSH2 0x212 JUMP JUMPDEST PUSH1 0x7 SLOAD PUSH2 0x24E SWAP1 PUSH20 0xFFFFFFFFFFFFFFFFFFFFFFFFFFFFFFFFFFFFFFFF AND DUP2 JUMP JUMPDEST PUSH2 0x1FD PUSH2 0x2F4 CALLDATASIZE PUSH1 0x4 PUSH2 0x2495 JUMP JUMPDEST PUSH2 0x16FB JUMP JUMPDEST PUSH2 0x208 PUSH2 0x307 CALLDATASIZE PUSH1 0x4 PUSH2 0x23B4 JUMP JUMPDEST PUSH1 0xB PUSH1 0x20 MSTORE PUSH1 0x0 SWAP1 DUP2 MSTORE PUSH1 0x40 SWAP1 KECCAK256 SLOAD DUP2 JUMP JUMPDEST PUSH2 0x1FD PUSH2 0x327 CALLDATASIZE PUSH1 0x4 PUSH2 0x2495 JUMP JUMPDEST PUSH2 0x17A5 JUMP JUMPDEST PUSH2 0x1FD PUSH2 0x184F JUMP JUMPDEST PUSH2 0x208 PUSH1 0x3 SLOAD DUP2 JUMP JUMPDEST PUSH1 0x8 SLOAD PUSH2 0x24E SWAP1 PUSH20 0xFFFFFFFFFFFFFFFFFFFFFFFFFFFFFFFFFFFFFFFF AND DUP2 JUMP JUMPDEST PUSH1 0x0 SLOAD PUSH3 0x10000 SWAP1 DIV PUSH20 0xFFFFFFFFFFFFFFFFFFFFFFFFFFFFFFFFFFFFFFFF AND PUSH2 0x24E JUMP JUMPDEST PUSH2 0x1FD PUSH2 0x38F CALLDATASIZE PUSH1 0x4 PUSH2 0x23B4 JUMP JUMPDEST PUSH2 0x1983 JUMP JUMPDEST PUSH2 0x1FD PUSH2 0x3A2 CALLDATASIZE PUSH1 0x4 PUSH2 0x23B4 JUMP JUMPDEST PUSH2 0x1A78 JUMP JUMPDEST PUSH2 0x208 PUSH2 0x3B5 CALLDATASIZE PUSH1 0x4 PUSH2 0x23B4 JUMP JUMPDEST PUSH1 0xE PUSH1 0x20 MSTORE PUSH1 0x0 SWAP1 DUP2 MSTORE PUSH1 0x40 SWAP1 KECCAK256 SLOAD DUP2 JUMP JUMPDEST PUSH2 0x1FD PUSH2 0x3D5 CALLDATASIZE PUSH1 0x4 PUSH2 0x23D5 JUMP JUMPDEST PUSH2 0x1B38 JUMP JUMPDEST PUSH1 0x5 SLOAD PUSH2 0x24E SWAP1 PUSH20 0xFFFFFFFFFFFFFFFFFFFFFFFFFFFFFFFFFFFFFFFF AND DUP2 JUMP JUMPDEST PUSH2 0x1FD PUSH2 0x408 CALLDATASIZE PUSH1 0x4 PUSH2 0x2495 JUMP JUMPDEST PUSH2 0x1C53 JUMP JUMPDEST PUSH1 0x10 SLOAD PUSH2 0x2B6 SWAP1 PUSH1 0xFF AND DUP2 JUMP JUMPDEST PUSH2 0x2B6 PUSH2 0x428 CALLDATASIZE PUSH1 0x4 PUSH2 0x240B JUMP JUMPDEST PUSH2 0x1D03 JUMP JUMPDEST PUSH2 0x24E PUSH2 0x43B CALLDATASIZE PUSH1 0x4 PUSH2 0x23B4 JUMP JUMPDEST PUSH1 0xA PUSH1 0x20 MSTORE PUSH1 0x0 SWAP1 DUP2 MSTORE PUSH1 0x40 SWAP1 KECCAK256 SLOAD PUSH20 0xFFFFFFFFFFFFFFFFFFFFFFFFFFFFFFFFFFFFFFFF AND DUP2 JUMP JUMPDEST PUSH2 0x208 PUSH2 0x1D46 JUMP JUMPDEST PUSH2 0x208 PUSH2 0x479 CALLDATASIZE PUSH1 0x4 PUSH2 0x23B4 JUMP JUMPDEST PUSH1 0xC PUSH1 0x20 MSTORE PUSH1 0x0 SWAP1 DUP2 MSTORE PUSH1 0x40 SWAP1 KECCAK256 SLOAD DUP2 JUMP JUMPDEST PUSH2 0x1FD PUSH2 0x499 CALLDATASIZE PUSH1 0x4 PUSH2 0x23B4 JUMP JUMPDEST PUSH2 0x1F9A JUMP JUMPDEST PUSH2 0x2B6 PUSH2 0x4AC CALLDATASIZE PUSH1 0x4 PUSH2 0x23B4 JUMP JUMPDEST PUSH1 0x4 PUSH1 0x20 MSTORE PUSH1 0x0 SWAP1 DUP2 MSTORE PUSH1 0x40 SWAP1 KECCAK256 SLOAD PUSH1 0xFF AND DUP2 JUMP JUMPDEST PUSH2 0x1FD PUSH2 0x4CF CALLDATASIZE PUSH1 0x4 PUSH2 0x23B4 JUMP JUMPDEST PUSH2 0x214E JUMP JUMPDEST PUSH1 0x0 SLOAD PUSH2 0x2B6 SWAP1 PUSH1 0xFF AND DUP2 JUMP JUMPDEST PUSH1 0x10 SLOAD PUSH1 0xFF AND PUSH2 0x552 JUMPI PUSH1 0x40 MLOAD PUSH32 0x8C379A000000000000000000000000000000000000000000000000000000000 DUP2 MSTORE PUSH1 0x20 PUSH1 0x4 DUP3 ADD MSTORE PUSH1 0xD PUSH1 0x24 DUP3 ADD MSTORE PUSH32 0x69646F20697320636C6F73656400000000000000000000000000000000000000 PUSH1 0x44 DUP3 ADD MSTORE PUSH1 0x64 ADD JUMPDEST PUSH1 0x40 MLOAD DUP1 SWAP2 SUB SWAP1 REVERT JUMPDEST PUSH1 0x0 DUP2 GT PUSH2 0x5BC JUMPI PUSH1 0x40 MLOAD PUSH32 0x8C379A000000000000000000000000000000000000000000000000000000000 DUP2 MSTORE PUSH1 0x20 PUSH1 0x4 DUP3 ADD MSTORE PUSH1 0xD PUSH1 0x24 DUP3 ADD MSTORE PUSH32 0x76616C7565206973207A65726F00000000000000000000000000000000000000 PUSH1 0x44 DUP3 ADD MSTORE PUSH1 0x64 ADD PUSH2 0x549 JUMP JUMPDEST CALLER PUSH1 0x0 DUP2 DUP2 MSTORE PUSH1 0xB PUSH1 0x20 MSTORE PUSH1 0x40 SWAP1 KECCAK256 SLOAD PUSH1 0xF SLOAD PUSH2 0x5DB SWAP1 PUSH2 0x7D0 PUSH2 0x25B4 JUMP JUMPDEST DUP2 LT ISZERO DUP1 PUSH2 0x600 JUMPI POP PUSH1 0xF SLOAD PUSH2 0x5F3 SWAP1 PUSH2 0x7D0 PUSH2 0x25B4 JUMP JUMPDEST PUSH2 0x5FD DUP5 DUP4 PUSH2 0x2563 JUMP JUMPDEST LT ISZERO JUMPDEST ISZERO PUSH2 0x676 JUMPI PUSH1 0x0 SLOAD PUSH2 0x100 SWAP1 DIV PUSH1 0xFF AND PUSH2 0x676 JUMPI PUSH1 0x40 MLOAD PUSH32 0x8C379A000000000000000000000000000000000000000000000000000000000 DUP2 MSTORE PUSH1 0x20 PUSH1 0x4 DUP3 ADD MSTORE PUSH1 0x13 PUSH1 0x24 DUP3 ADD MSTORE PUSH32 0x74776F2074686F7573616E6420636C6F73656400000000000000000000000000 PUSH1 0x44 DUP3 ADD MSTORE PUSH1 0x64 ADD PUSH2 0x549 JUMP JUMPDEST PUSH1 0xF SLOAD PUSH2 0x685 SWAP1 PUSH2 0x7D0 PUSH2 0x25B4 JUMP JUMPDEST PUSH2 0x68F DUP5 DUP4 PUSH2 0x2563 JUMP JUMPDEST GT ISZERO PUSH2 0x6F7 JUMPI PUSH1 0x40 MLOAD PUSH32 0x8C379A000000000000000000000000000000000000000000000000000000000 DUP2 MSTORE PUSH1 0x20 PUSH1 0x4 DUP3 ADD MSTORE PUSH1 0x7 PUSH1 0x24 DUP3 ADD MSTORE PUSH32 0x6E6F742049444F00000000000000000000000000000000000000000000000000 PUSH1 0x44 DUP3 ADD MSTORE PUSH1 0x64 ADD PUSH2 0x549 JUMP JUMPDEST PUSH20 0xFFFFFFFFFFFFFFFFFFFFFFFFFFFFFFFFFFFFFFFF DUP1 DUP4 AND PUSH1 0x0 SWAP1 DUP2 MSTORE PUSH1 0xA PUSH1 0x20 MSTORE PUSH1 0x40 SWAP1 KECCAK256 SLOAD AND DUP1 ISZERO PUSH2 0xA58 JUMPI PUSH20 0xFFFFFFFFFFFFFFFFFFFFFFFFFFFFFFFFFFFFFFFF DUP2 AND PUSH1 0x0 SWAP1 DUP2 MSTORE PUSH1 0xB PUSH1 0x20 MSTORE PUSH1 0x40 SWAP1 KECCAK256 SLOAD ISZERO PUSH2 0x907 JUMPI PUSH1 0x0 PUSH2 0x2710 PUSH2 0x761 DUP7 PUSH2 0x1F4 PUSH2 0x25B4 JUMP JUMPDEST PUSH2 0x76B SWAP2 SWAP1 PUSH2 0x257B JUMP JUMPDEST PUSH1 0x6 SLOAD PUSH1 0x40 MLOAD PUSH32 0x23B872DD00000000000000000000000000000000000000000000000000000000 DUP2 MSTORE PUSH20 0xFFFFFFFFFFFFFFFFFFFFFFFFFFFFFFFFFFFFFFFF DUP8 DUP2 AND PUSH1 0x4 DUP4 ADD MSTORE DUP6 DUP2 AND PUSH1 0x24 DUP4 ADD MSTORE PUSH1 0x44 DUP3 ADD DUP5 SWAP1 MSTORE SWAP3 SWAP4 POP SWAP2 AND SWAP1 PUSH4 0x23B872DD SWAP1 PUSH1 0x64 ADD PUSH1 0x20 PUSH1 0x40 MLOAD DUP1 DUP4 SUB DUP2 PUSH1 0x0 DUP8 DUP1 EXTCODESIZE ISZERO DUP1 ISZERO PUSH2 0x7E9 JUMPI PUSH1 0x0 DUP1 REVERT JUMPDEST POP GAS CALL ISZERO DUP1 ISZERO PUSH2 0x7FD JUMPI RETURNDATASIZE PUSH1 0x0 DUP1 RETURNDATACOPY RETURNDATASIZE PUSH1 0x0 REVERT JUMPDEST POP POP POP POP PUSH1 0x40 MLOAD RETURNDATASIZE PUSH1 0x1F NOT PUSH1 0x1F DUP3 ADD AND DUP3 ADD DUP1 PUSH1 0x40 MSTORE POP DUP2 ADD SWAP1 PUSH2 0x821 SWAP2 SWAP1 PUSH2 0x24B1 JUMP JUMPDEST POP PUSH1 0x6 SLOAD PUSH1 0x5 SLOAD PUSH20 0xFFFFFFFFFFFFFFFFFFFFFFFFFFFFFFFFFFFFFFFF SWAP2 DUP3 AND SWAP2 PUSH4 0x23B872DD SWAP2 DUP8 SWAP2 AND PUSH2 0x854 DUP6 DUP11 PUSH2 0x25F1 JUMP JUMPDEST PUSH1 0x40 MLOAD PUSH32 0xFFFFFFFF00000000000000000000000000000000000000000000000000000000 PUSH1 0xE0 DUP7 SWAP1 SHL AND DUP2 MSTORE PUSH20 0xFFFFFFFFFFFFFFFFFFFFFFFFFFFFFFFFFFFFFFFF SWAP4 DUP5 AND PUSH1 0x4 DUP3 ADD MSTORE SWAP3 SWAP1 SWAP2 AND PUSH1 0x24 DUP4 ADD MSTORE PUSH1 0x44 DUP3 ADD MSTORE PUSH1 0x64 ADD PUSH1 0x20 PUSH1 0x40 MLOAD DUP1 DUP4 SUB DUP2 PUSH1 0x0 DUP8 DUP1 EXTCODESIZE ISZERO DUP1 ISZERO PUSH2 0x8C8 JUMPI PUSH1 0x0 DUP1 REVERT JUMPDEST POP GAS CALL ISZERO DUP1 ISZERO PUSH2 0x8DC JUMPI RETURNDATASIZE PUSH1 0x0 DUP1 RETURNDATACOPY RETURNDATASIZE PUSH1 0x0 REVERT JUMPDEST POP POP POP POP PUSH1 0x40 MLOAD RETURNDATASIZE PUSH1 0x1F NOT PUSH1 0x1F DUP3 ADD AND DUP3 ADD DUP1 PUSH1 0x40 MSTORE POP DUP2 ADD SWAP1 PUSH2 0x900 SWAP2 SWAP1 PUSH2 0x24B1 JUMP JUMPDEST POP POP PUSH2 0x9BF JUMP JUMPDEST PUSH1 0x6 SLOAD PUSH1 0x5 SLOAD PUSH1 0x40 MLOAD PUSH32 0x23B872DD00000000000000000000000000000000000000000000000000000000 DUP2 MSTORE PUSH20 0xFFFFFFFFFFFFFFFFFFFFFFFFFFFFFFFFFFFFFFFF DUP7 DUP2 AND PUSH1 0x4 DUP4 ADD MSTORE SWAP2 DUP3 AND PUSH1 0x24 DUP3 ADD MSTORE PUSH1 0x44 DUP2 ADD DUP8 SWAP1 MSTORE SWAP2 AND SWAP1 PUSH4 0x23B872DD SWAP1 PUSH1 0x64 ADD PUSH1 0x20 PUSH1 0x40 MLOAD DUP1 DUP4 SUB DUP2 PUSH1 0x0 DUP8 DUP1 EXTCODESIZE ISZERO DUP1 ISZERO PUSH2 0x985 JUMPI PUSH1 0x0 DUP1 REVERT JUMPDEST POP GAS CALL ISZERO DUP1 ISZERO PUSH2 0x999 JUMPI RETURNDATASIZE PUSH1 0x0 DUP1 RETURNDATACOPY RETURNDATASIZE PUSH1 0x0 REVERT JUMPDEST POP POP POP POP PUSH1 0x40 MLOAD RETURNDATASIZE PUSH1 0x1F NOT PUSH1 0x1F DUP3 ADD AND DUP3 ADD DUP1 PUSH1 0x40 MSTORE POP DUP2 ADD SWAP1 PUSH2 0x9BD SWAP2 SWAP1 PUSH2 0x24B1 JUMP JUMPDEST POP JUMPDEST PUSH20 0xFFFFFFFFFFFFFFFFFFFFFFFFFFFFFFFFFFFFFFFF DUP2 AND PUSH1 0x0 SWAP1 DUP2 MSTORE PUSH1 0xC PUSH1 0x20 MSTORE PUSH1 0x40 SWAP1 KECCAK256 SLOAD PUSH2 0x9F0 SWAP1 DUP6 SWAP1 PUSH2 0x2563 JUMP JUMPDEST PUSH20 0xFFFFFFFFFFFFFFFFFFFFFFFFFFFFFFFFFFFFFFFF DUP3 AND PUSH1 0x0 SWAP1 DUP2 MSTORE PUSH1 0xC PUSH1 0x20 SWAP1 DUP2 MSTORE PUSH1 0x40 DUP1 DUP4 KECCAK256 SWAP4 SWAP1 SWAP4 SSTORE PUSH1 0xD SWAP1 MSTORE KECCAK256 SLOAD PUSH2 0xA2D SWAP1 DUP6 SWAP1 PUSH2 0x2563 JUMP JUMPDEST PUSH20 0xFFFFFFFFFFFFFFFFFFFFFFFFFFFFFFFFFFFFFFFF DUP3 AND PUSH1 0x0 SWAP1 DUP2 MSTORE PUSH1 0xD PUSH1 0x20 MSTORE PUSH1 0x40 SWAP1 KECCAK256 SSTORE PUSH2 0xB10 JUMP JUMPDEST PUSH1 0x6 SLOAD PUSH1 0x5 SLOAD PUSH1 0x40 MLOAD PUSH32 0x23B872DD00000000000000000000000000000000000000000000000000000000 DUP2 MSTORE PUSH20 0xFFFFFFFFFFFFFFFFFFFFFFFFFFFFFFFFFFFFFFFF DUP7 DUP2 AND PUSH1 0x4 DUP4 ADD MSTORE SWAP2 DUP3 AND PUSH1 0x24 DUP3 ADD MSTORE PUSH1 0x44 DUP2 ADD DUP8 SWAP1 MSTORE SWAP2 AND SWAP1 PUSH4 0x23B872DD SWAP1 PUSH1 0x64 ADD PUSH1 0x20 PUSH1 0x40 MLOAD DUP1 DUP4 SUB DUP2 PUSH1 0x0 DUP8 DUP1 EXTCODESIZE ISZERO DUP1 ISZERO PUSH2 0xAD6 JUMPI PUSH1 0x0 DUP1 REVERT JUMPDEST POP GAS CALL ISZERO DUP1 ISZERO PUSH2 0xAEA JUMPI RETURNDATASIZE PUSH1 0x0 DUP1 RETURNDATACOPY RETURNDATASIZE PUSH1 0x0 REVERT JUMPDEST POP POP POP POP PUSH1 0x40 MLOAD RETURNDATASIZE PUSH1 0x1F NOT PUSH1 0x1F DUP3 ADD AND DUP3 ADD DUP1 PUSH1 0x40 MSTORE POP DUP2 ADD SWAP1 PUSH2 0xB0E SWAP2 SWAP1 PUSH2 0x24B1 JUMP JUMPDEST POP JUMPDEST PUSH2 0xB1A DUP5 DUP4 PUSH2 0x2563 JUMP JUMPDEST PUSH20 0xFFFFFFFFFFFFFFFFFFFFFFFFFFFFFFFFFFFFFFFF DUP5 AND PUSH1 0x0 SWAP1 DUP2 MSTORE PUSH1 0xB PUSH1 0x20 MSTORE PUSH1 0x40 SWAP1 KECCAK256 SSTORE PUSH1 0x2 SLOAD PUSH2 0xB4E SWAP1 DUP6 SWAP1 PUSH2 0x2563 JUMP JUMPDEST PUSH1 0x2 SSTORE PUSH1 0x3 DUP1 SLOAD SWAP1 PUSH1 0x0 PUSH2 0xB61 DUP4 PUSH2 0x2608 JUMP JUMPDEST SWAP1 SWAP2 SSTORE POP POP PUSH20 0xFFFFFFFFFFFFFFFFFFFFFFFFFFFFFFFFFFFFFFFF DUP4 AND PUSH1 0x0 SWAP1 DUP2 MSTORE PUSH1 0xB PUSH1 0x20 MSTORE PUSH1 0x40 SWAP1 KECCAK256 SLOAD PUSH1 0x78 SWAP1 PUSH2 0xB9B SWAP1 PUSH2 0xA28 PUSH2 0x25B4 JUMP JUMPDEST PUSH2 0xBA5 SWAP2 SWAP1 PUSH2 0x257B JUMP JUMPDEST PUSH20 0xFFFFFFFFFFFFFFFFFFFFFFFFFFFFFFFFFFFFFFFF DUP5 AND PUSH1 0x0 SWAP1 DUP2 MSTORE PUSH1 0xE PUSH1 0x20 MSTORE PUSH1 0x40 SWAP1 KECCAK256 SSTORE PUSH1 0xF SLOAD PUSH2 0xBDA SWAP1 PUSH2 0x7D0 PUSH2 0x25B4 JUMP JUMPDEST PUSH20 0xFFFFFFFFFFFFFFFFFFFFFFFFFFFFFFFFFFFFFFFF DUP5 AND PUSH1 0x0 SWAP1 DUP2 MSTORE PUSH1 0xB PUSH1 0x20 MSTORE PUSH1 0x40 SWAP1 KECCAK256 SLOAD LT PUSH2 0xC8B JUMPI PUSH1 0x7 SLOAD PUSH1 0x40 MLOAD PUSH32 0x40D097C300000000000000000000000000000000000000000000000000000000 DUP2 MSTORE PUSH20 0xFFFFFFFFFFFFFFFFFFFFFFFFFFFFFFFFFFFFFFFF DUP6 DUP2 AND PUSH1 0x4 DUP4 ADD MSTORE SWAP1 SWAP2 AND SWAP1 PUSH4 0x40D097C3 SWAP1 PUSH1 0x24 ADD PUSH1 0x0 PUSH1 0x40 MLOAD DUP1 DUP4 SUB DUP2 PUSH1 0x0 DUP8 DUP1 EXTCODESIZE ISZERO DUP1 ISZERO PUSH2 0xC72 JUMPI PUSH1 0x0 DUP1 REVERT JUMPDEST POP GAS CALL ISZERO DUP1 ISZERO PUSH2 0xC86 JUMPI RETURNDATASIZE PUSH1 0x0 DUP1 RETURNDATACOPY RETURNDATASIZE PUSH1 0x0 REVERT JUMPDEST POP POP POP POP JUMPDEST PUSH1 0xF SLOAD PUSH2 0xC9A SWAP1 PUSH2 0xBB8 PUSH2 0x25B4 JUMP JUMPDEST PUSH20 0xFFFFFFFFFFFFFFFFFFFFFFFFFFFFFFFFFFFFFFFF DUP3 AND PUSH1 0x0 SWAP1 DUP2 MSTORE PUSH1 0xC PUSH1 0x20 MSTORE PUSH1 0x40 SWAP1 KECCAK256 SLOAD LT PUSH2 0xDB1 JUMPI PUSH1 0x7 SLOAD PUSH1 0x40 MLOAD PUSH32 0x40D097C300000000000000000000000000000000000000000000000000000000 DUP2 MSTORE PUSH20 0xFFFFFFFFFFFFFFFFFFFFFFFFFFFFFFFFFFFFFFFF DUP4 DUP2 AND PUSH1 0x4 DUP4 ADD MSTORE SWAP1 SWAP2 AND SWAP1 PUSH4 0x40D097C3 SWAP1 PUSH1 0x24 ADD PUSH1 0x0 PUSH1 0x40 MLOAD DUP1 DUP4 SUB DUP2 PUSH1 0x0 DUP8 DUP1 EXTCODESIZE ISZERO DUP1 ISZERO PUSH2 0xD32 JUMPI PUSH1 0x0 DUP1 REVERT JUMPDEST POP GAS CALL ISZERO DUP1 ISZERO PUSH2 0xD46 JUMPI RETURNDATASIZE PUSH1 0x0 DUP1 RETURNDATACOPY RETURNDATASIZE PUSH1 0x0 REVERT JUMPDEST POP POP POP POP PUSH1 0xF SLOAD PUSH2 0xBB8 PUSH2 0xD5A SWAP2 SWAP1 PUSH2 0x25B4 JUMP JUMPDEST PUSH20 0xFFFFFFFFFFFFFFFFFFFFFFFFFFFFFFFFFFFFFFFF DUP3 AND PUSH1 0x0 SWAP1 DUP2 MSTORE PUSH1 0xC PUSH1 0x20 MSTORE PUSH1 0x40 SWAP1 KECCAK256 SLOAD PUSH2 0xD8A SWAP2 SWAP1 PUSH2 0x25F1 JUMP JUMPDEST PUSH20 0xFFFFFFFFFFFFFFFFFFFFFFFFFFFFFFFFFFFFFFFF DUP3 AND PUSH1 0x0 SWAP1 DUP2 MSTORE PUSH1 0xC PUSH1 0x20 MSTORE PUSH1 0x40 SWAP1 KECCAK256 SSTORE JUMPDEST PUSH2 0xDBA DUP4 PUSH2 0x1983 JUMP JUMPDEST PUSH1 0x40 DUP1 MLOAD PUSH20 0xFFFFFFFFFFFFFFFFFFFFFFFFFFFFFFFFFFFFFFFF DUP6 AND DUP2 MSTORE PUSH1 0x20 DUP2 ADD DUP7 SWAP1 MSTORE PUSH32 0x80BF12451B207525905F2FE9E47714FBCD5AA383B228F656B880136E66B288F SWAP2 ADD PUSH1 0x40 MLOAD DUP1 SWAP2 SUB SWAP1 LOG1 POP POP POP POP JUMP JUMPDEST PUSH1 0x0 SLOAD PUSH20 0xFFFFFFFFFFFFFFFFFFFFFFFFFFFFFFFFFFFFFFFF PUSH3 0x10000 SWAP1 SWAP2 DIV AND CALLER EQ PUSH2 0xE97 JUMPI PUSH1 0x40 MLOAD PUSH32 0x8C379A000000000000000000000000000000000000000000000000000000000 DUP2 MSTORE PUSH1 0x20 PUSH1 0x4 DUP3 ADD DUP2 SWAP1 MSTORE PUSH1 0x24 DUP3 ADD MSTORE PUSH32 0x4F776E61626C653A2063616C6C6572206973206E6F7420746865206F776E6572 PUSH1 0x44 DUP3 ADD MSTORE PUSH1 0x64 ADD PUSH2 0x549 JUMP JUMPDEST DUP1 MLOAD DUP3 MLOAD EQ PUSH2 0xF02 JUMPI PUSH1 0x40 MLOAD PUSH32 0x8C379A000000000000000000000000000000000000000000000000000000000 DUP2 MSTORE PUSH1 0x20 PUSH1 0x4 DUP3 ADD MSTORE PUSH1 0xF PUSH1 0x24 DUP3 ADD MSTORE PUSH32 0x6C656E6774682069732077726F6E670000000000000000000000000000000000 PUSH1 0x44 DUP3 ADD MSTORE PUSH1 0x64 ADD PUSH2 0x549 JUMP JUMPDEST PUSH1 0x0 JUMPDEST DUP3 MLOAD DUP2 LT ISZERO PUSH2 0x120C JUMPI PUSH1 0x0 PUSH20 0xFFFFFFFFFFFFFFFFFFFFFFFFFFFFFFFFFFFFFFFF AND DUP4 DUP3 DUP2 MLOAD DUP2 LT PUSH2 0xF5F JUMPI PUSH32 0x4E487B7100000000000000000000000000000000000000000000000000000000 PUSH1 0x0 MSTORE PUSH1 0x32 PUSH1 0x4 MSTORE PUSH1 0x24 PUSH1 0x0 REVERT JUMPDEST PUSH1 0x20 MUL PUSH1 0x20 ADD ADD MLOAD PUSH20 0xFFFFFFFFFFFFFFFFFFFFFFFFFFFFFFFFFFFFFFFF AND EQ ISZERO PUSH2 0xFE5 JUMPI PUSH1 0x40 MLOAD PUSH32 0x8C379A000000000000000000000000000000000000000000000000000000000 DUP2 MSTORE PUSH1 0x20 PUSH1 0x4 DUP3 ADD MSTORE PUSH1 0x10 PUSH1 0x24 DUP3 ADD MSTORE PUSH32 0x616464726573732069732077726F6E6700000000000000000000000000000000 PUSH1 0x44 DUP3 ADD MSTORE PUSH1 0x64 ADD PUSH2 0x549 JUMP JUMPDEST DUP2 DUP2 DUP2 MLOAD DUP2 LT PUSH2 0x101E JUMPI PUSH32 0x4E487B7100000000000000000000000000000000000000000000000000000000 PUSH1 0x0 MSTORE PUSH1 0x32 PUSH1 0x4 MSTORE PUSH1 0x24 PUSH1 0x0 REVERT JUMPDEST PUSH1 0x20 MUL PUSH1 0x20 ADD ADD MLOAD PUSH20 0xFFFFFFFFFFFFFFFFFFFFFFFFFFFFFFFFFFFFFFFF AND DUP4 DUP3 DUP2 MLOAD DUP2 LT PUSH2 0x1075 JUMPI PUSH32 0x4E487B7100000000000000000000000000000000000000000000000000000000 PUSH1 0x0 MSTORE PUSH1 0x32 PUSH1 0x4 MSTORE PUSH1 0x24 PUSH1 0x0 REVERT JUMPDEST PUSH1 0x20 MUL PUSH1 0x20 ADD ADD MLOAD PUSH20 0xFFFFFFFFFFFFFFFFFFFFFFFFFFFFFFFFFFFFFFFF AND EQ ISZERO PUSH2 0x10FB JUMPI PUSH1 0x40 MLOAD PUSH32 0x8C379A000000000000000000000000000000000000000000000000000000000 DUP2 MSTORE PUSH1 0x20 PUSH1 0x4 DUP3 ADD MSTORE PUSH1 0xF PUSH1 0x24 DUP3 ADD MSTORE PUSH32 0x61646472657320697320657175616C0000000000000000000000000000000000 PUSH1 0x44 DUP3 ADD MSTORE PUSH1 0x64 ADD PUSH2 0x549 JUMP JUMPDEST DUP2 DUP2 DUP2 MLOAD DUP2 LT PUSH2 0x1134 JUMPI PUSH32 0x4E487B7100000000000000000000000000000000000000000000000000000000 PUSH1 0x0 MSTORE PUSH1 0x32 PUSH1 0x4 MSTORE PUSH1 0x24 PUSH1 0x0 REVERT JUMPDEST PUSH1 0x20 MUL PUSH1 0x20 ADD ADD MLOAD PUSH1 0xA PUSH1 0x0 DUP6 DUP5 DUP2 MLOAD DUP2 LT PUSH2 0x1179 JUMPI PUSH32 0x4E487B7100000000000000000000000000000000000000000000000000000000 PUSH1 0x0 MSTORE PUSH1 0x32 PUSH1 0x4 MSTORE PUSH1 0x24 PUSH1 0x0 REVERT JUMPDEST PUSH1 0x20 MUL PUSH1 0x20 ADD ADD MLOAD PUSH20 0xFFFFFFFFFFFFFFFFFFFFFFFFFFFFFFFFFFFFFFFF AND PUSH20 0xFFFFFFFFFFFFFFFFFFFFFFFFFFFFFFFFFFFFFFFF AND DUP2 MSTORE PUSH1 0x20 ADD SWAP1 DUP2 MSTORE PUSH1 0x20 ADD PUSH1 0x0 KECCAK256 PUSH1 0x0 PUSH2 0x100 EXP DUP2 SLOAD DUP2 PUSH20 0xFFFFFFFFFFFFFFFFFFFFFFFFFFFFFFFFFFFFFFFF MUL NOT AND SWAP1 DUP4 PUSH20 0xFFFFFFFFFFFFFFFFFFFFFFFFFFFFFFFFFFFFFFFF AND MUL OR SWAP1 SSTORE POP DUP1 DUP1 PUSH2 0x1204 SWAP1 PUSH2 0x2608 JUMP JUMPDEST SWAP2 POP POP PUSH2 0xF05 JUMP JUMPDEST POP PUSH32 0x1886F03D42B471BC8FAF784E3878FCE329E8E139473C601B8648DE73B3380C02 DUP3 DUP3 PUSH1 0x40 MLOAD PUSH2 0x123E SWAP3 SWAP2 SWAP1 PUSH2 0x2535 JUMP JUMPDEST PUSH1 0x40 MLOAD DUP1 SWAP2 SUB SWAP1 LOG1 POP POP JUMP JUMPDEST CALLER PUSH1 0x0 SWAP1 DUP2 MSTORE PUSH1 0xB PUSH1 0x20 MSTORE PUSH1 0x40 SWAP1 KECCAK256 SLOAD PUSH2 0x12C0 JUMPI PUSH1 0x40 MLOAD PUSH32 0x8C379A000000000000000000000000000000000000000000000000000000000 DUP2 MSTORE PUSH1 0x20 PUSH1 0x4 DUP3 ADD MSTORE PUSH1 0x9 PUSH1 0x24 DUP3 ADD MSTORE PUSH32 0x6E6F7420616C6C6F770000000000000000000000000000000000000000000000 PUSH1 0x44 DUP3 ADD MSTORE PUSH1 0x64 ADD PUSH2 0x549 JUMP JUMPDEST PUSH1 0x0 PUSH1 0x1 SLOAD GT PUSH2 0x132C JUMPI PUSH1 0x40 MLOAD PUSH32 0x8C379A000000000000000000000000000000000000000000000000000000000 DUP2 MSTORE PUSH1 0x20 PUSH1 0x4 DUP3 ADD MSTORE PUSH1 0x6 PUSH1 0x24 DUP3 ADD MSTORE PUSH32 0x6E6F742045540000000000000000000000000000000000000000000000000000 PUSH1 0x44 DUP3 ADD MSTORE PUSH1 0x64 ADD PUSH2 0x549 JUMP JUMPDEST PUSH1 0x0 DUP1 PUSH1 0x1 SLOAD TIMESTAMP PUSH2 0x133D SWAP2 SWAP1 PUSH2 0x25F1 JUMP JUMPDEST SWAP1 POP PUSH1 0x0 PUSH2 0x134E PUSH3 0x15180 DUP4 PUSH2 0x257B JUMP JUMPDEST CALLER PUSH1 0x0 SWAP1 DUP2 MSTORE PUSH1 0xB PUSH1 0x20 MSTORE PUSH1 0x40 DUP2 KECCAK256 SLOAD SWAP2 SWAP3 POP SWAP1 PUSH1 0x78 SWAP1 PUSH2 0x1371 SWAP1 PUSH2 0xA28 PUSH2 0x25B4 JUMP JUMPDEST PUSH2 0x137B SWAP2 SWAP1 PUSH2 0x257B JUMP JUMPDEST SWAP1 POP PUSH1 0x1 DUP3 LT ISZERO DUP1 ISZERO PUSH2 0x13F2 JUMPI POP CALLER PUSH1 0x0 SWAP1 DUP2 MSTORE PUSH1 0x9 PUSH1 0x20 MSTORE PUSH1 0x40 DUP2 KECCAK256 DUP1 SLOAD SWAP1 SWAP2 SWAP1 PUSH2 0x13D0 JUMPI PUSH32 0x4E487B7100000000000000000000000000000000000000000000000000000000 PUSH1 0x0 MSTORE PUSH1 0x32 PUSH1 0x4 MSTORE PUSH1 0x24 PUSH1 0x0 REVERT JUMPDEST SWAP1 PUSH1 0x0 MSTORE PUSH1 0x20 PUSH1 0x0 KECCAK256 SWAP1 PUSH1 0x20 SWAP2 DUP3 DUP3 DIV ADD SWAP2 SWAP1 MOD SWAP1 SLOAD SWAP1 PUSH2 0x100 EXP SWAP1 DIV PUSH1 0xFF AND ISZERO JUMPDEST ISZERO PUSH2 0x1487 JUMPI PUSH2 0x2710 PUSH2 0x1406 DUP3 PUSH2 0x3E8 PUSH2 0x25B4 JUMP JUMPDEST PUSH2 0x1410 SWAP2 SWAP1 PUSH2 0x257B JUMP JUMPDEST CALLER PUSH1 0x0 SWAP1 DUP2 MSTORE PUSH1 0x9 PUSH1 0x20 MSTORE PUSH1 0x40 DUP2 KECCAK256 DUP1 SLOAD SWAP3 SWAP7 POP PUSH1 0x1 SWAP3 SWAP1 SWAP2 SWAP1 PUSH2 0x145D JUMPI PUSH32 0x4E487B7100000000000000000000000000000000000000000000000000000000 PUSH1 0x0 MSTORE PUSH1 0x32 PUSH1 0x4 MSTORE PUSH1 0x24 PUSH1 0x0 REVERT JUMPDEST SWAP1 PUSH1 0x0 MSTORE PUSH1 0x20 PUSH1 0x0 KECCAK256 SWAP1 PUSH1 0x20 SWAP2 DUP3 DUP3 DIV ADD SWAP2 SWAP1 MOD PUSH2 0x100 EXP DUP2 SLOAD DUP2 PUSH1 0xFF MUL NOT AND SWAP1 DUP4 ISZERO ISZERO MUL OR SWAP1 SSTORE POP JUMPDEST PUSH1 0x0 PUSH1 0x1E PUSH2 0x1496 PUSH1 0x1 DUP6 PUSH2 0x25F1 JUMP JUMPDEST PUSH2 0x14A0 SWAP2 SWAP1 PUSH2 0x257B JUMP JUMPDEST SWAP1 POP PUSH1 0xF DUP2 GT PUSH2 0x14B0 JUMPI DUP1 PUSH2 0x14B3 JUMP JUMPDEST PUSH1 0xF JUMPDEST SWAP1 POP PUSH1 0x1 JUMPDEST DUP2 DUP2 GT PUSH2 0x15D8 JUMPI CALLER PUSH1 0x0 SWAP1 DUP2 MSTORE PUSH1 0x9 PUSH1 0x20 MSTORE PUSH1 0x40 SWAP1 KECCAK256 DUP1 SLOAD DUP3 SWAP1 DUP2 LT PUSH2 0x1507 JUMPI PUSH32 0x4E487B7100000000000000000000000000000000000000000000000000000000 PUSH1 0x0 MSTORE PUSH1 0x32 PUSH1 0x4 MSTORE PUSH1 0x24 PUSH1 0x0 REVERT JUMPDEST SWAP1 PUSH1 0x0 MSTORE PUSH1 0x20 PUSH1 0x0 KECCAK256 SWAP1 PUSH1 0x20 SWAP2 DUP3 DUP3 DIV ADD SWAP2 SWAP1 MOD SWAP1 SLOAD SWAP1 PUSH2 0x100 EXP SWAP1 DIV PUSH1 0xFF AND PUSH2 0x15C6 JUMPI PUSH2 0x2710 PUSH2 0x153A DUP5 PUSH2 0x258 PUSH2 0x25B4 JUMP JUMPDEST PUSH2 0x1544 SWAP2 SWAP1 PUSH2 0x257B JUMP JUMPDEST PUSH2 0x154E SWAP1 DUP8 PUSH2 0x2563 JUMP JUMPDEST CALLER PUSH1 0x0 SWAP1 DUP2 MSTORE PUSH1 0x9 PUSH1 0x20 MSTORE PUSH1 0x40 SWAP1 KECCAK256 DUP1 SLOAD SWAP2 SWAP8 POP PUSH1 0x1 SWAP2 DUP4 SWAP1 DUP2 LT PUSH2 0x159C JUMPI PUSH32 0x4E487B7100000000000000000000000000000000000000000000000000000000 PUSH1 0x0 MSTORE PUSH1 0x32 PUSH1 0x4 MSTORE PUSH1 0x24 PUSH1 0x0 REVERT JUMPDEST SWAP1 PUSH1 0x0 MSTORE PUSH1 0x20 PUSH1 0x0 KECCAK256 SWAP1 PUSH1 0x20 SWAP2 DUP3 DUP3 DIV ADD SWAP2 SWAP1 MOD PUSH2 0x100 EXP DUP2 SLOAD DUP2 PUSH1 0xFF MUL NOT AND SWAP1 DUP4 ISZERO ISZERO MUL OR SWAP1 SSTORE POP JUMPDEST DUP1 PUSH2 0x15D0 DUP2 PUSH2 0x2608 JUMP JUMPDEST SWAP2 POP POP PUSH2 0x14B8 JUMP JUMPDEST POP CALLER PUSH1 0x0 SWAP1 DUP2 MSTORE PUSH1 0xE PUSH1 0x20 MSTORE PUSH1 0x40 SWAP1 KECCAK256 SLOAD PUSH2 0x15F4 SWAP1 DUP7 SWAP1 PUSH2 0x25F1 JUMP JUMPDEST CALLER PUSH1 0x0 DUP2 DUP2 MSTORE PUSH1 0xE PUSH1 0x20 MSTORE PUSH1 0x40 SWAP1 DUP2 SWAP1 KECCAK256 SWAP3 SWAP1 SWAP3 SSTORE PUSH1 0x8 SLOAD SWAP2 MLOAD PUSH32 0xA9059CBB00000000000000000000000000000000000000000000000000000000 DUP2 MSTORE PUSH1 0x4 DUP2 ADD SWAP2 SWAP1 SWAP2 MSTORE PUSH1 0x24 DUP2 ADD DUP8 SWAP1 MSTORE PUSH20 0xFFFFFFFFFFFFFFFFFFFFFFFFFFFFFFFFFFFFFFFF SWAP1 SWAP2 AND SWAP1 PUSH4 0xA9059CBB SWAP1 PUSH1 0x44 ADD PUSH1 0x20 PUSH1 0x40 MLOAD DUP1 DUP4 SUB DUP2 PUSH1 0x0 DUP8 DUP1 EXTCODESIZE ISZERO DUP1 ISZERO PUSH2 0x167C JUMPI PUSH1 0x0 DUP1 REVERT JUMPDEST POP GAS CALL ISZERO DUP1 ISZERO PUSH2 0x1690 JUMPI RETURNDATASIZE PUSH1 0x0 DUP1 RETURNDATACOPY RETURNDATASIZE PUSH1 0x0 REVERT JUMPDEST POP POP POP POP PUSH1 0x40 MLOAD RETURNDATASIZE PUSH1 0x1F NOT PUSH1 0x1F DUP3 ADD AND DUP3 ADD DUP1 PUSH1 0x40 MSTORE POP DUP2 ADD SWAP1 PUSH2 0x16B4 SWAP2 SWAP1 PUSH2 0x24B1 JUMP JUMPDEST POP PUSH1 0x40 DUP1 MLOAD CALLER DUP2 MSTORE PUSH1 0x20 DUP2 ADD DUP8 SWAP1 MSTORE TIMESTAMP DUP2 DUP4 ADD MSTORE SWAP1 MLOAD PUSH32 0xF279E6A1F5E320CCA91135676D9CB6E44CA8A08C0B88342BCDB1144F6511B568 SWAP2 DUP2 SWAP1 SUB PUSH1 0x60 ADD SWAP1 LOG1 POP POP POP POP POP JUMP JUMPDEST CALLER PUSH1 0x0 SWAP1 DUP2 MSTORE PUSH1 0x4 PUSH1 0x20 MSTORE PUSH1 0x40 SWAP1 KECCAK256 SLOAD PUSH1 0xFF AND PUSH2 0x1774 JUMPI PUSH1 0x40 MLOAD PUSH32 0x8C379A000000000000000000000000000000000000000000000000000000000 DUP2 MSTORE PUSH1 0x20 PUSH1 0x4 DUP3 ADD MSTORE PUSH1 0xB PUSH1 0x24 DUP3 ADD MSTORE PUSH32 0x4E6F74206D616E61676572000000000000000000000000000000000000000000 PUSH1 0x44 DUP3 ADD MSTORE PUSH1 0x64 ADD PUSH2 0x549 JUMP JUMPDEST PUSH1 0x10 DUP1 SLOAD PUSH32 0xFFFFFFFFFFFFFFFFFFFFFFFFFFFFFFFFFFFFFFFFFFFFFFFFFFFFFFFFFFFFFF00 AND SWAP2 ISZERO ISZERO SWAP2 SWAP1 SWAP2 OR SWAP1 SSTORE JUMP JUMPDEST CALLER PUSH1 0x0 SWAP1 DUP2 MSTORE PUSH1 0x4 PUSH1 0x20 MSTORE PUSH1 0x40 SWAP1 KECCAK256 SLOAD PUSH1 0xFF AND PUSH2 0x181E JUMPI PUSH1 0x40 MLOAD PUSH32 0x8C379A000000000000000000000000000000000000000000000000000000000 DUP2 MSTORE PUSH1 0x20 PUSH1 0x4 DUP3 ADD MSTORE PUSH1 0xB PUSH1 0x24 DUP3 ADD MSTORE PUSH32 0x4E6F74206D616E61676572000000000000000000000000000000000000000000 PUSH1 0x44 DUP3 ADD MSTORE PUSH1 0x64 ADD PUSH2 0x549 JUMP JUMPDEST PUSH1 0x0 DUP1 SLOAD PUSH32 0xFFFFFFFFFFFFFFFFFFFFFFFFFFFFFFFFFFFFFFFFFFFFFFFFFFFFFFFFFFFFFF00 AND SWAP2 ISZERO ISZERO SWAP2 SWAP1 SWAP2 OR SWAP1 SSTORE JUMP JUMPDEST PUSH1 0x0 SLOAD PUSH20 0xFFFFFFFFFFFFFFFFFFFFFFFFFFFFFFFFFFFFFFFF PUSH3 0x10000 SWAP1 SWAP2 DIV AND CALLER EQ PUSH2 0x18D7 JUMPI PUSH1 0x40 MLOAD PUSH32 0x8C379A000000000000000000000000000000000000000000000000000000000 DUP2 MSTORE PUSH1 0x20 PUSH1 0x4 DUP3 ADD DUP2 SWAP1 MSTORE PUSH1 0x24 DUP3 ADD MSTORE PUSH32 0x4F776E61626C653A2063616C6C6572206973206E6F7420746865206F776E6572 PUSH1 0x44 DUP3 ADD MSTORE PUSH1 0x64 ADD PUSH2 0x549 JUMP JUMPDEST PUSH1 0x1 SLOAD ISZERO PUSH2 0x1941 JUMPI PUSH1 0x40 MLOAD PUSH32 0x8C379A000000000000000000000000000000000000000000000000000000000 DUP2 MSTORE PUSH1 0x20 PUSH1 0x4 DUP3 ADD MSTORE PUSH1 0xD PUSH1 0x24 DUP3 ADD MSTORE PUSH32 0x74696D6520697320657869737400000000000000000000000000000000000000 PUSH1 0x44 DUP3 ADD MSTORE PUSH1 0x64 ADD PUSH2 0x549 JUMP JUMPDEST TIMESTAMP PUSH1 0x1 DUP2 SWAP1 SSTORE PUSH1 0x40 DUP1 MLOAD CALLER DUP2 MSTORE PUSH1 0x20 DUP2 ADD SWAP3 SWAP1 SWAP3 MSTORE PUSH32 0x4100552E0C7D7733B482A8B5B352D5CF64221041A5CB5AD4F57474178741B69A SWAP2 ADD PUSH1 0x40 MLOAD DUP1 SWAP2 SUB SWAP1 LOG1 JUMP JUMPDEST PUSH20 0xFFFFFFFFFFFFFFFFFFFFFFFFFFFFFFFFFFFFFFFF DUP2 AND PUSH1 0x0 SWAP1 DUP2 MSTORE PUSH1 0x9 PUSH1 0x20 MSTORE PUSH1 0x40 SWAP1 KECCAK256 SLOAD PUSH2 0x1A75 JUMPI PUSH1 0x40 DUP1 MLOAD PUSH1 0x10 DUP1 DUP3 MSTORE PUSH2 0x220 DUP3 ADD SWAP1 SWAP3 MSTORE PUSH1 0x0 SWAP2 PUSH1 0x20 DUP3 ADD PUSH2 0x200 DUP1 CALLDATASIZE DUP4 CALLDATACOPY ADD SWAP1 POP POP SWAP1 POP PUSH1 0x0 JUMPDEST DUP2 MLOAD DUP2 LT ISZERO PUSH2 0x1A3B JUMPI PUSH1 0x0 DUP3 DUP3 DUP2 MLOAD DUP2 LT PUSH2 0x1A19 JUMPI PUSH32 0x4E487B7100000000000000000000000000000000000000000000000000000000 PUSH1 0x0 MSTORE PUSH1 0x32 PUSH1 0x4 MSTORE PUSH1 0x24 PUSH1 0x0 REVERT JUMPDEST SWAP2 ISZERO ISZERO PUSH1 0x20 SWAP3 DUP4 MUL SWAP2 SWAP1 SWAP2 ADD SWAP1 SWAP2 ADD MSTORE DUP1 PUSH2 0x1A33 DUP2 PUSH2 0x2608 JUMP JUMPDEST SWAP2 POP POP PUSH2 0x19D5 JUMP JUMPDEST POP PUSH20 0xFFFFFFFFFFFFFFFFFFFFFFFFFFFFFFFFFFFFFFFF DUP3 AND PUSH1 0x0 SWAP1 DUP2 MSTORE PUSH1 0x9 PUSH1 0x20 SWAP1 DUP2 MSTORE PUSH1 0x40 SWAP1 SWAP2 KECCAK256 DUP3 MLOAD PUSH2 0x1A72 SWAP3 DUP5 ADD SWAP1 PUSH2 0x220E JUMP JUMPDEST POP POP JUMPDEST POP JUMP JUMPDEST CALLER PUSH1 0x0 SWAP1 DUP2 MSTORE PUSH1 0x4 PUSH1 0x20 MSTORE PUSH1 0x40 SWAP1 KECCAK256 SLOAD PUSH1 0xFF AND PUSH2 0x1AF1 JUMPI PUSH1 0x40 MLOAD PUSH32 0x8C379A000000000000000000000000000000000000000000000000000000000 DUP2 MSTORE PUSH1 0x20 PUSH1 0x4 DUP3 ADD MSTORE PUSH1 0xB PUSH1 0x24 DUP3 ADD MSTORE PUSH32 0x4E6F74206D616E61676572000000000000000000000000000000000000000000 PUSH1 0x44 DUP3 ADD MSTORE PUSH1 0x64 ADD PUSH2 0x549 JUMP JUMPDEST PUSH1 0x8 DUP1 SLOAD PUSH32 0xFFFFFFFFFFFFFFFFFFFFFFFF0000000000000000000000000000000000000000 AND PUSH20 0xFFFFFFFFFFFFFFFFFFFFFFFFFFFFFFFFFFFFFFFF SWAP3 SWAP1 SWAP3 AND SWAP2 SWAP1 SWAP2 OR SWAP1 SSTORE JUMP JUMPDEST PUSH1 0x0 SLOAD PUSH20 0xFFFFFFFFFFFFFFFFFFFFFFFFFFFFFFFFFFFFFFFF PUSH3 0x10000 SWAP1 SWAP2 DIV AND CALLER EQ PUSH2 0x1BC0 JUMPI PUSH1 0x40 MLOAD PUSH32 0x8C379A000000000000000000000000000000000000000000000000000000000 DUP2 MSTORE PUSH1 0x20 PUSH1 0x4 DUP3 ADD DUP2 SWAP1 MSTORE PUSH1 0x24 DUP3 ADD MSTORE PUSH32 0x4F776E61626C653A2063616C6C6572206973206E6F7420746865206F776E6572 PUSH1 0x44 DUP3 ADD MSTORE PUSH1 0x64 ADD PUSH2 0x549 JUMP JUMPDEST PUSH20 0xFFFFFFFFFFFFFFFFFFFFFFFFFFFFFFFFFFFFFFFF DUP3 AND PUSH1 0x0 DUP2 DUP2 MSTORE PUSH1 0x4 PUSH1 0x20 SWAP1 DUP2 MSTORE PUSH1 0x40 SWAP2 DUP3 SWAP1 KECCAK256 DUP1 SLOAD PUSH32 0xFFFFFFFFFFFFFFFFFFFFFFFFFFFFFFFFFFFFFFFFFFFFFFFFFFFFFFFFFFFFFF00 AND DUP6 ISZERO ISZERO SWAP1 DUP2 OR SWAP1 SWAP2 SSTORE DUP3 MLOAD CALLER DUP2 MSTORE SWAP2 DUP3 ADD SWAP4 SWAP1 SWAP4 MSTORE SWAP1 DUP2 ADD SWAP2 SWAP1 SWAP2 MSTORE PUSH32 0x2862B022F51FFEE932517D924C5103B3267A9D5D1F21BEC54356E328AAC24C18 SWAP1 PUSH1 0x60 ADD PUSH2 0x123E JUMP JUMPDEST CALLER PUSH1 0x0 SWAP1 DUP2 MSTORE PUSH1 0x4 PUSH1 0x20 MSTORE PUSH1 0x40 SWAP1 KECCAK256 SLOAD PUSH1 0xFF AND PUSH2 0x1CCC JUMPI PUSH1 0x40 MLOAD PUSH32 0x8C379A000000000000000000000000000000000000000000000000000000000 DUP2 MSTORE PUSH1 0x20 PUSH1 0x4 DUP3 ADD MSTORE PUSH1 0xB PUSH1 0x24 DUP3 ADD MSTORE PUSH32 0x4E6F74206D616E61676572000000000000000000000000000000000000000000 PUSH1 0x44 DUP3 ADD MSTORE PUSH1 0x64 ADD PUSH2 0x549 JUMP JUMPDEST PUSH1 0x0 DUP1 SLOAD SWAP2 ISZERO ISZERO PUSH2 0x100 MUL PUSH32 0xFFFFFFFFFFFFFFFFFFFFFFFFFFFFFFFFFFFFFFFFFFFFFFFFFFFFFFFFFFFF00FF SWAP1 SWAP3 AND SWAP2 SWAP1 SWAP2 OR SWAP1 SSTORE JUMP JUMPDEST PUSH1 0x9 PUSH1 0x20 MSTORE DUP2 PUSH1 0x0 MSTORE PUSH1 0x40 PUSH1 0x0 KECCAK256 DUP2 DUP2 SLOAD DUP2 LT PUSH2 0x1D1F JUMPI PUSH1 0x0 DUP1 REVERT JUMPDEST SWAP1 PUSH1 0x0 MSTORE PUSH1 0x20 PUSH1 0x0 KECCAK256 SWAP1 PUSH1 0x20 SWAP2 DUP3 DUP3 DIV ADD SWAP2 SWAP1 MOD SWAP2 POP SWAP2 POP SWAP1 SLOAD SWAP1 PUSH2 0x100 EXP SWAP1 DIV PUSH1 0xFF AND DUP2 JUMP JUMPDEST CALLER PUSH1 0x0 SWAP1 DUP2 MSTORE PUSH1 0xB PUSH1 0x20 MSTORE PUSH1 0x40 DUP2 KECCAK256 SLOAD PUSH2 0x1D60 JUMPI POP PUSH1 0x0 SWAP1 JUMP JUMPDEST PUSH1 0x0 PUSH1 0x1 SLOAD GT PUSH2 0x1DCC JUMPI PUSH1 0x40 MLOAD PUSH32 0x8C379A000000000000000000000000000000000000000000000000000000000 DUP2 MSTORE PUSH1 0x20 PUSH1 0x4 DUP3 ADD MSTORE PUSH1 0x6 PUSH1 0x24 DUP3 ADD MSTORE PUSH32 0x6E6F742045540000000000000000000000000000000000000000000000000000 PUSH1 0x44 DUP3 ADD MSTORE PUSH1 0x64 ADD PUSH2 0x549 JUMP JUMPDEST PUSH1 0x0 DUP1 PUSH1 0x1 SLOAD TIMESTAMP PUSH2 0x1DDD SWAP2 SWAP1 PUSH2 0x25F1 JUMP JUMPDEST SWAP1 POP PUSH1 0x0 PUSH2 0x1DEE PUSH3 0x15180 DUP4 PUSH2 0x257B JUMP JUMPDEST CALLER PUSH1 0x0 SWAP1 DUP2 MSTORE PUSH1 0xB PUSH1 0x20 MSTORE PUSH1 0x40 DUP2 KECCAK256 SLOAD SWAP2 SWAP3 POP SWAP1 PUSH1 0x78 SWAP1 PUSH2 0x1E11 SWAP1 PUSH2 0xA28 PUSH2 0x25B4 JUMP JUMPDEST PUSH2 0x1E1B SWAP2 SWAP1 PUSH2 0x257B JUMP JUMPDEST SWAP1 POP PUSH1 0x1 DUP3 LT ISZERO DUP1 ISZERO PUSH2 0x1E92 JUMPI POP CALLER PUSH1 0x0 SWAP1 DUP2 MSTORE PUSH1 0x9 PUSH1 0x20 MSTORE PUSH1 0x40 DUP2 KECCAK256 DUP1 SLOAD SWAP1 SWAP2 SWAP1 PUSH2 0x1E70 JUMPI PUSH32 0x4E487B7100000000000000000000000000000000000000000000000000000000 PUSH1 0x0 MSTORE PUSH1 0x32 PUSH1 0x4 MSTORE PUSH1 0x24 PUSH1 0x0 REVERT JUMPDEST SWAP1 PUSH1 0x0 MSTORE PUSH1 0x20 PUSH1 0x0 KECCAK256 SWAP1 PUSH1 0x20 SWAP2 DUP3 DUP3 DIV ADD SWAP2 SWAP1 MOD SWAP1 SLOAD SWAP1 PUSH2 0x100 EXP SWAP1 DIV PUSH1 0xFF AND ISZERO JUMPDEST ISZERO PUSH2 0x1EB3 JUMPI PUSH2 0x2710 PUSH2 0x1EA6 DUP3 PUSH2 0x3E8 PUSH2 0x25B4 JUMP JUMPDEST PUSH2 0x1EB0 SWAP2 SWAP1 PUSH2 0x257B JUMP JUMPDEST SWAP4 POP JUMPDEST PUSH1 0x0 PUSH1 0x1E PUSH2 0x1EC2 PUSH1 0x1 DUP6 PUSH2 0x25F1 JUMP JUMPDEST PUSH2 0x1ECC SWAP2 SWAP1 PUSH2 0x257B JUMP JUMPDEST SWAP1 POP PUSH1 0xF DUP2 GT PUSH2 0x1EDC JUMPI DUP1 PUSH2 0x1EDF JUMP JUMPDEST PUSH1 0xF JUMPDEST SWAP1 POP PUSH1 0x1 JUMPDEST DUP2 DUP2 GT PUSH2 0x1F8F JUMPI CALLER PUSH1 0x0 SWAP1 DUP2 MSTORE PUSH1 0x9 PUSH1 0x20 MSTORE PUSH1 0x40 SWAP1 KECCAK256 DUP1 SLOAD DUP3 SWAP1 DUP2 LT PUSH2 0x1F33 JUMPI PUSH32 0x4E487B7100000000000000000000000000000000000000000000000000000000 PUSH1 0x0 MSTORE PUSH1 0x32 PUSH1 0x4 MSTORE PUSH1 0x24 PUSH1 0x0 REVERT JUMPDEST SWAP1 PUSH1 0x0 MSTORE PUSH1 0x20 PUSH1 0x0 KECCAK256 SWAP1 PUSH1 0x20 SWAP2 DUP3 DUP3 DIV ADD SWAP2 SWAP1 MOD SWAP1 SLOAD SWAP1 PUSH2 0x100 EXP SWAP1 DIV PUSH1 0xFF AND PUSH2 0x1F7D JUMPI PUSH2 0x2710 PUSH2 0x1F66 DUP5 PUSH2 0x258 PUSH2 0x25B4 JUMP JUMPDEST PUSH2 0x1F70 SWAP2 SWAP1 PUSH2 0x257B JUMP JUMPDEST PUSH2 0x1F7A SWAP1 DUP8 PUSH2 0x2563 JUMP JUMPDEST SWAP6 POP JUMPDEST DUP1 PUSH2 0x1F87 DUP2 PUSH2 0x2608 JUMP JUMPDEST SWAP2 POP POP PUSH2 0x1EE4 JUMP JUMPDEST POP SWAP4 SWAP6 SWAP5 POP POP POP POP POP JUMP JUMPDEST PUSH1 0x0 SLOAD PUSH20 0xFFFFFFFFFFFFFFFFFFFFFFFFFFFFFFFFFFFFFFFF PUSH3 0x10000 SWAP1 SWAP2 DIV AND CALLER EQ PUSH2 0x2022 JUMPI PUSH1 0x40 MLOAD PUSH32 0x8C379A000000000000000000000000000000000000000000000000000000000 DUP2 MSTORE PUSH1 0x20 PUSH1 0x4 DUP3 ADD DUP2 SWAP1 MSTORE PUSH1 0x24 DUP3 ADD MSTORE PUSH32 0x4F776E61626C653A2063616C6C6572206973206E6F7420746865206F776E6572 PUSH1 0x44 DUP3 ADD MSTORE PUSH1 0x64 ADD PUSH2 0x549 JUMP JUMPDEST PUSH20 0xFFFFFFFFFFFFFFFFFFFFFFFFFFFFFFFFFFFFFFFF DUP2 AND PUSH2 0x20C5 JUMPI PUSH1 0x40 MLOAD PUSH32 0x8C379A000000000000000000000000000000000000000000000000000000000 DUP2 MSTORE PUSH1 0x20 PUSH1 0x4 DUP3 ADD MSTORE PUSH1 0x26 PUSH1 0x24 DUP3 ADD MSTORE PUSH32 0x4F776E61626C653A206E6577206F776E657220697320746865207A65726F2061 PUSH1 0x44 DUP3 ADD MSTORE PUSH32 0x6464726573730000000000000000000000000000000000000000000000000000 PUSH1 0x64 DUP3 ADD MSTORE PUSH1 0x84 ADD PUSH2 0x549 JUMP JUMPDEST PUSH1 0x0 DUP1 SLOAD PUSH20 0xFFFFFFFFFFFFFFFFFFFFFFFFFFFFFFFFFFFFFFFF DUP4 DUP2 AND PUSH3 0x10000 DUP2 DUP2 MUL PUSH32 0xFFFFFFFFFFFFFFFFFFFF0000000000000000000000000000000000000000FFFF DUP6 AND OR SWAP1 SWAP5 SSTORE PUSH1 0x40 DUP1 MLOAD SWAP5 SWAP1 SWAP4 DIV SWAP1 SWAP2 AND DUP1 DUP5 MSTORE PUSH1 0x20 DUP5 ADD SWAP2 SWAP1 SWAP2 MSTORE SWAP2 PUSH32 0x8BE0079C531659141344CD1FD0A4F28419497F9722A3DAAFE3B4186F6B6457E0 SWAP2 ADD PUSH2 0x123E JUMP JUMPDEST CALLER PUSH1 0x0 SWAP1 DUP2 MSTORE PUSH1 0x4 PUSH1 0x20 MSTORE PUSH1 0x40 SWAP1 KECCAK256 SLOAD PUSH1 0xFF AND PUSH2 0x21C7 JUMPI PUSH1 0x40 MLOAD PUSH32 0x8C379A000000000000000000000000000000000000000000000000000000000 DUP2 MSTORE PUSH1 0x20 PUSH1 0x4 DUP3 ADD MSTORE PUSH1 0xB PUSH1 0x24 DUP3 ADD MSTORE PUSH32 0x4E6F74206D616E61676572000000000000000000000000000000000000000000 PUSH1 0x44 DUP3 ADD MSTORE PUSH1 0x64 ADD PUSH2 0x549 JUMP JUMPDEST PUSH1 0x7 DUP1 SLOAD PUSH32 0xFFFFFFFFFFFFFFFFFFFFFFFF0000000000000000000000000000000000000000 AND PUSH20 0xFFFFFFFFFFFFFFFFFFFFFFFFFFFFFFFFFFFFFFFF SWAP3 SWAP1 SWAP3 AND SWAP2 SWAP1 SWAP2 OR SWAP1 SSTORE JUMP JUMPDEST DUP3 DUP1 SLOAD DUP3 DUP3 SSTORE SWAP1 PUSH1 0x0 MSTORE PUSH1 0x20 PUSH1 0x0 KECCAK256 SWAP1 PUSH1 0x1F ADD PUSH1 0x20 SWAP1 DIV DUP2 ADD SWAP3 DUP3 ISZERO PUSH2 0x22A3 JUMPI SWAP2 PUSH1 0x20 MUL DUP3 ADD PUSH1 0x0 JUMPDEST DUP4 DUP3 GT ISZERO PUSH2 0x2274 JUMPI DUP4 MLOAD DUP4 DUP3 PUSH2 0x100 EXP DUP2 SLOAD DUP2 PUSH1 0xFF MUL NOT AND SWAP1 DUP4 ISZERO ISZERO MUL OR SWAP1 SSTORE POP SWAP3 PUSH1 0x20 ADD SWAP3 PUSH1 0x1 ADD PUSH1 0x20 DUP2 PUSH1 0x0 ADD DIV SWAP3 DUP4 ADD SWAP3 PUSH1 0x1 SUB MUL PUSH2 0x2237 JUMP JUMPDEST DUP1 ISZERO PUSH2 0x22A1 JUMPI DUP3 DUP2 PUSH2 0x100 EXP DUP2 SLOAD SWAP1 PUSH1 0xFF MUL NOT AND SWAP1 SSTORE PUSH1 0x1 ADD PUSH1 0x20 DUP2 PUSH1 0x0 ADD DIV SWAP3 DUP4 ADD SWAP3 PUSH1 0x1 SUB MUL PUSH2 0x2274 JUMP JUMPDEST POP JUMPDEST POP PUSH2 0x22AF SWAP3 SWAP2 POP PUSH2 0x22B3 JUMP JUMPDEST POP SWAP1 JUMP JUMPDEST JUMPDEST DUP1 DUP3 GT ISZERO PUSH2 0x22AF JUMPI PUSH1 0x0 DUP2 SSTORE PUSH1 0x1 ADD PUSH2 0x22B4 JUMP JUMPDEST DUP1 CALLDATALOAD PUSH20 0xFFFFFFFFFFFFFFFFFFFFFFFFFFFFFFFFFFFFFFFF DUP2 AND DUP2 EQ PUSH2 0x22EC JUMPI PUSH1 0x0 DUP1 REVERT JUMPDEST SWAP2 SWAP1 POP JUMP JUMPDEST PUSH1 0x0 DUP3 PUSH1 0x1F DUP4 ADD SLT PUSH2 0x2301 JUMPI DUP1 DUP2 REVERT JUMPDEST DUP2 CALLDATALOAD PUSH1 0x20 PUSH8 0xFFFFFFFFFFFFFFFF DUP1 DUP4 GT ISZERO PUSH2 0x231E JUMPI PUSH2 0x231E PUSH2 0x2670 JUMP JUMPDEST DUP3 PUSH1 0x5 SHL PUSH1 0x40 MLOAD PUSH32 0xFFFFFFFFFFFFFFFFFFFFFFFFFFFFFFFFFFFFFFFFFFFFFFFFFFFFFFFFFFFFFFE0 PUSH1 0x3F DUP4 ADD AND DUP2 ADD DUP2 DUP2 LT DUP5 DUP3 GT OR ISZERO PUSH2 0x2361 JUMPI PUSH2 0x2361 PUSH2 0x2670 JUMP JUMPDEST PUSH1 0x40 MSTORE DUP5 DUP2 MSTORE DUP4 DUP2 ADD SWAP3 POP DUP7 DUP5 ADD DUP3 DUP9 ADD DUP6 ADD DUP10 LT ISZERO PUSH2 0x237F JUMPI DUP7 DUP8 REVERT JUMPDEST DUP7 SWAP3 POP JUMPDEST DUP6 DUP4 LT ISZERO PUSH2 0x23A8 JUMPI PUSH2 0x2394 DUP2 PUSH2 0x22C8 JUMP JUMPDEST DUP5 MSTORE SWAP3 DUP5 ADD SWAP3 PUSH1 0x1 SWAP3 SWAP1 SWAP3 ADD SWAP2 DUP5 ADD PUSH2 0x2383 JUMP JUMPDEST POP SWAP8 SWAP7 POP POP POP POP POP POP POP JUMP JUMPDEST PUSH1 0x0 PUSH1 0x20 DUP3 DUP5 SUB SLT ISZERO PUSH2 0x23C5 JUMPI DUP1 DUP2 REVERT JUMPDEST PUSH2 0x23CE DUP3 PUSH2 0x22C8 JUMP JUMPDEST SWAP4 SWAP3 POP POP POP JUMP JUMPDEST PUSH1 0x0 DUP1 PUSH1 0x40 DUP4 DUP6 SUB SLT ISZERO PUSH2 0x23E7 JUMPI DUP1 DUP2 REVERT JUMPDEST PUSH2 0x23F0 DUP4 PUSH2 0x22C8 JUMP JUMPDEST SWAP2 POP PUSH1 0x20 DUP4 ADD CALLDATALOAD PUSH2 0x2400 DUP2 PUSH2 0x269F JUMP JUMPDEST DUP1 SWAP2 POP POP SWAP3 POP SWAP3 SWAP1 POP JUMP JUMPDEST PUSH1 0x0 DUP1 PUSH1 0x40 DUP4 DUP6 SUB SLT ISZERO PUSH2 0x241D JUMPI DUP2 DUP3 REVERT JUMPDEST PUSH2 0x2426 DUP4 PUSH2 0x22C8 JUMP JUMPDEST SWAP5 PUSH1 0x20 SWAP4 SWAP1 SWAP4 ADD CALLDATALOAD SWAP4 POP POP POP JUMP JUMPDEST PUSH1 0x0 DUP1 PUSH1 0x40 DUP4 DUP6 SUB SLT ISZERO PUSH2 0x2446 JUMPI DUP2 DUP3 REVERT JUMPDEST DUP3 CALLDATALOAD PUSH8 0xFFFFFFFFFFFFFFFF DUP1 DUP3 GT ISZERO PUSH2 0x245D JUMPI DUP4 DUP5 REVERT JUMPDEST PUSH2 0x2469 DUP7 DUP4 DUP8 ADD PUSH2 0x22F1 JUMP JUMPDEST SWAP4 POP PUSH1 0x20 DUP6 ADD CALLDATALOAD SWAP2 POP DUP1 DUP3 GT ISZERO PUSH2 0x247E JUMPI DUP3 DUP4 REVERT JUMPDEST POP PUSH2 0x248B DUP6 DUP3 DUP7 ADD PUSH2 0x22F1 JUMP JUMPDEST SWAP2 POP POP SWAP3 POP SWAP3 SWAP1 POP JUMP JUMPDEST PUSH1 0x0 PUSH1 0x20 DUP3 DUP5 SUB SLT ISZERO PUSH2 0x24A6 JUMPI DUP1 DUP2 REVERT JUMPDEST DUP2 CALLDATALOAD PUSH2 0x23CE DUP2 PUSH2 0x269F JUMP JUMPDEST PUSH1 0x0 PUSH1 0x20 DUP3 DUP5 SUB SLT ISZERO PUSH2 0x24C2 JUMPI DUP1 DUP2 REVERT JUMPDEST DUP2 MLOAD PUSH2 0x23CE DUP2 PUSH2 0x269F JUMP JUMPDEST PUSH1 0x0 PUSH1 0x20 DUP3 DUP5 SUB SLT ISZERO PUSH2 0x24DE JUMPI DUP1 DUP2 REVERT JUMPDEST POP CALLDATALOAD SWAP2 SWAP1 POP JUMP JUMPDEST PUSH1 0x0 DUP2 MLOAD DUP1 DUP5 MSTORE PUSH1 0x20 DUP1 DUP6 ADD SWAP5 POP DUP1 DUP5 ADD DUP4 JUMPDEST DUP4 DUP2 LT ISZERO PUSH2 0x252A JUMPI DUP2 MLOAD PUSH20 0xFFFFFFFFFFFFFFFFFFFFFFFFFFFFFFFFFFFFFFFF AND DUP8 MSTORE SWAP6 DUP3 ADD SWAP6 SWAP1 DUP3 ADD SWAP1 PUSH1 0x1 ADD PUSH2 0x24F8 JUMP JUMPDEST POP SWAP5 SWAP6 SWAP5 POP POP POP POP POP JUMP JUMPDEST PUSH1 0x40 DUP2 MSTORE PUSH1 0x0 PUSH2 0x2548 PUSH1 0x40 DUP4 ADD DUP6 PUSH2 0x24E5 JUMP JUMPDEST DUP3 DUP2 SUB PUSH1 0x20 DUP5 ADD MSTORE PUSH2 0x255A DUP2 DUP6 PUSH2 0x24E5 JUMP JUMPDEST SWAP6 SWAP5 POP POP POP POP POP JUMP JUMPDEST PUSH1 0x0 DUP3 NOT DUP3 GT ISZERO PUSH2 0x2576 JUMPI PUSH2 0x2576 PUSH2 0x2641 JUMP JUMPDEST POP ADD SWAP1 JUMP JUMPDEST PUSH1 0x0 DUP3 PUSH2 0x25AF JUMPI PUSH32 0x4E487B7100000000000000000000000000000000000000000000000000000000 DUP2 MSTORE PUSH1 0x12 PUSH1 0x4 MSTORE PUSH1 0x24 DUP2 REVERT JUMPDEST POP DIV SWAP1 JUMP JUMPDEST PUSH1 0x0 DUP2 PUSH32 0xFFFFFFFFFFFFFFFFFFFFFFFFFFFFFFFFFFFFFFFFFFFFFFFFFFFFFFFFFFFFFFFF DIV DUP4 GT DUP3 ISZERO ISZERO AND ISZERO PUSH2 0x25EC JUMPI PUSH2 0x25EC PUSH2 0x2641 JUMP JUMPDEST POP MUL SWAP1 JUMP JUMPDEST PUSH1 0x0 DUP3 DUP3 LT ISZERO PUSH2 0x2603 JUMPI PUSH2 0x2603 PUSH2 0x2641 JUMP JUMPDEST POP SUB SWAP1 JUMP JUMPDEST PUSH1 0x0 PUSH32 0xFFFFFFFFFFFFFFFFFFFFFFFFFFFFFFFFFFFFFFFFFFFFFFFFFFFFFFFFFFFFFFFF DUP3 EQ ISZERO PUSH2 0x263A JUMPI PUSH2 0x263A PUSH2 0x2641 JUMP JUMPDEST POP PUSH1 0x1 ADD SWAP1 JUMP JUMPDEST PUSH32 0x4E487B7100000000000000000000000000000000000000000000000000000000 PUSH1 0x0 MSTORE PUSH1 0x11 PUSH1 0x4 MSTORE PUSH1 0x24 PUSH1 0x0 REVERT JUMPDEST PUSH32 0x4E487B7100000000000000000000000000000000000000000000000000000000 PUSH1 0x0 MSTORE PUSH1 0x41 PUSH1 0x4 MSTORE PUSH1 0x24 PUSH1 0x0 REVERT JUMPDEST DUP1 ISZERO ISZERO DUP2 EQ PUSH2 0x1A75 JUMPI PUSH1 0x0 DUP1 REVERT INVALID LOG2 PUSH5 0x6970667358 0x22 SLT KECCAK256 RETURN PUSH1 0xE6 PUSH18 0xDA4724189EFD896F420421A90C575FF583CF 0xB1 0xDE ISZERO PUSH32 0xBF0CF105A33864736F6C63430008040033000000000000000000000000000000 "
				},
				"gasEstimates": {
					"creation": {
						"codeDepositCost": "1991000",
						"executionCost": "infinite",
						"totalCost": "infinite"
					},
					"external": {
						"IDOAddress()": "1080",
						"_IDOUsdt(uint256)": "infinite",
						"_addRelation(address[],address[])": "infinite",
						"allowET(address)": "infinite",
						"awaitWithdraw(address)": "1308",
						"endTime()": "1052",
						"etCoin()": "1124",
						"etNft()": "1081",
						"getWithDraw()": "infinite",
						"isManager(address)": "1285",
						"isOpenIdo()": "1121",
						"isOpenOne()": "1120",
						"isOpenTwo()": "1067",
						"lb(address,uint256)": "3842",
						"number()": "1073",
						"openOpenIdo(bool)": "22101",
						"openOpenOne(bool)": "22056",
						"openOpenTwo(bool)": "22114",
						"owner()": "1064",
						"relationAmount(address)": "1307",
						"setETCoin(address)": "22113",
						"setEndTime()": "23220",
						"setManager(address,bool)": "23821",
						"setNFT(address)": "22111",
						"teamAmount(address)": "1308",
						"totalSupply()": "1053",
						"transferOwnership(address)": "23428",
						"usdt()": "1059",
						"userIDO(address)": "1308",
						"userRelation(address)": "1289",
						"withdraw()": "infinite"
					}
				},
				"methodIdentifiers": {
					"IDOAddress()": "c6b24c1c",
					"_IDOUsdt(uint256)": "0e73d199",
					"_addRelation(address[],address[])": "238c4c2f",
					"allowET(address)": "918a6283",
					"awaitWithdraw(address)": "a3f82c2c",
					"endTime()": "3197cbb6",
					"etCoin()": "8b9272b7",
					"etNft()": "68da5e8e",
					"getWithDraw()": "ef7a47fa",
					"isManager(address)": "f3ae2415",
					"isOpenIdo()": "ce75710c",
					"isOpenOne()": "fb066531",
					"isOpenTwo()": "5db98f2d",
					"lb(address,uint256)": "d3b91f7a",
					"number()": "8381f58a",
					"openOpenIdo(bool)": "6a15915a",
					"openOpenOne(bool)": "6c68ec69",
					"openOpenTwo(bool)": "ca5cc206",
					"owner()": "8da5cb5b",
					"relationAmount(address)": "f06b41e3",
					"setETCoin(address)": "965ed465",
					"setEndTime()": "76be6af6",
					"setManager(address,bool)": "a5e90eee",
					"setNFT(address)": "f56e9c66",
					"teamAmount(address)": "4e876f5c",
					"totalSupply()": "18160ddd",
					"transferOwnership(address)": "f2fde38b",
					"usdt()": "2f48ab7d",
					"userIDO(address)": "6a41d5d7",
					"userRelation(address)": "e72ebdb7",
					"withdraw()": "3ccfd60b"
				}
			},
			"storageLayout": {
				"storage": [
					{
						"astId": 610,
						"contract": "CoinIdo.sol:CoinIdo",
						"label": "isOpenOne",
						"offset": 0,
						"slot": "0",
						"type": "t_bool"
					},
					{
						"astId": 612,
						"contract": "CoinIdo.sol:CoinIdo",
						"label": "isOpenTwo",
						"offset": 1,
						"slot": "0",
						"type": "t_bool"
					},
					{
						"astId": 614,
						"contract": "CoinIdo.sol:CoinIdo",
						"label": "_owner",
						"offset": 2,
						"slot": "0",
						"type": "t_address"
					},
					{
						"astId": 616,
						"contract": "CoinIdo.sol:CoinIdo",
						"label": "endTime",
						"offset": 0,
						"slot": "1",
						"type": "t_uint256"
					},
					{
						"astId": 618,
						"contract": "CoinIdo.sol:CoinIdo",
						"label": "totalSupply",
						"offset": 0,
						"slot": "2",
						"type": "t_uint256"
					},
					{
						"astId": 620,
						"contract": "CoinIdo.sol:CoinIdo",
						"label": "number",
						"offset": 0,
						"slot": "3",
						"type": "t_uint256"
					},
					{
						"astId": 624,
						"contract": "CoinIdo.sol:CoinIdo",
						"label": "isManager",
						"offset": 0,
						"slot": "4",
						"type": "t_mapping(t_address,t_bool)"
					},
					{
						"astId": 626,
						"contract": "CoinIdo.sol:CoinIdo",
						"label": "IDOAddress",
						"offset": 0,
						"slot": "5",
						"type": "t_address"
					},
					{
						"astId": 629,
						"contract": "CoinIdo.sol:CoinIdo",
						"label": "usdt",
						"offset": 0,
						"slot": "6",
						"type": "t_contract(IERC20)1643"
					},
					{
						"astId": 632,
						"contract": "CoinIdo.sol:CoinIdo",
						"label": "etNft",
						"offset": 0,
						"slot": "7",
						"type": "t_contract(IETNFT)608"
					},
					{
						"astId": 635,
						"contract": "CoinIdo.sol:CoinIdo",
						"label": "etCoin",
						"offset": 0,
						"slot": "8",
						"type": "t_contract(IERC20)1643"
					},
					{
						"astId": 640,
						"contract": "CoinIdo.sol:CoinIdo",
						"label": "lb",
						"offset": 0,
						"slot": "9",
						"type": "t_mapping(t_address,t_array(t_bool)dyn_storage)"
					},
					{
						"astId": 644,
						"contract": "CoinIdo.sol:CoinIdo",
						"label": "userRelation",
						"offset": 0,
						"slot": "10",
						"type": "t_mapping(t_address,t_address)"
					},
					{
						"astId": 648,
						"contract": "CoinIdo.sol:CoinIdo",
						"label": "userIDO",
						"offset": 0,
						"slot": "11",
						"type": "t_mapping(t_address,t_uint256)"
					},
					{
						"astId": 652,
						"contract": "CoinIdo.sol:CoinIdo",
						"label": "relationAmount",
						"offset": 0,
						"slot": "12",
						"type": "t_mapping(t_address,t_uint256)"
					},
					{
						"astId": 656,
						"contract": "CoinIdo.sol:CoinIdo",
						"label": "teamAmount",
						"offset": 0,
						"slot": "13",
						"type": "t_mapping(t_address,t_uint256)"
					},
					{
						"astId": 660,
						"contract": "CoinIdo.sol:CoinIdo",
						"label": "awaitWithdraw",
						"offset": 0,
						"slot": "14",
						"type": "t_mapping(t_address,t_uint256)"
					},
					{
						"astId": 665,
						"contract": "CoinIdo.sol:CoinIdo",
						"label": "base",
						"offset": 0,
						"slot": "15",
						"type": "t_uint256"
					},
					{
						"astId": 667,
						"contract": "CoinIdo.sol:CoinIdo",
						"label": "isOpenIdo",
						"offset": 0,
						"slot": "16",
						"type": "t_bool"
					}
				],
				"types": {
					"t_address": {
						"encoding": "inplace",
						"label": "address",
						"numberOfBytes": "20"
					},
					"t_array(t_bool)dyn_storage": {
						"base": "t_bool",
						"encoding": "dynamic_array",
						"label": "bool[]",
						"numberOfBytes": "32"
					},
					"t_bool": {
						"encoding": "inplace",
						"label": "bool",
						"numberOfBytes": "1"
					},
					"t_contract(IERC20)1643": {
						"encoding": "inplace",
						"label": "contract IERC20",
						"numberOfBytes": "20"
					},
					"t_contract(IETNFT)608": {
						"encoding": "inplace",
						"label": "contract IETNFT",
						"numberOfBytes": "20"
					},
					"t_mapping(t_address,t_address)": {
						"encoding": "mapping",
						"key": "t_address",
						"label": "mapping(address => address)",
						"numberOfBytes": "32",
						"value": "t_address"
					},
					"t_mapping(t_address,t_array(t_bool)dyn_storage)": {
						"encoding": "mapping",
						"key": "t_address",
						"label": "mapping(address => bool[])",
						"numberOfBytes": "32",
						"value": "t_array(t_bool)dyn_storage"
					},
					"t_mapping(t_address,t_bool)": {
						"encoding": "mapping",
						"key": "t_address",
						"label": "mapping(address => bool)",
						"numberOfBytes": "32",
						"value": "t_bool"
					},
					"t_mapping(t_address,t_uint256)": {
						"encoding": "mapping",
						"key": "t_address",
						"label": "mapping(address => uint256)",
						"numberOfBytes": "32",
						"value": "t_uint256"
					},
					"t_uint256": {
						"encoding": "inplace",
						"label": "uint256",
						"numberOfBytes": "32"
					}
				}
			},
			"userdoc": {
				"kind": "user",
				"methods": {},
				"version": 1
			}
		}
	}
}