{
	"CoinIdo.sol": {
		"CoinIdo": {
			"abi": [
				{
					"inputs": [
						{
							"internalType": "address",
							"name": "_address",
							"type": "address"
						},
						{
							"internalType": "address",
							"name": "_usdt",
							"type": "address"
						}
					],
					"stateMutability": "nonpayable",
					"type": "constructor"
				},
				{
					"anonymous": false,
					"inputs": [
						{
							"indexed": false,
							"internalType": "address[]",
							"name": "addressFrom",
							"type": "address[]"
						},
						{
							"indexed": false,
							"internalType": "address[]",
							"name": "addressTo",
							"type": "address[]"
						}
					],
					"name": "AddRelation",
					"type": "event"
				},
				{
					"anonymous": false,
					"inputs": [
						{
							"indexed": false,
							"internalType": "address",
							"name": "from",
							"type": "address"
						},
						{
							"indexed": false,
							"internalType": "uint256",
							"name": "value",
							"type": "uint256"
						}
					],
					"name": "IDOUsdt",
					"type": "event"
				},
				{
					"inputs": [],
					"name": "IDOAddress",
					"outputs": [
						{
							"internalType": "address",
							"name": "",
							"type": "address"
						}
					],
					"stateMutability": "view",
					"type": "function"
				},
				{
					"inputs": [
						{
							"internalType": "address",
							"name": "from",
							"type": "address"
						},
						{
							"internalType": "uint256",
							"name": "value",
							"type": "uint256"
						}
					],
					"name": "_IDOUsdt",
					"outputs": [],
					"stateMutability": "nonpayable",
					"type": "function"
				},
				{
					"inputs": [
						{
							"internalType": "address[]",
							"name": "addressFrom",
							"type": "address[]"
						},
						{
							"internalType": "address[]",
							"name": "addressTo",
							"type": "address[]"
						}
					],
					"name": "_addRelation",
					"outputs": [],
					"stateMutability": "nonpayable",
					"type": "function"
				},
				{
					"inputs": [
						{
							"internalType": "address",
							"name": "_address",
							"type": "address"
						}
					],
					"name": "allowET",
					"outputs": [],
					"stateMutability": "nonpayable",
					"type": "function"
				},
				{
					"inputs": [
						{
							"internalType": "bool",
							"name": "_flag",
							"type": "bool"
						}
					],
					"name": "closeOpenOne",
					"outputs": [],
					"stateMutability": "nonpayable",
					"type": "function"
				},
				{
					"inputs": [
						{
							"internalType": "bool",
							"name": "_flag",
							"type": "bool"
						}
					],
					"name": "closeOpenTwo",
					"outputs": [],
					"stateMutability": "nonpayable",
					"type": "function"
				},
				{
					"inputs": [],
					"name": "endTime",
					"outputs": [
						{
							"internalType": "uint256",
							"name": "",
							"type": "uint256"
						}
					],
					"stateMutability": "view",
					"type": "function"
				},
				{
					"inputs": [],
					"name": "getET",
					"outputs": [],
					"stateMutability": "nonpayable",
					"type": "function"
				},
				{
					"inputs": [
						{
							"internalType": "address",
							"name": "",
							"type": "address"
						}
					],
					"name": "isManager",
					"outputs": [
						{
							"internalType": "bool",
							"name": "",
							"type": "bool"
						}
					],
					"stateMutability": "view",
					"type": "function"
				},
				{
					"inputs": [],
					"name": "isOpenOne",
					"outputs": [
						{
							"internalType": "bool",
							"name": "",
							"type": "bool"
						}
					],
					"stateMutability": "view",
					"type": "function"
				},
				{
					"inputs": [],
					"name": "isOpenTwo",
					"outputs": [
						{
							"internalType": "bool",
							"name": "",
							"type": "bool"
						}
					],
					"stateMutability": "view",
					"type": "function"
				},
				{
					"inputs": [],
					"name": "owner",
					"outputs": [
						{
							"internalType": "address",
							"name": "",
							"type": "address"
						}
					],
					"stateMutability": "view",
					"type": "function"
				},
				{
					"inputs": [
						{
							"internalType": "address",
							"name": "",
							"type": "address"
						}
					],
					"name": "relationAmount",
					"outputs": [
						{
							"internalType": "uint256",
							"name": "",
							"type": "uint256"
						}
					],
					"stateMutability": "view",
					"type": "function"
				},
				{
					"inputs": [
						{
							"internalType": "address",
							"name": "_address",
							"type": "address"
						}
					],
					"name": "setETCoin",
					"outputs": [],
					"stateMutability": "nonpayable",
					"type": "function"
				},
				{
					"inputs": [],
					"name": "setEndTime",
					"outputs": [],
					"stateMutability": "nonpayable",
					"type": "function"
				},
				{
					"inputs": [
						{
							"internalType": "address",
							"name": "_manager",
							"type": "address"
						},
						{
							"internalType": "bool",
							"name": "_flag",
							"type": "bool"
						}
					],
					"name": "setManager",
					"outputs": [],
					"stateMutability": "nonpayable",
					"type": "function"
				},
				{
					"inputs": [
						{
							"internalType": "address",
							"name": "_address",
							"type": "address"
						}
					],
					"name": "setNFT",
					"outputs": [],
					"stateMutability": "nonpayable",
					"type": "function"
				},
				{
					"inputs": [],
					"name": "totalSupply",
					"outputs": [
						{
							"internalType": "uint256",
							"name": "",
							"type": "uint256"
						}
					],
					"stateMutability": "view",
					"type": "function"
				},
				{
					"inputs": [
						{
							"internalType": "address",
							"name": "",
							"type": "address"
						}
					],
					"name": "userIDO",
					"outputs": [
						{
							"internalType": "uint256",
							"name": "",
							"type": "uint256"
						}
					],
					"stateMutability": "view",
					"type": "function"
				},
				{
					"inputs": [
						{
							"internalType": "address",
							"name": "",
							"type": "address"
						}
					],
					"name": "userRelation",
					"outputs": [
						{
							"internalType": "address",
							"name": "",
							"type": "address"
						}
					],
					"stateMutability": "view",
					"type": "function"
				}
			],
			"devdoc": {
				"kind": "dev",
				"methods": {},
				"version": 1
			},
			"evm": {
				"assembly": "    /* \"CoinIdo.sol\":229:4495  contract CoinIdo{ \r... */\n  mstore(0x40, 0x80)\n    /* \"CoinIdo.sol\":800:962  constructor(address _address,address _usdt){\r... */\n  callvalue\n  dup1\n  iszero\n  tag_1\n  jumpi\n  0x00\n  dup1\n  revert\ntag_1:\n  pop\n  mload(0x40)\n  sub(codesize, bytecodeSize)\n  dup1\n  bytecodeSize\n  dup4\n  codecopy\n  dup2\n  dup2\n  add\n  0x40\n  mstore\n  dup2\n  add\n  swap1\n  tag_2\n  swap2\n  swap1\n  tag_3\n  jump\t// in\ntag_2:\n    /* \"CoinIdo.sol\":864:868  true */\n  0x01\n    /* \"CoinIdo.sol\":854:863  isOpenOne */\n  0x00\n  dup1\n    /* \"CoinIdo.sol\":854:868  isOpenOne=true */\n  0x0100\n  exp\n  dup2\n  sload\n  dup2\n  0xff\n  mul\n  not\n  and\n  swap1\n  dup4\n  iszero\n  iszero\n  mul\n  or\n  swap1\n  sstore\n  pop\n    /* \"CoinIdo.sol\":889:893  true */\n  0x01\n    /* \"CoinIdo.sol\":879:888  isOpenTwo */\n  0x00\n  0x01\n    /* \"CoinIdo.sol\":879:893  isOpenTwo=true */\n  0x0100\n  exp\n  dup2\n  sload\n  dup2\n  0xff\n  mul\n  not\n  and\n  swap1\n  dup4\n  iszero\n  iszero\n  mul\n  or\n  swap1\n  sstore\n  pop\n    /* \"CoinIdo.sol\":915:923  _address */\n  dup2\n    /* \"CoinIdo.sol\":904:914  IDOAddress */\n  0x04\n  0x00\n    /* \"CoinIdo.sol\":904:923  IDOAddress=_address */\n  0x0100\n  exp\n  dup2\n  sload\n  dup2\n  0xffffffffffffffffffffffffffffffffffffffff\n  mul\n  not\n  and\n  swap1\n  dup4\n  0xffffffffffffffffffffffffffffffffffffffff\n  and\n  mul\n  or\n  swap1\n  sstore\n  pop\n    /* \"CoinIdo.sol\":948:953  _usdt */\n  dup1\n    /* \"CoinIdo.sol\":934:938  usdt */\n  0x05\n  0x00\n    /* \"CoinIdo.sol\":934:954  usdt = IERC20(_usdt) */\n  0x0100\n  exp\n  dup2\n  sload\n  dup2\n  0xffffffffffffffffffffffffffffffffffffffff\n  mul\n  not\n  and\n  swap1\n  dup4\n  0xffffffffffffffffffffffffffffffffffffffff\n  and\n  mul\n  or\n  swap1\n  sstore\n  pop\n    /* \"CoinIdo.sol\":800:962  constructor(address _address,address _usdt){\r... */\n  pop\n  pop\n    /* \"CoinIdo.sol\":229:4495  contract CoinIdo{ \r... */\n  jump(tag_6)\n    /* \"#utility.yul\":7:150   */\ntag_8:\n    /* \"#utility.yul\":64:69   */\n  0x00\n    /* \"#utility.yul\":95:101   */\n  dup2\n    /* \"#utility.yul\":89:102   */\n  mload\n    /* \"#utility.yul\":80:102   */\n  swap1\n  pop\n    /* \"#utility.yul\":111:144   */\n  tag_10\n    /* \"#utility.yul\":138:143   */\n  dup2\n    /* \"#utility.yul\":111:144   */\n  tag_11\n  jump\t// in\ntag_10:\n    /* \"#utility.yul\":7:150   */\n  swap3\n  swap2\n  pop\n  pop\n  jump\t// out\n    /* \"#utility.yul\":156:663   */\ntag_3:\n    /* \"#utility.yul\":235:241   */\n  0x00\n    /* \"#utility.yul\":243:249   */\n  dup1\n    /* \"#utility.yul\":292:294   */\n  0x40\n    /* \"#utility.yul\":280:289   */\n  dup4\n    /* \"#utility.yul\":271:278   */\n  dup6\n    /* \"#utility.yul\":267:290   */\n  sub\n    /* \"#utility.yul\":263:295   */\n  slt\n    /* \"#utility.yul\":260:379   */\n  iszero\n  tag_13\n  jumpi\n    /* \"#utility.yul\":298:377   */\n  tag_14\n  tag_15\n  jump\t// in\ntag_14:\n    /* \"#utility.yul\":260:379   */\ntag_13:\n    /* \"#utility.yul\":418:419   */\n  0x00\n    /* \"#utility.yul\":443:507   */\n  tag_16\n    /* \"#utility.yul\":499:506   */\n  dup6\n    /* \"#utility.yul\":490:496   */\n  dup3\n    /* \"#utility.yul\":479:488   */\n  dup7\n    /* \"#utility.yul\":475:497   */\n  add\n    /* \"#utility.yul\":443:507   */\n  tag_8\n  jump\t// in\ntag_16:\n    /* \"#utility.yul\":433:507   */\n  swap3\n  pop\n    /* \"#utility.yul\":389:517   */\n  pop\n    /* \"#utility.yul\":556:558   */\n  0x20\n    /* \"#utility.yul\":582:646   */\n  tag_17\n    /* \"#utility.yul\":638:645   */\n  dup6\n    /* \"#utility.yul\":629:635   */\n  dup3\n    /* \"#utility.yul\":618:627   */\n  dup7\n    /* \"#utility.yul\":614:636   */\n  add\n    /* \"#utility.yul\":582:646   */\n  tag_8\n  jump\t// in\ntag_17:\n    /* \"#utility.yul\":572:646   */\n  swap2\n  pop\n    /* \"#utility.yul\":527:656   */\n  pop\n    /* \"#utility.yul\":156:663   */\n  swap3\n  pop\n  swap3\n  swap1\n  pop\n  jump\t// out\n    /* \"#utility.yul\":750:846   */\ntag_20:\n    /* \"#utility.yul\":787:794   */\n  0x00\n    /* \"#utility.yul\":816:840   */\n  tag_22\n    /* \"#utility.yul\":834:839   */\n  dup3\n    /* \"#utility.yul\":816:840   */\n  tag_23\n  jump\t// in\ntag_22:\n    /* \"#utility.yul\":805:840   */\n  swap1\n  pop\n    /* \"#utility.yul\":750:846   */\n  swap2\n  swap1\n  pop\n  jump\t// out\n    /* \"#utility.yul\":852:978   */\ntag_23:\n    /* \"#utility.yul\":889:896   */\n  0x00\n    /* \"#utility.yul\":929:971   */\n  0xffffffffffffffffffffffffffffffffffffffff\n    /* \"#utility.yul\":922:927   */\n  dup3\n    /* \"#utility.yul\":918:972   */\n  and\n    /* \"#utility.yul\":907:972   */\n  swap1\n  pop\n    /* \"#utility.yul\":852:978   */\n  swap2\n  swap1\n  pop\n  jump\t// out\n    /* \"#utility.yul\":1107:1224   */\ntag_15:\n    /* \"#utility.yul\":1216:1217   */\n  0x00\n    /* \"#utility.yul\":1213:1214   */\n  dup1\n    /* \"#utility.yul\":1206:1218   */\n  revert\n    /* \"#utility.yul\":1230:1352   */\ntag_11:\n    /* \"#utility.yul\":1303:1327   */\n  tag_29\n    /* \"#utility.yul\":1321:1326   */\n  dup2\n    /* \"#utility.yul\":1303:1327   */\n  tag_20\n  jump\t// in\ntag_29:\n    /* \"#utility.yul\":1296:1301   */\n  dup2\n    /* \"#utility.yul\":1293:1328   */\n  eq\n    /* \"#utility.yul\":1283:1346   */\n  tag_30\n  jumpi\n    /* \"#utility.yul\":1342:1343   */\n  0x00\n    /* \"#utility.yul\":1339:1340   */\n  dup1\n    /* \"#utility.yul\":1332:1344   */\n  revert\n    /* \"#utility.yul\":1283:1346   */\ntag_30:\n    /* \"#utility.yul\":1230:1352   */\n  pop\n  jump\t// out\n    /* \"CoinIdo.sol\":229:4495  contract CoinIdo{ \r... */\ntag_6:\n  dataSize(sub_0)\n  dup1\n  dataOffset(sub_0)\n  0x00\n  codecopy\n  0x00\n  return\nstop\n\nsub_0: assembly {\n        /* \"CoinIdo.sol\":229:4495  contract CoinIdo{ \r... */\n      mstore(0x40, 0x80)\n      callvalue\n      dup1\n      iszero\n      tag_1\n      jumpi\n      0x00\n      dup1\n      revert\n    tag_1:\n      pop\n      jumpi(tag_2, lt(calldatasize, 0x04))\n      shr(0xe0, calldataload(0x00))\n      dup1\n      0x965ed465\n      gt\n      tag_23\n      jumpi\n      dup1\n      0xe72ebdb7\n      gt\n      tag_24\n      jumpi\n      dup1\n      0xe72ebdb7\n      eq\n      tag_18\n      jumpi\n      dup1\n      0xf06b41e3\n      eq\n      tag_19\n      jumpi\n      dup1\n      0xf3ae2415\n      eq\n      tag_20\n      jumpi\n      dup1\n      0xf56e9c66\n      eq\n      tag_21\n      jumpi\n      dup1\n      0xfb066531\n      eq\n      tag_22\n      jumpi\n      jump(tag_2)\n    tag_24:\n      dup1\n      0x965ed465\n      eq\n      tag_13\n      jumpi\n      dup1\n      0x98269b6a\n      eq\n      tag_14\n      jumpi\n      dup1\n      0xa5e90eee\n      eq\n      tag_15\n      jumpi\n      dup1\n      0xb6dd3104\n      eq\n      tag_16\n      jumpi\n      dup1\n      0xc6b24c1c\n      eq\n      tag_17\n      jumpi\n      jump(tag_2)\n    tag_23:\n      dup1\n      0x6a41d5d7\n      gt\n      tag_25\n      jumpi\n      dup1\n      0x6a41d5d7\n      eq\n      tag_8\n      jumpi\n      dup1\n      0x76be6af6\n      eq\n      tag_9\n      jumpi\n      dup1\n      0x8da5cb5b\n      eq\n      tag_10\n      jumpi\n      dup1\n      0x8dd0abaa\n      eq\n      tag_11\n      jumpi\n      dup1\n      0x918a6283\n      eq\n      tag_12\n      jumpi\n      jump(tag_2)\n    tag_25:\n      dup1\n      0x18160ddd\n      eq\n      tag_3\n      jumpi\n      dup1\n      0x238c4c2f\n      eq\n      tag_4\n      jumpi\n      dup1\n      0x3197cbb6\n      eq\n      tag_5\n      jumpi\n      dup1\n      0x37b1a023\n      eq\n      tag_6\n      jumpi\n      dup1\n      0x5db98f2d\n      eq\n      tag_7\n      jumpi\n    tag_2:\n      0x00\n      dup1\n      revert\n        /* \"CoinIdo.sol\":386:412  uint256 public totalSupply */\n    tag_3:\n      tag_26\n      tag_27\n      jump\t// in\n    tag_26:\n      mload(0x40)\n      tag_28\n      swap2\n      swap1\n      tag_29\n      jump\t// in\n    tag_28:\n      mload(0x40)\n      dup1\n      swap2\n      sub\n      swap1\n      return\n        /* \"CoinIdo.sol\":2002:2418  function _addRelation(address[]memory addressFrom,address[]memory addressTo)public onlyManager{\r... */\n    tag_4:\n      tag_30\n      0x04\n      dup1\n      calldatasize\n      sub\n      dup2\n      add\n      swap1\n      tag_31\n      swap2\n      swap1\n      tag_32\n      jump\t// in\n    tag_31:\n      tag_33\n      jump\t// in\n    tag_30:\n      stop\n        /* \"CoinIdo.sol\":340:362  uint256 public endTime */\n    tag_5:\n      tag_34\n      tag_35\n      jump\t// in\n    tag_34:\n      mload(0x40)\n      tag_36\n      swap2\n      swap1\n      tag_29\n      jump\t// in\n    tag_36:\n      mload(0x40)\n      dup1\n      swap2\n      sub\n      swap1\n      return\n        /* \"CoinIdo.sol\":1707:1793  function closeOpenTwo(bool _flag) public onlyManager{\r... */\n    tag_6:\n      tag_37\n      0x04\n      dup1\n      calldatasize\n      sub\n      dup2\n      add\n      swap1\n      tag_38\n      swap2\n      swap1\n      tag_39\n      jump\t// in\n    tag_38:\n      tag_40\n      jump\t// in\n    tag_37:\n      stop\n        /* \"CoinIdo.sol\":283:304  bool public isOpenTwo */\n    tag_7:\n      tag_41\n      tag_42\n      jump\t// in\n    tag_41:\n      mload(0x40)\n      tag_43\n      swap2\n      swap1\n      tag_44\n      jump\t// in\n    tag_43:\n      mload(0x40)\n      dup1\n      swap2\n      sub\n      swap1\n      return\n        /* \"CoinIdo.sol\":668:704  mapping(address=>uint)public userIDO */\n    tag_8:\n      tag_45\n      0x04\n      dup1\n      calldatasize\n      sub\n      dup2\n      add\n      swap1\n      tag_46\n      swap2\n      swap1\n      tag_47\n      jump\t// in\n    tag_46:\n      tag_48\n      jump\t// in\n    tag_45:\n      mload(0x40)\n      tag_49\n      swap2\n      swap1\n      tag_29\n      jump\t// in\n    tag_49:\n      mload(0x40)\n      dup1\n      swap2\n      sub\n      swap1\n      return\n        /* \"CoinIdo.sol\":1799:1929  function setEndTime() public onlyManager{\r... */\n    tag_9:\n      tag_50\n      tag_51\n      jump\t// in\n    tag_50:\n      stop\n        /* \"CoinIdo.sol\":968:1055  function owner() public view virtual returns (address) {\r... */\n    tag_10:\n      tag_52\n      tag_53\n      jump\t// in\n    tag_52:\n      mload(0x40)\n      tag_54\n      swap2\n      swap1\n      tag_55\n      jump\t// in\n    tag_54:\n      mload(0x40)\n      dup1\n      swap2\n      sub\n      swap1\n      return\n        /* \"CoinIdo.sol\":2469:3619  function _IDOUsdt(address from,uint value)public {\r... */\n    tag_11:\n      tag_56\n      0x04\n      dup1\n      calldatasize\n      sub\n      dup2\n      add\n      swap1\n      tag_57\n      swap2\n      swap1\n      tag_58\n      jump\t// in\n    tag_57:\n      tag_59\n      jump\t// in\n    tag_56:\n      stop\n        /* \"CoinIdo.sol\":3625:3829  function allowET(address _address)public{\r... */\n    tag_12:\n      tag_60\n      0x04\n      dup1\n      calldatasize\n      sub\n      dup2\n      add\n      swap1\n      tag_61\n      swap2\n      swap1\n      tag_47\n      jump\t// in\n    tag_61:\n      tag_62\n      jump\t// in\n    tag_60:\n      stop\n        /* \"CoinIdo.sol\":1510:1609  function setETCoin(address _address) public onlyManager{\r... */\n    tag_13:\n      tag_63\n      0x04\n      dup1\n      calldatasize\n      sub\n      dup2\n      add\n      swap1\n      tag_64\n      swap2\n      swap1\n      tag_47\n      jump\t// in\n    tag_64:\n      tag_65\n      jump\t// in\n    tag_63:\n      stop\n        /* \"CoinIdo.sol\":3835:4492  function getET()public{\r... */\n    tag_14:\n      tag_66\n      tag_67\n      jump\t// in\n    tag_66:\n      stop\n        /* \"CoinIdo.sol\":1185:1298  function setManager(address _manager, bool _flag) public onlyOwner {\r... */\n    tag_15:\n      tag_68\n      0x04\n      dup1\n      calldatasize\n      sub\n      dup2\n      add\n      swap1\n      tag_69\n      swap2\n      swap1\n      tag_70\n      jump\t// in\n    tag_69:\n      tag_71\n      jump\t// in\n    tag_68:\n      stop\n        /* \"CoinIdo.sol\":1615:1701  function closeOpenOne(bool _flag) public onlyManager{\r... */\n    tag_16:\n      tag_72\n      0x04\n      dup1\n      calldatasize\n      sub\n      dup2\n      add\n      swap1\n      tag_73\n      swap2\n      swap1\n      tag_39\n      jump\t// in\n    tag_73:\n      tag_74\n      jump\t// in\n    tag_72:\n      stop\n        /* \"CoinIdo.sol\":478:503  address public IDOAddress */\n    tag_17:\n      tag_75\n      tag_76\n      jump\t// in\n    tag_75:\n      mload(0x40)\n      tag_77\n      swap2\n      swap1\n      tag_55\n      jump\t// in\n    tag_77:\n      mload(0x40)\n      dup1\n      swap2\n      sub\n      swap1\n      return\n        /* \"CoinIdo.sol\":601:645  mapping(address=>address)public userRelation */\n    tag_18:\n      tag_78\n      0x04\n      dup1\n      calldatasize\n      sub\n      dup2\n      add\n      swap1\n      tag_79\n      swap2\n      swap1\n      tag_47\n      jump\t// in\n    tag_79:\n      tag_80\n      jump\t// in\n    tag_78:\n      mload(0x40)\n      tag_81\n      swap2\n      swap1\n      tag_55\n      jump\t// in\n    tag_81:\n      mload(0x40)\n      dup1\n      swap2\n      sub\n      swap1\n      return\n        /* \"CoinIdo.sol\":730:773  mapping(address=>uint)public relationAmount */\n    tag_19:\n      tag_82\n      0x04\n      dup1\n      calldatasize\n      sub\n      dup2\n      add\n      swap1\n      tag_83\n      swap2\n      swap1\n      tag_47\n      jump\t// in\n    tag_83:\n      tag_84\n      jump\t// in\n    tag_82:\n      mload(0x40)\n      tag_85\n      swap2\n      swap1\n      tag_29\n      jump\t// in\n    tag_85:\n      mload(0x40)\n      dup1\n      swap2\n      sub\n      swap1\n      return\n        /* \"CoinIdo.sol\":427:468  mapping(address => bool) public isManager */\n    tag_20:\n      tag_86\n      0x04\n      dup1\n      calldatasize\n      sub\n      dup2\n      add\n      swap1\n      tag_87\n      swap2\n      swap1\n      tag_47\n      jump\t// in\n    tag_87:\n      tag_88\n      jump\t// in\n    tag_86:\n      mload(0x40)\n      tag_89\n      swap2\n      swap1\n      tag_44\n      jump\t// in\n    tag_89:\n      mload(0x40)\n      dup1\n      swap2\n      sub\n      swap1\n      return\n        /* \"CoinIdo.sol\":1409:1504  function setNFT(address _address) public onlyManager{\r... */\n    tag_21:\n      tag_90\n      0x04\n      dup1\n      calldatasize\n      sub\n      dup2\n      add\n      swap1\n      tag_91\n      swap2\n      swap1\n      tag_47\n      jump\t// in\n    tag_91:\n      tag_92\n      jump\t// in\n    tag_90:\n      stop\n        /* \"CoinIdo.sol\":255:276  bool public isOpenOne */\n    tag_22:\n      tag_93\n      tag_94\n      jump\t// in\n    tag_93:\n      mload(0x40)\n      tag_95\n      swap2\n      swap1\n      tag_44\n      jump\t// in\n    tag_95:\n      mload(0x40)\n      dup1\n      swap2\n      sub\n      swap1\n      return\n        /* \"CoinIdo.sol\":386:412  uint256 public totalSupply */\n    tag_27:\n      sload(0x02)\n      dup2\n      jump\t// out\n        /* \"CoinIdo.sol\":2002:2418  function _addRelation(address[]memory addressFrom,address[]memory addressTo)public onlyManager{\r... */\n    tag_33:\n        /* \"CoinIdo.sol\":1346:1355  isManager */\n      0x03\n        /* \"CoinIdo.sol\":1346:1367  isManager[msg.sender] */\n      0x00\n        /* \"CoinIdo.sol\":1356:1366  msg.sender */\n      caller\n        /* \"CoinIdo.sol\":1346:1367  isManager[msg.sender] */\n      0xffffffffffffffffffffffffffffffffffffffff\n      and\n      0xffffffffffffffffffffffffffffffffffffffff\n      and\n      dup2\n      mstore\n      0x20\n      add\n      swap1\n      dup2\n      mstore\n      0x20\n      add\n      0x00\n      keccak256\n      0x00\n      swap1\n      sload\n      swap1\n      0x0100\n      exp\n      swap1\n      div\n      0xff\n      and\n        /* \"CoinIdo.sol\":1338:1383  require(isManager[msg.sender], \"Not manager\") */\n      tag_97\n      jumpi\n      mload(0x40)\n      0x08c379a000000000000000000000000000000000000000000000000000000000\n      dup2\n      mstore\n      0x04\n      add\n      tag_98\n      swap1\n      tag_99\n      jump\t// in\n    tag_98:\n      mload(0x40)\n      dup1\n      swap2\n      sub\n      swap1\n      revert\n    tag_97:\n        /* \"CoinIdo.sol\":2135:2144  addressTo */\n      dup1\n        /* \"CoinIdo.sol\":2135:2151  addressTo.length */\n      mload\n        /* \"CoinIdo.sol\":2115:2126  addressFrom */\n      dup3\n        /* \"CoinIdo.sol\":2115:2133  addressFrom.length */\n      mload\n        /* \"CoinIdo.sol\":2115:2151  addressFrom.length==addressTo.length */\n      eq\n        /* \"CoinIdo.sol\":2107:2170  require(addressFrom.length==addressTo.length,\"length is wrong\") */\n      tag_101\n      jumpi\n      mload(0x40)\n      0x08c379a000000000000000000000000000000000000000000000000000000000\n      dup2\n      mstore\n      0x04\n      add\n      tag_102\n      swap1\n      tag_103\n      jump\t// in\n    tag_102:\n      mload(0x40)\n      dup1\n      swap2\n      sub\n      swap1\n      revert\n    tag_101:\n        /* \"CoinIdo.sol\":2185:2191  uint i */\n      0x00\n        /* \"CoinIdo.sol\":2181:2361  for(uint i=0; i<addressFrom.length; i++){\r... */\n    tag_104:\n        /* \"CoinIdo.sol\":2197:2208  addressFrom */\n      dup3\n        /* \"CoinIdo.sol\":2197:2215  addressFrom.length */\n      mload\n        /* \"CoinIdo.sol\":2195:2196  i */\n      dup2\n        /* \"CoinIdo.sol\":2195:2215  i<addressFrom.length */\n      lt\n        /* \"CoinIdo.sol\":2181:2361  for(uint i=0; i<addressFrom.length; i++){\r... */\n      iszero\n      tag_105\n      jumpi\n        /* \"CoinIdo.sol\":2269:2270  0 */\n      0x00\n        /* \"CoinIdo.sol\":2244:2271  addressFrom[i] !=address(0) */\n      0xffffffffffffffffffffffffffffffffffffffff\n      and\n        /* \"CoinIdo.sol\":2244:2255  addressFrom */\n      dup4\n        /* \"CoinIdo.sol\":2256:2257  i */\n      dup3\n        /* \"CoinIdo.sol\":2244:2258  addressFrom[i] */\n      dup2\n      mload\n      dup2\n      lt\n      tag_107\n      jumpi\n      tag_108\n      tag_109\n      jump\t// in\n    tag_108:\n    tag_107:\n      0x20\n      mul\n      0x20\n      add\n      add\n      mload\n        /* \"CoinIdo.sol\":2244:2271  addressFrom[i] !=address(0) */\n      0xffffffffffffffffffffffffffffffffffffffff\n      and\n      eq\n      iszero\n        /* \"CoinIdo.sol\":2236:2291  require(addressFrom[i] !=address(0),\"address is wrong\") */\n      tag_110\n      jumpi\n      mload(0x40)\n      0x08c379a000000000000000000000000000000000000000000000000000000000\n      dup2\n      mstore\n      0x04\n      add\n      tag_111\n      swap1\n      tag_112\n      jump\t// in\n    tag_111:\n      mload(0x40)\n      dup1\n      swap2\n      sub\n      swap1\n      revert\n    tag_110:\n        /* \"CoinIdo.sol\":2337:2346  addressTo */\n      dup2\n        /* \"CoinIdo.sol\":2347:2348  i */\n      dup2\n        /* \"CoinIdo.sol\":2337:2349  addressTo[i] */\n      dup2\n      mload\n      dup2\n      lt\n      tag_113\n      jumpi\n      tag_114\n      tag_109\n      jump\t// in\n    tag_114:\n    tag_113:\n      0x20\n      mul\n      0x20\n      add\n      add\n      mload\n        /* \"CoinIdo.sol\":2306:2318  userRelation */\n      0x09\n        /* \"CoinIdo.sol\":2306:2334  userRelation[addressFrom[i]] */\n      0x00\n        /* \"CoinIdo.sol\":2319:2330  addressFrom */\n      dup6\n        /* \"CoinIdo.sol\":2331:2332  i */\n      dup5\n        /* \"CoinIdo.sol\":2319:2333  addressFrom[i] */\n      dup2\n      mload\n      dup2\n      lt\n      tag_115\n      jumpi\n      tag_116\n      tag_109\n      jump\t// in\n    tag_116:\n    tag_115:\n      0x20\n      mul\n      0x20\n      add\n      add\n      mload\n        /* \"CoinIdo.sol\":2306:2334  userRelation[addressFrom[i]] */\n      0xffffffffffffffffffffffffffffffffffffffff\n      and\n      0xffffffffffffffffffffffffffffffffffffffff\n      and\n      dup2\n      mstore\n      0x20\n      add\n      swap1\n      dup2\n      mstore\n      0x20\n      add\n      0x00\n      keccak256\n      0x00\n        /* \"CoinIdo.sol\":2306:2349  userRelation[addressFrom[i]] = addressTo[i] */\n      0x0100\n      exp\n      dup2\n      sload\n      dup2\n      0xffffffffffffffffffffffffffffffffffffffff\n      mul\n      not\n      and\n      swap1\n      dup4\n      0xffffffffffffffffffffffffffffffffffffffff\n      and\n      mul\n      or\n      swap1\n      sstore\n      pop\n        /* \"CoinIdo.sol\":2217:2220  i++ */\n      dup1\n      dup1\n      tag_117\n      swap1\n      tag_118\n      jump\t// in\n    tag_117:\n      swap2\n      pop\n      pop\n        /* \"CoinIdo.sol\":2181:2361  for(uint i=0; i<addressFrom.length; i++){\r... */\n      jump(tag_104)\n    tag_105:\n      pop\n        /* \"CoinIdo.sol\":2376:2410  AddRelation(addressFrom,addressTo) */\n      0x1886f03d42b471bc8faf784e3878fce329e8e139473c601b8648de73b3380c02\n        /* \"CoinIdo.sol\":2388:2399  addressFrom */\n      dup3\n        /* \"CoinIdo.sol\":2400:2409  addressTo */\n      dup3\n        /* \"CoinIdo.sol\":2376:2410  AddRelation(addressFrom,addressTo) */\n      mload(0x40)\n      tag_119\n      swap3\n      swap2\n      swap1\n      tag_120\n      jump\t// in\n    tag_119:\n      mload(0x40)\n      dup1\n      swap2\n      sub\n      swap1\n      log1\n        /* \"CoinIdo.sol\":2002:2418  function _addRelation(address[]memory addressFrom,address[]memory addressTo)public onlyManager{\r... */\n      pop\n      pop\n      jump\t// out\n        /* \"CoinIdo.sol\":340:362  uint256 public endTime */\n    tag_35:\n      sload(0x01)\n      dup2\n      jump\t// out\n        /* \"CoinIdo.sol\":1707:1793  function closeOpenTwo(bool _flag) public onlyManager{\r... */\n    tag_40:\n        /* \"CoinIdo.sol\":1346:1355  isManager */\n      0x03\n        /* \"CoinIdo.sol\":1346:1367  isManager[msg.sender] */\n      0x00\n        /* \"CoinIdo.sol\":1356:1366  msg.sender */\n      caller\n        /* \"CoinIdo.sol\":1346:1367  isManager[msg.sender] */\n      0xffffffffffffffffffffffffffffffffffffffff\n      and\n      0xffffffffffffffffffffffffffffffffffffffff\n      and\n      dup2\n      mstore\n      0x20\n      add\n      swap1\n      dup2\n      mstore\n      0x20\n      add\n      0x00\n      keccak256\n      0x00\n      swap1\n      sload\n      swap1\n      0x0100\n      exp\n      swap1\n      div\n      0xff\n      and\n        /* \"CoinIdo.sol\":1338:1383  require(isManager[msg.sender], \"Not manager\") */\n      tag_122\n      jumpi\n      mload(0x40)\n      0x08c379a000000000000000000000000000000000000000000000000000000000\n      dup2\n      mstore\n      0x04\n      add\n      tag_123\n      swap1\n      tag_99\n      jump\t// in\n    tag_123:\n      mload(0x40)\n      dup1\n      swap2\n      sub\n      swap1\n      revert\n    tag_122:\n        /* \"CoinIdo.sol\":1780:1785  _flag */\n      dup1\n        /* \"CoinIdo.sol\":1770:1779  isOpenTwo */\n      0x00\n      0x01\n        /* \"CoinIdo.sol\":1770:1785  isOpenTwo=_flag */\n      0x0100\n      exp\n      dup2\n      sload\n      dup2\n      0xff\n      mul\n      not\n      and\n      swap1\n      dup4\n      iszero\n      iszero\n      mul\n      or\n      swap1\n      sstore\n      pop\n        /* \"CoinIdo.sol\":1707:1793  function closeOpenTwo(bool _flag) public onlyManager{\r... */\n      pop\n      jump\t// out\n        /* \"CoinIdo.sol\":283:304  bool public isOpenTwo */\n    tag_42:\n      0x00\n      0x01\n      swap1\n      sload\n      swap1\n      0x0100\n      exp\n      swap1\n      div\n      0xff\n      and\n      dup2\n      jump\t// out\n        /* \"CoinIdo.sol\":668:704  mapping(address=>uint)public userIDO */\n    tag_48:\n      mstore(0x20, 0x0a)\n      dup1\n      0x00\n      mstore\n      keccak256(0x00, 0x40)\n      0x00\n      swap2\n      pop\n      swap1\n      pop\n      sload\n      dup2\n      jump\t// out\n        /* \"CoinIdo.sol\":1799:1929  function setEndTime() public onlyManager{\r... */\n    tag_51:\n        /* \"CoinIdo.sol\":1346:1355  isManager */\n      0x03\n        /* \"CoinIdo.sol\":1346:1367  isManager[msg.sender] */\n      0x00\n        /* \"CoinIdo.sol\":1356:1366  msg.sender */\n      caller\n        /* \"CoinIdo.sol\":1346:1367  isManager[msg.sender] */\n      0xffffffffffffffffffffffffffffffffffffffff\n      and\n      0xffffffffffffffffffffffffffffffffffffffff\n      and\n      dup2\n      mstore\n      0x20\n      add\n      swap1\n      dup2\n      mstore\n      0x20\n      add\n      0x00\n      keccak256\n      0x00\n      swap1\n      sload\n      swap1\n      0x0100\n      exp\n      swap1\n      div\n      0xff\n      and\n        /* \"CoinIdo.sol\":1338:1383  require(isManager[msg.sender], \"Not manager\") */\n      tag_126\n      jumpi\n      mload(0x40)\n      0x08c379a000000000000000000000000000000000000000000000000000000000\n      dup2\n      mstore\n      0x04\n      add\n      tag_127\n      swap1\n      tag_99\n      jump\t// in\n    tag_127:\n      mload(0x40)\n      dup1\n      swap2\n      sub\n      swap1\n      revert\n    tag_126:\n        /* \"CoinIdo.sol\":1867:1868  0 */\n      0x00\n        /* \"CoinIdo.sol\":1858:1865  endTime */\n      sload(0x01)\n        /* \"CoinIdo.sol\":1858:1868  endTime==0 */\n      eq\n        /* \"CoinIdo.sol\":1850:1885  require(endTime==0,\"time is exist\") */\n      tag_129\n      jumpi\n      mload(0x40)\n      0x08c379a000000000000000000000000000000000000000000000000000000000\n      dup2\n      mstore\n      0x04\n      add\n      tag_130\n      swap1\n      tag_131\n      jump\t// in\n    tag_130:\n      mload(0x40)\n      dup1\n      swap2\n      sub\n      swap1\n      revert\n    tag_129:\n        /* \"CoinIdo.sol\":1906:1921  block.timestamp */\n      timestamp\n        /* \"CoinIdo.sol\":1896:1903  endTime */\n      0x01\n        /* \"CoinIdo.sol\":1896:1921  endTime = block.timestamp */\n      dup2\n      swap1\n      sstore\n      pop\n        /* \"CoinIdo.sol\":1799:1929  function setEndTime() public onlyManager{\r... */\n      jump\t// out\n        /* \"CoinIdo.sol\":968:1055  function owner() public view virtual returns (address) {\r... */\n    tag_53:\n        /* \"CoinIdo.sol\":1014:1021  address */\n      0x00\n        /* \"CoinIdo.sol\":1041:1047  _owner */\n      dup1\n      0x02\n      swap1\n      sload\n      swap1\n      0x0100\n      exp\n      swap1\n      div\n      0xffffffffffffffffffffffffffffffffffffffff\n      and\n        /* \"CoinIdo.sol\":1034:1047  return _owner */\n      swap1\n      pop\n        /* \"CoinIdo.sol\":968:1055  function owner() public view virtual returns (address) {\r... */\n      swap1\n      jump\t// out\n        /* \"CoinIdo.sol\":2469:3619  function _IDOUsdt(address from,uint value)public {\r... */\n    tag_59:\n        /* \"CoinIdo.sol\":2529:2540  uint amount */\n      0x00\n        /* \"CoinIdo.sol\":2544:2551  userIDO */\n      0x0a\n        /* \"CoinIdo.sol\":2544:2557  userIDO[from] */\n      0x00\n        /* \"CoinIdo.sol\":2552:2556  from */\n      dup5\n        /* \"CoinIdo.sol\":2544:2557  userIDO[from] */\n      0xffffffffffffffffffffffffffffffffffffffff\n      and\n      0xffffffffffffffffffffffffffffffffffffffff\n      and\n      dup2\n      mstore\n      0x20\n      add\n      swap1\n      dup2\n      mstore\n      0x20\n      add\n      0x00\n      keccak256\n      sload\n        /* \"CoinIdo.sol\":2529:2557  uint amount =  userIDO[from] */\n      swap1\n      pop\n        /* \"CoinIdo.sol\":2584:2588  2000 */\n      0x07d0\n        /* \"CoinIdo.sol\":2576:2582  amount */\n      dup2\n        /* \"CoinIdo.sol\":2576:2588  amount>=2000 */\n      lt\n      iszero\n        /* \"CoinIdo.sol\":2576:2609  amount>=2000 || amount+value>2000 */\n      dup1\n      tag_134\n      jumpi\n      pop\n        /* \"CoinIdo.sol\":2605:2609  2000 */\n      0x07d0\n        /* \"CoinIdo.sol\":2599:2604  value */\n      dup3\n        /* \"CoinIdo.sol\":2592:2598  amount */\n      dup3\n        /* \"CoinIdo.sol\":2592:2604  amount+value */\n      tag_135\n      swap2\n      swap1\n      tag_136\n      jump\t// in\n    tag_135:\n        /* \"CoinIdo.sol\":2592:2609  amount+value>2000 */\n      gt\n        /* \"CoinIdo.sol\":2576:2609  amount>=2000 || amount+value>2000 */\n    tag_134:\n        /* \"CoinIdo.sol\":2568:2620  require(amount>=2000 || amount+value>2000,\"not IDO\") */\n      tag_137\n      jumpi\n      mload(0x40)\n      0x08c379a000000000000000000000000000000000000000000000000000000000\n      dup2\n      mstore\n      0x04\n      add\n      tag_138\n      swap1\n      tag_139\n      jump\t// in\n    tag_138:\n      mload(0x40)\n      dup1\n      swap2\n      sub\n      swap1\n      revert\n    tag_137:\n        /* \"CoinIdo.sol\":2631:2654  address lastLevelAddres */\n      0x00\n        /* \"CoinIdo.sol\":2657:2669  userRelation */\n      0x09\n        /* \"CoinIdo.sol\":2657:2675  userRelation[from] */\n      0x00\n        /* \"CoinIdo.sol\":2670:2674  from */\n      dup6\n        /* \"CoinIdo.sol\":2657:2675  userRelation[from] */\n      0xffffffffffffffffffffffffffffffffffffffff\n      and\n      0xffffffffffffffffffffffffffffffffffffffff\n      and\n      dup2\n      mstore\n      0x20\n      add\n      swap1\n      dup2\n      mstore\n      0x20\n      add\n      0x00\n      keccak256\n      0x00\n      swap1\n      sload\n      swap1\n      0x0100\n      exp\n      swap1\n      div\n      0xffffffffffffffffffffffffffffffffffffffff\n      and\n        /* \"CoinIdo.sol\":2631:2675  address lastLevelAddres = userRelation[from] */\n      swap1\n      pop\n        /* \"CoinIdo.sol\":2715:2716  0 */\n      0x00\n        /* \"CoinIdo.sol\":2689:2717  lastLevelAddres !=address(0) */\n      0xffffffffffffffffffffffffffffffffffffffff\n      and\n        /* \"CoinIdo.sol\":2689:2704  lastLevelAddres */\n      dup2\n        /* \"CoinIdo.sol\":2689:2717  lastLevelAddres !=address(0) */\n      0xffffffffffffffffffffffffffffffffffffffff\n      and\n      eq\n        /* \"CoinIdo.sol\":2686:3208  if(lastLevelAddres !=address(0)){\r... */\n      tag_140\n      jumpi\n        /* \"CoinIdo.sol\":2761:2762  0 */\n      0x00\n        /* \"CoinIdo.sol\":2736:2743  userIDO */\n      0x0a\n        /* \"CoinIdo.sol\":2736:2760  userIDO[lastLevelAddres] */\n      0x00\n        /* \"CoinIdo.sol\":2744:2759  lastLevelAddres */\n      dup4\n        /* \"CoinIdo.sol\":2736:2760  userIDO[lastLevelAddres] */\n      0xffffffffffffffffffffffffffffffffffffffff\n      and\n      0xffffffffffffffffffffffffffffffffffffffff\n      and\n      dup2\n      mstore\n      0x20\n      add\n      swap1\n      dup2\n      mstore\n      0x20\n      add\n      0x00\n      keccak256\n      sload\n        /* \"CoinIdo.sol\":2736:2762  userIDO[lastLevelAddres]>0 */\n      gt\n        /* \"CoinIdo.sol\":2733:3040  if(userIDO[lastLevelAddres]>0){\r... */\n      iszero\n      tag_141\n      jumpi\n        /* \"CoinIdo.sol\":2782:2792  uint bonus */\n      0x00\n        /* \"CoinIdo.sol\":2805:2810  10000 */\n      0x2710\n        /* \"CoinIdo.sol\":2801:2804  500 */\n      0x01f4\n        /* \"CoinIdo.sol\":2795:2800  value */\n      dup6\n        /* \"CoinIdo.sol\":2795:2804  value*500 */\n      tag_142\n      swap2\n      swap1\n      tag_143\n      jump\t// in\n    tag_142:\n        /* \"CoinIdo.sol\":2795:2810  value*500/10000 */\n      tag_144\n      swap2\n      swap1\n      tag_145\n      jump\t// in\n    tag_144:\n        /* \"CoinIdo.sol\":2782:2810  uint bonus = value*500/10000 */\n      swap1\n      pop\n        /* \"CoinIdo.sol\":2829:2833  usdt */\n      0x05\n      0x00\n      swap1\n      sload\n      swap1\n      0x0100\n      exp\n      swap1\n      div\n      0xffffffffffffffffffffffffffffffffffffffff\n      and\n        /* \"CoinIdo.sol\":2829:2846  usdt.transferFrom */\n      0xffffffffffffffffffffffffffffffffffffffff\n      and\n      0x23b872dd\n        /* \"CoinIdo.sol\":2847:2851  from */\n      dup7\n        /* \"CoinIdo.sol\":2853:2868  lastLevelAddres */\n      dup5\n        /* \"CoinIdo.sol\":2870:2875  bonus */\n      dup5\n        /* \"CoinIdo.sol\":2829:2876  usdt.transferFrom(from, lastLevelAddres, bonus) */\n      mload(0x40)\n      dup5\n      0xffffffff\n      and\n      0xe0\n      shl\n      dup2\n      mstore\n      0x04\n      add\n      tag_146\n      swap4\n      swap3\n      swap2\n      swap1\n      tag_147\n      jump\t// in\n    tag_146:\n      0x20\n      mload(0x40)\n      dup1\n      dup4\n      sub\n      dup2\n      0x00\n      dup8\n      dup1\n      extcodesize\n      iszero\n      dup1\n      iszero\n      tag_148\n      jumpi\n      0x00\n      dup1\n      revert\n    tag_148:\n      pop\n      gas\n      call\n      iszero\n      dup1\n      iszero\n      tag_150\n      jumpi\n      returndatasize\n      0x00\n      dup1\n      returndatacopy\n      revert(0x00, returndatasize)\n    tag_150:\n      pop\n      pop\n      pop\n      pop\n      mload(0x40)\n      returndatasize\n      not(0x1f)\n      0x1f\n      dup3\n      add\n      and\n      dup3\n      add\n      dup1\n      0x40\n      mstore\n      pop\n      dup2\n      add\n      swap1\n      tag_151\n      swap2\n      swap1\n      tag_152\n      jump\t// in\n    tag_151:\n      pop\n        /* \"CoinIdo.sol\":2895:2899  usdt */\n      0x05\n      0x00\n      swap1\n      sload\n      swap1\n      0x0100\n      exp\n      swap1\n      div\n      0xffffffffffffffffffffffffffffffffffffffff\n      and\n        /* \"CoinIdo.sol\":2895:2912  usdt.transferFrom */\n      0xffffffffffffffffffffffffffffffffffffffff\n      and\n      0x23b872dd\n        /* \"CoinIdo.sol\":2913:2917  from */\n      dup7\n        /* \"CoinIdo.sol\":2919:2929  IDOAddress */\n      0x04\n      0x00\n      swap1\n      sload\n      swap1\n      0x0100\n      exp\n      swap1\n      div\n      0xffffffffffffffffffffffffffffffffffffffff\n      and\n        /* \"CoinIdo.sol\":2937:2942  bonus */\n      dup5\n        /* \"CoinIdo.sol\":2931:2936  value */\n      dup9\n        /* \"CoinIdo.sol\":2931:2942  value-bonus */\n      tag_153\n      swap2\n      swap1\n      tag_154\n      jump\t// in\n    tag_153:\n        /* \"CoinIdo.sol\":2895:2943  usdt.transferFrom(from, IDOAddress, value-bonus) */\n      mload(0x40)\n      dup5\n      0xffffffff\n      and\n      0xe0\n      shl\n      dup2\n      mstore\n      0x04\n      add\n      tag_155\n      swap4\n      swap3\n      swap2\n      swap1\n      tag_147\n      jump\t// in\n    tag_155:\n      0x20\n      mload(0x40)\n      dup1\n      dup4\n      sub\n      dup2\n      0x00\n      dup8\n      dup1\n      extcodesize\n      iszero\n      dup1\n      iszero\n      tag_156\n      jumpi\n      0x00\n      dup1\n      revert\n    tag_156:\n      pop\n      gas\n      call\n      iszero\n      dup1\n      iszero\n      tag_158\n      jumpi\n      returndatasize\n      0x00\n      dup1\n      returndatacopy\n      revert(0x00, returndatasize)\n    tag_158:\n      pop\n      pop\n      pop\n      pop\n      mload(0x40)\n      returndatasize\n      not(0x1f)\n      0x1f\n      dup3\n      add\n      and\n      dup3\n      add\n      dup1\n      0x40\n      mstore\n      pop\n      dup2\n      add\n      swap1\n      tag_159\n      swap2\n      swap1\n      tag_152\n      jump\t// in\n    tag_159:\n      pop\n        /* \"CoinIdo.sol\":2763:2959  {\r... */\n      pop\n        /* \"CoinIdo.sol\":2733:3040  if(userIDO[lastLevelAddres]>0){\r... */\n      jump(tag_160)\n    tag_141:\n        /* \"CoinIdo.sol\":2982:2986  usdt */\n      0x05\n      0x00\n      swap1\n      sload\n      swap1\n      0x0100\n      exp\n      swap1\n      div\n      0xffffffffffffffffffffffffffffffffffffffff\n      and\n        /* \"CoinIdo.sol\":2982:2999  usdt.transferFrom */\n      0xffffffffffffffffffffffffffffffffffffffff\n      and\n      0x23b872dd\n        /* \"CoinIdo.sol\":3000:3004  from */\n      dup6\n        /* \"CoinIdo.sol\":3006:3016  IDOAddress */\n      0x04\n      0x00\n      swap1\n      sload\n      swap1\n      0x0100\n      exp\n      swap1\n      div\n      0xffffffffffffffffffffffffffffffffffffffff\n      and\n        /* \"CoinIdo.sol\":3018:3023  value */\n      dup7\n        /* \"CoinIdo.sol\":2982:3024  usdt.transferFrom(from, IDOAddress, value) */\n      mload(0x40)\n      dup5\n      0xffffffff\n      and\n      0xe0\n      shl\n      dup2\n      mstore\n      0x04\n      add\n      tag_161\n      swap4\n      swap3\n      swap2\n      swap1\n      tag_147\n      jump\t// in\n    tag_161:\n      0x20\n      mload(0x40)\n      dup1\n      dup4\n      sub\n      dup2\n      0x00\n      dup8\n      dup1\n      extcodesize\n      iszero\n      dup1\n      iszero\n      tag_162\n      jumpi\n      0x00\n      dup1\n      revert\n    tag_162:\n      pop\n      gas\n      call\n      iszero\n      dup1\n      iszero\n      tag_164\n      jumpi\n      returndatasize\n      0x00\n      dup1\n      returndatacopy\n      revert(0x00, returndatasize)\n    tag_164:\n      pop\n      pop\n      pop\n      pop\n      mload(0x40)\n      returndatasize\n      not(0x1f)\n      0x1f\n      dup3\n      add\n      and\n      dup3\n      add\n      dup1\n      0x40\n      mstore\n      pop\n      dup2\n      add\n      swap1\n      tag_165\n      swap2\n      swap1\n      tag_152\n      jump\t// in\n    tag_165:\n      pop\n        /* \"CoinIdo.sol\":2733:3040  if(userIDO[lastLevelAddres]>0){\r... */\n    tag_160:\n        /* \"CoinIdo.sol\":3118:3123  value */\n      dup3\n        /* \"CoinIdo.sol\":3086:3100  relationAmount */\n      0x0b\n        /* \"CoinIdo.sol\":3086:3117  relationAmount[lastLevelAddres] */\n      0x00\n        /* \"CoinIdo.sol\":3101:3116  lastLevelAddres */\n      dup4\n        /* \"CoinIdo.sol\":3086:3117  relationAmount[lastLevelAddres] */\n      0xffffffffffffffffffffffffffffffffffffffff\n      and\n      0xffffffffffffffffffffffffffffffffffffffff\n      and\n      dup2\n      mstore\n      0x20\n      add\n      swap1\n      dup2\n      mstore\n      0x20\n      add\n      0x00\n      keccak256\n      sload\n        /* \"CoinIdo.sol\":3086:3123  relationAmount[lastLevelAddres]+value */\n      tag_166\n      swap2\n      swap1\n      tag_136\n      jump\t// in\n    tag_166:\n        /* \"CoinIdo.sol\":3054:3068  relationAmount */\n      0x0b\n        /* \"CoinIdo.sol\":3054:3085  relationAmount[lastLevelAddres] */\n      0x00\n        /* \"CoinIdo.sol\":3069:3084  lastLevelAddres */\n      dup4\n        /* \"CoinIdo.sol\":3054:3085  relationAmount[lastLevelAddres] */\n      0xffffffffffffffffffffffffffffffffffffffff\n      and\n      0xffffffffffffffffffffffffffffffffffffffff\n      and\n      dup2\n      mstore\n      0x20\n      add\n      swap1\n      dup2\n      mstore\n      0x20\n      add\n      0x00\n      keccak256\n        /* \"CoinIdo.sol\":3054:3123  relationAmount[lastLevelAddres]=relationAmount[lastLevelAddres]+value */\n      dup2\n      swap1\n      sstore\n      pop\n        /* \"CoinIdo.sol\":2686:3208  if(lastLevelAddres !=address(0)){\r... */\n      jump(tag_167)\n    tag_140:\n        /* \"CoinIdo.sol\":3154:3158  usdt */\n      0x05\n      0x00\n      swap1\n      sload\n      swap1\n      0x0100\n      exp\n      swap1\n      div\n      0xffffffffffffffffffffffffffffffffffffffff\n      and\n        /* \"CoinIdo.sol\":3154:3171  usdt.transferFrom */\n      0xffffffffffffffffffffffffffffffffffffffff\n      and\n      0x23b872dd\n        /* \"CoinIdo.sol\":3172:3176  from */\n      dup6\n        /* \"CoinIdo.sol\":3178:3188  IDOAddress */\n      0x04\n      0x00\n      swap1\n      sload\n      swap1\n      0x0100\n      exp\n      swap1\n      div\n      0xffffffffffffffffffffffffffffffffffffffff\n      and\n        /* \"CoinIdo.sol\":3190:3195  value */\n      dup7\n        /* \"CoinIdo.sol\":3154:3196  usdt.transferFrom(from, IDOAddress, value) */\n      mload(0x40)\n      dup5\n      0xffffffff\n      and\n      0xe0\n      shl\n      dup2\n      mstore\n      0x04\n      add\n      tag_168\n      swap4\n      swap3\n      swap2\n      swap1\n      tag_147\n      jump\t// in\n    tag_168:\n      0x20\n      mload(0x40)\n      dup1\n      dup4\n      sub\n      dup2\n      0x00\n      dup8\n      dup1\n      extcodesize\n      iszero\n      dup1\n      iszero\n      tag_169\n      jumpi\n      0x00\n      dup1\n      revert\n    tag_169:\n      pop\n      gas\n      call\n      iszero\n      dup1\n      iszero\n      tag_171\n      jumpi\n      returndatasize\n      0x00\n      dup1\n      returndatacopy\n      revert(0x00, returndatasize)\n    tag_171:\n      pop\n      pop\n      pop\n      pop\n      mload(0x40)\n      returndatasize\n      not(0x1f)\n      0x1f\n      dup3\n      add\n      and\n      dup3\n      add\n      dup1\n      0x40\n      mstore\n      pop\n      dup2\n      add\n      swap1\n      tag_172\n      swap2\n      swap1\n      tag_152\n      jump\t// in\n    tag_172:\n      pop\n        /* \"CoinIdo.sol\":2686:3208  if(lastLevelAddres !=address(0)){\r... */\n    tag_167:\n        /* \"CoinIdo.sol\":3250:3255  value */\n      dup3\n        /* \"CoinIdo.sol\":3242:3248  amount */\n      dup3\n        /* \"CoinIdo.sol\":3242:3255  amount +value */\n      tag_173\n      swap2\n      swap1\n      tag_136\n      jump\t// in\n    tag_173:\n        /* \"CoinIdo.sol\":3226:3233  userIDO */\n      0x0a\n        /* \"CoinIdo.sol\":3226:3239  userIDO[from] */\n      0x00\n        /* \"CoinIdo.sol\":3234:3238  from */\n      dup7\n        /* \"CoinIdo.sol\":3226:3239  userIDO[from] */\n      0xffffffffffffffffffffffffffffffffffffffff\n      and\n      0xffffffffffffffffffffffffffffffffffffffff\n      and\n      dup2\n      mstore\n      0x20\n      add\n      swap1\n      dup2\n      mstore\n      0x20\n      add\n      0x00\n      keccak256\n        /* \"CoinIdo.sol\":3226:3255  userIDO[from] = amount +value */\n      dup2\n      swap1\n      sstore\n      pop\n        /* \"CoinIdo.sol\":3284:3288  2000 */\n      0x07d0\n        /* \"CoinIdo.sol\":3269:3276  userIDO */\n      0x0a\n        /* \"CoinIdo.sol\":3269:3282  userIDO[from] */\n      0x00\n        /* \"CoinIdo.sol\":3277:3281  from */\n      dup7\n        /* \"CoinIdo.sol\":3269:3282  userIDO[from] */\n      0xffffffffffffffffffffffffffffffffffffffff\n      and\n      0xffffffffffffffffffffffffffffffffffffffff\n      and\n      dup2\n      mstore\n      0x20\n      add\n      swap1\n      dup2\n      mstore\n      0x20\n      add\n      0x00\n      keccak256\n      sload\n        /* \"CoinIdo.sol\":3269:3288  userIDO[from]>=2000 */\n      lt\n        /* \"CoinIdo.sol\":3266:3336  if(userIDO[from]>=2000){\r... */\n      tag_174\n      jumpi\n        /* \"CoinIdo.sol\":3304:3309  etNft */\n      0x06\n      0x00\n      swap1\n      sload\n      swap1\n      0x0100\n      exp\n      swap1\n      div\n      0xffffffffffffffffffffffffffffffffffffffff\n      and\n        /* \"CoinIdo.sol\":3304:3318  etNft.safeMint */\n      0xffffffffffffffffffffffffffffffffffffffff\n      and\n      0x40d097c3\n        /* \"CoinIdo.sol\":3319:3323  from */\n      dup6\n        /* \"CoinIdo.sol\":3304:3324  etNft.safeMint(from) */\n      mload(0x40)\n      dup3\n      0xffffffff\n      and\n      0xe0\n      shl\n      dup2\n      mstore\n      0x04\n      add\n      tag_175\n      swap2\n      swap1\n      tag_55\n      jump\t// in\n    tag_175:\n      0x00\n      mload(0x40)\n      dup1\n      dup4\n      sub\n      dup2\n      0x00\n      dup8\n      dup1\n      extcodesize\n      iszero\n      dup1\n      iszero\n      tag_176\n      jumpi\n      0x00\n      dup1\n      revert\n    tag_176:\n      pop\n      gas\n      call\n      iszero\n      dup1\n      iszero\n      tag_178\n      jumpi\n      returndatasize\n      0x00\n      dup1\n      returndatacopy\n      revert(0x00, returndatasize)\n    tag_178:\n      pop\n      pop\n      pop\n      pop\n        /* \"CoinIdo.sol\":3266:3336  if(userIDO[from]>=2000){\r... */\n    tag_174:\n        /* \"CoinIdo.sol\":3407:3411  3000 */\n      0x0bb8\n        /* \"CoinIdo.sol\":3374:3388  relationAmount */\n      0x0b\n        /* \"CoinIdo.sol\":3374:3405  relationAmount[lastLevelAddres] */\n      0x00\n        /* \"CoinIdo.sol\":3389:3404  lastLevelAddres */\n      dup4\n        /* \"CoinIdo.sol\":3374:3405  relationAmount[lastLevelAddres] */\n      0xffffffffffffffffffffffffffffffffffffffff\n      and\n      0xffffffffffffffffffffffffffffffffffffffff\n      and\n      dup2\n      mstore\n      0x20\n      add\n      swap1\n      dup2\n      mstore\n      0x20\n      add\n      0x00\n      keccak256\n      sload\n        /* \"CoinIdo.sol\":3374:3411  relationAmount[lastLevelAddres]>=3000 */\n      lt\n        /* \"CoinIdo.sol\":3371:3553  if(relationAmount[lastLevelAddres]>=3000){\r... */\n      tag_179\n      jumpi\n        /* \"CoinIdo.sol\":3427:3432  etNft */\n      0x06\n      0x00\n      swap1\n      sload\n      swap1\n      0x0100\n      exp\n      swap1\n      div\n      0xffffffffffffffffffffffffffffffffffffffff\n      and\n        /* \"CoinIdo.sol\":3427:3441  etNft.safeMint */\n      0xffffffffffffffffffffffffffffffffffffffff\n      and\n      0x40d097c3\n        /* \"CoinIdo.sol\":3442:3457  lastLevelAddres */\n      dup3\n        /* \"CoinIdo.sol\":3427:3458  etNft.safeMint(lastLevelAddres) */\n      mload(0x40)\n      dup3\n      0xffffffff\n      and\n      0xe0\n      shl\n      dup2\n      mstore\n      0x04\n      add\n      tag_180\n      swap2\n      swap1\n      tag_55\n      jump\t// in\n    tag_180:\n      0x00\n      mload(0x40)\n      dup1\n      dup4\n      sub\n      dup2\n      0x00\n      dup8\n      dup1\n      extcodesize\n      iszero\n      dup1\n      iszero\n      tag_181\n      jumpi\n      0x00\n      dup1\n      revert\n    tag_181:\n      pop\n      gas\n      call\n      iszero\n      dup1\n      iszero\n      tag_183\n      jumpi\n      returndatasize\n      0x00\n      dup1\n      returndatacopy\n      revert(0x00, returndatasize)\n    tag_183:\n      pop\n      pop\n      pop\n      pop\n        /* \"CoinIdo.sol\":3537:3541  3000 */\n      0x0bb8\n        /* \"CoinIdo.sol\":3505:3519  relationAmount */\n      0x0b\n        /* \"CoinIdo.sol\":3505:3536  relationAmount[lastLevelAddres] */\n      0x00\n        /* \"CoinIdo.sol\":3520:3535  lastLevelAddres */\n      dup4\n        /* \"CoinIdo.sol\":3505:3536  relationAmount[lastLevelAddres] */\n      0xffffffffffffffffffffffffffffffffffffffff\n      and\n      0xffffffffffffffffffffffffffffffffffffffff\n      and\n      dup2\n      mstore\n      0x20\n      add\n      swap1\n      dup2\n      mstore\n      0x20\n      add\n      0x00\n      keccak256\n      sload\n        /* \"CoinIdo.sol\":3505:3541  relationAmount[lastLevelAddres]-3000 */\n      tag_184\n      swap2\n      swap1\n      tag_154\n      jump\t// in\n    tag_184:\n        /* \"CoinIdo.sol\":3473:3487  relationAmount */\n      0x0b\n        /* \"CoinIdo.sol\":3473:3504  relationAmount[lastLevelAddres] */\n      0x00\n        /* \"CoinIdo.sol\":3488:3503  lastLevelAddres */\n      dup4\n        /* \"CoinIdo.sol\":3473:3504  relationAmount[lastLevelAddres] */\n      0xffffffffffffffffffffffffffffffffffffffff\n      and\n      0xffffffffffffffffffffffffffffffffffffffff\n      and\n      dup2\n      mstore\n      0x20\n      add\n      swap1\n      dup2\n      mstore\n      0x20\n      add\n      0x00\n      keccak256\n        /* \"CoinIdo.sol\":3473:3541  relationAmount[lastLevelAddres]=relationAmount[lastLevelAddres]-3000 */\n      dup2\n      swap1\n      sstore\n      pop\n        /* \"CoinIdo.sol\":3371:3553  if(relationAmount[lastLevelAddres]>=3000){\r... */\n    tag_179:\n        /* \"CoinIdo.sol\":3563:3576  allowET(from) */\n      tag_185\n        /* \"CoinIdo.sol\":3571:3575  from */\n      dup5\n        /* \"CoinIdo.sol\":3563:3570  allowET */\n      tag_62\n        /* \"CoinIdo.sol\":3563:3576  allowET(from) */\n      jump\t// in\n    tag_185:\n        /* \"CoinIdo.sol\":3592:3611  IDOUsdt(from,value) */\n      0x080bf12451b207525905f2fe9e47714fbcd5aa383b228f656b880136e66b288f\n        /* \"CoinIdo.sol\":3600:3604  from */\n      dup5\n        /* \"CoinIdo.sol\":3605:3610  value */\n      dup5\n        /* \"CoinIdo.sol\":3592:3611  IDOUsdt(from,value) */\n      mload(0x40)\n      tag_186\n      swap3\n      swap2\n      swap1\n      tag_187\n      jump\t// in\n    tag_186:\n      mload(0x40)\n      dup1\n      swap2\n      sub\n      swap1\n      log1\n        /* \"CoinIdo.sol\":2518:3619  {\r... */\n      pop\n      pop\n        /* \"CoinIdo.sol\":2469:3619  function _IDOUsdt(address from,uint value)public {\r... */\n      pop\n      pop\n      jump\t// out\n        /* \"CoinIdo.sol\":3625:3829  function allowET(address _address)public{\r... */\n    tag_62:\n        /* \"CoinIdo.sol\":3676:3693  bool[]memory islb */\n      0x00\n        /* \"CoinIdo.sol\":3707:3709  16 */\n      0x10\n        /* \"CoinIdo.sol\":3696:3710  new bool[](16) */\n      0xffffffffffffffff\n      dup2\n      gt\n      iszero\n      tag_189\n      jumpi\n      tag_190\n      tag_191\n      jump\t// in\n    tag_190:\n    tag_189:\n      mload(0x40)\n      swap1\n      dup1\n      dup3\n      mstore\n      dup1\n      0x20\n      mul\n      0x20\n      add\n      dup3\n      add\n      0x40\n      mstore\n      dup1\n      iszero\n      tag_192\n      jumpi\n      dup2\n      0x20\n      add\n      0x20\n      dup3\n      mul\n      dup1\n      calldatasize\n      dup4\n      calldatacopy\n      dup1\n      dup3\n      add\n      swap2\n      pop\n      pop\n      swap1\n      pop\n    tag_192:\n      pop\n        /* \"CoinIdo.sol\":3676:3710  bool[]memory islb = new bool[](16) */\n      swap1\n      pop\n        /* \"CoinIdo.sol\":3725:3731  uint i */\n      0x00\n        /* \"CoinIdo.sol\":3721:3794  for(uint i=0; i<islb.length; i++){\r... */\n    tag_193:\n        /* \"CoinIdo.sol\":3737:3741  islb */\n      dup2\n        /* \"CoinIdo.sol\":3737:3748  islb.length */\n      mload\n        /* \"CoinIdo.sol\":3735:3736  i */\n      dup2\n        /* \"CoinIdo.sol\":3735:3748  i<islb.length */\n      lt\n        /* \"CoinIdo.sol\":3721:3794  for(uint i=0; i<islb.length; i++){\r... */\n      iszero\n      tag_194\n      jumpi\n        /* \"CoinIdo.sol\":3777:3782  false */\n      0x00\n        /* \"CoinIdo.sol\":3769:3773  islb */\n      dup3\n        /* \"CoinIdo.sol\":3774:3775  i */\n      dup3\n        /* \"CoinIdo.sol\":3769:3776  islb[i] */\n      dup2\n      mload\n      dup2\n      lt\n      tag_196\n      jumpi\n      tag_197\n      tag_109\n      jump\t// in\n    tag_197:\n    tag_196:\n      0x20\n      mul\n      0x20\n      add\n      add\n        /* \"CoinIdo.sol\":3769:3782  islb[i]=false */\n      swap1\n      iszero\n      iszero\n      swap1\n      dup2\n      iszero\n      iszero\n      dup2\n      mstore\n      pop\n      pop\n        /* \"CoinIdo.sol\":3750:3753  i++ */\n      dup1\n      dup1\n      tag_198\n      swap1\n      tag_118\n      jump\t// in\n    tag_198:\n      swap2\n      pop\n      pop\n        /* \"CoinIdo.sol\":3721:3794  for(uint i=0; i<islb.length; i++){\r... */\n      jump(tag_193)\n    tag_194:\n      pop\n        /* \"CoinIdo.sol\":3817:3821  islb */\n      dup1\n        /* \"CoinIdo.sol\":3804:3806  lb */\n      0x08\n        /* \"CoinIdo.sol\":3804:3816  lb[_address] */\n      0x00\n        /* \"CoinIdo.sol\":3807:3815  _address */\n      dup5\n        /* \"CoinIdo.sol\":3804:3816  lb[_address] */\n      0xffffffffffffffffffffffffffffffffffffffff\n      and\n      0xffffffffffffffffffffffffffffffffffffffff\n      and\n      dup2\n      mstore\n      0x20\n      add\n      swap1\n      dup2\n      mstore\n      0x20\n      add\n      0x00\n      keccak256\n        /* \"CoinIdo.sol\":3804:3821  lb[_address]=islb */\n      swap1\n      dup1\n      mload\n      swap1\n      0x20\n      add\n      swap1\n      tag_199\n      swap3\n      swap2\n      swap1\n      tag_200\n      jump\t// in\n    tag_199:\n      pop\n        /* \"CoinIdo.sol\":3665:3829  {\r... */\n      pop\n        /* \"CoinIdo.sol\":3625:3829  function allowET(address _address)public{\r... */\n      pop\n      jump\t// out\n        /* \"CoinIdo.sol\":1510:1609  function setETCoin(address _address) public onlyManager{\r... */\n    tag_65:\n        /* \"CoinIdo.sol\":1346:1355  isManager */\n      0x03\n        /* \"CoinIdo.sol\":1346:1367  isManager[msg.sender] */\n      0x00\n        /* \"CoinIdo.sol\":1356:1366  msg.sender */\n      caller\n        /* \"CoinIdo.sol\":1346:1367  isManager[msg.sender] */\n      0xffffffffffffffffffffffffffffffffffffffff\n      and\n      0xffffffffffffffffffffffffffffffffffffffff\n      and\n      dup2\n      mstore\n      0x20\n      add\n      swap1\n      dup2\n      mstore\n      0x20\n      add\n      0x00\n      keccak256\n      0x00\n      swap1\n      sload\n      swap1\n      0x0100\n      exp\n      swap1\n      div\n      0xff\n      and\n        /* \"CoinIdo.sol\":1338:1383  require(isManager[msg.sender], \"Not manager\") */\n      tag_202\n      jumpi\n      mload(0x40)\n      0x08c379a000000000000000000000000000000000000000000000000000000000\n      dup2\n      mstore\n      0x04\n      add\n      tag_203\n      swap1\n      tag_99\n      jump\t// in\n    tag_203:\n      mload(0x40)\n      dup1\n      swap2\n      sub\n      swap1\n      revert\n    tag_202:\n        /* \"CoinIdo.sol\":1592:1600  _address */\n      dup1\n        /* \"CoinIdo.sol\":1576:1582  etCoin */\n      0x07\n      0x00\n        /* \"CoinIdo.sol\":1576:1601  etCoin = IERC20(_address) */\n      0x0100\n      exp\n      dup2\n      sload\n      dup2\n      0xffffffffffffffffffffffffffffffffffffffff\n      mul\n      not\n      and\n      swap1\n      dup4\n      0xffffffffffffffffffffffffffffffffffffffff\n      and\n      mul\n      or\n      swap1\n      sstore\n      pop\n        /* \"CoinIdo.sol\":1510:1609  function setETCoin(address _address) public onlyManager{\r... */\n      pop\n      jump\t// out\n        /* \"CoinIdo.sol\":3835:4492  function getET()public{\r... */\n    tag_67:\n        /* \"CoinIdo.sol\":3896:3897  0 */\n      0x00\n        /* \"CoinIdo.sol\":3876:3883  userIDO */\n      0x0a\n        /* \"CoinIdo.sol\":3876:3895  userIDO[msg.sender] */\n      0x00\n        /* \"CoinIdo.sol\":3884:3894  msg.sender */\n      caller\n        /* \"CoinIdo.sol\":3876:3895  userIDO[msg.sender] */\n      0xffffffffffffffffffffffffffffffffffffffff\n      and\n      0xffffffffffffffffffffffffffffffffffffffff\n      and\n      dup2\n      mstore\n      0x20\n      add\n      swap1\n      dup2\n      mstore\n      0x20\n      add\n      0x00\n      keccak256\n      sload\n        /* \"CoinIdo.sol\":3876:3897  userIDO[msg.sender]>0 */\n      gt\n        /* \"CoinIdo.sol\":3868:3910  require(userIDO[msg.sender]>0,\"not allow\") */\n      tag_206\n      jumpi\n      mload(0x40)\n      0x08c379a000000000000000000000000000000000000000000000000000000000\n      dup2\n      mstore\n      0x04\n      add\n      tag_207\n      swap1\n      tag_208\n      jump\t// in\n    tag_207:\n      mload(0x40)\n      dup1\n      swap2\n      sub\n      swap1\n      revert\n    tag_206:\n        /* \"CoinIdo.sol\":3921:3932  uint amount */\n      0x00\n        /* \"CoinIdo.sol\":3943:3960  uint intervalTime */\n      dup1\n        /* \"CoinIdo.sol\":3980:3987  endTime */\n      sload(0x01)\n        /* \"CoinIdo.sol\":3963:3978  block.timestamp */\n      timestamp\n        /* \"CoinIdo.sol\":3963:3987  block.timestamp -endTime */\n      tag_209\n      swap2\n      swap1\n      tag_154\n      jump\t// in\n    tag_209:\n        /* \"CoinIdo.sol\":3943:3987  uint intervalTime = block.timestamp -endTime */\n      swap1\n      pop\n        /* \"CoinIdo.sol\":3998:4006  uint day */\n      0x00\n        /* \"CoinIdo.sol\":4022:4027  86400 */\n      0x015180\n        /* \"CoinIdo.sol\":4009:4021  intervalTime */\n      dup3\n        /* \"CoinIdo.sol\":4009:4027  intervalTime/86400 */\n      tag_210\n      swap2\n      swap1\n      tag_145\n      jump\t// in\n    tag_210:\n        /* \"CoinIdo.sol\":3998:4027  uint day = intervalTime/86400 */\n      swap1\n      pop\n        /* \"CoinIdo.sol\":4038:4048  uint allET */\n      0x00\n        /* \"CoinIdo.sol\":4076:4079  120 */\n      0x78\n        /* \"CoinIdo.sol\":4071:4075  2600 */\n      0x0a28\n        /* \"CoinIdo.sol\":4051:4058  userIDO */\n      0x0a\n        /* \"CoinIdo.sol\":4051:4070  userIDO[msg.sender] */\n      0x00\n        /* \"CoinIdo.sol\":4059:4069  msg.sender */\n      caller\n        /* \"CoinIdo.sol\":4051:4070  userIDO[msg.sender] */\n      0xffffffffffffffffffffffffffffffffffffffff\n      and\n      0xffffffffffffffffffffffffffffffffffffffff\n      and\n      dup2\n      mstore\n      0x20\n      add\n      swap1\n      dup2\n      mstore\n      0x20\n      add\n      0x00\n      keccak256\n      sload\n        /* \"CoinIdo.sol\":4051:4075  userIDO[msg.sender]*2600 */\n      tag_211\n      swap2\n      swap1\n      tag_143\n      jump\t// in\n    tag_211:\n        /* \"CoinIdo.sol\":4051:4079  userIDO[msg.sender]*2600/120 */\n      tag_212\n      swap2\n      swap1\n      tag_145\n      jump\t// in\n    tag_212:\n        /* \"CoinIdo.sol\":4038:4079  uint allET = userIDO[msg.sender]*2600/120 */\n      swap1\n      pop\n        /* \"CoinIdo.sol\":4098:4099  1 */\n      0x01\n        /* \"CoinIdo.sol\":4093:4096  day */\n      dup3\n        /* \"CoinIdo.sol\":4093:4099  day>=1 */\n      lt\n      iszero\n        /* \"CoinIdo.sol\":4093:4121  day>=1 && !lb[msg.sender][0] */\n      dup1\n      iszero\n      tag_213\n      jumpi\n      pop\n        /* \"CoinIdo.sol\":4104:4106  lb */\n      0x08\n        /* \"CoinIdo.sol\":4104:4118  lb[msg.sender] */\n      0x00\n        /* \"CoinIdo.sol\":4107:4117  msg.sender */\n      caller\n        /* \"CoinIdo.sol\":4104:4118  lb[msg.sender] */\n      0xffffffffffffffffffffffffffffffffffffffff\n      and\n      0xffffffffffffffffffffffffffffffffffffffff\n      and\n      dup2\n      mstore\n      0x20\n      add\n      swap1\n      dup2\n      mstore\n      0x20\n      add\n      0x00\n      keccak256\n        /* \"CoinIdo.sol\":4119:4120  0 */\n      0x00\n        /* \"CoinIdo.sol\":4104:4121  lb[msg.sender][0] */\n      dup2\n      sload\n      dup2\n      lt\n      tag_214\n      jumpi\n      tag_215\n      tag_109\n      jump\t// in\n    tag_215:\n    tag_214:\n      swap1\n      0x00\n      mstore\n      keccak256(0x00, 0x20)\n      swap1\n      0x20\n      swap2\n      dup3\n      dup3\n      div\n      add\n      swap2\n      swap1\n      mod\n      swap1\n      sload\n      swap1\n      0x0100\n      exp\n      swap1\n      div\n      0xff\n      and\n        /* \"CoinIdo.sol\":4103:4121  !lb[msg.sender][0] */\n      iszero\n        /* \"CoinIdo.sol\":4093:4121  day>=1 && !lb[msg.sender][0] */\n    tag_213:\n        /* \"CoinIdo.sol\":4090:4211  if(day>=1 && !lb[msg.sender][0]){\r... */\n      iszero\n      tag_217\n      jumpi\n        /* \"CoinIdo.sol\":4157:4162  10000 */\n      0x2710\n        /* \"CoinIdo.sol\":4152:4156  1000 */\n      0x03e8\n        /* \"CoinIdo.sol\":4146:4151  allET */\n      dup3\n        /* \"CoinIdo.sol\":4146:4156  allET*1000 */\n      tag_218\n      swap2\n      swap1\n      tag_143\n      jump\t// in\n    tag_218:\n        /* \"CoinIdo.sol\":4146:4162  allET*1000/10000 */\n      tag_219\n      swap2\n      swap1\n      tag_145\n      jump\t// in\n    tag_219:\n        /* \"CoinIdo.sol\":4137:4162  amount = allET*1000/10000 */\n      swap4\n      pop\n        /* \"CoinIdo.sol\":4195:4199  true */\n      0x01\n        /* \"CoinIdo.sol\":4177:4179  lb */\n      0x08\n        /* \"CoinIdo.sol\":4177:4191  lb[msg.sender] */\n      0x00\n        /* \"CoinIdo.sol\":4180:4190  msg.sender */\n      caller\n        /* \"CoinIdo.sol\":4177:4191  lb[msg.sender] */\n      0xffffffffffffffffffffffffffffffffffffffff\n      and\n      0xffffffffffffffffffffffffffffffffffffffff\n      and\n      dup2\n      mstore\n      0x20\n      add\n      swap1\n      dup2\n      mstore\n      0x20\n      add\n      0x00\n      keccak256\n        /* \"CoinIdo.sol\":4192:4193  0 */\n      0x00\n        /* \"CoinIdo.sol\":4177:4194  lb[msg.sender][0] */\n      dup2\n      sload\n      dup2\n      lt\n      tag_220\n      jumpi\n      tag_221\n      tag_109\n      jump\t// in\n    tag_221:\n    tag_220:\n      swap1\n      0x00\n      mstore\n      keccak256(0x00, 0x20)\n      swap1\n      0x20\n      swap2\n      dup3\n      dup3\n      div\n      add\n      swap2\n      swap1\n      mod\n        /* \"CoinIdo.sol\":4177:4199  lb[msg.sender][0]=true */\n      0x0100\n      exp\n      dup2\n      sload\n      dup2\n      0xff\n      mul\n      not\n      and\n      swap1\n      dup4\n      iszero\n      iszero\n      mul\n      or\n      swap1\n      sstore\n      pop\n        /* \"CoinIdo.sol\":4090:4211  if(day>=1 && !lb[msg.sender][0]){\r... */\n    tag_217:\n        /* \"CoinIdo.sol\":4221:4230  uint item */\n      0x00\n        /* \"CoinIdo.sol\":4241:4243  30 */\n      0x1e\n        /* \"CoinIdo.sol\":4238:4239  1 */\n      0x01\n        /* \"CoinIdo.sol\":4234:4237  day */\n      dup5\n        /* \"CoinIdo.sol\":4234:4239  day-1 */\n      tag_223\n      swap2\n      swap1\n      tag_154\n      jump\t// in\n    tag_223:\n        /* \"CoinIdo.sol\":4233:4243  (day-1)/30 */\n      tag_224\n      swap2\n      swap1\n      tag_145\n      jump\t// in\n    tag_224:\n        /* \"CoinIdo.sol\":4221:4243  uint item = (day-1)/30 */\n      swap1\n      pop\n        /* \"CoinIdo.sol\":4258:4264  uint i */\n      0x00\n        /* \"CoinIdo.sol\":4265:4266  1 */\n      0x01\n        /* \"CoinIdo.sol\":4258:4266  uint i=1 */\n      swap1\n      pop\n        /* \"CoinIdo.sol\":4254:4439  for(uint i=1; i<=item; i++){\r... */\n    tag_225:\n        /* \"CoinIdo.sol\":4271:4275  item */\n      dup2\n        /* \"CoinIdo.sol\":4268:4269  i */\n      dup2\n        /* \"CoinIdo.sol\":4268:4275  i<=item */\n      gt\n        /* \"CoinIdo.sol\":4254:4439  for(uint i=1; i<=item; i++){\r... */\n      tag_226\n      jumpi\n        /* \"CoinIdo.sol\":4300:4302  lb */\n      0x08\n        /* \"CoinIdo.sol\":4300:4314  lb[msg.sender] */\n      0x00\n        /* \"CoinIdo.sol\":4303:4313  msg.sender */\n      caller\n        /* \"CoinIdo.sol\":4300:4314  lb[msg.sender] */\n      0xffffffffffffffffffffffffffffffffffffffff\n      and\n      0xffffffffffffffffffffffffffffffffffffffff\n      and\n      dup2\n      mstore\n      0x20\n      add\n      swap1\n      dup2\n      mstore\n      0x20\n      add\n      0x00\n      keccak256\n        /* \"CoinIdo.sol\":4315:4316  i */\n      dup2\n        /* \"CoinIdo.sol\":4300:4317  lb[msg.sender][i] */\n      dup2\n      sload\n      dup2\n      lt\n      tag_228\n      jumpi\n      tag_229\n      tag_109\n      jump\t// in\n    tag_229:\n    tag_228:\n      swap1\n      0x00\n      mstore\n      keccak256(0x00, 0x20)\n      swap1\n      0x20\n      swap2\n      dup3\n      dup3\n      div\n      add\n      swap2\n      swap1\n      mod\n      swap1\n      sload\n      swap1\n      0x0100\n      exp\n      swap1\n      div\n      0xff\n      and\n        /* \"CoinIdo.sol\":4296:4428  if(!lb[msg.sender][i]){\r... */\n      tag_231\n      jumpi\n        /* \"CoinIdo.sol\":4365:4370  10000 */\n      0x2710\n        /* \"CoinIdo.sol\":4361:4364  600 */\n      0x0258\n        /* \"CoinIdo.sol\":4355:4360  allET */\n      dup5\n        /* \"CoinIdo.sol\":4355:4364  allET*600 */\n      tag_232\n      swap2\n      swap1\n      tag_143\n      jump\t// in\n    tag_232:\n        /* \"CoinIdo.sol\":4355:4370  allET*600/10000 */\n      tag_233\n      swap2\n      swap1\n      tag_145\n      jump\t// in\n    tag_233:\n        /* \"CoinIdo.sol\":4346:4352  amount */\n      dup7\n        /* \"CoinIdo.sol\":4346:4370  amount + allET*600/10000 */\n      tag_234\n      swap2\n      swap1\n      tag_136\n      jump\t// in\n    tag_234:\n        /* \"CoinIdo.sol\":4337:4370  amount = amount + allET*600/10000 */\n      swap6\n      pop\n        /* \"CoinIdo.sol\":4408:4412  true */\n      0x01\n        /* \"CoinIdo.sol\":4389:4391  lb */\n      0x08\n        /* \"CoinIdo.sol\":4389:4403  lb[msg.sender] */\n      0x00\n        /* \"CoinIdo.sol\":4392:4402  msg.sender */\n      caller\n        /* \"CoinIdo.sol\":4389:4403  lb[msg.sender] */\n      0xffffffffffffffffffffffffffffffffffffffff\n      and\n      0xffffffffffffffffffffffffffffffffffffffff\n      and\n      dup2\n      mstore\n      0x20\n      add\n      swap1\n      dup2\n      mstore\n      0x20\n      add\n      0x00\n      keccak256\n        /* \"CoinIdo.sol\":4404:4405  i */\n      dup3\n        /* \"CoinIdo.sol\":4389:4406  lb[msg.sender][i] */\n      dup2\n      sload\n      dup2\n      lt\n      tag_235\n      jumpi\n      tag_236\n      tag_109\n      jump\t// in\n    tag_236:\n    tag_235:\n      swap1\n      0x00\n      mstore\n      keccak256(0x00, 0x20)\n      swap1\n      0x20\n      swap2\n      dup3\n      dup3\n      div\n      add\n      swap2\n      swap1\n      mod\n        /* \"CoinIdo.sol\":4389:4412  lb[msg.sender][i] =true */\n      0x0100\n      exp\n      dup2\n      sload\n      dup2\n      0xff\n      mul\n      not\n      and\n      swap1\n      dup4\n      iszero\n      iszero\n      mul\n      or\n      swap1\n      sstore\n      pop\n        /* \"CoinIdo.sol\":4296:4428  if(!lb[msg.sender][i]){\r... */\n    tag_231:\n        /* \"CoinIdo.sol\":4277:4280  i++ */\n      dup1\n      dup1\n      tag_238\n      swap1\n      tag_118\n      jump\t// in\n    tag_238:\n      swap2\n      pop\n      pop\n        /* \"CoinIdo.sol\":4254:4439  for(uint i=1; i<=item; i++){\r... */\n      jump(tag_225)\n    tag_226:\n      pop\n        /* \"CoinIdo.sol\":4449:4455  etCoin */\n      0x07\n      0x00\n      swap1\n      sload\n      swap1\n      0x0100\n      exp\n      swap1\n      div\n      0xffffffffffffffffffffffffffffffffffffffff\n      and\n        /* \"CoinIdo.sol\":4449:4464  etCoin.transfer */\n      0xffffffffffffffffffffffffffffffffffffffff\n      and\n      0xa9059cbb\n        /* \"CoinIdo.sol\":4465:4475  msg.sender */\n      caller\n        /* \"CoinIdo.sol\":4477:4483  amount */\n      dup8\n        /* \"CoinIdo.sol\":4449:4484  etCoin.transfer(msg.sender, amount) */\n      mload(0x40)\n      dup4\n      0xffffffff\n      and\n      0xe0\n      shl\n      dup2\n      mstore\n      0x04\n      add\n      tag_239\n      swap3\n      swap2\n      swap1\n      tag_187\n      jump\t// in\n    tag_239:\n      0x20\n      mload(0x40)\n      dup1\n      dup4\n      sub\n      dup2\n      0x00\n      dup8\n      dup1\n      extcodesize\n      iszero\n      dup1\n      iszero\n      tag_240\n      jumpi\n      0x00\n      dup1\n      revert\n    tag_240:\n      pop\n      gas\n      call\n      iszero\n      dup1\n      iszero\n      tag_242\n      jumpi\n      returndatasize\n      0x00\n      dup1\n      returndatacopy\n      revert(0x00, returndatasize)\n    tag_242:\n      pop\n      pop\n      pop\n      pop\n      mload(0x40)\n      returndatasize\n      not(0x1f)\n      0x1f\n      dup3\n      add\n      and\n      dup3\n      add\n      dup1\n      0x40\n      mstore\n      pop\n      dup2\n      add\n      swap1\n      tag_243\n      swap2\n      swap1\n      tag_152\n      jump\t// in\n    tag_243:\n      pop\n        /* \"CoinIdo.sol\":3857:4492  {\r... */\n      pop\n      pop\n      pop\n      pop\n      pop\n        /* \"CoinIdo.sol\":3835:4492  function getET()public{\r... */\n      jump\t// out\n        /* \"CoinIdo.sol\":1185:1298  function setManager(address _manager, bool _flag) public onlyOwner {\r... */\n    tag_71:\n        /* \"CoinIdo.sol\":1112:1122  msg.sender */\n      caller\n        /* \"CoinIdo.sol\":1101:1122  owner() == msg.sender */\n      0xffffffffffffffffffffffffffffffffffffffff\n      and\n        /* \"CoinIdo.sol\":1101:1108  owner() */\n      tag_245\n        /* \"CoinIdo.sol\":1101:1106  owner */\n      tag_53\n        /* \"CoinIdo.sol\":1101:1108  owner() */\n      jump\t// in\n    tag_245:\n        /* \"CoinIdo.sol\":1101:1122  owner() == msg.sender */\n      0xffffffffffffffffffffffffffffffffffffffff\n      and\n      eq\n        /* \"CoinIdo.sol\":1093:1159  require(owner() == msg.sender, \"Ownable: caller is not the owner\") */\n      tag_246\n      jumpi\n      mload(0x40)\n      0x08c379a000000000000000000000000000000000000000000000000000000000\n      dup2\n      mstore\n      0x04\n      add\n      tag_247\n      swap1\n      tag_248\n      jump\t// in\n    tag_247:\n      mload(0x40)\n      dup1\n      swap2\n      sub\n      swap1\n      revert\n    tag_246:\n        /* \"CoinIdo.sol\":1285:1290  _flag */\n      dup1\n        /* \"CoinIdo.sol\":1263:1272  isManager */\n      0x03\n        /* \"CoinIdo.sol\":1263:1282  isManager[_manager] */\n      0x00\n        /* \"CoinIdo.sol\":1273:1281  _manager */\n      dup5\n        /* \"CoinIdo.sol\":1263:1282  isManager[_manager] */\n      0xffffffffffffffffffffffffffffffffffffffff\n      and\n      0xffffffffffffffffffffffffffffffffffffffff\n      and\n      dup2\n      mstore\n      0x20\n      add\n      swap1\n      dup2\n      mstore\n      0x20\n      add\n      0x00\n      keccak256\n      0x00\n        /* \"CoinIdo.sol\":1263:1290  isManager[_manager] = _flag */\n      0x0100\n      exp\n      dup2\n      sload\n      dup2\n      0xff\n      mul\n      not\n      and\n      swap1\n      dup4\n      iszero\n      iszero\n      mul\n      or\n      swap1\n      sstore\n      pop\n        /* \"CoinIdo.sol\":1185:1298  function setManager(address _manager, bool _flag) public onlyOwner {\r... */\n      pop\n      pop\n      jump\t// out\n        /* \"CoinIdo.sol\":1615:1701  function closeOpenOne(bool _flag) public onlyManager{\r... */\n    tag_74:\n        /* \"CoinIdo.sol\":1346:1355  isManager */\n      0x03\n        /* \"CoinIdo.sol\":1346:1367  isManager[msg.sender] */\n      0x00\n        /* \"CoinIdo.sol\":1356:1366  msg.sender */\n      caller\n        /* \"CoinIdo.sol\":1346:1367  isManager[msg.sender] */\n      0xffffffffffffffffffffffffffffffffffffffff\n      and\n      0xffffffffffffffffffffffffffffffffffffffff\n      and\n      dup2\n      mstore\n      0x20\n      add\n      swap1\n      dup2\n      mstore\n      0x20\n      add\n      0x00\n      keccak256\n      0x00\n      swap1\n      sload\n      swap1\n      0x0100\n      exp\n      swap1\n      div\n      0xff\n      and\n        /* \"CoinIdo.sol\":1338:1383  require(isManager[msg.sender], \"Not manager\") */\n      tag_251\n      jumpi\n      mload(0x40)\n      0x08c379a000000000000000000000000000000000000000000000000000000000\n      dup2\n      mstore\n      0x04\n      add\n      tag_252\n      swap1\n      tag_99\n      jump\t// in\n    tag_252:\n      mload(0x40)\n      dup1\n      swap2\n      sub\n      swap1\n      revert\n    tag_251:\n        /* \"CoinIdo.sol\":1688:1693  _flag */\n      dup1\n        /* \"CoinIdo.sol\":1678:1687  isOpenOne */\n      0x00\n      dup1\n        /* \"CoinIdo.sol\":1678:1693  isOpenOne=_flag */\n      0x0100\n      exp\n      dup2\n      sload\n      dup2\n      0xff\n      mul\n      not\n      and\n      swap1\n      dup4\n      iszero\n      iszero\n      mul\n      or\n      swap1\n      sstore\n      pop\n        /* \"CoinIdo.sol\":1615:1701  function closeOpenOne(bool _flag) public onlyManager{\r... */\n      pop\n      jump\t// out\n        /* \"CoinIdo.sol\":478:503  address public IDOAddress */\n    tag_76:\n      0x04\n      0x00\n      swap1\n      sload\n      swap1\n      0x0100\n      exp\n      swap1\n      div\n      0xffffffffffffffffffffffffffffffffffffffff\n      and\n      dup2\n      jump\t// out\n        /* \"CoinIdo.sol\":601:645  mapping(address=>address)public userRelation */\n    tag_80:\n      mstore(0x20, 0x09)\n      dup1\n      0x00\n      mstore\n      keccak256(0x00, 0x40)\n      0x00\n      swap2\n      pop\n      sload\n      swap1\n      0x0100\n      exp\n      swap1\n      div\n      0xffffffffffffffffffffffffffffffffffffffff\n      and\n      dup2\n      jump\t// out\n        /* \"CoinIdo.sol\":730:773  mapping(address=>uint)public relationAmount */\n    tag_84:\n      mstore(0x20, 0x0b)\n      dup1\n      0x00\n      mstore\n      keccak256(0x00, 0x40)\n      0x00\n      swap2\n      pop\n      swap1\n      pop\n      sload\n      dup2\n      jump\t// out\n        /* \"CoinIdo.sol\":427:468  mapping(address => bool) public isManager */\n    tag_88:\n      mstore(0x20, 0x03)\n      dup1\n      0x00\n      mstore\n      keccak256(0x00, 0x40)\n      0x00\n      swap2\n      pop\n      sload\n      swap1\n      0x0100\n      exp\n      swap1\n      div\n      0xff\n      and\n      dup2\n      jump\t// out\n        /* \"CoinIdo.sol\":1409:1504  function setNFT(address _address) public onlyManager{\r... */\n    tag_92:\n        /* \"CoinIdo.sol\":1346:1355  isManager */\n      0x03\n        /* \"CoinIdo.sol\":1346:1367  isManager[msg.sender] */\n      0x00\n        /* \"CoinIdo.sol\":1356:1366  msg.sender */\n      caller\n        /* \"CoinIdo.sol\":1346:1367  isManager[msg.sender] */\n      0xffffffffffffffffffffffffffffffffffffffff\n      and\n      0xffffffffffffffffffffffffffffffffffffffff\n      and\n      dup2\n      mstore\n      0x20\n      add\n      swap1\n      dup2\n      mstore\n      0x20\n      add\n      0x00\n      keccak256\n      0x00\n      swap1\n      sload\n      swap1\n      0x0100\n      exp\n      swap1\n      div\n      0xff\n      and\n        /* \"CoinIdo.sol\":1338:1383  require(isManager[msg.sender], \"Not manager\") */\n      tag_255\n      jumpi\n      mload(0x40)\n      0x08c379a000000000000000000000000000000000000000000000000000000000\n      dup2\n      mstore\n      0x04\n      add\n      tag_256\n      swap1\n      tag_99\n      jump\t// in\n    tag_256:\n      mload(0x40)\n      dup1\n      swap2\n      sub\n      swap1\n      revert\n    tag_255:\n        /* \"CoinIdo.sol\":1487:1495  _address */\n      dup1\n        /* \"CoinIdo.sol\":1472:1477  etNft */\n      0x06\n      0x00\n        /* \"CoinIdo.sol\":1472:1496  etNft = IETNFT(_address) */\n      0x0100\n      exp\n      dup2\n      sload\n      dup2\n      0xffffffffffffffffffffffffffffffffffffffff\n      mul\n      not\n      and\n      swap1\n      dup4\n      0xffffffffffffffffffffffffffffffffffffffff\n      and\n      mul\n      or\n      swap1\n      sstore\n      pop\n        /* \"CoinIdo.sol\":1409:1504  function setNFT(address _address) public onlyManager{\r... */\n      pop\n      jump\t// out\n        /* \"CoinIdo.sol\":255:276  bool public isOpenOne */\n    tag_94:\n      0x00\n      dup1\n      sload\n      swap1\n      0x0100\n      exp\n      swap1\n      div\n      0xff\n      and\n      dup2\n      jump\t// out\n    tag_200:\n      dup3\n      dup1\n      sload\n      dup3\n      dup3\n      sstore\n      swap1\n      0x00\n      mstore\n      keccak256(0x00, 0x20)\n      swap1\n      0x1f\n      add\n      0x20\n      swap1\n      div\n      dup2\n      add\n      swap3\n      dup3\n      iszero\n      tag_258\n      jumpi\n      swap2\n      0x20\n      mul\n      dup3\n      add\n      0x00\n    tag_259:\n      dup4\n      dup3\n      gt\n      iszero\n      tag_260\n      jumpi\n      dup4\n      mload\n      dup4\n      dup3\n      0x0100\n      exp\n      dup2\n      sload\n      dup2\n      0xff\n      mul\n      not\n      and\n      swap1\n      dup4\n      iszero\n      iszero\n      mul\n      or\n      swap1\n      sstore\n      pop\n      swap3\n      0x20\n      add\n      swap3\n      0x01\n      add\n      0x20\n      dup2\n      0x00\n      add\n      div\n      swap3\n      dup4\n      add\n      swap3\n      0x01\n      sub\n      mul\n      jump(tag_259)\n    tag_260:\n      dup1\n      iszero\n      tag_261\n      jumpi\n      dup3\n      dup2\n      0x0100\n      exp\n      dup2\n      sload\n      swap1\n      0xff\n      mul\n      not\n      and\n      swap1\n      sstore\n      0x01\n      add\n      0x20\n      dup2\n      0x00\n      add\n      div\n      swap3\n      dup4\n      add\n      swap3\n      0x01\n      sub\n      mul\n      jump(tag_260)\n    tag_261:\n      pop\n    tag_258:\n      pop\n      swap1\n      pop\n      tag_262\n      swap2\n      swap1\n      tag_263\n      jump\t// in\n    tag_262:\n      pop\n      swap1\n      jump\t// out\n    tag_263:\n    tag_264:\n      dup1\n      dup3\n      gt\n      iszero\n      tag_265\n      jumpi\n      0x00\n      dup2\n      0x00\n      swap1\n      sstore\n      pop\n      0x01\n      add\n      jump(tag_264)\n    tag_265:\n      pop\n      swap1\n      jump\t// out\n        /* \"#utility.yul\":24:746   */\n    tag_267:\n        /* \"#utility.yul\":120:125   */\n      0x00\n        /* \"#utility.yul\":145:226   */\n      tag_269\n        /* \"#utility.yul\":161:225   */\n      tag_270\n        /* \"#utility.yul\":218:224   */\n      dup5\n        /* \"#utility.yul\":161:225   */\n      tag_271\n      jump\t// in\n    tag_270:\n        /* \"#utility.yul\":145:226   */\n      tag_272\n      jump\t// in\n    tag_269:\n        /* \"#utility.yul\":136:226   */\n      swap1\n      pop\n        /* \"#utility.yul\":246:251   */\n      dup1\n        /* \"#utility.yul\":275:281   */\n      dup4\n        /* \"#utility.yul\":268:273   */\n      dup3\n        /* \"#utility.yul\":261:282   */\n      mstore\n        /* \"#utility.yul\":309:313   */\n      0x20\n        /* \"#utility.yul\":302:307   */\n      dup3\n        /* \"#utility.yul\":298:314   */\n      add\n        /* \"#utility.yul\":291:314   */\n      swap1\n      pop\n        /* \"#utility.yul\":335:341   */\n      dup3\n        /* \"#utility.yul\":385:388   */\n      dup6\n        /* \"#utility.yul\":377:381   */\n      0x20\n        /* \"#utility.yul\":369:375   */\n      dup7\n        /* \"#utility.yul\":365:382   */\n      mul\n        /* \"#utility.yul\":360:363   */\n      dup3\n        /* \"#utility.yul\":356:383   */\n      add\n        /* \"#utility.yul\":353:389   */\n      gt\n        /* \"#utility.yul\":350:493   */\n      iszero\n      tag_273\n      jumpi\n        /* \"#utility.yul\":404:483   */\n      tag_274\n      tag_275\n      jump\t// in\n    tag_274:\n        /* \"#utility.yul\":350:493   */\n    tag_273:\n        /* \"#utility.yul\":517:518   */\n      0x00\n        /* \"#utility.yul\":502:740   */\n    tag_276:\n        /* \"#utility.yul\":527:533   */\n      dup6\n        /* \"#utility.yul\":524:525   */\n      dup2\n        /* \"#utility.yul\":521:534   */\n      lt\n        /* \"#utility.yul\":502:740   */\n      iszero\n      tag_278\n      jumpi\n        /* \"#utility.yul\":595:598   */\n      dup2\n        /* \"#utility.yul\":624:661   */\n      tag_279\n        /* \"#utility.yul\":657:660   */\n      dup9\n        /* \"#utility.yul\":645:655   */\n      dup3\n        /* \"#utility.yul\":624:661   */\n      tag_280\n      jump\t// in\n    tag_279:\n        /* \"#utility.yul\":619:622   */\n      dup5\n        /* \"#utility.yul\":612:662   */\n      mstore\n        /* \"#utility.yul\":691:695   */\n      0x20\n        /* \"#utility.yul\":686:689   */\n      dup5\n        /* \"#utility.yul\":682:696   */\n      add\n        /* \"#utility.yul\":675:696   */\n      swap4\n      pop\n        /* \"#utility.yul\":725:729   */\n      0x20\n        /* \"#utility.yul\":720:723   */\n      dup4\n        /* \"#utility.yul\":716:730   */\n      add\n        /* \"#utility.yul\":709:730   */\n      swap3\n      pop\n        /* \"#utility.yul\":562:740   */\n      pop\n        /* \"#utility.yul\":549:550   */\n      0x01\n        /* \"#utility.yul\":546:547   */\n      dup2\n        /* \"#utility.yul\":542:551   */\n      add\n        /* \"#utility.yul\":537:551   */\n      swap1\n      pop\n        /* \"#utility.yul\":502:740   */\n      jump(tag_276)\n    tag_278:\n        /* \"#utility.yul\":506:520   */\n      pop\n        /* \"#utility.yul\":126:746   */\n      pop\n      pop\n        /* \"#utility.yul\":24:746   */\n      swap4\n      swap3\n      pop\n      pop\n      pop\n      jump\t// out\n        /* \"#utility.yul\":752:891   */\n    tag_280:\n        /* \"#utility.yul\":798:803   */\n      0x00\n        /* \"#utility.yul\":836:842   */\n      dup2\n        /* \"#utility.yul\":823:843   */\n      calldataload\n        /* \"#utility.yul\":814:843   */\n      swap1\n      pop\n        /* \"#utility.yul\":852:885   */\n      tag_282\n        /* \"#utility.yul\":879:884   */\n      dup2\n        /* \"#utility.yul\":852:885   */\n      tag_283\n      jump\t// in\n    tag_282:\n        /* \"#utility.yul\":752:891   */\n      swap3\n      swap2\n      pop\n      pop\n      jump\t// out\n        /* \"#utility.yul\":914:1284   */\n    tag_284:\n        /* \"#utility.yul\":985:990   */\n      0x00\n        /* \"#utility.yul\":1034:1037   */\n      dup3\n        /* \"#utility.yul\":1027:1031   */\n      0x1f\n        /* \"#utility.yul\":1019:1025   */\n      dup4\n        /* \"#utility.yul\":1015:1032   */\n      add\n        /* \"#utility.yul\":1011:1038   */\n      slt\n        /* \"#utility.yul\":1001:1123   */\n      tag_286\n      jumpi\n        /* \"#utility.yul\":1042:1121   */\n      tag_287\n      tag_288\n      jump\t// in\n    tag_287:\n        /* \"#utility.yul\":1001:1123   */\n    tag_286:\n        /* \"#utility.yul\":1159:1165   */\n      dup2\n        /* \"#utility.yul\":1146:1166   */\n      calldataload\n        /* \"#utility.yul\":1184:1278   */\n      tag_289\n        /* \"#utility.yul\":1274:1277   */\n      dup5\n        /* \"#utility.yul\":1266:1272   */\n      dup3\n        /* \"#utility.yul\":1259:1263   */\n      0x20\n        /* \"#utility.yul\":1251:1257   */\n      dup7\n        /* \"#utility.yul\":1247:1264   */\n      add\n        /* \"#utility.yul\":1184:1278   */\n      tag_267\n      jump\t// in\n    tag_289:\n        /* \"#utility.yul\":1175:1278   */\n      swap2\n      pop\n        /* \"#utility.yul\":991:1284   */\n      pop\n        /* \"#utility.yul\":914:1284   */\n      swap3\n      swap2\n      pop\n      pop\n      jump\t// out\n        /* \"#utility.yul\":1290:1423   */\n    tag_290:\n        /* \"#utility.yul\":1333:1338   */\n      0x00\n        /* \"#utility.yul\":1371:1377   */\n      dup2\n        /* \"#utility.yul\":1358:1378   */\n      calldataload\n        /* \"#utility.yul\":1349:1378   */\n      swap1\n      pop\n        /* \"#utility.yul\":1387:1417   */\n      tag_292\n        /* \"#utility.yul\":1411:1416   */\n      dup2\n        /* \"#utility.yul\":1387:1417   */\n      tag_293\n      jump\t// in\n    tag_292:\n        /* \"#utility.yul\":1290:1423   */\n      swap3\n      swap2\n      pop\n      pop\n      jump\t// out\n        /* \"#utility.yul\":1429:1566   */\n    tag_294:\n        /* \"#utility.yul\":1483:1488   */\n      0x00\n        /* \"#utility.yul\":1514:1520   */\n      dup2\n        /* \"#utility.yul\":1508:1521   */\n      mload\n        /* \"#utility.yul\":1499:1521   */\n      swap1\n      pop\n        /* \"#utility.yul\":1530:1560   */\n      tag_296\n        /* \"#utility.yul\":1554:1559   */\n      dup2\n        /* \"#utility.yul\":1530:1560   */\n      tag_293\n      jump\t// in\n    tag_296:\n        /* \"#utility.yul\":1429:1566   */\n      swap3\n      swap2\n      pop\n      pop\n      jump\t// out\n        /* \"#utility.yul\":1572:1711   */\n    tag_297:\n        /* \"#utility.yul\":1618:1623   */\n      0x00\n        /* \"#utility.yul\":1656:1662   */\n      dup2\n        /* \"#utility.yul\":1643:1663   */\n      calldataload\n        /* \"#utility.yul\":1634:1663   */\n      swap1\n      pop\n        /* \"#utility.yul\":1672:1705   */\n      tag_299\n        /* \"#utility.yul\":1699:1704   */\n      dup2\n        /* \"#utility.yul\":1672:1705   */\n      tag_300\n      jump\t// in\n    tag_299:\n        /* \"#utility.yul\":1572:1711   */\n      swap3\n      swap2\n      pop\n      pop\n      jump\t// out\n        /* \"#utility.yul\":1717:2046   */\n    tag_47:\n        /* \"#utility.yul\":1776:1782   */\n      0x00\n        /* \"#utility.yul\":1825:1827   */\n      0x20\n        /* \"#utility.yul\":1813:1822   */\n      dup3\n        /* \"#utility.yul\":1804:1811   */\n      dup5\n        /* \"#utility.yul\":1800:1823   */\n      sub\n        /* \"#utility.yul\":1796:1828   */\n      slt\n        /* \"#utility.yul\":1793:1912   */\n      iszero\n      tag_302\n      jumpi\n        /* \"#utility.yul\":1831:1910   */\n      tag_303\n      tag_304\n      jump\t// in\n    tag_303:\n        /* \"#utility.yul\":1793:1912   */\n    tag_302:\n        /* \"#utility.yul\":1951:1952   */\n      0x00\n        /* \"#utility.yul\":1976:2029   */\n      tag_305\n        /* \"#utility.yul\":2021:2028   */\n      dup5\n        /* \"#utility.yul\":2012:2018   */\n      dup3\n        /* \"#utility.yul\":2001:2010   */\n      dup6\n        /* \"#utility.yul\":1997:2019   */\n      add\n        /* \"#utility.yul\":1976:2029   */\n      tag_280\n      jump\t// in\n    tag_305:\n        /* \"#utility.yul\":1966:2029   */\n      swap2\n      pop\n        /* \"#utility.yul\":1922:2039   */\n      pop\n        /* \"#utility.yul\":1717:2046   */\n      swap3\n      swap2\n      pop\n      pop\n      jump\t// out\n        /* \"#utility.yul\":2052:2520   */\n    tag_70:\n        /* \"#utility.yul\":2117:2123   */\n      0x00\n        /* \"#utility.yul\":2125:2131   */\n      dup1\n        /* \"#utility.yul\":2174:2176   */\n      0x40\n        /* \"#utility.yul\":2162:2171   */\n      dup4\n        /* \"#utility.yul\":2153:2160   */\n      dup6\n        /* \"#utility.yul\":2149:2172   */\n      sub\n        /* \"#utility.yul\":2145:2177   */\n      slt\n        /* \"#utility.yul\":2142:2261   */\n      iszero\n      tag_307\n      jumpi\n        /* \"#utility.yul\":2180:2259   */\n      tag_308\n      tag_304\n      jump\t// in\n    tag_308:\n        /* \"#utility.yul\":2142:2261   */\n    tag_307:\n        /* \"#utility.yul\":2300:2301   */\n      0x00\n        /* \"#utility.yul\":2325:2378   */\n      tag_309\n        /* \"#utility.yul\":2370:2377   */\n      dup6\n        /* \"#utility.yul\":2361:2367   */\n      dup3\n        /* \"#utility.yul\":2350:2359   */\n      dup7\n        /* \"#utility.yul\":2346:2368   */\n      add\n        /* \"#utility.yul\":2325:2378   */\n      tag_280\n      jump\t// in\n    tag_309:\n        /* \"#utility.yul\":2315:2378   */\n      swap3\n      pop\n        /* \"#utility.yul\":2271:2388   */\n      pop\n        /* \"#utility.yul\":2427:2429   */\n      0x20\n        /* \"#utility.yul\":2453:2503   */\n      tag_310\n        /* \"#utility.yul\":2495:2502   */\n      dup6\n        /* \"#utility.yul\":2486:2492   */\n      dup3\n        /* \"#utility.yul\":2475:2484   */\n      dup7\n        /* \"#utility.yul\":2471:2493   */\n      add\n        /* \"#utility.yul\":2453:2503   */\n      tag_290\n      jump\t// in\n    tag_310:\n        /* \"#utility.yul\":2443:2503   */\n      swap2\n      pop\n        /* \"#utility.yul\":2398:2513   */\n      pop\n        /* \"#utility.yul\":2052:2520   */\n      swap3\n      pop\n      swap3\n      swap1\n      pop\n      jump\t// out\n        /* \"#utility.yul\":2526:3000   */\n    tag_58:\n        /* \"#utility.yul\":2594:2600   */\n      0x00\n        /* \"#utility.yul\":2602:2608   */\n      dup1\n        /* \"#utility.yul\":2651:2653   */\n      0x40\n        /* \"#utility.yul\":2639:2648   */\n      dup4\n        /* \"#utility.yul\":2630:2637   */\n      dup6\n        /* \"#utility.yul\":2626:2649   */\n      sub\n        /* \"#utility.yul\":2622:2654   */\n      slt\n        /* \"#utility.yul\":2619:2738   */\n      iszero\n      tag_312\n      jumpi\n        /* \"#utility.yul\":2657:2736   */\n      tag_313\n      tag_304\n      jump\t// in\n    tag_313:\n        /* \"#utility.yul\":2619:2738   */\n    tag_312:\n        /* \"#utility.yul\":2777:2778   */\n      0x00\n        /* \"#utility.yul\":2802:2855   */\n      tag_314\n        /* \"#utility.yul\":2847:2854   */\n      dup6\n        /* \"#utility.yul\":2838:2844   */\n      dup3\n        /* \"#utility.yul\":2827:2836   */\n      dup7\n        /* \"#utility.yul\":2823:2845   */\n      add\n        /* \"#utility.yul\":2802:2855   */\n      tag_280\n      jump\t// in\n    tag_314:\n        /* \"#utility.yul\":2792:2855   */\n      swap3\n      pop\n        /* \"#utility.yul\":2748:2865   */\n      pop\n        /* \"#utility.yul\":2904:2906   */\n      0x20\n        /* \"#utility.yul\":2930:2983   */\n      tag_315\n        /* \"#utility.yul\":2975:2982   */\n      dup6\n        /* \"#utility.yul\":2966:2972   */\n      dup3\n        /* \"#utility.yul\":2955:2964   */\n      dup7\n        /* \"#utility.yul\":2951:2973   */\n      add\n        /* \"#utility.yul\":2930:2983   */\n      tag_297\n      jump\t// in\n    tag_315:\n        /* \"#utility.yul\":2920:2983   */\n      swap2\n      pop\n        /* \"#utility.yul\":2875:2993   */\n      pop\n        /* \"#utility.yul\":2526:3000   */\n      swap3\n      pop\n      swap3\n      swap1\n      pop\n      jump\t// out\n        /* \"#utility.yul\":3006:3900   */\n    tag_32:\n        /* \"#utility.yul\":3124:3130   */\n      0x00\n        /* \"#utility.yul\":3132:3138   */\n      dup1\n        /* \"#utility.yul\":3181:3183   */\n      0x40\n        /* \"#utility.yul\":3169:3178   */\n      dup4\n        /* \"#utility.yul\":3160:3167   */\n      dup6\n        /* \"#utility.yul\":3156:3179   */\n      sub\n        /* \"#utility.yul\":3152:3184   */\n      slt\n        /* \"#utility.yul\":3149:3268   */\n      iszero\n      tag_317\n      jumpi\n        /* \"#utility.yul\":3187:3266   */\n      tag_318\n      tag_304\n      jump\t// in\n    tag_318:\n        /* \"#utility.yul\":3149:3268   */\n    tag_317:\n        /* \"#utility.yul\":3335:3336   */\n      0x00\n        /* \"#utility.yul\":3324:3333   */\n      dup4\n        /* \"#utility.yul\":3320:3337   */\n      add\n        /* \"#utility.yul\":3307:3338   */\n      calldataload\n        /* \"#utility.yul\":3365:3383   */\n      0xffffffffffffffff\n        /* \"#utility.yul\":3357:3363   */\n      dup2\n        /* \"#utility.yul\":3354:3384   */\n      gt\n        /* \"#utility.yul\":3351:3468   */\n      iszero\n      tag_319\n      jumpi\n        /* \"#utility.yul\":3387:3466   */\n      tag_320\n      tag_321\n      jump\t// in\n    tag_320:\n        /* \"#utility.yul\":3351:3468   */\n    tag_319:\n        /* \"#utility.yul\":3492:3570   */\n      tag_322\n        /* \"#utility.yul\":3562:3569   */\n      dup6\n        /* \"#utility.yul\":3553:3559   */\n      dup3\n        /* \"#utility.yul\":3542:3551   */\n      dup7\n        /* \"#utility.yul\":3538:3560   */\n      add\n        /* \"#utility.yul\":3492:3570   */\n      tag_284\n      jump\t// in\n    tag_322:\n        /* \"#utility.yul\":3482:3570   */\n      swap3\n      pop\n        /* \"#utility.yul\":3278:3580   */\n      pop\n        /* \"#utility.yul\":3647:3649   */\n      0x20\n        /* \"#utility.yul\":3636:3645   */\n      dup4\n        /* \"#utility.yul\":3632:3650   */\n      add\n        /* \"#utility.yul\":3619:3651   */\n      calldataload\n        /* \"#utility.yul\":3678:3696   */\n      0xffffffffffffffff\n        /* \"#utility.yul\":3670:3676   */\n      dup2\n        /* \"#utility.yul\":3667:3697   */\n      gt\n        /* \"#utility.yul\":3664:3781   */\n      iszero\n      tag_323\n      jumpi\n        /* \"#utility.yul\":3700:3779   */\n      tag_324\n      tag_321\n      jump\t// in\n    tag_324:\n        /* \"#utility.yul\":3664:3781   */\n    tag_323:\n        /* \"#utility.yul\":3805:3883   */\n      tag_325\n        /* \"#utility.yul\":3875:3882   */\n      dup6\n        /* \"#utility.yul\":3866:3872   */\n      dup3\n        /* \"#utility.yul\":3855:3864   */\n      dup7\n        /* \"#utility.yul\":3851:3873   */\n      add\n        /* \"#utility.yul\":3805:3883   */\n      tag_284\n      jump\t// in\n    tag_325:\n        /* \"#utility.yul\":3795:3883   */\n      swap2\n      pop\n        /* \"#utility.yul\":3590:3893   */\n      pop\n        /* \"#utility.yul\":3006:3900   */\n      swap3\n      pop\n      swap3\n      swap1\n      pop\n      jump\t// out\n        /* \"#utility.yul\":3906:4229   */\n    tag_39:\n        /* \"#utility.yul\":3962:3968   */\n      0x00\n        /* \"#utility.yul\":4011:4013   */\n      0x20\n        /* \"#utility.yul\":3999:4008   */\n      dup3\n        /* \"#utility.yul\":3990:3997   */\n      dup5\n        /* \"#utility.yul\":3986:4009   */\n      sub\n        /* \"#utility.yul\":3982:4014   */\n      slt\n        /* \"#utility.yul\":3979:4098   */\n      iszero\n      tag_327\n      jumpi\n        /* \"#utility.yul\":4017:4096   */\n      tag_328\n      tag_304\n      jump\t// in\n    tag_328:\n        /* \"#utility.yul\":3979:4098   */\n    tag_327:\n        /* \"#utility.yul\":4137:4138   */\n      0x00\n        /* \"#utility.yul\":4162:4212   */\n      tag_329\n        /* \"#utility.yul\":4204:4211   */\n      dup5\n        /* \"#utility.yul\":4195:4201   */\n      dup3\n        /* \"#utility.yul\":4184:4193   */\n      dup6\n        /* \"#utility.yul\":4180:4202   */\n      add\n        /* \"#utility.yul\":4162:4212   */\n      tag_290\n      jump\t// in\n    tag_329:\n        /* \"#utility.yul\":4152:4212   */\n      swap2\n      pop\n        /* \"#utility.yul\":4108:4222   */\n      pop\n        /* \"#utility.yul\":3906:4229   */\n      swap3\n      swap2\n      pop\n      pop\n      jump\t// out\n        /* \"#utility.yul\":4235:4580   */\n    tag_152:\n        /* \"#utility.yul\":4302:4308   */\n      0x00\n        /* \"#utility.yul\":4351:4353   */\n      0x20\n        /* \"#utility.yul\":4339:4348   */\n      dup3\n        /* \"#utility.yul\":4330:4337   */\n      dup5\n        /* \"#utility.yul\":4326:4349   */\n      sub\n        /* \"#utility.yul\":4322:4354   */\n      slt\n        /* \"#utility.yul\":4319:4438   */\n      iszero\n      tag_331\n      jumpi\n        /* \"#utility.yul\":4357:4436   */\n      tag_332\n      tag_304\n      jump\t// in\n    tag_332:\n        /* \"#utility.yul\":4319:4438   */\n    tag_331:\n        /* \"#utility.yul\":4477:4478   */\n      0x00\n        /* \"#utility.yul\":4502:4563   */\n      tag_333\n        /* \"#utility.yul\":4555:4562   */\n      dup5\n        /* \"#utility.yul\":4546:4552   */\n      dup3\n        /* \"#utility.yul\":4535:4544   */\n      dup6\n        /* \"#utility.yul\":4531:4553   */\n      add\n        /* \"#utility.yul\":4502:4563   */\n      tag_294\n      jump\t// in\n    tag_333:\n        /* \"#utility.yul\":4492:4563   */\n      swap2\n      pop\n        /* \"#utility.yul\":4448:4573   */\n      pop\n        /* \"#utility.yul\":4235:4580   */\n      swap3\n      swap2\n      pop\n      pop\n      jump\t// out\n        /* \"#utility.yul\":4586:4765   */\n    tag_334:\n        /* \"#utility.yul\":4655:4665   */\n      0x00\n        /* \"#utility.yul\":4676:4722   */\n      tag_336\n        /* \"#utility.yul\":4718:4721   */\n      dup4\n        /* \"#utility.yul\":4710:4716   */\n      dup4\n        /* \"#utility.yul\":4676:4722   */\n      tag_337\n      jump\t// in\n    tag_336:\n        /* \"#utility.yul\":4754:4758   */\n      0x20\n        /* \"#utility.yul\":4749:4752   */\n      dup4\n        /* \"#utility.yul\":4745:4759   */\n      add\n        /* \"#utility.yul\":4731:4759   */\n      swap1\n      pop\n        /* \"#utility.yul\":4586:4765   */\n      swap3\n      swap2\n      pop\n      pop\n      jump\t// out\n        /* \"#utility.yul\":4771:4879   */\n    tag_337:\n        /* \"#utility.yul\":4848:4872   */\n      tag_339\n        /* \"#utility.yul\":4866:4871   */\n      dup2\n        /* \"#utility.yul\":4848:4872   */\n      tag_340\n      jump\t// in\n    tag_339:\n        /* \"#utility.yul\":4843:4846   */\n      dup3\n        /* \"#utility.yul\":4836:4873   */\n      mstore\n        /* \"#utility.yul\":4771:4879   */\n      pop\n      pop\n      jump\t// out\n        /* \"#utility.yul\":4885:5003   */\n    tag_341:\n        /* \"#utility.yul\":4972:4996   */\n      tag_343\n        /* \"#utility.yul\":4990:4995   */\n      dup2\n        /* \"#utility.yul\":4972:4996   */\n      tag_340\n      jump\t// in\n    tag_343:\n        /* \"#utility.yul\":4967:4970   */\n      dup3\n        /* \"#utility.yul\":4960:4997   */\n      mstore\n        /* \"#utility.yul\":4885:5003   */\n      pop\n      pop\n      jump\t// out\n        /* \"#utility.yul\":5039:5771   */\n    tag_344:\n        /* \"#utility.yul\":5158:5161   */\n      0x00\n        /* \"#utility.yul\":5187:5241   */\n      tag_346\n        /* \"#utility.yul\":5235:5240   */\n      dup3\n        /* \"#utility.yul\":5187:5241   */\n      tag_347\n      jump\t// in\n    tag_346:\n        /* \"#utility.yul\":5257:5343   */\n      tag_348\n        /* \"#utility.yul\":5336:5342   */\n      dup2\n        /* \"#utility.yul\":5331:5334   */\n      dup6\n        /* \"#utility.yul\":5257:5343   */\n      tag_349\n      jump\t// in\n    tag_348:\n        /* \"#utility.yul\":5250:5343   */\n      swap4\n      pop\n        /* \"#utility.yul\":5367:5423   */\n      tag_350\n        /* \"#utility.yul\":5417:5422   */\n      dup4\n        /* \"#utility.yul\":5367:5423   */\n      tag_351\n      jump\t// in\n    tag_350:\n        /* \"#utility.yul\":5446:5453   */\n      dup1\n        /* \"#utility.yul\":5477:5478   */\n      0x00\n        /* \"#utility.yul\":5462:5746   */\n    tag_352:\n        /* \"#utility.yul\":5487:5493   */\n      dup4\n        /* \"#utility.yul\":5484:5485   */\n      dup2\n        /* \"#utility.yul\":5481:5494   */\n      lt\n        /* \"#utility.yul\":5462:5746   */\n      iszero\n      tag_354\n      jumpi\n        /* \"#utility.yul\":5563:5569   */\n      dup2\n        /* \"#utility.yul\":5557:5570   */\n      mload\n        /* \"#utility.yul\":5590:5653   */\n      tag_355\n        /* \"#utility.yul\":5649:5652   */\n      dup9\n        /* \"#utility.yul\":5634:5647   */\n      dup3\n        /* \"#utility.yul\":5590:5653   */\n      tag_334\n      jump\t// in\n    tag_355:\n        /* \"#utility.yul\":5583:5653   */\n      swap8\n      pop\n        /* \"#utility.yul\":5676:5736   */\n      tag_356\n        /* \"#utility.yul\":5729:5735   */\n      dup4\n        /* \"#utility.yul\":5676:5736   */\n      tag_357\n      jump\t// in\n    tag_356:\n        /* \"#utility.yul\":5666:5736   */\n      swap3\n      pop\n        /* \"#utility.yul\":5522:5746   */\n      pop\n        /* \"#utility.yul\":5509:5510   */\n      0x01\n        /* \"#utility.yul\":5506:5507   */\n      dup2\n        /* \"#utility.yul\":5502:5511   */\n      add\n        /* \"#utility.yul\":5497:5511   */\n      swap1\n      pop\n        /* \"#utility.yul\":5462:5746   */\n      jump(tag_352)\n    tag_354:\n        /* \"#utility.yul\":5466:5480   */\n      pop\n        /* \"#utility.yul\":5762:5765   */\n      dup6\n        /* \"#utility.yul\":5755:5765   */\n      swap4\n      pop\n        /* \"#utility.yul\":5163:5771   */\n      pop\n      pop\n      pop\n        /* \"#utility.yul\":5039:5771   */\n      swap3\n      swap2\n      pop\n      pop\n      jump\t// out\n        /* \"#utility.yul\":5777:5886   */\n    tag_358:\n        /* \"#utility.yul\":5858:5879   */\n      tag_360\n        /* \"#utility.yul\":5873:5878   */\n      dup2\n        /* \"#utility.yul\":5858:5879   */\n      tag_361\n      jump\t// in\n    tag_360:\n        /* \"#utility.yul\":5853:5856   */\n      dup3\n        /* \"#utility.yul\":5846:5880   */\n      mstore\n        /* \"#utility.yul\":5777:5886   */\n      pop\n      pop\n      jump\t// out\n        /* \"#utility.yul\":5892:6258   */\n    tag_362:\n        /* \"#utility.yul\":6034:6037   */\n      0x00\n        /* \"#utility.yul\":6055:6122   */\n      tag_364\n        /* \"#utility.yul\":6119:6121   */\n      0x10\n        /* \"#utility.yul\":6114:6117   */\n      dup4\n        /* \"#utility.yul\":6055:6122   */\n      tag_365\n      jump\t// in\n    tag_364:\n        /* \"#utility.yul\":6048:6122   */\n      swap2\n      pop\n        /* \"#utility.yul\":6131:6224   */\n      tag_366\n        /* \"#utility.yul\":6220:6223   */\n      dup3\n        /* \"#utility.yul\":6131:6224   */\n      tag_367\n      jump\t// in\n    tag_366:\n        /* \"#utility.yul\":6249:6251   */\n      0x20\n        /* \"#utility.yul\":6244:6247   */\n      dup3\n        /* \"#utility.yul\":6240:6252   */\n      add\n        /* \"#utility.yul\":6233:6252   */\n      swap1\n      pop\n        /* \"#utility.yul\":5892:6258   */\n      swap2\n      swap1\n      pop\n      jump\t// out\n        /* \"#utility.yul\":6264:6630   */\n    tag_368:\n        /* \"#utility.yul\":6406:6409   */\n      0x00\n        /* \"#utility.yul\":6427:6494   */\n      tag_370\n        /* \"#utility.yul\":6491:6493   */\n      0x0b\n        /* \"#utility.yul\":6486:6489   */\n      dup4\n        /* \"#utility.yul\":6427:6494   */\n      tag_365\n      jump\t// in\n    tag_370:\n        /* \"#utility.yul\":6420:6494   */\n      swap2\n      pop\n        /* \"#utility.yul\":6503:6596   */\n      tag_371\n        /* \"#utility.yul\":6592:6595   */\n      dup3\n        /* \"#utility.yul\":6503:6596   */\n      tag_372\n      jump\t// in\n    tag_371:\n        /* \"#utility.yul\":6621:6623   */\n      0x20\n        /* \"#utility.yul\":6616:6619   */\n      dup3\n        /* \"#utility.yul\":6612:6624   */\n      add\n        /* \"#utility.yul\":6605:6624   */\n      swap1\n      pop\n        /* \"#utility.yul\":6264:6630   */\n      swap2\n      swap1\n      pop\n      jump\t// out\n        /* \"#utility.yul\":6636:7002   */\n    tag_373:\n        /* \"#utility.yul\":6778:6781   */\n      0x00\n        /* \"#utility.yul\":6799:6866   */\n      tag_375\n        /* \"#utility.yul\":6863:6865   */\n      0x0d\n        /* \"#utility.yul\":6858:6861   */\n      dup4\n        /* \"#utility.yul\":6799:6866   */\n      tag_365\n      jump\t// in\n    tag_375:\n        /* \"#utility.yul\":6792:6866   */\n      swap2\n      pop\n        /* \"#utility.yul\":6875:6968   */\n      tag_376\n        /* \"#utility.yul\":6964:6967   */\n      dup3\n        /* \"#utility.yul\":6875:6968   */\n      tag_377\n      jump\t// in\n    tag_376:\n        /* \"#utility.yul\":6993:6995   */\n      0x20\n        /* \"#utility.yul\":6988:6991   */\n      dup3\n        /* \"#utility.yul\":6984:6996   */\n      add\n        /* \"#utility.yul\":6977:6996   */\n      swap1\n      pop\n        /* \"#utility.yul\":6636:7002   */\n      swap2\n      swap1\n      pop\n      jump\t// out\n        /* \"#utility.yul\":7008:7373   */\n    tag_378:\n        /* \"#utility.yul\":7150:7153   */\n      0x00\n        /* \"#utility.yul\":7171:7237   */\n      tag_380\n        /* \"#utility.yul\":7235:7236   */\n      0x09\n        /* \"#utility.yul\":7230:7233   */\n      dup4\n        /* \"#utility.yul\":7171:7237   */\n      tag_365\n      jump\t// in\n    tag_380:\n        /* \"#utility.yul\":7164:7237   */\n      swap2\n      pop\n        /* \"#utility.yul\":7246:7339   */\n      tag_381\n        /* \"#utility.yul\":7335:7338   */\n      dup3\n        /* \"#utility.yul\":7246:7339   */\n      tag_382\n      jump\t// in\n    tag_381:\n        /* \"#utility.yul\":7364:7366   */\n      0x20\n        /* \"#utility.yul\":7359:7362   */\n      dup3\n        /* \"#utility.yul\":7355:7367   */\n      add\n        /* \"#utility.yul\":7348:7367   */\n      swap1\n      pop\n        /* \"#utility.yul\":7008:7373   */\n      swap2\n      swap1\n      pop\n      jump\t// out\n        /* \"#utility.yul\":7379:7745   */\n    tag_383:\n        /* \"#utility.yul\":7521:7524   */\n      0x00\n        /* \"#utility.yul\":7542:7609   */\n      tag_385\n        /* \"#utility.yul\":7606:7608   */\n      0x20\n        /* \"#utility.yul\":7601:7604   */\n      dup4\n        /* \"#utility.yul\":7542:7609   */\n      tag_365\n      jump\t// in\n    tag_385:\n        /* \"#utility.yul\":7535:7609   */\n      swap2\n      pop\n        /* \"#utility.yul\":7618:7711   */\n      tag_386\n        /* \"#utility.yul\":7707:7710   */\n      dup3\n        /* \"#utility.yul\":7618:7711   */\n      tag_387\n      jump\t// in\n    tag_386:\n        /* \"#utility.yul\":7736:7738   */\n      0x20\n        /* \"#utility.yul\":7731:7734   */\n      dup3\n        /* \"#utility.yul\":7727:7739   */\n      add\n        /* \"#utility.yul\":7720:7739   */\n      swap1\n      pop\n        /* \"#utility.yul\":7379:7745   */\n      swap2\n      swap1\n      pop\n      jump\t// out\n        /* \"#utility.yul\":7751:8116   */\n    tag_388:\n        /* \"#utility.yul\":7893:7896   */\n      0x00\n        /* \"#utility.yul\":7914:7980   */\n      tag_390\n        /* \"#utility.yul\":7978:7979   */\n      0x07\n        /* \"#utility.yul\":7973:7976   */\n      dup4\n        /* \"#utility.yul\":7914:7980   */\n      tag_365\n      jump\t// in\n    tag_390:\n        /* \"#utility.yul\":7907:7980   */\n      swap2\n      pop\n        /* \"#utility.yul\":7989:8082   */\n      tag_391\n        /* \"#utility.yul\":8078:8081   */\n      dup3\n        /* \"#utility.yul\":7989:8082   */\n      tag_392\n      jump\t// in\n    tag_391:\n        /* \"#utility.yul\":8107:8109   */\n      0x20\n        /* \"#utility.yul\":8102:8105   */\n      dup3\n        /* \"#utility.yul\":8098:8110   */\n      add\n        /* \"#utility.yul\":8091:8110   */\n      swap1\n      pop\n        /* \"#utility.yul\":7751:8116   */\n      swap2\n      swap1\n      pop\n      jump\t// out\n        /* \"#utility.yul\":8122:8488   */\n    tag_393:\n        /* \"#utility.yul\":8264:8267   */\n      0x00\n        /* \"#utility.yul\":8285:8352   */\n      tag_395\n        /* \"#utility.yul\":8349:8351   */\n      0x0f\n        /* \"#utility.yul\":8344:8347   */\n      dup4\n        /* \"#utility.yul\":8285:8352   */\n      tag_365\n      jump\t// in\n    tag_395:\n        /* \"#utility.yul\":8278:8352   */\n      swap2\n      pop\n        /* \"#utility.yul\":8361:8454   */\n      tag_396\n        /* \"#utility.yul\":8450:8453   */\n      dup3\n        /* \"#utility.yul\":8361:8454   */\n      tag_397\n      jump\t// in\n    tag_396:\n        /* \"#utility.yul\":8479:8481   */\n      0x20\n        /* \"#utility.yul\":8474:8477   */\n      dup3\n        /* \"#utility.yul\":8470:8482   */\n      add\n        /* \"#utility.yul\":8463:8482   */\n      swap1\n      pop\n        /* \"#utility.yul\":8122:8488   */\n      swap2\n      swap1\n      pop\n      jump\t// out\n        /* \"#utility.yul\":8494:8612   */\n    tag_398:\n        /* \"#utility.yul\":8581:8605   */\n      tag_400\n        /* \"#utility.yul\":8599:8604   */\n      dup2\n        /* \"#utility.yul\":8581:8605   */\n      tag_401\n      jump\t// in\n    tag_400:\n        /* \"#utility.yul\":8576:8579   */\n      dup3\n        /* \"#utility.yul\":8569:8606   */\n      mstore\n        /* \"#utility.yul\":8494:8612   */\n      pop\n      pop\n      jump\t// out\n        /* \"#utility.yul\":8618:8840   */\n    tag_55:\n        /* \"#utility.yul\":8711:8715   */\n      0x00\n        /* \"#utility.yul\":8749:8751   */\n      0x20\n        /* \"#utility.yul\":8738:8747   */\n      dup3\n        /* \"#utility.yul\":8734:8752   */\n      add\n        /* \"#utility.yul\":8726:8752   */\n      swap1\n      pop\n        /* \"#utility.yul\":8762:8833   */\n      tag_403\n        /* \"#utility.yul\":8830:8831   */\n      0x00\n        /* \"#utility.yul\":8819:8828   */\n      dup4\n        /* \"#utility.yul\":8815:8832   */\n      add\n        /* \"#utility.yul\":8806:8812   */\n      dup5\n        /* \"#utility.yul\":8762:8833   */\n      tag_341\n      jump\t// in\n    tag_403:\n        /* \"#utility.yul\":8618:8840   */\n      swap3\n      swap2\n      pop\n      pop\n      jump\t// out\n        /* \"#utility.yul\":8846:9288   */\n    tag_147:\n        /* \"#utility.yul\":8995:8999   */\n      0x00\n        /* \"#utility.yul\":9033:9035   */\n      0x60\n        /* \"#utility.yul\":9022:9031   */\n      dup3\n        /* \"#utility.yul\":9018:9036   */\n      add\n        /* \"#utility.yul\":9010:9036   */\n      swap1\n      pop\n        /* \"#utility.yul\":9046:9117   */\n      tag_405\n        /* \"#utility.yul\":9114:9115   */\n      0x00\n        /* \"#utility.yul\":9103:9112   */\n      dup4\n        /* \"#utility.yul\":9099:9116   */\n      add\n        /* \"#utility.yul\":9090:9096   */\n      dup7\n        /* \"#utility.yul\":9046:9117   */\n      tag_341\n      jump\t// in\n    tag_405:\n        /* \"#utility.yul\":9127:9199   */\n      tag_406\n        /* \"#utility.yul\":9195:9197   */\n      0x20\n        /* \"#utility.yul\":9184:9193   */\n      dup4\n        /* \"#utility.yul\":9180:9198   */\n      add\n        /* \"#utility.yul\":9171:9177   */\n      dup6\n        /* \"#utility.yul\":9127:9199   */\n      tag_341\n      jump\t// in\n    tag_406:\n        /* \"#utility.yul\":9209:9281   */\n      tag_407\n        /* \"#utility.yul\":9277:9279   */\n      0x40\n        /* \"#utility.yul\":9266:9275   */\n      dup4\n        /* \"#utility.yul\":9262:9280   */\n      add\n        /* \"#utility.yul\":9253:9259   */\n      dup5\n        /* \"#utility.yul\":9209:9281   */\n      tag_398\n      jump\t// in\n    tag_407:\n        /* \"#utility.yul\":8846:9288   */\n      swap5\n      swap4\n      pop\n      pop\n      pop\n      pop\n      jump\t// out\n        /* \"#utility.yul\":9294:9626   */\n    tag_187:\n        /* \"#utility.yul\":9415:9419   */\n      0x00\n        /* \"#utility.yul\":9453:9455   */\n      0x40\n        /* \"#utility.yul\":9442:9451   */\n      dup3\n        /* \"#utility.yul\":9438:9456   */\n      add\n        /* \"#utility.yul\":9430:9456   */\n      swap1\n      pop\n        /* \"#utility.yul\":9466:9537   */\n      tag_409\n        /* \"#utility.yul\":9534:9535   */\n      0x00\n        /* \"#utility.yul\":9523:9532   */\n      dup4\n        /* \"#utility.yul\":9519:9536   */\n      add\n        /* \"#utility.yul\":9510:9516   */\n      dup6\n        /* \"#utility.yul\":9466:9537   */\n      tag_341\n      jump\t// in\n    tag_409:\n        /* \"#utility.yul\":9547:9619   */\n      tag_410\n        /* \"#utility.yul\":9615:9617   */\n      0x20\n        /* \"#utility.yul\":9604:9613   */\n      dup4\n        /* \"#utility.yul\":9600:9618   */\n      add\n        /* \"#utility.yul\":9591:9597   */\n      dup5\n        /* \"#utility.yul\":9547:9619   */\n      tag_398\n      jump\t// in\n    tag_410:\n        /* \"#utility.yul\":9294:9626   */\n      swap4\n      swap3\n      pop\n      pop\n      pop\n      jump\t// out\n        /* \"#utility.yul\":9632:10266   */\n    tag_120:\n        /* \"#utility.yul\":9853:9857   */\n      0x00\n        /* \"#utility.yul\":9891:9893   */\n      0x40\n        /* \"#utility.yul\":9880:9889   */\n      dup3\n        /* \"#utility.yul\":9876:9894   */\n      add\n        /* \"#utility.yul\":9868:9894   */\n      swap1\n      pop\n        /* \"#utility.yul\":9940:9949   */\n      dup2\n        /* \"#utility.yul\":9934:9938   */\n      dup2\n        /* \"#utility.yul\":9930:9950   */\n      sub\n        /* \"#utility.yul\":9926:9927   */\n      0x00\n        /* \"#utility.yul\":9915:9924   */\n      dup4\n        /* \"#utility.yul\":9911:9928   */\n      add\n        /* \"#utility.yul\":9904:9951   */\n      mstore\n        /* \"#utility.yul\":9968:10076   */\n      tag_412\n        /* \"#utility.yul\":10071:10075   */\n      dup2\n        /* \"#utility.yul\":10062:10068   */\n      dup6\n        /* \"#utility.yul\":9968:10076   */\n      tag_344\n      jump\t// in\n    tag_412:\n        /* \"#utility.yul\":9960:10076   */\n      swap1\n      pop\n        /* \"#utility.yul\":10123:10132   */\n      dup2\n        /* \"#utility.yul\":10117:10121   */\n      dup2\n        /* \"#utility.yul\":10113:10133   */\n      sub\n        /* \"#utility.yul\":10108:10110   */\n      0x20\n        /* \"#utility.yul\":10097:10106   */\n      dup4\n        /* \"#utility.yul\":10093:10111   */\n      add\n        /* \"#utility.yul\":10086:10134   */\n      mstore\n        /* \"#utility.yul\":10151:10259   */\n      tag_413\n        /* \"#utility.yul\":10254:10258   */\n      dup2\n        /* \"#utility.yul\":10245:10251   */\n      dup5\n        /* \"#utility.yul\":10151:10259   */\n      tag_344\n      jump\t// in\n    tag_413:\n        /* \"#utility.yul\":10143:10259   */\n      swap1\n      pop\n        /* \"#utility.yul\":9632:10266   */\n      swap4\n      swap3\n      pop\n      pop\n      pop\n      jump\t// out\n        /* \"#utility.yul\":10272:10482   */\n    tag_44:\n        /* \"#utility.yul\":10359:10363   */\n      0x00\n        /* \"#utility.yul\":10397:10399   */\n      0x20\n        /* \"#utility.yul\":10386:10395   */\n      dup3\n        /* \"#utility.yul\":10382:10400   */\n      add\n        /* \"#utility.yul\":10374:10400   */\n      swap1\n      pop\n        /* \"#utility.yul\":10410:10475   */\n      tag_415\n        /* \"#utility.yul\":10472:10473   */\n      0x00\n        /* \"#utility.yul\":10461:10470   */\n      dup4\n        /* \"#utility.yul\":10457:10474   */\n      add\n        /* \"#utility.yul\":10448:10454   */\n      dup5\n        /* \"#utility.yul\":10410:10475   */\n      tag_358\n      jump\t// in\n    tag_415:\n        /* \"#utility.yul\":10272:10482   */\n      swap3\n      swap2\n      pop\n      pop\n      jump\t// out\n        /* \"#utility.yul\":10488:10907   */\n    tag_112:\n        /* \"#utility.yul\":10654:10658   */\n      0x00\n        /* \"#utility.yul\":10692:10694   */\n      0x20\n        /* \"#utility.yul\":10681:10690   */\n      dup3\n        /* \"#utility.yul\":10677:10695   */\n      add\n        /* \"#utility.yul\":10669:10695   */\n      swap1\n      pop\n        /* \"#utility.yul\":10741:10750   */\n      dup2\n        /* \"#utility.yul\":10735:10739   */\n      dup2\n        /* \"#utility.yul\":10731:10751   */\n      sub\n        /* \"#utility.yul\":10727:10728   */\n      0x00\n        /* \"#utility.yul\":10716:10725   */\n      dup4\n        /* \"#utility.yul\":10712:10729   */\n      add\n        /* \"#utility.yul\":10705:10752   */\n      mstore\n        /* \"#utility.yul\":10769:10900   */\n      tag_417\n        /* \"#utility.yul\":10895:10899   */\n      dup2\n        /* \"#utility.yul\":10769:10900   */\n      tag_362\n      jump\t// in\n    tag_417:\n        /* \"#utility.yul\":10761:10900   */\n      swap1\n      pop\n        /* \"#utility.yul\":10488:10907   */\n      swap2\n      swap1\n      pop\n      jump\t// out\n        /* \"#utility.yul\":10913:11332   */\n    tag_99:\n        /* \"#utility.yul\":11079:11083   */\n      0x00\n        /* \"#utility.yul\":11117:11119   */\n      0x20\n        /* \"#utility.yul\":11106:11115   */\n      dup3\n        /* \"#utility.yul\":11102:11120   */\n      add\n        /* \"#utility.yul\":11094:11120   */\n      swap1\n      pop\n        /* \"#utility.yul\":11166:11175   */\n      dup2\n        /* \"#utility.yul\":11160:11164   */\n      dup2\n        /* \"#utility.yul\":11156:11176   */\n      sub\n        /* \"#utility.yul\":11152:11153   */\n      0x00\n        /* \"#utility.yul\":11141:11150   */\n      dup4\n        /* \"#utility.yul\":11137:11154   */\n      add\n        /* \"#utility.yul\":11130:11177   */\n      mstore\n        /* \"#utility.yul\":11194:11325   */\n      tag_419\n        /* \"#utility.yul\":11320:11324   */\n      dup2\n        /* \"#utility.yul\":11194:11325   */\n      tag_368\n      jump\t// in\n    tag_419:\n        /* \"#utility.yul\":11186:11325   */\n      swap1\n      pop\n        /* \"#utility.yul\":10913:11332   */\n      swap2\n      swap1\n      pop\n      jump\t// out\n        /* \"#utility.yul\":11338:11757   */\n    tag_131:\n        /* \"#utility.yul\":11504:11508   */\n      0x00\n        /* \"#utility.yul\":11542:11544   */\n      0x20\n        /* \"#utility.yul\":11531:11540   */\n      dup3\n        /* \"#utility.yul\":11527:11545   */\n      add\n        /* \"#utility.yul\":11519:11545   */\n      swap1\n      pop\n        /* \"#utility.yul\":11591:11600   */\n      dup2\n        /* \"#utility.yul\":11585:11589   */\n      dup2\n        /* \"#utility.yul\":11581:11601   */\n      sub\n        /* \"#utility.yul\":11577:11578   */\n      0x00\n        /* \"#utility.yul\":11566:11575   */\n      dup4\n        /* \"#utility.yul\":11562:11579   */\n      add\n        /* \"#utility.yul\":11555:11602   */\n      mstore\n        /* \"#utility.yul\":11619:11750   */\n      tag_421\n        /* \"#utility.yul\":11745:11749   */\n      dup2\n        /* \"#utility.yul\":11619:11750   */\n      tag_373\n      jump\t// in\n    tag_421:\n        /* \"#utility.yul\":11611:11750   */\n      swap1\n      pop\n        /* \"#utility.yul\":11338:11757   */\n      swap2\n      swap1\n      pop\n      jump\t// out\n        /* \"#utility.yul\":11763:12182   */\n    tag_208:\n        /* \"#utility.yul\":11929:11933   */\n      0x00\n        /* \"#utility.yul\":11967:11969   */\n      0x20\n        /* \"#utility.yul\":11956:11965   */\n      dup3\n        /* \"#utility.yul\":11952:11970   */\n      add\n        /* \"#utility.yul\":11944:11970   */\n      swap1\n      pop\n        /* \"#utility.yul\":12016:12025   */\n      dup2\n        /* \"#utility.yul\":12010:12014   */\n      dup2\n        /* \"#utility.yul\":12006:12026   */\n      sub\n        /* \"#utility.yul\":12002:12003   */\n      0x00\n        /* \"#utility.yul\":11991:12000   */\n      dup4\n        /* \"#utility.yul\":11987:12004   */\n      add\n        /* \"#utility.yul\":11980:12027   */\n      mstore\n        /* \"#utility.yul\":12044:12175   */\n      tag_423\n        /* \"#utility.yul\":12170:12174   */\n      dup2\n        /* \"#utility.yul\":12044:12175   */\n      tag_378\n      jump\t// in\n    tag_423:\n        /* \"#utility.yul\":12036:12175   */\n      swap1\n      pop\n        /* \"#utility.yul\":11763:12182   */\n      swap2\n      swap1\n      pop\n      jump\t// out\n        /* \"#utility.yul\":12188:12607   */\n    tag_248:\n        /* \"#utility.yul\":12354:12358   */\n      0x00\n        /* \"#utility.yul\":12392:12394   */\n      0x20\n        /* \"#utility.yul\":12381:12390   */\n      dup3\n        /* \"#utility.yul\":12377:12395   */\n      add\n        /* \"#utility.yul\":12369:12395   */\n      swap1\n      pop\n        /* \"#utility.yul\":12441:12450   */\n      dup2\n        /* \"#utility.yul\":12435:12439   */\n      dup2\n        /* \"#utility.yul\":12431:12451   */\n      sub\n        /* \"#utility.yul\":12427:12428   */\n      0x00\n        /* \"#utility.yul\":12416:12425   */\n      dup4\n        /* \"#utility.yul\":12412:12429   */\n      add\n        /* \"#utility.yul\":12405:12452   */\n      mstore\n        /* \"#utility.yul\":12469:12600   */\n      tag_425\n        /* \"#utility.yul\":12595:12599   */\n      dup2\n        /* \"#utility.yul\":12469:12600   */\n      tag_383\n      jump\t// in\n    tag_425:\n        /* \"#utility.yul\":12461:12600   */\n      swap1\n      pop\n        /* \"#utility.yul\":12188:12607   */\n      swap2\n      swap1\n      pop\n      jump\t// out\n        /* \"#utility.yul\":12613:13032   */\n    tag_139:\n        /* \"#utility.yul\":12779:12783   */\n      0x00\n        /* \"#utility.yul\":12817:12819   */\n      0x20\n        /* \"#utility.yul\":12806:12815   */\n      dup3\n        /* \"#utility.yul\":12802:12820   */\n      add\n        /* \"#utility.yul\":12794:12820   */\n      swap1\n      pop\n        /* \"#utility.yul\":12866:12875   */\n      dup2\n        /* \"#utility.yul\":12860:12864   */\n      dup2\n        /* \"#utility.yul\":12856:12876   */\n      sub\n        /* \"#utility.yul\":12852:12853   */\n      0x00\n        /* \"#utility.yul\":12841:12850   */\n      dup4\n        /* \"#utility.yul\":12837:12854   */\n      add\n        /* \"#utility.yul\":12830:12877   */\n      mstore\n        /* \"#utility.yul\":12894:13025   */\n      tag_427\n        /* \"#utility.yul\":13020:13024   */\n      dup2\n        /* \"#utility.yul\":12894:13025   */\n      tag_388\n      jump\t// in\n    tag_427:\n        /* \"#utility.yul\":12886:13025   */\n      swap1\n      pop\n        /* \"#utility.yul\":12613:13032   */\n      swap2\n      swap1\n      pop\n      jump\t// out\n        /* \"#utility.yul\":13038:13457   */\n    tag_103:\n        /* \"#utility.yul\":13204:13208   */\n      0x00\n        /* \"#utility.yul\":13242:13244   */\n      0x20\n        /* \"#utility.yul\":13231:13240   */\n      dup3\n        /* \"#utility.yul\":13227:13245   */\n      add\n        /* \"#utility.yul\":13219:13245   */\n      swap1\n      pop\n        /* \"#utility.yul\":13291:13300   */\n      dup2\n        /* \"#utility.yul\":13285:13289   */\n      dup2\n        /* \"#utility.yul\":13281:13301   */\n      sub\n        /* \"#utility.yul\":13277:13278   */\n      0x00\n        /* \"#utility.yul\":13266:13275   */\n      dup4\n        /* \"#utility.yul\":13262:13279   */\n      add\n        /* \"#utility.yul\":13255:13302   */\n      mstore\n        /* \"#utility.yul\":13319:13450   */\n      tag_429\n        /* \"#utility.yul\":13445:13449   */\n      dup2\n        /* \"#utility.yul\":13319:13450   */\n      tag_393\n      jump\t// in\n    tag_429:\n        /* \"#utility.yul\":13311:13450   */\n      swap1\n      pop\n        /* \"#utility.yul\":13038:13457   */\n      swap2\n      swap1\n      pop\n      jump\t// out\n        /* \"#utility.yul\":13463:13685   */\n    tag_29:\n        /* \"#utility.yul\":13556:13560   */\n      0x00\n        /* \"#utility.yul\":13594:13596   */\n      0x20\n        /* \"#utility.yul\":13583:13592   */\n      dup3\n        /* \"#utility.yul\":13579:13597   */\n      add\n        /* \"#utility.yul\":13571:13597   */\n      swap1\n      pop\n        /* \"#utility.yul\":13607:13678   */\n      tag_431\n        /* \"#utility.yul\":13675:13676   */\n      0x00\n        /* \"#utility.yul\":13664:13673   */\n      dup4\n        /* \"#utility.yul\":13660:13677   */\n      add\n        /* \"#utility.yul\":13651:13657   */\n      dup5\n        /* \"#utility.yul\":13607:13678   */\n      tag_398\n      jump\t// in\n    tag_431:\n        /* \"#utility.yul\":13463:13685   */\n      swap3\n      swap2\n      pop\n      pop\n      jump\t// out\n        /* \"#utility.yul\":13691:13820   */\n    tag_272:\n        /* \"#utility.yul\":13725:13731   */\n      0x00\n        /* \"#utility.yul\":13752:13772   */\n      tag_433\n      tag_434\n      jump\t// in\n    tag_433:\n        /* \"#utility.yul\":13742:13772   */\n      swap1\n      pop\n        /* \"#utility.yul\":13781:13814   */\n      tag_435\n        /* \"#utility.yul\":13809:13813   */\n      dup3\n        /* \"#utility.yul\":13801:13807   */\n      dup3\n        /* \"#utility.yul\":13781:13814   */\n      tag_436\n      jump\t// in\n    tag_435:\n        /* \"#utility.yul\":13691:13820   */\n      swap2\n      swap1\n      pop\n      jump\t// out\n        /* \"#utility.yul\":13826:13901   */\n    tag_434:\n        /* \"#utility.yul\":13859:13865   */\n      0x00\n        /* \"#utility.yul\":13892:13894   */\n      0x40\n        /* \"#utility.yul\":13886:13895   */\n      mload\n        /* \"#utility.yul\":13876:13895   */\n      swap1\n      pop\n        /* \"#utility.yul\":13826:13901   */\n      swap1\n      jump\t// out\n        /* \"#utility.yul\":13907:14218   */\n    tag_271:\n        /* \"#utility.yul\":13984:13988   */\n      0x00\n        /* \"#utility.yul\":14074:14092   */\n      0xffffffffffffffff\n        /* \"#utility.yul\":14066:14072   */\n      dup3\n        /* \"#utility.yul\":14063:14093   */\n      gt\n        /* \"#utility.yul\":14060:14116   */\n      iszero\n      tag_439\n      jumpi\n        /* \"#utility.yul\":14096:14114   */\n      tag_440\n      tag_191\n      jump\t// in\n    tag_440:\n        /* \"#utility.yul\":14060:14116   */\n    tag_439:\n        /* \"#utility.yul\":14146:14150   */\n      0x20\n        /* \"#utility.yul\":14138:14144   */\n      dup3\n        /* \"#utility.yul\":14134:14151   */\n      mul\n        /* \"#utility.yul\":14126:14151   */\n      swap1\n      pop\n        /* \"#utility.yul\":14206:14210   */\n      0x20\n        /* \"#utility.yul\":14200:14204   */\n      dup2\n        /* \"#utility.yul\":14196:14211   */\n      add\n        /* \"#utility.yul\":14188:14211   */\n      swap1\n      pop\n        /* \"#utility.yul\":13907:14218   */\n      swap2\n      swap1\n      pop\n      jump\t// out\n        /* \"#utility.yul\":14224:14356   */\n    tag_351:\n        /* \"#utility.yul\":14291:14295   */\n      0x00\n        /* \"#utility.yul\":14314:14317   */\n      dup2\n        /* \"#utility.yul\":14306:14317   */\n      swap1\n      pop\n        /* \"#utility.yul\":14344:14348   */\n      0x20\n        /* \"#utility.yul\":14339:14342   */\n      dup3\n        /* \"#utility.yul\":14335:14349   */\n      add\n        /* \"#utility.yul\":14327:14349   */\n      swap1\n      pop\n        /* \"#utility.yul\":14224:14356   */\n      swap2\n      swap1\n      pop\n      jump\t// out\n        /* \"#utility.yul\":14362:14476   */\n    tag_347:\n        /* \"#utility.yul\":14429:14435   */\n      0x00\n        /* \"#utility.yul\":14463:14468   */\n      dup2\n        /* \"#utility.yul\":14457:14469   */\n      mload\n        /* \"#utility.yul\":14447:14469   */\n      swap1\n      pop\n        /* \"#utility.yul\":14362:14476   */\n      swap2\n      swap1\n      pop\n      jump\t// out\n        /* \"#utility.yul\":14482:14595   */\n    tag_357:\n        /* \"#utility.yul\":14552:14556   */\n      0x00\n        /* \"#utility.yul\":14584:14588   */\n      0x20\n        /* \"#utility.yul\":14579:14582   */\n      dup3\n        /* \"#utility.yul\":14575:14589   */\n      add\n        /* \"#utility.yul\":14567:14589   */\n      swap1\n      pop\n        /* \"#utility.yul\":14482:14595   */\n      swap2\n      swap1\n      pop\n      jump\t// out\n        /* \"#utility.yul\":14601:14785   */\n    tag_349:\n        /* \"#utility.yul\":14700:14711   */\n      0x00\n        /* \"#utility.yul\":14734:14740   */\n      dup3\n        /* \"#utility.yul\":14729:14732   */\n      dup3\n        /* \"#utility.yul\":14722:14741   */\n      mstore\n        /* \"#utility.yul\":14774:14778   */\n      0x20\n        /* \"#utility.yul\":14769:14772   */\n      dup3\n        /* \"#utility.yul\":14765:14779   */\n      add\n        /* \"#utility.yul\":14750:14779   */\n      swap1\n      pop\n        /* \"#utility.yul\":14601:14785   */\n      swap3\n      swap2\n      pop\n      pop\n      jump\t// out\n        /* \"#utility.yul\":14791:14960   */\n    tag_365:\n        /* \"#utility.yul\":14875:14886   */\n      0x00\n        /* \"#utility.yul\":14909:14915   */\n      dup3\n        /* \"#utility.yul\":14904:14907   */\n      dup3\n        /* \"#utility.yul\":14897:14916   */\n      mstore\n        /* \"#utility.yul\":14949:14953   */\n      0x20\n        /* \"#utility.yul\":14944:14947   */\n      dup3\n        /* \"#utility.yul\":14940:14954   */\n      add\n        /* \"#utility.yul\":14925:14954   */\n      swap1\n      pop\n        /* \"#utility.yul\":14791:14960   */\n      swap3\n      swap2\n      pop\n      pop\n      jump\t// out\n        /* \"#utility.yul\":14966:15271   */\n    tag_136:\n        /* \"#utility.yul\":15006:15009   */\n      0x00\n        /* \"#utility.yul\":15025:15045   */\n      tag_447\n        /* \"#utility.yul\":15043:15044   */\n      dup3\n        /* \"#utility.yul\":15025:15045   */\n      tag_401\n      jump\t// in\n    tag_447:\n        /* \"#utility.yul\":15020:15045   */\n      swap2\n      pop\n        /* \"#utility.yul\":15059:15079   */\n      tag_448\n        /* \"#utility.yul\":15077:15078   */\n      dup4\n        /* \"#utility.yul\":15059:15079   */\n      tag_401\n      jump\t// in\n    tag_448:\n        /* \"#utility.yul\":15054:15079   */\n      swap3\n      pop\n        /* \"#utility.yul\":15213:15214   */\n      dup3\n        /* \"#utility.yul\":15145:15211   */\n      0xffffffffffffffffffffffffffffffffffffffffffffffffffffffffffffffff\n        /* \"#utility.yul\":15141:15215   */\n      sub\n        /* \"#utility.yul\":15138:15139   */\n      dup3\n        /* \"#utility.yul\":15135:15216   */\n      gt\n        /* \"#utility.yul\":15132:15239   */\n      iszero\n      tag_449\n      jumpi\n        /* \"#utility.yul\":15219:15237   */\n      tag_450\n      tag_451\n      jump\t// in\n    tag_450:\n        /* \"#utility.yul\":15132:15239   */\n    tag_449:\n        /* \"#utility.yul\":15263:15264   */\n      dup3\n        /* \"#utility.yul\":15260:15261   */\n      dup3\n        /* \"#utility.yul\":15256:15265   */\n      add\n        /* \"#utility.yul\":15249:15265   */\n      swap1\n      pop\n        /* \"#utility.yul\":14966:15271   */\n      swap3\n      swap2\n      pop\n      pop\n      jump\t// out\n        /* \"#utility.yul\":15277:15462   */\n    tag_145:\n        /* \"#utility.yul\":15317:15318   */\n      0x00\n        /* \"#utility.yul\":15334:15354   */\n      tag_453\n        /* \"#utility.yul\":15352:15353   */\n      dup3\n        /* \"#utility.yul\":15334:15354   */\n      tag_401\n      jump\t// in\n    tag_453:\n        /* \"#utility.yul\":15329:15354   */\n      swap2\n      pop\n        /* \"#utility.yul\":15368:15388   */\n      tag_454\n        /* \"#utility.yul\":15386:15387   */\n      dup4\n        /* \"#utility.yul\":15368:15388   */\n      tag_401\n      jump\t// in\n    tag_454:\n        /* \"#utility.yul\":15363:15388   */\n      swap3\n      pop\n        /* \"#utility.yul\":15407:15408   */\n      dup3\n        /* \"#utility.yul\":15397:15432   */\n      tag_455\n      jumpi\n        /* \"#utility.yul\":15412:15430   */\n      tag_456\n      tag_457\n      jump\t// in\n    tag_456:\n        /* \"#utility.yul\":15397:15432   */\n    tag_455:\n        /* \"#utility.yul\":15454:15455   */\n      dup3\n        /* \"#utility.yul\":15451:15452   */\n      dup3\n        /* \"#utility.yul\":15447:15456   */\n      div\n        /* \"#utility.yul\":15442:15456   */\n      swap1\n      pop\n        /* \"#utility.yul\":15277:15462   */\n      swap3\n      swap2\n      pop\n      pop\n      jump\t// out\n        /* \"#utility.yul\":15468:15816   */\n    tag_143:\n        /* \"#utility.yul\":15508:15515   */\n      0x00\n        /* \"#utility.yul\":15531:15551   */\n      tag_459\n        /* \"#utility.yul\":15549:15550   */\n      dup3\n        /* \"#utility.yul\":15531:15551   */\n      tag_401\n      jump\t// in\n    tag_459:\n        /* \"#utility.yul\":15526:15551   */\n      swap2\n      pop\n        /* \"#utility.yul\":15565:15585   */\n      tag_460\n        /* \"#utility.yul\":15583:15584   */\n      dup4\n        /* \"#utility.yul\":15565:15585   */\n      tag_401\n      jump\t// in\n    tag_460:\n        /* \"#utility.yul\":15560:15585   */\n      swap3\n      pop\n        /* \"#utility.yul\":15753:15754   */\n      dup2\n        /* \"#utility.yul\":15685:15751   */\n      0xffffffffffffffffffffffffffffffffffffffffffffffffffffffffffffffff\n        /* \"#utility.yul\":15681:15755   */\n      div\n        /* \"#utility.yul\":15678:15679   */\n      dup4\n        /* \"#utility.yul\":15675:15756   */\n      gt\n        /* \"#utility.yul\":15670:15671   */\n      dup3\n        /* \"#utility.yul\":15663:15672   */\n      iszero\n        /* \"#utility.yul\":15656:15673   */\n      iszero\n        /* \"#utility.yul\":15652:15757   */\n      and\n        /* \"#utility.yul\":15649:15780   */\n      iszero\n      tag_461\n      jumpi\n        /* \"#utility.yul\":15760:15778   */\n      tag_462\n      tag_451\n      jump\t// in\n    tag_462:\n        /* \"#utility.yul\":15649:15780   */\n    tag_461:\n        /* \"#utility.yul\":15808:15809   */\n      dup3\n        /* \"#utility.yul\":15805:15806   */\n      dup3\n        /* \"#utility.yul\":15801:15810   */\n      mul\n        /* \"#utility.yul\":15790:15810   */\n      swap1\n      pop\n        /* \"#utility.yul\":15468:15816   */\n      swap3\n      swap2\n      pop\n      pop\n      jump\t// out\n        /* \"#utility.yul\":15822:16013   */\n    tag_154:\n        /* \"#utility.yul\":15862:15866   */\n      0x00\n        /* \"#utility.yul\":15882:15902   */\n      tag_464\n        /* \"#utility.yul\":15900:15901   */\n      dup3\n        /* \"#utility.yul\":15882:15902   */\n      tag_401\n      jump\t// in\n    tag_464:\n        /* \"#utility.yul\":15877:15902   */\n      swap2\n      pop\n        /* \"#utility.yul\":15916:15936   */\n      tag_465\n        /* \"#utility.yul\":15934:15935   */\n      dup4\n        /* \"#utility.yul\":15916:15936   */\n      tag_401\n      jump\t// in\n    tag_465:\n        /* \"#utility.yul\":15911:15936   */\n      swap3\n      pop\n        /* \"#utility.yul\":15955:15956   */\n      dup3\n        /* \"#utility.yul\":15952:15953   */\n      dup3\n        /* \"#utility.yul\":15949:15957   */\n      lt\n        /* \"#utility.yul\":15946:15980   */\n      iszero\n      tag_466\n      jumpi\n        /* \"#utility.yul\":15960:15978   */\n      tag_467\n      tag_451\n      jump\t// in\n    tag_467:\n        /* \"#utility.yul\":15946:15980   */\n    tag_466:\n        /* \"#utility.yul\":16005:16006   */\n      dup3\n        /* \"#utility.yul\":16002:16003   */\n      dup3\n        /* \"#utility.yul\":15998:16007   */\n      sub\n        /* \"#utility.yul\":15990:16007   */\n      swap1\n      pop\n        /* \"#utility.yul\":15822:16013   */\n      swap3\n      swap2\n      pop\n      pop\n      jump\t// out\n        /* \"#utility.yul\":16019:16115   */\n    tag_340:\n        /* \"#utility.yul\":16056:16063   */\n      0x00\n        /* \"#utility.yul\":16085:16109   */\n      tag_469\n        /* \"#utility.yul\":16103:16108   */\n      dup3\n        /* \"#utility.yul\":16085:16109   */\n      tag_470\n      jump\t// in\n    tag_469:\n        /* \"#utility.yul\":16074:16109   */\n      swap1\n      pop\n        /* \"#utility.yul\":16019:16115   */\n      swap2\n      swap1\n      pop\n      jump\t// out\n        /* \"#utility.yul\":16121:16211   */\n    tag_361:\n        /* \"#utility.yul\":16155:16162   */\n      0x00\n        /* \"#utility.yul\":16198:16203   */\n      dup2\n        /* \"#utility.yul\":16191:16204   */\n      iszero\n        /* \"#utility.yul\":16184:16205   */\n      iszero\n        /* \"#utility.yul\":16173:16205   */\n      swap1\n      pop\n        /* \"#utility.yul\":16121:16211   */\n      swap2\n      swap1\n      pop\n      jump\t// out\n        /* \"#utility.yul\":16217:16343   */\n    tag_470:\n        /* \"#utility.yul\":16254:16261   */\n      0x00\n        /* \"#utility.yul\":16294:16336   */\n      0xffffffffffffffffffffffffffffffffffffffff\n        /* \"#utility.yul\":16287:16292   */\n      dup3\n        /* \"#utility.yul\":16283:16337   */\n      and\n        /* \"#utility.yul\":16272:16337   */\n      swap1\n      pop\n        /* \"#utility.yul\":16217:16343   */\n      swap2\n      swap1\n      pop\n      jump\t// out\n        /* \"#utility.yul\":16349:16426   */\n    tag_401:\n        /* \"#utility.yul\":16386:16393   */\n      0x00\n        /* \"#utility.yul\":16415:16420   */\n      dup2\n        /* \"#utility.yul\":16404:16420   */\n      swap1\n      pop\n        /* \"#utility.yul\":16349:16426   */\n      swap2\n      swap1\n      pop\n      jump\t// out\n        /* \"#utility.yul\":16432:16713   */\n    tag_436:\n        /* \"#utility.yul\":16515:16542   */\n      tag_475\n        /* \"#utility.yul\":16537:16541   */\n      dup3\n        /* \"#utility.yul\":16515:16542   */\n      tag_476\n      jump\t// in\n    tag_475:\n        /* \"#utility.yul\":16507:16513   */\n      dup2\n        /* \"#utility.yul\":16503:16543   */\n      add\n        /* \"#utility.yul\":16645:16651   */\n      dup2\n        /* \"#utility.yul\":16633:16643   */\n      dup2\n        /* \"#utility.yul\":16630:16652   */\n      lt\n        /* \"#utility.yul\":16609:16627   */\n      0xffffffffffffffff\n        /* \"#utility.yul\":16597:16607   */\n      dup3\n        /* \"#utility.yul\":16594:16628   */\n      gt\n        /* \"#utility.yul\":16591:16653   */\n      or\n        /* \"#utility.yul\":16588:16676   */\n      iszero\n      tag_477\n      jumpi\n        /* \"#utility.yul\":16656:16674   */\n      tag_478\n      tag_191\n      jump\t// in\n    tag_478:\n        /* \"#utility.yul\":16588:16676   */\n    tag_477:\n        /* \"#utility.yul\":16696:16706   */\n      dup1\n        /* \"#utility.yul\":16692:16694   */\n      0x40\n        /* \"#utility.yul\":16685:16707   */\n      mstore\n        /* \"#utility.yul\":16475:16713   */\n      pop\n        /* \"#utility.yul\":16432:16713   */\n      pop\n      pop\n      jump\t// out\n        /* \"#utility.yul\":16719:16952   */\n    tag_118:\n        /* \"#utility.yul\":16758:16761   */\n      0x00\n        /* \"#utility.yul\":16781:16805   */\n      tag_480\n        /* \"#utility.yul\":16799:16804   */\n      dup3\n        /* \"#utility.yul\":16781:16805   */\n      tag_401\n      jump\t// in\n    tag_480:\n        /* \"#utility.yul\":16772:16805   */\n      swap2\n      pop\n        /* \"#utility.yul\":16827:16893   */\n      0xffffffffffffffffffffffffffffffffffffffffffffffffffffffffffffffff\n        /* \"#utility.yul\":16820:16825   */\n      dup3\n        /* \"#utility.yul\":16817:16894   */\n      eq\n        /* \"#utility.yul\":16814:16917   */\n      iszero\n      tag_481\n      jumpi\n        /* \"#utility.yul\":16897:16915   */\n      tag_482\n      tag_451\n      jump\t// in\n    tag_482:\n        /* \"#utility.yul\":16814:16917   */\n    tag_481:\n        /* \"#utility.yul\":16944:16945   */\n      0x01\n        /* \"#utility.yul\":16937:16942   */\n      dup3\n        /* \"#utility.yul\":16933:16946   */\n      add\n        /* \"#utility.yul\":16926:16946   */\n      swap1\n      pop\n        /* \"#utility.yul\":16719:16952   */\n      swap2\n      swap1\n      pop\n      jump\t// out\n        /* \"#utility.yul\":16958:17138   */\n    tag_451:\n        /* \"#utility.yul\":17006:17083   */\n      0x4e487b7100000000000000000000000000000000000000000000000000000000\n        /* \"#utility.yul\":17003:17004   */\n      0x00\n        /* \"#utility.yul\":16996:17084   */\n      mstore\n        /* \"#utility.yul\":17103:17107   */\n      0x11\n        /* \"#utility.yul\":17100:17101   */\n      0x04\n        /* \"#utility.yul\":17093:17108   */\n      mstore\n        /* \"#utility.yul\":17127:17131   */\n      0x24\n        /* \"#utility.yul\":17124:17125   */\n      0x00\n        /* \"#utility.yul\":17117:17132   */\n      revert\n        /* \"#utility.yul\":17144:17324   */\n    tag_457:\n        /* \"#utility.yul\":17192:17269   */\n      0x4e487b7100000000000000000000000000000000000000000000000000000000\n        /* \"#utility.yul\":17189:17190   */\n      0x00\n        /* \"#utility.yul\":17182:17270   */\n      mstore\n        /* \"#utility.yul\":17289:17293   */\n      0x12\n        /* \"#utility.yul\":17286:17287   */\n      0x04\n        /* \"#utility.yul\":17279:17294   */\n      mstore\n        /* \"#utility.yul\":17313:17317   */\n      0x24\n        /* \"#utility.yul\":17310:17311   */\n      0x00\n        /* \"#utility.yul\":17303:17318   */\n      revert\n        /* \"#utility.yul\":17330:17510   */\n    tag_109:\n        /* \"#utility.yul\":17378:17455   */\n      0x4e487b7100000000000000000000000000000000000000000000000000000000\n        /* \"#utility.yul\":17375:17376   */\n      0x00\n        /* \"#utility.yul\":17368:17456   */\n      mstore\n        /* \"#utility.yul\":17475:17479   */\n      0x32\n        /* \"#utility.yul\":17472:17473   */\n      0x04\n        /* \"#utility.yul\":17465:17480   */\n      mstore\n        /* \"#utility.yul\":17499:17503   */\n      0x24\n        /* \"#utility.yul\":17496:17497   */\n      0x00\n        /* \"#utility.yul\":17489:17504   */\n      revert\n        /* \"#utility.yul\":17516:17696   */\n    tag_191:\n        /* \"#utility.yul\":17564:17641   */\n      0x4e487b7100000000000000000000000000000000000000000000000000000000\n        /* \"#utility.yul\":17561:17562   */\n      0x00\n        /* \"#utility.yul\":17554:17642   */\n      mstore\n        /* \"#utility.yul\":17661:17665   */\n      0x41\n        /* \"#utility.yul\":17658:17659   */\n      0x04\n        /* \"#utility.yul\":17651:17666   */\n      mstore\n        /* \"#utility.yul\":17685:17689   */\n      0x24\n        /* \"#utility.yul\":17682:17683   */\n      0x00\n        /* \"#utility.yul\":17675:17690   */\n      revert\n        /* \"#utility.yul\":17702:17819   */\n    tag_288:\n        /* \"#utility.yul\":17811:17812   */\n      0x00\n        /* \"#utility.yul\":17808:17809   */\n      dup1\n        /* \"#utility.yul\":17801:17813   */\n      revert\n        /* \"#utility.yul\":17825:17942   */\n    tag_275:\n        /* \"#utility.yul\":17934:17935   */\n      0x00\n        /* \"#utility.yul\":17931:17932   */\n      dup1\n        /* \"#utility.yul\":17924:17936   */\n      revert\n        /* \"#utility.yul\":17948:18065   */\n    tag_321:\n        /* \"#utility.yul\":18057:18058   */\n      0x00\n        /* \"#utility.yul\":18054:18055   */\n      dup1\n        /* \"#utility.yul\":18047:18059   */\n      revert\n        /* \"#utility.yul\":18071:18188   */\n    tag_304:\n        /* \"#utility.yul\":18180:18181   */\n      0x00\n        /* \"#utility.yul\":18177:18178   */\n      dup1\n        /* \"#utility.yul\":18170:18182   */\n      revert\n        /* \"#utility.yul\":18194:18296   */\n    tag_476:\n        /* \"#utility.yul\":18235:18241   */\n      0x00\n        /* \"#utility.yul\":18286:18288   */\n      0x1f\n        /* \"#utility.yul\":18282:18289   */\n      not\n        /* \"#utility.yul\":18277:18279   */\n      0x1f\n        /* \"#utility.yul\":18270:18275   */\n      dup4\n        /* \"#utility.yul\":18266:18280   */\n      add\n        /* \"#utility.yul\":18262:18290   */\n      and\n        /* \"#utility.yul\":18252:18290   */\n      swap1\n      pop\n        /* \"#utility.yul\":18194:18296   */\n      swap2\n      swap1\n      pop\n      jump\t// out\n        /* \"#utility.yul\":18302:18468   */\n    tag_367:\n        /* \"#utility.yul\":18442:18460   */\n      0x616464726573732069732077726f6e6700000000000000000000000000000000\n        /* \"#utility.yul\":18438:18439   */\n      0x00\n        /* \"#utility.yul\":18430:18436   */\n      dup3\n        /* \"#utility.yul\":18426:18440   */\n      add\n        /* \"#utility.yul\":18419:18461   */\n      mstore\n        /* \"#utility.yul\":18302:18468   */\n      pop\n      jump\t// out\n        /* \"#utility.yul\":18474:18635   */\n    tag_372:\n        /* \"#utility.yul\":18614:18627   */\n      0x4e6f74206d616e61676572000000000000000000000000000000000000000000\n        /* \"#utility.yul\":18610:18611   */\n      0x00\n        /* \"#utility.yul\":18602:18608   */\n      dup3\n        /* \"#utility.yul\":18598:18612   */\n      add\n        /* \"#utility.yul\":18591:18628   */\n      mstore\n        /* \"#utility.yul\":18474:18635   */\n      pop\n      jump\t// out\n        /* \"#utility.yul\":18641:18804   */\n    tag_377:\n        /* \"#utility.yul\":18781:18796   */\n      0x74696d6520697320657869737400000000000000000000000000000000000000\n        /* \"#utility.yul\":18777:18778   */\n      0x00\n        /* \"#utility.yul\":18769:18775   */\n      dup3\n        /* \"#utility.yul\":18765:18779   */\n      add\n        /* \"#utility.yul\":18758:18797   */\n      mstore\n        /* \"#utility.yul\":18641:18804   */\n      pop\n      jump\t// out\n        /* \"#utility.yul\":18810:18969   */\n    tag_382:\n        /* \"#utility.yul\":18950:18961   */\n      0x6e6f7420616c6c6f770000000000000000000000000000000000000000000000\n        /* \"#utility.yul\":18946:18947   */\n      0x00\n        /* \"#utility.yul\":18938:18944   */\n      dup3\n        /* \"#utility.yul\":18934:18948   */\n      add\n        /* \"#utility.yul\":18927:18962   */\n      mstore\n        /* \"#utility.yul\":18810:18969   */\n      pop\n      jump\t// out\n        /* \"#utility.yul\":18975:19157   */\n    tag_387:\n        /* \"#utility.yul\":19115:19149   */\n      0x4f776e61626c653a2063616c6c6572206973206e6f7420746865206f776e6572\n        /* \"#utility.yul\":19111:19112   */\n      0x00\n        /* \"#utility.yul\":19103:19109   */\n      dup3\n        /* \"#utility.yul\":19099:19113   */\n      add\n        /* \"#utility.yul\":19092:19150   */\n      mstore\n        /* \"#utility.yul\":18975:19157   */\n      pop\n      jump\t// out\n        /* \"#utility.yul\":19163:19320   */\n    tag_392:\n        /* \"#utility.yul\":19303:19312   */\n      0x6e6f742049444f00000000000000000000000000000000000000000000000000\n        /* \"#utility.yul\":19299:19300   */\n      0x00\n        /* \"#utility.yul\":19291:19297   */\n      dup3\n        /* \"#utility.yul\":19287:19301   */\n      add\n        /* \"#utility.yul\":19280:19313   */\n      mstore\n        /* \"#utility.yul\":19163:19320   */\n      pop\n      jump\t// out\n        /* \"#utility.yul\":19326:19491   */\n    tag_397:\n        /* \"#utility.yul\":19466:19483   */\n      0x6c656e6774682069732077726f6e670000000000000000000000000000000000\n        /* \"#utility.yul\":19462:19463   */\n      0x00\n        /* \"#utility.yul\":19454:19460   */\n      dup3\n        /* \"#utility.yul\":19450:19464   */\n      add\n        /* \"#utility.yul\":19443:19484   */\n      mstore\n        /* \"#utility.yul\":19326:19491   */\n      pop\n      jump\t// out\n        /* \"#utility.yul\":19497:19619   */\n    tag_283:\n        /* \"#utility.yul\":19570:19594   */\n      tag_500\n        /* \"#utility.yul\":19588:19593   */\n      dup2\n        /* \"#utility.yul\":19570:19594   */\n      tag_340\n      jump\t// in\n    tag_500:\n        /* \"#utility.yul\":19563:19568   */\n      dup2\n        /* \"#utility.yul\":19560:19595   */\n      eq\n        /* \"#utility.yul\":19550:19613   */\n      tag_501\n      jumpi\n        /* \"#utility.yul\":19609:19610   */\n      0x00\n        /* \"#utility.yul\":19606:19607   */\n      dup1\n        /* \"#utility.yul\":19599:19611   */\n      revert\n        /* \"#utility.yul\":19550:19613   */\n    tag_501:\n        /* \"#utility.yul\":19497:19619   */\n      pop\n      jump\t// out\n        /* \"#utility.yul\":19625:19741   */\n    tag_293:\n        /* \"#utility.yul\":19695:19716   */\n      tag_503\n        /* \"#utility.yul\":19710:19715   */\n      dup2\n        /* \"#utility.yul\":19695:19716   */\n      tag_361\n      jump\t// in\n    tag_503:\n        /* \"#utility.yul\":19688:19693   */\n      dup2\n        /* \"#utility.yul\":19685:19717   */\n      eq\n        /* \"#utility.yul\":19675:19735   */\n      tag_504\n      jumpi\n        /* \"#utility.yul\":19731:19732   */\n      0x00\n        /* \"#utility.yul\":19728:19729   */\n      dup1\n        /* \"#utility.yul\":19721:19733   */\n      revert\n        /* \"#utility.yul\":19675:19735   */\n    tag_504:\n        /* \"#utility.yul\":19625:19741   */\n      pop\n      jump\t// out\n        /* \"#utility.yul\":19747:19869   */\n    tag_300:\n        /* \"#utility.yul\":19820:19844   */\n      tag_506\n        /* \"#utility.yul\":19838:19843   */\n      dup2\n        /* \"#utility.yul\":19820:19844   */\n      tag_401\n      jump\t// in\n    tag_506:\n        /* \"#utility.yul\":19813:19818   */\n      dup2\n        /* \"#utility.yul\":19810:19845   */\n      eq\n        /* \"#utility.yul\":19800:19863   */\n      tag_507\n      jumpi\n        /* \"#utility.yul\":19859:19860   */\n      0x00\n        /* \"#utility.yul\":19856:19857   */\n      dup1\n        /* \"#utility.yul\":19849:19861   */\n      revert\n        /* \"#utility.yul\":19800:19863   */\n    tag_507:\n        /* \"#utility.yul\":19747:19869   */\n      pop\n      jump\t// out\n\n    auxdata: 0xa2646970667358221220eef67315adb0bc67dd361d70575301a4ddc3e69c38fd4d24901cb0db14a3b16664736f6c63430008070033\n}\n",
				"bytecode": {
					"linkReferences": {},
					"object": "60806040523480156200001157600080fd5b506040516200264e3803806200264e83398181016040528101906200003791906200010d565b60016000806101000a81548160ff0219169083151502179055506001600060016101000a81548160ff02191690831515021790555081600460006101000a81548173ffffffffffffffffffffffffffffffffffffffff021916908373ffffffffffffffffffffffffffffffffffffffff16021790555080600560006101000a81548173ffffffffffffffffffffffffffffffffffffffff021916908373ffffffffffffffffffffffffffffffffffffffff1602179055505050620001a7565b60008151905062000107816200018d565b92915050565b6000806040838503121562000127576200012662000188565b5b60006200013785828601620000f6565b92505060206200014a85828601620000f6565b9150509250929050565b6000620001618262000168565b9050919050565b600073ffffffffffffffffffffffffffffffffffffffff82169050919050565b600080fd5b620001988162000154565b8114620001a457600080fd5b50565b61249780620001b76000396000f3fe608060405234801561001057600080fd5b506004361061012c5760003560e01c8063965ed465116100ad578063e72ebdb711610071578063e72ebdb7146102cf578063f06b41e3146102ff578063f3ae24151461032f578063f56e9c661461035f578063fb0665311461037b5761012c565b8063965ed4651461025357806398269b6a1461026f578063a5e90eee14610279578063b6dd310414610295578063c6b24c1c146102b15761012c565b80636a41d5d7116100f45780636a41d5d7146101c357806376be6af6146101f35780638da5cb5b146101fd5780638dd0abaa1461021b578063918a6283146102375761012c565b806318160ddd14610131578063238c4c2f1461014f5780633197cbb61461016b57806337b1a023146101895780635db98f2d146101a5575b600080fd5b610139610399565b6040516101469190611f8f565b60405180910390f35b61016960048036038101906101649190611b69565b61039f565b005b610173610608565b6040516101809190611f8f565b60405180910390f35b6101a3600480360381019061019e9190611be1565b61060e565b005b6101ad6106b7565b6040516101ba9190611e94565b60405180910390f35b6101dd60048036038101906101d89190611abc565b6106ca565b6040516101ea9190611f8f565b60405180910390f35b6101fb6106e2565b005b6102056107bc565b6040516102129190611de2565b60405180910390f35b61023560048036038101906102309190611b29565b6107e5565b005b610251600480360381019061024c9190611abc565b61102b565b005b61026d60048036038101906102689190611abc565b611118565b005b6102776111e8565b005b610293600480360381019061028e9190611ae9565b61161d565b005b6102af60048036038101906102aa9190611be1565b6116ed565b005b6102b9611795565b6040516102c69190611de2565b60405180910390f35b6102e960048036038101906102e49190611abc565b6117bb565b6040516102f69190611de2565b60405180910390f35b61031960048036038101906103149190611abc565b6117ee565b6040516103269190611f8f565b60405180910390f35b61034960048036038101906103449190611abc565b611806565b6040516103569190611e94565b60405180910390f35b61037960048036038101906103749190611abc565b611826565b005b6103836118f6565b6040516103909190611e94565b60405180910390f35b60025481565b600360003373ffffffffffffffffffffffffffffffffffffffff1673ffffffffffffffffffffffffffffffffffffffff16815260200190815260200160002060009054906101000a900460ff1661042b576040517f08c379a000000000000000000000000000000000000000000000000000000000815260040161042290611ecf565b60405180910390fd5b805182511461046f576040517f08c379a000000000000000000000000000000000000000000000000000000000815260040161046690611f6f565b60405180910390fd5b60005b82518110156105ca57600073ffffffffffffffffffffffffffffffffffffffff168382815181106104a6576104a561227a565b5b602002602001015173ffffffffffffffffffffffffffffffffffffffff161415610505576040517f08c379a00000000000000000000000000000000000000000000000000000000081526004016104fc90611eaf565b60405180910390fd5b8181815181106105185761051761227a565b5b6020026020010151600960008584815181106105375761053661227a565b5b602002602001015173ffffffffffffffffffffffffffffffffffffffff1673ffffffffffffffffffffffffffffffffffffffff16815260200190815260200160002060006101000a81548173ffffffffffffffffffffffffffffffffffffffff021916908373ffffffffffffffffffffffffffffffffffffffff16021790555080806105c2906121d3565b915050610472565b507f1886f03d42b471bc8faf784e3878fce329e8e139473c601b8648de73b3380c0282826040516105fc929190611e5d565b60405180910390a15050565b60015481565b600360003373ffffffffffffffffffffffffffffffffffffffff1673ffffffffffffffffffffffffffffffffffffffff16815260200190815260200160002060009054906101000a900460ff1661069a576040517f08c379a000000000000000000000000000000000000000000000000000000000815260040161069190611ecf565b60405180910390fd5b80600060016101000a81548160ff02191690831515021790555050565b600060019054906101000a900460ff1681565b600a6020528060005260406000206000915090505481565b600360003373ffffffffffffffffffffffffffffffffffffffff1673ffffffffffffffffffffffffffffffffffffffff16815260200190815260200160002060009054906101000a900460ff1661076e576040517f08c379a000000000000000000000000000000000000000000000000000000000815260040161076590611ecf565b60405180910390fd5b6000600154146107b3576040517f08c379a00000000000000000000000000000000000000000000000000000000081526004016107aa90611eef565b60405180910390fd5b42600181905550565b60008060029054906101000a900473ffffffffffffffffffffffffffffffffffffffff16905090565b6000600a60008473ffffffffffffffffffffffffffffffffffffffff1673ffffffffffffffffffffffffffffffffffffffff1681526020019081526020016000205490506107d08110158061084657506107d082826108449190612045565b115b610885576040517f08c379a000000000000000000000000000000000000000000000000000000000815260040161087c90611f4f565b60405180910390fd5b6000600960008573ffffffffffffffffffffffffffffffffffffffff1673ffffffffffffffffffffffffffffffffffffffff16815260200190815260200160002060009054906101000a900473ffffffffffffffffffffffffffffffffffffffff169050600073ffffffffffffffffffffffffffffffffffffffff168173ffffffffffffffffffffffffffffffffffffffff1614610c83576000600a60008373ffffffffffffffffffffffffffffffffffffffff1673ffffffffffffffffffffffffffffffffffffffff168152602001908152602001600020541115610b1b5760006127106101f48561097891906120cc565b610982919061209b565b9050600560009054906101000a900473ffffffffffffffffffffffffffffffffffffffff1673ffffffffffffffffffffffffffffffffffffffff166323b872dd8684846040518463ffffffff1660e01b81526004016109e393929190611dfd565b602060405180830381600087803b1580156109fd57600080fd5b505af1158015610a11573d6000803e3d6000fd5b505050506040513d601f19601f82011682018060405250810190610a359190611c0e565b50600560009054906101000a900473ffffffffffffffffffffffffffffffffffffffff1673ffffffffffffffffffffffffffffffffffffffff166323b872dd86600460009054906101000a900473ffffffffffffffffffffffffffffffffffffffff168488610aa49190612126565b6040518463ffffffff1660e01b8152600401610ac293929190611dfd565b602060405180830381600087803b158015610adc57600080fd5b505af1158015610af0573d6000803e3d6000fd5b505050506040513d601f19601f82011682018060405250810190610b149190611c0e565b5050610bf0565b600560009054906101000a900473ffffffffffffffffffffffffffffffffffffffff1673ffffffffffffffffffffffffffffffffffffffff166323b872dd85600460009054906101000a900473ffffffffffffffffffffffffffffffffffffffff16866040518463ffffffff1660e01b8152600401610b9c93929190611dfd565b602060405180830381600087803b158015610bb657600080fd5b505af1158015610bca573d6000803e3d6000fd5b505050506040513d601f19601f82011682018060405250810190610bee9190611c0e565b505b82600b60008373ffffffffffffffffffffffffffffffffffffffff1673ffffffffffffffffffffffffffffffffffffffff16815260200190815260200160002054610c3b9190612045565b600b60008373ffffffffffffffffffffffffffffffffffffffff1673ffffffffffffffffffffffffffffffffffffffff16815260200190815260200160002081905550610d58565b600560009054906101000a900473ffffffffffffffffffffffffffffffffffffffff1673ffffffffffffffffffffffffffffffffffffffff166323b872dd85600460009054906101000a900473ffffffffffffffffffffffffffffffffffffffff16866040518463ffffffff1660e01b8152600401610d0493929190611dfd565b602060405180830381600087803b158015610d1e57600080fd5b505af1158015610d32573d6000803e3d6000fd5b505050506040513d601f19601f82011682018060405250810190610d569190611c0e565b505b8282610d649190612045565b600a60008673ffffffffffffffffffffffffffffffffffffffff1673ffffffffffffffffffffffffffffffffffffffff168152602001908152602001600020819055506107d0600a60008673ffffffffffffffffffffffffffffffffffffffff1673ffffffffffffffffffffffffffffffffffffffff1681526020019081526020016000205410610e7d57600660009054906101000a900473ffffffffffffffffffffffffffffffffffffffff1673ffffffffffffffffffffffffffffffffffffffff166340d097c3856040518263ffffffff1660e01b8152600401610e4a9190611de2565b600060405180830381600087803b158015610e6457600080fd5b505af1158015610e78573d6000803e3d6000fd5b505050505b610bb8600b60008373ffffffffffffffffffffffffffffffffffffffff1673ffffffffffffffffffffffffffffffffffffffff1681526020019081526020016000205410610fe357600660009054906101000a900473ffffffffffffffffffffffffffffffffffffffff1673ffffffffffffffffffffffffffffffffffffffff166340d097c3826040518263ffffffff1660e01b8152600401610f209190611de2565b600060405180830381600087803b158015610f3a57600080fd5b505af1158015610f4e573d6000803e3d6000fd5b50505050610bb8600b60008373ffffffffffffffffffffffffffffffffffffffff1673ffffffffffffffffffffffffffffffffffffffff16815260200190815260200160002054610f9f9190612126565b600b60008373ffffffffffffffffffffffffffffffffffffffff1673ffffffffffffffffffffffffffffffffffffffff168152602001908152602001600020819055505b610fec8461102b565b7f080bf12451b207525905f2fe9e47714fbcd5aa383b228f656b880136e66b288f848460405161101d929190611e34565b60405180910390a150505050565b6000601067ffffffffffffffff811115611048576110476122a9565b5b6040519080825280602002602001820160405280156110765781602001602082028036833780820191505090505b50905060005b81518110156110bf57600082828151811061109a5761109961227a565b5b60200260200101901515908115158152505080806110b7906121d3565b91505061107c565b5080600860008473ffffffffffffffffffffffffffffffffffffffff1673ffffffffffffffffffffffffffffffffffffffff1681526020019081526020016000209080519060200190611113929190611907565b505050565b600360003373ffffffffffffffffffffffffffffffffffffffff1673ffffffffffffffffffffffffffffffffffffffff16815260200190815260200160002060009054906101000a900460ff166111a4576040517f08c379a000000000000000000000000000000000000000000000000000000000815260040161119b90611ecf565b60405180910390fd5b80600760006101000a81548173ffffffffffffffffffffffffffffffffffffffff021916908373ffffffffffffffffffffffffffffffffffffffff16021790555050565b6000600a60003373ffffffffffffffffffffffffffffffffffffffff1673ffffffffffffffffffffffffffffffffffffffff168152602001908152602001600020541161126a576040517f08c379a000000000000000000000000000000000000000000000000000000000815260040161126190611f0f565b60405180910390fd5b6000806001544261127b9190612126565b90506000620151808261128e919061209b565b905060006078610a28600a60003373ffffffffffffffffffffffffffffffffffffffff1673ffffffffffffffffffffffffffffffffffffffff168152602001908152602001600020546112e191906120cc565b6112eb919061209b565b90506001821015801561136d5750600860003373ffffffffffffffffffffffffffffffffffffffff1673ffffffffffffffffffffffffffffffffffffffff16815260200190815260200160002060008154811061134b5761134a61227a565b5b90600052602060002090602091828204019190069054906101000a900460ff16155b1561140d576127106103e88261138391906120cc565b61138d919061209b565b93506001600860003373ffffffffffffffffffffffffffffffffffffffff1673ffffffffffffffffffffffffffffffffffffffff1681526020019081526020016000206000815481106113e3576113e261227a565b5b90600052602060002090602091828204019190066101000a81548160ff0219169083151502179055505b6000601e60018461141e9190612126565b611428919061209b565b90506000600190505b81811161156557600860003373ffffffffffffffffffffffffffffffffffffffff1673ffffffffffffffffffffffffffffffffffffffff16815260200190815260200160002081815481106114895761148861227a565b5b90600052602060002090602091828204019190069054906101000a900460ff1661155257612710610258846114be91906120cc565b6114c8919061209b565b866114d39190612045565b95506001600860003373ffffffffffffffffffffffffffffffffffffffff1673ffffffffffffffffffffffffffffffffffffffff16815260200190815260200160002082815481106115285761152761227a565b5b90600052602060002090602091828204019190066101000a81548160ff0219169083151502179055505b808061155d906121d3565b915050611431565b50600760009054906101000a900473ffffffffffffffffffffffffffffffffffffffff1673ffffffffffffffffffffffffffffffffffffffff1663a9059cbb33876040518363ffffffff1660e01b81526004016115c3929190611e34565b602060405180830381600087803b1580156115dd57600080fd5b505af11580156115f1573d6000803e3d6000fd5b505050506040513d601f19601f820116820180604052508101906116159190611c0e565b505050505050565b3373ffffffffffffffffffffffffffffffffffffffff1661163c6107bc565b73ffffffffffffffffffffffffffffffffffffffff1614611692576040517f08c379a000000000000000000000000000000000000000000000000000000000815260040161168990611f2f565b60405180910390fd5b80600360008473ffffffffffffffffffffffffffffffffffffffff1673ffffffffffffffffffffffffffffffffffffffff16815260200190815260200160002060006101000a81548160ff0219169083151502179055505050565b600360003373ffffffffffffffffffffffffffffffffffffffff1673ffffffffffffffffffffffffffffffffffffffff16815260200190815260200160002060009054906101000a900460ff16611779576040517f08c379a000000000000000000000000000000000000000000000000000000000815260040161177090611ecf565b60405180910390fd5b806000806101000a81548160ff02191690831515021790555050565b600460009054906101000a900473ffffffffffffffffffffffffffffffffffffffff1681565b60096020528060005260406000206000915054906101000a900473ffffffffffffffffffffffffffffffffffffffff1681565b600b6020528060005260406000206000915090505481565b60036020528060005260406000206000915054906101000a900460ff1681565b600360003373ffffffffffffffffffffffffffffffffffffffff1673ffffffffffffffffffffffffffffffffffffffff16815260200190815260200160002060009054906101000a900460ff166118b2576040517f08c379a00000000000000000000000000000000000000000000000000000000081526004016118a990611ecf565b60405180910390fd5b80600660006101000a81548173ffffffffffffffffffffffffffffffffffffffff021916908373ffffffffffffffffffffffffffffffffffffffff16021790555050565b60008054906101000a900460ff1681565b82805482825590600052602060002090601f0160209004810192821561199c5791602002820160005b8382111561196d57835183826101000a81548160ff0219169083151502179055509260200192600101602081600001049283019260010302611930565b801561199a5782816101000a81549060ff021916905560010160208160000104928301926001030261196d565b505b5090506119a991906119ad565b5090565b5b808211156119c65760008160009055506001016119ae565b5090565b60006119dd6119d884611fcf565b611faa565b90508083825260208201905082856020860282011115611a00576119ff6122dd565b5b60005b85811015611a305781611a168882611a3a565b845260208401935060208301925050600181019050611a03565b5050509392505050565b600081359050611a498161241c565b92915050565b600082601f830112611a6457611a636122d8565b5b8135611a748482602086016119ca565b91505092915050565b600081359050611a8c81612433565b92915050565b600081519050611aa181612433565b92915050565b600081359050611ab68161244a565b92915050565b600060208284031215611ad257611ad16122e7565b5b6000611ae084828501611a3a565b91505092915050565b60008060408385031215611b0057611aff6122e7565b5b6000611b0e85828601611a3a565b9250506020611b1f85828601611a7d565b9150509250929050565b60008060408385031215611b4057611b3f6122e7565b5b6000611b4e85828601611a3a565b9250506020611b5f85828601611aa7565b9150509250929050565b60008060408385031215611b8057611b7f6122e7565b5b600083013567ffffffffffffffff811115611b9e57611b9d6122e2565b5b611baa85828601611a4f565b925050602083013567ffffffffffffffff811115611bcb57611bca6122e2565b5b611bd785828601611a4f565b9150509250929050565b600060208284031215611bf757611bf66122e7565b5b6000611c0584828501611a7d565b91505092915050565b600060208284031215611c2457611c236122e7565b5b6000611c3284828501611a92565b91505092915050565b6000611c478383611c53565b60208301905092915050565b611c5c8161215a565b82525050565b611c6b8161215a565b82525050565b6000611c7c8261200b565b611c868185612023565b9350611c9183611ffb565b8060005b83811015611cc2578151611ca98882611c3b565b9750611cb483612016565b925050600181019050611c95565b5085935050505092915050565b611cd88161216c565b82525050565b6000611ceb601083612034565b9150611cf6826122fd565b602082019050919050565b6000611d0e600b83612034565b9150611d1982612326565b602082019050919050565b6000611d31600d83612034565b9150611d3c8261234f565b602082019050919050565b6000611d54600983612034565b9150611d5f82612378565b602082019050919050565b6000611d77602083612034565b9150611d82826123a1565b602082019050919050565b6000611d9a600783612034565b9150611da5826123ca565b602082019050919050565b6000611dbd600f83612034565b9150611dc8826123f3565b602082019050919050565b611ddc81612198565b82525050565b6000602082019050611df76000830184611c62565b92915050565b6000606082019050611e126000830186611c62565b611e1f6020830185611c62565b611e2c6040830184611dd3565b949350505050565b6000604082019050611e496000830185611c62565b611e566020830184611dd3565b9392505050565b60006040820190508181036000830152611e778185611c71565b90508181036020830152611e8b8184611c71565b90509392505050565b6000602082019050611ea96000830184611ccf565b92915050565b60006020820190508181036000830152611ec881611cde565b9050919050565b60006020820190508181036000830152611ee881611d01565b9050919050565b60006020820190508181036000830152611f0881611d24565b9050919050565b60006020820190508181036000830152611f2881611d47565b9050919050565b60006020820190508181036000830152611f4881611d6a565b9050919050565b60006020820190508181036000830152611f6881611d8d565b9050919050565b60006020820190508181036000830152611f8881611db0565b9050919050565b6000602082019050611fa46000830184611dd3565b92915050565b6000611fb4611fc5565b9050611fc082826121a2565b919050565b6000604051905090565b600067ffffffffffffffff821115611fea57611fe96122a9565b5b602082029050602081019050919050565b6000819050602082019050919050565b600081519050919050565b6000602082019050919050565b600082825260208201905092915050565b600082825260208201905092915050565b600061205082612198565b915061205b83612198565b9250827fffffffffffffffffffffffffffffffffffffffffffffffffffffffffffffffff038211156120905761208f61221c565b5b828201905092915050565b60006120a682612198565b91506120b183612198565b9250826120c1576120c061224b565b5b828204905092915050565b60006120d782612198565b91506120e283612198565b9250817fffffffffffffffffffffffffffffffffffffffffffffffffffffffffffffffff048311821515161561211b5761211a61221c565b5b828202905092915050565b600061213182612198565b915061213c83612198565b92508282101561214f5761214e61221c565b5b828203905092915050565b600061216582612178565b9050919050565b60008115159050919050565b600073ffffffffffffffffffffffffffffffffffffffff82169050919050565b6000819050919050565b6121ab826122ec565b810181811067ffffffffffffffff821117156121ca576121c96122a9565b5b80604052505050565b60006121de82612198565b91507fffffffffffffffffffffffffffffffffffffffffffffffffffffffffffffffff8214156122115761221061221c565b5b600182019050919050565b7f4e487b7100000000000000000000000000000000000000000000000000000000600052601160045260246000fd5b7f4e487b7100000000000000000000000000000000000000000000000000000000600052601260045260246000fd5b7f4e487b7100000000000000000000000000000000000000000000000000000000600052603260045260246000fd5b7f4e487b7100000000000000000000000000000000000000000000000000000000600052604160045260246000fd5b600080fd5b600080fd5b600080fd5b600080fd5b6000601f19601f8301169050919050565b7f616464726573732069732077726f6e6700000000000000000000000000000000600082015250565b7f4e6f74206d616e61676572000000000000000000000000000000000000000000600082015250565b7f74696d6520697320657869737400000000000000000000000000000000000000600082015250565b7f6e6f7420616c6c6f770000000000000000000000000000000000000000000000600082015250565b7f4f776e61626c653a2063616c6c6572206973206e6f7420746865206f776e6572600082015250565b7f6e6f742049444f00000000000000000000000000000000000000000000000000600082015250565b7f6c656e6774682069732077726f6e670000000000000000000000000000000000600082015250565b6124258161215a565b811461243057600080fd5b50565b61243c8161216c565b811461244757600080fd5b50565b61245381612198565b811461245e57600080fd5b5056fea2646970667358221220eef67315adb0bc67dd361d70575301a4ddc3e69c38fd4d24901cb0db14a3b16664736f6c63430008070033",
					"opcodes": "PUSH1 0x80 PUSH1 0x40 MSTORE CALLVALUE DUP1 ISZERO PUSH3 0x11 JUMPI PUSH1 0x0 DUP1 REVERT JUMPDEST POP PUSH1 0x40 MLOAD PUSH3 0x264E CODESIZE SUB DUP1 PUSH3 0x264E DUP4 CODECOPY DUP2 DUP2 ADD PUSH1 0x40 MSTORE DUP2 ADD SWAP1 PUSH3 0x37 SWAP2 SWAP1 PUSH3 0x10D JUMP JUMPDEST PUSH1 0x1 PUSH1 0x0 DUP1 PUSH2 0x100 EXP DUP2 SLOAD DUP2 PUSH1 0xFF MUL NOT AND SWAP1 DUP4 ISZERO ISZERO MUL OR SWAP1 SSTORE POP PUSH1 0x1 PUSH1 0x0 PUSH1 0x1 PUSH2 0x100 EXP DUP2 SLOAD DUP2 PUSH1 0xFF MUL NOT AND SWAP1 DUP4 ISZERO ISZERO MUL OR SWAP1 SSTORE POP DUP2 PUSH1 0x4 PUSH1 0x0 PUSH2 0x100 EXP DUP2 SLOAD DUP2 PUSH20 0xFFFFFFFFFFFFFFFFFFFFFFFFFFFFFFFFFFFFFFFF MUL NOT AND SWAP1 DUP4 PUSH20 0xFFFFFFFFFFFFFFFFFFFFFFFFFFFFFFFFFFFFFFFF AND MUL OR SWAP1 SSTORE POP DUP1 PUSH1 0x5 PUSH1 0x0 PUSH2 0x100 EXP DUP2 SLOAD DUP2 PUSH20 0xFFFFFFFFFFFFFFFFFFFFFFFFFFFFFFFFFFFFFFFF MUL NOT AND SWAP1 DUP4 PUSH20 0xFFFFFFFFFFFFFFFFFFFFFFFFFFFFFFFFFFFFFFFF AND MUL OR SWAP1 SSTORE POP POP POP PUSH3 0x1A7 JUMP JUMPDEST PUSH1 0x0 DUP2 MLOAD SWAP1 POP PUSH3 0x107 DUP2 PUSH3 0x18D JUMP JUMPDEST SWAP3 SWAP2 POP POP JUMP JUMPDEST PUSH1 0x0 DUP1 PUSH1 0x40 DUP4 DUP6 SUB SLT ISZERO PUSH3 0x127 JUMPI PUSH3 0x126 PUSH3 0x188 JUMP JUMPDEST JUMPDEST PUSH1 0x0 PUSH3 0x137 DUP6 DUP3 DUP7 ADD PUSH3 0xF6 JUMP JUMPDEST SWAP3 POP POP PUSH1 0x20 PUSH3 0x14A DUP6 DUP3 DUP7 ADD PUSH3 0xF6 JUMP JUMPDEST SWAP2 POP POP SWAP3 POP SWAP3 SWAP1 POP JUMP JUMPDEST PUSH1 0x0 PUSH3 0x161 DUP3 PUSH3 0x168 JUMP JUMPDEST SWAP1 POP SWAP2 SWAP1 POP JUMP JUMPDEST PUSH1 0x0 PUSH20 0xFFFFFFFFFFFFFFFFFFFFFFFFFFFFFFFFFFFFFFFF DUP3 AND SWAP1 POP SWAP2 SWAP1 POP JUMP JUMPDEST PUSH1 0x0 DUP1 REVERT JUMPDEST PUSH3 0x198 DUP2 PUSH3 0x154 JUMP JUMPDEST DUP2 EQ PUSH3 0x1A4 JUMPI PUSH1 0x0 DUP1 REVERT JUMPDEST POP JUMP JUMPDEST PUSH2 0x2497 DUP1 PUSH3 0x1B7 PUSH1 0x0 CODECOPY PUSH1 0x0 RETURN INVALID PUSH1 0x80 PUSH1 0x40 MSTORE CALLVALUE DUP1 ISZERO PUSH2 0x10 JUMPI PUSH1 0x0 DUP1 REVERT JUMPDEST POP PUSH1 0x4 CALLDATASIZE LT PUSH2 0x12C JUMPI PUSH1 0x0 CALLDATALOAD PUSH1 0xE0 SHR DUP1 PUSH4 0x965ED465 GT PUSH2 0xAD JUMPI DUP1 PUSH4 0xE72EBDB7 GT PUSH2 0x71 JUMPI DUP1 PUSH4 0xE72EBDB7 EQ PUSH2 0x2CF JUMPI DUP1 PUSH4 0xF06B41E3 EQ PUSH2 0x2FF JUMPI DUP1 PUSH4 0xF3AE2415 EQ PUSH2 0x32F JUMPI DUP1 PUSH4 0xF56E9C66 EQ PUSH2 0x35F JUMPI DUP1 PUSH4 0xFB066531 EQ PUSH2 0x37B JUMPI PUSH2 0x12C JUMP JUMPDEST DUP1 PUSH4 0x965ED465 EQ PUSH2 0x253 JUMPI DUP1 PUSH4 0x98269B6A EQ PUSH2 0x26F JUMPI DUP1 PUSH4 0xA5E90EEE EQ PUSH2 0x279 JUMPI DUP1 PUSH4 0xB6DD3104 EQ PUSH2 0x295 JUMPI DUP1 PUSH4 0xC6B24C1C EQ PUSH2 0x2B1 JUMPI PUSH2 0x12C JUMP JUMPDEST DUP1 PUSH4 0x6A41D5D7 GT PUSH2 0xF4 JUMPI DUP1 PUSH4 0x6A41D5D7 EQ PUSH2 0x1C3 JUMPI DUP1 PUSH4 0x76BE6AF6 EQ PUSH2 0x1F3 JUMPI DUP1 PUSH4 0x8DA5CB5B EQ PUSH2 0x1FD JUMPI DUP1 PUSH4 0x8DD0ABAA EQ PUSH2 0x21B JUMPI DUP1 PUSH4 0x918A6283 EQ PUSH2 0x237 JUMPI PUSH2 0x12C JUMP JUMPDEST DUP1 PUSH4 0x18160DDD EQ PUSH2 0x131 JUMPI DUP1 PUSH4 0x238C4C2F EQ PUSH2 0x14F JUMPI DUP1 PUSH4 0x3197CBB6 EQ PUSH2 0x16B JUMPI DUP1 PUSH4 0x37B1A023 EQ PUSH2 0x189 JUMPI DUP1 PUSH4 0x5DB98F2D EQ PUSH2 0x1A5 JUMPI JUMPDEST PUSH1 0x0 DUP1 REVERT JUMPDEST PUSH2 0x139 PUSH2 0x399 JUMP JUMPDEST PUSH1 0x40 MLOAD PUSH2 0x146 SWAP2 SWAP1 PUSH2 0x1F8F JUMP JUMPDEST PUSH1 0x40 MLOAD DUP1 SWAP2 SUB SWAP1 RETURN JUMPDEST PUSH2 0x169 PUSH1 0x4 DUP1 CALLDATASIZE SUB DUP2 ADD SWAP1 PUSH2 0x164 SWAP2 SWAP1 PUSH2 0x1B69 JUMP JUMPDEST PUSH2 0x39F JUMP JUMPDEST STOP JUMPDEST PUSH2 0x173 PUSH2 0x608 JUMP JUMPDEST PUSH1 0x40 MLOAD PUSH2 0x180 SWAP2 SWAP1 PUSH2 0x1F8F JUMP JUMPDEST PUSH1 0x40 MLOAD DUP1 SWAP2 SUB SWAP1 RETURN JUMPDEST PUSH2 0x1A3 PUSH1 0x4 DUP1 CALLDATASIZE SUB DUP2 ADD SWAP1 PUSH2 0x19E SWAP2 SWAP1 PUSH2 0x1BE1 JUMP JUMPDEST PUSH2 0x60E JUMP JUMPDEST STOP JUMPDEST PUSH2 0x1AD PUSH2 0x6B7 JUMP JUMPDEST PUSH1 0x40 MLOAD PUSH2 0x1BA SWAP2 SWAP1 PUSH2 0x1E94 JUMP JUMPDEST PUSH1 0x40 MLOAD DUP1 SWAP2 SUB SWAP1 RETURN JUMPDEST PUSH2 0x1DD PUSH1 0x4 DUP1 CALLDATASIZE SUB DUP2 ADD SWAP1 PUSH2 0x1D8 SWAP2 SWAP1 PUSH2 0x1ABC JUMP JUMPDEST PUSH2 0x6CA JUMP JUMPDEST PUSH1 0x40 MLOAD PUSH2 0x1EA SWAP2 SWAP1 PUSH2 0x1F8F JUMP JUMPDEST PUSH1 0x40 MLOAD DUP1 SWAP2 SUB SWAP1 RETURN JUMPDEST PUSH2 0x1FB PUSH2 0x6E2 JUMP JUMPDEST STOP JUMPDEST PUSH2 0x205 PUSH2 0x7BC JUMP JUMPDEST PUSH1 0x40 MLOAD PUSH2 0x212 SWAP2 SWAP1 PUSH2 0x1DE2 JUMP JUMPDEST PUSH1 0x40 MLOAD DUP1 SWAP2 SUB SWAP1 RETURN JUMPDEST PUSH2 0x235 PUSH1 0x4 DUP1 CALLDATASIZE SUB DUP2 ADD SWAP1 PUSH2 0x230 SWAP2 SWAP1 PUSH2 0x1B29 JUMP JUMPDEST PUSH2 0x7E5 JUMP JUMPDEST STOP JUMPDEST PUSH2 0x251 PUSH1 0x4 DUP1 CALLDATASIZE SUB DUP2 ADD SWAP1 PUSH2 0x24C SWAP2 SWAP1 PUSH2 0x1ABC JUMP JUMPDEST PUSH2 0x102B JUMP JUMPDEST STOP JUMPDEST PUSH2 0x26D PUSH1 0x4 DUP1 CALLDATASIZE SUB DUP2 ADD SWAP1 PUSH2 0x268 SWAP2 SWAP1 PUSH2 0x1ABC JUMP JUMPDEST PUSH2 0x1118 JUMP JUMPDEST STOP JUMPDEST PUSH2 0x277 PUSH2 0x11E8 JUMP JUMPDEST STOP JUMPDEST PUSH2 0x293 PUSH1 0x4 DUP1 CALLDATASIZE SUB DUP2 ADD SWAP1 PUSH2 0x28E SWAP2 SWAP1 PUSH2 0x1AE9 JUMP JUMPDEST PUSH2 0x161D JUMP JUMPDEST STOP JUMPDEST PUSH2 0x2AF PUSH1 0x4 DUP1 CALLDATASIZE SUB DUP2 ADD SWAP1 PUSH2 0x2AA SWAP2 SWAP1 PUSH2 0x1BE1 JUMP JUMPDEST PUSH2 0x16ED JUMP JUMPDEST STOP JUMPDEST PUSH2 0x2B9 PUSH2 0x1795 JUMP JUMPDEST PUSH1 0x40 MLOAD PUSH2 0x2C6 SWAP2 SWAP1 PUSH2 0x1DE2 JUMP JUMPDEST PUSH1 0x40 MLOAD DUP1 SWAP2 SUB SWAP1 RETURN JUMPDEST PUSH2 0x2E9 PUSH1 0x4 DUP1 CALLDATASIZE SUB DUP2 ADD SWAP1 PUSH2 0x2E4 SWAP2 SWAP1 PUSH2 0x1ABC JUMP JUMPDEST PUSH2 0x17BB JUMP JUMPDEST PUSH1 0x40 MLOAD PUSH2 0x2F6 SWAP2 SWAP1 PUSH2 0x1DE2 JUMP JUMPDEST PUSH1 0x40 MLOAD DUP1 SWAP2 SUB SWAP1 RETURN JUMPDEST PUSH2 0x319 PUSH1 0x4 DUP1 CALLDATASIZE SUB DUP2 ADD SWAP1 PUSH2 0x314 SWAP2 SWAP1 PUSH2 0x1ABC JUMP JUMPDEST PUSH2 0x17EE JUMP JUMPDEST PUSH1 0x40 MLOAD PUSH2 0x326 SWAP2 SWAP1 PUSH2 0x1F8F JUMP JUMPDEST PUSH1 0x40 MLOAD DUP1 SWAP2 SUB SWAP1 RETURN JUMPDEST PUSH2 0x349 PUSH1 0x4 DUP1 CALLDATASIZE SUB DUP2 ADD SWAP1 PUSH2 0x344 SWAP2 SWAP1 PUSH2 0x1ABC JUMP JUMPDEST PUSH2 0x1806 JUMP JUMPDEST PUSH1 0x40 MLOAD PUSH2 0x356 SWAP2 SWAP1 PUSH2 0x1E94 JUMP JUMPDEST PUSH1 0x40 MLOAD DUP1 SWAP2 SUB SWAP1 RETURN JUMPDEST PUSH2 0x379 PUSH1 0x4 DUP1 CALLDATASIZE SUB DUP2 ADD SWAP1 PUSH2 0x374 SWAP2 SWAP1 PUSH2 0x1ABC JUMP JUMPDEST PUSH2 0x1826 JUMP JUMPDEST STOP JUMPDEST PUSH2 0x383 PUSH2 0x18F6 JUMP JUMPDEST PUSH1 0x40 MLOAD PUSH2 0x390 SWAP2 SWAP1 PUSH2 0x1E94 JUMP JUMPDEST PUSH1 0x40 MLOAD DUP1 SWAP2 SUB SWAP1 RETURN JUMPDEST PUSH1 0x2 SLOAD DUP2 JUMP JUMPDEST PUSH1 0x3 PUSH1 0x0 CALLER PUSH20 0xFFFFFFFFFFFFFFFFFFFFFFFFFFFFFFFFFFFFFFFF AND PUSH20 0xFFFFFFFFFFFFFFFFFFFFFFFFFFFFFFFFFFFFFFFF AND DUP2 MSTORE PUSH1 0x20 ADD SWAP1 DUP2 MSTORE PUSH1 0x20 ADD PUSH1 0x0 KECCAK256 PUSH1 0x0 SWAP1 SLOAD SWAP1 PUSH2 0x100 EXP SWAP1 DIV PUSH1 0xFF AND PUSH2 0x42B JUMPI PUSH1 0x40 MLOAD PUSH32 0x8C379A000000000000000000000000000000000000000000000000000000000 DUP2 MSTORE PUSH1 0x4 ADD PUSH2 0x422 SWAP1 PUSH2 0x1ECF JUMP JUMPDEST PUSH1 0x40 MLOAD DUP1 SWAP2 SUB SWAP1 REVERT JUMPDEST DUP1 MLOAD DUP3 MLOAD EQ PUSH2 0x46F JUMPI PUSH1 0x40 MLOAD PUSH32 0x8C379A000000000000000000000000000000000000000000000000000000000 DUP2 MSTORE PUSH1 0x4 ADD PUSH2 0x466 SWAP1 PUSH2 0x1F6F JUMP JUMPDEST PUSH1 0x40 MLOAD DUP1 SWAP2 SUB SWAP1 REVERT JUMPDEST PUSH1 0x0 JUMPDEST DUP3 MLOAD DUP2 LT ISZERO PUSH2 0x5CA JUMPI PUSH1 0x0 PUSH20 0xFFFFFFFFFFFFFFFFFFFFFFFFFFFFFFFFFFFFFFFF AND DUP4 DUP3 DUP2 MLOAD DUP2 LT PUSH2 0x4A6 JUMPI PUSH2 0x4A5 PUSH2 0x227A JUMP JUMPDEST JUMPDEST PUSH1 0x20 MUL PUSH1 0x20 ADD ADD MLOAD PUSH20 0xFFFFFFFFFFFFFFFFFFFFFFFFFFFFFFFFFFFFFFFF AND EQ ISZERO PUSH2 0x505 JUMPI PUSH1 0x40 MLOAD PUSH32 0x8C379A000000000000000000000000000000000000000000000000000000000 DUP2 MSTORE PUSH1 0x4 ADD PUSH2 0x4FC SWAP1 PUSH2 0x1EAF JUMP JUMPDEST PUSH1 0x40 MLOAD DUP1 SWAP2 SUB SWAP1 REVERT JUMPDEST DUP2 DUP2 DUP2 MLOAD DUP2 LT PUSH2 0x518 JUMPI PUSH2 0x517 PUSH2 0x227A JUMP JUMPDEST JUMPDEST PUSH1 0x20 MUL PUSH1 0x20 ADD ADD MLOAD PUSH1 0x9 PUSH1 0x0 DUP6 DUP5 DUP2 MLOAD DUP2 LT PUSH2 0x537 JUMPI PUSH2 0x536 PUSH2 0x227A JUMP JUMPDEST JUMPDEST PUSH1 0x20 MUL PUSH1 0x20 ADD ADD MLOAD PUSH20 0xFFFFFFFFFFFFFFFFFFFFFFFFFFFFFFFFFFFFFFFF AND PUSH20 0xFFFFFFFFFFFFFFFFFFFFFFFFFFFFFFFFFFFFFFFF AND DUP2 MSTORE PUSH1 0x20 ADD SWAP1 DUP2 MSTORE PUSH1 0x20 ADD PUSH1 0x0 KECCAK256 PUSH1 0x0 PUSH2 0x100 EXP DUP2 SLOAD DUP2 PUSH20 0xFFFFFFFFFFFFFFFFFFFFFFFFFFFFFFFFFFFFFFFF MUL NOT AND SWAP1 DUP4 PUSH20 0xFFFFFFFFFFFFFFFFFFFFFFFFFFFFFFFFFFFFFFFF AND MUL OR SWAP1 SSTORE POP DUP1 DUP1 PUSH2 0x5C2 SWAP1 PUSH2 0x21D3 JUMP JUMPDEST SWAP2 POP POP PUSH2 0x472 JUMP JUMPDEST POP PUSH32 0x1886F03D42B471BC8FAF784E3878FCE329E8E139473C601B8648DE73B3380C02 DUP3 DUP3 PUSH1 0x40 MLOAD PUSH2 0x5FC SWAP3 SWAP2 SWAP1 PUSH2 0x1E5D JUMP JUMPDEST PUSH1 0x40 MLOAD DUP1 SWAP2 SUB SWAP1 LOG1 POP POP JUMP JUMPDEST PUSH1 0x1 SLOAD DUP2 JUMP JUMPDEST PUSH1 0x3 PUSH1 0x0 CALLER PUSH20 0xFFFFFFFFFFFFFFFFFFFFFFFFFFFFFFFFFFFFFFFF AND PUSH20 0xFFFFFFFFFFFFFFFFFFFFFFFFFFFFFFFFFFFFFFFF AND DUP2 MSTORE PUSH1 0x20 ADD SWAP1 DUP2 MSTORE PUSH1 0x20 ADD PUSH1 0x0 KECCAK256 PUSH1 0x0 SWAP1 SLOAD SWAP1 PUSH2 0x100 EXP SWAP1 DIV PUSH1 0xFF AND PUSH2 0x69A JUMPI PUSH1 0x40 MLOAD PUSH32 0x8C379A000000000000000000000000000000000000000000000000000000000 DUP2 MSTORE PUSH1 0x4 ADD PUSH2 0x691 SWAP1 PUSH2 0x1ECF JUMP JUMPDEST PUSH1 0x40 MLOAD DUP1 SWAP2 SUB SWAP1 REVERT JUMPDEST DUP1 PUSH1 0x0 PUSH1 0x1 PUSH2 0x100 EXP DUP2 SLOAD DUP2 PUSH1 0xFF MUL NOT AND SWAP1 DUP4 ISZERO ISZERO MUL OR SWAP1 SSTORE POP POP JUMP JUMPDEST PUSH1 0x0 PUSH1 0x1 SWAP1 SLOAD SWAP1 PUSH2 0x100 EXP SWAP1 DIV PUSH1 0xFF AND DUP2 JUMP JUMPDEST PUSH1 0xA PUSH1 0x20 MSTORE DUP1 PUSH1 0x0 MSTORE PUSH1 0x40 PUSH1 0x0 KECCAK256 PUSH1 0x0 SWAP2 POP SWAP1 POP SLOAD DUP2 JUMP JUMPDEST PUSH1 0x3 PUSH1 0x0 CALLER PUSH20 0xFFFFFFFFFFFFFFFFFFFFFFFFFFFFFFFFFFFFFFFF AND PUSH20 0xFFFFFFFFFFFFFFFFFFFFFFFFFFFFFFFFFFFFFFFF AND DUP2 MSTORE PUSH1 0x20 ADD SWAP1 DUP2 MSTORE PUSH1 0x20 ADD PUSH1 0x0 KECCAK256 PUSH1 0x0 SWAP1 SLOAD SWAP1 PUSH2 0x100 EXP SWAP1 DIV PUSH1 0xFF AND PUSH2 0x76E JUMPI PUSH1 0x40 MLOAD PUSH32 0x8C379A000000000000000000000000000000000000000000000000000000000 DUP2 MSTORE PUSH1 0x4 ADD PUSH2 0x765 SWAP1 PUSH2 0x1ECF JUMP JUMPDEST PUSH1 0x40 MLOAD DUP1 SWAP2 SUB SWAP1 REVERT JUMPDEST PUSH1 0x0 PUSH1 0x1 SLOAD EQ PUSH2 0x7B3 JUMPI PUSH1 0x40 MLOAD PUSH32 0x8C379A000000000000000000000000000000000000000000000000000000000 DUP2 MSTORE PUSH1 0x4 ADD PUSH2 0x7AA SWAP1 PUSH2 0x1EEF JUMP JUMPDEST PUSH1 0x40 MLOAD DUP1 SWAP2 SUB SWAP1 REVERT JUMPDEST TIMESTAMP PUSH1 0x1 DUP2 SWAP1 SSTORE POP JUMP JUMPDEST PUSH1 0x0 DUP1 PUSH1 0x2 SWAP1 SLOAD SWAP1 PUSH2 0x100 EXP SWAP1 DIV PUSH20 0xFFFFFFFFFFFFFFFFFFFFFFFFFFFFFFFFFFFFFFFF AND SWAP1 POP SWAP1 JUMP JUMPDEST PUSH1 0x0 PUSH1 0xA PUSH1 0x0 DUP5 PUSH20 0xFFFFFFFFFFFFFFFFFFFFFFFFFFFFFFFFFFFFFFFF AND PUSH20 0xFFFFFFFFFFFFFFFFFFFFFFFFFFFFFFFFFFFFFFFF AND DUP2 MSTORE PUSH1 0x20 ADD SWAP1 DUP2 MSTORE PUSH1 0x20 ADD PUSH1 0x0 KECCAK256 SLOAD SWAP1 POP PUSH2 0x7D0 DUP2 LT ISZERO DUP1 PUSH2 0x846 JUMPI POP PUSH2 0x7D0 DUP3 DUP3 PUSH2 0x844 SWAP2 SWAP1 PUSH2 0x2045 JUMP JUMPDEST GT JUMPDEST PUSH2 0x885 JUMPI PUSH1 0x40 MLOAD PUSH32 0x8C379A000000000000000000000000000000000000000000000000000000000 DUP2 MSTORE PUSH1 0x4 ADD PUSH2 0x87C SWAP1 PUSH2 0x1F4F JUMP JUMPDEST PUSH1 0x40 MLOAD DUP1 SWAP2 SUB SWAP1 REVERT JUMPDEST PUSH1 0x0 PUSH1 0x9 PUSH1 0x0 DUP6 PUSH20 0xFFFFFFFFFFFFFFFFFFFFFFFFFFFFFFFFFFFFFFFF AND PUSH20 0xFFFFFFFFFFFFFFFFFFFFFFFFFFFFFFFFFFFFFFFF AND DUP2 MSTORE PUSH1 0x20 ADD SWAP1 DUP2 MSTORE PUSH1 0x20 ADD PUSH1 0x0 KECCAK256 PUSH1 0x0 SWAP1 SLOAD SWAP1 PUSH2 0x100 EXP SWAP1 DIV PUSH20 0xFFFFFFFFFFFFFFFFFFFFFFFFFFFFFFFFFFFFFFFF AND SWAP1 POP PUSH1 0x0 PUSH20 0xFFFFFFFFFFFFFFFFFFFFFFFFFFFFFFFFFFFFFFFF AND DUP2 PUSH20 0xFFFFFFFFFFFFFFFFFFFFFFFFFFFFFFFFFFFFFFFF AND EQ PUSH2 0xC83 JUMPI PUSH1 0x0 PUSH1 0xA PUSH1 0x0 DUP4 PUSH20 0xFFFFFFFFFFFFFFFFFFFFFFFFFFFFFFFFFFFFFFFF AND PUSH20 0xFFFFFFFFFFFFFFFFFFFFFFFFFFFFFFFFFFFFFFFF AND DUP2 MSTORE PUSH1 0x20 ADD SWAP1 DUP2 MSTORE PUSH1 0x20 ADD PUSH1 0x0 KECCAK256 SLOAD GT ISZERO PUSH2 0xB1B JUMPI PUSH1 0x0 PUSH2 0x2710 PUSH2 0x1F4 DUP6 PUSH2 0x978 SWAP2 SWAP1 PUSH2 0x20CC JUMP JUMPDEST PUSH2 0x982 SWAP2 SWAP1 PUSH2 0x209B JUMP JUMPDEST SWAP1 POP PUSH1 0x5 PUSH1 0x0 SWAP1 SLOAD SWAP1 PUSH2 0x100 EXP SWAP1 DIV PUSH20 0xFFFFFFFFFFFFFFFFFFFFFFFFFFFFFFFFFFFFFFFF AND PUSH20 0xFFFFFFFFFFFFFFFFFFFFFFFFFFFFFFFFFFFFFFFF AND PUSH4 0x23B872DD DUP7 DUP5 DUP5 PUSH1 0x40 MLOAD DUP5 PUSH4 0xFFFFFFFF AND PUSH1 0xE0 SHL DUP2 MSTORE PUSH1 0x4 ADD PUSH2 0x9E3 SWAP4 SWAP3 SWAP2 SWAP1 PUSH2 0x1DFD JUMP JUMPDEST PUSH1 0x20 PUSH1 0x40 MLOAD DUP1 DUP4 SUB DUP2 PUSH1 0x0 DUP8 DUP1 EXTCODESIZE ISZERO DUP1 ISZERO PUSH2 0x9FD JUMPI PUSH1 0x0 DUP1 REVERT JUMPDEST POP GAS CALL ISZERO DUP1 ISZERO PUSH2 0xA11 JUMPI RETURNDATASIZE PUSH1 0x0 DUP1 RETURNDATACOPY RETURNDATASIZE PUSH1 0x0 REVERT JUMPDEST POP POP POP POP PUSH1 0x40 MLOAD RETURNDATASIZE PUSH1 0x1F NOT PUSH1 0x1F DUP3 ADD AND DUP3 ADD DUP1 PUSH1 0x40 MSTORE POP DUP2 ADD SWAP1 PUSH2 0xA35 SWAP2 SWAP1 PUSH2 0x1C0E JUMP JUMPDEST POP PUSH1 0x5 PUSH1 0x0 SWAP1 SLOAD SWAP1 PUSH2 0x100 EXP SWAP1 DIV PUSH20 0xFFFFFFFFFFFFFFFFFFFFFFFFFFFFFFFFFFFFFFFF AND PUSH20 0xFFFFFFFFFFFFFFFFFFFFFFFFFFFFFFFFFFFFFFFF AND PUSH4 0x23B872DD DUP7 PUSH1 0x4 PUSH1 0x0 SWAP1 SLOAD SWAP1 PUSH2 0x100 EXP SWAP1 DIV PUSH20 0xFFFFFFFFFFFFFFFFFFFFFFFFFFFFFFFFFFFFFFFF AND DUP5 DUP9 PUSH2 0xAA4 SWAP2 SWAP1 PUSH2 0x2126 JUMP JUMPDEST PUSH1 0x40 MLOAD DUP5 PUSH4 0xFFFFFFFF AND PUSH1 0xE0 SHL DUP2 MSTORE PUSH1 0x4 ADD PUSH2 0xAC2 SWAP4 SWAP3 SWAP2 SWAP1 PUSH2 0x1DFD JUMP JUMPDEST PUSH1 0x20 PUSH1 0x40 MLOAD DUP1 DUP4 SUB DUP2 PUSH1 0x0 DUP8 DUP1 EXTCODESIZE ISZERO DUP1 ISZERO PUSH2 0xADC JUMPI PUSH1 0x0 DUP1 REVERT JUMPDEST POP GAS CALL ISZERO DUP1 ISZERO PUSH2 0xAF0 JUMPI RETURNDATASIZE PUSH1 0x0 DUP1 RETURNDATACOPY RETURNDATASIZE PUSH1 0x0 REVERT JUMPDEST POP POP POP POP PUSH1 0x40 MLOAD RETURNDATASIZE PUSH1 0x1F NOT PUSH1 0x1F DUP3 ADD AND DUP3 ADD DUP1 PUSH1 0x40 MSTORE POP DUP2 ADD SWAP1 PUSH2 0xB14 SWAP2 SWAP1 PUSH2 0x1C0E JUMP JUMPDEST POP POP PUSH2 0xBF0 JUMP JUMPDEST PUSH1 0x5 PUSH1 0x0 SWAP1 SLOAD SWAP1 PUSH2 0x100 EXP SWAP1 DIV PUSH20 0xFFFFFFFFFFFFFFFFFFFFFFFFFFFFFFFFFFFFFFFF AND PUSH20 0xFFFFFFFFFFFFFFFFFFFFFFFFFFFFFFFFFFFFFFFF AND PUSH4 0x23B872DD DUP6 PUSH1 0x4 PUSH1 0x0 SWAP1 SLOAD SWAP1 PUSH2 0x100 EXP SWAP1 DIV PUSH20 0xFFFFFFFFFFFFFFFFFFFFFFFFFFFFFFFFFFFFFFFF AND DUP7 PUSH1 0x40 MLOAD DUP5 PUSH4 0xFFFFFFFF AND PUSH1 0xE0 SHL DUP2 MSTORE PUSH1 0x4 ADD PUSH2 0xB9C SWAP4 SWAP3 SWAP2 SWAP1 PUSH2 0x1DFD JUMP JUMPDEST PUSH1 0x20 PUSH1 0x40 MLOAD DUP1 DUP4 SUB DUP2 PUSH1 0x0 DUP8 DUP1 EXTCODESIZE ISZERO DUP1 ISZERO PUSH2 0xBB6 JUMPI PUSH1 0x0 DUP1 REVERT JUMPDEST POP GAS CALL ISZERO DUP1 ISZERO PUSH2 0xBCA JUMPI RETURNDATASIZE PUSH1 0x0 DUP1 RETURNDATACOPY RETURNDATASIZE PUSH1 0x0 REVERT JUMPDEST POP POP POP POP PUSH1 0x40 MLOAD RETURNDATASIZE PUSH1 0x1F NOT PUSH1 0x1F DUP3 ADD AND DUP3 ADD DUP1 PUSH1 0x40 MSTORE POP DUP2 ADD SWAP1 PUSH2 0xBEE SWAP2 SWAP1 PUSH2 0x1C0E JUMP JUMPDEST POP JUMPDEST DUP3 PUSH1 0xB PUSH1 0x0 DUP4 PUSH20 0xFFFFFFFFFFFFFFFFFFFFFFFFFFFFFFFFFFFFFFFF AND PUSH20 0xFFFFFFFFFFFFFFFFFFFFFFFFFFFFFFFFFFFFFFFF AND DUP2 MSTORE PUSH1 0x20 ADD SWAP1 DUP2 MSTORE PUSH1 0x20 ADD PUSH1 0x0 KECCAK256 SLOAD PUSH2 0xC3B SWAP2 SWAP1 PUSH2 0x2045 JUMP JUMPDEST PUSH1 0xB PUSH1 0x0 DUP4 PUSH20 0xFFFFFFFFFFFFFFFFFFFFFFFFFFFFFFFFFFFFFFFF AND PUSH20 0xFFFFFFFFFFFFFFFFFFFFFFFFFFFFFFFFFFFFFFFF AND DUP2 MSTORE PUSH1 0x20 ADD SWAP1 DUP2 MSTORE PUSH1 0x20 ADD PUSH1 0x0 KECCAK256 DUP2 SWAP1 SSTORE POP PUSH2 0xD58 JUMP JUMPDEST PUSH1 0x5 PUSH1 0x0 SWAP1 SLOAD SWAP1 PUSH2 0x100 EXP SWAP1 DIV PUSH20 0xFFFFFFFFFFFFFFFFFFFFFFFFFFFFFFFFFFFFFFFF AND PUSH20 0xFFFFFFFFFFFFFFFFFFFFFFFFFFFFFFFFFFFFFFFF AND PUSH4 0x23B872DD DUP6 PUSH1 0x4 PUSH1 0x0 SWAP1 SLOAD SWAP1 PUSH2 0x100 EXP SWAP1 DIV PUSH20 0xFFFFFFFFFFFFFFFFFFFFFFFFFFFFFFFFFFFFFFFF AND DUP7 PUSH1 0x40 MLOAD DUP5 PUSH4 0xFFFFFFFF AND PUSH1 0xE0 SHL DUP2 MSTORE PUSH1 0x4 ADD PUSH2 0xD04 SWAP4 SWAP3 SWAP2 SWAP1 PUSH2 0x1DFD JUMP JUMPDEST PUSH1 0x20 PUSH1 0x40 MLOAD DUP1 DUP4 SUB DUP2 PUSH1 0x0 DUP8 DUP1 EXTCODESIZE ISZERO DUP1 ISZERO PUSH2 0xD1E JUMPI PUSH1 0x0 DUP1 REVERT JUMPDEST POP GAS CALL ISZERO DUP1 ISZERO PUSH2 0xD32 JUMPI RETURNDATASIZE PUSH1 0x0 DUP1 RETURNDATACOPY RETURNDATASIZE PUSH1 0x0 REVERT JUMPDEST POP POP POP POP PUSH1 0x40 MLOAD RETURNDATASIZE PUSH1 0x1F NOT PUSH1 0x1F DUP3 ADD AND DUP3 ADD DUP1 PUSH1 0x40 MSTORE POP DUP2 ADD SWAP1 PUSH2 0xD56 SWAP2 SWAP1 PUSH2 0x1C0E JUMP JUMPDEST POP JUMPDEST DUP3 DUP3 PUSH2 0xD64 SWAP2 SWAP1 PUSH2 0x2045 JUMP JUMPDEST PUSH1 0xA PUSH1 0x0 DUP7 PUSH20 0xFFFFFFFFFFFFFFFFFFFFFFFFFFFFFFFFFFFFFFFF AND PUSH20 0xFFFFFFFFFFFFFFFFFFFFFFFFFFFFFFFFFFFFFFFF AND DUP2 MSTORE PUSH1 0x20 ADD SWAP1 DUP2 MSTORE PUSH1 0x20 ADD PUSH1 0x0 KECCAK256 DUP2 SWAP1 SSTORE POP PUSH2 0x7D0 PUSH1 0xA PUSH1 0x0 DUP7 PUSH20 0xFFFFFFFFFFFFFFFFFFFFFFFFFFFFFFFFFFFFFFFF AND PUSH20 0xFFFFFFFFFFFFFFFFFFFFFFFFFFFFFFFFFFFFFFFF AND DUP2 MSTORE PUSH1 0x20 ADD SWAP1 DUP2 MSTORE PUSH1 0x20 ADD PUSH1 0x0 KECCAK256 SLOAD LT PUSH2 0xE7D JUMPI PUSH1 0x6 PUSH1 0x0 SWAP1 SLOAD SWAP1 PUSH2 0x100 EXP SWAP1 DIV PUSH20 0xFFFFFFFFFFFFFFFFFFFFFFFFFFFFFFFFFFFFFFFF AND PUSH20 0xFFFFFFFFFFFFFFFFFFFFFFFFFFFFFFFFFFFFFFFF AND PUSH4 0x40D097C3 DUP6 PUSH1 0x40 MLOAD DUP3 PUSH4 0xFFFFFFFF AND PUSH1 0xE0 SHL DUP2 MSTORE PUSH1 0x4 ADD PUSH2 0xE4A SWAP2 SWAP1 PUSH2 0x1DE2 JUMP JUMPDEST PUSH1 0x0 PUSH1 0x40 MLOAD DUP1 DUP4 SUB DUP2 PUSH1 0x0 DUP8 DUP1 EXTCODESIZE ISZERO DUP1 ISZERO PUSH2 0xE64 JUMPI PUSH1 0x0 DUP1 REVERT JUMPDEST POP GAS CALL ISZERO DUP1 ISZERO PUSH2 0xE78 JUMPI RETURNDATASIZE PUSH1 0x0 DUP1 RETURNDATACOPY RETURNDATASIZE PUSH1 0x0 REVERT JUMPDEST POP POP POP POP JUMPDEST PUSH2 0xBB8 PUSH1 0xB PUSH1 0x0 DUP4 PUSH20 0xFFFFFFFFFFFFFFFFFFFFFFFFFFFFFFFFFFFFFFFF AND PUSH20 0xFFFFFFFFFFFFFFFFFFFFFFFFFFFFFFFFFFFFFFFF AND DUP2 MSTORE PUSH1 0x20 ADD SWAP1 DUP2 MSTORE PUSH1 0x20 ADD PUSH1 0x0 KECCAK256 SLOAD LT PUSH2 0xFE3 JUMPI PUSH1 0x6 PUSH1 0x0 SWAP1 SLOAD SWAP1 PUSH2 0x100 EXP SWAP1 DIV PUSH20 0xFFFFFFFFFFFFFFFFFFFFFFFFFFFFFFFFFFFFFFFF AND PUSH20 0xFFFFFFFFFFFFFFFFFFFFFFFFFFFFFFFFFFFFFFFF AND PUSH4 0x40D097C3 DUP3 PUSH1 0x40 MLOAD DUP3 PUSH4 0xFFFFFFFF AND PUSH1 0xE0 SHL DUP2 MSTORE PUSH1 0x4 ADD PUSH2 0xF20 SWAP2 SWAP1 PUSH2 0x1DE2 JUMP JUMPDEST PUSH1 0x0 PUSH1 0x40 MLOAD DUP1 DUP4 SUB DUP2 PUSH1 0x0 DUP8 DUP1 EXTCODESIZE ISZERO DUP1 ISZERO PUSH2 0xF3A JUMPI PUSH1 0x0 DUP1 REVERT JUMPDEST POP GAS CALL ISZERO DUP1 ISZERO PUSH2 0xF4E JUMPI RETURNDATASIZE PUSH1 0x0 DUP1 RETURNDATACOPY RETURNDATASIZE PUSH1 0x0 REVERT JUMPDEST POP POP POP POP PUSH2 0xBB8 PUSH1 0xB PUSH1 0x0 DUP4 PUSH20 0xFFFFFFFFFFFFFFFFFFFFFFFFFFFFFFFFFFFFFFFF AND PUSH20 0xFFFFFFFFFFFFFFFFFFFFFFFFFFFFFFFFFFFFFFFF AND DUP2 MSTORE PUSH1 0x20 ADD SWAP1 DUP2 MSTORE PUSH1 0x20 ADD PUSH1 0x0 KECCAK256 SLOAD PUSH2 0xF9F SWAP2 SWAP1 PUSH2 0x2126 JUMP JUMPDEST PUSH1 0xB PUSH1 0x0 DUP4 PUSH20 0xFFFFFFFFFFFFFFFFFFFFFFFFFFFFFFFFFFFFFFFF AND PUSH20 0xFFFFFFFFFFFFFFFFFFFFFFFFFFFFFFFFFFFFFFFF AND DUP2 MSTORE PUSH1 0x20 ADD SWAP1 DUP2 MSTORE PUSH1 0x20 ADD PUSH1 0x0 KECCAK256 DUP2 SWAP1 SSTORE POP JUMPDEST PUSH2 0xFEC DUP5 PUSH2 0x102B JUMP JUMPDEST PUSH32 0x80BF12451B207525905F2FE9E47714FBCD5AA383B228F656B880136E66B288F DUP5 DUP5 PUSH1 0x40 MLOAD PUSH2 0x101D SWAP3 SWAP2 SWAP1 PUSH2 0x1E34 JUMP JUMPDEST PUSH1 0x40 MLOAD DUP1 SWAP2 SUB SWAP1 LOG1 POP POP POP POP JUMP JUMPDEST PUSH1 0x0 PUSH1 0x10 PUSH8 0xFFFFFFFFFFFFFFFF DUP2 GT ISZERO PUSH2 0x1048 JUMPI PUSH2 0x1047 PUSH2 0x22A9 JUMP JUMPDEST JUMPDEST PUSH1 0x40 MLOAD SWAP1 DUP1 DUP3 MSTORE DUP1 PUSH1 0x20 MUL PUSH1 0x20 ADD DUP3 ADD PUSH1 0x40 MSTORE DUP1 ISZERO PUSH2 0x1076 JUMPI DUP2 PUSH1 0x20 ADD PUSH1 0x20 DUP3 MUL DUP1 CALLDATASIZE DUP4 CALLDATACOPY DUP1 DUP3 ADD SWAP2 POP POP SWAP1 POP JUMPDEST POP SWAP1 POP PUSH1 0x0 JUMPDEST DUP2 MLOAD DUP2 LT ISZERO PUSH2 0x10BF JUMPI PUSH1 0x0 DUP3 DUP3 DUP2 MLOAD DUP2 LT PUSH2 0x109A JUMPI PUSH2 0x1099 PUSH2 0x227A JUMP JUMPDEST JUMPDEST PUSH1 0x20 MUL PUSH1 0x20 ADD ADD SWAP1 ISZERO ISZERO SWAP1 DUP2 ISZERO ISZERO DUP2 MSTORE POP POP DUP1 DUP1 PUSH2 0x10B7 SWAP1 PUSH2 0x21D3 JUMP JUMPDEST SWAP2 POP POP PUSH2 0x107C JUMP JUMPDEST POP DUP1 PUSH1 0x8 PUSH1 0x0 DUP5 PUSH20 0xFFFFFFFFFFFFFFFFFFFFFFFFFFFFFFFFFFFFFFFF AND PUSH20 0xFFFFFFFFFFFFFFFFFFFFFFFFFFFFFFFFFFFFFFFF AND DUP2 MSTORE PUSH1 0x20 ADD SWAP1 DUP2 MSTORE PUSH1 0x20 ADD PUSH1 0x0 KECCAK256 SWAP1 DUP1 MLOAD SWAP1 PUSH1 0x20 ADD SWAP1 PUSH2 0x1113 SWAP3 SWAP2 SWAP1 PUSH2 0x1907 JUMP JUMPDEST POP POP POP JUMP JUMPDEST PUSH1 0x3 PUSH1 0x0 CALLER PUSH20 0xFFFFFFFFFFFFFFFFFFFFFFFFFFFFFFFFFFFFFFFF AND PUSH20 0xFFFFFFFFFFFFFFFFFFFFFFFFFFFFFFFFFFFFFFFF AND DUP2 MSTORE PUSH1 0x20 ADD SWAP1 DUP2 MSTORE PUSH1 0x20 ADD PUSH1 0x0 KECCAK256 PUSH1 0x0 SWAP1 SLOAD SWAP1 PUSH2 0x100 EXP SWAP1 DIV PUSH1 0xFF AND PUSH2 0x11A4 JUMPI PUSH1 0x40 MLOAD PUSH32 0x8C379A000000000000000000000000000000000000000000000000000000000 DUP2 MSTORE PUSH1 0x4 ADD PUSH2 0x119B SWAP1 PUSH2 0x1ECF JUMP JUMPDEST PUSH1 0x40 MLOAD DUP1 SWAP2 SUB SWAP1 REVERT JUMPDEST DUP1 PUSH1 0x7 PUSH1 0x0 PUSH2 0x100 EXP DUP2 SLOAD DUP2 PUSH20 0xFFFFFFFFFFFFFFFFFFFFFFFFFFFFFFFFFFFFFFFF MUL NOT AND SWAP1 DUP4 PUSH20 0xFFFFFFFFFFFFFFFFFFFFFFFFFFFFFFFFFFFFFFFF AND MUL OR SWAP1 SSTORE POP POP JUMP JUMPDEST PUSH1 0x0 PUSH1 0xA PUSH1 0x0 CALLER PUSH20 0xFFFFFFFFFFFFFFFFFFFFFFFFFFFFFFFFFFFFFFFF AND PUSH20 0xFFFFFFFFFFFFFFFFFFFFFFFFFFFFFFFFFFFFFFFF AND DUP2 MSTORE PUSH1 0x20 ADD SWAP1 DUP2 MSTORE PUSH1 0x20 ADD PUSH1 0x0 KECCAK256 SLOAD GT PUSH2 0x126A JUMPI PUSH1 0x40 MLOAD PUSH32 0x8C379A000000000000000000000000000000000000000000000000000000000 DUP2 MSTORE PUSH1 0x4 ADD PUSH2 0x1261 SWAP1 PUSH2 0x1F0F JUMP JUMPDEST PUSH1 0x40 MLOAD DUP1 SWAP2 SUB SWAP1 REVERT JUMPDEST PUSH1 0x0 DUP1 PUSH1 0x1 SLOAD TIMESTAMP PUSH2 0x127B SWAP2 SWAP1 PUSH2 0x2126 JUMP JUMPDEST SWAP1 POP PUSH1 0x0 PUSH3 0x15180 DUP3 PUSH2 0x128E SWAP2 SWAP1 PUSH2 0x209B JUMP JUMPDEST SWAP1 POP PUSH1 0x0 PUSH1 0x78 PUSH2 0xA28 PUSH1 0xA PUSH1 0x0 CALLER PUSH20 0xFFFFFFFFFFFFFFFFFFFFFFFFFFFFFFFFFFFFFFFF AND PUSH20 0xFFFFFFFFFFFFFFFFFFFFFFFFFFFFFFFFFFFFFFFF AND DUP2 MSTORE PUSH1 0x20 ADD SWAP1 DUP2 MSTORE PUSH1 0x20 ADD PUSH1 0x0 KECCAK256 SLOAD PUSH2 0x12E1 SWAP2 SWAP1 PUSH2 0x20CC JUMP JUMPDEST PUSH2 0x12EB SWAP2 SWAP1 PUSH2 0x209B JUMP JUMPDEST SWAP1 POP PUSH1 0x1 DUP3 LT ISZERO DUP1 ISZERO PUSH2 0x136D JUMPI POP PUSH1 0x8 PUSH1 0x0 CALLER PUSH20 0xFFFFFFFFFFFFFFFFFFFFFFFFFFFFFFFFFFFFFFFF AND PUSH20 0xFFFFFFFFFFFFFFFFFFFFFFFFFFFFFFFFFFFFFFFF AND DUP2 MSTORE PUSH1 0x20 ADD SWAP1 DUP2 MSTORE PUSH1 0x20 ADD PUSH1 0x0 KECCAK256 PUSH1 0x0 DUP2 SLOAD DUP2 LT PUSH2 0x134B JUMPI PUSH2 0x134A PUSH2 0x227A JUMP JUMPDEST JUMPDEST SWAP1 PUSH1 0x0 MSTORE PUSH1 0x20 PUSH1 0x0 KECCAK256 SWAP1 PUSH1 0x20 SWAP2 DUP3 DUP3 DIV ADD SWAP2 SWAP1 MOD SWAP1 SLOAD SWAP1 PUSH2 0x100 EXP SWAP1 DIV PUSH1 0xFF AND ISZERO JUMPDEST ISZERO PUSH2 0x140D JUMPI PUSH2 0x2710 PUSH2 0x3E8 DUP3 PUSH2 0x1383 SWAP2 SWAP1 PUSH2 0x20CC JUMP JUMPDEST PUSH2 0x138D SWAP2 SWAP1 PUSH2 0x209B JUMP JUMPDEST SWAP4 POP PUSH1 0x1 PUSH1 0x8 PUSH1 0x0 CALLER PUSH20 0xFFFFFFFFFFFFFFFFFFFFFFFFFFFFFFFFFFFFFFFF AND PUSH20 0xFFFFFFFFFFFFFFFFFFFFFFFFFFFFFFFFFFFFFFFF AND DUP2 MSTORE PUSH1 0x20 ADD SWAP1 DUP2 MSTORE PUSH1 0x20 ADD PUSH1 0x0 KECCAK256 PUSH1 0x0 DUP2 SLOAD DUP2 LT PUSH2 0x13E3 JUMPI PUSH2 0x13E2 PUSH2 0x227A JUMP JUMPDEST JUMPDEST SWAP1 PUSH1 0x0 MSTORE PUSH1 0x20 PUSH1 0x0 KECCAK256 SWAP1 PUSH1 0x20 SWAP2 DUP3 DUP3 DIV ADD SWAP2 SWAP1 MOD PUSH2 0x100 EXP DUP2 SLOAD DUP2 PUSH1 0xFF MUL NOT AND SWAP1 DUP4 ISZERO ISZERO MUL OR SWAP1 SSTORE POP JUMPDEST PUSH1 0x0 PUSH1 0x1E PUSH1 0x1 DUP5 PUSH2 0x141E SWAP2 SWAP1 PUSH2 0x2126 JUMP JUMPDEST PUSH2 0x1428 SWAP2 SWAP1 PUSH2 0x209B JUMP JUMPDEST SWAP1 POP PUSH1 0x0 PUSH1 0x1 SWAP1 POP JUMPDEST DUP2 DUP2 GT PUSH2 0x1565 JUMPI PUSH1 0x8 PUSH1 0x0 CALLER PUSH20 0xFFFFFFFFFFFFFFFFFFFFFFFFFFFFFFFFFFFFFFFF AND PUSH20 0xFFFFFFFFFFFFFFFFFFFFFFFFFFFFFFFFFFFFFFFF AND DUP2 MSTORE PUSH1 0x20 ADD SWAP1 DUP2 MSTORE PUSH1 0x20 ADD PUSH1 0x0 KECCAK256 DUP2 DUP2 SLOAD DUP2 LT PUSH2 0x1489 JUMPI PUSH2 0x1488 PUSH2 0x227A JUMP JUMPDEST JUMPDEST SWAP1 PUSH1 0x0 MSTORE PUSH1 0x20 PUSH1 0x0 KECCAK256 SWAP1 PUSH1 0x20 SWAP2 DUP3 DUP3 DIV ADD SWAP2 SWAP1 MOD SWAP1 SLOAD SWAP1 PUSH2 0x100 EXP SWAP1 DIV PUSH1 0xFF AND PUSH2 0x1552 JUMPI PUSH2 0x2710 PUSH2 0x258 DUP5 PUSH2 0x14BE SWAP2 SWAP1 PUSH2 0x20CC JUMP JUMPDEST PUSH2 0x14C8 SWAP2 SWAP1 PUSH2 0x209B JUMP JUMPDEST DUP7 PUSH2 0x14D3 SWAP2 SWAP1 PUSH2 0x2045 JUMP JUMPDEST SWAP6 POP PUSH1 0x1 PUSH1 0x8 PUSH1 0x0 CALLER PUSH20 0xFFFFFFFFFFFFFFFFFFFFFFFFFFFFFFFFFFFFFFFF AND PUSH20 0xFFFFFFFFFFFFFFFFFFFFFFFFFFFFFFFFFFFFFFFF AND DUP2 MSTORE PUSH1 0x20 ADD SWAP1 DUP2 MSTORE PUSH1 0x20 ADD PUSH1 0x0 KECCAK256 DUP3 DUP2 SLOAD DUP2 LT PUSH2 0x1528 JUMPI PUSH2 0x1527 PUSH2 0x227A JUMP JUMPDEST JUMPDEST SWAP1 PUSH1 0x0 MSTORE PUSH1 0x20 PUSH1 0x0 KECCAK256 SWAP1 PUSH1 0x20 SWAP2 DUP3 DUP3 DIV ADD SWAP2 SWAP1 MOD PUSH2 0x100 EXP DUP2 SLOAD DUP2 PUSH1 0xFF MUL NOT AND SWAP1 DUP4 ISZERO ISZERO MUL OR SWAP1 SSTORE POP JUMPDEST DUP1 DUP1 PUSH2 0x155D SWAP1 PUSH2 0x21D3 JUMP JUMPDEST SWAP2 POP POP PUSH2 0x1431 JUMP JUMPDEST POP PUSH1 0x7 PUSH1 0x0 SWAP1 SLOAD SWAP1 PUSH2 0x100 EXP SWAP1 DIV PUSH20 0xFFFFFFFFFFFFFFFFFFFFFFFFFFFFFFFFFFFFFFFF AND PUSH20 0xFFFFFFFFFFFFFFFFFFFFFFFFFFFFFFFFFFFFFFFF AND PUSH4 0xA9059CBB CALLER DUP8 PUSH1 0x40 MLOAD DUP4 PUSH4 0xFFFFFFFF AND PUSH1 0xE0 SHL DUP2 MSTORE PUSH1 0x4 ADD PUSH2 0x15C3 SWAP3 SWAP2 SWAP1 PUSH2 0x1E34 JUMP JUMPDEST PUSH1 0x20 PUSH1 0x40 MLOAD DUP1 DUP4 SUB DUP2 PUSH1 0x0 DUP8 DUP1 EXTCODESIZE ISZERO DUP1 ISZERO PUSH2 0x15DD JUMPI PUSH1 0x0 DUP1 REVERT JUMPDEST POP GAS CALL ISZERO DUP1 ISZERO PUSH2 0x15F1 JUMPI RETURNDATASIZE PUSH1 0x0 DUP1 RETURNDATACOPY RETURNDATASIZE PUSH1 0x0 REVERT JUMPDEST POP POP POP POP PUSH1 0x40 MLOAD RETURNDATASIZE PUSH1 0x1F NOT PUSH1 0x1F DUP3 ADD AND DUP3 ADD DUP1 PUSH1 0x40 MSTORE POP DUP2 ADD SWAP1 PUSH2 0x1615 SWAP2 SWAP1 PUSH2 0x1C0E JUMP JUMPDEST POP POP POP POP POP POP JUMP JUMPDEST CALLER PUSH20 0xFFFFFFFFFFFFFFFFFFFFFFFFFFFFFFFFFFFFFFFF AND PUSH2 0x163C PUSH2 0x7BC JUMP JUMPDEST PUSH20 0xFFFFFFFFFFFFFFFFFFFFFFFFFFFFFFFFFFFFFFFF AND EQ PUSH2 0x1692 JUMPI PUSH1 0x40 MLOAD PUSH32 0x8C379A000000000000000000000000000000000000000000000000000000000 DUP2 MSTORE PUSH1 0x4 ADD PUSH2 0x1689 SWAP1 PUSH2 0x1F2F JUMP JUMPDEST PUSH1 0x40 MLOAD DUP1 SWAP2 SUB SWAP1 REVERT JUMPDEST DUP1 PUSH1 0x3 PUSH1 0x0 DUP5 PUSH20 0xFFFFFFFFFFFFFFFFFFFFFFFFFFFFFFFFFFFFFFFF AND PUSH20 0xFFFFFFFFFFFFFFFFFFFFFFFFFFFFFFFFFFFFFFFF AND DUP2 MSTORE PUSH1 0x20 ADD SWAP1 DUP2 MSTORE PUSH1 0x20 ADD PUSH1 0x0 KECCAK256 PUSH1 0x0 PUSH2 0x100 EXP DUP2 SLOAD DUP2 PUSH1 0xFF MUL NOT AND SWAP1 DUP4 ISZERO ISZERO MUL OR SWAP1 SSTORE POP POP POP JUMP JUMPDEST PUSH1 0x3 PUSH1 0x0 CALLER PUSH20 0xFFFFFFFFFFFFFFFFFFFFFFFFFFFFFFFFFFFFFFFF AND PUSH20 0xFFFFFFFFFFFFFFFFFFFFFFFFFFFFFFFFFFFFFFFF AND DUP2 MSTORE PUSH1 0x20 ADD SWAP1 DUP2 MSTORE PUSH1 0x20 ADD PUSH1 0x0 KECCAK256 PUSH1 0x0 SWAP1 SLOAD SWAP1 PUSH2 0x100 EXP SWAP1 DIV PUSH1 0xFF AND PUSH2 0x1779 JUMPI PUSH1 0x40 MLOAD PUSH32 0x8C379A000000000000000000000000000000000000000000000000000000000 DUP2 MSTORE PUSH1 0x4 ADD PUSH2 0x1770 SWAP1 PUSH2 0x1ECF JUMP JUMPDEST PUSH1 0x40 MLOAD DUP1 SWAP2 SUB SWAP1 REVERT JUMPDEST DUP1 PUSH1 0x0 DUP1 PUSH2 0x100 EXP DUP2 SLOAD DUP2 PUSH1 0xFF MUL NOT AND SWAP1 DUP4 ISZERO ISZERO MUL OR SWAP1 SSTORE POP POP JUMP JUMPDEST PUSH1 0x4 PUSH1 0x0 SWAP1 SLOAD SWAP1 PUSH2 0x100 EXP SWAP1 DIV PUSH20 0xFFFFFFFFFFFFFFFFFFFFFFFFFFFFFFFFFFFFFFFF AND DUP2 JUMP JUMPDEST PUSH1 0x9 PUSH1 0x20 MSTORE DUP1 PUSH1 0x0 MSTORE PUSH1 0x40 PUSH1 0x0 KECCAK256 PUSH1 0x0 SWAP2 POP SLOAD SWAP1 PUSH2 0x100 EXP SWAP1 DIV PUSH20 0xFFFFFFFFFFFFFFFFFFFFFFFFFFFFFFFFFFFFFFFF AND DUP2 JUMP JUMPDEST PUSH1 0xB PUSH1 0x20 MSTORE DUP1 PUSH1 0x0 MSTORE PUSH1 0x40 PUSH1 0x0 KECCAK256 PUSH1 0x0 SWAP2 POP SWAP1 POP SLOAD DUP2 JUMP JUMPDEST PUSH1 0x3 PUSH1 0x20 MSTORE DUP1 PUSH1 0x0 MSTORE PUSH1 0x40 PUSH1 0x0 KECCAK256 PUSH1 0x0 SWAP2 POP SLOAD SWAP1 PUSH2 0x100 EXP SWAP1 DIV PUSH1 0xFF AND DUP2 JUMP JUMPDEST PUSH1 0x3 PUSH1 0x0 CALLER PUSH20 0xFFFFFFFFFFFFFFFFFFFFFFFFFFFFFFFFFFFFFFFF AND PUSH20 0xFFFFFFFFFFFFFFFFFFFFFFFFFFFFFFFFFFFFFFFF AND DUP2 MSTORE PUSH1 0x20 ADD SWAP1 DUP2 MSTORE PUSH1 0x20 ADD PUSH1 0x0 KECCAK256 PUSH1 0x0 SWAP1 SLOAD SWAP1 PUSH2 0x100 EXP SWAP1 DIV PUSH1 0xFF AND PUSH2 0x18B2 JUMPI PUSH1 0x40 MLOAD PUSH32 0x8C379A000000000000000000000000000000000000000000000000000000000 DUP2 MSTORE PUSH1 0x4 ADD PUSH2 0x18A9 SWAP1 PUSH2 0x1ECF JUMP JUMPDEST PUSH1 0x40 MLOAD DUP1 SWAP2 SUB SWAP1 REVERT JUMPDEST DUP1 PUSH1 0x6 PUSH1 0x0 PUSH2 0x100 EXP DUP2 SLOAD DUP2 PUSH20 0xFFFFFFFFFFFFFFFFFFFFFFFFFFFFFFFFFFFFFFFF MUL NOT AND SWAP1 DUP4 PUSH20 0xFFFFFFFFFFFFFFFFFFFFFFFFFFFFFFFFFFFFFFFF AND MUL OR SWAP1 SSTORE POP POP JUMP JUMPDEST PUSH1 0x0 DUP1 SLOAD SWAP1 PUSH2 0x100 EXP SWAP1 DIV PUSH1 0xFF AND DUP2 JUMP JUMPDEST DUP3 DUP1 SLOAD DUP3 DUP3 SSTORE SWAP1 PUSH1 0x0 MSTORE PUSH1 0x20 PUSH1 0x0 KECCAK256 SWAP1 PUSH1 0x1F ADD PUSH1 0x20 SWAP1 DIV DUP2 ADD SWAP3 DUP3 ISZERO PUSH2 0x199C JUMPI SWAP2 PUSH1 0x20 MUL DUP3 ADD PUSH1 0x0 JUMPDEST DUP4 DUP3 GT ISZERO PUSH2 0x196D JUMPI DUP4 MLOAD DUP4 DUP3 PUSH2 0x100 EXP DUP2 SLOAD DUP2 PUSH1 0xFF MUL NOT AND SWAP1 DUP4 ISZERO ISZERO MUL OR SWAP1 SSTORE POP SWAP3 PUSH1 0x20 ADD SWAP3 PUSH1 0x1 ADD PUSH1 0x20 DUP2 PUSH1 0x0 ADD DIV SWAP3 DUP4 ADD SWAP3 PUSH1 0x1 SUB MUL PUSH2 0x1930 JUMP JUMPDEST DUP1 ISZERO PUSH2 0x199A JUMPI DUP3 DUP2 PUSH2 0x100 EXP DUP2 SLOAD SWAP1 PUSH1 0xFF MUL NOT AND SWAP1 SSTORE PUSH1 0x1 ADD PUSH1 0x20 DUP2 PUSH1 0x0 ADD DIV SWAP3 DUP4 ADD SWAP3 PUSH1 0x1 SUB MUL PUSH2 0x196D JUMP JUMPDEST POP JUMPDEST POP SWAP1 POP PUSH2 0x19A9 SWAP2 SWAP1 PUSH2 0x19AD JUMP JUMPDEST POP SWAP1 JUMP JUMPDEST JUMPDEST DUP1 DUP3 GT ISZERO PUSH2 0x19C6 JUMPI PUSH1 0x0 DUP2 PUSH1 0x0 SWAP1 SSTORE POP PUSH1 0x1 ADD PUSH2 0x19AE JUMP JUMPDEST POP SWAP1 JUMP JUMPDEST PUSH1 0x0 PUSH2 0x19DD PUSH2 0x19D8 DUP5 PUSH2 0x1FCF JUMP JUMPDEST PUSH2 0x1FAA JUMP JUMPDEST SWAP1 POP DUP1 DUP4 DUP3 MSTORE PUSH1 0x20 DUP3 ADD SWAP1 POP DUP3 DUP6 PUSH1 0x20 DUP7 MUL DUP3 ADD GT ISZERO PUSH2 0x1A00 JUMPI PUSH2 0x19FF PUSH2 0x22DD JUMP JUMPDEST JUMPDEST PUSH1 0x0 JUMPDEST DUP6 DUP2 LT ISZERO PUSH2 0x1A30 JUMPI DUP2 PUSH2 0x1A16 DUP9 DUP3 PUSH2 0x1A3A JUMP JUMPDEST DUP5 MSTORE PUSH1 0x20 DUP5 ADD SWAP4 POP PUSH1 0x20 DUP4 ADD SWAP3 POP POP PUSH1 0x1 DUP2 ADD SWAP1 POP PUSH2 0x1A03 JUMP JUMPDEST POP POP POP SWAP4 SWAP3 POP POP POP JUMP JUMPDEST PUSH1 0x0 DUP2 CALLDATALOAD SWAP1 POP PUSH2 0x1A49 DUP2 PUSH2 0x241C JUMP JUMPDEST SWAP3 SWAP2 POP POP JUMP JUMPDEST PUSH1 0x0 DUP3 PUSH1 0x1F DUP4 ADD SLT PUSH2 0x1A64 JUMPI PUSH2 0x1A63 PUSH2 0x22D8 JUMP JUMPDEST JUMPDEST DUP2 CALLDATALOAD PUSH2 0x1A74 DUP5 DUP3 PUSH1 0x20 DUP7 ADD PUSH2 0x19CA JUMP JUMPDEST SWAP2 POP POP SWAP3 SWAP2 POP POP JUMP JUMPDEST PUSH1 0x0 DUP2 CALLDATALOAD SWAP1 POP PUSH2 0x1A8C DUP2 PUSH2 0x2433 JUMP JUMPDEST SWAP3 SWAP2 POP POP JUMP JUMPDEST PUSH1 0x0 DUP2 MLOAD SWAP1 POP PUSH2 0x1AA1 DUP2 PUSH2 0x2433 JUMP JUMPDEST SWAP3 SWAP2 POP POP JUMP JUMPDEST PUSH1 0x0 DUP2 CALLDATALOAD SWAP1 POP PUSH2 0x1AB6 DUP2 PUSH2 0x244A JUMP JUMPDEST SWAP3 SWAP2 POP POP JUMP JUMPDEST PUSH1 0x0 PUSH1 0x20 DUP3 DUP5 SUB SLT ISZERO PUSH2 0x1AD2 JUMPI PUSH2 0x1AD1 PUSH2 0x22E7 JUMP JUMPDEST JUMPDEST PUSH1 0x0 PUSH2 0x1AE0 DUP5 DUP3 DUP6 ADD PUSH2 0x1A3A JUMP JUMPDEST SWAP2 POP POP SWAP3 SWAP2 POP POP JUMP JUMPDEST PUSH1 0x0 DUP1 PUSH1 0x40 DUP4 DUP6 SUB SLT ISZERO PUSH2 0x1B00 JUMPI PUSH2 0x1AFF PUSH2 0x22E7 JUMP JUMPDEST JUMPDEST PUSH1 0x0 PUSH2 0x1B0E DUP6 DUP3 DUP7 ADD PUSH2 0x1A3A JUMP JUMPDEST SWAP3 POP POP PUSH1 0x20 PUSH2 0x1B1F DUP6 DUP3 DUP7 ADD PUSH2 0x1A7D JUMP JUMPDEST SWAP2 POP POP SWAP3 POP SWAP3 SWAP1 POP JUMP JUMPDEST PUSH1 0x0 DUP1 PUSH1 0x40 DUP4 DUP6 SUB SLT ISZERO PUSH2 0x1B40 JUMPI PUSH2 0x1B3F PUSH2 0x22E7 JUMP JUMPDEST JUMPDEST PUSH1 0x0 PUSH2 0x1B4E DUP6 DUP3 DUP7 ADD PUSH2 0x1A3A JUMP JUMPDEST SWAP3 POP POP PUSH1 0x20 PUSH2 0x1B5F DUP6 DUP3 DUP7 ADD PUSH2 0x1AA7 JUMP JUMPDEST SWAP2 POP POP SWAP3 POP SWAP3 SWAP1 POP JUMP JUMPDEST PUSH1 0x0 DUP1 PUSH1 0x40 DUP4 DUP6 SUB SLT ISZERO PUSH2 0x1B80 JUMPI PUSH2 0x1B7F PUSH2 0x22E7 JUMP JUMPDEST JUMPDEST PUSH1 0x0 DUP4 ADD CALLDATALOAD PUSH8 0xFFFFFFFFFFFFFFFF DUP2 GT ISZERO PUSH2 0x1B9E JUMPI PUSH2 0x1B9D PUSH2 0x22E2 JUMP JUMPDEST JUMPDEST PUSH2 0x1BAA DUP6 DUP3 DUP7 ADD PUSH2 0x1A4F JUMP JUMPDEST SWAP3 POP POP PUSH1 0x20 DUP4 ADD CALLDATALOAD PUSH8 0xFFFFFFFFFFFFFFFF DUP2 GT ISZERO PUSH2 0x1BCB JUMPI PUSH2 0x1BCA PUSH2 0x22E2 JUMP JUMPDEST JUMPDEST PUSH2 0x1BD7 DUP6 DUP3 DUP7 ADD PUSH2 0x1A4F JUMP JUMPDEST SWAP2 POP POP SWAP3 POP SWAP3 SWAP1 POP JUMP JUMPDEST PUSH1 0x0 PUSH1 0x20 DUP3 DUP5 SUB SLT ISZERO PUSH2 0x1BF7 JUMPI PUSH2 0x1BF6 PUSH2 0x22E7 JUMP JUMPDEST JUMPDEST PUSH1 0x0 PUSH2 0x1C05 DUP5 DUP3 DUP6 ADD PUSH2 0x1A7D JUMP JUMPDEST SWAP2 POP POP SWAP3 SWAP2 POP POP JUMP JUMPDEST PUSH1 0x0 PUSH1 0x20 DUP3 DUP5 SUB SLT ISZERO PUSH2 0x1C24 JUMPI PUSH2 0x1C23 PUSH2 0x22E7 JUMP JUMPDEST JUMPDEST PUSH1 0x0 PUSH2 0x1C32 DUP5 DUP3 DUP6 ADD PUSH2 0x1A92 JUMP JUMPDEST SWAP2 POP POP SWAP3 SWAP2 POP POP JUMP JUMPDEST PUSH1 0x0 PUSH2 0x1C47 DUP4 DUP4 PUSH2 0x1C53 JUMP JUMPDEST PUSH1 0x20 DUP4 ADD SWAP1 POP SWAP3 SWAP2 POP POP JUMP JUMPDEST PUSH2 0x1C5C DUP2 PUSH2 0x215A JUMP JUMPDEST DUP3 MSTORE POP POP JUMP JUMPDEST PUSH2 0x1C6B DUP2 PUSH2 0x215A JUMP JUMPDEST DUP3 MSTORE POP POP JUMP JUMPDEST PUSH1 0x0 PUSH2 0x1C7C DUP3 PUSH2 0x200B JUMP JUMPDEST PUSH2 0x1C86 DUP2 DUP6 PUSH2 0x2023 JUMP JUMPDEST SWAP4 POP PUSH2 0x1C91 DUP4 PUSH2 0x1FFB JUMP JUMPDEST DUP1 PUSH1 0x0 JUMPDEST DUP4 DUP2 LT ISZERO PUSH2 0x1CC2 JUMPI DUP2 MLOAD PUSH2 0x1CA9 DUP9 DUP3 PUSH2 0x1C3B JUMP JUMPDEST SWAP8 POP PUSH2 0x1CB4 DUP4 PUSH2 0x2016 JUMP JUMPDEST SWAP3 POP POP PUSH1 0x1 DUP2 ADD SWAP1 POP PUSH2 0x1C95 JUMP JUMPDEST POP DUP6 SWAP4 POP POP POP POP SWAP3 SWAP2 POP POP JUMP JUMPDEST PUSH2 0x1CD8 DUP2 PUSH2 0x216C JUMP JUMPDEST DUP3 MSTORE POP POP JUMP JUMPDEST PUSH1 0x0 PUSH2 0x1CEB PUSH1 0x10 DUP4 PUSH2 0x2034 JUMP JUMPDEST SWAP2 POP PUSH2 0x1CF6 DUP3 PUSH2 0x22FD JUMP JUMPDEST PUSH1 0x20 DUP3 ADD SWAP1 POP SWAP2 SWAP1 POP JUMP JUMPDEST PUSH1 0x0 PUSH2 0x1D0E PUSH1 0xB DUP4 PUSH2 0x2034 JUMP JUMPDEST SWAP2 POP PUSH2 0x1D19 DUP3 PUSH2 0x2326 JUMP JUMPDEST PUSH1 0x20 DUP3 ADD SWAP1 POP SWAP2 SWAP1 POP JUMP JUMPDEST PUSH1 0x0 PUSH2 0x1D31 PUSH1 0xD DUP4 PUSH2 0x2034 JUMP JUMPDEST SWAP2 POP PUSH2 0x1D3C DUP3 PUSH2 0x234F JUMP JUMPDEST PUSH1 0x20 DUP3 ADD SWAP1 POP SWAP2 SWAP1 POP JUMP JUMPDEST PUSH1 0x0 PUSH2 0x1D54 PUSH1 0x9 DUP4 PUSH2 0x2034 JUMP JUMPDEST SWAP2 POP PUSH2 0x1D5F DUP3 PUSH2 0x2378 JUMP JUMPDEST PUSH1 0x20 DUP3 ADD SWAP1 POP SWAP2 SWAP1 POP JUMP JUMPDEST PUSH1 0x0 PUSH2 0x1D77 PUSH1 0x20 DUP4 PUSH2 0x2034 JUMP JUMPDEST SWAP2 POP PUSH2 0x1D82 DUP3 PUSH2 0x23A1 JUMP JUMPDEST PUSH1 0x20 DUP3 ADD SWAP1 POP SWAP2 SWAP1 POP JUMP JUMPDEST PUSH1 0x0 PUSH2 0x1D9A PUSH1 0x7 DUP4 PUSH2 0x2034 JUMP JUMPDEST SWAP2 POP PUSH2 0x1DA5 DUP3 PUSH2 0x23CA JUMP JUMPDEST PUSH1 0x20 DUP3 ADD SWAP1 POP SWAP2 SWAP1 POP JUMP JUMPDEST PUSH1 0x0 PUSH2 0x1DBD PUSH1 0xF DUP4 PUSH2 0x2034 JUMP JUMPDEST SWAP2 POP PUSH2 0x1DC8 DUP3 PUSH2 0x23F3 JUMP JUMPDEST PUSH1 0x20 DUP3 ADD SWAP1 POP SWAP2 SWAP1 POP JUMP JUMPDEST PUSH2 0x1DDC DUP2 PUSH2 0x2198 JUMP JUMPDEST DUP3 MSTORE POP POP JUMP JUMPDEST PUSH1 0x0 PUSH1 0x20 DUP3 ADD SWAP1 POP PUSH2 0x1DF7 PUSH1 0x0 DUP4 ADD DUP5 PUSH2 0x1C62 JUMP JUMPDEST SWAP3 SWAP2 POP POP JUMP JUMPDEST PUSH1 0x0 PUSH1 0x60 DUP3 ADD SWAP1 POP PUSH2 0x1E12 PUSH1 0x0 DUP4 ADD DUP7 PUSH2 0x1C62 JUMP JUMPDEST PUSH2 0x1E1F PUSH1 0x20 DUP4 ADD DUP6 PUSH2 0x1C62 JUMP JUMPDEST PUSH2 0x1E2C PUSH1 0x40 DUP4 ADD DUP5 PUSH2 0x1DD3 JUMP JUMPDEST SWAP5 SWAP4 POP POP POP POP JUMP JUMPDEST PUSH1 0x0 PUSH1 0x40 DUP3 ADD SWAP1 POP PUSH2 0x1E49 PUSH1 0x0 DUP4 ADD DUP6 PUSH2 0x1C62 JUMP JUMPDEST PUSH2 0x1E56 PUSH1 0x20 DUP4 ADD DUP5 PUSH2 0x1DD3 JUMP JUMPDEST SWAP4 SWAP3 POP POP POP JUMP JUMPDEST PUSH1 0x0 PUSH1 0x40 DUP3 ADD SWAP1 POP DUP2 DUP2 SUB PUSH1 0x0 DUP4 ADD MSTORE PUSH2 0x1E77 DUP2 DUP6 PUSH2 0x1C71 JUMP JUMPDEST SWAP1 POP DUP2 DUP2 SUB PUSH1 0x20 DUP4 ADD MSTORE PUSH2 0x1E8B DUP2 DUP5 PUSH2 0x1C71 JUMP JUMPDEST SWAP1 POP SWAP4 SWAP3 POP POP POP JUMP JUMPDEST PUSH1 0x0 PUSH1 0x20 DUP3 ADD SWAP1 POP PUSH2 0x1EA9 PUSH1 0x0 DUP4 ADD DUP5 PUSH2 0x1CCF JUMP JUMPDEST SWAP3 SWAP2 POP POP JUMP JUMPDEST PUSH1 0x0 PUSH1 0x20 DUP3 ADD SWAP1 POP DUP2 DUP2 SUB PUSH1 0x0 DUP4 ADD MSTORE PUSH2 0x1EC8 DUP2 PUSH2 0x1CDE JUMP JUMPDEST SWAP1 POP SWAP2 SWAP1 POP JUMP JUMPDEST PUSH1 0x0 PUSH1 0x20 DUP3 ADD SWAP1 POP DUP2 DUP2 SUB PUSH1 0x0 DUP4 ADD MSTORE PUSH2 0x1EE8 DUP2 PUSH2 0x1D01 JUMP JUMPDEST SWAP1 POP SWAP2 SWAP1 POP JUMP JUMPDEST PUSH1 0x0 PUSH1 0x20 DUP3 ADD SWAP1 POP DUP2 DUP2 SUB PUSH1 0x0 DUP4 ADD MSTORE PUSH2 0x1F08 DUP2 PUSH2 0x1D24 JUMP JUMPDEST SWAP1 POP SWAP2 SWAP1 POP JUMP JUMPDEST PUSH1 0x0 PUSH1 0x20 DUP3 ADD SWAP1 POP DUP2 DUP2 SUB PUSH1 0x0 DUP4 ADD MSTORE PUSH2 0x1F28 DUP2 PUSH2 0x1D47 JUMP JUMPDEST SWAP1 POP SWAP2 SWAP1 POP JUMP JUMPDEST PUSH1 0x0 PUSH1 0x20 DUP3 ADD SWAP1 POP DUP2 DUP2 SUB PUSH1 0x0 DUP4 ADD MSTORE PUSH2 0x1F48 DUP2 PUSH2 0x1D6A JUMP JUMPDEST SWAP1 POP SWAP2 SWAP1 POP JUMP JUMPDEST PUSH1 0x0 PUSH1 0x20 DUP3 ADD SWAP1 POP DUP2 DUP2 SUB PUSH1 0x0 DUP4 ADD MSTORE PUSH2 0x1F68 DUP2 PUSH2 0x1D8D JUMP JUMPDEST SWAP1 POP SWAP2 SWAP1 POP JUMP JUMPDEST PUSH1 0x0 PUSH1 0x20 DUP3 ADD SWAP1 POP DUP2 DUP2 SUB PUSH1 0x0 DUP4 ADD MSTORE PUSH2 0x1F88 DUP2 PUSH2 0x1DB0 JUMP JUMPDEST SWAP1 POP SWAP2 SWAP1 POP JUMP JUMPDEST PUSH1 0x0 PUSH1 0x20 DUP3 ADD SWAP1 POP PUSH2 0x1FA4 PUSH1 0x0 DUP4 ADD DUP5 PUSH2 0x1DD3 JUMP JUMPDEST SWAP3 SWAP2 POP POP JUMP JUMPDEST PUSH1 0x0 PUSH2 0x1FB4 PUSH2 0x1FC5 JUMP JUMPDEST SWAP1 POP PUSH2 0x1FC0 DUP3 DUP3 PUSH2 0x21A2 JUMP JUMPDEST SWAP2 SWAP1 POP JUMP JUMPDEST PUSH1 0x0 PUSH1 0x40 MLOAD SWAP1 POP SWAP1 JUMP JUMPDEST PUSH1 0x0 PUSH8 0xFFFFFFFFFFFFFFFF DUP3 GT ISZERO PUSH2 0x1FEA JUMPI PUSH2 0x1FE9 PUSH2 0x22A9 JUMP JUMPDEST JUMPDEST PUSH1 0x20 DUP3 MUL SWAP1 POP PUSH1 0x20 DUP2 ADD SWAP1 POP SWAP2 SWAP1 POP JUMP JUMPDEST PUSH1 0x0 DUP2 SWAP1 POP PUSH1 0x20 DUP3 ADD SWAP1 POP SWAP2 SWAP1 POP JUMP JUMPDEST PUSH1 0x0 DUP2 MLOAD SWAP1 POP SWAP2 SWAP1 POP JUMP JUMPDEST PUSH1 0x0 PUSH1 0x20 DUP3 ADD SWAP1 POP SWAP2 SWAP1 POP JUMP JUMPDEST PUSH1 0x0 DUP3 DUP3 MSTORE PUSH1 0x20 DUP3 ADD SWAP1 POP SWAP3 SWAP2 POP POP JUMP JUMPDEST PUSH1 0x0 DUP3 DUP3 MSTORE PUSH1 0x20 DUP3 ADD SWAP1 POP SWAP3 SWAP2 POP POP JUMP JUMPDEST PUSH1 0x0 PUSH2 0x2050 DUP3 PUSH2 0x2198 JUMP JUMPDEST SWAP2 POP PUSH2 0x205B DUP4 PUSH2 0x2198 JUMP JUMPDEST SWAP3 POP DUP3 PUSH32 0xFFFFFFFFFFFFFFFFFFFFFFFFFFFFFFFFFFFFFFFFFFFFFFFFFFFFFFFFFFFFFFFF SUB DUP3 GT ISZERO PUSH2 0x2090 JUMPI PUSH2 0x208F PUSH2 0x221C JUMP JUMPDEST JUMPDEST DUP3 DUP3 ADD SWAP1 POP SWAP3 SWAP2 POP POP JUMP JUMPDEST PUSH1 0x0 PUSH2 0x20A6 DUP3 PUSH2 0x2198 JUMP JUMPDEST SWAP2 POP PUSH2 0x20B1 DUP4 PUSH2 0x2198 JUMP JUMPDEST SWAP3 POP DUP3 PUSH2 0x20C1 JUMPI PUSH2 0x20C0 PUSH2 0x224B JUMP JUMPDEST JUMPDEST DUP3 DUP3 DIV SWAP1 POP SWAP3 SWAP2 POP POP JUMP JUMPDEST PUSH1 0x0 PUSH2 0x20D7 DUP3 PUSH2 0x2198 JUMP JUMPDEST SWAP2 POP PUSH2 0x20E2 DUP4 PUSH2 0x2198 JUMP JUMPDEST SWAP3 POP DUP2 PUSH32 0xFFFFFFFFFFFFFFFFFFFFFFFFFFFFFFFFFFFFFFFFFFFFFFFFFFFFFFFFFFFFFFFF DIV DUP4 GT DUP3 ISZERO ISZERO AND ISZERO PUSH2 0x211B JUMPI PUSH2 0x211A PUSH2 0x221C JUMP JUMPDEST JUMPDEST DUP3 DUP3 MUL SWAP1 POP SWAP3 SWAP2 POP POP JUMP JUMPDEST PUSH1 0x0 PUSH2 0x2131 DUP3 PUSH2 0x2198 JUMP JUMPDEST SWAP2 POP PUSH2 0x213C DUP4 PUSH2 0x2198 JUMP JUMPDEST SWAP3 POP DUP3 DUP3 LT ISZERO PUSH2 0x214F JUMPI PUSH2 0x214E PUSH2 0x221C JUMP JUMPDEST JUMPDEST DUP3 DUP3 SUB SWAP1 POP SWAP3 SWAP2 POP POP JUMP JUMPDEST PUSH1 0x0 PUSH2 0x2165 DUP3 PUSH2 0x2178 JUMP JUMPDEST SWAP1 POP SWAP2 SWAP1 POP JUMP JUMPDEST PUSH1 0x0 DUP2 ISZERO ISZERO SWAP1 POP SWAP2 SWAP1 POP JUMP JUMPDEST PUSH1 0x0 PUSH20 0xFFFFFFFFFFFFFFFFFFFFFFFFFFFFFFFFFFFFFFFF DUP3 AND SWAP1 POP SWAP2 SWAP1 POP JUMP JUMPDEST PUSH1 0x0 DUP2 SWAP1 POP SWAP2 SWAP1 POP JUMP JUMPDEST PUSH2 0x21AB DUP3 PUSH2 0x22EC JUMP JUMPDEST DUP2 ADD DUP2 DUP2 LT PUSH8 0xFFFFFFFFFFFFFFFF DUP3 GT OR ISZERO PUSH2 0x21CA JUMPI PUSH2 0x21C9 PUSH2 0x22A9 JUMP JUMPDEST JUMPDEST DUP1 PUSH1 0x40 MSTORE POP POP POP JUMP JUMPDEST PUSH1 0x0 PUSH2 0x21DE DUP3 PUSH2 0x2198 JUMP JUMPDEST SWAP2 POP PUSH32 0xFFFFFFFFFFFFFFFFFFFFFFFFFFFFFFFFFFFFFFFFFFFFFFFFFFFFFFFFFFFFFFFF DUP3 EQ ISZERO PUSH2 0x2211 JUMPI PUSH2 0x2210 PUSH2 0x221C JUMP JUMPDEST JUMPDEST PUSH1 0x1 DUP3 ADD SWAP1 POP SWAP2 SWAP1 POP JUMP JUMPDEST PUSH32 0x4E487B7100000000000000000000000000000000000000000000000000000000 PUSH1 0x0 MSTORE PUSH1 0x11 PUSH1 0x4 MSTORE PUSH1 0x24 PUSH1 0x0 REVERT JUMPDEST PUSH32 0x4E487B7100000000000000000000000000000000000000000000000000000000 PUSH1 0x0 MSTORE PUSH1 0x12 PUSH1 0x4 MSTORE PUSH1 0x24 PUSH1 0x0 REVERT JUMPDEST PUSH32 0x4E487B7100000000000000000000000000000000000000000000000000000000 PUSH1 0x0 MSTORE PUSH1 0x32 PUSH1 0x4 MSTORE PUSH1 0x24 PUSH1 0x0 REVERT JUMPDEST PUSH32 0x4E487B7100000000000000000000000000000000000000000000000000000000 PUSH1 0x0 MSTORE PUSH1 0x41 PUSH1 0x4 MSTORE PUSH1 0x24 PUSH1 0x0 REVERT JUMPDEST PUSH1 0x0 DUP1 REVERT JUMPDEST PUSH1 0x0 DUP1 REVERT JUMPDEST PUSH1 0x0 DUP1 REVERT JUMPDEST PUSH1 0x0 DUP1 REVERT JUMPDEST PUSH1 0x0 PUSH1 0x1F NOT PUSH1 0x1F DUP4 ADD AND SWAP1 POP SWAP2 SWAP1 POP JUMP JUMPDEST PUSH32 0x616464726573732069732077726F6E6700000000000000000000000000000000 PUSH1 0x0 DUP3 ADD MSTORE POP JUMP JUMPDEST PUSH32 0x4E6F74206D616E61676572000000000000000000000000000000000000000000 PUSH1 0x0 DUP3 ADD MSTORE POP JUMP JUMPDEST PUSH32 0x74696D6520697320657869737400000000000000000000000000000000000000 PUSH1 0x0 DUP3 ADD MSTORE POP JUMP JUMPDEST PUSH32 0x6E6F7420616C6C6F770000000000000000000000000000000000000000000000 PUSH1 0x0 DUP3 ADD MSTORE POP JUMP JUMPDEST PUSH32 0x4F776E61626C653A2063616C6C6572206973206E6F7420746865206F776E6572 PUSH1 0x0 DUP3 ADD MSTORE POP JUMP JUMPDEST PUSH32 0x6E6F742049444F00000000000000000000000000000000000000000000000000 PUSH1 0x0 DUP3 ADD MSTORE POP JUMP JUMPDEST PUSH32 0x6C656E6774682069732077726F6E670000000000000000000000000000000000 PUSH1 0x0 DUP3 ADD MSTORE POP JUMP JUMPDEST PUSH2 0x2425 DUP2 PUSH2 0x215A JUMP JUMPDEST DUP2 EQ PUSH2 0x2430 JUMPI PUSH1 0x0 DUP1 REVERT JUMPDEST POP JUMP JUMPDEST PUSH2 0x243C DUP2 PUSH2 0x216C JUMP JUMPDEST DUP2 EQ PUSH2 0x2447 JUMPI PUSH1 0x0 DUP1 REVERT JUMPDEST POP JUMP JUMPDEST PUSH2 0x2453 DUP2 PUSH2 0x2198 JUMP JUMPDEST DUP2 EQ PUSH2 0x245E JUMPI PUSH1 0x0 DUP1 REVERT JUMPDEST POP JUMP INVALID LOG2 PUSH5 0x6970667358 0x22 SLT KECCAK256 0xEE 0xF6 PUSH20 0x15ADB0BC67DD361D70575301A4DDC3E69C38FD4D 0x24 SWAP1 SHR 0xB0 0xDB EQ LOG3 0xB1 PUSH7 0x64736F6C634300 ADDMOD SMOD STOP CALLER "
				},
				"gasEstimates": {
					"creation": {
						"codeDepositCost": "1873400",
						"executionCost": "infinite",
						"totalCost": "infinite"
					},
					"external": {
						"IDOAddress()": "2625",
						"_IDOUsdt(address,uint256)": "infinite",
						"_addRelation(address[],address[])": "infinite",
						"allowET(address)": "infinite",
						"closeOpenOne(bool)": "27010",
						"closeOpenTwo(bool)": "27061",
						"endTime()": "2497",
						"getET()": "infinite",
						"isManager(address)": "2911",
						"isOpenOne()": "2578",
						"isOpenTwo()": "2633",
						"owner()": "2639",
						"relationAmount(address)": "2858",
						"setETCoin(address)": "26987",
						"setEndTime()": "26667",
						"setManager(address,bool)": "27313",
						"setNFT(address)": "27052",
						"totalSupply()": "2453",
						"userIDO(address)": "2837",
						"userRelation(address)": "infinite"
					}
				},
				"methodIdentifiers": {
					"IDOAddress()": "c6b24c1c",
					"_IDOUsdt(address,uint256)": "8dd0abaa",
					"_addRelation(address[],address[])": "238c4c2f",
					"allowET(address)": "918a6283",
					"closeOpenOne(bool)": "b6dd3104",
					"closeOpenTwo(bool)": "37b1a023",
					"endTime()": "3197cbb6",
					"getET()": "98269b6a",
					"isManager(address)": "f3ae2415",
					"isOpenOne()": "fb066531",
					"isOpenTwo()": "5db98f2d",
					"owner()": "8da5cb5b",
					"relationAmount(address)": "f06b41e3",
					"setETCoin(address)": "965ed465",
					"setEndTime()": "76be6af6",
					"setManager(address,bool)": "a5e90eee",
					"setNFT(address)": "f56e9c66",
					"totalSupply()": "18160ddd",
					"userIDO(address)": "6a41d5d7",
					"userRelation(address)": "e72ebdb7"
				}
			},
			"storageLayout": {
				"storage": [
					{
						"astId": 610,
						"contract": "CoinIdo.sol:CoinIdo",
						"label": "isOpenOne",
						"offset": 0,
						"slot": "0",
						"type": "t_bool"
					},
					{
						"astId": 612,
						"contract": "CoinIdo.sol:CoinIdo",
						"label": "isOpenTwo",
						"offset": 1,
						"slot": "0",
						"type": "t_bool"
					},
					{
						"astId": 614,
						"contract": "CoinIdo.sol:CoinIdo",
						"label": "_owner",
						"offset": 2,
						"slot": "0",
						"type": "t_address"
					},
					{
						"astId": 616,
						"contract": "CoinIdo.sol:CoinIdo",
						"label": "endTime",
						"offset": 0,
						"slot": "1",
						"type": "t_uint256"
					},
					{
						"astId": 618,
						"contract": "CoinIdo.sol:CoinIdo",
						"label": "totalSupply",
						"offset": 0,
						"slot": "2",
						"type": "t_uint256"
					},
					{
						"astId": 622,
						"contract": "CoinIdo.sol:CoinIdo",
						"label": "isManager",
						"offset": 0,
						"slot": "3",
						"type": "t_mapping(t_address,t_bool)"
					},
					{
						"astId": 624,
						"contract": "CoinIdo.sol:CoinIdo",
						"label": "IDOAddress",
						"offset": 0,
						"slot": "4",
						"type": "t_address"
					},
					{
						"astId": 627,
						"contract": "CoinIdo.sol:CoinIdo",
						"label": "usdt",
						"offset": 0,
						"slot": "5",
						"type": "t_contract(IERC20)1280"
					},
					{
						"astId": 630,
						"contract": "CoinIdo.sol:CoinIdo",
						"label": "etNft",
						"offset": 0,
						"slot": "6",
						"type": "t_contract(IETNFT)608"
					},
					{
						"astId": 633,
						"contract": "CoinIdo.sol:CoinIdo",
						"label": "etCoin",
						"offset": 0,
						"slot": "7",
						"type": "t_contract(IERC20)1280"
					},
					{
						"astId": 638,
						"contract": "CoinIdo.sol:CoinIdo",
						"label": "lb",
						"offset": 0,
						"slot": "8",
						"type": "t_mapping(t_address,t_array(t_bool)dyn_storage)"
					},
					{
						"astId": 642,
						"contract": "CoinIdo.sol:CoinIdo",
						"label": "userRelation",
						"offset": 0,
						"slot": "9",
						"type": "t_mapping(t_address,t_address)"
					},
					{
						"astId": 646,
						"contract": "CoinIdo.sol:CoinIdo",
						"label": "userIDO",
						"offset": 0,
						"slot": "10",
						"type": "t_mapping(t_address,t_uint256)"
					},
					{
						"astId": 650,
						"contract": "CoinIdo.sol:CoinIdo",
						"label": "relationAmount",
						"offset": 0,
						"slot": "11",
						"type": "t_mapping(t_address,t_uint256)"
					}
				],
				"types": {
					"t_address": {
						"encoding": "inplace",
						"label": "address",
						"numberOfBytes": "20"
					},
					"t_array(t_bool)dyn_storage": {
						"base": "t_bool",
						"encoding": "dynamic_array",
						"label": "bool[]",
						"numberOfBytes": "32"
					},
					"t_bool": {
						"encoding": "inplace",
						"label": "bool",
						"numberOfBytes": "1"
					},
					"t_contract(IERC20)1280": {
						"encoding": "inplace",
						"label": "contract IERC20",
						"numberOfBytes": "20"
					},
					"t_contract(IETNFT)608": {
						"encoding": "inplace",
						"label": "contract IETNFT",
						"numberOfBytes": "20"
					},
					"t_mapping(t_address,t_address)": {
						"encoding": "mapping",
						"key": "t_address",
						"label": "mapping(address => address)",
						"numberOfBytes": "32",
						"value": "t_address"
					},
					"t_mapping(t_address,t_array(t_bool)dyn_storage)": {
						"encoding": "mapping",
						"key": "t_address",
						"label": "mapping(address => bool[])",
						"numberOfBytes": "32",
						"value": "t_array(t_bool)dyn_storage"
					},
					"t_mapping(t_address,t_bool)": {
						"encoding": "mapping",
						"key": "t_address",
						"label": "mapping(address => bool)",
						"numberOfBytes": "32",
						"value": "t_bool"
					},
					"t_mapping(t_address,t_uint256)": {
						"encoding": "mapping",
						"key": "t_address",
						"label": "mapping(address => uint256)",
						"numberOfBytes": "32",
						"value": "t_uint256"
					},
					"t_uint256": {
						"encoding": "inplace",
						"label": "uint256",
						"numberOfBytes": "32"
					}
				}
			},
			"userdoc": {
				"kind": "user",
				"methods": {},
				"version": 1
			}
		}
	}
}