{
	"CoinIdo.sol": {
		"CoinIdo": {
			"abi": [
				{
					"inputs": [
						{
							"internalType": "address",
							"name": "_address",
							"type": "address"
						},
						{
							"internalType": "address",
							"name": "_usdt",
							"type": "address"
						}
					],
					"stateMutability": "nonpayable",
					"type": "constructor"
				},
				{
					"anonymous": false,
					"inputs": [
						{
							"indexed": false,
							"internalType": "address[]",
							"name": "addressFrom",
							"type": "address[]"
						},
						{
							"indexed": false,
							"internalType": "address[]",
							"name": "addressTo",
							"type": "address[]"
						}
					],
					"name": "AddRelation",
					"type": "event"
				},
				{
					"anonymous": false,
					"inputs": [
						{
							"indexed": false,
							"internalType": "address",
							"name": "from",
							"type": "address"
						},
						{
							"indexed": false,
							"internalType": "uint256",
							"name": "value",
							"type": "uint256"
						}
					],
					"name": "IDOUsdt",
					"type": "event"
				},
				{
					"anonymous": false,
					"inputs": [
						{
							"indexed": false,
							"internalType": "address",
							"name": "previousOwner",
							"type": "address"
						},
						{
							"indexed": false,
							"internalType": "address",
							"name": "newOwner",
							"type": "address"
						}
					],
					"name": "OwnershipTransferred",
					"type": "event"
				},
				{
					"anonymous": false,
					"inputs": [
						{
							"indexed": false,
							"internalType": "address",
							"name": "_address",
							"type": "address"
						},
						{
							"indexed": false,
							"internalType": "uint256",
							"name": "time",
							"type": "uint256"
						}
					],
					"name": "SetEndTime",
					"type": "event"
				},
				{
					"anonymous": false,
					"inputs": [
						{
							"indexed": false,
							"internalType": "address",
							"name": "_address",
							"type": "address"
						},
						{
							"indexed": false,
							"internalType": "address",
							"name": "_manager",
							"type": "address"
						},
						{
							"indexed": false,
							"internalType": "bool",
							"name": "_flag",
							"type": "bool"
						}
					],
					"name": "SetManager",
					"type": "event"
				},
				{
					"anonymous": false,
					"inputs": [
						{
							"indexed": false,
							"internalType": "address",
							"name": "_address",
							"type": "address"
						},
						{
							"indexed": false,
							"internalType": "uint256",
							"name": "_amount",
							"type": "uint256"
						},
						{
							"indexed": false,
							"internalType": "uint256",
							"name": "_time",
							"type": "uint256"
						}
					],
					"name": "Withdraw",
					"type": "event"
				},
				{
					"inputs": [],
					"name": "IDOAddress",
					"outputs": [
						{
							"internalType": "address",
							"name": "",
							"type": "address"
						}
					],
					"stateMutability": "view",
					"type": "function"
				},
				{
					"inputs": [
						{
							"internalType": "uint256",
							"name": "value",
							"type": "uint256"
						}
					],
					"name": "_IDOUsdt",
					"outputs": [],
					"stateMutability": "nonpayable",
					"type": "function"
				},
				{
					"inputs": [
						{
							"internalType": "address[]",
							"name": "addressFrom",
							"type": "address[]"
						},
						{
							"internalType": "address[]",
							"name": "addressTo",
							"type": "address[]"
						}
					],
					"name": "_addRelation",
					"outputs": [],
					"stateMutability": "nonpayable",
					"type": "function"
				},
				{
					"inputs": [
						{
							"internalType": "address",
							"name": "_address",
							"type": "address"
						}
					],
					"name": "allowET",
					"outputs": [],
					"stateMutability": "nonpayable",
					"type": "function"
				},
				{
					"inputs": [
						{
							"internalType": "address",
							"name": "",
							"type": "address"
						}
					],
					"name": "awaitWithdraw",
					"outputs": [
						{
							"internalType": "uint256",
							"name": "",
							"type": "uint256"
						}
					],
					"stateMutability": "view",
					"type": "function"
				},
				{
					"inputs": [],
					"name": "endTime",
					"outputs": [
						{
							"internalType": "uint256",
							"name": "",
							"type": "uint256"
						}
					],
					"stateMutability": "view",
					"type": "function"
				},
				{
					"inputs": [],
					"name": "etCoin",
					"outputs": [
						{
							"internalType": "contract IERC20",
							"name": "",
							"type": "address"
						}
					],
					"stateMutability": "view",
					"type": "function"
				},
				{
					"inputs": [],
					"name": "etNft",
					"outputs": [
						{
							"internalType": "contract IETNFT",
							"name": "",
							"type": "address"
						}
					],
					"stateMutability": "view",
					"type": "function"
				},
				{
					"inputs": [],
					"name": "getWithDraw",
					"outputs": [
						{
							"internalType": "uint256",
							"name": "",
							"type": "uint256"
						}
					],
					"stateMutability": "view",
					"type": "function"
				},
				{
					"inputs": [
						{
							"internalType": "address",
							"name": "",
							"type": "address"
						}
					],
					"name": "isManager",
					"outputs": [
						{
							"internalType": "bool",
							"name": "",
							"type": "bool"
						}
					],
					"stateMutability": "view",
					"type": "function"
				},
				{
					"inputs": [],
					"name": "isOpenIdo",
					"outputs": [
						{
							"internalType": "bool",
							"name": "",
							"type": "bool"
						}
					],
					"stateMutability": "view",
					"type": "function"
				},
				{
					"inputs": [],
					"name": "isOpenOne",
					"outputs": [
						{
							"internalType": "bool",
							"name": "",
							"type": "bool"
						}
					],
					"stateMutability": "view",
					"type": "function"
				},
				{
					"inputs": [],
					"name": "isOpenTwo",
					"outputs": [
						{
							"internalType": "bool",
							"name": "",
							"type": "bool"
						}
					],
					"stateMutability": "view",
					"type": "function"
				},
				{
					"inputs": [
						{
							"internalType": "address",
							"name": "",
							"type": "address"
						},
						{
							"internalType": "uint256",
							"name": "",
							"type": "uint256"
						}
					],
					"name": "lb",
					"outputs": [
						{
							"internalType": "bool",
							"name": "",
							"type": "bool"
						}
					],
					"stateMutability": "view",
					"type": "function"
				},
				{
					"inputs": [
						{
							"internalType": "bool",
							"name": "_flag",
							"type": "bool"
						}
					],
					"name": "openOpenIdo",
					"outputs": [],
					"stateMutability": "nonpayable",
					"type": "function"
				},
				{
					"inputs": [
						{
							"internalType": "bool",
							"name": "_flag",
							"type": "bool"
						}
					],
					"name": "openOpenOne",
					"outputs": [],
					"stateMutability": "nonpayable",
					"type": "function"
				},
				{
					"inputs": [
						{
							"internalType": "bool",
							"name": "_flag",
							"type": "bool"
						}
					],
					"name": "openOpenTwo",
					"outputs": [],
					"stateMutability": "nonpayable",
					"type": "function"
				},
				{
					"inputs": [],
					"name": "owner",
					"outputs": [
						{
							"internalType": "address",
							"name": "",
							"type": "address"
						}
					],
					"stateMutability": "view",
					"type": "function"
				},
				{
					"inputs": [
						{
							"internalType": "address",
							"name": "",
							"type": "address"
						}
					],
					"name": "relationAmount",
					"outputs": [
						{
							"internalType": "uint256",
							"name": "",
							"type": "uint256"
						}
					],
					"stateMutability": "view",
					"type": "function"
				},
				{
					"inputs": [
						{
							"internalType": "address",
							"name": "_address",
							"type": "address"
						}
					],
					"name": "setETCoin",
					"outputs": [],
					"stateMutability": "nonpayable",
					"type": "function"
				},
				{
					"inputs": [],
					"name": "setEndTime",
					"outputs": [],
					"stateMutability": "nonpayable",
					"type": "function"
				},
				{
					"inputs": [
						{
							"internalType": "address",
							"name": "_manager",
							"type": "address"
						},
						{
							"internalType": "bool",
							"name": "_flag",
							"type": "bool"
						}
					],
					"name": "setManager",
					"outputs": [],
					"stateMutability": "nonpayable",
					"type": "function"
				},
				{
					"inputs": [
						{
							"internalType": "address",
							"name": "_address",
							"type": "address"
						}
					],
					"name": "setNFT",
					"outputs": [],
					"stateMutability": "nonpayable",
					"type": "function"
				},
				{
					"inputs": [],
					"name": "totalSupply",
					"outputs": [
						{
							"internalType": "uint256",
							"name": "",
							"type": "uint256"
						}
					],
					"stateMutability": "view",
					"type": "function"
				},
				{
					"inputs": [
						{
							"internalType": "address",
							"name": "newOwner",
							"type": "address"
						}
					],
					"name": "transferOwnership",
					"outputs": [],
					"stateMutability": "nonpayable",
					"type": "function"
				},
				{
					"inputs": [],
					"name": "usdt",
					"outputs": [
						{
							"internalType": "contract IERC20",
							"name": "",
							"type": "address"
						}
					],
					"stateMutability": "view",
					"type": "function"
				},
				{
					"inputs": [
						{
							"internalType": "address",
							"name": "",
							"type": "address"
						}
					],
					"name": "userIDO",
					"outputs": [
						{
							"internalType": "uint256",
							"name": "",
							"type": "uint256"
						}
					],
					"stateMutability": "view",
					"type": "function"
				},
				{
					"inputs": [
						{
							"internalType": "address",
							"name": "",
							"type": "address"
						}
					],
					"name": "userRelation",
					"outputs": [
						{
							"internalType": "address",
							"name": "",
							"type": "address"
						}
					],
					"stateMutability": "view",
					"type": "function"
				},
				{
					"inputs": [],
					"name": "withdraw",
					"outputs": [],
					"stateMutability": "nonpayable",
					"type": "function"
				}
			],
			"devdoc": {
				"kind": "dev",
				"methods": {},
				"version": 1
			},
			"evm": {
				"assembly": "    /* \"CoinIdo.sol\":229:6774  contract CoinIdo{ \r... */\n  mstore(0x40, 0x80)\n    /* \"CoinIdo.sol\":889:895  10**18 */\n  0x0de0b6b3a7640000\n    /* \"CoinIdo.sol\":877:895  uint base = 10**18 */\n  0x0d\n  sstore\n    /* \"CoinIdo.sol\":930:1190  constructor(address _address,address _usdt){\r... */\n  callvalue\n  dup1\n  iszero\n  tag_1\n  jumpi\n  0x00\n  dup1\n  revert\ntag_1:\n  pop\n  mload(0x40)\n  sub(codesize, bytecodeSize)\n  dup1\n  bytecodeSize\n  dup4\n  codecopy\n  dup2\n  add\n  0x40\n  dup2\n  swap1\n  mstore\n  tag_2\n  swap2\n  tag_3\n  jump\t// in\ntag_2:\n    /* \"CoinIdo.sol\":984:993  isOpenOne */\n  0x00\n    /* \"CoinIdo.sol\":984:998  isOpenOne=true */\n  dup1\n  sload\n    /* \"CoinIdo.sol\":1034:1043  isOpenIdo */\n  0x0e\n    /* \"CoinIdo.sol\":1034:1051  isOpenIdo = false */\n  dup1\n  sload\n  not(0xff)\n  and\n  swap1\n  sstore\n    /* \"CoinIdo.sol\":1062:1072  IDOAddress */\n  0x04\n    /* \"CoinIdo.sol\":1062:1081  IDOAddress=_address */\n  dup1\n  sload\n  sub(shl(0xa0, 0x01), 0x01)\n  dup1\n  dup8\n  and\n  not(sub(shl(0xa0, 0x01), 0x01))\n  swap3\n  dup4\n  and\n  or\n  swap1\n  swap3\n  sstore\n    /* \"CoinIdo.sol\":1092:1096  usdt */\n  0x05\n    /* \"CoinIdo.sol\":1092:1112  usdt = IERC20(_usdt) */\n  dup1\n  sload\n  swap3\n  dup7\n  and\n  swap3\n  swap1\n  swap2\n  and\n  swap2\n  swap1\n  swap2\n  or\n  swap1\n  sstore\n    /* \"CoinIdo.sol\":1123:1141  _owner= msg.sender */\n  0x010000\n    /* \"CoinIdo.sol\":1131:1141  msg.sender */\n  caller\n    /* \"CoinIdo.sol\":1123:1141  _owner= msg.sender */\n  swap1\n  dup2\n  mul\n  not(sub(shl(0xb0, 0x01), 0x01))\n  swap1\n  swap3\n  and\n  swap2\n  swap1\n  swap2\n  or\n    /* \"CoinIdo.sol\":1009:1023  isOpenTwo=true */\n  0x0101\n    /* \"CoinIdo.sol\":1123:1141  _owner= msg.sender */\n  or\n  swap1\n  swap2\n  sstore\n    /* \"CoinIdo.sol\":1154:1182  setManager(msg.sender, true) */\n  tag_6\n  swap1\n    /* \"CoinIdo.sol\":994:998  true */\n  0x01\n    /* \"CoinIdo.sol\":1154:1164  setManager */\n  tag_7\n    /* \"CoinIdo.sol\":1154:1182  setManager(msg.sender, true) */\n  jump\t// in\ntag_6:\n    /* \"CoinIdo.sol\":930:1190  constructor(address _address,address _usdt){\r... */\n  pop\n  pop\n    /* \"CoinIdo.sol\":229:6774  contract CoinIdo{ \r... */\n  jump(tag_19)\n    /* \"CoinIdo.sol\":1482:1650  function setManager(address _manager, bool _flag) public onlyOwner {\r... */\ntag_7:\n    /* \"CoinIdo.sol\":1340:1350  msg.sender */\n  caller\n    /* \"CoinIdo.sol\":1329:1336  owner() */\n  tag_10\n    /* \"CoinIdo.sol\":1242:1249  address */\n  0x00\n    /* \"CoinIdo.sol\":1269:1275  _owner */\n  sload\n  0x010000\n  swap1\n  div\n  sub(shl(0xa0, 0x01), 0x01)\n  and\n  swap1\n    /* \"CoinIdo.sol\":1196:1283  function owner() public view virtual returns (address) {\r... */\n  jump\n    /* \"CoinIdo.sol\":1329:1336  owner() */\ntag_10:\n  sub(shl(0xa0, 0x01), 0x01)\n    /* \"CoinIdo.sol\":1329:1350  owner() == msg.sender */\n  and\n  eq\n    /* \"CoinIdo.sol\":1321:1387  require(owner() == msg.sender, \"Ownable: caller is not the owner\") */\n  tag_12\n  jumpi\n  mload(0x40)\n  shl(0xe5, 0x461bcd)\n  dup2\n  mstore\n    /* \"#utility.yul\":1096:1098   */\n  0x20\n    /* \"CoinIdo.sol\":1321:1387  require(owner() == msg.sender, \"Ownable: caller is not the owner\") */\n  0x04\n  dup3\n  add\n    /* \"#utility.yul\":1078:1099   */\n  dup2\n  swap1\n  mstore\n    /* \"#utility.yul\":1115:1133   */\n  0x24\n  dup3\n  add\n    /* \"#utility.yul\":1108:1138   */\n  mstore\n    /* \"#utility.yul\":1174:1208   */\n  0x4f776e61626c653a2063616c6c6572206973206e6f7420746865206f776e6572\n    /* \"#utility.yul\":1154:1172   */\n  0x44\n  dup3\n  add\n    /* \"#utility.yul\":1147:1209   */\n  mstore\n    /* \"#utility.yul\":1226:1244   */\n  0x64\n  add\n    /* \"CoinIdo.sol\":1321:1387  require(owner() == msg.sender, \"Ownable: caller is not the owner\") */\n  mload(0x40)\n  dup1\n  swap2\n  sub\n  swap1\n  revert\ntag_12:\n  sub(shl(0xa0, 0x01), 0x01)\n    /* \"CoinIdo.sol\":1560:1579  isManager[_manager] */\n  dup3\n  and\n  0x00\n  dup2\n  dup2\n  mstore\n    /* \"CoinIdo.sol\":1560:1569  isManager */\n  0x03\n    /* \"CoinIdo.sol\":1560:1579  isManager[_manager] */\n  0x20\n  swap1\n  dup2\n  mstore\n  0x40\n  swap2\n  dup3\n  swap1\n  keccak256\n    /* \"CoinIdo.sol\":1560:1587  isManager[_manager] = _flag */\n  dup1\n  sload\n  not(0xff)\n  and\n  dup6\n  iszero\n  iszero\n  swap1\n  dup2\n  or\n  swap1\n  swap2\n  sstore\n    /* \"CoinIdo.sol\":1603:1642  SetManager(msg.sender, _manager, _flag) */\n  dup3\n  mload\n    /* \"CoinIdo.sol\":1614:1624  msg.sender */\n  caller\n    /* \"#utility.yul\":738:772   */\n  dup2\n  mstore\n    /* \"#utility.yul\":788:806   */\n  swap2\n  dup3\n  add\n    /* \"#utility.yul\":781:824   */\n  swap4\n  swap1\n  swap4\n  mstore\n    /* \"#utility.yul\":840:858   */\n  swap1\n  dup2\n  add\n    /* \"#utility.yul\":833:883   */\n  swap2\n  swap1\n  swap2\n  mstore\n    /* \"CoinIdo.sol\":1603:1642  SetManager(msg.sender, _manager, _flag) */\n  0x2862b022f51ffee932517d924c5103b3267a9d5d1f21bec54356e328aac24c18\n  swap1\n    /* \"#utility.yul\":688:690   */\n  0x60\n    /* \"#utility.yul\":673:691   */\n  add\n    /* \"CoinIdo.sol\":1603:1642  SetManager(msg.sender, _manager, _flag) */\n  mload(0x40)\n  dup1\n  swap2\n  sub\n  swap1\n  log1\n    /* \"CoinIdo.sol\":1482:1650  function setManager(address _manager, bool _flag) public onlyOwner {\r... */\n  pop\n  pop\n  jump\t// out\n    /* \"#utility.yul\":14:191   */\ntag_20:\n    /* \"#utility.yul\":93:106   */\n  dup1\n  mload\n  sub(shl(0xa0, 0x01), 0x01)\n    /* \"#utility.yul\":135:166   */\n  dup2\n  and\n    /* \"#utility.yul\":125:167   */\n  dup2\n  eq\n    /* \"#utility.yul\":115:117   */\n  tag_22\n  jumpi\n    /* \"#utility.yul\":181:182   */\n  0x00\n    /* \"#utility.yul\":178:179   */\n  dup1\n    /* \"#utility.yul\":171:183   */\n  revert\n    /* \"#utility.yul\":115:117   */\ntag_22:\n    /* \"#utility.yul\":74:191   */\n  swap2\n  swap1\n  pop\n  jump\t// out\n    /* \"#utility.yul\":196:499   */\ntag_3:\n    /* \"#utility.yul\":275:281   */\n  0x00\n    /* \"#utility.yul\":283:289   */\n  dup1\n    /* \"#utility.yul\":336:338   */\n  0x40\n    /* \"#utility.yul\":324:333   */\n  dup4\n    /* \"#utility.yul\":315:322   */\n  dup6\n    /* \"#utility.yul\":311:334   */\n  sub\n    /* \"#utility.yul\":307:339   */\n  slt\n    /* \"#utility.yul\":304:306   */\n  iszero\n  tag_24\n  jumpi\n    /* \"#utility.yul\":357:363   */\n  dup2\n    /* \"#utility.yul\":349:355   */\n  dup3\n    /* \"#utility.yul\":342:364   */\n  revert\n    /* \"#utility.yul\":304:306   */\ntag_24:\n    /* \"#utility.yul\":385:425   */\n  tag_25\n    /* \"#utility.yul\":415:424   */\n  dup4\n    /* \"#utility.yul\":385:425   */\n  tag_20\n  jump\t// in\ntag_25:\n    /* \"#utility.yul\":375:425   */\n  swap2\n  pop\n    /* \"#utility.yul\":444:493   */\n  tag_26\n    /* \"#utility.yul\":489:491   */\n  0x20\n    /* \"#utility.yul\":478:487   */\n  dup5\n    /* \"#utility.yul\":474:492   */\n  add\n    /* \"#utility.yul\":444:493   */\n  tag_20\n  jump\t// in\ntag_26:\n    /* \"#utility.yul\":434:493   */\n  swap1\n  pop\n    /* \"#utility.yul\":294:499   */\n  swap3\n  pop\n  swap3\n  swap1\n  pop\n  jump\t// out\n    /* \"#utility.yul\":1068:1250   */\ntag_19:\n    /* \"CoinIdo.sol\":229:6774  contract CoinIdo{ \r... */\n  dataSize(sub_0)\n  dup1\n  dataOffset(sub_0)\n  0x00\n  codecopy\n  0x00\n  return\nstop\n\nsub_0: assembly {\n        /* \"CoinIdo.sol\":229:6774  contract CoinIdo{ \r... */\n      mstore(0x40, 0x80)\n      callvalue\n      dup1\n      iszero\n      tag_1\n      jumpi\n      0x00\n      dup1\n      revert\n    tag_1:\n      pop\n      jumpi(tag_2, lt(calldatasize, 0x04))\n      shr(0xe0, calldataload(0x00))\n      dup1\n      0x918a6283\n      gt\n      tag_32\n      jumpi\n      dup1\n      0xd3b91f7a\n      gt\n      tag_33\n      jumpi\n      dup1\n      0xf2fde38b\n      gt\n      tag_34\n      jumpi\n      dup1\n      0xf2fde38b\n      eq\n      tag_28\n      jumpi\n      dup1\n      0xf3ae2415\n      eq\n      tag_29\n      jumpi\n      dup1\n      0xf56e9c66\n      eq\n      tag_30\n      jumpi\n      dup1\n      0xfb066531\n      eq\n      tag_31\n      jumpi\n      0x00\n      dup1\n      revert\n    tag_34:\n      dup1\n      0xd3b91f7a\n      eq\n      tag_24\n      jumpi\n      dup1\n      0xe72ebdb7\n      eq\n      tag_25\n      jumpi\n      dup1\n      0xef7a47fa\n      eq\n      tag_26\n      jumpi\n      dup1\n      0xf06b41e3\n      eq\n      tag_27\n      jumpi\n      0x00\n      dup1\n      revert\n    tag_33:\n      dup1\n      0xa5e90eee\n      gt\n      tag_35\n      jumpi\n      dup1\n      0xa5e90eee\n      eq\n      tag_20\n      jumpi\n      dup1\n      0xc6b24c1c\n      eq\n      tag_21\n      jumpi\n      dup1\n      0xca5cc206\n      eq\n      tag_22\n      jumpi\n      dup1\n      0xce75710c\n      eq\n      tag_23\n      jumpi\n      0x00\n      dup1\n      revert\n    tag_35:\n      dup1\n      0x918a6283\n      eq\n      tag_17\n      jumpi\n      dup1\n      0x965ed465\n      eq\n      tag_18\n      jumpi\n      dup1\n      0xa3f82c2c\n      eq\n      tag_19\n      jumpi\n      0x00\n      dup1\n      revert\n    tag_32:\n      dup1\n      0x68da5e8e\n      gt\n      tag_36\n      jumpi\n      dup1\n      0x6c68ec69\n      gt\n      tag_37\n      jumpi\n      dup1\n      0x6c68ec69\n      eq\n      tag_13\n      jumpi\n      dup1\n      0x76be6af6\n      eq\n      tag_14\n      jumpi\n      dup1\n      0x8b9272b7\n      eq\n      tag_15\n      jumpi\n      dup1\n      0x8da5cb5b\n      eq\n      tag_16\n      jumpi\n      0x00\n      dup1\n      revert\n    tag_37:\n      dup1\n      0x68da5e8e\n      eq\n      tag_10\n      jumpi\n      dup1\n      0x6a15915a\n      eq\n      tag_11\n      jumpi\n      dup1\n      0x6a41d5d7\n      eq\n      tag_12\n      jumpi\n      0x00\n      dup1\n      revert\n    tag_36:\n      dup1\n      0x2f48ab7d\n      gt\n      tag_38\n      jumpi\n      dup1\n      0x2f48ab7d\n      eq\n      tag_6\n      jumpi\n      dup1\n      0x3197cbb6\n      eq\n      tag_7\n      jumpi\n      dup1\n      0x3ccfd60b\n      eq\n      tag_8\n      jumpi\n      dup1\n      0x5db98f2d\n      eq\n      tag_9\n      jumpi\n      0x00\n      dup1\n      revert\n    tag_38:\n      dup1\n      0x0e73d199\n      eq\n      tag_3\n      jumpi\n      dup1\n      0x18160ddd\n      eq\n      tag_4\n      jumpi\n      dup1\n      0x238c4c2f\n      eq\n      tag_5\n      jumpi\n    tag_2:\n      0x00\n      dup1\n      revert\n        /* \"CoinIdo.sol\":3435:4888  function _IDOUsdt(uint value)public { \r... */\n    tag_3:\n      tag_39\n      tag_40\n      calldatasize\n      0x04\n      tag_41\n      jump\t// in\n    tag_40:\n      tag_42\n      jump\t// in\n    tag_39:\n      stop\n        /* \"CoinIdo.sol\":386:412  uint256 public totalSupply */\n    tag_4:\n      tag_43\n      sload(0x02)\n      dup2\n      jump\n    tag_43:\n      mload(0x40)\n        /* \"#utility.yul\":11724:11749   */\n      swap1\n      dup2\n      mstore\n        /* \"#utility.yul\":11712:11714   */\n      0x20\n        /* \"#utility.yul\":11697:11715   */\n      add\n        /* \"CoinIdo.sol\":386:412  uint256 public totalSupply */\n    tag_45:\n      mload(0x40)\n      dup1\n      swap2\n      sub\n      swap1\n      return\n        /* \"CoinIdo.sol\":2898:3384  function _addRelation(address[]memory addressFrom,address[]memory addressTo)public onlyOwner{\r... */\n    tag_5:\n      tag_39\n      tag_48\n      calldatasize\n      0x04\n      tag_49\n      jump\t// in\n    tag_48:\n      tag_50\n      jump\t// in\n        /* \"CoinIdo.sol\":510:528  IERC20 public usdt */\n    tag_6:\n      sload(0x05)\n      tag_51\n      swap1\n      0xffffffffffffffffffffffffffffffffffffffff\n      and\n      dup2\n      jump\n    tag_51:\n      mload(0x40)\n        /* \"#utility.yul\":4026:4068   */\n      0xffffffffffffffffffffffffffffffffffffffff\n        /* \"#utility.yul\":4014:4069   */\n      swap1\n      swap2\n      and\n        /* \"#utility.yul\":3996:4070   */\n      dup2\n      mstore\n        /* \"#utility.yul\":3984:3986   */\n      0x20\n        /* \"#utility.yul\":3969:3987   */\n      add\n        /* \"CoinIdo.sol\":510:528  IERC20 public usdt */\n      tag_45\n        /* \"#utility.yul\":3951:4076   */\n      jump\n        /* \"CoinIdo.sol\":340:362  uint256 public endTime */\n    tag_7:\n      tag_43\n      sload(0x01)\n      dup2\n      jump\n        /* \"CoinIdo.sol\":5235:6101  function withdraw()public{\r... */\n    tag_8:\n      tag_39\n      tag_59\n      jump\t// in\n        /* \"CoinIdo.sol\":283:304  bool public isOpenTwo */\n    tag_9:\n      sload(0x00)\n      tag_60\n      swap1\n      0x0100\n      swap1\n      div\n      0xff\n      and\n      dup2\n      jump\n    tag_60:\n      mload(0x40)\n        /* \"#utility.yul\":6539:6553   */\n      swap1\n      iszero\n        /* \"#utility.yul\":6532:6554   */\n      iszero\n        /* \"#utility.yul\":6514:6555   */\n      dup2\n      mstore\n        /* \"#utility.yul\":6502:6504   */\n      0x20\n        /* \"#utility.yul\":6487:6505   */\n      add\n        /* \"CoinIdo.sol\":283:304  bool public isOpenTwo */\n      tag_45\n        /* \"#utility.yul\":6469:6561   */\n      jump\n        /* \"CoinIdo.sol\":535:554  IETNFT public etNft */\n    tag_10:\n      sload(0x06)\n      tag_51\n      swap1\n      0xffffffffffffffffffffffffffffffffffffffff\n      and\n      dup2\n      jump\n        /* \"CoinIdo.sol\":2507:2594  function openOpenIdo(bool _flag) public onlyManager{\r... */\n    tag_11:\n      tag_39\n      tag_69\n      calldatasize\n      0x04\n      tag_70\n      jump\t// in\n    tag_69:\n      tag_71\n      jump\t// in\n        /* \"CoinIdo.sol\":696:732  mapping(address=>uint)public userIDO */\n    tag_12:\n      tag_43\n      tag_73\n      calldatasize\n      0x04\n      tag_74\n      jump\t// in\n    tag_73:\n      mstore(0x20, 0x0a)\n      0x00\n      swap1\n      dup2\n      mstore\n      0x40\n      swap1\n      keccak256\n      sload\n      dup2\n      jump\n        /* \"CoinIdo.sol\":2325:2410  function openOpenOne(bool _flag) public onlyManager{\r... */\n    tag_13:\n      tag_39\n      tag_78\n      calldatasize\n      0x04\n      tag_70\n      jump\t// in\n    tag_78:\n      tag_79\n      jump\t// in\n        /* \"CoinIdo.sol\":2651:2825  function setEndTime() public onlyOwner{\r... */\n    tag_14:\n      tag_39\n      tag_81\n      jump\t// in\n        /* \"CoinIdo.sol\":561:581  IERC20 public etCoin */\n    tag_15:\n      sload(0x07)\n      tag_51\n      swap1\n      0xffffffffffffffffffffffffffffffffffffffff\n      and\n      dup2\n      jump\n        /* \"CoinIdo.sol\":1196:1283  function owner() public view virtual returns (address) {\r... */\n    tag_16:\n        /* \"CoinIdo.sol\":1242:1249  address */\n      0x00\n        /* \"CoinIdo.sol\":1269:1275  _owner */\n      sload\n      0x010000\n      swap1\n      div\n      0xffffffffffffffffffffffffffffffffffffffff\n      and\n        /* \"CoinIdo.sol\":1196:1283  function owner() public view virtual returns (address) {\r... */\n      jump(tag_51)\n        /* \"CoinIdo.sol\":4894:5166  function allowET(address _address)public{\r... */\n    tag_17:\n      tag_39\n      tag_90\n      calldatasize\n      0x04\n      tag_74\n      jump\t// in\n    tag_90:\n      tag_91\n      jump\t// in\n        /* \"CoinIdo.sol\":2220:2319  function setETCoin(address _address) public onlyManager{\r... */\n    tag_18:\n      tag_39\n      tag_93\n      calldatasize\n      0x04\n      tag_74\n      jump\t// in\n    tag_93:\n      tag_94\n      jump\t// in\n        /* \"CoinIdo.sol\":828:870  mapping(address=>uint)public awaitWithdraw */\n    tag_19:\n      tag_43\n      tag_96\n      calldatasize\n      0x04\n      tag_74\n      jump\t// in\n    tag_96:\n      mstore(0x20, 0x0c)\n      0x00\n      swap1\n      dup2\n      mstore\n      0x40\n      swap1\n      keccak256\n      sload\n      dup2\n      jump\n        /* \"CoinIdo.sol\":1482:1650  function setManager(address _manager, bool _flag) public onlyOwner {\r... */\n    tag_20:\n      tag_39\n      tag_100\n      calldatasize\n      0x04\n      tag_101\n      jump\t// in\n    tag_100:\n      tag_102\n      jump\t// in\n        /* \"CoinIdo.sol\":478:503  address public IDOAddress */\n    tag_21:\n      sload(0x04)\n      tag_51\n      swap1\n      0xffffffffffffffffffffffffffffffffffffffff\n      and\n      dup2\n      jump\n        /* \"CoinIdo.sol\":2416:2501  function openOpenTwo(bool _flag) public onlyManager{\r... */\n    tag_22:\n      tag_39\n      tag_107\n      calldatasize\n      0x04\n      tag_70\n      jump\t// in\n    tag_107:\n      tag_108\n      jump\t// in\n        /* \"CoinIdo.sol\":902:923  bool public isOpenIdo */\n    tag_23:\n      sload(0x0e)\n      tag_60\n      swap1\n      0xff\n      and\n      dup2\n      jump\n        /* \"CoinIdo.sol\":588:622  mapping(address=>bool[]) public lb */\n    tag_24:\n      tag_60\n      tag_113\n      calldatasize\n      0x04\n      tag_114\n      jump\t// in\n    tag_113:\n      tag_115\n      jump\t// in\n        /* \"CoinIdo.sol\":629:673  mapping(address=>address)public userRelation */\n    tag_25:\n      tag_51\n      tag_118\n      calldatasize\n      0x04\n      tag_74\n      jump\t// in\n    tag_118:\n      mstore(0x20, 0x09)\n      0x00\n      swap1\n      dup2\n      mstore\n      0x40\n      swap1\n      keccak256\n      sload\n      0xffffffffffffffffffffffffffffffffffffffff\n      and\n      dup2\n      jump\n        /* \"CoinIdo.sol\":6113:6771  function getWithDraw()public view returns(uint){\r... */\n    tag_26:\n      tag_43\n      tag_122\n      jump\t// in\n        /* \"CoinIdo.sol\":758:801  mapping(address=>uint)public relationAmount */\n    tag_27:\n      tag_43\n      tag_125\n      calldatasize\n      0x04\n      tag_74\n      jump\t// in\n    tag_125:\n      mstore(0x20, 0x0b)\n      0x00\n      swap1\n      dup2\n      mstore\n      0x40\n      swap1\n      keccak256\n      sload\n      dup2\n      jump\n        /* \"CoinIdo.sol\":1835:2109  function transferOwnership(address newOwner) public onlyOwner {\r... */\n    tag_28:\n      tag_39\n      tag_129\n      calldatasize\n      0x04\n      tag_74\n      jump\t// in\n    tag_129:\n      tag_130\n      jump\t// in\n        /* \"CoinIdo.sol\":427:468  mapping(address => bool) public isManager */\n    tag_29:\n      tag_60\n      tag_132\n      calldatasize\n      0x04\n      tag_74\n      jump\t// in\n    tag_132:\n      mstore(0x20, 0x03)\n      0x00\n      swap1\n      dup2\n      mstore\n      0x40\n      swap1\n      keccak256\n      sload\n      0xff\n      and\n      dup2\n      jump\n        /* \"CoinIdo.sol\":2119:2214  function setNFT(address _address) public onlyManager{\r... */\n    tag_30:\n      tag_39\n      tag_136\n      calldatasize\n      0x04\n      tag_74\n      jump\t// in\n    tag_136:\n      tag_137\n      jump\t// in\n        /* \"CoinIdo.sol\":255:276  bool public isOpenOne */\n    tag_31:\n      sload(0x00)\n      tag_60\n      swap1\n      0xff\n      and\n      dup2\n      jump\n        /* \"CoinIdo.sol\":3435:4888  function _IDOUsdt(uint value)public { \r... */\n    tag_42:\n        /* \"CoinIdo.sol\":3491:3500  isOpenIdo */\n      and(0xff, sload(0x0e))\n        /* \"CoinIdo.sol\":3483:3517  require(isOpenIdo,\"ido is closed\") */\n      tag_142\n      jumpi\n      mload(0x40)\n      0x08c379a000000000000000000000000000000000000000000000000000000000\n      dup2\n      mstore\n        /* \"#utility.yul\":11438:11440   */\n      0x20\n        /* \"CoinIdo.sol\":3483:3517  require(isOpenIdo,\"ido is closed\") */\n      0x04\n      dup3\n      add\n        /* \"#utility.yul\":11420:11441   */\n      mstore\n        /* \"#utility.yul\":11477:11479   */\n      0x0d\n        /* \"#utility.yul\":11457:11475   */\n      0x24\n      dup3\n      add\n        /* \"#utility.yul\":11450:11480   */\n      mstore\n        /* \"#utility.yul\":11516:11531   */\n      0x69646f20697320636c6f73656400000000000000000000000000000000000000\n        /* \"#utility.yul\":11496:11514   */\n      0x44\n      dup3\n      add\n        /* \"#utility.yul\":11489:11532   */\n      mstore\n        /* \"#utility.yul\":11549:11567   */\n      0x64\n      add\n        /* \"CoinIdo.sol\":3483:3517  require(isOpenIdo,\"ido is closed\") */\n    tag_143:\n      mload(0x40)\n      dup1\n      swap2\n      sub\n      swap1\n      revert\n    tag_142:\n        /* \"CoinIdo.sol\":3542:3543  0 */\n      0x00\n        /* \"CoinIdo.sol\":3536:3541  value */\n      dup2\n        /* \"CoinIdo.sol\":3536:3543  value>0 */\n      gt\n        /* \"CoinIdo.sol\":3528:3560  require(value>0,\"value is zero\") */\n      tag_145\n      jumpi\n      mload(0x40)\n      0x08c379a000000000000000000000000000000000000000000000000000000000\n      dup2\n      mstore\n        /* \"#utility.yul\":7259:7261   */\n      0x20\n        /* \"CoinIdo.sol\":3528:3560  require(value>0,\"value is zero\") */\n      0x04\n      dup3\n      add\n        /* \"#utility.yul\":7241:7262   */\n      mstore\n        /* \"#utility.yul\":7298:7300   */\n      0x0d\n        /* \"#utility.yul\":7278:7296   */\n      0x24\n      dup3\n      add\n        /* \"#utility.yul\":7271:7301   */\n      mstore\n        /* \"#utility.yul\":7337:7352   */\n      0x76616c7565206973207a65726f00000000000000000000000000000000000000\n        /* \"#utility.yul\":7317:7335   */\n      0x44\n      dup3\n      add\n        /* \"#utility.yul\":7310:7353   */\n      mstore\n        /* \"#utility.yul\":7370:7388   */\n      0x64\n      add\n        /* \"CoinIdo.sol\":3528:3560  require(value>0,\"value is zero\") */\n      tag_143\n        /* \"#utility.yul\":7231:7394   */\n      jump\n        /* \"CoinIdo.sol\":3528:3560  require(value>0,\"value is zero\") */\n    tag_145:\n        /* \"CoinIdo.sol\":3586:3596  msg.sender */\n      caller\n        /* \"CoinIdo.sol\":3571:3583  address from */\n      0x00\n        /* \"CoinIdo.sol\":3628:3641  userIDO[from] */\n      dup2\n      dup2\n      mstore\n        /* \"CoinIdo.sol\":3628:3635  userIDO */\n      0x0a\n        /* \"CoinIdo.sol\":3628:3641  userIDO[from] */\n      0x20\n      mstore\n      0x40\n      swap1\n      keccak256\n      sload\n        /* \"CoinIdo.sol\":3668:3672  base */\n      sload(0x0d)\n        /* \"CoinIdo.sol\":3663:3672  2000*base */\n      tag_148\n      swap1\n        /* \"CoinIdo.sol\":3663:3667  2000 */\n      0x07d0\n        /* \"CoinIdo.sol\":3663:3672  2000*base */\n      tag_149\n      jump\t// in\n    tag_148:\n        /* \"CoinIdo.sol\":3655:3661  amount */\n      dup2\n        /* \"CoinIdo.sol\":3655:3672  amount>=2000*base */\n      lt\n      iszero\n        /* \"CoinIdo.sol\":3655:3701  amount>=2000*base || amount + value>=2000*base */\n      dup1\n      tag_150\n      jumpi\n      pop\n        /* \"CoinIdo.sol\":3697:3701  base */\n      sload(0x0d)\n        /* \"CoinIdo.sol\":3692:3701  2000*base */\n      tag_151\n      swap1\n        /* \"CoinIdo.sol\":3692:3696  2000 */\n      0x07d0\n        /* \"CoinIdo.sol\":3692:3701  2000*base */\n      tag_149\n      jump\t// in\n    tag_151:\n        /* \"CoinIdo.sol\":3676:3690  amount + value */\n      tag_152\n        /* \"CoinIdo.sol\":3685:3690  value */\n      dup5\n        /* \"CoinIdo.sol\":3676:3682  amount */\n      dup4\n        /* \"CoinIdo.sol\":3676:3690  amount + value */\n      tag_153\n      jump\t// in\n    tag_152:\n        /* \"CoinIdo.sol\":3676:3701  amount + value>=2000*base */\n      lt\n      iszero\n        /* \"CoinIdo.sol\":3655:3701  amount>=2000*base || amount + value>=2000*base */\n    tag_150:\n        /* \"CoinIdo.sol\":3652:3769  if(amount>=2000*base || amount + value>=2000*base){\r... */\n      iszero\n      tag_155\n      jumpi\n        /* \"CoinIdo.sol\":3725:3734  isOpenTwo */\n      sload(0x00)\n      0x0100\n      swap1\n      div\n      0xff\n      and\n        /* \"CoinIdo.sol\":3717:3757  require(isOpenTwo,\"two thousand closed\") */\n      tag_155\n      jumpi\n      mload(0x40)\n      0x08c379a000000000000000000000000000000000000000000000000000000000\n      dup2\n      mstore\n        /* \"#utility.yul\":9027:9029   */\n      0x20\n        /* \"CoinIdo.sol\":3717:3757  require(isOpenTwo,\"two thousand closed\") */\n      0x04\n      dup3\n      add\n        /* \"#utility.yul\":9009:9030   */\n      mstore\n        /* \"#utility.yul\":9066:9068   */\n      0x13\n        /* \"#utility.yul\":9046:9064   */\n      0x24\n      dup3\n      add\n        /* \"#utility.yul\":9039:9069   */\n      mstore\n        /* \"#utility.yul\":9105:9126   */\n      0x74776f2074686f7573616e6420636c6f73656400000000000000000000000000\n        /* \"#utility.yul\":9085:9103   */\n      0x44\n      dup3\n      add\n        /* \"#utility.yul\":9078:9127   */\n      mstore\n        /* \"#utility.yul\":9144:9162   */\n      0x64\n      add\n        /* \"CoinIdo.sol\":3717:3757  require(isOpenTwo,\"two thousand closed\") */\n      tag_143\n        /* \"#utility.yul\":8999:9168   */\n      jump\n        /* \"CoinIdo.sol\":3717:3757  require(isOpenTwo,\"two thousand closed\") */\n    tag_155:\n        /* \"CoinIdo.sol\":3806:3810  base */\n      sload(0x0d)\n        /* \"CoinIdo.sol\":3801:3810  2000*base */\n      tag_158\n      swap1\n        /* \"CoinIdo.sol\":3801:3805  2000 */\n      0x07d0\n        /* \"CoinIdo.sol\":3801:3810  2000*base */\n      tag_149\n      jump\t// in\n    tag_158:\n        /* \"CoinIdo.sol\":3787:3799  amount+value */\n      tag_159\n        /* \"CoinIdo.sol\":3794:3799  value */\n      dup5\n        /* \"CoinIdo.sol\":3787:3793  amount */\n      dup4\n        /* \"CoinIdo.sol\":3787:3799  amount+value */\n      tag_153\n      jump\t// in\n    tag_159:\n        /* \"CoinIdo.sol\":3787:3810  amount+value<=2000*base */\n      gt\n      iszero\n        /* \"CoinIdo.sol\":3779:3821  require(amount+value<=2000*base,\"not IDO\") */\n      tag_160\n      jumpi\n      mload(0x40)\n      0x08c379a000000000000000000000000000000000000000000000000000000000\n      dup2\n      mstore\n        /* \"#utility.yul\":10759:10761   */\n      0x20\n        /* \"CoinIdo.sol\":3779:3821  require(amount+value<=2000*base,\"not IDO\") */\n      0x04\n      dup3\n      add\n        /* \"#utility.yul\":10741:10762   */\n      mstore\n        /* \"#utility.yul\":10798:10799   */\n      0x07\n        /* \"#utility.yul\":10778:10796   */\n      0x24\n      dup3\n      add\n        /* \"#utility.yul\":10771:10800   */\n      mstore\n        /* \"#utility.yul\":10836:10845   */\n      0x6e6f742049444f00000000000000000000000000000000000000000000000000\n        /* \"#utility.yul\":10816:10834   */\n      0x44\n      dup3\n      add\n        /* \"#utility.yul\":10809:10846   */\n      mstore\n        /* \"#utility.yul\":10863:10881   */\n      0x64\n      add\n        /* \"CoinIdo.sol\":3779:3821  require(amount+value<=2000*base,\"not IDO\") */\n      tag_143\n        /* \"#utility.yul\":10731:10887   */\n      jump\n        /* \"CoinIdo.sol\":3779:3821  require(amount+value<=2000*base,\"not IDO\") */\n    tag_160:\n        /* \"CoinIdo.sol\":3858:3876  userRelation[from] */\n      0xffffffffffffffffffffffffffffffffffffffff\n      dup1\n      dup4\n      and\n        /* \"CoinIdo.sol\":3832:3855  address lastLevelAddres */\n      0x00\n        /* \"CoinIdo.sol\":3858:3876  userRelation[from] */\n      swap1\n      dup2\n      mstore\n        /* \"CoinIdo.sol\":3858:3870  userRelation */\n      0x09\n        /* \"CoinIdo.sol\":3858:3876  userRelation[from] */\n      0x20\n      mstore\n      0x40\n      swap1\n      keccak256\n      sload\n      and\n        /* \"CoinIdo.sol\":3890:3918  lastLevelAddres !=address(0) */\n      dup1\n      iszero\n        /* \"CoinIdo.sol\":3887:4409  if(lastLevelAddres !=address(0)){\r... */\n      tag_163\n      jumpi\n        /* \"CoinIdo.sol\":3937:3961  userIDO[lastLevelAddres] */\n      0xffffffffffffffffffffffffffffffffffffffff\n      dup2\n      and\n        /* \"CoinIdo.sol\":3962:3963  0 */\n      0x00\n        /* \"CoinIdo.sol\":3937:3961  userIDO[lastLevelAddres] */\n      swap1\n      dup2\n      mstore\n        /* \"CoinIdo.sol\":3937:3944  userIDO */\n      0x0a\n        /* \"CoinIdo.sol\":3937:3961  userIDO[lastLevelAddres] */\n      0x20\n      mstore\n      0x40\n      swap1\n      keccak256\n      sload\n        /* \"CoinIdo.sol\":3937:3963  userIDO[lastLevelAddres]>0 */\n      iszero\n        /* \"CoinIdo.sol\":3934:4241  if(userIDO[lastLevelAddres]>0){\r... */\n      tag_164\n      jumpi\n        /* \"CoinIdo.sol\":3983:3993  uint bonus */\n      0x00\n        /* \"CoinIdo.sol\":4006:4011  10000 */\n      0x2710\n        /* \"CoinIdo.sol\":3996:4005  value*500 */\n      tag_165\n        /* \"CoinIdo.sol\":3996:4001  value */\n      dup7\n        /* \"CoinIdo.sol\":4002:4005  500 */\n      0x01f4\n        /* \"CoinIdo.sol\":3996:4005  value*500 */\n      tag_149\n      jump\t// in\n    tag_165:\n        /* \"CoinIdo.sol\":3996:4011  value*500/10000 */\n      tag_166\n      swap2\n      swap1\n      tag_167\n      jump\t// in\n    tag_166:\n        /* \"CoinIdo.sol\":4030:4034  usdt */\n      sload(0x05)\n        /* \"CoinIdo.sol\":4030:4077  usdt.transferFrom(from, lastLevelAddres, bonus) */\n      mload(0x40)\n      0x23b872dd00000000000000000000000000000000000000000000000000000000\n      dup2\n      mstore\n        /* \"CoinIdo.sol\":4030:4034  usdt */\n      0xffffffffffffffffffffffffffffffffffffffff\n        /* \"#utility.yul\":5107:5122   */\n      dup8\n      dup2\n      and\n        /* \"CoinIdo.sol\":4030:4077  usdt.transferFrom(from, lastLevelAddres, bonus) */\n      0x04\n      dup4\n      add\n        /* \"#utility.yul\":5089:5123   */\n      mstore\n        /* \"#utility.yul\":5159:5174   */\n      dup6\n      dup2\n      and\n        /* \"#utility.yul\":5139:5157   */\n      0x24\n      dup4\n      add\n        /* \"#utility.yul\":5132:5175   */\n      mstore\n        /* \"#utility.yul\":5191:5209   */\n      0x44\n      dup3\n      add\n        /* \"#utility.yul\":5184:5218   */\n      dup5\n      swap1\n      mstore\n        /* \"CoinIdo.sol\":3983:4011  uint bonus = value*500/10000 */\n      swap3\n      swap4\n      pop\n        /* \"CoinIdo.sol\":4030:4034  usdt */\n      swap2\n      and\n      swap1\n        /* \"CoinIdo.sol\":4030:4047  usdt.transferFrom */\n      0x23b872dd\n      swap1\n        /* \"#utility.yul\":5001:5019   */\n      0x64\n      add\n        /* \"CoinIdo.sol\":4030:4077  usdt.transferFrom(from, lastLevelAddres, bonus) */\n      0x20\n      mload(0x40)\n      dup1\n      dup4\n      sub\n      dup2\n      0x00\n      dup8\n      dup1\n      extcodesize\n      iszero\n      dup1\n      iszero\n      tag_170\n      jumpi\n      0x00\n      dup1\n      revert\n    tag_170:\n      pop\n      gas\n      call\n      iszero\n      dup1\n      iszero\n      tag_172\n      jumpi\n      returndatasize\n      0x00\n      dup1\n      returndatacopy\n      revert(0x00, returndatasize)\n    tag_172:\n      pop\n      pop\n      pop\n      pop\n      mload(0x40)\n      returndatasize\n      not(0x1f)\n      0x1f\n      dup3\n      add\n      and\n      dup3\n      add\n      dup1\n      0x40\n      mstore\n      pop\n      dup2\n      add\n      swap1\n      tag_173\n      swap2\n      swap1\n      tag_174\n      jump\t// in\n    tag_173:\n      pop\n        /* \"CoinIdo.sol\":4096:4100  usdt */\n      sload(0x05)\n        /* \"CoinIdo.sol\":4120:4130  IDOAddress */\n      sload(0x04)\n        /* \"CoinIdo.sol\":4096:4100  usdt */\n      0xffffffffffffffffffffffffffffffffffffffff\n      swap2\n      dup3\n      and\n      swap2\n        /* \"CoinIdo.sol\":4096:4113  usdt.transferFrom */\n      0x23b872dd\n      swap2\n        /* \"CoinIdo.sol\":4114:4118  from */\n      dup8\n      swap2\n        /* \"CoinIdo.sol\":4120:4130  IDOAddress */\n      and\n        /* \"CoinIdo.sol\":4132:4143  value-bonus */\n      tag_175\n        /* \"CoinIdo.sol\":4138:4143  bonus */\n      dup6\n        /* \"CoinIdo.sol\":4132:4137  value */\n      dup11\n        /* \"CoinIdo.sol\":4132:4143  value-bonus */\n      tag_176\n      jump\t// in\n    tag_175:\n        /* \"CoinIdo.sol\":4096:4144  usdt.transferFrom(from, IDOAddress, value-bonus) */\n      mload(0x40)\n      0xffffffff00000000000000000000000000000000000000000000000000000000\n      0xe0\n      dup7\n      swap1\n      shl\n      and\n      dup2\n      mstore\n        /* \"#utility.yul\":5038:5080   */\n      0xffffffffffffffffffffffffffffffffffffffff\n        /* \"#utility.yul\":5107:5122   */\n      swap4\n      dup5\n      and\n        /* \"CoinIdo.sol\":4096:4144  usdt.transferFrom(from, IDOAddress, value-bonus) */\n      0x04\n      dup3\n      add\n        /* \"#utility.yul\":5089:5123   */\n      mstore\n        /* \"#utility.yul\":5159:5174   */\n      swap3\n      swap1\n      swap2\n      and\n        /* \"#utility.yul\":5139:5157   */\n      0x24\n      dup4\n      add\n        /* \"#utility.yul\":5132:5175   */\n      mstore\n        /* \"#utility.yul\":5191:5209   */\n      0x44\n      dup3\n      add\n        /* \"#utility.yul\":5184:5218   */\n      mstore\n        /* \"#utility.yul\":5001:5019   */\n      0x64\n      add\n        /* \"CoinIdo.sol\":4096:4144  usdt.transferFrom(from, IDOAddress, value-bonus) */\n      0x20\n      mload(0x40)\n      dup1\n      dup4\n      sub\n      dup2\n      0x00\n      dup8\n      dup1\n      extcodesize\n      iszero\n      dup1\n      iszero\n      tag_178\n      jumpi\n      0x00\n      dup1\n      revert\n    tag_178:\n      pop\n      gas\n      call\n      iszero\n      dup1\n      iszero\n      tag_180\n      jumpi\n      returndatasize\n      0x00\n      dup1\n      returndatacopy\n      revert(0x00, returndatasize)\n    tag_180:\n      pop\n      pop\n      pop\n      pop\n      mload(0x40)\n      returndatasize\n      not(0x1f)\n      0x1f\n      dup3\n      add\n      and\n      dup3\n      add\n      dup1\n      0x40\n      mstore\n      pop\n      dup2\n      add\n      swap1\n      tag_181\n      swap2\n      swap1\n      tag_174\n      jump\t// in\n    tag_181:\n      pop\n        /* \"CoinIdo.sol\":3934:4241  if(userIDO[lastLevelAddres]>0){\r... */\n      pop\n      jump(tag_182)\n    tag_164:\n        /* \"CoinIdo.sol\":4183:4187  usdt */\n      sload(0x05)\n        /* \"CoinIdo.sol\":4207:4217  IDOAddress */\n      0x04\n      dup1\n      sload\n        /* \"CoinIdo.sol\":4183:4225  usdt.transferFrom(from, IDOAddress, value) */\n      mload(0x40)\n      0x23b872dd00000000000000000000000000000000000000000000000000000000\n      dup2\n      mstore\n        /* \"CoinIdo.sol\":4183:4187  usdt */\n      0xffffffffffffffffffffffffffffffffffffffff\n        /* \"#utility.yul\":5107:5122   */\n      dup8\n      dup2\n      and\n        /* \"CoinIdo.sol\":4183:4225  usdt.transferFrom(from, IDOAddress, value) */\n      swap4\n      dup3\n      add\n        /* \"#utility.yul\":5089:5123   */\n      swap4\n      swap1\n      swap4\n      mstore\n        /* \"CoinIdo.sol\":4207:4217  IDOAddress */\n      swap1\n      dup3\n      and\n        /* \"#utility.yul\":5139:5157   */\n      0x24\n      dup3\n      add\n        /* \"#utility.yul\":5132:5175   */\n      mstore\n        /* \"#utility.yul\":5191:5209   */\n      0x44\n      dup2\n      add\n        /* \"#utility.yul\":5184:5218   */\n      dup8\n      swap1\n      mstore\n        /* \"CoinIdo.sol\":4183:4187  usdt */\n      swap2\n      and\n      swap1\n        /* \"CoinIdo.sol\":4183:4200  usdt.transferFrom */\n      0x23b872dd\n      swap1\n        /* \"#utility.yul\":5001:5019   */\n      0x64\n      add\n        /* \"CoinIdo.sol\":4183:4225  usdt.transferFrom(from, IDOAddress, value) */\n      0x20\n      mload(0x40)\n      dup1\n      dup4\n      sub\n      dup2\n      0x00\n      dup8\n      dup1\n      extcodesize\n      iszero\n      dup1\n      iszero\n      tag_184\n      jumpi\n      0x00\n      dup1\n      revert\n    tag_184:\n      pop\n      gas\n      call\n      iszero\n      dup1\n      iszero\n      tag_186\n      jumpi\n      returndatasize\n      0x00\n      dup1\n      returndatacopy\n      revert(0x00, returndatasize)\n    tag_186:\n      pop\n      pop\n      pop\n      pop\n      mload(0x40)\n      returndatasize\n      not(0x1f)\n      0x1f\n      dup3\n      add\n      and\n      dup3\n      add\n      dup1\n      0x40\n      mstore\n      pop\n      dup2\n      add\n      swap1\n      tag_187\n      swap2\n      swap1\n      tag_174\n      jump\t// in\n    tag_187:\n      pop\n        /* \"CoinIdo.sol\":3934:4241  if(userIDO[lastLevelAddres]>0){\r... */\n    tag_182:\n        /* \"CoinIdo.sol\":4287:4318  relationAmount[lastLevelAddres] */\n      0xffffffffffffffffffffffffffffffffffffffff\n      dup2\n      and\n      0x00\n      swap1\n      dup2\n      mstore\n        /* \"CoinIdo.sol\":4287:4301  relationAmount */\n      0x0b\n        /* \"CoinIdo.sol\":4287:4318  relationAmount[lastLevelAddres] */\n      0x20\n      mstore\n      0x40\n      swap1\n      keccak256\n      sload\n        /* \"CoinIdo.sol\":4287:4324  relationAmount[lastLevelAddres]+value */\n      tag_188\n      swap1\n        /* \"CoinIdo.sol\":4319:4324  value */\n      dup6\n      swap1\n        /* \"CoinIdo.sol\":4287:4324  relationAmount[lastLevelAddres]+value */\n      tag_153\n      jump\t// in\n    tag_188:\n        /* \"CoinIdo.sol\":4255:4286  relationAmount[lastLevelAddres] */\n      0xffffffffffffffffffffffffffffffffffffffff\n      dup3\n      and\n      0x00\n      swap1\n      dup2\n      mstore\n        /* \"CoinIdo.sol\":4255:4269  relationAmount */\n      0x0b\n        /* \"CoinIdo.sol\":4255:4286  relationAmount[lastLevelAddres] */\n      0x20\n      mstore\n      0x40\n      swap1\n      keccak256\n        /* \"CoinIdo.sol\":4255:4324  relationAmount[lastLevelAddres]=relationAmount[lastLevelAddres]+value */\n      sstore\n        /* \"CoinIdo.sol\":3887:4409  if(lastLevelAddres !=address(0)){\r... */\n      jump(tag_189)\n    tag_163:\n        /* \"CoinIdo.sol\":4355:4359  usdt */\n      sload(0x05)\n        /* \"CoinIdo.sol\":4379:4389  IDOAddress */\n      0x04\n      dup1\n      sload\n        /* \"CoinIdo.sol\":4355:4397  usdt.transferFrom(from, IDOAddress, value) */\n      mload(0x40)\n      0x23b872dd00000000000000000000000000000000000000000000000000000000\n      dup2\n      mstore\n        /* \"CoinIdo.sol\":4355:4359  usdt */\n      0xffffffffffffffffffffffffffffffffffffffff\n        /* \"#utility.yul\":5107:5122   */\n      dup8\n      dup2\n      and\n        /* \"CoinIdo.sol\":4355:4397  usdt.transferFrom(from, IDOAddress, value) */\n      swap4\n      dup3\n      add\n        /* \"#utility.yul\":5089:5123   */\n      swap4\n      swap1\n      swap4\n      mstore\n        /* \"CoinIdo.sol\":4379:4389  IDOAddress */\n      swap1\n      dup3\n      and\n        /* \"#utility.yul\":5139:5157   */\n      0x24\n      dup3\n      add\n        /* \"#utility.yul\":5132:5175   */\n      mstore\n        /* \"#utility.yul\":5191:5209   */\n      0x44\n      dup2\n      add\n        /* \"#utility.yul\":5184:5218   */\n      dup8\n      swap1\n      mstore\n        /* \"CoinIdo.sol\":4355:4359  usdt */\n      swap2\n      and\n      swap1\n        /* \"CoinIdo.sol\":4355:4372  usdt.transferFrom */\n      0x23b872dd\n      swap1\n        /* \"#utility.yul\":5001:5019   */\n      0x64\n      add\n        /* \"CoinIdo.sol\":4355:4397  usdt.transferFrom(from, IDOAddress, value) */\n      0x20\n      mload(0x40)\n      dup1\n      dup4\n      sub\n      dup2\n      0x00\n      dup8\n      dup1\n      extcodesize\n      iszero\n      dup1\n      iszero\n      tag_191\n      jumpi\n      0x00\n      dup1\n      revert\n    tag_191:\n      pop\n      gas\n      call\n      iszero\n      dup1\n      iszero\n      tag_193\n      jumpi\n      returndatasize\n      0x00\n      dup1\n      returndatacopy\n      revert(0x00, returndatasize)\n    tag_193:\n      pop\n      pop\n      pop\n      pop\n      mload(0x40)\n      returndatasize\n      not(0x1f)\n      0x1f\n      dup3\n      add\n      and\n      dup3\n      add\n      dup1\n      0x40\n      mstore\n      pop\n      dup2\n      add\n      swap1\n      tag_194\n      swap2\n      swap1\n      tag_174\n      jump\t// in\n    tag_194:\n      pop\n        /* \"CoinIdo.sol\":3887:4409  if(lastLevelAddres !=address(0)){\r... */\n    tag_189:\n        /* \"CoinIdo.sol\":4443:4456  amount +value */\n      tag_195\n        /* \"CoinIdo.sol\":4451:4456  value */\n      dup5\n        /* \"CoinIdo.sol\":4443:4449  amount */\n      dup4\n        /* \"CoinIdo.sol\":4443:4456  amount +value */\n      tag_153\n      jump\t// in\n    tag_195:\n        /* \"CoinIdo.sol\":4427:4440  userIDO[from] */\n      0xffffffffffffffffffffffffffffffffffffffff\n      dup5\n      and\n      0x00\n      swap1\n      dup2\n      mstore\n        /* \"CoinIdo.sol\":4427:4434  userIDO */\n      0x0a\n        /* \"CoinIdo.sol\":4427:4440  userIDO[from] */\n      0x20\n      mstore\n      0x40\n      swap1\n      keccak256\n        /* \"CoinIdo.sol\":4427:4456  userIDO[from] = amount +value */\n      dup2\n      swap1\n      sstore\n        /* \"CoinIdo.sol\":4506:4509  120 */\n      0x78\n      swap1\n        /* \"CoinIdo.sol\":4487:4505  userIDO[from]*2600 */\n      tag_196\n      swap1\n        /* \"CoinIdo.sol\":4501:4505  2600 */\n      0x0a28\n        /* \"CoinIdo.sol\":4487:4505  userIDO[from]*2600 */\n      tag_149\n      jump\t// in\n    tag_196:\n        /* \"CoinIdo.sol\":4487:4509  userIDO[from]*2600/120 */\n      tag_197\n      swap2\n      swap1\n      tag_167\n      jump\t// in\n    tag_197:\n        /* \"CoinIdo.sol\":4467:4486  awaitWithdraw[from] */\n      0xffffffffffffffffffffffffffffffffffffffff\n      dup5\n      and\n      0x00\n      swap1\n      dup2\n      mstore\n        /* \"CoinIdo.sol\":4467:4480  awaitWithdraw */\n      0x0c\n        /* \"CoinIdo.sol\":4467:4486  awaitWithdraw[from] */\n      0x20\n      mstore\n      0x40\n      swap1\n      keccak256\n        /* \"CoinIdo.sol\":4467:4509  awaitWithdraw[from]=userIDO[from]*2600/120 */\n      sstore\n        /* \"CoinIdo.sol\":4543:4547  base */\n      sload(0x0d)\n        /* \"CoinIdo.sol\":4538:4547  2000*base */\n      tag_198\n      swap1\n        /* \"CoinIdo.sol\":4538:4542  2000 */\n      0x07d0\n        /* \"CoinIdo.sol\":4538:4547  2000*base */\n      tag_149\n      jump\t// in\n    tag_198:\n        /* \"CoinIdo.sol\":4523:4536  userIDO[from] */\n      0xffffffffffffffffffffffffffffffffffffffff\n      dup5\n      and\n      0x00\n      swap1\n      dup2\n      mstore\n        /* \"CoinIdo.sol\":4523:4530  userIDO */\n      0x0a\n        /* \"CoinIdo.sol\":4523:4536  userIDO[from] */\n      0x20\n      mstore\n      0x40\n      swap1\n      keccak256\n      sload\n        /* \"CoinIdo.sol\":4523:4547  userIDO[from]>=2000*base */\n      lt\n        /* \"CoinIdo.sol\":4520:4595  if(userIDO[from]>=2000*base){\r... */\n      tag_199\n      jumpi\n        /* \"CoinIdo.sol\":4563:4568  etNft */\n      sload(0x06)\n        /* \"CoinIdo.sol\":4563:4583  etNft.safeMint(from) */\n      mload(0x40)\n      0x40d097c300000000000000000000000000000000000000000000000000000000\n      dup2\n      mstore\n        /* \"CoinIdo.sol\":4563:4568  etNft */\n      0xffffffffffffffffffffffffffffffffffffffff\n        /* \"#utility.yul\":4014:4069   */\n      dup6\n      dup2\n      and\n        /* \"CoinIdo.sol\":4563:4583  etNft.safeMint(from) */\n      0x04\n      dup4\n      add\n        /* \"#utility.yul\":3996:4070   */\n      mstore\n        /* \"CoinIdo.sol\":4563:4568  etNft */\n      swap1\n      swap2\n      and\n      swap1\n        /* \"CoinIdo.sol\":4563:4577  etNft.safeMint */\n      0x40d097c3\n      swap1\n        /* \"#utility.yul\":3969:3987   */\n      0x24\n      add\n        /* \"CoinIdo.sol\":4563:4583  etNft.safeMint(from) */\n      0x00\n      mload(0x40)\n      dup1\n      dup4\n      sub\n      dup2\n      0x00\n      dup8\n      dup1\n      extcodesize\n      iszero\n      dup1\n      iszero\n      tag_201\n      jumpi\n      0x00\n      dup1\n      revert\n    tag_201:\n      pop\n      gas\n      call\n      iszero\n      dup1\n      iszero\n      tag_203\n      jumpi\n      returndatasize\n      0x00\n      dup1\n      returndatacopy\n      revert(0x00, returndatasize)\n    tag_203:\n      pop\n      pop\n      pop\n      pop\n        /* \"CoinIdo.sol\":4520:4595  if(userIDO[from]>=2000*base){\r... */\n    tag_199:\n        /* \"CoinIdo.sol\":4671:4675  base */\n      sload(0x0d)\n        /* \"CoinIdo.sol\":4666:4675  3000*base */\n      tag_204\n      swap1\n        /* \"CoinIdo.sol\":4666:4670  3000 */\n      0x0bb8\n        /* \"CoinIdo.sol\":4666:4675  3000*base */\n      tag_149\n      jump\t// in\n    tag_204:\n        /* \"CoinIdo.sol\":4633:4664  relationAmount[lastLevelAddres] */\n      0xffffffffffffffffffffffffffffffffffffffff\n      dup3\n      and\n      0x00\n      swap1\n      dup2\n      mstore\n        /* \"CoinIdo.sol\":4633:4647  relationAmount */\n      0x0b\n        /* \"CoinIdo.sol\":4633:4664  relationAmount[lastLevelAddres] */\n      0x20\n      mstore\n      0x40\n      swap1\n      keccak256\n      sload\n        /* \"CoinIdo.sol\":4633:4675  relationAmount[lastLevelAddres]>=3000*base */\n      lt\n        /* \"CoinIdo.sol\":4630:4822  if(relationAmount[lastLevelAddres]>=3000*base){\r... */\n      tag_205\n      jumpi\n        /* \"CoinIdo.sol\":4691:4696  etNft */\n      sload(0x06)\n        /* \"CoinIdo.sol\":4691:4722  etNft.safeMint(lastLevelAddres) */\n      mload(0x40)\n      0x40d097c300000000000000000000000000000000000000000000000000000000\n      dup2\n      mstore\n        /* \"CoinIdo.sol\":4691:4696  etNft */\n      0xffffffffffffffffffffffffffffffffffffffff\n        /* \"#utility.yul\":4014:4069   */\n      dup4\n      dup2\n      and\n        /* \"CoinIdo.sol\":4691:4722  etNft.safeMint(lastLevelAddres) */\n      0x04\n      dup4\n      add\n        /* \"#utility.yul\":3996:4070   */\n      mstore\n        /* \"CoinIdo.sol\":4691:4696  etNft */\n      swap1\n      swap2\n      and\n      swap1\n        /* \"CoinIdo.sol\":4691:4705  etNft.safeMint */\n      0x40d097c3\n      swap1\n        /* \"#utility.yul\":3969:3987   */\n      0x24\n      add\n        /* \"CoinIdo.sol\":4691:4722  etNft.safeMint(lastLevelAddres) */\n      0x00\n      mload(0x40)\n      dup1\n      dup4\n      sub\n      dup2\n      0x00\n      dup8\n      dup1\n      extcodesize\n      iszero\n      dup1\n      iszero\n      tag_207\n      jumpi\n      0x00\n      dup1\n      revert\n    tag_207:\n      pop\n      gas\n      call\n      iszero\n      dup1\n      iszero\n      tag_209\n      jumpi\n      returndatasize\n      0x00\n      dup1\n      returndatacopy\n      revert(0x00, returndatasize)\n    tag_209:\n      pop\n      pop\n      pop\n      pop\n        /* \"CoinIdo.sol\":4806:4810  base */\n      sload(0x0d)\n        /* \"CoinIdo.sol\":4801:4805  3000 */\n      0x0bb8\n        /* \"CoinIdo.sol\":4801:4810  3000*base */\n      tag_210\n      swap2\n      swap1\n      tag_149\n      jump\t// in\n    tag_210:\n        /* \"CoinIdo.sol\":4769:4800  relationAmount[lastLevelAddres] */\n      0xffffffffffffffffffffffffffffffffffffffff\n      dup3\n      and\n      0x00\n      swap1\n      dup2\n      mstore\n        /* \"CoinIdo.sol\":4769:4783  relationAmount */\n      0x0b\n        /* \"CoinIdo.sol\":4769:4800  relationAmount[lastLevelAddres] */\n      0x20\n      mstore\n      0x40\n      swap1\n      keccak256\n      sload\n        /* \"CoinIdo.sol\":4769:4810  relationAmount[lastLevelAddres]-3000*base */\n      tag_211\n      swap2\n      swap1\n      tag_176\n      jump\t// in\n    tag_211:\n        /* \"CoinIdo.sol\":4737:4768  relationAmount[lastLevelAddres] */\n      0xffffffffffffffffffffffffffffffffffffffff\n      dup3\n      and\n      0x00\n      swap1\n      dup2\n      mstore\n        /* \"CoinIdo.sol\":4737:4751  relationAmount */\n      0x0b\n        /* \"CoinIdo.sol\":4737:4768  relationAmount[lastLevelAddres] */\n      0x20\n      mstore\n      0x40\n      swap1\n      keccak256\n        /* \"CoinIdo.sol\":4737:4810  relationAmount[lastLevelAddres]=relationAmount[lastLevelAddres]-3000*base */\n      sstore\n        /* \"CoinIdo.sol\":4630:4822  if(relationAmount[lastLevelAddres]>=3000*base){\r... */\n    tag_205:\n        /* \"CoinIdo.sol\":4832:4845  allowET(from) */\n      tag_212\n        /* \"CoinIdo.sol\":4840:4844  from */\n      dup4\n        /* \"CoinIdo.sol\":4832:4839  allowET */\n      tag_91\n        /* \"CoinIdo.sol\":4832:4845  allowET(from) */\n      jump\t// in\n    tag_212:\n        /* \"CoinIdo.sol\":4861:4880  IDOUsdt(from,value) */\n      0x40\n      dup1\n      mload\n        /* \"#utility.yul\":5433:5475   */\n      0xffffffffffffffffffffffffffffffffffffffff\n        /* \"#utility.yul\":5421:5476   */\n      dup6\n      and\n        /* \"#utility.yul\":5403:5477   */\n      dup2\n      mstore\n        /* \"#utility.yul\":5508:5510   */\n      0x20\n        /* \"#utility.yul\":5493:5511   */\n      dup2\n      add\n        /* \"#utility.yul\":5486:5520   */\n      dup7\n      swap1\n      mstore\n        /* \"CoinIdo.sol\":4861:4880  IDOUsdt(from,value) */\n      0x080bf12451b207525905f2fe9e47714fbcd5aa383b228f656b880136e66b288f\n      swap2\n        /* \"#utility.yul\":5376:5394   */\n      add\n        /* \"CoinIdo.sol\":4861:4880  IDOUsdt(from,value) */\n      mload(0x40)\n      dup1\n      swap2\n      sub\n      swap1\n      log1\n        /* \"CoinIdo.sol\":3435:4888  function _IDOUsdt(uint value)public { \r... */\n      pop\n      pop\n      pop\n      pop\n      jump\t// out\n        /* \"CoinIdo.sol\":2898:3384  function _addRelation(address[]memory addressFrom,address[]memory addressTo)public onlyOwner{\r... */\n    tag_50:\n        /* \"CoinIdo.sol\":1242:1249  address */\n      0x00\n        /* \"CoinIdo.sol\":1269:1275  _owner */\n      sload\n      0xffffffffffffffffffffffffffffffffffffffff\n      0x010000\n      swap1\n      swap2\n      div\n      and\n        /* \"CoinIdo.sol\":1340:1350  msg.sender */\n      caller\n        /* \"CoinIdo.sol\":1329:1350  owner() == msg.sender */\n      eq\n        /* \"CoinIdo.sol\":1321:1387  require(owner() == msg.sender, \"Ownable: caller is not the owner\") */\n      tag_217\n      jumpi\n      mload(0x40)\n      0x08c379a000000000000000000000000000000000000000000000000000000000\n      dup2\n      mstore\n        /* \"#utility.yul\":10398:10400   */\n      0x20\n        /* \"CoinIdo.sol\":1321:1387  require(owner() == msg.sender, \"Ownable: caller is not the owner\") */\n      0x04\n      dup3\n      add\n        /* \"#utility.yul\":10380:10401   */\n      dup2\n      swap1\n      mstore\n        /* \"#utility.yul\":10417:10435   */\n      0x24\n      dup3\n      add\n        /* \"#utility.yul\":10410:10440   */\n      mstore\n        /* \"#utility.yul\":10476:10510   */\n      0x4f776e61626c653a2063616c6c6572206973206e6f7420746865206f776e6572\n        /* \"#utility.yul\":10456:10474   */\n      0x44\n      dup3\n      add\n        /* \"#utility.yul\":10449:10511   */\n      mstore\n        /* \"#utility.yul\":10528:10546   */\n      0x64\n      add\n        /* \"CoinIdo.sol\":1321:1387  require(owner() == msg.sender, \"Ownable: caller is not the owner\") */\n      tag_143\n        /* \"#utility.yul\":10370:10552   */\n      jump\n        /* \"CoinIdo.sol\":1321:1387  require(owner() == msg.sender, \"Ownable: caller is not the owner\") */\n    tag_217:\n        /* \"CoinIdo.sol\":3029:3038  addressTo */\n      dup1\n        /* \"CoinIdo.sol\":3029:3045  addressTo.length */\n      mload\n        /* \"CoinIdo.sol\":3009:3020  addressFrom */\n      dup3\n        /* \"CoinIdo.sol\":3009:3027  addressFrom.length */\n      mload\n        /* \"CoinIdo.sol\":3009:3045  addressFrom.length==addressTo.length */\n      eq\n        /* \"CoinIdo.sol\":3001:3064  require(addressFrom.length==addressTo.length,\"length is wrong\") */\n      tag_221\n      jumpi\n      mload(0x40)\n      0x08c379a000000000000000000000000000000000000000000000000000000000\n      dup2\n      mstore\n        /* \"#utility.yul\":11094:11096   */\n      0x20\n        /* \"CoinIdo.sol\":3001:3064  require(addressFrom.length==addressTo.length,\"length is wrong\") */\n      0x04\n      dup3\n      add\n        /* \"#utility.yul\":11076:11097   */\n      mstore\n        /* \"#utility.yul\":11133:11135   */\n      0x0f\n        /* \"#utility.yul\":11113:11131   */\n      0x24\n      dup3\n      add\n        /* \"#utility.yul\":11106:11136   */\n      mstore\n        /* \"#utility.yul\":11172:11189   */\n      0x6c656e6774682069732077726f6e670000000000000000000000000000000000\n        /* \"#utility.yul\":11152:11170   */\n      0x44\n      dup3\n      add\n        /* \"#utility.yul\":11145:11190   */\n      mstore\n        /* \"#utility.yul\":11207:11225   */\n      0x64\n      add\n        /* \"CoinIdo.sol\":3001:3064  require(addressFrom.length==addressTo.length,\"length is wrong\") */\n      tag_143\n        /* \"#utility.yul\":11066:11231   */\n      jump\n        /* \"CoinIdo.sol\":3001:3064  require(addressFrom.length==addressTo.length,\"length is wrong\") */\n    tag_221:\n        /* \"CoinIdo.sol\":3079:3085  uint i */\n      0x00\n        /* \"CoinIdo.sol\":3075:3327  for(uint i=0; i<addressFrom.length; i++){\r... */\n    tag_224:\n        /* \"CoinIdo.sol\":3091:3102  addressFrom */\n      dup3\n        /* \"CoinIdo.sol\":3091:3109  addressFrom.length */\n      mload\n        /* \"CoinIdo.sol\":3089:3090  i */\n      dup2\n        /* \"CoinIdo.sol\":3089:3109  i<addressFrom.length */\n      lt\n        /* \"CoinIdo.sol\":3075:3327  for(uint i=0; i<addressFrom.length; i++){\r... */\n      iszero\n      tag_225\n      jumpi\n        /* \"CoinIdo.sol\":3163:3164  0 */\n      0x00\n        /* \"CoinIdo.sol\":3138:3165  addressFrom[i] !=address(0) */\n      0xffffffffffffffffffffffffffffffffffffffff\n      and\n        /* \"CoinIdo.sol\":3138:3149  addressFrom */\n      dup4\n        /* \"CoinIdo.sol\":3150:3151  i */\n      dup3\n        /* \"CoinIdo.sol\":3138:3152  addressFrom[i] */\n      dup2\n      mload\n      dup2\n      lt\n      tag_227\n      jumpi\n      mstore(0x00, 0x4e487b7100000000000000000000000000000000000000000000000000000000)\n      mstore(0x04, 0x32)\n      revert(0x00, 0x24)\n    tag_227:\n      0x20\n      mul\n      0x20\n      add\n      add\n      mload\n        /* \"CoinIdo.sol\":3138:3165  addressFrom[i] !=address(0) */\n      0xffffffffffffffffffffffffffffffffffffffff\n      and\n      eq\n      iszero\n        /* \"CoinIdo.sol\":3130:3185  require(addressFrom[i] !=address(0),\"address is wrong\") */\n      tag_228\n      jumpi\n      mload(0x40)\n      0x08c379a000000000000000000000000000000000000000000000000000000000\n      dup2\n      mstore\n        /* \"#utility.yul\":7601:7603   */\n      0x20\n        /* \"CoinIdo.sol\":3130:3185  require(addressFrom[i] !=address(0),\"address is wrong\") */\n      0x04\n      dup3\n      add\n        /* \"#utility.yul\":7583:7604   */\n      mstore\n        /* \"#utility.yul\":7640:7642   */\n      0x10\n        /* \"#utility.yul\":7620:7638   */\n      0x24\n      dup3\n      add\n        /* \"#utility.yul\":7613:7643   */\n      mstore\n        /* \"#utility.yul\":7679:7697   */\n      0x616464726573732069732077726f6e6700000000000000000000000000000000\n        /* \"#utility.yul\":7659:7677   */\n      0x44\n      dup3\n      add\n        /* \"#utility.yul\":7652:7698   */\n      mstore\n        /* \"#utility.yul\":7715:7733   */\n      0x64\n      add\n        /* \"CoinIdo.sol\":3130:3185  require(addressFrom[i] !=address(0),\"address is wrong\") */\n      tag_143\n        /* \"#utility.yul\":7573:7739   */\n      jump\n        /* \"CoinIdo.sol\":3130:3185  require(addressFrom[i] !=address(0),\"address is wrong\") */\n    tag_228:\n        /* \"CoinIdo.sol\":3226:3235  addressTo */\n      dup2\n        /* \"CoinIdo.sol\":3236:3237  i */\n      dup2\n        /* \"CoinIdo.sol\":3226:3238  addressTo[i] */\n      dup2\n      mload\n      dup2\n      lt\n      tag_231\n      jumpi\n      mstore(0x00, 0x4e487b7100000000000000000000000000000000000000000000000000000000)\n      mstore(0x04, 0x32)\n      revert(0x00, 0x24)\n    tag_231:\n      0x20\n      mul\n      0x20\n      add\n      add\n      mload\n        /* \"CoinIdo.sol\":3208:3238  addressFrom[i] != addressTo[i] */\n      0xffffffffffffffffffffffffffffffffffffffff\n      and\n        /* \"CoinIdo.sol\":3208:3219  addressFrom */\n      dup4\n        /* \"CoinIdo.sol\":3220:3221  i */\n      dup3\n        /* \"CoinIdo.sol\":3208:3222  addressFrom[i] */\n      dup2\n      mload\n      dup2\n      lt\n      tag_232\n      jumpi\n      mstore(0x00, 0x4e487b7100000000000000000000000000000000000000000000000000000000)\n      mstore(0x04, 0x32)\n      revert(0x00, 0x24)\n    tag_232:\n      0x20\n      mul\n      0x20\n      add\n      add\n      mload\n        /* \"CoinIdo.sol\":3208:3238  addressFrom[i] != addressTo[i] */\n      0xffffffffffffffffffffffffffffffffffffffff\n      and\n      eq\n      iszero\n        /* \"CoinIdo.sol\":3200:3257  require(addressFrom[i] != addressTo[i],\"addres is equal\") */\n      tag_233\n      jumpi\n      mload(0x40)\n      0x08c379a000000000000000000000000000000000000000000000000000000000\n      dup2\n      mstore\n        /* \"#utility.yul\":9717:9719   */\n      0x20\n        /* \"CoinIdo.sol\":3200:3257  require(addressFrom[i] != addressTo[i],\"addres is equal\") */\n      0x04\n      dup3\n      add\n        /* \"#utility.yul\":9699:9720   */\n      mstore\n        /* \"#utility.yul\":9756:9758   */\n      0x0f\n        /* \"#utility.yul\":9736:9754   */\n      0x24\n      dup3\n      add\n        /* \"#utility.yul\":9729:9759   */\n      mstore\n        /* \"#utility.yul\":9795:9812   */\n      0x61646472657320697320657175616c0000000000000000000000000000000000\n        /* \"#utility.yul\":9775:9793   */\n      0x44\n      dup3\n      add\n        /* \"#utility.yul\":9768:9813   */\n      mstore\n        /* \"#utility.yul\":9830:9848   */\n      0x64\n      add\n        /* \"CoinIdo.sol\":3200:3257  require(addressFrom[i] != addressTo[i],\"addres is equal\") */\n      tag_143\n        /* \"#utility.yul\":9689:9854   */\n      jump\n        /* \"CoinIdo.sol\":3200:3257  require(addressFrom[i] != addressTo[i],\"addres is equal\") */\n    tag_233:\n        /* \"CoinIdo.sol\":3303:3312  addressTo */\n      dup2\n        /* \"CoinIdo.sol\":3313:3314  i */\n      dup2\n        /* \"CoinIdo.sol\":3303:3315  addressTo[i] */\n      dup2\n      mload\n      dup2\n      lt\n      tag_236\n      jumpi\n      mstore(0x00, 0x4e487b7100000000000000000000000000000000000000000000000000000000)\n      mstore(0x04, 0x32)\n      revert(0x00, 0x24)\n    tag_236:\n      0x20\n      mul\n      0x20\n      add\n      add\n      mload\n        /* \"CoinIdo.sol\":3272:3284  userRelation */\n      0x09\n        /* \"CoinIdo.sol\":3272:3300  userRelation[addressFrom[i]] */\n      0x00\n        /* \"CoinIdo.sol\":3285:3296  addressFrom */\n      dup6\n        /* \"CoinIdo.sol\":3297:3298  i */\n      dup5\n        /* \"CoinIdo.sol\":3285:3299  addressFrom[i] */\n      dup2\n      mload\n      dup2\n      lt\n      tag_237\n      jumpi\n      mstore(0x00, 0x4e487b7100000000000000000000000000000000000000000000000000000000)\n      mstore(0x04, 0x32)\n      revert(0x00, 0x24)\n    tag_237:\n      0x20\n      mul\n      0x20\n      add\n      add\n      mload\n        /* \"CoinIdo.sol\":3272:3300  userRelation[addressFrom[i]] */\n      0xffffffffffffffffffffffffffffffffffffffff\n      and\n      0xffffffffffffffffffffffffffffffffffffffff\n      and\n      dup2\n      mstore\n      0x20\n      add\n      swap1\n      dup2\n      mstore\n      0x20\n      add\n      0x00\n      keccak256\n      0x00\n        /* \"CoinIdo.sol\":3272:3315  userRelation[addressFrom[i]] = addressTo[i] */\n      0x0100\n      exp\n      dup2\n      sload\n      dup2\n      0xffffffffffffffffffffffffffffffffffffffff\n      mul\n      not\n      and\n      swap1\n      dup4\n      0xffffffffffffffffffffffffffffffffffffffff\n      and\n      mul\n      or\n      swap1\n      sstore\n      pop\n        /* \"CoinIdo.sol\":3111:3114  i++ */\n      dup1\n      dup1\n      tag_238\n      swap1\n      tag_239\n      jump\t// in\n    tag_238:\n      swap2\n      pop\n      pop\n        /* \"CoinIdo.sol\":3075:3327  for(uint i=0; i<addressFrom.length; i++){\r... */\n      jump(tag_224)\n    tag_225:\n      pop\n        /* \"CoinIdo.sol\":3342:3376  AddRelation(addressFrom,addressTo) */\n      0x1886f03d42b471bc8faf784e3878fce329e8e139473c601b8648de73b3380c02\n        /* \"CoinIdo.sol\":3354:3365  addressFrom */\n      dup3\n        /* \"CoinIdo.sol\":3366:3375  addressTo */\n      dup3\n        /* \"CoinIdo.sol\":3342:3376  AddRelation(addressFrom,addressTo) */\n      mload(0x40)\n      tag_240\n      swap3\n      swap2\n      swap1\n      tag_241\n      jump\t// in\n    tag_240:\n      mload(0x40)\n      dup1\n      swap2\n      sub\n      swap1\n      log1\n        /* \"CoinIdo.sol\":2898:3384  function _addRelation(address[]memory addressFrom,address[]memory addressTo)public onlyOwner{\r... */\n      pop\n      pop\n      jump\t// out\n        /* \"CoinIdo.sol\":5235:6101  function withdraw()public{\r... */\n    tag_59:\n        /* \"CoinIdo.sol\":5287:5297  msg.sender */\n      caller\n        /* \"CoinIdo.sol\":5299:5300  0 */\n      0x00\n        /* \"CoinIdo.sol\":5279:5298  userIDO[msg.sender] */\n      swap1\n      dup2\n      mstore\n        /* \"CoinIdo.sol\":5279:5286  userIDO */\n      0x0a\n        /* \"CoinIdo.sol\":5279:5298  userIDO[msg.sender] */\n      0x20\n      mstore\n      0x40\n      swap1\n      keccak256\n      sload\n        /* \"CoinIdo.sol\":5271:5313  require(userIDO[msg.sender]>0,\"not allow\") */\n      tag_243\n      jumpi\n      mload(0x40)\n      0x08c379a000000000000000000000000000000000000000000000000000000000\n      dup2\n      mstore\n        /* \"#utility.yul\":10061:10063   */\n      0x20\n        /* \"CoinIdo.sol\":5271:5313  require(userIDO[msg.sender]>0,\"not allow\") */\n      0x04\n      dup3\n      add\n        /* \"#utility.yul\":10043:10064   */\n      mstore\n        /* \"#utility.yul\":10100:10101   */\n      0x09\n        /* \"#utility.yul\":10080:10098   */\n      0x24\n      dup3\n      add\n        /* \"#utility.yul\":10073:10102   */\n      mstore\n        /* \"#utility.yul\":10138:10149   */\n      0x6e6f7420616c6c6f770000000000000000000000000000000000000000000000\n        /* \"#utility.yul\":10118:10136   */\n      0x44\n      dup3\n      add\n        /* \"#utility.yul\":10111:10150   */\n      mstore\n        /* \"#utility.yul\":10167:10185   */\n      0x64\n      add\n        /* \"CoinIdo.sol\":5271:5313  require(userIDO[msg.sender]>0,\"not allow\") */\n      tag_143\n        /* \"#utility.yul\":10033:10191   */\n      jump\n        /* \"CoinIdo.sol\":5271:5313  require(userIDO[msg.sender]>0,\"not allow\") */\n    tag_243:\n        /* \"CoinIdo.sol\":5340:5341  0 */\n      0x00\n        /* \"CoinIdo.sol\":5332:5339  endTime */\n      sload(0x01)\n        /* \"CoinIdo.sol\":5332:5341  endTime>0 */\n      gt\n        /* \"CoinIdo.sol\":5324:5351  require(endTime>0,\"not ET\") */\n      tag_246\n      jumpi\n      mload(0x40)\n      0x08c379a000000000000000000000000000000000000000000000000000000000\n      dup2\n      mstore\n        /* \"#utility.yul\":8693:8695   */\n      0x20\n        /* \"CoinIdo.sol\":5324:5351  require(endTime>0,\"not ET\") */\n      0x04\n      dup3\n      add\n        /* \"#utility.yul\":8675:8696   */\n      mstore\n        /* \"#utility.yul\":8732:8733   */\n      0x06\n        /* \"#utility.yul\":8712:8730   */\n      0x24\n      dup3\n      add\n        /* \"#utility.yul\":8705:8734   */\n      mstore\n        /* \"#utility.yul\":8770:8778   */\n      0x6e6f742045540000000000000000000000000000000000000000000000000000\n        /* \"#utility.yul\":8750:8768   */\n      0x44\n      dup3\n      add\n        /* \"#utility.yul\":8743:8779   */\n      mstore\n        /* \"#utility.yul\":8796:8814   */\n      0x64\n      add\n        /* \"CoinIdo.sol\":5324:5351  require(endTime>0,\"not ET\") */\n      tag_143\n        /* \"#utility.yul\":8665:8820   */\n      jump\n        /* \"CoinIdo.sol\":5324:5351  require(endTime>0,\"not ET\") */\n    tag_246:\n        /* \"CoinIdo.sol\":5362:5373  uint amount */\n      0x00\n        /* \"CoinIdo.sol\":5384:5401  uint intervalTime */\n      dup1\n        /* \"CoinIdo.sol\":5421:5428  endTime */\n      sload(0x01)\n        /* \"CoinIdo.sol\":5404:5419  block.timestamp */\n      timestamp\n        /* \"CoinIdo.sol\":5404:5428  block.timestamp -endTime */\n      tag_249\n      swap2\n      swap1\n      tag_176\n      jump\t// in\n    tag_249:\n        /* \"CoinIdo.sol\":5384:5428  uint intervalTime = block.timestamp -endTime */\n      swap1\n      pop\n        /* \"CoinIdo.sol\":5439:5447  uint day */\n      0x00\n        /* \"CoinIdo.sol\":5450:5468  intervalTime/86400 */\n      tag_250\n        /* \"CoinIdo.sol\":5463:5468  86400 */\n      0x015180\n        /* \"CoinIdo.sol\":5384:5428  uint intervalTime = block.timestamp -endTime */\n      dup4\n        /* \"CoinIdo.sol\":5450:5468  intervalTime/86400 */\n      tag_167\n      jump\t// in\n    tag_250:\n        /* \"CoinIdo.sol\":5500:5510  msg.sender */\n      caller\n        /* \"CoinIdo.sol\":5479:5489  uint allET */\n      0x00\n        /* \"CoinIdo.sol\":5492:5511  userIDO[msg.sender] */\n      swap1\n      dup2\n      mstore\n        /* \"CoinIdo.sol\":5492:5499  userIDO */\n      0x0a\n        /* \"CoinIdo.sol\":5492:5511  userIDO[msg.sender] */\n      0x20\n      mstore\n      0x40\n      dup2\n      keccak256\n      sload\n        /* \"CoinIdo.sol\":5439:5468  uint day = intervalTime/86400 */\n      swap2\n      swap3\n      pop\n        /* \"CoinIdo.sol\":5479:5489  uint allET */\n      swap1\n        /* \"CoinIdo.sol\":5517:5520  120 */\n      0x78\n      swap1\n        /* \"CoinIdo.sol\":5492:5516  userIDO[msg.sender]*2600 */\n      tag_251\n      swap1\n        /* \"CoinIdo.sol\":5512:5516  2600 */\n      0x0a28\n        /* \"CoinIdo.sol\":5492:5516  userIDO[msg.sender]*2600 */\n      tag_149\n      jump\t// in\n    tag_251:\n        /* \"CoinIdo.sol\":5492:5520  userIDO[msg.sender]*2600/120 */\n      tag_252\n      swap2\n      swap1\n      tag_167\n      jump\t// in\n    tag_252:\n        /* \"CoinIdo.sol\":5479:5520  uint allET = userIDO[msg.sender]*2600/120 */\n      swap1\n      pop\n        /* \"CoinIdo.sol\":5539:5540  1 */\n      0x01\n        /* \"CoinIdo.sol\":5534:5537  day */\n      dup3\n        /* \"CoinIdo.sol\":5534:5540  day>=1 */\n      lt\n      iszero\n        /* \"CoinIdo.sol\":5534:5562  day>=1 && !lb[msg.sender][0] */\n      dup1\n      iszero\n      tag_253\n      jumpi\n      pop\n        /* \"CoinIdo.sol\":5548:5558  msg.sender */\n      caller\n        /* \"CoinIdo.sol\":5545:5559  lb[msg.sender] */\n      0x00\n      swap1\n      dup2\n      mstore\n        /* \"CoinIdo.sol\":5545:5547  lb */\n      0x08\n        /* \"CoinIdo.sol\":5545:5559  lb[msg.sender] */\n      0x20\n      mstore\n      0x40\n      dup2\n      keccak256\n        /* \"CoinIdo.sol\":5545:5562  lb[msg.sender][0] */\n      dup1\n      sload\n        /* \"CoinIdo.sol\":5545:5559  lb[msg.sender] */\n      swap1\n      swap2\n      swap1\n        /* \"CoinIdo.sol\":5545:5562  lb[msg.sender][0] */\n      tag_254\n      jumpi\n      mstore(0x00, 0x4e487b7100000000000000000000000000000000000000000000000000000000)\n      mstore(0x04, 0x32)\n      revert(0x00, 0x24)\n    tag_254:\n      swap1\n      0x00\n      mstore\n      keccak256(0x00, 0x20)\n      swap1\n      0x20\n      swap2\n      dup3\n      dup3\n      div\n      add\n      swap2\n      swap1\n      mod\n      swap1\n      sload\n      swap1\n      0x0100\n      exp\n      swap1\n      div\n      0xff\n      and\n        /* \"CoinIdo.sol\":5544:5562  !lb[msg.sender][0] */\n      iszero\n        /* \"CoinIdo.sol\":5534:5562  day>=1 && !lb[msg.sender][0] */\n    tag_253:\n        /* \"CoinIdo.sol\":5531:5652  if(day>=1 && !lb[msg.sender][0]){\r... */\n      iszero\n      tag_256\n      jumpi\n        /* \"CoinIdo.sol\":5598:5603  10000 */\n      0x2710\n        /* \"CoinIdo.sol\":5587:5597  allET*1000 */\n      tag_257\n        /* \"CoinIdo.sol\":5587:5592  allET */\n      dup3\n        /* \"CoinIdo.sol\":5593:5597  1000 */\n      0x03e8\n        /* \"CoinIdo.sol\":5587:5597  allET*1000 */\n      tag_149\n      jump\t// in\n    tag_257:\n        /* \"CoinIdo.sol\":5587:5603  allET*1000/10000 */\n      tag_258\n      swap2\n      swap1\n      tag_167\n      jump\t// in\n    tag_258:\n        /* \"CoinIdo.sol\":5621:5631  msg.sender */\n      caller\n        /* \"CoinIdo.sol\":5618:5632  lb[msg.sender] */\n      0x00\n      swap1\n      dup2\n      mstore\n        /* \"CoinIdo.sol\":5618:5620  lb */\n      0x08\n        /* \"CoinIdo.sol\":5618:5632  lb[msg.sender] */\n      0x20\n      mstore\n      0x40\n      dup2\n      keccak256\n        /* \"CoinIdo.sol\":5618:5635  lb[msg.sender][0] */\n      dup1\n      sload\n        /* \"CoinIdo.sol\":5578:5603  amount = allET*1000/10000 */\n      swap3\n      swap7\n      pop\n        /* \"CoinIdo.sol\":5636:5640  true */\n      0x01\n      swap3\n        /* \"CoinIdo.sol\":5618:5632  lb[msg.sender] */\n      swap1\n      swap2\n      swap1\n        /* \"CoinIdo.sol\":5618:5635  lb[msg.sender][0] */\n      tag_259\n      jumpi\n      mstore(0x00, 0x4e487b7100000000000000000000000000000000000000000000000000000000)\n      mstore(0x04, 0x32)\n      revert(0x00, 0x24)\n    tag_259:\n      swap1\n      0x00\n      mstore\n      keccak256(0x00, 0x20)\n      swap1\n      0x20\n      swap2\n      dup3\n      dup3\n      div\n      add\n      swap2\n      swap1\n      mod\n        /* \"CoinIdo.sol\":5618:5640  lb[msg.sender][0]=true */\n      0x0100\n      exp\n      dup2\n      sload\n      dup2\n      0xff\n      mul\n      not\n      and\n      swap1\n      dup4\n      iszero\n      iszero\n      mul\n      or\n      swap1\n      sstore\n      pop\n        /* \"CoinIdo.sol\":5531:5652  if(day>=1 && !lb[msg.sender][0]){\r... */\n    tag_256:\n        /* \"CoinIdo.sol\":5662:5671  uint item */\n      0x00\n        /* \"CoinIdo.sol\":5682:5684  30 */\n      0x1e\n        /* \"CoinIdo.sol\":5675:5680  day-1 */\n      tag_261\n        /* \"CoinIdo.sol\":5679:5680  1 */\n      0x01\n        /* \"CoinIdo.sol\":5675:5678  day */\n      dup6\n        /* \"CoinIdo.sol\":5675:5680  day-1 */\n      tag_176\n      jump\t// in\n    tag_261:\n        /* \"CoinIdo.sol\":5674:5684  (day-1)/30 */\n      tag_262\n      swap2\n      swap1\n      tag_167\n      jump\t// in\n    tag_262:\n        /* \"CoinIdo.sol\":5662:5684  uint item = (day-1)/30 */\n      swap1\n      pop\n        /* \"CoinIdo.sol\":5705:5707  15 */\n      0x0f\n        /* \"CoinIdo.sol\":5700:5704  item */\n      dup2\n        /* \"CoinIdo.sol\":5700:5707  item>15 */\n      gt\n        /* \"CoinIdo.sol\":5700:5715  item>15?15:item */\n      tag_263\n      jumpi\n        /* \"CoinIdo.sol\":5711:5715  item */\n      dup1\n        /* \"CoinIdo.sol\":5700:5715  item>15?15:item */\n      jump(tag_264)\n    tag_263:\n        /* \"CoinIdo.sol\":5708:5710  15 */\n      0x0f\n        /* \"CoinIdo.sol\":5700:5715  item>15?15:item */\n    tag_264:\n        /* \"CoinIdo.sol\":5695:5715  item=item>15?15:item */\n      swap1\n      pop\n        /* \"CoinIdo.sol\":5745:5746  1 */\n      0x01\n        /* \"CoinIdo.sol\":5734:5919  for(uint i=1; i<=item; i++){\r... */\n    tag_265:\n        /* \"CoinIdo.sol\":5751:5755  item */\n      dup2\n        /* \"CoinIdo.sol\":5748:5749  i */\n      dup2\n        /* \"CoinIdo.sol\":5748:5755  i<=item */\n      gt\n        /* \"CoinIdo.sol\":5734:5919  for(uint i=1; i<=item; i++){\r... */\n      tag_266\n      jumpi\n        /* \"CoinIdo.sol\":5783:5793  msg.sender */\n      caller\n        /* \"CoinIdo.sol\":5780:5794  lb[msg.sender] */\n      0x00\n      swap1\n      dup2\n      mstore\n        /* \"CoinIdo.sol\":5780:5782  lb */\n      0x08\n        /* \"CoinIdo.sol\":5780:5794  lb[msg.sender] */\n      0x20\n      mstore\n      0x40\n      swap1\n      keccak256\n        /* \"CoinIdo.sol\":5780:5797  lb[msg.sender][i] */\n      dup1\n      sload\n        /* \"CoinIdo.sol\":5795:5796  i */\n      dup3\n      swap1\n        /* \"CoinIdo.sol\":5780:5797  lb[msg.sender][i] */\n      dup2\n      lt\n      tag_268\n      jumpi\n      mstore(0x00, 0x4e487b7100000000000000000000000000000000000000000000000000000000)\n      mstore(0x04, 0x32)\n      revert(0x00, 0x24)\n    tag_268:\n      swap1\n      0x00\n      mstore\n      keccak256(0x00, 0x20)\n      swap1\n      0x20\n      swap2\n      dup3\n      dup3\n      div\n      add\n      swap2\n      swap1\n      mod\n      swap1\n      sload\n      swap1\n      0x0100\n      exp\n      swap1\n      div\n      0xff\n      and\n        /* \"CoinIdo.sol\":5776:5908  if(!lb[msg.sender][i]){\r... */\n      tag_270\n      jumpi\n        /* \"CoinIdo.sol\":5845:5850  10000 */\n      0x2710\n        /* \"CoinIdo.sol\":5835:5844  allET*600 */\n      tag_271\n        /* \"CoinIdo.sol\":5835:5840  allET */\n      dup5\n        /* \"CoinIdo.sol\":5841:5844  600 */\n      0x0258\n        /* \"CoinIdo.sol\":5835:5844  allET*600 */\n      tag_149\n      jump\t// in\n    tag_271:\n        /* \"CoinIdo.sol\":5835:5850  allET*600/10000 */\n      tag_272\n      swap2\n      swap1\n      tag_167\n      jump\t// in\n    tag_272:\n        /* \"CoinIdo.sol\":5826:5850  amount + allET*600/10000 */\n      tag_273\n      swap1\n        /* \"CoinIdo.sol\":5826:5832  amount */\n      dup8\n        /* \"CoinIdo.sol\":5826:5850  amount + allET*600/10000 */\n      tag_153\n      jump\t// in\n    tag_273:\n        /* \"CoinIdo.sol\":5872:5882  msg.sender */\n      caller\n        /* \"CoinIdo.sol\":5869:5883  lb[msg.sender] */\n      0x00\n      swap1\n      dup2\n      mstore\n        /* \"CoinIdo.sol\":5869:5871  lb */\n      0x08\n        /* \"CoinIdo.sol\":5869:5883  lb[msg.sender] */\n      0x20\n      mstore\n      0x40\n      swap1\n      keccak256\n        /* \"CoinIdo.sol\":5869:5886  lb[msg.sender][i] */\n      dup1\n      sload\n        /* \"CoinIdo.sol\":5817:5850  amount = amount + allET*600/10000 */\n      swap2\n      swap8\n      pop\n        /* \"CoinIdo.sol\":5888:5892  true */\n      0x01\n      swap2\n        /* \"CoinIdo.sol\":5884:5885  i */\n      dup4\n      swap1\n        /* \"CoinIdo.sol\":5869:5886  lb[msg.sender][i] */\n      dup2\n      lt\n      tag_274\n      jumpi\n      mstore(0x00, 0x4e487b7100000000000000000000000000000000000000000000000000000000)\n      mstore(0x04, 0x32)\n      revert(0x00, 0x24)\n    tag_274:\n      swap1\n      0x00\n      mstore\n      keccak256(0x00, 0x20)\n      swap1\n      0x20\n      swap2\n      dup3\n      dup3\n      div\n      add\n      swap2\n      swap1\n      mod\n        /* \"CoinIdo.sol\":5869:5892  lb[msg.sender][i] =true */\n      0x0100\n      exp\n      dup2\n      sload\n      dup2\n      0xff\n      mul\n      not\n      and\n      swap1\n      dup4\n      iszero\n      iszero\n      mul\n      or\n      swap1\n      sstore\n      pop\n        /* \"CoinIdo.sol\":5776:5908  if(!lb[msg.sender][i]){\r... */\n    tag_270:\n        /* \"CoinIdo.sol\":5757:5760  i++ */\n      dup1\n      tag_276\n      dup2\n      tag_239\n      jump\t// in\n    tag_276:\n      swap2\n      pop\n      pop\n        /* \"CoinIdo.sol\":5734:5919  for(uint i=1; i<=item; i++){\r... */\n      jump(tag_265)\n    tag_266:\n      pop\n        /* \"CoinIdo.sol\":5969:5979  msg.sender */\n      caller\n        /* \"CoinIdo.sol\":5955:5980  awaitWithdraw[msg.sender] */\n      0x00\n      swap1\n      dup2\n      mstore\n        /* \"CoinIdo.sol\":5955:5968  awaitWithdraw */\n      0x0c\n        /* \"CoinIdo.sol\":5955:5980  awaitWithdraw[msg.sender] */\n      0x20\n      mstore\n      0x40\n      swap1\n      keccak256\n      sload\n        /* \"CoinIdo.sol\":5955:5987  awaitWithdraw[msg.sender]-amount */\n      tag_277\n      swap1\n        /* \"CoinIdo.sol\":5981:5987  amount */\n      dup7\n      swap1\n        /* \"CoinIdo.sol\":5955:5987  awaitWithdraw[msg.sender]-amount */\n      tag_176\n      jump\t// in\n    tag_277:\n        /* \"CoinIdo.sol\":5943:5953  msg.sender */\n      caller\n        /* \"CoinIdo.sol\":5929:5954  awaitWithdraw[msg.sender] */\n      0x00\n      dup2\n      dup2\n      mstore\n        /* \"CoinIdo.sol\":5929:5942  awaitWithdraw */\n      0x0c\n        /* \"CoinIdo.sol\":5929:5954  awaitWithdraw[msg.sender] */\n      0x20\n      mstore\n      0x40\n      swap1\n      dup2\n      swap1\n      keccak256\n        /* \"CoinIdo.sol\":5929:5987  awaitWithdraw[msg.sender]=awaitWithdraw[msg.sender]-amount */\n      swap3\n      swap1\n      swap3\n      sstore\n        /* \"CoinIdo.sol\":5998:6004  etCoin */\n      sload(0x07)\n        /* \"CoinIdo.sol\":5998:6033  etCoin.transfer(msg.sender, amount) */\n      swap2\n      mload\n      0xa9059cbb00000000000000000000000000000000000000000000000000000000\n      dup2\n      mstore\n      0x04\n      dup2\n      add\n        /* \"#utility.yul\":5403:5477   */\n      swap2\n      swap1\n      swap2\n      mstore\n        /* \"#utility.yul\":5493:5511   */\n      0x24\n      dup2\n      add\n        /* \"#utility.yul\":5486:5520   */\n      dup8\n      swap1\n      mstore\n        /* \"CoinIdo.sol\":5929:5954  awaitWithdraw[msg.sender] */\n      0xffffffffffffffffffffffffffffffffffffffff\n        /* \"CoinIdo.sol\":5998:6004  etCoin */\n      swap1\n      swap2\n      and\n      swap1\n        /* \"CoinIdo.sol\":5998:6013  etCoin.transfer */\n      0xa9059cbb\n      swap1\n        /* \"#utility.yul\":5376:5394   */\n      0x44\n      add\n        /* \"CoinIdo.sol\":5998:6033  etCoin.transfer(msg.sender, amount) */\n      0x20\n      mload(0x40)\n      dup1\n      dup4\n      sub\n      dup2\n      0x00\n      dup8\n      dup1\n      extcodesize\n      iszero\n      dup1\n      iszero\n      tag_279\n      jumpi\n      0x00\n      dup1\n      revert\n    tag_279:\n      pop\n      gas\n      call\n      iszero\n      dup1\n      iszero\n      tag_281\n      jumpi\n      returndatasize\n      0x00\n      dup1\n      returndatacopy\n      revert(0x00, returndatasize)\n    tag_281:\n      pop\n      pop\n      pop\n      pop\n      mload(0x40)\n      returndatasize\n      not(0x1f)\n      0x1f\n      dup3\n      add\n      and\n      dup3\n      add\n      dup1\n      0x40\n      mstore\n      pop\n      dup2\n      add\n      swap1\n      tag_282\n      swap2\n      swap1\n      tag_174\n      jump\t// in\n    tag_282:\n      pop\n        /* \"CoinIdo.sol\":6049:6093  Withdraw(msg.sender, amount,block.timestamp) */\n      0x40\n      dup1\n      mload\n        /* \"CoinIdo.sol\":6058:6068  msg.sender */\n      caller\n        /* \"#utility.yul\":5733:5807   */\n      dup2\n      mstore\n        /* \"#utility.yul\":5838:5840   */\n      0x20\n        /* \"#utility.yul\":5823:5841   */\n      dup2\n      add\n        /* \"#utility.yul\":5816:5850   */\n      dup8\n      swap1\n      mstore\n        /* \"CoinIdo.sol\":6077:6092  block.timestamp */\n      timestamp\n        /* \"#utility.yul\":5866:5884   */\n      dup2\n      dup4\n      add\n        /* \"#utility.yul\":5859:5893   */\n      mstore\n        /* \"CoinIdo.sol\":6049:6093  Withdraw(msg.sender, amount,block.timestamp) */\n      swap1\n      mload\n      0xf279e6a1f5e320cca91135676d9cb6e44ca8a08c0b88342bcdb1144f6511b568\n      swap2\n      dup2\n      swap1\n      sub\n        /* \"#utility.yul\":5721:5723   */\n      0x60\n        /* \"CoinIdo.sol\":6049:6093  Withdraw(msg.sender, amount,block.timestamp) */\n      add\n      swap1\n      log1\n        /* \"CoinIdo.sol\":5235:6101  function withdraw()public{\r... */\n      pop\n      pop\n      pop\n      pop\n      pop\n      jump\t// out\n        /* \"CoinIdo.sol\":2507:2594  function openOpenIdo(bool _flag) public onlyManager{\r... */\n    tag_71:\n        /* \"CoinIdo.sol\":1708:1718  msg.sender */\n      caller\n        /* \"CoinIdo.sol\":1698:1719  isManager[msg.sender] */\n      0x00\n      swap1\n      dup2\n      mstore\n        /* \"CoinIdo.sol\":1698:1707  isManager */\n      0x03\n        /* \"CoinIdo.sol\":1698:1719  isManager[msg.sender] */\n      0x20\n      mstore\n      0x40\n      swap1\n      keccak256\n      sload\n      0xff\n      and\n        /* \"CoinIdo.sol\":1690:1735  require(isManager[msg.sender], \"Not manager\") */\n      tag_286\n      jumpi\n      mload(0x40)\n      0x08c379a000000000000000000000000000000000000000000000000000000000\n      dup2\n      mstore\n        /* \"#utility.yul\":7946:7948   */\n      0x20\n        /* \"CoinIdo.sol\":1690:1735  require(isManager[msg.sender], \"Not manager\") */\n      0x04\n      dup3\n      add\n        /* \"#utility.yul\":7928:7949   */\n      mstore\n        /* \"#utility.yul\":7985:7987   */\n      0x0b\n        /* \"#utility.yul\":7965:7983   */\n      0x24\n      dup3\n      add\n        /* \"#utility.yul\":7958:7988   */\n      mstore\n        /* \"#utility.yul\":8024:8037   */\n      0x4e6f74206d616e61676572000000000000000000000000000000000000000000\n        /* \"#utility.yul\":8004:8022   */\n      0x44\n      dup3\n      add\n        /* \"#utility.yul\":7997:8038   */\n      mstore\n        /* \"#utility.yul\":8055:8073   */\n      0x64\n      add\n        /* \"CoinIdo.sol\":1690:1735  require(isManager[msg.sender], \"Not manager\") */\n      tag_143\n        /* \"#utility.yul\":7918:8079   */\n      jump\n        /* \"CoinIdo.sol\":1690:1735  require(isManager[msg.sender], \"Not manager\") */\n    tag_286:\n        /* \"CoinIdo.sol\":2569:2578  isOpenIdo */\n      0x0e\n        /* \"CoinIdo.sol\":2569:2586  isOpenIdo = _flag */\n      dup1\n      sload\n      0xffffffffffffffffffffffffffffffffffffffffffffffffffffffffffffff00\n      and\n      swap2\n      iszero\n      iszero\n      swap2\n      swap1\n      swap2\n      or\n      swap1\n      sstore\n        /* \"CoinIdo.sol\":2507:2594  function openOpenIdo(bool _flag) public onlyManager{\r... */\n      jump\t// out\n        /* \"CoinIdo.sol\":2325:2410  function openOpenOne(bool _flag) public onlyManager{\r... */\n    tag_79:\n        /* \"CoinIdo.sol\":1708:1718  msg.sender */\n      caller\n        /* \"CoinIdo.sol\":1698:1719  isManager[msg.sender] */\n      0x00\n      swap1\n      dup2\n      mstore\n        /* \"CoinIdo.sol\":1698:1707  isManager */\n      0x03\n        /* \"CoinIdo.sol\":1698:1719  isManager[msg.sender] */\n      0x20\n      mstore\n      0x40\n      swap1\n      keccak256\n      sload\n      0xff\n      and\n        /* \"CoinIdo.sol\":1690:1735  require(isManager[msg.sender], \"Not manager\") */\n      tag_291\n      jumpi\n      mload(0x40)\n      0x08c379a000000000000000000000000000000000000000000000000000000000\n      dup2\n      mstore\n        /* \"#utility.yul\":7946:7948   */\n      0x20\n        /* \"CoinIdo.sol\":1690:1735  require(isManager[msg.sender], \"Not manager\") */\n      0x04\n      dup3\n      add\n        /* \"#utility.yul\":7928:7949   */\n      mstore\n        /* \"#utility.yul\":7985:7987   */\n      0x0b\n        /* \"#utility.yul\":7965:7983   */\n      0x24\n      dup3\n      add\n        /* \"#utility.yul\":7958:7988   */\n      mstore\n        /* \"#utility.yul\":8024:8037   */\n      0x4e6f74206d616e61676572000000000000000000000000000000000000000000\n        /* \"#utility.yul\":8004:8022   */\n      0x44\n      dup3\n      add\n        /* \"#utility.yul\":7997:8038   */\n      mstore\n        /* \"#utility.yul\":8055:8073   */\n      0x64\n      add\n        /* \"CoinIdo.sol\":1690:1735  require(isManager[msg.sender], \"Not manager\") */\n      tag_143\n        /* \"#utility.yul\":7918:8079   */\n      jump\n        /* \"CoinIdo.sol\":1690:1735  require(isManager[msg.sender], \"Not manager\") */\n    tag_291:\n        /* \"CoinIdo.sol\":2387:2396  isOpenOne */\n      0x00\n        /* \"CoinIdo.sol\":2387:2402  isOpenOne=_flag */\n      dup1\n      sload\n      0xffffffffffffffffffffffffffffffffffffffffffffffffffffffffffffff00\n      and\n      swap2\n      iszero\n      iszero\n      swap2\n      swap1\n      swap2\n      or\n      swap1\n      sstore\n        /* \"CoinIdo.sol\":2325:2410  function openOpenOne(bool _flag) public onlyManager{\r... */\n      jump\t// out\n        /* \"CoinIdo.sol\":2651:2825  function setEndTime() public onlyOwner{\r... */\n    tag_81:\n        /* \"CoinIdo.sol\":1242:1249  address */\n      0x00\n        /* \"CoinIdo.sol\":1269:1275  _owner */\n      sload\n      0xffffffffffffffffffffffffffffffffffffffff\n      0x010000\n      swap1\n      swap2\n      div\n      and\n        /* \"CoinIdo.sol\":1340:1350  msg.sender */\n      caller\n        /* \"CoinIdo.sol\":1329:1350  owner() == msg.sender */\n      eq\n        /* \"CoinIdo.sol\":1321:1387  require(owner() == msg.sender, \"Ownable: caller is not the owner\") */\n      tag_296\n      jumpi\n      mload(0x40)\n      0x08c379a000000000000000000000000000000000000000000000000000000000\n      dup2\n      mstore\n        /* \"#utility.yul\":10398:10400   */\n      0x20\n        /* \"CoinIdo.sol\":1321:1387  require(owner() == msg.sender, \"Ownable: caller is not the owner\") */\n      0x04\n      dup3\n      add\n        /* \"#utility.yul\":10380:10401   */\n      dup2\n      swap1\n      mstore\n        /* \"#utility.yul\":10417:10435   */\n      0x24\n      dup3\n      add\n        /* \"#utility.yul\":10410:10440   */\n      mstore\n        /* \"#utility.yul\":10476:10510   */\n      0x4f776e61626c653a2063616c6c6572206973206e6f7420746865206f776e6572\n        /* \"#utility.yul\":10456:10474   */\n      0x44\n      dup3\n      add\n        /* \"#utility.yul\":10449:10511   */\n      mstore\n        /* \"#utility.yul\":10528:10546   */\n      0x64\n      add\n        /* \"CoinIdo.sol\":1321:1387  require(owner() == msg.sender, \"Ownable: caller is not the owner\") */\n      tag_143\n        /* \"#utility.yul\":10370:10552   */\n      jump\n        /* \"CoinIdo.sol\":1321:1387  require(owner() == msg.sender, \"Ownable: caller is not the owner\") */\n    tag_296:\n        /* \"CoinIdo.sol\":2708:2715  endTime */\n      sload(0x01)\n        /* \"CoinIdo.sol\":2708:2718  endTime==0 */\n      iszero\n        /* \"CoinIdo.sol\":2700:2735  require(endTime==0,\"time is exist\") */\n      tag_299\n      jumpi\n      mload(0x40)\n      0x08c379a000000000000000000000000000000000000000000000000000000000\n      dup2\n      mstore\n        /* \"#utility.yul\":9375:9377   */\n      0x20\n        /* \"CoinIdo.sol\":2700:2735  require(endTime==0,\"time is exist\") */\n      0x04\n      dup3\n      add\n        /* \"#utility.yul\":9357:9378   */\n      mstore\n        /* \"#utility.yul\":9414:9416   */\n      0x0d\n        /* \"#utility.yul\":9394:9412   */\n      0x24\n      dup3\n      add\n        /* \"#utility.yul\":9387:9417   */\n      mstore\n        /* \"#utility.yul\":9453:9468   */\n      0x74696d6520697320657869737400000000000000000000000000000000000000\n        /* \"#utility.yul\":9433:9451   */\n      0x44\n      dup3\n      add\n        /* \"#utility.yul\":9426:9469   */\n      mstore\n        /* \"#utility.yul\":9486:9504   */\n      0x64\n      add\n        /* \"CoinIdo.sol\":2700:2735  require(endTime==0,\"time is exist\") */\n      tag_143\n        /* \"#utility.yul\":9347:9510   */\n      jump\n        /* \"CoinIdo.sol\":2700:2735  require(endTime==0,\"time is exist\") */\n    tag_299:\n        /* \"CoinIdo.sol\":2756:2771  block.timestamp */\n      timestamp\n        /* \"CoinIdo.sol\":2746:2753  endTime */\n      0x01\n        /* \"CoinIdo.sol\":2746:2771  endTime = block.timestamp */\n      dup2\n      swap1\n      sstore\n        /* \"CoinIdo.sol\":2787:2817  SetEndTime(msg.sender,endTime) */\n      0x40\n      dup1\n      mload\n        /* \"CoinIdo.sol\":2798:2808  msg.sender */\n      caller\n        /* \"#utility.yul\":5403:5477   */\n      dup2\n      mstore\n        /* \"#utility.yul\":5508:5510   */\n      0x20\n        /* \"#utility.yul\":5493:5511   */\n      dup2\n      add\n        /* \"#utility.yul\":5486:5520   */\n      swap3\n      swap1\n      swap3\n      mstore\n        /* \"CoinIdo.sol\":2787:2817  SetEndTime(msg.sender,endTime) */\n      0x4100552e0c7d7733b482a8b5b352d5cf64221041a5cb5ad4f57474178741b69a\n      swap2\n        /* \"#utility.yul\":5376:5394   */\n      add\n        /* \"CoinIdo.sol\":2787:2817  SetEndTime(msg.sender,endTime) */\n      mload(0x40)\n      dup1\n      swap2\n      sub\n      swap1\n      log1\n        /* \"CoinIdo.sol\":2651:2825  function setEndTime() public onlyOwner{\r... */\n      jump\t// out\n        /* \"CoinIdo.sol\":4894:5166  function allowET(address _address)public{\r... */\n    tag_91:\n        /* \"CoinIdo.sol\":4948:4960  lb[_address] */\n      0xffffffffffffffffffffffffffffffffffffffff\n      dup2\n      and\n      0x00\n      swap1\n      dup2\n      mstore\n        /* \"CoinIdo.sol\":4948:4950  lb */\n      0x08\n        /* \"CoinIdo.sol\":4948:4960  lb[_address] */\n      0x20\n      mstore\n      0x40\n      swap1\n      keccak256\n        /* \"CoinIdo.sol\":4948:4967  lb[_address].length */\n      sload\n        /* \"CoinIdo.sol\":4945:5159  if(lb[_address].length==0){\r... */\n      tag_305\n      jumpi\n        /* \"CoinIdo.sol\":5006:5020  new bool[](16) */\n      0x40\n      dup1\n      mload\n        /* \"CoinIdo.sol\":5017:5019  16 */\n      0x10\n        /* \"CoinIdo.sol\":5006:5020  new bool[](16) */\n      dup1\n      dup3\n      mstore\n      0x0220\n      dup3\n      add\n      swap1\n      swap3\n      mstore\n        /* \"CoinIdo.sol\":4986:5003  bool[]memory islb */\n      0x00\n      swap2\n        /* \"CoinIdo.sol\":5006:5020  new bool[](16) */\n      0x20\n      dup3\n      add\n      0x0200\n      dup1\n      calldatasize\n      dup4\n      calldatacopy\n      add\n      swap1\n      pop\n      pop\n        /* \"CoinIdo.sol\":4986:5020  bool[]memory islb = new bool[](16) */\n      swap1\n      pop\n        /* \"CoinIdo.sol\":5039:5045  uint i */\n      0x00\n        /* \"CoinIdo.sol\":5035:5116  for(uint i=0; i<islb.length; i++){\r... */\n    tag_308:\n        /* \"CoinIdo.sol\":5051:5055  islb */\n      dup2\n        /* \"CoinIdo.sol\":5051:5062  islb.length */\n      mload\n        /* \"CoinIdo.sol\":5049:5050  i */\n      dup2\n        /* \"CoinIdo.sol\":5049:5062  i<islb.length */\n      lt\n        /* \"CoinIdo.sol\":5035:5116  for(uint i=0; i<islb.length; i++){\r... */\n      iszero\n      tag_309\n      jumpi\n        /* \"CoinIdo.sol\":5095:5100  false */\n      0x00\n        /* \"CoinIdo.sol\":5087:5091  islb */\n      dup3\n        /* \"CoinIdo.sol\":5092:5093  i */\n      dup3\n        /* \"CoinIdo.sol\":5087:5094  islb[i] */\n      dup2\n      mload\n      dup2\n      lt\n      tag_311\n      jumpi\n      mstore(0x00, 0x4e487b7100000000000000000000000000000000000000000000000000000000)\n      mstore(0x04, 0x32)\n      revert(0x00, 0x24)\n    tag_311:\n        /* \"CoinIdo.sol\":5087:5100  islb[i]=false */\n      swap2\n      iszero\n      iszero\n        /* \"CoinIdo.sol\":5087:5094  islb[i] */\n      0x20\n      swap3\n      dup4\n      mul\n      swap2\n      swap1\n      swap2\n      add\n      swap1\n      swap2\n      add\n        /* \"CoinIdo.sol\":5087:5100  islb[i]=false */\n      mstore\n        /* \"CoinIdo.sol\":5064:5067  i++ */\n      dup1\n      tag_312\n      dup2\n      tag_239\n      jump\t// in\n    tag_312:\n      swap2\n      pop\n      pop\n        /* \"CoinIdo.sol\":5035:5116  for(uint i=0; i<islb.length; i++){\r... */\n      jump(tag_308)\n    tag_309:\n      pop\n        /* \"CoinIdo.sol\":5130:5142  lb[_address] */\n      0xffffffffffffffffffffffffffffffffffffffff\n      dup3\n      and\n      0x00\n      swap1\n      dup2\n      mstore\n        /* \"CoinIdo.sol\":5130:5132  lb */\n      0x08\n        /* \"CoinIdo.sol\":5130:5142  lb[_address] */\n      0x20\n      swap1\n      dup2\n      mstore\n      0x40\n      swap1\n      swap2\n      keccak256\n        /* \"CoinIdo.sol\":5130:5147  lb[_address]=islb */\n      dup3\n      mload\n      tag_313\n      swap3\n      dup5\n      add\n      swap1\n      tag_314\n      jump\t// in\n    tag_313:\n      pop\n        /* \"CoinIdo.sol\":4945:5159  if(lb[_address].length==0){\r... */\n      pop\n    tag_305:\n        /* \"CoinIdo.sol\":4894:5166  function allowET(address _address)public{\r... */\n      pop\n      jump\t// out\n        /* \"CoinIdo.sol\":2220:2319  function setETCoin(address _address) public onlyManager{\r... */\n    tag_94:\n        /* \"CoinIdo.sol\":1708:1718  msg.sender */\n      caller\n        /* \"CoinIdo.sol\":1698:1719  isManager[msg.sender] */\n      0x00\n      swap1\n      dup2\n      mstore\n        /* \"CoinIdo.sol\":1698:1707  isManager */\n      0x03\n        /* \"CoinIdo.sol\":1698:1719  isManager[msg.sender] */\n      0x20\n      mstore\n      0x40\n      swap1\n      keccak256\n      sload\n      0xff\n      and\n        /* \"CoinIdo.sol\":1690:1735  require(isManager[msg.sender], \"Not manager\") */\n      tag_316\n      jumpi\n      mload(0x40)\n      0x08c379a000000000000000000000000000000000000000000000000000000000\n      dup2\n      mstore\n        /* \"#utility.yul\":7946:7948   */\n      0x20\n        /* \"CoinIdo.sol\":1690:1735  require(isManager[msg.sender], \"Not manager\") */\n      0x04\n      dup3\n      add\n        /* \"#utility.yul\":7928:7949   */\n      mstore\n        /* \"#utility.yul\":7985:7987   */\n      0x0b\n        /* \"#utility.yul\":7965:7983   */\n      0x24\n      dup3\n      add\n        /* \"#utility.yul\":7958:7988   */\n      mstore\n        /* \"#utility.yul\":8024:8037   */\n      0x4e6f74206d616e61676572000000000000000000000000000000000000000000\n        /* \"#utility.yul\":8004:8022   */\n      0x44\n      dup3\n      add\n        /* \"#utility.yul\":7997:8038   */\n      mstore\n        /* \"#utility.yul\":8055:8073   */\n      0x64\n      add\n        /* \"CoinIdo.sol\":1690:1735  require(isManager[msg.sender], \"Not manager\") */\n      tag_143\n        /* \"#utility.yul\":7918:8079   */\n      jump\n        /* \"CoinIdo.sol\":1690:1735  require(isManager[msg.sender], \"Not manager\") */\n    tag_316:\n        /* \"CoinIdo.sol\":2286:2292  etCoin */\n      0x07\n        /* \"CoinIdo.sol\":2286:2311  etCoin = IERC20(_address) */\n      dup1\n      sload\n      0xffffffffffffffffffffffff0000000000000000000000000000000000000000\n      and\n      0xffffffffffffffffffffffffffffffffffffffff\n      swap3\n      swap1\n      swap3\n      and\n      swap2\n      swap1\n      swap2\n      or\n      swap1\n      sstore\n        /* \"CoinIdo.sol\":2220:2319  function setETCoin(address _address) public onlyManager{\r... */\n      jump\t// out\n        /* \"CoinIdo.sol\":1482:1650  function setManager(address _manager, bool _flag) public onlyOwner {\r... */\n    tag_102:\n        /* \"CoinIdo.sol\":1242:1249  address */\n      0x00\n        /* \"CoinIdo.sol\":1269:1275  _owner */\n      sload\n      0xffffffffffffffffffffffffffffffffffffffff\n      0x010000\n      swap1\n      swap2\n      div\n      and\n        /* \"CoinIdo.sol\":1340:1350  msg.sender */\n      caller\n        /* \"CoinIdo.sol\":1329:1350  owner() == msg.sender */\n      eq\n        /* \"CoinIdo.sol\":1321:1387  require(owner() == msg.sender, \"Ownable: caller is not the owner\") */\n      tag_321\n      jumpi\n      mload(0x40)\n      0x08c379a000000000000000000000000000000000000000000000000000000000\n      dup2\n      mstore\n        /* \"#utility.yul\":10398:10400   */\n      0x20\n        /* \"CoinIdo.sol\":1321:1387  require(owner() == msg.sender, \"Ownable: caller is not the owner\") */\n      0x04\n      dup3\n      add\n        /* \"#utility.yul\":10380:10401   */\n      dup2\n      swap1\n      mstore\n        /* \"#utility.yul\":10417:10435   */\n      0x24\n      dup3\n      add\n        /* \"#utility.yul\":10410:10440   */\n      mstore\n        /* \"#utility.yul\":10476:10510   */\n      0x4f776e61626c653a2063616c6c6572206973206e6f7420746865206f776e6572\n        /* \"#utility.yul\":10456:10474   */\n      0x44\n      dup3\n      add\n        /* \"#utility.yul\":10449:10511   */\n      mstore\n        /* \"#utility.yul\":10528:10546   */\n      0x64\n      add\n        /* \"CoinIdo.sol\":1321:1387  require(owner() == msg.sender, \"Ownable: caller is not the owner\") */\n      tag_143\n        /* \"#utility.yul\":10370:10552   */\n      jump\n        /* \"CoinIdo.sol\":1321:1387  require(owner() == msg.sender, \"Ownable: caller is not the owner\") */\n    tag_321:\n        /* \"CoinIdo.sol\":1560:1579  isManager[_manager] */\n      0xffffffffffffffffffffffffffffffffffffffff\n      dup3\n      and\n      0x00\n      dup2\n      dup2\n      mstore\n        /* \"CoinIdo.sol\":1560:1569  isManager */\n      0x03\n        /* \"CoinIdo.sol\":1560:1579  isManager[_manager] */\n      0x20\n      swap1\n      dup2\n      mstore\n      0x40\n      swap2\n      dup3\n      swap1\n      keccak256\n        /* \"CoinIdo.sol\":1560:1587  isManager[_manager] = _flag */\n      dup1\n      sload\n      0xffffffffffffffffffffffffffffffffffffffffffffffffffffffffffffff00\n      and\n      dup6\n      iszero\n      iszero\n      swap1\n      dup2\n      or\n      swap1\n      swap2\n      sstore\n        /* \"CoinIdo.sol\":1603:1642  SetManager(msg.sender, _manager, _flag) */\n      dup3\n      mload\n        /* \"CoinIdo.sol\":1614:1624  msg.sender */\n      caller\n        /* \"#utility.yul\":4670:4704   */\n      dup2\n      mstore\n        /* \"#utility.yul\":4720:4738   */\n      swap2\n      dup3\n      add\n        /* \"#utility.yul\":4713:4756   */\n      swap4\n      swap1\n      swap4\n      mstore\n        /* \"#utility.yul\":4772:4790   */\n      swap1\n      dup2\n      add\n        /* \"#utility.yul\":4765:4815   */\n      swap2\n      swap1\n      swap2\n      mstore\n        /* \"CoinIdo.sol\":1603:1642  SetManager(msg.sender, _manager, _flag) */\n      0x2862b022f51ffee932517d924c5103b3267a9d5d1f21bec54356e328aac24c18\n      swap1\n        /* \"#utility.yul\":4597:4599   */\n      0x60\n        /* \"#utility.yul\":4582:4600   */\n      add\n        /* \"CoinIdo.sol\":1603:1642  SetManager(msg.sender, _manager, _flag) */\n      tag_240\n        /* \"#utility.yul\":4564:4821   */\n      jump\n        /* \"CoinIdo.sol\":2416:2501  function openOpenTwo(bool _flag) public onlyManager{\r... */\n    tag_108:\n        /* \"CoinIdo.sol\":1708:1718  msg.sender */\n      caller\n        /* \"CoinIdo.sol\":1698:1719  isManager[msg.sender] */\n      0x00\n      swap1\n      dup2\n      mstore\n        /* \"CoinIdo.sol\":1698:1707  isManager */\n      0x03\n        /* \"CoinIdo.sol\":1698:1719  isManager[msg.sender] */\n      0x20\n      mstore\n      0x40\n      swap1\n      keccak256\n      sload\n      0xff\n      and\n        /* \"CoinIdo.sol\":1690:1735  require(isManager[msg.sender], \"Not manager\") */\n      tag_327\n      jumpi\n      mload(0x40)\n      0x08c379a000000000000000000000000000000000000000000000000000000000\n      dup2\n      mstore\n        /* \"#utility.yul\":7946:7948   */\n      0x20\n        /* \"CoinIdo.sol\":1690:1735  require(isManager[msg.sender], \"Not manager\") */\n      0x04\n      dup3\n      add\n        /* \"#utility.yul\":7928:7949   */\n      mstore\n        /* \"#utility.yul\":7985:7987   */\n      0x0b\n        /* \"#utility.yul\":7965:7983   */\n      0x24\n      dup3\n      add\n        /* \"#utility.yul\":7958:7988   */\n      mstore\n        /* \"#utility.yul\":8024:8037   */\n      0x4e6f74206d616e61676572000000000000000000000000000000000000000000\n        /* \"#utility.yul\":8004:8022   */\n      0x44\n      dup3\n      add\n        /* \"#utility.yul\":7997:8038   */\n      mstore\n        /* \"#utility.yul\":8055:8073   */\n      0x64\n      add\n        /* \"CoinIdo.sol\":1690:1735  require(isManager[msg.sender], \"Not manager\") */\n      tag_143\n        /* \"#utility.yul\":7918:8079   */\n      jump\n        /* \"CoinIdo.sol\":1690:1735  require(isManager[msg.sender], \"Not manager\") */\n    tag_327:\n        /* \"CoinIdo.sol\":2478:2487  isOpenTwo */\n      0x00\n        /* \"CoinIdo.sol\":2478:2493  isOpenTwo=_flag */\n      dup1\n      sload\n      swap2\n      iszero\n      iszero\n      0x0100\n      mul\n      0xffffffffffffffffffffffffffffffffffffffffffffffffffffffffffff00ff\n      swap1\n      swap3\n      and\n      swap2\n      swap1\n      swap2\n      or\n      swap1\n      sstore\n        /* \"CoinIdo.sol\":2416:2501  function openOpenTwo(bool _flag) public onlyManager{\r... */\n      jump\t// out\n        /* \"CoinIdo.sol\":588:622  mapping(address=>bool[]) public lb */\n    tag_115:\n      mstore(0x20, 0x08)\n      dup2\n      0x00\n      mstore\n      keccak256(0x00, 0x40)\n      dup2\n      dup2\n      sload\n      dup2\n      lt\n      tag_330\n      jumpi\n      0x00\n      dup1\n      revert\n    tag_330:\n      swap1\n      0x00\n      mstore\n      keccak256(0x00, 0x20)\n      swap1\n      0x20\n      swap2\n      dup3\n      dup3\n      div\n      add\n      swap2\n      swap1\n      mod\n      swap2\n      pop\n      swap2\n      pop\n      swap1\n      sload\n      swap1\n      0x0100\n      exp\n      swap1\n      div\n      0xff\n      and\n      dup2\n      jump\t// out\n        /* \"CoinIdo.sol\":6113:6771  function getWithDraw()public view returns(uint){\r... */\n    tag_122:\n        /* \"CoinIdo.sol\":6187:6197  msg.sender */\n      caller\n        /* \"CoinIdo.sol\":6155:6159  uint */\n      0x00\n        /* \"CoinIdo.sol\":6179:6198  userIDO[msg.sender] */\n      swap1\n      dup2\n      mstore\n        /* \"CoinIdo.sol\":6179:6186  userIDO */\n      0x0a\n        /* \"CoinIdo.sol\":6179:6198  userIDO[msg.sender] */\n      0x20\n      mstore\n      0x40\n      dup2\n      keccak256\n      sload\n        /* \"CoinIdo.sol\":6171:6213  require(userIDO[msg.sender]>0,\"not allow\") */\n      tag_333\n      jumpi\n      mload(0x40)\n      0x08c379a000000000000000000000000000000000000000000000000000000000\n      dup2\n      mstore\n        /* \"#utility.yul\":10061:10063   */\n      0x20\n        /* \"CoinIdo.sol\":6171:6213  require(userIDO[msg.sender]>0,\"not allow\") */\n      0x04\n      dup3\n      add\n        /* \"#utility.yul\":10043:10064   */\n      mstore\n        /* \"#utility.yul\":10100:10101   */\n      0x09\n        /* \"#utility.yul\":10080:10098   */\n      0x24\n      dup3\n      add\n        /* \"#utility.yul\":10073:10102   */\n      mstore\n        /* \"#utility.yul\":10138:10149   */\n      0x6e6f7420616c6c6f770000000000000000000000000000000000000000000000\n        /* \"#utility.yul\":10118:10136   */\n      0x44\n      dup3\n      add\n        /* \"#utility.yul\":10111:10150   */\n      mstore\n        /* \"#utility.yul\":10167:10185   */\n      0x64\n      add\n        /* \"CoinIdo.sol\":6171:6213  require(userIDO[msg.sender]>0,\"not allow\") */\n      tag_143\n        /* \"#utility.yul\":10033:10191   */\n      jump\n        /* \"CoinIdo.sol\":6171:6213  require(userIDO[msg.sender]>0,\"not allow\") */\n    tag_333:\n        /* \"CoinIdo.sol\":6240:6241  0 */\n      0x00\n        /* \"CoinIdo.sol\":6232:6239  endTime */\n      sload(0x01)\n        /* \"CoinIdo.sol\":6232:6241  endTime>0 */\n      gt\n        /* \"CoinIdo.sol\":6224:6251  require(endTime>0,\"not ET\") */\n      tag_335\n      jumpi\n      mload(0x40)\n      0x08c379a000000000000000000000000000000000000000000000000000000000\n      dup2\n      mstore\n        /* \"#utility.yul\":8693:8695   */\n      0x20\n        /* \"CoinIdo.sol\":6224:6251  require(endTime>0,\"not ET\") */\n      0x04\n      dup3\n      add\n        /* \"#utility.yul\":8675:8696   */\n      mstore\n        /* \"#utility.yul\":8732:8733   */\n      0x06\n        /* \"#utility.yul\":8712:8730   */\n      0x24\n      dup3\n      add\n        /* \"#utility.yul\":8705:8734   */\n      mstore\n        /* \"#utility.yul\":8770:8778   */\n      0x6e6f742045540000000000000000000000000000000000000000000000000000\n        /* \"#utility.yul\":8750:8768   */\n      0x44\n      dup3\n      add\n        /* \"#utility.yul\":8743:8779   */\n      mstore\n        /* \"#utility.yul\":8796:8814   */\n      0x64\n      add\n        /* \"CoinIdo.sol\":6224:6251  require(endTime>0,\"not ET\") */\n      tag_143\n        /* \"#utility.yul\":8665:8820   */\n      jump\n        /* \"CoinIdo.sol\":6224:6251  require(endTime>0,\"not ET\") */\n    tag_335:\n        /* \"CoinIdo.sol\":6262:6273  uint amount */\n      0x00\n        /* \"CoinIdo.sol\":6284:6301  uint intervalTime */\n      dup1\n        /* \"CoinIdo.sol\":6321:6328  endTime */\n      sload(0x01)\n        /* \"CoinIdo.sol\":6304:6319  block.timestamp */\n      timestamp\n        /* \"CoinIdo.sol\":6304:6328  block.timestamp -endTime */\n      tag_337\n      swap2\n      swap1\n      tag_176\n      jump\t// in\n    tag_337:\n        /* \"CoinIdo.sol\":6284:6328  uint intervalTime = block.timestamp -endTime */\n      swap1\n      pop\n        /* \"CoinIdo.sol\":6339:6347  uint day */\n      0x00\n        /* \"CoinIdo.sol\":6350:6368  intervalTime/86400 */\n      tag_338\n        /* \"CoinIdo.sol\":6363:6368  86400 */\n      0x015180\n        /* \"CoinIdo.sol\":6284:6328  uint intervalTime = block.timestamp -endTime */\n      dup4\n        /* \"CoinIdo.sol\":6350:6368  intervalTime/86400 */\n      tag_167\n      jump\t// in\n    tag_338:\n        /* \"CoinIdo.sol\":6400:6410  msg.sender */\n      caller\n        /* \"CoinIdo.sol\":6379:6389  uint allET */\n      0x00\n        /* \"CoinIdo.sol\":6392:6411  userIDO[msg.sender] */\n      swap1\n      dup2\n      mstore\n        /* \"CoinIdo.sol\":6392:6399  userIDO */\n      0x0a\n        /* \"CoinIdo.sol\":6392:6411  userIDO[msg.sender] */\n      0x20\n      mstore\n      0x40\n      dup2\n      keccak256\n      sload\n        /* \"CoinIdo.sol\":6339:6368  uint day = intervalTime/86400 */\n      swap2\n      swap3\n      pop\n        /* \"CoinIdo.sol\":6379:6389  uint allET */\n      swap1\n        /* \"CoinIdo.sol\":6417:6420  120 */\n      0x78\n      swap1\n        /* \"CoinIdo.sol\":6392:6416  userIDO[msg.sender]*2600 */\n      tag_339\n      swap1\n        /* \"CoinIdo.sol\":6412:6416  2600 */\n      0x0a28\n        /* \"CoinIdo.sol\":6392:6416  userIDO[msg.sender]*2600 */\n      tag_149\n      jump\t// in\n    tag_339:\n        /* \"CoinIdo.sol\":6392:6420  userIDO[msg.sender]*2600/120 */\n      tag_340\n      swap2\n      swap1\n      tag_167\n      jump\t// in\n    tag_340:\n        /* \"CoinIdo.sol\":6379:6420  uint allET = userIDO[msg.sender]*2600/120 */\n      swap1\n      pop\n        /* \"CoinIdo.sol\":6439:6440  1 */\n      0x01\n        /* \"CoinIdo.sol\":6434:6437  day */\n      dup3\n        /* \"CoinIdo.sol\":6434:6440  day>=1 */\n      lt\n      iszero\n        /* \"CoinIdo.sol\":6434:6462  day>=1 && !lb[msg.sender][0] */\n      dup1\n      iszero\n      tag_341\n      jumpi\n      pop\n        /* \"CoinIdo.sol\":6448:6458  msg.sender */\n      caller\n        /* \"CoinIdo.sol\":6445:6459  lb[msg.sender] */\n      0x00\n      swap1\n      dup2\n      mstore\n        /* \"CoinIdo.sol\":6445:6447  lb */\n      0x08\n        /* \"CoinIdo.sol\":6445:6459  lb[msg.sender] */\n      0x20\n      mstore\n      0x40\n      dup2\n      keccak256\n        /* \"CoinIdo.sol\":6445:6462  lb[msg.sender][0] */\n      dup1\n      sload\n        /* \"CoinIdo.sol\":6445:6459  lb[msg.sender] */\n      swap1\n      swap2\n      swap1\n        /* \"CoinIdo.sol\":6445:6462  lb[msg.sender][0] */\n      tag_342\n      jumpi\n      mstore(0x00, 0x4e487b7100000000000000000000000000000000000000000000000000000000)\n      mstore(0x04, 0x32)\n      revert(0x00, 0x24)\n    tag_342:\n      swap1\n      0x00\n      mstore\n      keccak256(0x00, 0x20)\n      swap1\n      0x20\n      swap2\n      dup3\n      dup3\n      div\n      add\n      swap2\n      swap1\n      mod\n      swap1\n      sload\n      swap1\n      0x0100\n      exp\n      swap1\n      div\n      0xff\n      and\n        /* \"CoinIdo.sol\":6444:6462  !lb[msg.sender][0] */\n      iszero\n        /* \"CoinIdo.sol\":6434:6462  day>=1 && !lb[msg.sender][0] */\n    tag_341:\n        /* \"CoinIdo.sol\":6431:6515  if(day>=1 && !lb[msg.sender][0]){\r... */\n      iszero\n      tag_344\n      jumpi\n        /* \"CoinIdo.sol\":6498:6503  10000 */\n      0x2710\n        /* \"CoinIdo.sol\":6487:6497  allET*1000 */\n      tag_345\n        /* \"CoinIdo.sol\":6487:6492  allET */\n      dup3\n        /* \"CoinIdo.sol\":6493:6497  1000 */\n      0x03e8\n        /* \"CoinIdo.sol\":6487:6497  allET*1000 */\n      tag_149\n      jump\t// in\n    tag_345:\n        /* \"CoinIdo.sol\":6487:6503  allET*1000/10000 */\n      tag_346\n      swap2\n      swap1\n      tag_167\n      jump\t// in\n    tag_346:\n        /* \"CoinIdo.sol\":6478:6503  amount = allET*1000/10000 */\n      swap4\n      pop\n        /* \"CoinIdo.sol\":6431:6515  if(day>=1 && !lb[msg.sender][0]){\r... */\n    tag_344:\n        /* \"CoinIdo.sol\":6525:6534  uint item */\n      0x00\n        /* \"CoinIdo.sol\":6545:6547  30 */\n      0x1e\n        /* \"CoinIdo.sol\":6538:6543  day-1 */\n      tag_347\n        /* \"CoinIdo.sol\":6542:6543  1 */\n      0x01\n        /* \"CoinIdo.sol\":6538:6541  day */\n      dup6\n        /* \"CoinIdo.sol\":6538:6543  day-1 */\n      tag_176\n      jump\t// in\n    tag_347:\n        /* \"CoinIdo.sol\":6537:6547  (day-1)/30 */\n      tag_348\n      swap2\n      swap1\n      tag_167\n      jump\t// in\n    tag_348:\n        /* \"CoinIdo.sol\":6525:6547  uint item = (day-1)/30 */\n      swap1\n      pop\n        /* \"CoinIdo.sol\":6568:6570  15 */\n      0x0f\n        /* \"CoinIdo.sol\":6563:6567  item */\n      dup2\n        /* \"CoinIdo.sol\":6563:6570  item>15 */\n      gt\n        /* \"CoinIdo.sol\":6563:6578  item>15?15:item */\n      tag_349\n      jumpi\n        /* \"CoinIdo.sol\":6574:6578  item */\n      dup1\n        /* \"CoinIdo.sol\":6563:6578  item>15?15:item */\n      jump(tag_350)\n    tag_349:\n        /* \"CoinIdo.sol\":6571:6573  15 */\n      0x0f\n        /* \"CoinIdo.sol\":6563:6578  item>15?15:item */\n    tag_350:\n        /* \"CoinIdo.sol\":6558:6578  item=item>15?15:item */\n      swap1\n      pop\n        /* \"CoinIdo.sol\":6608:6609  1 */\n      0x01\n        /* \"CoinIdo.sol\":6597:6740  for(uint i=1; i<=item; i++){\r... */\n    tag_351:\n        /* \"CoinIdo.sol\":6614:6618  item */\n      dup2\n        /* \"CoinIdo.sol\":6611:6612  i */\n      dup2\n        /* \"CoinIdo.sol\":6611:6618  i<=item */\n      gt\n        /* \"CoinIdo.sol\":6597:6740  for(uint i=1; i<=item; i++){\r... */\n      tag_352\n      jumpi\n        /* \"CoinIdo.sol\":6646:6656  msg.sender */\n      caller\n        /* \"CoinIdo.sol\":6643:6657  lb[msg.sender] */\n      0x00\n      swap1\n      dup2\n      mstore\n        /* \"CoinIdo.sol\":6643:6645  lb */\n      0x08\n        /* \"CoinIdo.sol\":6643:6657  lb[msg.sender] */\n      0x20\n      mstore\n      0x40\n      swap1\n      keccak256\n        /* \"CoinIdo.sol\":6643:6660  lb[msg.sender][i] */\n      dup1\n      sload\n        /* \"CoinIdo.sol\":6658:6659  i */\n      dup3\n      swap1\n        /* \"CoinIdo.sol\":6643:6660  lb[msg.sender][i] */\n      dup2\n      lt\n      tag_354\n      jumpi\n      mstore(0x00, 0x4e487b7100000000000000000000000000000000000000000000000000000000)\n      mstore(0x04, 0x32)\n      revert(0x00, 0x24)\n    tag_354:\n      swap1\n      0x00\n      mstore\n      keccak256(0x00, 0x20)\n      swap1\n      0x20\n      swap2\n      dup3\n      dup3\n      div\n      add\n      swap2\n      swap1\n      mod\n      swap1\n      sload\n      swap1\n      0x0100\n      exp\n      swap1\n      div\n      0xff\n      and\n        /* \"CoinIdo.sol\":6639:6729  if(!lb[msg.sender][i]){\r... */\n      tag_356\n      jumpi\n        /* \"CoinIdo.sol\":6708:6713  10000 */\n      0x2710\n        /* \"CoinIdo.sol\":6698:6707  allET*600 */\n      tag_357\n        /* \"CoinIdo.sol\":6698:6703  allET */\n      dup5\n        /* \"CoinIdo.sol\":6704:6707  600 */\n      0x0258\n        /* \"CoinIdo.sol\":6698:6707  allET*600 */\n      tag_149\n      jump\t// in\n    tag_357:\n        /* \"CoinIdo.sol\":6698:6713  allET*600/10000 */\n      tag_358\n      swap2\n      swap1\n      tag_167\n      jump\t// in\n    tag_358:\n        /* \"CoinIdo.sol\":6689:6713  amount + allET*600/10000 */\n      tag_359\n      swap1\n        /* \"CoinIdo.sol\":6689:6695  amount */\n      dup8\n        /* \"CoinIdo.sol\":6689:6713  amount + allET*600/10000 */\n      tag_153\n      jump\t// in\n    tag_359:\n        /* \"CoinIdo.sol\":6680:6713  amount = amount + allET*600/10000 */\n      swap6\n      pop\n        /* \"CoinIdo.sol\":6639:6729  if(!lb[msg.sender][i]){\r... */\n    tag_356:\n        /* \"CoinIdo.sol\":6620:6623  i++ */\n      dup1\n      tag_360\n      dup2\n      tag_239\n      jump\t// in\n    tag_360:\n      swap2\n      pop\n      pop\n        /* \"CoinIdo.sol\":6597:6740  for(uint i=1; i<=item; i++){\r... */\n      jump(tag_351)\n    tag_352:\n      pop\n        /* \"CoinIdo.sol\":6757:6763  amount */\n      swap4\n      swap6\n        /* \"CoinIdo.sol\":6113:6771  function getWithDraw()public view returns(uint){\r... */\n      swap5\n      pop\n      pop\n      pop\n      pop\n      pop\n      jump\t// out\n        /* \"CoinIdo.sol\":1835:2109  function transferOwnership(address newOwner) public onlyOwner {\r... */\n    tag_130:\n        /* \"CoinIdo.sol\":1242:1249  address */\n      0x00\n        /* \"CoinIdo.sol\":1269:1275  _owner */\n      sload\n      0xffffffffffffffffffffffffffffffffffffffff\n      0x010000\n      swap1\n      swap2\n      div\n      and\n        /* \"CoinIdo.sol\":1340:1350  msg.sender */\n      caller\n        /* \"CoinIdo.sol\":1329:1350  owner() == msg.sender */\n      eq\n        /* \"CoinIdo.sol\":1321:1387  require(owner() == msg.sender, \"Ownable: caller is not the owner\") */\n      tag_363\n      jumpi\n      mload(0x40)\n      0x08c379a000000000000000000000000000000000000000000000000000000000\n      dup2\n      mstore\n        /* \"#utility.yul\":10398:10400   */\n      0x20\n        /* \"CoinIdo.sol\":1321:1387  require(owner() == msg.sender, \"Ownable: caller is not the owner\") */\n      0x04\n      dup3\n      add\n        /* \"#utility.yul\":10380:10401   */\n      dup2\n      swap1\n      mstore\n        /* \"#utility.yul\":10417:10435   */\n      0x24\n      dup3\n      add\n        /* \"#utility.yul\":10410:10440   */\n      mstore\n        /* \"#utility.yul\":10476:10510   */\n      0x4f776e61626c653a2063616c6c6572206973206e6f7420746865206f776e6572\n        /* \"#utility.yul\":10456:10474   */\n      0x44\n      dup3\n      add\n        /* \"#utility.yul\":10449:10511   */\n      mstore\n        /* \"#utility.yul\":10528:10546   */\n      0x64\n      add\n        /* \"CoinIdo.sol\":1321:1387  require(owner() == msg.sender, \"Ownable: caller is not the owner\") */\n      tag_143\n        /* \"#utility.yul\":10370:10552   */\n      jump\n        /* \"CoinIdo.sol\":1321:1387  require(owner() == msg.sender, \"Ownable: caller is not the owner\") */\n    tag_363:\n        /* \"CoinIdo.sol\":1916:1938  newOwner != address(0) */\n      0xffffffffffffffffffffffffffffffffffffffff\n      dup2\n      and\n        /* \"CoinIdo.sol\":1908:1981  require(newOwner != address(0), \"Ownable: new owner is the zero address\") */\n      tag_366\n      jumpi\n      mload(0x40)\n      0x08c379a000000000000000000000000000000000000000000000000000000000\n      dup2\n      mstore\n        /* \"#utility.yul\":8286:8288   */\n      0x20\n        /* \"CoinIdo.sol\":1908:1981  require(newOwner != address(0), \"Ownable: new owner is the zero address\") */\n      0x04\n      dup3\n      add\n        /* \"#utility.yul\":8268:8289   */\n      mstore\n        /* \"#utility.yul\":8325:8327   */\n      0x26\n        /* \"#utility.yul\":8305:8323   */\n      0x24\n      dup3\n      add\n        /* \"#utility.yul\":8298:8328   */\n      mstore\n        /* \"#utility.yul\":8364:8398   */\n      0x4f776e61626c653a206e6577206f776e657220697320746865207a65726f2061\n        /* \"#utility.yul\":8344:8362   */\n      0x44\n      dup3\n      add\n        /* \"#utility.yul\":8337:8399   */\n      mstore\n        /* \"#utility.yul\":8435:8443   */\n      0x6464726573730000000000000000000000000000000000000000000000000000\n        /* \"#utility.yul\":8415:8433   */\n      0x64\n      dup3\n      add\n        /* \"#utility.yul\":8408:8444   */\n      mstore\n        /* \"#utility.yul\":8461:8480   */\n      0x84\n      add\n        /* \"CoinIdo.sol\":1908:1981  require(newOwner != address(0), \"Ownable: new owner is the zero address\") */\n      tag_143\n        /* \"#utility.yul\":8258:8486   */\n      jump\n        /* \"CoinIdo.sol\":1908:1981  require(newOwner != address(0), \"Ownable: new owner is the zero address\") */\n    tag_366:\n        /* \"CoinIdo.sol\":1992:2008  address oldOwner */\n      0x00\n        /* \"CoinIdo.sol\":2011:2017  _owner */\n      dup1\n      sload\n      0xffffffffffffffffffffffffffffffffffffffff\n        /* \"CoinIdo.sol\":2028:2045  _owner = newOwner */\n      dup4\n      dup2\n      and\n        /* \"CoinIdo.sol\":2011:2017  _owner */\n      0x010000\n        /* \"CoinIdo.sol\":2028:2045  _owner = newOwner */\n      dup2\n      dup2\n      mul\n      0xffffffffffffffffffff0000000000000000000000000000000000000000ffff\n      dup6\n      and\n      or\n      swap1\n      swap5\n      sstore\n        /* \"CoinIdo.sol\":2061:2101  OwnershipTransferred(oldOwner, newOwner) */\n      0x40\n      dup1\n      mload\n        /* \"CoinIdo.sol\":2011:2017  _owner */\n      swap5\n      swap1\n      swap4\n      div\n      swap1\n      swap2\n      and\n        /* \"#utility.yul\":4316:4350   */\n      dup1\n      dup5\n      mstore\n        /* \"#utility.yul\":4381:4383   */\n      0x20\n        /* \"#utility.yul\":4366:4384   */\n      dup5\n      add\n        /* \"#utility.yul\":4359:4402   */\n      swap2\n      swap1\n      swap2\n      mstore\n        /* \"CoinIdo.sol\":2011:2017  _owner */\n      swap2\n        /* \"CoinIdo.sol\":2061:2101  OwnershipTransferred(oldOwner, newOwner) */\n      0x8be0079c531659141344cd1fd0a4f28419497f9722a3daafe3b4186f6b6457e0\n      swap2\n        /* \"#utility.yul\":4228:4246   */\n      add\n        /* \"CoinIdo.sol\":2061:2101  OwnershipTransferred(oldOwner, newOwner) */\n      tag_240\n        /* \"#utility.yul\":4210:4408   */\n      jump\n        /* \"CoinIdo.sol\":2119:2214  function setNFT(address _address) public onlyManager{\r... */\n    tag_137:\n        /* \"CoinIdo.sol\":1708:1718  msg.sender */\n      caller\n        /* \"CoinIdo.sol\":1698:1719  isManager[msg.sender] */\n      0x00\n      swap1\n      dup2\n      mstore\n        /* \"CoinIdo.sol\":1698:1707  isManager */\n      0x03\n        /* \"CoinIdo.sol\":1698:1719  isManager[msg.sender] */\n      0x20\n      mstore\n      0x40\n      swap1\n      keccak256\n      sload\n      0xff\n      and\n        /* \"CoinIdo.sol\":1690:1735  require(isManager[msg.sender], \"Not manager\") */\n      tag_372\n      jumpi\n      mload(0x40)\n      0x08c379a000000000000000000000000000000000000000000000000000000000\n      dup2\n      mstore\n        /* \"#utility.yul\":7946:7948   */\n      0x20\n        /* \"CoinIdo.sol\":1690:1735  require(isManager[msg.sender], \"Not manager\") */\n      0x04\n      dup3\n      add\n        /* \"#utility.yul\":7928:7949   */\n      mstore\n        /* \"#utility.yul\":7985:7987   */\n      0x0b\n        /* \"#utility.yul\":7965:7983   */\n      0x24\n      dup3\n      add\n        /* \"#utility.yul\":7958:7988   */\n      mstore\n        /* \"#utility.yul\":8024:8037   */\n      0x4e6f74206d616e61676572000000000000000000000000000000000000000000\n        /* \"#utility.yul\":8004:8022   */\n      0x44\n      dup3\n      add\n        /* \"#utility.yul\":7997:8038   */\n      mstore\n        /* \"#utility.yul\":8055:8073   */\n      0x64\n      add\n        /* \"CoinIdo.sol\":1690:1735  require(isManager[msg.sender], \"Not manager\") */\n      tag_143\n        /* \"#utility.yul\":7918:8079   */\n      jump\n        /* \"CoinIdo.sol\":1690:1735  require(isManager[msg.sender], \"Not manager\") */\n    tag_372:\n        /* \"CoinIdo.sol\":2182:2187  etNft */\n      0x06\n        /* \"CoinIdo.sol\":2182:2206  etNft = IETNFT(_address) */\n      dup1\n      sload\n      0xffffffffffffffffffffffff0000000000000000000000000000000000000000\n      and\n      0xffffffffffffffffffffffffffffffffffffffff\n      swap3\n      swap1\n      swap3\n      and\n      swap2\n      swap1\n      swap2\n      or\n      swap1\n      sstore\n        /* \"CoinIdo.sol\":2119:2214  function setNFT(address _address) public onlyManager{\r... */\n      jump\t// out\n    tag_314:\n      dup3\n      dup1\n      sload\n      dup3\n      dup3\n      sstore\n      swap1\n      0x00\n      mstore\n      keccak256(0x00, 0x20)\n      swap1\n      0x1f\n      add\n      0x20\n      swap1\n      div\n      dup2\n      add\n      swap3\n      dup3\n      iszero\n      tag_375\n      jumpi\n      swap2\n      0x20\n      mul\n      dup3\n      add\n      0x00\n    tag_376:\n      dup4\n      dup3\n      gt\n      iszero\n      tag_377\n      jumpi\n      dup4\n      mload\n      dup4\n      dup3\n      0x0100\n      exp\n      dup2\n      sload\n      dup2\n      0xff\n      mul\n      not\n      and\n      swap1\n      dup4\n      iszero\n      iszero\n      mul\n      or\n      swap1\n      sstore\n      pop\n      swap3\n      0x20\n      add\n      swap3\n      0x01\n      add\n      0x20\n      dup2\n      0x00\n      add\n      div\n      swap3\n      dup4\n      add\n      swap3\n      0x01\n      sub\n      mul\n      jump(tag_376)\n    tag_377:\n      dup1\n      iszero\n      tag_378\n      jumpi\n      dup3\n      dup2\n      0x0100\n      exp\n      dup2\n      sload\n      swap1\n      0xff\n      mul\n      not\n      and\n      swap1\n      sstore\n      0x01\n      add\n      0x20\n      dup2\n      0x00\n      add\n      div\n      swap3\n      dup4\n      add\n      swap3\n      0x01\n      sub\n      mul\n      jump(tag_377)\n    tag_378:\n      pop\n    tag_375:\n      pop\n      tag_379\n      swap3\n      swap2\n      pop\n      tag_380\n      jump\t// in\n    tag_379:\n      pop\n      swap1\n      jump\t// out\n    tag_380:\n    tag_381:\n      dup1\n      dup3\n      gt\n      iszero\n      tag_379\n      jumpi\n      0x00\n      dup2\n      sstore\n      0x01\n      add\n      jump(tag_381)\n        /* \"#utility.yul\":14:210   */\n    tag_384:\n        /* \"#utility.yul\":82:102   */\n      dup1\n      calldataload\n        /* \"#utility.yul\":142:184   */\n      0xffffffffffffffffffffffffffffffffffffffff\n        /* \"#utility.yul\":131:185   */\n      dup2\n      and\n        /* \"#utility.yul\":121:186   */\n      dup2\n      eq\n        /* \"#utility.yul\":111:113   */\n      tag_386\n      jumpi\n        /* \"#utility.yul\":200:201   */\n      0x00\n        /* \"#utility.yul\":197:198   */\n      dup1\n        /* \"#utility.yul\":190:202   */\n      revert\n        /* \"#utility.yul\":111:113   */\n    tag_386:\n        /* \"#utility.yul\":63:210   */\n      swap2\n      swap1\n      pop\n      jump\t// out\n        /* \"#utility.yul\":215:1213   */\n    tag_387:\n        /* \"#utility.yul\":269:274   */\n      0x00\n        /* \"#utility.yul\":322:325   */\n      dup3\n        /* \"#utility.yul\":315:319   */\n      0x1f\n        /* \"#utility.yul\":307:313   */\n      dup4\n        /* \"#utility.yul\":303:320   */\n      add\n        /* \"#utility.yul\":299:326   */\n      slt\n        /* \"#utility.yul\":289:291   */\n      tag_389\n      jumpi\n        /* \"#utility.yul\":344:349   */\n      dup1\n        /* \"#utility.yul\":337:342   */\n      dup2\n        /* \"#utility.yul\":330:350   */\n      revert\n        /* \"#utility.yul\":289:291   */\n    tag_389:\n        /* \"#utility.yul\":384:390   */\n      dup2\n        /* \"#utility.yul\":371:391   */\n      calldataload\n        /* \"#utility.yul\":410:414   */\n      0x20\n        /* \"#utility.yul\":433:451   */\n      0xffffffffffffffff\n        /* \"#utility.yul\":470:472   */\n      dup1\n        /* \"#utility.yul\":466:468   */\n      dup4\n        /* \"#utility.yul\":463:473   */\n      gt\n        /* \"#utility.yul\":460:462   */\n      iszero\n      tag_391\n      jumpi\n        /* \"#utility.yul\":476:494   */\n      tag_391\n      tag_392\n      jump\t// in\n    tag_391:\n        /* \"#utility.yul\":522:524   */\n      dup3\n        /* \"#utility.yul\":519:520   */\n      0x05\n        /* \"#utility.yul\":515:525   */\n      shl\n        /* \"#utility.yul\":554:556   */\n      0x40\n        /* \"#utility.yul\":548:557   */\n      mload\n        /* \"#utility.yul\":613:679   */\n      0xffffffffffffffffffffffffffffffffffffffffffffffffffffffffffffffe0\n        /* \"#utility.yul\":608:610   */\n      0x3f\n        /* \"#utility.yul\":604:606   */\n      dup4\n        /* \"#utility.yul\":600:611   */\n      add\n        /* \"#utility.yul\":596:680   */\n      and\n        /* \"#utility.yul\":588:594   */\n      dup2\n        /* \"#utility.yul\":584:681   */\n      add\n        /* \"#utility.yul\":731:737   */\n      dup2\n        /* \"#utility.yul\":719:729   */\n      dup2\n        /* \"#utility.yul\":716:738   */\n      lt\n        /* \"#utility.yul\":711:713   */\n      dup5\n        /* \"#utility.yul\":699:709   */\n      dup3\n        /* \"#utility.yul\":696:714   */\n      gt\n        /* \"#utility.yul\":693:739   */\n      or\n        /* \"#utility.yul\":690:692   */\n      iszero\n      tag_394\n      jumpi\n        /* \"#utility.yul\":742:760   */\n      tag_394\n      tag_392\n      jump\t// in\n    tag_394:\n        /* \"#utility.yul\":778:780   */\n      0x40\n        /* \"#utility.yul\":771:793   */\n      mstore\n        /* \"#utility.yul\":828:846   */\n      dup5\n      dup2\n      mstore\n        /* \"#utility.yul\":862:877   */\n      dup4\n      dup2\n      add\n      swap3\n      pop\n        /* \"#utility.yul\":897:912   */\n      dup7\n      dup5\n      add\n        /* \"#utility.yul\":931:946   */\n      dup3\n      dup9\n      add\n        /* \"#utility.yul\":927:951   */\n      dup6\n      add\n        /* \"#utility.yul\":924:957   */\n      dup10\n      lt\n        /* \"#utility.yul\":921:923   */\n      iszero\n      tag_395\n      jumpi\n        /* \"#utility.yul\":974:979   */\n      dup7\n        /* \"#utility.yul\":967:972   */\n      dup8\n        /* \"#utility.yul\":960:980   */\n      revert\n        /* \"#utility.yul\":921:923   */\n    tag_395:\n        /* \"#utility.yul\":1000:1005   */\n      dup7\n        /* \"#utility.yul\":991:1005   */\n      swap3\n      pop\n        /* \"#utility.yul\":1014:1183   */\n    tag_396:\n        /* \"#utility.yul\":1028:1030   */\n      dup6\n        /* \"#utility.yul\":1025:1026   */\n      dup4\n        /* \"#utility.yul\":1022:1031   */\n      lt\n        /* \"#utility.yul\":1014:1183   */\n      iszero\n      tag_398\n      jumpi\n        /* \"#utility.yul\":1085:1108   */\n      tag_399\n        /* \"#utility.yul\":1104:1107   */\n      dup2\n        /* \"#utility.yul\":1085:1108   */\n      tag_384\n      jump\t// in\n    tag_399:\n        /* \"#utility.yul\":1073:1109   */\n      dup5\n      mstore\n        /* \"#utility.yul\":1129:1141   */\n      swap3\n      dup5\n      add\n      swap3\n        /* \"#utility.yul\":1046:1047   */\n      0x01\n        /* \"#utility.yul\":1039:1048   */\n      swap3\n      swap1\n      swap3\n      add\n      swap2\n        /* \"#utility.yul\":1161:1173   */\n      dup5\n      add\n        /* \"#utility.yul\":1014:1183   */\n      jump(tag_396)\n    tag_398:\n      pop\n        /* \"#utility.yul\":1201:1207   */\n      swap8\n        /* \"#utility.yul\":279:1213   */\n      swap7\n      pop\n      pop\n      pop\n      pop\n      pop\n      pop\n      pop\n      jump\t// out\n        /* \"#utility.yul\":1218:1414   */\n    tag_74:\n        /* \"#utility.yul\":1277:1283   */\n      0x00\n        /* \"#utility.yul\":1330:1332   */\n      0x20\n        /* \"#utility.yul\":1318:1327   */\n      dup3\n        /* \"#utility.yul\":1309:1316   */\n      dup5\n        /* \"#utility.yul\":1305:1328   */\n      sub\n        /* \"#utility.yul\":1301:1333   */\n      slt\n        /* \"#utility.yul\":1298:1300   */\n      iszero\n      tag_401\n      jumpi\n        /* \"#utility.yul\":1351:1357   */\n      dup1\n        /* \"#utility.yul\":1343:1349   */\n      dup2\n        /* \"#utility.yul\":1336:1358   */\n      revert\n        /* \"#utility.yul\":1298:1300   */\n    tag_401:\n        /* \"#utility.yul\":1379:1408   */\n      tag_402\n        /* \"#utility.yul\":1398:1407   */\n      dup3\n        /* \"#utility.yul\":1379:1408   */\n      tag_384\n      jump\t// in\n    tag_402:\n        /* \"#utility.yul\":1369:1408   */\n      swap4\n        /* \"#utility.yul\":1288:1414   */\n      swap3\n      pop\n      pop\n      pop\n      jump\t// out\n        /* \"#utility.yul\":1419:1744   */\n    tag_101:\n        /* \"#utility.yul\":1484:1490   */\n      0x00\n        /* \"#utility.yul\":1492:1498   */\n      dup1\n        /* \"#utility.yul\":1545:1547   */\n      0x40\n        /* \"#utility.yul\":1533:1542   */\n      dup4\n        /* \"#utility.yul\":1524:1531   */\n      dup6\n        /* \"#utility.yul\":1520:1543   */\n      sub\n        /* \"#utility.yul\":1516:1548   */\n      slt\n        /* \"#utility.yul\":1513:1515   */\n      iszero\n      tag_404\n      jumpi\n        /* \"#utility.yul\":1566:1572   */\n      dup1\n        /* \"#utility.yul\":1558:1564   */\n      dup2\n        /* \"#utility.yul\":1551:1573   */\n      revert\n        /* \"#utility.yul\":1513:1515   */\n    tag_404:\n        /* \"#utility.yul\":1594:1623   */\n      tag_405\n        /* \"#utility.yul\":1613:1622   */\n      dup4\n        /* \"#utility.yul\":1594:1623   */\n      tag_384\n      jump\t// in\n    tag_405:\n        /* \"#utility.yul\":1584:1623   */\n      swap2\n      pop\n        /* \"#utility.yul\":1673:1675   */\n      0x20\n        /* \"#utility.yul\":1662:1671   */\n      dup4\n        /* \"#utility.yul\":1658:1676   */\n      add\n        /* \"#utility.yul\":1645:1677   */\n      calldataload\n        /* \"#utility.yul\":1686:1714   */\n      tag_406\n        /* \"#utility.yul\":1708:1713   */\n      dup2\n        /* \"#utility.yul\":1686:1714   */\n      tag_407\n      jump\t// in\n    tag_406:\n        /* \"#utility.yul\":1733:1738   */\n      dup1\n        /* \"#utility.yul\":1723:1738   */\n      swap2\n      pop\n      pop\n        /* \"#utility.yul\":1503:1744   */\n      swap3\n      pop\n      swap3\n      swap1\n      pop\n      jump\t// out\n        /* \"#utility.yul\":1749:2013   */\n    tag_114:\n        /* \"#utility.yul\":1817:1823   */\n      0x00\n        /* \"#utility.yul\":1825:1831   */\n      dup1\n        /* \"#utility.yul\":1878:1880   */\n      0x40\n        /* \"#utility.yul\":1866:1875   */\n      dup4\n        /* \"#utility.yul\":1857:1864   */\n      dup6\n        /* \"#utility.yul\":1853:1876   */\n      sub\n        /* \"#utility.yul\":1849:1881   */\n      slt\n        /* \"#utility.yul\":1846:1848   */\n      iszero\n      tag_409\n      jumpi\n        /* \"#utility.yul\":1899:1905   */\n      dup2\n        /* \"#utility.yul\":1891:1897   */\n      dup3\n        /* \"#utility.yul\":1884:1906   */\n      revert\n        /* \"#utility.yul\":1846:1848   */\n    tag_409:\n        /* \"#utility.yul\":1927:1956   */\n      tag_410\n        /* \"#utility.yul\":1946:1955   */\n      dup4\n        /* \"#utility.yul\":1927:1956   */\n      tag_384\n      jump\t// in\n    tag_410:\n        /* \"#utility.yul\":1917:1956   */\n      swap5\n        /* \"#utility.yul\":2003:2005   */\n      0x20\n        /* \"#utility.yul\":1988:2006   */\n      swap4\n      swap1\n      swap4\n      add\n        /* \"#utility.yul\":1975:2007   */\n      calldataload\n      swap4\n      pop\n      pop\n      pop\n        /* \"#utility.yul\":1836:2013   */\n      jump\t// out\n        /* \"#utility.yul\":2018:2643   */\n    tag_49:\n        /* \"#utility.yul\":2136:2142   */\n      0x00\n        /* \"#utility.yul\":2144:2150   */\n      dup1\n        /* \"#utility.yul\":2197:2199   */\n      0x40\n        /* \"#utility.yul\":2185:2194   */\n      dup4\n        /* \"#utility.yul\":2176:2183   */\n      dup6\n        /* \"#utility.yul\":2172:2195   */\n      sub\n        /* \"#utility.yul\":2168:2200   */\n      slt\n        /* \"#utility.yul\":2165:2167   */\n      iszero\n      tag_412\n      jumpi\n        /* \"#utility.yul\":2218:2224   */\n      dup2\n        /* \"#utility.yul\":2210:2216   */\n      dup3\n        /* \"#utility.yul\":2203:2225   */\n      revert\n        /* \"#utility.yul\":2165:2167   */\n    tag_412:\n        /* \"#utility.yul\":2263:2272   */\n      dup3\n        /* \"#utility.yul\":2250:2273   */\n      calldataload\n        /* \"#utility.yul\":2292:2310   */\n      0xffffffffffffffff\n        /* \"#utility.yul\":2333:2335   */\n      dup1\n        /* \"#utility.yul\":2325:2331   */\n      dup3\n        /* \"#utility.yul\":2322:2336   */\n      gt\n        /* \"#utility.yul\":2319:2321   */\n      iszero\n      tag_413\n      jumpi\n        /* \"#utility.yul\":2354:2360   */\n      dup4\n        /* \"#utility.yul\":2346:2352   */\n      dup5\n        /* \"#utility.yul\":2339:2361   */\n      revert\n        /* \"#utility.yul\":2319:2321   */\n    tag_413:\n        /* \"#utility.yul\":2382:2443   */\n      tag_414\n        /* \"#utility.yul\":2435:2442   */\n      dup7\n        /* \"#utility.yul\":2426:2432   */\n      dup4\n        /* \"#utility.yul\":2415:2424   */\n      dup8\n        /* \"#utility.yul\":2411:2433   */\n      add\n        /* \"#utility.yul\":2382:2443   */\n      tag_387\n      jump\t// in\n    tag_414:\n        /* \"#utility.yul\":2372:2443   */\n      swap4\n      pop\n        /* \"#utility.yul\":2496:2498   */\n      0x20\n        /* \"#utility.yul\":2485:2494   */\n      dup6\n        /* \"#utility.yul\":2481:2499   */\n      add\n        /* \"#utility.yul\":2468:2500   */\n      calldataload\n        /* \"#utility.yul\":2452:2500   */\n      swap2\n      pop\n        /* \"#utility.yul\":2525:2527   */\n      dup1\n        /* \"#utility.yul\":2515:2523   */\n      dup3\n        /* \"#utility.yul\":2512:2528   */\n      gt\n        /* \"#utility.yul\":2509:2511   */\n      iszero\n      tag_415\n      jumpi\n        /* \"#utility.yul\":2546:2552   */\n      dup3\n        /* \"#utility.yul\":2538:2544   */\n      dup4\n        /* \"#utility.yul\":2531:2553   */\n      revert\n        /* \"#utility.yul\":2509:2511   */\n    tag_415:\n      pop\n        /* \"#utility.yul\":2574:2637   */\n      tag_416\n        /* \"#utility.yul\":2629:2636   */\n      dup6\n        /* \"#utility.yul\":2618:2626   */\n      dup3\n        /* \"#utility.yul\":2607:2616   */\n      dup7\n        /* \"#utility.yul\":2603:2627   */\n      add\n        /* \"#utility.yul\":2574:2637   */\n      tag_387\n      jump\t// in\n    tag_416:\n        /* \"#utility.yul\":2564:2637   */\n      swap2\n      pop\n      pop\n        /* \"#utility.yul\":2155:2643   */\n      swap3\n      pop\n      swap3\n      swap1\n      pop\n      jump\t// out\n        /* \"#utility.yul\":2648:2899   */\n    tag_70:\n        /* \"#utility.yul\":2704:2710   */\n      0x00\n        /* \"#utility.yul\":2757:2759   */\n      0x20\n        /* \"#utility.yul\":2745:2754   */\n      dup3\n        /* \"#utility.yul\":2736:2743   */\n      dup5\n        /* \"#utility.yul\":2732:2755   */\n      sub\n        /* \"#utility.yul\":2728:2760   */\n      slt\n        /* \"#utility.yul\":2725:2727   */\n      iszero\n      tag_418\n      jumpi\n        /* \"#utility.yul\":2778:2784   */\n      dup1\n        /* \"#utility.yul\":2770:2776   */\n      dup2\n        /* \"#utility.yul\":2763:2785   */\n      revert\n        /* \"#utility.yul\":2725:2727   */\n    tag_418:\n        /* \"#utility.yul\":2822:2831   */\n      dup2\n        /* \"#utility.yul\":2809:2832   */\n      calldataload\n        /* \"#utility.yul\":2841:2869   */\n      tag_402\n        /* \"#utility.yul\":2863:2868   */\n      dup2\n        /* \"#utility.yul\":2841:2869   */\n      tag_407\n      jump\t// in\n        /* \"#utility.yul\":2904:3159   */\n    tag_174:\n        /* \"#utility.yul\":2971:2977   */\n      0x00\n        /* \"#utility.yul\":3024:3026   */\n      0x20\n        /* \"#utility.yul\":3012:3021   */\n      dup3\n        /* \"#utility.yul\":3003:3010   */\n      dup5\n        /* \"#utility.yul\":2999:3022   */\n      sub\n        /* \"#utility.yul\":2995:3027   */\n      slt\n        /* \"#utility.yul\":2992:2994   */\n      iszero\n      tag_421\n      jumpi\n        /* \"#utility.yul\":3045:3051   */\n      dup1\n        /* \"#utility.yul\":3037:3043   */\n      dup2\n        /* \"#utility.yul\":3030:3052   */\n      revert\n        /* \"#utility.yul\":2992:2994   */\n    tag_421:\n        /* \"#utility.yul\":3082:3091   */\n      dup2\n        /* \"#utility.yul\":3076:3092   */\n      mload\n        /* \"#utility.yul\":3101:3129   */\n      tag_402\n        /* \"#utility.yul\":3123:3128   */\n      dup2\n        /* \"#utility.yul\":3101:3129   */\n      tag_407\n      jump\t// in\n        /* \"#utility.yul\":3164:3354   */\n    tag_41:\n        /* \"#utility.yul\":3223:3229   */\n      0x00\n        /* \"#utility.yul\":3276:3278   */\n      0x20\n        /* \"#utility.yul\":3264:3273   */\n      dup3\n        /* \"#utility.yul\":3255:3262   */\n      dup5\n        /* \"#utility.yul\":3251:3274   */\n      sub\n        /* \"#utility.yul\":3247:3279   */\n      slt\n        /* \"#utility.yul\":3244:3246   */\n      iszero\n      tag_424\n      jumpi\n        /* \"#utility.yul\":3297:3303   */\n      dup1\n        /* \"#utility.yul\":3289:3295   */\n      dup2\n        /* \"#utility.yul\":3282:3304   */\n      revert\n        /* \"#utility.yul\":3244:3246   */\n    tag_424:\n      pop\n        /* \"#utility.yul\":3325:3348   */\n      calldataload\n      swap2\n        /* \"#utility.yul\":3234:3354   */\n      swap1\n      pop\n      jump\t// out\n        /* \"#utility.yul\":3359:3845   */\n    tag_425:\n        /* \"#utility.yul\":3412:3415   */\n      0x00\n        /* \"#utility.yul\":3450:3455   */\n      dup2\n        /* \"#utility.yul\":3444:3456   */\n      mload\n        /* \"#utility.yul\":3477:3483   */\n      dup1\n        /* \"#utility.yul\":3472:3475   */\n      dup5\n        /* \"#utility.yul\":3465:3484   */\n      mstore\n        /* \"#utility.yul\":3503:3507   */\n      0x20\n        /* \"#utility.yul\":3532:3534   */\n      dup1\n        /* \"#utility.yul\":3527:3530   */\n      dup6\n        /* \"#utility.yul\":3523:3535   */\n      add\n        /* \"#utility.yul\":3516:3535   */\n      swap5\n      pop\n        /* \"#utility.yul\":3569:3571   */\n      dup1\n        /* \"#utility.yul\":3562:3567   */\n      dup5\n        /* \"#utility.yul\":3558:3572   */\n      add\n        /* \"#utility.yul\":3590:3593   */\n      dup4\n        /* \"#utility.yul\":3602:3820   */\n    tag_427:\n        /* \"#utility.yul\":3616:3622   */\n      dup4\n        /* \"#utility.yul\":3613:3614   */\n      dup2\n        /* \"#utility.yul\":3610:3623   */\n      lt\n        /* \"#utility.yul\":3602:3820   */\n      iszero\n      tag_429\n      jumpi\n        /* \"#utility.yul\":3681:3694   */\n      dup2\n      mload\n        /* \"#utility.yul\":3696:3738   */\n      0xffffffffffffffffffffffffffffffffffffffff\n        /* \"#utility.yul\":3677:3739   */\n      and\n        /* \"#utility.yul\":3665:3740   */\n      dup8\n      mstore\n        /* \"#utility.yul\":3760:3772   */\n      swap6\n      dup3\n      add\n      swap6\n        /* \"#utility.yul\":3795:3810   */\n      swap1\n      dup3\n      add\n      swap1\n        /* \"#utility.yul\":3638:3639   */\n      0x01\n        /* \"#utility.yul\":3631:3640   */\n      add\n        /* \"#utility.yul\":3602:3820   */\n      jump(tag_427)\n    tag_429:\n      pop\n        /* \"#utility.yul\":3836:3839   */\n      swap5\n      swap6\n        /* \"#utility.yul\":3420:3845   */\n      swap5\n      pop\n      pop\n      pop\n      pop\n      pop\n      jump\t// out\n        /* \"#utility.yul\":5904:6369   */\n    tag_241:\n        /* \"#utility.yul\":6161:6163   */\n      0x40\n        /* \"#utility.yul\":6150:6159   */\n      dup2\n        /* \"#utility.yul\":6143:6164   */\n      mstore\n        /* \"#utility.yul\":6124:6128   */\n      0x00\n        /* \"#utility.yul\":6187:6243   */\n      tag_437\n        /* \"#utility.yul\":6239:6241   */\n      0x40\n        /* \"#utility.yul\":6228:6237   */\n      dup4\n        /* \"#utility.yul\":6224:6242   */\n      add\n        /* \"#utility.yul\":6216:6222   */\n      dup6\n        /* \"#utility.yul\":6187:6243   */\n      tag_425\n      jump\t// in\n    tag_437:\n        /* \"#utility.yul\":6291:6300   */\n      dup3\n        /* \"#utility.yul\":6283:6289   */\n      dup2\n        /* \"#utility.yul\":6279:6301   */\n      sub\n        /* \"#utility.yul\":6274:6276   */\n      0x20\n        /* \"#utility.yul\":6263:6272   */\n      dup5\n        /* \"#utility.yul\":6259:6277   */\n      add\n        /* \"#utility.yul\":6252:6302   */\n      mstore\n        /* \"#utility.yul\":6319:6363   */\n      tag_438\n        /* \"#utility.yul\":6356:6362   */\n      dup2\n        /* \"#utility.yul\":6348:6354   */\n      dup6\n        /* \"#utility.yul\":6319:6363   */\n      tag_425\n      jump\t// in\n    tag_438:\n        /* \"#utility.yul\":6311:6363   */\n      swap6\n        /* \"#utility.yul\":6133:6369   */\n      swap5\n      pop\n      pop\n      pop\n      pop\n      pop\n      jump\t// out\n        /* \"#utility.yul\":11760:11888   */\n    tag_153:\n        /* \"#utility.yul\":11800:11803   */\n      0x00\n        /* \"#utility.yul\":11831:11832   */\n      dup3\n        /* \"#utility.yul\":11827:11833   */\n      not\n        /* \"#utility.yul\":11824:11825   */\n      dup3\n        /* \"#utility.yul\":11821:11834   */\n      gt\n        /* \"#utility.yul\":11818:11820   */\n      iszero\n      tag_458\n      jumpi\n        /* \"#utility.yul\":11837:11855   */\n      tag_458\n      tag_459\n      jump\t// in\n    tag_458:\n      pop\n        /* \"#utility.yul\":11873:11882   */\n      add\n      swap1\n        /* \"#utility.yul\":11808:11888   */\n      jump\t// out\n        /* \"#utility.yul\":11893:12167   */\n    tag_167:\n        /* \"#utility.yul\":11933:11934   */\n      0x00\n        /* \"#utility.yul\":11959:11960   */\n      dup3\n        /* \"#utility.yul\":11949:11951   */\n      tag_461\n      jumpi\n        /* \"#utility.yul\":11994:12071   */\n      0x4e487b7100000000000000000000000000000000000000000000000000000000\n        /* \"#utility.yul\":11991:11992   */\n      dup2\n        /* \"#utility.yul\":11984:12072   */\n      mstore\n        /* \"#utility.yul\":12095:12099   */\n      0x12\n        /* \"#utility.yul\":12092:12093   */\n      0x04\n        /* \"#utility.yul\":12085:12100   */\n      mstore\n        /* \"#utility.yul\":12123:12127   */\n      0x24\n        /* \"#utility.yul\":12120:12121   */\n      dup2\n        /* \"#utility.yul\":12113:12128   */\n      revert\n        /* \"#utility.yul\":11949:11951   */\n    tag_461:\n      pop\n        /* \"#utility.yul\":12152:12161   */\n      div\n      swap1\n        /* \"#utility.yul\":11939:12167   */\n      jump\t// out\n        /* \"#utility.yul\":12172:12400   */\n    tag_149:\n        /* \"#utility.yul\":12212:12219   */\n      0x00\n        /* \"#utility.yul\":12338:12339   */\n      dup2\n        /* \"#utility.yul\":12270:12336   */\n      0xffffffffffffffffffffffffffffffffffffffffffffffffffffffffffffffff\n        /* \"#utility.yul\":12266:12340   */\n      div\n        /* \"#utility.yul\":12263:12264   */\n      dup4\n        /* \"#utility.yul\":12260:12341   */\n      gt\n        /* \"#utility.yul\":12255:12256   */\n      dup3\n        /* \"#utility.yul\":12248:12257   */\n      iszero\n        /* \"#utility.yul\":12241:12258   */\n      iszero\n        /* \"#utility.yul\":12237:12342   */\n      and\n        /* \"#utility.yul\":12234:12236   */\n      iszero\n      tag_464\n      jumpi\n        /* \"#utility.yul\":12345:12363   */\n      tag_464\n      tag_459\n      jump\t// in\n    tag_464:\n      pop\n        /* \"#utility.yul\":12385:12394   */\n      mul\n      swap1\n        /* \"#utility.yul\":12224:12400   */\n      jump\t// out\n        /* \"#utility.yul\":12405:12530   */\n    tag_176:\n        /* \"#utility.yul\":12445:12449   */\n      0x00\n        /* \"#utility.yul\":12473:12474   */\n      dup3\n        /* \"#utility.yul\":12470:12471   */\n      dup3\n        /* \"#utility.yul\":12467:12475   */\n      lt\n        /* \"#utility.yul\":12464:12466   */\n      iszero\n      tag_467\n      jumpi\n        /* \"#utility.yul\":12478:12496   */\n      tag_467\n      tag_459\n      jump\t// in\n    tag_467:\n      pop\n        /* \"#utility.yul\":12515:12524   */\n      sub\n      swap1\n        /* \"#utility.yul\":12454:12530   */\n      jump\t// out\n        /* \"#utility.yul\":12535:12730   */\n    tag_239:\n        /* \"#utility.yul\":12574:12577   */\n      0x00\n        /* \"#utility.yul\":12605:12671   */\n      0xffffffffffffffffffffffffffffffffffffffffffffffffffffffffffffffff\n        /* \"#utility.yul\":12598:12603   */\n      dup3\n        /* \"#utility.yul\":12595:12672   */\n      eq\n        /* \"#utility.yul\":12592:12594   */\n      iszero\n      tag_470\n      jumpi\n        /* \"#utility.yul\":12675:12693   */\n      tag_470\n      tag_459\n      jump\t// in\n    tag_470:\n      pop\n        /* \"#utility.yul\":12722:12723   */\n      0x01\n        /* \"#utility.yul\":12711:12724   */\n      add\n      swap1\n        /* \"#utility.yul\":12582:12730   */\n      jump\t// out\n        /* \"#utility.yul\":12735:12919   */\n    tag_459:\n        /* \"#utility.yul\":12787:12864   */\n      0x4e487b7100000000000000000000000000000000000000000000000000000000\n        /* \"#utility.yul\":12784:12785   */\n      0x00\n        /* \"#utility.yul\":12777:12865   */\n      mstore\n        /* \"#utility.yul\":12884:12888   */\n      0x11\n        /* \"#utility.yul\":12881:12882   */\n      0x04\n        /* \"#utility.yul\":12874:12889   */\n      mstore\n        /* \"#utility.yul\":12908:12912   */\n      0x24\n        /* \"#utility.yul\":12905:12906   */\n      0x00\n        /* \"#utility.yul\":12898:12913   */\n      revert\n        /* \"#utility.yul\":12924:13108   */\n    tag_392:\n        /* \"#utility.yul\":12976:13053   */\n      0x4e487b7100000000000000000000000000000000000000000000000000000000\n        /* \"#utility.yul\":12973:12974   */\n      0x00\n        /* \"#utility.yul\":12966:13054   */\n      mstore\n        /* \"#utility.yul\":13073:13077   */\n      0x41\n        /* \"#utility.yul\":13070:13071   */\n      0x04\n        /* \"#utility.yul\":13063:13078   */\n      mstore\n        /* \"#utility.yul\":13097:13101   */\n      0x24\n        /* \"#utility.yul\":13094:13095   */\n      0x00\n        /* \"#utility.yul\":13087:13102   */\n      revert\n        /* \"#utility.yul\":13113:13231   */\n    tag_407:\n        /* \"#utility.yul\":13199:13204   */\n      dup1\n        /* \"#utility.yul\":13192:13205   */\n      iszero\n        /* \"#utility.yul\":13185:13206   */\n      iszero\n        /* \"#utility.yul\":13178:13183   */\n      dup2\n        /* \"#utility.yul\":13175:13207   */\n      eq\n        /* \"#utility.yul\":13165:13167   */\n      tag_305\n      jumpi\n        /* \"#utility.yul\":13221:13222   */\n      0x00\n        /* \"#utility.yul\":13218:13219   */\n      dup1\n        /* \"#utility.yul\":13211:13223   */\n      revert\n\n    auxdata: 0xa26469706673582212206c92e65864ac77280e2cbbfbb7e764e6247b0bc6ea3c93950a79ff4f1fe67e1f64736f6c63430008040033\n}\n",
				"bytecode": {
					"linkReferences": {},
					"object": "6080604052670de0b6b3a7640000600d553480156200001d57600080fd5b5060405162002879380380620028798339810160408190526200004091620001b3565b60008054600e805460ff19169055600480546001600160a01b038087166001600160a01b031992831617909255600580549286169290911691909117905562010000339081026001600160b01b03199092169190911761010117909155620000aa906001620000b2565b5050620001ea565b33620000cc6000546201000090046001600160a01b031690565b6001600160a01b031614620001275760405162461bcd60e51b815260206004820181905260248201527f4f776e61626c653a2063616c6c6572206973206e6f7420746865206f776e6572604482015260640160405180910390fd5b6001600160a01b038216600081815260036020908152604091829020805460ff1916851515908117909155825133815291820193909352908101919091527f2862b022f51ffee932517d924c5103b3267a9d5d1f21bec54356e328aac24c189060600160405180910390a15050565b80516001600160a01b0381168114620001ae57600080fd5b919050565b60008060408385031215620001c6578182fd5b620001d18362000196565b9150620001e16020840162000196565b90509250929050565b61267f80620001fa6000396000f3fe608060405234801561001057600080fd5b50600436106101cf5760003560e01c8063918a628311610104578063d3b91f7a116100a2578063f2fde38b11610071578063f2fde38b1461044c578063f3ae24151461045f578063f56e9c6614610482578063fb0665311461049557600080fd5b8063d3b91f7a146103db578063e72ebdb7146103ee578063ef7a47fa14610424578063f06b41e31461042c57600080fd5b8063a5e90eee116100de578063a5e90eee14610388578063c6b24c1c1461039b578063ca5cc206146103bb578063ce75710c146103ce57600080fd5b8063918a628314610342578063965ed46514610355578063a3f82c2c1461036857600080fd5b806368da5e8e116101715780636c68ec691161014b5780636c68ec69146102e357806376be6af6146102f65780638b9272b7146102fe5780638da5cb5b1461031e57600080fd5b806368da5e8e146102905780636a15915a146102b05780636a41d5d7146102c357600080fd5b80632f48ab7d116101ad5780632f48ab7d146102185780633197cbb61461025d5780633ccfd60b146102665780635db98f2d1461026e57600080fd5b80630e73d199146101d457806318160ddd146101e9578063238c4c2f14610205575b600080fd5b6101e76101e2366004612469565b6104a2565b005b6101f260025481565b6040519081526020015b60405180910390f35b6101e76102133660046123d0565b610d4f565b6005546102389073ffffffffffffffffffffffffffffffffffffffff1681565b60405173ffffffffffffffffffffffffffffffffffffffff90911681526020016101fc565b6101f260015481565b6101e761118a565b60005461028090610100900460ff1681565b60405190151581526020016101fc565b6006546102389073ffffffffffffffffffffffffffffffffffffffff1681565b6101e76102be366004612431565b61163b565b6101f26102d1366004612350565b600a6020526000908152604090205481565b6101e76102f1366004612431565b6116e5565b6101e761178f565b6007546102389073ffffffffffffffffffffffffffffffffffffffff1681565b60005462010000900473ffffffffffffffffffffffffffffffffffffffff16610238565b6101e7610350366004612350565b6118c3565b6101e7610363366004612350565b6119b8565b6101f2610376366004612350565b600c6020526000908152604090205481565b6101e7610396366004612371565b611a78565b6004546102389073ffffffffffffffffffffffffffffffffffffffff1681565b6101e76103c9366004612431565b611b93565b600e546102809060ff1681565b6102806103e93660046123a7565b611c43565b6102386103fc366004612350565b60096020526000908152604090205473ffffffffffffffffffffffffffffffffffffffff1681565b6101f2611c86565b6101f261043a366004612350565b600b6020526000908152604090205481565b6101e761045a366004612350565b611f36565b61028061046d366004612350565b60036020526000908152604090205460ff1681565b6101e7610490366004612350565b6120ea565b6000546102809060ff1681565b600e5460ff16610513576040517f08c379a000000000000000000000000000000000000000000000000000000000815260206004820152600d60248201527f69646f20697320636c6f7365640000000000000000000000000000000000000060448201526064015b60405180910390fd5b6000811161057d576040517f08c379a000000000000000000000000000000000000000000000000000000000815260206004820152600d60248201527f76616c7565206973207a65726f00000000000000000000000000000000000000604482015260640161050a565b336000818152600a6020526040902054600d5461059c906107d0612550565b811015806105c15750600d546105b4906107d0612550565b6105be84836124ff565b10155b1561063757600054610100900460ff16610637576040517f08c379a000000000000000000000000000000000000000000000000000000000815260206004820152601360248201527f74776f2074686f7573616e6420636c6f73656400000000000000000000000000604482015260640161050a565b600d54610646906107d0612550565b61065084836124ff565b11156106b8576040517f08c379a000000000000000000000000000000000000000000000000000000000815260206004820152600760248201527f6e6f742049444f00000000000000000000000000000000000000000000000000604482015260640161050a565b73ffffffffffffffffffffffffffffffffffffffff8083166000908152600960205260409020541680156109df5773ffffffffffffffffffffffffffffffffffffffff81166000908152600a6020526040902054156108c8576000612710610722866101f4612550565b61072c9190612517565b6005546040517f23b872dd00000000000000000000000000000000000000000000000000000000815273ffffffffffffffffffffffffffffffffffffffff87811660048301528581166024830152604482018490529293509116906323b872dd90606401602060405180830381600087803b1580156107aa57600080fd5b505af11580156107be573d6000803e3d6000fd5b505050506040513d601f19601f820116820180604052508101906107e2919061244d565b5060055460045473ffffffffffffffffffffffffffffffffffffffff918216916323b872dd91879116610815858a61258d565b6040517fffffffff0000000000000000000000000000000000000000000000000000000060e086901b16815273ffffffffffffffffffffffffffffffffffffffff93841660048201529290911660248301526044820152606401602060405180830381600087803b15801561088957600080fd5b505af115801561089d573d6000803e3d6000fd5b505050506040513d601f19601f820116820180604052508101906108c1919061244d565b5050610983565b600554600480546040517f23b872dd00000000000000000000000000000000000000000000000000000000815273ffffffffffffffffffffffffffffffffffffffff878116938201939093529082166024820152604481018790529116906323b872dd90606401602060405180830381600087803b15801561094957600080fd5b505af115801561095d573d6000803e3d6000fd5b505050506040513d601f19601f82011682018060405250810190610981919061244d565b505b73ffffffffffffffffffffffffffffffffffffffff81166000908152600b60205260409020546109b49085906124ff565b73ffffffffffffffffffffffffffffffffffffffff82166000908152600b6020526040902055610a9a565b600554600480546040517f23b872dd00000000000000000000000000000000000000000000000000000000815273ffffffffffffffffffffffffffffffffffffffff878116938201939093529082166024820152604481018790529116906323b872dd90606401602060405180830381600087803b158015610a6057600080fd5b505af1158015610a74573d6000803e3d6000fd5b505050506040513d601f19601f82011682018060405250810190610a98919061244d565b505b610aa484836124ff565b73ffffffffffffffffffffffffffffffffffffffff84166000908152600a60205260409020819055607890610adb90610a28612550565b610ae59190612517565b73ffffffffffffffffffffffffffffffffffffffff84166000908152600c6020526040902055600d54610b1a906107d0612550565b73ffffffffffffffffffffffffffffffffffffffff84166000908152600a602052604090205410610bcb576006546040517f40d097c300000000000000000000000000000000000000000000000000000000815273ffffffffffffffffffffffffffffffffffffffff8581166004830152909116906340d097c390602401600060405180830381600087803b158015610bb257600080fd5b505af1158015610bc6573d6000803e3d6000fd5b505050505b600d54610bda90610bb8612550565b73ffffffffffffffffffffffffffffffffffffffff82166000908152600b602052604090205410610cf1576006546040517f40d097c300000000000000000000000000000000000000000000000000000000815273ffffffffffffffffffffffffffffffffffffffff8381166004830152909116906340d097c390602401600060405180830381600087803b158015610c7257600080fd5b505af1158015610c86573d6000803e3d6000fd5b50505050600d54610bb8610c9a9190612550565b73ffffffffffffffffffffffffffffffffffffffff82166000908152600b6020526040902054610cca919061258d565b73ffffffffffffffffffffffffffffffffffffffff82166000908152600b60205260409020555b610cfa836118c3565b6040805173ffffffffffffffffffffffffffffffffffffffff85168152602081018690527f080bf12451b207525905f2fe9e47714fbcd5aa383b228f656b880136e66b288f910160405180910390a150505050565b60005473ffffffffffffffffffffffffffffffffffffffff62010000909104163314610dd7576040517f08c379a000000000000000000000000000000000000000000000000000000000815260206004820181905260248201527f4f776e61626c653a2063616c6c6572206973206e6f7420746865206f776e6572604482015260640161050a565b8051825114610e42576040517f08c379a000000000000000000000000000000000000000000000000000000000815260206004820152600f60248201527f6c656e6774682069732077726f6e670000000000000000000000000000000000604482015260640161050a565b60005b825181101561114c57600073ffffffffffffffffffffffffffffffffffffffff16838281518110610e9f577f4e487b7100000000000000000000000000000000000000000000000000000000600052603260045260246000fd5b602002602001015173ffffffffffffffffffffffffffffffffffffffff161415610f25576040517f08c379a000000000000000000000000000000000000000000000000000000000815260206004820152601060248201527f616464726573732069732077726f6e6700000000000000000000000000000000604482015260640161050a565b818181518110610f5e577f4e487b7100000000000000000000000000000000000000000000000000000000600052603260045260246000fd5b602002602001015173ffffffffffffffffffffffffffffffffffffffff16838281518110610fb5577f4e487b7100000000000000000000000000000000000000000000000000000000600052603260045260246000fd5b602002602001015173ffffffffffffffffffffffffffffffffffffffff16141561103b576040517f08c379a000000000000000000000000000000000000000000000000000000000815260206004820152600f60248201527f61646472657320697320657175616c0000000000000000000000000000000000604482015260640161050a565b818181518110611074577f4e487b7100000000000000000000000000000000000000000000000000000000600052603260045260246000fd5b6020026020010151600960008584815181106110b9577f4e487b7100000000000000000000000000000000000000000000000000000000600052603260045260246000fd5b602002602001015173ffffffffffffffffffffffffffffffffffffffff1673ffffffffffffffffffffffffffffffffffffffff16815260200190815260200160002060006101000a81548173ffffffffffffffffffffffffffffffffffffffff021916908373ffffffffffffffffffffffffffffffffffffffff1602179055508080611144906125a4565b915050610e45565b507f1886f03d42b471bc8faf784e3878fce329e8e139473c601b8648de73b3380c02828260405161117e9291906124d1565b60405180910390a15050565b336000908152600a6020526040902054611200576040517f08c379a000000000000000000000000000000000000000000000000000000000815260206004820152600960248201527f6e6f7420616c6c6f770000000000000000000000000000000000000000000000604482015260640161050a565b60006001541161126c576040517f08c379a000000000000000000000000000000000000000000000000000000000815260206004820152600660248201527f6e6f742045540000000000000000000000000000000000000000000000000000604482015260640161050a565b6000806001544261127d919061258d565b9050600061128e6201518083612517565b336000908152600a6020526040812054919250906078906112b190610a28612550565b6112bb9190612517565b90506001821015801561133257503360009081526008602052604081208054909190611310577f4e487b7100000000000000000000000000000000000000000000000000000000600052603260045260246000fd5b90600052602060002090602091828204019190069054906101000a900460ff16155b156113c757612710611346826103e8612550565b6113509190612517565b336000908152600860205260408120805492965060019290919061139d577f4e487b7100000000000000000000000000000000000000000000000000000000600052603260045260246000fd5b90600052602060002090602091828204019190066101000a81548160ff0219169083151502179055505b6000601e6113d660018561258d565b6113e09190612517565b9050600f81116113f057806113f3565b600f5b905060015b81811161151857336000908152600860205260409020805482908110611447577f4e487b7100000000000000000000000000000000000000000000000000000000600052603260045260246000fd5b90600052602060002090602091828204019190069054906101000a900460ff166115065761271061147a84610258612550565b6114849190612517565b61148e90876124ff565b3360009081526008602052604090208054919750600191839081106114dc577f4e487b7100000000000000000000000000000000000000000000000000000000600052603260045260246000fd5b90600052602060002090602091828204019190066101000a81548160ff0219169083151502179055505b80611510816125a4565b9150506113f8565b50336000908152600c602052604090205461153490869061258d565b336000818152600c6020526040908190209290925560075491517fa9059cbb00000000000000000000000000000000000000000000000000000000815260048101919091526024810187905273ffffffffffffffffffffffffffffffffffffffff9091169063a9059cbb90604401602060405180830381600087803b1580156115bc57600080fd5b505af11580156115d0573d6000803e3d6000fd5b505050506040513d601f19601f820116820180604052508101906115f4919061244d565b506040805133815260208101879052428183015290517ff279e6a1f5e320cca91135676d9cb6e44ca8a08c0b88342bcdb1144f6511b5689181900360600190a15050505050565b3360009081526003602052604090205460ff166116b4576040517f08c379a000000000000000000000000000000000000000000000000000000000815260206004820152600b60248201527f4e6f74206d616e61676572000000000000000000000000000000000000000000604482015260640161050a565b600e80547fffffffffffffffffffffffffffffffffffffffffffffffffffffffffffffff0016911515919091179055565b3360009081526003602052604090205460ff1661175e576040517f08c379a000000000000000000000000000000000000000000000000000000000815260206004820152600b60248201527f4e6f74206d616e61676572000000000000000000000000000000000000000000604482015260640161050a565b600080547fffffffffffffffffffffffffffffffffffffffffffffffffffffffffffffff0016911515919091179055565b60005473ffffffffffffffffffffffffffffffffffffffff62010000909104163314611817576040517f08c379a000000000000000000000000000000000000000000000000000000000815260206004820181905260248201527f4f776e61626c653a2063616c6c6572206973206e6f7420746865206f776e6572604482015260640161050a565b60015415611881576040517f08c379a000000000000000000000000000000000000000000000000000000000815260206004820152600d60248201527f74696d6520697320657869737400000000000000000000000000000000000000604482015260640161050a565b4260018190556040805133815260208101929092527f4100552e0c7d7733b482a8b5b352d5cf64221041a5cb5ad4f57474178741b69a910160405180910390a1565b73ffffffffffffffffffffffffffffffffffffffff81166000908152600860205260409020546119b5576040805160108082526102208201909252600091602082016102008036833701905050905060005b815181101561197b576000828281518110611959577f4e487b7100000000000000000000000000000000000000000000000000000000600052603260045260246000fd5b9115156020928302919091019091015280611973816125a4565b915050611915565b5073ffffffffffffffffffffffffffffffffffffffff8216600090815260086020908152604090912082516119b2928401906121aa565b50505b50565b3360009081526003602052604090205460ff16611a31576040517f08c379a000000000000000000000000000000000000000000000000000000000815260206004820152600b60248201527f4e6f74206d616e61676572000000000000000000000000000000000000000000604482015260640161050a565b600780547fffffffffffffffffffffffff00000000000000000000000000000000000000001673ffffffffffffffffffffffffffffffffffffffff92909216919091179055565b60005473ffffffffffffffffffffffffffffffffffffffff62010000909104163314611b00576040517f08c379a000000000000000000000000000000000000000000000000000000000815260206004820181905260248201527f4f776e61626c653a2063616c6c6572206973206e6f7420746865206f776e6572604482015260640161050a565b73ffffffffffffffffffffffffffffffffffffffff821660008181526003602090815260409182902080547fffffffffffffffffffffffffffffffffffffffffffffffffffffffffffffff0016851515908117909155825133815291820193909352908101919091527f2862b022f51ffee932517d924c5103b3267a9d5d1f21bec54356e328aac24c189060600161117e565b3360009081526003602052604090205460ff16611c0c576040517f08c379a000000000000000000000000000000000000000000000000000000000815260206004820152600b60248201527f4e6f74206d616e61676572000000000000000000000000000000000000000000604482015260640161050a565b60008054911515610100027fffffffffffffffffffffffffffffffffffffffffffffffffffffffffffff00ff909216919091179055565b60086020528160005260406000208181548110611c5f57600080fd5b9060005260206000209060209182820401919006915091509054906101000a900460ff1681565b336000908152600a6020526040812054611cfc576040517f08c379a000000000000000000000000000000000000000000000000000000000815260206004820152600960248201527f6e6f7420616c6c6f770000000000000000000000000000000000000000000000604482015260640161050a565b600060015411611d68576040517f08c379a000000000000000000000000000000000000000000000000000000000815260206004820152600660248201527f6e6f742045540000000000000000000000000000000000000000000000000000604482015260640161050a565b60008060015442611d79919061258d565b90506000611d8a6201518083612517565b336000908152600a602052604081205491925090607890611dad90610a28612550565b611db79190612517565b905060018210158015611e2e57503360009081526008602052604081208054909190611e0c577f4e487b7100000000000000000000000000000000000000000000000000000000600052603260045260246000fd5b90600052602060002090602091828204019190069054906101000a900460ff16155b15611e4f57612710611e42826103e8612550565b611e4c9190612517565b93505b6000601e611e5e60018561258d565b611e689190612517565b9050600f8111611e785780611e7b565b600f5b905060015b818111611f2b57336000908152600860205260409020805482908110611ecf577f4e487b7100000000000000000000000000000000000000000000000000000000600052603260045260246000fd5b90600052602060002090602091828204019190069054906101000a900460ff16611f1957612710611f0284610258612550565b611f0c9190612517565b611f1690876124ff565b95505b80611f23816125a4565b915050611e80565b509395945050505050565b60005473ffffffffffffffffffffffffffffffffffffffff62010000909104163314611fbe576040517f08c379a000000000000000000000000000000000000000000000000000000000815260206004820181905260248201527f4f776e61626c653a2063616c6c6572206973206e6f7420746865206f776e6572604482015260640161050a565b73ffffffffffffffffffffffffffffffffffffffff8116612061576040517f08c379a000000000000000000000000000000000000000000000000000000000815260206004820152602660248201527f4f776e61626c653a206e6577206f776e657220697320746865207a65726f206160448201527f6464726573730000000000000000000000000000000000000000000000000000606482015260840161050a565b6000805473ffffffffffffffffffffffffffffffffffffffff838116620100008181027fffffffffffffffffffff0000000000000000000000000000000000000000ffff85161790945560408051949093049091168084526020840191909152917f8be0079c531659141344cd1fd0a4f28419497f9722a3daafe3b4186f6b6457e0910161117e565b3360009081526003602052604090205460ff16612163576040517f08c379a000000000000000000000000000000000000000000000000000000000815260206004820152600b60248201527f4e6f74206d616e61676572000000000000000000000000000000000000000000604482015260640161050a565b600680547fffffffffffffffffffffffff00000000000000000000000000000000000000001673ffffffffffffffffffffffffffffffffffffffff92909216919091179055565b82805482825590600052602060002090601f0160209004810192821561223f5791602002820160005b8382111561221057835183826101000a81548160ff02191690831515021790555092602001926001016020816000010492830192600103026121d3565b801561223d5782816101000a81549060ff0219169055600101602081600001049283019260010302612210565b505b5061224b92915061224f565b5090565b5b8082111561224b5760008155600101612250565b803573ffffffffffffffffffffffffffffffffffffffff8116811461228857600080fd5b919050565b600082601f83011261229d578081fd5b8135602067ffffffffffffffff808311156122ba576122ba61260c565b8260051b6040517fffffffffffffffffffffffffffffffffffffffffffffffffffffffffffffffe0603f830116810181811084821117156122fd576122fd61260c565b6040528481528381019250868401828801850189101561231b578687fd5b8692505b858310156123445761233081612264565b84529284019260019290920191840161231f565b50979650505050505050565b600060208284031215612361578081fd5b61236a82612264565b9392505050565b60008060408385031215612383578081fd5b61238c83612264565b9150602083013561239c8161263b565b809150509250929050565b600080604083850312156123b9578182fd5b6123c283612264565b946020939093013593505050565b600080604083850312156123e2578182fd5b823567ffffffffffffffff808211156123f9578384fd5b6124058683870161228d565b9350602085013591508082111561241a578283fd5b506124278582860161228d565b9150509250929050565b600060208284031215612442578081fd5b813561236a8161263b565b60006020828403121561245e578081fd5b815161236a8161263b565b60006020828403121561247a578081fd5b5035919050565b6000815180845260208085019450808401835b838110156124c657815173ffffffffffffffffffffffffffffffffffffffff1687529582019590820190600101612494565b509495945050505050565b6040815260006124e46040830185612481565b82810360208401526124f68185612481565b95945050505050565b60008219821115612512576125126125dd565b500190565b60008261254b577f4e487b710000000000000000000000000000000000000000000000000000000081526012600452602481fd5b500490565b6000817fffffffffffffffffffffffffffffffffffffffffffffffffffffffffffffffff0483118215151615612588576125886125dd565b500290565b60008282101561259f5761259f6125dd565b500390565b60007fffffffffffffffffffffffffffffffffffffffffffffffffffffffffffffffff8214156125d6576125d66125dd565b5060010190565b7f4e487b7100000000000000000000000000000000000000000000000000000000600052601160045260246000fd5b7f4e487b7100000000000000000000000000000000000000000000000000000000600052604160045260246000fd5b80151581146119b557600080fdfea26469706673582212206c92e65864ac77280e2cbbfbb7e764e6247b0bc6ea3c93950a79ff4f1fe67e1f64736f6c63430008040033",
					"opcodes": "PUSH1 0x80 PUSH1 0x40 MSTORE PUSH8 0xDE0B6B3A7640000 PUSH1 0xD SSTORE CALLVALUE DUP1 ISZERO PUSH3 0x1D JUMPI PUSH1 0x0 DUP1 REVERT JUMPDEST POP PUSH1 0x40 MLOAD PUSH3 0x2879 CODESIZE SUB DUP1 PUSH3 0x2879 DUP4 CODECOPY DUP2 ADD PUSH1 0x40 DUP2 SWAP1 MSTORE PUSH3 0x40 SWAP2 PUSH3 0x1B3 JUMP JUMPDEST PUSH1 0x0 DUP1 SLOAD PUSH1 0xE DUP1 SLOAD PUSH1 0xFF NOT AND SWAP1 SSTORE PUSH1 0x4 DUP1 SLOAD PUSH1 0x1 PUSH1 0x1 PUSH1 0xA0 SHL SUB DUP1 DUP8 AND PUSH1 0x1 PUSH1 0x1 PUSH1 0xA0 SHL SUB NOT SWAP3 DUP4 AND OR SWAP1 SWAP3 SSTORE PUSH1 0x5 DUP1 SLOAD SWAP3 DUP7 AND SWAP3 SWAP1 SWAP2 AND SWAP2 SWAP1 SWAP2 OR SWAP1 SSTORE PUSH3 0x10000 CALLER SWAP1 DUP2 MUL PUSH1 0x1 PUSH1 0x1 PUSH1 0xB0 SHL SUB NOT SWAP1 SWAP3 AND SWAP2 SWAP1 SWAP2 OR PUSH2 0x101 OR SWAP1 SWAP2 SSTORE PUSH3 0xAA SWAP1 PUSH1 0x1 PUSH3 0xB2 JUMP JUMPDEST POP POP PUSH3 0x1EA JUMP JUMPDEST CALLER PUSH3 0xCC PUSH1 0x0 SLOAD PUSH3 0x10000 SWAP1 DIV PUSH1 0x1 PUSH1 0x1 PUSH1 0xA0 SHL SUB AND SWAP1 JUMP JUMPDEST PUSH1 0x1 PUSH1 0x1 PUSH1 0xA0 SHL SUB AND EQ PUSH3 0x127 JUMPI PUSH1 0x40 MLOAD PUSH3 0x461BCD PUSH1 0xE5 SHL DUP2 MSTORE PUSH1 0x20 PUSH1 0x4 DUP3 ADD DUP2 SWAP1 MSTORE PUSH1 0x24 DUP3 ADD MSTORE PUSH32 0x4F776E61626C653A2063616C6C6572206973206E6F7420746865206F776E6572 PUSH1 0x44 DUP3 ADD MSTORE PUSH1 0x64 ADD PUSH1 0x40 MLOAD DUP1 SWAP2 SUB SWAP1 REVERT JUMPDEST PUSH1 0x1 PUSH1 0x1 PUSH1 0xA0 SHL SUB DUP3 AND PUSH1 0x0 DUP2 DUP2 MSTORE PUSH1 0x3 PUSH1 0x20 SWAP1 DUP2 MSTORE PUSH1 0x40 SWAP2 DUP3 SWAP1 KECCAK256 DUP1 SLOAD PUSH1 0xFF NOT AND DUP6 ISZERO ISZERO SWAP1 DUP2 OR SWAP1 SWAP2 SSTORE DUP3 MLOAD CALLER DUP2 MSTORE SWAP2 DUP3 ADD SWAP4 SWAP1 SWAP4 MSTORE SWAP1 DUP2 ADD SWAP2 SWAP1 SWAP2 MSTORE PUSH32 0x2862B022F51FFEE932517D924C5103B3267A9D5D1F21BEC54356E328AAC24C18 SWAP1 PUSH1 0x60 ADD PUSH1 0x40 MLOAD DUP1 SWAP2 SUB SWAP1 LOG1 POP POP JUMP JUMPDEST DUP1 MLOAD PUSH1 0x1 PUSH1 0x1 PUSH1 0xA0 SHL SUB DUP2 AND DUP2 EQ PUSH3 0x1AE JUMPI PUSH1 0x0 DUP1 REVERT JUMPDEST SWAP2 SWAP1 POP JUMP JUMPDEST PUSH1 0x0 DUP1 PUSH1 0x40 DUP4 DUP6 SUB SLT ISZERO PUSH3 0x1C6 JUMPI DUP2 DUP3 REVERT JUMPDEST PUSH3 0x1D1 DUP4 PUSH3 0x196 JUMP JUMPDEST SWAP2 POP PUSH3 0x1E1 PUSH1 0x20 DUP5 ADD PUSH3 0x196 JUMP JUMPDEST SWAP1 POP SWAP3 POP SWAP3 SWAP1 POP JUMP JUMPDEST PUSH2 0x267F DUP1 PUSH3 0x1FA PUSH1 0x0 CODECOPY PUSH1 0x0 RETURN INVALID PUSH1 0x80 PUSH1 0x40 MSTORE CALLVALUE DUP1 ISZERO PUSH2 0x10 JUMPI PUSH1 0x0 DUP1 REVERT JUMPDEST POP PUSH1 0x4 CALLDATASIZE LT PUSH2 0x1CF JUMPI PUSH1 0x0 CALLDATALOAD PUSH1 0xE0 SHR DUP1 PUSH4 0x918A6283 GT PUSH2 0x104 JUMPI DUP1 PUSH4 0xD3B91F7A GT PUSH2 0xA2 JUMPI DUP1 PUSH4 0xF2FDE38B GT PUSH2 0x71 JUMPI DUP1 PUSH4 0xF2FDE38B EQ PUSH2 0x44C JUMPI DUP1 PUSH4 0xF3AE2415 EQ PUSH2 0x45F JUMPI DUP1 PUSH4 0xF56E9C66 EQ PUSH2 0x482 JUMPI DUP1 PUSH4 0xFB066531 EQ PUSH2 0x495 JUMPI PUSH1 0x0 DUP1 REVERT JUMPDEST DUP1 PUSH4 0xD3B91F7A EQ PUSH2 0x3DB JUMPI DUP1 PUSH4 0xE72EBDB7 EQ PUSH2 0x3EE JUMPI DUP1 PUSH4 0xEF7A47FA EQ PUSH2 0x424 JUMPI DUP1 PUSH4 0xF06B41E3 EQ PUSH2 0x42C JUMPI PUSH1 0x0 DUP1 REVERT JUMPDEST DUP1 PUSH4 0xA5E90EEE GT PUSH2 0xDE JUMPI DUP1 PUSH4 0xA5E90EEE EQ PUSH2 0x388 JUMPI DUP1 PUSH4 0xC6B24C1C EQ PUSH2 0x39B JUMPI DUP1 PUSH4 0xCA5CC206 EQ PUSH2 0x3BB JUMPI DUP1 PUSH4 0xCE75710C EQ PUSH2 0x3CE JUMPI PUSH1 0x0 DUP1 REVERT JUMPDEST DUP1 PUSH4 0x918A6283 EQ PUSH2 0x342 JUMPI DUP1 PUSH4 0x965ED465 EQ PUSH2 0x355 JUMPI DUP1 PUSH4 0xA3F82C2C EQ PUSH2 0x368 JUMPI PUSH1 0x0 DUP1 REVERT JUMPDEST DUP1 PUSH4 0x68DA5E8E GT PUSH2 0x171 JUMPI DUP1 PUSH4 0x6C68EC69 GT PUSH2 0x14B JUMPI DUP1 PUSH4 0x6C68EC69 EQ PUSH2 0x2E3 JUMPI DUP1 PUSH4 0x76BE6AF6 EQ PUSH2 0x2F6 JUMPI DUP1 PUSH4 0x8B9272B7 EQ PUSH2 0x2FE JUMPI DUP1 PUSH4 0x8DA5CB5B EQ PUSH2 0x31E JUMPI PUSH1 0x0 DUP1 REVERT JUMPDEST DUP1 PUSH4 0x68DA5E8E EQ PUSH2 0x290 JUMPI DUP1 PUSH4 0x6A15915A EQ PUSH2 0x2B0 JUMPI DUP1 PUSH4 0x6A41D5D7 EQ PUSH2 0x2C3 JUMPI PUSH1 0x0 DUP1 REVERT JUMPDEST DUP1 PUSH4 0x2F48AB7D GT PUSH2 0x1AD JUMPI DUP1 PUSH4 0x2F48AB7D EQ PUSH2 0x218 JUMPI DUP1 PUSH4 0x3197CBB6 EQ PUSH2 0x25D JUMPI DUP1 PUSH4 0x3CCFD60B EQ PUSH2 0x266 JUMPI DUP1 PUSH4 0x5DB98F2D EQ PUSH2 0x26E JUMPI PUSH1 0x0 DUP1 REVERT JUMPDEST DUP1 PUSH4 0xE73D199 EQ PUSH2 0x1D4 JUMPI DUP1 PUSH4 0x18160DDD EQ PUSH2 0x1E9 JUMPI DUP1 PUSH4 0x238C4C2F EQ PUSH2 0x205 JUMPI JUMPDEST PUSH1 0x0 DUP1 REVERT JUMPDEST PUSH2 0x1E7 PUSH2 0x1E2 CALLDATASIZE PUSH1 0x4 PUSH2 0x2469 JUMP JUMPDEST PUSH2 0x4A2 JUMP JUMPDEST STOP JUMPDEST PUSH2 0x1F2 PUSH1 0x2 SLOAD DUP2 JUMP JUMPDEST PUSH1 0x40 MLOAD SWAP1 DUP2 MSTORE PUSH1 0x20 ADD JUMPDEST PUSH1 0x40 MLOAD DUP1 SWAP2 SUB SWAP1 RETURN JUMPDEST PUSH2 0x1E7 PUSH2 0x213 CALLDATASIZE PUSH1 0x4 PUSH2 0x23D0 JUMP JUMPDEST PUSH2 0xD4F JUMP JUMPDEST PUSH1 0x5 SLOAD PUSH2 0x238 SWAP1 PUSH20 0xFFFFFFFFFFFFFFFFFFFFFFFFFFFFFFFFFFFFFFFF AND DUP2 JUMP JUMPDEST PUSH1 0x40 MLOAD PUSH20 0xFFFFFFFFFFFFFFFFFFFFFFFFFFFFFFFFFFFFFFFF SWAP1 SWAP2 AND DUP2 MSTORE PUSH1 0x20 ADD PUSH2 0x1FC JUMP JUMPDEST PUSH2 0x1F2 PUSH1 0x1 SLOAD DUP2 JUMP JUMPDEST PUSH2 0x1E7 PUSH2 0x118A JUMP JUMPDEST PUSH1 0x0 SLOAD PUSH2 0x280 SWAP1 PUSH2 0x100 SWAP1 DIV PUSH1 0xFF AND DUP2 JUMP JUMPDEST PUSH1 0x40 MLOAD SWAP1 ISZERO ISZERO DUP2 MSTORE PUSH1 0x20 ADD PUSH2 0x1FC JUMP JUMPDEST PUSH1 0x6 SLOAD PUSH2 0x238 SWAP1 PUSH20 0xFFFFFFFFFFFFFFFFFFFFFFFFFFFFFFFFFFFFFFFF AND DUP2 JUMP JUMPDEST PUSH2 0x1E7 PUSH2 0x2BE CALLDATASIZE PUSH1 0x4 PUSH2 0x2431 JUMP JUMPDEST PUSH2 0x163B JUMP JUMPDEST PUSH2 0x1F2 PUSH2 0x2D1 CALLDATASIZE PUSH1 0x4 PUSH2 0x2350 JUMP JUMPDEST PUSH1 0xA PUSH1 0x20 MSTORE PUSH1 0x0 SWAP1 DUP2 MSTORE PUSH1 0x40 SWAP1 KECCAK256 SLOAD DUP2 JUMP JUMPDEST PUSH2 0x1E7 PUSH2 0x2F1 CALLDATASIZE PUSH1 0x4 PUSH2 0x2431 JUMP JUMPDEST PUSH2 0x16E5 JUMP JUMPDEST PUSH2 0x1E7 PUSH2 0x178F JUMP JUMPDEST PUSH1 0x7 SLOAD PUSH2 0x238 SWAP1 PUSH20 0xFFFFFFFFFFFFFFFFFFFFFFFFFFFFFFFFFFFFFFFF AND DUP2 JUMP JUMPDEST PUSH1 0x0 SLOAD PUSH3 0x10000 SWAP1 DIV PUSH20 0xFFFFFFFFFFFFFFFFFFFFFFFFFFFFFFFFFFFFFFFF AND PUSH2 0x238 JUMP JUMPDEST PUSH2 0x1E7 PUSH2 0x350 CALLDATASIZE PUSH1 0x4 PUSH2 0x2350 JUMP JUMPDEST PUSH2 0x18C3 JUMP JUMPDEST PUSH2 0x1E7 PUSH2 0x363 CALLDATASIZE PUSH1 0x4 PUSH2 0x2350 JUMP JUMPDEST PUSH2 0x19B8 JUMP JUMPDEST PUSH2 0x1F2 PUSH2 0x376 CALLDATASIZE PUSH1 0x4 PUSH2 0x2350 JUMP JUMPDEST PUSH1 0xC PUSH1 0x20 MSTORE PUSH1 0x0 SWAP1 DUP2 MSTORE PUSH1 0x40 SWAP1 KECCAK256 SLOAD DUP2 JUMP JUMPDEST PUSH2 0x1E7 PUSH2 0x396 CALLDATASIZE PUSH1 0x4 PUSH2 0x2371 JUMP JUMPDEST PUSH2 0x1A78 JUMP JUMPDEST PUSH1 0x4 SLOAD PUSH2 0x238 SWAP1 PUSH20 0xFFFFFFFFFFFFFFFFFFFFFFFFFFFFFFFFFFFFFFFF AND DUP2 JUMP JUMPDEST PUSH2 0x1E7 PUSH2 0x3C9 CALLDATASIZE PUSH1 0x4 PUSH2 0x2431 JUMP JUMPDEST PUSH2 0x1B93 JUMP JUMPDEST PUSH1 0xE SLOAD PUSH2 0x280 SWAP1 PUSH1 0xFF AND DUP2 JUMP JUMPDEST PUSH2 0x280 PUSH2 0x3E9 CALLDATASIZE PUSH1 0x4 PUSH2 0x23A7 JUMP JUMPDEST PUSH2 0x1C43 JUMP JUMPDEST PUSH2 0x238 PUSH2 0x3FC CALLDATASIZE PUSH1 0x4 PUSH2 0x2350 JUMP JUMPDEST PUSH1 0x9 PUSH1 0x20 MSTORE PUSH1 0x0 SWAP1 DUP2 MSTORE PUSH1 0x40 SWAP1 KECCAK256 SLOAD PUSH20 0xFFFFFFFFFFFFFFFFFFFFFFFFFFFFFFFFFFFFFFFF AND DUP2 JUMP JUMPDEST PUSH2 0x1F2 PUSH2 0x1C86 JUMP JUMPDEST PUSH2 0x1F2 PUSH2 0x43A CALLDATASIZE PUSH1 0x4 PUSH2 0x2350 JUMP JUMPDEST PUSH1 0xB PUSH1 0x20 MSTORE PUSH1 0x0 SWAP1 DUP2 MSTORE PUSH1 0x40 SWAP1 KECCAK256 SLOAD DUP2 JUMP JUMPDEST PUSH2 0x1E7 PUSH2 0x45A CALLDATASIZE PUSH1 0x4 PUSH2 0x2350 JUMP JUMPDEST PUSH2 0x1F36 JUMP JUMPDEST PUSH2 0x280 PUSH2 0x46D CALLDATASIZE PUSH1 0x4 PUSH2 0x2350 JUMP JUMPDEST PUSH1 0x3 PUSH1 0x20 MSTORE PUSH1 0x0 SWAP1 DUP2 MSTORE PUSH1 0x40 SWAP1 KECCAK256 SLOAD PUSH1 0xFF AND DUP2 JUMP JUMPDEST PUSH2 0x1E7 PUSH2 0x490 CALLDATASIZE PUSH1 0x4 PUSH2 0x2350 JUMP JUMPDEST PUSH2 0x20EA JUMP JUMPDEST PUSH1 0x0 SLOAD PUSH2 0x280 SWAP1 PUSH1 0xFF AND DUP2 JUMP JUMPDEST PUSH1 0xE SLOAD PUSH1 0xFF AND PUSH2 0x513 JUMPI PUSH1 0x40 MLOAD PUSH32 0x8C379A000000000000000000000000000000000000000000000000000000000 DUP2 MSTORE PUSH1 0x20 PUSH1 0x4 DUP3 ADD MSTORE PUSH1 0xD PUSH1 0x24 DUP3 ADD MSTORE PUSH32 0x69646F20697320636C6F73656400000000000000000000000000000000000000 PUSH1 0x44 DUP3 ADD MSTORE PUSH1 0x64 ADD JUMPDEST PUSH1 0x40 MLOAD DUP1 SWAP2 SUB SWAP1 REVERT JUMPDEST PUSH1 0x0 DUP2 GT PUSH2 0x57D JUMPI PUSH1 0x40 MLOAD PUSH32 0x8C379A000000000000000000000000000000000000000000000000000000000 DUP2 MSTORE PUSH1 0x20 PUSH1 0x4 DUP3 ADD MSTORE PUSH1 0xD PUSH1 0x24 DUP3 ADD MSTORE PUSH32 0x76616C7565206973207A65726F00000000000000000000000000000000000000 PUSH1 0x44 DUP3 ADD MSTORE PUSH1 0x64 ADD PUSH2 0x50A JUMP JUMPDEST CALLER PUSH1 0x0 DUP2 DUP2 MSTORE PUSH1 0xA PUSH1 0x20 MSTORE PUSH1 0x40 SWAP1 KECCAK256 SLOAD PUSH1 0xD SLOAD PUSH2 0x59C SWAP1 PUSH2 0x7D0 PUSH2 0x2550 JUMP JUMPDEST DUP2 LT ISZERO DUP1 PUSH2 0x5C1 JUMPI POP PUSH1 0xD SLOAD PUSH2 0x5B4 SWAP1 PUSH2 0x7D0 PUSH2 0x2550 JUMP JUMPDEST PUSH2 0x5BE DUP5 DUP4 PUSH2 0x24FF JUMP JUMPDEST LT ISZERO JUMPDEST ISZERO PUSH2 0x637 JUMPI PUSH1 0x0 SLOAD PUSH2 0x100 SWAP1 DIV PUSH1 0xFF AND PUSH2 0x637 JUMPI PUSH1 0x40 MLOAD PUSH32 0x8C379A000000000000000000000000000000000000000000000000000000000 DUP2 MSTORE PUSH1 0x20 PUSH1 0x4 DUP3 ADD MSTORE PUSH1 0x13 PUSH1 0x24 DUP3 ADD MSTORE PUSH32 0x74776F2074686F7573616E6420636C6F73656400000000000000000000000000 PUSH1 0x44 DUP3 ADD MSTORE PUSH1 0x64 ADD PUSH2 0x50A JUMP JUMPDEST PUSH1 0xD SLOAD PUSH2 0x646 SWAP1 PUSH2 0x7D0 PUSH2 0x2550 JUMP JUMPDEST PUSH2 0x650 DUP5 DUP4 PUSH2 0x24FF JUMP JUMPDEST GT ISZERO PUSH2 0x6B8 JUMPI PUSH1 0x40 MLOAD PUSH32 0x8C379A000000000000000000000000000000000000000000000000000000000 DUP2 MSTORE PUSH1 0x20 PUSH1 0x4 DUP3 ADD MSTORE PUSH1 0x7 PUSH1 0x24 DUP3 ADD MSTORE PUSH32 0x6E6F742049444F00000000000000000000000000000000000000000000000000 PUSH1 0x44 DUP3 ADD MSTORE PUSH1 0x64 ADD PUSH2 0x50A JUMP JUMPDEST PUSH20 0xFFFFFFFFFFFFFFFFFFFFFFFFFFFFFFFFFFFFFFFF DUP1 DUP4 AND PUSH1 0x0 SWAP1 DUP2 MSTORE PUSH1 0x9 PUSH1 0x20 MSTORE PUSH1 0x40 SWAP1 KECCAK256 SLOAD AND DUP1 ISZERO PUSH2 0x9DF JUMPI PUSH20 0xFFFFFFFFFFFFFFFFFFFFFFFFFFFFFFFFFFFFFFFF DUP2 AND PUSH1 0x0 SWAP1 DUP2 MSTORE PUSH1 0xA PUSH1 0x20 MSTORE PUSH1 0x40 SWAP1 KECCAK256 SLOAD ISZERO PUSH2 0x8C8 JUMPI PUSH1 0x0 PUSH2 0x2710 PUSH2 0x722 DUP7 PUSH2 0x1F4 PUSH2 0x2550 JUMP JUMPDEST PUSH2 0x72C SWAP2 SWAP1 PUSH2 0x2517 JUMP JUMPDEST PUSH1 0x5 SLOAD PUSH1 0x40 MLOAD PUSH32 0x23B872DD00000000000000000000000000000000000000000000000000000000 DUP2 MSTORE PUSH20 0xFFFFFFFFFFFFFFFFFFFFFFFFFFFFFFFFFFFFFFFF DUP8 DUP2 AND PUSH1 0x4 DUP4 ADD MSTORE DUP6 DUP2 AND PUSH1 0x24 DUP4 ADD MSTORE PUSH1 0x44 DUP3 ADD DUP5 SWAP1 MSTORE SWAP3 SWAP4 POP SWAP2 AND SWAP1 PUSH4 0x23B872DD SWAP1 PUSH1 0x64 ADD PUSH1 0x20 PUSH1 0x40 MLOAD DUP1 DUP4 SUB DUP2 PUSH1 0x0 DUP8 DUP1 EXTCODESIZE ISZERO DUP1 ISZERO PUSH2 0x7AA JUMPI PUSH1 0x0 DUP1 REVERT JUMPDEST POP GAS CALL ISZERO DUP1 ISZERO PUSH2 0x7BE JUMPI RETURNDATASIZE PUSH1 0x0 DUP1 RETURNDATACOPY RETURNDATASIZE PUSH1 0x0 REVERT JUMPDEST POP POP POP POP PUSH1 0x40 MLOAD RETURNDATASIZE PUSH1 0x1F NOT PUSH1 0x1F DUP3 ADD AND DUP3 ADD DUP1 PUSH1 0x40 MSTORE POP DUP2 ADD SWAP1 PUSH2 0x7E2 SWAP2 SWAP1 PUSH2 0x244D JUMP JUMPDEST POP PUSH1 0x5 SLOAD PUSH1 0x4 SLOAD PUSH20 0xFFFFFFFFFFFFFFFFFFFFFFFFFFFFFFFFFFFFFFFF SWAP2 DUP3 AND SWAP2 PUSH4 0x23B872DD SWAP2 DUP8 SWAP2 AND PUSH2 0x815 DUP6 DUP11 PUSH2 0x258D JUMP JUMPDEST PUSH1 0x40 MLOAD PUSH32 0xFFFFFFFF00000000000000000000000000000000000000000000000000000000 PUSH1 0xE0 DUP7 SWAP1 SHL AND DUP2 MSTORE PUSH20 0xFFFFFFFFFFFFFFFFFFFFFFFFFFFFFFFFFFFFFFFF SWAP4 DUP5 AND PUSH1 0x4 DUP3 ADD MSTORE SWAP3 SWAP1 SWAP2 AND PUSH1 0x24 DUP4 ADD MSTORE PUSH1 0x44 DUP3 ADD MSTORE PUSH1 0x64 ADD PUSH1 0x20 PUSH1 0x40 MLOAD DUP1 DUP4 SUB DUP2 PUSH1 0x0 DUP8 DUP1 EXTCODESIZE ISZERO DUP1 ISZERO PUSH2 0x889 JUMPI PUSH1 0x0 DUP1 REVERT JUMPDEST POP GAS CALL ISZERO DUP1 ISZERO PUSH2 0x89D JUMPI RETURNDATASIZE PUSH1 0x0 DUP1 RETURNDATACOPY RETURNDATASIZE PUSH1 0x0 REVERT JUMPDEST POP POP POP POP PUSH1 0x40 MLOAD RETURNDATASIZE PUSH1 0x1F NOT PUSH1 0x1F DUP3 ADD AND DUP3 ADD DUP1 PUSH1 0x40 MSTORE POP DUP2 ADD SWAP1 PUSH2 0x8C1 SWAP2 SWAP1 PUSH2 0x244D JUMP JUMPDEST POP POP PUSH2 0x983 JUMP JUMPDEST PUSH1 0x5 SLOAD PUSH1 0x4 DUP1 SLOAD PUSH1 0x40 MLOAD PUSH32 0x23B872DD00000000000000000000000000000000000000000000000000000000 DUP2 MSTORE PUSH20 0xFFFFFFFFFFFFFFFFFFFFFFFFFFFFFFFFFFFFFFFF DUP8 DUP2 AND SWAP4 DUP3 ADD SWAP4 SWAP1 SWAP4 MSTORE SWAP1 DUP3 AND PUSH1 0x24 DUP3 ADD MSTORE PUSH1 0x44 DUP2 ADD DUP8 SWAP1 MSTORE SWAP2 AND SWAP1 PUSH4 0x23B872DD SWAP1 PUSH1 0x64 ADD PUSH1 0x20 PUSH1 0x40 MLOAD DUP1 DUP4 SUB DUP2 PUSH1 0x0 DUP8 DUP1 EXTCODESIZE ISZERO DUP1 ISZERO PUSH2 0x949 JUMPI PUSH1 0x0 DUP1 REVERT JUMPDEST POP GAS CALL ISZERO DUP1 ISZERO PUSH2 0x95D JUMPI RETURNDATASIZE PUSH1 0x0 DUP1 RETURNDATACOPY RETURNDATASIZE PUSH1 0x0 REVERT JUMPDEST POP POP POP POP PUSH1 0x40 MLOAD RETURNDATASIZE PUSH1 0x1F NOT PUSH1 0x1F DUP3 ADD AND DUP3 ADD DUP1 PUSH1 0x40 MSTORE POP DUP2 ADD SWAP1 PUSH2 0x981 SWAP2 SWAP1 PUSH2 0x244D JUMP JUMPDEST POP JUMPDEST PUSH20 0xFFFFFFFFFFFFFFFFFFFFFFFFFFFFFFFFFFFFFFFF DUP2 AND PUSH1 0x0 SWAP1 DUP2 MSTORE PUSH1 0xB PUSH1 0x20 MSTORE PUSH1 0x40 SWAP1 KECCAK256 SLOAD PUSH2 0x9B4 SWAP1 DUP6 SWAP1 PUSH2 0x24FF JUMP JUMPDEST PUSH20 0xFFFFFFFFFFFFFFFFFFFFFFFFFFFFFFFFFFFFFFFF DUP3 AND PUSH1 0x0 SWAP1 DUP2 MSTORE PUSH1 0xB PUSH1 0x20 MSTORE PUSH1 0x40 SWAP1 KECCAK256 SSTORE PUSH2 0xA9A JUMP JUMPDEST PUSH1 0x5 SLOAD PUSH1 0x4 DUP1 SLOAD PUSH1 0x40 MLOAD PUSH32 0x23B872DD00000000000000000000000000000000000000000000000000000000 DUP2 MSTORE PUSH20 0xFFFFFFFFFFFFFFFFFFFFFFFFFFFFFFFFFFFFFFFF DUP8 DUP2 AND SWAP4 DUP3 ADD SWAP4 SWAP1 SWAP4 MSTORE SWAP1 DUP3 AND PUSH1 0x24 DUP3 ADD MSTORE PUSH1 0x44 DUP2 ADD DUP8 SWAP1 MSTORE SWAP2 AND SWAP1 PUSH4 0x23B872DD SWAP1 PUSH1 0x64 ADD PUSH1 0x20 PUSH1 0x40 MLOAD DUP1 DUP4 SUB DUP2 PUSH1 0x0 DUP8 DUP1 EXTCODESIZE ISZERO DUP1 ISZERO PUSH2 0xA60 JUMPI PUSH1 0x0 DUP1 REVERT JUMPDEST POP GAS CALL ISZERO DUP1 ISZERO PUSH2 0xA74 JUMPI RETURNDATASIZE PUSH1 0x0 DUP1 RETURNDATACOPY RETURNDATASIZE PUSH1 0x0 REVERT JUMPDEST POP POP POP POP PUSH1 0x40 MLOAD RETURNDATASIZE PUSH1 0x1F NOT PUSH1 0x1F DUP3 ADD AND DUP3 ADD DUP1 PUSH1 0x40 MSTORE POP DUP2 ADD SWAP1 PUSH2 0xA98 SWAP2 SWAP1 PUSH2 0x244D JUMP JUMPDEST POP JUMPDEST PUSH2 0xAA4 DUP5 DUP4 PUSH2 0x24FF JUMP JUMPDEST PUSH20 0xFFFFFFFFFFFFFFFFFFFFFFFFFFFFFFFFFFFFFFFF DUP5 AND PUSH1 0x0 SWAP1 DUP2 MSTORE PUSH1 0xA PUSH1 0x20 MSTORE PUSH1 0x40 SWAP1 KECCAK256 DUP2 SWAP1 SSTORE PUSH1 0x78 SWAP1 PUSH2 0xADB SWAP1 PUSH2 0xA28 PUSH2 0x2550 JUMP JUMPDEST PUSH2 0xAE5 SWAP2 SWAP1 PUSH2 0x2517 JUMP JUMPDEST PUSH20 0xFFFFFFFFFFFFFFFFFFFFFFFFFFFFFFFFFFFFFFFF DUP5 AND PUSH1 0x0 SWAP1 DUP2 MSTORE PUSH1 0xC PUSH1 0x20 MSTORE PUSH1 0x40 SWAP1 KECCAK256 SSTORE PUSH1 0xD SLOAD PUSH2 0xB1A SWAP1 PUSH2 0x7D0 PUSH2 0x2550 JUMP JUMPDEST PUSH20 0xFFFFFFFFFFFFFFFFFFFFFFFFFFFFFFFFFFFFFFFF DUP5 AND PUSH1 0x0 SWAP1 DUP2 MSTORE PUSH1 0xA PUSH1 0x20 MSTORE PUSH1 0x40 SWAP1 KECCAK256 SLOAD LT PUSH2 0xBCB JUMPI PUSH1 0x6 SLOAD PUSH1 0x40 MLOAD PUSH32 0x40D097C300000000000000000000000000000000000000000000000000000000 DUP2 MSTORE PUSH20 0xFFFFFFFFFFFFFFFFFFFFFFFFFFFFFFFFFFFFFFFF DUP6 DUP2 AND PUSH1 0x4 DUP4 ADD MSTORE SWAP1 SWAP2 AND SWAP1 PUSH4 0x40D097C3 SWAP1 PUSH1 0x24 ADD PUSH1 0x0 PUSH1 0x40 MLOAD DUP1 DUP4 SUB DUP2 PUSH1 0x0 DUP8 DUP1 EXTCODESIZE ISZERO DUP1 ISZERO PUSH2 0xBB2 JUMPI PUSH1 0x0 DUP1 REVERT JUMPDEST POP GAS CALL ISZERO DUP1 ISZERO PUSH2 0xBC6 JUMPI RETURNDATASIZE PUSH1 0x0 DUP1 RETURNDATACOPY RETURNDATASIZE PUSH1 0x0 REVERT JUMPDEST POP POP POP POP JUMPDEST PUSH1 0xD SLOAD PUSH2 0xBDA SWAP1 PUSH2 0xBB8 PUSH2 0x2550 JUMP JUMPDEST PUSH20 0xFFFFFFFFFFFFFFFFFFFFFFFFFFFFFFFFFFFFFFFF DUP3 AND PUSH1 0x0 SWAP1 DUP2 MSTORE PUSH1 0xB PUSH1 0x20 MSTORE PUSH1 0x40 SWAP1 KECCAK256 SLOAD LT PUSH2 0xCF1 JUMPI PUSH1 0x6 SLOAD PUSH1 0x40 MLOAD PUSH32 0x40D097C300000000000000000000000000000000000000000000000000000000 DUP2 MSTORE PUSH20 0xFFFFFFFFFFFFFFFFFFFFFFFFFFFFFFFFFFFFFFFF DUP4 DUP2 AND PUSH1 0x4 DUP4 ADD MSTORE SWAP1 SWAP2 AND SWAP1 PUSH4 0x40D097C3 SWAP1 PUSH1 0x24 ADD PUSH1 0x0 PUSH1 0x40 MLOAD DUP1 DUP4 SUB DUP2 PUSH1 0x0 DUP8 DUP1 EXTCODESIZE ISZERO DUP1 ISZERO PUSH2 0xC72 JUMPI PUSH1 0x0 DUP1 REVERT JUMPDEST POP GAS CALL ISZERO DUP1 ISZERO PUSH2 0xC86 JUMPI RETURNDATASIZE PUSH1 0x0 DUP1 RETURNDATACOPY RETURNDATASIZE PUSH1 0x0 REVERT JUMPDEST POP POP POP POP PUSH1 0xD SLOAD PUSH2 0xBB8 PUSH2 0xC9A SWAP2 SWAP1 PUSH2 0x2550 JUMP JUMPDEST PUSH20 0xFFFFFFFFFFFFFFFFFFFFFFFFFFFFFFFFFFFFFFFF DUP3 AND PUSH1 0x0 SWAP1 DUP2 MSTORE PUSH1 0xB PUSH1 0x20 MSTORE PUSH1 0x40 SWAP1 KECCAK256 SLOAD PUSH2 0xCCA SWAP2 SWAP1 PUSH2 0x258D JUMP JUMPDEST PUSH20 0xFFFFFFFFFFFFFFFFFFFFFFFFFFFFFFFFFFFFFFFF DUP3 AND PUSH1 0x0 SWAP1 DUP2 MSTORE PUSH1 0xB PUSH1 0x20 MSTORE PUSH1 0x40 SWAP1 KECCAK256 SSTORE JUMPDEST PUSH2 0xCFA DUP4 PUSH2 0x18C3 JUMP JUMPDEST PUSH1 0x40 DUP1 MLOAD PUSH20 0xFFFFFFFFFFFFFFFFFFFFFFFFFFFFFFFFFFFFFFFF DUP6 AND DUP2 MSTORE PUSH1 0x20 DUP2 ADD DUP7 SWAP1 MSTORE PUSH32 0x80BF12451B207525905F2FE9E47714FBCD5AA383B228F656B880136E66B288F SWAP2 ADD PUSH1 0x40 MLOAD DUP1 SWAP2 SUB SWAP1 LOG1 POP POP POP POP JUMP JUMPDEST PUSH1 0x0 SLOAD PUSH20 0xFFFFFFFFFFFFFFFFFFFFFFFFFFFFFFFFFFFFFFFF PUSH3 0x10000 SWAP1 SWAP2 DIV AND CALLER EQ PUSH2 0xDD7 JUMPI PUSH1 0x40 MLOAD PUSH32 0x8C379A000000000000000000000000000000000000000000000000000000000 DUP2 MSTORE PUSH1 0x20 PUSH1 0x4 DUP3 ADD DUP2 SWAP1 MSTORE PUSH1 0x24 DUP3 ADD MSTORE PUSH32 0x4F776E61626C653A2063616C6C6572206973206E6F7420746865206F776E6572 PUSH1 0x44 DUP3 ADD MSTORE PUSH1 0x64 ADD PUSH2 0x50A JUMP JUMPDEST DUP1 MLOAD DUP3 MLOAD EQ PUSH2 0xE42 JUMPI PUSH1 0x40 MLOAD PUSH32 0x8C379A000000000000000000000000000000000000000000000000000000000 DUP2 MSTORE PUSH1 0x20 PUSH1 0x4 DUP3 ADD MSTORE PUSH1 0xF PUSH1 0x24 DUP3 ADD MSTORE PUSH32 0x6C656E6774682069732077726F6E670000000000000000000000000000000000 PUSH1 0x44 DUP3 ADD MSTORE PUSH1 0x64 ADD PUSH2 0x50A JUMP JUMPDEST PUSH1 0x0 JUMPDEST DUP3 MLOAD DUP2 LT ISZERO PUSH2 0x114C JUMPI PUSH1 0x0 PUSH20 0xFFFFFFFFFFFFFFFFFFFFFFFFFFFFFFFFFFFFFFFF AND DUP4 DUP3 DUP2 MLOAD DUP2 LT PUSH2 0xE9F JUMPI PUSH32 0x4E487B7100000000000000000000000000000000000000000000000000000000 PUSH1 0x0 MSTORE PUSH1 0x32 PUSH1 0x4 MSTORE PUSH1 0x24 PUSH1 0x0 REVERT JUMPDEST PUSH1 0x20 MUL PUSH1 0x20 ADD ADD MLOAD PUSH20 0xFFFFFFFFFFFFFFFFFFFFFFFFFFFFFFFFFFFFFFFF AND EQ ISZERO PUSH2 0xF25 JUMPI PUSH1 0x40 MLOAD PUSH32 0x8C379A000000000000000000000000000000000000000000000000000000000 DUP2 MSTORE PUSH1 0x20 PUSH1 0x4 DUP3 ADD MSTORE PUSH1 0x10 PUSH1 0x24 DUP3 ADD MSTORE PUSH32 0x616464726573732069732077726F6E6700000000000000000000000000000000 PUSH1 0x44 DUP3 ADD MSTORE PUSH1 0x64 ADD PUSH2 0x50A JUMP JUMPDEST DUP2 DUP2 DUP2 MLOAD DUP2 LT PUSH2 0xF5E JUMPI PUSH32 0x4E487B7100000000000000000000000000000000000000000000000000000000 PUSH1 0x0 MSTORE PUSH1 0x32 PUSH1 0x4 MSTORE PUSH1 0x24 PUSH1 0x0 REVERT JUMPDEST PUSH1 0x20 MUL PUSH1 0x20 ADD ADD MLOAD PUSH20 0xFFFFFFFFFFFFFFFFFFFFFFFFFFFFFFFFFFFFFFFF AND DUP4 DUP3 DUP2 MLOAD DUP2 LT PUSH2 0xFB5 JUMPI PUSH32 0x4E487B7100000000000000000000000000000000000000000000000000000000 PUSH1 0x0 MSTORE PUSH1 0x32 PUSH1 0x4 MSTORE PUSH1 0x24 PUSH1 0x0 REVERT JUMPDEST PUSH1 0x20 MUL PUSH1 0x20 ADD ADD MLOAD PUSH20 0xFFFFFFFFFFFFFFFFFFFFFFFFFFFFFFFFFFFFFFFF AND EQ ISZERO PUSH2 0x103B JUMPI PUSH1 0x40 MLOAD PUSH32 0x8C379A000000000000000000000000000000000000000000000000000000000 DUP2 MSTORE PUSH1 0x20 PUSH1 0x4 DUP3 ADD MSTORE PUSH1 0xF PUSH1 0x24 DUP3 ADD MSTORE PUSH32 0x61646472657320697320657175616C0000000000000000000000000000000000 PUSH1 0x44 DUP3 ADD MSTORE PUSH1 0x64 ADD PUSH2 0x50A JUMP JUMPDEST DUP2 DUP2 DUP2 MLOAD DUP2 LT PUSH2 0x1074 JUMPI PUSH32 0x4E487B7100000000000000000000000000000000000000000000000000000000 PUSH1 0x0 MSTORE PUSH1 0x32 PUSH1 0x4 MSTORE PUSH1 0x24 PUSH1 0x0 REVERT JUMPDEST PUSH1 0x20 MUL PUSH1 0x20 ADD ADD MLOAD PUSH1 0x9 PUSH1 0x0 DUP6 DUP5 DUP2 MLOAD DUP2 LT PUSH2 0x10B9 JUMPI PUSH32 0x4E487B7100000000000000000000000000000000000000000000000000000000 PUSH1 0x0 MSTORE PUSH1 0x32 PUSH1 0x4 MSTORE PUSH1 0x24 PUSH1 0x0 REVERT JUMPDEST PUSH1 0x20 MUL PUSH1 0x20 ADD ADD MLOAD PUSH20 0xFFFFFFFFFFFFFFFFFFFFFFFFFFFFFFFFFFFFFFFF AND PUSH20 0xFFFFFFFFFFFFFFFFFFFFFFFFFFFFFFFFFFFFFFFF AND DUP2 MSTORE PUSH1 0x20 ADD SWAP1 DUP2 MSTORE PUSH1 0x20 ADD PUSH1 0x0 KECCAK256 PUSH1 0x0 PUSH2 0x100 EXP DUP2 SLOAD DUP2 PUSH20 0xFFFFFFFFFFFFFFFFFFFFFFFFFFFFFFFFFFFFFFFF MUL NOT AND SWAP1 DUP4 PUSH20 0xFFFFFFFFFFFFFFFFFFFFFFFFFFFFFFFFFFFFFFFF AND MUL OR SWAP1 SSTORE POP DUP1 DUP1 PUSH2 0x1144 SWAP1 PUSH2 0x25A4 JUMP JUMPDEST SWAP2 POP POP PUSH2 0xE45 JUMP JUMPDEST POP PUSH32 0x1886F03D42B471BC8FAF784E3878FCE329E8E139473C601B8648DE73B3380C02 DUP3 DUP3 PUSH1 0x40 MLOAD PUSH2 0x117E SWAP3 SWAP2 SWAP1 PUSH2 0x24D1 JUMP JUMPDEST PUSH1 0x40 MLOAD DUP1 SWAP2 SUB SWAP1 LOG1 POP POP JUMP JUMPDEST CALLER PUSH1 0x0 SWAP1 DUP2 MSTORE PUSH1 0xA PUSH1 0x20 MSTORE PUSH1 0x40 SWAP1 KECCAK256 SLOAD PUSH2 0x1200 JUMPI PUSH1 0x40 MLOAD PUSH32 0x8C379A000000000000000000000000000000000000000000000000000000000 DUP2 MSTORE PUSH1 0x20 PUSH1 0x4 DUP3 ADD MSTORE PUSH1 0x9 PUSH1 0x24 DUP3 ADD MSTORE PUSH32 0x6E6F7420616C6C6F770000000000000000000000000000000000000000000000 PUSH1 0x44 DUP3 ADD MSTORE PUSH1 0x64 ADD PUSH2 0x50A JUMP JUMPDEST PUSH1 0x0 PUSH1 0x1 SLOAD GT PUSH2 0x126C JUMPI PUSH1 0x40 MLOAD PUSH32 0x8C379A000000000000000000000000000000000000000000000000000000000 DUP2 MSTORE PUSH1 0x20 PUSH1 0x4 DUP3 ADD MSTORE PUSH1 0x6 PUSH1 0x24 DUP3 ADD MSTORE PUSH32 0x6E6F742045540000000000000000000000000000000000000000000000000000 PUSH1 0x44 DUP3 ADD MSTORE PUSH1 0x64 ADD PUSH2 0x50A JUMP JUMPDEST PUSH1 0x0 DUP1 PUSH1 0x1 SLOAD TIMESTAMP PUSH2 0x127D SWAP2 SWAP1 PUSH2 0x258D JUMP JUMPDEST SWAP1 POP PUSH1 0x0 PUSH2 0x128E PUSH3 0x15180 DUP4 PUSH2 0x2517 JUMP JUMPDEST CALLER PUSH1 0x0 SWAP1 DUP2 MSTORE PUSH1 0xA PUSH1 0x20 MSTORE PUSH1 0x40 DUP2 KECCAK256 SLOAD SWAP2 SWAP3 POP SWAP1 PUSH1 0x78 SWAP1 PUSH2 0x12B1 SWAP1 PUSH2 0xA28 PUSH2 0x2550 JUMP JUMPDEST PUSH2 0x12BB SWAP2 SWAP1 PUSH2 0x2517 JUMP JUMPDEST SWAP1 POP PUSH1 0x1 DUP3 LT ISZERO DUP1 ISZERO PUSH2 0x1332 JUMPI POP CALLER PUSH1 0x0 SWAP1 DUP2 MSTORE PUSH1 0x8 PUSH1 0x20 MSTORE PUSH1 0x40 DUP2 KECCAK256 DUP1 SLOAD SWAP1 SWAP2 SWAP1 PUSH2 0x1310 JUMPI PUSH32 0x4E487B7100000000000000000000000000000000000000000000000000000000 PUSH1 0x0 MSTORE PUSH1 0x32 PUSH1 0x4 MSTORE PUSH1 0x24 PUSH1 0x0 REVERT JUMPDEST SWAP1 PUSH1 0x0 MSTORE PUSH1 0x20 PUSH1 0x0 KECCAK256 SWAP1 PUSH1 0x20 SWAP2 DUP3 DUP3 DIV ADD SWAP2 SWAP1 MOD SWAP1 SLOAD SWAP1 PUSH2 0x100 EXP SWAP1 DIV PUSH1 0xFF AND ISZERO JUMPDEST ISZERO PUSH2 0x13C7 JUMPI PUSH2 0x2710 PUSH2 0x1346 DUP3 PUSH2 0x3E8 PUSH2 0x2550 JUMP JUMPDEST PUSH2 0x1350 SWAP2 SWAP1 PUSH2 0x2517 JUMP JUMPDEST CALLER PUSH1 0x0 SWAP1 DUP2 MSTORE PUSH1 0x8 PUSH1 0x20 MSTORE PUSH1 0x40 DUP2 KECCAK256 DUP1 SLOAD SWAP3 SWAP7 POP PUSH1 0x1 SWAP3 SWAP1 SWAP2 SWAP1 PUSH2 0x139D JUMPI PUSH32 0x4E487B7100000000000000000000000000000000000000000000000000000000 PUSH1 0x0 MSTORE PUSH1 0x32 PUSH1 0x4 MSTORE PUSH1 0x24 PUSH1 0x0 REVERT JUMPDEST SWAP1 PUSH1 0x0 MSTORE PUSH1 0x20 PUSH1 0x0 KECCAK256 SWAP1 PUSH1 0x20 SWAP2 DUP3 DUP3 DIV ADD SWAP2 SWAP1 MOD PUSH2 0x100 EXP DUP2 SLOAD DUP2 PUSH1 0xFF MUL NOT AND SWAP1 DUP4 ISZERO ISZERO MUL OR SWAP1 SSTORE POP JUMPDEST PUSH1 0x0 PUSH1 0x1E PUSH2 0x13D6 PUSH1 0x1 DUP6 PUSH2 0x258D JUMP JUMPDEST PUSH2 0x13E0 SWAP2 SWAP1 PUSH2 0x2517 JUMP JUMPDEST SWAP1 POP PUSH1 0xF DUP2 GT PUSH2 0x13F0 JUMPI DUP1 PUSH2 0x13F3 JUMP JUMPDEST PUSH1 0xF JUMPDEST SWAP1 POP PUSH1 0x1 JUMPDEST DUP2 DUP2 GT PUSH2 0x1518 JUMPI CALLER PUSH1 0x0 SWAP1 DUP2 MSTORE PUSH1 0x8 PUSH1 0x20 MSTORE PUSH1 0x40 SWAP1 KECCAK256 DUP1 SLOAD DUP3 SWAP1 DUP2 LT PUSH2 0x1447 JUMPI PUSH32 0x4E487B7100000000000000000000000000000000000000000000000000000000 PUSH1 0x0 MSTORE PUSH1 0x32 PUSH1 0x4 MSTORE PUSH1 0x24 PUSH1 0x0 REVERT JUMPDEST SWAP1 PUSH1 0x0 MSTORE PUSH1 0x20 PUSH1 0x0 KECCAK256 SWAP1 PUSH1 0x20 SWAP2 DUP3 DUP3 DIV ADD SWAP2 SWAP1 MOD SWAP1 SLOAD SWAP1 PUSH2 0x100 EXP SWAP1 DIV PUSH1 0xFF AND PUSH2 0x1506 JUMPI PUSH2 0x2710 PUSH2 0x147A DUP5 PUSH2 0x258 PUSH2 0x2550 JUMP JUMPDEST PUSH2 0x1484 SWAP2 SWAP1 PUSH2 0x2517 JUMP JUMPDEST PUSH2 0x148E SWAP1 DUP8 PUSH2 0x24FF JUMP JUMPDEST CALLER PUSH1 0x0 SWAP1 DUP2 MSTORE PUSH1 0x8 PUSH1 0x20 MSTORE PUSH1 0x40 SWAP1 KECCAK256 DUP1 SLOAD SWAP2 SWAP8 POP PUSH1 0x1 SWAP2 DUP4 SWAP1 DUP2 LT PUSH2 0x14DC JUMPI PUSH32 0x4E487B7100000000000000000000000000000000000000000000000000000000 PUSH1 0x0 MSTORE PUSH1 0x32 PUSH1 0x4 MSTORE PUSH1 0x24 PUSH1 0x0 REVERT JUMPDEST SWAP1 PUSH1 0x0 MSTORE PUSH1 0x20 PUSH1 0x0 KECCAK256 SWAP1 PUSH1 0x20 SWAP2 DUP3 DUP3 DIV ADD SWAP2 SWAP1 MOD PUSH2 0x100 EXP DUP2 SLOAD DUP2 PUSH1 0xFF MUL NOT AND SWAP1 DUP4 ISZERO ISZERO MUL OR SWAP1 SSTORE POP JUMPDEST DUP1 PUSH2 0x1510 DUP2 PUSH2 0x25A4 JUMP JUMPDEST SWAP2 POP POP PUSH2 0x13F8 JUMP JUMPDEST POP CALLER PUSH1 0x0 SWAP1 DUP2 MSTORE PUSH1 0xC PUSH1 0x20 MSTORE PUSH1 0x40 SWAP1 KECCAK256 SLOAD PUSH2 0x1534 SWAP1 DUP7 SWAP1 PUSH2 0x258D JUMP JUMPDEST CALLER PUSH1 0x0 DUP2 DUP2 MSTORE PUSH1 0xC PUSH1 0x20 MSTORE PUSH1 0x40 SWAP1 DUP2 SWAP1 KECCAK256 SWAP3 SWAP1 SWAP3 SSTORE PUSH1 0x7 SLOAD SWAP2 MLOAD PUSH32 0xA9059CBB00000000000000000000000000000000000000000000000000000000 DUP2 MSTORE PUSH1 0x4 DUP2 ADD SWAP2 SWAP1 SWAP2 MSTORE PUSH1 0x24 DUP2 ADD DUP8 SWAP1 MSTORE PUSH20 0xFFFFFFFFFFFFFFFFFFFFFFFFFFFFFFFFFFFFFFFF SWAP1 SWAP2 AND SWAP1 PUSH4 0xA9059CBB SWAP1 PUSH1 0x44 ADD PUSH1 0x20 PUSH1 0x40 MLOAD DUP1 DUP4 SUB DUP2 PUSH1 0x0 DUP8 DUP1 EXTCODESIZE ISZERO DUP1 ISZERO PUSH2 0x15BC JUMPI PUSH1 0x0 DUP1 REVERT JUMPDEST POP GAS CALL ISZERO DUP1 ISZERO PUSH2 0x15D0 JUMPI RETURNDATASIZE PUSH1 0x0 DUP1 RETURNDATACOPY RETURNDATASIZE PUSH1 0x0 REVERT JUMPDEST POP POP POP POP PUSH1 0x40 MLOAD RETURNDATASIZE PUSH1 0x1F NOT PUSH1 0x1F DUP3 ADD AND DUP3 ADD DUP1 PUSH1 0x40 MSTORE POP DUP2 ADD SWAP1 PUSH2 0x15F4 SWAP2 SWAP1 PUSH2 0x244D JUMP JUMPDEST POP PUSH1 0x40 DUP1 MLOAD CALLER DUP2 MSTORE PUSH1 0x20 DUP2 ADD DUP8 SWAP1 MSTORE TIMESTAMP DUP2 DUP4 ADD MSTORE SWAP1 MLOAD PUSH32 0xF279E6A1F5E320CCA91135676D9CB6E44CA8A08C0B88342BCDB1144F6511B568 SWAP2 DUP2 SWAP1 SUB PUSH1 0x60 ADD SWAP1 LOG1 POP POP POP POP POP JUMP JUMPDEST CALLER PUSH1 0x0 SWAP1 DUP2 MSTORE PUSH1 0x3 PUSH1 0x20 MSTORE PUSH1 0x40 SWAP1 KECCAK256 SLOAD PUSH1 0xFF AND PUSH2 0x16B4 JUMPI PUSH1 0x40 MLOAD PUSH32 0x8C379A000000000000000000000000000000000000000000000000000000000 DUP2 MSTORE PUSH1 0x20 PUSH1 0x4 DUP3 ADD MSTORE PUSH1 0xB PUSH1 0x24 DUP3 ADD MSTORE PUSH32 0x4E6F74206D616E61676572000000000000000000000000000000000000000000 PUSH1 0x44 DUP3 ADD MSTORE PUSH1 0x64 ADD PUSH2 0x50A JUMP JUMPDEST PUSH1 0xE DUP1 SLOAD PUSH32 0xFFFFFFFFFFFFFFFFFFFFFFFFFFFFFFFFFFFFFFFFFFFFFFFFFFFFFFFFFFFFFF00 AND SWAP2 ISZERO ISZERO SWAP2 SWAP1 SWAP2 OR SWAP1 SSTORE JUMP JUMPDEST CALLER PUSH1 0x0 SWAP1 DUP2 MSTORE PUSH1 0x3 PUSH1 0x20 MSTORE PUSH1 0x40 SWAP1 KECCAK256 SLOAD PUSH1 0xFF AND PUSH2 0x175E JUMPI PUSH1 0x40 MLOAD PUSH32 0x8C379A000000000000000000000000000000000000000000000000000000000 DUP2 MSTORE PUSH1 0x20 PUSH1 0x4 DUP3 ADD MSTORE PUSH1 0xB PUSH1 0x24 DUP3 ADD MSTORE PUSH32 0x4E6F74206D616E61676572000000000000000000000000000000000000000000 PUSH1 0x44 DUP3 ADD MSTORE PUSH1 0x64 ADD PUSH2 0x50A JUMP JUMPDEST PUSH1 0x0 DUP1 SLOAD PUSH32 0xFFFFFFFFFFFFFFFFFFFFFFFFFFFFFFFFFFFFFFFFFFFFFFFFFFFFFFFFFFFFFF00 AND SWAP2 ISZERO ISZERO SWAP2 SWAP1 SWAP2 OR SWAP1 SSTORE JUMP JUMPDEST PUSH1 0x0 SLOAD PUSH20 0xFFFFFFFFFFFFFFFFFFFFFFFFFFFFFFFFFFFFFFFF PUSH3 0x10000 SWAP1 SWAP2 DIV AND CALLER EQ PUSH2 0x1817 JUMPI PUSH1 0x40 MLOAD PUSH32 0x8C379A000000000000000000000000000000000000000000000000000000000 DUP2 MSTORE PUSH1 0x20 PUSH1 0x4 DUP3 ADD DUP2 SWAP1 MSTORE PUSH1 0x24 DUP3 ADD MSTORE PUSH32 0x4F776E61626C653A2063616C6C6572206973206E6F7420746865206F776E6572 PUSH1 0x44 DUP3 ADD MSTORE PUSH1 0x64 ADD PUSH2 0x50A JUMP JUMPDEST PUSH1 0x1 SLOAD ISZERO PUSH2 0x1881 JUMPI PUSH1 0x40 MLOAD PUSH32 0x8C379A000000000000000000000000000000000000000000000000000000000 DUP2 MSTORE PUSH1 0x20 PUSH1 0x4 DUP3 ADD MSTORE PUSH1 0xD PUSH1 0x24 DUP3 ADD MSTORE PUSH32 0x74696D6520697320657869737400000000000000000000000000000000000000 PUSH1 0x44 DUP3 ADD MSTORE PUSH1 0x64 ADD PUSH2 0x50A JUMP JUMPDEST TIMESTAMP PUSH1 0x1 DUP2 SWAP1 SSTORE PUSH1 0x40 DUP1 MLOAD CALLER DUP2 MSTORE PUSH1 0x20 DUP2 ADD SWAP3 SWAP1 SWAP3 MSTORE PUSH32 0x4100552E0C7D7733B482A8B5B352D5CF64221041A5CB5AD4F57474178741B69A SWAP2 ADD PUSH1 0x40 MLOAD DUP1 SWAP2 SUB SWAP1 LOG1 JUMP JUMPDEST PUSH20 0xFFFFFFFFFFFFFFFFFFFFFFFFFFFFFFFFFFFFFFFF DUP2 AND PUSH1 0x0 SWAP1 DUP2 MSTORE PUSH1 0x8 PUSH1 0x20 MSTORE PUSH1 0x40 SWAP1 KECCAK256 SLOAD PUSH2 0x19B5 JUMPI PUSH1 0x40 DUP1 MLOAD PUSH1 0x10 DUP1 DUP3 MSTORE PUSH2 0x220 DUP3 ADD SWAP1 SWAP3 MSTORE PUSH1 0x0 SWAP2 PUSH1 0x20 DUP3 ADD PUSH2 0x200 DUP1 CALLDATASIZE DUP4 CALLDATACOPY ADD SWAP1 POP POP SWAP1 POP PUSH1 0x0 JUMPDEST DUP2 MLOAD DUP2 LT ISZERO PUSH2 0x197B JUMPI PUSH1 0x0 DUP3 DUP3 DUP2 MLOAD DUP2 LT PUSH2 0x1959 JUMPI PUSH32 0x4E487B7100000000000000000000000000000000000000000000000000000000 PUSH1 0x0 MSTORE PUSH1 0x32 PUSH1 0x4 MSTORE PUSH1 0x24 PUSH1 0x0 REVERT JUMPDEST SWAP2 ISZERO ISZERO PUSH1 0x20 SWAP3 DUP4 MUL SWAP2 SWAP1 SWAP2 ADD SWAP1 SWAP2 ADD MSTORE DUP1 PUSH2 0x1973 DUP2 PUSH2 0x25A4 JUMP JUMPDEST SWAP2 POP POP PUSH2 0x1915 JUMP JUMPDEST POP PUSH20 0xFFFFFFFFFFFFFFFFFFFFFFFFFFFFFFFFFFFFFFFF DUP3 AND PUSH1 0x0 SWAP1 DUP2 MSTORE PUSH1 0x8 PUSH1 0x20 SWAP1 DUP2 MSTORE PUSH1 0x40 SWAP1 SWAP2 KECCAK256 DUP3 MLOAD PUSH2 0x19B2 SWAP3 DUP5 ADD SWAP1 PUSH2 0x21AA JUMP JUMPDEST POP POP JUMPDEST POP JUMP JUMPDEST CALLER PUSH1 0x0 SWAP1 DUP2 MSTORE PUSH1 0x3 PUSH1 0x20 MSTORE PUSH1 0x40 SWAP1 KECCAK256 SLOAD PUSH1 0xFF AND PUSH2 0x1A31 JUMPI PUSH1 0x40 MLOAD PUSH32 0x8C379A000000000000000000000000000000000000000000000000000000000 DUP2 MSTORE PUSH1 0x20 PUSH1 0x4 DUP3 ADD MSTORE PUSH1 0xB PUSH1 0x24 DUP3 ADD MSTORE PUSH32 0x4E6F74206D616E61676572000000000000000000000000000000000000000000 PUSH1 0x44 DUP3 ADD MSTORE PUSH1 0x64 ADD PUSH2 0x50A JUMP JUMPDEST PUSH1 0x7 DUP1 SLOAD PUSH32 0xFFFFFFFFFFFFFFFFFFFFFFFF0000000000000000000000000000000000000000 AND PUSH20 0xFFFFFFFFFFFFFFFFFFFFFFFFFFFFFFFFFFFFFFFF SWAP3 SWAP1 SWAP3 AND SWAP2 SWAP1 SWAP2 OR SWAP1 SSTORE JUMP JUMPDEST PUSH1 0x0 SLOAD PUSH20 0xFFFFFFFFFFFFFFFFFFFFFFFFFFFFFFFFFFFFFFFF PUSH3 0x10000 SWAP1 SWAP2 DIV AND CALLER EQ PUSH2 0x1B00 JUMPI PUSH1 0x40 MLOAD PUSH32 0x8C379A000000000000000000000000000000000000000000000000000000000 DUP2 MSTORE PUSH1 0x20 PUSH1 0x4 DUP3 ADD DUP2 SWAP1 MSTORE PUSH1 0x24 DUP3 ADD MSTORE PUSH32 0x4F776E61626C653A2063616C6C6572206973206E6F7420746865206F776E6572 PUSH1 0x44 DUP3 ADD MSTORE PUSH1 0x64 ADD PUSH2 0x50A JUMP JUMPDEST PUSH20 0xFFFFFFFFFFFFFFFFFFFFFFFFFFFFFFFFFFFFFFFF DUP3 AND PUSH1 0x0 DUP2 DUP2 MSTORE PUSH1 0x3 PUSH1 0x20 SWAP1 DUP2 MSTORE PUSH1 0x40 SWAP2 DUP3 SWAP1 KECCAK256 DUP1 SLOAD PUSH32 0xFFFFFFFFFFFFFFFFFFFFFFFFFFFFFFFFFFFFFFFFFFFFFFFFFFFFFFFFFFFFFF00 AND DUP6 ISZERO ISZERO SWAP1 DUP2 OR SWAP1 SWAP2 SSTORE DUP3 MLOAD CALLER DUP2 MSTORE SWAP2 DUP3 ADD SWAP4 SWAP1 SWAP4 MSTORE SWAP1 DUP2 ADD SWAP2 SWAP1 SWAP2 MSTORE PUSH32 0x2862B022F51FFEE932517D924C5103B3267A9D5D1F21BEC54356E328AAC24C18 SWAP1 PUSH1 0x60 ADD PUSH2 0x117E JUMP JUMPDEST CALLER PUSH1 0x0 SWAP1 DUP2 MSTORE PUSH1 0x3 PUSH1 0x20 MSTORE PUSH1 0x40 SWAP1 KECCAK256 SLOAD PUSH1 0xFF AND PUSH2 0x1C0C JUMPI PUSH1 0x40 MLOAD PUSH32 0x8C379A000000000000000000000000000000000000000000000000000000000 DUP2 MSTORE PUSH1 0x20 PUSH1 0x4 DUP3 ADD MSTORE PUSH1 0xB PUSH1 0x24 DUP3 ADD MSTORE PUSH32 0x4E6F74206D616E61676572000000000000000000000000000000000000000000 PUSH1 0x44 DUP3 ADD MSTORE PUSH1 0x64 ADD PUSH2 0x50A JUMP JUMPDEST PUSH1 0x0 DUP1 SLOAD SWAP2 ISZERO ISZERO PUSH2 0x100 MUL PUSH32 0xFFFFFFFFFFFFFFFFFFFFFFFFFFFFFFFFFFFFFFFFFFFFFFFFFFFFFFFFFFFF00FF SWAP1 SWAP3 AND SWAP2 SWAP1 SWAP2 OR SWAP1 SSTORE JUMP JUMPDEST PUSH1 0x8 PUSH1 0x20 MSTORE DUP2 PUSH1 0x0 MSTORE PUSH1 0x40 PUSH1 0x0 KECCAK256 DUP2 DUP2 SLOAD DUP2 LT PUSH2 0x1C5F JUMPI PUSH1 0x0 DUP1 REVERT JUMPDEST SWAP1 PUSH1 0x0 MSTORE PUSH1 0x20 PUSH1 0x0 KECCAK256 SWAP1 PUSH1 0x20 SWAP2 DUP3 DUP3 DIV ADD SWAP2 SWAP1 MOD SWAP2 POP SWAP2 POP SWAP1 SLOAD SWAP1 PUSH2 0x100 EXP SWAP1 DIV PUSH1 0xFF AND DUP2 JUMP JUMPDEST CALLER PUSH1 0x0 SWAP1 DUP2 MSTORE PUSH1 0xA PUSH1 0x20 MSTORE PUSH1 0x40 DUP2 KECCAK256 SLOAD PUSH2 0x1CFC JUMPI PUSH1 0x40 MLOAD PUSH32 0x8C379A000000000000000000000000000000000000000000000000000000000 DUP2 MSTORE PUSH1 0x20 PUSH1 0x4 DUP3 ADD MSTORE PUSH1 0x9 PUSH1 0x24 DUP3 ADD MSTORE PUSH32 0x6E6F7420616C6C6F770000000000000000000000000000000000000000000000 PUSH1 0x44 DUP3 ADD MSTORE PUSH1 0x64 ADD PUSH2 0x50A JUMP JUMPDEST PUSH1 0x0 PUSH1 0x1 SLOAD GT PUSH2 0x1D68 JUMPI PUSH1 0x40 MLOAD PUSH32 0x8C379A000000000000000000000000000000000000000000000000000000000 DUP2 MSTORE PUSH1 0x20 PUSH1 0x4 DUP3 ADD MSTORE PUSH1 0x6 PUSH1 0x24 DUP3 ADD MSTORE PUSH32 0x6E6F742045540000000000000000000000000000000000000000000000000000 PUSH1 0x44 DUP3 ADD MSTORE PUSH1 0x64 ADD PUSH2 0x50A JUMP JUMPDEST PUSH1 0x0 DUP1 PUSH1 0x1 SLOAD TIMESTAMP PUSH2 0x1D79 SWAP2 SWAP1 PUSH2 0x258D JUMP JUMPDEST SWAP1 POP PUSH1 0x0 PUSH2 0x1D8A PUSH3 0x15180 DUP4 PUSH2 0x2517 JUMP JUMPDEST CALLER PUSH1 0x0 SWAP1 DUP2 MSTORE PUSH1 0xA PUSH1 0x20 MSTORE PUSH1 0x40 DUP2 KECCAK256 SLOAD SWAP2 SWAP3 POP SWAP1 PUSH1 0x78 SWAP1 PUSH2 0x1DAD SWAP1 PUSH2 0xA28 PUSH2 0x2550 JUMP JUMPDEST PUSH2 0x1DB7 SWAP2 SWAP1 PUSH2 0x2517 JUMP JUMPDEST SWAP1 POP PUSH1 0x1 DUP3 LT ISZERO DUP1 ISZERO PUSH2 0x1E2E JUMPI POP CALLER PUSH1 0x0 SWAP1 DUP2 MSTORE PUSH1 0x8 PUSH1 0x20 MSTORE PUSH1 0x40 DUP2 KECCAK256 DUP1 SLOAD SWAP1 SWAP2 SWAP1 PUSH2 0x1E0C JUMPI PUSH32 0x4E487B7100000000000000000000000000000000000000000000000000000000 PUSH1 0x0 MSTORE PUSH1 0x32 PUSH1 0x4 MSTORE PUSH1 0x24 PUSH1 0x0 REVERT JUMPDEST SWAP1 PUSH1 0x0 MSTORE PUSH1 0x20 PUSH1 0x0 KECCAK256 SWAP1 PUSH1 0x20 SWAP2 DUP3 DUP3 DIV ADD SWAP2 SWAP1 MOD SWAP1 SLOAD SWAP1 PUSH2 0x100 EXP SWAP1 DIV PUSH1 0xFF AND ISZERO JUMPDEST ISZERO PUSH2 0x1E4F JUMPI PUSH2 0x2710 PUSH2 0x1E42 DUP3 PUSH2 0x3E8 PUSH2 0x2550 JUMP JUMPDEST PUSH2 0x1E4C SWAP2 SWAP1 PUSH2 0x2517 JUMP JUMPDEST SWAP4 POP JUMPDEST PUSH1 0x0 PUSH1 0x1E PUSH2 0x1E5E PUSH1 0x1 DUP6 PUSH2 0x258D JUMP JUMPDEST PUSH2 0x1E68 SWAP2 SWAP1 PUSH2 0x2517 JUMP JUMPDEST SWAP1 POP PUSH1 0xF DUP2 GT PUSH2 0x1E78 JUMPI DUP1 PUSH2 0x1E7B JUMP JUMPDEST PUSH1 0xF JUMPDEST SWAP1 POP PUSH1 0x1 JUMPDEST DUP2 DUP2 GT PUSH2 0x1F2B JUMPI CALLER PUSH1 0x0 SWAP1 DUP2 MSTORE PUSH1 0x8 PUSH1 0x20 MSTORE PUSH1 0x40 SWAP1 KECCAK256 DUP1 SLOAD DUP3 SWAP1 DUP2 LT PUSH2 0x1ECF JUMPI PUSH32 0x4E487B7100000000000000000000000000000000000000000000000000000000 PUSH1 0x0 MSTORE PUSH1 0x32 PUSH1 0x4 MSTORE PUSH1 0x24 PUSH1 0x0 REVERT JUMPDEST SWAP1 PUSH1 0x0 MSTORE PUSH1 0x20 PUSH1 0x0 KECCAK256 SWAP1 PUSH1 0x20 SWAP2 DUP3 DUP3 DIV ADD SWAP2 SWAP1 MOD SWAP1 SLOAD SWAP1 PUSH2 0x100 EXP SWAP1 DIV PUSH1 0xFF AND PUSH2 0x1F19 JUMPI PUSH2 0x2710 PUSH2 0x1F02 DUP5 PUSH2 0x258 PUSH2 0x2550 JUMP JUMPDEST PUSH2 0x1F0C SWAP2 SWAP1 PUSH2 0x2517 JUMP JUMPDEST PUSH2 0x1F16 SWAP1 DUP8 PUSH2 0x24FF JUMP JUMPDEST SWAP6 POP JUMPDEST DUP1 PUSH2 0x1F23 DUP2 PUSH2 0x25A4 JUMP JUMPDEST SWAP2 POP POP PUSH2 0x1E80 JUMP JUMPDEST POP SWAP4 SWAP6 SWAP5 POP POP POP POP POP JUMP JUMPDEST PUSH1 0x0 SLOAD PUSH20 0xFFFFFFFFFFFFFFFFFFFFFFFFFFFFFFFFFFFFFFFF PUSH3 0x10000 SWAP1 SWAP2 DIV AND CALLER EQ PUSH2 0x1FBE JUMPI PUSH1 0x40 MLOAD PUSH32 0x8C379A000000000000000000000000000000000000000000000000000000000 DUP2 MSTORE PUSH1 0x20 PUSH1 0x4 DUP3 ADD DUP2 SWAP1 MSTORE PUSH1 0x24 DUP3 ADD MSTORE PUSH32 0x4F776E61626C653A2063616C6C6572206973206E6F7420746865206F776E6572 PUSH1 0x44 DUP3 ADD MSTORE PUSH1 0x64 ADD PUSH2 0x50A JUMP JUMPDEST PUSH20 0xFFFFFFFFFFFFFFFFFFFFFFFFFFFFFFFFFFFFFFFF DUP2 AND PUSH2 0x2061 JUMPI PUSH1 0x40 MLOAD PUSH32 0x8C379A000000000000000000000000000000000000000000000000000000000 DUP2 MSTORE PUSH1 0x20 PUSH1 0x4 DUP3 ADD MSTORE PUSH1 0x26 PUSH1 0x24 DUP3 ADD MSTORE PUSH32 0x4F776E61626C653A206E6577206F776E657220697320746865207A65726F2061 PUSH1 0x44 DUP3 ADD MSTORE PUSH32 0x6464726573730000000000000000000000000000000000000000000000000000 PUSH1 0x64 DUP3 ADD MSTORE PUSH1 0x84 ADD PUSH2 0x50A JUMP JUMPDEST PUSH1 0x0 DUP1 SLOAD PUSH20 0xFFFFFFFFFFFFFFFFFFFFFFFFFFFFFFFFFFFFFFFF DUP4 DUP2 AND PUSH3 0x10000 DUP2 DUP2 MUL PUSH32 0xFFFFFFFFFFFFFFFFFFFF0000000000000000000000000000000000000000FFFF DUP6 AND OR SWAP1 SWAP5 SSTORE PUSH1 0x40 DUP1 MLOAD SWAP5 SWAP1 SWAP4 DIV SWAP1 SWAP2 AND DUP1 DUP5 MSTORE PUSH1 0x20 DUP5 ADD SWAP2 SWAP1 SWAP2 MSTORE SWAP2 PUSH32 0x8BE0079C531659141344CD1FD0A4F28419497F9722A3DAAFE3B4186F6B6457E0 SWAP2 ADD PUSH2 0x117E JUMP JUMPDEST CALLER PUSH1 0x0 SWAP1 DUP2 MSTORE PUSH1 0x3 PUSH1 0x20 MSTORE PUSH1 0x40 SWAP1 KECCAK256 SLOAD PUSH1 0xFF AND PUSH2 0x2163 JUMPI PUSH1 0x40 MLOAD PUSH32 0x8C379A000000000000000000000000000000000000000000000000000000000 DUP2 MSTORE PUSH1 0x20 PUSH1 0x4 DUP3 ADD MSTORE PUSH1 0xB PUSH1 0x24 DUP3 ADD MSTORE PUSH32 0x4E6F74206D616E61676572000000000000000000000000000000000000000000 PUSH1 0x44 DUP3 ADD MSTORE PUSH1 0x64 ADD PUSH2 0x50A JUMP JUMPDEST PUSH1 0x6 DUP1 SLOAD PUSH32 0xFFFFFFFFFFFFFFFFFFFFFFFF0000000000000000000000000000000000000000 AND PUSH20 0xFFFFFFFFFFFFFFFFFFFFFFFFFFFFFFFFFFFFFFFF SWAP3 SWAP1 SWAP3 AND SWAP2 SWAP1 SWAP2 OR SWAP1 SSTORE JUMP JUMPDEST DUP3 DUP1 SLOAD DUP3 DUP3 SSTORE SWAP1 PUSH1 0x0 MSTORE PUSH1 0x20 PUSH1 0x0 KECCAK256 SWAP1 PUSH1 0x1F ADD PUSH1 0x20 SWAP1 DIV DUP2 ADD SWAP3 DUP3 ISZERO PUSH2 0x223F JUMPI SWAP2 PUSH1 0x20 MUL DUP3 ADD PUSH1 0x0 JUMPDEST DUP4 DUP3 GT ISZERO PUSH2 0x2210 JUMPI DUP4 MLOAD DUP4 DUP3 PUSH2 0x100 EXP DUP2 SLOAD DUP2 PUSH1 0xFF MUL NOT AND SWAP1 DUP4 ISZERO ISZERO MUL OR SWAP1 SSTORE POP SWAP3 PUSH1 0x20 ADD SWAP3 PUSH1 0x1 ADD PUSH1 0x20 DUP2 PUSH1 0x0 ADD DIV SWAP3 DUP4 ADD SWAP3 PUSH1 0x1 SUB MUL PUSH2 0x21D3 JUMP JUMPDEST DUP1 ISZERO PUSH2 0x223D JUMPI DUP3 DUP2 PUSH2 0x100 EXP DUP2 SLOAD SWAP1 PUSH1 0xFF MUL NOT AND SWAP1 SSTORE PUSH1 0x1 ADD PUSH1 0x20 DUP2 PUSH1 0x0 ADD DIV SWAP3 DUP4 ADD SWAP3 PUSH1 0x1 SUB MUL PUSH2 0x2210 JUMP JUMPDEST POP JUMPDEST POP PUSH2 0x224B SWAP3 SWAP2 POP PUSH2 0x224F JUMP JUMPDEST POP SWAP1 JUMP JUMPDEST JUMPDEST DUP1 DUP3 GT ISZERO PUSH2 0x224B JUMPI PUSH1 0x0 DUP2 SSTORE PUSH1 0x1 ADD PUSH2 0x2250 JUMP JUMPDEST DUP1 CALLDATALOAD PUSH20 0xFFFFFFFFFFFFFFFFFFFFFFFFFFFFFFFFFFFFFFFF DUP2 AND DUP2 EQ PUSH2 0x2288 JUMPI PUSH1 0x0 DUP1 REVERT JUMPDEST SWAP2 SWAP1 POP JUMP JUMPDEST PUSH1 0x0 DUP3 PUSH1 0x1F DUP4 ADD SLT PUSH2 0x229D JUMPI DUP1 DUP2 REVERT JUMPDEST DUP2 CALLDATALOAD PUSH1 0x20 PUSH8 0xFFFFFFFFFFFFFFFF DUP1 DUP4 GT ISZERO PUSH2 0x22BA JUMPI PUSH2 0x22BA PUSH2 0x260C JUMP JUMPDEST DUP3 PUSH1 0x5 SHL PUSH1 0x40 MLOAD PUSH32 0xFFFFFFFFFFFFFFFFFFFFFFFFFFFFFFFFFFFFFFFFFFFFFFFFFFFFFFFFFFFFFFE0 PUSH1 0x3F DUP4 ADD AND DUP2 ADD DUP2 DUP2 LT DUP5 DUP3 GT OR ISZERO PUSH2 0x22FD JUMPI PUSH2 0x22FD PUSH2 0x260C JUMP JUMPDEST PUSH1 0x40 MSTORE DUP5 DUP2 MSTORE DUP4 DUP2 ADD SWAP3 POP DUP7 DUP5 ADD DUP3 DUP9 ADD DUP6 ADD DUP10 LT ISZERO PUSH2 0x231B JUMPI DUP7 DUP8 REVERT JUMPDEST DUP7 SWAP3 POP JUMPDEST DUP6 DUP4 LT ISZERO PUSH2 0x2344 JUMPI PUSH2 0x2330 DUP2 PUSH2 0x2264 JUMP JUMPDEST DUP5 MSTORE SWAP3 DUP5 ADD SWAP3 PUSH1 0x1 SWAP3 SWAP1 SWAP3 ADD SWAP2 DUP5 ADD PUSH2 0x231F JUMP JUMPDEST POP SWAP8 SWAP7 POP POP POP POP POP POP POP JUMP JUMPDEST PUSH1 0x0 PUSH1 0x20 DUP3 DUP5 SUB SLT ISZERO PUSH2 0x2361 JUMPI DUP1 DUP2 REVERT JUMPDEST PUSH2 0x236A DUP3 PUSH2 0x2264 JUMP JUMPDEST SWAP4 SWAP3 POP POP POP JUMP JUMPDEST PUSH1 0x0 DUP1 PUSH1 0x40 DUP4 DUP6 SUB SLT ISZERO PUSH2 0x2383 JUMPI DUP1 DUP2 REVERT JUMPDEST PUSH2 0x238C DUP4 PUSH2 0x2264 JUMP JUMPDEST SWAP2 POP PUSH1 0x20 DUP4 ADD CALLDATALOAD PUSH2 0x239C DUP2 PUSH2 0x263B JUMP JUMPDEST DUP1 SWAP2 POP POP SWAP3 POP SWAP3 SWAP1 POP JUMP JUMPDEST PUSH1 0x0 DUP1 PUSH1 0x40 DUP4 DUP6 SUB SLT ISZERO PUSH2 0x23B9 JUMPI DUP2 DUP3 REVERT JUMPDEST PUSH2 0x23C2 DUP4 PUSH2 0x2264 JUMP JUMPDEST SWAP5 PUSH1 0x20 SWAP4 SWAP1 SWAP4 ADD CALLDATALOAD SWAP4 POP POP POP JUMP JUMPDEST PUSH1 0x0 DUP1 PUSH1 0x40 DUP4 DUP6 SUB SLT ISZERO PUSH2 0x23E2 JUMPI DUP2 DUP3 REVERT JUMPDEST DUP3 CALLDATALOAD PUSH8 0xFFFFFFFFFFFFFFFF DUP1 DUP3 GT ISZERO PUSH2 0x23F9 JUMPI DUP4 DUP5 REVERT JUMPDEST PUSH2 0x2405 DUP7 DUP4 DUP8 ADD PUSH2 0x228D JUMP JUMPDEST SWAP4 POP PUSH1 0x20 DUP6 ADD CALLDATALOAD SWAP2 POP DUP1 DUP3 GT ISZERO PUSH2 0x241A JUMPI DUP3 DUP4 REVERT JUMPDEST POP PUSH2 0x2427 DUP6 DUP3 DUP7 ADD PUSH2 0x228D JUMP JUMPDEST SWAP2 POP POP SWAP3 POP SWAP3 SWAP1 POP JUMP JUMPDEST PUSH1 0x0 PUSH1 0x20 DUP3 DUP5 SUB SLT ISZERO PUSH2 0x2442 JUMPI DUP1 DUP2 REVERT JUMPDEST DUP2 CALLDATALOAD PUSH2 0x236A DUP2 PUSH2 0x263B JUMP JUMPDEST PUSH1 0x0 PUSH1 0x20 DUP3 DUP5 SUB SLT ISZERO PUSH2 0x245E JUMPI DUP1 DUP2 REVERT JUMPDEST DUP2 MLOAD PUSH2 0x236A DUP2 PUSH2 0x263B JUMP JUMPDEST PUSH1 0x0 PUSH1 0x20 DUP3 DUP5 SUB SLT ISZERO PUSH2 0x247A JUMPI DUP1 DUP2 REVERT JUMPDEST POP CALLDATALOAD SWAP2 SWAP1 POP JUMP JUMPDEST PUSH1 0x0 DUP2 MLOAD DUP1 DUP5 MSTORE PUSH1 0x20 DUP1 DUP6 ADD SWAP5 POP DUP1 DUP5 ADD DUP4 JUMPDEST DUP4 DUP2 LT ISZERO PUSH2 0x24C6 JUMPI DUP2 MLOAD PUSH20 0xFFFFFFFFFFFFFFFFFFFFFFFFFFFFFFFFFFFFFFFF AND DUP8 MSTORE SWAP6 DUP3 ADD SWAP6 SWAP1 DUP3 ADD SWAP1 PUSH1 0x1 ADD PUSH2 0x2494 JUMP JUMPDEST POP SWAP5 SWAP6 SWAP5 POP POP POP POP POP JUMP JUMPDEST PUSH1 0x40 DUP2 MSTORE PUSH1 0x0 PUSH2 0x24E4 PUSH1 0x40 DUP4 ADD DUP6 PUSH2 0x2481 JUMP JUMPDEST DUP3 DUP2 SUB PUSH1 0x20 DUP5 ADD MSTORE PUSH2 0x24F6 DUP2 DUP6 PUSH2 0x2481 JUMP JUMPDEST SWAP6 SWAP5 POP POP POP POP POP JUMP JUMPDEST PUSH1 0x0 DUP3 NOT DUP3 GT ISZERO PUSH2 0x2512 JUMPI PUSH2 0x2512 PUSH2 0x25DD JUMP JUMPDEST POP ADD SWAP1 JUMP JUMPDEST PUSH1 0x0 DUP3 PUSH2 0x254B JUMPI PUSH32 0x4E487B7100000000000000000000000000000000000000000000000000000000 DUP2 MSTORE PUSH1 0x12 PUSH1 0x4 MSTORE PUSH1 0x24 DUP2 REVERT JUMPDEST POP DIV SWAP1 JUMP JUMPDEST PUSH1 0x0 DUP2 PUSH32 0xFFFFFFFFFFFFFFFFFFFFFFFFFFFFFFFFFFFFFFFFFFFFFFFFFFFFFFFFFFFFFFFF DIV DUP4 GT DUP3 ISZERO ISZERO AND ISZERO PUSH2 0x2588 JUMPI PUSH2 0x2588 PUSH2 0x25DD JUMP JUMPDEST POP MUL SWAP1 JUMP JUMPDEST PUSH1 0x0 DUP3 DUP3 LT ISZERO PUSH2 0x259F JUMPI PUSH2 0x259F PUSH2 0x25DD JUMP JUMPDEST POP SUB SWAP1 JUMP JUMPDEST PUSH1 0x0 PUSH32 0xFFFFFFFFFFFFFFFFFFFFFFFFFFFFFFFFFFFFFFFFFFFFFFFFFFFFFFFFFFFFFFFF DUP3 EQ ISZERO PUSH2 0x25D6 JUMPI PUSH2 0x25D6 PUSH2 0x25DD JUMP JUMPDEST POP PUSH1 0x1 ADD SWAP1 JUMP JUMPDEST PUSH32 0x4E487B7100000000000000000000000000000000000000000000000000000000 PUSH1 0x0 MSTORE PUSH1 0x11 PUSH1 0x4 MSTORE PUSH1 0x24 PUSH1 0x0 REVERT JUMPDEST PUSH32 0x4E487B7100000000000000000000000000000000000000000000000000000000 PUSH1 0x0 MSTORE PUSH1 0x41 PUSH1 0x4 MSTORE PUSH1 0x24 PUSH1 0x0 REVERT JUMPDEST DUP1 ISZERO ISZERO DUP2 EQ PUSH2 0x19B5 JUMPI PUSH1 0x0 DUP1 REVERT INVALID LOG2 PUSH5 0x6970667358 0x22 SLT KECCAK256 PUSH13 0x92E65864AC77280E2CBBFBB7E7 PUSH5 0xE6247B0BC6 0xEA EXTCODECOPY SWAP4 SWAP6 EXP PUSH26 0xFF4F1FE67E1F64736F6C63430008040033000000000000000000 "
				},
				"gasEstimates": {
					"creation": {
						"codeDepositCost": "1971000",
						"executionCost": "infinite",
						"totalCost": "infinite"
					},
					"external": {
						"IDOAddress()": "1080",
						"_IDOUsdt(uint256)": "infinite",
						"_addRelation(address[],address[])": "infinite",
						"allowET(address)": "infinite",
						"awaitWithdraw(address)": "1286",
						"endTime()": "1052",
						"etCoin()": "1102",
						"etNft()": "1059",
						"getWithDraw()": "infinite",
						"isManager(address)": "1285",
						"isOpenIdo()": "1121",
						"isOpenOne()": "1120",
						"isOpenTwo()": "1133",
						"lb(address,uint256)": "3842",
						"openOpenIdo(bool)": "22079",
						"openOpenOne(bool)": "22056",
						"openOpenTwo(bool)": "22114",
						"owner()": "1129",
						"relationAmount(address)": "1307",
						"setETCoin(address)": "22091",
						"setEndTime()": "23220",
						"setManager(address,bool)": "23821",
						"setNFT(address)": "22111",
						"totalSupply()": "1053",
						"transferOwnership(address)": "23428",
						"usdt()": "1059",
						"userIDO(address)": "1286",
						"userRelation(address)": "1289",
						"withdraw()": "infinite"
					}
				},
				"methodIdentifiers": {
					"IDOAddress()": "c6b24c1c",
					"_IDOUsdt(uint256)": "0e73d199",
					"_addRelation(address[],address[])": "238c4c2f",
					"allowET(address)": "918a6283",
					"awaitWithdraw(address)": "a3f82c2c",
					"endTime()": "3197cbb6",
					"etCoin()": "8b9272b7",
					"etNft()": "68da5e8e",
					"getWithDraw()": "ef7a47fa",
					"isManager(address)": "f3ae2415",
					"isOpenIdo()": "ce75710c",
					"isOpenOne()": "fb066531",
					"isOpenTwo()": "5db98f2d",
					"lb(address,uint256)": "d3b91f7a",
					"openOpenIdo(bool)": "6a15915a",
					"openOpenOne(bool)": "6c68ec69",
					"openOpenTwo(bool)": "ca5cc206",
					"owner()": "8da5cb5b",
					"relationAmount(address)": "f06b41e3",
					"setETCoin(address)": "965ed465",
					"setEndTime()": "76be6af6",
					"setManager(address,bool)": "a5e90eee",
					"setNFT(address)": "f56e9c66",
					"totalSupply()": "18160ddd",
					"transferOwnership(address)": "f2fde38b",
					"usdt()": "2f48ab7d",
					"userIDO(address)": "6a41d5d7",
					"userRelation(address)": "e72ebdb7",
					"withdraw()": "3ccfd60b"
				}
			},
			"storageLayout": {
				"storage": [
					{
						"astId": 610,
						"contract": "CoinIdo.sol:CoinIdo",
						"label": "isOpenOne",
						"offset": 0,
						"slot": "0",
						"type": "t_bool"
					},
					{
						"astId": 612,
						"contract": "CoinIdo.sol:CoinIdo",
						"label": "isOpenTwo",
						"offset": 1,
						"slot": "0",
						"type": "t_bool"
					},
					{
						"astId": 614,
						"contract": "CoinIdo.sol:CoinIdo",
						"label": "_owner",
						"offset": 2,
						"slot": "0",
						"type": "t_address"
					},
					{
						"astId": 616,
						"contract": "CoinIdo.sol:CoinIdo",
						"label": "endTime",
						"offset": 0,
						"slot": "1",
						"type": "t_uint256"
					},
					{
						"astId": 618,
						"contract": "CoinIdo.sol:CoinIdo",
						"label": "totalSupply",
						"offset": 0,
						"slot": "2",
						"type": "t_uint256"
					},
					{
						"astId": 622,
						"contract": "CoinIdo.sol:CoinIdo",
						"label": "isManager",
						"offset": 0,
						"slot": "3",
						"type": "t_mapping(t_address,t_bool)"
					},
					{
						"astId": 624,
						"contract": "CoinIdo.sol:CoinIdo",
						"label": "IDOAddress",
						"offset": 0,
						"slot": "4",
						"type": "t_address"
					},
					{
						"astId": 627,
						"contract": "CoinIdo.sol:CoinIdo",
						"label": "usdt",
						"offset": 0,
						"slot": "5",
						"type": "t_contract(IERC20)1618"
					},
					{
						"astId": 630,
						"contract": "CoinIdo.sol:CoinIdo",
						"label": "etNft",
						"offset": 0,
						"slot": "6",
						"type": "t_contract(IETNFT)608"
					},
					{
						"astId": 633,
						"contract": "CoinIdo.sol:CoinIdo",
						"label": "etCoin",
						"offset": 0,
						"slot": "7",
						"type": "t_contract(IERC20)1618"
					},
					{
						"astId": 638,
						"contract": "CoinIdo.sol:CoinIdo",
						"label": "lb",
						"offset": 0,
						"slot": "8",
						"type": "t_mapping(t_address,t_array(t_bool)dyn_storage)"
					},
					{
						"astId": 642,
						"contract": "CoinIdo.sol:CoinIdo",
						"label": "userRelation",
						"offset": 0,
						"slot": "9",
						"type": "t_mapping(t_address,t_address)"
					},
					{
						"astId": 646,
						"contract": "CoinIdo.sol:CoinIdo",
						"label": "userIDO",
						"offset": 0,
						"slot": "10",
						"type": "t_mapping(t_address,t_uint256)"
					},
					{
						"astId": 650,
						"contract": "CoinIdo.sol:CoinIdo",
						"label": "relationAmount",
						"offset": 0,
						"slot": "11",
						"type": "t_mapping(t_address,t_uint256)"
					},
					{
						"astId": 654,
						"contract": "CoinIdo.sol:CoinIdo",
						"label": "awaitWithdraw",
						"offset": 0,
						"slot": "12",
						"type": "t_mapping(t_address,t_uint256)"
					},
					{
						"astId": 659,
						"contract": "CoinIdo.sol:CoinIdo",
						"label": "base",
						"offset": 0,
						"slot": "13",
						"type": "t_uint256"
					},
					{
						"astId": 661,
						"contract": "CoinIdo.sol:CoinIdo",
						"label": "isOpenIdo",
						"offset": 0,
						"slot": "14",
						"type": "t_bool"
					}
				],
				"types": {
					"t_address": {
						"encoding": "inplace",
						"label": "address",
						"numberOfBytes": "20"
					},
					"t_array(t_bool)dyn_storage": {
						"base": "t_bool",
						"encoding": "dynamic_array",
						"label": "bool[]",
						"numberOfBytes": "32"
					},
					"t_bool": {
						"encoding": "inplace",
						"label": "bool",
						"numberOfBytes": "1"
					},
					"t_contract(IERC20)1618": {
						"encoding": "inplace",
						"label": "contract IERC20",
						"numberOfBytes": "20"
					},
					"t_contract(IETNFT)608": {
						"encoding": "inplace",
						"label": "contract IETNFT",
						"numberOfBytes": "20"
					},
					"t_mapping(t_address,t_address)": {
						"encoding": "mapping",
						"key": "t_address",
						"label": "mapping(address => address)",
						"numberOfBytes": "32",
						"value": "t_address"
					},
					"t_mapping(t_address,t_array(t_bool)dyn_storage)": {
						"encoding": "mapping",
						"key": "t_address",
						"label": "mapping(address => bool[])",
						"numberOfBytes": "32",
						"value": "t_array(t_bool)dyn_storage"
					},
					"t_mapping(t_address,t_bool)": {
						"encoding": "mapping",
						"key": "t_address",
						"label": "mapping(address => bool)",
						"numberOfBytes": "32",
						"value": "t_bool"
					},
					"t_mapping(t_address,t_uint256)": {
						"encoding": "mapping",
						"key": "t_address",
						"label": "mapping(address => uint256)",
						"numberOfBytes": "32",
						"value": "t_uint256"
					},
					"t_uint256": {
						"encoding": "inplace",
						"label": "uint256",
						"numberOfBytes": "32"
					}
				}
			},
			"userdoc": {
				"kind": "user",
				"methods": {},
				"version": 1
			}
		}
	}
}