{
	"CoinIdo.sol": {
		"CoinIdo": {
			"abi": [
				{
					"inputs": [
						{
							"internalType": "address",
							"name": "_address",
							"type": "address"
						},
						{
							"internalType": "address",
							"name": "_usdt",
							"type": "address"
						}
					],
					"stateMutability": "nonpayable",
					"type": "constructor"
				},
				{
					"anonymous": false,
					"inputs": [
						{
							"indexed": false,
							"internalType": "address[]",
							"name": "addressFrom",
							"type": "address[]"
						},
						{
							"indexed": false,
							"internalType": "address[]",
							"name": "addressTo",
							"type": "address[]"
						}
					],
					"name": "AddRelation",
					"type": "event"
				},
				{
					"anonymous": false,
					"inputs": [
						{
							"indexed": false,
							"internalType": "address",
							"name": "from",
							"type": "address"
						},
						{
							"indexed": false,
							"internalType": "uint256",
							"name": "value",
							"type": "uint256"
						}
					],
					"name": "IDOUsdt",
					"type": "event"
				},
				{
					"inputs": [],
					"name": "IDOAddress",
					"outputs": [
						{
							"internalType": "address",
							"name": "",
							"type": "address"
						}
					],
					"stateMutability": "view",
					"type": "function"
				},
				{
					"inputs": [
						{
							"internalType": "address",
							"name": "from",
							"type": "address"
						},
						{
							"internalType": "uint256",
							"name": "value",
							"type": "uint256"
						}
					],
					"name": "_IDOUsdt",
					"outputs": [],
					"stateMutability": "nonpayable",
					"type": "function"
				},
				{
					"inputs": [
						{
							"internalType": "address[]",
							"name": "addressFrom",
							"type": "address[]"
						},
						{
							"internalType": "address[]",
							"name": "addressTo",
							"type": "address[]"
						}
					],
					"name": "_addRelation",
					"outputs": [],
					"stateMutability": "nonpayable",
					"type": "function"
				},
				{
					"inputs": [
						{
							"internalType": "address",
							"name": "_address",
							"type": "address"
						}
					],
					"name": "allowET",
					"outputs": [],
					"stateMutability": "nonpayable",
					"type": "function"
				},
				{
					"inputs": [
						{
							"internalType": "bool",
							"name": "_flag",
							"type": "bool"
						}
					],
					"name": "closeOpenOne",
					"outputs": [],
					"stateMutability": "nonpayable",
					"type": "function"
				},
				{
					"inputs": [
						{
							"internalType": "bool",
							"name": "_flag",
							"type": "bool"
						}
					],
					"name": "closeOpenTwo",
					"outputs": [],
					"stateMutability": "nonpayable",
					"type": "function"
				},
				{
					"inputs": [],
					"name": "endTime",
					"outputs": [
						{
							"internalType": "uint256",
							"name": "",
							"type": "uint256"
						}
					],
					"stateMutability": "view",
					"type": "function"
				},
				{
					"inputs": [],
					"name": "getET",
					"outputs": [],
					"stateMutability": "nonpayable",
					"type": "function"
				},
				{
					"inputs": [
						{
							"internalType": "address",
							"name": "",
							"type": "address"
						}
					],
					"name": "isManager",
					"outputs": [
						{
							"internalType": "bool",
							"name": "",
							"type": "bool"
						}
					],
					"stateMutability": "view",
					"type": "function"
				},
				{
					"inputs": [],
					"name": "isOpenOne",
					"outputs": [
						{
							"internalType": "bool",
							"name": "",
							"type": "bool"
						}
					],
					"stateMutability": "view",
					"type": "function"
				},
				{
					"inputs": [],
					"name": "isOpenTwo",
					"outputs": [
						{
							"internalType": "bool",
							"name": "",
							"type": "bool"
						}
					],
					"stateMutability": "view",
					"type": "function"
				},
				{
					"inputs": [],
					"name": "owner",
					"outputs": [
						{
							"internalType": "address",
							"name": "",
							"type": "address"
						}
					],
					"stateMutability": "view",
					"type": "function"
				},
				{
					"inputs": [
						{
							"internalType": "address",
							"name": "",
							"type": "address"
						}
					],
					"name": "relationAmount",
					"outputs": [
						{
							"internalType": "uint256",
							"name": "",
							"type": "uint256"
						}
					],
					"stateMutability": "view",
					"type": "function"
				},
				{
					"inputs": [
						{
							"internalType": "address",
							"name": "_address",
							"type": "address"
						}
					],
					"name": "setETCoin",
					"outputs": [],
					"stateMutability": "nonpayable",
					"type": "function"
				},
				{
					"inputs": [],
					"name": "setEndTime",
					"outputs": [],
					"stateMutability": "nonpayable",
					"type": "function"
				},
				{
					"inputs": [
						{
							"internalType": "address",
							"name": "_manager",
							"type": "address"
						},
						{
							"internalType": "bool",
							"name": "_flag",
							"type": "bool"
						}
					],
					"name": "setManager",
					"outputs": [],
					"stateMutability": "nonpayable",
					"type": "function"
				},
				{
					"inputs": [
						{
							"internalType": "address",
							"name": "_address",
							"type": "address"
						}
					],
					"name": "setNFT",
					"outputs": [],
					"stateMutability": "nonpayable",
					"type": "function"
				},
				{
					"inputs": [],
					"name": "totalSupply",
					"outputs": [
						{
							"internalType": "uint256",
							"name": "",
							"type": "uint256"
						}
					],
					"stateMutability": "view",
					"type": "function"
				},
				{
					"inputs": [
						{
							"internalType": "address",
							"name": "",
							"type": "address"
						}
					],
					"name": "userIDO",
					"outputs": [
						{
							"internalType": "uint256",
							"name": "",
							"type": "uint256"
						}
					],
					"stateMutability": "view",
					"type": "function"
				},
				{
					"inputs": [
						{
							"internalType": "address",
							"name": "",
							"type": "address"
						}
					],
					"name": "userRelation",
					"outputs": [
						{
							"internalType": "address",
							"name": "",
							"type": "address"
						}
					],
					"stateMutability": "view",
					"type": "function"
				}
			],
			"devdoc": {
				"kind": "dev",
				"methods": {},
				"version": 1
			},
			"evm": {
				"assembly": "    /* \"CoinIdo.sol\":229:4495  contract CoinIdo{ ... */\n  mstore(0x40, 0x80)\n    /* \"CoinIdo.sol\":800:962  constructor(address _address,address _usdt){... */\n  callvalue\n  dup1\n  iszero\n  tag_1\n  jumpi\n  0x00\n  dup1\n  revert\ntag_1:\n  pop\n  mload(0x40)\n  sub(codesize, bytecodeSize)\n  dup1\n  bytecodeSize\n  dup4\n  codecopy\n  dup2\n  dup2\n  add\n  0x40\n  mstore\n  dup2\n  add\n  swap1\n  tag_2\n  swap2\n  swap1\n  tag_3\n  jump\t// in\ntag_2:\n    /* \"CoinIdo.sol\":864:868  true */\n  0x01\n    /* \"CoinIdo.sol\":854:863  isOpenOne */\n  0x00\n  dup1\n    /* \"CoinIdo.sol\":854:868  isOpenOne=true */\n  0x0100\n  exp\n  dup2\n  sload\n  dup2\n  0xff\n  mul\n  not\n  and\n  swap1\n  dup4\n  iszero\n  iszero\n  mul\n  or\n  swap1\n  sstore\n  pop\n    /* \"CoinIdo.sol\":889:893  true */\n  0x01\n    /* \"CoinIdo.sol\":879:888  isOpenTwo */\n  0x00\n  0x01\n    /* \"CoinIdo.sol\":879:893  isOpenTwo=true */\n  0x0100\n  exp\n  dup2\n  sload\n  dup2\n  0xff\n  mul\n  not\n  and\n  swap1\n  dup4\n  iszero\n  iszero\n  mul\n  or\n  swap1\n  sstore\n  pop\n    /* \"CoinIdo.sol\":915:923  _address */\n  dup2\n    /* \"CoinIdo.sol\":904:914  IDOAddress */\n  0x04\n  0x00\n    /* \"CoinIdo.sol\":904:923  IDOAddress=_address */\n  0x0100\n  exp\n  dup2\n  sload\n  dup2\n  0xffffffffffffffffffffffffffffffffffffffff\n  mul\n  not\n  and\n  swap1\n  dup4\n  0xffffffffffffffffffffffffffffffffffffffff\n  and\n  mul\n  or\n  swap1\n  sstore\n  pop\n    /* \"CoinIdo.sol\":948:953  _usdt */\n  dup1\n    /* \"CoinIdo.sol\":934:938  usdt */\n  0x05\n  0x00\n    /* \"CoinIdo.sol\":934:954  usdt = IERC20(_usdt) */\n  0x0100\n  exp\n  dup2\n  sload\n  dup2\n  0xffffffffffffffffffffffffffffffffffffffff\n  mul\n  not\n  and\n  swap1\n  dup4\n  0xffffffffffffffffffffffffffffffffffffffff\n  and\n  mul\n  or\n  swap1\n  sstore\n  pop\n    /* \"CoinIdo.sol\":800:962  constructor(address _address,address _usdt){... */\n  pop\n  pop\n    /* \"CoinIdo.sol\":229:4495  contract CoinIdo{ ... */\n  jump(tag_6)\n    /* \"#utility.yul\":88:205   */\ntag_8:\n    /* \"#utility.yul\":197:198   */\n  0x00\n    /* \"#utility.yul\":194:195   */\n  dup1\n    /* \"#utility.yul\":187:199   */\n  revert\n    /* \"#utility.yul\":334:460   */\ntag_10:\n    /* \"#utility.yul\":371:378   */\n  0x00\n    /* \"#utility.yul\":411:453   */\n  0xffffffffffffffffffffffffffffffffffffffff\n    /* \"#utility.yul\":404:409   */\n  dup3\n    /* \"#utility.yul\":400:454   */\n  and\n    /* \"#utility.yul\":389:454   */\n  swap1\n  pop\n    /* \"#utility.yul\":334:460   */\n  swap2\n  swap1\n  pop\n  jump\t// out\n    /* \"#utility.yul\":466:562   */\ntag_11:\n    /* \"#utility.yul\":503:510   */\n  0x00\n    /* \"#utility.yul\":532:556   */\n  tag_20\n    /* \"#utility.yul\":550:555   */\n  dup3\n    /* \"#utility.yul\":532:556   */\n  tag_10\n  jump\t// in\ntag_20:\n    /* \"#utility.yul\":521:556   */\n  swap1\n  pop\n    /* \"#utility.yul\":466:562   */\n  swap2\n  swap1\n  pop\n  jump\t// out\n    /* \"#utility.yul\":568:690   */\ntag_12:\n    /* \"#utility.yul\":641:665   */\n  tag_22\n    /* \"#utility.yul\":659:664   */\n  dup2\n    /* \"#utility.yul\":641:665   */\n  tag_11\n  jump\t// in\ntag_22:\n    /* \"#utility.yul\":634:639   */\n  dup2\n    /* \"#utility.yul\":631:666   */\n  eq\n    /* \"#utility.yul\":621:684   */\n  tag_23\n  jumpi\n    /* \"#utility.yul\":680:681   */\n  0x00\n    /* \"#utility.yul\":677:678   */\n  dup1\n    /* \"#utility.yul\":670:682   */\n  revert\n    /* \"#utility.yul\":621:684   */\ntag_23:\n    /* \"#utility.yul\":568:690   */\n  pop\n  jump\t// out\n    /* \"#utility.yul\":696:839   */\ntag_13:\n    /* \"#utility.yul\":753:758   */\n  0x00\n    /* \"#utility.yul\":784:790   */\n  dup2\n    /* \"#utility.yul\":778:791   */\n  mload\n    /* \"#utility.yul\":769:791   */\n  swap1\n  pop\n    /* \"#utility.yul\":800:833   */\n  tag_25\n    /* \"#utility.yul\":827:832   */\n  dup2\n    /* \"#utility.yul\":800:833   */\n  tag_12\n  jump\t// in\ntag_25:\n    /* \"#utility.yul\":696:839   */\n  swap3\n  swap2\n  pop\n  pop\n  jump\t// out\n    /* \"#utility.yul\":845:1352   */\ntag_3:\n    /* \"#utility.yul\":924:930   */\n  0x00\n    /* \"#utility.yul\":932:938   */\n  dup1\n    /* \"#utility.yul\":981:983   */\n  0x40\n    /* \"#utility.yul\":969:978   */\n  dup4\n    /* \"#utility.yul\":960:967   */\n  dup6\n    /* \"#utility.yul\":956:979   */\n  sub\n    /* \"#utility.yul\":952:984   */\n  slt\n    /* \"#utility.yul\":949:1068   */\n  iszero\n  tag_27\n  jumpi\n    /* \"#utility.yul\":987:1066   */\n  tag_28\n  tag_8\n  jump\t// in\ntag_28:\n    /* \"#utility.yul\":949:1068   */\ntag_27:\n    /* \"#utility.yul\":1107:1108   */\n  0x00\n    /* \"#utility.yul\":1132:1196   */\n  tag_29\n    /* \"#utility.yul\":1188:1195   */\n  dup6\n    /* \"#utility.yul\":1179:1185   */\n  dup3\n    /* \"#utility.yul\":1168:1177   */\n  dup7\n    /* \"#utility.yul\":1164:1186   */\n  add\n    /* \"#utility.yul\":1132:1196   */\n  tag_13\n  jump\t// in\ntag_29:\n    /* \"#utility.yul\":1122:1196   */\n  swap3\n  pop\n    /* \"#utility.yul\":1078:1206   */\n  pop\n    /* \"#utility.yul\":1245:1247   */\n  0x20\n    /* \"#utility.yul\":1271:1335   */\n  tag_30\n    /* \"#utility.yul\":1327:1334   */\n  dup6\n    /* \"#utility.yul\":1318:1324   */\n  dup3\n    /* \"#utility.yul\":1307:1316   */\n  dup7\n    /* \"#utility.yul\":1303:1325   */\n  add\n    /* \"#utility.yul\":1271:1335   */\n  tag_13\n  jump\t// in\ntag_30:\n    /* \"#utility.yul\":1261:1335   */\n  swap2\n  pop\n    /* \"#utility.yul\":1216:1345   */\n  pop\n    /* \"#utility.yul\":845:1352   */\n  swap3\n  pop\n  swap3\n  swap1\n  pop\n  jump\t// out\n    /* \"CoinIdo.sol\":229:4495  contract CoinIdo{ ... */\ntag_6:\n  dataSize(sub_0)\n  dup1\n  dataOffset(sub_0)\n  0x00\n  codecopy\n  0x00\n  return\nstop\n\nsub_0: assembly {\n        /* \"CoinIdo.sol\":229:4495  contract CoinIdo{ ... */\n      mstore(0x40, 0x80)\n      callvalue\n      dup1\n      iszero\n      tag_1\n      jumpi\n      0x00\n      dup1\n      revert\n    tag_1:\n      pop\n      jumpi(tag_2, lt(calldatasize, 0x04))\n      shr(0xe0, calldataload(0x00))\n      dup1\n      0x965ed465\n      gt\n      tag_23\n      jumpi\n      dup1\n      0xe72ebdb7\n      gt\n      tag_24\n      jumpi\n      dup1\n      0xe72ebdb7\n      eq\n      tag_18\n      jumpi\n      dup1\n      0xf06b41e3\n      eq\n      tag_19\n      jumpi\n      dup1\n      0xf3ae2415\n      eq\n      tag_20\n      jumpi\n      dup1\n      0xf56e9c66\n      eq\n      tag_21\n      jumpi\n      dup1\n      0xfb066531\n      eq\n      tag_22\n      jumpi\n      jump(tag_2)\n    tag_24:\n      dup1\n      0x965ed465\n      eq\n      tag_13\n      jumpi\n      dup1\n      0x98269b6a\n      eq\n      tag_14\n      jumpi\n      dup1\n      0xa5e90eee\n      eq\n      tag_15\n      jumpi\n      dup1\n      0xb6dd3104\n      eq\n      tag_16\n      jumpi\n      dup1\n      0xc6b24c1c\n      eq\n      tag_17\n      jumpi\n      jump(tag_2)\n    tag_23:\n      dup1\n      0x6a41d5d7\n      gt\n      tag_25\n      jumpi\n      dup1\n      0x6a41d5d7\n      eq\n      tag_8\n      jumpi\n      dup1\n      0x76be6af6\n      eq\n      tag_9\n      jumpi\n      dup1\n      0x8da5cb5b\n      eq\n      tag_10\n      jumpi\n      dup1\n      0x8dd0abaa\n      eq\n      tag_11\n      jumpi\n      dup1\n      0x918a6283\n      eq\n      tag_12\n      jumpi\n      jump(tag_2)\n    tag_25:\n      dup1\n      0x18160ddd\n      eq\n      tag_3\n      jumpi\n      dup1\n      0x238c4c2f\n      eq\n      tag_4\n      jumpi\n      dup1\n      0x3197cbb6\n      eq\n      tag_5\n      jumpi\n      dup1\n      0x37b1a023\n      eq\n      tag_6\n      jumpi\n      dup1\n      0x5db98f2d\n      eq\n      tag_7\n      jumpi\n    tag_2:\n      0x00\n      dup1\n      revert\n        /* \"CoinIdo.sol\":386:412  uint256 public totalSupply */\n    tag_3:\n      tag_26\n      tag_27\n      jump\t// in\n    tag_26:\n      mload(0x40)\n      tag_28\n      swap2\n      swap1\n      tag_29\n      jump\t// in\n    tag_28:\n      mload(0x40)\n      dup1\n      swap2\n      sub\n      swap1\n      return\n        /* \"CoinIdo.sol\":2002:2418  function _addRelation(address[]memory addressFrom,address[]memory addressTo)public onlyManager{... */\n    tag_4:\n      tag_30\n      0x04\n      dup1\n      calldatasize\n      sub\n      dup2\n      add\n      swap1\n      tag_31\n      swap2\n      swap1\n      tag_32\n      jump\t// in\n    tag_31:\n      tag_33\n      jump\t// in\n    tag_30:\n      stop\n        /* \"CoinIdo.sol\":340:362  uint256 public endTime */\n    tag_5:\n      tag_34\n      tag_35\n      jump\t// in\n    tag_34:\n      mload(0x40)\n      tag_36\n      swap2\n      swap1\n      tag_29\n      jump\t// in\n    tag_36:\n      mload(0x40)\n      dup1\n      swap2\n      sub\n      swap1\n      return\n        /* \"CoinIdo.sol\":1707:1793  function closeOpenTwo(bool _flag) public onlyManager{... */\n    tag_6:\n      tag_37\n      0x04\n      dup1\n      calldatasize\n      sub\n      dup2\n      add\n      swap1\n      tag_38\n      swap2\n      swap1\n      tag_39\n      jump\t// in\n    tag_38:\n      tag_40\n      jump\t// in\n    tag_37:\n      stop\n        /* \"CoinIdo.sol\":283:304  bool public isOpenTwo */\n    tag_7:\n      tag_41\n      tag_42\n      jump\t// in\n    tag_41:\n      mload(0x40)\n      tag_43\n      swap2\n      swap1\n      tag_44\n      jump\t// in\n    tag_43:\n      mload(0x40)\n      dup1\n      swap2\n      sub\n      swap1\n      return\n        /* \"CoinIdo.sol\":668:704  mapping(address=>uint)public userIDO */\n    tag_8:\n      tag_45\n      0x04\n      dup1\n      calldatasize\n      sub\n      dup2\n      add\n      swap1\n      tag_46\n      swap2\n      swap1\n      tag_47\n      jump\t// in\n    tag_46:\n      tag_48\n      jump\t// in\n    tag_45:\n      mload(0x40)\n      tag_49\n      swap2\n      swap1\n      tag_29\n      jump\t// in\n    tag_49:\n      mload(0x40)\n      dup1\n      swap2\n      sub\n      swap1\n      return\n        /* \"CoinIdo.sol\":1799:1929  function setEndTime() public onlyManager{... */\n    tag_9:\n      tag_50\n      tag_51\n      jump\t// in\n    tag_50:\n      stop\n        /* \"CoinIdo.sol\":968:1055  function owner() public view virtual returns (address) {... */\n    tag_10:\n      tag_52\n      tag_53\n      jump\t// in\n    tag_52:\n      mload(0x40)\n      tag_54\n      swap2\n      swap1\n      tag_55\n      jump\t// in\n    tag_54:\n      mload(0x40)\n      dup1\n      swap2\n      sub\n      swap1\n      return\n        /* \"CoinIdo.sol\":2469:3619  function _IDOUsdt(address from,uint value)public {... */\n    tag_11:\n      tag_56\n      0x04\n      dup1\n      calldatasize\n      sub\n      dup2\n      add\n      swap1\n      tag_57\n      swap2\n      swap1\n      tag_58\n      jump\t// in\n    tag_57:\n      tag_59\n      jump\t// in\n    tag_56:\n      stop\n        /* \"CoinIdo.sol\":3625:3829  function allowET(address _address)public{... */\n    tag_12:\n      tag_60\n      0x04\n      dup1\n      calldatasize\n      sub\n      dup2\n      add\n      swap1\n      tag_61\n      swap2\n      swap1\n      tag_47\n      jump\t// in\n    tag_61:\n      tag_62\n      jump\t// in\n    tag_60:\n      stop\n        /* \"CoinIdo.sol\":1510:1609  function setETCoin(address _address) public onlyManager{... */\n    tag_13:\n      tag_63\n      0x04\n      dup1\n      calldatasize\n      sub\n      dup2\n      add\n      swap1\n      tag_64\n      swap2\n      swap1\n      tag_47\n      jump\t// in\n    tag_64:\n      tag_65\n      jump\t// in\n    tag_63:\n      stop\n        /* \"CoinIdo.sol\":3835:4492  function getET()public{... */\n    tag_14:\n      tag_66\n      tag_67\n      jump\t// in\n    tag_66:\n      stop\n        /* \"CoinIdo.sol\":1185:1298  function setManager(address _manager, bool _flag) public onlyOwner {... */\n    tag_15:\n      tag_68\n      0x04\n      dup1\n      calldatasize\n      sub\n      dup2\n      add\n      swap1\n      tag_69\n      swap2\n      swap1\n      tag_70\n      jump\t// in\n    tag_69:\n      tag_71\n      jump\t// in\n    tag_68:\n      stop\n        /* \"CoinIdo.sol\":1615:1701  function closeOpenOne(bool _flag) public onlyManager{... */\n    tag_16:\n      tag_72\n      0x04\n      dup1\n      calldatasize\n      sub\n      dup2\n      add\n      swap1\n      tag_73\n      swap2\n      swap1\n      tag_39\n      jump\t// in\n    tag_73:\n      tag_74\n      jump\t// in\n    tag_72:\n      stop\n        /* \"CoinIdo.sol\":478:503  address public IDOAddress */\n    tag_17:\n      tag_75\n      tag_76\n      jump\t// in\n    tag_75:\n      mload(0x40)\n      tag_77\n      swap2\n      swap1\n      tag_55\n      jump\t// in\n    tag_77:\n      mload(0x40)\n      dup1\n      swap2\n      sub\n      swap1\n      return\n        /* \"CoinIdo.sol\":601:645  mapping(address=>address)public userRelation */\n    tag_18:\n      tag_78\n      0x04\n      dup1\n      calldatasize\n      sub\n      dup2\n      add\n      swap1\n      tag_79\n      swap2\n      swap1\n      tag_47\n      jump\t// in\n    tag_79:\n      tag_80\n      jump\t// in\n    tag_78:\n      mload(0x40)\n      tag_81\n      swap2\n      swap1\n      tag_55\n      jump\t// in\n    tag_81:\n      mload(0x40)\n      dup1\n      swap2\n      sub\n      swap1\n      return\n        /* \"CoinIdo.sol\":730:773  mapping(address=>uint)public relationAmount */\n    tag_19:\n      tag_82\n      0x04\n      dup1\n      calldatasize\n      sub\n      dup2\n      add\n      swap1\n      tag_83\n      swap2\n      swap1\n      tag_47\n      jump\t// in\n    tag_83:\n      tag_84\n      jump\t// in\n    tag_82:\n      mload(0x40)\n      tag_85\n      swap2\n      swap1\n      tag_29\n      jump\t// in\n    tag_85:\n      mload(0x40)\n      dup1\n      swap2\n      sub\n      swap1\n      return\n        /* \"CoinIdo.sol\":427:468  mapping(address => bool) public isManager */\n    tag_20:\n      tag_86\n      0x04\n      dup1\n      calldatasize\n      sub\n      dup2\n      add\n      swap1\n      tag_87\n      swap2\n      swap1\n      tag_47\n      jump\t// in\n    tag_87:\n      tag_88\n      jump\t// in\n    tag_86:\n      mload(0x40)\n      tag_89\n      swap2\n      swap1\n      tag_44\n      jump\t// in\n    tag_89:\n      mload(0x40)\n      dup1\n      swap2\n      sub\n      swap1\n      return\n        /* \"CoinIdo.sol\":1409:1504  function setNFT(address _address) public onlyManager{... */\n    tag_21:\n      tag_90\n      0x04\n      dup1\n      calldatasize\n      sub\n      dup2\n      add\n      swap1\n      tag_91\n      swap2\n      swap1\n      tag_47\n      jump\t// in\n    tag_91:\n      tag_92\n      jump\t// in\n    tag_90:\n      stop\n        /* \"CoinIdo.sol\":255:276  bool public isOpenOne */\n    tag_22:\n      tag_93\n      tag_94\n      jump\t// in\n    tag_93:\n      mload(0x40)\n      tag_95\n      swap2\n      swap1\n      tag_44\n      jump\t// in\n    tag_95:\n      mload(0x40)\n      dup1\n      swap2\n      sub\n      swap1\n      return\n        /* \"CoinIdo.sol\":386:412  uint256 public totalSupply */\n    tag_27:\n      sload(0x02)\n      dup2\n      jump\t// out\n        /* \"CoinIdo.sol\":2002:2418  function _addRelation(address[]memory addressFrom,address[]memory addressTo)public onlyManager{... */\n    tag_33:\n        /* \"CoinIdo.sol\":1346:1355  isManager */\n      0x03\n        /* \"CoinIdo.sol\":1346:1367  isManager[msg.sender] */\n      0x00\n        /* \"CoinIdo.sol\":1356:1366  msg.sender */\n      caller\n        /* \"CoinIdo.sol\":1346:1367  isManager[msg.sender] */\n      0xffffffffffffffffffffffffffffffffffffffff\n      and\n      0xffffffffffffffffffffffffffffffffffffffff\n      and\n      dup2\n      mstore\n      0x20\n      add\n      swap1\n      dup2\n      mstore\n      0x20\n      add\n      0x00\n      keccak256\n      0x00\n      swap1\n      sload\n      swap1\n      0x0100\n      exp\n      swap1\n      div\n      0xff\n      and\n        /* \"CoinIdo.sol\":1338:1383  require(isManager[msg.sender], \"Not manager\") */\n      tag_97\n      jumpi\n      mload(0x40)\n      0x08c379a000000000000000000000000000000000000000000000000000000000\n      dup2\n      mstore\n      0x04\n      add\n      tag_98\n      swap1\n      tag_99\n      jump\t// in\n    tag_98:\n      mload(0x40)\n      dup1\n      swap2\n      sub\n      swap1\n      revert\n    tag_97:\n        /* \"CoinIdo.sol\":2135:2144  addressTo */\n      dup1\n        /* \"CoinIdo.sol\":2135:2151  addressTo.length */\n      mload\n        /* \"CoinIdo.sol\":2115:2126  addressFrom */\n      dup3\n        /* \"CoinIdo.sol\":2115:2133  addressFrom.length */\n      mload\n        /* \"CoinIdo.sol\":2115:2151  addressFrom.length==addressTo.length */\n      eq\n        /* \"CoinIdo.sol\":2107:2170  require(addressFrom.length==addressTo.length,\"length is wrong\") */\n      tag_101\n      jumpi\n      mload(0x40)\n      0x08c379a000000000000000000000000000000000000000000000000000000000\n      dup2\n      mstore\n      0x04\n      add\n      tag_102\n      swap1\n      tag_103\n      jump\t// in\n    tag_102:\n      mload(0x40)\n      dup1\n      swap2\n      sub\n      swap1\n      revert\n    tag_101:\n        /* \"CoinIdo.sol\":2185:2191  uint i */\n      0x00\n        /* \"CoinIdo.sol\":2181:2361  for(uint i=0; i<addressFrom.length; i++){... */\n    tag_104:\n        /* \"CoinIdo.sol\":2197:2208  addressFrom */\n      dup3\n        /* \"CoinIdo.sol\":2197:2215  addressFrom.length */\n      mload\n        /* \"CoinIdo.sol\":2195:2196  i */\n      dup2\n        /* \"CoinIdo.sol\":2195:2215  i<addressFrom.length */\n      lt\n        /* \"CoinIdo.sol\":2181:2361  for(uint i=0; i<addressFrom.length; i++){... */\n      iszero\n      tag_105\n      jumpi\n        /* \"CoinIdo.sol\":2269:2270  0 */\n      0x00\n        /* \"CoinIdo.sol\":2244:2271  addressFrom[i] !=address(0) */\n      0xffffffffffffffffffffffffffffffffffffffff\n      and\n        /* \"CoinIdo.sol\":2244:2255  addressFrom */\n      dup4\n        /* \"CoinIdo.sol\":2256:2257  i */\n      dup3\n        /* \"CoinIdo.sol\":2244:2258  addressFrom[i] */\n      dup2\n      mload\n      dup2\n      lt\n      tag_107\n      jumpi\n      tag_108\n      tag_109\n      jump\t// in\n    tag_108:\n    tag_107:\n      0x20\n      mul\n      0x20\n      add\n      add\n      mload\n        /* \"CoinIdo.sol\":2244:2271  addressFrom[i] !=address(0) */\n      0xffffffffffffffffffffffffffffffffffffffff\n      and\n      sub\n        /* \"CoinIdo.sol\":2236:2291  require(addressFrom[i] !=address(0),\"address is wrong\") */\n      tag_110\n      jumpi\n      mload(0x40)\n      0x08c379a000000000000000000000000000000000000000000000000000000000\n      dup2\n      mstore\n      0x04\n      add\n      tag_111\n      swap1\n      tag_112\n      jump\t// in\n    tag_111:\n      mload(0x40)\n      dup1\n      swap2\n      sub\n      swap1\n      revert\n    tag_110:\n        /* \"CoinIdo.sol\":2337:2346  addressTo */\n      dup2\n        /* \"CoinIdo.sol\":2347:2348  i */\n      dup2\n        /* \"CoinIdo.sol\":2337:2349  addressTo[i] */\n      dup2\n      mload\n      dup2\n      lt\n      tag_113\n      jumpi\n      tag_114\n      tag_109\n      jump\t// in\n    tag_114:\n    tag_113:\n      0x20\n      mul\n      0x20\n      add\n      add\n      mload\n        /* \"CoinIdo.sol\":2306:2318  userRelation */\n      0x09\n        /* \"CoinIdo.sol\":2306:2334  userRelation[addressFrom[i]] */\n      0x00\n        /* \"CoinIdo.sol\":2319:2330  addressFrom */\n      dup6\n        /* \"CoinIdo.sol\":2331:2332  i */\n      dup5\n        /* \"CoinIdo.sol\":2319:2333  addressFrom[i] */\n      dup2\n      mload\n      dup2\n      lt\n      tag_115\n      jumpi\n      tag_116\n      tag_109\n      jump\t// in\n    tag_116:\n    tag_115:\n      0x20\n      mul\n      0x20\n      add\n      add\n      mload\n        /* \"CoinIdo.sol\":2306:2334  userRelation[addressFrom[i]] */\n      0xffffffffffffffffffffffffffffffffffffffff\n      and\n      0xffffffffffffffffffffffffffffffffffffffff\n      and\n      dup2\n      mstore\n      0x20\n      add\n      swap1\n      dup2\n      mstore\n      0x20\n      add\n      0x00\n      keccak256\n      0x00\n        /* \"CoinIdo.sol\":2306:2349  userRelation[addressFrom[i]] = addressTo[i] */\n      0x0100\n      exp\n      dup2\n      sload\n      dup2\n      0xffffffffffffffffffffffffffffffffffffffff\n      mul\n      not\n      and\n      swap1\n      dup4\n      0xffffffffffffffffffffffffffffffffffffffff\n      and\n      mul\n      or\n      swap1\n      sstore\n      pop\n        /* \"CoinIdo.sol\":2217:2220  i++ */\n      dup1\n      dup1\n      tag_117\n      swap1\n      tag_118\n      jump\t// in\n    tag_117:\n      swap2\n      pop\n      pop\n        /* \"CoinIdo.sol\":2181:2361  for(uint i=0; i<addressFrom.length; i++){... */\n      jump(tag_104)\n    tag_105:\n      pop\n        /* \"CoinIdo.sol\":2376:2410  AddRelation(addressFrom,addressTo) */\n      0x1886f03d42b471bc8faf784e3878fce329e8e139473c601b8648de73b3380c02\n        /* \"CoinIdo.sol\":2388:2399  addressFrom */\n      dup3\n        /* \"CoinIdo.sol\":2400:2409  addressTo */\n      dup3\n        /* \"CoinIdo.sol\":2376:2410  AddRelation(addressFrom,addressTo) */\n      mload(0x40)\n      tag_119\n      swap3\n      swap2\n      swap1\n      tag_120\n      jump\t// in\n    tag_119:\n      mload(0x40)\n      dup1\n      swap2\n      sub\n      swap1\n      log1\n        /* \"CoinIdo.sol\":2002:2418  function _addRelation(address[]memory addressFrom,address[]memory addressTo)public onlyManager{... */\n      pop\n      pop\n      jump\t// out\n        /* \"CoinIdo.sol\":340:362  uint256 public endTime */\n    tag_35:\n      sload(0x01)\n      dup2\n      jump\t// out\n        /* \"CoinIdo.sol\":1707:1793  function closeOpenTwo(bool _flag) public onlyManager{... */\n    tag_40:\n        /* \"CoinIdo.sol\":1346:1355  isManager */\n      0x03\n        /* \"CoinIdo.sol\":1346:1367  isManager[msg.sender] */\n      0x00\n        /* \"CoinIdo.sol\":1356:1366  msg.sender */\n      caller\n        /* \"CoinIdo.sol\":1346:1367  isManager[msg.sender] */\n      0xffffffffffffffffffffffffffffffffffffffff\n      and\n      0xffffffffffffffffffffffffffffffffffffffff\n      and\n      dup2\n      mstore\n      0x20\n      add\n      swap1\n      dup2\n      mstore\n      0x20\n      add\n      0x00\n      keccak256\n      0x00\n      swap1\n      sload\n      swap1\n      0x0100\n      exp\n      swap1\n      div\n      0xff\n      and\n        /* \"CoinIdo.sol\":1338:1383  require(isManager[msg.sender], \"Not manager\") */\n      tag_122\n      jumpi\n      mload(0x40)\n      0x08c379a000000000000000000000000000000000000000000000000000000000\n      dup2\n      mstore\n      0x04\n      add\n      tag_123\n      swap1\n      tag_99\n      jump\t// in\n    tag_123:\n      mload(0x40)\n      dup1\n      swap2\n      sub\n      swap1\n      revert\n    tag_122:\n        /* \"CoinIdo.sol\":1780:1785  _flag */\n      dup1\n        /* \"CoinIdo.sol\":1770:1779  isOpenTwo */\n      0x00\n      0x01\n        /* \"CoinIdo.sol\":1770:1785  isOpenTwo=_flag */\n      0x0100\n      exp\n      dup2\n      sload\n      dup2\n      0xff\n      mul\n      not\n      and\n      swap1\n      dup4\n      iszero\n      iszero\n      mul\n      or\n      swap1\n      sstore\n      pop\n        /* \"CoinIdo.sol\":1707:1793  function closeOpenTwo(bool _flag) public onlyManager{... */\n      pop\n      jump\t// out\n        /* \"CoinIdo.sol\":283:304  bool public isOpenTwo */\n    tag_42:\n      0x00\n      0x01\n      swap1\n      sload\n      swap1\n      0x0100\n      exp\n      swap1\n      div\n      0xff\n      and\n      dup2\n      jump\t// out\n        /* \"CoinIdo.sol\":668:704  mapping(address=>uint)public userIDO */\n    tag_48:\n      mstore(0x20, 0x0a)\n      dup1\n      0x00\n      mstore\n      keccak256(0x00, 0x40)\n      0x00\n      swap2\n      pop\n      swap1\n      pop\n      sload\n      dup2\n      jump\t// out\n        /* \"CoinIdo.sol\":1799:1929  function setEndTime() public onlyManager{... */\n    tag_51:\n        /* \"CoinIdo.sol\":1346:1355  isManager */\n      0x03\n        /* \"CoinIdo.sol\":1346:1367  isManager[msg.sender] */\n      0x00\n        /* \"CoinIdo.sol\":1356:1366  msg.sender */\n      caller\n        /* \"CoinIdo.sol\":1346:1367  isManager[msg.sender] */\n      0xffffffffffffffffffffffffffffffffffffffff\n      and\n      0xffffffffffffffffffffffffffffffffffffffff\n      and\n      dup2\n      mstore\n      0x20\n      add\n      swap1\n      dup2\n      mstore\n      0x20\n      add\n      0x00\n      keccak256\n      0x00\n      swap1\n      sload\n      swap1\n      0x0100\n      exp\n      swap1\n      div\n      0xff\n      and\n        /* \"CoinIdo.sol\":1338:1383  require(isManager[msg.sender], \"Not manager\") */\n      tag_126\n      jumpi\n      mload(0x40)\n      0x08c379a000000000000000000000000000000000000000000000000000000000\n      dup2\n      mstore\n      0x04\n      add\n      tag_127\n      swap1\n      tag_99\n      jump\t// in\n    tag_127:\n      mload(0x40)\n      dup1\n      swap2\n      sub\n      swap1\n      revert\n    tag_126:\n        /* \"CoinIdo.sol\":1867:1868  0 */\n      0x00\n        /* \"CoinIdo.sol\":1858:1865  endTime */\n      sload(0x01)\n        /* \"CoinIdo.sol\":1858:1868  endTime==0 */\n      eq\n        /* \"CoinIdo.sol\":1850:1885  require(endTime==0,\"time is exist\") */\n      tag_129\n      jumpi\n      mload(0x40)\n      0x08c379a000000000000000000000000000000000000000000000000000000000\n      dup2\n      mstore\n      0x04\n      add\n      tag_130\n      swap1\n      tag_131\n      jump\t// in\n    tag_130:\n      mload(0x40)\n      dup1\n      swap2\n      sub\n      swap1\n      revert\n    tag_129:\n        /* \"CoinIdo.sol\":1906:1921  block.timestamp */\n      timestamp\n        /* \"CoinIdo.sol\":1896:1903  endTime */\n      0x01\n        /* \"CoinIdo.sol\":1896:1921  endTime = block.timestamp */\n      dup2\n      swap1\n      sstore\n      pop\n        /* \"CoinIdo.sol\":1799:1929  function setEndTime() public onlyManager{... */\n      jump\t// out\n        /* \"CoinIdo.sol\":968:1055  function owner() public view virtual returns (address) {... */\n    tag_53:\n        /* \"CoinIdo.sol\":1014:1021  address */\n      0x00\n        /* \"CoinIdo.sol\":1041:1047  _owner */\n      dup1\n      0x02\n      swap1\n      sload\n      swap1\n      0x0100\n      exp\n      swap1\n      div\n      0xffffffffffffffffffffffffffffffffffffffff\n      and\n        /* \"CoinIdo.sol\":1034:1047  return _owner */\n      swap1\n      pop\n        /* \"CoinIdo.sol\":968:1055  function owner() public view virtual returns (address) {... */\n      swap1\n      jump\t// out\n        /* \"CoinIdo.sol\":2469:3619  function _IDOUsdt(address from,uint value)public {... */\n    tag_59:\n        /* \"CoinIdo.sol\":2529:2540  uint amount */\n      0x00\n        /* \"CoinIdo.sol\":2544:2551  userIDO */\n      0x0a\n        /* \"CoinIdo.sol\":2544:2557  userIDO[from] */\n      0x00\n        /* \"CoinIdo.sol\":2552:2556  from */\n      dup5\n        /* \"CoinIdo.sol\":2544:2557  userIDO[from] */\n      0xffffffffffffffffffffffffffffffffffffffff\n      and\n      0xffffffffffffffffffffffffffffffffffffffff\n      and\n      dup2\n      mstore\n      0x20\n      add\n      swap1\n      dup2\n      mstore\n      0x20\n      add\n      0x00\n      keccak256\n      sload\n        /* \"CoinIdo.sol\":2529:2557  uint amount =  userIDO[from] */\n      swap1\n      pop\n        /* \"CoinIdo.sol\":2584:2588  2000 */\n      0x07d0\n        /* \"CoinIdo.sol\":2576:2582  amount */\n      dup2\n        /* \"CoinIdo.sol\":2576:2588  amount>=2000 */\n      lt\n      iszero\n        /* \"CoinIdo.sol\":2576:2609  amount>=2000 || amount+value>2000 */\n      dup1\n      tag_134\n      jumpi\n      pop\n        /* \"CoinIdo.sol\":2605:2609  2000 */\n      0x07d0\n        /* \"CoinIdo.sol\":2599:2604  value */\n      dup3\n        /* \"CoinIdo.sol\":2592:2598  amount */\n      dup3\n        /* \"CoinIdo.sol\":2592:2604  amount+value */\n      tag_135\n      swap2\n      swap1\n      tag_136\n      jump\t// in\n    tag_135:\n        /* \"CoinIdo.sol\":2592:2609  amount+value>2000 */\n      gt\n        /* \"CoinIdo.sol\":2576:2609  amount>=2000 || amount+value>2000 */\n    tag_134:\n        /* \"CoinIdo.sol\":2568:2620  require(amount>=2000 || amount+value>2000,\"not IDO\") */\n      tag_137\n      jumpi\n      mload(0x40)\n      0x08c379a000000000000000000000000000000000000000000000000000000000\n      dup2\n      mstore\n      0x04\n      add\n      tag_138\n      swap1\n      tag_139\n      jump\t// in\n    tag_138:\n      mload(0x40)\n      dup1\n      swap2\n      sub\n      swap1\n      revert\n    tag_137:\n        /* \"CoinIdo.sol\":2631:2654  address lastLevelAddres */\n      0x00\n        /* \"CoinIdo.sol\":2657:2669  userRelation */\n      0x09\n        /* \"CoinIdo.sol\":2657:2675  userRelation[from] */\n      0x00\n        /* \"CoinIdo.sol\":2670:2674  from */\n      dup6\n        /* \"CoinIdo.sol\":2657:2675  userRelation[from] */\n      0xffffffffffffffffffffffffffffffffffffffff\n      and\n      0xffffffffffffffffffffffffffffffffffffffff\n      and\n      dup2\n      mstore\n      0x20\n      add\n      swap1\n      dup2\n      mstore\n      0x20\n      add\n      0x00\n      keccak256\n      0x00\n      swap1\n      sload\n      swap1\n      0x0100\n      exp\n      swap1\n      div\n      0xffffffffffffffffffffffffffffffffffffffff\n      and\n        /* \"CoinIdo.sol\":2631:2675  address lastLevelAddres = userRelation[from] */\n      swap1\n      pop\n        /* \"CoinIdo.sol\":2715:2716  0 */\n      0x00\n        /* \"CoinIdo.sol\":2689:2717  lastLevelAddres !=address(0) */\n      0xffffffffffffffffffffffffffffffffffffffff\n      and\n        /* \"CoinIdo.sol\":2689:2704  lastLevelAddres */\n      dup2\n        /* \"CoinIdo.sol\":2689:2717  lastLevelAddres !=address(0) */\n      0xffffffffffffffffffffffffffffffffffffffff\n      and\n      eq\n        /* \"CoinIdo.sol\":2686:3208  if(lastLevelAddres !=address(0)){... */\n      tag_140\n      jumpi\n        /* \"CoinIdo.sol\":2761:2762  0 */\n      0x00\n        /* \"CoinIdo.sol\":2736:2743  userIDO */\n      0x0a\n        /* \"CoinIdo.sol\":2736:2760  userIDO[lastLevelAddres] */\n      0x00\n        /* \"CoinIdo.sol\":2744:2759  lastLevelAddres */\n      dup4\n        /* \"CoinIdo.sol\":2736:2760  userIDO[lastLevelAddres] */\n      0xffffffffffffffffffffffffffffffffffffffff\n      and\n      0xffffffffffffffffffffffffffffffffffffffff\n      and\n      dup2\n      mstore\n      0x20\n      add\n      swap1\n      dup2\n      mstore\n      0x20\n      add\n      0x00\n      keccak256\n      sload\n        /* \"CoinIdo.sol\":2736:2762  userIDO[lastLevelAddres]>0 */\n      gt\n        /* \"CoinIdo.sol\":2733:3040  if(userIDO[lastLevelAddres]>0){... */\n      iszero\n      tag_141\n      jumpi\n        /* \"CoinIdo.sol\":2782:2792  uint bonus */\n      0x00\n        /* \"CoinIdo.sol\":2805:2810  10000 */\n      0x2710\n        /* \"CoinIdo.sol\":2801:2804  500 */\n      0x01f4\n        /* \"CoinIdo.sol\":2795:2800  value */\n      dup6\n        /* \"CoinIdo.sol\":2795:2804  value*500 */\n      tag_142\n      swap2\n      swap1\n      tag_143\n      jump\t// in\n    tag_142:\n        /* \"CoinIdo.sol\":2795:2810  value*500/10000 */\n      tag_144\n      swap2\n      swap1\n      tag_145\n      jump\t// in\n    tag_144:\n        /* \"CoinIdo.sol\":2782:2810  uint bonus = value*500/10000 */\n      swap1\n      pop\n        /* \"CoinIdo.sol\":2829:2833  usdt */\n      0x05\n      0x00\n      swap1\n      sload\n      swap1\n      0x0100\n      exp\n      swap1\n      div\n      0xffffffffffffffffffffffffffffffffffffffff\n      and\n        /* \"CoinIdo.sol\":2829:2846  usdt.transferFrom */\n      0xffffffffffffffffffffffffffffffffffffffff\n      and\n      0x23b872dd\n        /* \"CoinIdo.sol\":2847:2851  from */\n      dup7\n        /* \"CoinIdo.sol\":2853:2868  lastLevelAddres */\n      dup5\n        /* \"CoinIdo.sol\":2870:2875  bonus */\n      dup5\n        /* \"CoinIdo.sol\":2829:2876  usdt.transferFrom(from, lastLevelAddres, bonus) */\n      mload(0x40)\n      dup5\n      0xffffffff\n      and\n      0xe0\n      shl\n      dup2\n      mstore\n      0x04\n      add\n      tag_146\n      swap4\n      swap3\n      swap2\n      swap1\n      tag_147\n      jump\t// in\n    tag_146:\n      0x20\n      mload(0x40)\n      dup1\n      dup4\n      sub\n      dup2\n      0x00\n      dup8\n      gas\n      call\n      iszero\n      dup1\n      iszero\n      tag_149\n      jumpi\n      returndatasize\n      0x00\n      dup1\n      returndatacopy\n      revert(0x00, returndatasize)\n    tag_149:\n      pop\n      pop\n      pop\n      pop\n      mload(0x40)\n      returndatasize\n      not(0x1f)\n      0x1f\n      dup3\n      add\n      and\n      dup3\n      add\n      dup1\n      0x40\n      mstore\n      pop\n      dup2\n      add\n      swap1\n      tag_150\n      swap2\n      swap1\n      tag_151\n      jump\t// in\n    tag_150:\n      pop\n        /* \"CoinIdo.sol\":2895:2899  usdt */\n      0x05\n      0x00\n      swap1\n      sload\n      swap1\n      0x0100\n      exp\n      swap1\n      div\n      0xffffffffffffffffffffffffffffffffffffffff\n      and\n        /* \"CoinIdo.sol\":2895:2912  usdt.transferFrom */\n      0xffffffffffffffffffffffffffffffffffffffff\n      and\n      0x23b872dd\n        /* \"CoinIdo.sol\":2913:2917  from */\n      dup7\n        /* \"CoinIdo.sol\":2919:2929  IDOAddress */\n      0x04\n      0x00\n      swap1\n      sload\n      swap1\n      0x0100\n      exp\n      swap1\n      div\n      0xffffffffffffffffffffffffffffffffffffffff\n      and\n        /* \"CoinIdo.sol\":2937:2942  bonus */\n      dup5\n        /* \"CoinIdo.sol\":2931:2936  value */\n      dup9\n        /* \"CoinIdo.sol\":2931:2942  value-bonus */\n      tag_152\n      swap2\n      swap1\n      tag_153\n      jump\t// in\n    tag_152:\n        /* \"CoinIdo.sol\":2895:2943  usdt.transferFrom(from, IDOAddress, value-bonus) */\n      mload(0x40)\n      dup5\n      0xffffffff\n      and\n      0xe0\n      shl\n      dup2\n      mstore\n      0x04\n      add\n      tag_154\n      swap4\n      swap3\n      swap2\n      swap1\n      tag_147\n      jump\t// in\n    tag_154:\n      0x20\n      mload(0x40)\n      dup1\n      dup4\n      sub\n      dup2\n      0x00\n      dup8\n      gas\n      call\n      iszero\n      dup1\n      iszero\n      tag_156\n      jumpi\n      returndatasize\n      0x00\n      dup1\n      returndatacopy\n      revert(0x00, returndatasize)\n    tag_156:\n      pop\n      pop\n      pop\n      pop\n      mload(0x40)\n      returndatasize\n      not(0x1f)\n      0x1f\n      dup3\n      add\n      and\n      dup3\n      add\n      dup1\n      0x40\n      mstore\n      pop\n      dup2\n      add\n      swap1\n      tag_157\n      swap2\n      swap1\n      tag_151\n      jump\t// in\n    tag_157:\n      pop\n        /* \"CoinIdo.sol\":2763:2959  {... */\n      pop\n        /* \"CoinIdo.sol\":2733:3040  if(userIDO[lastLevelAddres]>0){... */\n      jump(tag_158)\n    tag_141:\n        /* \"CoinIdo.sol\":2982:2986  usdt */\n      0x05\n      0x00\n      swap1\n      sload\n      swap1\n      0x0100\n      exp\n      swap1\n      div\n      0xffffffffffffffffffffffffffffffffffffffff\n      and\n        /* \"CoinIdo.sol\":2982:2999  usdt.transferFrom */\n      0xffffffffffffffffffffffffffffffffffffffff\n      and\n      0x23b872dd\n        /* \"CoinIdo.sol\":3000:3004  from */\n      dup6\n        /* \"CoinIdo.sol\":3006:3016  IDOAddress */\n      0x04\n      0x00\n      swap1\n      sload\n      swap1\n      0x0100\n      exp\n      swap1\n      div\n      0xffffffffffffffffffffffffffffffffffffffff\n      and\n        /* \"CoinIdo.sol\":3018:3023  value */\n      dup7\n        /* \"CoinIdo.sol\":2982:3024  usdt.transferFrom(from, IDOAddress, value) */\n      mload(0x40)\n      dup5\n      0xffffffff\n      and\n      0xe0\n      shl\n      dup2\n      mstore\n      0x04\n      add\n      tag_159\n      swap4\n      swap3\n      swap2\n      swap1\n      tag_147\n      jump\t// in\n    tag_159:\n      0x20\n      mload(0x40)\n      dup1\n      dup4\n      sub\n      dup2\n      0x00\n      dup8\n      gas\n      call\n      iszero\n      dup1\n      iszero\n      tag_161\n      jumpi\n      returndatasize\n      0x00\n      dup1\n      returndatacopy\n      revert(0x00, returndatasize)\n    tag_161:\n      pop\n      pop\n      pop\n      pop\n      mload(0x40)\n      returndatasize\n      not(0x1f)\n      0x1f\n      dup3\n      add\n      and\n      dup3\n      add\n      dup1\n      0x40\n      mstore\n      pop\n      dup2\n      add\n      swap1\n      tag_162\n      swap2\n      swap1\n      tag_151\n      jump\t// in\n    tag_162:\n      pop\n        /* \"CoinIdo.sol\":2733:3040  if(userIDO[lastLevelAddres]>0){... */\n    tag_158:\n        /* \"CoinIdo.sol\":3118:3123  value */\n      dup3\n        /* \"CoinIdo.sol\":3086:3100  relationAmount */\n      0x0b\n        /* \"CoinIdo.sol\":3086:3117  relationAmount[lastLevelAddres] */\n      0x00\n        /* \"CoinIdo.sol\":3101:3116  lastLevelAddres */\n      dup4\n        /* \"CoinIdo.sol\":3086:3117  relationAmount[lastLevelAddres] */\n      0xffffffffffffffffffffffffffffffffffffffff\n      and\n      0xffffffffffffffffffffffffffffffffffffffff\n      and\n      dup2\n      mstore\n      0x20\n      add\n      swap1\n      dup2\n      mstore\n      0x20\n      add\n      0x00\n      keccak256\n      sload\n        /* \"CoinIdo.sol\":3086:3123  relationAmount[lastLevelAddres]+value */\n      tag_163\n      swap2\n      swap1\n      tag_136\n      jump\t// in\n    tag_163:\n        /* \"CoinIdo.sol\":3054:3068  relationAmount */\n      0x0b\n        /* \"CoinIdo.sol\":3054:3085  relationAmount[lastLevelAddres] */\n      0x00\n        /* \"CoinIdo.sol\":3069:3084  lastLevelAddres */\n      dup4\n        /* \"CoinIdo.sol\":3054:3085  relationAmount[lastLevelAddres] */\n      0xffffffffffffffffffffffffffffffffffffffff\n      and\n      0xffffffffffffffffffffffffffffffffffffffff\n      and\n      dup2\n      mstore\n      0x20\n      add\n      swap1\n      dup2\n      mstore\n      0x20\n      add\n      0x00\n      keccak256\n        /* \"CoinIdo.sol\":3054:3123  relationAmount[lastLevelAddres]=relationAmount[lastLevelAddres]+value */\n      dup2\n      swap1\n      sstore\n      pop\n        /* \"CoinIdo.sol\":2686:3208  if(lastLevelAddres !=address(0)){... */\n      jump(tag_164)\n    tag_140:\n        /* \"CoinIdo.sol\":3154:3158  usdt */\n      0x05\n      0x00\n      swap1\n      sload\n      swap1\n      0x0100\n      exp\n      swap1\n      div\n      0xffffffffffffffffffffffffffffffffffffffff\n      and\n        /* \"CoinIdo.sol\":3154:3171  usdt.transferFrom */\n      0xffffffffffffffffffffffffffffffffffffffff\n      and\n      0x23b872dd\n        /* \"CoinIdo.sol\":3172:3176  from */\n      dup6\n        /* \"CoinIdo.sol\":3178:3188  IDOAddress */\n      0x04\n      0x00\n      swap1\n      sload\n      swap1\n      0x0100\n      exp\n      swap1\n      div\n      0xffffffffffffffffffffffffffffffffffffffff\n      and\n        /* \"CoinIdo.sol\":3190:3195  value */\n      dup7\n        /* \"CoinIdo.sol\":3154:3196  usdt.transferFrom(from, IDOAddress, value) */\n      mload(0x40)\n      dup5\n      0xffffffff\n      and\n      0xe0\n      shl\n      dup2\n      mstore\n      0x04\n      add\n      tag_165\n      swap4\n      swap3\n      swap2\n      swap1\n      tag_147\n      jump\t// in\n    tag_165:\n      0x20\n      mload(0x40)\n      dup1\n      dup4\n      sub\n      dup2\n      0x00\n      dup8\n      gas\n      call\n      iszero\n      dup1\n      iszero\n      tag_167\n      jumpi\n      returndatasize\n      0x00\n      dup1\n      returndatacopy\n      revert(0x00, returndatasize)\n    tag_167:\n      pop\n      pop\n      pop\n      pop\n      mload(0x40)\n      returndatasize\n      not(0x1f)\n      0x1f\n      dup3\n      add\n      and\n      dup3\n      add\n      dup1\n      0x40\n      mstore\n      pop\n      dup2\n      add\n      swap1\n      tag_168\n      swap2\n      swap1\n      tag_151\n      jump\t// in\n    tag_168:\n      pop\n        /* \"CoinIdo.sol\":2686:3208  if(lastLevelAddres !=address(0)){... */\n    tag_164:\n        /* \"CoinIdo.sol\":3250:3255  value */\n      dup3\n        /* \"CoinIdo.sol\":3242:3248  amount */\n      dup3\n        /* \"CoinIdo.sol\":3242:3255  amount +value */\n      tag_169\n      swap2\n      swap1\n      tag_136\n      jump\t// in\n    tag_169:\n        /* \"CoinIdo.sol\":3226:3233  userIDO */\n      0x0a\n        /* \"CoinIdo.sol\":3226:3239  userIDO[from] */\n      0x00\n        /* \"CoinIdo.sol\":3234:3238  from */\n      dup7\n        /* \"CoinIdo.sol\":3226:3239  userIDO[from] */\n      0xffffffffffffffffffffffffffffffffffffffff\n      and\n      0xffffffffffffffffffffffffffffffffffffffff\n      and\n      dup2\n      mstore\n      0x20\n      add\n      swap1\n      dup2\n      mstore\n      0x20\n      add\n      0x00\n      keccak256\n        /* \"CoinIdo.sol\":3226:3255  userIDO[from] = amount +value */\n      dup2\n      swap1\n      sstore\n      pop\n        /* \"CoinIdo.sol\":3284:3288  2000 */\n      0x07d0\n        /* \"CoinIdo.sol\":3269:3276  userIDO */\n      0x0a\n        /* \"CoinIdo.sol\":3269:3282  userIDO[from] */\n      0x00\n        /* \"CoinIdo.sol\":3277:3281  from */\n      dup7\n        /* \"CoinIdo.sol\":3269:3282  userIDO[from] */\n      0xffffffffffffffffffffffffffffffffffffffff\n      and\n      0xffffffffffffffffffffffffffffffffffffffff\n      and\n      dup2\n      mstore\n      0x20\n      add\n      swap1\n      dup2\n      mstore\n      0x20\n      add\n      0x00\n      keccak256\n      sload\n        /* \"CoinIdo.sol\":3269:3288  userIDO[from]>=2000 */\n      lt\n        /* \"CoinIdo.sol\":3266:3336  if(userIDO[from]>=2000){... */\n      tag_170\n      jumpi\n        /* \"CoinIdo.sol\":3304:3309  etNft */\n      0x06\n      0x00\n      swap1\n      sload\n      swap1\n      0x0100\n      exp\n      swap1\n      div\n      0xffffffffffffffffffffffffffffffffffffffff\n      and\n        /* \"CoinIdo.sol\":3304:3318  etNft.safeMint */\n      0xffffffffffffffffffffffffffffffffffffffff\n      and\n      0x40d097c3\n        /* \"CoinIdo.sol\":3319:3323  from */\n      dup6\n        /* \"CoinIdo.sol\":3304:3324  etNft.safeMint(from) */\n      mload(0x40)\n      dup3\n      0xffffffff\n      and\n      0xe0\n      shl\n      dup2\n      mstore\n      0x04\n      add\n      tag_171\n      swap2\n      swap1\n      tag_55\n      jump\t// in\n    tag_171:\n      0x00\n      mload(0x40)\n      dup1\n      dup4\n      sub\n      dup2\n      0x00\n      dup8\n      dup1\n      extcodesize\n      iszero\n      dup1\n      iszero\n      tag_172\n      jumpi\n      0x00\n      dup1\n      revert\n    tag_172:\n      pop\n      gas\n      call\n      iszero\n      dup1\n      iszero\n      tag_174\n      jumpi\n      returndatasize\n      0x00\n      dup1\n      returndatacopy\n      revert(0x00, returndatasize)\n    tag_174:\n      pop\n      pop\n      pop\n      pop\n        /* \"CoinIdo.sol\":3266:3336  if(userIDO[from]>=2000){... */\n    tag_170:\n        /* \"CoinIdo.sol\":3407:3411  3000 */\n      0x0bb8\n        /* \"CoinIdo.sol\":3374:3388  relationAmount */\n      0x0b\n        /* \"CoinIdo.sol\":3374:3405  relationAmount[lastLevelAddres] */\n      0x00\n        /* \"CoinIdo.sol\":3389:3404  lastLevelAddres */\n      dup4\n        /* \"CoinIdo.sol\":3374:3405  relationAmount[lastLevelAddres] */\n      0xffffffffffffffffffffffffffffffffffffffff\n      and\n      0xffffffffffffffffffffffffffffffffffffffff\n      and\n      dup2\n      mstore\n      0x20\n      add\n      swap1\n      dup2\n      mstore\n      0x20\n      add\n      0x00\n      keccak256\n      sload\n        /* \"CoinIdo.sol\":3374:3411  relationAmount[lastLevelAddres]>=3000 */\n      lt\n        /* \"CoinIdo.sol\":3371:3553  if(relationAmount[lastLevelAddres]>=3000){... */\n      tag_175\n      jumpi\n        /* \"CoinIdo.sol\":3427:3432  etNft */\n      0x06\n      0x00\n      swap1\n      sload\n      swap1\n      0x0100\n      exp\n      swap1\n      div\n      0xffffffffffffffffffffffffffffffffffffffff\n      and\n        /* \"CoinIdo.sol\":3427:3441  etNft.safeMint */\n      0xffffffffffffffffffffffffffffffffffffffff\n      and\n      0x40d097c3\n        /* \"CoinIdo.sol\":3442:3457  lastLevelAddres */\n      dup3\n        /* \"CoinIdo.sol\":3427:3458  etNft.safeMint(lastLevelAddres) */\n      mload(0x40)\n      dup3\n      0xffffffff\n      and\n      0xe0\n      shl\n      dup2\n      mstore\n      0x04\n      add\n      tag_176\n      swap2\n      swap1\n      tag_55\n      jump\t// in\n    tag_176:\n      0x00\n      mload(0x40)\n      dup1\n      dup4\n      sub\n      dup2\n      0x00\n      dup8\n      dup1\n      extcodesize\n      iszero\n      dup1\n      iszero\n      tag_177\n      jumpi\n      0x00\n      dup1\n      revert\n    tag_177:\n      pop\n      gas\n      call\n      iszero\n      dup1\n      iszero\n      tag_179\n      jumpi\n      returndatasize\n      0x00\n      dup1\n      returndatacopy\n      revert(0x00, returndatasize)\n    tag_179:\n      pop\n      pop\n      pop\n      pop\n        /* \"CoinIdo.sol\":3537:3541  3000 */\n      0x0bb8\n        /* \"CoinIdo.sol\":3505:3519  relationAmount */\n      0x0b\n        /* \"CoinIdo.sol\":3505:3536  relationAmount[lastLevelAddres] */\n      0x00\n        /* \"CoinIdo.sol\":3520:3535  lastLevelAddres */\n      dup4\n        /* \"CoinIdo.sol\":3505:3536  relationAmount[lastLevelAddres] */\n      0xffffffffffffffffffffffffffffffffffffffff\n      and\n      0xffffffffffffffffffffffffffffffffffffffff\n      and\n      dup2\n      mstore\n      0x20\n      add\n      swap1\n      dup2\n      mstore\n      0x20\n      add\n      0x00\n      keccak256\n      sload\n        /* \"CoinIdo.sol\":3505:3541  relationAmount[lastLevelAddres]-3000 */\n      tag_180\n      swap2\n      swap1\n      tag_153\n      jump\t// in\n    tag_180:\n        /* \"CoinIdo.sol\":3473:3487  relationAmount */\n      0x0b\n        /* \"CoinIdo.sol\":3473:3504  relationAmount[lastLevelAddres] */\n      0x00\n        /* \"CoinIdo.sol\":3488:3503  lastLevelAddres */\n      dup4\n        /* \"CoinIdo.sol\":3473:3504  relationAmount[lastLevelAddres] */\n      0xffffffffffffffffffffffffffffffffffffffff\n      and\n      0xffffffffffffffffffffffffffffffffffffffff\n      and\n      dup2\n      mstore\n      0x20\n      add\n      swap1\n      dup2\n      mstore\n      0x20\n      add\n      0x00\n      keccak256\n        /* \"CoinIdo.sol\":3473:3541  relationAmount[lastLevelAddres]=relationAmount[lastLevelAddres]-3000 */\n      dup2\n      swap1\n      sstore\n      pop\n        /* \"CoinIdo.sol\":3371:3553  if(relationAmount[lastLevelAddres]>=3000){... */\n    tag_175:\n        /* \"CoinIdo.sol\":3563:3576  allowET(from) */\n      tag_181\n        /* \"CoinIdo.sol\":3571:3575  from */\n      dup5\n        /* \"CoinIdo.sol\":3563:3570  allowET */\n      tag_62\n        /* \"CoinIdo.sol\":3563:3576  allowET(from) */\n      jump\t// in\n    tag_181:\n        /* \"CoinIdo.sol\":3592:3611  IDOUsdt(from,value) */\n      0x080bf12451b207525905f2fe9e47714fbcd5aa383b228f656b880136e66b288f\n        /* \"CoinIdo.sol\":3600:3604  from */\n      dup5\n        /* \"CoinIdo.sol\":3605:3610  value */\n      dup5\n        /* \"CoinIdo.sol\":3592:3611  IDOUsdt(from,value) */\n      mload(0x40)\n      tag_182\n      swap3\n      swap2\n      swap1\n      tag_183\n      jump\t// in\n    tag_182:\n      mload(0x40)\n      dup1\n      swap2\n      sub\n      swap1\n      log1\n        /* \"CoinIdo.sol\":2518:3619  {... */\n      pop\n      pop\n        /* \"CoinIdo.sol\":2469:3619  function _IDOUsdt(address from,uint value)public {... */\n      pop\n      pop\n      jump\t// out\n        /* \"CoinIdo.sol\":3625:3829  function allowET(address _address)public{... */\n    tag_62:\n        /* \"CoinIdo.sol\":3676:3693  bool[]memory islb */\n      0x00\n        /* \"CoinIdo.sol\":3707:3709  16 */\n      0x10\n        /* \"CoinIdo.sol\":3696:3710  new bool[](16) */\n      0xffffffffffffffff\n      dup2\n      gt\n      iszero\n      tag_185\n      jumpi\n      tag_186\n      tag_187\n      jump\t// in\n    tag_186:\n    tag_185:\n      mload(0x40)\n      swap1\n      dup1\n      dup3\n      mstore\n      dup1\n      0x20\n      mul\n      0x20\n      add\n      dup3\n      add\n      0x40\n      mstore\n      dup1\n      iszero\n      tag_188\n      jumpi\n      dup2\n      0x20\n      add\n      0x20\n      dup3\n      mul\n      dup1\n      calldatasize\n      dup4\n      calldatacopy\n      dup1\n      dup3\n      add\n      swap2\n      pop\n      pop\n      swap1\n      pop\n    tag_188:\n      pop\n        /* \"CoinIdo.sol\":3676:3710  bool[]memory islb = new bool[](16) */\n      swap1\n      pop\n        /* \"CoinIdo.sol\":3725:3731  uint i */\n      0x00\n        /* \"CoinIdo.sol\":3721:3794  for(uint i=0; i<islb.length; i++){... */\n    tag_189:\n        /* \"CoinIdo.sol\":3737:3741  islb */\n      dup2\n        /* \"CoinIdo.sol\":3737:3748  islb.length */\n      mload\n        /* \"CoinIdo.sol\":3735:3736  i */\n      dup2\n        /* \"CoinIdo.sol\":3735:3748  i<islb.length */\n      lt\n        /* \"CoinIdo.sol\":3721:3794  for(uint i=0; i<islb.length; i++){... */\n      iszero\n      tag_190\n      jumpi\n        /* \"CoinIdo.sol\":3777:3782  false */\n      0x00\n        /* \"CoinIdo.sol\":3769:3773  islb */\n      dup3\n        /* \"CoinIdo.sol\":3774:3775  i */\n      dup3\n        /* \"CoinIdo.sol\":3769:3776  islb[i] */\n      dup2\n      mload\n      dup2\n      lt\n      tag_192\n      jumpi\n      tag_193\n      tag_109\n      jump\t// in\n    tag_193:\n    tag_192:\n      0x20\n      mul\n      0x20\n      add\n      add\n        /* \"CoinIdo.sol\":3769:3782  islb[i]=false */\n      swap1\n      iszero\n      iszero\n      swap1\n      dup2\n      iszero\n      iszero\n      dup2\n      mstore\n      pop\n      pop\n        /* \"CoinIdo.sol\":3750:3753  i++ */\n      dup1\n      dup1\n      tag_194\n      swap1\n      tag_118\n      jump\t// in\n    tag_194:\n      swap2\n      pop\n      pop\n        /* \"CoinIdo.sol\":3721:3794  for(uint i=0; i<islb.length; i++){... */\n      jump(tag_189)\n    tag_190:\n      pop\n        /* \"CoinIdo.sol\":3817:3821  islb */\n      dup1\n        /* \"CoinIdo.sol\":3804:3806  lb */\n      0x08\n        /* \"CoinIdo.sol\":3804:3816  lb[_address] */\n      0x00\n        /* \"CoinIdo.sol\":3807:3815  _address */\n      dup5\n        /* \"CoinIdo.sol\":3804:3816  lb[_address] */\n      0xffffffffffffffffffffffffffffffffffffffff\n      and\n      0xffffffffffffffffffffffffffffffffffffffff\n      and\n      dup2\n      mstore\n      0x20\n      add\n      swap1\n      dup2\n      mstore\n      0x20\n      add\n      0x00\n      keccak256\n        /* \"CoinIdo.sol\":3804:3821  lb[_address]=islb */\n      swap1\n      dup1\n      mload\n      swap1\n      0x20\n      add\n      swap1\n      tag_195\n      swap3\n      swap2\n      swap1\n      tag_196\n      jump\t// in\n    tag_195:\n      pop\n        /* \"CoinIdo.sol\":3665:3829  {... */\n      pop\n        /* \"CoinIdo.sol\":3625:3829  function allowET(address _address)public{... */\n      pop\n      jump\t// out\n        /* \"CoinIdo.sol\":1510:1609  function setETCoin(address _address) public onlyManager{... */\n    tag_65:\n        /* \"CoinIdo.sol\":1346:1355  isManager */\n      0x03\n        /* \"CoinIdo.sol\":1346:1367  isManager[msg.sender] */\n      0x00\n        /* \"CoinIdo.sol\":1356:1366  msg.sender */\n      caller\n        /* \"CoinIdo.sol\":1346:1367  isManager[msg.sender] */\n      0xffffffffffffffffffffffffffffffffffffffff\n      and\n      0xffffffffffffffffffffffffffffffffffffffff\n      and\n      dup2\n      mstore\n      0x20\n      add\n      swap1\n      dup2\n      mstore\n      0x20\n      add\n      0x00\n      keccak256\n      0x00\n      swap1\n      sload\n      swap1\n      0x0100\n      exp\n      swap1\n      div\n      0xff\n      and\n        /* \"CoinIdo.sol\":1338:1383  require(isManager[msg.sender], \"Not manager\") */\n      tag_198\n      jumpi\n      mload(0x40)\n      0x08c379a000000000000000000000000000000000000000000000000000000000\n      dup2\n      mstore\n      0x04\n      add\n      tag_199\n      swap1\n      tag_99\n      jump\t// in\n    tag_199:\n      mload(0x40)\n      dup1\n      swap2\n      sub\n      swap1\n      revert\n    tag_198:\n        /* \"CoinIdo.sol\":1592:1600  _address */\n      dup1\n        /* \"CoinIdo.sol\":1576:1582  etCoin */\n      0x07\n      0x00\n        /* \"CoinIdo.sol\":1576:1601  etCoin = IERC20(_address) */\n      0x0100\n      exp\n      dup2\n      sload\n      dup2\n      0xffffffffffffffffffffffffffffffffffffffff\n      mul\n      not\n      and\n      swap1\n      dup4\n      0xffffffffffffffffffffffffffffffffffffffff\n      and\n      mul\n      or\n      swap1\n      sstore\n      pop\n        /* \"CoinIdo.sol\":1510:1609  function setETCoin(address _address) public onlyManager{... */\n      pop\n      jump\t// out\n        /* \"CoinIdo.sol\":3835:4492  function getET()public{... */\n    tag_67:\n        /* \"CoinIdo.sol\":3896:3897  0 */\n      0x00\n        /* \"CoinIdo.sol\":3876:3883  userIDO */\n      0x0a\n        /* \"CoinIdo.sol\":3876:3895  userIDO[msg.sender] */\n      0x00\n        /* \"CoinIdo.sol\":3884:3894  msg.sender */\n      caller\n        /* \"CoinIdo.sol\":3876:3895  userIDO[msg.sender] */\n      0xffffffffffffffffffffffffffffffffffffffff\n      and\n      0xffffffffffffffffffffffffffffffffffffffff\n      and\n      dup2\n      mstore\n      0x20\n      add\n      swap1\n      dup2\n      mstore\n      0x20\n      add\n      0x00\n      keccak256\n      sload\n        /* \"CoinIdo.sol\":3876:3897  userIDO[msg.sender]>0 */\n      gt\n        /* \"CoinIdo.sol\":3868:3910  require(userIDO[msg.sender]>0,\"not allow\") */\n      tag_202\n      jumpi\n      mload(0x40)\n      0x08c379a000000000000000000000000000000000000000000000000000000000\n      dup2\n      mstore\n      0x04\n      add\n      tag_203\n      swap1\n      tag_204\n      jump\t// in\n    tag_203:\n      mload(0x40)\n      dup1\n      swap2\n      sub\n      swap1\n      revert\n    tag_202:\n        /* \"CoinIdo.sol\":3921:3932  uint amount */\n      0x00\n        /* \"CoinIdo.sol\":3943:3960  uint intervalTime */\n      dup1\n        /* \"CoinIdo.sol\":3980:3987  endTime */\n      sload(0x01)\n        /* \"CoinIdo.sol\":3963:3978  block.timestamp */\n      timestamp\n        /* \"CoinIdo.sol\":3963:3987  block.timestamp -endTime */\n      tag_205\n      swap2\n      swap1\n      tag_153\n      jump\t// in\n    tag_205:\n        /* \"CoinIdo.sol\":3943:3987  uint intervalTime = block.timestamp -endTime */\n      swap1\n      pop\n        /* \"CoinIdo.sol\":3998:4006  uint day */\n      0x00\n        /* \"CoinIdo.sol\":4022:4027  86400 */\n      0x015180\n        /* \"CoinIdo.sol\":4009:4021  intervalTime */\n      dup3\n        /* \"CoinIdo.sol\":4009:4027  intervalTime/86400 */\n      tag_206\n      swap2\n      swap1\n      tag_145\n      jump\t// in\n    tag_206:\n        /* \"CoinIdo.sol\":3998:4027  uint day = intervalTime/86400 */\n      swap1\n      pop\n        /* \"CoinIdo.sol\":4038:4048  uint allET */\n      0x00\n        /* \"CoinIdo.sol\":4076:4079  120 */\n      0x78\n        /* \"CoinIdo.sol\":4071:4075  2600 */\n      0x0a28\n        /* \"CoinIdo.sol\":4051:4058  userIDO */\n      0x0a\n        /* \"CoinIdo.sol\":4051:4070  userIDO[msg.sender] */\n      0x00\n        /* \"CoinIdo.sol\":4059:4069  msg.sender */\n      caller\n        /* \"CoinIdo.sol\":4051:4070  userIDO[msg.sender] */\n      0xffffffffffffffffffffffffffffffffffffffff\n      and\n      0xffffffffffffffffffffffffffffffffffffffff\n      and\n      dup2\n      mstore\n      0x20\n      add\n      swap1\n      dup2\n      mstore\n      0x20\n      add\n      0x00\n      keccak256\n      sload\n        /* \"CoinIdo.sol\":4051:4075  userIDO[msg.sender]*2600 */\n      tag_207\n      swap2\n      swap1\n      tag_143\n      jump\t// in\n    tag_207:\n        /* \"CoinIdo.sol\":4051:4079  userIDO[msg.sender]*2600/120 */\n      tag_208\n      swap2\n      swap1\n      tag_145\n      jump\t// in\n    tag_208:\n        /* \"CoinIdo.sol\":4038:4079  uint allET = userIDO[msg.sender]*2600/120 */\n      swap1\n      pop\n        /* \"CoinIdo.sol\":4098:4099  1 */\n      0x01\n        /* \"CoinIdo.sol\":4093:4096  day */\n      dup3\n        /* \"CoinIdo.sol\":4093:4099  day>=1 */\n      lt\n      iszero\n        /* \"CoinIdo.sol\":4093:4121  day>=1 && !lb[msg.sender][0] */\n      dup1\n      iszero\n      tag_209\n      jumpi\n      pop\n        /* \"CoinIdo.sol\":4104:4106  lb */\n      0x08\n        /* \"CoinIdo.sol\":4104:4118  lb[msg.sender] */\n      0x00\n        /* \"CoinIdo.sol\":4107:4117  msg.sender */\n      caller\n        /* \"CoinIdo.sol\":4104:4118  lb[msg.sender] */\n      0xffffffffffffffffffffffffffffffffffffffff\n      and\n      0xffffffffffffffffffffffffffffffffffffffff\n      and\n      dup2\n      mstore\n      0x20\n      add\n      swap1\n      dup2\n      mstore\n      0x20\n      add\n      0x00\n      keccak256\n        /* \"CoinIdo.sol\":4119:4120  0 */\n      0x00\n        /* \"CoinIdo.sol\":4104:4121  lb[msg.sender][0] */\n      dup2\n      sload\n      dup2\n      lt\n      tag_210\n      jumpi\n      tag_211\n      tag_109\n      jump\t// in\n    tag_211:\n    tag_210:\n      swap1\n      0x00\n      mstore\n      keccak256(0x00, 0x20)\n      swap1\n      0x20\n      swap2\n      dup3\n      dup3\n      div\n      add\n      swap2\n      swap1\n      mod\n      swap1\n      sload\n      swap1\n      0x0100\n      exp\n      swap1\n      div\n      0xff\n      and\n        /* \"CoinIdo.sol\":4103:4121  !lb[msg.sender][0] */\n      iszero\n        /* \"CoinIdo.sol\":4093:4121  day>=1 && !lb[msg.sender][0] */\n    tag_209:\n        /* \"CoinIdo.sol\":4090:4211  if(day>=1 && !lb[msg.sender][0]){... */\n      iszero\n      tag_213\n      jumpi\n        /* \"CoinIdo.sol\":4157:4162  10000 */\n      0x2710\n        /* \"CoinIdo.sol\":4152:4156  1000 */\n      0x03e8\n        /* \"CoinIdo.sol\":4146:4151  allET */\n      dup3\n        /* \"CoinIdo.sol\":4146:4156  allET*1000 */\n      tag_214\n      swap2\n      swap1\n      tag_143\n      jump\t// in\n    tag_214:\n        /* \"CoinIdo.sol\":4146:4162  allET*1000/10000 */\n      tag_215\n      swap2\n      swap1\n      tag_145\n      jump\t// in\n    tag_215:\n        /* \"CoinIdo.sol\":4137:4162  amount = allET*1000/10000 */\n      swap4\n      pop\n        /* \"CoinIdo.sol\":4195:4199  true */\n      0x01\n        /* \"CoinIdo.sol\":4177:4179  lb */\n      0x08\n        /* \"CoinIdo.sol\":4177:4191  lb[msg.sender] */\n      0x00\n        /* \"CoinIdo.sol\":4180:4190  msg.sender */\n      caller\n        /* \"CoinIdo.sol\":4177:4191  lb[msg.sender] */\n      0xffffffffffffffffffffffffffffffffffffffff\n      and\n      0xffffffffffffffffffffffffffffffffffffffff\n      and\n      dup2\n      mstore\n      0x20\n      add\n      swap1\n      dup2\n      mstore\n      0x20\n      add\n      0x00\n      keccak256\n        /* \"CoinIdo.sol\":4192:4193  0 */\n      0x00\n        /* \"CoinIdo.sol\":4177:4194  lb[msg.sender][0] */\n      dup2\n      sload\n      dup2\n      lt\n      tag_216\n      jumpi\n      tag_217\n      tag_109\n      jump\t// in\n    tag_217:\n    tag_216:\n      swap1\n      0x00\n      mstore\n      keccak256(0x00, 0x20)\n      swap1\n      0x20\n      swap2\n      dup3\n      dup3\n      div\n      add\n      swap2\n      swap1\n      mod\n        /* \"CoinIdo.sol\":4177:4199  lb[msg.sender][0]=true */\n      0x0100\n      exp\n      dup2\n      sload\n      dup2\n      0xff\n      mul\n      not\n      and\n      swap1\n      dup4\n      iszero\n      iszero\n      mul\n      or\n      swap1\n      sstore\n      pop\n        /* \"CoinIdo.sol\":4090:4211  if(day>=1 && !lb[msg.sender][0]){... */\n    tag_213:\n        /* \"CoinIdo.sol\":4221:4230  uint item */\n      0x00\n        /* \"CoinIdo.sol\":4241:4243  30 */\n      0x1e\n        /* \"CoinIdo.sol\":4238:4239  1 */\n      0x01\n        /* \"CoinIdo.sol\":4234:4237  day */\n      dup5\n        /* \"CoinIdo.sol\":4234:4239  day-1 */\n      tag_219\n      swap2\n      swap1\n      tag_153\n      jump\t// in\n    tag_219:\n        /* \"CoinIdo.sol\":4233:4243  (day-1)/30 */\n      tag_220\n      swap2\n      swap1\n      tag_145\n      jump\t// in\n    tag_220:\n        /* \"CoinIdo.sol\":4221:4243  uint item = (day-1)/30 */\n      swap1\n      pop\n        /* \"CoinIdo.sol\":4258:4264  uint i */\n      0x00\n        /* \"CoinIdo.sol\":4265:4266  1 */\n      0x01\n        /* \"CoinIdo.sol\":4258:4266  uint i=1 */\n      swap1\n      pop\n        /* \"CoinIdo.sol\":4254:4439  for(uint i=1; i<=item; i++){... */\n    tag_221:\n        /* \"CoinIdo.sol\":4271:4275  item */\n      dup2\n        /* \"CoinIdo.sol\":4268:4269  i */\n      dup2\n        /* \"CoinIdo.sol\":4268:4275  i<=item */\n      gt\n        /* \"CoinIdo.sol\":4254:4439  for(uint i=1; i<=item; i++){... */\n      tag_222\n      jumpi\n        /* \"CoinIdo.sol\":4300:4302  lb */\n      0x08\n        /* \"CoinIdo.sol\":4300:4314  lb[msg.sender] */\n      0x00\n        /* \"CoinIdo.sol\":4303:4313  msg.sender */\n      caller\n        /* \"CoinIdo.sol\":4300:4314  lb[msg.sender] */\n      0xffffffffffffffffffffffffffffffffffffffff\n      and\n      0xffffffffffffffffffffffffffffffffffffffff\n      and\n      dup2\n      mstore\n      0x20\n      add\n      swap1\n      dup2\n      mstore\n      0x20\n      add\n      0x00\n      keccak256\n        /* \"CoinIdo.sol\":4315:4316  i */\n      dup2\n        /* \"CoinIdo.sol\":4300:4317  lb[msg.sender][i] */\n      dup2\n      sload\n      dup2\n      lt\n      tag_224\n      jumpi\n      tag_225\n      tag_109\n      jump\t// in\n    tag_225:\n    tag_224:\n      swap1\n      0x00\n      mstore\n      keccak256(0x00, 0x20)\n      swap1\n      0x20\n      swap2\n      dup3\n      dup3\n      div\n      add\n      swap2\n      swap1\n      mod\n      swap1\n      sload\n      swap1\n      0x0100\n      exp\n      swap1\n      div\n      0xff\n      and\n        /* \"CoinIdo.sol\":4296:4428  if(!lb[msg.sender][i]){... */\n      tag_227\n      jumpi\n        /* \"CoinIdo.sol\":4365:4370  10000 */\n      0x2710\n        /* \"CoinIdo.sol\":4361:4364  600 */\n      0x0258\n        /* \"CoinIdo.sol\":4355:4360  allET */\n      dup5\n        /* \"CoinIdo.sol\":4355:4364  allET*600 */\n      tag_228\n      swap2\n      swap1\n      tag_143\n      jump\t// in\n    tag_228:\n        /* \"CoinIdo.sol\":4355:4370  allET*600/10000 */\n      tag_229\n      swap2\n      swap1\n      tag_145\n      jump\t// in\n    tag_229:\n        /* \"CoinIdo.sol\":4346:4352  amount */\n      dup7\n        /* \"CoinIdo.sol\":4346:4370  amount + allET*600/10000 */\n      tag_230\n      swap2\n      swap1\n      tag_136\n      jump\t// in\n    tag_230:\n        /* \"CoinIdo.sol\":4337:4370  amount = amount + allET*600/10000 */\n      swap6\n      pop\n        /* \"CoinIdo.sol\":4408:4412  true */\n      0x01\n        /* \"CoinIdo.sol\":4389:4391  lb */\n      0x08\n        /* \"CoinIdo.sol\":4389:4403  lb[msg.sender] */\n      0x00\n        /* \"CoinIdo.sol\":4392:4402  msg.sender */\n      caller\n        /* \"CoinIdo.sol\":4389:4403  lb[msg.sender] */\n      0xffffffffffffffffffffffffffffffffffffffff\n      and\n      0xffffffffffffffffffffffffffffffffffffffff\n      and\n      dup2\n      mstore\n      0x20\n      add\n      swap1\n      dup2\n      mstore\n      0x20\n      add\n      0x00\n      keccak256\n        /* \"CoinIdo.sol\":4404:4405  i */\n      dup3\n        /* \"CoinIdo.sol\":4389:4406  lb[msg.sender][i] */\n      dup2\n      sload\n      dup2\n      lt\n      tag_231\n      jumpi\n      tag_232\n      tag_109\n      jump\t// in\n    tag_232:\n    tag_231:\n      swap1\n      0x00\n      mstore\n      keccak256(0x00, 0x20)\n      swap1\n      0x20\n      swap2\n      dup3\n      dup3\n      div\n      add\n      swap2\n      swap1\n      mod\n        /* \"CoinIdo.sol\":4389:4412  lb[msg.sender][i] =true */\n      0x0100\n      exp\n      dup2\n      sload\n      dup2\n      0xff\n      mul\n      not\n      and\n      swap1\n      dup4\n      iszero\n      iszero\n      mul\n      or\n      swap1\n      sstore\n      pop\n        /* \"CoinIdo.sol\":4296:4428  if(!lb[msg.sender][i]){... */\n    tag_227:\n        /* \"CoinIdo.sol\":4277:4280  i++ */\n      dup1\n      dup1\n      tag_234\n      swap1\n      tag_118\n      jump\t// in\n    tag_234:\n      swap2\n      pop\n      pop\n        /* \"CoinIdo.sol\":4254:4439  for(uint i=1; i<=item; i++){... */\n      jump(tag_221)\n    tag_222:\n      pop\n        /* \"CoinIdo.sol\":4449:4455  etCoin */\n      0x07\n      0x00\n      swap1\n      sload\n      swap1\n      0x0100\n      exp\n      swap1\n      div\n      0xffffffffffffffffffffffffffffffffffffffff\n      and\n        /* \"CoinIdo.sol\":4449:4464  etCoin.transfer */\n      0xffffffffffffffffffffffffffffffffffffffff\n      and\n      0xa9059cbb\n        /* \"CoinIdo.sol\":4465:4475  msg.sender */\n      caller\n        /* \"CoinIdo.sol\":4477:4483  amount */\n      dup8\n        /* \"CoinIdo.sol\":4449:4484  etCoin.transfer(msg.sender, amount) */\n      mload(0x40)\n      dup4\n      0xffffffff\n      and\n      0xe0\n      shl\n      dup2\n      mstore\n      0x04\n      add\n      tag_235\n      swap3\n      swap2\n      swap1\n      tag_183\n      jump\t// in\n    tag_235:\n      0x20\n      mload(0x40)\n      dup1\n      dup4\n      sub\n      dup2\n      0x00\n      dup8\n      gas\n      call\n      iszero\n      dup1\n      iszero\n      tag_237\n      jumpi\n      returndatasize\n      0x00\n      dup1\n      returndatacopy\n      revert(0x00, returndatasize)\n    tag_237:\n      pop\n      pop\n      pop\n      pop\n      mload(0x40)\n      returndatasize\n      not(0x1f)\n      0x1f\n      dup3\n      add\n      and\n      dup3\n      add\n      dup1\n      0x40\n      mstore\n      pop\n      dup2\n      add\n      swap1\n      tag_238\n      swap2\n      swap1\n      tag_151\n      jump\t// in\n    tag_238:\n      pop\n        /* \"CoinIdo.sol\":3857:4492  {... */\n      pop\n      pop\n      pop\n      pop\n      pop\n        /* \"CoinIdo.sol\":3835:4492  function getET()public{... */\n      jump\t// out\n        /* \"CoinIdo.sol\":1185:1298  function setManager(address _manager, bool _flag) public onlyOwner {... */\n    tag_71:\n        /* \"CoinIdo.sol\":1112:1122  msg.sender */\n      caller\n        /* \"CoinIdo.sol\":1101:1122  owner() == msg.sender */\n      0xffffffffffffffffffffffffffffffffffffffff\n      and\n        /* \"CoinIdo.sol\":1101:1108  owner() */\n      tag_240\n        /* \"CoinIdo.sol\":1101:1106  owner */\n      tag_53\n        /* \"CoinIdo.sol\":1101:1108  owner() */\n      jump\t// in\n    tag_240:\n        /* \"CoinIdo.sol\":1101:1122  owner() == msg.sender */\n      0xffffffffffffffffffffffffffffffffffffffff\n      and\n      eq\n        /* \"CoinIdo.sol\":1093:1159  require(owner() == msg.sender, \"Ownable: caller is not the owner\") */\n      tag_241\n      jumpi\n      mload(0x40)\n      0x08c379a000000000000000000000000000000000000000000000000000000000\n      dup2\n      mstore\n      0x04\n      add\n      tag_242\n      swap1\n      tag_243\n      jump\t// in\n    tag_242:\n      mload(0x40)\n      dup1\n      swap2\n      sub\n      swap1\n      revert\n    tag_241:\n        /* \"CoinIdo.sol\":1285:1290  _flag */\n      dup1\n        /* \"CoinIdo.sol\":1263:1272  isManager */\n      0x03\n        /* \"CoinIdo.sol\":1263:1282  isManager[_manager] */\n      0x00\n        /* \"CoinIdo.sol\":1273:1281  _manager */\n      dup5\n        /* \"CoinIdo.sol\":1263:1282  isManager[_manager] */\n      0xffffffffffffffffffffffffffffffffffffffff\n      and\n      0xffffffffffffffffffffffffffffffffffffffff\n      and\n      dup2\n      mstore\n      0x20\n      add\n      swap1\n      dup2\n      mstore\n      0x20\n      add\n      0x00\n      keccak256\n      0x00\n        /* \"CoinIdo.sol\":1263:1290  isManager[_manager] = _flag */\n      0x0100\n      exp\n      dup2\n      sload\n      dup2\n      0xff\n      mul\n      not\n      and\n      swap1\n      dup4\n      iszero\n      iszero\n      mul\n      or\n      swap1\n      sstore\n      pop\n        /* \"CoinIdo.sol\":1185:1298  function setManager(address _manager, bool _flag) public onlyOwner {... */\n      pop\n      pop\n      jump\t// out\n        /* \"CoinIdo.sol\":1615:1701  function closeOpenOne(bool _flag) public onlyManager{... */\n    tag_74:\n        /* \"CoinIdo.sol\":1346:1355  isManager */\n      0x03\n        /* \"CoinIdo.sol\":1346:1367  isManager[msg.sender] */\n      0x00\n        /* \"CoinIdo.sol\":1356:1366  msg.sender */\n      caller\n        /* \"CoinIdo.sol\":1346:1367  isManager[msg.sender] */\n      0xffffffffffffffffffffffffffffffffffffffff\n      and\n      0xffffffffffffffffffffffffffffffffffffffff\n      and\n      dup2\n      mstore\n      0x20\n      add\n      swap1\n      dup2\n      mstore\n      0x20\n      add\n      0x00\n      keccak256\n      0x00\n      swap1\n      sload\n      swap1\n      0x0100\n      exp\n      swap1\n      div\n      0xff\n      and\n        /* \"CoinIdo.sol\":1338:1383  require(isManager[msg.sender], \"Not manager\") */\n      tag_246\n      jumpi\n      mload(0x40)\n      0x08c379a000000000000000000000000000000000000000000000000000000000\n      dup2\n      mstore\n      0x04\n      add\n      tag_247\n      swap1\n      tag_99\n      jump\t// in\n    tag_247:\n      mload(0x40)\n      dup1\n      swap2\n      sub\n      swap1\n      revert\n    tag_246:\n        /* \"CoinIdo.sol\":1688:1693  _flag */\n      dup1\n        /* \"CoinIdo.sol\":1678:1687  isOpenOne */\n      0x00\n      dup1\n        /* \"CoinIdo.sol\":1678:1693  isOpenOne=_flag */\n      0x0100\n      exp\n      dup2\n      sload\n      dup2\n      0xff\n      mul\n      not\n      and\n      swap1\n      dup4\n      iszero\n      iszero\n      mul\n      or\n      swap1\n      sstore\n      pop\n        /* \"CoinIdo.sol\":1615:1701  function closeOpenOne(bool _flag) public onlyManager{... */\n      pop\n      jump\t// out\n        /* \"CoinIdo.sol\":478:503  address public IDOAddress */\n    tag_76:\n      0x04\n      0x00\n      swap1\n      sload\n      swap1\n      0x0100\n      exp\n      swap1\n      div\n      0xffffffffffffffffffffffffffffffffffffffff\n      and\n      dup2\n      jump\t// out\n        /* \"CoinIdo.sol\":601:645  mapping(address=>address)public userRelation */\n    tag_80:\n      mstore(0x20, 0x09)\n      dup1\n      0x00\n      mstore\n      keccak256(0x00, 0x40)\n      0x00\n      swap2\n      pop\n      sload\n      swap1\n      0x0100\n      exp\n      swap1\n      div\n      0xffffffffffffffffffffffffffffffffffffffff\n      and\n      dup2\n      jump\t// out\n        /* \"CoinIdo.sol\":730:773  mapping(address=>uint)public relationAmount */\n    tag_84:\n      mstore(0x20, 0x0b)\n      dup1\n      0x00\n      mstore\n      keccak256(0x00, 0x40)\n      0x00\n      swap2\n      pop\n      swap1\n      pop\n      sload\n      dup2\n      jump\t// out\n        /* \"CoinIdo.sol\":427:468  mapping(address => bool) public isManager */\n    tag_88:\n      mstore(0x20, 0x03)\n      dup1\n      0x00\n      mstore\n      keccak256(0x00, 0x40)\n      0x00\n      swap2\n      pop\n      sload\n      swap1\n      0x0100\n      exp\n      swap1\n      div\n      0xff\n      and\n      dup2\n      jump\t// out\n        /* \"CoinIdo.sol\":1409:1504  function setNFT(address _address) public onlyManager{... */\n    tag_92:\n        /* \"CoinIdo.sol\":1346:1355  isManager */\n      0x03\n        /* \"CoinIdo.sol\":1346:1367  isManager[msg.sender] */\n      0x00\n        /* \"CoinIdo.sol\":1356:1366  msg.sender */\n      caller\n        /* \"CoinIdo.sol\":1346:1367  isManager[msg.sender] */\n      0xffffffffffffffffffffffffffffffffffffffff\n      and\n      0xffffffffffffffffffffffffffffffffffffffff\n      and\n      dup2\n      mstore\n      0x20\n      add\n      swap1\n      dup2\n      mstore\n      0x20\n      add\n      0x00\n      keccak256\n      0x00\n      swap1\n      sload\n      swap1\n      0x0100\n      exp\n      swap1\n      div\n      0xff\n      and\n        /* \"CoinIdo.sol\":1338:1383  require(isManager[msg.sender], \"Not manager\") */\n      tag_250\n      jumpi\n      mload(0x40)\n      0x08c379a000000000000000000000000000000000000000000000000000000000\n      dup2\n      mstore\n      0x04\n      add\n      tag_251\n      swap1\n      tag_99\n      jump\t// in\n    tag_251:\n      mload(0x40)\n      dup1\n      swap2\n      sub\n      swap1\n      revert\n    tag_250:\n        /* \"CoinIdo.sol\":1487:1495  _address */\n      dup1\n        /* \"CoinIdo.sol\":1472:1477  etNft */\n      0x06\n      0x00\n        /* \"CoinIdo.sol\":1472:1496  etNft = IETNFT(_address) */\n      0x0100\n      exp\n      dup2\n      sload\n      dup2\n      0xffffffffffffffffffffffffffffffffffffffff\n      mul\n      not\n      and\n      swap1\n      dup4\n      0xffffffffffffffffffffffffffffffffffffffff\n      and\n      mul\n      or\n      swap1\n      sstore\n      pop\n        /* \"CoinIdo.sol\":1409:1504  function setNFT(address _address) public onlyManager{... */\n      pop\n      jump\t// out\n        /* \"CoinIdo.sol\":255:276  bool public isOpenOne */\n    tag_94:\n      0x00\n      dup1\n      sload\n      swap1\n      0x0100\n      exp\n      swap1\n      div\n      0xff\n      and\n      dup2\n      jump\t// out\n    tag_196:\n      dup3\n      dup1\n      sload\n      dup3\n      dup3\n      sstore\n      swap1\n      0x00\n      mstore\n      keccak256(0x00, 0x20)\n      swap1\n      0x1f\n      add\n      0x20\n      swap1\n      div\n      dup2\n      add\n      swap3\n      dup3\n      iszero\n      tag_253\n      jumpi\n      swap2\n      0x20\n      mul\n      dup3\n      add\n      0x00\n    tag_254:\n      dup4\n      dup3\n      gt\n      iszero\n      tag_255\n      jumpi\n      dup4\n      mload\n      dup4\n      dup3\n      0x0100\n      exp\n      dup2\n      sload\n      dup2\n      0xff\n      mul\n      not\n      and\n      swap1\n      dup4\n      iszero\n      iszero\n      mul\n      or\n      swap1\n      sstore\n      pop\n      swap3\n      0x20\n      add\n      swap3\n      0x01\n      add\n      0x20\n      dup2\n      0x00\n      add\n      div\n      swap3\n      dup4\n      add\n      swap3\n      0x01\n      sub\n      mul\n      jump(tag_254)\n    tag_255:\n      dup1\n      iszero\n      tag_256\n      jumpi\n      dup3\n      dup2\n      0x0100\n      exp\n      dup2\n      sload\n      swap1\n      0xff\n      mul\n      not\n      and\n      swap1\n      sstore\n      0x01\n      add\n      0x20\n      dup2\n      0x00\n      add\n      div\n      swap3\n      dup4\n      add\n      swap3\n      0x01\n      sub\n      mul\n      jump(tag_255)\n    tag_256:\n      pop\n    tag_253:\n      pop\n      swap1\n      pop\n      tag_257\n      swap2\n      swap1\n      tag_258\n      jump\t// in\n    tag_257:\n      pop\n      swap1\n      jump\t// out\n    tag_258:\n    tag_259:\n      dup1\n      dup3\n      gt\n      iszero\n      tag_260\n      jumpi\n      0x00\n      dup2\n      0x00\n      swap1\n      sstore\n      pop\n      0x01\n      add\n      jump(tag_259)\n    tag_260:\n      pop\n      swap1\n      jump\t// out\n        /* \"#utility.yul\":7:84   */\n    tag_261:\n        /* \"#utility.yul\":44:51   */\n      0x00\n        /* \"#utility.yul\":73:78   */\n      dup2\n        /* \"#utility.yul\":62:78   */\n      swap1\n      pop\n        /* \"#utility.yul\":7:84   */\n      swap2\n      swap1\n      pop\n      jump\t// out\n        /* \"#utility.yul\":90:208   */\n    tag_262:\n        /* \"#utility.yul\":177:201   */\n      tag_313\n        /* \"#utility.yul\":195:200   */\n      dup2\n        /* \"#utility.yul\":177:201   */\n      tag_261\n      jump\t// in\n    tag_313:\n        /* \"#utility.yul\":172:175   */\n      dup3\n        /* \"#utility.yul\":165:202   */\n      mstore\n        /* \"#utility.yul\":90:208   */\n      pop\n      pop\n      jump\t// out\n        /* \"#utility.yul\":214:436   */\n    tag_29:\n        /* \"#utility.yul\":307:311   */\n      0x00\n        /* \"#utility.yul\":345:347   */\n      0x20\n        /* \"#utility.yul\":334:343   */\n      dup3\n        /* \"#utility.yul\":330:348   */\n      add\n        /* \"#utility.yul\":322:348   */\n      swap1\n      pop\n        /* \"#utility.yul\":358:429   */\n      tag_315\n        /* \"#utility.yul\":426:427   */\n      0x00\n        /* \"#utility.yul\":415:424   */\n      dup4\n        /* \"#utility.yul\":411:428   */\n      add\n        /* \"#utility.yul\":402:408   */\n      dup5\n        /* \"#utility.yul\":358:429   */\n      tag_262\n      jump\t// in\n    tag_315:\n        /* \"#utility.yul\":214:436   */\n      swap3\n      swap2\n      pop\n      pop\n      jump\t// out\n        /* \"#utility.yul\":442:517   */\n    tag_263:\n        /* \"#utility.yul\":475:481   */\n      0x00\n        /* \"#utility.yul\":508:510   */\n      0x40\n        /* \"#utility.yul\":502:511   */\n      mload\n        /* \"#utility.yul\":492:511   */\n      swap1\n      pop\n        /* \"#utility.yul\":442:517   */\n      swap1\n      jump\t// out\n        /* \"#utility.yul\":523:640   */\n    tag_264:\n        /* \"#utility.yul\":632:633   */\n      0x00\n        /* \"#utility.yul\":629:630   */\n      dup1\n        /* \"#utility.yul\":622:634   */\n      revert\n        /* \"#utility.yul\":646:763   */\n    tag_265:\n        /* \"#utility.yul\":755:756   */\n      0x00\n        /* \"#utility.yul\":752:753   */\n      dup1\n        /* \"#utility.yul\":745:757   */\n      revert\n        /* \"#utility.yul\":769:886   */\n    tag_266:\n        /* \"#utility.yul\":878:879   */\n      0x00\n        /* \"#utility.yul\":875:876   */\n      dup1\n        /* \"#utility.yul\":868:880   */\n      revert\n        /* \"#utility.yul\":892:994   */\n    tag_267:\n        /* \"#utility.yul\":933:939   */\n      0x00\n        /* \"#utility.yul\":984:986   */\n      0x1f\n        /* \"#utility.yul\":980:987   */\n      not\n        /* \"#utility.yul\":975:977   */\n      0x1f\n        /* \"#utility.yul\":968:973   */\n      dup4\n        /* \"#utility.yul\":964:978   */\n      add\n        /* \"#utility.yul\":960:988   */\n      and\n        /* \"#utility.yul\":950:988   */\n      swap1\n      pop\n        /* \"#utility.yul\":892:994   */\n      swap2\n      swap1\n      pop\n      jump\t// out\n        /* \"#utility.yul\":1000:1180   */\n    tag_187:\n        /* \"#utility.yul\":1048:1125   */\n      0x4e487b7100000000000000000000000000000000000000000000000000000000\n        /* \"#utility.yul\":1045:1046   */\n      0x00\n        /* \"#utility.yul\":1038:1126   */\n      mstore\n        /* \"#utility.yul\":1145:1149   */\n      0x41\n        /* \"#utility.yul\":1142:1143   */\n      0x04\n        /* \"#utility.yul\":1135:1150   */\n      mstore\n        /* \"#utility.yul\":1169:1173   */\n      0x24\n        /* \"#utility.yul\":1166:1167   */\n      0x00\n        /* \"#utility.yul\":1159:1174   */\n      revert\n        /* \"#utility.yul\":1186:1467   */\n    tag_268:\n        /* \"#utility.yul\":1269:1296   */\n      tag_323\n        /* \"#utility.yul\":1291:1295   */\n      dup3\n        /* \"#utility.yul\":1269:1296   */\n      tag_267\n      jump\t// in\n    tag_323:\n        /* \"#utility.yul\":1261:1267   */\n      dup2\n        /* \"#utility.yul\":1257:1297   */\n      add\n        /* \"#utility.yul\":1399:1405   */\n      dup2\n        /* \"#utility.yul\":1387:1397   */\n      dup2\n        /* \"#utility.yul\":1384:1406   */\n      lt\n        /* \"#utility.yul\":1363:1381   */\n      0xffffffffffffffff\n        /* \"#utility.yul\":1351:1361   */\n      dup3\n        /* \"#utility.yul\":1348:1382   */\n      gt\n        /* \"#utility.yul\":1345:1407   */\n      or\n        /* \"#utility.yul\":1342:1430   */\n      iszero\n      tag_324\n      jumpi\n        /* \"#utility.yul\":1410:1428   */\n      tag_325\n      tag_187\n      jump\t// in\n    tag_325:\n        /* \"#utility.yul\":1342:1430   */\n    tag_324:\n        /* \"#utility.yul\":1450:1460   */\n      dup1\n        /* \"#utility.yul\":1446:1448   */\n      0x40\n        /* \"#utility.yul\":1439:1461   */\n      mstore\n        /* \"#utility.yul\":1229:1467   */\n      pop\n        /* \"#utility.yul\":1186:1467   */\n      pop\n      pop\n      jump\t// out\n        /* \"#utility.yul\":1473:1602   */\n    tag_269:\n        /* \"#utility.yul\":1507:1513   */\n      0x00\n        /* \"#utility.yul\":1534:1554   */\n      tag_327\n      tag_263\n      jump\t// in\n    tag_327:\n        /* \"#utility.yul\":1524:1554   */\n      swap1\n      pop\n        /* \"#utility.yul\":1563:1596   */\n      tag_328\n        /* \"#utility.yul\":1591:1595   */\n      dup3\n        /* \"#utility.yul\":1583:1589   */\n      dup3\n        /* \"#utility.yul\":1563:1596   */\n      tag_268\n      jump\t// in\n    tag_328:\n        /* \"#utility.yul\":1473:1602   */\n      swap2\n      swap1\n      pop\n      jump\t// out\n        /* \"#utility.yul\":1608:1919   */\n    tag_270:\n        /* \"#utility.yul\":1685:1689   */\n      0x00\n        /* \"#utility.yul\":1775:1793   */\n      0xffffffffffffffff\n        /* \"#utility.yul\":1767:1773   */\n      dup3\n        /* \"#utility.yul\":1764:1794   */\n      gt\n        /* \"#utility.yul\":1761:1817   */\n      iszero\n      tag_330\n      jumpi\n        /* \"#utility.yul\":1797:1815   */\n      tag_331\n      tag_187\n      jump\t// in\n    tag_331:\n        /* \"#utility.yul\":1761:1817   */\n    tag_330:\n        /* \"#utility.yul\":1847:1851   */\n      0x20\n        /* \"#utility.yul\":1839:1845   */\n      dup3\n        /* \"#utility.yul\":1835:1852   */\n      mul\n        /* \"#utility.yul\":1827:1852   */\n      swap1\n      pop\n        /* \"#utility.yul\":1907:1911   */\n      0x20\n        /* \"#utility.yul\":1901:1905   */\n      dup2\n        /* \"#utility.yul\":1897:1912   */\n      add\n        /* \"#utility.yul\":1889:1912   */\n      swap1\n      pop\n        /* \"#utility.yul\":1608:1919   */\n      swap2\n      swap1\n      pop\n      jump\t// out\n        /* \"#utility.yul\":1925:2042   */\n    tag_271:\n        /* \"#utility.yul\":2034:2035   */\n      0x00\n        /* \"#utility.yul\":2031:2032   */\n      dup1\n        /* \"#utility.yul\":2024:2036   */\n      revert\n        /* \"#utility.yul\":2048:2174   */\n    tag_272:\n        /* \"#utility.yul\":2085:2092   */\n      0x00\n        /* \"#utility.yul\":2125:2167   */\n      0xffffffffffffffffffffffffffffffffffffffff\n        /* \"#utility.yul\":2118:2123   */\n      dup3\n        /* \"#utility.yul\":2114:2168   */\n      and\n        /* \"#utility.yul\":2103:2168   */\n      swap1\n      pop\n        /* \"#utility.yul\":2048:2174   */\n      swap2\n      swap1\n      pop\n      jump\t// out\n        /* \"#utility.yul\":2180:2276   */\n    tag_273:\n        /* \"#utility.yul\":2217:2224   */\n      0x00\n        /* \"#utility.yul\":2246:2270   */\n      tag_335\n        /* \"#utility.yul\":2264:2269   */\n      dup3\n        /* \"#utility.yul\":2246:2270   */\n      tag_272\n      jump\t// in\n    tag_335:\n        /* \"#utility.yul\":2235:2270   */\n      swap1\n      pop\n        /* \"#utility.yul\":2180:2276   */\n      swap2\n      swap1\n      pop\n      jump\t// out\n        /* \"#utility.yul\":2282:2404   */\n    tag_274:\n        /* \"#utility.yul\":2355:2379   */\n      tag_337\n        /* \"#utility.yul\":2373:2378   */\n      dup2\n        /* \"#utility.yul\":2355:2379   */\n      tag_273\n      jump\t// in\n    tag_337:\n        /* \"#utility.yul\":2348:2353   */\n      dup2\n        /* \"#utility.yul\":2345:2380   */\n      eq\n        /* \"#utility.yul\":2335:2398   */\n      tag_338\n      jumpi\n        /* \"#utility.yul\":2394:2395   */\n      0x00\n        /* \"#utility.yul\":2391:2392   */\n      dup1\n        /* \"#utility.yul\":2384:2396   */\n      revert\n        /* \"#utility.yul\":2335:2398   */\n    tag_338:\n        /* \"#utility.yul\":2282:2404   */\n      pop\n      jump\t// out\n        /* \"#utility.yul\":2410:2549   */\n    tag_275:\n        /* \"#utility.yul\":2456:2461   */\n      0x00\n        /* \"#utility.yul\":2494:2500   */\n      dup2\n        /* \"#utility.yul\":2481:2501   */\n      calldataload\n        /* \"#utility.yul\":2472:2501   */\n      swap1\n      pop\n        /* \"#utility.yul\":2510:2543   */\n      tag_340\n        /* \"#utility.yul\":2537:2542   */\n      dup2\n        /* \"#utility.yul\":2510:2543   */\n      tag_274\n      jump\t// in\n    tag_340:\n        /* \"#utility.yul\":2410:2549   */\n      swap3\n      swap2\n      pop\n      pop\n      jump\t// out\n        /* \"#utility.yul\":2572:3282   */\n    tag_276:\n        /* \"#utility.yul\":2668:2673   */\n      0x00\n        /* \"#utility.yul\":2693:2774   */\n      tag_342\n        /* \"#utility.yul\":2709:2773   */\n      tag_343\n        /* \"#utility.yul\":2766:2772   */\n      dup5\n        /* \"#utility.yul\":2709:2773   */\n      tag_270\n      jump\t// in\n    tag_343:\n        /* \"#utility.yul\":2693:2774   */\n      tag_269\n      jump\t// in\n    tag_342:\n        /* \"#utility.yul\":2684:2774   */\n      swap1\n      pop\n        /* \"#utility.yul\":2794:2799   */\n      dup1\n        /* \"#utility.yul\":2823:2829   */\n      dup4\n        /* \"#utility.yul\":2816:2821   */\n      dup3\n        /* \"#utility.yul\":2809:2830   */\n      mstore\n        /* \"#utility.yul\":2857:2861   */\n      0x20\n        /* \"#utility.yul\":2850:2855   */\n      dup3\n        /* \"#utility.yul\":2846:2862   */\n      add\n        /* \"#utility.yul\":2839:2862   */\n      swap1\n      pop\n        /* \"#utility.yul\":2910:2914   */\n      0x20\n        /* \"#utility.yul\":2902:2908   */\n      dup5\n        /* \"#utility.yul\":2898:2915   */\n      mul\n        /* \"#utility.yul\":2890:2896   */\n      dup4\n        /* \"#utility.yul\":2886:2916   */\n      add\n        /* \"#utility.yul\":2939:2942   */\n      dup6\n        /* \"#utility.yul\":2931:2937   */\n      dup2\n        /* \"#utility.yul\":2928:2943   */\n      gt\n        /* \"#utility.yul\":2925:3047   */\n      iszero\n      tag_344\n      jumpi\n        /* \"#utility.yul\":2958:3037   */\n      tag_345\n      tag_271\n      jump\t// in\n    tag_345:\n        /* \"#utility.yul\":2925:3047   */\n    tag_344:\n        /* \"#utility.yul\":3073:3079   */\n      dup4\n        /* \"#utility.yul\":3056:3276   */\n    tag_346:\n        /* \"#utility.yul\":3090:3096   */\n      dup2\n        /* \"#utility.yul\":3085:3088   */\n      dup2\n        /* \"#utility.yul\":3082:3097   */\n      lt\n        /* \"#utility.yul\":3056:3276   */\n      iszero\n      tag_348\n      jumpi\n        /* \"#utility.yul\":3165:3168   */\n      dup1\n        /* \"#utility.yul\":3194:3231   */\n      tag_349\n        /* \"#utility.yul\":3227:3230   */\n      dup9\n        /* \"#utility.yul\":3215:3225   */\n      dup3\n        /* \"#utility.yul\":3194:3231   */\n      tag_275\n      jump\t// in\n    tag_349:\n        /* \"#utility.yul\":3189:3192   */\n      dup5\n        /* \"#utility.yul\":3182:3232   */\n      mstore\n        /* \"#utility.yul\":3261:3265   */\n      0x20\n        /* \"#utility.yul\":3256:3259   */\n      dup5\n        /* \"#utility.yul\":3252:3266   */\n      add\n        /* \"#utility.yul\":3245:3266   */\n      swap4\n      pop\n        /* \"#utility.yul\":3132:3276   */\n      pop\n        /* \"#utility.yul\":3116:3120   */\n      0x20\n        /* \"#utility.yul\":3111:3114   */\n      dup2\n        /* \"#utility.yul\":3107:3121   */\n      add\n        /* \"#utility.yul\":3100:3121   */\n      swap1\n      pop\n        /* \"#utility.yul\":3056:3276   */\n      jump(tag_346)\n    tag_348:\n        /* \"#utility.yul\":3060:3081   */\n      pop\n        /* \"#utility.yul\":2674:3282   */\n      pop\n      pop\n        /* \"#utility.yul\":2572:3282   */\n      swap4\n      swap3\n      pop\n      pop\n      pop\n      jump\t// out\n        /* \"#utility.yul\":3305:3675   */\n    tag_277:\n        /* \"#utility.yul\":3376:3381   */\n      0x00\n        /* \"#utility.yul\":3425:3428   */\n      dup3\n        /* \"#utility.yul\":3418:3422   */\n      0x1f\n        /* \"#utility.yul\":3410:3416   */\n      dup4\n        /* \"#utility.yul\":3406:3423   */\n      add\n        /* \"#utility.yul\":3402:3429   */\n      slt\n        /* \"#utility.yul\":3392:3514   */\n      tag_351\n      jumpi\n        /* \"#utility.yul\":3433:3512   */\n      tag_352\n      tag_266\n      jump\t// in\n    tag_352:\n        /* \"#utility.yul\":3392:3514   */\n    tag_351:\n        /* \"#utility.yul\":3550:3556   */\n      dup2\n        /* \"#utility.yul\":3537:3557   */\n      calldataload\n        /* \"#utility.yul\":3575:3669   */\n      tag_353\n        /* \"#utility.yul\":3665:3668   */\n      dup5\n        /* \"#utility.yul\":3657:3663   */\n      dup3\n        /* \"#utility.yul\":3650:3654   */\n      0x20\n        /* \"#utility.yul\":3642:3648   */\n      dup7\n        /* \"#utility.yul\":3638:3655   */\n      add\n        /* \"#utility.yul\":3575:3669   */\n      tag_276\n      jump\t// in\n    tag_353:\n        /* \"#utility.yul\":3566:3669   */\n      swap2\n      pop\n        /* \"#utility.yul\":3382:3675   */\n      pop\n        /* \"#utility.yul\":3305:3675   */\n      swap3\n      swap2\n      pop\n      pop\n      jump\t// out\n        /* \"#utility.yul\":3681:4575   */\n    tag_32:\n        /* \"#utility.yul\":3799:3805   */\n      0x00\n        /* \"#utility.yul\":3807:3813   */\n      dup1\n        /* \"#utility.yul\":3856:3858   */\n      0x40\n        /* \"#utility.yul\":3844:3853   */\n      dup4\n        /* \"#utility.yul\":3835:3842   */\n      dup6\n        /* \"#utility.yul\":3831:3854   */\n      sub\n        /* \"#utility.yul\":3827:3859   */\n      slt\n        /* \"#utility.yul\":3824:3943   */\n      iszero\n      tag_355\n      jumpi\n        /* \"#utility.yul\":3862:3941   */\n      tag_356\n      tag_264\n      jump\t// in\n    tag_356:\n        /* \"#utility.yul\":3824:3943   */\n    tag_355:\n        /* \"#utility.yul\":4010:4011   */\n      0x00\n        /* \"#utility.yul\":3999:4008   */\n      dup4\n        /* \"#utility.yul\":3995:4012   */\n      add\n        /* \"#utility.yul\":3982:4013   */\n      calldataload\n        /* \"#utility.yul\":4040:4058   */\n      0xffffffffffffffff\n        /* \"#utility.yul\":4032:4038   */\n      dup2\n        /* \"#utility.yul\":4029:4059   */\n      gt\n        /* \"#utility.yul\":4026:4143   */\n      iszero\n      tag_357\n      jumpi\n        /* \"#utility.yul\":4062:4141   */\n      tag_358\n      tag_265\n      jump\t// in\n    tag_358:\n        /* \"#utility.yul\":4026:4143   */\n    tag_357:\n        /* \"#utility.yul\":4167:4245   */\n      tag_359\n        /* \"#utility.yul\":4237:4244   */\n      dup6\n        /* \"#utility.yul\":4228:4234   */\n      dup3\n        /* \"#utility.yul\":4217:4226   */\n      dup7\n        /* \"#utility.yul\":4213:4235   */\n      add\n        /* \"#utility.yul\":4167:4245   */\n      tag_277\n      jump\t// in\n    tag_359:\n        /* \"#utility.yul\":4157:4245   */\n      swap3\n      pop\n        /* \"#utility.yul\":3953:4255   */\n      pop\n        /* \"#utility.yul\":4322:4324   */\n      0x20\n        /* \"#utility.yul\":4311:4320   */\n      dup4\n        /* \"#utility.yul\":4307:4325   */\n      add\n        /* \"#utility.yul\":4294:4326   */\n      calldataload\n        /* \"#utility.yul\":4353:4371   */\n      0xffffffffffffffff\n        /* \"#utility.yul\":4345:4351   */\n      dup2\n        /* \"#utility.yul\":4342:4372   */\n      gt\n        /* \"#utility.yul\":4339:4456   */\n      iszero\n      tag_360\n      jumpi\n        /* \"#utility.yul\":4375:4454   */\n      tag_361\n      tag_265\n      jump\t// in\n    tag_361:\n        /* \"#utility.yul\":4339:4456   */\n    tag_360:\n        /* \"#utility.yul\":4480:4558   */\n      tag_362\n        /* \"#utility.yul\":4550:4557   */\n      dup6\n        /* \"#utility.yul\":4541:4547   */\n      dup3\n        /* \"#utility.yul\":4530:4539   */\n      dup7\n        /* \"#utility.yul\":4526:4548   */\n      add\n        /* \"#utility.yul\":4480:4558   */\n      tag_277\n      jump\t// in\n    tag_362:\n        /* \"#utility.yul\":4470:4558   */\n      swap2\n      pop\n        /* \"#utility.yul\":4265:4568   */\n      pop\n        /* \"#utility.yul\":3681:4575   */\n      swap3\n      pop\n      swap3\n      swap1\n      pop\n      jump\t// out\n        /* \"#utility.yul\":4581:4671   */\n    tag_278:\n        /* \"#utility.yul\":4615:4622   */\n      0x00\n        /* \"#utility.yul\":4658:4663   */\n      dup2\n        /* \"#utility.yul\":4651:4664   */\n      iszero\n        /* \"#utility.yul\":4644:4665   */\n      iszero\n        /* \"#utility.yul\":4633:4665   */\n      swap1\n      pop\n        /* \"#utility.yul\":4581:4671   */\n      swap2\n      swap1\n      pop\n      jump\t// out\n        /* \"#utility.yul\":4677:4793   */\n    tag_279:\n        /* \"#utility.yul\":4747:4768   */\n      tag_365\n        /* \"#utility.yul\":4762:4767   */\n      dup2\n        /* \"#utility.yul\":4747:4768   */\n      tag_278\n      jump\t// in\n    tag_365:\n        /* \"#utility.yul\":4740:4745   */\n      dup2\n        /* \"#utility.yul\":4737:4769   */\n      eq\n        /* \"#utility.yul\":4727:4787   */\n      tag_366\n      jumpi\n        /* \"#utility.yul\":4783:4784   */\n      0x00\n        /* \"#utility.yul\":4780:4781   */\n      dup1\n        /* \"#utility.yul\":4773:4785   */\n      revert\n        /* \"#utility.yul\":4727:4787   */\n    tag_366:\n        /* \"#utility.yul\":4677:4793   */\n      pop\n      jump\t// out\n        /* \"#utility.yul\":4799:4932   */\n    tag_280:\n        /* \"#utility.yul\":4842:4847   */\n      0x00\n        /* \"#utility.yul\":4880:4886   */\n      dup2\n        /* \"#utility.yul\":4867:4887   */\n      calldataload\n        /* \"#utility.yul\":4858:4887   */\n      swap1\n      pop\n        /* \"#utility.yul\":4896:4926   */\n      tag_368\n        /* \"#utility.yul\":4920:4925   */\n      dup2\n        /* \"#utility.yul\":4896:4926   */\n      tag_279\n      jump\t// in\n    tag_368:\n        /* \"#utility.yul\":4799:4932   */\n      swap3\n      swap2\n      pop\n      pop\n      jump\t// out\n        /* \"#utility.yul\":4938:5261   */\n    tag_39:\n        /* \"#utility.yul\":4994:5000   */\n      0x00\n        /* \"#utility.yul\":5043:5045   */\n      0x20\n        /* \"#utility.yul\":5031:5040   */\n      dup3\n        /* \"#utility.yul\":5022:5029   */\n      dup5\n        /* \"#utility.yul\":5018:5041   */\n      sub\n        /* \"#utility.yul\":5014:5046   */\n      slt\n        /* \"#utility.yul\":5011:5130   */\n      iszero\n      tag_370\n      jumpi\n        /* \"#utility.yul\":5049:5128   */\n      tag_371\n      tag_264\n      jump\t// in\n    tag_371:\n        /* \"#utility.yul\":5011:5130   */\n    tag_370:\n        /* \"#utility.yul\":5169:5170   */\n      0x00\n        /* \"#utility.yul\":5194:5244   */\n      tag_372\n        /* \"#utility.yul\":5236:5243   */\n      dup5\n        /* \"#utility.yul\":5227:5233   */\n      dup3\n        /* \"#utility.yul\":5216:5225   */\n      dup6\n        /* \"#utility.yul\":5212:5234   */\n      add\n        /* \"#utility.yul\":5194:5244   */\n      tag_280\n      jump\t// in\n    tag_372:\n        /* \"#utility.yul\":5184:5244   */\n      swap2\n      pop\n        /* \"#utility.yul\":5140:5254   */\n      pop\n        /* \"#utility.yul\":4938:5261   */\n      swap3\n      swap2\n      pop\n      pop\n      jump\t// out\n        /* \"#utility.yul\":5267:5376   */\n    tag_281:\n        /* \"#utility.yul\":5348:5369   */\n      tag_374\n        /* \"#utility.yul\":5363:5368   */\n      dup2\n        /* \"#utility.yul\":5348:5369   */\n      tag_278\n      jump\t// in\n    tag_374:\n        /* \"#utility.yul\":5343:5346   */\n      dup3\n        /* \"#utility.yul\":5336:5370   */\n      mstore\n        /* \"#utility.yul\":5267:5376   */\n      pop\n      pop\n      jump\t// out\n        /* \"#utility.yul\":5382:5592   */\n    tag_44:\n        /* \"#utility.yul\":5469:5473   */\n      0x00\n        /* \"#utility.yul\":5507:5509   */\n      0x20\n        /* \"#utility.yul\":5496:5505   */\n      dup3\n        /* \"#utility.yul\":5492:5510   */\n      add\n        /* \"#utility.yul\":5484:5510   */\n      swap1\n      pop\n        /* \"#utility.yul\":5520:5585   */\n      tag_376\n        /* \"#utility.yul\":5582:5583   */\n      0x00\n        /* \"#utility.yul\":5571:5580   */\n      dup4\n        /* \"#utility.yul\":5567:5584   */\n      add\n        /* \"#utility.yul\":5558:5564   */\n      dup5\n        /* \"#utility.yul\":5520:5585   */\n      tag_281\n      jump\t// in\n    tag_376:\n        /* \"#utility.yul\":5382:5592   */\n      swap3\n      swap2\n      pop\n      pop\n      jump\t// out\n        /* \"#utility.yul\":5598:5927   */\n    tag_47:\n        /* \"#utility.yul\":5657:5663   */\n      0x00\n        /* \"#utility.yul\":5706:5708   */\n      0x20\n        /* \"#utility.yul\":5694:5703   */\n      dup3\n        /* \"#utility.yul\":5685:5692   */\n      dup5\n        /* \"#utility.yul\":5681:5704   */\n      sub\n        /* \"#utility.yul\":5677:5709   */\n      slt\n        /* \"#utility.yul\":5674:5793   */\n      iszero\n      tag_378\n      jumpi\n        /* \"#utility.yul\":5712:5791   */\n      tag_379\n      tag_264\n      jump\t// in\n    tag_379:\n        /* \"#utility.yul\":5674:5793   */\n    tag_378:\n        /* \"#utility.yul\":5832:5833   */\n      0x00\n        /* \"#utility.yul\":5857:5910   */\n      tag_380\n        /* \"#utility.yul\":5902:5909   */\n      dup5\n        /* \"#utility.yul\":5893:5899   */\n      dup3\n        /* \"#utility.yul\":5882:5891   */\n      dup6\n        /* \"#utility.yul\":5878:5900   */\n      add\n        /* \"#utility.yul\":5857:5910   */\n      tag_275\n      jump\t// in\n    tag_380:\n        /* \"#utility.yul\":5847:5910   */\n      swap2\n      pop\n        /* \"#utility.yul\":5803:5920   */\n      pop\n        /* \"#utility.yul\":5598:5927   */\n      swap3\n      swap2\n      pop\n      pop\n      jump\t// out\n        /* \"#utility.yul\":5933:6051   */\n    tag_282:\n        /* \"#utility.yul\":6020:6044   */\n      tag_382\n        /* \"#utility.yul\":6038:6043   */\n      dup2\n        /* \"#utility.yul\":6020:6044   */\n      tag_273\n      jump\t// in\n    tag_382:\n        /* \"#utility.yul\":6015:6018   */\n      dup3\n        /* \"#utility.yul\":6008:6045   */\n      mstore\n        /* \"#utility.yul\":5933:6051   */\n      pop\n      pop\n      jump\t// out\n        /* \"#utility.yul\":6057:6279   */\n    tag_55:\n        /* \"#utility.yul\":6150:6154   */\n      0x00\n        /* \"#utility.yul\":6188:6190   */\n      0x20\n        /* \"#utility.yul\":6177:6186   */\n      dup3\n        /* \"#utility.yul\":6173:6191   */\n      add\n        /* \"#utility.yul\":6165:6191   */\n      swap1\n      pop\n        /* \"#utility.yul\":6201:6272   */\n      tag_384\n        /* \"#utility.yul\":6269:6270   */\n      0x00\n        /* \"#utility.yul\":6258:6267   */\n      dup4\n        /* \"#utility.yul\":6254:6271   */\n      add\n        /* \"#utility.yul\":6245:6251   */\n      dup5\n        /* \"#utility.yul\":6201:6272   */\n      tag_282\n      jump\t// in\n    tag_384:\n        /* \"#utility.yul\":6057:6279   */\n      swap3\n      swap2\n      pop\n      pop\n      jump\t// out\n        /* \"#utility.yul\":6285:6407   */\n    tag_283:\n        /* \"#utility.yul\":6358:6382   */\n      tag_386\n        /* \"#utility.yul\":6376:6381   */\n      dup2\n        /* \"#utility.yul\":6358:6382   */\n      tag_261\n      jump\t// in\n    tag_386:\n        /* \"#utility.yul\":6351:6356   */\n      dup2\n        /* \"#utility.yul\":6348:6383   */\n      eq\n        /* \"#utility.yul\":6338:6401   */\n      tag_387\n      jumpi\n        /* \"#utility.yul\":6397:6398   */\n      0x00\n        /* \"#utility.yul\":6394:6395   */\n      dup1\n        /* \"#utility.yul\":6387:6399   */\n      revert\n        /* \"#utility.yul\":6338:6401   */\n    tag_387:\n        /* \"#utility.yul\":6285:6407   */\n      pop\n      jump\t// out\n        /* \"#utility.yul\":6413:6552   */\n    tag_284:\n        /* \"#utility.yul\":6459:6464   */\n      0x00\n        /* \"#utility.yul\":6497:6503   */\n      dup2\n        /* \"#utility.yul\":6484:6504   */\n      calldataload\n        /* \"#utility.yul\":6475:6504   */\n      swap1\n      pop\n        /* \"#utility.yul\":6513:6546   */\n      tag_389\n        /* \"#utility.yul\":6540:6545   */\n      dup2\n        /* \"#utility.yul\":6513:6546   */\n      tag_283\n      jump\t// in\n    tag_389:\n        /* \"#utility.yul\":6413:6552   */\n      swap3\n      swap2\n      pop\n      pop\n      jump\t// out\n        /* \"#utility.yul\":6558:7032   */\n    tag_58:\n        /* \"#utility.yul\":6626:6632   */\n      0x00\n        /* \"#utility.yul\":6634:6640   */\n      dup1\n        /* \"#utility.yul\":6683:6685   */\n      0x40\n        /* \"#utility.yul\":6671:6680   */\n      dup4\n        /* \"#utility.yul\":6662:6669   */\n      dup6\n        /* \"#utility.yul\":6658:6681   */\n      sub\n        /* \"#utility.yul\":6654:6686   */\n      slt\n        /* \"#utility.yul\":6651:6770   */\n      iszero\n      tag_391\n      jumpi\n        /* \"#utility.yul\":6689:6768   */\n      tag_392\n      tag_264\n      jump\t// in\n    tag_392:\n        /* \"#utility.yul\":6651:6770   */\n    tag_391:\n        /* \"#utility.yul\":6809:6810   */\n      0x00\n        /* \"#utility.yul\":6834:6887   */\n      tag_393\n        /* \"#utility.yul\":6879:6886   */\n      dup6\n        /* \"#utility.yul\":6870:6876   */\n      dup3\n        /* \"#utility.yul\":6859:6868   */\n      dup7\n        /* \"#utility.yul\":6855:6877   */\n      add\n        /* \"#utility.yul\":6834:6887   */\n      tag_275\n      jump\t// in\n    tag_393:\n        /* \"#utility.yul\":6824:6887   */\n      swap3\n      pop\n        /* \"#utility.yul\":6780:6897   */\n      pop\n        /* \"#utility.yul\":6936:6938   */\n      0x20\n        /* \"#utility.yul\":6962:7015   */\n      tag_394\n        /* \"#utility.yul\":7007:7014   */\n      dup6\n        /* \"#utility.yul\":6998:7004   */\n      dup3\n        /* \"#utility.yul\":6987:6996   */\n      dup7\n        /* \"#utility.yul\":6983:7005   */\n      add\n        /* \"#utility.yul\":6962:7015   */\n      tag_284\n      jump\t// in\n    tag_394:\n        /* \"#utility.yul\":6952:7015   */\n      swap2\n      pop\n        /* \"#utility.yul\":6907:7025   */\n      pop\n        /* \"#utility.yul\":6558:7032   */\n      swap3\n      pop\n      swap3\n      swap1\n      pop\n      jump\t// out\n        /* \"#utility.yul\":7038:7506   */\n    tag_70:\n        /* \"#utility.yul\":7103:7109   */\n      0x00\n        /* \"#utility.yul\":7111:7117   */\n      dup1\n        /* \"#utility.yul\":7160:7162   */\n      0x40\n        /* \"#utility.yul\":7148:7157   */\n      dup4\n        /* \"#utility.yul\":7139:7146   */\n      dup6\n        /* \"#utility.yul\":7135:7158   */\n      sub\n        /* \"#utility.yul\":7131:7163   */\n      slt\n        /* \"#utility.yul\":7128:7247   */\n      iszero\n      tag_396\n      jumpi\n        /* \"#utility.yul\":7166:7245   */\n      tag_397\n      tag_264\n      jump\t// in\n    tag_397:\n        /* \"#utility.yul\":7128:7247   */\n    tag_396:\n        /* \"#utility.yul\":7286:7287   */\n      0x00\n        /* \"#utility.yul\":7311:7364   */\n      tag_398\n        /* \"#utility.yul\":7356:7363   */\n      dup6\n        /* \"#utility.yul\":7347:7353   */\n      dup3\n        /* \"#utility.yul\":7336:7345   */\n      dup7\n        /* \"#utility.yul\":7332:7354   */\n      add\n        /* \"#utility.yul\":7311:7364   */\n      tag_275\n      jump\t// in\n    tag_398:\n        /* \"#utility.yul\":7301:7364   */\n      swap3\n      pop\n        /* \"#utility.yul\":7257:7374   */\n      pop\n        /* \"#utility.yul\":7413:7415   */\n      0x20\n        /* \"#utility.yul\":7439:7489   */\n      tag_399\n        /* \"#utility.yul\":7481:7488   */\n      dup6\n        /* \"#utility.yul\":7472:7478   */\n      dup3\n        /* \"#utility.yul\":7461:7470   */\n      dup7\n        /* \"#utility.yul\":7457:7479   */\n      add\n        /* \"#utility.yul\":7439:7489   */\n      tag_280\n      jump\t// in\n    tag_399:\n        /* \"#utility.yul\":7429:7489   */\n      swap2\n      pop\n        /* \"#utility.yul\":7384:7499   */\n      pop\n        /* \"#utility.yul\":7038:7506   */\n      swap3\n      pop\n      swap3\n      swap1\n      pop\n      jump\t// out\n        /* \"#utility.yul\":7512:7681   */\n    tag_285:\n        /* \"#utility.yul\":7596:7607   */\n      0x00\n        /* \"#utility.yul\":7630:7636   */\n      dup3\n        /* \"#utility.yul\":7625:7628   */\n      dup3\n        /* \"#utility.yul\":7618:7637   */\n      mstore\n        /* \"#utility.yul\":7670:7674   */\n      0x20\n        /* \"#utility.yul\":7665:7668   */\n      dup3\n        /* \"#utility.yul\":7661:7675   */\n      add\n        /* \"#utility.yul\":7646:7675   */\n      swap1\n      pop\n        /* \"#utility.yul\":7512:7681   */\n      swap3\n      swap2\n      pop\n      pop\n      jump\t// out\n        /* \"#utility.yul\":7687:7848   */\n    tag_286:\n        /* \"#utility.yul\":7827:7840   */\n      0x4e6f74206d616e61676572000000000000000000000000000000000000000000\n        /* \"#utility.yul\":7823:7824   */\n      0x00\n        /* \"#utility.yul\":7815:7821   */\n      dup3\n        /* \"#utility.yul\":7811:7825   */\n      add\n        /* \"#utility.yul\":7804:7841   */\n      mstore\n        /* \"#utility.yul\":7687:7848   */\n      pop\n      jump\t// out\n        /* \"#utility.yul\":7854:8220   */\n    tag_287:\n        /* \"#utility.yul\":7996:7999   */\n      0x00\n        /* \"#utility.yul\":8017:8084   */\n      tag_403\n        /* \"#utility.yul\":8081:8083   */\n      0x0b\n        /* \"#utility.yul\":8076:8079   */\n      dup4\n        /* \"#utility.yul\":8017:8084   */\n      tag_285\n      jump\t// in\n    tag_403:\n        /* \"#utility.yul\":8010:8084   */\n      swap2\n      pop\n        /* \"#utility.yul\":8093:8186   */\n      tag_404\n        /* \"#utility.yul\":8182:8185   */\n      dup3\n        /* \"#utility.yul\":8093:8186   */\n      tag_286\n      jump\t// in\n    tag_404:\n        /* \"#utility.yul\":8211:8213   */\n      0x20\n        /* \"#utility.yul\":8206:8209   */\n      dup3\n        /* \"#utility.yul\":8202:8214   */\n      add\n        /* \"#utility.yul\":8195:8214   */\n      swap1\n      pop\n        /* \"#utility.yul\":7854:8220   */\n      swap2\n      swap1\n      pop\n      jump\t// out\n        /* \"#utility.yul\":8226:8645   */\n    tag_99:\n        /* \"#utility.yul\":8392:8396   */\n      0x00\n        /* \"#utility.yul\":8430:8432   */\n      0x20\n        /* \"#utility.yul\":8419:8428   */\n      dup3\n        /* \"#utility.yul\":8415:8433   */\n      add\n        /* \"#utility.yul\":8407:8433   */\n      swap1\n      pop\n        /* \"#utility.yul\":8479:8488   */\n      dup2\n        /* \"#utility.yul\":8473:8477   */\n      dup2\n        /* \"#utility.yul\":8469:8489   */\n      sub\n        /* \"#utility.yul\":8465:8466   */\n      0x00\n        /* \"#utility.yul\":8454:8463   */\n      dup4\n        /* \"#utility.yul\":8450:8467   */\n      add\n        /* \"#utility.yul\":8443:8490   */\n      mstore\n        /* \"#utility.yul\":8507:8638   */\n      tag_406\n        /* \"#utility.yul\":8633:8637   */\n      dup2\n        /* \"#utility.yul\":8507:8638   */\n      tag_287\n      jump\t// in\n    tag_406:\n        /* \"#utility.yul\":8499:8638   */\n      swap1\n      pop\n        /* \"#utility.yul\":8226:8645   */\n      swap2\n      swap1\n      pop\n      jump\t// out\n        /* \"#utility.yul\":8651:8816   */\n    tag_288:\n        /* \"#utility.yul\":8791:8808   */\n      0x6c656e6774682069732077726f6e670000000000000000000000000000000000\n        /* \"#utility.yul\":8787:8788   */\n      0x00\n        /* \"#utility.yul\":8779:8785   */\n      dup3\n        /* \"#utility.yul\":8775:8789   */\n      add\n        /* \"#utility.yul\":8768:8809   */\n      mstore\n        /* \"#utility.yul\":8651:8816   */\n      pop\n      jump\t// out\n        /* \"#utility.yul\":8822:9188   */\n    tag_289:\n        /* \"#utility.yul\":8964:8967   */\n      0x00\n        /* \"#utility.yul\":8985:9052   */\n      tag_409\n        /* \"#utility.yul\":9049:9051   */\n      0x0f\n        /* \"#utility.yul\":9044:9047   */\n      dup4\n        /* \"#utility.yul\":8985:9052   */\n      tag_285\n      jump\t// in\n    tag_409:\n        /* \"#utility.yul\":8978:9052   */\n      swap2\n      pop\n        /* \"#utility.yul\":9061:9154   */\n      tag_410\n        /* \"#utility.yul\":9150:9153   */\n      dup3\n        /* \"#utility.yul\":9061:9154   */\n      tag_288\n      jump\t// in\n    tag_410:\n        /* \"#utility.yul\":9179:9181   */\n      0x20\n        /* \"#utility.yul\":9174:9177   */\n      dup3\n        /* \"#utility.yul\":9170:9182   */\n      add\n        /* \"#utility.yul\":9163:9182   */\n      swap1\n      pop\n        /* \"#utility.yul\":8822:9188   */\n      swap2\n      swap1\n      pop\n      jump\t// out\n        /* \"#utility.yul\":9194:9613   */\n    tag_103:\n        /* \"#utility.yul\":9360:9364   */\n      0x00\n        /* \"#utility.yul\":9398:9400   */\n      0x20\n        /* \"#utility.yul\":9387:9396   */\n      dup3\n        /* \"#utility.yul\":9383:9401   */\n      add\n        /* \"#utility.yul\":9375:9401   */\n      swap1\n      pop\n        /* \"#utility.yul\":9447:9456   */\n      dup2\n        /* \"#utility.yul\":9441:9445   */\n      dup2\n        /* \"#utility.yul\":9437:9457   */\n      sub\n        /* \"#utility.yul\":9433:9434   */\n      0x00\n        /* \"#utility.yul\":9422:9431   */\n      dup4\n        /* \"#utility.yul\":9418:9435   */\n      add\n        /* \"#utility.yul\":9411:9458   */\n      mstore\n        /* \"#utility.yul\":9475:9606   */\n      tag_412\n        /* \"#utility.yul\":9601:9605   */\n      dup2\n        /* \"#utility.yul\":9475:9606   */\n      tag_289\n      jump\t// in\n    tag_412:\n        /* \"#utility.yul\":9467:9606   */\n      swap1\n      pop\n        /* \"#utility.yul\":9194:9613   */\n      swap2\n      swap1\n      pop\n      jump\t// out\n        /* \"#utility.yul\":9619:9799   */\n    tag_109:\n        /* \"#utility.yul\":9667:9744   */\n      0x4e487b7100000000000000000000000000000000000000000000000000000000\n        /* \"#utility.yul\":9664:9665   */\n      0x00\n        /* \"#utility.yul\":9657:9745   */\n      mstore\n        /* \"#utility.yul\":9764:9768   */\n      0x32\n        /* \"#utility.yul\":9761:9762   */\n      0x04\n        /* \"#utility.yul\":9754:9769   */\n      mstore\n        /* \"#utility.yul\":9788:9792   */\n      0x24\n        /* \"#utility.yul\":9785:9786   */\n      0x00\n        /* \"#utility.yul\":9778:9793   */\n      revert\n        /* \"#utility.yul\":9805:9971   */\n    tag_290:\n        /* \"#utility.yul\":9945:9963   */\n      0x616464726573732069732077726f6e6700000000000000000000000000000000\n        /* \"#utility.yul\":9941:9942   */\n      0x00\n        /* \"#utility.yul\":9933:9939   */\n      dup3\n        /* \"#utility.yul\":9929:9943   */\n      add\n        /* \"#utility.yul\":9922:9964   */\n      mstore\n        /* \"#utility.yul\":9805:9971   */\n      pop\n      jump\t// out\n        /* \"#utility.yul\":9977:10343   */\n    tag_291:\n        /* \"#utility.yul\":10119:10122   */\n      0x00\n        /* \"#utility.yul\":10140:10207   */\n      tag_416\n        /* \"#utility.yul\":10204:10206   */\n      0x10\n        /* \"#utility.yul\":10199:10202   */\n      dup4\n        /* \"#utility.yul\":10140:10207   */\n      tag_285\n      jump\t// in\n    tag_416:\n        /* \"#utility.yul\":10133:10207   */\n      swap2\n      pop\n        /* \"#utility.yul\":10216:10309   */\n      tag_417\n        /* \"#utility.yul\":10305:10308   */\n      dup3\n        /* \"#utility.yul\":10216:10309   */\n      tag_290\n      jump\t// in\n    tag_417:\n        /* \"#utility.yul\":10334:10336   */\n      0x20\n        /* \"#utility.yul\":10329:10332   */\n      dup3\n        /* \"#utility.yul\":10325:10337   */\n      add\n        /* \"#utility.yul\":10318:10337   */\n      swap1\n      pop\n        /* \"#utility.yul\":9977:10343   */\n      swap2\n      swap1\n      pop\n      jump\t// out\n        /* \"#utility.yul\":10349:10768   */\n    tag_112:\n        /* \"#utility.yul\":10515:10519   */\n      0x00\n        /* \"#utility.yul\":10553:10555   */\n      0x20\n        /* \"#utility.yul\":10542:10551   */\n      dup3\n        /* \"#utility.yul\":10538:10556   */\n      add\n        /* \"#utility.yul\":10530:10556   */\n      swap1\n      pop\n        /* \"#utility.yul\":10602:10611   */\n      dup2\n        /* \"#utility.yul\":10596:10600   */\n      dup2\n        /* \"#utility.yul\":10592:10612   */\n      sub\n        /* \"#utility.yul\":10588:10589   */\n      0x00\n        /* \"#utility.yul\":10577:10586   */\n      dup4\n        /* \"#utility.yul\":10573:10590   */\n      add\n        /* \"#utility.yul\":10566:10613   */\n      mstore\n        /* \"#utility.yul\":10630:10761   */\n      tag_419\n        /* \"#utility.yul\":10756:10760   */\n      dup2\n        /* \"#utility.yul\":10630:10761   */\n      tag_291\n      jump\t// in\n    tag_419:\n        /* \"#utility.yul\":10622:10761   */\n      swap1\n      pop\n        /* \"#utility.yul\":10349:10768   */\n      swap2\n      swap1\n      pop\n      jump\t// out\n        /* \"#utility.yul\":10774:10954   */\n    tag_292:\n        /* \"#utility.yul\":10822:10899   */\n      0x4e487b7100000000000000000000000000000000000000000000000000000000\n        /* \"#utility.yul\":10819:10820   */\n      0x00\n        /* \"#utility.yul\":10812:10900   */\n      mstore\n        /* \"#utility.yul\":10919:10923   */\n      0x11\n        /* \"#utility.yul\":10916:10917   */\n      0x04\n        /* \"#utility.yul\":10909:10924   */\n      mstore\n        /* \"#utility.yul\":10943:10947   */\n      0x24\n        /* \"#utility.yul\":10940:10941   */\n      0x00\n        /* \"#utility.yul\":10933:10948   */\n      revert\n        /* \"#utility.yul\":10960:11193   */\n    tag_118:\n        /* \"#utility.yul\":10999:11002   */\n      0x00\n        /* \"#utility.yul\":11022:11046   */\n      tag_422\n        /* \"#utility.yul\":11040:11045   */\n      dup3\n        /* \"#utility.yul\":11022:11046   */\n      tag_261\n      jump\t// in\n    tag_422:\n        /* \"#utility.yul\":11013:11046   */\n      swap2\n      pop\n        /* \"#utility.yul\":11068:11134   */\n      0xffffffffffffffffffffffffffffffffffffffffffffffffffffffffffffffff\n        /* \"#utility.yul\":11061:11066   */\n      dup3\n        /* \"#utility.yul\":11058:11135   */\n      sub\n        /* \"#utility.yul\":11055:11158   */\n      tag_423\n      jumpi\n        /* \"#utility.yul\":11138:11156   */\n      tag_424\n      tag_292\n      jump\t// in\n    tag_424:\n        /* \"#utility.yul\":11055:11158   */\n    tag_423:\n        /* \"#utility.yul\":11185:11186   */\n      0x01\n        /* \"#utility.yul\":11178:11183   */\n      dup3\n        /* \"#utility.yul\":11174:11187   */\n      add\n        /* \"#utility.yul\":11167:11187   */\n      swap1\n      pop\n        /* \"#utility.yul\":10960:11193   */\n      swap2\n      swap1\n      pop\n      jump\t// out\n        /* \"#utility.yul\":11199:11313   */\n    tag_293:\n        /* \"#utility.yul\":11266:11272   */\n      0x00\n        /* \"#utility.yul\":11300:11305   */\n      dup2\n        /* \"#utility.yul\":11294:11306   */\n      mload\n        /* \"#utility.yul\":11284:11306   */\n      swap1\n      pop\n        /* \"#utility.yul\":11199:11313   */\n      swap2\n      swap1\n      pop\n      jump\t// out\n        /* \"#utility.yul\":11319:11503   */\n    tag_294:\n        /* \"#utility.yul\":11418:11429   */\n      0x00\n        /* \"#utility.yul\":11452:11458   */\n      dup3\n        /* \"#utility.yul\":11447:11450   */\n      dup3\n        /* \"#utility.yul\":11440:11459   */\n      mstore\n        /* \"#utility.yul\":11492:11496   */\n      0x20\n        /* \"#utility.yul\":11487:11490   */\n      dup3\n        /* \"#utility.yul\":11483:11497   */\n      add\n        /* \"#utility.yul\":11468:11497   */\n      swap1\n      pop\n        /* \"#utility.yul\":11319:11503   */\n      swap3\n      swap2\n      pop\n      pop\n      jump\t// out\n        /* \"#utility.yul\":11509:11641   */\n    tag_295:\n        /* \"#utility.yul\":11576:11580   */\n      0x00\n        /* \"#utility.yul\":11599:11602   */\n      dup2\n        /* \"#utility.yul\":11591:11602   */\n      swap1\n      pop\n        /* \"#utility.yul\":11629:11633   */\n      0x20\n        /* \"#utility.yul\":11624:11627   */\n      dup3\n        /* \"#utility.yul\":11620:11634   */\n      add\n        /* \"#utility.yul\":11612:11634   */\n      swap1\n      pop\n        /* \"#utility.yul\":11509:11641   */\n      swap2\n      swap1\n      pop\n      jump\t// out\n        /* \"#utility.yul\":11647:11755   */\n    tag_296:\n        /* \"#utility.yul\":11724:11748   */\n      tag_429\n        /* \"#utility.yul\":11742:11747   */\n      dup2\n        /* \"#utility.yul\":11724:11748   */\n      tag_273\n      jump\t// in\n    tag_429:\n        /* \"#utility.yul\":11719:11722   */\n      dup3\n        /* \"#utility.yul\":11712:11749   */\n      mstore\n        /* \"#utility.yul\":11647:11755   */\n      pop\n      pop\n      jump\t// out\n        /* \"#utility.yul\":11761:11940   */\n    tag_297:\n        /* \"#utility.yul\":11830:11840   */\n      0x00\n        /* \"#utility.yul\":11851:11897   */\n      tag_431\n        /* \"#utility.yul\":11893:11896   */\n      dup4\n        /* \"#utility.yul\":11885:11891   */\n      dup4\n        /* \"#utility.yul\":11851:11897   */\n      tag_296\n      jump\t// in\n    tag_431:\n        /* \"#utility.yul\":11929:11933   */\n      0x20\n        /* \"#utility.yul\":11924:11927   */\n      dup4\n        /* \"#utility.yul\":11920:11934   */\n      add\n        /* \"#utility.yul\":11906:11934   */\n      swap1\n      pop\n        /* \"#utility.yul\":11761:11940   */\n      swap3\n      swap2\n      pop\n      pop\n      jump\t// out\n        /* \"#utility.yul\":11946:12059   */\n    tag_298:\n        /* \"#utility.yul\":12016:12020   */\n      0x00\n        /* \"#utility.yul\":12048:12052   */\n      0x20\n        /* \"#utility.yul\":12043:12046   */\n      dup3\n        /* \"#utility.yul\":12039:12053   */\n      add\n        /* \"#utility.yul\":12031:12053   */\n      swap1\n      pop\n        /* \"#utility.yul\":11946:12059   */\n      swap2\n      swap1\n      pop\n      jump\t// out\n        /* \"#utility.yul\":12095:12827   */\n    tag_299:\n        /* \"#utility.yul\":12214:12217   */\n      0x00\n        /* \"#utility.yul\":12243:12297   */\n      tag_434\n        /* \"#utility.yul\":12291:12296   */\n      dup3\n        /* \"#utility.yul\":12243:12297   */\n      tag_293\n      jump\t// in\n    tag_434:\n        /* \"#utility.yul\":12313:12399   */\n      tag_435\n        /* \"#utility.yul\":12392:12398   */\n      dup2\n        /* \"#utility.yul\":12387:12390   */\n      dup6\n        /* \"#utility.yul\":12313:12399   */\n      tag_294\n      jump\t// in\n    tag_435:\n        /* \"#utility.yul\":12306:12399   */\n      swap4\n      pop\n        /* \"#utility.yul\":12423:12479   */\n      tag_436\n        /* \"#utility.yul\":12473:12478   */\n      dup4\n        /* \"#utility.yul\":12423:12479   */\n      tag_295\n      jump\t// in\n    tag_436:\n        /* \"#utility.yul\":12502:12509   */\n      dup1\n        /* \"#utility.yul\":12533:12534   */\n      0x00\n        /* \"#utility.yul\":12518:12802   */\n    tag_437:\n        /* \"#utility.yul\":12543:12549   */\n      dup4\n        /* \"#utility.yul\":12540:12541   */\n      dup2\n        /* \"#utility.yul\":12537:12550   */\n      lt\n        /* \"#utility.yul\":12518:12802   */\n      iszero\n      tag_439\n      jumpi\n        /* \"#utility.yul\":12619:12625   */\n      dup2\n        /* \"#utility.yul\":12613:12626   */\n      mload\n        /* \"#utility.yul\":12646:12709   */\n      tag_440\n        /* \"#utility.yul\":12705:12708   */\n      dup9\n        /* \"#utility.yul\":12690:12703   */\n      dup3\n        /* \"#utility.yul\":12646:12709   */\n      tag_297\n      jump\t// in\n    tag_440:\n        /* \"#utility.yul\":12639:12709   */\n      swap8\n      pop\n        /* \"#utility.yul\":12732:12792   */\n      tag_441\n        /* \"#utility.yul\":12785:12791   */\n      dup4\n        /* \"#utility.yul\":12732:12792   */\n      tag_298\n      jump\t// in\n    tag_441:\n        /* \"#utility.yul\":12722:12792   */\n      swap3\n      pop\n        /* \"#utility.yul\":12578:12802   */\n      pop\n        /* \"#utility.yul\":12565:12566   */\n      0x01\n        /* \"#utility.yul\":12562:12563   */\n      dup2\n        /* \"#utility.yul\":12558:12567   */\n      add\n        /* \"#utility.yul\":12553:12567   */\n      swap1\n      pop\n        /* \"#utility.yul\":12518:12802   */\n      jump(tag_437)\n    tag_439:\n        /* \"#utility.yul\":12522:12536   */\n      pop\n        /* \"#utility.yul\":12818:12821   */\n      dup6\n        /* \"#utility.yul\":12811:12821   */\n      swap4\n      pop\n        /* \"#utility.yul\":12219:12827   */\n      pop\n      pop\n      pop\n        /* \"#utility.yul\":12095:12827   */\n      swap3\n      swap2\n      pop\n      pop\n      jump\t// out\n        /* \"#utility.yul\":12833:13467   */\n    tag_120:\n        /* \"#utility.yul\":13054:13058   */\n      0x00\n        /* \"#utility.yul\":13092:13094   */\n      0x40\n        /* \"#utility.yul\":13081:13090   */\n      dup3\n        /* \"#utility.yul\":13077:13095   */\n      add\n        /* \"#utility.yul\":13069:13095   */\n      swap1\n      pop\n        /* \"#utility.yul\":13141:13150   */\n      dup2\n        /* \"#utility.yul\":13135:13139   */\n      dup2\n        /* \"#utility.yul\":13131:13151   */\n      sub\n        /* \"#utility.yul\":13127:13128   */\n      0x00\n        /* \"#utility.yul\":13116:13125   */\n      dup4\n        /* \"#utility.yul\":13112:13129   */\n      add\n        /* \"#utility.yul\":13105:13152   */\n      mstore\n        /* \"#utility.yul\":13169:13277   */\n      tag_443\n        /* \"#utility.yul\":13272:13276   */\n      dup2\n        /* \"#utility.yul\":13263:13269   */\n      dup6\n        /* \"#utility.yul\":13169:13277   */\n      tag_299\n      jump\t// in\n    tag_443:\n        /* \"#utility.yul\":13161:13277   */\n      swap1\n      pop\n        /* \"#utility.yul\":13324:13333   */\n      dup2\n        /* \"#utility.yul\":13318:13322   */\n      dup2\n        /* \"#utility.yul\":13314:13334   */\n      sub\n        /* \"#utility.yul\":13309:13311   */\n      0x20\n        /* \"#utility.yul\":13298:13307   */\n      dup4\n        /* \"#utility.yul\":13294:13312   */\n      add\n        /* \"#utility.yul\":13287:13335   */\n      mstore\n        /* \"#utility.yul\":13352:13460   */\n      tag_444\n        /* \"#utility.yul\":13455:13459   */\n      dup2\n        /* \"#utility.yul\":13446:13452   */\n      dup5\n        /* \"#utility.yul\":13352:13460   */\n      tag_299\n      jump\t// in\n    tag_444:\n        /* \"#utility.yul\":13344:13460   */\n      swap1\n      pop\n        /* \"#utility.yul\":12833:13467   */\n      swap4\n      swap3\n      pop\n      pop\n      pop\n      jump\t// out\n        /* \"#utility.yul\":13473:13636   */\n    tag_300:\n        /* \"#utility.yul\":13613:13628   */\n      0x74696d6520697320657869737400000000000000000000000000000000000000\n        /* \"#utility.yul\":13609:13610   */\n      0x00\n        /* \"#utility.yul\":13601:13607   */\n      dup3\n        /* \"#utility.yul\":13597:13611   */\n      add\n        /* \"#utility.yul\":13590:13629   */\n      mstore\n        /* \"#utility.yul\":13473:13636   */\n      pop\n      jump\t// out\n        /* \"#utility.yul\":13642:14008   */\n    tag_301:\n        /* \"#utility.yul\":13784:13787   */\n      0x00\n        /* \"#utility.yul\":13805:13872   */\n      tag_447\n        /* \"#utility.yul\":13869:13871   */\n      0x0d\n        /* \"#utility.yul\":13864:13867   */\n      dup4\n        /* \"#utility.yul\":13805:13872   */\n      tag_285\n      jump\t// in\n    tag_447:\n        /* \"#utility.yul\":13798:13872   */\n      swap2\n      pop\n        /* \"#utility.yul\":13881:13974   */\n      tag_448\n        /* \"#utility.yul\":13970:13973   */\n      dup3\n        /* \"#utility.yul\":13881:13974   */\n      tag_300\n      jump\t// in\n    tag_448:\n        /* \"#utility.yul\":13999:14001   */\n      0x20\n        /* \"#utility.yul\":13994:13997   */\n      dup3\n        /* \"#utility.yul\":13990:14002   */\n      add\n        /* \"#utility.yul\":13983:14002   */\n      swap1\n      pop\n        /* \"#utility.yul\":13642:14008   */\n      swap2\n      swap1\n      pop\n      jump\t// out\n        /* \"#utility.yul\":14014:14433   */\n    tag_131:\n        /* \"#utility.yul\":14180:14184   */\n      0x00\n        /* \"#utility.yul\":14218:14220   */\n      0x20\n        /* \"#utility.yul\":14207:14216   */\n      dup3\n        /* \"#utility.yul\":14203:14221   */\n      add\n        /* \"#utility.yul\":14195:14221   */\n      swap1\n      pop\n        /* \"#utility.yul\":14267:14276   */\n      dup2\n        /* \"#utility.yul\":14261:14265   */\n      dup2\n        /* \"#utility.yul\":14257:14277   */\n      sub\n        /* \"#utility.yul\":14253:14254   */\n      0x00\n        /* \"#utility.yul\":14242:14251   */\n      dup4\n        /* \"#utility.yul\":14238:14255   */\n      add\n        /* \"#utility.yul\":14231:14278   */\n      mstore\n        /* \"#utility.yul\":14295:14426   */\n      tag_450\n        /* \"#utility.yul\":14421:14425   */\n      dup2\n        /* \"#utility.yul\":14295:14426   */\n      tag_301\n      jump\t// in\n    tag_450:\n        /* \"#utility.yul\":14287:14426   */\n      swap1\n      pop\n        /* \"#utility.yul\":14014:14433   */\n      swap2\n      swap1\n      pop\n      jump\t// out\n        /* \"#utility.yul\":14439:14630   */\n    tag_136:\n        /* \"#utility.yul\":14479:14482   */\n      0x00\n        /* \"#utility.yul\":14498:14518   */\n      tag_452\n        /* \"#utility.yul\":14516:14517   */\n      dup3\n        /* \"#utility.yul\":14498:14518   */\n      tag_261\n      jump\t// in\n    tag_452:\n        /* \"#utility.yul\":14493:14518   */\n      swap2\n      pop\n        /* \"#utility.yul\":14532:14552   */\n      tag_453\n        /* \"#utility.yul\":14550:14551   */\n      dup4\n        /* \"#utility.yul\":14532:14552   */\n      tag_261\n      jump\t// in\n    tag_453:\n        /* \"#utility.yul\":14527:14552   */\n      swap3\n      pop\n        /* \"#utility.yul\":14575:14576   */\n      dup3\n        /* \"#utility.yul\":14572:14573   */\n      dup3\n        /* \"#utility.yul\":14568:14577   */\n      add\n        /* \"#utility.yul\":14561:14577   */\n      swap1\n      pop\n        /* \"#utility.yul\":14596:14599   */\n      dup1\n        /* \"#utility.yul\":14593:14594   */\n      dup3\n        /* \"#utility.yul\":14590:14600   */\n      gt\n        /* \"#utility.yul\":14587:14623   */\n      iszero\n      tag_454\n      jumpi\n        /* \"#utility.yul\":14603:14621   */\n      tag_455\n      tag_292\n      jump\t// in\n    tag_455:\n        /* \"#utility.yul\":14587:14623   */\n    tag_454:\n        /* \"#utility.yul\":14439:14630   */\n      swap3\n      swap2\n      pop\n      pop\n      jump\t// out\n        /* \"#utility.yul\":14636:14793   */\n    tag_302:\n        /* \"#utility.yul\":14776:14785   */\n      0x6e6f742049444f00000000000000000000000000000000000000000000000000\n        /* \"#utility.yul\":14772:14773   */\n      0x00\n        /* \"#utility.yul\":14764:14770   */\n      dup3\n        /* \"#utility.yul\":14760:14774   */\n      add\n        /* \"#utility.yul\":14753:14786   */\n      mstore\n        /* \"#utility.yul\":14636:14793   */\n      pop\n      jump\t// out\n        /* \"#utility.yul\":14799:15164   */\n    tag_303:\n        /* \"#utility.yul\":14941:14944   */\n      0x00\n        /* \"#utility.yul\":14962:15028   */\n      tag_458\n        /* \"#utility.yul\":15026:15027   */\n      0x07\n        /* \"#utility.yul\":15021:15024   */\n      dup4\n        /* \"#utility.yul\":14962:15028   */\n      tag_285\n      jump\t// in\n    tag_458:\n        /* \"#utility.yul\":14955:15028   */\n      swap2\n      pop\n        /* \"#utility.yul\":15037:15130   */\n      tag_459\n        /* \"#utility.yul\":15126:15129   */\n      dup3\n        /* \"#utility.yul\":15037:15130   */\n      tag_302\n      jump\t// in\n    tag_459:\n        /* \"#utility.yul\":15155:15157   */\n      0x20\n        /* \"#utility.yul\":15150:15153   */\n      dup3\n        /* \"#utility.yul\":15146:15158   */\n      add\n        /* \"#utility.yul\":15139:15158   */\n      swap1\n      pop\n        /* \"#utility.yul\":14799:15164   */\n      swap2\n      swap1\n      pop\n      jump\t// out\n        /* \"#utility.yul\":15170:15589   */\n    tag_139:\n        /* \"#utility.yul\":15336:15340   */\n      0x00\n        /* \"#utility.yul\":15374:15376   */\n      0x20\n        /* \"#utility.yul\":15363:15372   */\n      dup3\n        /* \"#utility.yul\":15359:15377   */\n      add\n        /* \"#utility.yul\":15351:15377   */\n      swap1\n      pop\n        /* \"#utility.yul\":15423:15432   */\n      dup2\n        /* \"#utility.yul\":15417:15421   */\n      dup2\n        /* \"#utility.yul\":15413:15433   */\n      sub\n        /* \"#utility.yul\":15409:15410   */\n      0x00\n        /* \"#utility.yul\":15398:15407   */\n      dup4\n        /* \"#utility.yul\":15394:15411   */\n      add\n        /* \"#utility.yul\":15387:15434   */\n      mstore\n        /* \"#utility.yul\":15451:15582   */\n      tag_461\n        /* \"#utility.yul\":15577:15581   */\n      dup2\n        /* \"#utility.yul\":15451:15582   */\n      tag_303\n      jump\t// in\n    tag_461:\n        /* \"#utility.yul\":15443:15582   */\n      swap1\n      pop\n        /* \"#utility.yul\":15170:15589   */\n      swap2\n      swap1\n      pop\n      jump\t// out\n        /* \"#utility.yul\":15595:16005   */\n    tag_143:\n        /* \"#utility.yul\":15635:15642   */\n      0x00\n        /* \"#utility.yul\":15658:15678   */\n      tag_463\n        /* \"#utility.yul\":15676:15677   */\n      dup3\n        /* \"#utility.yul\":15658:15678   */\n      tag_261\n      jump\t// in\n    tag_463:\n        /* \"#utility.yul\":15653:15678   */\n      swap2\n      pop\n        /* \"#utility.yul\":15692:15712   */\n      tag_464\n        /* \"#utility.yul\":15710:15711   */\n      dup4\n        /* \"#utility.yul\":15692:15712   */\n      tag_261\n      jump\t// in\n    tag_464:\n        /* \"#utility.yul\":15687:15712   */\n      swap3\n      pop\n        /* \"#utility.yul\":15747:15748   */\n      dup3\n        /* \"#utility.yul\":15744:15745   */\n      dup3\n        /* \"#utility.yul\":15740:15749   */\n      mul\n        /* \"#utility.yul\":15769:15799   */\n      tag_465\n        /* \"#utility.yul\":15787:15798   */\n      dup2\n        /* \"#utility.yul\":15769:15799   */\n      tag_261\n      jump\t// in\n    tag_465:\n        /* \"#utility.yul\":15758:15799   */\n      swap2\n      pop\n        /* \"#utility.yul\":15948:15949   */\n      dup3\n        /* \"#utility.yul\":15939:15946   */\n      dup3\n        /* \"#utility.yul\":15935:15950   */\n      div\n        /* \"#utility.yul\":15932:15933   */\n      dup5\n        /* \"#utility.yul\":15929:15951   */\n      eq\n        /* \"#utility.yul\":15909:15910   */\n      dup4\n        /* \"#utility.yul\":15902:15911   */\n      iszero\n        /* \"#utility.yul\":15882:15965   */\n      or\n        /* \"#utility.yul\":15859:15998   */\n      tag_466\n      jumpi\n        /* \"#utility.yul\":15978:15996   */\n      tag_467\n      tag_292\n      jump\t// in\n    tag_467:\n        /* \"#utility.yul\":15859:15998   */\n    tag_466:\n        /* \"#utility.yul\":15643:16005   */\n      pop\n        /* \"#utility.yul\":15595:16005   */\n      swap3\n      swap2\n      pop\n      pop\n      jump\t// out\n        /* \"#utility.yul\":16011:16191   */\n    tag_304:\n        /* \"#utility.yul\":16059:16136   */\n      0x4e487b7100000000000000000000000000000000000000000000000000000000\n        /* \"#utility.yul\":16056:16057   */\n      0x00\n        /* \"#utility.yul\":16049:16137   */\n      mstore\n        /* \"#utility.yul\":16156:16160   */\n      0x12\n        /* \"#utility.yul\":16153:16154   */\n      0x04\n        /* \"#utility.yul\":16146:16161   */\n      mstore\n        /* \"#utility.yul\":16180:16184   */\n      0x24\n        /* \"#utility.yul\":16177:16178   */\n      0x00\n        /* \"#utility.yul\":16170:16185   */\n      revert\n        /* \"#utility.yul\":16197:16382   */\n    tag_145:\n        /* \"#utility.yul\":16237:16238   */\n      0x00\n        /* \"#utility.yul\":16254:16274   */\n      tag_470\n        /* \"#utility.yul\":16272:16273   */\n      dup3\n        /* \"#utility.yul\":16254:16274   */\n      tag_261\n      jump\t// in\n    tag_470:\n        /* \"#utility.yul\":16249:16274   */\n      swap2\n      pop\n        /* \"#utility.yul\":16288:16308   */\n      tag_471\n        /* \"#utility.yul\":16306:16307   */\n      dup4\n        /* \"#utility.yul\":16288:16308   */\n      tag_261\n      jump\t// in\n    tag_471:\n        /* \"#utility.yul\":16283:16308   */\n      swap3\n      pop\n        /* \"#utility.yul\":16327:16328   */\n      dup3\n        /* \"#utility.yul\":16317:16352   */\n      tag_472\n      jumpi\n        /* \"#utility.yul\":16332:16350   */\n      tag_473\n      tag_304\n      jump\t// in\n    tag_473:\n        /* \"#utility.yul\":16317:16352   */\n    tag_472:\n        /* \"#utility.yul\":16374:16375   */\n      dup3\n        /* \"#utility.yul\":16371:16372   */\n      dup3\n        /* \"#utility.yul\":16367:16376   */\n      div\n        /* \"#utility.yul\":16362:16376   */\n      swap1\n      pop\n        /* \"#utility.yul\":16197:16382   */\n      swap3\n      swap2\n      pop\n      pop\n      jump\t// out\n        /* \"#utility.yul\":16388:16830   */\n    tag_147:\n        /* \"#utility.yul\":16537:16541   */\n      0x00\n        /* \"#utility.yul\":16575:16577   */\n      0x60\n        /* \"#utility.yul\":16564:16573   */\n      dup3\n        /* \"#utility.yul\":16560:16578   */\n      add\n        /* \"#utility.yul\":16552:16578   */\n      swap1\n      pop\n        /* \"#utility.yul\":16588:16659   */\n      tag_475\n        /* \"#utility.yul\":16656:16657   */\n      0x00\n        /* \"#utility.yul\":16645:16654   */\n      dup4\n        /* \"#utility.yul\":16641:16658   */\n      add\n        /* \"#utility.yul\":16632:16638   */\n      dup7\n        /* \"#utility.yul\":16588:16659   */\n      tag_282\n      jump\t// in\n    tag_475:\n        /* \"#utility.yul\":16669:16741   */\n      tag_476\n        /* \"#utility.yul\":16737:16739   */\n      0x20\n        /* \"#utility.yul\":16726:16735   */\n      dup4\n        /* \"#utility.yul\":16722:16740   */\n      add\n        /* \"#utility.yul\":16713:16719   */\n      dup6\n        /* \"#utility.yul\":16669:16741   */\n      tag_282\n      jump\t// in\n    tag_476:\n        /* \"#utility.yul\":16751:16823   */\n      tag_477\n        /* \"#utility.yul\":16819:16821   */\n      0x40\n        /* \"#utility.yul\":16808:16817   */\n      dup4\n        /* \"#utility.yul\":16804:16822   */\n      add\n        /* \"#utility.yul\":16795:16801   */\n      dup5\n        /* \"#utility.yul\":16751:16823   */\n      tag_262\n      jump\t// in\n    tag_477:\n        /* \"#utility.yul\":16388:16830   */\n      swap5\n      swap4\n      pop\n      pop\n      pop\n      pop\n      jump\t// out\n        /* \"#utility.yul\":16836:16973   */\n    tag_305:\n        /* \"#utility.yul\":16890:16895   */\n      0x00\n        /* \"#utility.yul\":16921:16927   */\n      dup2\n        /* \"#utility.yul\":16915:16928   */\n      mload\n        /* \"#utility.yul\":16906:16928   */\n      swap1\n      pop\n        /* \"#utility.yul\":16937:16967   */\n      tag_479\n        /* \"#utility.yul\":16961:16966   */\n      dup2\n        /* \"#utility.yul\":16937:16967   */\n      tag_279\n      jump\t// in\n    tag_479:\n        /* \"#utility.yul\":16836:16973   */\n      swap3\n      swap2\n      pop\n      pop\n      jump\t// out\n        /* \"#utility.yul\":16979:17324   */\n    tag_151:\n        /* \"#utility.yul\":17046:17052   */\n      0x00\n        /* \"#utility.yul\":17095:17097   */\n      0x20\n        /* \"#utility.yul\":17083:17092   */\n      dup3\n        /* \"#utility.yul\":17074:17081   */\n      dup5\n        /* \"#utility.yul\":17070:17093   */\n      sub\n        /* \"#utility.yul\":17066:17098   */\n      slt\n        /* \"#utility.yul\":17063:17182   */\n      iszero\n      tag_481\n      jumpi\n        /* \"#utility.yul\":17101:17180   */\n      tag_482\n      tag_264\n      jump\t// in\n    tag_482:\n        /* \"#utility.yul\":17063:17182   */\n    tag_481:\n        /* \"#utility.yul\":17221:17222   */\n      0x00\n        /* \"#utility.yul\":17246:17307   */\n      tag_483\n        /* \"#utility.yul\":17299:17306   */\n      dup5\n        /* \"#utility.yul\":17290:17296   */\n      dup3\n        /* \"#utility.yul\":17279:17288   */\n      dup6\n        /* \"#utility.yul\":17275:17297   */\n      add\n        /* \"#utility.yul\":17246:17307   */\n      tag_305\n      jump\t// in\n    tag_483:\n        /* \"#utility.yul\":17236:17307   */\n      swap2\n      pop\n        /* \"#utility.yul\":17192:17317   */\n      pop\n        /* \"#utility.yul\":16979:17324   */\n      swap3\n      swap2\n      pop\n      pop\n      jump\t// out\n        /* \"#utility.yul\":17330:17524   */\n    tag_153:\n        /* \"#utility.yul\":17370:17374   */\n      0x00\n        /* \"#utility.yul\":17390:17410   */\n      tag_485\n        /* \"#utility.yul\":17408:17409   */\n      dup3\n        /* \"#utility.yul\":17390:17410   */\n      tag_261\n      jump\t// in\n    tag_485:\n        /* \"#utility.yul\":17385:17410   */\n      swap2\n      pop\n        /* \"#utility.yul\":17424:17444   */\n      tag_486\n        /* \"#utility.yul\":17442:17443   */\n      dup4\n        /* \"#utility.yul\":17424:17444   */\n      tag_261\n      jump\t// in\n    tag_486:\n        /* \"#utility.yul\":17419:17444   */\n      swap3\n      pop\n        /* \"#utility.yul\":17468:17469   */\n      dup3\n        /* \"#utility.yul\":17465:17466   */\n      dup3\n        /* \"#utility.yul\":17461:17470   */\n      sub\n        /* \"#utility.yul\":17453:17470   */\n      swap1\n      pop\n        /* \"#utility.yul\":17492:17493   */\n      dup2\n        /* \"#utility.yul\":17486:17490   */\n      dup2\n        /* \"#utility.yul\":17483:17494   */\n      gt\n        /* \"#utility.yul\":17480:17517   */\n      iszero\n      tag_487\n      jumpi\n        /* \"#utility.yul\":17497:17515   */\n      tag_488\n      tag_292\n      jump\t// in\n    tag_488:\n        /* \"#utility.yul\":17480:17517   */\n    tag_487:\n        /* \"#utility.yul\":17330:17524   */\n      swap3\n      swap2\n      pop\n      pop\n      jump\t// out\n        /* \"#utility.yul\":17530:17862   */\n    tag_183:\n        /* \"#utility.yul\":17651:17655   */\n      0x00\n        /* \"#utility.yul\":17689:17691   */\n      0x40\n        /* \"#utility.yul\":17678:17687   */\n      dup3\n        /* \"#utility.yul\":17674:17692   */\n      add\n        /* \"#utility.yul\":17666:17692   */\n      swap1\n      pop\n        /* \"#utility.yul\":17702:17773   */\n      tag_490\n        /* \"#utility.yul\":17770:17771   */\n      0x00\n        /* \"#utility.yul\":17759:17768   */\n      dup4\n        /* \"#utility.yul\":17755:17772   */\n      add\n        /* \"#utility.yul\":17746:17752   */\n      dup6\n        /* \"#utility.yul\":17702:17773   */\n      tag_282\n      jump\t// in\n    tag_490:\n        /* \"#utility.yul\":17783:17855   */\n      tag_491\n        /* \"#utility.yul\":17851:17853   */\n      0x20\n        /* \"#utility.yul\":17840:17849   */\n      dup4\n        /* \"#utility.yul\":17836:17854   */\n      add\n        /* \"#utility.yul\":17827:17833   */\n      dup5\n        /* \"#utility.yul\":17783:17855   */\n      tag_262\n      jump\t// in\n    tag_491:\n        /* \"#utility.yul\":17530:17862   */\n      swap4\n      swap3\n      pop\n      pop\n      pop\n      jump\t// out\n        /* \"#utility.yul\":17868:18027   */\n    tag_306:\n        /* \"#utility.yul\":18008:18019   */\n      0x6e6f7420616c6c6f770000000000000000000000000000000000000000000000\n        /* \"#utility.yul\":18004:18005   */\n      0x00\n        /* \"#utility.yul\":17996:18002   */\n      dup3\n        /* \"#utility.yul\":17992:18006   */\n      add\n        /* \"#utility.yul\":17985:18020   */\n      mstore\n        /* \"#utility.yul\":17868:18027   */\n      pop\n      jump\t// out\n        /* \"#utility.yul\":18033:18398   */\n    tag_307:\n        /* \"#utility.yul\":18175:18178   */\n      0x00\n        /* \"#utility.yul\":18196:18262   */\n      tag_494\n        /* \"#utility.yul\":18260:18261   */\n      0x09\n        /* \"#utility.yul\":18255:18258   */\n      dup4\n        /* \"#utility.yul\":18196:18262   */\n      tag_285\n      jump\t// in\n    tag_494:\n        /* \"#utility.yul\":18189:18262   */\n      swap2\n      pop\n        /* \"#utility.yul\":18271:18364   */\n      tag_495\n        /* \"#utility.yul\":18360:18363   */\n      dup3\n        /* \"#utility.yul\":18271:18364   */\n      tag_306\n      jump\t// in\n    tag_495:\n        /* \"#utility.yul\":18389:18391   */\n      0x20\n        /* \"#utility.yul\":18384:18387   */\n      dup3\n        /* \"#utility.yul\":18380:18392   */\n      add\n        /* \"#utility.yul\":18373:18392   */\n      swap1\n      pop\n        /* \"#utility.yul\":18033:18398   */\n      swap2\n      swap1\n      pop\n      jump\t// out\n        /* \"#utility.yul\":18404:18823   */\n    tag_204:\n        /* \"#utility.yul\":18570:18574   */\n      0x00\n        /* \"#utility.yul\":18608:18610   */\n      0x20\n        /* \"#utility.yul\":18597:18606   */\n      dup3\n        /* \"#utility.yul\":18593:18611   */\n      add\n        /* \"#utility.yul\":18585:18611   */\n      swap1\n      pop\n        /* \"#utility.yul\":18657:18666   */\n      dup2\n        /* \"#utility.yul\":18651:18655   */\n      dup2\n        /* \"#utility.yul\":18647:18667   */\n      sub\n        /* \"#utility.yul\":18643:18644   */\n      0x00\n        /* \"#utility.yul\":18632:18641   */\n      dup4\n        /* \"#utility.yul\":18628:18645   */\n      add\n        /* \"#utility.yul\":18621:18668   */\n      mstore\n        /* \"#utility.yul\":18685:18816   */\n      tag_497\n        /* \"#utility.yul\":18811:18815   */\n      dup2\n        /* \"#utility.yul\":18685:18816   */\n      tag_307\n      jump\t// in\n    tag_497:\n        /* \"#utility.yul\":18677:18816   */\n      swap1\n      pop\n        /* \"#utility.yul\":18404:18823   */\n      swap2\n      swap1\n      pop\n      jump\t// out\n        /* \"#utility.yul\":18829:19011   */\n    tag_308:\n        /* \"#utility.yul\":18969:19003   */\n      0x4f776e61626c653a2063616c6c6572206973206e6f7420746865206f776e6572\n        /* \"#utility.yul\":18965:18966   */\n      0x00\n        /* \"#utility.yul\":18957:18963   */\n      dup3\n        /* \"#utility.yul\":18953:18967   */\n      add\n        /* \"#utility.yul\":18946:19004   */\n      mstore\n        /* \"#utility.yul\":18829:19011   */\n      pop\n      jump\t// out\n        /* \"#utility.yul\":19017:19383   */\n    tag_309:\n        /* \"#utility.yul\":19159:19162   */\n      0x00\n        /* \"#utility.yul\":19180:19247   */\n      tag_500\n        /* \"#utility.yul\":19244:19246   */\n      0x20\n        /* \"#utility.yul\":19239:19242   */\n      dup4\n        /* \"#utility.yul\":19180:19247   */\n      tag_285\n      jump\t// in\n    tag_500:\n        /* \"#utility.yul\":19173:19247   */\n      swap2\n      pop\n        /* \"#utility.yul\":19256:19349   */\n      tag_501\n        /* \"#utility.yul\":19345:19348   */\n      dup3\n        /* \"#utility.yul\":19256:19349   */\n      tag_308\n      jump\t// in\n    tag_501:\n        /* \"#utility.yul\":19374:19376   */\n      0x20\n        /* \"#utility.yul\":19369:19372   */\n      dup3\n        /* \"#utility.yul\":19365:19377   */\n      add\n        /* \"#utility.yul\":19358:19377   */\n      swap1\n      pop\n        /* \"#utility.yul\":19017:19383   */\n      swap2\n      swap1\n      pop\n      jump\t// out\n        /* \"#utility.yul\":19389:19808   */\n    tag_243:\n        /* \"#utility.yul\":19555:19559   */\n      0x00\n        /* \"#utility.yul\":19593:19595   */\n      0x20\n        /* \"#utility.yul\":19582:19591   */\n      dup3\n        /* \"#utility.yul\":19578:19596   */\n      add\n        /* \"#utility.yul\":19570:19596   */\n      swap1\n      pop\n        /* \"#utility.yul\":19642:19651   */\n      dup2\n        /* \"#utility.yul\":19636:19640   */\n      dup2\n        /* \"#utility.yul\":19632:19652   */\n      sub\n        /* \"#utility.yul\":19628:19629   */\n      0x00\n        /* \"#utility.yul\":19617:19626   */\n      dup4\n        /* \"#utility.yul\":19613:19630   */\n      add\n        /* \"#utility.yul\":19606:19653   */\n      mstore\n        /* \"#utility.yul\":19670:19801   */\n      tag_503\n        /* \"#utility.yul\":19796:19800   */\n      dup2\n        /* \"#utility.yul\":19670:19801   */\n      tag_309\n      jump\t// in\n    tag_503:\n        /* \"#utility.yul\":19662:19801   */\n      swap1\n      pop\n        /* \"#utility.yul\":19389:19808   */\n      swap2\n      swap1\n      pop\n      jump\t// out\n\n    auxdata: 0xa264697066735822122003ed866e8c52d5a23863eeb6eeb1552e1c47f8969821798f89ee6f2233f7f7e164736f6c63430008110033\n}\n",
				"bytecode": {
					"linkReferences": {},
					"object": "60806040523480156200001157600080fd5b50604051620025c0380380620025c0833981810160405281019062000037919062000160565b60016000806101000a81548160ff0219169083151502179055506001600060016101000a81548160ff02191690831515021790555081600460006101000a81548173ffffffffffffffffffffffffffffffffffffffff021916908373ffffffffffffffffffffffffffffffffffffffff16021790555080600560006101000a81548173ffffffffffffffffffffffffffffffffffffffff021916908373ffffffffffffffffffffffffffffffffffffffff1602179055505050620001a7565b600080fd5b600073ffffffffffffffffffffffffffffffffffffffff82169050919050565b60006200012882620000fb565b9050919050565b6200013a816200011b565b81146200014657600080fd5b50565b6000815190506200015a816200012f565b92915050565b600080604083850312156200017a5762000179620000f6565b5b60006200018a8582860162000149565b92505060206200019d8582860162000149565b9150509250929050565b61240980620001b76000396000f3fe608060405234801561001057600080fd5b506004361061012c5760003560e01c8063965ed465116100ad578063e72ebdb711610071578063e72ebdb7146102cf578063f06b41e3146102ff578063f3ae24151461032f578063f56e9c661461035f578063fb0665311461037b5761012c565b8063965ed4651461025357806398269b6a1461026f578063a5e90eee14610279578063b6dd310414610295578063c6b24c1c146102b15761012c565b80636a41d5d7116100f45780636a41d5d7146101c357806376be6af6146101f35780638da5cb5b146101fd5780638dd0abaa1461021b578063918a6283146102375761012c565b806318160ddd14610131578063238c4c2f1461014f5780633197cbb61461016b57806337b1a023146101895780635db98f2d146101a5575b600080fd5b610139610399565b6040516101469190611997565b60405180910390f35b61016960048036038101906101649190611b7d565b61039f565b005b610173610607565b6040516101809190611997565b60405180910390f35b6101a3600480360381019061019e9190611c2d565b61060d565b005b6101ad6106b6565b6040516101ba9190611c69565b60405180910390f35b6101dd60048036038101906101d89190611c84565b6106c9565b6040516101ea9190611997565b60405180910390f35b6101fb6106e1565b005b6102056107bb565b6040516102129190611cc0565b60405180910390f35b61023560048036038101906102309190611d07565b6107e4565b005b610251600480360381019061024c9190611c84565b610fee565b005b61026d60048036038101906102689190611c84565b6110db565b005b6102776111ab565b005b610293600480360381019061028e9190611d47565b6115d1565b005b6102af60048036038101906102aa9190611c2d565b6116a1565b005b6102b9611749565b6040516102c69190611cc0565b60405180910390f35b6102e960048036038101906102e49190611c84565b61176f565b6040516102f69190611cc0565b60405180910390f35b61031960048036038101906103149190611c84565b6117a2565b6040516103269190611997565b60405180910390f35b61034960048036038101906103449190611c84565b6117ba565b6040516103569190611c69565b60405180910390f35b61037960048036038101906103749190611c84565b6117da565b005b6103836118aa565b6040516103909190611c69565b60405180910390f35b60025481565b600360003373ffffffffffffffffffffffffffffffffffffffff1673ffffffffffffffffffffffffffffffffffffffff16815260200190815260200160002060009054906101000a900460ff1661042b576040517f08c379a000000000000000000000000000000000000000000000000000000000815260040161042290611de4565b60405180910390fd5b805182511461046f576040517f08c379a000000000000000000000000000000000000000000000000000000000815260040161046690611e50565b60405180910390fd5b60005b82518110156105c957600073ffffffffffffffffffffffffffffffffffffffff168382815181106104a6576104a5611e70565b5b602002602001015173ffffffffffffffffffffffffffffffffffffffff1603610504576040517f08c379a00000000000000000000000000000000000000000000000000000000081526004016104fb90611eeb565b60405180910390fd5b81818151811061051757610516611e70565b5b60200260200101516009600085848151811061053657610535611e70565b5b602002602001015173ffffffffffffffffffffffffffffffffffffffff1673ffffffffffffffffffffffffffffffffffffffff16815260200190815260200160002060006101000a81548173ffffffffffffffffffffffffffffffffffffffff021916908373ffffffffffffffffffffffffffffffffffffffff16021790555080806105c190611f3a565b915050610472565b507f1886f03d42b471bc8faf784e3878fce329e8e139473c601b8648de73b3380c0282826040516105fb929190612040565b60405180910390a15050565b60015481565b600360003373ffffffffffffffffffffffffffffffffffffffff1673ffffffffffffffffffffffffffffffffffffffff16815260200190815260200160002060009054906101000a900460ff16610699576040517f08c379a000000000000000000000000000000000000000000000000000000000815260040161069090611de4565b60405180910390fd5b80600060016101000a81548160ff02191690831515021790555050565b600060019054906101000a900460ff1681565b600a6020528060005260406000206000915090505481565b600360003373ffffffffffffffffffffffffffffffffffffffff1673ffffffffffffffffffffffffffffffffffffffff16815260200190815260200160002060009054906101000a900460ff1661076d576040517f08c379a000000000000000000000000000000000000000000000000000000000815260040161076490611de4565b60405180910390fd5b6000600154146107b2576040517f08c379a00000000000000000000000000000000000000000000000000000000081526004016107a9906120c3565b60405180910390fd5b42600181905550565b60008060029054906101000a900473ffffffffffffffffffffffffffffffffffffffff16905090565b6000600a60008473ffffffffffffffffffffffffffffffffffffffff1673ffffffffffffffffffffffffffffffffffffffff1681526020019081526020016000205490506107d08110158061084557506107d0828261084391906120e3565b115b610884576040517f08c379a000000000000000000000000000000000000000000000000000000000815260040161087b90612163565b60405180910390fd5b6000600960008573ffffffffffffffffffffffffffffffffffffffff1673ffffffffffffffffffffffffffffffffffffffff16815260200190815260200160002060009054906101000a900473ffffffffffffffffffffffffffffffffffffffff169050600073ffffffffffffffffffffffffffffffffffffffff168173ffffffffffffffffffffffffffffffffffffffff1614610c55576000600a60008373ffffffffffffffffffffffffffffffffffffffff1673ffffffffffffffffffffffffffffffffffffffff168152602001908152602001600020541115610afc5760006127106101f4856109779190612183565b61098191906121f4565b9050600560009054906101000a900473ffffffffffffffffffffffffffffffffffffffff1673ffffffffffffffffffffffffffffffffffffffff166323b872dd8684846040518463ffffffff1660e01b81526004016109e293929190612225565b6020604051808303816000875af1158015610a01573d6000803e3d6000fd5b505050506040513d601f19601f82011682018060405250810190610a259190612271565b50600560009054906101000a900473ffffffffffffffffffffffffffffffffffffffff1673ffffffffffffffffffffffffffffffffffffffff166323b872dd86600460009054906101000a900473ffffffffffffffffffffffffffffffffffffffff168488610a94919061229e565b6040518463ffffffff1660e01b8152600401610ab293929190612225565b6020604051808303816000875af1158015610ad1573d6000803e3d6000fd5b505050506040513d601f19601f82011682018060405250810190610af59190612271565b5050610bc2565b600560009054906101000a900473ffffffffffffffffffffffffffffffffffffffff1673ffffffffffffffffffffffffffffffffffffffff166323b872dd85600460009054906101000a900473ffffffffffffffffffffffffffffffffffffffff16866040518463ffffffff1660e01b8152600401610b7d93929190612225565b6020604051808303816000875af1158015610b9c573d6000803e3d6000fd5b505050506040513d601f19601f82011682018060405250810190610bc09190612271565b505b82600b60008373ffffffffffffffffffffffffffffffffffffffff1673ffffffffffffffffffffffffffffffffffffffff16815260200190815260200160002054610c0d91906120e3565b600b60008373ffffffffffffffffffffffffffffffffffffffff1673ffffffffffffffffffffffffffffffffffffffff16815260200190815260200160002081905550610d1b565b600560009054906101000a900473ffffffffffffffffffffffffffffffffffffffff1673ffffffffffffffffffffffffffffffffffffffff166323b872dd85600460009054906101000a900473ffffffffffffffffffffffffffffffffffffffff16866040518463ffffffff1660e01b8152600401610cd693929190612225565b6020604051808303816000875af1158015610cf5573d6000803e3d6000fd5b505050506040513d601f19601f82011682018060405250810190610d199190612271565b505b8282610d2791906120e3565b600a60008673ffffffffffffffffffffffffffffffffffffffff1673ffffffffffffffffffffffffffffffffffffffff168152602001908152602001600020819055506107d0600a60008673ffffffffffffffffffffffffffffffffffffffff1673ffffffffffffffffffffffffffffffffffffffff1681526020019081526020016000205410610e4057600660009054906101000a900473ffffffffffffffffffffffffffffffffffffffff1673ffffffffffffffffffffffffffffffffffffffff166340d097c3856040518263ffffffff1660e01b8152600401610e0d9190611cc0565b600060405180830381600087803b158015610e2757600080fd5b505af1158015610e3b573d6000803e3d6000fd5b505050505b610bb8600b60008373ffffffffffffffffffffffffffffffffffffffff1673ffffffffffffffffffffffffffffffffffffffff1681526020019081526020016000205410610fa657600660009054906101000a900473ffffffffffffffffffffffffffffffffffffffff1673ffffffffffffffffffffffffffffffffffffffff166340d097c3826040518263ffffffff1660e01b8152600401610ee39190611cc0565b600060405180830381600087803b158015610efd57600080fd5b505af1158015610f11573d6000803e3d6000fd5b50505050610bb8600b60008373ffffffffffffffffffffffffffffffffffffffff1673ffffffffffffffffffffffffffffffffffffffff16815260200190815260200160002054610f62919061229e565b600b60008373ffffffffffffffffffffffffffffffffffffffff1673ffffffffffffffffffffffffffffffffffffffff168152602001908152602001600020819055505b610faf84610fee565b7f080bf12451b207525905f2fe9e47714fbcd5aa383b228f656b880136e66b288f8484604051610fe09291906122d2565b60405180910390a150505050565b6000601067ffffffffffffffff81111561100b5761100a6119dc565b5b6040519080825280602002602001820160405280156110395781602001602082028036833780820191505090505b50905060005b815181101561108257600082828151811061105d5761105c611e70565b5b602002602001019015159081151581525050808061107a90611f3a565b91505061103f565b5080600860008473ffffffffffffffffffffffffffffffffffffffff1673ffffffffffffffffffffffffffffffffffffffff16815260200190815260200160002090805190602001906110d69291906118bb565b505050565b600360003373ffffffffffffffffffffffffffffffffffffffff1673ffffffffffffffffffffffffffffffffffffffff16815260200190815260200160002060009054906101000a900460ff16611167576040517f08c379a000000000000000000000000000000000000000000000000000000000815260040161115e90611de4565b60405180910390fd5b80600760006101000a81548173ffffffffffffffffffffffffffffffffffffffff021916908373ffffffffffffffffffffffffffffffffffffffff16021790555050565b6000600a60003373ffffffffffffffffffffffffffffffffffffffff1673ffffffffffffffffffffffffffffffffffffffff168152602001908152602001600020541161122d576040517f08c379a000000000000000000000000000000000000000000000000000000000815260040161122490612347565b60405180910390fd5b6000806001544261123e919061229e565b90506000620151808261125191906121f4565b905060006078610a28600a60003373ffffffffffffffffffffffffffffffffffffffff1673ffffffffffffffffffffffffffffffffffffffff168152602001908152602001600020546112a49190612183565b6112ae91906121f4565b9050600182101580156113305750600860003373ffffffffffffffffffffffffffffffffffffffff1673ffffffffffffffffffffffffffffffffffffffff16815260200190815260200160002060008154811061130e5761130d611e70565b5b90600052602060002090602091828204019190069054906101000a900460ff16155b156113d0576127106103e8826113469190612183565b61135091906121f4565b93506001600860003373ffffffffffffffffffffffffffffffffffffffff1673ffffffffffffffffffffffffffffffffffffffff1681526020019081526020016000206000815481106113a6576113a5611e70565b5b90600052602060002090602091828204019190066101000a81548160ff0219169083151502179055505b6000601e6001846113e1919061229e565b6113eb91906121f4565b90506000600190505b81811161152857600860003373ffffffffffffffffffffffffffffffffffffffff1673ffffffffffffffffffffffffffffffffffffffff168152602001908152602001600020818154811061144c5761144b611e70565b5b90600052602060002090602091828204019190069054906101000a900460ff1661151557612710610258846114819190612183565b61148b91906121f4565b8661149691906120e3565b95506001600860003373ffffffffffffffffffffffffffffffffffffffff1673ffffffffffffffffffffffffffffffffffffffff16815260200190815260200160002082815481106114eb576114ea611e70565b5b90600052602060002090602091828204019190066101000a81548160ff0219169083151502179055505b808061152090611f3a565b9150506113f4565b50600760009054906101000a900473ffffffffffffffffffffffffffffffffffffffff1673ffffffffffffffffffffffffffffffffffffffff1663a9059cbb33876040518363ffffffff1660e01b81526004016115869291906122d2565b6020604051808303816000875af11580156115a5573d6000803e3d6000fd5b505050506040513d601f19601f820116820180604052508101906115c99190612271565b505050505050565b3373ffffffffffffffffffffffffffffffffffffffff166115f06107bb565b73ffffffffffffffffffffffffffffffffffffffff1614611646576040517f08c379a000000000000000000000000000000000000000000000000000000000815260040161163d906123b3565b60405180910390fd5b80600360008473ffffffffffffffffffffffffffffffffffffffff1673ffffffffffffffffffffffffffffffffffffffff16815260200190815260200160002060006101000a81548160ff0219169083151502179055505050565b600360003373ffffffffffffffffffffffffffffffffffffffff1673ffffffffffffffffffffffffffffffffffffffff16815260200190815260200160002060009054906101000a900460ff1661172d576040517f08c379a000000000000000000000000000000000000000000000000000000000815260040161172490611de4565b60405180910390fd5b806000806101000a81548160ff02191690831515021790555050565b600460009054906101000a900473ffffffffffffffffffffffffffffffffffffffff1681565b60096020528060005260406000206000915054906101000a900473ffffffffffffffffffffffffffffffffffffffff1681565b600b6020528060005260406000206000915090505481565b60036020528060005260406000206000915054906101000a900460ff1681565b600360003373ffffffffffffffffffffffffffffffffffffffff1673ffffffffffffffffffffffffffffffffffffffff16815260200190815260200160002060009054906101000a900460ff16611866576040517f08c379a000000000000000000000000000000000000000000000000000000000815260040161185d90611de4565b60405180910390fd5b80600660006101000a81548173ffffffffffffffffffffffffffffffffffffffff021916908373ffffffffffffffffffffffffffffffffffffffff16021790555050565b60008054906101000a900460ff1681565b82805482825590600052602060002090601f016020900481019282156119505791602002820160005b8382111561192157835183826101000a81548160ff02191690831515021790555092602001926001016020816000010492830192600103026118e4565b801561194e5782816101000a81549060ff0219169055600101602081600001049283019260010302611921565b505b50905061195d9190611961565b5090565b5b8082111561197a576000816000905550600101611962565b5090565b6000819050919050565b6119918161197e565b82525050565b60006020820190506119ac6000830184611988565b92915050565b6000604051905090565b600080fd5b600080fd5b600080fd5b6000601f19601f8301169050919050565b7f4e487b7100000000000000000000000000000000000000000000000000000000600052604160045260246000fd5b611a14826119cb565b810181811067ffffffffffffffff82111715611a3357611a326119dc565b5b80604052505050565b6000611a466119b2565b9050611a528282611a0b565b919050565b600067ffffffffffffffff821115611a7257611a716119dc565b5b602082029050602081019050919050565b600080fd5b600073ffffffffffffffffffffffffffffffffffffffff82169050919050565b6000611ab382611a88565b9050919050565b611ac381611aa8565b8114611ace57600080fd5b50565b600081359050611ae081611aba565b92915050565b6000611af9611af484611a57565b611a3c565b90508083825260208201905060208402830185811115611b1c57611b1b611a83565b5b835b81811015611b455780611b318882611ad1565b845260208401935050602081019050611b1e565b5050509392505050565b600082601f830112611b6457611b636119c6565b5b8135611b74848260208601611ae6565b91505092915050565b60008060408385031215611b9457611b936119bc565b5b600083013567ffffffffffffffff811115611bb257611bb16119c1565b5b611bbe85828601611b4f565b925050602083013567ffffffffffffffff811115611bdf57611bde6119c1565b5b611beb85828601611b4f565b9150509250929050565b60008115159050919050565b611c0a81611bf5565b8114611c1557600080fd5b50565b600081359050611c2781611c01565b92915050565b600060208284031215611c4357611c426119bc565b5b6000611c5184828501611c18565b91505092915050565b611c6381611bf5565b82525050565b6000602082019050611c7e6000830184611c5a565b92915050565b600060208284031215611c9a57611c996119bc565b5b6000611ca884828501611ad1565b91505092915050565b611cba81611aa8565b82525050565b6000602082019050611cd56000830184611cb1565b92915050565b611ce48161197e565b8114611cef57600080fd5b50565b600081359050611d0181611cdb565b92915050565b60008060408385031215611d1e57611d1d6119bc565b5b6000611d2c85828601611ad1565b9250506020611d3d85828601611cf2565b9150509250929050565b60008060408385031215611d5e57611d5d6119bc565b5b6000611d6c85828601611ad1565b9250506020611d7d85828601611c18565b9150509250929050565b600082825260208201905092915050565b7f4e6f74206d616e61676572000000000000000000000000000000000000000000600082015250565b6000611dce600b83611d87565b9150611dd982611d98565b602082019050919050565b60006020820190508181036000830152611dfd81611dc1565b9050919050565b7f6c656e6774682069732077726f6e670000000000000000000000000000000000600082015250565b6000611e3a600f83611d87565b9150611e4582611e04565b602082019050919050565b60006020820190508181036000830152611e6981611e2d565b9050919050565b7f4e487b7100000000000000000000000000000000000000000000000000000000600052603260045260246000fd5b7f616464726573732069732077726f6e6700000000000000000000000000000000600082015250565b6000611ed5601083611d87565b9150611ee082611e9f565b602082019050919050565b60006020820190508181036000830152611f0481611ec8565b9050919050565b7f4e487b7100000000000000000000000000000000000000000000000000000000600052601160045260246000fd5b6000611f458261197e565b91507fffffffffffffffffffffffffffffffffffffffffffffffffffffffffffffffff8203611f7757611f76611f0b565b5b600182019050919050565b600081519050919050565b600082825260208201905092915050565b6000819050602082019050919050565b611fb781611aa8565b82525050565b6000611fc98383611fae565b60208301905092915050565b6000602082019050919050565b6000611fed82611f82565b611ff78185611f8d565b935061200283611f9e565b8060005b8381101561203357815161201a8882611fbd565b975061202583611fd5565b925050600181019050612006565b5085935050505092915050565b6000604082019050818103600083015261205a8185611fe2565b9050818103602083015261206e8184611fe2565b90509392505050565b7f74696d6520697320657869737400000000000000000000000000000000000000600082015250565b60006120ad600d83611d87565b91506120b882612077565b602082019050919050565b600060208201905081810360008301526120dc816120a0565b9050919050565b60006120ee8261197e565b91506120f98361197e565b925082820190508082111561211157612110611f0b565b5b92915050565b7f6e6f742049444f00000000000000000000000000000000000000000000000000600082015250565b600061214d600783611d87565b915061215882612117565b602082019050919050565b6000602082019050818103600083015261217c81612140565b9050919050565b600061218e8261197e565b91506121998361197e565b92508282026121a78161197e565b915082820484148315176121be576121bd611f0b565b5b5092915050565b7f4e487b7100000000000000000000000000000000000000000000000000000000600052601260045260246000fd5b60006121ff8261197e565b915061220a8361197e565b92508261221a576122196121c5565b5b828204905092915050565b600060608201905061223a6000830186611cb1565b6122476020830185611cb1565b6122546040830184611988565b949350505050565b60008151905061226b81611c01565b92915050565b600060208284031215612287576122866119bc565b5b60006122958482850161225c565b91505092915050565b60006122a98261197e565b91506122b48361197e565b92508282039050818111156122cc576122cb611f0b565b5b92915050565b60006040820190506122e76000830185611cb1565b6122f46020830184611988565b9392505050565b7f6e6f7420616c6c6f770000000000000000000000000000000000000000000000600082015250565b6000612331600983611d87565b915061233c826122fb565b602082019050919050565b6000602082019050818103600083015261236081612324565b9050919050565b7f4f776e61626c653a2063616c6c6572206973206e6f7420746865206f776e6572600082015250565b600061239d602083611d87565b91506123a882612367565b602082019050919050565b600060208201905081810360008301526123cc81612390565b905091905056fea264697066735822122003ed866e8c52d5a23863eeb6eeb1552e1c47f8969821798f89ee6f2233f7f7e164736f6c63430008110033",
					"opcodes": "PUSH1 0x80 PUSH1 0x40 MSTORE CALLVALUE DUP1 ISZERO PUSH3 0x11 JUMPI PUSH1 0x0 DUP1 REVERT JUMPDEST POP PUSH1 0x40 MLOAD PUSH3 0x25C0 CODESIZE SUB DUP1 PUSH3 0x25C0 DUP4 CODECOPY DUP2 DUP2 ADD PUSH1 0x40 MSTORE DUP2 ADD SWAP1 PUSH3 0x37 SWAP2 SWAP1 PUSH3 0x160 JUMP JUMPDEST PUSH1 0x1 PUSH1 0x0 DUP1 PUSH2 0x100 EXP DUP2 SLOAD DUP2 PUSH1 0xFF MUL NOT AND SWAP1 DUP4 ISZERO ISZERO MUL OR SWAP1 SSTORE POP PUSH1 0x1 PUSH1 0x0 PUSH1 0x1 PUSH2 0x100 EXP DUP2 SLOAD DUP2 PUSH1 0xFF MUL NOT AND SWAP1 DUP4 ISZERO ISZERO MUL OR SWAP1 SSTORE POP DUP2 PUSH1 0x4 PUSH1 0x0 PUSH2 0x100 EXP DUP2 SLOAD DUP2 PUSH20 0xFFFFFFFFFFFFFFFFFFFFFFFFFFFFFFFFFFFFFFFF MUL NOT AND SWAP1 DUP4 PUSH20 0xFFFFFFFFFFFFFFFFFFFFFFFFFFFFFFFFFFFFFFFF AND MUL OR SWAP1 SSTORE POP DUP1 PUSH1 0x5 PUSH1 0x0 PUSH2 0x100 EXP DUP2 SLOAD DUP2 PUSH20 0xFFFFFFFFFFFFFFFFFFFFFFFFFFFFFFFFFFFFFFFF MUL NOT AND SWAP1 DUP4 PUSH20 0xFFFFFFFFFFFFFFFFFFFFFFFFFFFFFFFFFFFFFFFF AND MUL OR SWAP1 SSTORE POP POP POP PUSH3 0x1A7 JUMP JUMPDEST PUSH1 0x0 DUP1 REVERT JUMPDEST PUSH1 0x0 PUSH20 0xFFFFFFFFFFFFFFFFFFFFFFFFFFFFFFFFFFFFFFFF DUP3 AND SWAP1 POP SWAP2 SWAP1 POP JUMP JUMPDEST PUSH1 0x0 PUSH3 0x128 DUP3 PUSH3 0xFB JUMP JUMPDEST SWAP1 POP SWAP2 SWAP1 POP JUMP JUMPDEST PUSH3 0x13A DUP2 PUSH3 0x11B JUMP JUMPDEST DUP2 EQ PUSH3 0x146 JUMPI PUSH1 0x0 DUP1 REVERT JUMPDEST POP JUMP JUMPDEST PUSH1 0x0 DUP2 MLOAD SWAP1 POP PUSH3 0x15A DUP2 PUSH3 0x12F JUMP JUMPDEST SWAP3 SWAP2 POP POP JUMP JUMPDEST PUSH1 0x0 DUP1 PUSH1 0x40 DUP4 DUP6 SUB SLT ISZERO PUSH3 0x17A JUMPI PUSH3 0x179 PUSH3 0xF6 JUMP JUMPDEST JUMPDEST PUSH1 0x0 PUSH3 0x18A DUP6 DUP3 DUP7 ADD PUSH3 0x149 JUMP JUMPDEST SWAP3 POP POP PUSH1 0x20 PUSH3 0x19D DUP6 DUP3 DUP7 ADD PUSH3 0x149 JUMP JUMPDEST SWAP2 POP POP SWAP3 POP SWAP3 SWAP1 POP JUMP JUMPDEST PUSH2 0x2409 DUP1 PUSH3 0x1B7 PUSH1 0x0 CODECOPY PUSH1 0x0 RETURN INVALID PUSH1 0x80 PUSH1 0x40 MSTORE CALLVALUE DUP1 ISZERO PUSH2 0x10 JUMPI PUSH1 0x0 DUP1 REVERT JUMPDEST POP PUSH1 0x4 CALLDATASIZE LT PUSH2 0x12C JUMPI PUSH1 0x0 CALLDATALOAD PUSH1 0xE0 SHR DUP1 PUSH4 0x965ED465 GT PUSH2 0xAD JUMPI DUP1 PUSH4 0xE72EBDB7 GT PUSH2 0x71 JUMPI DUP1 PUSH4 0xE72EBDB7 EQ PUSH2 0x2CF JUMPI DUP1 PUSH4 0xF06B41E3 EQ PUSH2 0x2FF JUMPI DUP1 PUSH4 0xF3AE2415 EQ PUSH2 0x32F JUMPI DUP1 PUSH4 0xF56E9C66 EQ PUSH2 0x35F JUMPI DUP1 PUSH4 0xFB066531 EQ PUSH2 0x37B JUMPI PUSH2 0x12C JUMP JUMPDEST DUP1 PUSH4 0x965ED465 EQ PUSH2 0x253 JUMPI DUP1 PUSH4 0x98269B6A EQ PUSH2 0x26F JUMPI DUP1 PUSH4 0xA5E90EEE EQ PUSH2 0x279 JUMPI DUP1 PUSH4 0xB6DD3104 EQ PUSH2 0x295 JUMPI DUP1 PUSH4 0xC6B24C1C EQ PUSH2 0x2B1 JUMPI PUSH2 0x12C JUMP JUMPDEST DUP1 PUSH4 0x6A41D5D7 GT PUSH2 0xF4 JUMPI DUP1 PUSH4 0x6A41D5D7 EQ PUSH2 0x1C3 JUMPI DUP1 PUSH4 0x76BE6AF6 EQ PUSH2 0x1F3 JUMPI DUP1 PUSH4 0x8DA5CB5B EQ PUSH2 0x1FD JUMPI DUP1 PUSH4 0x8DD0ABAA EQ PUSH2 0x21B JUMPI DUP1 PUSH4 0x918A6283 EQ PUSH2 0x237 JUMPI PUSH2 0x12C JUMP JUMPDEST DUP1 PUSH4 0x18160DDD EQ PUSH2 0x131 JUMPI DUP1 PUSH4 0x238C4C2F EQ PUSH2 0x14F JUMPI DUP1 PUSH4 0x3197CBB6 EQ PUSH2 0x16B JUMPI DUP1 PUSH4 0x37B1A023 EQ PUSH2 0x189 JUMPI DUP1 PUSH4 0x5DB98F2D EQ PUSH2 0x1A5 JUMPI JUMPDEST PUSH1 0x0 DUP1 REVERT JUMPDEST PUSH2 0x139 PUSH2 0x399 JUMP JUMPDEST PUSH1 0x40 MLOAD PUSH2 0x146 SWAP2 SWAP1 PUSH2 0x1997 JUMP JUMPDEST PUSH1 0x40 MLOAD DUP1 SWAP2 SUB SWAP1 RETURN JUMPDEST PUSH2 0x169 PUSH1 0x4 DUP1 CALLDATASIZE SUB DUP2 ADD SWAP1 PUSH2 0x164 SWAP2 SWAP1 PUSH2 0x1B7D JUMP JUMPDEST PUSH2 0x39F JUMP JUMPDEST STOP JUMPDEST PUSH2 0x173 PUSH2 0x607 JUMP JUMPDEST PUSH1 0x40 MLOAD PUSH2 0x180 SWAP2 SWAP1 PUSH2 0x1997 JUMP JUMPDEST PUSH1 0x40 MLOAD DUP1 SWAP2 SUB SWAP1 RETURN JUMPDEST PUSH2 0x1A3 PUSH1 0x4 DUP1 CALLDATASIZE SUB DUP2 ADD SWAP1 PUSH2 0x19E SWAP2 SWAP1 PUSH2 0x1C2D JUMP JUMPDEST PUSH2 0x60D JUMP JUMPDEST STOP JUMPDEST PUSH2 0x1AD PUSH2 0x6B6 JUMP JUMPDEST PUSH1 0x40 MLOAD PUSH2 0x1BA SWAP2 SWAP1 PUSH2 0x1C69 JUMP JUMPDEST PUSH1 0x40 MLOAD DUP1 SWAP2 SUB SWAP1 RETURN JUMPDEST PUSH2 0x1DD PUSH1 0x4 DUP1 CALLDATASIZE SUB DUP2 ADD SWAP1 PUSH2 0x1D8 SWAP2 SWAP1 PUSH2 0x1C84 JUMP JUMPDEST PUSH2 0x6C9 JUMP JUMPDEST PUSH1 0x40 MLOAD PUSH2 0x1EA SWAP2 SWAP1 PUSH2 0x1997 JUMP JUMPDEST PUSH1 0x40 MLOAD DUP1 SWAP2 SUB SWAP1 RETURN JUMPDEST PUSH2 0x1FB PUSH2 0x6E1 JUMP JUMPDEST STOP JUMPDEST PUSH2 0x205 PUSH2 0x7BB JUMP JUMPDEST PUSH1 0x40 MLOAD PUSH2 0x212 SWAP2 SWAP1 PUSH2 0x1CC0 JUMP JUMPDEST PUSH1 0x40 MLOAD DUP1 SWAP2 SUB SWAP1 RETURN JUMPDEST PUSH2 0x235 PUSH1 0x4 DUP1 CALLDATASIZE SUB DUP2 ADD SWAP1 PUSH2 0x230 SWAP2 SWAP1 PUSH2 0x1D07 JUMP JUMPDEST PUSH2 0x7E4 JUMP JUMPDEST STOP JUMPDEST PUSH2 0x251 PUSH1 0x4 DUP1 CALLDATASIZE SUB DUP2 ADD SWAP1 PUSH2 0x24C SWAP2 SWAP1 PUSH2 0x1C84 JUMP JUMPDEST PUSH2 0xFEE JUMP JUMPDEST STOP JUMPDEST PUSH2 0x26D PUSH1 0x4 DUP1 CALLDATASIZE SUB DUP2 ADD SWAP1 PUSH2 0x268 SWAP2 SWAP1 PUSH2 0x1C84 JUMP JUMPDEST PUSH2 0x10DB JUMP JUMPDEST STOP JUMPDEST PUSH2 0x277 PUSH2 0x11AB JUMP JUMPDEST STOP JUMPDEST PUSH2 0x293 PUSH1 0x4 DUP1 CALLDATASIZE SUB DUP2 ADD SWAP1 PUSH2 0x28E SWAP2 SWAP1 PUSH2 0x1D47 JUMP JUMPDEST PUSH2 0x15D1 JUMP JUMPDEST STOP JUMPDEST PUSH2 0x2AF PUSH1 0x4 DUP1 CALLDATASIZE SUB DUP2 ADD SWAP1 PUSH2 0x2AA SWAP2 SWAP1 PUSH2 0x1C2D JUMP JUMPDEST PUSH2 0x16A1 JUMP JUMPDEST STOP JUMPDEST PUSH2 0x2B9 PUSH2 0x1749 JUMP JUMPDEST PUSH1 0x40 MLOAD PUSH2 0x2C6 SWAP2 SWAP1 PUSH2 0x1CC0 JUMP JUMPDEST PUSH1 0x40 MLOAD DUP1 SWAP2 SUB SWAP1 RETURN JUMPDEST PUSH2 0x2E9 PUSH1 0x4 DUP1 CALLDATASIZE SUB DUP2 ADD SWAP1 PUSH2 0x2E4 SWAP2 SWAP1 PUSH2 0x1C84 JUMP JUMPDEST PUSH2 0x176F JUMP JUMPDEST PUSH1 0x40 MLOAD PUSH2 0x2F6 SWAP2 SWAP1 PUSH2 0x1CC0 JUMP JUMPDEST PUSH1 0x40 MLOAD DUP1 SWAP2 SUB SWAP1 RETURN JUMPDEST PUSH2 0x319 PUSH1 0x4 DUP1 CALLDATASIZE SUB DUP2 ADD SWAP1 PUSH2 0x314 SWAP2 SWAP1 PUSH2 0x1C84 JUMP JUMPDEST PUSH2 0x17A2 JUMP JUMPDEST PUSH1 0x40 MLOAD PUSH2 0x326 SWAP2 SWAP1 PUSH2 0x1997 JUMP JUMPDEST PUSH1 0x40 MLOAD DUP1 SWAP2 SUB SWAP1 RETURN JUMPDEST PUSH2 0x349 PUSH1 0x4 DUP1 CALLDATASIZE SUB DUP2 ADD SWAP1 PUSH2 0x344 SWAP2 SWAP1 PUSH2 0x1C84 JUMP JUMPDEST PUSH2 0x17BA JUMP JUMPDEST PUSH1 0x40 MLOAD PUSH2 0x356 SWAP2 SWAP1 PUSH2 0x1C69 JUMP JUMPDEST PUSH1 0x40 MLOAD DUP1 SWAP2 SUB SWAP1 RETURN JUMPDEST PUSH2 0x379 PUSH1 0x4 DUP1 CALLDATASIZE SUB DUP2 ADD SWAP1 PUSH2 0x374 SWAP2 SWAP1 PUSH2 0x1C84 JUMP JUMPDEST PUSH2 0x17DA JUMP JUMPDEST STOP JUMPDEST PUSH2 0x383 PUSH2 0x18AA JUMP JUMPDEST PUSH1 0x40 MLOAD PUSH2 0x390 SWAP2 SWAP1 PUSH2 0x1C69 JUMP JUMPDEST PUSH1 0x40 MLOAD DUP1 SWAP2 SUB SWAP1 RETURN JUMPDEST PUSH1 0x2 SLOAD DUP2 JUMP JUMPDEST PUSH1 0x3 PUSH1 0x0 CALLER PUSH20 0xFFFFFFFFFFFFFFFFFFFFFFFFFFFFFFFFFFFFFFFF AND PUSH20 0xFFFFFFFFFFFFFFFFFFFFFFFFFFFFFFFFFFFFFFFF AND DUP2 MSTORE PUSH1 0x20 ADD SWAP1 DUP2 MSTORE PUSH1 0x20 ADD PUSH1 0x0 KECCAK256 PUSH1 0x0 SWAP1 SLOAD SWAP1 PUSH2 0x100 EXP SWAP1 DIV PUSH1 0xFF AND PUSH2 0x42B JUMPI PUSH1 0x40 MLOAD PUSH32 0x8C379A000000000000000000000000000000000000000000000000000000000 DUP2 MSTORE PUSH1 0x4 ADD PUSH2 0x422 SWAP1 PUSH2 0x1DE4 JUMP JUMPDEST PUSH1 0x40 MLOAD DUP1 SWAP2 SUB SWAP1 REVERT JUMPDEST DUP1 MLOAD DUP3 MLOAD EQ PUSH2 0x46F JUMPI PUSH1 0x40 MLOAD PUSH32 0x8C379A000000000000000000000000000000000000000000000000000000000 DUP2 MSTORE PUSH1 0x4 ADD PUSH2 0x466 SWAP1 PUSH2 0x1E50 JUMP JUMPDEST PUSH1 0x40 MLOAD DUP1 SWAP2 SUB SWAP1 REVERT JUMPDEST PUSH1 0x0 JUMPDEST DUP3 MLOAD DUP2 LT ISZERO PUSH2 0x5C9 JUMPI PUSH1 0x0 PUSH20 0xFFFFFFFFFFFFFFFFFFFFFFFFFFFFFFFFFFFFFFFF AND DUP4 DUP3 DUP2 MLOAD DUP2 LT PUSH2 0x4A6 JUMPI PUSH2 0x4A5 PUSH2 0x1E70 JUMP JUMPDEST JUMPDEST PUSH1 0x20 MUL PUSH1 0x20 ADD ADD MLOAD PUSH20 0xFFFFFFFFFFFFFFFFFFFFFFFFFFFFFFFFFFFFFFFF AND SUB PUSH2 0x504 JUMPI PUSH1 0x40 MLOAD PUSH32 0x8C379A000000000000000000000000000000000000000000000000000000000 DUP2 MSTORE PUSH1 0x4 ADD PUSH2 0x4FB SWAP1 PUSH2 0x1EEB JUMP JUMPDEST PUSH1 0x40 MLOAD DUP1 SWAP2 SUB SWAP1 REVERT JUMPDEST DUP2 DUP2 DUP2 MLOAD DUP2 LT PUSH2 0x517 JUMPI PUSH2 0x516 PUSH2 0x1E70 JUMP JUMPDEST JUMPDEST PUSH1 0x20 MUL PUSH1 0x20 ADD ADD MLOAD PUSH1 0x9 PUSH1 0x0 DUP6 DUP5 DUP2 MLOAD DUP2 LT PUSH2 0x536 JUMPI PUSH2 0x535 PUSH2 0x1E70 JUMP JUMPDEST JUMPDEST PUSH1 0x20 MUL PUSH1 0x20 ADD ADD MLOAD PUSH20 0xFFFFFFFFFFFFFFFFFFFFFFFFFFFFFFFFFFFFFFFF AND PUSH20 0xFFFFFFFFFFFFFFFFFFFFFFFFFFFFFFFFFFFFFFFF AND DUP2 MSTORE PUSH1 0x20 ADD SWAP1 DUP2 MSTORE PUSH1 0x20 ADD PUSH1 0x0 KECCAK256 PUSH1 0x0 PUSH2 0x100 EXP DUP2 SLOAD DUP2 PUSH20 0xFFFFFFFFFFFFFFFFFFFFFFFFFFFFFFFFFFFFFFFF MUL NOT AND SWAP1 DUP4 PUSH20 0xFFFFFFFFFFFFFFFFFFFFFFFFFFFFFFFFFFFFFFFF AND MUL OR SWAP1 SSTORE POP DUP1 DUP1 PUSH2 0x5C1 SWAP1 PUSH2 0x1F3A JUMP JUMPDEST SWAP2 POP POP PUSH2 0x472 JUMP JUMPDEST POP PUSH32 0x1886F03D42B471BC8FAF784E3878FCE329E8E139473C601B8648DE73B3380C02 DUP3 DUP3 PUSH1 0x40 MLOAD PUSH2 0x5FB SWAP3 SWAP2 SWAP1 PUSH2 0x2040 JUMP JUMPDEST PUSH1 0x40 MLOAD DUP1 SWAP2 SUB SWAP1 LOG1 POP POP JUMP JUMPDEST PUSH1 0x1 SLOAD DUP2 JUMP JUMPDEST PUSH1 0x3 PUSH1 0x0 CALLER PUSH20 0xFFFFFFFFFFFFFFFFFFFFFFFFFFFFFFFFFFFFFFFF AND PUSH20 0xFFFFFFFFFFFFFFFFFFFFFFFFFFFFFFFFFFFFFFFF AND DUP2 MSTORE PUSH1 0x20 ADD SWAP1 DUP2 MSTORE PUSH1 0x20 ADD PUSH1 0x0 KECCAK256 PUSH1 0x0 SWAP1 SLOAD SWAP1 PUSH2 0x100 EXP SWAP1 DIV PUSH1 0xFF AND PUSH2 0x699 JUMPI PUSH1 0x40 MLOAD PUSH32 0x8C379A000000000000000000000000000000000000000000000000000000000 DUP2 MSTORE PUSH1 0x4 ADD PUSH2 0x690 SWAP1 PUSH2 0x1DE4 JUMP JUMPDEST PUSH1 0x40 MLOAD DUP1 SWAP2 SUB SWAP1 REVERT JUMPDEST DUP1 PUSH1 0x0 PUSH1 0x1 PUSH2 0x100 EXP DUP2 SLOAD DUP2 PUSH1 0xFF MUL NOT AND SWAP1 DUP4 ISZERO ISZERO MUL OR SWAP1 SSTORE POP POP JUMP JUMPDEST PUSH1 0x0 PUSH1 0x1 SWAP1 SLOAD SWAP1 PUSH2 0x100 EXP SWAP1 DIV PUSH1 0xFF AND DUP2 JUMP JUMPDEST PUSH1 0xA PUSH1 0x20 MSTORE DUP1 PUSH1 0x0 MSTORE PUSH1 0x40 PUSH1 0x0 KECCAK256 PUSH1 0x0 SWAP2 POP SWAP1 POP SLOAD DUP2 JUMP JUMPDEST PUSH1 0x3 PUSH1 0x0 CALLER PUSH20 0xFFFFFFFFFFFFFFFFFFFFFFFFFFFFFFFFFFFFFFFF AND PUSH20 0xFFFFFFFFFFFFFFFFFFFFFFFFFFFFFFFFFFFFFFFF AND DUP2 MSTORE PUSH1 0x20 ADD SWAP1 DUP2 MSTORE PUSH1 0x20 ADD PUSH1 0x0 KECCAK256 PUSH1 0x0 SWAP1 SLOAD SWAP1 PUSH2 0x100 EXP SWAP1 DIV PUSH1 0xFF AND PUSH2 0x76D JUMPI PUSH1 0x40 MLOAD PUSH32 0x8C379A000000000000000000000000000000000000000000000000000000000 DUP2 MSTORE PUSH1 0x4 ADD PUSH2 0x764 SWAP1 PUSH2 0x1DE4 JUMP JUMPDEST PUSH1 0x40 MLOAD DUP1 SWAP2 SUB SWAP1 REVERT JUMPDEST PUSH1 0x0 PUSH1 0x1 SLOAD EQ PUSH2 0x7B2 JUMPI PUSH1 0x40 MLOAD PUSH32 0x8C379A000000000000000000000000000000000000000000000000000000000 DUP2 MSTORE PUSH1 0x4 ADD PUSH2 0x7A9 SWAP1 PUSH2 0x20C3 JUMP JUMPDEST PUSH1 0x40 MLOAD DUP1 SWAP2 SUB SWAP1 REVERT JUMPDEST TIMESTAMP PUSH1 0x1 DUP2 SWAP1 SSTORE POP JUMP JUMPDEST PUSH1 0x0 DUP1 PUSH1 0x2 SWAP1 SLOAD SWAP1 PUSH2 0x100 EXP SWAP1 DIV PUSH20 0xFFFFFFFFFFFFFFFFFFFFFFFFFFFFFFFFFFFFFFFF AND SWAP1 POP SWAP1 JUMP JUMPDEST PUSH1 0x0 PUSH1 0xA PUSH1 0x0 DUP5 PUSH20 0xFFFFFFFFFFFFFFFFFFFFFFFFFFFFFFFFFFFFFFFF AND PUSH20 0xFFFFFFFFFFFFFFFFFFFFFFFFFFFFFFFFFFFFFFFF AND DUP2 MSTORE PUSH1 0x20 ADD SWAP1 DUP2 MSTORE PUSH1 0x20 ADD PUSH1 0x0 KECCAK256 SLOAD SWAP1 POP PUSH2 0x7D0 DUP2 LT ISZERO DUP1 PUSH2 0x845 JUMPI POP PUSH2 0x7D0 DUP3 DUP3 PUSH2 0x843 SWAP2 SWAP1 PUSH2 0x20E3 JUMP JUMPDEST GT JUMPDEST PUSH2 0x884 JUMPI PUSH1 0x40 MLOAD PUSH32 0x8C379A000000000000000000000000000000000000000000000000000000000 DUP2 MSTORE PUSH1 0x4 ADD PUSH2 0x87B SWAP1 PUSH2 0x2163 JUMP JUMPDEST PUSH1 0x40 MLOAD DUP1 SWAP2 SUB SWAP1 REVERT JUMPDEST PUSH1 0x0 PUSH1 0x9 PUSH1 0x0 DUP6 PUSH20 0xFFFFFFFFFFFFFFFFFFFFFFFFFFFFFFFFFFFFFFFF AND PUSH20 0xFFFFFFFFFFFFFFFFFFFFFFFFFFFFFFFFFFFFFFFF AND DUP2 MSTORE PUSH1 0x20 ADD SWAP1 DUP2 MSTORE PUSH1 0x20 ADD PUSH1 0x0 KECCAK256 PUSH1 0x0 SWAP1 SLOAD SWAP1 PUSH2 0x100 EXP SWAP1 DIV PUSH20 0xFFFFFFFFFFFFFFFFFFFFFFFFFFFFFFFFFFFFFFFF AND SWAP1 POP PUSH1 0x0 PUSH20 0xFFFFFFFFFFFFFFFFFFFFFFFFFFFFFFFFFFFFFFFF AND DUP2 PUSH20 0xFFFFFFFFFFFFFFFFFFFFFFFFFFFFFFFFFFFFFFFF AND EQ PUSH2 0xC55 JUMPI PUSH1 0x0 PUSH1 0xA PUSH1 0x0 DUP4 PUSH20 0xFFFFFFFFFFFFFFFFFFFFFFFFFFFFFFFFFFFFFFFF AND PUSH20 0xFFFFFFFFFFFFFFFFFFFFFFFFFFFFFFFFFFFFFFFF AND DUP2 MSTORE PUSH1 0x20 ADD SWAP1 DUP2 MSTORE PUSH1 0x20 ADD PUSH1 0x0 KECCAK256 SLOAD GT ISZERO PUSH2 0xAFC JUMPI PUSH1 0x0 PUSH2 0x2710 PUSH2 0x1F4 DUP6 PUSH2 0x977 SWAP2 SWAP1 PUSH2 0x2183 JUMP JUMPDEST PUSH2 0x981 SWAP2 SWAP1 PUSH2 0x21F4 JUMP JUMPDEST SWAP1 POP PUSH1 0x5 PUSH1 0x0 SWAP1 SLOAD SWAP1 PUSH2 0x100 EXP SWAP1 DIV PUSH20 0xFFFFFFFFFFFFFFFFFFFFFFFFFFFFFFFFFFFFFFFF AND PUSH20 0xFFFFFFFFFFFFFFFFFFFFFFFFFFFFFFFFFFFFFFFF AND PUSH4 0x23B872DD DUP7 DUP5 DUP5 PUSH1 0x40 MLOAD DUP5 PUSH4 0xFFFFFFFF AND PUSH1 0xE0 SHL DUP2 MSTORE PUSH1 0x4 ADD PUSH2 0x9E2 SWAP4 SWAP3 SWAP2 SWAP1 PUSH2 0x2225 JUMP JUMPDEST PUSH1 0x20 PUSH1 0x40 MLOAD DUP1 DUP4 SUB DUP2 PUSH1 0x0 DUP8 GAS CALL ISZERO DUP1 ISZERO PUSH2 0xA01 JUMPI RETURNDATASIZE PUSH1 0x0 DUP1 RETURNDATACOPY RETURNDATASIZE PUSH1 0x0 REVERT JUMPDEST POP POP POP POP PUSH1 0x40 MLOAD RETURNDATASIZE PUSH1 0x1F NOT PUSH1 0x1F DUP3 ADD AND DUP3 ADD DUP1 PUSH1 0x40 MSTORE POP DUP2 ADD SWAP1 PUSH2 0xA25 SWAP2 SWAP1 PUSH2 0x2271 JUMP JUMPDEST POP PUSH1 0x5 PUSH1 0x0 SWAP1 SLOAD SWAP1 PUSH2 0x100 EXP SWAP1 DIV PUSH20 0xFFFFFFFFFFFFFFFFFFFFFFFFFFFFFFFFFFFFFFFF AND PUSH20 0xFFFFFFFFFFFFFFFFFFFFFFFFFFFFFFFFFFFFFFFF AND PUSH4 0x23B872DD DUP7 PUSH1 0x4 PUSH1 0x0 SWAP1 SLOAD SWAP1 PUSH2 0x100 EXP SWAP1 DIV PUSH20 0xFFFFFFFFFFFFFFFFFFFFFFFFFFFFFFFFFFFFFFFF AND DUP5 DUP9 PUSH2 0xA94 SWAP2 SWAP1 PUSH2 0x229E JUMP JUMPDEST PUSH1 0x40 MLOAD DUP5 PUSH4 0xFFFFFFFF AND PUSH1 0xE0 SHL DUP2 MSTORE PUSH1 0x4 ADD PUSH2 0xAB2 SWAP4 SWAP3 SWAP2 SWAP1 PUSH2 0x2225 JUMP JUMPDEST PUSH1 0x20 PUSH1 0x40 MLOAD DUP1 DUP4 SUB DUP2 PUSH1 0x0 DUP8 GAS CALL ISZERO DUP1 ISZERO PUSH2 0xAD1 JUMPI RETURNDATASIZE PUSH1 0x0 DUP1 RETURNDATACOPY RETURNDATASIZE PUSH1 0x0 REVERT JUMPDEST POP POP POP POP PUSH1 0x40 MLOAD RETURNDATASIZE PUSH1 0x1F NOT PUSH1 0x1F DUP3 ADD AND DUP3 ADD DUP1 PUSH1 0x40 MSTORE POP DUP2 ADD SWAP1 PUSH2 0xAF5 SWAP2 SWAP1 PUSH2 0x2271 JUMP JUMPDEST POP POP PUSH2 0xBC2 JUMP JUMPDEST PUSH1 0x5 PUSH1 0x0 SWAP1 SLOAD SWAP1 PUSH2 0x100 EXP SWAP1 DIV PUSH20 0xFFFFFFFFFFFFFFFFFFFFFFFFFFFFFFFFFFFFFFFF AND PUSH20 0xFFFFFFFFFFFFFFFFFFFFFFFFFFFFFFFFFFFFFFFF AND PUSH4 0x23B872DD DUP6 PUSH1 0x4 PUSH1 0x0 SWAP1 SLOAD SWAP1 PUSH2 0x100 EXP SWAP1 DIV PUSH20 0xFFFFFFFFFFFFFFFFFFFFFFFFFFFFFFFFFFFFFFFF AND DUP7 PUSH1 0x40 MLOAD DUP5 PUSH4 0xFFFFFFFF AND PUSH1 0xE0 SHL DUP2 MSTORE PUSH1 0x4 ADD PUSH2 0xB7D SWAP4 SWAP3 SWAP2 SWAP1 PUSH2 0x2225 JUMP JUMPDEST PUSH1 0x20 PUSH1 0x40 MLOAD DUP1 DUP4 SUB DUP2 PUSH1 0x0 DUP8 GAS CALL ISZERO DUP1 ISZERO PUSH2 0xB9C JUMPI RETURNDATASIZE PUSH1 0x0 DUP1 RETURNDATACOPY RETURNDATASIZE PUSH1 0x0 REVERT JUMPDEST POP POP POP POP PUSH1 0x40 MLOAD RETURNDATASIZE PUSH1 0x1F NOT PUSH1 0x1F DUP3 ADD AND DUP3 ADD DUP1 PUSH1 0x40 MSTORE POP DUP2 ADD SWAP1 PUSH2 0xBC0 SWAP2 SWAP1 PUSH2 0x2271 JUMP JUMPDEST POP JUMPDEST DUP3 PUSH1 0xB PUSH1 0x0 DUP4 PUSH20 0xFFFFFFFFFFFFFFFFFFFFFFFFFFFFFFFFFFFFFFFF AND PUSH20 0xFFFFFFFFFFFFFFFFFFFFFFFFFFFFFFFFFFFFFFFF AND DUP2 MSTORE PUSH1 0x20 ADD SWAP1 DUP2 MSTORE PUSH1 0x20 ADD PUSH1 0x0 KECCAK256 SLOAD PUSH2 0xC0D SWAP2 SWAP1 PUSH2 0x20E3 JUMP JUMPDEST PUSH1 0xB PUSH1 0x0 DUP4 PUSH20 0xFFFFFFFFFFFFFFFFFFFFFFFFFFFFFFFFFFFFFFFF AND PUSH20 0xFFFFFFFFFFFFFFFFFFFFFFFFFFFFFFFFFFFFFFFF AND DUP2 MSTORE PUSH1 0x20 ADD SWAP1 DUP2 MSTORE PUSH1 0x20 ADD PUSH1 0x0 KECCAK256 DUP2 SWAP1 SSTORE POP PUSH2 0xD1B JUMP JUMPDEST PUSH1 0x5 PUSH1 0x0 SWAP1 SLOAD SWAP1 PUSH2 0x100 EXP SWAP1 DIV PUSH20 0xFFFFFFFFFFFFFFFFFFFFFFFFFFFFFFFFFFFFFFFF AND PUSH20 0xFFFFFFFFFFFFFFFFFFFFFFFFFFFFFFFFFFFFFFFF AND PUSH4 0x23B872DD DUP6 PUSH1 0x4 PUSH1 0x0 SWAP1 SLOAD SWAP1 PUSH2 0x100 EXP SWAP1 DIV PUSH20 0xFFFFFFFFFFFFFFFFFFFFFFFFFFFFFFFFFFFFFFFF AND DUP7 PUSH1 0x40 MLOAD DUP5 PUSH4 0xFFFFFFFF AND PUSH1 0xE0 SHL DUP2 MSTORE PUSH1 0x4 ADD PUSH2 0xCD6 SWAP4 SWAP3 SWAP2 SWAP1 PUSH2 0x2225 JUMP JUMPDEST PUSH1 0x20 PUSH1 0x40 MLOAD DUP1 DUP4 SUB DUP2 PUSH1 0x0 DUP8 GAS CALL ISZERO DUP1 ISZERO PUSH2 0xCF5 JUMPI RETURNDATASIZE PUSH1 0x0 DUP1 RETURNDATACOPY RETURNDATASIZE PUSH1 0x0 REVERT JUMPDEST POP POP POP POP PUSH1 0x40 MLOAD RETURNDATASIZE PUSH1 0x1F NOT PUSH1 0x1F DUP3 ADD AND DUP3 ADD DUP1 PUSH1 0x40 MSTORE POP DUP2 ADD SWAP1 PUSH2 0xD19 SWAP2 SWAP1 PUSH2 0x2271 JUMP JUMPDEST POP JUMPDEST DUP3 DUP3 PUSH2 0xD27 SWAP2 SWAP1 PUSH2 0x20E3 JUMP JUMPDEST PUSH1 0xA PUSH1 0x0 DUP7 PUSH20 0xFFFFFFFFFFFFFFFFFFFFFFFFFFFFFFFFFFFFFFFF AND PUSH20 0xFFFFFFFFFFFFFFFFFFFFFFFFFFFFFFFFFFFFFFFF AND DUP2 MSTORE PUSH1 0x20 ADD SWAP1 DUP2 MSTORE PUSH1 0x20 ADD PUSH1 0x0 KECCAK256 DUP2 SWAP1 SSTORE POP PUSH2 0x7D0 PUSH1 0xA PUSH1 0x0 DUP7 PUSH20 0xFFFFFFFFFFFFFFFFFFFFFFFFFFFFFFFFFFFFFFFF AND PUSH20 0xFFFFFFFFFFFFFFFFFFFFFFFFFFFFFFFFFFFFFFFF AND DUP2 MSTORE PUSH1 0x20 ADD SWAP1 DUP2 MSTORE PUSH1 0x20 ADD PUSH1 0x0 KECCAK256 SLOAD LT PUSH2 0xE40 JUMPI PUSH1 0x6 PUSH1 0x0 SWAP1 SLOAD SWAP1 PUSH2 0x100 EXP SWAP1 DIV PUSH20 0xFFFFFFFFFFFFFFFFFFFFFFFFFFFFFFFFFFFFFFFF AND PUSH20 0xFFFFFFFFFFFFFFFFFFFFFFFFFFFFFFFFFFFFFFFF AND PUSH4 0x40D097C3 DUP6 PUSH1 0x40 MLOAD DUP3 PUSH4 0xFFFFFFFF AND PUSH1 0xE0 SHL DUP2 MSTORE PUSH1 0x4 ADD PUSH2 0xE0D SWAP2 SWAP1 PUSH2 0x1CC0 JUMP JUMPDEST PUSH1 0x0 PUSH1 0x40 MLOAD DUP1 DUP4 SUB DUP2 PUSH1 0x0 DUP8 DUP1 EXTCODESIZE ISZERO DUP1 ISZERO PUSH2 0xE27 JUMPI PUSH1 0x0 DUP1 REVERT JUMPDEST POP GAS CALL ISZERO DUP1 ISZERO PUSH2 0xE3B JUMPI RETURNDATASIZE PUSH1 0x0 DUP1 RETURNDATACOPY RETURNDATASIZE PUSH1 0x0 REVERT JUMPDEST POP POP POP POP JUMPDEST PUSH2 0xBB8 PUSH1 0xB PUSH1 0x0 DUP4 PUSH20 0xFFFFFFFFFFFFFFFFFFFFFFFFFFFFFFFFFFFFFFFF AND PUSH20 0xFFFFFFFFFFFFFFFFFFFFFFFFFFFFFFFFFFFFFFFF AND DUP2 MSTORE PUSH1 0x20 ADD SWAP1 DUP2 MSTORE PUSH1 0x20 ADD PUSH1 0x0 KECCAK256 SLOAD LT PUSH2 0xFA6 JUMPI PUSH1 0x6 PUSH1 0x0 SWAP1 SLOAD SWAP1 PUSH2 0x100 EXP SWAP1 DIV PUSH20 0xFFFFFFFFFFFFFFFFFFFFFFFFFFFFFFFFFFFFFFFF AND PUSH20 0xFFFFFFFFFFFFFFFFFFFFFFFFFFFFFFFFFFFFFFFF AND PUSH4 0x40D097C3 DUP3 PUSH1 0x40 MLOAD DUP3 PUSH4 0xFFFFFFFF AND PUSH1 0xE0 SHL DUP2 MSTORE PUSH1 0x4 ADD PUSH2 0xEE3 SWAP2 SWAP1 PUSH2 0x1CC0 JUMP JUMPDEST PUSH1 0x0 PUSH1 0x40 MLOAD DUP1 DUP4 SUB DUP2 PUSH1 0x0 DUP8 DUP1 EXTCODESIZE ISZERO DUP1 ISZERO PUSH2 0xEFD JUMPI PUSH1 0x0 DUP1 REVERT JUMPDEST POP GAS CALL ISZERO DUP1 ISZERO PUSH2 0xF11 JUMPI RETURNDATASIZE PUSH1 0x0 DUP1 RETURNDATACOPY RETURNDATASIZE PUSH1 0x0 REVERT JUMPDEST POP POP POP POP PUSH2 0xBB8 PUSH1 0xB PUSH1 0x0 DUP4 PUSH20 0xFFFFFFFFFFFFFFFFFFFFFFFFFFFFFFFFFFFFFFFF AND PUSH20 0xFFFFFFFFFFFFFFFFFFFFFFFFFFFFFFFFFFFFFFFF AND DUP2 MSTORE PUSH1 0x20 ADD SWAP1 DUP2 MSTORE PUSH1 0x20 ADD PUSH1 0x0 KECCAK256 SLOAD PUSH2 0xF62 SWAP2 SWAP1 PUSH2 0x229E JUMP JUMPDEST PUSH1 0xB PUSH1 0x0 DUP4 PUSH20 0xFFFFFFFFFFFFFFFFFFFFFFFFFFFFFFFFFFFFFFFF AND PUSH20 0xFFFFFFFFFFFFFFFFFFFFFFFFFFFFFFFFFFFFFFFF AND DUP2 MSTORE PUSH1 0x20 ADD SWAP1 DUP2 MSTORE PUSH1 0x20 ADD PUSH1 0x0 KECCAK256 DUP2 SWAP1 SSTORE POP JUMPDEST PUSH2 0xFAF DUP5 PUSH2 0xFEE JUMP JUMPDEST PUSH32 0x80BF12451B207525905F2FE9E47714FBCD5AA383B228F656B880136E66B288F DUP5 DUP5 PUSH1 0x40 MLOAD PUSH2 0xFE0 SWAP3 SWAP2 SWAP1 PUSH2 0x22D2 JUMP JUMPDEST PUSH1 0x40 MLOAD DUP1 SWAP2 SUB SWAP1 LOG1 POP POP POP POP JUMP JUMPDEST PUSH1 0x0 PUSH1 0x10 PUSH8 0xFFFFFFFFFFFFFFFF DUP2 GT ISZERO PUSH2 0x100B JUMPI PUSH2 0x100A PUSH2 0x19DC JUMP JUMPDEST JUMPDEST PUSH1 0x40 MLOAD SWAP1 DUP1 DUP3 MSTORE DUP1 PUSH1 0x20 MUL PUSH1 0x20 ADD DUP3 ADD PUSH1 0x40 MSTORE DUP1 ISZERO PUSH2 0x1039 JUMPI DUP2 PUSH1 0x20 ADD PUSH1 0x20 DUP3 MUL DUP1 CALLDATASIZE DUP4 CALLDATACOPY DUP1 DUP3 ADD SWAP2 POP POP SWAP1 POP JUMPDEST POP SWAP1 POP PUSH1 0x0 JUMPDEST DUP2 MLOAD DUP2 LT ISZERO PUSH2 0x1082 JUMPI PUSH1 0x0 DUP3 DUP3 DUP2 MLOAD DUP2 LT PUSH2 0x105D JUMPI PUSH2 0x105C PUSH2 0x1E70 JUMP JUMPDEST JUMPDEST PUSH1 0x20 MUL PUSH1 0x20 ADD ADD SWAP1 ISZERO ISZERO SWAP1 DUP2 ISZERO ISZERO DUP2 MSTORE POP POP DUP1 DUP1 PUSH2 0x107A SWAP1 PUSH2 0x1F3A JUMP JUMPDEST SWAP2 POP POP PUSH2 0x103F JUMP JUMPDEST POP DUP1 PUSH1 0x8 PUSH1 0x0 DUP5 PUSH20 0xFFFFFFFFFFFFFFFFFFFFFFFFFFFFFFFFFFFFFFFF AND PUSH20 0xFFFFFFFFFFFFFFFFFFFFFFFFFFFFFFFFFFFFFFFF AND DUP2 MSTORE PUSH1 0x20 ADD SWAP1 DUP2 MSTORE PUSH1 0x20 ADD PUSH1 0x0 KECCAK256 SWAP1 DUP1 MLOAD SWAP1 PUSH1 0x20 ADD SWAP1 PUSH2 0x10D6 SWAP3 SWAP2 SWAP1 PUSH2 0x18BB JUMP JUMPDEST POP POP POP JUMP JUMPDEST PUSH1 0x3 PUSH1 0x0 CALLER PUSH20 0xFFFFFFFFFFFFFFFFFFFFFFFFFFFFFFFFFFFFFFFF AND PUSH20 0xFFFFFFFFFFFFFFFFFFFFFFFFFFFFFFFFFFFFFFFF AND DUP2 MSTORE PUSH1 0x20 ADD SWAP1 DUP2 MSTORE PUSH1 0x20 ADD PUSH1 0x0 KECCAK256 PUSH1 0x0 SWAP1 SLOAD SWAP1 PUSH2 0x100 EXP SWAP1 DIV PUSH1 0xFF AND PUSH2 0x1167 JUMPI PUSH1 0x40 MLOAD PUSH32 0x8C379A000000000000000000000000000000000000000000000000000000000 DUP2 MSTORE PUSH1 0x4 ADD PUSH2 0x115E SWAP1 PUSH2 0x1DE4 JUMP JUMPDEST PUSH1 0x40 MLOAD DUP1 SWAP2 SUB SWAP1 REVERT JUMPDEST DUP1 PUSH1 0x7 PUSH1 0x0 PUSH2 0x100 EXP DUP2 SLOAD DUP2 PUSH20 0xFFFFFFFFFFFFFFFFFFFFFFFFFFFFFFFFFFFFFFFF MUL NOT AND SWAP1 DUP4 PUSH20 0xFFFFFFFFFFFFFFFFFFFFFFFFFFFFFFFFFFFFFFFF AND MUL OR SWAP1 SSTORE POP POP JUMP JUMPDEST PUSH1 0x0 PUSH1 0xA PUSH1 0x0 CALLER PUSH20 0xFFFFFFFFFFFFFFFFFFFFFFFFFFFFFFFFFFFFFFFF AND PUSH20 0xFFFFFFFFFFFFFFFFFFFFFFFFFFFFFFFFFFFFFFFF AND DUP2 MSTORE PUSH1 0x20 ADD SWAP1 DUP2 MSTORE PUSH1 0x20 ADD PUSH1 0x0 KECCAK256 SLOAD GT PUSH2 0x122D JUMPI PUSH1 0x40 MLOAD PUSH32 0x8C379A000000000000000000000000000000000000000000000000000000000 DUP2 MSTORE PUSH1 0x4 ADD PUSH2 0x1224 SWAP1 PUSH2 0x2347 JUMP JUMPDEST PUSH1 0x40 MLOAD DUP1 SWAP2 SUB SWAP1 REVERT JUMPDEST PUSH1 0x0 DUP1 PUSH1 0x1 SLOAD TIMESTAMP PUSH2 0x123E SWAP2 SWAP1 PUSH2 0x229E JUMP JUMPDEST SWAP1 POP PUSH1 0x0 PUSH3 0x15180 DUP3 PUSH2 0x1251 SWAP2 SWAP1 PUSH2 0x21F4 JUMP JUMPDEST SWAP1 POP PUSH1 0x0 PUSH1 0x78 PUSH2 0xA28 PUSH1 0xA PUSH1 0x0 CALLER PUSH20 0xFFFFFFFFFFFFFFFFFFFFFFFFFFFFFFFFFFFFFFFF AND PUSH20 0xFFFFFFFFFFFFFFFFFFFFFFFFFFFFFFFFFFFFFFFF AND DUP2 MSTORE PUSH1 0x20 ADD SWAP1 DUP2 MSTORE PUSH1 0x20 ADD PUSH1 0x0 KECCAK256 SLOAD PUSH2 0x12A4 SWAP2 SWAP1 PUSH2 0x2183 JUMP JUMPDEST PUSH2 0x12AE SWAP2 SWAP1 PUSH2 0x21F4 JUMP JUMPDEST SWAP1 POP PUSH1 0x1 DUP3 LT ISZERO DUP1 ISZERO PUSH2 0x1330 JUMPI POP PUSH1 0x8 PUSH1 0x0 CALLER PUSH20 0xFFFFFFFFFFFFFFFFFFFFFFFFFFFFFFFFFFFFFFFF AND PUSH20 0xFFFFFFFFFFFFFFFFFFFFFFFFFFFFFFFFFFFFFFFF AND DUP2 MSTORE PUSH1 0x20 ADD SWAP1 DUP2 MSTORE PUSH1 0x20 ADD PUSH1 0x0 KECCAK256 PUSH1 0x0 DUP2 SLOAD DUP2 LT PUSH2 0x130E JUMPI PUSH2 0x130D PUSH2 0x1E70 JUMP JUMPDEST JUMPDEST SWAP1 PUSH1 0x0 MSTORE PUSH1 0x20 PUSH1 0x0 KECCAK256 SWAP1 PUSH1 0x20 SWAP2 DUP3 DUP3 DIV ADD SWAP2 SWAP1 MOD SWAP1 SLOAD SWAP1 PUSH2 0x100 EXP SWAP1 DIV PUSH1 0xFF AND ISZERO JUMPDEST ISZERO PUSH2 0x13D0 JUMPI PUSH2 0x2710 PUSH2 0x3E8 DUP3 PUSH2 0x1346 SWAP2 SWAP1 PUSH2 0x2183 JUMP JUMPDEST PUSH2 0x1350 SWAP2 SWAP1 PUSH2 0x21F4 JUMP JUMPDEST SWAP4 POP PUSH1 0x1 PUSH1 0x8 PUSH1 0x0 CALLER PUSH20 0xFFFFFFFFFFFFFFFFFFFFFFFFFFFFFFFFFFFFFFFF AND PUSH20 0xFFFFFFFFFFFFFFFFFFFFFFFFFFFFFFFFFFFFFFFF AND DUP2 MSTORE PUSH1 0x20 ADD SWAP1 DUP2 MSTORE PUSH1 0x20 ADD PUSH1 0x0 KECCAK256 PUSH1 0x0 DUP2 SLOAD DUP2 LT PUSH2 0x13A6 JUMPI PUSH2 0x13A5 PUSH2 0x1E70 JUMP JUMPDEST JUMPDEST SWAP1 PUSH1 0x0 MSTORE PUSH1 0x20 PUSH1 0x0 KECCAK256 SWAP1 PUSH1 0x20 SWAP2 DUP3 DUP3 DIV ADD SWAP2 SWAP1 MOD PUSH2 0x100 EXP DUP2 SLOAD DUP2 PUSH1 0xFF MUL NOT AND SWAP1 DUP4 ISZERO ISZERO MUL OR SWAP1 SSTORE POP JUMPDEST PUSH1 0x0 PUSH1 0x1E PUSH1 0x1 DUP5 PUSH2 0x13E1 SWAP2 SWAP1 PUSH2 0x229E JUMP JUMPDEST PUSH2 0x13EB SWAP2 SWAP1 PUSH2 0x21F4 JUMP JUMPDEST SWAP1 POP PUSH1 0x0 PUSH1 0x1 SWAP1 POP JUMPDEST DUP2 DUP2 GT PUSH2 0x1528 JUMPI PUSH1 0x8 PUSH1 0x0 CALLER PUSH20 0xFFFFFFFFFFFFFFFFFFFFFFFFFFFFFFFFFFFFFFFF AND PUSH20 0xFFFFFFFFFFFFFFFFFFFFFFFFFFFFFFFFFFFFFFFF AND DUP2 MSTORE PUSH1 0x20 ADD SWAP1 DUP2 MSTORE PUSH1 0x20 ADD PUSH1 0x0 KECCAK256 DUP2 DUP2 SLOAD DUP2 LT PUSH2 0x144C JUMPI PUSH2 0x144B PUSH2 0x1E70 JUMP JUMPDEST JUMPDEST SWAP1 PUSH1 0x0 MSTORE PUSH1 0x20 PUSH1 0x0 KECCAK256 SWAP1 PUSH1 0x20 SWAP2 DUP3 DUP3 DIV ADD SWAP2 SWAP1 MOD SWAP1 SLOAD SWAP1 PUSH2 0x100 EXP SWAP1 DIV PUSH1 0xFF AND PUSH2 0x1515 JUMPI PUSH2 0x2710 PUSH2 0x258 DUP5 PUSH2 0x1481 SWAP2 SWAP1 PUSH2 0x2183 JUMP JUMPDEST PUSH2 0x148B SWAP2 SWAP1 PUSH2 0x21F4 JUMP JUMPDEST DUP7 PUSH2 0x1496 SWAP2 SWAP1 PUSH2 0x20E3 JUMP JUMPDEST SWAP6 POP PUSH1 0x1 PUSH1 0x8 PUSH1 0x0 CALLER PUSH20 0xFFFFFFFFFFFFFFFFFFFFFFFFFFFFFFFFFFFFFFFF AND PUSH20 0xFFFFFFFFFFFFFFFFFFFFFFFFFFFFFFFFFFFFFFFF AND DUP2 MSTORE PUSH1 0x20 ADD SWAP1 DUP2 MSTORE PUSH1 0x20 ADD PUSH1 0x0 KECCAK256 DUP3 DUP2 SLOAD DUP2 LT PUSH2 0x14EB JUMPI PUSH2 0x14EA PUSH2 0x1E70 JUMP JUMPDEST JUMPDEST SWAP1 PUSH1 0x0 MSTORE PUSH1 0x20 PUSH1 0x0 KECCAK256 SWAP1 PUSH1 0x20 SWAP2 DUP3 DUP3 DIV ADD SWAP2 SWAP1 MOD PUSH2 0x100 EXP DUP2 SLOAD DUP2 PUSH1 0xFF MUL NOT AND SWAP1 DUP4 ISZERO ISZERO MUL OR SWAP1 SSTORE POP JUMPDEST DUP1 DUP1 PUSH2 0x1520 SWAP1 PUSH2 0x1F3A JUMP JUMPDEST SWAP2 POP POP PUSH2 0x13F4 JUMP JUMPDEST POP PUSH1 0x7 PUSH1 0x0 SWAP1 SLOAD SWAP1 PUSH2 0x100 EXP SWAP1 DIV PUSH20 0xFFFFFFFFFFFFFFFFFFFFFFFFFFFFFFFFFFFFFFFF AND PUSH20 0xFFFFFFFFFFFFFFFFFFFFFFFFFFFFFFFFFFFFFFFF AND PUSH4 0xA9059CBB CALLER DUP8 PUSH1 0x40 MLOAD DUP4 PUSH4 0xFFFFFFFF AND PUSH1 0xE0 SHL DUP2 MSTORE PUSH1 0x4 ADD PUSH2 0x1586 SWAP3 SWAP2 SWAP1 PUSH2 0x22D2 JUMP JUMPDEST PUSH1 0x20 PUSH1 0x40 MLOAD DUP1 DUP4 SUB DUP2 PUSH1 0x0 DUP8 GAS CALL ISZERO DUP1 ISZERO PUSH2 0x15A5 JUMPI RETURNDATASIZE PUSH1 0x0 DUP1 RETURNDATACOPY RETURNDATASIZE PUSH1 0x0 REVERT JUMPDEST POP POP POP POP PUSH1 0x40 MLOAD RETURNDATASIZE PUSH1 0x1F NOT PUSH1 0x1F DUP3 ADD AND DUP3 ADD DUP1 PUSH1 0x40 MSTORE POP DUP2 ADD SWAP1 PUSH2 0x15C9 SWAP2 SWAP1 PUSH2 0x2271 JUMP JUMPDEST POP POP POP POP POP POP JUMP JUMPDEST CALLER PUSH20 0xFFFFFFFFFFFFFFFFFFFFFFFFFFFFFFFFFFFFFFFF AND PUSH2 0x15F0 PUSH2 0x7BB JUMP JUMPDEST PUSH20 0xFFFFFFFFFFFFFFFFFFFFFFFFFFFFFFFFFFFFFFFF AND EQ PUSH2 0x1646 JUMPI PUSH1 0x40 MLOAD PUSH32 0x8C379A000000000000000000000000000000000000000000000000000000000 DUP2 MSTORE PUSH1 0x4 ADD PUSH2 0x163D SWAP1 PUSH2 0x23B3 JUMP JUMPDEST PUSH1 0x40 MLOAD DUP1 SWAP2 SUB SWAP1 REVERT JUMPDEST DUP1 PUSH1 0x3 PUSH1 0x0 DUP5 PUSH20 0xFFFFFFFFFFFFFFFFFFFFFFFFFFFFFFFFFFFFFFFF AND PUSH20 0xFFFFFFFFFFFFFFFFFFFFFFFFFFFFFFFFFFFFFFFF AND DUP2 MSTORE PUSH1 0x20 ADD SWAP1 DUP2 MSTORE PUSH1 0x20 ADD PUSH1 0x0 KECCAK256 PUSH1 0x0 PUSH2 0x100 EXP DUP2 SLOAD DUP2 PUSH1 0xFF MUL NOT AND SWAP1 DUP4 ISZERO ISZERO MUL OR SWAP1 SSTORE POP POP POP JUMP JUMPDEST PUSH1 0x3 PUSH1 0x0 CALLER PUSH20 0xFFFFFFFFFFFFFFFFFFFFFFFFFFFFFFFFFFFFFFFF AND PUSH20 0xFFFFFFFFFFFFFFFFFFFFFFFFFFFFFFFFFFFFFFFF AND DUP2 MSTORE PUSH1 0x20 ADD SWAP1 DUP2 MSTORE PUSH1 0x20 ADD PUSH1 0x0 KECCAK256 PUSH1 0x0 SWAP1 SLOAD SWAP1 PUSH2 0x100 EXP SWAP1 DIV PUSH1 0xFF AND PUSH2 0x172D JUMPI PUSH1 0x40 MLOAD PUSH32 0x8C379A000000000000000000000000000000000000000000000000000000000 DUP2 MSTORE PUSH1 0x4 ADD PUSH2 0x1724 SWAP1 PUSH2 0x1DE4 JUMP JUMPDEST PUSH1 0x40 MLOAD DUP1 SWAP2 SUB SWAP1 REVERT JUMPDEST DUP1 PUSH1 0x0 DUP1 PUSH2 0x100 EXP DUP2 SLOAD DUP2 PUSH1 0xFF MUL NOT AND SWAP1 DUP4 ISZERO ISZERO MUL OR SWAP1 SSTORE POP POP JUMP JUMPDEST PUSH1 0x4 PUSH1 0x0 SWAP1 SLOAD SWAP1 PUSH2 0x100 EXP SWAP1 DIV PUSH20 0xFFFFFFFFFFFFFFFFFFFFFFFFFFFFFFFFFFFFFFFF AND DUP2 JUMP JUMPDEST PUSH1 0x9 PUSH1 0x20 MSTORE DUP1 PUSH1 0x0 MSTORE PUSH1 0x40 PUSH1 0x0 KECCAK256 PUSH1 0x0 SWAP2 POP SLOAD SWAP1 PUSH2 0x100 EXP SWAP1 DIV PUSH20 0xFFFFFFFFFFFFFFFFFFFFFFFFFFFFFFFFFFFFFFFF AND DUP2 JUMP JUMPDEST PUSH1 0xB PUSH1 0x20 MSTORE DUP1 PUSH1 0x0 MSTORE PUSH1 0x40 PUSH1 0x0 KECCAK256 PUSH1 0x0 SWAP2 POP SWAP1 POP SLOAD DUP2 JUMP JUMPDEST PUSH1 0x3 PUSH1 0x20 MSTORE DUP1 PUSH1 0x0 MSTORE PUSH1 0x40 PUSH1 0x0 KECCAK256 PUSH1 0x0 SWAP2 POP SLOAD SWAP1 PUSH2 0x100 EXP SWAP1 DIV PUSH1 0xFF AND DUP2 JUMP JUMPDEST PUSH1 0x3 PUSH1 0x0 CALLER PUSH20 0xFFFFFFFFFFFFFFFFFFFFFFFFFFFFFFFFFFFFFFFF AND PUSH20 0xFFFFFFFFFFFFFFFFFFFFFFFFFFFFFFFFFFFFFFFF AND DUP2 MSTORE PUSH1 0x20 ADD SWAP1 DUP2 MSTORE PUSH1 0x20 ADD PUSH1 0x0 KECCAK256 PUSH1 0x0 SWAP1 SLOAD SWAP1 PUSH2 0x100 EXP SWAP1 DIV PUSH1 0xFF AND PUSH2 0x1866 JUMPI PUSH1 0x40 MLOAD PUSH32 0x8C379A000000000000000000000000000000000000000000000000000000000 DUP2 MSTORE PUSH1 0x4 ADD PUSH2 0x185D SWAP1 PUSH2 0x1DE4 JUMP JUMPDEST PUSH1 0x40 MLOAD DUP1 SWAP2 SUB SWAP1 REVERT JUMPDEST DUP1 PUSH1 0x6 PUSH1 0x0 PUSH2 0x100 EXP DUP2 SLOAD DUP2 PUSH20 0xFFFFFFFFFFFFFFFFFFFFFFFFFFFFFFFFFFFFFFFF MUL NOT AND SWAP1 DUP4 PUSH20 0xFFFFFFFFFFFFFFFFFFFFFFFFFFFFFFFFFFFFFFFF AND MUL OR SWAP1 SSTORE POP POP JUMP JUMPDEST PUSH1 0x0 DUP1 SLOAD SWAP1 PUSH2 0x100 EXP SWAP1 DIV PUSH1 0xFF AND DUP2 JUMP JUMPDEST DUP3 DUP1 SLOAD DUP3 DUP3 SSTORE SWAP1 PUSH1 0x0 MSTORE PUSH1 0x20 PUSH1 0x0 KECCAK256 SWAP1 PUSH1 0x1F ADD PUSH1 0x20 SWAP1 DIV DUP2 ADD SWAP3 DUP3 ISZERO PUSH2 0x1950 JUMPI SWAP2 PUSH1 0x20 MUL DUP3 ADD PUSH1 0x0 JUMPDEST DUP4 DUP3 GT ISZERO PUSH2 0x1921 JUMPI DUP4 MLOAD DUP4 DUP3 PUSH2 0x100 EXP DUP2 SLOAD DUP2 PUSH1 0xFF MUL NOT AND SWAP1 DUP4 ISZERO ISZERO MUL OR SWAP1 SSTORE POP SWAP3 PUSH1 0x20 ADD SWAP3 PUSH1 0x1 ADD PUSH1 0x20 DUP2 PUSH1 0x0 ADD DIV SWAP3 DUP4 ADD SWAP3 PUSH1 0x1 SUB MUL PUSH2 0x18E4 JUMP JUMPDEST DUP1 ISZERO PUSH2 0x194E JUMPI DUP3 DUP2 PUSH2 0x100 EXP DUP2 SLOAD SWAP1 PUSH1 0xFF MUL NOT AND SWAP1 SSTORE PUSH1 0x1 ADD PUSH1 0x20 DUP2 PUSH1 0x0 ADD DIV SWAP3 DUP4 ADD SWAP3 PUSH1 0x1 SUB MUL PUSH2 0x1921 JUMP JUMPDEST POP JUMPDEST POP SWAP1 POP PUSH2 0x195D SWAP2 SWAP1 PUSH2 0x1961 JUMP JUMPDEST POP SWAP1 JUMP JUMPDEST JUMPDEST DUP1 DUP3 GT ISZERO PUSH2 0x197A JUMPI PUSH1 0x0 DUP2 PUSH1 0x0 SWAP1 SSTORE POP PUSH1 0x1 ADD PUSH2 0x1962 JUMP JUMPDEST POP SWAP1 JUMP JUMPDEST PUSH1 0x0 DUP2 SWAP1 POP SWAP2 SWAP1 POP JUMP JUMPDEST PUSH2 0x1991 DUP2 PUSH2 0x197E JUMP JUMPDEST DUP3 MSTORE POP POP JUMP JUMPDEST PUSH1 0x0 PUSH1 0x20 DUP3 ADD SWAP1 POP PUSH2 0x19AC PUSH1 0x0 DUP4 ADD DUP5 PUSH2 0x1988 JUMP JUMPDEST SWAP3 SWAP2 POP POP JUMP JUMPDEST PUSH1 0x0 PUSH1 0x40 MLOAD SWAP1 POP SWAP1 JUMP JUMPDEST PUSH1 0x0 DUP1 REVERT JUMPDEST PUSH1 0x0 DUP1 REVERT JUMPDEST PUSH1 0x0 DUP1 REVERT JUMPDEST PUSH1 0x0 PUSH1 0x1F NOT PUSH1 0x1F DUP4 ADD AND SWAP1 POP SWAP2 SWAP1 POP JUMP JUMPDEST PUSH32 0x4E487B7100000000000000000000000000000000000000000000000000000000 PUSH1 0x0 MSTORE PUSH1 0x41 PUSH1 0x4 MSTORE PUSH1 0x24 PUSH1 0x0 REVERT JUMPDEST PUSH2 0x1A14 DUP3 PUSH2 0x19CB JUMP JUMPDEST DUP2 ADD DUP2 DUP2 LT PUSH8 0xFFFFFFFFFFFFFFFF DUP3 GT OR ISZERO PUSH2 0x1A33 JUMPI PUSH2 0x1A32 PUSH2 0x19DC JUMP JUMPDEST JUMPDEST DUP1 PUSH1 0x40 MSTORE POP POP POP JUMP JUMPDEST PUSH1 0x0 PUSH2 0x1A46 PUSH2 0x19B2 JUMP JUMPDEST SWAP1 POP PUSH2 0x1A52 DUP3 DUP3 PUSH2 0x1A0B JUMP JUMPDEST SWAP2 SWAP1 POP JUMP JUMPDEST PUSH1 0x0 PUSH8 0xFFFFFFFFFFFFFFFF DUP3 GT ISZERO PUSH2 0x1A72 JUMPI PUSH2 0x1A71 PUSH2 0x19DC JUMP JUMPDEST JUMPDEST PUSH1 0x20 DUP3 MUL SWAP1 POP PUSH1 0x20 DUP2 ADD SWAP1 POP SWAP2 SWAP1 POP JUMP JUMPDEST PUSH1 0x0 DUP1 REVERT JUMPDEST PUSH1 0x0 PUSH20 0xFFFFFFFFFFFFFFFFFFFFFFFFFFFFFFFFFFFFFFFF DUP3 AND SWAP1 POP SWAP2 SWAP1 POP JUMP JUMPDEST PUSH1 0x0 PUSH2 0x1AB3 DUP3 PUSH2 0x1A88 JUMP JUMPDEST SWAP1 POP SWAP2 SWAP1 POP JUMP JUMPDEST PUSH2 0x1AC3 DUP2 PUSH2 0x1AA8 JUMP JUMPDEST DUP2 EQ PUSH2 0x1ACE JUMPI PUSH1 0x0 DUP1 REVERT JUMPDEST POP JUMP JUMPDEST PUSH1 0x0 DUP2 CALLDATALOAD SWAP1 POP PUSH2 0x1AE0 DUP2 PUSH2 0x1ABA JUMP JUMPDEST SWAP3 SWAP2 POP POP JUMP JUMPDEST PUSH1 0x0 PUSH2 0x1AF9 PUSH2 0x1AF4 DUP5 PUSH2 0x1A57 JUMP JUMPDEST PUSH2 0x1A3C JUMP JUMPDEST SWAP1 POP DUP1 DUP4 DUP3 MSTORE PUSH1 0x20 DUP3 ADD SWAP1 POP PUSH1 0x20 DUP5 MUL DUP4 ADD DUP6 DUP2 GT ISZERO PUSH2 0x1B1C JUMPI PUSH2 0x1B1B PUSH2 0x1A83 JUMP JUMPDEST JUMPDEST DUP4 JUMPDEST DUP2 DUP2 LT ISZERO PUSH2 0x1B45 JUMPI DUP1 PUSH2 0x1B31 DUP9 DUP3 PUSH2 0x1AD1 JUMP JUMPDEST DUP5 MSTORE PUSH1 0x20 DUP5 ADD SWAP4 POP POP PUSH1 0x20 DUP2 ADD SWAP1 POP PUSH2 0x1B1E JUMP JUMPDEST POP POP POP SWAP4 SWAP3 POP POP POP JUMP JUMPDEST PUSH1 0x0 DUP3 PUSH1 0x1F DUP4 ADD SLT PUSH2 0x1B64 JUMPI PUSH2 0x1B63 PUSH2 0x19C6 JUMP JUMPDEST JUMPDEST DUP2 CALLDATALOAD PUSH2 0x1B74 DUP5 DUP3 PUSH1 0x20 DUP7 ADD PUSH2 0x1AE6 JUMP JUMPDEST SWAP2 POP POP SWAP3 SWAP2 POP POP JUMP JUMPDEST PUSH1 0x0 DUP1 PUSH1 0x40 DUP4 DUP6 SUB SLT ISZERO PUSH2 0x1B94 JUMPI PUSH2 0x1B93 PUSH2 0x19BC JUMP JUMPDEST JUMPDEST PUSH1 0x0 DUP4 ADD CALLDATALOAD PUSH8 0xFFFFFFFFFFFFFFFF DUP2 GT ISZERO PUSH2 0x1BB2 JUMPI PUSH2 0x1BB1 PUSH2 0x19C1 JUMP JUMPDEST JUMPDEST PUSH2 0x1BBE DUP6 DUP3 DUP7 ADD PUSH2 0x1B4F JUMP JUMPDEST SWAP3 POP POP PUSH1 0x20 DUP4 ADD CALLDATALOAD PUSH8 0xFFFFFFFFFFFFFFFF DUP2 GT ISZERO PUSH2 0x1BDF JUMPI PUSH2 0x1BDE PUSH2 0x19C1 JUMP JUMPDEST JUMPDEST PUSH2 0x1BEB DUP6 DUP3 DUP7 ADD PUSH2 0x1B4F JUMP JUMPDEST SWAP2 POP POP SWAP3 POP SWAP3 SWAP1 POP JUMP JUMPDEST PUSH1 0x0 DUP2 ISZERO ISZERO SWAP1 POP SWAP2 SWAP1 POP JUMP JUMPDEST PUSH2 0x1C0A DUP2 PUSH2 0x1BF5 JUMP JUMPDEST DUP2 EQ PUSH2 0x1C15 JUMPI PUSH1 0x0 DUP1 REVERT JUMPDEST POP JUMP JUMPDEST PUSH1 0x0 DUP2 CALLDATALOAD SWAP1 POP PUSH2 0x1C27 DUP2 PUSH2 0x1C01 JUMP JUMPDEST SWAP3 SWAP2 POP POP JUMP JUMPDEST PUSH1 0x0 PUSH1 0x20 DUP3 DUP5 SUB SLT ISZERO PUSH2 0x1C43 JUMPI PUSH2 0x1C42 PUSH2 0x19BC JUMP JUMPDEST JUMPDEST PUSH1 0x0 PUSH2 0x1C51 DUP5 DUP3 DUP6 ADD PUSH2 0x1C18 JUMP JUMPDEST SWAP2 POP POP SWAP3 SWAP2 POP POP JUMP JUMPDEST PUSH2 0x1C63 DUP2 PUSH2 0x1BF5 JUMP JUMPDEST DUP3 MSTORE POP POP JUMP JUMPDEST PUSH1 0x0 PUSH1 0x20 DUP3 ADD SWAP1 POP PUSH2 0x1C7E PUSH1 0x0 DUP4 ADD DUP5 PUSH2 0x1C5A JUMP JUMPDEST SWAP3 SWAP2 POP POP JUMP JUMPDEST PUSH1 0x0 PUSH1 0x20 DUP3 DUP5 SUB SLT ISZERO PUSH2 0x1C9A JUMPI PUSH2 0x1C99 PUSH2 0x19BC JUMP JUMPDEST JUMPDEST PUSH1 0x0 PUSH2 0x1CA8 DUP5 DUP3 DUP6 ADD PUSH2 0x1AD1 JUMP JUMPDEST SWAP2 POP POP SWAP3 SWAP2 POP POP JUMP JUMPDEST PUSH2 0x1CBA DUP2 PUSH2 0x1AA8 JUMP JUMPDEST DUP3 MSTORE POP POP JUMP JUMPDEST PUSH1 0x0 PUSH1 0x20 DUP3 ADD SWAP1 POP PUSH2 0x1CD5 PUSH1 0x0 DUP4 ADD DUP5 PUSH2 0x1CB1 JUMP JUMPDEST SWAP3 SWAP2 POP POP JUMP JUMPDEST PUSH2 0x1CE4 DUP2 PUSH2 0x197E JUMP JUMPDEST DUP2 EQ PUSH2 0x1CEF JUMPI PUSH1 0x0 DUP1 REVERT JUMPDEST POP JUMP JUMPDEST PUSH1 0x0 DUP2 CALLDATALOAD SWAP1 POP PUSH2 0x1D01 DUP2 PUSH2 0x1CDB JUMP JUMPDEST SWAP3 SWAP2 POP POP JUMP JUMPDEST PUSH1 0x0 DUP1 PUSH1 0x40 DUP4 DUP6 SUB SLT ISZERO PUSH2 0x1D1E JUMPI PUSH2 0x1D1D PUSH2 0x19BC JUMP JUMPDEST JUMPDEST PUSH1 0x0 PUSH2 0x1D2C DUP6 DUP3 DUP7 ADD PUSH2 0x1AD1 JUMP JUMPDEST SWAP3 POP POP PUSH1 0x20 PUSH2 0x1D3D DUP6 DUP3 DUP7 ADD PUSH2 0x1CF2 JUMP JUMPDEST SWAP2 POP POP SWAP3 POP SWAP3 SWAP1 POP JUMP JUMPDEST PUSH1 0x0 DUP1 PUSH1 0x40 DUP4 DUP6 SUB SLT ISZERO PUSH2 0x1D5E JUMPI PUSH2 0x1D5D PUSH2 0x19BC JUMP JUMPDEST JUMPDEST PUSH1 0x0 PUSH2 0x1D6C DUP6 DUP3 DUP7 ADD PUSH2 0x1AD1 JUMP JUMPDEST SWAP3 POP POP PUSH1 0x20 PUSH2 0x1D7D DUP6 DUP3 DUP7 ADD PUSH2 0x1C18 JUMP JUMPDEST SWAP2 POP POP SWAP3 POP SWAP3 SWAP1 POP JUMP JUMPDEST PUSH1 0x0 DUP3 DUP3 MSTORE PUSH1 0x20 DUP3 ADD SWAP1 POP SWAP3 SWAP2 POP POP JUMP JUMPDEST PUSH32 0x4E6F74206D616E61676572000000000000000000000000000000000000000000 PUSH1 0x0 DUP3 ADD MSTORE POP JUMP JUMPDEST PUSH1 0x0 PUSH2 0x1DCE PUSH1 0xB DUP4 PUSH2 0x1D87 JUMP JUMPDEST SWAP2 POP PUSH2 0x1DD9 DUP3 PUSH2 0x1D98 JUMP JUMPDEST PUSH1 0x20 DUP3 ADD SWAP1 POP SWAP2 SWAP1 POP JUMP JUMPDEST PUSH1 0x0 PUSH1 0x20 DUP3 ADD SWAP1 POP DUP2 DUP2 SUB PUSH1 0x0 DUP4 ADD MSTORE PUSH2 0x1DFD DUP2 PUSH2 0x1DC1 JUMP JUMPDEST SWAP1 POP SWAP2 SWAP1 POP JUMP JUMPDEST PUSH32 0x6C656E6774682069732077726F6E670000000000000000000000000000000000 PUSH1 0x0 DUP3 ADD MSTORE POP JUMP JUMPDEST PUSH1 0x0 PUSH2 0x1E3A PUSH1 0xF DUP4 PUSH2 0x1D87 JUMP JUMPDEST SWAP2 POP PUSH2 0x1E45 DUP3 PUSH2 0x1E04 JUMP JUMPDEST PUSH1 0x20 DUP3 ADD SWAP1 POP SWAP2 SWAP1 POP JUMP JUMPDEST PUSH1 0x0 PUSH1 0x20 DUP3 ADD SWAP1 POP DUP2 DUP2 SUB PUSH1 0x0 DUP4 ADD MSTORE PUSH2 0x1E69 DUP2 PUSH2 0x1E2D JUMP JUMPDEST SWAP1 POP SWAP2 SWAP1 POP JUMP JUMPDEST PUSH32 0x4E487B7100000000000000000000000000000000000000000000000000000000 PUSH1 0x0 MSTORE PUSH1 0x32 PUSH1 0x4 MSTORE PUSH1 0x24 PUSH1 0x0 REVERT JUMPDEST PUSH32 0x616464726573732069732077726F6E6700000000000000000000000000000000 PUSH1 0x0 DUP3 ADD MSTORE POP JUMP JUMPDEST PUSH1 0x0 PUSH2 0x1ED5 PUSH1 0x10 DUP4 PUSH2 0x1D87 JUMP JUMPDEST SWAP2 POP PUSH2 0x1EE0 DUP3 PUSH2 0x1E9F JUMP JUMPDEST PUSH1 0x20 DUP3 ADD SWAP1 POP SWAP2 SWAP1 POP JUMP JUMPDEST PUSH1 0x0 PUSH1 0x20 DUP3 ADD SWAP1 POP DUP2 DUP2 SUB PUSH1 0x0 DUP4 ADD MSTORE PUSH2 0x1F04 DUP2 PUSH2 0x1EC8 JUMP JUMPDEST SWAP1 POP SWAP2 SWAP1 POP JUMP JUMPDEST PUSH32 0x4E487B7100000000000000000000000000000000000000000000000000000000 PUSH1 0x0 MSTORE PUSH1 0x11 PUSH1 0x4 MSTORE PUSH1 0x24 PUSH1 0x0 REVERT JUMPDEST PUSH1 0x0 PUSH2 0x1F45 DUP3 PUSH2 0x197E JUMP JUMPDEST SWAP2 POP PUSH32 0xFFFFFFFFFFFFFFFFFFFFFFFFFFFFFFFFFFFFFFFFFFFFFFFFFFFFFFFFFFFFFFFF DUP3 SUB PUSH2 0x1F77 JUMPI PUSH2 0x1F76 PUSH2 0x1F0B JUMP JUMPDEST JUMPDEST PUSH1 0x1 DUP3 ADD SWAP1 POP SWAP2 SWAP1 POP JUMP JUMPDEST PUSH1 0x0 DUP2 MLOAD SWAP1 POP SWAP2 SWAP1 POP JUMP JUMPDEST PUSH1 0x0 DUP3 DUP3 MSTORE PUSH1 0x20 DUP3 ADD SWAP1 POP SWAP3 SWAP2 POP POP JUMP JUMPDEST PUSH1 0x0 DUP2 SWAP1 POP PUSH1 0x20 DUP3 ADD SWAP1 POP SWAP2 SWAP1 POP JUMP JUMPDEST PUSH2 0x1FB7 DUP2 PUSH2 0x1AA8 JUMP JUMPDEST DUP3 MSTORE POP POP JUMP JUMPDEST PUSH1 0x0 PUSH2 0x1FC9 DUP4 DUP4 PUSH2 0x1FAE JUMP JUMPDEST PUSH1 0x20 DUP4 ADD SWAP1 POP SWAP3 SWAP2 POP POP JUMP JUMPDEST PUSH1 0x0 PUSH1 0x20 DUP3 ADD SWAP1 POP SWAP2 SWAP1 POP JUMP JUMPDEST PUSH1 0x0 PUSH2 0x1FED DUP3 PUSH2 0x1F82 JUMP JUMPDEST PUSH2 0x1FF7 DUP2 DUP6 PUSH2 0x1F8D JUMP JUMPDEST SWAP4 POP PUSH2 0x2002 DUP4 PUSH2 0x1F9E JUMP JUMPDEST DUP1 PUSH1 0x0 JUMPDEST DUP4 DUP2 LT ISZERO PUSH2 0x2033 JUMPI DUP2 MLOAD PUSH2 0x201A DUP9 DUP3 PUSH2 0x1FBD JUMP JUMPDEST SWAP8 POP PUSH2 0x2025 DUP4 PUSH2 0x1FD5 JUMP JUMPDEST SWAP3 POP POP PUSH1 0x1 DUP2 ADD SWAP1 POP PUSH2 0x2006 JUMP JUMPDEST POP DUP6 SWAP4 POP POP POP POP SWAP3 SWAP2 POP POP JUMP JUMPDEST PUSH1 0x0 PUSH1 0x40 DUP3 ADD SWAP1 POP DUP2 DUP2 SUB PUSH1 0x0 DUP4 ADD MSTORE PUSH2 0x205A DUP2 DUP6 PUSH2 0x1FE2 JUMP JUMPDEST SWAP1 POP DUP2 DUP2 SUB PUSH1 0x20 DUP4 ADD MSTORE PUSH2 0x206E DUP2 DUP5 PUSH2 0x1FE2 JUMP JUMPDEST SWAP1 POP SWAP4 SWAP3 POP POP POP JUMP JUMPDEST PUSH32 0x74696D6520697320657869737400000000000000000000000000000000000000 PUSH1 0x0 DUP3 ADD MSTORE POP JUMP JUMPDEST PUSH1 0x0 PUSH2 0x20AD PUSH1 0xD DUP4 PUSH2 0x1D87 JUMP JUMPDEST SWAP2 POP PUSH2 0x20B8 DUP3 PUSH2 0x2077 JUMP JUMPDEST PUSH1 0x20 DUP3 ADD SWAP1 POP SWAP2 SWAP1 POP JUMP JUMPDEST PUSH1 0x0 PUSH1 0x20 DUP3 ADD SWAP1 POP DUP2 DUP2 SUB PUSH1 0x0 DUP4 ADD MSTORE PUSH2 0x20DC DUP2 PUSH2 0x20A0 JUMP JUMPDEST SWAP1 POP SWAP2 SWAP1 POP JUMP JUMPDEST PUSH1 0x0 PUSH2 0x20EE DUP3 PUSH2 0x197E JUMP JUMPDEST SWAP2 POP PUSH2 0x20F9 DUP4 PUSH2 0x197E JUMP JUMPDEST SWAP3 POP DUP3 DUP3 ADD SWAP1 POP DUP1 DUP3 GT ISZERO PUSH2 0x2111 JUMPI PUSH2 0x2110 PUSH2 0x1F0B JUMP JUMPDEST JUMPDEST SWAP3 SWAP2 POP POP JUMP JUMPDEST PUSH32 0x6E6F742049444F00000000000000000000000000000000000000000000000000 PUSH1 0x0 DUP3 ADD MSTORE POP JUMP JUMPDEST PUSH1 0x0 PUSH2 0x214D PUSH1 0x7 DUP4 PUSH2 0x1D87 JUMP JUMPDEST SWAP2 POP PUSH2 0x2158 DUP3 PUSH2 0x2117 JUMP JUMPDEST PUSH1 0x20 DUP3 ADD SWAP1 POP SWAP2 SWAP1 POP JUMP JUMPDEST PUSH1 0x0 PUSH1 0x20 DUP3 ADD SWAP1 POP DUP2 DUP2 SUB PUSH1 0x0 DUP4 ADD MSTORE PUSH2 0x217C DUP2 PUSH2 0x2140 JUMP JUMPDEST SWAP1 POP SWAP2 SWAP1 POP JUMP JUMPDEST PUSH1 0x0 PUSH2 0x218E DUP3 PUSH2 0x197E JUMP JUMPDEST SWAP2 POP PUSH2 0x2199 DUP4 PUSH2 0x197E JUMP JUMPDEST SWAP3 POP DUP3 DUP3 MUL PUSH2 0x21A7 DUP2 PUSH2 0x197E JUMP JUMPDEST SWAP2 POP DUP3 DUP3 DIV DUP5 EQ DUP4 ISZERO OR PUSH2 0x21BE JUMPI PUSH2 0x21BD PUSH2 0x1F0B JUMP JUMPDEST JUMPDEST POP SWAP3 SWAP2 POP POP JUMP JUMPDEST PUSH32 0x4E487B7100000000000000000000000000000000000000000000000000000000 PUSH1 0x0 MSTORE PUSH1 0x12 PUSH1 0x4 MSTORE PUSH1 0x24 PUSH1 0x0 REVERT JUMPDEST PUSH1 0x0 PUSH2 0x21FF DUP3 PUSH2 0x197E JUMP JUMPDEST SWAP2 POP PUSH2 0x220A DUP4 PUSH2 0x197E JUMP JUMPDEST SWAP3 POP DUP3 PUSH2 0x221A JUMPI PUSH2 0x2219 PUSH2 0x21C5 JUMP JUMPDEST JUMPDEST DUP3 DUP3 DIV SWAP1 POP SWAP3 SWAP2 POP POP JUMP JUMPDEST PUSH1 0x0 PUSH1 0x60 DUP3 ADD SWAP1 POP PUSH2 0x223A PUSH1 0x0 DUP4 ADD DUP7 PUSH2 0x1CB1 JUMP JUMPDEST PUSH2 0x2247 PUSH1 0x20 DUP4 ADD DUP6 PUSH2 0x1CB1 JUMP JUMPDEST PUSH2 0x2254 PUSH1 0x40 DUP4 ADD DUP5 PUSH2 0x1988 JUMP JUMPDEST SWAP5 SWAP4 POP POP POP POP JUMP JUMPDEST PUSH1 0x0 DUP2 MLOAD SWAP1 POP PUSH2 0x226B DUP2 PUSH2 0x1C01 JUMP JUMPDEST SWAP3 SWAP2 POP POP JUMP JUMPDEST PUSH1 0x0 PUSH1 0x20 DUP3 DUP5 SUB SLT ISZERO PUSH2 0x2287 JUMPI PUSH2 0x2286 PUSH2 0x19BC JUMP JUMPDEST JUMPDEST PUSH1 0x0 PUSH2 0x2295 DUP5 DUP3 DUP6 ADD PUSH2 0x225C JUMP JUMPDEST SWAP2 POP POP SWAP3 SWAP2 POP POP JUMP JUMPDEST PUSH1 0x0 PUSH2 0x22A9 DUP3 PUSH2 0x197E JUMP JUMPDEST SWAP2 POP PUSH2 0x22B4 DUP4 PUSH2 0x197E JUMP JUMPDEST SWAP3 POP DUP3 DUP3 SUB SWAP1 POP DUP2 DUP2 GT ISZERO PUSH2 0x22CC JUMPI PUSH2 0x22CB PUSH2 0x1F0B JUMP JUMPDEST JUMPDEST SWAP3 SWAP2 POP POP JUMP JUMPDEST PUSH1 0x0 PUSH1 0x40 DUP3 ADD SWAP1 POP PUSH2 0x22E7 PUSH1 0x0 DUP4 ADD DUP6 PUSH2 0x1CB1 JUMP JUMPDEST PUSH2 0x22F4 PUSH1 0x20 DUP4 ADD DUP5 PUSH2 0x1988 JUMP JUMPDEST SWAP4 SWAP3 POP POP POP JUMP JUMPDEST PUSH32 0x6E6F7420616C6C6F770000000000000000000000000000000000000000000000 PUSH1 0x0 DUP3 ADD MSTORE POP JUMP JUMPDEST PUSH1 0x0 PUSH2 0x2331 PUSH1 0x9 DUP4 PUSH2 0x1D87 JUMP JUMPDEST SWAP2 POP PUSH2 0x233C DUP3 PUSH2 0x22FB JUMP JUMPDEST PUSH1 0x20 DUP3 ADD SWAP1 POP SWAP2 SWAP1 POP JUMP JUMPDEST PUSH1 0x0 PUSH1 0x20 DUP3 ADD SWAP1 POP DUP2 DUP2 SUB PUSH1 0x0 DUP4 ADD MSTORE PUSH2 0x2360 DUP2 PUSH2 0x2324 JUMP JUMPDEST SWAP1 POP SWAP2 SWAP1 POP JUMP JUMPDEST PUSH32 0x4F776E61626C653A2063616C6C6572206973206E6F7420746865206F776E6572 PUSH1 0x0 DUP3 ADD MSTORE POP JUMP JUMPDEST PUSH1 0x0 PUSH2 0x239D PUSH1 0x20 DUP4 PUSH2 0x1D87 JUMP JUMPDEST SWAP2 POP PUSH2 0x23A8 DUP3 PUSH2 0x2367 JUMP JUMPDEST PUSH1 0x20 DUP3 ADD SWAP1 POP SWAP2 SWAP1 POP JUMP JUMPDEST PUSH1 0x0 PUSH1 0x20 DUP3 ADD SWAP1 POP DUP2 DUP2 SUB PUSH1 0x0 DUP4 ADD MSTORE PUSH2 0x23CC DUP2 PUSH2 0x2390 JUMP JUMPDEST SWAP1 POP SWAP2 SWAP1 POP JUMP INVALID LOG2 PUSH5 0x6970667358 0x22 SLT KECCAK256 SUB 0xED DUP7 PUSH15 0x8C52D5A23863EEB6EEB1552E1C47F8 SWAP7 SWAP9 0x21 PUSH26 0x8F89EE6F2233F7F7E164736F6C63430008110033000000000000 "
				},
				"gasEstimates": {
					"creation": {
						"codeDepositCost": "1845000",
						"executionCost": "infinite",
						"totalCost": "infinite"
					},
					"external": {
						"IDOAddress()": "2625",
						"_IDOUsdt(address,uint256)": "infinite",
						"_addRelation(address[],address[])": "infinite",
						"allowET(address)": "infinite",
						"closeOpenOne(bool)": "27010",
						"closeOpenTwo(bool)": "27061",
						"endTime()": "2497",
						"getET()": "infinite",
						"isManager(address)": "2911",
						"isOpenOne()": "2578",
						"isOpenTwo()": "2633",
						"owner()": "2639",
						"relationAmount(address)": "2858",
						"setETCoin(address)": "26987",
						"setEndTime()": "26667",
						"setManager(address,bool)": "27313",
						"setNFT(address)": "27052",
						"totalSupply()": "2453",
						"userIDO(address)": "2837",
						"userRelation(address)": "infinite"
					}
				},
				"methodIdentifiers": {
					"IDOAddress()": "c6b24c1c",
					"_IDOUsdt(address,uint256)": "8dd0abaa",
					"_addRelation(address[],address[])": "238c4c2f",
					"allowET(address)": "918a6283",
					"closeOpenOne(bool)": "b6dd3104",
					"closeOpenTwo(bool)": "37b1a023",
					"endTime()": "3197cbb6",
					"getET()": "98269b6a",
					"isManager(address)": "f3ae2415",
					"isOpenOne()": "fb066531",
					"isOpenTwo()": "5db98f2d",
					"owner()": "8da5cb5b",
					"relationAmount(address)": "f06b41e3",
					"setETCoin(address)": "965ed465",
					"setEndTime()": "76be6af6",
					"setManager(address,bool)": "a5e90eee",
					"setNFT(address)": "f56e9c66",
					"totalSupply()": "18160ddd",
					"userIDO(address)": "6a41d5d7",
					"userRelation(address)": "e72ebdb7"
				}
			},
			"storageLayout": {
				"storage": [
					{
						"astId": 610,
						"contract": "CoinIdo.sol:CoinIdo",
						"label": "isOpenOne",
						"offset": 0,
						"slot": "0",
						"type": "t_bool"
					},
					{
						"astId": 612,
						"contract": "CoinIdo.sol:CoinIdo",
						"label": "isOpenTwo",
						"offset": 1,
						"slot": "0",
						"type": "t_bool"
					},
					{
						"astId": 614,
						"contract": "CoinIdo.sol:CoinIdo",
						"label": "_owner",
						"offset": 2,
						"slot": "0",
						"type": "t_address"
					},
					{
						"astId": 616,
						"contract": "CoinIdo.sol:CoinIdo",
						"label": "endTime",
						"offset": 0,
						"slot": "1",
						"type": "t_uint256"
					},
					{
						"astId": 618,
						"contract": "CoinIdo.sol:CoinIdo",
						"label": "totalSupply",
						"offset": 0,
						"slot": "2",
						"type": "t_uint256"
					},
					{
						"astId": 622,
						"contract": "CoinIdo.sol:CoinIdo",
						"label": "isManager",
						"offset": 0,
						"slot": "3",
						"type": "t_mapping(t_address,t_bool)"
					},
					{
						"astId": 624,
						"contract": "CoinIdo.sol:CoinIdo",
						"label": "IDOAddress",
						"offset": 0,
						"slot": "4",
						"type": "t_address"
					},
					{
						"astId": 627,
						"contract": "CoinIdo.sol:CoinIdo",
						"label": "usdt",
						"offset": 0,
						"slot": "5",
						"type": "t_contract(IERC20)1280"
					},
					{
						"astId": 630,
						"contract": "CoinIdo.sol:CoinIdo",
						"label": "etNft",
						"offset": 0,
						"slot": "6",
						"type": "t_contract(IETNFT)608"
					},
					{
						"astId": 633,
						"contract": "CoinIdo.sol:CoinIdo",
						"label": "etCoin",
						"offset": 0,
						"slot": "7",
						"type": "t_contract(IERC20)1280"
					},
					{
						"astId": 638,
						"contract": "CoinIdo.sol:CoinIdo",
						"label": "lb",
						"offset": 0,
						"slot": "8",
						"type": "t_mapping(t_address,t_array(t_bool)dyn_storage)"
					},
					{
						"astId": 642,
						"contract": "CoinIdo.sol:CoinIdo",
						"label": "userRelation",
						"offset": 0,
						"slot": "9",
						"type": "t_mapping(t_address,t_address)"
					},
					{
						"astId": 646,
						"contract": "CoinIdo.sol:CoinIdo",
						"label": "userIDO",
						"offset": 0,
						"slot": "10",
						"type": "t_mapping(t_address,t_uint256)"
					},
					{
						"astId": 650,
						"contract": "CoinIdo.sol:CoinIdo",
						"label": "relationAmount",
						"offset": 0,
						"slot": "11",
						"type": "t_mapping(t_address,t_uint256)"
					}
				],
				"types": {
					"t_address": {
						"encoding": "inplace",
						"label": "address",
						"numberOfBytes": "20"
					},
					"t_array(t_bool)dyn_storage": {
						"base": "t_bool",
						"encoding": "dynamic_array",
						"label": "bool[]",
						"numberOfBytes": "32"
					},
					"t_bool": {
						"encoding": "inplace",
						"label": "bool",
						"numberOfBytes": "1"
					},
					"t_contract(IERC20)1280": {
						"encoding": "inplace",
						"label": "contract IERC20",
						"numberOfBytes": "20"
					},
					"t_contract(IETNFT)608": {
						"encoding": "inplace",
						"label": "contract IETNFT",
						"numberOfBytes": "20"
					},
					"t_mapping(t_address,t_address)": {
						"encoding": "mapping",
						"key": "t_address",
						"label": "mapping(address => address)",
						"numberOfBytes": "32",
						"value": "t_address"
					},
					"t_mapping(t_address,t_array(t_bool)dyn_storage)": {
						"encoding": "mapping",
						"key": "t_address",
						"label": "mapping(address => bool[])",
						"numberOfBytes": "32",
						"value": "t_array(t_bool)dyn_storage"
					},
					"t_mapping(t_address,t_bool)": {
						"encoding": "mapping",
						"key": "t_address",
						"label": "mapping(address => bool)",
						"numberOfBytes": "32",
						"value": "t_bool"
					},
					"t_mapping(t_address,t_uint256)": {
						"encoding": "mapping",
						"key": "t_address",
						"label": "mapping(address => uint256)",
						"numberOfBytes": "32",
						"value": "t_uint256"
					},
					"t_uint256": {
						"encoding": "inplace",
						"label": "uint256",
						"numberOfBytes": "32"
					}
				}
			},
			"userdoc": {
				"kind": "user",
				"methods": {},
				"version": 1
			}
		}
	}
}