{
	"FeeHand.sol": {
		"FeeHand": {
			"abi": [
				{
					"inputs": [
						{
							"internalType": "address",
							"name": "_address",
							"type": "address"
						}
					],
					"stateMutability": "nonpayable",
					"type": "constructor"
				},
				{
					"anonymous": false,
					"inputs": [
						{
							"indexed": false,
							"internalType": "address",
							"name": "previousOwner",
							"type": "address"
						},
						{
							"indexed": false,
							"internalType": "address",
							"name": "newOwner",
							"type": "address"
						}
					],
					"name": "OwnershipTransferred",
					"type": "event"
				},
				{
					"anonymous": false,
					"inputs": [
						{
							"indexed": false,
							"internalType": "address",
							"name": "_address",
							"type": "address"
						}
					],
					"name": "SetFeeAddress",
					"type": "event"
				},
				{
					"inputs": [
						{
							"internalType": "address",
							"name": "_ipair",
							"type": "address"
						},
						{
							"internalType": "address",
							"name": "token0",
							"type": "address"
						},
						{
							"internalType": "address",
							"name": "token1",
							"type": "address"
						}
					],
					"name": "burn",
					"outputs": [],
					"stateMutability": "nonpayable",
					"type": "function"
				},
				{
					"inputs": [],
					"name": "feeAddress",
					"outputs": [
						{
							"internalType": "address",
							"name": "",
							"type": "address"
						}
					],
					"stateMutability": "view",
					"type": "function"
				},
				{
					"inputs": [],
					"name": "owner",
					"outputs": [
						{
							"internalType": "address",
							"name": "",
							"type": "address"
						}
					],
					"stateMutability": "view",
					"type": "function"
				},
				{
					"inputs": [
						{
							"internalType": "address",
							"name": "_address",
							"type": "address"
						}
					],
					"name": "setFeeAddress",
					"outputs": [],
					"stateMutability": "nonpayable",
					"type": "function"
				},
				{
					"inputs": [
						{
							"internalType": "address",
							"name": "newOwner",
							"type": "address"
						}
					],
					"name": "transferOwnership",
					"outputs": [],
					"stateMutability": "nonpayable",
					"type": "function"
				}
			],
			"devdoc": {
				"kind": "dev",
				"methods": {},
				"version": 1
			},
			"evm": {
				"assembly": "    /* \"FeeHand.sol\":190:1845  contract FeeHand is IFeeHand{\r... */\n  mstore(0x40, 0x80)\n    /* \"FeeHand.sol\":306:379  constructor(address _address){\r... */\n  callvalue\n  dup1\n  iszero\n  tag_1\n  jumpi\n  0x00\n  dup1\n  revert\ntag_1:\n  pop\n  mload(0x40)\n  sub(codesize, bytecodeSize)\n  dup1\n  bytecodeSize\n  dup4\n  codecopy\n  dup2\n  add\n  0x40\n  dup2\n  swap1\n  mstore\n  tag_2\n  swap2\n  tag_3\n  jump\t// in\ntag_2:\n    /* \"FeeHand.sol\":346:352  etCoin */\n  0x02\n    /* \"FeeHand.sol\":346:371  etCoin = IERC20(_address) */\n  dup1\n  sload\n  not(sub(shl(0xa0, 0x01), 0x01))\n  and\n  sub(shl(0xa0, 0x01), 0x01)\n  swap3\n  swap1\n  swap3\n  and\n  swap2\n  swap1\n  swap2\n  or\n  swap1\n  sstore\n    /* \"FeeHand.sol\":190:1845  contract FeeHand is IFeeHand{\r... */\n  jump(tag_7)\n    /* \"#utility.yul\":14:324   */\ntag_3:\n    /* \"#utility.yul\":84:90   */\n  0x00\n    /* \"#utility.yul\":137:139   */\n  0x20\n    /* \"#utility.yul\":125:134   */\n  dup3\n    /* \"#utility.yul\":116:123   */\n  dup5\n    /* \"#utility.yul\":112:135   */\n  sub\n    /* \"#utility.yul\":108:140   */\n  slt\n    /* \"#utility.yul\":105:107   */\n  iszero\n  tag_9\n  jumpi\n    /* \"#utility.yul\":158:164   */\n  dup1\n    /* \"#utility.yul\":150:156   */\n  dup2\n    /* \"#utility.yul\":143:165   */\n  revert\n    /* \"#utility.yul\":105:107   */\ntag_9:\n    /* \"#utility.yul\":189:205   */\n  dup2\n  mload\n  sub(shl(0xa0, 0x01), 0x01)\n    /* \"#utility.yul\":234:265   */\n  dup2\n  and\n    /* \"#utility.yul\":224:266   */\n  dup2\n  eq\n    /* \"#utility.yul\":214:216   */\n  tag_10\n  jumpi\n    /* \"#utility.yul\":285:291   */\n  dup2\n    /* \"#utility.yul\":277:283   */\n  dup3\n    /* \"#utility.yul\":270:292   */\n  revert\n    /* \"#utility.yul\":214:216   */\ntag_10:\n    /* \"#utility.yul\":313:318   */\n  swap4\n    /* \"#utility.yul\":95:324   */\n  swap3\n  pop\n  pop\n  pop\n  jump\t// out\ntag_7:\n    /* \"FeeHand.sol\":190:1845  contract FeeHand is IFeeHand{\r... */\n  dataSize(sub_0)\n  dup1\n  dataOffset(sub_0)\n  0x00\n  codecopy\n  0x00\n  return\nstop\n\nsub_0: assembly {\n        /* \"FeeHand.sol\":190:1845  contract FeeHand is IFeeHand{\r... */\n      mstore(0x40, 0x80)\n      callvalue\n      dup1\n      iszero\n      tag_1\n      jumpi\n      0x00\n      dup1\n      revert\n    tag_1:\n      pop\n      jumpi(tag_2, lt(calldatasize, 0x04))\n      shr(0xe0, calldataload(0x00))\n      dup1\n      0x41275358\n      eq\n      tag_3\n      jumpi\n      dup1\n      0x45a11cec\n      eq\n      tag_4\n      jumpi\n      dup1\n      0x8705fcd4\n      eq\n      tag_5\n      jumpi\n      dup1\n      0x8da5cb5b\n      eq\n      tag_6\n      jumpi\n      dup1\n      0xf2fde38b\n      eq\n      tag_7\n      jumpi\n    tag_2:\n      0x00\n      dup1\n      revert\n        /* \"FeeHand.sol\":225:250  address public feeAddress */\n    tag_3:\n      sload(0x00)\n      tag_8\n      swap1\n      sub(shl(0xa0, 0x01), 0x01)\n      and\n      dup2\n      jump\n    tag_8:\n      mload(0x40)\n      sub(shl(0xa0, 0x01), 0x01)\n        /* \"#utility.yul\":1667:1699   */\n      swap1\n      swap2\n      and\n        /* \"#utility.yul\":1649:1700   */\n      dup2\n      mstore\n        /* \"#utility.yul\":1637:1639   */\n      0x20\n        /* \"#utility.yul\":1622:1640   */\n      add\n        /* \"FeeHand.sol\":225:250  address public feeAddress */\n      mload(0x40)\n      dup1\n      swap2\n      sub\n      swap1\n      return\n        /* \"FeeHand.sol\":1142:1842  function burn(address _ipair,address token0,address token1)public override {\r... */\n    tag_4:\n      tag_12\n      tag_13\n      calldatasize\n      0x04\n      tag_14\n      jump\t// in\n    tag_13:\n      tag_15\n      jump\t// in\n    tag_12:\n      stop\n        /* \"FeeHand.sol\":1001:1136  function setFeeAddress(address _address)public onlyOwner{\r... */\n    tag_5:\n      tag_12\n      tag_17\n      calldatasize\n      0x04\n      tag_18\n      jump\t// in\n    tag_17:\n      tag_19\n      jump\t// in\n        /* \"FeeHand.sol\":385:472  function owner() public view virtual returns (address) {\r... */\n    tag_6:\n        /* \"FeeHand.sol\":458:464  _owner */\n      and(sub(shl(0xa0, 0x01), 0x01), sload(0x01))\n        /* \"FeeHand.sol\":385:472  function owner() public view virtual returns (address) {\r... */\n      jump(tag_8)\n        /* \"FeeHand.sol\":676:950  function transferOwnership(address newOwner) public onlyOwner {\r... */\n    tag_7:\n      tag_12\n      tag_24\n      calldatasize\n      0x04\n      tag_18\n      jump\t// in\n    tag_24:\n      tag_25\n      jump\t// in\n        /* \"FeeHand.sol\":1142:1842  function burn(address _ipair,address token0,address token1)public override {\r... */\n    tag_15:\n        /* \"FeeHand.sol\":1228:1270  IUniswapV2Pair(_ipair).burn(address(this)) */\n      mload(0x40)\n      shl(0xe2, 0x226bf2d1)\n      dup2\n      mstore\n        /* \"FeeHand.sol\":1264:1268  this */\n      address\n        /* \"FeeHand.sol\":1228:1270  IUniswapV2Pair(_ipair).burn(address(this)) */\n      0x04\n      dup3\n      add\n        /* \"#utility.yul\":1649:1700   */\n      mstore\n      sub(shl(0xa0, 0x01), 0x01)\n        /* \"FeeHand.sol\":1228:1255  IUniswapV2Pair(_ipair).burn */\n      dup5\n      and\n      swap1\n      0x89afcb44\n      swap1\n        /* \"#utility.yul\":1622:1640   */\n      0x24\n      add\n        /* \"FeeHand.sol\":1228:1270  IUniswapV2Pair(_ipair).burn(address(this)) */\n      0x40\n      dup1\n      mload\n      dup1\n      dup4\n      sub\n      dup2\n      0x00\n      dup8\n      dup1\n      extcodesize\n      iszero\n      dup1\n      iszero\n      tag_28\n      jumpi\n      0x00\n      dup1\n      revert\n    tag_28:\n      pop\n      gas\n      call\n      iszero\n      dup1\n      iszero\n      tag_30\n      jumpi\n      returndatasize\n      0x00\n      dup1\n      returndatacopy\n      revert(0x00, returndatasize)\n    tag_30:\n      pop\n      pop\n      pop\n      pop\n      mload(0x40)\n      returndatasize\n      not(0x1f)\n      0x1f\n      dup3\n      add\n      and\n      dup3\n      add\n      dup1\n      0x40\n      mstore\n      pop\n      dup2\n      add\n      swap1\n      tag_31\n      swap2\n      swap1\n      tag_32\n      jump\t// in\n    tag_31:\n      pop\n      pop\n        /* \"FeeHand.sol\":1299:1338  IERC20(token0).balanceOf(address(this)) */\n      mload(0x40)\n      shl(0xe0, 0x70a08231)\n      dup2\n      mstore\n        /* \"FeeHand.sol\":1332:1336  this */\n      address\n        /* \"FeeHand.sol\":1299:1338  IERC20(token0).balanceOf(address(this)) */\n      0x04\n      dup3\n      add\n        /* \"#utility.yul\":1649:1700   */\n      mstore\n        /* \"FeeHand.sol\":1286:1297  uint total0 */\n      0x00\n      swap1\n      sub(shl(0xa0, 0x01), 0x01)\n        /* \"FeeHand.sol\":1299:1323  IERC20(token0).balanceOf */\n      dup5\n      and\n      swap1\n      0x70a08231\n      swap1\n        /* \"#utility.yul\":1622:1640   */\n      0x24\n      add\n        /* \"FeeHand.sol\":1299:1338  IERC20(token0).balanceOf(address(this)) */\n      0x20\n      mload(0x40)\n      dup1\n      dup4\n      sub\n      dup2\n      dup7\n      dup1\n      extcodesize\n      iszero\n      dup1\n      iszero\n      tag_34\n      jumpi\n      0x00\n      dup1\n      revert\n    tag_34:\n      pop\n      gas\n      staticcall\n      iszero\n      dup1\n      iszero\n      tag_36\n      jumpi\n      returndatasize\n      0x00\n      dup1\n      returndatacopy\n      revert(0x00, returndatasize)\n    tag_36:\n      pop\n      pop\n      pop\n      pop\n      mload(0x40)\n      returndatasize\n      not(0x1f)\n      0x1f\n      dup3\n      add\n      and\n      dup3\n      add\n      dup1\n      0x40\n      mstore\n      pop\n      dup2\n      add\n      swap1\n      tag_37\n      swap2\n      swap1\n      tag_38\n      jump\t// in\n    tag_37:\n        /* \"FeeHand.sol\":1365:1404  IERC20(token1).balanceOf(address(this)) */\n      mload(0x40)\n      shl(0xe0, 0x70a08231)\n      dup2\n      mstore\n        /* \"FeeHand.sol\":1398:1402  this */\n      address\n        /* \"FeeHand.sol\":1365:1404  IERC20(token1).balanceOf(address(this)) */\n      0x04\n      dup3\n      add\n        /* \"#utility.yul\":1649:1700   */\n      mstore\n        /* \"FeeHand.sol\":1286:1338  uint total0 =IERC20(token0).balanceOf(address(this)) */\n      swap1\n      swap2\n      pop\n        /* \"FeeHand.sol\":1352:1363  uint total1 */\n      0x00\n      swap1\n      sub(shl(0xa0, 0x01), 0x01)\n        /* \"FeeHand.sol\":1365:1389  IERC20(token1).balanceOf */\n      dup5\n      and\n      swap1\n      0x70a08231\n      swap1\n        /* \"#utility.yul\":1622:1640   */\n      0x24\n      add\n        /* \"FeeHand.sol\":1365:1404  IERC20(token1).balanceOf(address(this)) */\n      0x20\n      mload(0x40)\n      dup1\n      dup4\n      sub\n      dup2\n      dup7\n      dup1\n      extcodesize\n      iszero\n      dup1\n      iszero\n      tag_40\n      jumpi\n      0x00\n      dup1\n      revert\n    tag_40:\n      pop\n      gas\n      staticcall\n      iszero\n      dup1\n      iszero\n      tag_42\n      jumpi\n      returndatasize\n      0x00\n      dup1\n      returndatacopy\n      revert(0x00, returndatasize)\n    tag_42:\n      pop\n      pop\n      pop\n      pop\n      mload(0x40)\n      returndatasize\n      not(0x1f)\n      0x1f\n      dup3\n      add\n      and\n      dup3\n      add\n      dup1\n      0x40\n      mstore\n      pop\n      dup2\n      add\n      swap1\n      tag_43\n      swap2\n      swap1\n      tag_38\n      jump\t// in\n    tag_43:\n        /* \"FeeHand.sol\":1435:1441  etCoin */\n      sload(0x02)\n        /* \"FeeHand.sol\":1352:1404  uint total1 =IERC20(token1).balanceOf(address(this)) */\n      swap1\n      swap2\n      pop\n      sub(shl(0xa0, 0x01), 0x01)\n        /* \"FeeHand.sol\":1418:1442  token0 ==address(etCoin) */\n      dup6\n      dup2\n      and\n        /* \"FeeHand.sol\":1435:1441  etCoin */\n      swap2\n      and\n        /* \"FeeHand.sol\":1418:1442  token0 ==address(etCoin) */\n      eq\n        /* \"FeeHand.sol\":1415:1620  if(token0 ==address(etCoin)){\r... */\n      iszero\n      tag_44\n      jumpi\n        /* \"FeeHand.sol\":1458:1464  etCoin */\n      sload(0x02)\n        /* \"FeeHand.sol\":1458:1534  etCoin.transfer(address(0x000000000000000000000000000000000000dEaD), total0) */\n      mload(0x40)\n      shl(0xe0, 0xa9059cbb)\n      dup2\n      mstore\n        /* \"FeeHand.sol\":1482:1524  0x000000000000000000000000000000000000dEaD */\n      0xdead\n        /* \"FeeHand.sol\":1458:1534  etCoin.transfer(address(0x000000000000000000000000000000000000dEaD), total0) */\n      0x04\n      dup3\n      add\n        /* \"#utility.yul\":2194:2245   */\n      mstore\n        /* \"#utility.yul\":2261:2279   */\n      0x24\n      dup2\n      add\n        /* \"#utility.yul\":2254:2288   */\n      dup5\n      swap1\n      mstore\n      sub(shl(0xa0, 0x01), 0x01)\n        /* \"FeeHand.sol\":1458:1464  etCoin */\n      swap1\n      swap2\n      and\n      swap1\n        /* \"FeeHand.sol\":1458:1473  etCoin.transfer */\n      0xa9059cbb\n      swap1\n        /* \"#utility.yul\":2167:2185   */\n      0x44\n      add\n        /* \"FeeHand.sol\":1458:1534  etCoin.transfer(address(0x000000000000000000000000000000000000dEaD), total0) */\n      0x20\n      mload(0x40)\n      dup1\n      dup4\n      sub\n      dup2\n      0x00\n      dup8\n      dup1\n      extcodesize\n      iszero\n      dup1\n      iszero\n      tag_47\n      jumpi\n      0x00\n      dup1\n      revert\n    tag_47:\n      pop\n      gas\n      call\n      iszero\n      dup1\n      iszero\n      tag_49\n      jumpi\n      returndatasize\n      0x00\n      dup1\n      returndatacopy\n      revert(0x00, returndatasize)\n    tag_49:\n      pop\n      pop\n      pop\n      pop\n      mload(0x40)\n      returndatasize\n      not(0x1f)\n      0x1f\n      dup3\n      add\n      and\n      dup3\n      add\n      dup1\n      0x40\n      mstore\n      pop\n      dup2\n      add\n      swap1\n      tag_50\n      swap2\n      swap1\n      tag_51\n      jump\t// in\n    tag_50:\n      pop\n        /* \"FeeHand.sol\":1415:1620  if(token0 ==address(etCoin)){\r... */\n      jump(tag_52)\n    tag_44:\n        /* \"FeeHand.sol\":1589:1599  feeAddress */\n      sload(0x00)\n        /* \"FeeHand.sol\":1565:1608  IERC20(token0).transfer(feeAddress, total0) */\n      mload(0x40)\n      shl(0xe0, 0xa9059cbb)\n      dup2\n      mstore\n      sub(shl(0xa0, 0x01), 0x01)\n        /* \"FeeHand.sol\":1589:1599  feeAddress */\n      swap2\n      dup3\n      and\n        /* \"FeeHand.sol\":1565:1608  IERC20(token0).transfer(feeAddress, total0) */\n      0x04\n      dup3\n      add\n        /* \"#utility.yul\":2194:2245   */\n      mstore\n        /* \"#utility.yul\":2261:2279   */\n      0x24\n      dup2\n      add\n        /* \"#utility.yul\":2254:2288   */\n      dup5\n      swap1\n      mstore\n        /* \"FeeHand.sol\":1565:1588  IERC20(token0).transfer */\n      swap1\n      dup6\n      and\n      swap1\n      0xa9059cbb\n      swap1\n        /* \"#utility.yul\":2167:2185   */\n      0x44\n      add\n        /* \"FeeHand.sol\":1565:1608  IERC20(token0).transfer(feeAddress, total0) */\n      0x20\n      mload(0x40)\n      dup1\n      dup4\n      sub\n      dup2\n      0x00\n      dup8\n      dup1\n      extcodesize\n      iszero\n      dup1\n      iszero\n      tag_54\n      jumpi\n      0x00\n      dup1\n      revert\n    tag_54:\n      pop\n      gas\n      call\n      iszero\n      dup1\n      iszero\n      tag_56\n      jumpi\n      returndatasize\n      0x00\n      dup1\n      returndatacopy\n      revert(0x00, returndatasize)\n    tag_56:\n      pop\n      pop\n      pop\n      pop\n      mload(0x40)\n      returndatasize\n      not(0x1f)\n      0x1f\n      dup3\n      add\n      and\n      dup3\n      add\n      dup1\n      0x40\n      mstore\n      pop\n      dup2\n      add\n      swap1\n      tag_57\n      swap2\n      swap1\n      tag_51\n      jump\t// in\n    tag_57:\n      pop\n        /* \"FeeHand.sol\":1415:1620  if(token0 ==address(etCoin)){\r... */\n    tag_52:\n        /* \"FeeHand.sol\":1650:1656  etCoin */\n      sload(0x02)\n      sub(shl(0xa0, 0x01), 0x01)\n        /* \"FeeHand.sol\":1633:1657  token1 ==address(etCoin) */\n      dup5\n      dup2\n      and\n        /* \"FeeHand.sol\":1650:1656  etCoin */\n      swap2\n      and\n        /* \"FeeHand.sol\":1633:1657  token1 ==address(etCoin) */\n      eq\n        /* \"FeeHand.sol\":1630:1835  if(token1 ==address(etCoin)){\r... */\n      iszero\n      tag_58\n      jumpi\n        /* \"FeeHand.sol\":1673:1679  etCoin */\n      sload(0x02)\n        /* \"FeeHand.sol\":1673:1749  etCoin.transfer(address(0x000000000000000000000000000000000000dEaD), total1) */\n      mload(0x40)\n      shl(0xe0, 0xa9059cbb)\n      dup2\n      mstore\n        /* \"FeeHand.sol\":1697:1739  0x000000000000000000000000000000000000dEaD */\n      0xdead\n        /* \"FeeHand.sol\":1673:1749  etCoin.transfer(address(0x000000000000000000000000000000000000dEaD), total1) */\n      0x04\n      dup3\n      add\n        /* \"#utility.yul\":2194:2245   */\n      mstore\n        /* \"#utility.yul\":2261:2279   */\n      0x24\n      dup2\n      add\n        /* \"#utility.yul\":2254:2288   */\n      dup4\n      swap1\n      mstore\n      sub(shl(0xa0, 0x01), 0x01)\n        /* \"FeeHand.sol\":1673:1679  etCoin */\n      swap1\n      swap2\n      and\n      swap1\n        /* \"FeeHand.sol\":1673:1688  etCoin.transfer */\n      0xa9059cbb\n      swap1\n        /* \"#utility.yul\":2167:2185   */\n      0x44\n      add\n        /* \"FeeHand.sol\":1673:1749  etCoin.transfer(address(0x000000000000000000000000000000000000dEaD), total1) */\n      0x20\n      mload(0x40)\n      dup1\n      dup4\n      sub\n      dup2\n      0x00\n      dup8\n      dup1\n      extcodesize\n      iszero\n      dup1\n      iszero\n      tag_60\n      jumpi\n      0x00\n      dup1\n      revert\n    tag_60:\n      pop\n      gas\n      call\n      iszero\n      dup1\n      iszero\n      tag_62\n      jumpi\n      returndatasize\n      0x00\n      dup1\n      returndatacopy\n      revert(0x00, returndatasize)\n    tag_62:\n      pop\n      pop\n      pop\n      pop\n      mload(0x40)\n      returndatasize\n      not(0x1f)\n      0x1f\n      dup3\n      add\n      and\n      dup3\n      add\n      dup1\n      0x40\n      mstore\n      pop\n      dup2\n      add\n      swap1\n      tag_63\n      swap2\n      swap1\n      tag_51\n      jump\t// in\n    tag_63:\n      pop\n        /* \"FeeHand.sol\":1630:1835  if(token1 ==address(etCoin)){\r... */\n      jump(tag_64)\n    tag_58:\n        /* \"FeeHand.sol\":1804:1814  feeAddress */\n      sload(0x00)\n        /* \"FeeHand.sol\":1780:1823  IERC20(token1).transfer(feeAddress, total1) */\n      mload(0x40)\n      shl(0xe0, 0xa9059cbb)\n      dup2\n      mstore\n      sub(shl(0xa0, 0x01), 0x01)\n        /* \"FeeHand.sol\":1804:1814  feeAddress */\n      swap2\n      dup3\n      and\n        /* \"FeeHand.sol\":1780:1823  IERC20(token1).transfer(feeAddress, total1) */\n      0x04\n      dup3\n      add\n        /* \"#utility.yul\":2194:2245   */\n      mstore\n        /* \"#utility.yul\":2261:2279   */\n      0x24\n      dup2\n      add\n        /* \"#utility.yul\":2254:2288   */\n      dup4\n      swap1\n      mstore\n        /* \"FeeHand.sol\":1780:1803  IERC20(token1).transfer */\n      swap1\n      dup5\n      and\n      swap1\n      0xa9059cbb\n      swap1\n        /* \"#utility.yul\":2167:2185   */\n      0x44\n      add\n        /* \"FeeHand.sol\":1780:1823  IERC20(token1).transfer(feeAddress, total1) */\n      0x20\n      mload(0x40)\n      dup1\n      dup4\n      sub\n      dup2\n      0x00\n      dup8\n      dup1\n      extcodesize\n      iszero\n      dup1\n      iszero\n      tag_66\n      jumpi\n      0x00\n      dup1\n      revert\n    tag_66:\n      pop\n      gas\n      call\n      iszero\n      dup1\n      iszero\n      tag_68\n      jumpi\n      returndatasize\n      0x00\n      dup1\n      returndatacopy\n      revert(0x00, returndatasize)\n    tag_68:\n      pop\n      pop\n      pop\n      pop\n      mload(0x40)\n      returndatasize\n      not(0x1f)\n      0x1f\n      dup3\n      add\n      and\n      dup3\n      add\n      dup1\n      0x40\n      mstore\n      pop\n      dup2\n      add\n      swap1\n      tag_69\n      swap2\n      swap1\n      tag_51\n      jump\t// in\n    tag_69:\n      pop\n        /* \"FeeHand.sol\":1630:1835  if(token1 ==address(etCoin)){\r... */\n    tag_64:\n        /* \"FeeHand.sol\":1142:1842  function burn(address _ipair,address token0,address token1)public override {\r... */\n      pop\n      pop\n      pop\n      pop\n      pop\n      jump\t// out\n        /* \"FeeHand.sol\":1001:1136  function setFeeAddress(address _address)public onlyOwner{\r... */\n    tag_19:\n        /* \"FeeHand.sol\":529:539  msg.sender */\n      caller\n        /* \"FeeHand.sol\":518:525  owner() */\n      tag_71\n        /* \"FeeHand.sol\":458:464  _owner */\n      and(sub(shl(0xa0, 0x01), 0x01), sload(0x01))\n      swap1\n        /* \"FeeHand.sol\":385:472  function owner() public view virtual returns (address) {\r... */\n      jump\n        /* \"FeeHand.sol\":518:525  owner() */\n    tag_71:\n      sub(shl(0xa0, 0x01), 0x01)\n        /* \"FeeHand.sol\":518:539  owner() == msg.sender */\n      and\n      eq\n        /* \"FeeHand.sol\":510:576  require(owner() == msg.sender, \"Ownable: caller is not the owner\") */\n      tag_72\n      jumpi\n      mload(0x40)\n      shl(0xe5, 0x461bcd)\n      dup2\n      mstore\n        /* \"#utility.yul\":2908:2910   */\n      0x20\n        /* \"FeeHand.sol\":510:576  require(owner() == msg.sender, \"Ownable: caller is not the owner\") */\n      0x04\n      dup3\n      add\n        /* \"#utility.yul\":2890:2911   */\n      dup2\n      swap1\n      mstore\n        /* \"#utility.yul\":2927:2945   */\n      0x24\n      dup3\n      add\n        /* \"#utility.yul\":2920:2950   */\n      mstore\n        /* \"#utility.yul\":2986:3020   */\n      0x4f776e61626c653a2063616c6c6572206973206e6f7420746865206f776e6572\n        /* \"#utility.yul\":2966:2984   */\n      0x44\n      dup3\n      add\n        /* \"#utility.yul\":2959:3021   */\n      mstore\n        /* \"#utility.yul\":3038:3056   */\n      0x64\n      add\n        /* \"FeeHand.sol\":510:576  require(owner() == msg.sender, \"Ownable: caller is not the owner\") */\n    tag_73:\n      mload(0x40)\n      dup1\n      swap2\n      sub\n      swap1\n      revert\n    tag_72:\n        /* \"FeeHand.sol\":1068:1078  feeAddress */\n      0x00\n        /* \"FeeHand.sol\":1068:1089  feeAddress = _address */\n      dup1\n      sload\n      not(sub(shl(0xa0, 0x01), 0x01))\n      and\n      sub(shl(0xa0, 0x01), 0x01)\n      dup4\n      and\n      swap1\n      dup2\n      or\n      swap1\n      swap2\n      sstore\n        /* \"FeeHand.sol\":1105:1128  SetFeeAddress(_address) */\n      mload(0x40)\n        /* \"#utility.yul\":1649:1700   */\n      swap1\n      dup2\n      mstore\n        /* \"FeeHand.sol\":1105:1128  SetFeeAddress(_address) */\n      0xfcb8a963756b148f85a52537b63147b6c4b40af694099c901ac3b99d317a2db8\n      swap1\n        /* \"#utility.yul\":1637:1639   */\n      0x20\n        /* \"#utility.yul\":1622:1640   */\n      add\n        /* \"FeeHand.sol\":1105:1128  SetFeeAddress(_address) */\n      mload(0x40)\n      dup1\n      swap2\n      sub\n      swap1\n      log1\n        /* \"FeeHand.sol\":1001:1136  function setFeeAddress(address _address)public onlyOwner{\r... */\n      pop\n      jump\t// out\n        /* \"FeeHand.sol\":676:950  function transferOwnership(address newOwner) public onlyOwner {\r... */\n    tag_25:\n        /* \"FeeHand.sol\":529:539  msg.sender */\n      caller\n        /* \"FeeHand.sol\":518:525  owner() */\n      tag_79\n        /* \"FeeHand.sol\":458:464  _owner */\n      and(sub(shl(0xa0, 0x01), 0x01), sload(0x01))\n      swap1\n        /* \"FeeHand.sol\":385:472  function owner() public view virtual returns (address) {\r... */\n      jump\n        /* \"FeeHand.sol\":518:525  owner() */\n    tag_79:\n      sub(shl(0xa0, 0x01), 0x01)\n        /* \"FeeHand.sol\":518:539  owner() == msg.sender */\n      and\n      eq\n        /* \"FeeHand.sol\":510:576  require(owner() == msg.sender, \"Ownable: caller is not the owner\") */\n      tag_80\n      jumpi\n      mload(0x40)\n      shl(0xe5, 0x461bcd)\n      dup2\n      mstore\n        /* \"#utility.yul\":2908:2910   */\n      0x20\n        /* \"FeeHand.sol\":510:576  require(owner() == msg.sender, \"Ownable: caller is not the owner\") */\n      0x04\n      dup3\n      add\n        /* \"#utility.yul\":2890:2911   */\n      dup2\n      swap1\n      mstore\n        /* \"#utility.yul\":2927:2945   */\n      0x24\n      dup3\n      add\n        /* \"#utility.yul\":2920:2950   */\n      mstore\n        /* \"#utility.yul\":2986:3020   */\n      0x4f776e61626c653a2063616c6c6572206973206e6f7420746865206f776e6572\n        /* \"#utility.yul\":2966:2984   */\n      0x44\n      dup3\n      add\n        /* \"#utility.yul\":2959:3021   */\n      mstore\n        /* \"#utility.yul\":3038:3056   */\n      0x64\n      add\n        /* \"FeeHand.sol\":510:576  require(owner() == msg.sender, \"Ownable: caller is not the owner\") */\n      tag_73\n        /* \"#utility.yul\":2880:3062   */\n      jump\n        /* \"FeeHand.sol\":510:576  require(owner() == msg.sender, \"Ownable: caller is not the owner\") */\n    tag_80:\n      sub(shl(0xa0, 0x01), 0x01)\n        /* \"FeeHand.sol\":757:779  newOwner != address(0) */\n      dup2\n      and\n        /* \"FeeHand.sol\":749:822  require(newOwner != address(0), \"Ownable: new owner is the zero address\") */\n      tag_83\n      jumpi\n      mload(0x40)\n      shl(0xe5, 0x461bcd)\n      dup2\n      mstore\n        /* \"#utility.yul\":2501:2503   */\n      0x20\n        /* \"FeeHand.sol\":749:822  require(newOwner != address(0), \"Ownable: new owner is the zero address\") */\n      0x04\n      dup3\n      add\n        /* \"#utility.yul\":2483:2504   */\n      mstore\n        /* \"#utility.yul\":2540:2542   */\n      0x26\n        /* \"#utility.yul\":2520:2538   */\n      0x24\n      dup3\n      add\n        /* \"#utility.yul\":2513:2543   */\n      mstore\n        /* \"#utility.yul\":2579:2613   */\n      0x4f776e61626c653a206e6577206f776e657220697320746865207a65726f2061\n        /* \"#utility.yul\":2559:2577   */\n      0x44\n      dup3\n      add\n        /* \"#utility.yul\":2552:2614   */\n      mstore\n      shl(0xd0, 0x646472657373)\n        /* \"#utility.yul\":2630:2648   */\n      0x64\n      dup3\n      add\n        /* \"#utility.yul\":2623:2659   */\n      mstore\n        /* \"#utility.yul\":2676:2695   */\n      0x84\n      add\n        /* \"FeeHand.sol\":749:822  require(newOwner != address(0), \"Ownable: new owner is the zero address\") */\n      tag_73\n        /* \"#utility.yul\":2473:2701   */\n      jump\n        /* \"FeeHand.sol\":749:822  require(newOwner != address(0), \"Ownable: new owner is the zero address\") */\n    tag_83:\n        /* \"FeeHand.sol\":852:858  _owner */\n      0x01\n      dup1\n      sload\n      sub(shl(0xa0, 0x01), 0x01)\n        /* \"FeeHand.sol\":869:886  _owner = newOwner */\n      dup4\n      dup2\n      and\n      not(sub(shl(0xa0, 0x01), 0x01))\n      dup4\n      and\n      dup2\n      or\n      swap1\n      swap4\n      sstore\n        /* \"FeeHand.sol\":902:942  OwnershipTransferred(oldOwner, newOwner) */\n      0x40\n      dup1\n      mload\n        /* \"FeeHand.sol\":852:858  _owner */\n      swap2\n      swap1\n      swap3\n      and\n        /* \"#utility.yul\":1923:1957   */\n      dup1\n      dup3\n      mstore\n        /* \"#utility.yul\":1988:1990   */\n      0x20\n        /* \"#utility.yul\":1973:1991   */\n      dup3\n      add\n        /* \"#utility.yul\":1966:2009   */\n      swap4\n      swap1\n      swap4\n      mstore\n        /* \"FeeHand.sol\":902:942  OwnershipTransferred(oldOwner, newOwner) */\n      0x8be0079c531659141344cd1fd0a4f28419497f9722a3daafe3b4186f6b6457e0\n      swap2\n        /* \"#utility.yul\":1858:1876   */\n      add\n        /* \"FeeHand.sol\":902:942  OwnershipTransferred(oldOwner, newOwner) */\n      mload(0x40)\n      dup1\n      swap2\n      sub\n      swap1\n      log1\n        /* \"FeeHand.sol\":587:588  _ */\n      pop\n        /* \"FeeHand.sol\":676:950  function transferOwnership(address newOwner) public onlyOwner {\r... */\n      pop\n      jump\t// out\n        /* \"#utility.yul\":14:187   */\n    tag_89:\n        /* \"#utility.yul\":82:102   */\n      dup1\n      calldataload\n      sub(shl(0xa0, 0x01), 0x01)\n        /* \"#utility.yul\":131:162   */\n      dup2\n      and\n        /* \"#utility.yul\":121:163   */\n      dup2\n      eq\n        /* \"#utility.yul\":111:113   */\n      tag_91\n      jumpi\n        /* \"#utility.yul\":177:178   */\n      0x00\n        /* \"#utility.yul\":174:175   */\n      dup1\n        /* \"#utility.yul\":167:179   */\n      revert\n        /* \"#utility.yul\":111:113   */\n    tag_91:\n        /* \"#utility.yul\":63:187   */\n      swap2\n      swap1\n      pop\n      jump\t// out\n        /* \"#utility.yul\":192:388   */\n    tag_18:\n        /* \"#utility.yul\":251:257   */\n      0x00\n        /* \"#utility.yul\":304:306   */\n      0x20\n        /* \"#utility.yul\":292:301   */\n      dup3\n        /* \"#utility.yul\":283:290   */\n      dup5\n        /* \"#utility.yul\":279:302   */\n      sub\n        /* \"#utility.yul\":275:307   */\n      slt\n        /* \"#utility.yul\":272:274   */\n      iszero\n      tag_93\n      jumpi\n        /* \"#utility.yul\":325:331   */\n      dup1\n        /* \"#utility.yul\":317:323   */\n      dup2\n        /* \"#utility.yul\":310:332   */\n      revert\n        /* \"#utility.yul\":272:274   */\n    tag_93:\n        /* \"#utility.yul\":353:382   */\n      tag_94\n        /* \"#utility.yul\":372:381   */\n      dup3\n        /* \"#utility.yul\":353:382   */\n      tag_89\n      jump\t// in\n    tag_94:\n        /* \"#utility.yul\":343:382   */\n      swap4\n        /* \"#utility.yul\":262:388   */\n      swap3\n      pop\n      pop\n      pop\n      jump\t// out\n        /* \"#utility.yul\":393:737   */\n    tag_14:\n        /* \"#utility.yul\":470:476   */\n      0x00\n        /* \"#utility.yul\":478:484   */\n      dup1\n        /* \"#utility.yul\":486:492   */\n      0x00\n        /* \"#utility.yul\":539:541   */\n      0x60\n        /* \"#utility.yul\":527:536   */\n      dup5\n        /* \"#utility.yul\":518:525   */\n      dup7\n        /* \"#utility.yul\":514:537   */\n      sub\n        /* \"#utility.yul\":510:542   */\n      slt\n        /* \"#utility.yul\":507:509   */\n      iszero\n      tag_96\n      jumpi\n        /* \"#utility.yul\":560:566   */\n      dup2\n        /* \"#utility.yul\":552:558   */\n      dup3\n        /* \"#utility.yul\":545:567   */\n      revert\n        /* \"#utility.yul\":507:509   */\n    tag_96:\n        /* \"#utility.yul\":588:617   */\n      tag_97\n        /* \"#utility.yul\":607:616   */\n      dup5\n        /* \"#utility.yul\":588:617   */\n      tag_89\n      jump\t// in\n    tag_97:\n        /* \"#utility.yul\":578:617   */\n      swap3\n      pop\n        /* \"#utility.yul\":636:674   */\n      tag_98\n        /* \"#utility.yul\":670:672   */\n      0x20\n        /* \"#utility.yul\":659:668   */\n      dup6\n        /* \"#utility.yul\":655:673   */\n      add\n        /* \"#utility.yul\":636:674   */\n      tag_89\n      jump\t// in\n    tag_98:\n        /* \"#utility.yul\":626:674   */\n      swap2\n      pop\n        /* \"#utility.yul\":693:731   */\n      tag_99\n        /* \"#utility.yul\":727:729   */\n      0x40\n        /* \"#utility.yul\":716:725   */\n      dup6\n        /* \"#utility.yul\":712:730   */\n      add\n        /* \"#utility.yul\":693:731   */\n      tag_89\n      jump\t// in\n    tag_99:\n        /* \"#utility.yul\":683:731   */\n      swap1\n      pop\n        /* \"#utility.yul\":497:737   */\n      swap3\n      pop\n      swap3\n      pop\n      swap3\n      jump\t// out\n        /* \"#utility.yul\":742:1039   */\n    tag_51:\n        /* \"#utility.yul\":809:815   */\n      0x00\n        /* \"#utility.yul\":862:864   */\n      0x20\n        /* \"#utility.yul\":850:859   */\n      dup3\n        /* \"#utility.yul\":841:848   */\n      dup5\n        /* \"#utility.yul\":837:860   */\n      sub\n        /* \"#utility.yul\":833:865   */\n      slt\n        /* \"#utility.yul\":830:832   */\n      iszero\n      tag_101\n      jumpi\n        /* \"#utility.yul\":883:889   */\n      dup1\n        /* \"#utility.yul\":875:881   */\n      dup2\n        /* \"#utility.yul\":868:890   */\n      revert\n        /* \"#utility.yul\":830:832   */\n    tag_101:\n        /* \"#utility.yul\":920:929   */\n      dup2\n        /* \"#utility.yul\":914:930   */\n      mload\n        /* \"#utility.yul\":973:978   */\n      dup1\n        /* \"#utility.yul\":966:979   */\n      iszero\n        /* \"#utility.yul\":959:980   */\n      iszero\n        /* \"#utility.yul\":952:957   */\n      dup2\n        /* \"#utility.yul\":949:981   */\n      eq\n        /* \"#utility.yul\":939:941   */\n      tag_94\n      jumpi\n        /* \"#utility.yul\":1000:1006   */\n      dup2\n        /* \"#utility.yul\":992:998   */\n      dup3\n        /* \"#utility.yul\":985:1007   */\n      revert\n        /* \"#utility.yul\":1044:1238   */\n    tag_38:\n        /* \"#utility.yul\":1114:1120   */\n      0x00\n        /* \"#utility.yul\":1167:1169   */\n      0x20\n        /* \"#utility.yul\":1155:1164   */\n      dup3\n        /* \"#utility.yul\":1146:1153   */\n      dup5\n        /* \"#utility.yul\":1142:1165   */\n      sub\n        /* \"#utility.yul\":1138:1170   */\n      slt\n        /* \"#utility.yul\":1135:1137   */\n      iszero\n      tag_104\n      jumpi\n        /* \"#utility.yul\":1188:1194   */\n      dup1\n        /* \"#utility.yul\":1180:1186   */\n      dup2\n        /* \"#utility.yul\":1173:1195   */\n      revert\n        /* \"#utility.yul\":1135:1137   */\n    tag_104:\n      pop\n        /* \"#utility.yul\":1216:1232   */\n      mload\n      swap2\n        /* \"#utility.yul\":1125:1238   */\n      swap1\n      pop\n      jump\t// out\n        /* \"#utility.yul\":1243:1498   */\n    tag_32:\n        /* \"#utility.yul\":1322:1328   */\n      0x00\n        /* \"#utility.yul\":1330:1336   */\n      dup1\n        /* \"#utility.yul\":1383:1385   */\n      0x40\n        /* \"#utility.yul\":1371:1380   */\n      dup4\n        /* \"#utility.yul\":1362:1369   */\n      dup6\n        /* \"#utility.yul\":1358:1381   */\n      sub\n        /* \"#utility.yul\":1354:1386   */\n      slt\n        /* \"#utility.yul\":1351:1353   */\n      iszero\n      tag_106\n      jumpi\n        /* \"#utility.yul\":1404:1410   */\n      dup2\n        /* \"#utility.yul\":1396:1402   */\n      dup3\n        /* \"#utility.yul\":1389:1411   */\n      revert\n        /* \"#utility.yul\":1351:1353   */\n    tag_106:\n      pop\n      pop\n        /* \"#utility.yul\":1432:1448   */\n      dup1\n      mload\n        /* \"#utility.yul\":1488:1490   */\n      0x20\n        /* \"#utility.yul\":1473:1491   */\n      swap1\n      swap2\n      add\n        /* \"#utility.yul\":1467:1492   */\n      mload\n        /* \"#utility.yul\":1432:1448   */\n      swap1\n      swap3\n        /* \"#utility.yul\":1467:1492   */\n      swap1\n      swap2\n      pop\n        /* \"#utility.yul\":1341:1498   */\n      jump\t// out\n\n    auxdata: 0xa264697066735822122092cffbeda5cf628cfddb59fd99a46ba2c5b7ff47426e4bea27b531dba376227a64736f6c63430008040033\n}\n",
				"bytecode": {
					"linkReferences": {},
					"object": "608060405234801561001057600080fd5b5060405161083838038061083883398101604081905261002f91610054565b600280546001600160a01b0319166001600160a01b0392909216919091179055610082565b600060208284031215610065578081fd5b81516001600160a01b038116811461007b578182fd5b9392505050565b6107a7806100916000396000f3fe608060405234801561001057600080fd5b50600436106100575760003560e01c8063412753581461005c57806345a11cec1461008b5780638705fcd4146100a05780638da5cb5b146100b3578063f2fde38b146100c4575b600080fd5b60005461006f906001600160a01b031681565b6040516001600160a01b03909116815260200160405180910390f35b61009e6100993660046106d4565b6100d7565b005b61009e6100ae3660046106b3565b6104a6565b6001546001600160a01b031661006f565b61009e6100d23660046106b3565b610568565b60405163226bf2d160e21b81523060048201526001600160a01b038416906389afcb44906024016040805180830381600087803b15801561011757600080fd5b505af115801561012b573d6000803e3d6000fd5b505050506040513d601f19601f8201168201806040525081019061014f919061074e565b50506040516370a0823160e01b81523060048201526000906001600160a01b038416906370a082319060240160206040518083038186803b15801561019357600080fd5b505afa1580156101a7573d6000803e3d6000fd5b505050506040513d601f19601f820116820180604052508101906101cb9190610736565b6040516370a0823160e01b81523060048201529091506000906001600160a01b038416906370a082319060240160206040518083038186803b15801561021057600080fd5b505afa158015610224573d6000803e3d6000fd5b505050506040513d601f19601f820116820180604052508101906102489190610736565b6002549091506001600160a01b03858116911614156102ed5760025460405163a9059cbb60e01b815261dead6004820152602481018490526001600160a01b039091169063a9059cbb90604401602060405180830381600087803b1580156102af57600080fd5b505af11580156102c3573d6000803e3d6000fd5b505050506040513d601f19601f820116820180604052508101906102e79190610716565b50610375565b60005460405163a9059cbb60e01b81526001600160a01b039182166004820152602481018490529085169063a9059cbb90604401602060405180830381600087803b15801561033b57600080fd5b505af115801561034f573d6000803e3d6000fd5b505050506040513d601f19601f820116820180604052508101906103739190610716565b505b6002546001600160a01b03848116911614156104175760025460405163a9059cbb60e01b815261dead6004820152602481018390526001600160a01b039091169063a9059cbb90604401602060405180830381600087803b1580156103d957600080fd5b505af11580156103ed573d6000803e3d6000fd5b505050506040513d601f19601f820116820180604052508101906104119190610716565b5061049f565b60005460405163a9059cbb60e01b81526001600160a01b039182166004820152602481018390529084169063a9059cbb90604401602060405180830381600087803b15801561046557600080fd5b505af1158015610479573d6000803e3d6000fd5b505050506040513d601f19601f8201168201806040525081019061049d9190610716565b505b5050505050565b336104b96001546001600160a01b031690565b6001600160a01b0316146105145760405162461bcd60e51b815260206004820181905260248201527f4f776e61626c653a2063616c6c6572206973206e6f7420746865206f776e657260448201526064015b60405180910390fd5b600080546001600160a01b0319166001600160a01b0383169081179091556040519081527ffcb8a963756b148f85a52537b63147b6c4b40af694099c901ac3b99d317a2db89060200160405180910390a150565b3361057b6001546001600160a01b031690565b6001600160a01b0316146105d15760405162461bcd60e51b815260206004820181905260248201527f4f776e61626c653a2063616c6c6572206973206e6f7420746865206f776e6572604482015260640161050b565b6001600160a01b0381166106365760405162461bcd60e51b815260206004820152602660248201527f4f776e61626c653a206e6577206f776e657220697320746865207a65726f206160448201526564647265737360d01b606482015260840161050b565b600180546001600160a01b038381166001600160a01b031983168117909355604080519190921680825260208201939093527f8be0079c531659141344cd1fd0a4f28419497f9722a3daafe3b4186f6b6457e0910160405180910390a15050565b80356001600160a01b03811681146106ae57600080fd5b919050565b6000602082840312156106c4578081fd5b6106cd82610697565b9392505050565b6000806000606084860312156106e8578182fd5b6106f184610697565b92506106ff60208501610697565b915061070d60408501610697565b90509250925092565b600060208284031215610727578081fd5b815180151581146106cd578182fd5b600060208284031215610747578081fd5b5051919050565b60008060408385031215610760578182fd5b50508051602090910151909290915056fea264697066735822122092cffbeda5cf628cfddb59fd99a46ba2c5b7ff47426e4bea27b531dba376227a64736f6c63430008040033",
					"opcodes": "PUSH1 0x80 PUSH1 0x40 MSTORE CALLVALUE DUP1 ISZERO PUSH2 0x10 JUMPI PUSH1 0x0 DUP1 REVERT JUMPDEST POP PUSH1 0x40 MLOAD PUSH2 0x838 CODESIZE SUB DUP1 PUSH2 0x838 DUP4 CODECOPY DUP2 ADD PUSH1 0x40 DUP2 SWAP1 MSTORE PUSH2 0x2F SWAP2 PUSH2 0x54 JUMP JUMPDEST PUSH1 0x2 DUP1 SLOAD PUSH1 0x1 PUSH1 0x1 PUSH1 0xA0 SHL SUB NOT AND PUSH1 0x1 PUSH1 0x1 PUSH1 0xA0 SHL SUB SWAP3 SWAP1 SWAP3 AND SWAP2 SWAP1 SWAP2 OR SWAP1 SSTORE PUSH2 0x82 JUMP JUMPDEST PUSH1 0x0 PUSH1 0x20 DUP3 DUP5 SUB SLT ISZERO PUSH2 0x65 JUMPI DUP1 DUP2 REVERT JUMPDEST DUP2 MLOAD PUSH1 0x1 PUSH1 0x1 PUSH1 0xA0 SHL SUB DUP2 AND DUP2 EQ PUSH2 0x7B JUMPI DUP2 DUP3 REVERT JUMPDEST SWAP4 SWAP3 POP POP POP JUMP JUMPDEST PUSH2 0x7A7 DUP1 PUSH2 0x91 PUSH1 0x0 CODECOPY PUSH1 0x0 RETURN INVALID PUSH1 0x80 PUSH1 0x40 MSTORE CALLVALUE DUP1 ISZERO PUSH2 0x10 JUMPI PUSH1 0x0 DUP1 REVERT JUMPDEST POP PUSH1 0x4 CALLDATASIZE LT PUSH2 0x57 JUMPI PUSH1 0x0 CALLDATALOAD PUSH1 0xE0 SHR DUP1 PUSH4 0x41275358 EQ PUSH2 0x5C JUMPI DUP1 PUSH4 0x45A11CEC EQ PUSH2 0x8B JUMPI DUP1 PUSH4 0x8705FCD4 EQ PUSH2 0xA0 JUMPI DUP1 PUSH4 0x8DA5CB5B EQ PUSH2 0xB3 JUMPI DUP1 PUSH4 0xF2FDE38B EQ PUSH2 0xC4 JUMPI JUMPDEST PUSH1 0x0 DUP1 REVERT JUMPDEST PUSH1 0x0 SLOAD PUSH2 0x6F SWAP1 PUSH1 0x1 PUSH1 0x1 PUSH1 0xA0 SHL SUB AND DUP2 JUMP JUMPDEST PUSH1 0x40 MLOAD PUSH1 0x1 PUSH1 0x1 PUSH1 0xA0 SHL SUB SWAP1 SWAP2 AND DUP2 MSTORE PUSH1 0x20 ADD PUSH1 0x40 MLOAD DUP1 SWAP2 SUB SWAP1 RETURN JUMPDEST PUSH2 0x9E PUSH2 0x99 CALLDATASIZE PUSH1 0x4 PUSH2 0x6D4 JUMP JUMPDEST PUSH2 0xD7 JUMP JUMPDEST STOP JUMPDEST PUSH2 0x9E PUSH2 0xAE CALLDATASIZE PUSH1 0x4 PUSH2 0x6B3 JUMP JUMPDEST PUSH2 0x4A6 JUMP JUMPDEST PUSH1 0x1 SLOAD PUSH1 0x1 PUSH1 0x1 PUSH1 0xA0 SHL SUB AND PUSH2 0x6F JUMP JUMPDEST PUSH2 0x9E PUSH2 0xD2 CALLDATASIZE PUSH1 0x4 PUSH2 0x6B3 JUMP JUMPDEST PUSH2 0x568 JUMP JUMPDEST PUSH1 0x40 MLOAD PUSH4 0x226BF2D1 PUSH1 0xE2 SHL DUP2 MSTORE ADDRESS PUSH1 0x4 DUP3 ADD MSTORE PUSH1 0x1 PUSH1 0x1 PUSH1 0xA0 SHL SUB DUP5 AND SWAP1 PUSH4 0x89AFCB44 SWAP1 PUSH1 0x24 ADD PUSH1 0x40 DUP1 MLOAD DUP1 DUP4 SUB DUP2 PUSH1 0x0 DUP8 DUP1 EXTCODESIZE ISZERO DUP1 ISZERO PUSH2 0x117 JUMPI PUSH1 0x0 DUP1 REVERT JUMPDEST POP GAS CALL ISZERO DUP1 ISZERO PUSH2 0x12B JUMPI RETURNDATASIZE PUSH1 0x0 DUP1 RETURNDATACOPY RETURNDATASIZE PUSH1 0x0 REVERT JUMPDEST POP POP POP POP PUSH1 0x40 MLOAD RETURNDATASIZE PUSH1 0x1F NOT PUSH1 0x1F DUP3 ADD AND DUP3 ADD DUP1 PUSH1 0x40 MSTORE POP DUP2 ADD SWAP1 PUSH2 0x14F SWAP2 SWAP1 PUSH2 0x74E JUMP JUMPDEST POP POP PUSH1 0x40 MLOAD PUSH4 0x70A08231 PUSH1 0xE0 SHL DUP2 MSTORE ADDRESS PUSH1 0x4 DUP3 ADD MSTORE PUSH1 0x0 SWAP1 PUSH1 0x1 PUSH1 0x1 PUSH1 0xA0 SHL SUB DUP5 AND SWAP1 PUSH4 0x70A08231 SWAP1 PUSH1 0x24 ADD PUSH1 0x20 PUSH1 0x40 MLOAD DUP1 DUP4 SUB DUP2 DUP7 DUP1 EXTCODESIZE ISZERO DUP1 ISZERO PUSH2 0x193 JUMPI PUSH1 0x0 DUP1 REVERT JUMPDEST POP GAS STATICCALL ISZERO DUP1 ISZERO PUSH2 0x1A7 JUMPI RETURNDATASIZE PUSH1 0x0 DUP1 RETURNDATACOPY RETURNDATASIZE PUSH1 0x0 REVERT JUMPDEST POP POP POP POP PUSH1 0x40 MLOAD RETURNDATASIZE PUSH1 0x1F NOT PUSH1 0x1F DUP3 ADD AND DUP3 ADD DUP1 PUSH1 0x40 MSTORE POP DUP2 ADD SWAP1 PUSH2 0x1CB SWAP2 SWAP1 PUSH2 0x736 JUMP JUMPDEST PUSH1 0x40 MLOAD PUSH4 0x70A08231 PUSH1 0xE0 SHL DUP2 MSTORE ADDRESS PUSH1 0x4 DUP3 ADD MSTORE SWAP1 SWAP2 POP PUSH1 0x0 SWAP1 PUSH1 0x1 PUSH1 0x1 PUSH1 0xA0 SHL SUB DUP5 AND SWAP1 PUSH4 0x70A08231 SWAP1 PUSH1 0x24 ADD PUSH1 0x20 PUSH1 0x40 MLOAD DUP1 DUP4 SUB DUP2 DUP7 DUP1 EXTCODESIZE ISZERO DUP1 ISZERO PUSH2 0x210 JUMPI PUSH1 0x0 DUP1 REVERT JUMPDEST POP GAS STATICCALL ISZERO DUP1 ISZERO PUSH2 0x224 JUMPI RETURNDATASIZE PUSH1 0x0 DUP1 RETURNDATACOPY RETURNDATASIZE PUSH1 0x0 REVERT JUMPDEST POP POP POP POP PUSH1 0x40 MLOAD RETURNDATASIZE PUSH1 0x1F NOT PUSH1 0x1F DUP3 ADD AND DUP3 ADD DUP1 PUSH1 0x40 MSTORE POP DUP2 ADD SWAP1 PUSH2 0x248 SWAP2 SWAP1 PUSH2 0x736 JUMP JUMPDEST PUSH1 0x2 SLOAD SWAP1 SWAP2 POP PUSH1 0x1 PUSH1 0x1 PUSH1 0xA0 SHL SUB DUP6 DUP2 AND SWAP2 AND EQ ISZERO PUSH2 0x2ED JUMPI PUSH1 0x2 SLOAD PUSH1 0x40 MLOAD PUSH4 0xA9059CBB PUSH1 0xE0 SHL DUP2 MSTORE PUSH2 0xDEAD PUSH1 0x4 DUP3 ADD MSTORE PUSH1 0x24 DUP2 ADD DUP5 SWAP1 MSTORE PUSH1 0x1 PUSH1 0x1 PUSH1 0xA0 SHL SUB SWAP1 SWAP2 AND SWAP1 PUSH4 0xA9059CBB SWAP1 PUSH1 0x44 ADD PUSH1 0x20 PUSH1 0x40 MLOAD DUP1 DUP4 SUB DUP2 PUSH1 0x0 DUP8 DUP1 EXTCODESIZE ISZERO DUP1 ISZERO PUSH2 0x2AF JUMPI PUSH1 0x0 DUP1 REVERT JUMPDEST POP GAS CALL ISZERO DUP1 ISZERO PUSH2 0x2C3 JUMPI RETURNDATASIZE PUSH1 0x0 DUP1 RETURNDATACOPY RETURNDATASIZE PUSH1 0x0 REVERT JUMPDEST POP POP POP POP PUSH1 0x40 MLOAD RETURNDATASIZE PUSH1 0x1F NOT PUSH1 0x1F DUP3 ADD AND DUP3 ADD DUP1 PUSH1 0x40 MSTORE POP DUP2 ADD SWAP1 PUSH2 0x2E7 SWAP2 SWAP1 PUSH2 0x716 JUMP JUMPDEST POP PUSH2 0x375 JUMP JUMPDEST PUSH1 0x0 SLOAD PUSH1 0x40 MLOAD PUSH4 0xA9059CBB PUSH1 0xE0 SHL DUP2 MSTORE PUSH1 0x1 PUSH1 0x1 PUSH1 0xA0 SHL SUB SWAP2 DUP3 AND PUSH1 0x4 DUP3 ADD MSTORE PUSH1 0x24 DUP2 ADD DUP5 SWAP1 MSTORE SWAP1 DUP6 AND SWAP1 PUSH4 0xA9059CBB SWAP1 PUSH1 0x44 ADD PUSH1 0x20 PUSH1 0x40 MLOAD DUP1 DUP4 SUB DUP2 PUSH1 0x0 DUP8 DUP1 EXTCODESIZE ISZERO DUP1 ISZERO PUSH2 0x33B JUMPI PUSH1 0x0 DUP1 REVERT JUMPDEST POP GAS CALL ISZERO DUP1 ISZERO PUSH2 0x34F JUMPI RETURNDATASIZE PUSH1 0x0 DUP1 RETURNDATACOPY RETURNDATASIZE PUSH1 0x0 REVERT JUMPDEST POP POP POP POP PUSH1 0x40 MLOAD RETURNDATASIZE PUSH1 0x1F NOT PUSH1 0x1F DUP3 ADD AND DUP3 ADD DUP1 PUSH1 0x40 MSTORE POP DUP2 ADD SWAP1 PUSH2 0x373 SWAP2 SWAP1 PUSH2 0x716 JUMP JUMPDEST POP JUMPDEST PUSH1 0x2 SLOAD PUSH1 0x1 PUSH1 0x1 PUSH1 0xA0 SHL SUB DUP5 DUP2 AND SWAP2 AND EQ ISZERO PUSH2 0x417 JUMPI PUSH1 0x2 SLOAD PUSH1 0x40 MLOAD PUSH4 0xA9059CBB PUSH1 0xE0 SHL DUP2 MSTORE PUSH2 0xDEAD PUSH1 0x4 DUP3 ADD MSTORE PUSH1 0x24 DUP2 ADD DUP4 SWAP1 MSTORE PUSH1 0x1 PUSH1 0x1 PUSH1 0xA0 SHL SUB SWAP1 SWAP2 AND SWAP1 PUSH4 0xA9059CBB SWAP1 PUSH1 0x44 ADD PUSH1 0x20 PUSH1 0x40 MLOAD DUP1 DUP4 SUB DUP2 PUSH1 0x0 DUP8 DUP1 EXTCODESIZE ISZERO DUP1 ISZERO PUSH2 0x3D9 JUMPI PUSH1 0x0 DUP1 REVERT JUMPDEST POP GAS CALL ISZERO DUP1 ISZERO PUSH2 0x3ED JUMPI RETURNDATASIZE PUSH1 0x0 DUP1 RETURNDATACOPY RETURNDATASIZE PUSH1 0x0 REVERT JUMPDEST POP POP POP POP PUSH1 0x40 MLOAD RETURNDATASIZE PUSH1 0x1F NOT PUSH1 0x1F DUP3 ADD AND DUP3 ADD DUP1 PUSH1 0x40 MSTORE POP DUP2 ADD SWAP1 PUSH2 0x411 SWAP2 SWAP1 PUSH2 0x716 JUMP JUMPDEST POP PUSH2 0x49F JUMP JUMPDEST PUSH1 0x0 SLOAD PUSH1 0x40 MLOAD PUSH4 0xA9059CBB PUSH1 0xE0 SHL DUP2 MSTORE PUSH1 0x1 PUSH1 0x1 PUSH1 0xA0 SHL SUB SWAP2 DUP3 AND PUSH1 0x4 DUP3 ADD MSTORE PUSH1 0x24 DUP2 ADD DUP4 SWAP1 MSTORE SWAP1 DUP5 AND SWAP1 PUSH4 0xA9059CBB SWAP1 PUSH1 0x44 ADD PUSH1 0x20 PUSH1 0x40 MLOAD DUP1 DUP4 SUB DUP2 PUSH1 0x0 DUP8 DUP1 EXTCODESIZE ISZERO DUP1 ISZERO PUSH2 0x465 JUMPI PUSH1 0x0 DUP1 REVERT JUMPDEST POP GAS CALL ISZERO DUP1 ISZERO PUSH2 0x479 JUMPI RETURNDATASIZE PUSH1 0x0 DUP1 RETURNDATACOPY RETURNDATASIZE PUSH1 0x0 REVERT JUMPDEST POP POP POP POP PUSH1 0x40 MLOAD RETURNDATASIZE PUSH1 0x1F NOT PUSH1 0x1F DUP3 ADD AND DUP3 ADD DUP1 PUSH1 0x40 MSTORE POP DUP2 ADD SWAP1 PUSH2 0x49D SWAP2 SWAP1 PUSH2 0x716 JUMP JUMPDEST POP JUMPDEST POP POP POP POP POP JUMP JUMPDEST CALLER PUSH2 0x4B9 PUSH1 0x1 SLOAD PUSH1 0x1 PUSH1 0x1 PUSH1 0xA0 SHL SUB AND SWAP1 JUMP JUMPDEST PUSH1 0x1 PUSH1 0x1 PUSH1 0xA0 SHL SUB AND EQ PUSH2 0x514 JUMPI PUSH1 0x40 MLOAD PUSH3 0x461BCD PUSH1 0xE5 SHL DUP2 MSTORE PUSH1 0x20 PUSH1 0x4 DUP3 ADD DUP2 SWAP1 MSTORE PUSH1 0x24 DUP3 ADD MSTORE PUSH32 0x4F776E61626C653A2063616C6C6572206973206E6F7420746865206F776E6572 PUSH1 0x44 DUP3 ADD MSTORE PUSH1 0x64 ADD JUMPDEST PUSH1 0x40 MLOAD DUP1 SWAP2 SUB SWAP1 REVERT JUMPDEST PUSH1 0x0 DUP1 SLOAD PUSH1 0x1 PUSH1 0x1 PUSH1 0xA0 SHL SUB NOT AND PUSH1 0x1 PUSH1 0x1 PUSH1 0xA0 SHL SUB DUP4 AND SWAP1 DUP2 OR SWAP1 SWAP2 SSTORE PUSH1 0x40 MLOAD SWAP1 DUP2 MSTORE PUSH32 0xFCB8A963756B148F85A52537B63147B6C4B40AF694099C901AC3B99D317A2DB8 SWAP1 PUSH1 0x20 ADD PUSH1 0x40 MLOAD DUP1 SWAP2 SUB SWAP1 LOG1 POP JUMP JUMPDEST CALLER PUSH2 0x57B PUSH1 0x1 SLOAD PUSH1 0x1 PUSH1 0x1 PUSH1 0xA0 SHL SUB AND SWAP1 JUMP JUMPDEST PUSH1 0x1 PUSH1 0x1 PUSH1 0xA0 SHL SUB AND EQ PUSH2 0x5D1 JUMPI PUSH1 0x40 MLOAD PUSH3 0x461BCD PUSH1 0xE5 SHL DUP2 MSTORE PUSH1 0x20 PUSH1 0x4 DUP3 ADD DUP2 SWAP1 MSTORE PUSH1 0x24 DUP3 ADD MSTORE PUSH32 0x4F776E61626C653A2063616C6C6572206973206E6F7420746865206F776E6572 PUSH1 0x44 DUP3 ADD MSTORE PUSH1 0x64 ADD PUSH2 0x50B JUMP JUMPDEST PUSH1 0x1 PUSH1 0x1 PUSH1 0xA0 SHL SUB DUP2 AND PUSH2 0x636 JUMPI PUSH1 0x40 MLOAD PUSH3 0x461BCD PUSH1 0xE5 SHL DUP2 MSTORE PUSH1 0x20 PUSH1 0x4 DUP3 ADD MSTORE PUSH1 0x26 PUSH1 0x24 DUP3 ADD MSTORE PUSH32 0x4F776E61626C653A206E6577206F776E657220697320746865207A65726F2061 PUSH1 0x44 DUP3 ADD MSTORE PUSH6 0x646472657373 PUSH1 0xD0 SHL PUSH1 0x64 DUP3 ADD MSTORE PUSH1 0x84 ADD PUSH2 0x50B JUMP JUMPDEST PUSH1 0x1 DUP1 SLOAD PUSH1 0x1 PUSH1 0x1 PUSH1 0xA0 SHL SUB DUP4 DUP2 AND PUSH1 0x1 PUSH1 0x1 PUSH1 0xA0 SHL SUB NOT DUP4 AND DUP2 OR SWAP1 SWAP4 SSTORE PUSH1 0x40 DUP1 MLOAD SWAP2 SWAP1 SWAP3 AND DUP1 DUP3 MSTORE PUSH1 0x20 DUP3 ADD SWAP4 SWAP1 SWAP4 MSTORE PUSH32 0x8BE0079C531659141344CD1FD0A4F28419497F9722A3DAAFE3B4186F6B6457E0 SWAP2 ADD PUSH1 0x40 MLOAD DUP1 SWAP2 SUB SWAP1 LOG1 POP POP JUMP JUMPDEST DUP1 CALLDATALOAD PUSH1 0x1 PUSH1 0x1 PUSH1 0xA0 SHL SUB DUP2 AND DUP2 EQ PUSH2 0x6AE JUMPI PUSH1 0x0 DUP1 REVERT JUMPDEST SWAP2 SWAP1 POP JUMP JUMPDEST PUSH1 0x0 PUSH1 0x20 DUP3 DUP5 SUB SLT ISZERO PUSH2 0x6C4 JUMPI DUP1 DUP2 REVERT JUMPDEST PUSH2 0x6CD DUP3 PUSH2 0x697 JUMP JUMPDEST SWAP4 SWAP3 POP POP POP JUMP JUMPDEST PUSH1 0x0 DUP1 PUSH1 0x0 PUSH1 0x60 DUP5 DUP7 SUB SLT ISZERO PUSH2 0x6E8 JUMPI DUP2 DUP3 REVERT JUMPDEST PUSH2 0x6F1 DUP5 PUSH2 0x697 JUMP JUMPDEST SWAP3 POP PUSH2 0x6FF PUSH1 0x20 DUP6 ADD PUSH2 0x697 JUMP JUMPDEST SWAP2 POP PUSH2 0x70D PUSH1 0x40 DUP6 ADD PUSH2 0x697 JUMP JUMPDEST SWAP1 POP SWAP3 POP SWAP3 POP SWAP3 JUMP JUMPDEST PUSH1 0x0 PUSH1 0x20 DUP3 DUP5 SUB SLT ISZERO PUSH2 0x727 JUMPI DUP1 DUP2 REVERT JUMPDEST DUP2 MLOAD DUP1 ISZERO ISZERO DUP2 EQ PUSH2 0x6CD JUMPI DUP2 DUP3 REVERT JUMPDEST PUSH1 0x0 PUSH1 0x20 DUP3 DUP5 SUB SLT ISZERO PUSH2 0x747 JUMPI DUP1 DUP2 REVERT JUMPDEST POP MLOAD SWAP2 SWAP1 POP JUMP JUMPDEST PUSH1 0x0 DUP1 PUSH1 0x40 DUP4 DUP6 SUB SLT ISZERO PUSH2 0x760 JUMPI DUP2 DUP3 REVERT JUMPDEST POP POP DUP1 MLOAD PUSH1 0x20 SWAP1 SWAP2 ADD MLOAD SWAP1 SWAP3 SWAP1 SWAP2 POP JUMP INVALID LOG2 PUSH5 0x6970667358 0x22 SLT KECCAK256 SWAP3 0xCF 0xFB 0xED 0xA5 0xCF PUSH3 0x8CFDDB MSIZE REVERT SWAP10 LOG4 PUSH12 0xA2C5B7FF47426E4BEA27B531 0xDB LOG3 PUSH23 0x227A64736F6C6343000804003300000000000000000000 "
				},
				"gasEstimates": {
					"creation": {
						"codeDepositCost": "391800",
						"executionCost": "infinite",
						"totalCost": "infinite"
					},
					"external": {
						"burn(address,address,address)": "infinite",
						"feeAddress()": "1003",
						"owner()": "1063",
						"setFeeAddress(address)": "23119",
						"transferOwnership(address)": "23495"
					}
				},
				"methodIdentifiers": {
					"burn(address,address,address)": "45a11cec",
					"feeAddress()": "41275358",
					"owner()": "8da5cb5b",
					"setFeeAddress(address)": "8705fcd4",
					"transferOwnership(address)": "f2fde38b"
				}
			},
			"storageLayout": {
				"storage": [
					{
						"astId": 8,
						"contract": "FeeHand.sol:FeeHand",
						"label": "feeAddress",
						"offset": 0,
						"slot": "0",
						"type": "t_address"
					},
					{
						"astId": 10,
						"contract": "FeeHand.sol:FeeHand",
						"label": "_owner",
						"offset": 0,
						"slot": "1",
						"type": "t_address"
					},
					{
						"astId": 13,
						"contract": "FeeHand.sol:FeeHand",
						"label": "etCoin",
						"offset": 0,
						"slot": "2",
						"type": "t_contract(IERC20)287"
					}
				],
				"types": {
					"t_address": {
						"encoding": "inplace",
						"label": "address",
						"numberOfBytes": "20"
					},
					"t_contract(IERC20)287": {
						"encoding": "inplace",
						"label": "contract IERC20",
						"numberOfBytes": "20"
					}
				}
			},
			"userdoc": {
				"kind": "user",
				"methods": {},
				"version": 1
			}
		}
	}
}