{
	"ETNFT.sol": {
		"ETNFT": {
			"abi": [
				{
					"inputs": [
						{
							"internalType": "string",
							"name": "name_",
							"type": "string"
						},
						{
							"internalType": "string",
							"name": "symbol_",
							"type": "string"
						}
					],
					"stateMutability": "nonpayable",
					"type": "constructor"
				},
				{
					"anonymous": false,
					"inputs": [
						{
							"indexed": true,
							"internalType": "address",
							"name": "owner",
							"type": "address"
						},
						{
							"indexed": true,
							"internalType": "address",
							"name": "approved",
							"type": "address"
						},
						{
							"indexed": true,
							"internalType": "uint256",
							"name": "tokenId",
							"type": "uint256"
						}
					],
					"name": "Approval",
					"type": "event"
				},
				{
					"anonymous": false,
					"inputs": [
						{
							"indexed": true,
							"internalType": "address",
							"name": "owner",
							"type": "address"
						},
						{
							"indexed": true,
							"internalType": "address",
							"name": "operator",
							"type": "address"
						},
						{
							"indexed": false,
							"internalType": "bool",
							"name": "approved",
							"type": "bool"
						}
					],
					"name": "ApprovalForAll",
					"type": "event"
				},
				{
					"anonymous": false,
					"inputs": [
						{
							"indexed": false,
							"internalType": "string",
							"name": "url",
							"type": "string"
						}
					],
					"name": "BaseURISet",
					"type": "event"
				},
				{
					"anonymous": false,
					"inputs": [
						{
							"indexed": false,
							"internalType": "address",
							"name": "previousOwner",
							"type": "address"
						},
						{
							"indexed": false,
							"internalType": "address",
							"name": "newOwner",
							"type": "address"
						}
					],
					"name": "OwnershipTransferred",
					"type": "event"
				},
				{
					"anonymous": false,
					"inputs": [
						{
							"indexed": true,
							"internalType": "address",
							"name": "from",
							"type": "address"
						},
						{
							"indexed": true,
							"internalType": "address",
							"name": "to",
							"type": "address"
						},
						{
							"indexed": true,
							"internalType": "uint256",
							"name": "tokenId",
							"type": "uint256"
						}
					],
					"name": "Transfer",
					"type": "event"
				},
				{
					"inputs": [],
					"name": "NFTBonus",
					"outputs": [
						{
							"internalType": "address",
							"name": "",
							"type": "address"
						}
					],
					"stateMutability": "view",
					"type": "function"
				},
				{
					"inputs": [
						{
							"internalType": "address",
							"name": "to",
							"type": "address"
						},
						{
							"internalType": "uint256",
							"name": "tokenId",
							"type": "uint256"
						}
					],
					"name": "approve",
					"outputs": [],
					"stateMutability": "nonpayable",
					"type": "function"
				},
				{
					"inputs": [
						{
							"internalType": "address",
							"name": "owner",
							"type": "address"
						}
					],
					"name": "balanceOf",
					"outputs": [
						{
							"internalType": "uint256",
							"name": "",
							"type": "uint256"
						}
					],
					"stateMutability": "view",
					"type": "function"
				},
				{
					"inputs": [],
					"name": "baseURI",
					"outputs": [
						{
							"internalType": "string",
							"name": "",
							"type": "string"
						}
					],
					"stateMutability": "view",
					"type": "function"
				},
				{
					"inputs": [
						{
							"internalType": "uint256",
							"name": "tokenId",
							"type": "uint256"
						}
					],
					"name": "burn",
					"outputs": [],
					"stateMutability": "nonpayable",
					"type": "function"
				},
				{
					"inputs": [
						{
							"internalType": "uint256",
							"name": "tokenId",
							"type": "uint256"
						}
					],
					"name": "getApproved",
					"outputs": [
						{
							"internalType": "address",
							"name": "",
							"type": "address"
						}
					],
					"stateMutability": "view",
					"type": "function"
				},
				{
					"inputs": [],
					"name": "getTotalSupply",
					"outputs": [
						{
							"internalType": "uint256",
							"name": "",
							"type": "uint256"
						}
					],
					"stateMutability": "view",
					"type": "function"
				},
				{
					"inputs": [
						{
							"internalType": "address",
							"name": "owner",
							"type": "address"
						},
						{
							"internalType": "address",
							"name": "operator",
							"type": "address"
						}
					],
					"name": "isApprovedForAll",
					"outputs": [
						{
							"internalType": "bool",
							"name": "",
							"type": "bool"
						}
					],
					"stateMutability": "view",
					"type": "function"
				},
				{
					"inputs": [
						{
							"internalType": "address",
							"name": "",
							"type": "address"
						}
					],
					"name": "isManager",
					"outputs": [
						{
							"internalType": "bool",
							"name": "",
							"type": "bool"
						}
					],
					"stateMutability": "view",
					"type": "function"
				},
				{
					"inputs": [],
					"name": "name",
					"outputs": [
						{
							"internalType": "string",
							"name": "",
							"type": "string"
						}
					],
					"stateMutability": "view",
					"type": "function"
				},
				{
					"inputs": [],
					"name": "nextTokenId",
					"outputs": [
						{
							"internalType": "uint256",
							"name": "",
							"type": "uint256"
						}
					],
					"stateMutability": "view",
					"type": "function"
				},
				{
					"inputs": [],
					"name": "owner",
					"outputs": [
						{
							"internalType": "address",
							"name": "",
							"type": "address"
						}
					],
					"stateMutability": "view",
					"type": "function"
				},
				{
					"inputs": [
						{
							"internalType": "uint256",
							"name": "tokenId",
							"type": "uint256"
						}
					],
					"name": "ownerOf",
					"outputs": [
						{
							"internalType": "address",
							"name": "",
							"type": "address"
						}
					],
					"stateMutability": "view",
					"type": "function"
				},
				{
					"inputs": [
						{
							"internalType": "address",
							"name": "to",
							"type": "address"
						}
					],
					"name": "safeMint",
					"outputs": [],
					"stateMutability": "nonpayable",
					"type": "function"
				},
				{
					"inputs": [
						{
							"internalType": "address",
							"name": "from",
							"type": "address"
						},
						{
							"internalType": "address",
							"name": "to",
							"type": "address"
						},
						{
							"internalType": "uint256",
							"name": "tokenId",
							"type": "uint256"
						}
					],
					"name": "safeTransferFrom",
					"outputs": [],
					"stateMutability": "nonpayable",
					"type": "function"
				},
				{
					"inputs": [
						{
							"internalType": "address",
							"name": "from",
							"type": "address"
						},
						{
							"internalType": "address",
							"name": "to",
							"type": "address"
						},
						{
							"internalType": "uint256",
							"name": "tokenId",
							"type": "uint256"
						},
						{
							"internalType": "bytes",
							"name": "data",
							"type": "bytes"
						}
					],
					"name": "safeTransferFrom",
					"outputs": [],
					"stateMutability": "nonpayable",
					"type": "function"
				},
				{
					"inputs": [
						{
							"internalType": "address",
							"name": "operator",
							"type": "address"
						},
						{
							"internalType": "bool",
							"name": "approved",
							"type": "bool"
						}
					],
					"name": "setApprovalForAll",
					"outputs": [],
					"stateMutability": "nonpayable",
					"type": "function"
				},
				{
					"inputs": [
						{
							"internalType": "string",
							"name": "url",
							"type": "string"
						}
					],
					"name": "setBaseURI",
					"outputs": [],
					"stateMutability": "nonpayable",
					"type": "function"
				},
				{
					"inputs": [
						{
							"internalType": "address",
							"name": "_manager",
							"type": "address"
						},
						{
							"internalType": "bool",
							"name": "_flag",
							"type": "bool"
						}
					],
					"name": "setManager",
					"outputs": [],
					"stateMutability": "nonpayable",
					"type": "function"
				},
				{
					"inputs": [
						{
							"internalType": "address",
							"name": "_address",
							"type": "address"
						}
					],
					"name": "setNFTBonus",
					"outputs": [],
					"stateMutability": "nonpayable",
					"type": "function"
				},
				{
					"inputs": [
						{
							"internalType": "bytes4",
							"name": "interfaceId",
							"type": "bytes4"
						}
					],
					"name": "supportsInterface",
					"outputs": [
						{
							"internalType": "bool",
							"name": "",
							"type": "bool"
						}
					],
					"stateMutability": "view",
					"type": "function"
				},
				{
					"inputs": [],
					"name": "symbol",
					"outputs": [
						{
							"internalType": "string",
							"name": "",
							"type": "string"
						}
					],
					"stateMutability": "view",
					"type": "function"
				},
				{
					"inputs": [
						{
							"internalType": "uint256",
							"name": "tokenId",
							"type": "uint256"
						}
					],
					"name": "tokenURI",
					"outputs": [
						{
							"internalType": "string",
							"name": "",
							"type": "string"
						}
					],
					"stateMutability": "view",
					"type": "function"
				},
				{
					"inputs": [],
					"name": "totalSupply",
					"outputs": [
						{
							"internalType": "uint256",
							"name": "",
							"type": "uint256"
						}
					],
					"stateMutability": "view",
					"type": "function"
				},
				{
					"inputs": [
						{
							"internalType": "address",
							"name": "from",
							"type": "address"
						},
						{
							"internalType": "address",
							"name": "to",
							"type": "address"
						},
						{
							"internalType": "uint256",
							"name": "tokenId",
							"type": "uint256"
						}
					],
					"name": "transferFrom",
					"outputs": [],
					"stateMutability": "nonpayable",
					"type": "function"
				},
				{
					"inputs": [
						{
							"internalType": "address",
							"name": "newOwner",
							"type": "address"
						}
					],
					"name": "transferOwnership",
					"outputs": [],
					"stateMutability": "nonpayable",
					"type": "function"
				}
			],
			"devdoc": {
				"kind": "dev",
				"methods": {
					"approve(address,uint256)": {
						"details": "See {IERC721-approve}."
					},
					"balanceOf(address)": {
						"details": "See {IERC721-balanceOf}."
					},
					"getApproved(uint256)": {
						"details": "See {IERC721-getApproved}."
					},
					"isApprovedForAll(address,address)": {
						"details": "See {IERC721-isApprovedForAll}."
					},
					"name()": {
						"details": "See {IERC721Metadata-name}."
					},
					"owner()": {
						"details": "Returns the address of the current owner."
					},
					"ownerOf(uint256)": {
						"details": "See {IERC721-ownerOf}."
					},
					"safeTransferFrom(address,address,uint256)": {
						"details": "See {IERC721-safeTransferFrom}."
					},
					"safeTransferFrom(address,address,uint256,bytes)": {
						"details": "See {IERC721-safeTransferFrom}."
					},
					"setApprovalForAll(address,bool)": {
						"details": "See {IERC721-setApprovalForAll}."
					},
					"supportsInterface(bytes4)": {
						"details": "See {IERC165-supportsInterface}."
					},
					"symbol()": {
						"details": "See {IERC721Metadata-symbol}."
					},
					"tokenURI(uint256)": {
						"details": "See {IERC721Metadata-tokenURI}."
					},
					"transferFrom(address,address,uint256)": {
						"details": "See {IERC721-transferFrom}."
					}
				},
				"version": 1
			},
			"evm": {
				"assembly": "    /* \"ETNFT.sol\":191:3061  contract ETNFT is ERC721,IETNFT{\r... */\n  mstore(0x40, 0x80)\n    /* \"ETNFT.sol\":642:793  constructor(string memory name_, string memory symbol_) ERC721(name_,symbol_) {\r... */\n  callvalue\n  dup1\n  iszero\n  tag_1\n  jumpi\n  0x00\n  dup1\n  revert\ntag_1:\n  pop\n  mload(0x40)\n  sub(codesize, bytecodeSize)\n  dup1\n  bytecodeSize\n  dup4\n  codecopy\n  dup2\n  add\n  0x40\n  dup2\n  swap1\n  mstore\n  tag_2\n  swap2\n  tag_3\n  jump\t// in\ntag_2:\n    /* \"@openzeppelin/contracts/token/ERC721/ERC721.sol\":1456:1469  _name = name_ */\n  dup2\n  mload\n    /* \"ETNFT.sol\":705:710  name_ */\n  dup3\n  swap1\n    /* \"ETNFT.sol\":711:718  symbol_ */\n  dup3\n  swap1\n    /* \"@openzeppelin/contracts/token/ERC721/ERC721.sol\":1456:1469  _name = name_ */\n  tag_7\n  swap1\n    /* \"@openzeppelin/contracts/token/ERC721/ERC721.sol\":1456:1461  _name */\n  0x00\n  swap1\n    /* \"@openzeppelin/contracts/token/ERC721/ERC721.sol\":1456:1469  _name = name_ */\n  0x20\n  dup6\n  add\n  swap1\n  tag_8\n  jump\t// in\ntag_7:\n  pop\n    /* \"@openzeppelin/contracts/token/ERC721/ERC721.sol\":1479:1496  _symbol = symbol_ */\n  dup1\n  mload\n  tag_9\n  swap1\n    /* \"@openzeppelin/contracts/token/ERC721/ERC721.sol\":1479:1486  _symbol */\n  0x01\n  swap1\n    /* \"@openzeppelin/contracts/token/ERC721/ERC721.sol\":1479:1496  _symbol = symbol_ */\n  0x20\n  dup5\n  add\n  swap1\n  tag_8\n  jump\t// in\ntag_9:\n  pop\n  pop\n    /* \"ETNFT.sol\":729:735  _owner */\n  0x09\n    /* \"ETNFT.sol\":729:748  _owner = msg.sender */\n  dup1\n  sload\n  not(sub(shl(0xa0, 0x01), 0x01))\n  and\n    /* \"ETNFT.sol\":738:748  msg.sender */\n  caller\n    /* \"ETNFT.sol\":729:748  _owner = msg.sender */\n  swap1\n  dup2\n  or\n  swap1\n  swap2\n  sstore\n    /* \"ETNFT.sol\":757:785  setManager(msg.sender, true) */\n  tag_11\n  swap2\n  pop\n    /* \"ETNFT.sol\":729:748  _owner = msg.sender */\n  0x01\n    /* \"ETNFT.sol\":757:767  setManager */\n  tag_12\n    /* \"ETNFT.sol\":757:785  setManager(msg.sender, true) */\n  jump\t// in\ntag_11:\n    /* \"ETNFT.sol\":642:793  constructor(string memory name_, string memory symbol_) ERC721(name_,symbol_) {\r... */\n  pop\n  pop\n    /* \"ETNFT.sol\":191:3061  contract ETNFT is ERC721,IETNFT{\r... */\n  jump(tag_36)\n    /* \"ETNFT.sol\":965:1078  function setManager(address _manager, bool _flag) public onlyOwner {\r... */\ntag_12:\n    /* \"ETNFT.sol\":945:951  _owner */\n  and(sub(shl(0xa0, 0x01), 0x01), sload(0x09))\n    /* \"@openzeppelin/contracts/utils/Context.sol\":719:729  msg.sender */\n  caller\n    /* \"ETNFT.sol\":1333:1356  owner() == _msgSender() */\n  eq\n    /* \"ETNFT.sol\":1325:1393  require(owner() == _msgSender(), \"Ownable: caller is not the owner\") */\n  tag_19\n  jumpi\n  mload(0x40)\n  shl(0xe5, 0x461bcd)\n  dup2\n  mstore\n    /* \"#utility.yul\":1727:1729   */\n  0x20\n    /* \"ETNFT.sol\":1325:1393  require(owner() == _msgSender(), \"Ownable: caller is not the owner\") */\n  0x04\n  dup3\n  add\n    /* \"#utility.yul\":1709:1730   */\n  dup2\n  swap1\n  mstore\n    /* \"#utility.yul\":1746:1764   */\n  0x24\n  dup3\n  add\n    /* \"#utility.yul\":1739:1769   */\n  mstore\n    /* \"#utility.yul\":1805:1839   */\n  0x4f776e61626c653a2063616c6c6572206973206e6f7420746865206f776e6572\n    /* \"#utility.yul\":1785:1803   */\n  0x44\n  dup3\n  add\n    /* \"#utility.yul\":1778:1840   */\n  mstore\n    /* \"#utility.yul\":1857:1875   */\n  0x64\n  add\n    /* \"ETNFT.sol\":1325:1393  require(owner() == _msgSender(), \"Ownable: caller is not the owner\") */\n  mload(0x40)\n  dup1\n  swap2\n  sub\n  swap1\n  revert\ntag_19:\n  sub(shl(0xa0, 0x01), 0x01)\n    /* \"ETNFT.sol\":1043:1062  isManager[_manager] */\n  swap2\n  swap1\n  swap2\n  and\n  0x00\n  swap1\n  dup2\n  mstore\n    /* \"ETNFT.sol\":1043:1052  isManager */\n  0x0a\n    /* \"ETNFT.sol\":1043:1062  isManager[_manager] */\n  0x20\n  mstore\n  0x40\n  swap1\n  keccak256\n    /* \"ETNFT.sol\":1043:1070  isManager[_manager] = _flag */\n  dup1\n  sload\n  not(0xff)\n  and\n  swap2\n  iszero\n  iszero\n  swap2\n  swap1\n  swap2\n  or\n  swap1\n  sstore\n    /* \"ETNFT.sol\":965:1078  function setManager(address _manager, bool _flag) public onlyOwner {\r... */\n  jump\t// out\n    /* \"ETNFT.sol\":191:3061  contract ETNFT is ERC721,IETNFT{\r... */\ntag_8:\n  dup3\n  dup1\n  sload\n  tag_25\n  swap1\n  tag_26\n  jump\t// in\ntag_25:\n  swap1\n  0x00\n  mstore\n  keccak256(0x00, 0x20)\n  swap1\n  0x1f\n  add\n  0x20\n  swap1\n  div\n  dup2\n  add\n  swap3\n  dup3\n  tag_28\n  jumpi\n  0x00\n  dup6\n  sstore\n  jump(tag_31)\ntag_28:\n  dup3\n  0x1f\n  lt\n  tag_29\n  jumpi\n  dup1\n  mload\n  not(0xff)\n  and\n  dup4\n  dup1\n  add\n  or\n  dup6\n  sstore\n  jump(tag_31)\ntag_29:\n  dup3\n  dup1\n  add\n  0x01\n  add\n  dup6\n  sstore\n  dup3\n  iszero\n  tag_31\n  jumpi\n  swap2\n  dup3\n  add\ntag_30:\n  dup3\n  dup2\n  gt\n  iszero\n  tag_31\n  jumpi\n  dup3\n  mload\n  dup3\n  sstore\n  swap2\n  0x20\n  add\n  swap2\n  swap1\n  0x01\n  add\n  swap1\n  jump(tag_30)\ntag_31:\n  pop\n  tag_32\n  swap3\n  swap2\n  pop\n  tag_33\n  jump\t// in\ntag_32:\n  pop\n  swap1\n  jump\t// out\ntag_33:\ntag_34:\n  dup1\n  dup3\n  gt\n  iszero\n  tag_32\n  jumpi\n  0x00\n  dup2\n  sstore\n  0x01\n  add\n  jump(tag_34)\n    /* \"#utility.yul\":14:923   */\ntag_37:\n    /* \"#utility.yul\":68:73   */\n  0x00\n    /* \"#utility.yul\":121:124   */\n  dup3\n    /* \"#utility.yul\":114:118   */\n  0x1f\n    /* \"#utility.yul\":106:112   */\n  dup4\n    /* \"#utility.yul\":102:119   */\n  add\n    /* \"#utility.yul\":98:125   */\n  slt\n    /* \"#utility.yul\":88:90   */\n  tag_39\n  jumpi\n    /* \"#utility.yul\":143:148   */\n  dup1\n    /* \"#utility.yul\":136:141   */\n  dup2\n    /* \"#utility.yul\":129:149   */\n  revert\n    /* \"#utility.yul\":88:90   */\ntag_39:\n    /* \"#utility.yul\":170:183   */\n  dup2\n  mload\n  sub(shl(0x40, 0x01), 0x01)\n    /* \"#utility.yul\":232:242   */\n  dup1\n  dup3\n  gt\n    /* \"#utility.yul\":229:231   */\n  iszero\n  tag_41\n  jumpi\n    /* \"#utility.yul\":245:263   */\n  tag_41\n  tag_42\n  jump\t// in\ntag_41:\n    /* \"#utility.yul\":320:322   */\n  0x40\n    /* \"#utility.yul\":314:323   */\n  mload\n    /* \"#utility.yul\":288:290   */\n  0x1f\n    /* \"#utility.yul\":374:387   */\n  dup4\n  add\n  not(0x1f)\n    /* \"#utility.yul\":370:392   */\n  swap1\n  dup2\n  and\n    /* \"#utility.yul\":394:396   */\n  0x3f\n    /* \"#utility.yul\":366:397   */\n  add\n    /* \"#utility.yul\":362:402   */\n  and\n    /* \"#utility.yul\":350:403   */\n  dup2\n  add\n  swap1\n    /* \"#utility.yul\":418:436   */\n  dup3\n  dup3\n  gt\n    /* \"#utility.yul\":438:460   */\n  dup2\n  dup4\n  lt\n    /* \"#utility.yul\":415:461   */\n  or\n    /* \"#utility.yul\":412:414   */\n  iszero\n  tag_44\n  jumpi\n    /* \"#utility.yul\":464:482   */\n  tag_44\n  tag_42\n  jump\t// in\ntag_44:\n    /* \"#utility.yul\":504:514   */\n  dup2\n    /* \"#utility.yul\":500:502   */\n  0x40\n    /* \"#utility.yul\":493:515   */\n  mstore\n    /* \"#utility.yul\":539:541   */\n  dup4\n    /* \"#utility.yul\":531:537   */\n  dup2\n    /* \"#utility.yul\":524:542   */\n  mstore\n    /* \"#utility.yul\":561:565   */\n  0x20\n    /* \"#utility.yul\":551:565   */\n  swap3\n  pop\n    /* \"#utility.yul\":606:609   */\n  dup7\n    /* \"#utility.yul\":601:603   */\n  dup4\n    /* \"#utility.yul\":596:598   */\n  dup6\n    /* \"#utility.yul\":588:594   */\n  dup9\n    /* \"#utility.yul\":584:599   */\n  add\n    /* \"#utility.yul\":580:604   */\n  add\n    /* \"#utility.yul\":577:610   */\n  gt\n    /* \"#utility.yul\":574:576   */\n  iszero\n  tag_45\n  jumpi\n    /* \"#utility.yul\":627:632   */\n  dup5\n    /* \"#utility.yul\":620:625   */\n  dup6\n    /* \"#utility.yul\":613:633   */\n  revert\n    /* \"#utility.yul\":574:576   */\ntag_45:\n    /* \"#utility.yul\":653:658   */\n  dup5\n    /* \"#utility.yul\":644:658   */\n  swap2\n  pop\n    /* \"#utility.yul\":667:800   */\ntag_46:\n    /* \"#utility.yul\":681:683   */\n  dup4\n    /* \"#utility.yul\":678:679   */\n  dup3\n    /* \"#utility.yul\":675:684   */\n  lt\n    /* \"#utility.yul\":667:800   */\n  iszero\n  tag_48\n  jumpi\n    /* \"#utility.yul\":769:783   */\n  dup6\n  dup3\n  add\n    /* \"#utility.yul\":765:788   */\n  dup4\n  add\n    /* \"#utility.yul\":759:789   */\n  mload\n    /* \"#utility.yul\":738:752   */\n  dup2\n  dup4\n  add\n    /* \"#utility.yul\":734:757   */\n  dup5\n  add\n    /* \"#utility.yul\":727:790   */\n  mstore\n    /* \"#utility.yul\":692:702   */\n  swap1\n  dup3\n  add\n  swap1\n    /* \"#utility.yul\":667:800   */\n  jump(tag_46)\ntag_48:\n    /* \"#utility.yul\":818:820   */\n  dup4\n    /* \"#utility.yul\":815:816   */\n  dup3\n    /* \"#utility.yul\":812:821   */\n  gt\n    /* \"#utility.yul\":809:811   */\n  iszero\n  tag_49\n  jumpi\n    /* \"#utility.yul\":877:882   */\n  dup5\n    /* \"#utility.yul\":872:874   */\n  dup4\n    /* \"#utility.yul\":867:869   */\n  dup6\n    /* \"#utility.yul\":859:865   */\n  dup4\n    /* \"#utility.yul\":855:870   */\n  add\n    /* \"#utility.yul\":851:875   */\n  add\n    /* \"#utility.yul\":844:883   */\n  mstore\n    /* \"#utility.yul\":809:811   */\ntag_49:\n    /* \"#utility.yul\":911:917   */\n  swap7\n    /* \"#utility.yul\":78:923   */\n  swap6\n  pop\n  pop\n  pop\n  pop\n  pop\n  pop\n  jump\t// out\n    /* \"#utility.yul\":928:1520   */\ntag_3:\n    /* \"#utility.yul\":1027:1033   */\n  0x00\n    /* \"#utility.yul\":1035:1041   */\n  dup1\n    /* \"#utility.yul\":1088:1090   */\n  0x40\n    /* \"#utility.yul\":1076:1085   */\n  dup4\n    /* \"#utility.yul\":1067:1074   */\n  dup6\n    /* \"#utility.yul\":1063:1086   */\n  sub\n    /* \"#utility.yul\":1059:1091   */\n  slt\n    /* \"#utility.yul\":1056:1058   */\n  iszero\n  tag_51\n  jumpi\n    /* \"#utility.yul\":1109:1115   */\n  dup2\n    /* \"#utility.yul\":1101:1107   */\n  dup3\n    /* \"#utility.yul\":1094:1116   */\n  revert\n    /* \"#utility.yul\":1056:1058   */\ntag_51:\n    /* \"#utility.yul\":1141:1157   */\n  dup3\n  mload\n  sub(shl(0x40, 0x01), 0x01)\n    /* \"#utility.yul\":1206:1220   */\n  dup1\n  dup3\n  gt\n    /* \"#utility.yul\":1203:1205   */\n  iszero\n  tag_52\n  jumpi\n    /* \"#utility.yul\":1238:1244   */\n  dup4\n    /* \"#utility.yul\":1230:1236   */\n  dup5\n    /* \"#utility.yul\":1223:1245   */\n  revert\n    /* \"#utility.yul\":1203:1205   */\ntag_52:\n    /* \"#utility.yul\":1266:1327   */\n  tag_53\n    /* \"#utility.yul\":1319:1326   */\n  dup7\n    /* \"#utility.yul\":1310:1316   */\n  dup4\n    /* \"#utility.yul\":1299:1308   */\n  dup8\n    /* \"#utility.yul\":1295:1317   */\n  add\n    /* \"#utility.yul\":1266:1327   */\n  tag_37\n  jump\t// in\ntag_53:\n    /* \"#utility.yul\":1256:1327   */\n  swap4\n  pop\n    /* \"#utility.yul\":1373:1375   */\n  0x20\n    /* \"#utility.yul\":1362:1371   */\n  dup6\n    /* \"#utility.yul\":1358:1376   */\n  add\n    /* \"#utility.yul\":1352:1377   */\n  mload\n    /* \"#utility.yul\":1336:1377   */\n  swap2\n  pop\n    /* \"#utility.yul\":1402:1404   */\n  dup1\n    /* \"#utility.yul\":1392:1400   */\n  dup3\n    /* \"#utility.yul\":1389:1405   */\n  gt\n    /* \"#utility.yul\":1386:1388   */\n  iszero\n  tag_54\n  jumpi\n    /* \"#utility.yul\":1423:1429   */\n  dup3\n    /* \"#utility.yul\":1415:1421   */\n  dup4\n    /* \"#utility.yul\":1408:1430   */\n  revert\n    /* \"#utility.yul\":1386:1388   */\ntag_54:\n  pop\n    /* \"#utility.yul\":1451:1514   */\n  tag_55\n    /* \"#utility.yul\":1506:1513   */\n  dup6\n    /* \"#utility.yul\":1495:1503   */\n  dup3\n    /* \"#utility.yul\":1484:1493   */\n  dup7\n    /* \"#utility.yul\":1480:1504   */\n  add\n    /* \"#utility.yul\":1451:1514   */\n  tag_37\n  jump\t// in\ntag_55:\n    /* \"#utility.yul\":1441:1514   */\n  swap2\n  pop\n  pop\n    /* \"#utility.yul\":1046:1520   */\n  swap3\n  pop\n  swap3\n  swap1\n  pop\n  jump\t// out\n    /* \"#utility.yul\":1886:2266   */\ntag_26:\n    /* \"#utility.yul\":1965:1966   */\n  0x01\n    /* \"#utility.yul\":1961:1973   */\n  dup2\n  dup2\n  shr\n  swap1\n    /* \"#utility.yul\":2008:2020   */\n  dup3\n  and\n  dup1\n    /* \"#utility.yul\":2029:2031   */\n  tag_58\n  jumpi\n    /* \"#utility.yul\":2083:2087   */\n  0x7f\n    /* \"#utility.yul\":2075:2081   */\n  dup3\n    /* \"#utility.yul\":2071:2088   */\n  and\n    /* \"#utility.yul\":2061:2088   */\n  swap2\n  pop\n    /* \"#utility.yul\":2029:2031   */\ntag_58:\n    /* \"#utility.yul\":2136:2138   */\n  0x20\n    /* \"#utility.yul\":2128:2134   */\n  dup3\n    /* \"#utility.yul\":2125:2139   */\n  lt\n    /* \"#utility.yul\":2105:2123   */\n  dup2\n    /* \"#utility.yul\":2102:2140   */\n  eq\n    /* \"#utility.yul\":2099:2101   */\n  iszero\n  tag_59\n  jumpi\n    /* \"#utility.yul\":2182:2192   */\n  0x4e487b71\n    /* \"#utility.yul\":2177:2180   */\n  0xe0\n    /* \"#utility.yul\":2173:2193   */\n  shl\n    /* \"#utility.yul\":2170:2171   */\n  0x00\n    /* \"#utility.yul\":2163:2194   */\n  mstore\n    /* \"#utility.yul\":2217:2221   */\n  0x22\n    /* \"#utility.yul\":2214:2215   */\n  0x04\n    /* \"#utility.yul\":2207:2222   */\n  mstore\n    /* \"#utility.yul\":2245:2249   */\n  0x24\n    /* \"#utility.yul\":2242:2243   */\n  0x00\n    /* \"#utility.yul\":2235:2250   */\n  revert\n    /* \"#utility.yul\":2099:2101   */\ntag_59:\n  pop\n    /* \"#utility.yul\":1941:2266   */\n  swap2\n  swap1\n  pop\n  jump\t// out\n    /* \"#utility.yul\":2271:2398   */\ntag_42:\n    /* \"#utility.yul\":2332:2342   */\n  0x4e487b71\n    /* \"#utility.yul\":2327:2330   */\n  0xe0\n    /* \"#utility.yul\":2323:2343   */\n  shl\n    /* \"#utility.yul\":2320:2321   */\n  0x00\n    /* \"#utility.yul\":2313:2344   */\n  mstore\n    /* \"#utility.yul\":2363:2367   */\n  0x41\n    /* \"#utility.yul\":2360:2361   */\n  0x04\n    /* \"#utility.yul\":2353:2368   */\n  mstore\n    /* \"#utility.yul\":2387:2391   */\n  0x24\n    /* \"#utility.yul\":2384:2385   */\n  0x00\n    /* \"#utility.yul\":2377:2392   */\n  revert\n    /* \"#utility.yul\":2303:2398   */\ntag_36:\n    /* \"ETNFT.sol\":191:3061  contract ETNFT is ERC721,IETNFT{\r... */\n  dataSize(sub_0)\n  dup1\n  dataOffset(sub_0)\n  0x00\n  codecopy\n  0x00\n  return\nstop\n\nsub_0: assembly {\n        /* \"ETNFT.sol\":191:3061  contract ETNFT is ERC721,IETNFT{\r... */\n      mstore(0x40, 0x80)\n      callvalue\n      dup1\n      iszero\n      tag_1\n      jumpi\n      0x00\n      dup1\n      revert\n    tag_1:\n      pop\n      jumpi(tag_2, lt(calldatasize, 0x04))\n      shr(0xe0, calldataload(0x00))\n      dup1\n      0x70a08231\n      gt\n      tag_29\n      jumpi\n      dup1\n      0xb88d4fde\n      gt\n      tag_30\n      jumpi\n      dup1\n      0xc87b56dd\n      gt\n      tag_31\n      jumpi\n      dup1\n      0xc87b56dd\n      eq\n      tag_25\n      jumpi\n      dup1\n      0xe985e9c5\n      eq\n      tag_26\n      jumpi\n      dup1\n      0xf2fde38b\n      eq\n      tag_27\n      jumpi\n      dup1\n      0xf3ae2415\n      eq\n      tag_28\n      jumpi\n      0x00\n      dup1\n      revert\n    tag_31:\n      dup1\n      0xb88d4fde\n      eq\n      tag_22\n      jumpi\n      dup1\n      0xbe88bb10\n      eq\n      tag_23\n      jumpi\n      dup1\n      0xc4e41b22\n      eq\n      tag_24\n      jumpi\n      0x00\n      dup1\n      revert\n    tag_30:\n      dup1\n      0x95d89b41\n      gt\n      tag_32\n      jumpi\n      dup1\n      0x95d89b41\n      eq\n      tag_19\n      jumpi\n      dup1\n      0xa22cb465\n      eq\n      tag_20\n      jumpi\n      dup1\n      0xa5e90eee\n      eq\n      tag_21\n      jumpi\n      0x00\n      dup1\n      revert\n    tag_32:\n      dup1\n      0x70a08231\n      eq\n      tag_16\n      jumpi\n      dup1\n      0x75794a3c\n      eq\n      tag_17\n      jumpi\n      dup1\n      0x8da5cb5b\n      eq\n      tag_18\n      jumpi\n      0x00\n      dup1\n      revert\n    tag_29:\n      dup1\n      0x3576622a\n      gt\n      tag_33\n      jumpi\n      dup1\n      0x42966c68\n      gt\n      tag_34\n      jumpi\n      dup1\n      0x42966c68\n      eq\n      tag_12\n      jumpi\n      dup1\n      0x55f804b3\n      eq\n      tag_13\n      jumpi\n      dup1\n      0x6352211e\n      eq\n      tag_14\n      jumpi\n      dup1\n      0x6c0360eb\n      eq\n      tag_15\n      jumpi\n      0x00\n      dup1\n      revert\n    tag_34:\n      dup1\n      0x3576622a\n      eq\n      tag_9\n      jumpi\n      dup1\n      0x40d097c3\n      eq\n      tag_10\n      jumpi\n      dup1\n      0x42842e0e\n      eq\n      tag_11\n      jumpi\n      0x00\n      dup1\n      revert\n    tag_33:\n      dup1\n      0x095ea7b3\n      gt\n      tag_35\n      jumpi\n      dup1\n      0x095ea7b3\n      eq\n      tag_6\n      jumpi\n      dup1\n      0x18160ddd\n      eq\n      tag_7\n      jumpi\n      dup1\n      0x23b872dd\n      eq\n      tag_8\n      jumpi\n      0x00\n      dup1\n      revert\n    tag_35:\n      dup1\n      0x01ffc9a7\n      eq\n      tag_3\n      jumpi\n      dup1\n      0x06fdde03\n      eq\n      tag_4\n      jumpi\n      dup1\n      0x081812fc\n      eq\n      tag_5\n      jumpi\n    tag_2:\n      0x00\n      dup1\n      revert\n        /* \"@openzeppelin/contracts/token/ERC721/ERC721.sol\":1570:1870  function supportsInterface(bytes4 interfaceId) public view virtual override(ERC165, IERC165) returns (bool) {... */\n    tag_3:\n      tag_36\n      tag_37\n      calldatasize\n      0x04\n      tag_38\n      jump\t// in\n    tag_37:\n      tag_39\n      jump\t// in\n    tag_36:\n      mload(0x40)\n        /* \"#utility.yul\":6625:6639   */\n      swap1\n      iszero\n        /* \"#utility.yul\":6618:6640   */\n      iszero\n        /* \"#utility.yul\":6600:6641   */\n      dup2\n      mstore\n        /* \"#utility.yul\":6588:6590   */\n      0x20\n        /* \"#utility.yul\":6573:6591   */\n      add\n        /* \"@openzeppelin/contracts/token/ERC721/ERC721.sol\":1570:1870  function supportsInterface(bytes4 interfaceId) public view virtual override(ERC165, IERC165) returns (bool) {... */\n    tag_40:\n      mload(0x40)\n      dup1\n      swap2\n      sub\n      swap1\n      return\n        /* \"@openzeppelin/contracts/token/ERC721/ERC721.sol\":2470:2568  function name() public view virtual override returns (string memory) {... */\n    tag_4:\n      tag_42\n      tag_43\n      jump\t// in\n    tag_42:\n      mload(0x40)\n      tag_40\n      swap2\n      swap1\n      tag_45\n      jump\t// in\n        /* \"@openzeppelin/contracts/token/ERC721/ERC721.sol\":3935:4102  function getApproved(uint256 tokenId) public view virtual override returns (address) {... */\n    tag_5:\n      tag_46\n      tag_47\n      calldatasize\n      0x04\n      tag_48\n      jump\t// in\n    tag_47:\n      tag_49\n      jump\t// in\n    tag_46:\n      mload(0x40)\n        /* \"#utility.yul\":5247:5289   */\n      0xffffffffffffffffffffffffffffffffffffffff\n        /* \"#utility.yul\":5235:5290   */\n      swap1\n      swap2\n      and\n        /* \"#utility.yul\":5217:5291   */\n      dup2\n      mstore\n        /* \"#utility.yul\":5205:5207   */\n      0x20\n        /* \"#utility.yul\":5190:5208   */\n      add\n        /* \"@openzeppelin/contracts/token/ERC721/ERC721.sol\":3935:4102  function getApproved(uint256 tokenId) public view virtual override returns (address) {... */\n      tag_40\n        /* \"#utility.yul\":5172:5297   */\n      jump\n        /* \"@openzeppelin/contracts/token/ERC721/ERC721.sol\":3467:3874  function approve(address to, uint256 tokenId) public virtual override {... */\n    tag_6:\n      tag_52\n      tag_53\n      calldatasize\n      0x04\n      tag_54\n      jump\t// in\n    tag_53:\n      tag_55\n      jump\t// in\n    tag_52:\n      stop\n        /* \"ETNFT.sol\":579:605  uint256 public totalSupply */\n    tag_7:\n      tag_56\n      sload(0x0c)\n      dup2\n      jump\n    tag_56:\n      mload(0x40)\n        /* \"#utility.yul\":14110:14135   */\n      swap1\n      dup2\n      mstore\n        /* \"#utility.yul\":14098:14100   */\n      0x20\n        /* \"#utility.yul\":14083:14101   */\n      add\n        /* \"ETNFT.sol\":579:605  uint256 public totalSupply */\n      tag_40\n        /* \"#utility.yul\":14065:14141   */\n      jump\n        /* \"ETNFT.sol\":2766:3058  function transferFrom(\r... */\n    tag_8:\n      tag_52\n      tag_61\n      calldatasize\n      0x04\n      tag_62\n      jump\t// in\n    tag_61:\n      tag_63\n      jump\t// in\n        /* \"ETNFT.sol\":1084:1178  function setNFTBonus(address _address) public onlyOwner {\r... */\n    tag_9:\n      tag_52\n      tag_65\n      calldatasize\n      0x04\n      tag_66\n      jump\t// in\n    tag_65:\n      tag_67\n      jump\t// in\n        /* \"ETNFT.sol\":2297:2531  function safeMint(address to)public onlyManager{\r... */\n    tag_10:\n      tag_52\n      tag_69\n      calldatasize\n      0x04\n      tag_66\n      jump\t// in\n    tag_69:\n      tag_70\n      jump\t// in\n        /* \"@openzeppelin/contracts/token/ERC721/ERC721.sol\":5005:5184  function safeTransferFrom(... */\n    tag_11:\n      tag_52\n      tag_72\n      calldatasize\n      0x04\n      tag_62\n      jump\t// in\n    tag_72:\n      tag_73\n      jump\t// in\n        /* \"ETNFT.sol\":2537:2760  function burn(uint256 tokenId)public  {\r... */\n    tag_12:\n      tag_52\n      tag_75\n      calldatasize\n      0x04\n      tag_48\n      jump\t// in\n    tag_75:\n      tag_76\n      jump\t// in\n        /* \"ETNFT.sol\":1809:1943  function setBaseURI(string memory url)public onlyOwner{\r... */\n    tag_13:\n      tag_52\n      tag_78\n      calldatasize\n      0x04\n      tag_79\n      jump\t// in\n    tag_78:\n      tag_80\n      jump\t// in\n        /* \"@openzeppelin/contracts/token/ERC721/ERC721.sol\":2190:2408  function ownerOf(uint256 tokenId) public view virtual override returns (address) {... */\n    tag_14:\n      tag_46\n      tag_82\n      calldatasize\n      0x04\n      tag_48\n      jump\t// in\n    tag_82:\n      tag_83\n      jump\t// in\n        /* \"ETNFT.sol\":2054:2146  function baseURI()public view returns (string memory){\r... */\n    tag_15:\n      tag_42\n      tag_86\n      jump\t// in\n        /* \"@openzeppelin/contracts/token/ERC721/ERC721.sol\":1929:2133  function balanceOf(address owner) public view virtual override returns (uint256) {... */\n    tag_16:\n      tag_56\n      tag_89\n      calldatasize\n      0x04\n      tag_66\n      jump\t// in\n    tag_89:\n      tag_90\n      jump\t// in\n        /* \"ETNFT.sol\":327:350  uint public nextTokenId */\n    tag_17:\n      tag_56\n      sload(0x08)\n      dup2\n      jump\n        /* \"ETNFT.sol\":872:959  function owner() public view virtual returns (address) {\r... */\n    tag_18:\n        /* \"ETNFT.sol\":945:951  _owner */\n      and(0xffffffffffffffffffffffffffffffffffffffff, sload(0x09))\n        /* \"ETNFT.sol\":872:959  function owner() public view virtual returns (address) {\r... */\n      jump(tag_46)\n        /* \"@openzeppelin/contracts/token/ERC721/ERC721.sol\":2632:2734  function symbol() public view virtual override returns (string memory) {... */\n    tag_19:\n      tag_42\n      tag_99\n      jump\t// in\n        /* \"@openzeppelin/contracts/token/ERC721/ERC721.sol\":4169:4322  function setApprovalForAll(address operator, bool approved) public virtual override {... */\n    tag_20:\n      tag_52\n      tag_102\n      calldatasize\n      0x04\n      tag_103\n      jump\t// in\n    tag_102:\n      tag_104\n      jump\t// in\n        /* \"ETNFT.sol\":965:1078  function setManager(address _manager, bool _flag) public onlyOwner {\r... */\n    tag_21:\n      tag_52\n      tag_106\n      calldatasize\n      0x04\n      tag_103\n      jump\t// in\n    tag_106:\n      tag_107\n      jump\t// in\n        /* \"@openzeppelin/contracts/token/ERC721/ERC721.sol\":5250:5565  function safeTransferFrom(... */\n    tag_22:\n      tag_52\n      tag_109\n      calldatasize\n      0x04\n      tag_110\n      jump\t// in\n    tag_109:\n      tag_111\n      jump\t// in\n        /* \"ETNFT.sol\":612:635  address public NFTBonus */\n    tag_23:\n      sload(0x0d)\n      tag_46\n      swap1\n      0xffffffffffffffffffffffffffffffffffffffff\n      and\n      dup2\n      jump\n        /* \"ETNFT.sol\":1949:2048  function getTotalSupply()external view override returns(uint) {\r... */\n    tag_24:\n        /* \"ETNFT.sol\":2029:2040  totalSupply */\n      sload(0x0c)\n        /* \"ETNFT.sol\":1949:2048  function getTotalSupply()external view override returns(uint) {\r... */\n      jump(tag_56)\n        /* \"@openzeppelin/contracts/token/ERC721/ERC721.sol\":2800:3076  function tokenURI(uint256 tokenId) public view virtual override returns (string memory) {... */\n    tag_25:\n      tag_42\n      tag_119\n      calldatasize\n      0x04\n      tag_48\n      jump\t// in\n    tag_119:\n      tag_120\n      jump\t// in\n        /* \"@openzeppelin/contracts/token/ERC721/ERC721.sol\":4388:4550  function isApprovedForAll(address owner, address operator) public view virtual override returns (bool) {... */\n    tag_26:\n      tag_36\n      tag_123\n      calldatasize\n      0x04\n      tag_124\n      jump\t// in\n    tag_123:\n        /* \"@openzeppelin/contracts/token/ERC721/ERC721.sol\":4508:4533  _operatorApprovals[owner] */\n      0xffffffffffffffffffffffffffffffffffffffff\n      swap2\n      dup3\n      and\n        /* \"@openzeppelin/contracts/token/ERC721/ERC721.sol\":4485:4489  bool */\n      0x00\n        /* \"@openzeppelin/contracts/token/ERC721/ERC721.sol\":4508:4533  _operatorApprovals[owner] */\n      swap1\n      dup2\n      mstore\n        /* \"@openzeppelin/contracts/token/ERC721/ERC721.sol\":4508:4526  _operatorApprovals */\n      0x05\n        /* \"@openzeppelin/contracts/token/ERC721/ERC721.sol\":4508:4533  _operatorApprovals[owner] */\n      0x20\n      swap1\n      dup2\n      mstore\n      0x40\n      dup1\n      dup4\n      keccak256\n        /* \"@openzeppelin/contracts/token/ERC721/ERC721.sol\":4508:4543  _operatorApprovals[owner][operator] */\n      swap4\n      swap1\n      swap5\n      and\n      dup3\n      mstore\n      swap2\n      swap1\n      swap2\n      mstore\n      keccak256\n      sload\n      0xff\n      and\n      swap1\n        /* \"@openzeppelin/contracts/token/ERC721/ERC721.sol\":4388:4550  function isApprovedForAll(address owner, address operator) public view virtual override returns (bool) {... */\n      jump\n        /* \"ETNFT.sol\":1493:1767  function transferOwnership(address newOwner) public onlyOwner {\r... */\n    tag_27:\n      tag_52\n      tag_128\n      calldatasize\n      0x04\n      tag_66\n      jump\t// in\n    tag_128:\n      tag_129\n      jump\t// in\n        /* \"ETNFT.sol\":388:429  mapping(address => bool) public isManager */\n    tag_28:\n      tag_36\n      tag_131\n      calldatasize\n      0x04\n      tag_66\n      jump\t// in\n    tag_131:\n      mstore(0x20, 0x0a)\n      0x00\n      swap1\n      dup2\n      mstore\n      0x40\n      swap1\n      keccak256\n      sload\n      0xff\n      and\n      dup2\n      jump\n        /* \"@openzeppelin/contracts/token/ERC721/ERC721.sol\":1570:1870  function supportsInterface(bytes4 interfaceId) public view virtual override(ERC165, IERC165) returns (bool) {... */\n    tag_39:\n        /* \"@openzeppelin/contracts/token/ERC721/ERC721.sol\":1672:1676  bool */\n      0x00\n        /* \"@openzeppelin/contracts/token/ERC721/ERC721.sol\":1707:1747  interfaceId == type(IERC721).interfaceId */\n      0xffffffff00000000000000000000000000000000000000000000000000000000\n      dup3\n      and\n        /* \"@openzeppelin/contracts/token/ERC721/ERC721.sol\":1722:1747  type(IERC721).interfaceId */\n      0x80ac58cd00000000000000000000000000000000000000000000000000000000\n        /* \"@openzeppelin/contracts/token/ERC721/ERC721.sol\":1707:1747  interfaceId == type(IERC721).interfaceId */\n      eq\n      dup1\n        /* \"@openzeppelin/contracts/token/ERC721/ERC721.sol\":1707:1811  interfaceId == type(IERC721).interfaceId ||... */\n      tag_135\n      jumpi\n      pop\n        /* \"@openzeppelin/contracts/token/ERC721/ERC721.sol\":1763:1811  interfaceId == type(IERC721Metadata).interfaceId */\n      0xffffffff00000000000000000000000000000000000000000000000000000000\n      dup3\n      and\n        /* \"@openzeppelin/contracts/token/ERC721/ERC721.sol\":1778:1811  type(IERC721Metadata).interfaceId */\n      0x5b5e139f00000000000000000000000000000000000000000000000000000000\n        /* \"@openzeppelin/contracts/token/ERC721/ERC721.sol\":1763:1811  interfaceId == type(IERC721Metadata).interfaceId */\n      eq\n        /* \"@openzeppelin/contracts/token/ERC721/ERC721.sol\":1707:1811  interfaceId == type(IERC721).interfaceId ||... */\n    tag_135:\n        /* \"@openzeppelin/contracts/token/ERC721/ERC721.sol\":1707:1863  interfaceId == type(IERC721).interfaceId ||... */\n      dup1\n      tag_137\n      jumpi\n      pop\n        /* \"@openzeppelin/contracts/utils/introspection/ERC165.sol\":952:977  type(IERC165).interfaceId */\n      0x01ffc9a700000000000000000000000000000000000000000000000000000000\n        /* \"@openzeppelin/contracts/utils/introspection/ERC165.sol\":937:977  interfaceId == type(IERC165).interfaceId */\n      0xffffffff00000000000000000000000000000000000000000000000000000000\n      dup4\n      and\n      eq\n        /* \"@openzeppelin/contracts/token/ERC721/ERC721.sol\":1827:1863  super.supportsInterface(interfaceId) */\n    tag_137:\n        /* \"@openzeppelin/contracts/token/ERC721/ERC721.sol\":1688:1863  return... */\n      swap3\n        /* \"@openzeppelin/contracts/token/ERC721/ERC721.sol\":1570:1870  function supportsInterface(bytes4 interfaceId) public view virtual override(ERC165, IERC165) returns (bool) {... */\n      swap2\n      pop\n      pop\n      jump\t// out\n        /* \"@openzeppelin/contracts/token/ERC721/ERC721.sol\":2470:2568  function name() public view virtual override returns (string memory) {... */\n    tag_43:\n        /* \"@openzeppelin/contracts/token/ERC721/ERC721.sol\":2524:2537  string memory */\n      0x60\n        /* \"@openzeppelin/contracts/token/ERC721/ERC721.sol\":2556:2561  _name */\n      0x00\n        /* \"@openzeppelin/contracts/token/ERC721/ERC721.sol\":2549:2561  return _name */\n      dup1\n      sload\n      tag_140\n      swap1\n      tag_141\n      jump\t// in\n    tag_140:\n      dup1\n      0x1f\n      add\n      0x20\n      dup1\n      swap2\n      div\n      mul\n      0x20\n      add\n      mload(0x40)\n      swap1\n      dup2\n      add\n      0x40\n      mstore\n      dup1\n      swap3\n      swap2\n      swap1\n      dup2\n      dup2\n      mstore\n      0x20\n      add\n      dup3\n      dup1\n      sload\n      tag_142\n      swap1\n      tag_141\n      jump\t// in\n    tag_142:\n      dup1\n      iszero\n      tag_143\n      jumpi\n      dup1\n      0x1f\n      lt\n      tag_144\n      jumpi\n      0x0100\n      dup1\n      dup4\n      sload\n      div\n      mul\n      dup4\n      mstore\n      swap2\n      0x20\n      add\n      swap2\n      jump(tag_143)\n    tag_144:\n      dup3\n      add\n      swap2\n      swap1\n      0x00\n      mstore\n      keccak256(0x00, 0x20)\n      swap1\n    tag_145:\n      dup2\n      sload\n      dup2\n      mstore\n      swap1\n      0x01\n      add\n      swap1\n      0x20\n      add\n      dup1\n      dup4\n      gt\n      tag_145\n      jumpi\n      dup3\n      swap1\n      sub\n      0x1f\n      and\n      dup3\n      add\n      swap2\n    tag_143:\n      pop\n      pop\n      pop\n      pop\n      pop\n      swap1\n      pop\n        /* \"@openzeppelin/contracts/token/ERC721/ERC721.sol\":2470:2568  function name() public view virtual override returns (string memory) {... */\n      swap1\n      jump\t// out\n        /* \"@openzeppelin/contracts/token/ERC721/ERC721.sol\":3935:4102  function getApproved(uint256 tokenId) public view virtual override returns (address) {... */\n    tag_49:\n        /* \"@openzeppelin/contracts/token/ERC721/ERC721.sol\":4011:4018  address */\n      0x00\n        /* \"@openzeppelin/contracts/token/ERC721/ERC721.sol\":4030:4053  _requireMinted(tokenId) */\n      tag_147\n        /* \"@openzeppelin/contracts/token/ERC721/ERC721.sol\":4045:4052  tokenId */\n      dup3\n        /* \"@openzeppelin/contracts/token/ERC721/ERC721.sol\":4030:4044  _requireMinted */\n      tag_148\n        /* \"@openzeppelin/contracts/token/ERC721/ERC721.sol\":4030:4053  _requireMinted(tokenId) */\n      jump\t// in\n    tag_147:\n      pop\n        /* \"@openzeppelin/contracts/token/ERC721/ERC721.sol\":4071:4095  _tokenApprovals[tokenId] */\n      0x00\n      swap1\n      dup2\n      mstore\n        /* \"@openzeppelin/contracts/token/ERC721/ERC721.sol\":4071:4086  _tokenApprovals */\n      0x04\n        /* \"@openzeppelin/contracts/token/ERC721/ERC721.sol\":4071:4095  _tokenApprovals[tokenId] */\n      0x20\n      mstore\n      0x40\n      swap1\n      keccak256\n      sload\n      0xffffffffffffffffffffffffffffffffffffffff\n      and\n      swap1\n        /* \"@openzeppelin/contracts/token/ERC721/ERC721.sol\":3935:4102  function getApproved(uint256 tokenId) public view virtual override returns (address) {... */\n      jump\t// out\n        /* \"@openzeppelin/contracts/token/ERC721/ERC721.sol\":3467:3874  function approve(address to, uint256 tokenId) public virtual override {... */\n    tag_55:\n        /* \"@openzeppelin/contracts/token/ERC721/ERC721.sol\":3547:3560  address owner */\n      0x00\n        /* \"@openzeppelin/contracts/token/ERC721/ERC721.sol\":3563:3586  ERC721.ownerOf(tokenId) */\n      tag_150\n        /* \"@openzeppelin/contracts/token/ERC721/ERC721.sol\":3578:3585  tokenId */\n      dup3\n        /* \"@openzeppelin/contracts/token/ERC721/ERC721.sol\":3563:3577  ERC721.ownerOf */\n      tag_83\n        /* \"@openzeppelin/contracts/token/ERC721/ERC721.sol\":3563:3586  ERC721.ownerOf(tokenId) */\n      jump\t// in\n    tag_150:\n        /* \"@openzeppelin/contracts/token/ERC721/ERC721.sol\":3547:3586  address owner = ERC721.ownerOf(tokenId) */\n      swap1\n      pop\n        /* \"@openzeppelin/contracts/token/ERC721/ERC721.sol\":3610:3615  owner */\n      dup1\n        /* \"@openzeppelin/contracts/token/ERC721/ERC721.sol\":3604:3615  to != owner */\n      0xffffffffffffffffffffffffffffffffffffffff\n      and\n        /* \"@openzeppelin/contracts/token/ERC721/ERC721.sol\":3604:3606  to */\n      dup4\n        /* \"@openzeppelin/contracts/token/ERC721/ERC721.sol\":3604:3615  to != owner */\n      0xffffffffffffffffffffffffffffffffffffffff\n      and\n      eq\n      iszero\n        /* \"@openzeppelin/contracts/token/ERC721/ERC721.sol\":3596:3653  require(to != owner, \"ERC721: approval to current owner\") */\n      tag_151\n      jumpi\n      mload(0x40)\n      0x08c379a000000000000000000000000000000000000000000000000000000000\n      dup2\n      mstore\n        /* \"#utility.yul\":13349:13351   */\n      0x20\n        /* \"@openzeppelin/contracts/token/ERC721/ERC721.sol\":3596:3653  require(to != owner, \"ERC721: approval to current owner\") */\n      0x04\n      dup3\n      add\n        /* \"#utility.yul\":13331:13352   */\n      mstore\n        /* \"#utility.yul\":13388:13390   */\n      0x21\n        /* \"#utility.yul\":13368:13386   */\n      0x24\n      dup3\n      add\n        /* \"#utility.yul\":13361:13391   */\n      mstore\n        /* \"#utility.yul\":13427:13461   */\n      0x4552433732313a20617070726f76616c20746f2063757272656e74206f776e65\n        /* \"#utility.yul\":13407:13425   */\n      0x44\n      dup3\n      add\n        /* \"#utility.yul\":13400:13462   */\n      mstore\n        /* \"#utility.yul\":13498:13501   */\n      0x7200000000000000000000000000000000000000000000000000000000000000\n        /* \"#utility.yul\":13478:13496   */\n      0x64\n      dup3\n      add\n        /* \"#utility.yul\":13471:13502   */\n      mstore\n        /* \"#utility.yul\":13519:13538   */\n      0x84\n      add\n        /* \"@openzeppelin/contracts/token/ERC721/ERC721.sol\":3596:3653  require(to != owner, \"ERC721: approval to current owner\") */\n    tag_152:\n      mload(0x40)\n      dup1\n      swap2\n      sub\n      swap1\n      revert\n    tag_151:\n        /* \"@openzeppelin/contracts/utils/Context.sol\":719:729  msg.sender */\n      caller\n        /* \"@openzeppelin/contracts/token/ERC721/ERC721.sol\":3685:3706  _msgSender() == owner */\n      0xffffffffffffffffffffffffffffffffffffffff\n      dup3\n      and\n      eq\n      dup1\n        /* \"@openzeppelin/contracts/token/ERC721/ERC721.sol\":3685:3747  _msgSender() == owner || isApprovedForAll(owner, _msgSender()) */\n      tag_157\n      jumpi\n      pop\n        /* \"@openzeppelin/contracts/token/ERC721/ERC721.sol\":3710:3747  isApprovedForAll(owner, _msgSender()) */\n      tag_157\n        /* \"@openzeppelin/contracts/token/ERC721/ERC721.sol\":3727:3732  owner */\n      dup2\n        /* \"@openzeppelin/contracts/utils/Context.sol\":719:729  msg.sender */\n      caller\n        /* \"@openzeppelin/contracts/token/ERC721/ERC721.sol\":4388:4550  function isApprovedForAll(address owner, address operator) public view virtual override returns (bool) {... */\n      tag_123\n      jump\t// in\n        /* \"@openzeppelin/contracts/token/ERC721/ERC721.sol\":3710:3747  isApprovedForAll(owner, _msgSender()) */\n    tag_157:\n        /* \"@openzeppelin/contracts/token/ERC721/ERC721.sol\":3664:3835  require(... */\n      tag_159\n      jumpi\n      mload(0x40)\n      0x08c379a000000000000000000000000000000000000000000000000000000000\n      dup2\n      mstore\n        /* \"#utility.yul\":11843:11845   */\n      0x20\n        /* \"@openzeppelin/contracts/token/ERC721/ERC721.sol\":3664:3835  require(... */\n      0x04\n      dup3\n      add\n        /* \"#utility.yul\":11825:11846   */\n      mstore\n        /* \"#utility.yul\":11882:11884   */\n      0x3e\n        /* \"#utility.yul\":11862:11880   */\n      0x24\n      dup3\n      add\n        /* \"#utility.yul\":11855:11885   */\n      mstore\n        /* \"#utility.yul\":11921:11955   */\n      0x4552433732313a20617070726f76652063616c6c6572206973206e6f7420746f\n        /* \"#utility.yul\":11901:11919   */\n      0x44\n      dup3\n      add\n        /* \"#utility.yul\":11894:11956   */\n      mstore\n        /* \"#utility.yul\":11992:12024   */\n      0x6b656e206f776e6572206e6f7220617070726f76656420666f7220616c6c0000\n        /* \"#utility.yul\":11972:11990   */\n      0x64\n      dup3\n      add\n        /* \"#utility.yul\":11965:12025   */\n      mstore\n        /* \"#utility.yul\":12042:12061   */\n      0x84\n      add\n        /* \"@openzeppelin/contracts/token/ERC721/ERC721.sol\":3664:3835  require(... */\n      tag_152\n        /* \"#utility.yul\":11815:12067   */\n      jump\n        /* \"@openzeppelin/contracts/token/ERC721/ERC721.sol\":3664:3835  require(... */\n    tag_159:\n        /* \"@openzeppelin/contracts/token/ERC721/ERC721.sol\":3846:3867  _approve(to, tokenId) */\n      tag_162\n        /* \"@openzeppelin/contracts/token/ERC721/ERC721.sol\":3855:3857  to */\n      dup4\n        /* \"@openzeppelin/contracts/token/ERC721/ERC721.sol\":3859:3866  tokenId */\n      dup4\n        /* \"@openzeppelin/contracts/token/ERC721/ERC721.sol\":3846:3854  _approve */\n      tag_163\n        /* \"@openzeppelin/contracts/token/ERC721/ERC721.sol\":3846:3867  _approve(to, tokenId) */\n      jump\t// in\n    tag_162:\n        /* \"@openzeppelin/contracts/token/ERC721/ERC721.sol\":3467:3874  function approve(address to, uint256 tokenId) public virtual override {... */\n      pop\n      pop\n      pop\n      jump\t// out\n        /* \"ETNFT.sol\":2766:3058  function transferFrom(\r... */\n    tag_63:\n        /* \"ETNFT.sol\":2902:2910  NFTBonus */\n      sload(0x0d)\n        /* \"ETNFT.sol\":2892:2928  INFTBonus(NFTBonus).withdraw(from,1) */\n      mload(0x40)\n      0xf3fef3a300000000000000000000000000000000000000000000000000000000\n      dup2\n      mstore\n        /* \"ETNFT.sol\":2902:2910  NFTBonus */\n      0xffffffffffffffffffffffffffffffffffffffff\n        /* \"#utility.yul\":6350:6405   */\n      dup6\n      dup2\n      and\n        /* \"ETNFT.sol\":2892:2928  INFTBonus(NFTBonus).withdraw(from,1) */\n      0x04\n      dup4\n      add\n        /* \"#utility.yul\":6332:6406   */\n      mstore\n        /* \"ETNFT.sol\":2902:2910  NFTBonus */\n      0x01\n        /* \"#utility.yul\":6422:6440   */\n      0x24\n      dup4\n      add\n        /* \"#utility.yul\":6415:6449   */\n      mstore\n        /* \"ETNFT.sol\":2902:2910  NFTBonus */\n      swap1\n      swap2\n      and\n      swap1\n        /* \"ETNFT.sol\":2892:2920  INFTBonus(NFTBonus).withdraw */\n      0xf3fef3a3\n      swap1\n        /* \"#utility.yul\":6305:6323   */\n      0x44\n      add\n        /* \"ETNFT.sol\":2892:2928  INFTBonus(NFTBonus).withdraw(from,1) */\n      0x00\n      mload(0x40)\n      dup1\n      dup4\n      sub\n      dup2\n      0x00\n      dup8\n      dup1\n      extcodesize\n      iszero\n      dup1\n      iszero\n      tag_167\n      jumpi\n      0x00\n      dup1\n      revert\n    tag_167:\n      pop\n      gas\n      call\n      iszero\n      dup1\n      iszero\n      tag_169\n      jumpi\n      returndatasize\n      0x00\n      dup1\n      returndatacopy\n      revert(0x00, returndatasize)\n    tag_169:\n      pop\n      pop\n        /* \"ETNFT.sol\":2949:2957  NFTBonus */\n      sload(0x0d)\n        /* \"ETNFT.sol\":2939:2971  INFTBonus(NFTBonus).stake(to, 1) */\n      mload(0x40)\n      0xadc9772e00000000000000000000000000000000000000000000000000000000\n      dup2\n      mstore\n        /* \"ETNFT.sol\":2949:2957  NFTBonus */\n      0xffffffffffffffffffffffffffffffffffffffff\n        /* \"#utility.yul\":6350:6405   */\n      dup7\n      dup2\n      and\n        /* \"ETNFT.sol\":2939:2971  INFTBonus(NFTBonus).stake(to, 1) */\n      0x04\n      dup4\n      add\n        /* \"#utility.yul\":6332:6406   */\n      mstore\n        /* \"ETNFT.sol\":2949:2957  NFTBonus */\n      0x01\n        /* \"#utility.yul\":6422:6440   */\n      0x24\n      dup4\n      add\n        /* \"#utility.yul\":6415:6449   */\n      mstore\n        /* \"ETNFT.sol\":2949:2957  NFTBonus */\n      swap1\n      swap2\n      and\n      swap3\n      pop\n        /* \"ETNFT.sol\":2939:2964  INFTBonus(NFTBonus).stake */\n      0xadc9772e\n      swap2\n      pop\n        /* \"#utility.yul\":6305:6323   */\n      0x44\n      add\n        /* \"ETNFT.sol\":2939:2971  INFTBonus(NFTBonus).stake(to, 1) */\n      0x00\n      mload(0x40)\n      dup1\n      dup4\n      sub\n      dup2\n      0x00\n      dup8\n      dup1\n      extcodesize\n      iszero\n      dup1\n      iszero\n      tag_171\n      jumpi\n      0x00\n      dup1\n      revert\n    tag_171:\n      pop\n      gas\n      call\n      iszero\n      dup1\n      iszero\n      tag_173\n      jumpi\n      returndatasize\n      0x00\n      dup1\n      returndatacopy\n      revert(0x00, returndatasize)\n    tag_173:\n      pop\n        /* \"ETNFT.sol\":3012:3050  ERC721.transferFrom(from, to, tokenId) */\n      tag_162\n      swap3\n      pop\n        /* \"ETNFT.sol\":3032:3036  from */\n      dup6\n      swap2\n      pop\n        /* \"ETNFT.sol\":3038:3040  to */\n      dup5\n      swap1\n      pop\n        /* \"ETNFT.sol\":3042:3049  tokenId */\n      dup4\n        /* \"ETNFT.sol\":3012:3031  ERC721.transferFrom */\n      tag_175\n        /* \"ETNFT.sol\":3012:3050  ERC721.transferFrom(from, to, tokenId) */\n      jump\t// in\n        /* \"ETNFT.sol\":1084:1178  function setNFTBonus(address _address) public onlyOwner {\r... */\n    tag_67:\n        /* \"ETNFT.sol\":945:951  _owner */\n      sload(0x09)\n        /* \"ETNFT.sol\":1333:1356  owner() == _msgSender() */\n      0xffffffffffffffffffffffffffffffffffffffff\n        /* \"ETNFT.sol\":945:951  _owner */\n      and\n        /* \"@openzeppelin/contracts/utils/Context.sol\":719:729  msg.sender */\n      caller\n        /* \"ETNFT.sol\":1333:1356  owner() == _msgSender() */\n      eq\n        /* \"ETNFT.sol\":1325:1393  require(owner() == _msgSender(), \"Ownable: caller is not the owner\") */\n      tag_179\n      jumpi\n      mload(0x40)\n      0x08c379a000000000000000000000000000000000000000000000000000000000\n      dup2\n      mstore\n        /* \"#utility.yul\":12635:12637   */\n      0x20\n        /* \"ETNFT.sol\":1325:1393  require(owner() == _msgSender(), \"Ownable: caller is not the owner\") */\n      0x04\n      dup3\n      add\n        /* \"#utility.yul\":12617:12638   */\n      dup2\n      swap1\n      mstore\n        /* \"#utility.yul\":12654:12672   */\n      0x24\n      dup3\n      add\n        /* \"#utility.yul\":12647:12677   */\n      mstore\n        /* \"#utility.yul\":12713:12747   */\n      0x4f776e61626c653a2063616c6c6572206973206e6f7420746865206f776e6572\n        /* \"#utility.yul\":12693:12711   */\n      0x44\n      dup3\n      add\n        /* \"#utility.yul\":12686:12748   */\n      mstore\n        /* \"#utility.yul\":12765:12783   */\n      0x64\n      add\n        /* \"ETNFT.sol\":1325:1393  require(owner() == _msgSender(), \"Ownable: caller is not the owner\") */\n      tag_152\n        /* \"#utility.yul\":12607:12789   */\n      jump\n        /* \"ETNFT.sol\":1325:1393  require(owner() == _msgSender(), \"Ownable: caller is not the owner\") */\n    tag_179:\n        /* \"ETNFT.sol\":1151:1159  NFTBonus */\n      0x0d\n        /* \"ETNFT.sol\":1151:1170  NFTBonus = _address */\n      dup1\n      sload\n      0xffffffffffffffffffffffff0000000000000000000000000000000000000000\n      and\n      0xffffffffffffffffffffffffffffffffffffffff\n      swap3\n      swap1\n      swap3\n      and\n      swap2\n      swap1\n      swap2\n      or\n      swap1\n      sstore\n        /* \"ETNFT.sol\":1084:1178  function setNFTBonus(address _address) public onlyOwner {\r... */\n      jump\t// out\n        /* \"ETNFT.sol\":2297:2531  function safeMint(address to)public onlyManager{\r... */\n    tag_70:\n        /* \"@openzeppelin/contracts/utils/Context.sol\":719:729  msg.sender */\n      caller\n        /* \"ETNFT.sol\":1226:1249  isManager[_msgSender()] */\n      0x00\n      swap1\n      dup2\n      mstore\n        /* \"ETNFT.sol\":1226:1235  isManager */\n      0x0a\n        /* \"ETNFT.sol\":1226:1249  isManager[_msgSender()] */\n      0x20\n      mstore\n      0x40\n      swap1\n      keccak256\n      sload\n      0xff\n      and\n        /* \"ETNFT.sol\":1218:1265  require(isManager[_msgSender()], \"Not manager\") */\n      tag_185\n      jumpi\n      mload(0x40)\n      0x08c379a000000000000000000000000000000000000000000000000000000000\n      dup2\n      mstore\n        /* \"#utility.yul\":8392:8394   */\n      0x20\n        /* \"ETNFT.sol\":1218:1265  require(isManager[_msgSender()], \"Not manager\") */\n      0x04\n      dup3\n      add\n        /* \"#utility.yul\":8374:8395   */\n      mstore\n        /* \"#utility.yul\":8431:8433   */\n      0x0b\n        /* \"#utility.yul\":8411:8429   */\n      0x24\n      dup3\n      add\n        /* \"#utility.yul\":8404:8434   */\n      mstore\n        /* \"#utility.yul\":8470:8483   */\n      0x4e6f74206d616e61676572000000000000000000000000000000000000000000\n        /* \"#utility.yul\":8450:8468   */\n      0x44\n      dup3\n      add\n        /* \"#utility.yul\":8443:8484   */\n      mstore\n        /* \"#utility.yul\":8501:8519   */\n      0x64\n      add\n        /* \"ETNFT.sol\":1218:1265  require(isManager[_msgSender()], \"Not manager\") */\n      tag_152\n        /* \"#utility.yul\":8364:8525   */\n      jump\n        /* \"ETNFT.sol\":1218:1265  require(isManager[_msgSender()], \"Not manager\") */\n    tag_185:\n        /* \"ETNFT.sol\":2355:2366  nextTokenId */\n      0x08\n        /* \"ETNFT.sol\":2355:2368  nextTokenId++ */\n      dup1\n      sload\n      swap1\n        /* \"ETNFT.sol\":2355:2366  nextTokenId */\n      0x00\n        /* \"ETNFT.sol\":2355:2368  nextTokenId++ */\n      tag_189\n      dup4\n      tag_190\n      jump\t// in\n    tag_189:\n      swap1\n      swap2\n      sstore\n      pop\n      pop\n        /* \"ETNFT.sol\":2379:2390  totalSupply */\n      0x0c\n        /* \"ETNFT.sol\":2379:2392  totalSupply++ */\n      dup1\n      sload\n      swap1\n        /* \"ETNFT.sol\":2379:2390  totalSupply */\n      0x00\n        /* \"ETNFT.sol\":2379:2392  totalSupply++ */\n      tag_191\n      dup4\n      tag_190\n      jump\t// in\n    tag_191:\n      swap1\n      swap2\n      sstore\n      pop\n      pop\n        /* \"ETNFT.sol\":2465:2473  NFTBonus */\n      sload(0x0d)\n        /* \"ETNFT.sol\":2455:2486  INFTBonus(NFTBonus).stake(to,1) */\n      mload(0x40)\n      0xadc9772e00000000000000000000000000000000000000000000000000000000\n      dup2\n      mstore\n        /* \"ETNFT.sol\":2465:2473  NFTBonus */\n      0xffffffffffffffffffffffffffffffffffffffff\n        /* \"#utility.yul\":6350:6405   */\n      dup4\n      dup2\n      and\n        /* \"ETNFT.sol\":2455:2486  INFTBonus(NFTBonus).stake(to,1) */\n      0x04\n      dup4\n      add\n        /* \"#utility.yul\":6332:6406   */\n      mstore\n        /* \"ETNFT.sol\":2465:2473  NFTBonus */\n      0x01\n        /* \"#utility.yul\":6422:6440   */\n      0x24\n      dup4\n      add\n        /* \"#utility.yul\":6415:6449   */\n      mstore\n        /* \"ETNFT.sol\":2465:2473  NFTBonus */\n      swap1\n      swap2\n      and\n      swap1\n        /* \"ETNFT.sol\":2455:2480  INFTBonus(NFTBonus).stake */\n      0xadc9772e\n      swap1\n        /* \"#utility.yul\":6305:6323   */\n      0x44\n      add\n        /* \"ETNFT.sol\":2455:2486  INFTBonus(NFTBonus).stake(to,1) */\n      0x00\n      mload(0x40)\n      dup1\n      dup4\n      sub\n      dup2\n      0x00\n      dup8\n      dup1\n      extcodesize\n      iszero\n      dup1\n      iszero\n      tag_193\n      jumpi\n      0x00\n      dup1\n      revert\n    tag_193:\n      pop\n      gas\n      call\n      iszero\n      dup1\n      iszero\n      tag_195\n      jumpi\n      returndatasize\n      0x00\n      dup1\n      returndatacopy\n      revert(0x00, returndatasize)\n    tag_195:\n      pop\n      pop\n      pop\n      pop\n        /* \"ETNFT.sol\":2497:2523  _safeMint(to, nextTokenId) */\n      tag_196\n        /* \"ETNFT.sol\":2507:2509  to */\n      dup2\n        /* \"ETNFT.sol\":2511:2522  nextTokenId */\n      sload(0x08)\n        /* \"ETNFT.sol\":2497:2506  _safeMint */\n      tag_197\n        /* \"ETNFT.sol\":2497:2523  _safeMint(to, nextTokenId) */\n      jump\t// in\n    tag_196:\n        /* \"ETNFT.sol\":2297:2531  function safeMint(address to)public onlyManager{\r... */\n      pop\n      jump\t// out\n        /* \"@openzeppelin/contracts/token/ERC721/ERC721.sol\":5005:5184  function safeTransferFrom(... */\n    tag_73:\n        /* \"@openzeppelin/contracts/token/ERC721/ERC721.sol\":5138:5177  safeTransferFrom(from, to, tokenId, \"\") */\n      tag_162\n        /* \"@openzeppelin/contracts/token/ERC721/ERC721.sol\":5155:5159  from */\n      dup4\n        /* \"@openzeppelin/contracts/token/ERC721/ERC721.sol\":5161:5163  to */\n      dup4\n        /* \"@openzeppelin/contracts/token/ERC721/ERC721.sol\":5165:5172  tokenId */\n      dup4\n        /* \"@openzeppelin/contracts/token/ERC721/ERC721.sol\":5138:5177  safeTransferFrom(from, to, tokenId, \"\") */\n      mload(0x40)\n      dup1\n      0x20\n      add\n      0x40\n      mstore\n      dup1\n      0x00\n      dup2\n      mstore\n      pop\n        /* \"@openzeppelin/contracts/token/ERC721/ERC721.sol\":5138:5154  safeTransferFrom */\n      tag_111\n        /* \"@openzeppelin/contracts/token/ERC721/ERC721.sol\":5138:5177  safeTransferFrom(from, to, tokenId, \"\") */\n      jump\t// in\n        /* \"ETNFT.sol\":2537:2760  function burn(uint256 tokenId)public  {\r... */\n    tag_76:\n        /* \"ETNFT.sol\":2612:2622  msg.sender */\n      caller\n        /* \"ETNFT.sol\":2594:2610  ownerOf(tokenId) */\n      tag_201\n        /* \"ETNFT.sol\":2602:2609  tokenId */\n      dup3\n        /* \"ETNFT.sol\":2594:2601  ownerOf */\n      tag_83\n        /* \"ETNFT.sol\":2594:2610  ownerOf(tokenId) */\n      jump\t// in\n    tag_201:\n        /* \"ETNFT.sol\":2594:2622  ownerOf(tokenId)==msg.sender */\n      0xffffffffffffffffffffffffffffffffffffffff\n      and\n      eq\n        /* \"ETNFT.sol\":2586:2650  require(ownerOf(tokenId)==msg.sender,\"your not authorized burn\") */\n      tag_202\n      jumpi\n      mload(0x40)\n      0x08c379a000000000000000000000000000000000000000000000000000000000\n      dup2\n      mstore\n        /* \"#utility.yul\":11490:11492   */\n      0x20\n        /* \"ETNFT.sol\":2586:2650  require(ownerOf(tokenId)==msg.sender,\"your not authorized burn\") */\n      0x04\n      dup3\n      add\n        /* \"#utility.yul\":11472:11493   */\n      mstore\n        /* \"#utility.yul\":11529:11531   */\n      0x18\n        /* \"#utility.yul\":11509:11527   */\n      0x24\n      dup3\n      add\n        /* \"#utility.yul\":11502:11532   */\n      mstore\n        /* \"#utility.yul\":11568:11594   */\n      0x796f7572206e6f7420617574686f72697a6564206275726e0000000000000000\n        /* \"#utility.yul\":11548:11566   */\n      0x44\n      dup3\n      add\n        /* \"#utility.yul\":11541:11595   */\n      mstore\n        /* \"#utility.yul\":11612:11630   */\n      0x64\n      add\n        /* \"ETNFT.sol\":2586:2650  require(ownerOf(tokenId)==msg.sender,\"your not authorized burn\") */\n      tag_152\n        /* \"#utility.yul\":11462:11636   */\n      jump\n        /* \"ETNFT.sol\":2586:2650  require(ownerOf(tokenId)==msg.sender,\"your not authorized burn\") */\n    tag_202:\n        /* \"ETNFT.sol\":2661:2672  totalSupply */\n      0x0c\n        /* \"ETNFT.sol\":2661:2674  totalSupply-- */\n      dup1\n      sload\n      swap1\n        /* \"ETNFT.sol\":2661:2672  totalSupply */\n      0x00\n        /* \"ETNFT.sol\":2661:2674  totalSupply-- */\n      tag_205\n      dup4\n      tag_206\n      jump\t// in\n    tag_205:\n      swap1\n      swap2\n      sstore\n      pop\n      pop\n        /* \"ETNFT.sol\":2695:2703  NFTBonus */\n      sload(0x0d)\n        /* \"ETNFT.sol\":2685:2727  INFTBonus(NFTBonus).withdraw(msg.sender,1) */\n      mload(0x40)\n      0xf3fef3a300000000000000000000000000000000000000000000000000000000\n      dup2\n      mstore\n        /* \"ETNFT.sol\":2714:2724  msg.sender */\n      caller\n        /* \"ETNFT.sol\":2685:2727  INFTBonus(NFTBonus).withdraw(msg.sender,1) */\n      0x04\n      dup3\n      add\n        /* \"#utility.yul\":6332:6406   */\n      mstore\n        /* \"ETNFT.sol\":2695:2703  NFTBonus */\n      0x01\n        /* \"#utility.yul\":6422:6440   */\n      0x24\n      dup3\n      add\n        /* \"#utility.yul\":6415:6449   */\n      mstore\n        /* \"ETNFT.sol\":2695:2703  NFTBonus */\n      0xffffffffffffffffffffffffffffffffffffffff\n      swap1\n      swap2\n      and\n      swap1\n        /* \"ETNFT.sol\":2685:2713  INFTBonus(NFTBonus).withdraw */\n      0xf3fef3a3\n      swap1\n        /* \"#utility.yul\":6305:6323   */\n      0x44\n      add\n        /* \"ETNFT.sol\":2685:2727  INFTBonus(NFTBonus).withdraw(msg.sender,1) */\n      0x00\n      mload(0x40)\n      dup1\n      dup4\n      sub\n      dup2\n      0x00\n      dup8\n      dup1\n      extcodesize\n      iszero\n      dup1\n      iszero\n      tag_208\n      jumpi\n      0x00\n      dup1\n      revert\n    tag_208:\n      pop\n      gas\n      call\n      iszero\n      dup1\n      iszero\n      tag_210\n      jumpi\n      returndatasize\n      0x00\n      dup1\n      returndatacopy\n      revert(0x00, returndatasize)\n    tag_210:\n      pop\n      pop\n      pop\n      pop\n        /* \"ETNFT.sol\":2738:2752  _burn(tokenId) */\n      tag_196\n        /* \"ETNFT.sol\":2744:2751  tokenId */\n      dup2\n        /* \"ETNFT.sol\":2738:2743  _burn */\n      tag_212\n        /* \"ETNFT.sol\":2738:2752  _burn(tokenId) */\n      jump\t// in\n        /* \"ETNFT.sol\":1809:1943  function setBaseURI(string memory url)public onlyOwner{\r... */\n    tag_80:\n        /* \"ETNFT.sol\":945:951  _owner */\n      sload(0x09)\n        /* \"ETNFT.sol\":1333:1356  owner() == _msgSender() */\n      0xffffffffffffffffffffffffffffffffffffffff\n        /* \"ETNFT.sol\":945:951  _owner */\n      and\n        /* \"@openzeppelin/contracts/utils/Context.sol\":719:729  msg.sender */\n      caller\n        /* \"ETNFT.sol\":1333:1356  owner() == _msgSender() */\n      eq\n        /* \"ETNFT.sol\":1325:1393  require(owner() == _msgSender(), \"Ownable: caller is not the owner\") */\n      tag_216\n      jumpi\n      mload(0x40)\n      0x08c379a000000000000000000000000000000000000000000000000000000000\n      dup2\n      mstore\n        /* \"#utility.yul\":12635:12637   */\n      0x20\n        /* \"ETNFT.sol\":1325:1393  require(owner() == _msgSender(), \"Ownable: caller is not the owner\") */\n      0x04\n      dup3\n      add\n        /* \"#utility.yul\":12617:12638   */\n      dup2\n      swap1\n      mstore\n        /* \"#utility.yul\":12654:12672   */\n      0x24\n      dup3\n      add\n        /* \"#utility.yul\":12647:12677   */\n      mstore\n        /* \"#utility.yul\":12713:12747   */\n      0x4f776e61626c653a2063616c6c6572206973206e6f7420746865206f776e6572\n        /* \"#utility.yul\":12693:12711   */\n      0x44\n      dup3\n      add\n        /* \"#utility.yul\":12686:12748   */\n      mstore\n        /* \"#utility.yul\":12765:12783   */\n      0x64\n      add\n        /* \"ETNFT.sol\":1325:1393  require(owner() == _msgSender(), \"Ownable: caller is not the owner\") */\n      tag_152\n        /* \"#utility.yul\":12607:12789   */\n      jump\n        /* \"ETNFT.sol\":1325:1393  require(owner() == _msgSender(), \"Ownable: caller is not the owner\") */\n    tag_216:\n        /* \"ETNFT.sol\":1874:1893  _baseTokenURI = url */\n      dup1\n      mload\n      tag_219\n      swap1\n        /* \"ETNFT.sol\":1874:1887  _baseTokenURI */\n      0x0b\n      swap1\n        /* \"ETNFT.sol\":1874:1893  _baseTokenURI = url */\n      0x20\n      dup5\n      add\n      swap1\n      tag_220\n      jump\t// in\n    tag_219:\n      pop\n        /* \"ETNFT.sol\":1910:1935  BaseURISet(_baseTokenURI) */\n      0xf9c7803e94e0d3c02900d8a90893a6d5e90dd04d32a4cfe825520f82bf9f32f6\n        /* \"ETNFT.sol\":1921:1934  _baseTokenURI */\n      0x0b\n        /* \"ETNFT.sol\":1910:1935  BaseURISet(_baseTokenURI) */\n      mload(0x40)\n      tag_221\n      swap2\n      swap1\n      tag_222\n      jump\t// in\n    tag_221:\n      mload(0x40)\n      dup1\n      swap2\n      sub\n      swap1\n      log1\n        /* \"ETNFT.sol\":1809:1943  function setBaseURI(string memory url)public onlyOwner{\r... */\n      pop\n      jump\t// out\n        /* \"@openzeppelin/contracts/token/ERC721/ERC721.sol\":2190:2408  function ownerOf(uint256 tokenId) public view virtual override returns (address) {... */\n    tag_83:\n        /* \"@openzeppelin/contracts/token/ERC721/ERC721.sol\":2262:2269  address */\n      0x00\n        /* \"@openzeppelin/contracts/token/ERC721/ERC721.sol\":2297:2313  _owners[tokenId] */\n      dup2\n      dup2\n      mstore\n        /* \"@openzeppelin/contracts/token/ERC721/ERC721.sol\":2297:2304  _owners */\n      0x02\n        /* \"@openzeppelin/contracts/token/ERC721/ERC721.sol\":2297:2313  _owners[tokenId] */\n      0x20\n      mstore\n      0x40\n      dup2\n      keccak256\n      sload\n      0xffffffffffffffffffffffffffffffffffffffff\n      and\n        /* \"@openzeppelin/contracts/token/ERC721/ERC721.sol\":2331:2350  owner != address(0) */\n      dup1\n        /* \"@openzeppelin/contracts/token/ERC721/ERC721.sol\":2323:2379  require(owner != address(0), \"ERC721: invalid token ID\") */\n      tag_137\n      jumpi\n      mload(0x40)\n      0x08c379a000000000000000000000000000000000000000000000000000000000\n      dup2\n      mstore\n        /* \"#utility.yul\":12996:12998   */\n      0x20\n        /* \"@openzeppelin/contracts/token/ERC721/ERC721.sol\":2323:2379  require(owner != address(0), \"ERC721: invalid token ID\") */\n      0x04\n      dup3\n      add\n        /* \"#utility.yul\":12978:12999   */\n      mstore\n        /* \"#utility.yul\":13035:13037   */\n      0x18\n        /* \"#utility.yul\":13015:13033   */\n      0x24\n      dup3\n      add\n        /* \"#utility.yul\":13008:13038   */\n      mstore\n        /* \"#utility.yul\":13074:13100   */\n      0x4552433732313a20696e76616c696420746f6b656e2049440000000000000000\n        /* \"#utility.yul\":13054:13072   */\n      0x44\n      dup3\n      add\n        /* \"#utility.yul\":13047:13101   */\n      mstore\n        /* \"#utility.yul\":13118:13136   */\n      0x64\n      add\n        /* \"@openzeppelin/contracts/token/ERC721/ERC721.sol\":2323:2379  require(owner != address(0), \"ERC721: invalid token ID\") */\n      tag_152\n        /* \"#utility.yul\":12968:13142   */\n      jump\n        /* \"ETNFT.sol\":2054:2146  function baseURI()public view returns (string memory){\r... */\n    tag_86:\n        /* \"ETNFT.sol\":2093:2106  string memory */\n      0x60\n        /* \"ETNFT.sol\":2125:2138  _baseTokenURI */\n      0x0b\n        /* \"ETNFT.sol\":2118:2138  return _baseTokenURI */\n      dup1\n      sload\n      tag_140\n      swap1\n      tag_141\n      jump\t// in\n        /* \"@openzeppelin/contracts/token/ERC721/ERC721.sol\":1929:2133  function balanceOf(address owner) public view virtual override returns (uint256) {... */\n    tag_90:\n        /* \"@openzeppelin/contracts/token/ERC721/ERC721.sol\":2001:2008  uint256 */\n      0x00\n        /* \"@openzeppelin/contracts/token/ERC721/ERC721.sol\":2028:2047  owner != address(0) */\n      0xffffffffffffffffffffffffffffffffffffffff\n      dup3\n      and\n        /* \"@openzeppelin/contracts/token/ERC721/ERC721.sol\":2020:2093  require(owner != address(0), \"ERC721: address zero is not a valid owner\") */\n      tag_234\n      jumpi\n      mload(0x40)\n      0x08c379a000000000000000000000000000000000000000000000000000000000\n      dup2\n      mstore\n        /* \"#utility.yul\":11080:11082   */\n      0x20\n        /* \"@openzeppelin/contracts/token/ERC721/ERC721.sol\":2020:2093  require(owner != address(0), \"ERC721: address zero is not a valid owner\") */\n      0x04\n      dup3\n      add\n        /* \"#utility.yul\":11062:11083   */\n      mstore\n        /* \"#utility.yul\":11119:11121   */\n      0x29\n        /* \"#utility.yul\":11099:11117   */\n      0x24\n      dup3\n      add\n        /* \"#utility.yul\":11092:11122   */\n      mstore\n        /* \"#utility.yul\":11158:11192   */\n      0x4552433732313a2061646472657373207a65726f206973206e6f742061207661\n        /* \"#utility.yul\":11138:11156   */\n      0x44\n      dup3\n      add\n        /* \"#utility.yul\":11131:11193   */\n      mstore\n        /* \"#utility.yul\":11229:11240   */\n      0x6c6964206f776e65720000000000000000000000000000000000000000000000\n        /* \"#utility.yul\":11209:11227   */\n      0x64\n      dup3\n      add\n        /* \"#utility.yul\":11202:11241   */\n      mstore\n        /* \"#utility.yul\":11258:11277   */\n      0x84\n      add\n        /* \"@openzeppelin/contracts/token/ERC721/ERC721.sol\":2020:2093  require(owner != address(0), \"ERC721: address zero is not a valid owner\") */\n      tag_152\n        /* \"#utility.yul\":11052:11283   */\n      jump\n        /* \"@openzeppelin/contracts/token/ERC721/ERC721.sol\":2020:2093  require(owner != address(0), \"ERC721: address zero is not a valid owner\") */\n    tag_234:\n      pop\n        /* \"@openzeppelin/contracts/token/ERC721/ERC721.sol\":2110:2126  _balances[owner] */\n      0xffffffffffffffffffffffffffffffffffffffff\n      and\n      0x00\n      swap1\n      dup2\n      mstore\n        /* \"@openzeppelin/contracts/token/ERC721/ERC721.sol\":2110:2119  _balances */\n      0x03\n        /* \"@openzeppelin/contracts/token/ERC721/ERC721.sol\":2110:2126  _balances[owner] */\n      0x20\n      mstore\n      0x40\n      swap1\n      keccak256\n      sload\n      swap1\n        /* \"@openzeppelin/contracts/token/ERC721/ERC721.sol\":1929:2133  function balanceOf(address owner) public view virtual override returns (uint256) {... */\n      jump\t// out\n        /* \"@openzeppelin/contracts/token/ERC721/ERC721.sol\":2632:2734  function symbol() public view virtual override returns (string memory) {... */\n    tag_99:\n        /* \"@openzeppelin/contracts/token/ERC721/ERC721.sol\":2688:2701  string memory */\n      0x60\n        /* \"@openzeppelin/contracts/token/ERC721/ERC721.sol\":2720:2727  _symbol */\n      0x01\n        /* \"@openzeppelin/contracts/token/ERC721/ERC721.sol\":2713:2727  return _symbol */\n      dup1\n      sload\n      tag_140\n      swap1\n      tag_141\n      jump\t// in\n        /* \"@openzeppelin/contracts/token/ERC721/ERC721.sol\":4169:4322  function setApprovalForAll(address operator, bool approved) public virtual override {... */\n    tag_104:\n        /* \"@openzeppelin/contracts/token/ERC721/ERC721.sol\":4263:4315  _setApprovalForAll(_msgSender(), operator, approved) */\n      tag_245\n        /* \"@openzeppelin/contracts/utils/Context.sol\":719:729  msg.sender */\n      caller\n        /* \"@openzeppelin/contracts/token/ERC721/ERC721.sol\":4296:4304  operator */\n      dup4\n        /* \"@openzeppelin/contracts/token/ERC721/ERC721.sol\":4306:4314  approved */\n      dup4\n        /* \"@openzeppelin/contracts/token/ERC721/ERC721.sol\":4263:4281  _setApprovalForAll */\n      tag_247\n        /* \"@openzeppelin/contracts/token/ERC721/ERC721.sol\":4263:4315  _setApprovalForAll(_msgSender(), operator, approved) */\n      jump\t// in\n    tag_245:\n        /* \"@openzeppelin/contracts/token/ERC721/ERC721.sol\":4169:4322  function setApprovalForAll(address operator, bool approved) public virtual override {... */\n      pop\n      pop\n      jump\t// out\n        /* \"ETNFT.sol\":965:1078  function setManager(address _manager, bool _flag) public onlyOwner {\r... */\n    tag_107:\n        /* \"ETNFT.sol\":945:951  _owner */\n      sload(0x09)\n        /* \"ETNFT.sol\":1333:1356  owner() == _msgSender() */\n      0xffffffffffffffffffffffffffffffffffffffff\n        /* \"ETNFT.sol\":945:951  _owner */\n      and\n        /* \"@openzeppelin/contracts/utils/Context.sol\":719:729  msg.sender */\n      caller\n        /* \"ETNFT.sol\":1333:1356  owner() == _msgSender() */\n      eq\n        /* \"ETNFT.sol\":1325:1393  require(owner() == _msgSender(), \"Ownable: caller is not the owner\") */\n      tag_251\n      jumpi\n      mload(0x40)\n      0x08c379a000000000000000000000000000000000000000000000000000000000\n      dup2\n      mstore\n        /* \"#utility.yul\":12635:12637   */\n      0x20\n        /* \"ETNFT.sol\":1325:1393  require(owner() == _msgSender(), \"Ownable: caller is not the owner\") */\n      0x04\n      dup3\n      add\n        /* \"#utility.yul\":12617:12638   */\n      dup2\n      swap1\n      mstore\n        /* \"#utility.yul\":12654:12672   */\n      0x24\n      dup3\n      add\n        /* \"#utility.yul\":12647:12677   */\n      mstore\n        /* \"#utility.yul\":12713:12747   */\n      0x4f776e61626c653a2063616c6c6572206973206e6f7420746865206f776e6572\n        /* \"#utility.yul\":12693:12711   */\n      0x44\n      dup3\n      add\n        /* \"#utility.yul\":12686:12748   */\n      mstore\n        /* \"#utility.yul\":12765:12783   */\n      0x64\n      add\n        /* \"ETNFT.sol\":1325:1393  require(owner() == _msgSender(), \"Ownable: caller is not the owner\") */\n      tag_152\n        /* \"#utility.yul\":12607:12789   */\n      jump\n        /* \"ETNFT.sol\":1325:1393  require(owner() == _msgSender(), \"Ownable: caller is not the owner\") */\n    tag_251:\n        /* \"ETNFT.sol\":1043:1062  isManager[_manager] */\n      0xffffffffffffffffffffffffffffffffffffffff\n      swap2\n      swap1\n      swap2\n      and\n      0x00\n      swap1\n      dup2\n      mstore\n        /* \"ETNFT.sol\":1043:1052  isManager */\n      0x0a\n        /* \"ETNFT.sol\":1043:1062  isManager[_manager] */\n      0x20\n      mstore\n      0x40\n      swap1\n      keccak256\n        /* \"ETNFT.sol\":1043:1070  isManager[_manager] = _flag */\n      dup1\n      sload\n      0xffffffffffffffffffffffffffffffffffffffffffffffffffffffffffffff00\n      and\n      swap2\n      iszero\n      iszero\n      swap2\n      swap1\n      swap2\n      or\n      swap1\n      sstore\n        /* \"ETNFT.sol\":965:1078  function setManager(address _manager, bool _flag) public onlyOwner {\r... */\n      jump\t// out\n        /* \"@openzeppelin/contracts/token/ERC721/ERC721.sol\":5250:5565  function safeTransferFrom(... */\n    tag_111:\n        /* \"@openzeppelin/contracts/token/ERC721/ERC721.sol\":5418:5459  _isApprovedOrOwner(_msgSender(), tokenId) */\n      tag_255\n        /* \"@openzeppelin/contracts/utils/Context.sol\":719:729  msg.sender */\n      caller\n        /* \"@openzeppelin/contracts/token/ERC721/ERC721.sol\":5451:5458  tokenId */\n      dup4\n        /* \"@openzeppelin/contracts/token/ERC721/ERC721.sol\":5418:5436  _isApprovedOrOwner */\n      tag_257\n        /* \"@openzeppelin/contracts/token/ERC721/ERC721.sol\":5418:5459  _isApprovedOrOwner(_msgSender(), tokenId) */\n      jump\t// in\n    tag_255:\n        /* \"@openzeppelin/contracts/token/ERC721/ERC721.sol\":5410:5510  require(_isApprovedOrOwner(_msgSender(), tokenId), \"ERC721: caller is not token owner nor approved\") */\n      tag_258\n      jumpi\n      mload(0x40)\n      0x08c379a000000000000000000000000000000000000000000000000000000000\n      dup2\n      mstore\n        /* \"#utility.yul\":13751:13753   */\n      0x20\n        /* \"@openzeppelin/contracts/token/ERC721/ERC721.sol\":5410:5510  require(_isApprovedOrOwner(_msgSender(), tokenId), \"ERC721: caller is not token owner nor approved\") */\n      0x04\n      dup3\n      add\n        /* \"#utility.yul\":13733:13754   */\n      mstore\n        /* \"#utility.yul\":13790:13792   */\n      0x2e\n        /* \"#utility.yul\":13770:13788   */\n      0x24\n      dup3\n      add\n        /* \"#utility.yul\":13763:13793   */\n      mstore\n        /* \"#utility.yul\":13829:13863   */\n      0x4552433732313a2063616c6c6572206973206e6f7420746f6b656e206f776e65\n        /* \"#utility.yul\":13809:13827   */\n      0x44\n      dup3\n      add\n        /* \"#utility.yul\":13802:13864   */\n      mstore\n        /* \"#utility.yul\":13900:13916   */\n      0x72206e6f7220617070726f766564000000000000000000000000000000000000\n        /* \"#utility.yul\":13880:13898   */\n      0x64\n      dup3\n      add\n        /* \"#utility.yul\":13873:13917   */\n      mstore\n        /* \"#utility.yul\":13934:13953   */\n      0x84\n      add\n        /* \"@openzeppelin/contracts/token/ERC721/ERC721.sol\":5410:5510  require(_isApprovedOrOwner(_msgSender(), tokenId), \"ERC721: caller is not token owner nor approved\") */\n      tag_152\n        /* \"#utility.yul\":13723:13959   */\n      jump\n        /* \"@openzeppelin/contracts/token/ERC721/ERC721.sol\":5410:5510  require(_isApprovedOrOwner(_msgSender(), tokenId), \"ERC721: caller is not token owner nor approved\") */\n    tag_258:\n        /* \"@openzeppelin/contracts/token/ERC721/ERC721.sol\":5520:5558  _safeTransfer(from, to, tokenId, data) */\n      tag_261\n        /* \"@openzeppelin/contracts/token/ERC721/ERC721.sol\":5534:5538  from */\n      dup5\n        /* \"@openzeppelin/contracts/token/ERC721/ERC721.sol\":5540:5542  to */\n      dup5\n        /* \"@openzeppelin/contracts/token/ERC721/ERC721.sol\":5544:5551  tokenId */\n      dup5\n        /* \"@openzeppelin/contracts/token/ERC721/ERC721.sol\":5553:5557  data */\n      dup5\n        /* \"@openzeppelin/contracts/token/ERC721/ERC721.sol\":5520:5533  _safeTransfer */\n      tag_262\n        /* \"@openzeppelin/contracts/token/ERC721/ERC721.sol\":5520:5558  _safeTransfer(from, to, tokenId, data) */\n      jump\t// in\n    tag_261:\n        /* \"@openzeppelin/contracts/token/ERC721/ERC721.sol\":5250:5565  function safeTransferFrom(... */\n      pop\n      pop\n      pop\n      pop\n      jump\t// out\n        /* \"@openzeppelin/contracts/token/ERC721/ERC721.sol\":2800:3076  function tokenURI(uint256 tokenId) public view virtual override returns (string memory) {... */\n    tag_120:\n        /* \"@openzeppelin/contracts/token/ERC721/ERC721.sol\":2873:2886  string memory */\n      0x60\n        /* \"@openzeppelin/contracts/token/ERC721/ERC721.sol\":2898:2921  _requireMinted(tokenId) */\n      tag_265\n        /* \"@openzeppelin/contracts/token/ERC721/ERC721.sol\":2913:2920  tokenId */\n      dup3\n        /* \"@openzeppelin/contracts/token/ERC721/ERC721.sol\":2898:2912  _requireMinted */\n      tag_148\n        /* \"@openzeppelin/contracts/token/ERC721/ERC721.sol\":2898:2921  _requireMinted(tokenId) */\n      jump\t// in\n    tag_265:\n        /* \"@openzeppelin/contracts/token/ERC721/ERC721.sol\":2932:2953  string memory baseURI */\n      0x00\n        /* \"@openzeppelin/contracts/token/ERC721/ERC721.sol\":2956:2966  _baseURI() */\n      tag_266\n        /* \"@openzeppelin/contracts/token/ERC721/ERC721.sol\":3394:3403  return \"\" */\n      0x40\n      dup1\n      mload\n      0x20\n      dup2\n      add\n      swap1\n      swap2\n      mstore\n      0x00\n      dup2\n      mstore\n      swap1\n        /* \"@openzeppelin/contracts/token/ERC721/ERC721.sol\":3318:3410  function _baseURI() internal view virtual returns (string memory) {... */\n      jump\n        /* \"@openzeppelin/contracts/token/ERC721/ERC721.sol\":2956:2966  _baseURI() */\n    tag_266:\n        /* \"@openzeppelin/contracts/token/ERC721/ERC721.sol\":2932:2966  string memory baseURI = _baseURI() */\n      swap1\n      pop\n        /* \"@openzeppelin/contracts/token/ERC721/ERC721.sol\":3007:3008  0 */\n      0x00\n        /* \"@openzeppelin/contracts/token/ERC721/ERC721.sol\":2989:2996  baseURI */\n      dup2\n        /* \"@openzeppelin/contracts/token/ERC721/ERC721.sol\":2983:3004  bytes(baseURI).length */\n      mload\n        /* \"@openzeppelin/contracts/token/ERC721/ERC721.sol\":2983:3008  bytes(baseURI).length > 0 */\n      gt\n        /* \"@openzeppelin/contracts/token/ERC721/ERC721.sol\":2983:3069  bytes(baseURI).length > 0 ? string(abi.encodePacked(baseURI, tokenId.toString())) : \"\" */\n      tag_268\n      jumpi\n      mload(0x40)\n      dup1\n      0x20\n      add\n      0x40\n      mstore\n      dup1\n      0x00\n      dup2\n      mstore\n      pop\n      jump(tag_269)\n    tag_268:\n        /* \"@openzeppelin/contracts/token/ERC721/ERC721.sol\":3035:3042  baseURI */\n      dup1\n        /* \"@openzeppelin/contracts/token/ERC721/ERC721.sol\":3044:3062  tokenId.toString() */\n      tag_270\n        /* \"@openzeppelin/contracts/token/ERC721/ERC721.sol\":3044:3051  tokenId */\n      dup5\n        /* \"@openzeppelin/contracts/token/ERC721/ERC721.sol\":3044:3060  tokenId.toString */\n      tag_271\n        /* \"@openzeppelin/contracts/token/ERC721/ERC721.sol\":3044:3062  tokenId.toString() */\n      jump\t// in\n    tag_270:\n        /* \"@openzeppelin/contracts/token/ERC721/ERC721.sol\":3018:3063  abi.encodePacked(baseURI, tokenId.toString()) */\n      add(0x20, mload(0x40))\n      tag_272\n      swap3\n      swap2\n      swap1\n      tag_273\n      jump\t// in\n    tag_272:\n      mload(0x40)\n      0x20\n      dup2\n      dup4\n      sub\n      sub\n      dup2\n      mstore\n      swap1\n      0x40\n      mstore\n        /* \"@openzeppelin/contracts/token/ERC721/ERC721.sol\":2983:3069  bytes(baseURI).length > 0 ? string(abi.encodePacked(baseURI, tokenId.toString())) : \"\" */\n    tag_269:\n        /* \"@openzeppelin/contracts/token/ERC721/ERC721.sol\":2976:3069  return bytes(baseURI).length > 0 ? string(abi.encodePacked(baseURI, tokenId.toString())) : \"\" */\n      swap4\n        /* \"@openzeppelin/contracts/token/ERC721/ERC721.sol\":2800:3076  function tokenURI(uint256 tokenId) public view virtual override returns (string memory) {... */\n      swap3\n      pop\n      pop\n      pop\n      jump\t// out\n        /* \"ETNFT.sol\":1493:1767  function transferOwnership(address newOwner) public onlyOwner {\r... */\n    tag_129:\n        /* \"ETNFT.sol\":945:951  _owner */\n      sload(0x09)\n        /* \"ETNFT.sol\":1333:1356  owner() == _msgSender() */\n      0xffffffffffffffffffffffffffffffffffffffff\n        /* \"ETNFT.sol\":945:951  _owner */\n      and\n        /* \"@openzeppelin/contracts/utils/Context.sol\":719:729  msg.sender */\n      caller\n        /* \"ETNFT.sol\":1333:1356  owner() == _msgSender() */\n      eq\n        /* \"ETNFT.sol\":1325:1393  require(owner() == _msgSender(), \"Ownable: caller is not the owner\") */\n      tag_278\n      jumpi\n      mload(0x40)\n      0x08c379a000000000000000000000000000000000000000000000000000000000\n      dup2\n      mstore\n        /* \"#utility.yul\":12635:12637   */\n      0x20\n        /* \"ETNFT.sol\":1325:1393  require(owner() == _msgSender(), \"Ownable: caller is not the owner\") */\n      0x04\n      dup3\n      add\n        /* \"#utility.yul\":12617:12638   */\n      dup2\n      swap1\n      mstore\n        /* \"#utility.yul\":12654:12672   */\n      0x24\n      dup3\n      add\n        /* \"#utility.yul\":12647:12677   */\n      mstore\n        /* \"#utility.yul\":12713:12747   */\n      0x4f776e61626c653a2063616c6c6572206973206e6f7420746865206f776e6572\n        /* \"#utility.yul\":12693:12711   */\n      0x44\n      dup3\n      add\n        /* \"#utility.yul\":12686:12748   */\n      mstore\n        /* \"#utility.yul\":12765:12783   */\n      0x64\n      add\n        /* \"ETNFT.sol\":1325:1393  require(owner() == _msgSender(), \"Ownable: caller is not the owner\") */\n      tag_152\n        /* \"#utility.yul\":12607:12789   */\n      jump\n        /* \"ETNFT.sol\":1325:1393  require(owner() == _msgSender(), \"Ownable: caller is not the owner\") */\n    tag_278:\n        /* \"ETNFT.sol\":1574:1596  newOwner != address(0) */\n      0xffffffffffffffffffffffffffffffffffffffff\n      dup2\n      and\n        /* \"ETNFT.sol\":1566:1639  require(newOwner != address(0), \"Ownable: new owner is the zero address\") */\n      tag_281\n      jumpi\n      mload(0x40)\n      0x08c379a000000000000000000000000000000000000000000000000000000000\n      dup2\n      mstore\n        /* \"#utility.yul\":9151:9153   */\n      0x20\n        /* \"ETNFT.sol\":1566:1639  require(newOwner != address(0), \"Ownable: new owner is the zero address\") */\n      0x04\n      dup3\n      add\n        /* \"#utility.yul\":9133:9154   */\n      mstore\n        /* \"#utility.yul\":9190:9192   */\n      0x26\n        /* \"#utility.yul\":9170:9188   */\n      0x24\n      dup3\n      add\n        /* \"#utility.yul\":9163:9193   */\n      mstore\n        /* \"#utility.yul\":9229:9263   */\n      0x4f776e61626c653a206e6577206f776e657220697320746865207a65726f2061\n        /* \"#utility.yul\":9209:9227   */\n      0x44\n      dup3\n      add\n        /* \"#utility.yul\":9202:9264   */\n      mstore\n        /* \"#utility.yul\":9300:9308   */\n      0x6464726573730000000000000000000000000000000000000000000000000000\n        /* \"#utility.yul\":9280:9298   */\n      0x64\n      dup3\n      add\n        /* \"#utility.yul\":9273:9309   */\n      mstore\n        /* \"#utility.yul\":9326:9345   */\n      0x84\n      add\n        /* \"ETNFT.sol\":1566:1639  require(newOwner != address(0), \"Ownable: new owner is the zero address\") */\n      tag_152\n        /* \"#utility.yul\":9123:9351   */\n      jump\n        /* \"ETNFT.sol\":1566:1639  require(newOwner != address(0), \"Ownable: new owner is the zero address\") */\n    tag_281:\n        /* \"ETNFT.sol\":1669:1675  _owner */\n      0x09\n      dup1\n      sload\n      0xffffffffffffffffffffffffffffffffffffffff\n        /* \"ETNFT.sol\":1686:1703  _owner = newOwner */\n      dup4\n      dup2\n      and\n      0xffffffffffffffffffffffff0000000000000000000000000000000000000000\n      dup4\n      and\n      dup2\n      or\n      swap1\n      swap4\n      sstore\n        /* \"ETNFT.sol\":1719:1759  OwnershipTransferred(oldOwner, newOwner) */\n      0x40\n      dup1\n      mload\n        /* \"ETNFT.sol\":1669:1675  _owner */\n      swap2\n      swap1\n      swap3\n      and\n        /* \"#utility.yul\":5537:5571   */\n      dup1\n      dup3\n      mstore\n        /* \"#utility.yul\":5602:5604   */\n      0x20\n        /* \"#utility.yul\":5587:5605   */\n      dup3\n      add\n        /* \"#utility.yul\":5580:5623   */\n      swap4\n      swap1\n      swap4\n      mstore\n        /* \"ETNFT.sol\":1719:1759  OwnershipTransferred(oldOwner, newOwner) */\n      0x8be0079c531659141344cd1fd0a4f28419497f9722a3daafe3b4186f6b6457e0\n      swap2\n        /* \"#utility.yul\":5449:5467   */\n      add\n        /* \"ETNFT.sol\":1719:1759  OwnershipTransferred(oldOwner, newOwner) */\n      mload(0x40)\n      dup1\n      swap2\n      sub\n      swap1\n      log1\n        /* \"ETNFT.sol\":1404:1405  _ */\n      pop\n        /* \"ETNFT.sol\":1493:1767  function transferOwnership(address newOwner) public onlyOwner {\r... */\n      pop\n      jump\t// out\n        /* \"@openzeppelin/contracts/token/ERC721/ERC721.sol\":11657:11790  function _requireMinted(uint256 tokenId) internal view virtual {... */\n    tag_148:\n        /* \"@openzeppelin/contracts/token/ERC721/ERC721.sol\":7099:7103  bool */\n      0x00\n        /* \"@openzeppelin/contracts/token/ERC721/ERC721.sol\":7122:7138  _owners[tokenId] */\n      dup2\n      dup2\n      mstore\n        /* \"@openzeppelin/contracts/token/ERC721/ERC721.sol\":7122:7129  _owners */\n      0x02\n        /* \"@openzeppelin/contracts/token/ERC721/ERC721.sol\":7122:7138  _owners[tokenId] */\n      0x20\n      mstore\n      0x40\n      swap1\n      keccak256\n      sload\n        /* \"@openzeppelin/contracts/token/ERC721/ERC721.sol\":7122:7152  _owners[tokenId] != address(0) */\n      0xffffffffffffffffffffffffffffffffffffffff\n        /* \"@openzeppelin/contracts/token/ERC721/ERC721.sol\":7122:7138  _owners[tokenId] */\n      and\n        /* \"@openzeppelin/contracts/token/ERC721/ERC721.sol\":11730:11783  require(_exists(tokenId), \"ERC721: invalid token ID\") */\n      tag_196\n      jumpi\n      mload(0x40)\n      0x08c379a000000000000000000000000000000000000000000000000000000000\n      dup2\n      mstore\n        /* \"#utility.yul\":12996:12998   */\n      0x20\n        /* \"@openzeppelin/contracts/token/ERC721/ERC721.sol\":11730:11783  require(_exists(tokenId), \"ERC721: invalid token ID\") */\n      0x04\n      dup3\n      add\n        /* \"#utility.yul\":12978:12999   */\n      mstore\n        /* \"#utility.yul\":13035:13037   */\n      0x18\n        /* \"#utility.yul\":13015:13033   */\n      0x24\n      dup3\n      add\n        /* \"#utility.yul\":13008:13038   */\n      mstore\n        /* \"#utility.yul\":13074:13100   */\n      0x4552433732313a20696e76616c696420746f6b656e2049440000000000000000\n        /* \"#utility.yul\":13054:13072   */\n      0x44\n      dup3\n      add\n        /* \"#utility.yul\":13047:13101   */\n      mstore\n        /* \"#utility.yul\":13118:13136   */\n      0x64\n      add\n        /* \"@openzeppelin/contracts/token/ERC721/ERC721.sol\":11730:11783  require(_exists(tokenId), \"ERC721: invalid token ID\") */\n      tag_152\n        /* \"#utility.yul\":12968:13142   */\n      jump\n        /* \"@openzeppelin/contracts/token/ERC721/ERC721.sol\":10959:11130  function _approve(address to, uint256 tokenId) internal virtual {... */\n    tag_163:\n        /* \"@openzeppelin/contracts/token/ERC721/ERC721.sol\":11033:11057  _tokenApprovals[tokenId] */\n      0x00\n      dup2\n      dup2\n      mstore\n        /* \"@openzeppelin/contracts/token/ERC721/ERC721.sol\":11033:11048  _tokenApprovals */\n      0x04\n        /* \"@openzeppelin/contracts/token/ERC721/ERC721.sol\":11033:11057  _tokenApprovals[tokenId] */\n      0x20\n      mstore\n      0x40\n      swap1\n      keccak256\n        /* \"@openzeppelin/contracts/token/ERC721/ERC721.sol\":11033:11062  _tokenApprovals[tokenId] = to */\n      dup1\n      sload\n      0xffffffffffffffffffffffff0000000000000000000000000000000000000000\n      and\n      0xffffffffffffffffffffffffffffffffffffffff\n      dup5\n      and\n      swap1\n      dup2\n      or\n      swap1\n      swap2\n      sstore\n        /* \"@openzeppelin/contracts/token/ERC721/ERC721.sol\":11033:11057  _tokenApprovals[tokenId] */\n      dup2\n      swap1\n        /* \"@openzeppelin/contracts/token/ERC721/ERC721.sol\":11086:11109  ERC721.ownerOf(tokenId) */\n      tag_294\n        /* \"@openzeppelin/contracts/token/ERC721/ERC721.sol\":11033:11057  _tokenApprovals[tokenId] */\n      dup3\n        /* \"@openzeppelin/contracts/token/ERC721/ERC721.sol\":11086:11100  ERC721.ownerOf */\n      tag_83\n        /* \"@openzeppelin/contracts/token/ERC721/ERC721.sol\":11086:11109  ERC721.ownerOf(tokenId) */\n      jump\t// in\n    tag_294:\n        /* \"@openzeppelin/contracts/token/ERC721/ERC721.sol\":11077:11123  Approval(ERC721.ownerOf(tokenId), to, tokenId) */\n      0xffffffffffffffffffffffffffffffffffffffff\n      and\n      0x8c5be1e5ebec7d5bd14f71427d1e84f3dd0314c0f7b2291e5b200ac8c7c3b925\n      mload(0x40)\n      mload(0x40)\n      dup1\n      swap2\n      sub\n      swap1\n      log4\n        /* \"@openzeppelin/contracts/token/ERC721/ERC721.sol\":10959:11130  function _approve(address to, uint256 tokenId) internal virtual {... */\n      pop\n      pop\n      jump\t// out\n        /* \"@openzeppelin/contracts/token/ERC721/ERC721.sol\":4612:4939  function transferFrom(... */\n    tag_175:\n        /* \"@openzeppelin/contracts/token/ERC721/ERC721.sol\":4801:4842  _isApprovedOrOwner(_msgSender(), tokenId) */\n      tag_296\n        /* \"@openzeppelin/contracts/utils/Context.sol\":719:729  msg.sender */\n      caller\n        /* \"@openzeppelin/contracts/token/ERC721/ERC721.sol\":4834:4841  tokenId */\n      dup3\n        /* \"@openzeppelin/contracts/token/ERC721/ERC721.sol\":4801:4819  _isApprovedOrOwner */\n      tag_257\n        /* \"@openzeppelin/contracts/token/ERC721/ERC721.sol\":4801:4842  _isApprovedOrOwner(_msgSender(), tokenId) */\n      jump\t// in\n    tag_296:\n        /* \"@openzeppelin/contracts/token/ERC721/ERC721.sol\":4793:4893  require(_isApprovedOrOwner(_msgSender(), tokenId), \"ERC721: caller is not token owner nor approved\") */\n      tag_298\n      jumpi\n      mload(0x40)\n      0x08c379a000000000000000000000000000000000000000000000000000000000\n      dup2\n      mstore\n        /* \"#utility.yul\":13751:13753   */\n      0x20\n        /* \"@openzeppelin/contracts/token/ERC721/ERC721.sol\":4793:4893  require(_isApprovedOrOwner(_msgSender(), tokenId), \"ERC721: caller is not token owner nor approved\") */\n      0x04\n      dup3\n      add\n        /* \"#utility.yul\":13733:13754   */\n      mstore\n        /* \"#utility.yul\":13790:13792   */\n      0x2e\n        /* \"#utility.yul\":13770:13788   */\n      0x24\n      dup3\n      add\n        /* \"#utility.yul\":13763:13793   */\n      mstore\n        /* \"#utility.yul\":13829:13863   */\n      0x4552433732313a2063616c6c6572206973206e6f7420746f6b656e206f776e65\n        /* \"#utility.yul\":13809:13827   */\n      0x44\n      dup3\n      add\n        /* \"#utility.yul\":13802:13864   */\n      mstore\n        /* \"#utility.yul\":13900:13916   */\n      0x72206e6f7220617070726f766564000000000000000000000000000000000000\n        /* \"#utility.yul\":13880:13898   */\n      0x64\n      dup3\n      add\n        /* \"#utility.yul\":13873:13917   */\n      mstore\n        /* \"#utility.yul\":13934:13953   */\n      0x84\n      add\n        /* \"@openzeppelin/contracts/token/ERC721/ERC721.sol\":4793:4893  require(_isApprovedOrOwner(_msgSender(), tokenId), \"ERC721: caller is not token owner nor approved\") */\n      tag_152\n        /* \"#utility.yul\":13723:13959   */\n      jump\n        /* \"@openzeppelin/contracts/token/ERC721/ERC721.sol\":4793:4893  require(_isApprovedOrOwner(_msgSender(), tokenId), \"ERC721: caller is not token owner nor approved\") */\n    tag_298:\n        /* \"@openzeppelin/contracts/token/ERC721/ERC721.sol\":4904:4932  _transfer(from, to, tokenId) */\n      tag_162\n        /* \"@openzeppelin/contracts/token/ERC721/ERC721.sol\":4914:4918  from */\n      dup4\n        /* \"@openzeppelin/contracts/token/ERC721/ERC721.sol\":4920:4922  to */\n      dup4\n        /* \"@openzeppelin/contracts/token/ERC721/ERC721.sol\":4924:4931  tokenId */\n      dup4\n        /* \"@openzeppelin/contracts/token/ERC721/ERC721.sol\":4904:4913  _transfer */\n      tag_301\n        /* \"@openzeppelin/contracts/token/ERC721/ERC721.sol\":4904:4932  _transfer(from, to, tokenId) */\n      jump\t// in\n        /* \"@openzeppelin/contracts/token/ERC721/ERC721.sol\":7908:8016  function _safeMint(address to, uint256 tokenId) internal virtual {... */\n    tag_197:\n        /* \"@openzeppelin/contracts/token/ERC721/ERC721.sol\":7983:8009  _safeMint(to, tokenId, \"\") */\n      tag_245\n        /* \"@openzeppelin/contracts/token/ERC721/ERC721.sol\":7993:7995  to */\n      dup3\n        /* \"@openzeppelin/contracts/token/ERC721/ERC721.sol\":7997:8004  tokenId */\n      dup3\n        /* \"@openzeppelin/contracts/token/ERC721/ERC721.sol\":7983:8009  _safeMint(to, tokenId, \"\") */\n      mload(0x40)\n      dup1\n      0x20\n      add\n      0x40\n      mstore\n      dup1\n      0x00\n      dup2\n      mstore\n      pop\n        /* \"@openzeppelin/contracts/token/ERC721/ERC721.sol\":7983:7992  _safeMint */\n      tag_304\n        /* \"@openzeppelin/contracts/token/ERC721/ERC721.sol\":7983:8009  _safeMint(to, tokenId, \"\") */\n      jump\t// in\n        /* \"@openzeppelin/contracts/token/ERC721/ERC721.sol\":9512:9918  function _burn(uint256 tokenId) internal virtual {... */\n    tag_212:\n        /* \"@openzeppelin/contracts/token/ERC721/ERC721.sol\":9571:9584  address owner */\n      0x00\n        /* \"@openzeppelin/contracts/token/ERC721/ERC721.sol\":9587:9610  ERC721.ownerOf(tokenId) */\n      tag_306\n        /* \"@openzeppelin/contracts/token/ERC721/ERC721.sol\":9602:9609  tokenId */\n      dup3\n        /* \"@openzeppelin/contracts/token/ERC721/ERC721.sol\":9587:9601  ERC721.ownerOf */\n      tag_83\n        /* \"@openzeppelin/contracts/token/ERC721/ERC721.sol\":9587:9610  ERC721.ownerOf(tokenId) */\n      jump\t// in\n    tag_306:\n        /* \"@openzeppelin/contracts/token/ERC721/ERC721.sol\":9571:9610  address owner = ERC721.ownerOf(tokenId) */\n      swap1\n      pop\n        /* \"@openzeppelin/contracts/token/ERC721/ERC721.sol\":9707:9736  _approve(address(0), tokenId) */\n      tag_309\n        /* \"@openzeppelin/contracts/token/ERC721/ERC721.sol\":9724:9725  0 */\n      0x00\n        /* \"@openzeppelin/contracts/token/ERC721/ERC721.sol\":9728:9735  tokenId */\n      dup4\n        /* \"@openzeppelin/contracts/token/ERC721/ERC721.sol\":9707:9715  _approve */\n      tag_163\n        /* \"@openzeppelin/contracts/token/ERC721/ERC721.sol\":9707:9736  _approve(address(0), tokenId) */\n      jump\t// in\n    tag_309:\n        /* \"@openzeppelin/contracts/token/ERC721/ERC721.sol\":9747:9763  _balances[owner] */\n      0xffffffffffffffffffffffffffffffffffffffff\n      dup2\n      and\n      0x00\n      swap1\n      dup2\n      mstore\n        /* \"@openzeppelin/contracts/token/ERC721/ERC721.sol\":9747:9756  _balances */\n      0x03\n        /* \"@openzeppelin/contracts/token/ERC721/ERC721.sol\":9747:9763  _balances[owner] */\n      0x20\n      mstore\n      0x40\n      dup2\n      keccak256\n        /* \"@openzeppelin/contracts/token/ERC721/ERC721.sol\":9747:9768  _balances[owner] -= 1 */\n      dup1\n      sload\n        /* \"@openzeppelin/contracts/token/ERC721/ERC721.sol\":9767:9768  1 */\n      0x01\n      swap3\n        /* \"@openzeppelin/contracts/token/ERC721/ERC721.sol\":9747:9763  _balances[owner] */\n      swap1\n        /* \"@openzeppelin/contracts/token/ERC721/ERC721.sol\":9747:9768  _balances[owner] -= 1 */\n      tag_310\n      swap1\n        /* \"@openzeppelin/contracts/token/ERC721/ERC721.sol\":9767:9768  1 */\n      dup5\n      swap1\n        /* \"@openzeppelin/contracts/token/ERC721/ERC721.sol\":9747:9768  _balances[owner] -= 1 */\n      tag_311\n      jump\t// in\n    tag_310:\n      swap1\n      swap2\n      sstore\n      pop\n      pop\n        /* \"@openzeppelin/contracts/token/ERC721/ERC721.sol\":9785:9801  _owners[tokenId] */\n      0x00\n      dup3\n      dup2\n      mstore\n        /* \"@openzeppelin/contracts/token/ERC721/ERC721.sol\":9785:9792  _owners */\n      0x02\n        /* \"@openzeppelin/contracts/token/ERC721/ERC721.sol\":9785:9801  _owners[tokenId] */\n      0x20\n      mstore\n      0x40\n      dup1\n      dup3\n      keccak256\n        /* \"@openzeppelin/contracts/token/ERC721/ERC721.sol\":9778:9801  delete _owners[tokenId] */\n      dup1\n      sload\n      0xffffffffffffffffffffffff0000000000000000000000000000000000000000\n      and\n      swap1\n      sstore\n        /* \"@openzeppelin/contracts/token/ERC721/ERC721.sol\":9817:9853  Transfer(owner, address(0), tokenId) */\n      mload\n        /* \"@openzeppelin/contracts/token/ERC721/ERC721.sol\":9793:9800  tokenId */\n      dup4\n      swap2\n        /* \"@openzeppelin/contracts/token/ERC721/ERC721.sol\":9785:9801  _owners[tokenId] */\n      swap1\n        /* \"@openzeppelin/contracts/token/ERC721/ERC721.sol\":9778:9801  delete _owners[tokenId] */\n      0xffffffffffffffffffffffffffffffffffffffff\n        /* \"@openzeppelin/contracts/token/ERC721/ERC721.sol\":9817:9853  Transfer(owner, address(0), tokenId) */\n      dup5\n      and\n      swap1\n      0xddf252ad1be2c89b69c2b068fc378daa952ba7f163c4a11628f55a4df523b3ef\n      swap1\n        /* \"@openzeppelin/contracts/token/ERC721/ERC721.sol\":9785:9801  _owners[tokenId] */\n      dup4\n      swap1\n        /* \"@openzeppelin/contracts/token/ERC721/ERC721.sol\":9817:9853  Transfer(owner, address(0), tokenId) */\n      log4\n        /* \"@openzeppelin/contracts/token/ERC721/ERC721.sol\":4169:4322  function setApprovalForAll(address operator, bool approved) public virtual override {... */\n      pop\n      pop\n      jump\t// out\n        /* \"@openzeppelin/contracts/token/ERC721/ERC721.sol\":11266:11573  function _setApprovalForAll(... */\n    tag_247:\n        /* \"@openzeppelin/contracts/token/ERC721/ERC721.sol\":11416:11424  operator */\n      dup2\n        /* \"@openzeppelin/contracts/token/ERC721/ERC721.sol\":11407:11424  owner != operator */\n      0xffffffffffffffffffffffffffffffffffffffff\n      and\n        /* \"@openzeppelin/contracts/token/ERC721/ERC721.sol\":11407:11412  owner */\n      dup4\n        /* \"@openzeppelin/contracts/token/ERC721/ERC721.sol\":11407:11424  owner != operator */\n      0xffffffffffffffffffffffffffffffffffffffff\n      and\n      eq\n      iszero\n        /* \"@openzeppelin/contracts/token/ERC721/ERC721.sol\":11399:11454  require(owner != operator, \"ERC721: approve to caller\") */\n      tag_315\n      jumpi\n      mload(0x40)\n      0x08c379a000000000000000000000000000000000000000000000000000000000\n      dup2\n      mstore\n        /* \"#utility.yul\":10726:10728   */\n      0x20\n        /* \"@openzeppelin/contracts/token/ERC721/ERC721.sol\":11399:11454  require(owner != operator, \"ERC721: approve to caller\") */\n      0x04\n      dup3\n      add\n        /* \"#utility.yul\":10708:10729   */\n      mstore\n        /* \"#utility.yul\":10765:10767   */\n      0x19\n        /* \"#utility.yul\":10745:10763   */\n      0x24\n      dup3\n      add\n        /* \"#utility.yul\":10738:10768   */\n      mstore\n        /* \"#utility.yul\":10804:10831   */\n      0x4552433732313a20617070726f766520746f2063616c6c657200000000000000\n        /* \"#utility.yul\":10784:10802   */\n      0x44\n      dup3\n      add\n        /* \"#utility.yul\":10777:10832   */\n      mstore\n        /* \"#utility.yul\":10849:10867   */\n      0x64\n      add\n        /* \"@openzeppelin/contracts/token/ERC721/ERC721.sol\":11399:11454  require(owner != operator, \"ERC721: approve to caller\") */\n      tag_152\n        /* \"#utility.yul\":10698:10873   */\n      jump\n        /* \"@openzeppelin/contracts/token/ERC721/ERC721.sol\":11399:11454  require(owner != operator, \"ERC721: approve to caller\") */\n    tag_315:\n        /* \"@openzeppelin/contracts/token/ERC721/ERC721.sol\":11464:11489  _operatorApprovals[owner] */\n      0xffffffffffffffffffffffffffffffffffffffff\n      dup4\n      dup2\n      and\n      0x00\n      dup2\n      dup2\n      mstore\n        /* \"@openzeppelin/contracts/token/ERC721/ERC721.sol\":11464:11482  _operatorApprovals */\n      0x05\n        /* \"@openzeppelin/contracts/token/ERC721/ERC721.sol\":11464:11489  _operatorApprovals[owner] */\n      0x20\n      swap1\n      dup2\n      mstore\n      0x40\n      dup1\n      dup4\n      keccak256\n        /* \"@openzeppelin/contracts/token/ERC721/ERC721.sol\":11464:11499  _operatorApprovals[owner][operator] */\n      swap5\n      dup8\n      and\n      dup1\n      dup5\n      mstore\n      swap5\n      dup3\n      mstore\n      swap2\n      dup3\n      swap1\n      keccak256\n        /* \"@openzeppelin/contracts/token/ERC721/ERC721.sol\":11464:11510  _operatorApprovals[owner][operator] = approved */\n      dup1\n      sload\n      0xffffffffffffffffffffffffffffffffffffffffffffffffffffffffffffff00\n      and\n      dup7\n      iszero\n      iszero\n      swap1\n      dup2\n      or\n      swap1\n      swap2\n      sstore\n        /* \"@openzeppelin/contracts/token/ERC721/ERC721.sol\":11525:11566  ApprovalForAll(owner, operator, approved) */\n      swap2\n      mload\n        /* \"#utility.yul\":6600:6641   */\n      swap2\n      dup3\n      mstore\n        /* \"@openzeppelin/contracts/token/ERC721/ERC721.sol\":11525:11566  ApprovalForAll(owner, operator, approved) */\n      0x17307eab39ab6107e8899845ad3d59bd9653f200f220920489ca2b5937696c31\n      swap2\n        /* \"#utility.yul\":6573:6591   */\n      add\n        /* \"@openzeppelin/contracts/token/ERC721/ERC721.sol\":11525:11566  ApprovalForAll(owner, operator, approved) */\n      mload(0x40)\n      dup1\n      swap2\n      sub\n      swap1\n      log3\n        /* \"@openzeppelin/contracts/token/ERC721/ERC721.sol\":11266:11573  function _setApprovalForAll(... */\n      pop\n      pop\n      pop\n      jump\t// out\n        /* \"@openzeppelin/contracts/token/ERC721/ERC721.sol\":7317:7578  function _isApprovedOrOwner(address spender, uint256 tokenId) internal view virtual returns (bool) {... */\n    tag_257:\n        /* \"@openzeppelin/contracts/token/ERC721/ERC721.sol\":7410:7414  bool */\n      0x00\n        /* \"@openzeppelin/contracts/token/ERC721/ERC721.sol\":7426:7439  address owner */\n      dup1\n        /* \"@openzeppelin/contracts/token/ERC721/ERC721.sol\":7442:7465  ERC721.ownerOf(tokenId) */\n      tag_320\n        /* \"@openzeppelin/contracts/token/ERC721/ERC721.sol\":7457:7464  tokenId */\n      dup4\n        /* \"@openzeppelin/contracts/token/ERC721/ERC721.sol\":7442:7456  ERC721.ownerOf */\n      tag_83\n        /* \"@openzeppelin/contracts/token/ERC721/ERC721.sol\":7442:7465  ERC721.ownerOf(tokenId) */\n      jump\t// in\n    tag_320:\n        /* \"@openzeppelin/contracts/token/ERC721/ERC721.sol\":7426:7465  address owner = ERC721.ownerOf(tokenId) */\n      swap1\n      pop\n        /* \"@openzeppelin/contracts/token/ERC721/ERC721.sol\":7494:7499  owner */\n      dup1\n        /* \"@openzeppelin/contracts/token/ERC721/ERC721.sol\":7483:7499  spender == owner */\n      0xffffffffffffffffffffffffffffffffffffffff\n      and\n        /* \"@openzeppelin/contracts/token/ERC721/ERC721.sol\":7483:7490  spender */\n      dup5\n        /* \"@openzeppelin/contracts/token/ERC721/ERC721.sol\":7483:7499  spender == owner */\n      0xffffffffffffffffffffffffffffffffffffffff\n      and\n      eq\n        /* \"@openzeppelin/contracts/token/ERC721/ERC721.sol\":7483:7535  spender == owner || isApprovedForAll(owner, spender) */\n      dup1\n      tag_322\n      jumpi\n      pop\n        /* \"@openzeppelin/contracts/token/ERC721/ERC721.sol\":4508:4533  _operatorApprovals[owner] */\n      0xffffffffffffffffffffffffffffffffffffffff\n      dup1\n      dup3\n      and\n        /* \"@openzeppelin/contracts/token/ERC721/ERC721.sol\":4485:4489  bool */\n      0x00\n        /* \"@openzeppelin/contracts/token/ERC721/ERC721.sol\":4508:4533  _operatorApprovals[owner] */\n      swap1\n      dup2\n      mstore\n        /* \"@openzeppelin/contracts/token/ERC721/ERC721.sol\":4508:4526  _operatorApprovals */\n      0x05\n        /* \"@openzeppelin/contracts/token/ERC721/ERC721.sol\":4508:4533  _operatorApprovals[owner] */\n      0x20\n      swap1\n      dup2\n      mstore\n      0x40\n      dup1\n      dup4\n      keccak256\n        /* \"@openzeppelin/contracts/token/ERC721/ERC721.sol\":4508:4543  _operatorApprovals[owner][operator] */\n      swap4\n      dup9\n      and\n      dup4\n      mstore\n      swap3\n      swap1\n      mstore\n      keccak256\n      sload\n      0xff\n      and\n        /* \"@openzeppelin/contracts/token/ERC721/ERC721.sol\":7503:7535  isApprovedForAll(owner, spender) */\n    tag_322:\n        /* \"@openzeppelin/contracts/token/ERC721/ERC721.sol\":7483:7570  spender == owner || isApprovedForAll(owner, spender) || getApproved(tokenId) == spender */\n      dup1\n      tag_323\n      jumpi\n      pop\n        /* \"@openzeppelin/contracts/token/ERC721/ERC721.sol\":7563:7570  spender */\n      dup4\n        /* \"@openzeppelin/contracts/token/ERC721/ERC721.sol\":7539:7570  getApproved(tokenId) == spender */\n      0xffffffffffffffffffffffffffffffffffffffff\n      and\n        /* \"@openzeppelin/contracts/token/ERC721/ERC721.sol\":7539:7559  getApproved(tokenId) */\n      tag_324\n        /* \"@openzeppelin/contracts/token/ERC721/ERC721.sol\":7551:7558  tokenId */\n      dup5\n        /* \"@openzeppelin/contracts/token/ERC721/ERC721.sol\":7539:7550  getApproved */\n      tag_49\n        /* \"@openzeppelin/contracts/token/ERC721/ERC721.sol\":7539:7559  getApproved(tokenId) */\n      jump\t// in\n    tag_324:\n        /* \"@openzeppelin/contracts/token/ERC721/ERC721.sol\":7539:7570  getApproved(tokenId) == spender */\n      0xffffffffffffffffffffffffffffffffffffffff\n      and\n      eq\n        /* \"@openzeppelin/contracts/token/ERC721/ERC721.sol\":7483:7570  spender == owner || isApprovedForAll(owner, spender) || getApproved(tokenId) == spender */\n    tag_323:\n        /* \"@openzeppelin/contracts/token/ERC721/ERC721.sol\":7475:7571  return (spender == owner || isApprovedForAll(owner, spender) || getApproved(tokenId) == spender) */\n      swap5\n        /* \"@openzeppelin/contracts/token/ERC721/ERC721.sol\":7317:7578  function _isApprovedOrOwner(address spender, uint256 tokenId) internal view virtual returns (bool) {... */\n      swap4\n      pop\n      pop\n      pop\n      pop\n      jump\t// out\n        /* \"@openzeppelin/contracts/token/ERC721/ERC721.sol\":6426:6731  function _safeTransfer(... */\n    tag_262:\n        /* \"@openzeppelin/contracts/token/ERC721/ERC721.sol\":6576:6604  _transfer(from, to, tokenId) */\n      tag_326\n        /* \"@openzeppelin/contracts/token/ERC721/ERC721.sol\":6586:6590  from */\n      dup5\n        /* \"@openzeppelin/contracts/token/ERC721/ERC721.sol\":6592:6594  to */\n      dup5\n        /* \"@openzeppelin/contracts/token/ERC721/ERC721.sol\":6596:6603  tokenId */\n      dup5\n        /* \"@openzeppelin/contracts/token/ERC721/ERC721.sol\":6576:6585  _transfer */\n      tag_301\n        /* \"@openzeppelin/contracts/token/ERC721/ERC721.sol\":6576:6604  _transfer(from, to, tokenId) */\n      jump\t// in\n    tag_326:\n        /* \"@openzeppelin/contracts/token/ERC721/ERC721.sol\":6622:6669  _checkOnERC721Received(from, to, tokenId, data) */\n      tag_327\n        /* \"@openzeppelin/contracts/token/ERC721/ERC721.sol\":6645:6649  from */\n      dup5\n        /* \"@openzeppelin/contracts/token/ERC721/ERC721.sol\":6651:6653  to */\n      dup5\n        /* \"@openzeppelin/contracts/token/ERC721/ERC721.sol\":6655:6662  tokenId */\n      dup5\n        /* \"@openzeppelin/contracts/token/ERC721/ERC721.sol\":6664:6668  data */\n      dup5\n        /* \"@openzeppelin/contracts/token/ERC721/ERC721.sol\":6622:6644  _checkOnERC721Received */\n      tag_328\n        /* \"@openzeppelin/contracts/token/ERC721/ERC721.sol\":6622:6669  _checkOnERC721Received(from, to, tokenId, data) */\n      jump\t// in\n    tag_327:\n        /* \"@openzeppelin/contracts/token/ERC721/ERC721.sol\":6614:6724  require(_checkOnERC721Received(from, to, tokenId, data), \"ERC721: transfer to non ERC721Receiver implementer\") */\n      tag_261\n      jumpi\n      mload(0x40)\n      0x08c379a000000000000000000000000000000000000000000000000000000000\n      dup2\n      mstore\n        /* \"#utility.yul\":8732:8734   */\n      0x20\n        /* \"@openzeppelin/contracts/token/ERC721/ERC721.sol\":6614:6724  require(_checkOnERC721Received(from, to, tokenId, data), \"ERC721: transfer to non ERC721Receiver implementer\") */\n      0x04\n      dup3\n      add\n        /* \"#utility.yul\":8714:8735   */\n      mstore\n        /* \"#utility.yul\":8771:8773   */\n      0x32\n        /* \"#utility.yul\":8751:8769   */\n      0x24\n      dup3\n      add\n        /* \"#utility.yul\":8744:8774   */\n      mstore\n        /* \"#utility.yul\":8810:8844   */\n      0x4552433732313a207472616e7366657220746f206e6f6e204552433732315265\n        /* \"#utility.yul\":8790:8808   */\n      0x44\n      dup3\n      add\n        /* \"#utility.yul\":8783:8845   */\n      mstore\n        /* \"#utility.yul\":8881:8901   */\n      0x63656976657220696d706c656d656e7465720000000000000000000000000000\n        /* \"#utility.yul\":8861:8879   */\n      0x64\n      dup3\n      add\n        /* \"#utility.yul\":8854:8902   */\n      mstore\n        /* \"#utility.yul\":8919:8938   */\n      0x84\n      add\n        /* \"@openzeppelin/contracts/token/ERC721/ERC721.sol\":6614:6724  require(_checkOnERC721Received(from, to, tokenId, data), \"ERC721: transfer to non ERC721Receiver implementer\") */\n      tag_152\n        /* \"#utility.yul\":8704:8944   */\n      jump\n        /* \"@openzeppelin/contracts/utils/Strings.sol\":392:1095  function toString(uint256 value) internal pure returns (string memory) {... */\n    tag_271:\n        /* \"@openzeppelin/contracts/utils/Strings.sol\":448:461  string memory */\n      0x60\n        /* \"@openzeppelin/contracts/utils/Strings.sol\":665:675  value == 0 */\n      dup2\n        /* \"@openzeppelin/contracts/utils/Strings.sol\":661:712  if (value == 0) {... */\n      tag_334\n      jumpi\n      pop\n      pop\n        /* \"@openzeppelin/contracts/utils/Strings.sol\":691:701  return \"0\" */\n      0x40\n      dup1\n      mload\n      dup1\n      dup3\n      add\n      swap1\n      swap2\n      mstore\n      0x01\n      dup2\n      mstore\n      0x3000000000000000000000000000000000000000000000000000000000000000\n      0x20\n      dup3\n      add\n      mstore\n      swap1\n        /* \"@openzeppelin/contracts/utils/Strings.sol\":392:1095  function toString(uint256 value) internal pure returns (string memory) {... */\n      jump\t// out\n        /* \"@openzeppelin/contracts/utils/Strings.sol\":661:712  if (value == 0) {... */\n    tag_334:\n        /* \"@openzeppelin/contracts/utils/Strings.sol\":736:741  value */\n      dup2\n        /* \"@openzeppelin/contracts/utils/Strings.sol\":721:733  uint256 temp */\n      0x00\n        /* \"@openzeppelin/contracts/utils/Strings.sol\":775:850  while (temp != 0) {... */\n    tag_335:\n        /* \"@openzeppelin/contracts/utils/Strings.sol\":782:791  temp != 0 */\n      dup2\n      iszero\n        /* \"@openzeppelin/contracts/utils/Strings.sol\":775:850  while (temp != 0) {... */\n      tag_336\n      jumpi\n        /* \"@openzeppelin/contracts/utils/Strings.sol\":807:815  digits++ */\n      dup1\n      tag_337\n      dup2\n      tag_190\n      jump\t// in\n    tag_337:\n      swap2\n      pop\n        /* \"@openzeppelin/contracts/utils/Strings.sol\":829:839  temp /= 10 */\n      tag_338\n      swap1\n      pop\n        /* \"@openzeppelin/contracts/utils/Strings.sol\":837:839  10 */\n      0x0a\n        /* \"@openzeppelin/contracts/utils/Strings.sol\":829:839  temp /= 10 */\n      dup4\n      tag_339\n      jump\t// in\n    tag_338:\n      swap2\n      pop\n        /* \"@openzeppelin/contracts/utils/Strings.sol\":775:850  while (temp != 0) {... */\n      jump(tag_335)\n    tag_336:\n        /* \"@openzeppelin/contracts/utils/Strings.sol\":859:878  bytes memory buffer */\n      0x00\n        /* \"@openzeppelin/contracts/utils/Strings.sol\":891:897  digits */\n      dup2\n        /* \"@openzeppelin/contracts/utils/Strings.sol\":881:898  new bytes(digits) */\n      0xffffffffffffffff\n      dup2\n      gt\n      iszero\n      tag_340\n      jumpi\n      mstore(0x00, 0x4e487b7100000000000000000000000000000000000000000000000000000000)\n      mstore(0x04, 0x41)\n      revert(0x00, 0x24)\n    tag_340:\n      mload(0x40)\n      swap1\n      dup1\n      dup3\n      mstore\n      dup1\n      0x1f\n      add\n      not(0x1f)\n      and\n      0x20\n      add\n      dup3\n      add\n      0x40\n      mstore\n      dup1\n      iszero\n      tag_341\n      jumpi\n      0x20\n      dup3\n      add\n      dup2\n      dup1\n      calldatasize\n      dup4\n      calldatacopy\n      add\n      swap1\n      pop\n    tag_341:\n      pop\n        /* \"@openzeppelin/contracts/utils/Strings.sol\":859:898  bytes memory buffer = new bytes(digits) */\n      swap1\n      pop\n        /* \"@openzeppelin/contracts/utils/Strings.sol\":908:1058  while (value != 0) {... */\n    tag_342:\n        /* \"@openzeppelin/contracts/utils/Strings.sol\":915:925  value != 0 */\n      dup5\n      iszero\n        /* \"@openzeppelin/contracts/utils/Strings.sol\":908:1058  while (value != 0) {... */\n      tag_323\n      jumpi\n        /* \"@openzeppelin/contracts/utils/Strings.sol\":941:952  digits -= 1 */\n      tag_344\n        /* \"@openzeppelin/contracts/utils/Strings.sol\":951:952  1 */\n      0x01\n        /* \"@openzeppelin/contracts/utils/Strings.sol\":941:952  digits -= 1 */\n      dup4\n      tag_311\n      jump\t// in\n    tag_344:\n      swap2\n      pop\n        /* \"@openzeppelin/contracts/utils/Strings.sol\":1009:1019  value % 10 */\n      tag_345\n        /* \"@openzeppelin/contracts/utils/Strings.sol\":1017:1019  10 */\n      0x0a\n        /* \"@openzeppelin/contracts/utils/Strings.sol\":1009:1014  value */\n      dup7\n        /* \"@openzeppelin/contracts/utils/Strings.sol\":1009:1019  value % 10 */\n      tag_346\n      jump\t// in\n    tag_345:\n        /* \"@openzeppelin/contracts/utils/Strings.sol\":996:1020  48 + uint256(value % 10) */\n      tag_347\n      swap1\n        /* \"@openzeppelin/contracts/utils/Strings.sol\":996:998  48 */\n      0x30\n        /* \"@openzeppelin/contracts/utils/Strings.sol\":996:1020  48 + uint256(value % 10) */\n      tag_348\n      jump\t// in\n    tag_347:\n        /* \"@openzeppelin/contracts/utils/Strings.sol\":983:1022  bytes1(uint8(48 + uint256(value % 10))) */\n      0xf8\n      shl\n        /* \"@openzeppelin/contracts/utils/Strings.sol\":966:972  buffer */\n      dup2\n        /* \"@openzeppelin/contracts/utils/Strings.sol\":973:979  digits */\n      dup4\n        /* \"@openzeppelin/contracts/utils/Strings.sol\":966:980  buffer[digits] */\n      dup2\n      mload\n      dup2\n      lt\n      tag_349\n      jumpi\n      mstore(0x00, 0x4e487b7100000000000000000000000000000000000000000000000000000000)\n      mstore(0x04, 0x32)\n      revert(0x00, 0x24)\n    tag_349:\n      0x20\n      add\n      add\n        /* \"@openzeppelin/contracts/utils/Strings.sol\":966:1022  buffer[digits] = bytes1(uint8(48 + uint256(value % 10))) */\n      swap1\n      not(0xffffffffffffffffffffffffffffffffffffffffffffffffffffffffffffff)\n      and\n      swap1\n      dup2\n      0x00\n      byte\n      swap1\n      mstore8\n      pop\n        /* \"@openzeppelin/contracts/utils/Strings.sol\":1036:1047  value /= 10 */\n      tag_350\n        /* \"@openzeppelin/contracts/utils/Strings.sol\":1045:1047  10 */\n      0x0a\n        /* \"@openzeppelin/contracts/utils/Strings.sol\":1036:1047  value /= 10 */\n      dup7\n      tag_339\n      jump\t// in\n    tag_350:\n      swap5\n      pop\n        /* \"@openzeppelin/contracts/utils/Strings.sol\":908:1058  while (value != 0) {... */\n      jump(tag_342)\n        /* \"@openzeppelin/contracts/token/ERC721/ERC721.sol\":10242:10847  function _transfer(... */\n    tag_301:\n        /* \"@openzeppelin/contracts/token/ERC721/ERC721.sol\":10396:10400  from */\n      dup3\n        /* \"@openzeppelin/contracts/token/ERC721/ERC721.sol\":10369:10400  ERC721.ownerOf(tokenId) == from */\n      0xffffffffffffffffffffffffffffffffffffffff\n      and\n        /* \"@openzeppelin/contracts/token/ERC721/ERC721.sol\":10369:10392  ERC721.ownerOf(tokenId) */\n      tag_353\n        /* \"@openzeppelin/contracts/token/ERC721/ERC721.sol\":10384:10391  tokenId */\n      dup3\n        /* \"@openzeppelin/contracts/token/ERC721/ERC721.sol\":10369:10383  ERC721.ownerOf */\n      tag_83\n        /* \"@openzeppelin/contracts/token/ERC721/ERC721.sol\":10369:10392  ERC721.ownerOf(tokenId) */\n      jump\t// in\n    tag_353:\n        /* \"@openzeppelin/contracts/token/ERC721/ERC721.sol\":10369:10400  ERC721.ownerOf(tokenId) == from */\n      0xffffffffffffffffffffffffffffffffffffffff\n      and\n      eq\n        /* \"@openzeppelin/contracts/token/ERC721/ERC721.sol\":10361:10442  require(ERC721.ownerOf(tokenId) == from, \"ERC721: transfer from incorrect owner\") */\n      tag_354\n      jumpi\n      mload(0x40)\n      0x08c379a000000000000000000000000000000000000000000000000000000000\n      dup2\n      mstore\n        /* \"#utility.yul\":9558:9560   */\n      0x20\n        /* \"@openzeppelin/contracts/token/ERC721/ERC721.sol\":10361:10442  require(ERC721.ownerOf(tokenId) == from, \"ERC721: transfer from incorrect owner\") */\n      0x04\n      dup3\n      add\n        /* \"#utility.yul\":9540:9561   */\n      mstore\n        /* \"#utility.yul\":9597:9599   */\n      0x25\n        /* \"#utility.yul\":9577:9595   */\n      0x24\n      dup3\n      add\n        /* \"#utility.yul\":9570:9600   */\n      mstore\n        /* \"#utility.yul\":9636:9670   */\n      0x4552433732313a207472616e736665722066726f6d20696e636f727265637420\n        /* \"#utility.yul\":9616:9634   */\n      0x44\n      dup3\n      add\n        /* \"#utility.yul\":9609:9671   */\n      mstore\n        /* \"#utility.yul\":9707:9714   */\n      0x6f776e6572000000000000000000000000000000000000000000000000000000\n        /* \"#utility.yul\":9687:9705   */\n      0x64\n      dup3\n      add\n        /* \"#utility.yul\":9680:9715   */\n      mstore\n        /* \"#utility.yul\":9732:9751   */\n      0x84\n      add\n        /* \"@openzeppelin/contracts/token/ERC721/ERC721.sol\":10361:10442  require(ERC721.ownerOf(tokenId) == from, \"ERC721: transfer from incorrect owner\") */\n      tag_152\n        /* \"#utility.yul\":9530:9757   */\n      jump\n        /* \"@openzeppelin/contracts/token/ERC721/ERC721.sol\":10361:10442  require(ERC721.ownerOf(tokenId) == from, \"ERC721: transfer from incorrect owner\") */\n    tag_354:\n        /* \"@openzeppelin/contracts/token/ERC721/ERC721.sol\":10460:10476  to != address(0) */\n      0xffffffffffffffffffffffffffffffffffffffff\n      dup3\n      and\n        /* \"@openzeppelin/contracts/token/ERC721/ERC721.sol\":10452:10517  require(to != address(0), \"ERC721: transfer to the zero address\") */\n      tag_357\n      jumpi\n      mload(0x40)\n      0x08c379a000000000000000000000000000000000000000000000000000000000\n      dup2\n      mstore\n        /* \"#utility.yul\":10321:10323   */\n      0x20\n        /* \"@openzeppelin/contracts/token/ERC721/ERC721.sol\":10452:10517  require(to != address(0), \"ERC721: transfer to the zero address\") */\n      0x04\n      dup3\n      add\n        /* \"#utility.yul\":10303:10324   */\n      mstore\n        /* \"#utility.yul\":10360:10362   */\n      0x24\n        /* \"#utility.yul\":10340:10358   */\n      dup1\n      dup3\n      add\n        /* \"#utility.yul\":10333:10363   */\n      mstore\n        /* \"#utility.yul\":10399:10433   */\n      0x4552433732313a207472616e7366657220746f20746865207a65726f20616464\n        /* \"#utility.yul\":10379:10397   */\n      0x44\n      dup3\n      add\n        /* \"#utility.yul\":10372:10434   */\n      mstore\n        /* \"#utility.yul\":10470:10476   */\n      0x7265737300000000000000000000000000000000000000000000000000000000\n        /* \"#utility.yul\":10450:10468   */\n      0x64\n      dup3\n      add\n        /* \"#utility.yul\":10443:10477   */\n      mstore\n        /* \"#utility.yul\":10494:10513   */\n      0x84\n      add\n        /* \"@openzeppelin/contracts/token/ERC721/ERC721.sol\":10452:10517  require(to != address(0), \"ERC721: transfer to the zero address\") */\n      tag_152\n        /* \"#utility.yul\":10293:10519   */\n      jump\n        /* \"@openzeppelin/contracts/token/ERC721/ERC721.sol\":10452:10517  require(to != address(0), \"ERC721: transfer to the zero address\") */\n    tag_357:\n        /* \"@openzeppelin/contracts/token/ERC721/ERC721.sol\":10629:10658  _approve(address(0), tokenId) */\n      tag_361\n        /* \"@openzeppelin/contracts/token/ERC721/ERC721.sol\":10646:10647  0 */\n      0x00\n        /* \"@openzeppelin/contracts/token/ERC721/ERC721.sol\":10650:10657  tokenId */\n      dup3\n        /* \"@openzeppelin/contracts/token/ERC721/ERC721.sol\":10629:10637  _approve */\n      tag_163\n        /* \"@openzeppelin/contracts/token/ERC721/ERC721.sol\":10629:10658  _approve(address(0), tokenId) */\n      jump\t// in\n    tag_361:\n        /* \"@openzeppelin/contracts/token/ERC721/ERC721.sol\":10669:10684  _balances[from] */\n      0xffffffffffffffffffffffffffffffffffffffff\n      dup4\n      and\n      0x00\n      swap1\n      dup2\n      mstore\n        /* \"@openzeppelin/contracts/token/ERC721/ERC721.sol\":10669:10678  _balances */\n      0x03\n        /* \"@openzeppelin/contracts/token/ERC721/ERC721.sol\":10669:10684  _balances[from] */\n      0x20\n      mstore\n      0x40\n      dup2\n      keccak256\n        /* \"@openzeppelin/contracts/token/ERC721/ERC721.sol\":10669:10689  _balances[from] -= 1 */\n      dup1\n      sload\n        /* \"@openzeppelin/contracts/token/ERC721/ERC721.sol\":10688:10689  1 */\n      0x01\n      swap3\n        /* \"@openzeppelin/contracts/token/ERC721/ERC721.sol\":10669:10684  _balances[from] */\n      swap1\n        /* \"@openzeppelin/contracts/token/ERC721/ERC721.sol\":10669:10689  _balances[from] -= 1 */\n      tag_362\n      swap1\n        /* \"@openzeppelin/contracts/token/ERC721/ERC721.sol\":10688:10689  1 */\n      dup5\n      swap1\n        /* \"@openzeppelin/contracts/token/ERC721/ERC721.sol\":10669:10689  _balances[from] -= 1 */\n      tag_311\n      jump\t// in\n    tag_362:\n      swap1\n      swap2\n      sstore\n      pop\n      pop\n        /* \"@openzeppelin/contracts/token/ERC721/ERC721.sol\":10699:10712  _balances[to] */\n      0xffffffffffffffffffffffffffffffffffffffff\n      dup3\n      and\n      0x00\n      swap1\n      dup2\n      mstore\n        /* \"@openzeppelin/contracts/token/ERC721/ERC721.sol\":10699:10708  _balances */\n      0x03\n        /* \"@openzeppelin/contracts/token/ERC721/ERC721.sol\":10699:10712  _balances[to] */\n      0x20\n      mstore\n      0x40\n      dup2\n      keccak256\n        /* \"@openzeppelin/contracts/token/ERC721/ERC721.sol\":10699:10717  _balances[to] += 1 */\n      dup1\n      sload\n        /* \"@openzeppelin/contracts/token/ERC721/ERC721.sol\":10716:10717  1 */\n      0x01\n      swap3\n        /* \"@openzeppelin/contracts/token/ERC721/ERC721.sol\":10699:10712  _balances[to] */\n      swap1\n        /* \"@openzeppelin/contracts/token/ERC721/ERC721.sol\":10699:10717  _balances[to] += 1 */\n      tag_363\n      swap1\n        /* \"@openzeppelin/contracts/token/ERC721/ERC721.sol\":10716:10717  1 */\n      dup5\n      swap1\n        /* \"@openzeppelin/contracts/token/ERC721/ERC721.sol\":10699:10717  _balances[to] += 1 */\n      tag_348\n      jump\t// in\n    tag_363:\n      swap1\n      swap2\n      sstore\n      pop\n      pop\n        /* \"@openzeppelin/contracts/token/ERC721/ERC721.sol\":10727:10743  _owners[tokenId] */\n      0x00\n      dup2\n      dup2\n      mstore\n        /* \"@openzeppelin/contracts/token/ERC721/ERC721.sol\":10727:10734  _owners */\n      0x02\n        /* \"@openzeppelin/contracts/token/ERC721/ERC721.sol\":10727:10743  _owners[tokenId] */\n      0x20\n      mstore\n      0x40\n      dup1\n      dup3\n      keccak256\n        /* \"@openzeppelin/contracts/token/ERC721/ERC721.sol\":10727:10748  _owners[tokenId] = to */\n      dup1\n      sload\n      0xffffffffffffffffffffffff0000000000000000000000000000000000000000\n      and\n      0xffffffffffffffffffffffffffffffffffffffff\n      dup7\n      dup2\n      and\n      swap2\n      dup3\n      or\n      swap1\n      swap3\n      sstore\n        /* \"@openzeppelin/contracts/token/ERC721/ERC721.sol\":10764:10791  Transfer(from, to, tokenId) */\n      swap2\n      mload\n        /* \"@openzeppelin/contracts/token/ERC721/ERC721.sol\":10727:10743  _owners[tokenId] */\n      dup5\n      swap4\n        /* \"@openzeppelin/contracts/token/ERC721/ERC721.sol\":10764:10791  Transfer(from, to, tokenId) */\n      swap2\n      dup8\n      and\n      swap2\n      0xddf252ad1be2c89b69c2b068fc378daa952ba7f163c4a11628f55a4df523b3ef\n      swap2\n      log4\n        /* \"@openzeppelin/contracts/token/ERC721/ERC721.sol\":3467:3874  function approve(address to, uint256 tokenId) public virtual override {... */\n      pop\n      pop\n      pop\n      jump\t// out\n        /* \"@openzeppelin/contracts/token/ERC721/ERC721.sol\":8237:8546  function _safeMint(... */\n    tag_304:\n        /* \"@openzeppelin/contracts/token/ERC721/ERC721.sol\":8361:8379  _mint(to, tokenId) */\n      tag_366\n        /* \"@openzeppelin/contracts/token/ERC721/ERC721.sol\":8367:8369  to */\n      dup4\n        /* \"@openzeppelin/contracts/token/ERC721/ERC721.sol\":8371:8378  tokenId */\n      dup4\n        /* \"@openzeppelin/contracts/token/ERC721/ERC721.sol\":8361:8366  _mint */\n      tag_367\n        /* \"@openzeppelin/contracts/token/ERC721/ERC721.sol\":8361:8379  _mint(to, tokenId) */\n      jump\t// in\n    tag_366:\n        /* \"@openzeppelin/contracts/token/ERC721/ERC721.sol\":8410:8463  _checkOnERC721Received(address(0), to, tokenId, data) */\n      tag_368\n        /* \"@openzeppelin/contracts/token/ERC721/ERC721.sol\":8441:8442  0 */\n      0x00\n        /* \"@openzeppelin/contracts/token/ERC721/ERC721.sol\":8445:8447  to */\n      dup5\n        /* \"@openzeppelin/contracts/token/ERC721/ERC721.sol\":8449:8456  tokenId */\n      dup5\n        /* \"@openzeppelin/contracts/token/ERC721/ERC721.sol\":8458:8462  data */\n      dup5\n        /* \"@openzeppelin/contracts/token/ERC721/ERC721.sol\":8410:8432  _checkOnERC721Received */\n      tag_328\n        /* \"@openzeppelin/contracts/token/ERC721/ERC721.sol\":8410:8463  _checkOnERC721Received(address(0), to, tokenId, data) */\n      jump\t// in\n    tag_368:\n        /* \"@openzeppelin/contracts/token/ERC721/ERC721.sol\":8389:8539  require(... */\n      tag_162\n      jumpi\n      mload(0x40)\n      0x08c379a000000000000000000000000000000000000000000000000000000000\n      dup2\n      mstore\n        /* \"#utility.yul\":8732:8734   */\n      0x20\n        /* \"@openzeppelin/contracts/token/ERC721/ERC721.sol\":8389:8539  require(... */\n      0x04\n      dup3\n      add\n        /* \"#utility.yul\":8714:8735   */\n      mstore\n        /* \"#utility.yul\":8771:8773   */\n      0x32\n        /* \"#utility.yul\":8751:8769   */\n      0x24\n      dup3\n      add\n        /* \"#utility.yul\":8744:8774   */\n      mstore\n        /* \"#utility.yul\":8810:8844   */\n      0x4552433732313a207472616e7366657220746f206e6f6e204552433732315265\n        /* \"#utility.yul\":8790:8808   */\n      0x44\n      dup3\n      add\n        /* \"#utility.yul\":8783:8845   */\n      mstore\n        /* \"#utility.yul\":8881:8901   */\n      0x63656976657220696d706c656d656e7465720000000000000000000000000000\n        /* \"#utility.yul\":8861:8879   */\n      0x64\n      dup3\n      add\n        /* \"#utility.yul\":8854:8902   */\n      mstore\n        /* \"#utility.yul\":8919:8938   */\n      0x84\n      add\n        /* \"@openzeppelin/contracts/token/ERC721/ERC721.sol\":8389:8539  require(... */\n      tag_152\n        /* \"#utility.yul\":8704:8944   */\n      jump\n        /* \"@openzeppelin/contracts/token/ERC721/ERC721.sol\":12342:13173  function _checkOnERC721Received(... */\n    tag_328:\n        /* \"@openzeppelin/contracts/token/ERC721/ERC721.sol\":12491:12495  bool */\n      0x00\n        /* \"@openzeppelin/contracts/token/ERC721/ERC721.sol\":12511:12524  to.isContract */\n      0xffffffffffffffffffffffffffffffffffffffff\n      dup5\n      and\n        /* \"@openzeppelin/contracts/utils/Address.sol\":1465:1484  account.code.length */\n      extcodesize\n        /* \"@openzeppelin/contracts/utils/Address.sol\":1465:1488  account.code.length > 0 */\n      iszero\n        /* \"@openzeppelin/contracts/token/ERC721/ERC721.sol\":12507:13167  if (to.isContract()) {... */\n      tag_376\n      jumpi\n        /* \"@openzeppelin/contracts/token/ERC721/ERC721.sol\":12546:12617  IERC721Receiver(to).onERC721Received(_msgSender(), from, tokenId, data) */\n      mload(0x40)\n      0x150b7a0200000000000000000000000000000000000000000000000000000000\n      dup2\n      mstore\n        /* \"@openzeppelin/contracts/token/ERC721/ERC721.sol\":12546:12582  IERC721Receiver(to).onERC721Received */\n      0xffffffffffffffffffffffffffffffffffffffff\n      dup6\n      and\n      swap1\n      0x150b7a02\n      swap1\n        /* \"@openzeppelin/contracts/token/ERC721/ERC721.sol\":12546:12617  IERC721Receiver(to).onERC721Received(_msgSender(), from, tokenId, data) */\n      tag_378\n      swap1\n        /* \"@openzeppelin/contracts/utils/Context.sol\":719:729  msg.sender */\n      caller\n      swap1\n        /* \"@openzeppelin/contracts/token/ERC721/ERC721.sol\":12597:12601  from */\n      dup10\n      swap1\n        /* \"@openzeppelin/contracts/token/ERC721/ERC721.sol\":12603:12610  tokenId */\n      dup9\n      swap1\n        /* \"@openzeppelin/contracts/token/ERC721/ERC721.sol\":12612:12616  data */\n      dup9\n      swap1\n        /* \"@openzeppelin/contracts/token/ERC721/ERC721.sol\":12546:12617  IERC721Receiver(to).onERC721Received(_msgSender(), from, tokenId, data) */\n      0x04\n      add\n      tag_379\n      jump\t// in\n    tag_378:\n      0x20\n      mload(0x40)\n      dup1\n      dup4\n      sub\n      dup2\n      0x00\n      dup8\n      dup1\n      extcodesize\n      iszero\n      dup1\n      iszero\n      tag_380\n      jumpi\n      0x00\n      dup1\n      revert\n    tag_380:\n      pop\n      gas\n      call\n      swap3\n      pop\n      pop\n      pop\n      dup1\n      iszero\n      tag_381\n      jumpi\n      pop\n      0x40\n      dup1\n      mload\n      0x1f\n      returndatasize\n      swap1\n      dup2\n      add\n      0xffffffffffffffffffffffffffffffffffffffffffffffffffffffffffffffe0\n      and\n      dup3\n      add\n      swap1\n      swap3\n      mstore\n      tag_382\n      swap2\n      dup2\n      add\n      swap1\n      tag_383\n      jump\t// in\n    tag_382:\n      0x01\n    tag_381:\n        /* \"@openzeppelin/contracts/token/ERC721/ERC721.sol\":12542:13115  try IERC721Receiver(to).onERC721Received(_msgSender(), from, tokenId, data) returns (bytes4 retval) {... */\n      tag_384\n      jumpi\n      returndatasize\n      dup1\n      dup1\n      iszero\n      tag_389\n      jumpi\n      mload(0x40)\n      swap2\n      pop\n      and(add(returndatasize, 0x3f), not(0x1f))\n      dup3\n      add\n      0x40\n      mstore\n      returndatasize\n      dup3\n      mstore\n      returndatasize\n      0x00\n      0x20\n      dup5\n      add\n      returndatacopy\n      jump(tag_388)\n    tag_389:\n      0x60\n      swap2\n      pop\n    tag_388:\n      pop\n        /* \"@openzeppelin/contracts/token/ERC721/ERC721.sol\":12784:12797  reason.length */\n      dup1\n      mload\n        /* \"@openzeppelin/contracts/token/ERC721/ERC721.sol\":12780:13101  if (reason.length == 0) {... */\n      tag_390\n      jumpi\n        /* \"@openzeppelin/contracts/token/ERC721/ERC721.sol\":12826:12886  revert(\"ERC721: transfer to non ERC721Receiver implementer\") */\n      mload(0x40)\n      0x08c379a000000000000000000000000000000000000000000000000000000000\n      dup2\n      mstore\n        /* \"#utility.yul\":8732:8734   */\n      0x20\n        /* \"@openzeppelin/contracts/token/ERC721/ERC721.sol\":12826:12886  revert(\"ERC721: transfer to non ERC721Receiver implementer\") */\n      0x04\n      dup3\n      add\n        /* \"#utility.yul\":8714:8735   */\n      mstore\n        /* \"#utility.yul\":8771:8773   */\n      0x32\n        /* \"#utility.yul\":8751:8769   */\n      0x24\n      dup3\n      add\n        /* \"#utility.yul\":8744:8774   */\n      mstore\n        /* \"#utility.yul\":8810:8844   */\n      0x4552433732313a207472616e7366657220746f206e6f6e204552433732315265\n        /* \"#utility.yul\":8790:8808   */\n      0x44\n      dup3\n      add\n        /* \"#utility.yul\":8783:8845   */\n      mstore\n        /* \"#utility.yul\":8881:8901   */\n      0x63656976657220696d706c656d656e7465720000000000000000000000000000\n        /* \"#utility.yul\":8861:8879   */\n      0x64\n      dup3\n      add\n        /* \"#utility.yul\":8854:8902   */\n      mstore\n        /* \"#utility.yul\":8919:8938   */\n      0x84\n      add\n        /* \"@openzeppelin/contracts/token/ERC721/ERC721.sol\":12826:12886  revert(\"ERC721: transfer to non ERC721Receiver implementer\") */\n      tag_152\n        /* \"#utility.yul\":8704:8944   */\n      jump\n        /* \"@openzeppelin/contracts/token/ERC721/ERC721.sol\":12780:13101  if (reason.length == 0) {... */\n    tag_390:\n        /* \"@openzeppelin/contracts/token/ERC721/ERC721.sol\":13053:13059  reason */\n      dup1\n        /* \"@openzeppelin/contracts/token/ERC721/ERC721.sol\":13047:13060  mload(reason) */\n      mload\n        /* \"@openzeppelin/contracts/token/ERC721/ERC721.sol\":13038:13044  reason */\n      dup2\n        /* \"@openzeppelin/contracts/token/ERC721/ERC721.sol\":13034:13036  32 */\n      0x20\n        /* \"@openzeppelin/contracts/token/ERC721/ERC721.sol\":13030:13045  add(32, reason) */\n      add\n        /* \"@openzeppelin/contracts/token/ERC721/ERC721.sol\":13023:13061  revert(add(32, reason), mload(reason)) */\n      revert\n        /* \"@openzeppelin/contracts/token/ERC721/ERC721.sol\":12542:13115  try IERC721Receiver(to).onERC721Received(_msgSender(), from, tokenId, data) returns (bytes4 retval) {... */\n    tag_384:\n        /* \"@openzeppelin/contracts/token/ERC721/ERC721.sol\":12667:12718  retval == IERC721Receiver.onERC721Received.selector */\n      0xffffffff00000000000000000000000000000000000000000000000000000000\n      and\n        /* \"@openzeppelin/contracts/token/ERC721/ERC721.sol\":12677:12718  IERC721Receiver.onERC721Received.selector */\n      0x150b7a0200000000000000000000000000000000000000000000000000000000\n        /* \"@openzeppelin/contracts/token/ERC721/ERC721.sol\":12667:12718  retval == IERC721Receiver.onERC721Received.selector */\n      eq\n      swap1\n      pop\n        /* \"@openzeppelin/contracts/token/ERC721/ERC721.sol\":12660:12718  return retval == IERC721Receiver.onERC721Received.selector */\n      jump(tag_323)\n        /* \"@openzeppelin/contracts/token/ERC721/ERC721.sol\":12507:13167  if (to.isContract()) {... */\n    tag_376:\n      pop\n        /* \"@openzeppelin/contracts/token/ERC721/ERC721.sol\":13152:13156  true */\n      0x01\n        /* \"@openzeppelin/contracts/token/ERC721/ERC721.sol\":12342:13173  function _checkOnERC721Received(... */\n      swap5\n      swap4\n      pop\n      pop\n      pop\n      pop\n      jump\t// out\n        /* \"@openzeppelin/contracts/token/ERC721/ERC721.sol\":8868:9295  function _mint(address to, uint256 tokenId) internal virtual {... */\n    tag_367:\n        /* \"@openzeppelin/contracts/token/ERC721/ERC721.sol\":8947:8963  to != address(0) */\n      0xffffffffffffffffffffffffffffffffffffffff\n      dup3\n      and\n        /* \"@openzeppelin/contracts/token/ERC721/ERC721.sol\":8939:9000  require(to != address(0), \"ERC721: mint to the zero address\") */\n      tag_396\n      jumpi\n      mload(0x40)\n      0x08c379a000000000000000000000000000000000000000000000000000000000\n      dup2\n      mstore\n        /* \"#utility.yul\":12274:12276   */\n      0x20\n        /* \"@openzeppelin/contracts/token/ERC721/ERC721.sol\":8939:9000  require(to != address(0), \"ERC721: mint to the zero address\") */\n      0x04\n      dup3\n      add\n        /* \"#utility.yul\":12256:12277   */\n      dup2\n      swap1\n      mstore\n        /* \"#utility.yul\":12293:12311   */\n      0x24\n      dup3\n      add\n        /* \"#utility.yul\":12286:12316   */\n      mstore\n        /* \"#utility.yul\":12352:12386   */\n      0x4552433732313a206d696e7420746f20746865207a65726f2061646472657373\n        /* \"#utility.yul\":12332:12350   */\n      0x44\n      dup3\n      add\n        /* \"#utility.yul\":12325:12387   */\n      mstore\n        /* \"#utility.yul\":12404:12422   */\n      0x64\n      add\n        /* \"@openzeppelin/contracts/token/ERC721/ERC721.sol\":8939:9000  require(to != address(0), \"ERC721: mint to the zero address\") */\n      tag_152\n        /* \"#utility.yul\":12246:12428   */\n      jump\n        /* \"@openzeppelin/contracts/token/ERC721/ERC721.sol\":8939:9000  require(to != address(0), \"ERC721: mint to the zero address\") */\n    tag_396:\n        /* \"@openzeppelin/contracts/token/ERC721/ERC721.sol\":7099:7103  bool */\n      0x00\n        /* \"@openzeppelin/contracts/token/ERC721/ERC721.sol\":7122:7138  _owners[tokenId] */\n      dup2\n      dup2\n      mstore\n        /* \"@openzeppelin/contracts/token/ERC721/ERC721.sol\":7122:7129  _owners */\n      0x02\n        /* \"@openzeppelin/contracts/token/ERC721/ERC721.sol\":7122:7138  _owners[tokenId] */\n      0x20\n      mstore\n      0x40\n      swap1\n      keccak256\n      sload\n        /* \"@openzeppelin/contracts/token/ERC721/ERC721.sol\":7122:7152  _owners[tokenId] != address(0) */\n      0xffffffffffffffffffffffffffffffffffffffff\n        /* \"@openzeppelin/contracts/token/ERC721/ERC721.sol\":7122:7138  _owners[tokenId] */\n      and\n        /* \"@openzeppelin/contracts/token/ERC721/ERC721.sol\":7122:7152  _owners[tokenId] != address(0) */\n      iszero\n        /* \"@openzeppelin/contracts/token/ERC721/ERC721.sol\":9010:9068  require(!_exists(tokenId), \"ERC721: token already minted\") */\n      tag_400\n      jumpi\n      mload(0x40)\n      0x08c379a000000000000000000000000000000000000000000000000000000000\n      dup2\n      mstore\n        /* \"#utility.yul\":9964:9966   */\n      0x20\n        /* \"@openzeppelin/contracts/token/ERC721/ERC721.sol\":9010:9068  require(!_exists(tokenId), \"ERC721: token already minted\") */\n      0x04\n      dup3\n      add\n        /* \"#utility.yul\":9946:9967   */\n      mstore\n        /* \"#utility.yul\":10003:10005   */\n      0x1c\n        /* \"#utility.yul\":9983:10001   */\n      0x24\n      dup3\n      add\n        /* \"#utility.yul\":9976:10006   */\n      mstore\n        /* \"#utility.yul\":10042:10072   */\n      0x4552433732313a20746f6b656e20616c7265616479206d696e74656400000000\n        /* \"#utility.yul\":10022:10040   */\n      0x44\n      dup3\n      add\n        /* \"#utility.yul\":10015:10073   */\n      mstore\n        /* \"#utility.yul\":10090:10108   */\n      0x64\n      add\n        /* \"@openzeppelin/contracts/token/ERC721/ERC721.sol\":9010:9068  require(!_exists(tokenId), \"ERC721: token already minted\") */\n      tag_152\n        /* \"#utility.yul\":9936:10114   */\n      jump\n        /* \"@openzeppelin/contracts/token/ERC721/ERC721.sol\":9010:9068  require(!_exists(tokenId), \"ERC721: token already minted\") */\n    tag_400:\n        /* \"@openzeppelin/contracts/token/ERC721/ERC721.sol\":9135:9148  _balances[to] */\n      0xffffffffffffffffffffffffffffffffffffffff\n      dup3\n      and\n      0x00\n      swap1\n      dup2\n      mstore\n        /* \"@openzeppelin/contracts/token/ERC721/ERC721.sol\":9135:9144  _balances */\n      0x03\n        /* \"@openzeppelin/contracts/token/ERC721/ERC721.sol\":9135:9148  _balances[to] */\n      0x20\n      mstore\n      0x40\n      dup2\n      keccak256\n        /* \"@openzeppelin/contracts/token/ERC721/ERC721.sol\":9135:9153  _balances[to] += 1 */\n      dup1\n      sload\n        /* \"@openzeppelin/contracts/token/ERC721/ERC721.sol\":9152:9153  1 */\n      0x01\n      swap3\n        /* \"@openzeppelin/contracts/token/ERC721/ERC721.sol\":9135:9148  _balances[to] */\n      swap1\n        /* \"@openzeppelin/contracts/token/ERC721/ERC721.sol\":9135:9153  _balances[to] += 1 */\n      tag_404\n      swap1\n        /* \"@openzeppelin/contracts/token/ERC721/ERC721.sol\":9152:9153  1 */\n      dup5\n      swap1\n        /* \"@openzeppelin/contracts/token/ERC721/ERC721.sol\":9135:9153  _balances[to] += 1 */\n      tag_348\n      jump\t// in\n    tag_404:\n      swap1\n      swap2\n      sstore\n      pop\n      pop\n        /* \"@openzeppelin/contracts/token/ERC721/ERC721.sol\":9163:9179  _owners[tokenId] */\n      0x00\n      dup2\n      dup2\n      mstore\n        /* \"@openzeppelin/contracts/token/ERC721/ERC721.sol\":9163:9170  _owners */\n      0x02\n        /* \"@openzeppelin/contracts/token/ERC721/ERC721.sol\":9163:9179  _owners[tokenId] */\n      0x20\n      mstore\n      0x40\n      dup1\n      dup3\n      keccak256\n        /* \"@openzeppelin/contracts/token/ERC721/ERC721.sol\":9163:9184  _owners[tokenId] = to */\n      dup1\n      sload\n      0xffffffffffffffffffffffff0000000000000000000000000000000000000000\n      and\n      0xffffffffffffffffffffffffffffffffffffffff\n      dup7\n      and\n      swap1\n      dup2\n      or\n      swap1\n      swap2\n      sstore\n        /* \"@openzeppelin/contracts/token/ERC721/ERC721.sol\":9200:9233  Transfer(address(0), to, tokenId) */\n      swap1\n      mload\n        /* \"@openzeppelin/contracts/token/ERC721/ERC721.sol\":9163:9179  _owners[tokenId] */\n      dup4\n      swap3\n      swap1\n        /* \"@openzeppelin/contracts/token/ERC721/ERC721.sol\":9200:9233  Transfer(address(0), to, tokenId) */\n      0xddf252ad1be2c89b69c2b068fc378daa952ba7f163c4a11628f55a4df523b3ef\n      swap1\n        /* \"@openzeppelin/contracts/token/ERC721/ERC721.sol\":9163:9179  _owners[tokenId] */\n      dup3\n      swap1\n        /* \"@openzeppelin/contracts/token/ERC721/ERC721.sol\":9200:9233  Transfer(address(0), to, tokenId) */\n      log4\n        /* \"@openzeppelin/contracts/token/ERC721/ERC721.sol\":4169:4322  function setApprovalForAll(address operator, bool approved) public virtual override {... */\n      pop\n      pop\n      jump\t// out\n    tag_220:\n      dup3\n      dup1\n      sload\n      tag_407\n      swap1\n      tag_141\n      jump\t// in\n    tag_407:\n      swap1\n      0x00\n      mstore\n      keccak256(0x00, 0x20)\n      swap1\n      0x1f\n      add\n      0x20\n      swap1\n      div\n      dup2\n      add\n      swap3\n      dup3\n      tag_409\n      jumpi\n      0x00\n      dup6\n      sstore\n      jump(tag_412)\n    tag_409:\n      dup3\n      0x1f\n      lt\n      tag_410\n      jumpi\n      dup1\n      mload\n      not(0xff)\n      and\n      dup4\n      dup1\n      add\n      or\n      dup6\n      sstore\n      jump(tag_412)\n    tag_410:\n      dup3\n      dup1\n      add\n      0x01\n      add\n      dup6\n      sstore\n      dup3\n      iszero\n      tag_412\n      jumpi\n      swap2\n      dup3\n      add\n    tag_411:\n      dup3\n      dup2\n      gt\n      iszero\n      tag_412\n      jumpi\n      dup3\n      mload\n      dup3\n      sstore\n      swap2\n      0x20\n      add\n      swap2\n      swap1\n      0x01\n      add\n      swap1\n      jump(tag_411)\n    tag_412:\n      pop\n      tag_413\n      swap3\n      swap2\n      pop\n      tag_414\n      jump\t// in\n    tag_413:\n      pop\n      swap1\n      jump\t// out\n    tag_414:\n    tag_415:\n      dup1\n      dup3\n      gt\n      iszero\n      tag_413\n      jumpi\n      0x00\n      dup2\n      sstore\n      0x01\n      add\n      jump(tag_415)\n        /* \"#utility.yul\":14:704   */\n    tag_418:\n        /* \"#utility.yul\":78:83   */\n      0x00\n        /* \"#utility.yul\":108:126   */\n      0xffffffffffffffff\n        /* \"#utility.yul\":149:151   */\n      dup1\n        /* \"#utility.yul\":141:147   */\n      dup5\n        /* \"#utility.yul\":138:152   */\n      gt\n        /* \"#utility.yul\":135:137   */\n      iszero\n      tag_421\n      jumpi\n        /* \"#utility.yul\":155:173   */\n      tag_421\n      tag_422\n      jump\t// in\n    tag_421:\n        /* \"#utility.yul\":289:291   */\n      0x40\n        /* \"#utility.yul\":283:292   */\n      mload\n        /* \"#utility.yul\":355:357   */\n      0x1f\n        /* \"#utility.yul\":343:358   */\n      dup6\n      add\n        /* \"#utility.yul\":194:260   */\n      0xffffffffffffffffffffffffffffffffffffffffffffffffffffffffffffffe0\n        /* \"#utility.yul\":339:363   */\n      swap1\n      dup2\n      and\n        /* \"#utility.yul\":365:367   */\n      0x3f\n        /* \"#utility.yul\":335:368   */\n      add\n        /* \"#utility.yul\":331:373   */\n      and\n        /* \"#utility.yul\":319:374   */\n      dup2\n      add\n      swap1\n        /* \"#utility.yul\":389:407   */\n      dup3\n      dup3\n      gt\n        /* \"#utility.yul\":409:431   */\n      dup2\n      dup4\n      lt\n        /* \"#utility.yul\":386:432   */\n      or\n        /* \"#utility.yul\":383:385   */\n      iszero\n      tag_424\n      jumpi\n        /* \"#utility.yul\":435:453   */\n      tag_424\n      tag_422\n      jump\t// in\n    tag_424:\n        /* \"#utility.yul\":475:485   */\n      dup2\n        /* \"#utility.yul\":471:473   */\n      0x40\n        /* \"#utility.yul\":464:486   */\n      mstore\n        /* \"#utility.yul\":504:510   */\n      dup1\n        /* \"#utility.yul\":495:510   */\n      swap4\n      pop\n        /* \"#utility.yul\":534:540   */\n      dup6\n        /* \"#utility.yul\":526:532   */\n      dup2\n        /* \"#utility.yul\":519:541   */\n      mstore\n        /* \"#utility.yul\":574:577   */\n      dup7\n        /* \"#utility.yul\":565:571   */\n      dup7\n        /* \"#utility.yul\":560:563   */\n      dup7\n        /* \"#utility.yul\":556:572   */\n      add\n        /* \"#utility.yul\":553:578   */\n      gt\n        /* \"#utility.yul\":550:552   */\n      iszero\n      tag_425\n      jumpi\n        /* \"#utility.yul\":591:592   */\n      0x00\n        /* \"#utility.yul\":588:589   */\n      dup1\n        /* \"#utility.yul\":581:593   */\n      revert\n        /* \"#utility.yul\":550:552   */\n    tag_425:\n        /* \"#utility.yul\":641:647   */\n      dup6\n        /* \"#utility.yul\":636:639   */\n      dup6\n        /* \"#utility.yul\":629:633   */\n      0x20\n        /* \"#utility.yul\":621:627   */\n      dup4\n        /* \"#utility.yul\":617:634   */\n      add\n        /* \"#utility.yul\":604:648   */\n      calldatacopy\n        /* \"#utility.yul\":696:697   */\n      0x00\n        /* \"#utility.yul\":689:693   */\n      0x20\n        /* \"#utility.yul\":680:686   */\n      dup8\n        /* \"#utility.yul\":672:678   */\n      dup4\n        /* \"#utility.yul\":668:687   */\n      add\n        /* \"#utility.yul\":664:694   */\n      add\n        /* \"#utility.yul\":657:698   */\n      mstore\n      pop\n      pop\n      pop\n        /* \"#utility.yul\":88:704   */\n      swap4\n      swap3\n      pop\n      pop\n      pop\n      jump\t// out\n        /* \"#utility.yul\":709:905   */\n    tag_426:\n        /* \"#utility.yul\":777:797   */\n      dup1\n      calldataload\n        /* \"#utility.yul\":837:879   */\n      0xffffffffffffffffffffffffffffffffffffffff\n        /* \"#utility.yul\":826:880   */\n      dup2\n      and\n        /* \"#utility.yul\":816:881   */\n      dup2\n      eq\n        /* \"#utility.yul\":806:808   */\n      tag_428\n      jumpi\n        /* \"#utility.yul\":895:896   */\n      0x00\n        /* \"#utility.yul\":892:893   */\n      dup1\n        /* \"#utility.yul\":885:897   */\n      revert\n        /* \"#utility.yul\":806:808   */\n    tag_428:\n        /* \"#utility.yul\":758:905   */\n      swap2\n      swap1\n      pop\n      jump\t// out\n        /* \"#utility.yul\":910:1106   */\n    tag_66:\n        /* \"#utility.yul\":969:975   */\n      0x00\n        /* \"#utility.yul\":1022:1024   */\n      0x20\n        /* \"#utility.yul\":1010:1019   */\n      dup3\n        /* \"#utility.yul\":1001:1008   */\n      dup5\n        /* \"#utility.yul\":997:1020   */\n      sub\n        /* \"#utility.yul\":993:1025   */\n      slt\n        /* \"#utility.yul\":990:992   */\n      iszero\n      tag_430\n      jumpi\n        /* \"#utility.yul\":1043:1049   */\n      dup1\n        /* \"#utility.yul\":1035:1041   */\n      dup2\n        /* \"#utility.yul\":1028:1050   */\n      revert\n        /* \"#utility.yul\":990:992   */\n    tag_430:\n        /* \"#utility.yul\":1071:1100   */\n      tag_269\n        /* \"#utility.yul\":1090:1099   */\n      dup3\n        /* \"#utility.yul\":1071:1100   */\n      tag_426\n      jump\t// in\n        /* \"#utility.yul\":1111:1381   */\n    tag_124:\n        /* \"#utility.yul\":1179:1185   */\n      0x00\n        /* \"#utility.yul\":1187:1193   */\n      dup1\n        /* \"#utility.yul\":1240:1242   */\n      0x40\n        /* \"#utility.yul\":1228:1237   */\n      dup4\n        /* \"#utility.yul\":1219:1226   */\n      dup6\n        /* \"#utility.yul\":1215:1238   */\n      sub\n        /* \"#utility.yul\":1211:1243   */\n      slt\n        /* \"#utility.yul\":1208:1210   */\n      iszero\n      tag_433\n      jumpi\n        /* \"#utility.yul\":1261:1267   */\n      dup1\n        /* \"#utility.yul\":1253:1259   */\n      dup2\n        /* \"#utility.yul\":1246:1268   */\n      revert\n        /* \"#utility.yul\":1208:1210   */\n    tag_433:\n        /* \"#utility.yul\":1289:1318   */\n      tag_434\n        /* \"#utility.yul\":1308:1317   */\n      dup4\n        /* \"#utility.yul\":1289:1318   */\n      tag_426\n      jump\t// in\n    tag_434:\n        /* \"#utility.yul\":1279:1318   */\n      swap2\n      pop\n        /* \"#utility.yul\":1337:1375   */\n      tag_435\n        /* \"#utility.yul\":1371:1373   */\n      0x20\n        /* \"#utility.yul\":1360:1369   */\n      dup5\n        /* \"#utility.yul\":1356:1374   */\n      add\n        /* \"#utility.yul\":1337:1375   */\n      tag_426\n      jump\t// in\n    tag_435:\n        /* \"#utility.yul\":1327:1375   */\n      swap1\n      pop\n        /* \"#utility.yul\":1198:1381   */\n      swap3\n      pop\n      swap3\n      swap1\n      pop\n      jump\t// out\n        /* \"#utility.yul\":1386:1724   */\n    tag_62:\n        /* \"#utility.yul\":1463:1469   */\n      0x00\n        /* \"#utility.yul\":1471:1477   */\n      dup1\n        /* \"#utility.yul\":1479:1485   */\n      0x00\n        /* \"#utility.yul\":1532:1534   */\n      0x60\n        /* \"#utility.yul\":1520:1529   */\n      dup5\n        /* \"#utility.yul\":1511:1518   */\n      dup7\n        /* \"#utility.yul\":1507:1530   */\n      sub\n        /* \"#utility.yul\":1503:1535   */\n      slt\n        /* \"#utility.yul\":1500:1502   */\n      iszero\n      tag_437\n      jumpi\n        /* \"#utility.yul\":1553:1559   */\n      dup1\n        /* \"#utility.yul\":1545:1551   */\n      dup2\n        /* \"#utility.yul\":1538:1560   */\n      revert\n        /* \"#utility.yul\":1500:1502   */\n    tag_437:\n        /* \"#utility.yul\":1581:1610   */\n      tag_438\n        /* \"#utility.yul\":1600:1609   */\n      dup5\n        /* \"#utility.yul\":1581:1610   */\n      tag_426\n      jump\t// in\n    tag_438:\n        /* \"#utility.yul\":1571:1610   */\n      swap3\n      pop\n        /* \"#utility.yul\":1629:1667   */\n      tag_439\n        /* \"#utility.yul\":1663:1665   */\n      0x20\n        /* \"#utility.yul\":1652:1661   */\n      dup6\n        /* \"#utility.yul\":1648:1666   */\n      add\n        /* \"#utility.yul\":1629:1667   */\n      tag_426\n      jump\t// in\n    tag_439:\n        /* \"#utility.yul\":1619:1667   */\n      swap2\n      pop\n        /* \"#utility.yul\":1714:1716   */\n      0x40\n        /* \"#utility.yul\":1703:1712   */\n      dup5\n        /* \"#utility.yul\":1699:1717   */\n      add\n        /* \"#utility.yul\":1686:1718   */\n      calldataload\n        /* \"#utility.yul\":1676:1718   */\n      swap1\n      pop\n        /* \"#utility.yul\":1490:1724   */\n      swap3\n      pop\n      swap3\n      pop\n      swap3\n      jump\t// out\n        /* \"#utility.yul\":1729:2425   */\n    tag_110:\n        /* \"#utility.yul\":1824:1830   */\n      0x00\n        /* \"#utility.yul\":1832:1838   */\n      dup1\n        /* \"#utility.yul\":1840:1846   */\n      0x00\n        /* \"#utility.yul\":1848:1854   */\n      dup1\n        /* \"#utility.yul\":1901:1904   */\n      0x80\n        /* \"#utility.yul\":1889:1898   */\n      dup6\n        /* \"#utility.yul\":1880:1887   */\n      dup8\n        /* \"#utility.yul\":1876:1899   */\n      sub\n        /* \"#utility.yul\":1872:1905   */\n      slt\n        /* \"#utility.yul\":1869:1871   */\n      iszero\n      tag_441\n      jumpi\n        /* \"#utility.yul\":1923:1929   */\n      dup1\n        /* \"#utility.yul\":1915:1921   */\n      dup2\n        /* \"#utility.yul\":1908:1930   */\n      revert\n        /* \"#utility.yul\":1869:1871   */\n    tag_441:\n        /* \"#utility.yul\":1951:1980   */\n      tag_442\n        /* \"#utility.yul\":1970:1979   */\n      dup6\n        /* \"#utility.yul\":1951:1980   */\n      tag_426\n      jump\t// in\n    tag_442:\n        /* \"#utility.yul\":1941:1980   */\n      swap4\n      pop\n        /* \"#utility.yul\":1999:2037   */\n      tag_443\n        /* \"#utility.yul\":2033:2035   */\n      0x20\n        /* \"#utility.yul\":2022:2031   */\n      dup7\n        /* \"#utility.yul\":2018:2036   */\n      add\n        /* \"#utility.yul\":1999:2037   */\n      tag_426\n      jump\t// in\n    tag_443:\n        /* \"#utility.yul\":1989:2037   */\n      swap3\n      pop\n        /* \"#utility.yul\":2084:2086   */\n      0x40\n        /* \"#utility.yul\":2073:2082   */\n      dup6\n        /* \"#utility.yul\":2069:2087   */\n      add\n        /* \"#utility.yul\":2056:2088   */\n      calldataload\n        /* \"#utility.yul\":2046:2088   */\n      swap2\n      pop\n        /* \"#utility.yul\":2139:2141   */\n      0x60\n        /* \"#utility.yul\":2128:2137   */\n      dup6\n        /* \"#utility.yul\":2124:2142   */\n      add\n        /* \"#utility.yul\":2111:2143   */\n      calldataload\n        /* \"#utility.yul\":2166:2184   */\n      0xffffffffffffffff\n        /* \"#utility.yul\":2158:2164   */\n      dup2\n        /* \"#utility.yul\":2155:2185   */\n      gt\n        /* \"#utility.yul\":2152:2154   */\n      iszero\n      tag_444\n      jumpi\n        /* \"#utility.yul\":2203:2209   */\n      dup2\n        /* \"#utility.yul\":2195:2201   */\n      dup3\n        /* \"#utility.yul\":2188:2210   */\n      revert\n        /* \"#utility.yul\":2152:2154   */\n    tag_444:\n        /* \"#utility.yul\":2231:2253   */\n      dup6\n      add\n        /* \"#utility.yul\":2284:2288   */\n      0x1f\n        /* \"#utility.yul\":2276:2289   */\n      dup2\n      add\n        /* \"#utility.yul\":2272:2299   */\n      dup8\n      sgt\n        /* \"#utility.yul\":2262:2264   */\n      tag_445\n      jumpi\n        /* \"#utility.yul\":2318:2324   */\n      dup2\n        /* \"#utility.yul\":2310:2316   */\n      dup3\n        /* \"#utility.yul\":2303:2325   */\n      revert\n        /* \"#utility.yul\":2262:2264   */\n    tag_445:\n        /* \"#utility.yul\":2346:2419   */\n      tag_446\n        /* \"#utility.yul\":2411:2418   */\n      dup8\n        /* \"#utility.yul\":2406:2408   */\n      dup3\n        /* \"#utility.yul\":2393:2409   */\n      calldataload\n        /* \"#utility.yul\":2388:2390   */\n      0x20\n        /* \"#utility.yul\":2384:2386   */\n      dup5\n        /* \"#utility.yul\":2380:2391   */\n      add\n        /* \"#utility.yul\":2346:2419   */\n      tag_418\n      jump\t// in\n    tag_446:\n        /* \"#utility.yul\":2336:2419   */\n      swap2\n      pop\n      pop\n        /* \"#utility.yul\":1859:2425   */\n      swap3\n      swap6\n      swap2\n      swap5\n      pop\n      swap3\n      pop\n      jump\t// out\n        /* \"#utility.yul\":2430:2797   */\n    tag_103:\n        /* \"#utility.yul\":2495:2501   */\n      0x00\n        /* \"#utility.yul\":2503:2509   */\n      dup1\n        /* \"#utility.yul\":2556:2558   */\n      0x40\n        /* \"#utility.yul\":2544:2553   */\n      dup4\n        /* \"#utility.yul\":2535:2542   */\n      dup6\n        /* \"#utility.yul\":2531:2554   */\n      sub\n        /* \"#utility.yul\":2527:2559   */\n      slt\n        /* \"#utility.yul\":2524:2526   */\n      iszero\n      tag_448\n      jumpi\n        /* \"#utility.yul\":2577:2583   */\n      dup2\n        /* \"#utility.yul\":2569:2575   */\n      dup3\n        /* \"#utility.yul\":2562:2584   */\n      revert\n        /* \"#utility.yul\":2524:2526   */\n    tag_448:\n        /* \"#utility.yul\":2605:2634   */\n      tag_449\n        /* \"#utility.yul\":2624:2633   */\n      dup4\n        /* \"#utility.yul\":2605:2634   */\n      tag_426\n      jump\t// in\n    tag_449:\n        /* \"#utility.yul\":2595:2634   */\n      swap2\n      pop\n        /* \"#utility.yul\":2684:2686   */\n      0x20\n        /* \"#utility.yul\":2673:2682   */\n      dup4\n        /* \"#utility.yul\":2669:2687   */\n      add\n        /* \"#utility.yul\":2656:2688   */\n      calldataload\n        /* \"#utility.yul\":2731:2736   */\n      dup1\n        /* \"#utility.yul\":2724:2737   */\n      iszero\n        /* \"#utility.yul\":2717:2738   */\n      iszero\n        /* \"#utility.yul\":2710:2715   */\n      dup2\n        /* \"#utility.yul\":2707:2739   */\n      eq\n        /* \"#utility.yul\":2697:2699   */\n      tag_450\n      jumpi\n        /* \"#utility.yul\":2758:2764   */\n      dup2\n        /* \"#utility.yul\":2750:2756   */\n      dup3\n        /* \"#utility.yul\":2743:2765   */\n      revert\n        /* \"#utility.yul\":2697:2699   */\n    tag_450:\n        /* \"#utility.yul\":2786:2791   */\n      dup1\n        /* \"#utility.yul\":2776:2791   */\n      swap2\n      pop\n      pop\n        /* \"#utility.yul\":2514:2797   */\n      swap3\n      pop\n      swap3\n      swap1\n      pop\n      jump\t// out\n        /* \"#utility.yul\":2802:3066   */\n    tag_54:\n        /* \"#utility.yul\":2870:2876   */\n      0x00\n        /* \"#utility.yul\":2878:2884   */\n      dup1\n        /* \"#utility.yul\":2931:2933   */\n      0x40\n        /* \"#utility.yul\":2919:2928   */\n      dup4\n        /* \"#utility.yul\":2910:2917   */\n      dup6\n        /* \"#utility.yul\":2906:2929   */\n      sub\n        /* \"#utility.yul\":2902:2934   */\n      slt\n        /* \"#utility.yul\":2899:2901   */\n      iszero\n      tag_452\n      jumpi\n        /* \"#utility.yul\":2952:2958   */\n      dup2\n        /* \"#utility.yul\":2944:2950   */\n      dup3\n        /* \"#utility.yul\":2937:2959   */\n      revert\n        /* \"#utility.yul\":2899:2901   */\n    tag_452:\n        /* \"#utility.yul\":2980:3009   */\n      tag_453\n        /* \"#utility.yul\":2999:3008   */\n      dup4\n        /* \"#utility.yul\":2980:3009   */\n      tag_426\n      jump\t// in\n    tag_453:\n        /* \"#utility.yul\":2970:3009   */\n      swap5\n        /* \"#utility.yul\":3056:3058   */\n      0x20\n        /* \"#utility.yul\":3041:3059   */\n      swap4\n      swap1\n      swap4\n      add\n        /* \"#utility.yul\":3028:3060   */\n      calldataload\n      swap4\n      pop\n      pop\n      pop\n        /* \"#utility.yul\":2889:3066   */\n      jump\t// out\n        /* \"#utility.yul\":3071:3326   */\n    tag_38:\n        /* \"#utility.yul\":3129:3135   */\n      0x00\n        /* \"#utility.yul\":3182:3184   */\n      0x20\n        /* \"#utility.yul\":3170:3179   */\n      dup3\n        /* \"#utility.yul\":3161:3168   */\n      dup5\n        /* \"#utility.yul\":3157:3180   */\n      sub\n        /* \"#utility.yul\":3153:3185   */\n      slt\n        /* \"#utility.yul\":3150:3152   */\n      iszero\n      tag_455\n      jumpi\n        /* \"#utility.yul\":3203:3209   */\n      dup1\n        /* \"#utility.yul\":3195:3201   */\n      dup2\n        /* \"#utility.yul\":3188:3210   */\n      revert\n        /* \"#utility.yul\":3150:3152   */\n    tag_455:\n        /* \"#utility.yul\":3247:3256   */\n      dup2\n        /* \"#utility.yul\":3234:3257   */\n      calldataload\n        /* \"#utility.yul\":3266:3296   */\n      tag_269\n        /* \"#utility.yul\":3290:3295   */\n      dup2\n        /* \"#utility.yul\":3266:3296   */\n      tag_457\n      jump\t// in\n        /* \"#utility.yul\":3331:3590   */\n    tag_383:\n        /* \"#utility.yul\":3400:3406   */\n      0x00\n        /* \"#utility.yul\":3453:3455   */\n      0x20\n        /* \"#utility.yul\":3441:3450   */\n      dup3\n        /* \"#utility.yul\":3432:3439   */\n      dup5\n        /* \"#utility.yul\":3428:3451   */\n      sub\n        /* \"#utility.yul\":3424:3456   */\n      slt\n        /* \"#utility.yul\":3421:3423   */\n      iszero\n      tag_459\n      jumpi\n        /* \"#utility.yul\":3474:3480   */\n      dup1\n        /* \"#utility.yul\":3466:3472   */\n      dup2\n        /* \"#utility.yul\":3459:3481   */\n      revert\n        /* \"#utility.yul\":3421:3423   */\n    tag_459:\n        /* \"#utility.yul\":3511:3520   */\n      dup2\n        /* \"#utility.yul\":3505:3521   */\n      mload\n        /* \"#utility.yul\":3530:3560   */\n      tag_269\n        /* \"#utility.yul\":3554:3559   */\n      dup2\n        /* \"#utility.yul\":3530:3560   */\n      tag_457\n      jump\t// in\n        /* \"#utility.yul\":3595:4075   */\n    tag_79:\n        /* \"#utility.yul\":3664:3670   */\n      0x00\n        /* \"#utility.yul\":3717:3719   */\n      0x20\n        /* \"#utility.yul\":3705:3714   */\n      dup3\n        /* \"#utility.yul\":3696:3703   */\n      dup5\n        /* \"#utility.yul\":3692:3715   */\n      sub\n        /* \"#utility.yul\":3688:3720   */\n      slt\n        /* \"#utility.yul\":3685:3687   */\n      iszero\n      tag_462\n      jumpi\n        /* \"#utility.yul\":3738:3744   */\n      dup1\n        /* \"#utility.yul\":3730:3736   */\n      dup2\n        /* \"#utility.yul\":3723:3745   */\n      revert\n        /* \"#utility.yul\":3685:3687   */\n    tag_462:\n        /* \"#utility.yul\":3783:3792   */\n      dup2\n        /* \"#utility.yul\":3770:3793   */\n      calldataload\n        /* \"#utility.yul\":3816:3834   */\n      0xffffffffffffffff\n        /* \"#utility.yul\":3808:3814   */\n      dup2\n        /* \"#utility.yul\":3805:3835   */\n      gt\n        /* \"#utility.yul\":3802:3804   */\n      iszero\n      tag_463\n      jumpi\n        /* \"#utility.yul\":3853:3859   */\n      dup2\n        /* \"#utility.yul\":3845:3851   */\n      dup3\n        /* \"#utility.yul\":3838:3860   */\n      revert\n        /* \"#utility.yul\":3802:3804   */\n    tag_463:\n        /* \"#utility.yul\":3881:3903   */\n      dup3\n      add\n        /* \"#utility.yul\":3934:3938   */\n      0x1f\n        /* \"#utility.yul\":3926:3939   */\n      dup2\n      add\n        /* \"#utility.yul\":3922:3949   */\n      dup5\n      sgt\n        /* \"#utility.yul\":3912:3914   */\n      tag_464\n      jumpi\n        /* \"#utility.yul\":3968:3974   */\n      dup2\n        /* \"#utility.yul\":3960:3966   */\n      dup3\n        /* \"#utility.yul\":3953:3975   */\n      revert\n        /* \"#utility.yul\":3912:3914   */\n    tag_464:\n        /* \"#utility.yul\":3996:4069   */\n      tag_323\n        /* \"#utility.yul\":4061:4068   */\n      dup5\n        /* \"#utility.yul\":4056:4058   */\n      dup3\n        /* \"#utility.yul\":4043:4059   */\n      calldataload\n        /* \"#utility.yul\":4038:4040   */\n      0x20\n        /* \"#utility.yul\":4034:4036   */\n      dup5\n        /* \"#utility.yul\":4030:4041   */\n      add\n        /* \"#utility.yul\":3996:4069   */\n      tag_418\n      jump\t// in\n        /* \"#utility.yul\":4080:4270   */\n    tag_48:\n        /* \"#utility.yul\":4139:4145   */\n      0x00\n        /* \"#utility.yul\":4192:4194   */\n      0x20\n        /* \"#utility.yul\":4180:4189   */\n      dup3\n        /* \"#utility.yul\":4171:4178   */\n      dup5\n        /* \"#utility.yul\":4167:4190   */\n      sub\n        /* \"#utility.yul\":4163:4195   */\n      slt\n        /* \"#utility.yul\":4160:4162   */\n      iszero\n      tag_467\n      jumpi\n        /* \"#utility.yul\":4213:4219   */\n      dup1\n        /* \"#utility.yul\":4205:4211   */\n      dup2\n        /* \"#utility.yul\":4198:4220   */\n      revert\n        /* \"#utility.yul\":4160:4162   */\n    tag_467:\n      pop\n        /* \"#utility.yul\":4241:4264   */\n      calldataload\n      swap2\n        /* \"#utility.yul\":4150:4270   */\n      swap1\n      pop\n      jump\t// out\n        /* \"#utility.yul\":4275:4591   */\n    tag_468:\n        /* \"#utility.yul\":4316:4319   */\n      0x00\n        /* \"#utility.yul\":4354:4359   */\n      dup2\n        /* \"#utility.yul\":4348:4360   */\n      mload\n        /* \"#utility.yul\":4381:4387   */\n      dup1\n        /* \"#utility.yul\":4376:4379   */\n      dup5\n        /* \"#utility.yul\":4369:4388   */\n      mstore\n        /* \"#utility.yul\":4397:4460   */\n      tag_470\n        /* \"#utility.yul\":4453:4459   */\n      dup2\n        /* \"#utility.yul\":4446:4450   */\n      0x20\n        /* \"#utility.yul\":4441:4444   */\n      dup7\n        /* \"#utility.yul\":4437:4451   */\n      add\n        /* \"#utility.yul\":4430:4434   */\n      0x20\n        /* \"#utility.yul\":4423:4428   */\n      dup7\n        /* \"#utility.yul\":4419:4435   */\n      add\n        /* \"#utility.yul\":4397:4460   */\n      tag_471\n      jump\t// in\n    tag_470:\n        /* \"#utility.yul\":4505:4507   */\n      0x1f\n        /* \"#utility.yul\":4493:4508   */\n      add\n        /* \"#utility.yul\":4510:4576   */\n      0xffffffffffffffffffffffffffffffffffffffffffffffffffffffffffffffe0\n        /* \"#utility.yul\":4489:4577   */\n      and\n        /* \"#utility.yul\":4480:4578   */\n      swap3\n      swap1\n      swap3\n      add\n        /* \"#utility.yul\":4580:4584   */\n      0x20\n        /* \"#utility.yul\":4476:4585   */\n      add\n      swap3\n        /* \"#utility.yul\":4324:4591   */\n      swap2\n      pop\n      pop\n      jump\t// out\n        /* \"#utility.yul\":4596:5066   */\n    tag_273:\n        /* \"#utility.yul\":4775:4778   */\n      0x00\n        /* \"#utility.yul\":4813:4819   */\n      dup4\n        /* \"#utility.yul\":4807:4820   */\n      mload\n        /* \"#utility.yul\":4829:4882   */\n      tag_473\n        /* \"#utility.yul\":4875:4881   */\n      dup2\n        /* \"#utility.yul\":4870:4873   */\n      dup5\n        /* \"#utility.yul\":4863:4867   */\n      0x20\n        /* \"#utility.yul\":4855:4861   */\n      dup9\n        /* \"#utility.yul\":4851:4868   */\n      add\n        /* \"#utility.yul\":4829:4882   */\n      tag_471\n      jump\t// in\n    tag_473:\n        /* \"#utility.yul\":4945:4958   */\n      dup4\n      mload\n        /* \"#utility.yul\":4904:4920   */\n      swap1\n      dup4\n      add\n      swap1\n        /* \"#utility.yul\":4967:5024   */\n      tag_474\n        /* \"#utility.yul\":4945:4958   */\n      dup2\n        /* \"#utility.yul\":4904:4920   */\n      dup4\n        /* \"#utility.yul\":5001:5005   */\n      0x20\n        /* \"#utility.yul\":4989:5006   */\n      dup9\n      add\n        /* \"#utility.yul\":4967:5024   */\n      tag_471\n      jump\t// in\n    tag_474:\n        /* \"#utility.yul\":5040:5060   */\n      add\n      swap5\n        /* \"#utility.yul\":4783:5066   */\n      swap4\n      pop\n      pop\n      pop\n      pop\n      jump\t// out\n        /* \"#utility.yul\":5634:6145   */\n    tag_379:\n        /* \"#utility.yul\":5828:5832   */\n      0x00\n        /* \"#utility.yul\":5857:5899   */\n      0xffffffffffffffffffffffffffffffffffffffff\n        /* \"#utility.yul\":5938:5940   */\n      dup1\n        /* \"#utility.yul\":5930:5936   */\n      dup8\n        /* \"#utility.yul\":5926:5941   */\n      and\n        /* \"#utility.yul\":5915:5924   */\n      dup4\n        /* \"#utility.yul\":5908:5942   */\n      mstore\n        /* \"#utility.yul\":5990:5992   */\n      dup1\n        /* \"#utility.yul\":5982:5988   */\n      dup7\n        /* \"#utility.yul\":5978:5993   */\n      and\n        /* \"#utility.yul\":5973:5975   */\n      0x20\n        /* \"#utility.yul\":5962:5971   */\n      dup5\n        /* \"#utility.yul\":5958:5976   */\n      add\n        /* \"#utility.yul\":5951:5994   */\n      mstore\n      pop\n        /* \"#utility.yul\":6030:6036   */\n      dup4\n        /* \"#utility.yul\":6025:6027   */\n      0x40\n        /* \"#utility.yul\":6014:6023   */\n      dup4\n        /* \"#utility.yul\":6010:6028   */\n      add\n        /* \"#utility.yul\":6003:6037   */\n      mstore\n        /* \"#utility.yul\":6073:6076   */\n      0x80\n        /* \"#utility.yul\":6068:6070   */\n      0x60\n        /* \"#utility.yul\":6057:6066   */\n      dup4\n        /* \"#utility.yul\":6053:6071   */\n      add\n        /* \"#utility.yul\":6046:6077   */\n      mstore\n        /* \"#utility.yul\":6094:6139   */\n      tag_478\n        /* \"#utility.yul\":6134:6137   */\n      0x80\n        /* \"#utility.yul\":6123:6132   */\n      dup4\n        /* \"#utility.yul\":6119:6138   */\n      add\n        /* \"#utility.yul\":6111:6117   */\n      dup5\n        /* \"#utility.yul\":6094:6139   */\n      tag_468\n      jump\t// in\n    tag_478:\n        /* \"#utility.yul\":6086:6139   */\n      swap7\n        /* \"#utility.yul\":5837:6145   */\n      swap6\n      pop\n      pop\n      pop\n      pop\n      pop\n      pop\n      jump\t// out\n        /* \"#utility.yul\":6652:6871   */\n    tag_45:\n        /* \"#utility.yul\":6801:6803   */\n      0x20\n        /* \"#utility.yul\":6790:6799   */\n      dup2\n        /* \"#utility.yul\":6783:6804   */\n      mstore\n        /* \"#utility.yul\":6764:6768   */\n      0x00\n        /* \"#utility.yul\":6821:6865   */\n      tag_269\n        /* \"#utility.yul\":6861:6863   */\n      0x20\n        /* \"#utility.yul\":6850:6859   */\n      dup4\n        /* \"#utility.yul\":6846:6864   */\n      add\n        /* \"#utility.yul\":6838:6844   */\n      dup5\n        /* \"#utility.yul\":6821:6865   */\n      tag_468\n      jump\t// in\n        /* \"#utility.yul\":6876:8185   */\n    tag_222:\n        /* \"#utility.yul\":6985:6989   */\n      0x00\n        /* \"#utility.yul\":7014:7016   */\n      0x20\n        /* \"#utility.yul\":7043:7045   */\n      dup1\n        /* \"#utility.yul\":7032:7041   */\n      dup4\n        /* \"#utility.yul\":7025:7046   */\n      mstore\n        /* \"#utility.yul\":7066:7070   */\n      dup2\n        /* \"#utility.yul\":7102:7108   */\n      dup5\n        /* \"#utility.yul\":7096:7109   */\n      sload\n        /* \"#utility.yul\":7132:7136   */\n      dup4\n        /* \"#utility.yul\":7155:7156   */\n      0x01\n        /* \"#utility.yul\":7183:7192   */\n      dup3\n        /* \"#utility.yul\":7179:7181   */\n      dup2\n        /* \"#utility.yul\":7175:7193   */\n      shr\n        /* \"#utility.yul\":7165:7193   */\n      swap2\n      pop\n        /* \"#utility.yul\":7243:7245   */\n      dup1\n        /* \"#utility.yul\":7232:7241   */\n      dup4\n        /* \"#utility.yul\":7228:7246   */\n      and\n        /* \"#utility.yul\":7265:7283   */\n      dup1\n        /* \"#utility.yul\":7255:7257   */\n      tag_484\n      jumpi\n        /* \"#utility.yul\":7309:7313   */\n      0x7f\n        /* \"#utility.yul\":7301:7307   */\n      dup4\n        /* \"#utility.yul\":7297:7314   */\n      and\n        /* \"#utility.yul\":7287:7314   */\n      swap3\n      pop\n        /* \"#utility.yul\":7255:7257   */\n    tag_484:\n        /* \"#utility.yul\":7362:7364   */\n      dup6\n        /* \"#utility.yul\":7354:7360   */\n      dup4\n        /* \"#utility.yul\":7351:7365   */\n      lt\n        /* \"#utility.yul\":7331:7349   */\n      dup2\n        /* \"#utility.yul\":7328:7366   */\n      eq\n        /* \"#utility.yul\":7325:7327   */\n      iszero\n      tag_485\n      jumpi\n        /* \"#utility.yul\":7402:7479   */\n      0x4e487b7100000000000000000000000000000000000000000000000000000000\n        /* \"#utility.yul\":7396:7400   */\n      dup8\n        /* \"#utility.yul\":7389:7480   */\n      mstore\n        /* \"#utility.yul\":7503:7507   */\n      0x22\n        /* \"#utility.yul\":7500:7501   */\n      0x04\n        /* \"#utility.yul\":7493:7508   */\n      mstore\n        /* \"#utility.yul\":7534:7538   */\n      0x24\n        /* \"#utility.yul\":7528:7532   */\n      dup8\n        /* \"#utility.yul\":7521:7539   */\n      revert\n        /* \"#utility.yul\":7325:7327   */\n    tag_485:\n        /* \"#utility.yul\":7604:7622   */\n      dup8\n      dup7\n      add\n        /* \"#utility.yul\":14364:14383   */\n      dup4\n      dup2\n      mstore\n        /* \"#utility.yul\":14416:14420   */\n      0x20\n        /* \"#utility.yul\":14407:14421   */\n      add\n        /* \"#utility.yul\":7647:7665   */\n      dup2\n        /* \"#utility.yul\":7674:7832   */\n      dup1\n      iszero\n      tag_489\n      jumpi\n        /* \"#utility.yul\":7846:7847   */\n      0x01\n        /* \"#utility.yul\":7841:8159   */\n      dup2\n      eq\n      tag_490\n      jumpi\n        /* \"#utility.yul\":7640:8159   */\n      jump(tag_488)\n        /* \"#utility.yul\":7674:7832   */\n    tag_489:\n        /* \"#utility.yul\":7722:7788   */\n      0xffffffffffffffffffffffffffffffffffffffffffffffffffffffffffffff00\n        /* \"#utility.yul\":7711:7720   */\n      dup7\n        /* \"#utility.yul\":7707:7789   */\n      and\n        /* \"#utility.yul\":7702:7705   */\n      dup3\n        /* \"#utility.yul\":7695:7790   */\n      mstore\n        /* \"#utility.yul\":7819:7821   */\n      dup8\n        /* \"#utility.yul\":7814:7817   */\n      dup3\n        /* \"#utility.yul\":7810:7822   */\n      add\n        /* \"#utility.yul\":7803:7822   */\n      swap7\n      pop\n        /* \"#utility.yul\":7674:7832   */\n      jump(tag_488)\n        /* \"#utility.yul\":7841:8159   */\n    tag_490:\n        /* \"#utility.yul\":14193:14197   */\n      0x00\n        /* \"#utility.yul\":14212:14229   */\n      dup12\n      dup2\n      mstore\n        /* \"#utility.yul\":14262:14266   */\n      0x20\n        /* \"#utility.yul\":14246:14267   */\n      swap1\n      keccak256\n        /* \"#utility.yul\":7936:7940   */\n      dup10\n        /* \"#utility.yul\":7953:8118   */\n    tag_493:\n        /* \"#utility.yul\":7967:7973   */\n      dup7\n        /* \"#utility.yul\":7964:7965   */\n      dup2\n        /* \"#utility.yul\":7961:7974   */\n      lt\n        /* \"#utility.yul\":7953:8118   */\n      iszero\n      tag_495\n      jumpi\n        /* \"#utility.yul\":8045:8059   */\n      dup2\n      sload\n        /* \"#utility.yul\":8032:8043   */\n      dup5\n      dup3\n      add\n        /* \"#utility.yul\":8025:8060   */\n      mstore\n        /* \"#utility.yul\":8088:8104   */\n      swap1\n      dup6\n      add\n      swap1\n        /* \"#utility.yul\":7982:7992   */\n      dup10\n      add\n        /* \"#utility.yul\":7953:8118   */\n      jump(tag_493)\n    tag_495:\n        /* \"#utility.yul\":8138:8149   */\n      dup4\n      add\n      swap8\n      pop\n      pop\n        /* \"#utility.yul\":7640:8159   */\n    tag_488:\n      pop\n        /* \"#utility.yul\":8176:8179   */\n      swap5\n      swap10\n        /* \"#utility.yul\":6994:8185   */\n      swap9\n      pop\n      pop\n      pop\n      pop\n      pop\n      pop\n      pop\n      pop\n      pop\n      jump\t// out\n        /* \"#utility.yul\":14432:14560   */\n    tag_348:\n        /* \"#utility.yul\":14472:14475   */\n      0x00\n        /* \"#utility.yul\":14503:14504   */\n      dup3\n        /* \"#utility.yul\":14499:14505   */\n      not\n        /* \"#utility.yul\":14496:14497   */\n      dup3\n        /* \"#utility.yul\":14493:14506   */\n      gt\n        /* \"#utility.yul\":14490:14492   */\n      iszero\n      tag_516\n      jumpi\n        /* \"#utility.yul\":14509:14527   */\n      tag_516\n      tag_517\n      jump\t// in\n    tag_516:\n      pop\n        /* \"#utility.yul\":14545:14554   */\n      add\n      swap1\n        /* \"#utility.yul\":14480:14560   */\n      jump\t// out\n        /* \"#utility.yul\":14565:14685   */\n    tag_339:\n        /* \"#utility.yul\":14605:14606   */\n      0x00\n        /* \"#utility.yul\":14631:14632   */\n      dup3\n        /* \"#utility.yul\":14621:14623   */\n      tag_520\n      jumpi\n        /* \"#utility.yul\":14636:14654   */\n      tag_520\n      tag_521\n      jump\t// in\n    tag_520:\n      pop\n        /* \"#utility.yul\":14670:14679   */\n      div\n      swap1\n        /* \"#utility.yul\":14611:14685   */\n      jump\t// out\n        /* \"#utility.yul\":14690:14815   */\n    tag_311:\n        /* \"#utility.yul\":14730:14734   */\n      0x00\n        /* \"#utility.yul\":14758:14759   */\n      dup3\n        /* \"#utility.yul\":14755:14756   */\n      dup3\n        /* \"#utility.yul\":14752:14760   */\n      lt\n        /* \"#utility.yul\":14749:14751   */\n      iszero\n      tag_524\n      jumpi\n        /* \"#utility.yul\":14763:14781   */\n      tag_524\n      tag_517\n      jump\t// in\n    tag_524:\n      pop\n        /* \"#utility.yul\":14800:14809   */\n      sub\n      swap1\n        /* \"#utility.yul\":14739:14815   */\n      jump\t// out\n        /* \"#utility.yul\":14820:15078   */\n    tag_471:\n        /* \"#utility.yul\":14892:14893   */\n      0x00\n        /* \"#utility.yul\":14902:15015   */\n    tag_526:\n        /* \"#utility.yul\":14916:14922   */\n      dup4\n        /* \"#utility.yul\":14913:14914   */\n      dup2\n        /* \"#utility.yul\":14910:14923   */\n      lt\n        /* \"#utility.yul\":14902:15015   */\n      iszero\n      tag_528\n      jumpi\n        /* \"#utility.yul\":14992:15003   */\n      dup2\n      dup2\n      add\n        /* \"#utility.yul\":14986:15004   */\n      mload\n        /* \"#utility.yul\":14973:14984   */\n      dup4\n      dup3\n      add\n        /* \"#utility.yul\":14966:15005   */\n      mstore\n        /* \"#utility.yul\":14938:14940   */\n      0x20\n        /* \"#utility.yul\":14931:14941   */\n      add\n        /* \"#utility.yul\":14902:15015   */\n      jump(tag_526)\n    tag_528:\n        /* \"#utility.yul\":15033:15039   */\n      dup4\n        /* \"#utility.yul\":15030:15031   */\n      dup2\n        /* \"#utility.yul\":15027:15040   */\n      gt\n        /* \"#utility.yul\":15024:15026   */\n      iszero\n      tag_261\n      jumpi\n      pop\n      pop\n        /* \"#utility.yul\":15068:15069   */\n      0x00\n        /* \"#utility.yul\":15050:15066   */\n      swap2\n      add\n        /* \"#utility.yul\":15043:15070   */\n      mstore\n        /* \"#utility.yul\":14873:15078   */\n      jump\t// out\n        /* \"#utility.yul\":15083:15279   */\n    tag_206:\n        /* \"#utility.yul\":15122:15125   */\n      0x00\n        /* \"#utility.yul\":15150:15155   */\n      dup2\n        /* \"#utility.yul\":15140:15142   */\n      tag_532\n      jumpi\n        /* \"#utility.yul\":15159:15177   */\n      tag_532\n      tag_517\n      jump\t// in\n    tag_532:\n      pop\n        /* \"#utility.yul\":15206:15272   */\n      0xffffffffffffffffffffffffffffffffffffffffffffffffffffffffffffffff\n        /* \"#utility.yul\":15195:15273   */\n      add\n      swap1\n        /* \"#utility.yul\":15130:15279   */\n      jump\t// out\n        /* \"#utility.yul\":15284:15721   */\n    tag_141:\n        /* \"#utility.yul\":15363:15364   */\n      0x01\n        /* \"#utility.yul\":15359:15371   */\n      dup2\n      dup2\n      shr\n      swap1\n        /* \"#utility.yul\":15406:15418   */\n      dup3\n      and\n      dup1\n        /* \"#utility.yul\":15427:15429   */\n      tag_534\n      jumpi\n        /* \"#utility.yul\":15481:15485   */\n      0x7f\n        /* \"#utility.yul\":15473:15479   */\n      dup3\n        /* \"#utility.yul\":15469:15486   */\n      and\n        /* \"#utility.yul\":15459:15486   */\n      swap2\n      pop\n        /* \"#utility.yul\":15427:15429   */\n    tag_534:\n        /* \"#utility.yul\":15534:15536   */\n      0x20\n        /* \"#utility.yul\":15526:15532   */\n      dup3\n        /* \"#utility.yul\":15523:15537   */\n      lt\n        /* \"#utility.yul\":15503:15521   */\n      dup2\n        /* \"#utility.yul\":15500:15538   */\n      eq\n        /* \"#utility.yul\":15497:15499   */\n      iszero\n      tag_535\n      jumpi\n        /* \"#utility.yul\":15571:15648   */\n      0x4e487b7100000000000000000000000000000000000000000000000000000000\n        /* \"#utility.yul\":15568:15569   */\n      0x00\n        /* \"#utility.yul\":15561:15649   */\n      mstore\n        /* \"#utility.yul\":15672:15676   */\n      0x22\n        /* \"#utility.yul\":15669:15670   */\n      0x04\n        /* \"#utility.yul\":15662:15677   */\n      mstore\n        /* \"#utility.yul\":15700:15704   */\n      0x24\n        /* \"#utility.yul\":15697:15698   */\n      0x00\n        /* \"#utility.yul\":15690:15705   */\n      revert\n        /* \"#utility.yul\":15497:15499   */\n    tag_535:\n      pop\n        /* \"#utility.yul\":15339:15721   */\n      swap2\n      swap1\n      pop\n      jump\t// out\n        /* \"#utility.yul\":15726:15921   */\n    tag_190:\n        /* \"#utility.yul\":15765:15768   */\n      0x00\n        /* \"#utility.yul\":15796:15862   */\n      0xffffffffffffffffffffffffffffffffffffffffffffffffffffffffffffffff\n        /* \"#utility.yul\":15789:15794   */\n      dup3\n        /* \"#utility.yul\":15786:15863   */\n      eq\n        /* \"#utility.yul\":15783:15785   */\n      iszero\n      tag_538\n      jumpi\n        /* \"#utility.yul\":15866:15884   */\n      tag_538\n      tag_517\n      jump\t// in\n    tag_538:\n      pop\n        /* \"#utility.yul\":15913:15914   */\n      0x01\n        /* \"#utility.yul\":15902:15915   */\n      add\n      swap1\n        /* \"#utility.yul\":15773:15921   */\n      jump\t// out\n        /* \"#utility.yul\":15926:16038   */\n    tag_346:\n        /* \"#utility.yul\":15958:15959   */\n      0x00\n        /* \"#utility.yul\":15984:15985   */\n      dup3\n        /* \"#utility.yul\":15974:15976   */\n      tag_541\n      jumpi\n        /* \"#utility.yul\":15989:16007   */\n      tag_541\n      tag_521\n      jump\t// in\n    tag_541:\n      pop\n        /* \"#utility.yul\":16023:16032   */\n      mod\n      swap1\n        /* \"#utility.yul\":15964:16038   */\n      jump\t// out\n        /* \"#utility.yul\":16043:16227   */\n    tag_517:\n        /* \"#utility.yul\":16095:16172   */\n      0x4e487b7100000000000000000000000000000000000000000000000000000000\n        /* \"#utility.yul\":16092:16093   */\n      0x00\n        /* \"#utility.yul\":16085:16173   */\n      mstore\n        /* \"#utility.yul\":16192:16196   */\n      0x11\n        /* \"#utility.yul\":16189:16190   */\n      0x04\n        /* \"#utility.yul\":16182:16197   */\n      mstore\n        /* \"#utility.yul\":16216:16220   */\n      0x24\n        /* \"#utility.yul\":16213:16214   */\n      0x00\n        /* \"#utility.yul\":16206:16221   */\n      revert\n        /* \"#utility.yul\":16232:16416   */\n    tag_521:\n        /* \"#utility.yul\":16284:16361   */\n      0x4e487b7100000000000000000000000000000000000000000000000000000000\n        /* \"#utility.yul\":16281:16282   */\n      0x00\n        /* \"#utility.yul\":16274:16362   */\n      mstore\n        /* \"#utility.yul\":16381:16385   */\n      0x12\n        /* \"#utility.yul\":16378:16379   */\n      0x04\n        /* \"#utility.yul\":16371:16386   */\n      mstore\n        /* \"#utility.yul\":16405:16409   */\n      0x24\n        /* \"#utility.yul\":16402:16403   */\n      0x00\n        /* \"#utility.yul\":16395:16410   */\n      revert\n        /* \"#utility.yul\":16421:16605   */\n    tag_422:\n        /* \"#utility.yul\":16473:16550   */\n      0x4e487b7100000000000000000000000000000000000000000000000000000000\n        /* \"#utility.yul\":16470:16471   */\n      0x00\n        /* \"#utility.yul\":16463:16551   */\n      mstore\n        /* \"#utility.yul\":16570:16574   */\n      0x41\n        /* \"#utility.yul\":16567:16568   */\n      0x04\n        /* \"#utility.yul\":16560:16575   */\n      mstore\n        /* \"#utility.yul\":16594:16598   */\n      0x24\n        /* \"#utility.yul\":16591:16592   */\n      0x00\n        /* \"#utility.yul\":16584:16599   */\n      revert\n        /* \"#utility.yul\":16610:16787   */\n    tag_457:\n        /* \"#utility.yul\":16695:16761   */\n      0xffffffff00000000000000000000000000000000000000000000000000000000\n        /* \"#utility.yul\":16688:16693   */\n      dup2\n        /* \"#utility.yul\":16684:16762   */\n      and\n        /* \"#utility.yul\":16677:16682   */\n      dup2\n        /* \"#utility.yul\":16674:16763   */\n      eq\n        /* \"#utility.yul\":16664:16666   */\n      tag_196\n      jumpi\n        /* \"#utility.yul\":16777:16778   */\n      0x00\n        /* \"#utility.yul\":16774:16775   */\n      dup1\n        /* \"#utility.yul\":16767:16779   */\n      revert\n\n    auxdata: 0xa26469706673582212202ac5ac271e2ef879035ded3c422479ba1fc893742b6f0b0d00604a526fb887b564736f6c63430008040033\n}\n",
				"bytecode": {
					"linkReferences": {},
					"object": "60806040523480156200001157600080fd5b50604051620029c0380380620029c0833981016040819052620000349162000273565b8151829082906200004d9060009060208501906200011a565b508051620000639060019060208401906200011a565b5050600980546001600160a01b03191633908117909155620000889150600162000090565b50506200032d565b6009546001600160a01b03163314620000ef5760405162461bcd60e51b815260206004820181905260248201527f4f776e61626c653a2063616c6c6572206973206e6f7420746865206f776e6572604482015260640160405180910390fd5b6001600160a01b03919091166000908152600a60205260409020805460ff1916911515919091179055565b8280546200012890620002da565b90600052602060002090601f0160209004810192826200014c576000855562000197565b82601f106200016757805160ff191683800117855562000197565b8280016001018555821562000197579182015b82811115620001975782518255916020019190600101906200017a565b50620001a5929150620001a9565b5090565b5b80821115620001a55760008155600101620001aa565b600082601f830112620001d1578081fd5b81516001600160401b0380821115620001ee57620001ee62000317565b604051601f8301601f19908116603f0116810190828211818310171562000219576200021962000317565b8160405283815260209250868385880101111562000235578485fd5b8491505b8382101562000258578582018301518183018401529082019062000239565b838211156200026957848385830101525b9695505050505050565b6000806040838503121562000286578182fd5b82516001600160401b03808211156200029d578384fd5b620002ab86838701620001c0565b93506020850151915080821115620002c1578283fd5b50620002d085828601620001c0565b9150509250929050565b600181811c90821680620002ef57607f821691505b602082108114156200031157634e487b7160e01b600052602260045260246000fd5b50919050565b634e487b7160e01b600052604160045260246000fd5b612683806200033d6000396000f3fe608060405234801561001057600080fd5b50600436106101ae5760003560e01c806370a08231116100ee578063b88d4fde11610097578063c87b56dd11610071578063c87b56dd14610384578063e985e9c514610397578063f2fde38b146103e0578063f3ae2415146103f357600080fd5b8063b88d4fde14610349578063be88bb101461035c578063c4e41b221461037c57600080fd5b806395d89b41116100c857806395d89b411461031b578063a22cb46514610323578063a5e90eee1461033657600080fd5b806370a08231146102e157806375794a3c146102f45780638da5cb5b146102fd57600080fd5b80633576622a1161015b57806342966c681161013557806342966c68146102a057806355f804b3146102b35780636352211e146102c65780636c0360eb146102d957600080fd5b80633576622a1461026757806340d097c31461027a57806342842e0e1461028d57600080fd5b8063095ea7b31161018c578063095ea7b31461022857806318160ddd1461023d57806323b872dd1461025457600080fd5b806301ffc9a7146101b357806306fdde03146101db578063081812fc146101f0575b600080fd5b6101c66101c1366004612205565b610416565b60405190151581526020015b60405180910390f35b6101e36104fb565b6040516101d2919061235d565b6102036101fe366004612283565b61058d565b60405173ffffffffffffffffffffffffffffffffffffffff90911681526020016101d2565b61023b6102363660046121dc565b6105c1565b005b610246600c5481565b6040519081526020016101d2565b61023b6102623660046120ee565b610753565b61023b6102753660046120a2565b610879565b61023b6102883660046120a2565b610941565b61023b61029b3660046120ee565b610a7f565b61023b6102ae366004612283565b610a9a565b61023b6102c136600461223d565b610bc9565b6102036102d4366004612283565b610c99565b6101e3610d25565b6102466102ef3660046120a2565b610d34565b61024660085481565b60095473ffffffffffffffffffffffffffffffffffffffff16610203565b6101e3610e02565b61023b6103313660046121a2565b610e11565b61023b6103443660046121a2565b610e20565b61023b610357366004612129565b610ef7565b600d546102039073ffffffffffffffffffffffffffffffffffffffff1681565b600c54610246565b6101e3610392366004612283565b610f9f565b6101c66103a53660046120bc565b73ffffffffffffffffffffffffffffffffffffffff918216600090815260056020908152604080832093909416825291909152205460ff1690565b61023b6103ee3660046120a2565b611013565b6101c66104013660046120a2565b600a6020526000908152604090205460ff1681565b60007fffffffff0000000000000000000000000000000000000000000000000000000082167f80ac58cd0000000000000000000000000000000000000000000000000000000014806104a957507fffffffff0000000000000000000000000000000000000000000000000000000082167f5b5e139f00000000000000000000000000000000000000000000000000000000145b806104f557507f01ffc9a7000000000000000000000000000000000000000000000000000000007fffffffff000000000000000000000000000000000000000000000000000000008316145b92915050565b60606000805461050a906124f1565b80601f0160208091040260200160405190810160405280929190818152602001828054610536906124f1565b80156105835780601f1061055857610100808354040283529160200191610583565b820191906000526020600020905b81548152906001019060200180831161056657829003601f168201915b5050505050905090565b6000610598826111bd565b5060009081526004602052604090205473ffffffffffffffffffffffffffffffffffffffff1690565b60006105cc82610c99565b90508073ffffffffffffffffffffffffffffffffffffffff168373ffffffffffffffffffffffffffffffffffffffff16141561068f576040517f08c379a000000000000000000000000000000000000000000000000000000000815260206004820152602160248201527f4552433732313a20617070726f76616c20746f2063757272656e74206f776e6560448201527f720000000000000000000000000000000000000000000000000000000000000060648201526084015b60405180910390fd5b3373ffffffffffffffffffffffffffffffffffffffff821614806106b857506106b881336103a5565b610744576040517f08c379a000000000000000000000000000000000000000000000000000000000815260206004820152603e60248201527f4552433732313a20617070726f76652063616c6c6572206973206e6f7420746f60448201527f6b656e206f776e6572206e6f7220617070726f76656420666f7220616c6c00006064820152608401610686565b61074e8383611248565b505050565b600d546040517ff3fef3a300000000000000000000000000000000000000000000000000000000815273ffffffffffffffffffffffffffffffffffffffff8581166004830152600160248301529091169063f3fef3a390604401600060405180830381600087803b1580156107c757600080fd5b505af11580156107db573d6000803e3d6000fd5b5050600d546040517fadc9772e00000000000000000000000000000000000000000000000000000000815273ffffffffffffffffffffffffffffffffffffffff868116600483015260016024830152909116925063adc9772e9150604401600060405180830381600087803b15801561085357600080fd5b505af1158015610867573d6000803e3d6000fd5b5061074e9250859150849050836112e8565b60095473ffffffffffffffffffffffffffffffffffffffff1633146108fa576040517f08c379a000000000000000000000000000000000000000000000000000000000815260206004820181905260248201527f4f776e61626c653a2063616c6c6572206973206e6f7420746865206f776e65726044820152606401610686565b600d80547fffffffffffffffffffffffff00000000000000000000000000000000000000001673ffffffffffffffffffffffffffffffffffffffff92909216919091179055565b336000908152600a602052604090205460ff166109ba576040517f08c379a000000000000000000000000000000000000000000000000000000000815260206004820152600b60248201527f4e6f74206d616e616765720000000000000000000000000000000000000000006044820152606401610686565b600880549060006109ca83612545565b9091555050600c80549060006109df83612545565b9091555050600d546040517fadc9772e00000000000000000000000000000000000000000000000000000000815273ffffffffffffffffffffffffffffffffffffffff8381166004830152600160248301529091169063adc9772e90604401600060405180830381600087803b158015610a5857600080fd5b505af1158015610a6c573d6000803e3d6000fd5b50505050610a7c81600854611389565b50565b61074e83838360405180602001604052806000815250610ef7565b33610aa482610c99565b73ffffffffffffffffffffffffffffffffffffffff1614610b21576040517f08c379a000000000000000000000000000000000000000000000000000000000815260206004820152601860248201527f796f7572206e6f7420617574686f72697a6564206275726e00000000000000006044820152606401610686565b600c8054906000610b31836124bc565b9091555050600d546040517ff3fef3a30000000000000000000000000000000000000000000000000000000081523360048201526001602482015273ffffffffffffffffffffffffffffffffffffffff9091169063f3fef3a390604401600060405180830381600087803b158015610ba857600080fd5b505af1158015610bbc573d6000803e3d6000fd5b50505050610a7c816113a3565b60095473ffffffffffffffffffffffffffffffffffffffff163314610c4a576040517f08c379a000000000000000000000000000000000000000000000000000000000815260206004820181905260248201527f4f776e61626c653a2063616c6c6572206973206e6f7420746865206f776e65726044820152606401610686565b8051610c5d90600b906020840190611f4c565b507ff9c7803e94e0d3c02900d8a90893a6d5e90dd04d32a4cfe825520f82bf9f32f6600b604051610c8e9190612370565b60405180910390a150565b60008181526002602052604081205473ffffffffffffffffffffffffffffffffffffffff16806104f5576040517f08c379a000000000000000000000000000000000000000000000000000000000815260206004820152601860248201527f4552433732313a20696e76616c696420746f6b656e20494400000000000000006044820152606401610686565b6060600b805461050a906124f1565b600073ffffffffffffffffffffffffffffffffffffffff8216610dd9576040517f08c379a000000000000000000000000000000000000000000000000000000000815260206004820152602960248201527f4552433732313a2061646472657373207a65726f206973206e6f74206120766160448201527f6c6964206f776e657200000000000000000000000000000000000000000000006064820152608401610686565b5073ffffffffffffffffffffffffffffffffffffffff1660009081526003602052604090205490565b60606001805461050a906124f1565b610e1c338383611470565b5050565b60095473ffffffffffffffffffffffffffffffffffffffff163314610ea1576040517f08c379a000000000000000000000000000000000000000000000000000000000815260206004820181905260248201527f4f776e61626c653a2063616c6c6572206973206e6f7420746865206f776e65726044820152606401610686565b73ffffffffffffffffffffffffffffffffffffffff919091166000908152600a6020526040902080547fffffffffffffffffffffffffffffffffffffffffffffffffffffffffffffff0016911515919091179055565b610f01338361159e565b610f8d576040517f08c379a000000000000000000000000000000000000000000000000000000000815260206004820152602e60248201527f4552433732313a2063616c6c6572206973206e6f7420746f6b656e206f776e6560448201527f72206e6f7220617070726f7665640000000000000000000000000000000000006064820152608401610686565b610f998484848461165e565b50505050565b6060610faa826111bd565b6000610fc160408051602081019091526000815290565b90506000815111610fe1576040518060200160405280600081525061100c565b80610feb84611701565b604051602001610ffc9291906122e5565b6040516020818303038152906040525b9392505050565b60095473ffffffffffffffffffffffffffffffffffffffff163314611094576040517f08c379a000000000000000000000000000000000000000000000000000000000815260206004820181905260248201527f4f776e61626c653a2063616c6c6572206973206e6f7420746865206f776e65726044820152606401610686565b73ffffffffffffffffffffffffffffffffffffffff8116611137576040517f08c379a000000000000000000000000000000000000000000000000000000000815260206004820152602660248201527f4f776e61626c653a206e6577206f776e657220697320746865207a65726f206160448201527f64647265737300000000000000000000000000000000000000000000000000006064820152608401610686565b6009805473ffffffffffffffffffffffffffffffffffffffff8381167fffffffffffffffffffffffff000000000000000000000000000000000000000083168117909355604080519190921680825260208201939093527f8be0079c531659141344cd1fd0a4f28419497f9722a3daafe3b4186f6b6457e0910160405180910390a15050565b60008181526002602052604090205473ffffffffffffffffffffffffffffffffffffffff16610a7c576040517f08c379a000000000000000000000000000000000000000000000000000000000815260206004820152601860248201527f4552433732313a20696e76616c696420746f6b656e20494400000000000000006044820152606401610686565b600081815260046020526040902080547fffffffffffffffffffffffff00000000000000000000000000000000000000001673ffffffffffffffffffffffffffffffffffffffff841690811790915581906112a282610c99565b73ffffffffffffffffffffffffffffffffffffffff167f8c5be1e5ebec7d5bd14f71427d1e84f3dd0314c0f7b2291e5b200ac8c7c3b92560405160405180910390a45050565b6112f2338261159e565b61137e576040517f08c379a000000000000000000000000000000000000000000000000000000000815260206004820152602e60248201527f4552433732313a2063616c6c6572206973206e6f7420746f6b656e206f776e6560448201527f72206e6f7220617070726f7665640000000000000000000000000000000000006064820152608401610686565b61074e838383611881565b610e1c828260405180602001604052806000815250611ae8565b60006113ae82610c99565b90506113bb600083611248565b73ffffffffffffffffffffffffffffffffffffffff811660009081526003602052604081208054600192906113f1908490612479565b909155505060008281526002602052604080822080547fffffffffffffffffffffffff00000000000000000000000000000000000000001690555183919073ffffffffffffffffffffffffffffffffffffffff8416907fddf252ad1be2c89b69c2b068fc378daa952ba7f163c4a11628f55a4df523b3ef908390a45050565b8173ffffffffffffffffffffffffffffffffffffffff168373ffffffffffffffffffffffffffffffffffffffff161415611506576040517f08c379a000000000000000000000000000000000000000000000000000000000815260206004820152601960248201527f4552433732313a20617070726f766520746f2063616c6c6572000000000000006044820152606401610686565b73ffffffffffffffffffffffffffffffffffffffff83811660008181526005602090815260408083209487168084529482529182902080547fffffffffffffffffffffffffffffffffffffffffffffffffffffffffffffff001686151590811790915591519182527f17307eab39ab6107e8899845ad3d59bd9653f200f220920489ca2b5937696c31910160405180910390a3505050565b6000806115aa83610c99565b90508073ffffffffffffffffffffffffffffffffffffffff168473ffffffffffffffffffffffffffffffffffffffff161480611618575073ffffffffffffffffffffffffffffffffffffffff80821660009081526005602090815260408083209388168352929052205460ff165b8061165657508373ffffffffffffffffffffffffffffffffffffffff1661163e8461058d565b73ffffffffffffffffffffffffffffffffffffffff16145b949350505050565b611669848484611881565b61167584848484611b8b565b610f99576040517f08c379a000000000000000000000000000000000000000000000000000000000815260206004820152603260248201527f4552433732313a207472616e7366657220746f206e6f6e20455243373231526560448201527f63656976657220696d706c656d656e74657200000000000000000000000000006064820152608401610686565b60608161174157505060408051808201909152600181527f3000000000000000000000000000000000000000000000000000000000000000602082015290565b8160005b811561176b578061175581612545565b91506117649050600a83612465565b9150611745565b60008167ffffffffffffffff8111156117ad577f4e487b7100000000000000000000000000000000000000000000000000000000600052604160045260246000fd5b6040519080825280601f01601f1916602001820160405280156117d7576020820181803683370190505b5090505b8415611656576117ec600183612479565b91506117f9600a8661257e565b61180490603061244d565b60f81b818381518110611840577f4e487b7100000000000000000000000000000000000000000000000000000000600052603260045260246000fd5b60200101907effffffffffffffffffffffffffffffffffffffffffffffffffffffffffffff1916908160001a90535061187a600a86612465565b94506117db565b8273ffffffffffffffffffffffffffffffffffffffff166118a182610c99565b73ffffffffffffffffffffffffffffffffffffffff1614611944576040517f08c379a000000000000000000000000000000000000000000000000000000000815260206004820152602560248201527f4552433732313a207472616e736665722066726f6d20696e636f72726563742060448201527f6f776e65720000000000000000000000000000000000000000000000000000006064820152608401610686565b73ffffffffffffffffffffffffffffffffffffffff82166119e6576040517f08c379a0000000000000000000000000000000000000000000000000000000008152602060048201526024808201527f4552433732313a207472616e7366657220746f20746865207a65726f2061646460448201527f72657373000000000000000000000000000000000000000000000000000000006064820152608401610686565b6119f1600082611248565b73ffffffffffffffffffffffffffffffffffffffff83166000908152600360205260408120805460019290611a27908490612479565b909155505073ffffffffffffffffffffffffffffffffffffffff82166000908152600360205260408120805460019290611a6290849061244d565b909155505060008181526002602052604080822080547fffffffffffffffffffffffff00000000000000000000000000000000000000001673ffffffffffffffffffffffffffffffffffffffff86811691821790925591518493918716917fddf252ad1be2c89b69c2b068fc378daa952ba7f163c4a11628f55a4df523b3ef91a4505050565b611af28383611d8a565b611aff6000848484611b8b565b61074e576040517f08c379a000000000000000000000000000000000000000000000000000000000815260206004820152603260248201527f4552433732313a207472616e7366657220746f206e6f6e20455243373231526560448201527f63656976657220696d706c656d656e74657200000000000000000000000000006064820152608401610686565b600073ffffffffffffffffffffffffffffffffffffffff84163b15611d7f576040517f150b7a0200000000000000000000000000000000000000000000000000000000815273ffffffffffffffffffffffffffffffffffffffff85169063150b7a0290611c02903390899088908890600401612314565b602060405180830381600087803b158015611c1c57600080fd5b505af1925050508015611c6a575060408051601f3d9081017fffffffffffffffffffffffffffffffffffffffffffffffffffffffffffffffe0168201909252611c6791810190612221565b60015b611d34573d808015611c98576040519150601f19603f3d011682016040523d82523d6000602084013e611c9d565b606091505b508051611d2c576040517f08c379a000000000000000000000000000000000000000000000000000000000815260206004820152603260248201527f4552433732313a207472616e7366657220746f206e6f6e20455243373231526560448201527f63656976657220696d706c656d656e74657200000000000000000000000000006064820152608401610686565b805181602001fd5b7fffffffff00000000000000000000000000000000000000000000000000000000167f150b7a0200000000000000000000000000000000000000000000000000000000149050611656565b506001949350505050565b73ffffffffffffffffffffffffffffffffffffffff8216611e07576040517f08c379a000000000000000000000000000000000000000000000000000000000815260206004820181905260248201527f4552433732313a206d696e7420746f20746865207a65726f20616464726573736044820152606401610686565b60008181526002602052604090205473ffffffffffffffffffffffffffffffffffffffff1615611e93576040517f08c379a000000000000000000000000000000000000000000000000000000000815260206004820152601c60248201527f4552433732313a20746f6b656e20616c7265616479206d696e746564000000006044820152606401610686565b73ffffffffffffffffffffffffffffffffffffffff82166000908152600360205260408120805460019290611ec990849061244d565b909155505060008181526002602052604080822080547fffffffffffffffffffffffff00000000000000000000000000000000000000001673ffffffffffffffffffffffffffffffffffffffff861690811790915590518392907fddf252ad1be2c89b69c2b068fc378daa952ba7f163c4a11628f55a4df523b3ef908290a45050565b828054611f58906124f1565b90600052602060002090601f016020900481019282611f7a5760008555611fc0565b82601f10611f9357805160ff1916838001178555611fc0565b82800160010185558215611fc0579182015b82811115611fc0578251825591602001919060010190611fa5565b50611fcc929150611fd0565b5090565b5b80821115611fcc5760008155600101611fd1565b600067ffffffffffffffff80841115612000576120006125f0565b604051601f85017fffffffffffffffffffffffffffffffffffffffffffffffffffffffffffffffe0908116603f01168101908282118183101715612046576120466125f0565b8160405280935085815286868601111561205f57600080fd5b858560208301376000602087830101525050509392505050565b803573ffffffffffffffffffffffffffffffffffffffff8116811461209d57600080fd5b919050565b6000602082840312156120b3578081fd5b61100c82612079565b600080604083850312156120ce578081fd5b6120d783612079565b91506120e560208401612079565b90509250929050565b600080600060608486031215612102578081fd5b61210b84612079565b925061211960208501612079565b9150604084013590509250925092565b6000806000806080858703121561213e578081fd5b61214785612079565b935061215560208601612079565b925060408501359150606085013567ffffffffffffffff811115612177578182fd5b8501601f81018713612187578182fd5b61219687823560208401611fe5565b91505092959194509250565b600080604083850312156121b4578182fd5b6121bd83612079565b9150602083013580151581146121d1578182fd5b809150509250929050565b600080604083850312156121ee578182fd5b6121f783612079565b946020939093013593505050565b600060208284031215612216578081fd5b813561100c8161261f565b600060208284031215612232578081fd5b815161100c8161261f565b60006020828403121561224e578081fd5b813567ffffffffffffffff811115612264578182fd5b8201601f81018413612274578182fd5b61165684823560208401611fe5565b600060208284031215612294578081fd5b5035919050565b600081518084526122b3816020860160208601612490565b601f017fffffffffffffffffffffffffffffffffffffffffffffffffffffffffffffffe0169290920160200192915050565b600083516122f7818460208801612490565b83519083019061230b818360208801612490565b01949350505050565b600073ffffffffffffffffffffffffffffffffffffffff808716835280861660208401525083604083015260806060830152612353608083018461229b565b9695505050505050565b60208152600061100c602083018461229b565b6000602080835281845483600182811c91508083168061239157607f831692505b8583108114156123c8577f4e487b710000000000000000000000000000000000000000000000000000000087526022600452602487fd5b8786018381526020018180156123e557600181146124145761243e565b7fffffffffffffffffffffffffffffffffffffffffffffffffffffffffffffff0086168252878201965061243e565b60008b815260209020895b868110156124385781548482015290850190890161241f565b83019750505b50949998505050505050505050565b6000821982111561246057612460612592565b500190565b600082612474576124746125c1565b500490565b60008282101561248b5761248b612592565b500390565b60005b838110156124ab578181015183820152602001612493565b83811115610f995750506000910152565b6000816124cb576124cb612592565b507fffffffffffffffffffffffffffffffffffffffffffffffffffffffffffffffff0190565b600181811c9082168061250557607f821691505b6020821081141561253f577f4e487b7100000000000000000000000000000000000000000000000000000000600052602260045260246000fd5b50919050565b60007fffffffffffffffffffffffffffffffffffffffffffffffffffffffffffffffff82141561257757612577612592565b5060010190565b60008261258d5761258d6125c1565b500690565b7f4e487b7100000000000000000000000000000000000000000000000000000000600052601160045260246000fd5b7f4e487b7100000000000000000000000000000000000000000000000000000000600052601260045260246000fd5b7f4e487b7100000000000000000000000000000000000000000000000000000000600052604160045260246000fd5b7fffffffff0000000000000000000000000000000000000000000000000000000081168114610a7c57600080fdfea26469706673582212202ac5ac271e2ef879035ded3c422479ba1fc893742b6f0b0d00604a526fb887b564736f6c63430008040033",
					"opcodes": "PUSH1 0x80 PUSH1 0x40 MSTORE CALLVALUE DUP1 ISZERO PUSH3 0x11 JUMPI PUSH1 0x0 DUP1 REVERT JUMPDEST POP PUSH1 0x40 MLOAD PUSH3 0x29C0 CODESIZE SUB DUP1 PUSH3 0x29C0 DUP4 CODECOPY DUP2 ADD PUSH1 0x40 DUP2 SWAP1 MSTORE PUSH3 0x34 SWAP2 PUSH3 0x273 JUMP JUMPDEST DUP2 MLOAD DUP3 SWAP1 DUP3 SWAP1 PUSH3 0x4D SWAP1 PUSH1 0x0 SWAP1 PUSH1 0x20 DUP6 ADD SWAP1 PUSH3 0x11A JUMP JUMPDEST POP DUP1 MLOAD PUSH3 0x63 SWAP1 PUSH1 0x1 SWAP1 PUSH1 0x20 DUP5 ADD SWAP1 PUSH3 0x11A JUMP JUMPDEST POP POP PUSH1 0x9 DUP1 SLOAD PUSH1 0x1 PUSH1 0x1 PUSH1 0xA0 SHL SUB NOT AND CALLER SWAP1 DUP2 OR SWAP1 SWAP2 SSTORE PUSH3 0x88 SWAP2 POP PUSH1 0x1 PUSH3 0x90 JUMP JUMPDEST POP POP PUSH3 0x32D JUMP JUMPDEST PUSH1 0x9 SLOAD PUSH1 0x1 PUSH1 0x1 PUSH1 0xA0 SHL SUB AND CALLER EQ PUSH3 0xEF JUMPI PUSH1 0x40 MLOAD PUSH3 0x461BCD PUSH1 0xE5 SHL DUP2 MSTORE PUSH1 0x20 PUSH1 0x4 DUP3 ADD DUP2 SWAP1 MSTORE PUSH1 0x24 DUP3 ADD MSTORE PUSH32 0x4F776E61626C653A2063616C6C6572206973206E6F7420746865206F776E6572 PUSH1 0x44 DUP3 ADD MSTORE PUSH1 0x64 ADD PUSH1 0x40 MLOAD DUP1 SWAP2 SUB SWAP1 REVERT JUMPDEST PUSH1 0x1 PUSH1 0x1 PUSH1 0xA0 SHL SUB SWAP2 SWAP1 SWAP2 AND PUSH1 0x0 SWAP1 DUP2 MSTORE PUSH1 0xA PUSH1 0x20 MSTORE PUSH1 0x40 SWAP1 KECCAK256 DUP1 SLOAD PUSH1 0xFF NOT AND SWAP2 ISZERO ISZERO SWAP2 SWAP1 SWAP2 OR SWAP1 SSTORE JUMP JUMPDEST DUP3 DUP1 SLOAD PUSH3 0x128 SWAP1 PUSH3 0x2DA JUMP JUMPDEST SWAP1 PUSH1 0x0 MSTORE PUSH1 0x20 PUSH1 0x0 KECCAK256 SWAP1 PUSH1 0x1F ADD PUSH1 0x20 SWAP1 DIV DUP2 ADD SWAP3 DUP3 PUSH3 0x14C JUMPI PUSH1 0x0 DUP6 SSTORE PUSH3 0x197 JUMP JUMPDEST DUP3 PUSH1 0x1F LT PUSH3 0x167 JUMPI DUP1 MLOAD PUSH1 0xFF NOT AND DUP4 DUP1 ADD OR DUP6 SSTORE PUSH3 0x197 JUMP JUMPDEST DUP3 DUP1 ADD PUSH1 0x1 ADD DUP6 SSTORE DUP3 ISZERO PUSH3 0x197 JUMPI SWAP2 DUP3 ADD JUMPDEST DUP3 DUP2 GT ISZERO PUSH3 0x197 JUMPI DUP3 MLOAD DUP3 SSTORE SWAP2 PUSH1 0x20 ADD SWAP2 SWAP1 PUSH1 0x1 ADD SWAP1 PUSH3 0x17A JUMP JUMPDEST POP PUSH3 0x1A5 SWAP3 SWAP2 POP PUSH3 0x1A9 JUMP JUMPDEST POP SWAP1 JUMP JUMPDEST JUMPDEST DUP1 DUP3 GT ISZERO PUSH3 0x1A5 JUMPI PUSH1 0x0 DUP2 SSTORE PUSH1 0x1 ADD PUSH3 0x1AA JUMP JUMPDEST PUSH1 0x0 DUP3 PUSH1 0x1F DUP4 ADD SLT PUSH3 0x1D1 JUMPI DUP1 DUP2 REVERT JUMPDEST DUP2 MLOAD PUSH1 0x1 PUSH1 0x1 PUSH1 0x40 SHL SUB DUP1 DUP3 GT ISZERO PUSH3 0x1EE JUMPI PUSH3 0x1EE PUSH3 0x317 JUMP JUMPDEST PUSH1 0x40 MLOAD PUSH1 0x1F DUP4 ADD PUSH1 0x1F NOT SWAP1 DUP2 AND PUSH1 0x3F ADD AND DUP2 ADD SWAP1 DUP3 DUP3 GT DUP2 DUP4 LT OR ISZERO PUSH3 0x219 JUMPI PUSH3 0x219 PUSH3 0x317 JUMP JUMPDEST DUP2 PUSH1 0x40 MSTORE DUP4 DUP2 MSTORE PUSH1 0x20 SWAP3 POP DUP7 DUP4 DUP6 DUP9 ADD ADD GT ISZERO PUSH3 0x235 JUMPI DUP5 DUP6 REVERT JUMPDEST DUP5 SWAP2 POP JUMPDEST DUP4 DUP3 LT ISZERO PUSH3 0x258 JUMPI DUP6 DUP3 ADD DUP4 ADD MLOAD DUP2 DUP4 ADD DUP5 ADD MSTORE SWAP1 DUP3 ADD SWAP1 PUSH3 0x239 JUMP JUMPDEST DUP4 DUP3 GT ISZERO PUSH3 0x269 JUMPI DUP5 DUP4 DUP6 DUP4 ADD ADD MSTORE JUMPDEST SWAP7 SWAP6 POP POP POP POP POP POP JUMP JUMPDEST PUSH1 0x0 DUP1 PUSH1 0x40 DUP4 DUP6 SUB SLT ISZERO PUSH3 0x286 JUMPI DUP2 DUP3 REVERT JUMPDEST DUP3 MLOAD PUSH1 0x1 PUSH1 0x1 PUSH1 0x40 SHL SUB DUP1 DUP3 GT ISZERO PUSH3 0x29D JUMPI DUP4 DUP5 REVERT JUMPDEST PUSH3 0x2AB DUP7 DUP4 DUP8 ADD PUSH3 0x1C0 JUMP JUMPDEST SWAP4 POP PUSH1 0x20 DUP6 ADD MLOAD SWAP2 POP DUP1 DUP3 GT ISZERO PUSH3 0x2C1 JUMPI DUP3 DUP4 REVERT JUMPDEST POP PUSH3 0x2D0 DUP6 DUP3 DUP7 ADD PUSH3 0x1C0 JUMP JUMPDEST SWAP2 POP POP SWAP3 POP SWAP3 SWAP1 POP JUMP JUMPDEST PUSH1 0x1 DUP2 DUP2 SHR SWAP1 DUP3 AND DUP1 PUSH3 0x2EF JUMPI PUSH1 0x7F DUP3 AND SWAP2 POP JUMPDEST PUSH1 0x20 DUP3 LT DUP2 EQ ISZERO PUSH3 0x311 JUMPI PUSH4 0x4E487B71 PUSH1 0xE0 SHL PUSH1 0x0 MSTORE PUSH1 0x22 PUSH1 0x4 MSTORE PUSH1 0x24 PUSH1 0x0 REVERT JUMPDEST POP SWAP2 SWAP1 POP JUMP JUMPDEST PUSH4 0x4E487B71 PUSH1 0xE0 SHL PUSH1 0x0 MSTORE PUSH1 0x41 PUSH1 0x4 MSTORE PUSH1 0x24 PUSH1 0x0 REVERT JUMPDEST PUSH2 0x2683 DUP1 PUSH3 0x33D PUSH1 0x0 CODECOPY PUSH1 0x0 RETURN INVALID PUSH1 0x80 PUSH1 0x40 MSTORE CALLVALUE DUP1 ISZERO PUSH2 0x10 JUMPI PUSH1 0x0 DUP1 REVERT JUMPDEST POP PUSH1 0x4 CALLDATASIZE LT PUSH2 0x1AE JUMPI PUSH1 0x0 CALLDATALOAD PUSH1 0xE0 SHR DUP1 PUSH4 0x70A08231 GT PUSH2 0xEE JUMPI DUP1 PUSH4 0xB88D4FDE GT PUSH2 0x97 JUMPI DUP1 PUSH4 0xC87B56DD GT PUSH2 0x71 JUMPI DUP1 PUSH4 0xC87B56DD EQ PUSH2 0x384 JUMPI DUP1 PUSH4 0xE985E9C5 EQ PUSH2 0x397 JUMPI DUP1 PUSH4 0xF2FDE38B EQ PUSH2 0x3E0 JUMPI DUP1 PUSH4 0xF3AE2415 EQ PUSH2 0x3F3 JUMPI PUSH1 0x0 DUP1 REVERT JUMPDEST DUP1 PUSH4 0xB88D4FDE EQ PUSH2 0x349 JUMPI DUP1 PUSH4 0xBE88BB10 EQ PUSH2 0x35C JUMPI DUP1 PUSH4 0xC4E41B22 EQ PUSH2 0x37C JUMPI PUSH1 0x0 DUP1 REVERT JUMPDEST DUP1 PUSH4 0x95D89B41 GT PUSH2 0xC8 JUMPI DUP1 PUSH4 0x95D89B41 EQ PUSH2 0x31B JUMPI DUP1 PUSH4 0xA22CB465 EQ PUSH2 0x323 JUMPI DUP1 PUSH4 0xA5E90EEE EQ PUSH2 0x336 JUMPI PUSH1 0x0 DUP1 REVERT JUMPDEST DUP1 PUSH4 0x70A08231 EQ PUSH2 0x2E1 JUMPI DUP1 PUSH4 0x75794A3C EQ PUSH2 0x2F4 JUMPI DUP1 PUSH4 0x8DA5CB5B EQ PUSH2 0x2FD JUMPI PUSH1 0x0 DUP1 REVERT JUMPDEST DUP1 PUSH4 0x3576622A GT PUSH2 0x15B JUMPI DUP1 PUSH4 0x42966C68 GT PUSH2 0x135 JUMPI DUP1 PUSH4 0x42966C68 EQ PUSH2 0x2A0 JUMPI DUP1 PUSH4 0x55F804B3 EQ PUSH2 0x2B3 JUMPI DUP1 PUSH4 0x6352211E EQ PUSH2 0x2C6 JUMPI DUP1 PUSH4 0x6C0360EB EQ PUSH2 0x2D9 JUMPI PUSH1 0x0 DUP1 REVERT JUMPDEST DUP1 PUSH4 0x3576622A EQ PUSH2 0x267 JUMPI DUP1 PUSH4 0x40D097C3 EQ PUSH2 0x27A JUMPI DUP1 PUSH4 0x42842E0E EQ PUSH2 0x28D JUMPI PUSH1 0x0 DUP1 REVERT JUMPDEST DUP1 PUSH4 0x95EA7B3 GT PUSH2 0x18C JUMPI DUP1 PUSH4 0x95EA7B3 EQ PUSH2 0x228 JUMPI DUP1 PUSH4 0x18160DDD EQ PUSH2 0x23D JUMPI DUP1 PUSH4 0x23B872DD EQ PUSH2 0x254 JUMPI PUSH1 0x0 DUP1 REVERT JUMPDEST DUP1 PUSH4 0x1FFC9A7 EQ PUSH2 0x1B3 JUMPI DUP1 PUSH4 0x6FDDE03 EQ PUSH2 0x1DB JUMPI DUP1 PUSH4 0x81812FC EQ PUSH2 0x1F0 JUMPI JUMPDEST PUSH1 0x0 DUP1 REVERT JUMPDEST PUSH2 0x1C6 PUSH2 0x1C1 CALLDATASIZE PUSH1 0x4 PUSH2 0x2205 JUMP JUMPDEST PUSH2 0x416 JUMP JUMPDEST PUSH1 0x40 MLOAD SWAP1 ISZERO ISZERO DUP2 MSTORE PUSH1 0x20 ADD JUMPDEST PUSH1 0x40 MLOAD DUP1 SWAP2 SUB SWAP1 RETURN JUMPDEST PUSH2 0x1E3 PUSH2 0x4FB JUMP JUMPDEST PUSH1 0x40 MLOAD PUSH2 0x1D2 SWAP2 SWAP1 PUSH2 0x235D JUMP JUMPDEST PUSH2 0x203 PUSH2 0x1FE CALLDATASIZE PUSH1 0x4 PUSH2 0x2283 JUMP JUMPDEST PUSH2 0x58D JUMP JUMPDEST PUSH1 0x40 MLOAD PUSH20 0xFFFFFFFFFFFFFFFFFFFFFFFFFFFFFFFFFFFFFFFF SWAP1 SWAP2 AND DUP2 MSTORE PUSH1 0x20 ADD PUSH2 0x1D2 JUMP JUMPDEST PUSH2 0x23B PUSH2 0x236 CALLDATASIZE PUSH1 0x4 PUSH2 0x21DC JUMP JUMPDEST PUSH2 0x5C1 JUMP JUMPDEST STOP JUMPDEST PUSH2 0x246 PUSH1 0xC SLOAD DUP2 JUMP JUMPDEST PUSH1 0x40 MLOAD SWAP1 DUP2 MSTORE PUSH1 0x20 ADD PUSH2 0x1D2 JUMP JUMPDEST PUSH2 0x23B PUSH2 0x262 CALLDATASIZE PUSH1 0x4 PUSH2 0x20EE JUMP JUMPDEST PUSH2 0x753 JUMP JUMPDEST PUSH2 0x23B PUSH2 0x275 CALLDATASIZE PUSH1 0x4 PUSH2 0x20A2 JUMP JUMPDEST PUSH2 0x879 JUMP JUMPDEST PUSH2 0x23B PUSH2 0x288 CALLDATASIZE PUSH1 0x4 PUSH2 0x20A2 JUMP JUMPDEST PUSH2 0x941 JUMP JUMPDEST PUSH2 0x23B PUSH2 0x29B CALLDATASIZE PUSH1 0x4 PUSH2 0x20EE JUMP JUMPDEST PUSH2 0xA7F JUMP JUMPDEST PUSH2 0x23B PUSH2 0x2AE CALLDATASIZE PUSH1 0x4 PUSH2 0x2283 JUMP JUMPDEST PUSH2 0xA9A JUMP JUMPDEST PUSH2 0x23B PUSH2 0x2C1 CALLDATASIZE PUSH1 0x4 PUSH2 0x223D JUMP JUMPDEST PUSH2 0xBC9 JUMP JUMPDEST PUSH2 0x203 PUSH2 0x2D4 CALLDATASIZE PUSH1 0x4 PUSH2 0x2283 JUMP JUMPDEST PUSH2 0xC99 JUMP JUMPDEST PUSH2 0x1E3 PUSH2 0xD25 JUMP JUMPDEST PUSH2 0x246 PUSH2 0x2EF CALLDATASIZE PUSH1 0x4 PUSH2 0x20A2 JUMP JUMPDEST PUSH2 0xD34 JUMP JUMPDEST PUSH2 0x246 PUSH1 0x8 SLOAD DUP2 JUMP JUMPDEST PUSH1 0x9 SLOAD PUSH20 0xFFFFFFFFFFFFFFFFFFFFFFFFFFFFFFFFFFFFFFFF AND PUSH2 0x203 JUMP JUMPDEST PUSH2 0x1E3 PUSH2 0xE02 JUMP JUMPDEST PUSH2 0x23B PUSH2 0x331 CALLDATASIZE PUSH1 0x4 PUSH2 0x21A2 JUMP JUMPDEST PUSH2 0xE11 JUMP JUMPDEST PUSH2 0x23B PUSH2 0x344 CALLDATASIZE PUSH1 0x4 PUSH2 0x21A2 JUMP JUMPDEST PUSH2 0xE20 JUMP JUMPDEST PUSH2 0x23B PUSH2 0x357 CALLDATASIZE PUSH1 0x4 PUSH2 0x2129 JUMP JUMPDEST PUSH2 0xEF7 JUMP JUMPDEST PUSH1 0xD SLOAD PUSH2 0x203 SWAP1 PUSH20 0xFFFFFFFFFFFFFFFFFFFFFFFFFFFFFFFFFFFFFFFF AND DUP2 JUMP JUMPDEST PUSH1 0xC SLOAD PUSH2 0x246 JUMP JUMPDEST PUSH2 0x1E3 PUSH2 0x392 CALLDATASIZE PUSH1 0x4 PUSH2 0x2283 JUMP JUMPDEST PUSH2 0xF9F JUMP JUMPDEST PUSH2 0x1C6 PUSH2 0x3A5 CALLDATASIZE PUSH1 0x4 PUSH2 0x20BC JUMP JUMPDEST PUSH20 0xFFFFFFFFFFFFFFFFFFFFFFFFFFFFFFFFFFFFFFFF SWAP2 DUP3 AND PUSH1 0x0 SWAP1 DUP2 MSTORE PUSH1 0x5 PUSH1 0x20 SWAP1 DUP2 MSTORE PUSH1 0x40 DUP1 DUP4 KECCAK256 SWAP4 SWAP1 SWAP5 AND DUP3 MSTORE SWAP2 SWAP1 SWAP2 MSTORE KECCAK256 SLOAD PUSH1 0xFF AND SWAP1 JUMP JUMPDEST PUSH2 0x23B PUSH2 0x3EE CALLDATASIZE PUSH1 0x4 PUSH2 0x20A2 JUMP JUMPDEST PUSH2 0x1013 JUMP JUMPDEST PUSH2 0x1C6 PUSH2 0x401 CALLDATASIZE PUSH1 0x4 PUSH2 0x20A2 JUMP JUMPDEST PUSH1 0xA PUSH1 0x20 MSTORE PUSH1 0x0 SWAP1 DUP2 MSTORE PUSH1 0x40 SWAP1 KECCAK256 SLOAD PUSH1 0xFF AND DUP2 JUMP JUMPDEST PUSH1 0x0 PUSH32 0xFFFFFFFF00000000000000000000000000000000000000000000000000000000 DUP3 AND PUSH32 0x80AC58CD00000000000000000000000000000000000000000000000000000000 EQ DUP1 PUSH2 0x4A9 JUMPI POP PUSH32 0xFFFFFFFF00000000000000000000000000000000000000000000000000000000 DUP3 AND PUSH32 0x5B5E139F00000000000000000000000000000000000000000000000000000000 EQ JUMPDEST DUP1 PUSH2 0x4F5 JUMPI POP PUSH32 0x1FFC9A700000000000000000000000000000000000000000000000000000000 PUSH32 0xFFFFFFFF00000000000000000000000000000000000000000000000000000000 DUP4 AND EQ JUMPDEST SWAP3 SWAP2 POP POP JUMP JUMPDEST PUSH1 0x60 PUSH1 0x0 DUP1 SLOAD PUSH2 0x50A SWAP1 PUSH2 0x24F1 JUMP JUMPDEST DUP1 PUSH1 0x1F ADD PUSH1 0x20 DUP1 SWAP2 DIV MUL PUSH1 0x20 ADD PUSH1 0x40 MLOAD SWAP1 DUP2 ADD PUSH1 0x40 MSTORE DUP1 SWAP3 SWAP2 SWAP1 DUP2 DUP2 MSTORE PUSH1 0x20 ADD DUP3 DUP1 SLOAD PUSH2 0x536 SWAP1 PUSH2 0x24F1 JUMP JUMPDEST DUP1 ISZERO PUSH2 0x583 JUMPI DUP1 PUSH1 0x1F LT PUSH2 0x558 JUMPI PUSH2 0x100 DUP1 DUP4 SLOAD DIV MUL DUP4 MSTORE SWAP2 PUSH1 0x20 ADD SWAP2 PUSH2 0x583 JUMP JUMPDEST DUP3 ADD SWAP2 SWAP1 PUSH1 0x0 MSTORE PUSH1 0x20 PUSH1 0x0 KECCAK256 SWAP1 JUMPDEST DUP2 SLOAD DUP2 MSTORE SWAP1 PUSH1 0x1 ADD SWAP1 PUSH1 0x20 ADD DUP1 DUP4 GT PUSH2 0x566 JUMPI DUP3 SWAP1 SUB PUSH1 0x1F AND DUP3 ADD SWAP2 JUMPDEST POP POP POP POP POP SWAP1 POP SWAP1 JUMP JUMPDEST PUSH1 0x0 PUSH2 0x598 DUP3 PUSH2 0x11BD JUMP JUMPDEST POP PUSH1 0x0 SWAP1 DUP2 MSTORE PUSH1 0x4 PUSH1 0x20 MSTORE PUSH1 0x40 SWAP1 KECCAK256 SLOAD PUSH20 0xFFFFFFFFFFFFFFFFFFFFFFFFFFFFFFFFFFFFFFFF AND SWAP1 JUMP JUMPDEST PUSH1 0x0 PUSH2 0x5CC DUP3 PUSH2 0xC99 JUMP JUMPDEST SWAP1 POP DUP1 PUSH20 0xFFFFFFFFFFFFFFFFFFFFFFFFFFFFFFFFFFFFFFFF AND DUP4 PUSH20 0xFFFFFFFFFFFFFFFFFFFFFFFFFFFFFFFFFFFFFFFF AND EQ ISZERO PUSH2 0x68F JUMPI PUSH1 0x40 MLOAD PUSH32 0x8C379A000000000000000000000000000000000000000000000000000000000 DUP2 MSTORE PUSH1 0x20 PUSH1 0x4 DUP3 ADD MSTORE PUSH1 0x21 PUSH1 0x24 DUP3 ADD MSTORE PUSH32 0x4552433732313A20617070726F76616C20746F2063757272656E74206F776E65 PUSH1 0x44 DUP3 ADD MSTORE PUSH32 0x7200000000000000000000000000000000000000000000000000000000000000 PUSH1 0x64 DUP3 ADD MSTORE PUSH1 0x84 ADD JUMPDEST PUSH1 0x40 MLOAD DUP1 SWAP2 SUB SWAP1 REVERT JUMPDEST CALLER PUSH20 0xFFFFFFFFFFFFFFFFFFFFFFFFFFFFFFFFFFFFFFFF DUP3 AND EQ DUP1 PUSH2 0x6B8 JUMPI POP PUSH2 0x6B8 DUP2 CALLER PUSH2 0x3A5 JUMP JUMPDEST PUSH2 0x744 JUMPI PUSH1 0x40 MLOAD PUSH32 0x8C379A000000000000000000000000000000000000000000000000000000000 DUP2 MSTORE PUSH1 0x20 PUSH1 0x4 DUP3 ADD MSTORE PUSH1 0x3E PUSH1 0x24 DUP3 ADD MSTORE PUSH32 0x4552433732313A20617070726F76652063616C6C6572206973206E6F7420746F PUSH1 0x44 DUP3 ADD MSTORE PUSH32 0x6B656E206F776E6572206E6F7220617070726F76656420666F7220616C6C0000 PUSH1 0x64 DUP3 ADD MSTORE PUSH1 0x84 ADD PUSH2 0x686 JUMP JUMPDEST PUSH2 0x74E DUP4 DUP4 PUSH2 0x1248 JUMP JUMPDEST POP POP POP JUMP JUMPDEST PUSH1 0xD SLOAD PUSH1 0x40 MLOAD PUSH32 0xF3FEF3A300000000000000000000000000000000000000000000000000000000 DUP2 MSTORE PUSH20 0xFFFFFFFFFFFFFFFFFFFFFFFFFFFFFFFFFFFFFFFF DUP6 DUP2 AND PUSH1 0x4 DUP4 ADD MSTORE PUSH1 0x1 PUSH1 0x24 DUP4 ADD MSTORE SWAP1 SWAP2 AND SWAP1 PUSH4 0xF3FEF3A3 SWAP1 PUSH1 0x44 ADD PUSH1 0x0 PUSH1 0x40 MLOAD DUP1 DUP4 SUB DUP2 PUSH1 0x0 DUP8 DUP1 EXTCODESIZE ISZERO DUP1 ISZERO PUSH2 0x7C7 JUMPI PUSH1 0x0 DUP1 REVERT JUMPDEST POP GAS CALL ISZERO DUP1 ISZERO PUSH2 0x7DB JUMPI RETURNDATASIZE PUSH1 0x0 DUP1 RETURNDATACOPY RETURNDATASIZE PUSH1 0x0 REVERT JUMPDEST POP POP PUSH1 0xD SLOAD PUSH1 0x40 MLOAD PUSH32 0xADC9772E00000000000000000000000000000000000000000000000000000000 DUP2 MSTORE PUSH20 0xFFFFFFFFFFFFFFFFFFFFFFFFFFFFFFFFFFFFFFFF DUP7 DUP2 AND PUSH1 0x4 DUP4 ADD MSTORE PUSH1 0x1 PUSH1 0x24 DUP4 ADD MSTORE SWAP1 SWAP2 AND SWAP3 POP PUSH4 0xADC9772E SWAP2 POP PUSH1 0x44 ADD PUSH1 0x0 PUSH1 0x40 MLOAD DUP1 DUP4 SUB DUP2 PUSH1 0x0 DUP8 DUP1 EXTCODESIZE ISZERO DUP1 ISZERO PUSH2 0x853 JUMPI PUSH1 0x0 DUP1 REVERT JUMPDEST POP GAS CALL ISZERO DUP1 ISZERO PUSH2 0x867 JUMPI RETURNDATASIZE PUSH1 0x0 DUP1 RETURNDATACOPY RETURNDATASIZE PUSH1 0x0 REVERT JUMPDEST POP PUSH2 0x74E SWAP3 POP DUP6 SWAP2 POP DUP5 SWAP1 POP DUP4 PUSH2 0x12E8 JUMP JUMPDEST PUSH1 0x9 SLOAD PUSH20 0xFFFFFFFFFFFFFFFFFFFFFFFFFFFFFFFFFFFFFFFF AND CALLER EQ PUSH2 0x8FA JUMPI PUSH1 0x40 MLOAD PUSH32 0x8C379A000000000000000000000000000000000000000000000000000000000 DUP2 MSTORE PUSH1 0x20 PUSH1 0x4 DUP3 ADD DUP2 SWAP1 MSTORE PUSH1 0x24 DUP3 ADD MSTORE PUSH32 0x4F776E61626C653A2063616C6C6572206973206E6F7420746865206F776E6572 PUSH1 0x44 DUP3 ADD MSTORE PUSH1 0x64 ADD PUSH2 0x686 JUMP JUMPDEST PUSH1 0xD DUP1 SLOAD PUSH32 0xFFFFFFFFFFFFFFFFFFFFFFFF0000000000000000000000000000000000000000 AND PUSH20 0xFFFFFFFFFFFFFFFFFFFFFFFFFFFFFFFFFFFFFFFF SWAP3 SWAP1 SWAP3 AND SWAP2 SWAP1 SWAP2 OR SWAP1 SSTORE JUMP JUMPDEST CALLER PUSH1 0x0 SWAP1 DUP2 MSTORE PUSH1 0xA PUSH1 0x20 MSTORE PUSH1 0x40 SWAP1 KECCAK256 SLOAD PUSH1 0xFF AND PUSH2 0x9BA JUMPI PUSH1 0x40 MLOAD PUSH32 0x8C379A000000000000000000000000000000000000000000000000000000000 DUP2 MSTORE PUSH1 0x20 PUSH1 0x4 DUP3 ADD MSTORE PUSH1 0xB PUSH1 0x24 DUP3 ADD MSTORE PUSH32 0x4E6F74206D616E61676572000000000000000000000000000000000000000000 PUSH1 0x44 DUP3 ADD MSTORE PUSH1 0x64 ADD PUSH2 0x686 JUMP JUMPDEST PUSH1 0x8 DUP1 SLOAD SWAP1 PUSH1 0x0 PUSH2 0x9CA DUP4 PUSH2 0x2545 JUMP JUMPDEST SWAP1 SWAP2 SSTORE POP POP PUSH1 0xC DUP1 SLOAD SWAP1 PUSH1 0x0 PUSH2 0x9DF DUP4 PUSH2 0x2545 JUMP JUMPDEST SWAP1 SWAP2 SSTORE POP POP PUSH1 0xD SLOAD PUSH1 0x40 MLOAD PUSH32 0xADC9772E00000000000000000000000000000000000000000000000000000000 DUP2 MSTORE PUSH20 0xFFFFFFFFFFFFFFFFFFFFFFFFFFFFFFFFFFFFFFFF DUP4 DUP2 AND PUSH1 0x4 DUP4 ADD MSTORE PUSH1 0x1 PUSH1 0x24 DUP4 ADD MSTORE SWAP1 SWAP2 AND SWAP1 PUSH4 0xADC9772E SWAP1 PUSH1 0x44 ADD PUSH1 0x0 PUSH1 0x40 MLOAD DUP1 DUP4 SUB DUP2 PUSH1 0x0 DUP8 DUP1 EXTCODESIZE ISZERO DUP1 ISZERO PUSH2 0xA58 JUMPI PUSH1 0x0 DUP1 REVERT JUMPDEST POP GAS CALL ISZERO DUP1 ISZERO PUSH2 0xA6C JUMPI RETURNDATASIZE PUSH1 0x0 DUP1 RETURNDATACOPY RETURNDATASIZE PUSH1 0x0 REVERT JUMPDEST POP POP POP POP PUSH2 0xA7C DUP2 PUSH1 0x8 SLOAD PUSH2 0x1389 JUMP JUMPDEST POP JUMP JUMPDEST PUSH2 0x74E DUP4 DUP4 DUP4 PUSH1 0x40 MLOAD DUP1 PUSH1 0x20 ADD PUSH1 0x40 MSTORE DUP1 PUSH1 0x0 DUP2 MSTORE POP PUSH2 0xEF7 JUMP JUMPDEST CALLER PUSH2 0xAA4 DUP3 PUSH2 0xC99 JUMP JUMPDEST PUSH20 0xFFFFFFFFFFFFFFFFFFFFFFFFFFFFFFFFFFFFFFFF AND EQ PUSH2 0xB21 JUMPI PUSH1 0x40 MLOAD PUSH32 0x8C379A000000000000000000000000000000000000000000000000000000000 DUP2 MSTORE PUSH1 0x20 PUSH1 0x4 DUP3 ADD MSTORE PUSH1 0x18 PUSH1 0x24 DUP3 ADD MSTORE PUSH32 0x796F7572206E6F7420617574686F72697A6564206275726E0000000000000000 PUSH1 0x44 DUP3 ADD MSTORE PUSH1 0x64 ADD PUSH2 0x686 JUMP JUMPDEST PUSH1 0xC DUP1 SLOAD SWAP1 PUSH1 0x0 PUSH2 0xB31 DUP4 PUSH2 0x24BC JUMP JUMPDEST SWAP1 SWAP2 SSTORE POP POP PUSH1 0xD SLOAD PUSH1 0x40 MLOAD PUSH32 0xF3FEF3A300000000000000000000000000000000000000000000000000000000 DUP2 MSTORE CALLER PUSH1 0x4 DUP3 ADD MSTORE PUSH1 0x1 PUSH1 0x24 DUP3 ADD MSTORE PUSH20 0xFFFFFFFFFFFFFFFFFFFFFFFFFFFFFFFFFFFFFFFF SWAP1 SWAP2 AND SWAP1 PUSH4 0xF3FEF3A3 SWAP1 PUSH1 0x44 ADD PUSH1 0x0 PUSH1 0x40 MLOAD DUP1 DUP4 SUB DUP2 PUSH1 0x0 DUP8 DUP1 EXTCODESIZE ISZERO DUP1 ISZERO PUSH2 0xBA8 JUMPI PUSH1 0x0 DUP1 REVERT JUMPDEST POP GAS CALL ISZERO DUP1 ISZERO PUSH2 0xBBC JUMPI RETURNDATASIZE PUSH1 0x0 DUP1 RETURNDATACOPY RETURNDATASIZE PUSH1 0x0 REVERT JUMPDEST POP POP POP POP PUSH2 0xA7C DUP2 PUSH2 0x13A3 JUMP JUMPDEST PUSH1 0x9 SLOAD PUSH20 0xFFFFFFFFFFFFFFFFFFFFFFFFFFFFFFFFFFFFFFFF AND CALLER EQ PUSH2 0xC4A JUMPI PUSH1 0x40 MLOAD PUSH32 0x8C379A000000000000000000000000000000000000000000000000000000000 DUP2 MSTORE PUSH1 0x20 PUSH1 0x4 DUP3 ADD DUP2 SWAP1 MSTORE PUSH1 0x24 DUP3 ADD MSTORE PUSH32 0x4F776E61626C653A2063616C6C6572206973206E6F7420746865206F776E6572 PUSH1 0x44 DUP3 ADD MSTORE PUSH1 0x64 ADD PUSH2 0x686 JUMP JUMPDEST DUP1 MLOAD PUSH2 0xC5D SWAP1 PUSH1 0xB SWAP1 PUSH1 0x20 DUP5 ADD SWAP1 PUSH2 0x1F4C JUMP JUMPDEST POP PUSH32 0xF9C7803E94E0D3C02900D8A90893A6D5E90DD04D32A4CFE825520F82BF9F32F6 PUSH1 0xB PUSH1 0x40 MLOAD PUSH2 0xC8E SWAP2 SWAP1 PUSH2 0x2370 JUMP JUMPDEST PUSH1 0x40 MLOAD DUP1 SWAP2 SUB SWAP1 LOG1 POP JUMP JUMPDEST PUSH1 0x0 DUP2 DUP2 MSTORE PUSH1 0x2 PUSH1 0x20 MSTORE PUSH1 0x40 DUP2 KECCAK256 SLOAD PUSH20 0xFFFFFFFFFFFFFFFFFFFFFFFFFFFFFFFFFFFFFFFF AND DUP1 PUSH2 0x4F5 JUMPI PUSH1 0x40 MLOAD PUSH32 0x8C379A000000000000000000000000000000000000000000000000000000000 DUP2 MSTORE PUSH1 0x20 PUSH1 0x4 DUP3 ADD MSTORE PUSH1 0x18 PUSH1 0x24 DUP3 ADD MSTORE PUSH32 0x4552433732313A20696E76616C696420746F6B656E2049440000000000000000 PUSH1 0x44 DUP3 ADD MSTORE PUSH1 0x64 ADD PUSH2 0x686 JUMP JUMPDEST PUSH1 0x60 PUSH1 0xB DUP1 SLOAD PUSH2 0x50A SWAP1 PUSH2 0x24F1 JUMP JUMPDEST PUSH1 0x0 PUSH20 0xFFFFFFFFFFFFFFFFFFFFFFFFFFFFFFFFFFFFFFFF DUP3 AND PUSH2 0xDD9 JUMPI PUSH1 0x40 MLOAD PUSH32 0x8C379A000000000000000000000000000000000000000000000000000000000 DUP2 MSTORE PUSH1 0x20 PUSH1 0x4 DUP3 ADD MSTORE PUSH1 0x29 PUSH1 0x24 DUP3 ADD MSTORE PUSH32 0x4552433732313A2061646472657373207A65726F206973206E6F742061207661 PUSH1 0x44 DUP3 ADD MSTORE PUSH32 0x6C6964206F776E65720000000000000000000000000000000000000000000000 PUSH1 0x64 DUP3 ADD MSTORE PUSH1 0x84 ADD PUSH2 0x686 JUMP JUMPDEST POP PUSH20 0xFFFFFFFFFFFFFFFFFFFFFFFFFFFFFFFFFFFFFFFF AND PUSH1 0x0 SWAP1 DUP2 MSTORE PUSH1 0x3 PUSH1 0x20 MSTORE PUSH1 0x40 SWAP1 KECCAK256 SLOAD SWAP1 JUMP JUMPDEST PUSH1 0x60 PUSH1 0x1 DUP1 SLOAD PUSH2 0x50A SWAP1 PUSH2 0x24F1 JUMP JUMPDEST PUSH2 0xE1C CALLER DUP4 DUP4 PUSH2 0x1470 JUMP JUMPDEST POP POP JUMP JUMPDEST PUSH1 0x9 SLOAD PUSH20 0xFFFFFFFFFFFFFFFFFFFFFFFFFFFFFFFFFFFFFFFF AND CALLER EQ PUSH2 0xEA1 JUMPI PUSH1 0x40 MLOAD PUSH32 0x8C379A000000000000000000000000000000000000000000000000000000000 DUP2 MSTORE PUSH1 0x20 PUSH1 0x4 DUP3 ADD DUP2 SWAP1 MSTORE PUSH1 0x24 DUP3 ADD MSTORE PUSH32 0x4F776E61626C653A2063616C6C6572206973206E6F7420746865206F776E6572 PUSH1 0x44 DUP3 ADD MSTORE PUSH1 0x64 ADD PUSH2 0x686 JUMP JUMPDEST PUSH20 0xFFFFFFFFFFFFFFFFFFFFFFFFFFFFFFFFFFFFFFFF SWAP2 SWAP1 SWAP2 AND PUSH1 0x0 SWAP1 DUP2 MSTORE PUSH1 0xA PUSH1 0x20 MSTORE PUSH1 0x40 SWAP1 KECCAK256 DUP1 SLOAD PUSH32 0xFFFFFFFFFFFFFFFFFFFFFFFFFFFFFFFFFFFFFFFFFFFFFFFFFFFFFFFFFFFFFF00 AND SWAP2 ISZERO ISZERO SWAP2 SWAP1 SWAP2 OR SWAP1 SSTORE JUMP JUMPDEST PUSH2 0xF01 CALLER DUP4 PUSH2 0x159E JUMP JUMPDEST PUSH2 0xF8D JUMPI PUSH1 0x40 MLOAD PUSH32 0x8C379A000000000000000000000000000000000000000000000000000000000 DUP2 MSTORE PUSH1 0x20 PUSH1 0x4 DUP3 ADD MSTORE PUSH1 0x2E PUSH1 0x24 DUP3 ADD MSTORE PUSH32 0x4552433732313A2063616C6C6572206973206E6F7420746F6B656E206F776E65 PUSH1 0x44 DUP3 ADD MSTORE PUSH32 0x72206E6F7220617070726F766564000000000000000000000000000000000000 PUSH1 0x64 DUP3 ADD MSTORE PUSH1 0x84 ADD PUSH2 0x686 JUMP JUMPDEST PUSH2 0xF99 DUP5 DUP5 DUP5 DUP5 PUSH2 0x165E JUMP JUMPDEST POP POP POP POP JUMP JUMPDEST PUSH1 0x60 PUSH2 0xFAA DUP3 PUSH2 0x11BD JUMP JUMPDEST PUSH1 0x0 PUSH2 0xFC1 PUSH1 0x40 DUP1 MLOAD PUSH1 0x20 DUP2 ADD SWAP1 SWAP2 MSTORE PUSH1 0x0 DUP2 MSTORE SWAP1 JUMP JUMPDEST SWAP1 POP PUSH1 0x0 DUP2 MLOAD GT PUSH2 0xFE1 JUMPI PUSH1 0x40 MLOAD DUP1 PUSH1 0x20 ADD PUSH1 0x40 MSTORE DUP1 PUSH1 0x0 DUP2 MSTORE POP PUSH2 0x100C JUMP JUMPDEST DUP1 PUSH2 0xFEB DUP5 PUSH2 0x1701 JUMP JUMPDEST PUSH1 0x40 MLOAD PUSH1 0x20 ADD PUSH2 0xFFC SWAP3 SWAP2 SWAP1 PUSH2 0x22E5 JUMP JUMPDEST PUSH1 0x40 MLOAD PUSH1 0x20 DUP2 DUP4 SUB SUB DUP2 MSTORE SWAP1 PUSH1 0x40 MSTORE JUMPDEST SWAP4 SWAP3 POP POP POP JUMP JUMPDEST PUSH1 0x9 SLOAD PUSH20 0xFFFFFFFFFFFFFFFFFFFFFFFFFFFFFFFFFFFFFFFF AND CALLER EQ PUSH2 0x1094 JUMPI PUSH1 0x40 MLOAD PUSH32 0x8C379A000000000000000000000000000000000000000000000000000000000 DUP2 MSTORE PUSH1 0x20 PUSH1 0x4 DUP3 ADD DUP2 SWAP1 MSTORE PUSH1 0x24 DUP3 ADD MSTORE PUSH32 0x4F776E61626C653A2063616C6C6572206973206E6F7420746865206F776E6572 PUSH1 0x44 DUP3 ADD MSTORE PUSH1 0x64 ADD PUSH2 0x686 JUMP JUMPDEST PUSH20 0xFFFFFFFFFFFFFFFFFFFFFFFFFFFFFFFFFFFFFFFF DUP2 AND PUSH2 0x1137 JUMPI PUSH1 0x40 MLOAD PUSH32 0x8C379A000000000000000000000000000000000000000000000000000000000 DUP2 MSTORE PUSH1 0x20 PUSH1 0x4 DUP3 ADD MSTORE PUSH1 0x26 PUSH1 0x24 DUP3 ADD MSTORE PUSH32 0x4F776E61626C653A206E6577206F776E657220697320746865207A65726F2061 PUSH1 0x44 DUP3 ADD MSTORE PUSH32 0x6464726573730000000000000000000000000000000000000000000000000000 PUSH1 0x64 DUP3 ADD MSTORE PUSH1 0x84 ADD PUSH2 0x686 JUMP JUMPDEST PUSH1 0x9 DUP1 SLOAD PUSH20 0xFFFFFFFFFFFFFFFFFFFFFFFFFFFFFFFFFFFFFFFF DUP4 DUP2 AND PUSH32 0xFFFFFFFFFFFFFFFFFFFFFFFF0000000000000000000000000000000000000000 DUP4 AND DUP2 OR SWAP1 SWAP4 SSTORE PUSH1 0x40 DUP1 MLOAD SWAP2 SWAP1 SWAP3 AND DUP1 DUP3 MSTORE PUSH1 0x20 DUP3 ADD SWAP4 SWAP1 SWAP4 MSTORE PUSH32 0x8BE0079C531659141344CD1FD0A4F28419497F9722A3DAAFE3B4186F6B6457E0 SWAP2 ADD PUSH1 0x40 MLOAD DUP1 SWAP2 SUB SWAP1 LOG1 POP POP JUMP JUMPDEST PUSH1 0x0 DUP2 DUP2 MSTORE PUSH1 0x2 PUSH1 0x20 MSTORE PUSH1 0x40 SWAP1 KECCAK256 SLOAD PUSH20 0xFFFFFFFFFFFFFFFFFFFFFFFFFFFFFFFFFFFFFFFF AND PUSH2 0xA7C JUMPI PUSH1 0x40 MLOAD PUSH32 0x8C379A000000000000000000000000000000000000000000000000000000000 DUP2 MSTORE PUSH1 0x20 PUSH1 0x4 DUP3 ADD MSTORE PUSH1 0x18 PUSH1 0x24 DUP3 ADD MSTORE PUSH32 0x4552433732313A20696E76616C696420746F6B656E2049440000000000000000 PUSH1 0x44 DUP3 ADD MSTORE PUSH1 0x64 ADD PUSH2 0x686 JUMP JUMPDEST PUSH1 0x0 DUP2 DUP2 MSTORE PUSH1 0x4 PUSH1 0x20 MSTORE PUSH1 0x40 SWAP1 KECCAK256 DUP1 SLOAD PUSH32 0xFFFFFFFFFFFFFFFFFFFFFFFF0000000000000000000000000000000000000000 AND PUSH20 0xFFFFFFFFFFFFFFFFFFFFFFFFFFFFFFFFFFFFFFFF DUP5 AND SWAP1 DUP2 OR SWAP1 SWAP2 SSTORE DUP2 SWAP1 PUSH2 0x12A2 DUP3 PUSH2 0xC99 JUMP JUMPDEST PUSH20 0xFFFFFFFFFFFFFFFFFFFFFFFFFFFFFFFFFFFFFFFF AND PUSH32 0x8C5BE1E5EBEC7D5BD14F71427D1E84F3DD0314C0F7B2291E5B200AC8C7C3B925 PUSH1 0x40 MLOAD PUSH1 0x40 MLOAD DUP1 SWAP2 SUB SWAP1 LOG4 POP POP JUMP JUMPDEST PUSH2 0x12F2 CALLER DUP3 PUSH2 0x159E JUMP JUMPDEST PUSH2 0x137E JUMPI PUSH1 0x40 MLOAD PUSH32 0x8C379A000000000000000000000000000000000000000000000000000000000 DUP2 MSTORE PUSH1 0x20 PUSH1 0x4 DUP3 ADD MSTORE PUSH1 0x2E PUSH1 0x24 DUP3 ADD MSTORE PUSH32 0x4552433732313A2063616C6C6572206973206E6F7420746F6B656E206F776E65 PUSH1 0x44 DUP3 ADD MSTORE PUSH32 0x72206E6F7220617070726F766564000000000000000000000000000000000000 PUSH1 0x64 DUP3 ADD MSTORE PUSH1 0x84 ADD PUSH2 0x686 JUMP JUMPDEST PUSH2 0x74E DUP4 DUP4 DUP4 PUSH2 0x1881 JUMP JUMPDEST PUSH2 0xE1C DUP3 DUP3 PUSH1 0x40 MLOAD DUP1 PUSH1 0x20 ADD PUSH1 0x40 MSTORE DUP1 PUSH1 0x0 DUP2 MSTORE POP PUSH2 0x1AE8 JUMP JUMPDEST PUSH1 0x0 PUSH2 0x13AE DUP3 PUSH2 0xC99 JUMP JUMPDEST SWAP1 POP PUSH2 0x13BB PUSH1 0x0 DUP4 PUSH2 0x1248 JUMP JUMPDEST PUSH20 0xFFFFFFFFFFFFFFFFFFFFFFFFFFFFFFFFFFFFFFFF DUP2 AND PUSH1 0x0 SWAP1 DUP2 MSTORE PUSH1 0x3 PUSH1 0x20 MSTORE PUSH1 0x40 DUP2 KECCAK256 DUP1 SLOAD PUSH1 0x1 SWAP3 SWAP1 PUSH2 0x13F1 SWAP1 DUP5 SWAP1 PUSH2 0x2479 JUMP JUMPDEST SWAP1 SWAP2 SSTORE POP POP PUSH1 0x0 DUP3 DUP2 MSTORE PUSH1 0x2 PUSH1 0x20 MSTORE PUSH1 0x40 DUP1 DUP3 KECCAK256 DUP1 SLOAD PUSH32 0xFFFFFFFFFFFFFFFFFFFFFFFF0000000000000000000000000000000000000000 AND SWAP1 SSTORE MLOAD DUP4 SWAP2 SWAP1 PUSH20 0xFFFFFFFFFFFFFFFFFFFFFFFFFFFFFFFFFFFFFFFF DUP5 AND SWAP1 PUSH32 0xDDF252AD1BE2C89B69C2B068FC378DAA952BA7F163C4A11628F55A4DF523B3EF SWAP1 DUP4 SWAP1 LOG4 POP POP JUMP JUMPDEST DUP2 PUSH20 0xFFFFFFFFFFFFFFFFFFFFFFFFFFFFFFFFFFFFFFFF AND DUP4 PUSH20 0xFFFFFFFFFFFFFFFFFFFFFFFFFFFFFFFFFFFFFFFF AND EQ ISZERO PUSH2 0x1506 JUMPI PUSH1 0x40 MLOAD PUSH32 0x8C379A000000000000000000000000000000000000000000000000000000000 DUP2 MSTORE PUSH1 0x20 PUSH1 0x4 DUP3 ADD MSTORE PUSH1 0x19 PUSH1 0x24 DUP3 ADD MSTORE PUSH32 0x4552433732313A20617070726F766520746F2063616C6C657200000000000000 PUSH1 0x44 DUP3 ADD MSTORE PUSH1 0x64 ADD PUSH2 0x686 JUMP JUMPDEST PUSH20 0xFFFFFFFFFFFFFFFFFFFFFFFFFFFFFFFFFFFFFFFF DUP4 DUP2 AND PUSH1 0x0 DUP2 DUP2 MSTORE PUSH1 0x5 PUSH1 0x20 SWAP1 DUP2 MSTORE PUSH1 0x40 DUP1 DUP4 KECCAK256 SWAP5 DUP8 AND DUP1 DUP5 MSTORE SWAP5 DUP3 MSTORE SWAP2 DUP3 SWAP1 KECCAK256 DUP1 SLOAD PUSH32 0xFFFFFFFFFFFFFFFFFFFFFFFFFFFFFFFFFFFFFFFFFFFFFFFFFFFFFFFFFFFFFF00 AND DUP7 ISZERO ISZERO SWAP1 DUP2 OR SWAP1 SWAP2 SSTORE SWAP2 MLOAD SWAP2 DUP3 MSTORE PUSH32 0x17307EAB39AB6107E8899845AD3D59BD9653F200F220920489CA2B5937696C31 SWAP2 ADD PUSH1 0x40 MLOAD DUP1 SWAP2 SUB SWAP1 LOG3 POP POP POP JUMP JUMPDEST PUSH1 0x0 DUP1 PUSH2 0x15AA DUP4 PUSH2 0xC99 JUMP JUMPDEST SWAP1 POP DUP1 PUSH20 0xFFFFFFFFFFFFFFFFFFFFFFFFFFFFFFFFFFFFFFFF AND DUP5 PUSH20 0xFFFFFFFFFFFFFFFFFFFFFFFFFFFFFFFFFFFFFFFF AND EQ DUP1 PUSH2 0x1618 JUMPI POP PUSH20 0xFFFFFFFFFFFFFFFFFFFFFFFFFFFFFFFFFFFFFFFF DUP1 DUP3 AND PUSH1 0x0 SWAP1 DUP2 MSTORE PUSH1 0x5 PUSH1 0x20 SWAP1 DUP2 MSTORE PUSH1 0x40 DUP1 DUP4 KECCAK256 SWAP4 DUP9 AND DUP4 MSTORE SWAP3 SWAP1 MSTORE KECCAK256 SLOAD PUSH1 0xFF AND JUMPDEST DUP1 PUSH2 0x1656 JUMPI POP DUP4 PUSH20 0xFFFFFFFFFFFFFFFFFFFFFFFFFFFFFFFFFFFFFFFF AND PUSH2 0x163E DUP5 PUSH2 0x58D JUMP JUMPDEST PUSH20 0xFFFFFFFFFFFFFFFFFFFFFFFFFFFFFFFFFFFFFFFF AND EQ JUMPDEST SWAP5 SWAP4 POP POP POP POP JUMP JUMPDEST PUSH2 0x1669 DUP5 DUP5 DUP5 PUSH2 0x1881 JUMP JUMPDEST PUSH2 0x1675 DUP5 DUP5 DUP5 DUP5 PUSH2 0x1B8B JUMP JUMPDEST PUSH2 0xF99 JUMPI PUSH1 0x40 MLOAD PUSH32 0x8C379A000000000000000000000000000000000000000000000000000000000 DUP2 MSTORE PUSH1 0x20 PUSH1 0x4 DUP3 ADD MSTORE PUSH1 0x32 PUSH1 0x24 DUP3 ADD MSTORE PUSH32 0x4552433732313A207472616E7366657220746F206E6F6E204552433732315265 PUSH1 0x44 DUP3 ADD MSTORE PUSH32 0x63656976657220696D706C656D656E7465720000000000000000000000000000 PUSH1 0x64 DUP3 ADD MSTORE PUSH1 0x84 ADD PUSH2 0x686 JUMP JUMPDEST PUSH1 0x60 DUP2 PUSH2 0x1741 JUMPI POP POP PUSH1 0x40 DUP1 MLOAD DUP1 DUP3 ADD SWAP1 SWAP2 MSTORE PUSH1 0x1 DUP2 MSTORE PUSH32 0x3000000000000000000000000000000000000000000000000000000000000000 PUSH1 0x20 DUP3 ADD MSTORE SWAP1 JUMP JUMPDEST DUP2 PUSH1 0x0 JUMPDEST DUP2 ISZERO PUSH2 0x176B JUMPI DUP1 PUSH2 0x1755 DUP2 PUSH2 0x2545 JUMP JUMPDEST SWAP2 POP PUSH2 0x1764 SWAP1 POP PUSH1 0xA DUP4 PUSH2 0x2465 JUMP JUMPDEST SWAP2 POP PUSH2 0x1745 JUMP JUMPDEST PUSH1 0x0 DUP2 PUSH8 0xFFFFFFFFFFFFFFFF DUP2 GT ISZERO PUSH2 0x17AD JUMPI PUSH32 0x4E487B7100000000000000000000000000000000000000000000000000000000 PUSH1 0x0 MSTORE PUSH1 0x41 PUSH1 0x4 MSTORE PUSH1 0x24 PUSH1 0x0 REVERT JUMPDEST PUSH1 0x40 MLOAD SWAP1 DUP1 DUP3 MSTORE DUP1 PUSH1 0x1F ADD PUSH1 0x1F NOT AND PUSH1 0x20 ADD DUP3 ADD PUSH1 0x40 MSTORE DUP1 ISZERO PUSH2 0x17D7 JUMPI PUSH1 0x20 DUP3 ADD DUP2 DUP1 CALLDATASIZE DUP4 CALLDATACOPY ADD SWAP1 POP JUMPDEST POP SWAP1 POP JUMPDEST DUP5 ISZERO PUSH2 0x1656 JUMPI PUSH2 0x17EC PUSH1 0x1 DUP4 PUSH2 0x2479 JUMP JUMPDEST SWAP2 POP PUSH2 0x17F9 PUSH1 0xA DUP7 PUSH2 0x257E JUMP JUMPDEST PUSH2 0x1804 SWAP1 PUSH1 0x30 PUSH2 0x244D JUMP JUMPDEST PUSH1 0xF8 SHL DUP2 DUP4 DUP2 MLOAD DUP2 LT PUSH2 0x1840 JUMPI PUSH32 0x4E487B7100000000000000000000000000000000000000000000000000000000 PUSH1 0x0 MSTORE PUSH1 0x32 PUSH1 0x4 MSTORE PUSH1 0x24 PUSH1 0x0 REVERT JUMPDEST PUSH1 0x20 ADD ADD SWAP1 PUSH31 0xFFFFFFFFFFFFFFFFFFFFFFFFFFFFFFFFFFFFFFFFFFFFFFFFFFFFFFFFFFFFFF NOT AND SWAP1 DUP2 PUSH1 0x0 BYTE SWAP1 MSTORE8 POP PUSH2 0x187A PUSH1 0xA DUP7 PUSH2 0x2465 JUMP JUMPDEST SWAP5 POP PUSH2 0x17DB JUMP JUMPDEST DUP3 PUSH20 0xFFFFFFFFFFFFFFFFFFFFFFFFFFFFFFFFFFFFFFFF AND PUSH2 0x18A1 DUP3 PUSH2 0xC99 JUMP JUMPDEST PUSH20 0xFFFFFFFFFFFFFFFFFFFFFFFFFFFFFFFFFFFFFFFF AND EQ PUSH2 0x1944 JUMPI PUSH1 0x40 MLOAD PUSH32 0x8C379A000000000000000000000000000000000000000000000000000000000 DUP2 MSTORE PUSH1 0x20 PUSH1 0x4 DUP3 ADD MSTORE PUSH1 0x25 PUSH1 0x24 DUP3 ADD MSTORE PUSH32 0x4552433732313A207472616E736665722066726F6D20696E636F727265637420 PUSH1 0x44 DUP3 ADD MSTORE PUSH32 0x6F776E6572000000000000000000000000000000000000000000000000000000 PUSH1 0x64 DUP3 ADD MSTORE PUSH1 0x84 ADD PUSH2 0x686 JUMP JUMPDEST PUSH20 0xFFFFFFFFFFFFFFFFFFFFFFFFFFFFFFFFFFFFFFFF DUP3 AND PUSH2 0x19E6 JUMPI PUSH1 0x40 MLOAD PUSH32 0x8C379A000000000000000000000000000000000000000000000000000000000 DUP2 MSTORE PUSH1 0x20 PUSH1 0x4 DUP3 ADD MSTORE PUSH1 0x24 DUP1 DUP3 ADD MSTORE PUSH32 0x4552433732313A207472616E7366657220746F20746865207A65726F20616464 PUSH1 0x44 DUP3 ADD MSTORE PUSH32 0x7265737300000000000000000000000000000000000000000000000000000000 PUSH1 0x64 DUP3 ADD MSTORE PUSH1 0x84 ADD PUSH2 0x686 JUMP JUMPDEST PUSH2 0x19F1 PUSH1 0x0 DUP3 PUSH2 0x1248 JUMP JUMPDEST PUSH20 0xFFFFFFFFFFFFFFFFFFFFFFFFFFFFFFFFFFFFFFFF DUP4 AND PUSH1 0x0 SWAP1 DUP2 MSTORE PUSH1 0x3 PUSH1 0x20 MSTORE PUSH1 0x40 DUP2 KECCAK256 DUP1 SLOAD PUSH1 0x1 SWAP3 SWAP1 PUSH2 0x1A27 SWAP1 DUP5 SWAP1 PUSH2 0x2479 JUMP JUMPDEST SWAP1 SWAP2 SSTORE POP POP PUSH20 0xFFFFFFFFFFFFFFFFFFFFFFFFFFFFFFFFFFFFFFFF DUP3 AND PUSH1 0x0 SWAP1 DUP2 MSTORE PUSH1 0x3 PUSH1 0x20 MSTORE PUSH1 0x40 DUP2 KECCAK256 DUP1 SLOAD PUSH1 0x1 SWAP3 SWAP1 PUSH2 0x1A62 SWAP1 DUP5 SWAP1 PUSH2 0x244D JUMP JUMPDEST SWAP1 SWAP2 SSTORE POP POP PUSH1 0x0 DUP2 DUP2 MSTORE PUSH1 0x2 PUSH1 0x20 MSTORE PUSH1 0x40 DUP1 DUP3 KECCAK256 DUP1 SLOAD PUSH32 0xFFFFFFFFFFFFFFFFFFFFFFFF0000000000000000000000000000000000000000 AND PUSH20 0xFFFFFFFFFFFFFFFFFFFFFFFFFFFFFFFFFFFFFFFF DUP7 DUP2 AND SWAP2 DUP3 OR SWAP1 SWAP3 SSTORE SWAP2 MLOAD DUP5 SWAP4 SWAP2 DUP8 AND SWAP2 PUSH32 0xDDF252AD1BE2C89B69C2B068FC378DAA952BA7F163C4A11628F55A4DF523B3EF SWAP2 LOG4 POP POP POP JUMP JUMPDEST PUSH2 0x1AF2 DUP4 DUP4 PUSH2 0x1D8A JUMP JUMPDEST PUSH2 0x1AFF PUSH1 0x0 DUP5 DUP5 DUP5 PUSH2 0x1B8B JUMP JUMPDEST PUSH2 0x74E JUMPI PUSH1 0x40 MLOAD PUSH32 0x8C379A000000000000000000000000000000000000000000000000000000000 DUP2 MSTORE PUSH1 0x20 PUSH1 0x4 DUP3 ADD MSTORE PUSH1 0x32 PUSH1 0x24 DUP3 ADD MSTORE PUSH32 0x4552433732313A207472616E7366657220746F206E6F6E204552433732315265 PUSH1 0x44 DUP3 ADD MSTORE PUSH32 0x63656976657220696D706C656D656E7465720000000000000000000000000000 PUSH1 0x64 DUP3 ADD MSTORE PUSH1 0x84 ADD PUSH2 0x686 JUMP JUMPDEST PUSH1 0x0 PUSH20 0xFFFFFFFFFFFFFFFFFFFFFFFFFFFFFFFFFFFFFFFF DUP5 AND EXTCODESIZE ISZERO PUSH2 0x1D7F JUMPI PUSH1 0x40 MLOAD PUSH32 0x150B7A0200000000000000000000000000000000000000000000000000000000 DUP2 MSTORE PUSH20 0xFFFFFFFFFFFFFFFFFFFFFFFFFFFFFFFFFFFFFFFF DUP6 AND SWAP1 PUSH4 0x150B7A02 SWAP1 PUSH2 0x1C02 SWAP1 CALLER SWAP1 DUP10 SWAP1 DUP9 SWAP1 DUP9 SWAP1 PUSH1 0x4 ADD PUSH2 0x2314 JUMP JUMPDEST PUSH1 0x20 PUSH1 0x40 MLOAD DUP1 DUP4 SUB DUP2 PUSH1 0x0 DUP8 DUP1 EXTCODESIZE ISZERO DUP1 ISZERO PUSH2 0x1C1C JUMPI PUSH1 0x0 DUP1 REVERT JUMPDEST POP GAS CALL SWAP3 POP POP POP DUP1 ISZERO PUSH2 0x1C6A JUMPI POP PUSH1 0x40 DUP1 MLOAD PUSH1 0x1F RETURNDATASIZE SWAP1 DUP2 ADD PUSH32 0xFFFFFFFFFFFFFFFFFFFFFFFFFFFFFFFFFFFFFFFFFFFFFFFFFFFFFFFFFFFFFFE0 AND DUP3 ADD SWAP1 SWAP3 MSTORE PUSH2 0x1C67 SWAP2 DUP2 ADD SWAP1 PUSH2 0x2221 JUMP JUMPDEST PUSH1 0x1 JUMPDEST PUSH2 0x1D34 JUMPI RETURNDATASIZE DUP1 DUP1 ISZERO PUSH2 0x1C98 JUMPI PUSH1 0x40 MLOAD SWAP2 POP PUSH1 0x1F NOT PUSH1 0x3F RETURNDATASIZE ADD AND DUP3 ADD PUSH1 0x40 MSTORE RETURNDATASIZE DUP3 MSTORE RETURNDATASIZE PUSH1 0x0 PUSH1 0x20 DUP5 ADD RETURNDATACOPY PUSH2 0x1C9D JUMP JUMPDEST PUSH1 0x60 SWAP2 POP JUMPDEST POP DUP1 MLOAD PUSH2 0x1D2C JUMPI PUSH1 0x40 MLOAD PUSH32 0x8C379A000000000000000000000000000000000000000000000000000000000 DUP2 MSTORE PUSH1 0x20 PUSH1 0x4 DUP3 ADD MSTORE PUSH1 0x32 PUSH1 0x24 DUP3 ADD MSTORE PUSH32 0x4552433732313A207472616E7366657220746F206E6F6E204552433732315265 PUSH1 0x44 DUP3 ADD MSTORE PUSH32 0x63656976657220696D706C656D656E7465720000000000000000000000000000 PUSH1 0x64 DUP3 ADD MSTORE PUSH1 0x84 ADD PUSH2 0x686 JUMP JUMPDEST DUP1 MLOAD DUP2 PUSH1 0x20 ADD REVERT JUMPDEST PUSH32 0xFFFFFFFF00000000000000000000000000000000000000000000000000000000 AND PUSH32 0x150B7A0200000000000000000000000000000000000000000000000000000000 EQ SWAP1 POP PUSH2 0x1656 JUMP JUMPDEST POP PUSH1 0x1 SWAP5 SWAP4 POP POP POP POP JUMP JUMPDEST PUSH20 0xFFFFFFFFFFFFFFFFFFFFFFFFFFFFFFFFFFFFFFFF DUP3 AND PUSH2 0x1E07 JUMPI PUSH1 0x40 MLOAD PUSH32 0x8C379A000000000000000000000000000000000000000000000000000000000 DUP2 MSTORE PUSH1 0x20 PUSH1 0x4 DUP3 ADD DUP2 SWAP1 MSTORE PUSH1 0x24 DUP3 ADD MSTORE PUSH32 0x4552433732313A206D696E7420746F20746865207A65726F2061646472657373 PUSH1 0x44 DUP3 ADD MSTORE PUSH1 0x64 ADD PUSH2 0x686 JUMP JUMPDEST PUSH1 0x0 DUP2 DUP2 MSTORE PUSH1 0x2 PUSH1 0x20 MSTORE PUSH1 0x40 SWAP1 KECCAK256 SLOAD PUSH20 0xFFFFFFFFFFFFFFFFFFFFFFFFFFFFFFFFFFFFFFFF AND ISZERO PUSH2 0x1E93 JUMPI PUSH1 0x40 MLOAD PUSH32 0x8C379A000000000000000000000000000000000000000000000000000000000 DUP2 MSTORE PUSH1 0x20 PUSH1 0x4 DUP3 ADD MSTORE PUSH1 0x1C PUSH1 0x24 DUP3 ADD MSTORE PUSH32 0x4552433732313A20746F6B656E20616C7265616479206D696E74656400000000 PUSH1 0x44 DUP3 ADD MSTORE PUSH1 0x64 ADD PUSH2 0x686 JUMP JUMPDEST PUSH20 0xFFFFFFFFFFFFFFFFFFFFFFFFFFFFFFFFFFFFFFFF DUP3 AND PUSH1 0x0 SWAP1 DUP2 MSTORE PUSH1 0x3 PUSH1 0x20 MSTORE PUSH1 0x40 DUP2 KECCAK256 DUP1 SLOAD PUSH1 0x1 SWAP3 SWAP1 PUSH2 0x1EC9 SWAP1 DUP5 SWAP1 PUSH2 0x244D JUMP JUMPDEST SWAP1 SWAP2 SSTORE POP POP PUSH1 0x0 DUP2 DUP2 MSTORE PUSH1 0x2 PUSH1 0x20 MSTORE PUSH1 0x40 DUP1 DUP3 KECCAK256 DUP1 SLOAD PUSH32 0xFFFFFFFFFFFFFFFFFFFFFFFF0000000000000000000000000000000000000000 AND PUSH20 0xFFFFFFFFFFFFFFFFFFFFFFFFFFFFFFFFFFFFFFFF DUP7 AND SWAP1 DUP2 OR SWAP1 SWAP2 SSTORE SWAP1 MLOAD DUP4 SWAP3 SWAP1 PUSH32 0xDDF252AD1BE2C89B69C2B068FC378DAA952BA7F163C4A11628F55A4DF523B3EF SWAP1 DUP3 SWAP1 LOG4 POP POP JUMP JUMPDEST DUP3 DUP1 SLOAD PUSH2 0x1F58 SWAP1 PUSH2 0x24F1 JUMP JUMPDEST SWAP1 PUSH1 0x0 MSTORE PUSH1 0x20 PUSH1 0x0 KECCAK256 SWAP1 PUSH1 0x1F ADD PUSH1 0x20 SWAP1 DIV DUP2 ADD SWAP3 DUP3 PUSH2 0x1F7A JUMPI PUSH1 0x0 DUP6 SSTORE PUSH2 0x1FC0 JUMP JUMPDEST DUP3 PUSH1 0x1F LT PUSH2 0x1F93 JUMPI DUP1 MLOAD PUSH1 0xFF NOT AND DUP4 DUP1 ADD OR DUP6 SSTORE PUSH2 0x1FC0 JUMP JUMPDEST DUP3 DUP1 ADD PUSH1 0x1 ADD DUP6 SSTORE DUP3 ISZERO PUSH2 0x1FC0 JUMPI SWAP2 DUP3 ADD JUMPDEST DUP3 DUP2 GT ISZERO PUSH2 0x1FC0 JUMPI DUP3 MLOAD DUP3 SSTORE SWAP2 PUSH1 0x20 ADD SWAP2 SWAP1 PUSH1 0x1 ADD SWAP1 PUSH2 0x1FA5 JUMP JUMPDEST POP PUSH2 0x1FCC SWAP3 SWAP2 POP PUSH2 0x1FD0 JUMP JUMPDEST POP SWAP1 JUMP JUMPDEST JUMPDEST DUP1 DUP3 GT ISZERO PUSH2 0x1FCC JUMPI PUSH1 0x0 DUP2 SSTORE PUSH1 0x1 ADD PUSH2 0x1FD1 JUMP JUMPDEST PUSH1 0x0 PUSH8 0xFFFFFFFFFFFFFFFF DUP1 DUP5 GT ISZERO PUSH2 0x2000 JUMPI PUSH2 0x2000 PUSH2 0x25F0 JUMP JUMPDEST PUSH1 0x40 MLOAD PUSH1 0x1F DUP6 ADD PUSH32 0xFFFFFFFFFFFFFFFFFFFFFFFFFFFFFFFFFFFFFFFFFFFFFFFFFFFFFFFFFFFFFFE0 SWAP1 DUP2 AND PUSH1 0x3F ADD AND DUP2 ADD SWAP1 DUP3 DUP3 GT DUP2 DUP4 LT OR ISZERO PUSH2 0x2046 JUMPI PUSH2 0x2046 PUSH2 0x25F0 JUMP JUMPDEST DUP2 PUSH1 0x40 MSTORE DUP1 SWAP4 POP DUP6 DUP2 MSTORE DUP7 DUP7 DUP7 ADD GT ISZERO PUSH2 0x205F JUMPI PUSH1 0x0 DUP1 REVERT JUMPDEST DUP6 DUP6 PUSH1 0x20 DUP4 ADD CALLDATACOPY PUSH1 0x0 PUSH1 0x20 DUP8 DUP4 ADD ADD MSTORE POP POP POP SWAP4 SWAP3 POP POP POP JUMP JUMPDEST DUP1 CALLDATALOAD PUSH20 0xFFFFFFFFFFFFFFFFFFFFFFFFFFFFFFFFFFFFFFFF DUP2 AND DUP2 EQ PUSH2 0x209D JUMPI PUSH1 0x0 DUP1 REVERT JUMPDEST SWAP2 SWAP1 POP JUMP JUMPDEST PUSH1 0x0 PUSH1 0x20 DUP3 DUP5 SUB SLT ISZERO PUSH2 0x20B3 JUMPI DUP1 DUP2 REVERT JUMPDEST PUSH2 0x100C DUP3 PUSH2 0x2079 JUMP JUMPDEST PUSH1 0x0 DUP1 PUSH1 0x40 DUP4 DUP6 SUB SLT ISZERO PUSH2 0x20CE JUMPI DUP1 DUP2 REVERT JUMPDEST PUSH2 0x20D7 DUP4 PUSH2 0x2079 JUMP JUMPDEST SWAP2 POP PUSH2 0x20E5 PUSH1 0x20 DUP5 ADD PUSH2 0x2079 JUMP JUMPDEST SWAP1 POP SWAP3 POP SWAP3 SWAP1 POP JUMP JUMPDEST PUSH1 0x0 DUP1 PUSH1 0x0 PUSH1 0x60 DUP5 DUP7 SUB SLT ISZERO PUSH2 0x2102 JUMPI DUP1 DUP2 REVERT JUMPDEST PUSH2 0x210B DUP5 PUSH2 0x2079 JUMP JUMPDEST SWAP3 POP PUSH2 0x2119 PUSH1 0x20 DUP6 ADD PUSH2 0x2079 JUMP JUMPDEST SWAP2 POP PUSH1 0x40 DUP5 ADD CALLDATALOAD SWAP1 POP SWAP3 POP SWAP3 POP SWAP3 JUMP JUMPDEST PUSH1 0x0 DUP1 PUSH1 0x0 DUP1 PUSH1 0x80 DUP6 DUP8 SUB SLT ISZERO PUSH2 0x213E JUMPI DUP1 DUP2 REVERT JUMPDEST PUSH2 0x2147 DUP6 PUSH2 0x2079 JUMP JUMPDEST SWAP4 POP PUSH2 0x2155 PUSH1 0x20 DUP7 ADD PUSH2 0x2079 JUMP JUMPDEST SWAP3 POP PUSH1 0x40 DUP6 ADD CALLDATALOAD SWAP2 POP PUSH1 0x60 DUP6 ADD CALLDATALOAD PUSH8 0xFFFFFFFFFFFFFFFF DUP2 GT ISZERO PUSH2 0x2177 JUMPI DUP2 DUP3 REVERT JUMPDEST DUP6 ADD PUSH1 0x1F DUP2 ADD DUP8 SGT PUSH2 0x2187 JUMPI DUP2 DUP3 REVERT JUMPDEST PUSH2 0x2196 DUP8 DUP3 CALLDATALOAD PUSH1 0x20 DUP5 ADD PUSH2 0x1FE5 JUMP JUMPDEST SWAP2 POP POP SWAP3 SWAP6 SWAP2 SWAP5 POP SWAP3 POP JUMP JUMPDEST PUSH1 0x0 DUP1 PUSH1 0x40 DUP4 DUP6 SUB SLT ISZERO PUSH2 0x21B4 JUMPI DUP2 DUP3 REVERT JUMPDEST PUSH2 0x21BD DUP4 PUSH2 0x2079 JUMP JUMPDEST SWAP2 POP PUSH1 0x20 DUP4 ADD CALLDATALOAD DUP1 ISZERO ISZERO DUP2 EQ PUSH2 0x21D1 JUMPI DUP2 DUP3 REVERT JUMPDEST DUP1 SWAP2 POP POP SWAP3 POP SWAP3 SWAP1 POP JUMP JUMPDEST PUSH1 0x0 DUP1 PUSH1 0x40 DUP4 DUP6 SUB SLT ISZERO PUSH2 0x21EE JUMPI DUP2 DUP3 REVERT JUMPDEST PUSH2 0x21F7 DUP4 PUSH2 0x2079 JUMP JUMPDEST SWAP5 PUSH1 0x20 SWAP4 SWAP1 SWAP4 ADD CALLDATALOAD SWAP4 POP POP POP JUMP JUMPDEST PUSH1 0x0 PUSH1 0x20 DUP3 DUP5 SUB SLT ISZERO PUSH2 0x2216 JUMPI DUP1 DUP2 REVERT JUMPDEST DUP2 CALLDATALOAD PUSH2 0x100C DUP2 PUSH2 0x261F JUMP JUMPDEST PUSH1 0x0 PUSH1 0x20 DUP3 DUP5 SUB SLT ISZERO PUSH2 0x2232 JUMPI DUP1 DUP2 REVERT JUMPDEST DUP2 MLOAD PUSH2 0x100C DUP2 PUSH2 0x261F JUMP JUMPDEST PUSH1 0x0 PUSH1 0x20 DUP3 DUP5 SUB SLT ISZERO PUSH2 0x224E JUMPI DUP1 DUP2 REVERT JUMPDEST DUP2 CALLDATALOAD PUSH8 0xFFFFFFFFFFFFFFFF DUP2 GT ISZERO PUSH2 0x2264 JUMPI DUP2 DUP3 REVERT JUMPDEST DUP3 ADD PUSH1 0x1F DUP2 ADD DUP5 SGT PUSH2 0x2274 JUMPI DUP2 DUP3 REVERT JUMPDEST PUSH2 0x1656 DUP5 DUP3 CALLDATALOAD PUSH1 0x20 DUP5 ADD PUSH2 0x1FE5 JUMP JUMPDEST PUSH1 0x0 PUSH1 0x20 DUP3 DUP5 SUB SLT ISZERO PUSH2 0x2294 JUMPI DUP1 DUP2 REVERT JUMPDEST POP CALLDATALOAD SWAP2 SWAP1 POP JUMP JUMPDEST PUSH1 0x0 DUP2 MLOAD DUP1 DUP5 MSTORE PUSH2 0x22B3 DUP2 PUSH1 0x20 DUP7 ADD PUSH1 0x20 DUP7 ADD PUSH2 0x2490 JUMP JUMPDEST PUSH1 0x1F ADD PUSH32 0xFFFFFFFFFFFFFFFFFFFFFFFFFFFFFFFFFFFFFFFFFFFFFFFFFFFFFFFFFFFFFFE0 AND SWAP3 SWAP1 SWAP3 ADD PUSH1 0x20 ADD SWAP3 SWAP2 POP POP JUMP JUMPDEST PUSH1 0x0 DUP4 MLOAD PUSH2 0x22F7 DUP2 DUP5 PUSH1 0x20 DUP9 ADD PUSH2 0x2490 JUMP JUMPDEST DUP4 MLOAD SWAP1 DUP4 ADD SWAP1 PUSH2 0x230B DUP2 DUP4 PUSH1 0x20 DUP9 ADD PUSH2 0x2490 JUMP JUMPDEST ADD SWAP5 SWAP4 POP POP POP POP JUMP JUMPDEST PUSH1 0x0 PUSH20 0xFFFFFFFFFFFFFFFFFFFFFFFFFFFFFFFFFFFFFFFF DUP1 DUP8 AND DUP4 MSTORE DUP1 DUP7 AND PUSH1 0x20 DUP5 ADD MSTORE POP DUP4 PUSH1 0x40 DUP4 ADD MSTORE PUSH1 0x80 PUSH1 0x60 DUP4 ADD MSTORE PUSH2 0x2353 PUSH1 0x80 DUP4 ADD DUP5 PUSH2 0x229B JUMP JUMPDEST SWAP7 SWAP6 POP POP POP POP POP POP JUMP JUMPDEST PUSH1 0x20 DUP2 MSTORE PUSH1 0x0 PUSH2 0x100C PUSH1 0x20 DUP4 ADD DUP5 PUSH2 0x229B JUMP JUMPDEST PUSH1 0x0 PUSH1 0x20 DUP1 DUP4 MSTORE DUP2 DUP5 SLOAD DUP4 PUSH1 0x1 DUP3 DUP2 SHR SWAP2 POP DUP1 DUP4 AND DUP1 PUSH2 0x2391 JUMPI PUSH1 0x7F DUP4 AND SWAP3 POP JUMPDEST DUP6 DUP4 LT DUP2 EQ ISZERO PUSH2 0x23C8 JUMPI PUSH32 0x4E487B7100000000000000000000000000000000000000000000000000000000 DUP8 MSTORE PUSH1 0x22 PUSH1 0x4 MSTORE PUSH1 0x24 DUP8 REVERT JUMPDEST DUP8 DUP7 ADD DUP4 DUP2 MSTORE PUSH1 0x20 ADD DUP2 DUP1 ISZERO PUSH2 0x23E5 JUMPI PUSH1 0x1 DUP2 EQ PUSH2 0x2414 JUMPI PUSH2 0x243E JUMP JUMPDEST PUSH32 0xFFFFFFFFFFFFFFFFFFFFFFFFFFFFFFFFFFFFFFFFFFFFFFFFFFFFFFFFFFFFFF00 DUP7 AND DUP3 MSTORE DUP8 DUP3 ADD SWAP7 POP PUSH2 0x243E JUMP JUMPDEST PUSH1 0x0 DUP12 DUP2 MSTORE PUSH1 0x20 SWAP1 KECCAK256 DUP10 JUMPDEST DUP7 DUP2 LT ISZERO PUSH2 0x2438 JUMPI DUP2 SLOAD DUP5 DUP3 ADD MSTORE SWAP1 DUP6 ADD SWAP1 DUP10 ADD PUSH2 0x241F JUMP JUMPDEST DUP4 ADD SWAP8 POP POP JUMPDEST POP SWAP5 SWAP10 SWAP9 POP POP POP POP POP POP POP POP POP JUMP JUMPDEST PUSH1 0x0 DUP3 NOT DUP3 GT ISZERO PUSH2 0x2460 JUMPI PUSH2 0x2460 PUSH2 0x2592 JUMP JUMPDEST POP ADD SWAP1 JUMP JUMPDEST PUSH1 0x0 DUP3 PUSH2 0x2474 JUMPI PUSH2 0x2474 PUSH2 0x25C1 JUMP JUMPDEST POP DIV SWAP1 JUMP JUMPDEST PUSH1 0x0 DUP3 DUP3 LT ISZERO PUSH2 0x248B JUMPI PUSH2 0x248B PUSH2 0x2592 JUMP JUMPDEST POP SUB SWAP1 JUMP JUMPDEST PUSH1 0x0 JUMPDEST DUP4 DUP2 LT ISZERO PUSH2 0x24AB JUMPI DUP2 DUP2 ADD MLOAD DUP4 DUP3 ADD MSTORE PUSH1 0x20 ADD PUSH2 0x2493 JUMP JUMPDEST DUP4 DUP2 GT ISZERO PUSH2 0xF99 JUMPI POP POP PUSH1 0x0 SWAP2 ADD MSTORE JUMP JUMPDEST PUSH1 0x0 DUP2 PUSH2 0x24CB JUMPI PUSH2 0x24CB PUSH2 0x2592 JUMP JUMPDEST POP PUSH32 0xFFFFFFFFFFFFFFFFFFFFFFFFFFFFFFFFFFFFFFFFFFFFFFFFFFFFFFFFFFFFFFFF ADD SWAP1 JUMP JUMPDEST PUSH1 0x1 DUP2 DUP2 SHR SWAP1 DUP3 AND DUP1 PUSH2 0x2505 JUMPI PUSH1 0x7F DUP3 AND SWAP2 POP JUMPDEST PUSH1 0x20 DUP3 LT DUP2 EQ ISZERO PUSH2 0x253F JUMPI PUSH32 0x4E487B7100000000000000000000000000000000000000000000000000000000 PUSH1 0x0 MSTORE PUSH1 0x22 PUSH1 0x4 MSTORE PUSH1 0x24 PUSH1 0x0 REVERT JUMPDEST POP SWAP2 SWAP1 POP JUMP JUMPDEST PUSH1 0x0 PUSH32 0xFFFFFFFFFFFFFFFFFFFFFFFFFFFFFFFFFFFFFFFFFFFFFFFFFFFFFFFFFFFFFFFF DUP3 EQ ISZERO PUSH2 0x2577 JUMPI PUSH2 0x2577 PUSH2 0x2592 JUMP JUMPDEST POP PUSH1 0x1 ADD SWAP1 JUMP JUMPDEST PUSH1 0x0 DUP3 PUSH2 0x258D JUMPI PUSH2 0x258D PUSH2 0x25C1 JUMP JUMPDEST POP MOD SWAP1 JUMP JUMPDEST PUSH32 0x4E487B7100000000000000000000000000000000000000000000000000000000 PUSH1 0x0 MSTORE PUSH1 0x11 PUSH1 0x4 MSTORE PUSH1 0x24 PUSH1 0x0 REVERT JUMPDEST PUSH32 0x4E487B7100000000000000000000000000000000000000000000000000000000 PUSH1 0x0 MSTORE PUSH1 0x12 PUSH1 0x4 MSTORE PUSH1 0x24 PUSH1 0x0 REVERT JUMPDEST PUSH32 0x4E487B7100000000000000000000000000000000000000000000000000000000 PUSH1 0x0 MSTORE PUSH1 0x41 PUSH1 0x4 MSTORE PUSH1 0x24 PUSH1 0x0 REVERT JUMPDEST PUSH32 0xFFFFFFFF00000000000000000000000000000000000000000000000000000000 DUP2 AND DUP2 EQ PUSH2 0xA7C JUMPI PUSH1 0x0 DUP1 REVERT INVALID LOG2 PUSH5 0x6970667358 0x22 SLT KECCAK256 0x2A 0xC5 0xAC 0x27 0x1E 0x2E 0xF8 PUSH26 0x35DED3C422479BA1FC893742B6F0B0D00604A526FB887B56473 PUSH16 0x6C634300080400330000000000000000 "
				},
				"gasEstimates": {
					"creation": {
						"codeDepositCost": "1971800",
						"executionCost": "infinite",
						"totalCost": "infinite"
					},
					"external": {
						"NFTBonus()": "1080",
						"approve(address,uint256)": "infinite",
						"balanceOf(address)": "1299",
						"baseURI()": "infinite",
						"burn(uint256)": "infinite",
						"getApproved(uint256)": "2179",
						"getTotalSupply()": "1081",
						"isApprovedForAll(address,address)": "infinite",
						"isManager(address)": "1318",
						"name()": "infinite",
						"nextTokenId()": "1063",
						"owner()": "1097",
						"ownerOf(uint256)": "1303",
						"safeMint(address)": "infinite",
						"safeTransferFrom(address,address,uint256)": "infinite",
						"safeTransferFrom(address,address,uint256,bytes)": "infinite",
						"setApprovalForAll(address,bool)": "23302",
						"setBaseURI(string)": "infinite",
						"setManager(address,bool)": "22184",
						"setNFTBonus(address)": "22006",
						"supportsInterface(bytes4)": "479",
						"symbol()": "infinite",
						"tokenURI(uint256)": "infinite",
						"totalSupply()": "1063",
						"transferFrom(address,address,uint256)": "infinite",
						"transferOwnership(address)": "23421"
					}
				},
				"methodIdentifiers": {
					"NFTBonus()": "be88bb10",
					"approve(address,uint256)": "095ea7b3",
					"balanceOf(address)": "70a08231",
					"baseURI()": "6c0360eb",
					"burn(uint256)": "42966c68",
					"getApproved(uint256)": "081812fc",
					"getTotalSupply()": "c4e41b22",
					"isApprovedForAll(address,address)": "e985e9c5",
					"isManager(address)": "f3ae2415",
					"name()": "06fdde03",
					"nextTokenId()": "75794a3c",
					"owner()": "8da5cb5b",
					"ownerOf(uint256)": "6352211e",
					"safeMint(address)": "40d097c3",
					"safeTransferFrom(address,address,uint256)": "42842e0e",
					"safeTransferFrom(address,address,uint256,bytes)": "b88d4fde",
					"setApprovalForAll(address,bool)": "a22cb465",
					"setBaseURI(string)": "55f804b3",
					"setManager(address,bool)": "a5e90eee",
					"setNFTBonus(address)": "3576622a",
					"supportsInterface(bytes4)": "01ffc9a7",
					"symbol()": "95d89b41",
					"tokenURI(uint256)": "c87b56dd",
					"totalSupply()": "18160ddd",
					"transferFrom(address,address,uint256)": "23b872dd",
					"transferOwnership(address)": "f2fde38b"
				}
			},
			"storageLayout": {
				"storage": [
					{
						"astId": 25,
						"contract": "ETNFT.sol:ETNFT",
						"label": "_name",
						"offset": 0,
						"slot": "0",
						"type": "t_string_storage"
					},
					{
						"astId": 27,
						"contract": "ETNFT.sol:ETNFT",
						"label": "_symbol",
						"offset": 0,
						"slot": "1",
						"type": "t_string_storage"
					},
					{
						"astId": 31,
						"contract": "ETNFT.sol:ETNFT",
						"label": "_owners",
						"offset": 0,
						"slot": "2",
						"type": "t_mapping(t_uint256,t_address)"
					},
					{
						"astId": 35,
						"contract": "ETNFT.sol:ETNFT",
						"label": "_balances",
						"offset": 0,
						"slot": "3",
						"type": "t_mapping(t_address,t_uint256)"
					},
					{
						"astId": 39,
						"contract": "ETNFT.sol:ETNFT",
						"label": "_tokenApprovals",
						"offset": 0,
						"slot": "4",
						"type": "t_mapping(t_uint256,t_address)"
					},
					{
						"astId": 45,
						"contract": "ETNFT.sol:ETNFT",
						"label": "_operatorApprovals",
						"offset": 0,
						"slot": "5",
						"type": "t_mapping(t_address,t_mapping(t_address,t_bool))"
					},
					{
						"astId": 1617,
						"contract": "ETNFT.sol:ETNFT",
						"label": "_name",
						"offset": 0,
						"slot": "6",
						"type": "t_string_storage"
					},
					{
						"astId": 1619,
						"contract": "ETNFT.sol:ETNFT",
						"label": "_symbol",
						"offset": 0,
						"slot": "7",
						"type": "t_string_storage"
					},
					{
						"astId": 1621,
						"contract": "ETNFT.sol:ETNFT",
						"label": "nextTokenId",
						"offset": 0,
						"slot": "8",
						"type": "t_uint256"
					},
					{
						"astId": 1623,
						"contract": "ETNFT.sol:ETNFT",
						"label": "_owner",
						"offset": 0,
						"slot": "9",
						"type": "t_address"
					},
					{
						"astId": 1627,
						"contract": "ETNFT.sol:ETNFT",
						"label": "isManager",
						"offset": 0,
						"slot": "10",
						"type": "t_mapping(t_address,t_bool)"
					},
					{
						"astId": 1629,
						"contract": "ETNFT.sol:ETNFT",
						"label": "_baseTokenURI",
						"offset": 0,
						"slot": "11",
						"type": "t_string_storage"
					},
					{
						"astId": 1631,
						"contract": "ETNFT.sol:ETNFT",
						"label": "totalSupply",
						"offset": 0,
						"slot": "12",
						"type": "t_uint256"
					},
					{
						"astId": 1633,
						"contract": "ETNFT.sol:ETNFT",
						"label": "NFTBonus",
						"offset": 0,
						"slot": "13",
						"type": "t_address"
					}
				],
				"types": {
					"t_address": {
						"encoding": "inplace",
						"label": "address",
						"numberOfBytes": "20"
					},
					"t_bool": {
						"encoding": "inplace",
						"label": "bool",
						"numberOfBytes": "1"
					},
					"t_mapping(t_address,t_bool)": {
						"encoding": "mapping",
						"key": "t_address",
						"label": "mapping(address => bool)",
						"numberOfBytes": "32",
						"value": "t_bool"
					},
					"t_mapping(t_address,t_mapping(t_address,t_bool))": {
						"encoding": "mapping",
						"key": "t_address",
						"label": "mapping(address => mapping(address => bool))",
						"numberOfBytes": "32",
						"value": "t_mapping(t_address,t_bool)"
					},
					"t_mapping(t_address,t_uint256)": {
						"encoding": "mapping",
						"key": "t_address",
						"label": "mapping(address => uint256)",
						"numberOfBytes": "32",
						"value": "t_uint256"
					},
					"t_mapping(t_uint256,t_address)": {
						"encoding": "mapping",
						"key": "t_uint256",
						"label": "mapping(uint256 => address)",
						"numberOfBytes": "32",
						"value": "t_address"
					},
					"t_string_storage": {
						"encoding": "bytes",
						"label": "string",
						"numberOfBytes": "32"
					},
					"t_uint256": {
						"encoding": "inplace",
						"label": "uint256",
						"numberOfBytes": "32"
					}
				}
			},
			"userdoc": {
				"kind": "user",
				"methods": {},
				"version": 1
			}
		}
	}
}