{
	"data": {
		"bytecode": {
			"linkReferences": {},
			"object": "6080604052348015600f57600080fd5b5060968061001e6000396000f3fe608060405260043610602a5760003560e01c80632e52d6061460395780638381f58a14604d57600080fd5b3660345734600055005b600080fd5b345b60405190815260200160405180910390f35b348015605857600080fd5b50600054603b56fea264697066735822122080b3a4869498ef1a18cceb4837a16b3f46d4c7a6bbc213e0f5ce12d5f3e4a35a64736f6c63430008040033",
			"opcodes": "PUSH1 0x80 PUSH1 0x40 MSTORE CALLVALUE DUP1 ISZERO PUSH1 0xF JUMPI PUSH1 0x0 DUP1 REVERT JUMPDEST POP PUSH1 0x96 DUP1 PUSH2 0x1E PUSH1 0x0 CODECOPY PUSH1 0x0 RETURN INVALID PUSH1 0x80 PUSH1 0x40 MSTORE PUSH1 0x4 CALLDATASIZE LT PUSH1 0x2A JUMPI PUSH1 0x0 CALLDATALOAD PUSH1 0xE0 SHR DUP1 PUSH4 0x2E52D606 EQ PUSH1 0x39 JUMPI DUP1 PUSH4 0x8381F58A EQ PUSH1 0x4D JUMPI PUSH1 0x0 DUP1 REVERT JUMPDEST CALLDATASIZE PUSH1 0x34 JUMPI CALLVALUE PUSH1 0x0 SSTORE STOP JUMPDEST PUSH1 0x0 DUP1 REVERT JUMPDEST CALLVALUE JUMPDEST PUSH1 0x40 MLOAD SWAP1 DUP2 MSTORE PUSH1 0x20 ADD PUSH1 0x40 MLOAD DUP1 SWAP2 SUB SWAP1 RETURN JUMPDEST CALLVALUE DUP1 ISZERO PUSH1 0x58 JUMPI PUSH1 0x0 DUP1 REVERT JUMPDEST POP PUSH1 0x0 SLOAD PUSH1 0x3B JUMP INVALID LOG2 PUSH5 0x6970667358 0x22 SLT KECCAK256 DUP1 0xB3 LOG4 DUP7 SWAP5 SWAP9 0xEF BYTE XOR 0xCC 0xEB 0x48 CALLDATACOPY LOG1 PUSH12 0x3F46D4C7A6BBC213E0F5CE12 0xD5 RETURN 0xE4 LOG3 GAS PUSH5 0x736F6C6343 STOP ADDMOD DIV STOP CALLER "
		},
		"gasEstimates": {
			"creation": {
				"codeDepositCost": "30000",
				"executionCost": "81",
				"totalCost": "30081"
			},
			"external": {
				"n()": "122",
				"number()": "980"
			}
		},
		"methodIdentifiers": {
			"n()": "2e52d606",
			"number()": "8381f58a"
		}
	},
	"abi": [
		{
			"inputs": [],
			"name": "n",
			"outputs": [
				{
					"internalType": "uint256",
					"name": "",
					"type": "uint256"
				}
			],
			"stateMutability": "payable",
			"type": "function"
		},
		{
			"inputs": [],
			"name": "number",
			"outputs": [
				{
					"internalType": "uint256",
					"name": "",
					"type": "uint256"
				}
			],
			"stateMutability": "view",
			"type": "function"
		},
		{
			"stateMutability": "payable",
			"type": "receive"
		}
	]
}