{
	"data": {
		"bytecode": {
			"linkReferences": {},
			"object": "608060405260006004556000600555624f1a006006553480156200002257600080fd5b5060405162002c1938038062002c198339810160408190526200004591620000bf565b60018055600280546001600160a01b039485166001600160a01b0319918216179091556003805493851693821693909317909255600080549490931693821693909317909155600691909155600e80549091163317905562000110565b80516001600160a01b0381168114620000ba57600080fd5b919050565b60008060008060808587031215620000d5578384fd5b620000e085620000a2565b9350620000f060208601620000a2565b92506200010060408601620000a2565b6060959095015193969295505050565b612af980620001206000396000f3fe608060405234801561001057600080fd5b50600436106101d95760003560e01c80637b0a47ee11610104578063c8f33c91116100a2578063df136d6511610071578063df136d6514610449578063e9fad8ee14610452578063ebe2b12b1461045a578063ecd9ba821461046357600080fd5b8063c8f33c9114610410578063cd3daf9d14610419578063d1af0c7d14610421578063d670d9a61461044157600080fd5b80638c60b108116100de5780638c60b1081461039f5780638da5cb5b146103bf57806397f35082146103dd578063a694fc3a146103fd57600080fd5b80637b0a47ee1461036e57806380faa57d146103775780638b8763471461037f57600080fd5b8063265172e21161017c5780633d18b9121161014b5780633d18b912146102cb5780633fc6df6e146102d357806370a082311461031857806372f702f31461034e57600080fd5b8063265172e21461027c5780632e1a7d4d1461029c578063386a9525146102af5780633c6b16ab146102b857600080fd5b806311ab0262116101b857806311ab02621461024457806313af40351461025957806318160ddd1461026c5780631c1f78eb1461027457600080fd5b80628cc262146101de5780630700037d14610204578063112d5c6514610224575b600080fd5b6101f16101ec366004612821565b610476565b6040519081526020015b60405180910390f35b6101f1610212366004612821565b600a6020526000908152604090205481565b6101f1610232366004612821565b60106020526000908152604090205481565b610257610252366004612821565b6104f8565b005b610257610267366004612821565b6105e1565b600b546101f1565b6101f16106c5565b6101f161028a366004612821565b600f6020526000908152604090205481565b6102576102aa366004612879565b6106e3565b6101f160065481565b6102576102c6366004612879565b610bbf565b610257611153565b6000546102f39073ffffffffffffffffffffffffffffffffffffffff1681565b60405173ffffffffffffffffffffffffffffffffffffffff90911681526020016101fb565b6101f1610326366004612821565b73ffffffffffffffffffffffffffffffffffffffff166000908152600c602052604090205490565b6003546102f39073ffffffffffffffffffffffffffffffffffffffff1681565b6101f160055481565b6101f1611525565b6101f161038d366004612821565b60096020526000908152604090205481565b600d546102f39073ffffffffffffffffffffffffffffffffffffffff1681565b600e5473ffffffffffffffffffffffffffffffffffffffff166102f3565b6101f16103eb366004612821565b60116020526000908152604090205481565b61025761040b366004612879565b611533565b6101f160075481565b6101f1611991565b6002546102f39073ffffffffffffffffffffffffffffffffffffffff1681565b6102576119dd565b6101f160085481565b610257611da7565b6101f160045481565b6102576104713660046128a9565b611dca565b73ffffffffffffffffffffffffffffffffffffffff81166000908152600960205260408120546104f290670de0b6b3a7640000906104ec906104c0906104ba611991565b906122d5565b73ffffffffffffffffffffffffffffffffffffffff86166000908152600c6020526040902054906122e8565b906122f4565b92915050565b33610518600e5473ffffffffffffffffffffffffffffffffffffffff1690565b73ffffffffffffffffffffffffffffffffffffffff161461059a576040517f08c379a000000000000000000000000000000000000000000000000000000000815260206004820181905260248201527f4f776e61626c653a2063616c6c6572206973206e6f7420746865206f776e657260448201526064015b60405180910390fd5b600d80547fffffffffffffffffffffffff00000000000000000000000000000000000000001673ffffffffffffffffffffffffffffffffffffffff92909216919091179055565b33610601600e5473ffffffffffffffffffffffffffffffffffffffff1690565b73ffffffffffffffffffffffffffffffffffffffff161461067e576040517f08c379a000000000000000000000000000000000000000000000000000000000815260206004820181905260248201527f4f776e61626c653a2063616c6c6572206973206e6f7420746865206f776e65726044820152606401610591565b600e80547fffffffffffffffffffffffff00000000000000000000000000000000000000001673ffffffffffffffffffffffffffffffffffffffff92909216919091179055565b60006106de6006546005546122e890919063ffffffff16565b905090565b60026001541415610750576040517f08c379a000000000000000000000000000000000000000000000000000000000815260206004820152601f60248201527f5265656e7472616e637947756172643a207265656e7472616e742063616c6c006044820152606401610591565b60026001553361075e611991565b600855610769611525565b60075573ffffffffffffffffffffffffffffffffffffffff811615610a2f57600061079382610476565b600d5490915073ffffffffffffffffffffffffffffffffffffffff16610815576040517f08c379a000000000000000000000000000000000000000000000000000000000815260206004820152601260248201527f73657420636f696e49646f4164647265737300000000000000000000000000006044820152606401610591565b600d546040517fe72ebdb700000000000000000000000000000000000000000000000000000000815273ffffffffffffffffffffffffffffffffffffffff8481166004830152600092169063e72ebdb79060240160206040518083038186803b15801561088157600080fd5b505afa158015610895573d6000803e3d6000fd5b505050506040513d601f19601f820116820180604052508101906108b9919061283d565b905073ffffffffffffffffffffffffffffffffffffffff8116156109c35773ffffffffffffffffffffffffffffffffffffffff81166000908152600c6020526040902054156109c3576000620186a0610914846101f46129ef565b61091e91906129b6565b73ffffffffffffffffffffffffffffffffffffffff831660009081526010602052604090205490915061095290829061299e565b73ffffffffffffffffffffffffffffffffffffffff831660009081526010602090815260408083209390935560119052205461098f90829061299e565b73ffffffffffffffffffffffffffffffffffffffff83166000908152601160205260409020556109bf8184612a2c565b9250505b73ffffffffffffffffffffffffffffffffffffffff83166000908152600a60205260409020546109f490839061299e565b73ffffffffffffffffffffffffffffffffffffffff84166000908152600a602090815260408083209390935560085460099091529190205550505b60008211610a99576040517f08c379a000000000000000000000000000000000000000000000000000000000815260206004820152601160248201527f43616e6e6f7420776974686472617720300000000000000000000000000000006044820152606401610591565b336000908152600f6020526040902054610ab39042612a2c565b6006541115610b1e576040517f08c379a000000000000000000000000000000000000000000000000000000000815260206004820152600d60248201527f69742773206e6f742074696d65000000000000000000000000000000000000006044820152606401610591565b600b54610b2b90836122d5565b600b55336000908152600c6020526040902054610b4890836122d5565b336000818152600c6020526040902091909155600354610b819173ffffffffffffffffffffffffffffffffffffffff9091169084612300565b60405182815233907f7084f5476618d8e60b11ef0d7d3f06914655adb8793e28ff7f018d4c76d505d5906020015b60405180910390a2505060018055565b60005473ffffffffffffffffffffffffffffffffffffffff163314610c66576040517f08c379a000000000000000000000000000000000000000000000000000000000815260206004820152602a60248201527f43616c6c6572206973206e6f742052657761726473446973747269627574696f60448201527f6e20636f6e7472616374000000000000000000000000000000000000000000006064820152608401610591565b6000610c70611991565b600855610c7b611525565b60075573ffffffffffffffffffffffffffffffffffffffff811615610f41576000610ca582610476565b600d5490915073ffffffffffffffffffffffffffffffffffffffff16610d27576040517f08c379a000000000000000000000000000000000000000000000000000000000815260206004820152601260248201527f73657420636f696e49646f4164647265737300000000000000000000000000006044820152606401610591565b600d546040517fe72ebdb700000000000000000000000000000000000000000000000000000000815273ffffffffffffffffffffffffffffffffffffffff8481166004830152600092169063e72ebdb79060240160206040518083038186803b158015610d9357600080fd5b505afa158015610da7573d6000803e3d6000fd5b505050506040513d601f19601f82011682018060405250810190610dcb919061283d565b905073ffffffffffffffffffffffffffffffffffffffff811615610ed55773ffffffffffffffffffffffffffffffffffffffff81166000908152600c602052604090205415610ed5576000620186a0610e26846101f46129ef565b610e3091906129b6565b73ffffffffffffffffffffffffffffffffffffffff8316600090815260106020526040902054909150610e6490829061299e565b73ffffffffffffffffffffffffffffffffffffffff8316600090815260106020908152604080832093909355601190522054610ea190829061299e565b73ffffffffffffffffffffffffffffffffffffffff8316600090815260116020526040902055610ed18184612a2c565b9250505b73ffffffffffffffffffffffffffffffffffffffff83166000908152600a6020526040902054610f0690839061299e565b73ffffffffffffffffffffffffffffffffffffffff84166000908152600a602090815260408083209390935560085460099091529190205550505b6004544210610f6057600654610f589083906122f4565b600555610fa3565b600454600090610f7090426122d5565b90506000610f89600554836122e890919063ffffffff16565b600654909150610f9d906104ec86846123d9565b60055550505b6002546040517f70a0823100000000000000000000000000000000000000000000000000000000815230600482015260009173ffffffffffffffffffffffffffffffffffffffff16906370a082319060240160206040518083038186803b15801561100d57600080fd5b505afa158015611021573d6000803e3d6000fd5b505050506040513d601f19601f820116820180604052508101906110459190612891565b905061108c6040518060400160405280600881526020017f6d7920746573743a000000000000000000000000000000000000000000000000815250600554836006546123e5565b60065461109a9082906122f4565b6005541115611105576040517f08c379a000000000000000000000000000000000000000000000000000000000815260206004820152601860248201527f50726f76696465642072657761726420746f6f206869676800000000000000006044820152606401610591565b42600781905560065461111891906123d9565b6004556040518381527fde88a922e0d3b88b24e9623efeb464919c6bf9f66857a65e2bfcf2ce87a9433d9060200160405180910390a1505050565b600260015414156111c0576040517f08c379a000000000000000000000000000000000000000000000000000000000815260206004820152601f60248201527f5265656e7472616e637947756172643a207265656e7472616e742063616c6c006044820152606401610591565b6002600155336111ce611991565b6008556111d9611525565b60075573ffffffffffffffffffffffffffffffffffffffff81161561149f57600061120382610476565b600d5490915073ffffffffffffffffffffffffffffffffffffffff16611285576040517f08c379a000000000000000000000000000000000000000000000000000000000815260206004820152601260248201527f73657420636f696e49646f4164647265737300000000000000000000000000006044820152606401610591565b600d546040517fe72ebdb700000000000000000000000000000000000000000000000000000000815273ffffffffffffffffffffffffffffffffffffffff8481166004830152600092169063e72ebdb79060240160206040518083038186803b1580156112f157600080fd5b505afa158015611305573d6000803e3d6000fd5b505050506040513d601f19601f82011682018060405250810190611329919061283d565b905073ffffffffffffffffffffffffffffffffffffffff8116156114335773ffffffffffffffffffffffffffffffffffffffff81166000908152600c602052604090205415611433576000620186a0611384846101f46129ef565b61138e91906129b6565b73ffffffffffffffffffffffffffffffffffffffff83166000908152601060205260409020549091506113c290829061299e565b73ffffffffffffffffffffffffffffffffffffffff83166000908152601060209081526040808320939093556011905220546113ff90829061299e565b73ffffffffffffffffffffffffffffffffffffffff831660009081526011602052604090205561142f8184612a2c565b9250505b73ffffffffffffffffffffffffffffffffffffffff83166000908152600a602052604090205461146490839061299e565b73ffffffffffffffffffffffffffffffffffffffff84166000908152600a602090815260408083209390935560085460099091529190205550505b336000908152600a6020526040902054801561151d57336000818152600a60205260408120556002546114eb9173ffffffffffffffffffffffffffffffffffffffff9091169083612300565b60405181815233907fe2403640ba68fed3a2f88b7557551d1993f84b99bb10ff833f0cf8db0c5e048690602001610baf565b505060018055565b60006106de42600454612480565b600260015414156115a0576040517f08c379a000000000000000000000000000000000000000000000000000000000815260206004820152601f60248201527f5265656e7472616e637947756172643a207265656e7472616e742063616c6c006044820152606401610591565b6002600155336115ae611991565b6008556115b9611525565b60075573ffffffffffffffffffffffffffffffffffffffff81161561187f5760006115e382610476565b600d5490915073ffffffffffffffffffffffffffffffffffffffff16611665576040517f08c379a000000000000000000000000000000000000000000000000000000000815260206004820152601260248201527f73657420636f696e49646f4164647265737300000000000000000000000000006044820152606401610591565b600d546040517fe72ebdb700000000000000000000000000000000000000000000000000000000815273ffffffffffffffffffffffffffffffffffffffff8481166004830152600092169063e72ebdb79060240160206040518083038186803b1580156116d157600080fd5b505afa1580156116e5573d6000803e3d6000fd5b505050506040513d601f19601f82011682018060405250810190611709919061283d565b905073ffffffffffffffffffffffffffffffffffffffff8116156118135773ffffffffffffffffffffffffffffffffffffffff81166000908152600c602052604090205415611813576000620186a0611764846101f46129ef565b61176e91906129b6565b73ffffffffffffffffffffffffffffffffffffffff83166000908152601060205260409020549091506117a290829061299e565b73ffffffffffffffffffffffffffffffffffffffff83166000908152601060209081526040808320939093556011905220546117df90829061299e565b73ffffffffffffffffffffffffffffffffffffffff831660009081526011602052604090205561180f8184612a2c565b9250505b73ffffffffffffffffffffffffffffffffffffffff83166000908152600a602052604090205461184490839061299e565b73ffffffffffffffffffffffffffffffffffffffff84166000908152600a602090815260408083209390935560085460099091529190205550505b600082116118e9576040517f08c379a000000000000000000000000000000000000000000000000000000000815260206004820152600e60248201527f43616e6e6f74207374616b6520300000000000000000000000000000000000006044820152606401610591565b336000908152600f60205260409020429055600b5461190890836123d9565b600b55336000908152600c602052604090205461192590836123d9565b336000818152600c602052604090209190915560035461195f9173ffffffffffffffffffffffffffffffffffffffff909116903085612496565b60405182815233907f9e71bc8eea02a63969f509818f2dafb9254532904319f9dbda79b67bd34a5f3d90602001610baf565b6000600b54600014156119a5575060085490565b6106de6119d4600b546104ec670de0b6b3a76400006119ce6005546119ce6007546104ba611525565b906122e8565b600854906123d9565b60026001541415611a4a576040517f08c379a000000000000000000000000000000000000000000000000000000000815260206004820152601f60248201527f5265656e7472616e637947756172643a207265656e7472616e742063616c6c006044820152606401610591565b600260015533611a58611991565b600855611a63611525565b60075573ffffffffffffffffffffffffffffffffffffffff811615611d29576000611a8d82610476565b600d5490915073ffffffffffffffffffffffffffffffffffffffff16611b0f576040517f08c379a000000000000000000000000000000000000000000000000000000000815260206004820152601260248201527f73657420636f696e49646f4164647265737300000000000000000000000000006044820152606401610591565b600d546040517fe72ebdb700000000000000000000000000000000000000000000000000000000815273ffffffffffffffffffffffffffffffffffffffff8481166004830152600092169063e72ebdb79060240160206040518083038186803b158015611b7b57600080fd5b505afa158015611b8f573d6000803e3d6000fd5b505050506040513d601f19601f82011682018060405250810190611bb3919061283d565b905073ffffffffffffffffffffffffffffffffffffffff811615611cbd5773ffffffffffffffffffffffffffffffffffffffff81166000908152600c602052604090205415611cbd576000620186a0611c0e846101f46129ef565b611c1891906129b6565b73ffffffffffffffffffffffffffffffffffffffff8316600090815260106020526040902054909150611c4c90829061299e565b73ffffffffffffffffffffffffffffffffffffffff8316600090815260106020908152604080832093909355601190522054611c8990829061299e565b73ffffffffffffffffffffffffffffffffffffffff8316600090815260116020526040902055611cb98184612a2c565b9250505b73ffffffffffffffffffffffffffffffffffffffff83166000908152600a6020526040902054611cee90839061299e565b73ffffffffffffffffffffffffffffffffffffffff84166000908152600a602090815260408083209390935560085460099091529190205550505b33600090815260106020526040902054801561151d5733600081815260106020526040812055600254611d759173ffffffffffffffffffffffffffffffffffffffff9091169083612300565b60405181815233907f783eeff930916a36777f27a7fea6add1c0393d392960bafc7ec85712cdb3780290602001610baf565b336000908152600c6020526040902054611dc0906106e3565b611dc8611153565b565b60026001541415611e37576040517f08c379a000000000000000000000000000000000000000000000000000000000815260206004820152601f60248201527f5265656e7472616e637947756172643a207265656e7472616e742063616c6c006044820152606401610591565b600260015533611e45611991565b600855611e50611525565b60075573ffffffffffffffffffffffffffffffffffffffff811615612116576000611e7a82610476565b600d5490915073ffffffffffffffffffffffffffffffffffffffff16611efc576040517f08c379a000000000000000000000000000000000000000000000000000000000815260206004820152601260248201527f73657420636f696e49646f4164647265737300000000000000000000000000006044820152606401610591565b600d546040517fe72ebdb700000000000000000000000000000000000000000000000000000000815273ffffffffffffffffffffffffffffffffffffffff8481166004830152600092169063e72ebdb79060240160206040518083038186803b158015611f6857600080fd5b505afa158015611f7c573d6000803e3d6000fd5b505050506040513d601f19601f82011682018060405250810190611fa0919061283d565b905073ffffffffffffffffffffffffffffffffffffffff8116156120aa5773ffffffffffffffffffffffffffffffffffffffff81166000908152600c6020526040902054156120aa576000620186a0611ffb846101f46129ef565b61200591906129b6565b73ffffffffffffffffffffffffffffffffffffffff831660009081526010602052604090205490915061203990829061299e565b73ffffffffffffffffffffffffffffffffffffffff831660009081526010602090815260408083209390935560119052205461207690829061299e565b73ffffffffffffffffffffffffffffffffffffffff83166000908152601160205260409020556120a68184612a2c565b9250505b73ffffffffffffffffffffffffffffffffffffffff83166000908152600a60205260409020546120db90839061299e565b73ffffffffffffffffffffffffffffffffffffffff84166000908152600a602090815260408083209390935560085460099091529190205550505b60008611612180576040517f08c379a000000000000000000000000000000000000000000000000000000000815260206004820152600e60248201527f43616e6e6f74207374616b6520300000000000000000000000000000000000006044820152606401610591565b600b5461218d90876123d9565b600b55336000908152600c60205260409020546121aa90876123d9565b336000818152600c6020526040908190209290925560035491517fd505accf0000000000000000000000000000000000000000000000000000000081526004810191909152306024820152604481018890526064810187905260ff8616608482015260a4810185905260c4810184905273ffffffffffffffffffffffffffffffffffffffff9091169063d505accf9060e401600060405180830381600087803b15801561225657600080fd5b505af115801561226a573d6000803e3d6000fd5b5050600354612294925073ffffffffffffffffffffffffffffffffffffffff169050333089612496565b60405186815233907f9e71bc8eea02a63969f509818f2dafb9254532904319f9dbda79b67bd34a5f3d9060200160405180910390a250506001805550505050565b60006122e18284612a2c565b9392505050565b60006122e182846129ef565b60006122e182846129b6565b60405173ffffffffffffffffffffffffffffffffffffffff83166024820152604481018290526123d49084907fa9059cbb00000000000000000000000000000000000000000000000000000000906064015b604080517fffffffffffffffffffffffffffffffffffffffffffffffffffffffffffffffe08184030181529190526020810180517bffffffffffffffffffffffffffffffffffffffffffffffffffffffff167fffffffff00000000000000000000000000000000000000000000000000000000909316929092179091526124f4565b505050565b60006122e1828461299e565b61247a848484846040516024016123ff949392919061296f565b604080517fffffffffffffffffffffffffffffffffffffffffffffffffffffffffffffffe08184030181529190526020810180517bffffffffffffffffffffffffffffffffffffffffffffffffffffffff167fa7a8785300000000000000000000000000000000000000000000000000000000179052612600565b50505050565b600081831061248f57816122e1565b5090919050565b60405173ffffffffffffffffffffffffffffffffffffffff8085166024830152831660448201526064810182905261247a9085907f23b872dd0000000000000000000000000000000000000000000000000000000090608401612352565b6000612556826040518060400160405280602081526020017f5361666545524332303a206c6f772d6c6576656c2063616c6c206661696c65648152508573ffffffffffffffffffffffffffffffffffffffff166126219092919063ffffffff16565b8051909150156123d457808060200190518101906125749190612859565b6123d4576040517f08c379a000000000000000000000000000000000000000000000000000000000815260206004820152602a60248201527f5361666545524332303a204552433230206f7065726174696f6e20646964206e60448201527f6f742073756363656564000000000000000000000000000000000000000000006064820152608401610591565b80516a636f6e736f6c652e6c6f67602083016000808483855afa5050505050565b60606126308484600085612638565b949350505050565b6060824710156126ca576040517f08c379a000000000000000000000000000000000000000000000000000000000815260206004820152602660248201527f416464726573733a20696e73756666696369656e742062616c616e636520666f60448201527f722063616c6c00000000000000000000000000000000000000000000000000006064820152608401610591565b73ffffffffffffffffffffffffffffffffffffffff85163b612748576040517f08c379a000000000000000000000000000000000000000000000000000000000815260206004820152601d60248201527f416464726573733a2063616c6c20746f206e6f6e2d636f6e74726163740000006044820152606401610591565b6000808673ffffffffffffffffffffffffffffffffffffffff1685876040516127719190612940565b60006040518083038185875af1925050503d80600081146127ae576040519150601f19603f3d011682016040523d82523d6000602084013e6127b3565b606091505b50915091506127c38282866127ce565b979650505050505050565b606083156127dd5750816122e1565b8251156127ed5782518084602001fd5b816040517f08c379a0000000000000000000000000000000000000000000000000000000008152600401610591919061295c565b600060208284031215612832578081fd5b81356122e181612a9e565b60006020828403121561284e578081fd5b81516122e181612a9e565b60006020828403121561286a578081fd5b815180151581146122e1578182fd5b60006020828403121561288a578081fd5b5035919050565b6000602082840312156128a2578081fd5b5051919050565b600080600080600060a086880312156128c0578081fd5b8535945060208601359350604086013560ff811681146128de578182fd5b94979396509394606081013594506080013592915050565b6000815180845261290e816020860160208601612a43565b601f017fffffffffffffffffffffffffffffffffffffffffffffffffffffffffffffffe0169290920160200192915050565b60008251612952818460208701612a43565b9190910192915050565b6020815260006122e160208301846128f6565b60808152600061298260808301876128f6565b6020830195909552506040810192909252606090910152919050565b600082198211156129b1576129b1612a6f565b500190565b6000826129ea577f4e487b710000000000000000000000000000000000000000000000000000000081526012600452602481fd5b500490565b6000817fffffffffffffffffffffffffffffffffffffffffffffffffffffffffffffffff0483118215151615612a2757612a27612a6f565b500290565b600082821015612a3e57612a3e612a6f565b500390565b60005b83811015612a5e578181015183820152602001612a46565b8381111561247a5750506000910152565b7f4e487b7100000000000000000000000000000000000000000000000000000000600052601160045260246000fd5b73ffffffffffffffffffffffffffffffffffffffff81168114612ac057600080fd5b5056fea26469706673582212207608161f730ba6103958749ae885edfba8888bab017ee4b45f8355aac0783d8c64736f6c63430008040033",
			"opcodes": "PUSH1 0x80 PUSH1 0x40 MSTORE PUSH1 0x0 PUSH1 0x4 SSTORE PUSH1 0x0 PUSH1 0x5 SSTORE PUSH3 0x4F1A00 PUSH1 0x6 SSTORE CALLVALUE DUP1 ISZERO PUSH3 0x22 JUMPI PUSH1 0x0 DUP1 REVERT JUMPDEST POP PUSH1 0x40 MLOAD PUSH3 0x2C19 CODESIZE SUB DUP1 PUSH3 0x2C19 DUP4 CODECOPY DUP2 ADD PUSH1 0x40 DUP2 SWAP1 MSTORE PUSH3 0x45 SWAP2 PUSH3 0xBF JUMP JUMPDEST PUSH1 0x1 DUP1 SSTORE PUSH1 0x2 DUP1 SLOAD PUSH1 0x1 PUSH1 0x1 PUSH1 0xA0 SHL SUB SWAP5 DUP6 AND PUSH1 0x1 PUSH1 0x1 PUSH1 0xA0 SHL SUB NOT SWAP2 DUP3 AND OR SWAP1 SWAP2 SSTORE PUSH1 0x3 DUP1 SLOAD SWAP4 DUP6 AND SWAP4 DUP3 AND SWAP4 SWAP1 SWAP4 OR SWAP1 SWAP3 SSTORE PUSH1 0x0 DUP1 SLOAD SWAP5 SWAP1 SWAP4 AND SWAP4 DUP3 AND SWAP4 SWAP1 SWAP4 OR SWAP1 SWAP2 SSTORE PUSH1 0x6 SWAP2 SWAP1 SWAP2 SSTORE PUSH1 0xE DUP1 SLOAD SWAP1 SWAP2 AND CALLER OR SWAP1 SSTORE PUSH3 0x110 JUMP JUMPDEST DUP1 MLOAD PUSH1 0x1 PUSH1 0x1 PUSH1 0xA0 SHL SUB DUP2 AND DUP2 EQ PUSH3 0xBA JUMPI PUSH1 0x0 DUP1 REVERT JUMPDEST SWAP2 SWAP1 POP JUMP JUMPDEST PUSH1 0x0 DUP1 PUSH1 0x0 DUP1 PUSH1 0x80 DUP6 DUP8 SUB SLT ISZERO PUSH3 0xD5 JUMPI DUP4 DUP5 REVERT JUMPDEST PUSH3 0xE0 DUP6 PUSH3 0xA2 JUMP JUMPDEST SWAP4 POP PUSH3 0xF0 PUSH1 0x20 DUP7 ADD PUSH3 0xA2 JUMP JUMPDEST SWAP3 POP PUSH3 0x100 PUSH1 0x40 DUP7 ADD PUSH3 0xA2 JUMP JUMPDEST PUSH1 0x60 SWAP6 SWAP1 SWAP6 ADD MLOAD SWAP4 SWAP7 SWAP3 SWAP6 POP POP POP JUMP JUMPDEST PUSH2 0x2AF9 DUP1 PUSH3 0x120 PUSH1 0x0 CODECOPY PUSH1 0x0 RETURN INVALID PUSH1 0x80 PUSH1 0x40 MSTORE CALLVALUE DUP1 ISZERO PUSH2 0x10 JUMPI PUSH1 0x0 DUP1 REVERT JUMPDEST POP PUSH1 0x4 CALLDATASIZE LT PUSH2 0x1D9 JUMPI PUSH1 0x0 CALLDATALOAD PUSH1 0xE0 SHR DUP1 PUSH4 0x7B0A47EE GT PUSH2 0x104 JUMPI DUP1 PUSH4 0xC8F33C91 GT PUSH2 0xA2 JUMPI DUP1 PUSH4 0xDF136D65 GT PUSH2 0x71 JUMPI DUP1 PUSH4 0xDF136D65 EQ PUSH2 0x449 JUMPI DUP1 PUSH4 0xE9FAD8EE EQ PUSH2 0x452 JUMPI DUP1 PUSH4 0xEBE2B12B EQ PUSH2 0x45A JUMPI DUP1 PUSH4 0xECD9BA82 EQ PUSH2 0x463 JUMPI PUSH1 0x0 DUP1 REVERT JUMPDEST DUP1 PUSH4 0xC8F33C91 EQ PUSH2 0x410 JUMPI DUP1 PUSH4 0xCD3DAF9D EQ PUSH2 0x419 JUMPI DUP1 PUSH4 0xD1AF0C7D EQ PUSH2 0x421 JUMPI DUP1 PUSH4 0xD670D9A6 EQ PUSH2 0x441 JUMPI PUSH1 0x0 DUP1 REVERT JUMPDEST DUP1 PUSH4 0x8C60B108 GT PUSH2 0xDE JUMPI DUP1 PUSH4 0x8C60B108 EQ PUSH2 0x39F JUMPI DUP1 PUSH4 0x8DA5CB5B EQ PUSH2 0x3BF JUMPI DUP1 PUSH4 0x97F35082 EQ PUSH2 0x3DD JUMPI DUP1 PUSH4 0xA694FC3A EQ PUSH2 0x3FD JUMPI PUSH1 0x0 DUP1 REVERT JUMPDEST DUP1 PUSH4 0x7B0A47EE EQ PUSH2 0x36E JUMPI DUP1 PUSH4 0x80FAA57D EQ PUSH2 0x377 JUMPI DUP1 PUSH4 0x8B876347 EQ PUSH2 0x37F JUMPI PUSH1 0x0 DUP1 REVERT JUMPDEST DUP1 PUSH4 0x265172E2 GT PUSH2 0x17C JUMPI DUP1 PUSH4 0x3D18B912 GT PUSH2 0x14B JUMPI DUP1 PUSH4 0x3D18B912 EQ PUSH2 0x2CB JUMPI DUP1 PUSH4 0x3FC6DF6E EQ PUSH2 0x2D3 JUMPI DUP1 PUSH4 0x70A08231 EQ PUSH2 0x318 JUMPI DUP1 PUSH4 0x72F702F3 EQ PUSH2 0x34E JUMPI PUSH1 0x0 DUP1 REVERT JUMPDEST DUP1 PUSH4 0x265172E2 EQ PUSH2 0x27C JUMPI DUP1 PUSH4 0x2E1A7D4D EQ PUSH2 0x29C JUMPI DUP1 PUSH4 0x386A9525 EQ PUSH2 0x2AF JUMPI DUP1 PUSH4 0x3C6B16AB EQ PUSH2 0x2B8 JUMPI PUSH1 0x0 DUP1 REVERT JUMPDEST DUP1 PUSH4 0x11AB0262 GT PUSH2 0x1B8 JUMPI DUP1 PUSH4 0x11AB0262 EQ PUSH2 0x244 JUMPI DUP1 PUSH4 0x13AF4035 EQ PUSH2 0x259 JUMPI DUP1 PUSH4 0x18160DDD EQ PUSH2 0x26C JUMPI DUP1 PUSH4 0x1C1F78EB EQ PUSH2 0x274 JUMPI PUSH1 0x0 DUP1 REVERT JUMPDEST DUP1 PUSH3 0x8CC262 EQ PUSH2 0x1DE JUMPI DUP1 PUSH4 0x700037D EQ PUSH2 0x204 JUMPI DUP1 PUSH4 0x112D5C65 EQ PUSH2 0x224 JUMPI JUMPDEST PUSH1 0x0 DUP1 REVERT JUMPDEST PUSH2 0x1F1 PUSH2 0x1EC CALLDATASIZE PUSH1 0x4 PUSH2 0x2821 JUMP JUMPDEST PUSH2 0x476 JUMP JUMPDEST PUSH1 0x40 MLOAD SWAP1 DUP2 MSTORE PUSH1 0x20 ADD JUMPDEST PUSH1 0x40 MLOAD DUP1 SWAP2 SUB SWAP1 RETURN JUMPDEST PUSH2 0x1F1 PUSH2 0x212 CALLDATASIZE PUSH1 0x4 PUSH2 0x2821 JUMP JUMPDEST PUSH1 0xA PUSH1 0x20 MSTORE PUSH1 0x0 SWAP1 DUP2 MSTORE PUSH1 0x40 SWAP1 KECCAK256 SLOAD DUP2 JUMP JUMPDEST PUSH2 0x1F1 PUSH2 0x232 CALLDATASIZE PUSH1 0x4 PUSH2 0x2821 JUMP JUMPDEST PUSH1 0x10 PUSH1 0x20 MSTORE PUSH1 0x0 SWAP1 DUP2 MSTORE PUSH1 0x40 SWAP1 KECCAK256 SLOAD DUP2 JUMP JUMPDEST PUSH2 0x257 PUSH2 0x252 CALLDATASIZE PUSH1 0x4 PUSH2 0x2821 JUMP JUMPDEST PUSH2 0x4F8 JUMP JUMPDEST STOP JUMPDEST PUSH2 0x257 PUSH2 0x267 CALLDATASIZE PUSH1 0x4 PUSH2 0x2821 JUMP JUMPDEST PUSH2 0x5E1 JUMP JUMPDEST PUSH1 0xB SLOAD PUSH2 0x1F1 JUMP JUMPDEST PUSH2 0x1F1 PUSH2 0x6C5 JUMP JUMPDEST PUSH2 0x1F1 PUSH2 0x28A CALLDATASIZE PUSH1 0x4 PUSH2 0x2821 JUMP JUMPDEST PUSH1 0xF PUSH1 0x20 MSTORE PUSH1 0x0 SWAP1 DUP2 MSTORE PUSH1 0x40 SWAP1 KECCAK256 SLOAD DUP2 JUMP JUMPDEST PUSH2 0x257 PUSH2 0x2AA CALLDATASIZE PUSH1 0x4 PUSH2 0x2879 JUMP JUMPDEST PUSH2 0x6E3 JUMP JUMPDEST PUSH2 0x1F1 PUSH1 0x6 SLOAD DUP2 JUMP JUMPDEST PUSH2 0x257 PUSH2 0x2C6 CALLDATASIZE PUSH1 0x4 PUSH2 0x2879 JUMP JUMPDEST PUSH2 0xBBF JUMP JUMPDEST PUSH2 0x257 PUSH2 0x1153 JUMP JUMPDEST PUSH1 0x0 SLOAD PUSH2 0x2F3 SWAP1 PUSH20 0xFFFFFFFFFFFFFFFFFFFFFFFFFFFFFFFFFFFFFFFF AND DUP2 JUMP JUMPDEST PUSH1 0x40 MLOAD PUSH20 0xFFFFFFFFFFFFFFFFFFFFFFFFFFFFFFFFFFFFFFFF SWAP1 SWAP2 AND DUP2 MSTORE PUSH1 0x20 ADD PUSH2 0x1FB JUMP JUMPDEST PUSH2 0x1F1 PUSH2 0x326 CALLDATASIZE PUSH1 0x4 PUSH2 0x2821 JUMP JUMPDEST PUSH20 0xFFFFFFFFFFFFFFFFFFFFFFFFFFFFFFFFFFFFFFFF AND PUSH1 0x0 SWAP1 DUP2 MSTORE PUSH1 0xC PUSH1 0x20 MSTORE PUSH1 0x40 SWAP1 KECCAK256 SLOAD SWAP1 JUMP JUMPDEST PUSH1 0x3 SLOAD PUSH2 0x2F3 SWAP1 PUSH20 0xFFFFFFFFFFFFFFFFFFFFFFFFFFFFFFFFFFFFFFFF AND DUP2 JUMP JUMPDEST PUSH2 0x1F1 PUSH1 0x5 SLOAD DUP2 JUMP JUMPDEST PUSH2 0x1F1 PUSH2 0x1525 JUMP JUMPDEST PUSH2 0x1F1 PUSH2 0x38D CALLDATASIZE PUSH1 0x4 PUSH2 0x2821 JUMP JUMPDEST PUSH1 0x9 PUSH1 0x20 MSTORE PUSH1 0x0 SWAP1 DUP2 MSTORE PUSH1 0x40 SWAP1 KECCAK256 SLOAD DUP2 JUMP JUMPDEST PUSH1 0xD SLOAD PUSH2 0x2F3 SWAP1 PUSH20 0xFFFFFFFFFFFFFFFFFFFFFFFFFFFFFFFFFFFFFFFF AND DUP2 JUMP JUMPDEST PUSH1 0xE SLOAD PUSH20 0xFFFFFFFFFFFFFFFFFFFFFFFFFFFFFFFFFFFFFFFF AND PUSH2 0x2F3 JUMP JUMPDEST PUSH2 0x1F1 PUSH2 0x3EB CALLDATASIZE PUSH1 0x4 PUSH2 0x2821 JUMP JUMPDEST PUSH1 0x11 PUSH1 0x20 MSTORE PUSH1 0x0 SWAP1 DUP2 MSTORE PUSH1 0x40 SWAP1 KECCAK256 SLOAD DUP2 JUMP JUMPDEST PUSH2 0x257 PUSH2 0x40B CALLDATASIZE PUSH1 0x4 PUSH2 0x2879 JUMP JUMPDEST PUSH2 0x1533 JUMP JUMPDEST PUSH2 0x1F1 PUSH1 0x7 SLOAD DUP2 JUMP JUMPDEST PUSH2 0x1F1 PUSH2 0x1991 JUMP JUMPDEST PUSH1 0x2 SLOAD PUSH2 0x2F3 SWAP1 PUSH20 0xFFFFFFFFFFFFFFFFFFFFFFFFFFFFFFFFFFFFFFFF AND DUP2 JUMP JUMPDEST PUSH2 0x257 PUSH2 0x19DD JUMP JUMPDEST PUSH2 0x1F1 PUSH1 0x8 SLOAD DUP2 JUMP JUMPDEST PUSH2 0x257 PUSH2 0x1DA7 JUMP JUMPDEST PUSH2 0x1F1 PUSH1 0x4 SLOAD DUP2 JUMP JUMPDEST PUSH2 0x257 PUSH2 0x471 CALLDATASIZE PUSH1 0x4 PUSH2 0x28A9 JUMP JUMPDEST PUSH2 0x1DCA JUMP JUMPDEST PUSH20 0xFFFFFFFFFFFFFFFFFFFFFFFFFFFFFFFFFFFFFFFF DUP2 AND PUSH1 0x0 SWAP1 DUP2 MSTORE PUSH1 0x9 PUSH1 0x20 MSTORE PUSH1 0x40 DUP2 KECCAK256 SLOAD PUSH2 0x4F2 SWAP1 PUSH8 0xDE0B6B3A7640000 SWAP1 PUSH2 0x4EC SWAP1 PUSH2 0x4C0 SWAP1 PUSH2 0x4BA PUSH2 0x1991 JUMP JUMPDEST SWAP1 PUSH2 0x22D5 JUMP JUMPDEST PUSH20 0xFFFFFFFFFFFFFFFFFFFFFFFFFFFFFFFFFFFFFFFF DUP7 AND PUSH1 0x0 SWAP1 DUP2 MSTORE PUSH1 0xC PUSH1 0x20 MSTORE PUSH1 0x40 SWAP1 KECCAK256 SLOAD SWAP1 PUSH2 0x22E8 JUMP JUMPDEST SWAP1 PUSH2 0x22F4 JUMP JUMPDEST SWAP3 SWAP2 POP POP JUMP JUMPDEST CALLER PUSH2 0x518 PUSH1 0xE SLOAD PUSH20 0xFFFFFFFFFFFFFFFFFFFFFFFFFFFFFFFFFFFFFFFF AND SWAP1 JUMP JUMPDEST PUSH20 0xFFFFFFFFFFFFFFFFFFFFFFFFFFFFFFFFFFFFFFFF AND EQ PUSH2 0x59A JUMPI PUSH1 0x40 MLOAD PUSH32 0x8C379A000000000000000000000000000000000000000000000000000000000 DUP2 MSTORE PUSH1 0x20 PUSH1 0x4 DUP3 ADD DUP2 SWAP1 MSTORE PUSH1 0x24 DUP3 ADD MSTORE PUSH32 0x4F776E61626C653A2063616C6C6572206973206E6F7420746865206F776E6572 PUSH1 0x44 DUP3 ADD MSTORE PUSH1 0x64 ADD JUMPDEST PUSH1 0x40 MLOAD DUP1 SWAP2 SUB SWAP1 REVERT JUMPDEST PUSH1 0xD DUP1 SLOAD PUSH32 0xFFFFFFFFFFFFFFFFFFFFFFFF0000000000000000000000000000000000000000 AND PUSH20 0xFFFFFFFFFFFFFFFFFFFFFFFFFFFFFFFFFFFFFFFF SWAP3 SWAP1 SWAP3 AND SWAP2 SWAP1 SWAP2 OR SWAP1 SSTORE JUMP JUMPDEST CALLER PUSH2 0x601 PUSH1 0xE SLOAD PUSH20 0xFFFFFFFFFFFFFFFFFFFFFFFFFFFFFFFFFFFFFFFF AND SWAP1 JUMP JUMPDEST PUSH20 0xFFFFFFFFFFFFFFFFFFFFFFFFFFFFFFFFFFFFFFFF AND EQ PUSH2 0x67E JUMPI PUSH1 0x40 MLOAD PUSH32 0x8C379A000000000000000000000000000000000000000000000000000000000 DUP2 MSTORE PUSH1 0x20 PUSH1 0x4 DUP3 ADD DUP2 SWAP1 MSTORE PUSH1 0x24 DUP3 ADD MSTORE PUSH32 0x4F776E61626C653A2063616C6C6572206973206E6F7420746865206F776E6572 PUSH1 0x44 DUP3 ADD MSTORE PUSH1 0x64 ADD PUSH2 0x591 JUMP JUMPDEST PUSH1 0xE DUP1 SLOAD PUSH32 0xFFFFFFFFFFFFFFFFFFFFFFFF0000000000000000000000000000000000000000 AND PUSH20 0xFFFFFFFFFFFFFFFFFFFFFFFFFFFFFFFFFFFFFFFF SWAP3 SWAP1 SWAP3 AND SWAP2 SWAP1 SWAP2 OR SWAP1 SSTORE JUMP JUMPDEST PUSH1 0x0 PUSH2 0x6DE PUSH1 0x6 SLOAD PUSH1 0x5 SLOAD PUSH2 0x22E8 SWAP1 SWAP2 SWAP1 PUSH4 0xFFFFFFFF AND JUMP JUMPDEST SWAP1 POP SWAP1 JUMP JUMPDEST PUSH1 0x2 PUSH1 0x1 SLOAD EQ ISZERO PUSH2 0x750 JUMPI PUSH1 0x40 MLOAD PUSH32 0x8C379A000000000000000000000000000000000000000000000000000000000 DUP2 MSTORE PUSH1 0x20 PUSH1 0x4 DUP3 ADD MSTORE PUSH1 0x1F PUSH1 0x24 DUP3 ADD MSTORE PUSH32 0x5265656E7472616E637947756172643A207265656E7472616E742063616C6C00 PUSH1 0x44 DUP3 ADD MSTORE PUSH1 0x64 ADD PUSH2 0x591 JUMP JUMPDEST PUSH1 0x2 PUSH1 0x1 SSTORE CALLER PUSH2 0x75E PUSH2 0x1991 JUMP JUMPDEST PUSH1 0x8 SSTORE PUSH2 0x769 PUSH2 0x1525 JUMP JUMPDEST PUSH1 0x7 SSTORE PUSH20 0xFFFFFFFFFFFFFFFFFFFFFFFFFFFFFFFFFFFFFFFF DUP2 AND ISZERO PUSH2 0xA2F JUMPI PUSH1 0x0 PUSH2 0x793 DUP3 PUSH2 0x476 JUMP JUMPDEST PUSH1 0xD SLOAD SWAP1 SWAP2 POP PUSH20 0xFFFFFFFFFFFFFFFFFFFFFFFFFFFFFFFFFFFFFFFF AND PUSH2 0x815 JUMPI PUSH1 0x40 MLOAD PUSH32 0x8C379A000000000000000000000000000000000000000000000000000000000 DUP2 MSTORE PUSH1 0x20 PUSH1 0x4 DUP3 ADD MSTORE PUSH1 0x12 PUSH1 0x24 DUP3 ADD MSTORE PUSH32 0x73657420636F696E49646F416464726573730000000000000000000000000000 PUSH1 0x44 DUP3 ADD MSTORE PUSH1 0x64 ADD PUSH2 0x591 JUMP JUMPDEST PUSH1 0xD SLOAD PUSH1 0x40 MLOAD PUSH32 0xE72EBDB700000000000000000000000000000000000000000000000000000000 DUP2 MSTORE PUSH20 0xFFFFFFFFFFFFFFFFFFFFFFFFFFFFFFFFFFFFFFFF DUP5 DUP2 AND PUSH1 0x4 DUP4 ADD MSTORE PUSH1 0x0 SWAP3 AND SWAP1 PUSH4 0xE72EBDB7 SWAP1 PUSH1 0x24 ADD PUSH1 0x20 PUSH1 0x40 MLOAD DUP1 DUP4 SUB DUP2 DUP7 DUP1 EXTCODESIZE ISZERO DUP1 ISZERO PUSH2 0x881 JUMPI PUSH1 0x0 DUP1 REVERT JUMPDEST POP GAS STATICCALL ISZERO DUP1 ISZERO PUSH2 0x895 JUMPI RETURNDATASIZE PUSH1 0x0 DUP1 RETURNDATACOPY RETURNDATASIZE PUSH1 0x0 REVERT JUMPDEST POP POP POP POP PUSH1 0x40 MLOAD RETURNDATASIZE PUSH1 0x1F NOT PUSH1 0x1F DUP3 ADD AND DUP3 ADD DUP1 PUSH1 0x40 MSTORE POP DUP2 ADD SWAP1 PUSH2 0x8B9 SWAP2 SWAP1 PUSH2 0x283D JUMP JUMPDEST SWAP1 POP PUSH20 0xFFFFFFFFFFFFFFFFFFFFFFFFFFFFFFFFFFFFFFFF DUP2 AND ISZERO PUSH2 0x9C3 JUMPI PUSH20 0xFFFFFFFFFFFFFFFFFFFFFFFFFFFFFFFFFFFFFFFF DUP2 AND PUSH1 0x0 SWAP1 DUP2 MSTORE PUSH1 0xC PUSH1 0x20 MSTORE PUSH1 0x40 SWAP1 KECCAK256 SLOAD ISZERO PUSH2 0x9C3 JUMPI PUSH1 0x0 PUSH3 0x186A0 PUSH2 0x914 DUP5 PUSH2 0x1F4 PUSH2 0x29EF JUMP JUMPDEST PUSH2 0x91E SWAP2 SWAP1 PUSH2 0x29B6 JUMP JUMPDEST PUSH20 0xFFFFFFFFFFFFFFFFFFFFFFFFFFFFFFFFFFFFFFFF DUP4 AND PUSH1 0x0 SWAP1 DUP2 MSTORE PUSH1 0x10 PUSH1 0x20 MSTORE PUSH1 0x40 SWAP1 KECCAK256 SLOAD SWAP1 SWAP2 POP PUSH2 0x952 SWAP1 DUP3 SWAP1 PUSH2 0x299E JUMP JUMPDEST PUSH20 0xFFFFFFFFFFFFFFFFFFFFFFFFFFFFFFFFFFFFFFFF DUP4 AND PUSH1 0x0 SWAP1 DUP2 MSTORE PUSH1 0x10 PUSH1 0x20 SWAP1 DUP2 MSTORE PUSH1 0x40 DUP1 DUP4 KECCAK256 SWAP4 SWAP1 SWAP4 SSTORE PUSH1 0x11 SWAP1 MSTORE KECCAK256 SLOAD PUSH2 0x98F SWAP1 DUP3 SWAP1 PUSH2 0x299E JUMP JUMPDEST PUSH20 0xFFFFFFFFFFFFFFFFFFFFFFFFFFFFFFFFFFFFFFFF DUP4 AND PUSH1 0x0 SWAP1 DUP2 MSTORE PUSH1 0x11 PUSH1 0x20 MSTORE PUSH1 0x40 SWAP1 KECCAK256 SSTORE PUSH2 0x9BF DUP2 DUP5 PUSH2 0x2A2C JUMP JUMPDEST SWAP3 POP POP JUMPDEST PUSH20 0xFFFFFFFFFFFFFFFFFFFFFFFFFFFFFFFFFFFFFFFF DUP4 AND PUSH1 0x0 SWAP1 DUP2 MSTORE PUSH1 0xA PUSH1 0x20 MSTORE PUSH1 0x40 SWAP1 KECCAK256 SLOAD PUSH2 0x9F4 SWAP1 DUP4 SWAP1 PUSH2 0x299E JUMP JUMPDEST PUSH20 0xFFFFFFFFFFFFFFFFFFFFFFFFFFFFFFFFFFFFFFFF DUP5 AND PUSH1 0x0 SWAP1 DUP2 MSTORE PUSH1 0xA PUSH1 0x20 SWAP1 DUP2 MSTORE PUSH1 0x40 DUP1 DUP4 KECCAK256 SWAP4 SWAP1 SWAP4 SSTORE PUSH1 0x8 SLOAD PUSH1 0x9 SWAP1 SWAP2 MSTORE SWAP2 SWAP1 KECCAK256 SSTORE POP POP JUMPDEST PUSH1 0x0 DUP3 GT PUSH2 0xA99 JUMPI PUSH1 0x40 MLOAD PUSH32 0x8C379A000000000000000000000000000000000000000000000000000000000 DUP2 MSTORE PUSH1 0x20 PUSH1 0x4 DUP3 ADD MSTORE PUSH1 0x11 PUSH1 0x24 DUP3 ADD MSTORE PUSH32 0x43616E6E6F742077697468647261772030000000000000000000000000000000 PUSH1 0x44 DUP3 ADD MSTORE PUSH1 0x64 ADD PUSH2 0x591 JUMP JUMPDEST CALLER PUSH1 0x0 SWAP1 DUP2 MSTORE PUSH1 0xF PUSH1 0x20 MSTORE PUSH1 0x40 SWAP1 KECCAK256 SLOAD PUSH2 0xAB3 SWAP1 TIMESTAMP PUSH2 0x2A2C JUMP JUMPDEST PUSH1 0x6 SLOAD GT ISZERO PUSH2 0xB1E JUMPI PUSH1 0x40 MLOAD PUSH32 0x8C379A000000000000000000000000000000000000000000000000000000000 DUP2 MSTORE PUSH1 0x20 PUSH1 0x4 DUP3 ADD MSTORE PUSH1 0xD PUSH1 0x24 DUP3 ADD MSTORE PUSH32 0x69742773206E6F742074696D6500000000000000000000000000000000000000 PUSH1 0x44 DUP3 ADD MSTORE PUSH1 0x64 ADD PUSH2 0x591 JUMP JUMPDEST PUSH1 0xB SLOAD PUSH2 0xB2B SWAP1 DUP4 PUSH2 0x22D5 JUMP JUMPDEST PUSH1 0xB SSTORE CALLER PUSH1 0x0 SWAP1 DUP2 MSTORE PUSH1 0xC PUSH1 0x20 MSTORE PUSH1 0x40 SWAP1 KECCAK256 SLOAD PUSH2 0xB48 SWAP1 DUP4 PUSH2 0x22D5 JUMP JUMPDEST CALLER PUSH1 0x0 DUP2 DUP2 MSTORE PUSH1 0xC PUSH1 0x20 MSTORE PUSH1 0x40 SWAP1 KECCAK256 SWAP2 SWAP1 SWAP2 SSTORE PUSH1 0x3 SLOAD PUSH2 0xB81 SWAP2 PUSH20 0xFFFFFFFFFFFFFFFFFFFFFFFFFFFFFFFFFFFFFFFF SWAP1 SWAP2 AND SWAP1 DUP5 PUSH2 0x2300 JUMP JUMPDEST PUSH1 0x40 MLOAD DUP3 DUP2 MSTORE CALLER SWAP1 PUSH32 0x7084F5476618D8E60B11EF0D7D3F06914655ADB8793E28FF7F018D4C76D505D5 SWAP1 PUSH1 0x20 ADD JUMPDEST PUSH1 0x40 MLOAD DUP1 SWAP2 SUB SWAP1 LOG2 POP POP PUSH1 0x1 DUP1 SSTORE JUMP JUMPDEST PUSH1 0x0 SLOAD PUSH20 0xFFFFFFFFFFFFFFFFFFFFFFFFFFFFFFFFFFFFFFFF AND CALLER EQ PUSH2 0xC66 JUMPI PUSH1 0x40 MLOAD PUSH32 0x8C379A000000000000000000000000000000000000000000000000000000000 DUP2 MSTORE PUSH1 0x20 PUSH1 0x4 DUP3 ADD MSTORE PUSH1 0x2A PUSH1 0x24 DUP3 ADD MSTORE PUSH32 0x43616C6C6572206973206E6F742052657761726473446973747269627574696F PUSH1 0x44 DUP3 ADD MSTORE PUSH32 0x6E20636F6E747261637400000000000000000000000000000000000000000000 PUSH1 0x64 DUP3 ADD MSTORE PUSH1 0x84 ADD PUSH2 0x591 JUMP JUMPDEST PUSH1 0x0 PUSH2 0xC70 PUSH2 0x1991 JUMP JUMPDEST PUSH1 0x8 SSTORE PUSH2 0xC7B PUSH2 0x1525 JUMP JUMPDEST PUSH1 0x7 SSTORE PUSH20 0xFFFFFFFFFFFFFFFFFFFFFFFFFFFFFFFFFFFFFFFF DUP2 AND ISZERO PUSH2 0xF41 JUMPI PUSH1 0x0 PUSH2 0xCA5 DUP3 PUSH2 0x476 JUMP JUMPDEST PUSH1 0xD SLOAD SWAP1 SWAP2 POP PUSH20 0xFFFFFFFFFFFFFFFFFFFFFFFFFFFFFFFFFFFFFFFF AND PUSH2 0xD27 JUMPI PUSH1 0x40 MLOAD PUSH32 0x8C379A000000000000000000000000000000000000000000000000000000000 DUP2 MSTORE PUSH1 0x20 PUSH1 0x4 DUP3 ADD MSTORE PUSH1 0x12 PUSH1 0x24 DUP3 ADD MSTORE PUSH32 0x73657420636F696E49646F416464726573730000000000000000000000000000 PUSH1 0x44 DUP3 ADD MSTORE PUSH1 0x64 ADD PUSH2 0x591 JUMP JUMPDEST PUSH1 0xD SLOAD PUSH1 0x40 MLOAD PUSH32 0xE72EBDB700000000000000000000000000000000000000000000000000000000 DUP2 MSTORE PUSH20 0xFFFFFFFFFFFFFFFFFFFFFFFFFFFFFFFFFFFFFFFF DUP5 DUP2 AND PUSH1 0x4 DUP4 ADD MSTORE PUSH1 0x0 SWAP3 AND SWAP1 PUSH4 0xE72EBDB7 SWAP1 PUSH1 0x24 ADD PUSH1 0x20 PUSH1 0x40 MLOAD DUP1 DUP4 SUB DUP2 DUP7 DUP1 EXTCODESIZE ISZERO DUP1 ISZERO PUSH2 0xD93 JUMPI PUSH1 0x0 DUP1 REVERT JUMPDEST POP GAS STATICCALL ISZERO DUP1 ISZERO PUSH2 0xDA7 JUMPI RETURNDATASIZE PUSH1 0x0 DUP1 RETURNDATACOPY RETURNDATASIZE PUSH1 0x0 REVERT JUMPDEST POP POP POP POP PUSH1 0x40 MLOAD RETURNDATASIZE PUSH1 0x1F NOT PUSH1 0x1F DUP3 ADD AND DUP3 ADD DUP1 PUSH1 0x40 MSTORE POP DUP2 ADD SWAP1 PUSH2 0xDCB SWAP2 SWAP1 PUSH2 0x283D JUMP JUMPDEST SWAP1 POP PUSH20 0xFFFFFFFFFFFFFFFFFFFFFFFFFFFFFFFFFFFFFFFF DUP2 AND ISZERO PUSH2 0xED5 JUMPI PUSH20 0xFFFFFFFFFFFFFFFFFFFFFFFFFFFFFFFFFFFFFFFF DUP2 AND PUSH1 0x0 SWAP1 DUP2 MSTORE PUSH1 0xC PUSH1 0x20 MSTORE PUSH1 0x40 SWAP1 KECCAK256 SLOAD ISZERO PUSH2 0xED5 JUMPI PUSH1 0x0 PUSH3 0x186A0 PUSH2 0xE26 DUP5 PUSH2 0x1F4 PUSH2 0x29EF JUMP JUMPDEST PUSH2 0xE30 SWAP2 SWAP1 PUSH2 0x29B6 JUMP JUMPDEST PUSH20 0xFFFFFFFFFFFFFFFFFFFFFFFFFFFFFFFFFFFFFFFF DUP4 AND PUSH1 0x0 SWAP1 DUP2 MSTORE PUSH1 0x10 PUSH1 0x20 MSTORE PUSH1 0x40 SWAP1 KECCAK256 SLOAD SWAP1 SWAP2 POP PUSH2 0xE64 SWAP1 DUP3 SWAP1 PUSH2 0x299E JUMP JUMPDEST PUSH20 0xFFFFFFFFFFFFFFFFFFFFFFFFFFFFFFFFFFFFFFFF DUP4 AND PUSH1 0x0 SWAP1 DUP2 MSTORE PUSH1 0x10 PUSH1 0x20 SWAP1 DUP2 MSTORE PUSH1 0x40 DUP1 DUP4 KECCAK256 SWAP4 SWAP1 SWAP4 SSTORE PUSH1 0x11 SWAP1 MSTORE KECCAK256 SLOAD PUSH2 0xEA1 SWAP1 DUP3 SWAP1 PUSH2 0x299E JUMP JUMPDEST PUSH20 0xFFFFFFFFFFFFFFFFFFFFFFFFFFFFFFFFFFFFFFFF DUP4 AND PUSH1 0x0 SWAP1 DUP2 MSTORE PUSH1 0x11 PUSH1 0x20 MSTORE PUSH1 0x40 SWAP1 KECCAK256 SSTORE PUSH2 0xED1 DUP2 DUP5 PUSH2 0x2A2C JUMP JUMPDEST SWAP3 POP POP JUMPDEST PUSH20 0xFFFFFFFFFFFFFFFFFFFFFFFFFFFFFFFFFFFFFFFF DUP4 AND PUSH1 0x0 SWAP1 DUP2 MSTORE PUSH1 0xA PUSH1 0x20 MSTORE PUSH1 0x40 SWAP1 KECCAK256 SLOAD PUSH2 0xF06 SWAP1 DUP4 SWAP1 PUSH2 0x299E JUMP JUMPDEST PUSH20 0xFFFFFFFFFFFFFFFFFFFFFFFFFFFFFFFFFFFFFFFF DUP5 AND PUSH1 0x0 SWAP1 DUP2 MSTORE PUSH1 0xA PUSH1 0x20 SWAP1 DUP2 MSTORE PUSH1 0x40 DUP1 DUP4 KECCAK256 SWAP4 SWAP1 SWAP4 SSTORE PUSH1 0x8 SLOAD PUSH1 0x9 SWAP1 SWAP2 MSTORE SWAP2 SWAP1 KECCAK256 SSTORE POP POP JUMPDEST PUSH1 0x4 SLOAD TIMESTAMP LT PUSH2 0xF60 JUMPI PUSH1 0x6 SLOAD PUSH2 0xF58 SWAP1 DUP4 SWAP1 PUSH2 0x22F4 JUMP JUMPDEST PUSH1 0x5 SSTORE PUSH2 0xFA3 JUMP JUMPDEST PUSH1 0x4 SLOAD PUSH1 0x0 SWAP1 PUSH2 0xF70 SWAP1 TIMESTAMP PUSH2 0x22D5 JUMP JUMPDEST SWAP1 POP PUSH1 0x0 PUSH2 0xF89 PUSH1 0x5 SLOAD DUP4 PUSH2 0x22E8 SWAP1 SWAP2 SWAP1 PUSH4 0xFFFFFFFF AND JUMP JUMPDEST PUSH1 0x6 SLOAD SWAP1 SWAP2 POP PUSH2 0xF9D SWAP1 PUSH2 0x4EC DUP7 DUP5 PUSH2 0x23D9 JUMP JUMPDEST PUSH1 0x5 SSTORE POP POP JUMPDEST PUSH1 0x2 SLOAD PUSH1 0x40 MLOAD PUSH32 0x70A0823100000000000000000000000000000000000000000000000000000000 DUP2 MSTORE ADDRESS PUSH1 0x4 DUP3 ADD MSTORE PUSH1 0x0 SWAP2 PUSH20 0xFFFFFFFFFFFFFFFFFFFFFFFFFFFFFFFFFFFFFFFF AND SWAP1 PUSH4 0x70A08231 SWAP1 PUSH1 0x24 ADD PUSH1 0x20 PUSH1 0x40 MLOAD DUP1 DUP4 SUB DUP2 DUP7 DUP1 EXTCODESIZE ISZERO DUP1 ISZERO PUSH2 0x100D JUMPI PUSH1 0x0 DUP1 REVERT JUMPDEST POP GAS STATICCALL ISZERO DUP1 ISZERO PUSH2 0x1021 JUMPI RETURNDATASIZE PUSH1 0x0 DUP1 RETURNDATACOPY RETURNDATASIZE PUSH1 0x0 REVERT JUMPDEST POP POP POP POP PUSH1 0x40 MLOAD RETURNDATASIZE PUSH1 0x1F NOT PUSH1 0x1F DUP3 ADD AND DUP3 ADD DUP1 PUSH1 0x40 MSTORE POP DUP2 ADD SWAP1 PUSH2 0x1045 SWAP2 SWAP1 PUSH2 0x2891 JUMP JUMPDEST SWAP1 POP PUSH2 0x108C PUSH1 0x40 MLOAD DUP1 PUSH1 0x40 ADD PUSH1 0x40 MSTORE DUP1 PUSH1 0x8 DUP2 MSTORE PUSH1 0x20 ADD PUSH32 0x6D7920746573743A000000000000000000000000000000000000000000000000 DUP2 MSTORE POP PUSH1 0x5 SLOAD DUP4 PUSH1 0x6 SLOAD PUSH2 0x23E5 JUMP JUMPDEST PUSH1 0x6 SLOAD PUSH2 0x109A SWAP1 DUP3 SWAP1 PUSH2 0x22F4 JUMP JUMPDEST PUSH1 0x5 SLOAD GT ISZERO PUSH2 0x1105 JUMPI PUSH1 0x40 MLOAD PUSH32 0x8C379A000000000000000000000000000000000000000000000000000000000 DUP2 MSTORE PUSH1 0x20 PUSH1 0x4 DUP3 ADD MSTORE PUSH1 0x18 PUSH1 0x24 DUP3 ADD MSTORE PUSH32 0x50726F76696465642072657761726420746F6F20686967680000000000000000 PUSH1 0x44 DUP3 ADD MSTORE PUSH1 0x64 ADD PUSH2 0x591 JUMP JUMPDEST TIMESTAMP PUSH1 0x7 DUP2 SWAP1 SSTORE PUSH1 0x6 SLOAD PUSH2 0x1118 SWAP2 SWAP1 PUSH2 0x23D9 JUMP JUMPDEST PUSH1 0x4 SSTORE PUSH1 0x40 MLOAD DUP4 DUP2 MSTORE PUSH32 0xDE88A922E0D3B88B24E9623EFEB464919C6BF9F66857A65E2BFCF2CE87A9433D SWAP1 PUSH1 0x20 ADD PUSH1 0x40 MLOAD DUP1 SWAP2 SUB SWAP1 LOG1 POP POP POP JUMP JUMPDEST PUSH1 0x2 PUSH1 0x1 SLOAD EQ ISZERO PUSH2 0x11C0 JUMPI PUSH1 0x40 MLOAD PUSH32 0x8C379A000000000000000000000000000000000000000000000000000000000 DUP2 MSTORE PUSH1 0x20 PUSH1 0x4 DUP3 ADD MSTORE PUSH1 0x1F PUSH1 0x24 DUP3 ADD MSTORE PUSH32 0x5265656E7472616E637947756172643A207265656E7472616E742063616C6C00 PUSH1 0x44 DUP3 ADD MSTORE PUSH1 0x64 ADD PUSH2 0x591 JUMP JUMPDEST PUSH1 0x2 PUSH1 0x1 SSTORE CALLER PUSH2 0x11CE PUSH2 0x1991 JUMP JUMPDEST PUSH1 0x8 SSTORE PUSH2 0x11D9 PUSH2 0x1525 JUMP JUMPDEST PUSH1 0x7 SSTORE PUSH20 0xFFFFFFFFFFFFFFFFFFFFFFFFFFFFFFFFFFFFFFFF DUP2 AND ISZERO PUSH2 0x149F JUMPI PUSH1 0x0 PUSH2 0x1203 DUP3 PUSH2 0x476 JUMP JUMPDEST PUSH1 0xD SLOAD SWAP1 SWAP2 POP PUSH20 0xFFFFFFFFFFFFFFFFFFFFFFFFFFFFFFFFFFFFFFFF AND PUSH2 0x1285 JUMPI PUSH1 0x40 MLOAD PUSH32 0x8C379A000000000000000000000000000000000000000000000000000000000 DUP2 MSTORE PUSH1 0x20 PUSH1 0x4 DUP3 ADD MSTORE PUSH1 0x12 PUSH1 0x24 DUP3 ADD MSTORE PUSH32 0x73657420636F696E49646F416464726573730000000000000000000000000000 PUSH1 0x44 DUP3 ADD MSTORE PUSH1 0x64 ADD PUSH2 0x591 JUMP JUMPDEST PUSH1 0xD SLOAD PUSH1 0x40 MLOAD PUSH32 0xE72EBDB700000000000000000000000000000000000000000000000000000000 DUP2 MSTORE PUSH20 0xFFFFFFFFFFFFFFFFFFFFFFFFFFFFFFFFFFFFFFFF DUP5 DUP2 AND PUSH1 0x4 DUP4 ADD MSTORE PUSH1 0x0 SWAP3 AND SWAP1 PUSH4 0xE72EBDB7 SWAP1 PUSH1 0x24 ADD PUSH1 0x20 PUSH1 0x40 MLOAD DUP1 DUP4 SUB DUP2 DUP7 DUP1 EXTCODESIZE ISZERO DUP1 ISZERO PUSH2 0x12F1 JUMPI PUSH1 0x0 DUP1 REVERT JUMPDEST POP GAS STATICCALL ISZERO DUP1 ISZERO PUSH2 0x1305 JUMPI RETURNDATASIZE PUSH1 0x0 DUP1 RETURNDATACOPY RETURNDATASIZE PUSH1 0x0 REVERT JUMPDEST POP POP POP POP PUSH1 0x40 MLOAD RETURNDATASIZE PUSH1 0x1F NOT PUSH1 0x1F DUP3 ADD AND DUP3 ADD DUP1 PUSH1 0x40 MSTORE POP DUP2 ADD SWAP1 PUSH2 0x1329 SWAP2 SWAP1 PUSH2 0x283D JUMP JUMPDEST SWAP1 POP PUSH20 0xFFFFFFFFFFFFFFFFFFFFFFFFFFFFFFFFFFFFFFFF DUP2 AND ISZERO PUSH2 0x1433 JUMPI PUSH20 0xFFFFFFFFFFFFFFFFFFFFFFFFFFFFFFFFFFFFFFFF DUP2 AND PUSH1 0x0 SWAP1 DUP2 MSTORE PUSH1 0xC PUSH1 0x20 MSTORE PUSH1 0x40 SWAP1 KECCAK256 SLOAD ISZERO PUSH2 0x1433 JUMPI PUSH1 0x0 PUSH3 0x186A0 PUSH2 0x1384 DUP5 PUSH2 0x1F4 PUSH2 0x29EF JUMP JUMPDEST PUSH2 0x138E SWAP2 SWAP1 PUSH2 0x29B6 JUMP JUMPDEST PUSH20 0xFFFFFFFFFFFFFFFFFFFFFFFFFFFFFFFFFFFFFFFF DUP4 AND PUSH1 0x0 SWAP1 DUP2 MSTORE PUSH1 0x10 PUSH1 0x20 MSTORE PUSH1 0x40 SWAP1 KECCAK256 SLOAD SWAP1 SWAP2 POP PUSH2 0x13C2 SWAP1 DUP3 SWAP1 PUSH2 0x299E JUMP JUMPDEST PUSH20 0xFFFFFFFFFFFFFFFFFFFFFFFFFFFFFFFFFFFFFFFF DUP4 AND PUSH1 0x0 SWAP1 DUP2 MSTORE PUSH1 0x10 PUSH1 0x20 SWAP1 DUP2 MSTORE PUSH1 0x40 DUP1 DUP4 KECCAK256 SWAP4 SWAP1 SWAP4 SSTORE PUSH1 0x11 SWAP1 MSTORE KECCAK256 SLOAD PUSH2 0x13FF SWAP1 DUP3 SWAP1 PUSH2 0x299E JUMP JUMPDEST PUSH20 0xFFFFFFFFFFFFFFFFFFFFFFFFFFFFFFFFFFFFFFFF DUP4 AND PUSH1 0x0 SWAP1 DUP2 MSTORE PUSH1 0x11 PUSH1 0x20 MSTORE PUSH1 0x40 SWAP1 KECCAK256 SSTORE PUSH2 0x142F DUP2 DUP5 PUSH2 0x2A2C JUMP JUMPDEST SWAP3 POP POP JUMPDEST PUSH20 0xFFFFFFFFFFFFFFFFFFFFFFFFFFFFFFFFFFFFFFFF DUP4 AND PUSH1 0x0 SWAP1 DUP2 MSTORE PUSH1 0xA PUSH1 0x20 MSTORE PUSH1 0x40 SWAP1 KECCAK256 SLOAD PUSH2 0x1464 SWAP1 DUP4 SWAP1 PUSH2 0x299E JUMP JUMPDEST PUSH20 0xFFFFFFFFFFFFFFFFFFFFFFFFFFFFFFFFFFFFFFFF DUP5 AND PUSH1 0x0 SWAP1 DUP2 MSTORE PUSH1 0xA PUSH1 0x20 SWAP1 DUP2 MSTORE PUSH1 0x40 DUP1 DUP4 KECCAK256 SWAP4 SWAP1 SWAP4 SSTORE PUSH1 0x8 SLOAD PUSH1 0x9 SWAP1 SWAP2 MSTORE SWAP2 SWAP1 KECCAK256 SSTORE POP POP JUMPDEST CALLER PUSH1 0x0 SWAP1 DUP2 MSTORE PUSH1 0xA PUSH1 0x20 MSTORE PUSH1 0x40 SWAP1 KECCAK256 SLOAD DUP1 ISZERO PUSH2 0x151D JUMPI CALLER PUSH1 0x0 DUP2 DUP2 MSTORE PUSH1 0xA PUSH1 0x20 MSTORE PUSH1 0x40 DUP2 KECCAK256 SSTORE PUSH1 0x2 SLOAD PUSH2 0x14EB SWAP2 PUSH20 0xFFFFFFFFFFFFFFFFFFFFFFFFFFFFFFFFFFFFFFFF SWAP1 SWAP2 AND SWAP1 DUP4 PUSH2 0x2300 JUMP JUMPDEST PUSH1 0x40 MLOAD DUP2 DUP2 MSTORE CALLER SWAP1 PUSH32 0xE2403640BA68FED3A2F88B7557551D1993F84B99BB10FF833F0CF8DB0C5E0486 SWAP1 PUSH1 0x20 ADD PUSH2 0xBAF JUMP JUMPDEST POP POP PUSH1 0x1 DUP1 SSTORE JUMP JUMPDEST PUSH1 0x0 PUSH2 0x6DE TIMESTAMP PUSH1 0x4 SLOAD PUSH2 0x2480 JUMP JUMPDEST PUSH1 0x2 PUSH1 0x1 SLOAD EQ ISZERO PUSH2 0x15A0 JUMPI PUSH1 0x40 MLOAD PUSH32 0x8C379A000000000000000000000000000000000000000000000000000000000 DUP2 MSTORE PUSH1 0x20 PUSH1 0x4 DUP3 ADD MSTORE PUSH1 0x1F PUSH1 0x24 DUP3 ADD MSTORE PUSH32 0x5265656E7472616E637947756172643A207265656E7472616E742063616C6C00 PUSH1 0x44 DUP3 ADD MSTORE PUSH1 0x64 ADD PUSH2 0x591 JUMP JUMPDEST PUSH1 0x2 PUSH1 0x1 SSTORE CALLER PUSH2 0x15AE PUSH2 0x1991 JUMP JUMPDEST PUSH1 0x8 SSTORE PUSH2 0x15B9 PUSH2 0x1525 JUMP JUMPDEST PUSH1 0x7 SSTORE PUSH20 0xFFFFFFFFFFFFFFFFFFFFFFFFFFFFFFFFFFFFFFFF DUP2 AND ISZERO PUSH2 0x187F JUMPI PUSH1 0x0 PUSH2 0x15E3 DUP3 PUSH2 0x476 JUMP JUMPDEST PUSH1 0xD SLOAD SWAP1 SWAP2 POP PUSH20 0xFFFFFFFFFFFFFFFFFFFFFFFFFFFFFFFFFFFFFFFF AND PUSH2 0x1665 JUMPI PUSH1 0x40 MLOAD PUSH32 0x8C379A000000000000000000000000000000000000000000000000000000000 DUP2 MSTORE PUSH1 0x20 PUSH1 0x4 DUP3 ADD MSTORE PUSH1 0x12 PUSH1 0x24 DUP3 ADD MSTORE PUSH32 0x73657420636F696E49646F416464726573730000000000000000000000000000 PUSH1 0x44 DUP3 ADD MSTORE PUSH1 0x64 ADD PUSH2 0x591 JUMP JUMPDEST PUSH1 0xD SLOAD PUSH1 0x40 MLOAD PUSH32 0xE72EBDB700000000000000000000000000000000000000000000000000000000 DUP2 MSTORE PUSH20 0xFFFFFFFFFFFFFFFFFFFFFFFFFFFFFFFFFFFFFFFF DUP5 DUP2 AND PUSH1 0x4 DUP4 ADD MSTORE PUSH1 0x0 SWAP3 AND SWAP1 PUSH4 0xE72EBDB7 SWAP1 PUSH1 0x24 ADD PUSH1 0x20 PUSH1 0x40 MLOAD DUP1 DUP4 SUB DUP2 DUP7 DUP1 EXTCODESIZE ISZERO DUP1 ISZERO PUSH2 0x16D1 JUMPI PUSH1 0x0 DUP1 REVERT JUMPDEST POP GAS STATICCALL ISZERO DUP1 ISZERO PUSH2 0x16E5 JUMPI RETURNDATASIZE PUSH1 0x0 DUP1 RETURNDATACOPY RETURNDATASIZE PUSH1 0x0 REVERT JUMPDEST POP POP POP POP PUSH1 0x40 MLOAD RETURNDATASIZE PUSH1 0x1F NOT PUSH1 0x1F DUP3 ADD AND DUP3 ADD DUP1 PUSH1 0x40 MSTORE POP DUP2 ADD SWAP1 PUSH2 0x1709 SWAP2 SWAP1 PUSH2 0x283D JUMP JUMPDEST SWAP1 POP PUSH20 0xFFFFFFFFFFFFFFFFFFFFFFFFFFFFFFFFFFFFFFFF DUP2 AND ISZERO PUSH2 0x1813 JUMPI PUSH20 0xFFFFFFFFFFFFFFFFFFFFFFFFFFFFFFFFFFFFFFFF DUP2 AND PUSH1 0x0 SWAP1 DUP2 MSTORE PUSH1 0xC PUSH1 0x20 MSTORE PUSH1 0x40 SWAP1 KECCAK256 SLOAD ISZERO PUSH2 0x1813 JUMPI PUSH1 0x0 PUSH3 0x186A0 PUSH2 0x1764 DUP5 PUSH2 0x1F4 PUSH2 0x29EF JUMP JUMPDEST PUSH2 0x176E SWAP2 SWAP1 PUSH2 0x29B6 JUMP JUMPDEST PUSH20 0xFFFFFFFFFFFFFFFFFFFFFFFFFFFFFFFFFFFFFFFF DUP4 AND PUSH1 0x0 SWAP1 DUP2 MSTORE PUSH1 0x10 PUSH1 0x20 MSTORE PUSH1 0x40 SWAP1 KECCAK256 SLOAD SWAP1 SWAP2 POP PUSH2 0x17A2 SWAP1 DUP3 SWAP1 PUSH2 0x299E JUMP JUMPDEST PUSH20 0xFFFFFFFFFFFFFFFFFFFFFFFFFFFFFFFFFFFFFFFF DUP4 AND PUSH1 0x0 SWAP1 DUP2 MSTORE PUSH1 0x10 PUSH1 0x20 SWAP1 DUP2 MSTORE PUSH1 0x40 DUP1 DUP4 KECCAK256 SWAP4 SWAP1 SWAP4 SSTORE PUSH1 0x11 SWAP1 MSTORE KECCAK256 SLOAD PUSH2 0x17DF SWAP1 DUP3 SWAP1 PUSH2 0x299E JUMP JUMPDEST PUSH20 0xFFFFFFFFFFFFFFFFFFFFFFFFFFFFFFFFFFFFFFFF DUP4 AND PUSH1 0x0 SWAP1 DUP2 MSTORE PUSH1 0x11 PUSH1 0x20 MSTORE PUSH1 0x40 SWAP1 KECCAK256 SSTORE PUSH2 0x180F DUP2 DUP5 PUSH2 0x2A2C JUMP JUMPDEST SWAP3 POP POP JUMPDEST PUSH20 0xFFFFFFFFFFFFFFFFFFFFFFFFFFFFFFFFFFFFFFFF DUP4 AND PUSH1 0x0 SWAP1 DUP2 MSTORE PUSH1 0xA PUSH1 0x20 MSTORE PUSH1 0x40 SWAP1 KECCAK256 SLOAD PUSH2 0x1844 SWAP1 DUP4 SWAP1 PUSH2 0x299E JUMP JUMPDEST PUSH20 0xFFFFFFFFFFFFFFFFFFFFFFFFFFFFFFFFFFFFFFFF DUP5 AND PUSH1 0x0 SWAP1 DUP2 MSTORE PUSH1 0xA PUSH1 0x20 SWAP1 DUP2 MSTORE PUSH1 0x40 DUP1 DUP4 KECCAK256 SWAP4 SWAP1 SWAP4 SSTORE PUSH1 0x8 SLOAD PUSH1 0x9 SWAP1 SWAP2 MSTORE SWAP2 SWAP1 KECCAK256 SSTORE POP POP JUMPDEST PUSH1 0x0 DUP3 GT PUSH2 0x18E9 JUMPI PUSH1 0x40 MLOAD PUSH32 0x8C379A000000000000000000000000000000000000000000000000000000000 DUP2 MSTORE PUSH1 0x20 PUSH1 0x4 DUP3 ADD MSTORE PUSH1 0xE PUSH1 0x24 DUP3 ADD MSTORE PUSH32 0x43616E6E6F74207374616B652030000000000000000000000000000000000000 PUSH1 0x44 DUP3 ADD MSTORE PUSH1 0x64 ADD PUSH2 0x591 JUMP JUMPDEST CALLER PUSH1 0x0 SWAP1 DUP2 MSTORE PUSH1 0xF PUSH1 0x20 MSTORE PUSH1 0x40 SWAP1 KECCAK256 TIMESTAMP SWAP1 SSTORE PUSH1 0xB SLOAD PUSH2 0x1908 SWAP1 DUP4 PUSH2 0x23D9 JUMP JUMPDEST PUSH1 0xB SSTORE CALLER PUSH1 0x0 SWAP1 DUP2 MSTORE PUSH1 0xC PUSH1 0x20 MSTORE PUSH1 0x40 SWAP1 KECCAK256 SLOAD PUSH2 0x1925 SWAP1 DUP4 PUSH2 0x23D9 JUMP JUMPDEST CALLER PUSH1 0x0 DUP2 DUP2 MSTORE PUSH1 0xC PUSH1 0x20 MSTORE PUSH1 0x40 SWAP1 KECCAK256 SWAP2 SWAP1 SWAP2 SSTORE PUSH1 0x3 SLOAD PUSH2 0x195F SWAP2 PUSH20 0xFFFFFFFFFFFFFFFFFFFFFFFFFFFFFFFFFFFFFFFF SWAP1 SWAP2 AND SWAP1 ADDRESS DUP6 PUSH2 0x2496 JUMP JUMPDEST PUSH1 0x40 MLOAD DUP3 DUP2 MSTORE CALLER SWAP1 PUSH32 0x9E71BC8EEA02A63969F509818F2DAFB9254532904319F9DBDA79B67BD34A5F3D SWAP1 PUSH1 0x20 ADD PUSH2 0xBAF JUMP JUMPDEST PUSH1 0x0 PUSH1 0xB SLOAD PUSH1 0x0 EQ ISZERO PUSH2 0x19A5 JUMPI POP PUSH1 0x8 SLOAD SWAP1 JUMP JUMPDEST PUSH2 0x6DE PUSH2 0x19D4 PUSH1 0xB SLOAD PUSH2 0x4EC PUSH8 0xDE0B6B3A7640000 PUSH2 0x19CE PUSH1 0x5 SLOAD PUSH2 0x19CE PUSH1 0x7 SLOAD PUSH2 0x4BA PUSH2 0x1525 JUMP JUMPDEST SWAP1 PUSH2 0x22E8 JUMP JUMPDEST PUSH1 0x8 SLOAD SWAP1 PUSH2 0x23D9 JUMP JUMPDEST PUSH1 0x2 PUSH1 0x1 SLOAD EQ ISZERO PUSH2 0x1A4A JUMPI PUSH1 0x40 MLOAD PUSH32 0x8C379A000000000000000000000000000000000000000000000000000000000 DUP2 MSTORE PUSH1 0x20 PUSH1 0x4 DUP3 ADD MSTORE PUSH1 0x1F PUSH1 0x24 DUP3 ADD MSTORE PUSH32 0x5265656E7472616E637947756172643A207265656E7472616E742063616C6C00 PUSH1 0x44 DUP3 ADD MSTORE PUSH1 0x64 ADD PUSH2 0x591 JUMP JUMPDEST PUSH1 0x2 PUSH1 0x1 SSTORE CALLER PUSH2 0x1A58 PUSH2 0x1991 JUMP JUMPDEST PUSH1 0x8 SSTORE PUSH2 0x1A63 PUSH2 0x1525 JUMP JUMPDEST PUSH1 0x7 SSTORE PUSH20 0xFFFFFFFFFFFFFFFFFFFFFFFFFFFFFFFFFFFFFFFF DUP2 AND ISZERO PUSH2 0x1D29 JUMPI PUSH1 0x0 PUSH2 0x1A8D DUP3 PUSH2 0x476 JUMP JUMPDEST PUSH1 0xD SLOAD SWAP1 SWAP2 POP PUSH20 0xFFFFFFFFFFFFFFFFFFFFFFFFFFFFFFFFFFFFFFFF AND PUSH2 0x1B0F JUMPI PUSH1 0x40 MLOAD PUSH32 0x8C379A000000000000000000000000000000000000000000000000000000000 DUP2 MSTORE PUSH1 0x20 PUSH1 0x4 DUP3 ADD MSTORE PUSH1 0x12 PUSH1 0x24 DUP3 ADD MSTORE PUSH32 0x73657420636F696E49646F416464726573730000000000000000000000000000 PUSH1 0x44 DUP3 ADD MSTORE PUSH1 0x64 ADD PUSH2 0x591 JUMP JUMPDEST PUSH1 0xD SLOAD PUSH1 0x40 MLOAD PUSH32 0xE72EBDB700000000000000000000000000000000000000000000000000000000 DUP2 MSTORE PUSH20 0xFFFFFFFFFFFFFFFFFFFFFFFFFFFFFFFFFFFFFFFF DUP5 DUP2 AND PUSH1 0x4 DUP4 ADD MSTORE PUSH1 0x0 SWAP3 AND SWAP1 PUSH4 0xE72EBDB7 SWAP1 PUSH1 0x24 ADD PUSH1 0x20 PUSH1 0x40 MLOAD DUP1 DUP4 SUB DUP2 DUP7 DUP1 EXTCODESIZE ISZERO DUP1 ISZERO PUSH2 0x1B7B JUMPI PUSH1 0x0 DUP1 REVERT JUMPDEST POP GAS STATICCALL ISZERO DUP1 ISZERO PUSH2 0x1B8F JUMPI RETURNDATASIZE PUSH1 0x0 DUP1 RETURNDATACOPY RETURNDATASIZE PUSH1 0x0 REVERT JUMPDEST POP POP POP POP PUSH1 0x40 MLOAD RETURNDATASIZE PUSH1 0x1F NOT PUSH1 0x1F DUP3 ADD AND DUP3 ADD DUP1 PUSH1 0x40 MSTORE POP DUP2 ADD SWAP1 PUSH2 0x1BB3 SWAP2 SWAP1 PUSH2 0x283D JUMP JUMPDEST SWAP1 POP PUSH20 0xFFFFFFFFFFFFFFFFFFFFFFFFFFFFFFFFFFFFFFFF DUP2 AND ISZERO PUSH2 0x1CBD JUMPI PUSH20 0xFFFFFFFFFFFFFFFFFFFFFFFFFFFFFFFFFFFFFFFF DUP2 AND PUSH1 0x0 SWAP1 DUP2 MSTORE PUSH1 0xC PUSH1 0x20 MSTORE PUSH1 0x40 SWAP1 KECCAK256 SLOAD ISZERO PUSH2 0x1CBD JUMPI PUSH1 0x0 PUSH3 0x186A0 PUSH2 0x1C0E DUP5 PUSH2 0x1F4 PUSH2 0x29EF JUMP JUMPDEST PUSH2 0x1C18 SWAP2 SWAP1 PUSH2 0x29B6 JUMP JUMPDEST PUSH20 0xFFFFFFFFFFFFFFFFFFFFFFFFFFFFFFFFFFFFFFFF DUP4 AND PUSH1 0x0 SWAP1 DUP2 MSTORE PUSH1 0x10 PUSH1 0x20 MSTORE PUSH1 0x40 SWAP1 KECCAK256 SLOAD SWAP1 SWAP2 POP PUSH2 0x1C4C SWAP1 DUP3 SWAP1 PUSH2 0x299E JUMP JUMPDEST PUSH20 0xFFFFFFFFFFFFFFFFFFFFFFFFFFFFFFFFFFFFFFFF DUP4 AND PUSH1 0x0 SWAP1 DUP2 MSTORE PUSH1 0x10 PUSH1 0x20 SWAP1 DUP2 MSTORE PUSH1 0x40 DUP1 DUP4 KECCAK256 SWAP4 SWAP1 SWAP4 SSTORE PUSH1 0x11 SWAP1 MSTORE KECCAK256 SLOAD PUSH2 0x1C89 SWAP1 DUP3 SWAP1 PUSH2 0x299E JUMP JUMPDEST PUSH20 0xFFFFFFFFFFFFFFFFFFFFFFFFFFFFFFFFFFFFFFFF DUP4 AND PUSH1 0x0 SWAP1 DUP2 MSTORE PUSH1 0x11 PUSH1 0x20 MSTORE PUSH1 0x40 SWAP1 KECCAK256 SSTORE PUSH2 0x1CB9 DUP2 DUP5 PUSH2 0x2A2C JUMP JUMPDEST SWAP3 POP POP JUMPDEST PUSH20 0xFFFFFFFFFFFFFFFFFFFFFFFFFFFFFFFFFFFFFFFF DUP4 AND PUSH1 0x0 SWAP1 DUP2 MSTORE PUSH1 0xA PUSH1 0x20 MSTORE PUSH1 0x40 SWAP1 KECCAK256 SLOAD PUSH2 0x1CEE SWAP1 DUP4 SWAP1 PUSH2 0x299E JUMP JUMPDEST PUSH20 0xFFFFFFFFFFFFFFFFFFFFFFFFFFFFFFFFFFFFFFFF DUP5 AND PUSH1 0x0 SWAP1 DUP2 MSTORE PUSH1 0xA PUSH1 0x20 SWAP1 DUP2 MSTORE PUSH1 0x40 DUP1 DUP4 KECCAK256 SWAP4 SWAP1 SWAP4 SSTORE PUSH1 0x8 SLOAD PUSH1 0x9 SWAP1 SWAP2 MSTORE SWAP2 SWAP1 KECCAK256 SSTORE POP POP JUMPDEST CALLER PUSH1 0x0 SWAP1 DUP2 MSTORE PUSH1 0x10 PUSH1 0x20 MSTORE PUSH1 0x40 SWAP1 KECCAK256 SLOAD DUP1 ISZERO PUSH2 0x151D JUMPI CALLER PUSH1 0x0 DUP2 DUP2 MSTORE PUSH1 0x10 PUSH1 0x20 MSTORE PUSH1 0x40 DUP2 KECCAK256 SSTORE PUSH1 0x2 SLOAD PUSH2 0x1D75 SWAP2 PUSH20 0xFFFFFFFFFFFFFFFFFFFFFFFFFFFFFFFFFFFFFFFF SWAP1 SWAP2 AND SWAP1 DUP4 PUSH2 0x2300 JUMP JUMPDEST PUSH1 0x40 MLOAD DUP2 DUP2 MSTORE CALLER SWAP1 PUSH32 0x783EEFF930916A36777F27A7FEA6ADD1C0393D392960BAFC7EC85712CDB37802 SWAP1 PUSH1 0x20 ADD PUSH2 0xBAF JUMP JUMPDEST CALLER PUSH1 0x0 SWAP1 DUP2 MSTORE PUSH1 0xC PUSH1 0x20 MSTORE PUSH1 0x40 SWAP1 KECCAK256 SLOAD PUSH2 0x1DC0 SWAP1 PUSH2 0x6E3 JUMP JUMPDEST PUSH2 0x1DC8 PUSH2 0x1153 JUMP JUMPDEST JUMP JUMPDEST PUSH1 0x2 PUSH1 0x1 SLOAD EQ ISZERO PUSH2 0x1E37 JUMPI PUSH1 0x40 MLOAD PUSH32 0x8C379A000000000000000000000000000000000000000000000000000000000 DUP2 MSTORE PUSH1 0x20 PUSH1 0x4 DUP3 ADD MSTORE PUSH1 0x1F PUSH1 0x24 DUP3 ADD MSTORE PUSH32 0x5265656E7472616E637947756172643A207265656E7472616E742063616C6C00 PUSH1 0x44 DUP3 ADD MSTORE PUSH1 0x64 ADD PUSH2 0x591 JUMP JUMPDEST PUSH1 0x2 PUSH1 0x1 SSTORE CALLER PUSH2 0x1E45 PUSH2 0x1991 JUMP JUMPDEST PUSH1 0x8 SSTORE PUSH2 0x1E50 PUSH2 0x1525 JUMP JUMPDEST PUSH1 0x7 SSTORE PUSH20 0xFFFFFFFFFFFFFFFFFFFFFFFFFFFFFFFFFFFFFFFF DUP2 AND ISZERO PUSH2 0x2116 JUMPI PUSH1 0x0 PUSH2 0x1E7A DUP3 PUSH2 0x476 JUMP JUMPDEST PUSH1 0xD SLOAD SWAP1 SWAP2 POP PUSH20 0xFFFFFFFFFFFFFFFFFFFFFFFFFFFFFFFFFFFFFFFF AND PUSH2 0x1EFC JUMPI PUSH1 0x40 MLOAD PUSH32 0x8C379A000000000000000000000000000000000000000000000000000000000 DUP2 MSTORE PUSH1 0x20 PUSH1 0x4 DUP3 ADD MSTORE PUSH1 0x12 PUSH1 0x24 DUP3 ADD MSTORE PUSH32 0x73657420636F696E49646F416464726573730000000000000000000000000000 PUSH1 0x44 DUP3 ADD MSTORE PUSH1 0x64 ADD PUSH2 0x591 JUMP JUMPDEST PUSH1 0xD SLOAD PUSH1 0x40 MLOAD PUSH32 0xE72EBDB700000000000000000000000000000000000000000000000000000000 DUP2 MSTORE PUSH20 0xFFFFFFFFFFFFFFFFFFFFFFFFFFFFFFFFFFFFFFFF DUP5 DUP2 AND PUSH1 0x4 DUP4 ADD MSTORE PUSH1 0x0 SWAP3 AND SWAP1 PUSH4 0xE72EBDB7 SWAP1 PUSH1 0x24 ADD PUSH1 0x20 PUSH1 0x40 MLOAD DUP1 DUP4 SUB DUP2 DUP7 DUP1 EXTCODESIZE ISZERO DUP1 ISZERO PUSH2 0x1F68 JUMPI PUSH1 0x0 DUP1 REVERT JUMPDEST POP GAS STATICCALL ISZERO DUP1 ISZERO PUSH2 0x1F7C JUMPI RETURNDATASIZE PUSH1 0x0 DUP1 RETURNDATACOPY RETURNDATASIZE PUSH1 0x0 REVERT JUMPDEST POP POP POP POP PUSH1 0x40 MLOAD RETURNDATASIZE PUSH1 0x1F NOT PUSH1 0x1F DUP3 ADD AND DUP3 ADD DUP1 PUSH1 0x40 MSTORE POP DUP2 ADD SWAP1 PUSH2 0x1FA0 SWAP2 SWAP1 PUSH2 0x283D JUMP JUMPDEST SWAP1 POP PUSH20 0xFFFFFFFFFFFFFFFFFFFFFFFFFFFFFFFFFFFFFFFF DUP2 AND ISZERO PUSH2 0x20AA JUMPI PUSH20 0xFFFFFFFFFFFFFFFFFFFFFFFFFFFFFFFFFFFFFFFF DUP2 AND PUSH1 0x0 SWAP1 DUP2 MSTORE PUSH1 0xC PUSH1 0x20 MSTORE PUSH1 0x40 SWAP1 KECCAK256 SLOAD ISZERO PUSH2 0x20AA JUMPI PUSH1 0x0 PUSH3 0x186A0 PUSH2 0x1FFB DUP5 PUSH2 0x1F4 PUSH2 0x29EF JUMP JUMPDEST PUSH2 0x2005 SWAP2 SWAP1 PUSH2 0x29B6 JUMP JUMPDEST PUSH20 0xFFFFFFFFFFFFFFFFFFFFFFFFFFFFFFFFFFFFFFFF DUP4 AND PUSH1 0x0 SWAP1 DUP2 MSTORE PUSH1 0x10 PUSH1 0x20 MSTORE PUSH1 0x40 SWAP1 KECCAK256 SLOAD SWAP1 SWAP2 POP PUSH2 0x2039 SWAP1 DUP3 SWAP1 PUSH2 0x299E JUMP JUMPDEST PUSH20 0xFFFFFFFFFFFFFFFFFFFFFFFFFFFFFFFFFFFFFFFF DUP4 AND PUSH1 0x0 SWAP1 DUP2 MSTORE PUSH1 0x10 PUSH1 0x20 SWAP1 DUP2 MSTORE PUSH1 0x40 DUP1 DUP4 KECCAK256 SWAP4 SWAP1 SWAP4 SSTORE PUSH1 0x11 SWAP1 MSTORE KECCAK256 SLOAD PUSH2 0x2076 SWAP1 DUP3 SWAP1 PUSH2 0x299E JUMP JUMPDEST PUSH20 0xFFFFFFFFFFFFFFFFFFFFFFFFFFFFFFFFFFFFFFFF DUP4 AND PUSH1 0x0 SWAP1 DUP2 MSTORE PUSH1 0x11 PUSH1 0x20 MSTORE PUSH1 0x40 SWAP1 KECCAK256 SSTORE PUSH2 0x20A6 DUP2 DUP5 PUSH2 0x2A2C JUMP JUMPDEST SWAP3 POP POP JUMPDEST PUSH20 0xFFFFFFFFFFFFFFFFFFFFFFFFFFFFFFFFFFFFFFFF DUP4 AND PUSH1 0x0 SWAP1 DUP2 MSTORE PUSH1 0xA PUSH1 0x20 MSTORE PUSH1 0x40 SWAP1 KECCAK256 SLOAD PUSH2 0x20DB SWAP1 DUP4 SWAP1 PUSH2 0x299E JUMP JUMPDEST PUSH20 0xFFFFFFFFFFFFFFFFFFFFFFFFFFFFFFFFFFFFFFFF DUP5 AND PUSH1 0x0 SWAP1 DUP2 MSTORE PUSH1 0xA PUSH1 0x20 SWAP1 DUP2 MSTORE PUSH1 0x40 DUP1 DUP4 KECCAK256 SWAP4 SWAP1 SWAP4 SSTORE PUSH1 0x8 SLOAD PUSH1 0x9 SWAP1 SWAP2 MSTORE SWAP2 SWAP1 KECCAK256 SSTORE POP POP JUMPDEST PUSH1 0x0 DUP7 GT PUSH2 0x2180 JUMPI PUSH1 0x40 MLOAD PUSH32 0x8C379A000000000000000000000000000000000000000000000000000000000 DUP2 MSTORE PUSH1 0x20 PUSH1 0x4 DUP3 ADD MSTORE PUSH1 0xE PUSH1 0x24 DUP3 ADD MSTORE PUSH32 0x43616E6E6F74207374616B652030000000000000000000000000000000000000 PUSH1 0x44 DUP3 ADD MSTORE PUSH1 0x64 ADD PUSH2 0x591 JUMP JUMPDEST PUSH1 0xB SLOAD PUSH2 0x218D SWAP1 DUP8 PUSH2 0x23D9 JUMP JUMPDEST PUSH1 0xB SSTORE CALLER PUSH1 0x0 SWAP1 DUP2 MSTORE PUSH1 0xC PUSH1 0x20 MSTORE PUSH1 0x40 SWAP1 KECCAK256 SLOAD PUSH2 0x21AA SWAP1 DUP8 PUSH2 0x23D9 JUMP JUMPDEST CALLER PUSH1 0x0 DUP2 DUP2 MSTORE PUSH1 0xC PUSH1 0x20 MSTORE PUSH1 0x40 SWAP1 DUP2 SWAP1 KECCAK256 SWAP3 SWAP1 SWAP3 SSTORE PUSH1 0x3 SLOAD SWAP2 MLOAD PUSH32 0xD505ACCF00000000000000000000000000000000000000000000000000000000 DUP2 MSTORE PUSH1 0x4 DUP2 ADD SWAP2 SWAP1 SWAP2 MSTORE ADDRESS PUSH1 0x24 DUP3 ADD MSTORE PUSH1 0x44 DUP2 ADD DUP9 SWAP1 MSTORE PUSH1 0x64 DUP2 ADD DUP8 SWAP1 MSTORE PUSH1 0xFF DUP7 AND PUSH1 0x84 DUP3 ADD MSTORE PUSH1 0xA4 DUP2 ADD DUP6 SWAP1 MSTORE PUSH1 0xC4 DUP2 ADD DUP5 SWAP1 MSTORE PUSH20 0xFFFFFFFFFFFFFFFFFFFFFFFFFFFFFFFFFFFFFFFF SWAP1 SWAP2 AND SWAP1 PUSH4 0xD505ACCF SWAP1 PUSH1 0xE4 ADD PUSH1 0x0 PUSH1 0x40 MLOAD DUP1 DUP4 SUB DUP2 PUSH1 0x0 DUP8 DUP1 EXTCODESIZE ISZERO DUP1 ISZERO PUSH2 0x2256 JUMPI PUSH1 0x0 DUP1 REVERT JUMPDEST POP GAS CALL ISZERO DUP1 ISZERO PUSH2 0x226A JUMPI RETURNDATASIZE PUSH1 0x0 DUP1 RETURNDATACOPY RETURNDATASIZE PUSH1 0x0 REVERT JUMPDEST POP POP PUSH1 0x3 SLOAD PUSH2 0x2294 SWAP3 POP PUSH20 0xFFFFFFFFFFFFFFFFFFFFFFFFFFFFFFFFFFFFFFFF AND SWAP1 POP CALLER ADDRESS DUP10 PUSH2 0x2496 JUMP JUMPDEST PUSH1 0x40 MLOAD DUP7 DUP2 MSTORE CALLER SWAP1 PUSH32 0x9E71BC8EEA02A63969F509818F2DAFB9254532904319F9DBDA79B67BD34A5F3D SWAP1 PUSH1 0x20 ADD PUSH1 0x40 MLOAD DUP1 SWAP2 SUB SWAP1 LOG2 POP POP PUSH1 0x1 DUP1 SSTORE POP POP POP POP JUMP JUMPDEST PUSH1 0x0 PUSH2 0x22E1 DUP3 DUP5 PUSH2 0x2A2C JUMP JUMPDEST SWAP4 SWAP3 POP POP POP JUMP JUMPDEST PUSH1 0x0 PUSH2 0x22E1 DUP3 DUP5 PUSH2 0x29EF JUMP JUMPDEST PUSH1 0x0 PUSH2 0x22E1 DUP3 DUP5 PUSH2 0x29B6 JUMP JUMPDEST PUSH1 0x40 MLOAD PUSH20 0xFFFFFFFFFFFFFFFFFFFFFFFFFFFFFFFFFFFFFFFF DUP4 AND PUSH1 0x24 DUP3 ADD MSTORE PUSH1 0x44 DUP2 ADD DUP3 SWAP1 MSTORE PUSH2 0x23D4 SWAP1 DUP5 SWAP1 PUSH32 0xA9059CBB00000000000000000000000000000000000000000000000000000000 SWAP1 PUSH1 0x64 ADD JUMPDEST PUSH1 0x40 DUP1 MLOAD PUSH32 0xFFFFFFFFFFFFFFFFFFFFFFFFFFFFFFFFFFFFFFFFFFFFFFFFFFFFFFFFFFFFFFE0 DUP2 DUP5 SUB ADD DUP2 MSTORE SWAP2 SWAP1 MSTORE PUSH1 0x20 DUP2 ADD DUP1 MLOAD PUSH28 0xFFFFFFFFFFFFFFFFFFFFFFFFFFFFFFFFFFFFFFFFFFFFFFFFFFFFFFFF AND PUSH32 0xFFFFFFFF00000000000000000000000000000000000000000000000000000000 SWAP1 SWAP4 AND SWAP3 SWAP1 SWAP3 OR SWAP1 SWAP2 MSTORE PUSH2 0x24F4 JUMP JUMPDEST POP POP POP JUMP JUMPDEST PUSH1 0x0 PUSH2 0x22E1 DUP3 DUP5 PUSH2 0x299E JUMP JUMPDEST PUSH2 0x247A DUP5 DUP5 DUP5 DUP5 PUSH1 0x40 MLOAD PUSH1 0x24 ADD PUSH2 0x23FF SWAP5 SWAP4 SWAP3 SWAP2 SWAP1 PUSH2 0x296F JUMP JUMPDEST PUSH1 0x40 DUP1 MLOAD PUSH32 0xFFFFFFFFFFFFFFFFFFFFFFFFFFFFFFFFFFFFFFFFFFFFFFFFFFFFFFFFFFFFFFE0 DUP2 DUP5 SUB ADD DUP2 MSTORE SWAP2 SWAP1 MSTORE PUSH1 0x20 DUP2 ADD DUP1 MLOAD PUSH28 0xFFFFFFFFFFFFFFFFFFFFFFFFFFFFFFFFFFFFFFFFFFFFFFFFFFFFFFFF AND PUSH32 0xA7A8785300000000000000000000000000000000000000000000000000000000 OR SWAP1 MSTORE PUSH2 0x2600 JUMP JUMPDEST POP POP POP POP JUMP JUMPDEST PUSH1 0x0 DUP2 DUP4 LT PUSH2 0x248F JUMPI DUP2 PUSH2 0x22E1 JUMP JUMPDEST POP SWAP1 SWAP2 SWAP1 POP JUMP JUMPDEST PUSH1 0x40 MLOAD PUSH20 0xFFFFFFFFFFFFFFFFFFFFFFFFFFFFFFFFFFFFFFFF DUP1 DUP6 AND PUSH1 0x24 DUP4 ADD MSTORE DUP4 AND PUSH1 0x44 DUP3 ADD MSTORE PUSH1 0x64 DUP2 ADD DUP3 SWAP1 MSTORE PUSH2 0x247A SWAP1 DUP6 SWAP1 PUSH32 0x23B872DD00000000000000000000000000000000000000000000000000000000 SWAP1 PUSH1 0x84 ADD PUSH2 0x2352 JUMP JUMPDEST PUSH1 0x0 PUSH2 0x2556 DUP3 PUSH1 0x40 MLOAD DUP1 PUSH1 0x40 ADD PUSH1 0x40 MSTORE DUP1 PUSH1 0x20 DUP2 MSTORE PUSH1 0x20 ADD PUSH32 0x5361666545524332303A206C6F772D6C6576656C2063616C6C206661696C6564 DUP2 MSTORE POP DUP6 PUSH20 0xFFFFFFFFFFFFFFFFFFFFFFFFFFFFFFFFFFFFFFFF AND PUSH2 0x2621 SWAP1 SWAP3 SWAP2 SWAP1 PUSH4 0xFFFFFFFF AND JUMP JUMPDEST DUP1 MLOAD SWAP1 SWAP2 POP ISZERO PUSH2 0x23D4 JUMPI DUP1 DUP1 PUSH1 0x20 ADD SWAP1 MLOAD DUP2 ADD SWAP1 PUSH2 0x2574 SWAP2 SWAP1 PUSH2 0x2859 JUMP JUMPDEST PUSH2 0x23D4 JUMPI PUSH1 0x40 MLOAD PUSH32 0x8C379A000000000000000000000000000000000000000000000000000000000 DUP2 MSTORE PUSH1 0x20 PUSH1 0x4 DUP3 ADD MSTORE PUSH1 0x2A PUSH1 0x24 DUP3 ADD MSTORE PUSH32 0x5361666545524332303A204552433230206F7065726174696F6E20646964206E PUSH1 0x44 DUP3 ADD MSTORE PUSH32 0x6F74207375636365656400000000000000000000000000000000000000000000 PUSH1 0x64 DUP3 ADD MSTORE PUSH1 0x84 ADD PUSH2 0x591 JUMP JUMPDEST DUP1 MLOAD PUSH11 0x636F6E736F6C652E6C6F67 PUSH1 0x20 DUP4 ADD PUSH1 0x0 DUP1 DUP5 DUP4 DUP6 GAS STATICCALL POP POP POP POP POP JUMP JUMPDEST PUSH1 0x60 PUSH2 0x2630 DUP5 DUP5 PUSH1 0x0 DUP6 PUSH2 0x2638 JUMP JUMPDEST SWAP5 SWAP4 POP POP POP POP JUMP JUMPDEST PUSH1 0x60 DUP3 SELFBALANCE LT ISZERO PUSH2 0x26CA JUMPI PUSH1 0x40 MLOAD PUSH32 0x8C379A000000000000000000000000000000000000000000000000000000000 DUP2 MSTORE PUSH1 0x20 PUSH1 0x4 DUP3 ADD MSTORE PUSH1 0x26 PUSH1 0x24 DUP3 ADD MSTORE PUSH32 0x416464726573733A20696E73756666696369656E742062616C616E636520666F PUSH1 0x44 DUP3 ADD MSTORE PUSH32 0x722063616C6C0000000000000000000000000000000000000000000000000000 PUSH1 0x64 DUP3 ADD MSTORE PUSH1 0x84 ADD PUSH2 0x591 JUMP JUMPDEST PUSH20 0xFFFFFFFFFFFFFFFFFFFFFFFFFFFFFFFFFFFFFFFF DUP6 AND EXTCODESIZE PUSH2 0x2748 JUMPI PUSH1 0x40 MLOAD PUSH32 0x8C379A000000000000000000000000000000000000000000000000000000000 DUP2 MSTORE PUSH1 0x20 PUSH1 0x4 DUP3 ADD MSTORE PUSH1 0x1D PUSH1 0x24 DUP3 ADD MSTORE PUSH32 0x416464726573733A2063616C6C20746F206E6F6E2D636F6E7472616374000000 PUSH1 0x44 DUP3 ADD MSTORE PUSH1 0x64 ADD PUSH2 0x591 JUMP JUMPDEST PUSH1 0x0 DUP1 DUP7 PUSH20 0xFFFFFFFFFFFFFFFFFFFFFFFFFFFFFFFFFFFFFFFF AND DUP6 DUP8 PUSH1 0x40 MLOAD PUSH2 0x2771 SWAP2 SWAP1 PUSH2 0x2940 JUMP JUMPDEST PUSH1 0x0 PUSH1 0x40 MLOAD DUP1 DUP4 SUB DUP2 DUP6 DUP8 GAS CALL SWAP3 POP POP POP RETURNDATASIZE DUP1 PUSH1 0x0 DUP2 EQ PUSH2 0x27AE JUMPI PUSH1 0x40 MLOAD SWAP2 POP PUSH1 0x1F NOT PUSH1 0x3F RETURNDATASIZE ADD AND DUP3 ADD PUSH1 0x40 MSTORE RETURNDATASIZE DUP3 MSTORE RETURNDATASIZE PUSH1 0x0 PUSH1 0x20 DUP5 ADD RETURNDATACOPY PUSH2 0x27B3 JUMP JUMPDEST PUSH1 0x60 SWAP2 POP JUMPDEST POP SWAP2 POP SWAP2 POP PUSH2 0x27C3 DUP3 DUP3 DUP7 PUSH2 0x27CE JUMP JUMPDEST SWAP8 SWAP7 POP POP POP POP POP POP POP JUMP JUMPDEST PUSH1 0x60 DUP4 ISZERO PUSH2 0x27DD JUMPI POP DUP2 PUSH2 0x22E1 JUMP JUMPDEST DUP3 MLOAD ISZERO PUSH2 0x27ED JUMPI DUP3 MLOAD DUP1 DUP5 PUSH1 0x20 ADD REVERT JUMPDEST DUP2 PUSH1 0x40 MLOAD PUSH32 0x8C379A000000000000000000000000000000000000000000000000000000000 DUP2 MSTORE PUSH1 0x4 ADD PUSH2 0x591 SWAP2 SWAP1 PUSH2 0x295C JUMP JUMPDEST PUSH1 0x0 PUSH1 0x20 DUP3 DUP5 SUB SLT ISZERO PUSH2 0x2832 JUMPI DUP1 DUP2 REVERT JUMPDEST DUP2 CALLDATALOAD PUSH2 0x22E1 DUP2 PUSH2 0x2A9E JUMP JUMPDEST PUSH1 0x0 PUSH1 0x20 DUP3 DUP5 SUB SLT ISZERO PUSH2 0x284E JUMPI DUP1 DUP2 REVERT JUMPDEST DUP2 MLOAD PUSH2 0x22E1 DUP2 PUSH2 0x2A9E JUMP JUMPDEST PUSH1 0x0 PUSH1 0x20 DUP3 DUP5 SUB SLT ISZERO PUSH2 0x286A JUMPI DUP1 DUP2 REVERT JUMPDEST DUP2 MLOAD DUP1 ISZERO ISZERO DUP2 EQ PUSH2 0x22E1 JUMPI DUP2 DUP3 REVERT JUMPDEST PUSH1 0x0 PUSH1 0x20 DUP3 DUP5 SUB SLT ISZERO PUSH2 0x288A JUMPI DUP1 DUP2 REVERT JUMPDEST POP CALLDATALOAD SWAP2 SWAP1 POP JUMP JUMPDEST PUSH1 0x0 PUSH1 0x20 DUP3 DUP5 SUB SLT ISZERO PUSH2 0x28A2 JUMPI DUP1 DUP2 REVERT JUMPDEST POP MLOAD SWAP2 SWAP1 POP JUMP JUMPDEST PUSH1 0x0 DUP1 PUSH1 0x0 DUP1 PUSH1 0x0 PUSH1 0xA0 DUP7 DUP9 SUB SLT ISZERO PUSH2 0x28C0 JUMPI DUP1 DUP2 REVERT JUMPDEST DUP6 CALLDATALOAD SWAP5 POP PUSH1 0x20 DUP7 ADD CALLDATALOAD SWAP4 POP PUSH1 0x40 DUP7 ADD CALLDATALOAD PUSH1 0xFF DUP2 AND DUP2 EQ PUSH2 0x28DE JUMPI DUP2 DUP3 REVERT JUMPDEST SWAP5 SWAP8 SWAP4 SWAP7 POP SWAP4 SWAP5 PUSH1 0x60 DUP2 ADD CALLDATALOAD SWAP5 POP PUSH1 0x80 ADD CALLDATALOAD SWAP3 SWAP2 POP POP JUMP JUMPDEST PUSH1 0x0 DUP2 MLOAD DUP1 DUP5 MSTORE PUSH2 0x290E DUP2 PUSH1 0x20 DUP7 ADD PUSH1 0x20 DUP7 ADD PUSH2 0x2A43 JUMP JUMPDEST PUSH1 0x1F ADD PUSH32 0xFFFFFFFFFFFFFFFFFFFFFFFFFFFFFFFFFFFFFFFFFFFFFFFFFFFFFFFFFFFFFFE0 AND SWAP3 SWAP1 SWAP3 ADD PUSH1 0x20 ADD SWAP3 SWAP2 POP POP JUMP JUMPDEST PUSH1 0x0 DUP3 MLOAD PUSH2 0x2952 DUP2 DUP5 PUSH1 0x20 DUP8 ADD PUSH2 0x2A43 JUMP JUMPDEST SWAP2 SWAP1 SWAP2 ADD SWAP3 SWAP2 POP POP JUMP JUMPDEST PUSH1 0x20 DUP2 MSTORE PUSH1 0x0 PUSH2 0x22E1 PUSH1 0x20 DUP4 ADD DUP5 PUSH2 0x28F6 JUMP JUMPDEST PUSH1 0x80 DUP2 MSTORE PUSH1 0x0 PUSH2 0x2982 PUSH1 0x80 DUP4 ADD DUP8 PUSH2 0x28F6 JUMP JUMPDEST PUSH1 0x20 DUP4 ADD SWAP6 SWAP1 SWAP6 MSTORE POP PUSH1 0x40 DUP2 ADD SWAP3 SWAP1 SWAP3 MSTORE PUSH1 0x60 SWAP1 SWAP2 ADD MSTORE SWAP2 SWAP1 POP JUMP JUMPDEST PUSH1 0x0 DUP3 NOT DUP3 GT ISZERO PUSH2 0x29B1 JUMPI PUSH2 0x29B1 PUSH2 0x2A6F JUMP JUMPDEST POP ADD SWAP1 JUMP JUMPDEST PUSH1 0x0 DUP3 PUSH2 0x29EA JUMPI PUSH32 0x4E487B7100000000000000000000000000000000000000000000000000000000 DUP2 MSTORE PUSH1 0x12 PUSH1 0x4 MSTORE PUSH1 0x24 DUP2 REVERT JUMPDEST POP DIV SWAP1 JUMP JUMPDEST PUSH1 0x0 DUP2 PUSH32 0xFFFFFFFFFFFFFFFFFFFFFFFFFFFFFFFFFFFFFFFFFFFFFFFFFFFFFFFFFFFFFFFF DIV DUP4 GT DUP3 ISZERO ISZERO AND ISZERO PUSH2 0x2A27 JUMPI PUSH2 0x2A27 PUSH2 0x2A6F JUMP JUMPDEST POP MUL SWAP1 JUMP JUMPDEST PUSH1 0x0 DUP3 DUP3 LT ISZERO PUSH2 0x2A3E JUMPI PUSH2 0x2A3E PUSH2 0x2A6F JUMP JUMPDEST POP SUB SWAP1 JUMP JUMPDEST PUSH1 0x0 JUMPDEST DUP4 DUP2 LT ISZERO PUSH2 0x2A5E JUMPI DUP2 DUP2 ADD MLOAD DUP4 DUP3 ADD MSTORE PUSH1 0x20 ADD PUSH2 0x2A46 JUMP JUMPDEST DUP4 DUP2 GT ISZERO PUSH2 0x247A JUMPI POP POP PUSH1 0x0 SWAP2 ADD MSTORE JUMP JUMPDEST PUSH32 0x4E487B7100000000000000000000000000000000000000000000000000000000 PUSH1 0x0 MSTORE PUSH1 0x11 PUSH1 0x4 MSTORE PUSH1 0x24 PUSH1 0x0 REVERT JUMPDEST PUSH20 0xFFFFFFFFFFFFFFFFFFFFFFFFFFFFFFFFFFFFFFFF DUP2 AND DUP2 EQ PUSH2 0x2AC0 JUMPI PUSH1 0x0 DUP1 REVERT JUMPDEST POP JUMP INVALID LOG2 PUSH5 0x6970667358 0x22 SLT KECCAK256 PUSH23 0x8161F730BA6103958749AE885EDFBA8888BAB017EE4B4 0x5F DUP4 SSTORE 0xAA 0xC0 PUSH25 0x3D8C64736F6C63430008040033000000000000000000000000 "
		},
		"gasEstimates": {
			"creation": {
				"codeDepositCost": "2200200",
				"executionCost": "infinite",
				"totalCost": "infinite"
			},
			"external": {
				"balanceOf(address)": "1285",
				"coinIdoAddress()": "1058",
				"earned(address)": "infinite",
				"exit()": "infinite",
				"getReward()": "infinite",
				"getRewardForDuration()": "infinite",
				"getTeamReward()": "infinite",
				"lastTimeRewardApplicable()": "1150",
				"lastUpdateTime()": "1029",
				"notifyRewardAmount(uint256)": "infinite",
				"owner()": "1074",
				"periodFinish()": "1072",
				"rewardPerToken()": "infinite",
				"rewardPerTokenStored()": "1028",
				"rewardRate()": "1030",
				"rewards(address)": "1259",
				"rewardsDistribution()": "1080",
				"rewardsDuration()": "1074",
				"rewardsToken()": "1102",
				"setCoinIdoAddress(address)": "22021",
				"setOwner(address)": "22043",
				"stake(uint256)": "infinite",
				"stakeWithPermit(uint256,uint256,uint8,bytes32,bytes32)": "infinite",
				"stakingToken()": "1124",
				"teamTotalAmount(address)": "1279",
				"totalSupply()": "1071",
				"userRewardPerTokenPaid(address)": "1280",
				"userStartTime(address)": "1236",
				"userTeam(address)": "1281",
				"withdraw(uint256)": "infinite"
			}
		},
		"methodIdentifiers": {
			"balanceOf(address)": "70a08231",
			"coinIdoAddress()": "8c60b108",
			"earned(address)": "008cc262",
			"exit()": "e9fad8ee",
			"getReward()": "3d18b912",
			"getRewardForDuration()": "1c1f78eb",
			"getTeamReward()": "d670d9a6",
			"lastTimeRewardApplicable()": "80faa57d",
			"lastUpdateTime()": "c8f33c91",
			"notifyRewardAmount(uint256)": "3c6b16ab",
			"owner()": "8da5cb5b",
			"periodFinish()": "ebe2b12b",
			"rewardPerToken()": "cd3daf9d",
			"rewardPerTokenStored()": "df136d65",
			"rewardRate()": "7b0a47ee",
			"rewards(address)": "0700037d",
			"rewardsDistribution()": "3fc6df6e",
			"rewardsDuration()": "386a9525",
			"rewardsToken()": "d1af0c7d",
			"setCoinIdoAddress(address)": "11ab0262",
			"setOwner(address)": "13af4035",
			"stake(uint256)": "a694fc3a",
			"stakeWithPermit(uint256,uint256,uint8,bytes32,bytes32)": "ecd9ba82",
			"stakingToken()": "72f702f3",
			"teamTotalAmount(address)": "97f35082",
			"totalSupply()": "18160ddd",
			"userRewardPerTokenPaid(address)": "8b876347",
			"userStartTime(address)": "265172e2",
			"userTeam(address)": "112d5c65",
			"withdraw(uint256)": "2e1a7d4d"
		}
	},
	"abi": [
		{
			"inputs": [
				{
					"internalType": "address",
					"name": "_rewardsDistribution",
					"type": "address"
				},
				{
					"internalType": "address",
					"name": "_rewardsToken",
					"type": "address"
				},
				{
					"internalType": "address",
					"name": "_stakingToken",
					"type": "address"
				},
				{
					"internalType": "uint256",
					"name": "_rewardsDuration",
					"type": "uint256"
				}
			],
			"stateMutability": "nonpayable",
			"type": "constructor"
		},
		{
			"anonymous": false,
			"inputs": [
				{
					"indexed": false,
					"internalType": "uint256",
					"name": "reward",
					"type": "uint256"
				}
			],
			"name": "RewardAdded",
			"type": "event"
		},
		{
			"anonymous": false,
			"inputs": [
				{
					"indexed": true,
					"internalType": "address",
					"name": "user",
					"type": "address"
				},
				{
					"indexed": false,
					"internalType": "uint256",
					"name": "reward",
					"type": "uint256"
				}
			],
			"name": "RewardPaid",
			"type": "event"
		},
		{
			"anonymous": false,
			"inputs": [
				{
					"indexed": true,
					"internalType": "address",
					"name": "user",
					"type": "address"
				},
				{
					"indexed": false,
					"internalType": "uint256",
					"name": "amount",
					"type": "uint256"
				}
			],
			"name": "Staked",
			"type": "event"
		},
		{
			"anonymous": false,
			"inputs": [
				{
					"indexed": true,
					"internalType": "address",
					"name": "user",
					"type": "address"
				},
				{
					"indexed": false,
					"internalType": "uint256",
					"name": "reward",
					"type": "uint256"
				}
			],
			"name": "TeamRewardPaid",
			"type": "event"
		},
		{
			"anonymous": false,
			"inputs": [
				{
					"indexed": true,
					"internalType": "address",
					"name": "user",
					"type": "address"
				},
				{
					"indexed": false,
					"internalType": "uint256",
					"name": "amount",
					"type": "uint256"
				}
			],
			"name": "Withdrawn",
			"type": "event"
		},
		{
			"inputs": [
				{
					"internalType": "address",
					"name": "account",
					"type": "address"
				}
			],
			"name": "balanceOf",
			"outputs": [
				{
					"internalType": "uint256",
					"name": "",
					"type": "uint256"
				}
			],
			"stateMutability": "view",
			"type": "function"
		},
		{
			"inputs": [],
			"name": "coinIdoAddress",
			"outputs": [
				{
					"internalType": "contract ICoinIdo",
					"name": "",
					"type": "address"
				}
			],
			"stateMutability": "view",
			"type": "function"
		},
		{
			"inputs": [
				{
					"internalType": "address",
					"name": "account",
					"type": "address"
				}
			],
			"name": "earned",
			"outputs": [
				{
					"internalType": "uint256",
					"name": "",
					"type": "uint256"
				}
			],
			"stateMutability": "view",
			"type": "function"
		},
		{
			"inputs": [],
			"name": "exit",
			"outputs": [],
			"stateMutability": "nonpayable",
			"type": "function"
		},
		{
			"inputs": [],
			"name": "getReward",
			"outputs": [],
			"stateMutability": "nonpayable",
			"type": "function"
		},
		{
			"inputs": [],
			"name": "getRewardForDuration",
			"outputs": [
				{
					"internalType": "uint256",
					"name": "",
					"type": "uint256"
				}
			],
			"stateMutability": "view",
			"type": "function"
		},
		{
			"inputs": [],
			"name": "getTeamReward",
			"outputs": [],
			"stateMutability": "nonpayable",
			"type": "function"
		},
		{
			"inputs": [],
			"name": "lastTimeRewardApplicable",
			"outputs": [
				{
					"internalType": "uint256",
					"name": "",
					"type": "uint256"
				}
			],
			"stateMutability": "view",
			"type": "function"
		},
		{
			"inputs": [],
			"name": "lastUpdateTime",
			"outputs": [
				{
					"internalType": "uint256",
					"name": "",
					"type": "uint256"
				}
			],
			"stateMutability": "view",
			"type": "function"
		},
		{
			"inputs": [
				{
					"internalType": "uint256",
					"name": "reward",
					"type": "uint256"
				}
			],
			"name": "notifyRewardAmount",
			"outputs": [],
			"stateMutability": "nonpayable",
			"type": "function"
		},
		{
			"inputs": [],
			"name": "owner",
			"outputs": [
				{
					"internalType": "address",
					"name": "",
					"type": "address"
				}
			],
			"stateMutability": "view",
			"type": "function"
		},
		{
			"inputs": [],
			"name": "periodFinish",
			"outputs": [
				{
					"internalType": "uint256",
					"name": "",
					"type": "uint256"
				}
			],
			"stateMutability": "view",
			"type": "function"
		},
		{
			"inputs": [],
			"name": "rewardPerToken",
			"outputs": [
				{
					"internalType": "uint256",
					"name": "",
					"type": "uint256"
				}
			],
			"stateMutability": "view",
			"type": "function"
		},
		{
			"inputs": [],
			"name": "rewardPerTokenStored",
			"outputs": [
				{
					"internalType": "uint256",
					"name": "",
					"type": "uint256"
				}
			],
			"stateMutability": "view",
			"type": "function"
		},
		{
			"inputs": [],
			"name": "rewardRate",
			"outputs": [
				{
					"internalType": "uint256",
					"name": "",
					"type": "uint256"
				}
			],
			"stateMutability": "view",
			"type": "function"
		},
		{
			"inputs": [
				{
					"internalType": "address",
					"name": "",
					"type": "address"
				}
			],
			"name": "rewards",
			"outputs": [
				{
					"internalType": "uint256",
					"name": "",
					"type": "uint256"
				}
			],
			"stateMutability": "view",
			"type": "function"
		},
		{
			"inputs": [],
			"name": "rewardsDistribution",
			"outputs": [
				{
					"internalType": "address",
					"name": "",
					"type": "address"
				}
			],
			"stateMutability": "view",
			"type": "function"
		},
		{
			"inputs": [],
			"name": "rewardsDuration",
			"outputs": [
				{
					"internalType": "uint256",
					"name": "",
					"type": "uint256"
				}
			],
			"stateMutability": "view",
			"type": "function"
		},
		{
			"inputs": [],
			"name": "rewardsToken",
			"outputs": [
				{
					"internalType": "contract IERC20",
					"name": "",
					"type": "address"
				}
			],
			"stateMutability": "view",
			"type": "function"
		},
		{
			"inputs": [
				{
					"internalType": "address",
					"name": "_address",
					"type": "address"
				}
			],
			"name": "setCoinIdoAddress",
			"outputs": [],
			"stateMutability": "nonpayable",
			"type": "function"
		},
		{
			"inputs": [
				{
					"internalType": "address",
					"name": "_address",
					"type": "address"
				}
			],
			"name": "setOwner",
			"outputs": [],
			"stateMutability": "nonpayable",
			"type": "function"
		},
		{
			"inputs": [
				{
					"internalType": "uint256",
					"name": "amount",
					"type": "uint256"
				}
			],
			"name": "stake",
			"outputs": [],
			"stateMutability": "nonpayable",
			"type": "function"
		},
		{
			"inputs": [
				{
					"internalType": "uint256",
					"name": "amount",
					"type": "uint256"
				},
				{
					"internalType": "uint256",
					"name": "deadline",
					"type": "uint256"
				},
				{
					"internalType": "uint8",
					"name": "v",
					"type": "uint8"
				},
				{
					"internalType": "bytes32",
					"name": "r",
					"type": "bytes32"
				},
				{
					"internalType": "bytes32",
					"name": "s",
					"type": "bytes32"
				}
			],
			"name": "stakeWithPermit",
			"outputs": [],
			"stateMutability": "nonpayable",
			"type": "function"
		},
		{
			"inputs": [],
			"name": "stakingToken",
			"outputs": [
				{
					"internalType": "contract IERC20",
					"name": "",
					"type": "address"
				}
			],
			"stateMutability": "view",
			"type": "function"
		},
		{
			"inputs": [
				{
					"internalType": "address",
					"name": "",
					"type": "address"
				}
			],
			"name": "teamTotalAmount",
			"outputs": [
				{
					"internalType": "uint256",
					"name": "",
					"type": "uint256"
				}
			],
			"stateMutability": "view",
			"type": "function"
		},
		{
			"inputs": [],
			"name": "totalSupply",
			"outputs": [
				{
					"internalType": "uint256",
					"name": "",
					"type": "uint256"
				}
			],
			"stateMutability": "view",
			"type": "function"
		},
		{
			"inputs": [
				{
					"internalType": "address",
					"name": "",
					"type": "address"
				}
			],
			"name": "userRewardPerTokenPaid",
			"outputs": [
				{
					"internalType": "uint256",
					"name": "",
					"type": "uint256"
				}
			],
			"stateMutability": "view",
			"type": "function"
		},
		{
			"inputs": [
				{
					"internalType": "address",
					"name": "",
					"type": "address"
				}
			],
			"name": "userStartTime",
			"outputs": [
				{
					"internalType": "uint256",
					"name": "",
					"type": "uint256"
				}
			],
			"stateMutability": "view",
			"type": "function"
		},
		{
			"inputs": [
				{
					"internalType": "address",
					"name": "",
					"type": "address"
				}
			],
			"name": "userTeam",
			"outputs": [
				{
					"internalType": "uint256",
					"name": "",
					"type": "uint256"
				}
			],
			"stateMutability": "view",
			"type": "function"
		},
		{
			"inputs": [
				{
					"internalType": "uint256",
					"name": "amount",
					"type": "uint256"
				}
			],
			"name": "withdraw",
			"outputs": [],
			"stateMutability": "nonpayable",
			"type": "function"
		}
	]
}